{
	"data": {
		"bytecode": {
			"linkReferences": {},
			"object": "60806040526009805461ff00191661010017905534801561001f57600080fd5b50604051611d87380380611d8783398101604081905261003e9161015f565b60016000556001600160a01b03831661009e5760405162461bcd60e51b815260206004820181905260248201527f446576656c6f70657220616464726573732063616e6e6f74206265207a65726f60448201526064015b60405180910390fd5b6001600160a01b0382166101005760405162461bcd60e51b815260206004820152602360248201527f546f6b656e466163746f727920616464726573732063616e6e6f74206265207a60448201526265726f60e81b6064820152608401610095565b600380546001600160a01b039485166001600160a01b0319918216179091556002805493909416921691909117909155600a556009805461ff001916905561019b565b80516001600160a01b038116811461015a57600080fd5b919050565b60008060006060848603121561017457600080fd5b61017d84610143565b925061018b60208501610143565b9150604084015190509250925092565b611bdd806101aa6000396000f3fe6080604052600436106101815760003560e01c80635a76f25e116100d1578063a000bf4f1161008a578063c98a0aa811610064578063c98a0aa814610420578063c98b7fd214610440578063cc1776d314610460578063e77772fe1461047657600080fd5b8063a000bf4f146103e3578063a482171914610403578063afd6b3c11461040b57600080fd5b80635a76f25e1461034a57806360c72883146103605780638d5f17aa1461037b57806390bc1e851461039a57806396343fd5146103b05780639ed7ef4e146103d057600080fd5b80632182ad881161013e5780633ad10ef6116101185780633ad10ef6146102de578063436d3340146102fe578063443cb4bc1461031e5780634f7041a51461033457600080fd5b80632182ad88146102795780632397e4d714610294578063299ce7b2146102b457600080fd5b806304c80c821461018657806304ccde37146101b85780630902f1ac146101da5780630dfe1681146102025780630f0e7c8a1461023a57806312185a3914610259575b600080fd5b34801561019257600080fd5b506101a56ad51ac75d3cbca70090127981565b6040519081526020015b60405180910390f35b3480156101c457600080fd5b506101d86101d3366004611988565b610496565b005b3480156101e657600080fd5b50600554600654604080519283526020830191909152016101af565b34801561020e57600080fd5b50600154610222906001600160a01b031681565b6040516001600160a01b0390911681526020016101af565b34801561024657600080fd5b506101a56ad51ac75d3ca56ea04771f481565b34801561026557600080fd5b506101d86102743660046119a5565b610574565b34801561028557600080fd5b506101a5667134f38362d66481565b3480156102a057600080fd5b506101a56102af3660046119a5565b6105e3565b3480156102c057600080fd5b506009546102ce9060ff1681565b60405190151581526020016101af565b3480156102ea57600080fd5b50600354610222906001600160a01b031681565b34801561030a57600080fd5b506101d86103193660046119a5565b610990565b34801561032a57600080fd5b506101a560055481565b34801561034057600080fd5b506101a560075481565b34801561035657600080fd5b506101a560065481565b34801561036c57600080fd5b506101a5667134f38362ca0e81565b34801561038757600080fd5b506009546102ce90610100900460ff1681565b3480156103a657600080fd5b506101a5600a5481565b3480156103bc57600080fd5b506101d86103cb3660046119a5565b6109f9565b6101d86103de3660046119cc565b610ab4565b3480156103ef57600080fd5b506102226103fe366004611a33565b610bda565b6101a5610c6d565b34801561041757600080fd5b506101d8611179565b34801561042c57600080fd5b506101d861043b366004611a55565b611183565b34801561044c57600080fd5b50600454610222906001600160a01b031681565b34801561046c57600080fd5b506101a560085481565b34801561048257600080fd5b50600254610222906001600160a01b031681565b6002546001600160a01b031633146104c95760405162461bcd60e51b81526004016104c090611a72565b60405180910390fd5b6001600160a01b03811661052a5760405162461bcd60e51b815260206004820152602260248201527f496e697469616c697a657220616464726573732063616e6e6f74206265207a65604482015261726f60f01b60648201526084016104c0565b600480546001600160a01b0319166001600160a01b0383169081179091556040517fe6223ef4a6cc26f11671126040eb90609754df785e229f9fc28e9612ca3380bc90600090a250565b6002546001600160a01b0316331461059e5760405162461bcd60e51b81526004016104c090611a72565b600881905560075460408051918252602082018390527fb841faf0d1b32571f4ef966a2f35e3ae51f3cdda45318c3da5570a5b2ad8560591015b60405180910390a150565b60006105ed6111f6565b600082116106355760405162461bcd60e51b81526020600482015260156024820152744d7573742073656c6c20736f6d6520746f6b656e7360581b60448201526064016104c0565b6000826005546106459190611abf565b9050600061065e6ad51ac75d3cbca70090127983611abf565b667134f38362d6646006546106739190611abf565b6ad51ac75d3cbca70090127960055461068c9190611abf565b6106969190611ad2565b6106a09190611ae9565b9050667134f38362d6648110156106bb5750667134f38362d6645b60006106ce667134f38362d66483611b0b565b905060065481116106ec57806006546106e79190611b0b565b6106f0565b6006545b935082600581905550836006600082825461070b9190611b0b565b90915550506008546000906103e8906107249087611ad2565b61072e9190611ae9565b905061073a8186611b0b565b6003546040519196506000916001600160a01b039091169083908381818185875af1925050503d806000811461078c576040519150601f19603f3d011682016040523d82523d6000602084013e610791565b606091505b50509050806107e25760405162461bcd60e51b815260206004820152601760248201527f4661696c656420746f2073656e642073656c6c2074617800000000000000000060448201526064016104c0565b6001546040516323b872dd60e01b8152336004820152306024820152604481018990526001600160a01b03909116906323b872dd906064016020604051808303816000875af1158015610839573d6000803e3d6000fd5b505050506040513d601f19601f8201168201806040525081019061085d9190611b1e565b6108a55760405162461bcd60e51b81526020600482015260196024820152784661696c656420746f207472616e7366657220746f6b656e7360381b60448201526064016104c0565b604051600090339088908381818185875af1925050503d80600081146108e7576040519150601f19603f3d011682016040523d82523d6000602084013e6108ec565b606091505b50509050806109345760405162461bcd60e51b81526020600482015260146024820152732330b4b632b2103a379039b2b7321032ba3432b960611b60448201526064016104c0565b600854604080518a8152602081018a90529081019190915233907f6db63bebf1e6540277744df32846ebdb98385b1a73f2d5de49b28348add63f509060600160405180910390a250505050505061098b6001600055565b919050565b6002546001600160a01b031633146109ba5760405162461bcd60e51b81526004016104c090611a72565b60078190556008546040805183815260208101929092527fb841faf0d1b32571f4ef966a2f35e3ae51f3cdda45318c3da5570a5b2ad8560591016105d8565b6002546001600160a01b03163314610a235760405162461bcd60e51b81526004016104c090611a72565b60008111610a7f5760405162461bcd60e51b815260206004820152602360248201527f5468726573686f6c64206d7573742062652067726561746572207468616e207a60448201526265726f60e81b60648201526084016104c0565b600a8190556040518181527f4ad9ae9229776f627d7d2be995964376397890e11bbfa94e8826810419a6ef6b906020016105d8565b6002546001600160a01b03163314610ade5760405162461bcd60e51b81526004016104c090611a72565b610ae66111f6565b6001546001600160a01b031615610b3f5760405162461bcd60e51b815260206004820152601860248201527f506f6f6c20616c726561647920696e697469616c697a6564000000000000000060448201526064016104c0565b600180546001600160a01b03199081166001600160a01b0389811691909117909255600587905560078690556008859055600480549091169184169190911790556009805461ff0019166101008315150217905560405185815233907fc17cea59c2955cb181b03393209566960365771dbba9dc3d510180e7cb3120889060200160405180910390a2610bd26001600055565b505050505050565b60008083118015610beb5750600082115b610c415760405162461bcd60e51b815260206004820152602160248201527f416d6f756e7473206d7573742062652067726561746572207468616e207a65726044820152606f60f81b60648201526084016104c0565b6000610c5184606085901b611ae9565b905060006030610c6083611220565b901b925050505b92915050565b6000610c776111f6565b60095460ff1615610cca5760405162461bcd60e51b815260206004820152601860248201527f506f6f6c206d6967726174656420746f20416c6765627261000000000000000060448201526064016104c0565b60003411610d1a5760405162461bcd60e51b815260206004820152601d60248201527f4d7573742073656e6420457468657220746f2062757920746f6b656e7300000060448201526064016104c0565b6702c68af0bb14000060065410610d625760405162461bcd60e51b815260206004820152600c60248201526b141bdbdb081a5cc8199d5b1b60a21b60448201526064016104c0565b600060055411610dac5760405162461bcd60e51b8152602060048201526015602482015274139bc81d1bdad95b9cc81a5b881d1a19481c1bdbdb605a1b60448201526064016104c0565b60006103e860075434610dbf9190611ad2565b610dc99190611ae9565b90506000610dd78234611b0b565b90506702c68af0bb14000081600654610df09190611abf565b10610ee65760006006546702c68af0bb140000610e0d9190611b0b565b90506000610e1b8284611b0b565b90508160066000828254610e2f9190611abf565b909155505060058054600090915594508015610edf57604051600090339083908381818185875af1925050503d8060008114610e87576040519150601f19603f3d011682016040523d82523d6000602084013e610e8c565b606091505b5050905080610edd5760405162461bcd60e51b815260206004820152601d60248201527f4661696c656420746f20726566756e642065786365737320657468657200000060448201526064016104c0565b505b5050610fcd565b600081600654610ef69190611abf565b90506000610f0b667134f38362ca0e83611abf565b667134f38362d664600654610f209190611abf565b6ad51ac75d3cbca700901279600554610f399190611abf565b610f439190611ad2565b610f4d9190611ae9565b90506ad51ac75d3ca56ea04771f4811015610f7057506ad51ac75d3ca56ea04771f45b6000610f876ad51ac75d3ca56ea04771f483611b0b565b90506005548111610fa55780600554610fa09190611b0b565b610fa9565b6005545b9550826006819055508560056000828254610fc49190611b0b565b90915550505050505b60015460405163a9059cbb60e01b8152336004820152602481018590526001600160a01b039091169063a9059cbb906044016020604051808303816000875af115801561101e573d6000803e3d6000fd5b505050506040513d601f19601f820116820180604052508101906110429190611b1e565b61108a5760405162461bcd60e51b81526020600482015260196024820152784661696c656420746f207472616e7366657220746f6b656e7360381b60448201526064016104c0565b6003546040516000916001600160a01b03169084908381818185875af1925050503d80600081146110d7576040519150601f19603f3d011682016040523d82523d6000602084013e6110dc565b606091505b50509050806111265760405162461bcd60e51b815260206004820152601660248201527508cc2d2d8cac840e8de40e6cadcc840c4eaf240e8c2f60531b60448201526064016104c0565b604080513481526020810186905290810184905233907f0d1a0d5e3d583a0e92588799dd06e50fd78c07daf05f0cc06d7b848b1ca445f19060600160405180910390a25050506111766001600055565b90565b611181611277565b565b6002546001600160a01b031633146111ad5760405162461bcd60e51b81526004016104c090611a72565b600980548215156101000261ff00199091161790556040517fe7e0bd136ab3b57e3e925774a811e2482df79072fa45d011a4f088abfcc209d2906105d890831515815260200190565b60026000540361121957604051633ee5aeb560e01b815260040160405180910390fd5b6002600055565b6000806002611230846001611abf565b61123a9190611ae9565b9050825b808210156112705750806002816112558187611ae9565b61125f9190611abf565b6112699190611ae9565b915061123e565b9392505050565b61127f6111f6565b42306001600160a01b0316600080516020611b888339815191526040516112cb90602080825260119082015270135a59dc985d1a5bdb881cdd185c9d1959607a1b604082015260600190565b60405180910390a360095460ff16156113265760405162461bcd60e51b815260206004820152601b60248201527f416c7265616479206d6967726174656420746f20416c6765627261000000000060448201526064016104c0565b42306001600160a01b0316600080516020611b8883398151915260405161137790602080825260169082015275135a59dc985d1a5bdb8818da1958dac81c185cdcd95960521b604082015260600190565b60405180910390a36004546001600160a01b03166113e75760405162461bcd60e51b815260206004820152602760248201527f416c676562726120506f6f6c496e697469616c697a65722061646472657373206044820152661b9bdd081cd95d60ca1b60648201526084016104c0565b60045460405142916001600160a01b031690600080516020611b88833981519152906114449060208082526018908201527f496e697469616c697a657220636865636b207061737365640000000000000000604082015260600190565b60405180910390a3600061145a60016064610bda565b9050806001600160a01b031660006001600160a01b0316600080516020611b888339815191526040516114be9060208082526017908201527f5371727450726963655839362063616c63756c61746564000000000000000000604082015260600190565b60405180910390a36001546040516001600160a01b039182166024820152306044820152908216606482015260009060840160408051601f198184030181529181526020820180516001600160e01b031663289236b760e11b179052600454905191925060009182916001600160a01b03169061153c908590611b3b565b6000604051808303816000865af19150503d8060008114611579576040519150601f19603f3d011682016040523d82523d6000602084013e61157e565b606091505b50915091508161158f576000611592565b60015b60045460405160ff92909216916001600160a01b0390911690600080516020611b88833981519152906115f69060208082526018908201527f43616c6c20746f20696e697469616c697a6572206d6164650000000000000000604082015260600190565b60405180910390a3816116635760405162461bcd60e51b815260206004820152602f60248201527f416c676562726120706f6f6c206372656174696f6e20616e6420696e6974696160448201526e1b1a5e985d1a5bdb8819985a5b1959608a1b60648201526084016104c0565b6000818060200190518101906116799190611b6a565b905042816001600160a01b0316600080516020611b888339815191526040516116ca90602080825260149082015273141bdbdb081859191c995cdcc8191958dbd9195960621b604082015260600190565b60405180910390a36001600160a01b0381166117285760405162461bcd60e51b815260206004820152601c60248201527f496e76616c696420416c676562726120706f6f6c20616464726573730000000060448201526064016104c0565b60015460055460405163a9059cbb60e01b81526001600160a01b038481166004830152602482019290925291169063a9059cbb906044016020604051808303816000875af115801561177e573d6000803e3d6000fd5b505050506040513d601f19601f820116820180604052508101906117a29190611b1e565b50600554816001600160a01b0316600080516020611b888339815191526040516117f290602080825260129082015271151bdad95b9cc81d1c985b9cd9995c9c995960721b604082015260600190565b60405180910390a36006546040516000916001600160a01b038416918381818185875af1925050503d8060008114611846576040519150601f19603f3d011682016040523d82523d6000602084013e61184b565b606091505b50509050806118ad5760405162461bcd60e51b815260206004820152602860248201527f4661696c656420746f207472616e7366657220457468657220746f20416c6765604482015267189c98481c1bdbdb60c21b60648201526084016104c0565b600654826001600160a01b0316600080516020611b888339815191526040516118fb90602080825260119082015270115d1a195c881d1c985b9cd9995c9c9959607a1b604082015260600190565b60405180910390a36009805460ff191660011790556005546006546040516001600160a01b038516927f681fa2c4629192623c409b90cb2463cea250bd2012f3ac5f34af5cfa45d4822a9261195892918252602082015260400190565b60405180910390a25050505050506111816001600055565b6001600160a01b038116811461198557600080fd5b50565b60006020828403121561199a57600080fd5b813561127081611970565b6000602082840312156119b757600080fd5b5035919050565b801515811461198557600080fd5b60008060008060008060c087890312156119e557600080fd5b86356119f081611970565b95506020870135945060408701359350606087013592506080870135611a1581611970565b915060a0870135611a25816119be565b809150509295509295509295565b60008060408385031215611a4657600080fd5b50508035926020909101359150565b600060208284031215611a6757600080fd5b8135611270816119be565b6020808252601e908201527f43616c6c6572206973206e6f742074686520546f6b656e466163746f72790000604082015260600190565b634e487b7160e01b600052601160045260246000fd5b80820180821115610c6757610c67611aa9565b8082028115828204841417610c6757610c67611aa9565b600082611b0657634e487b7160e01b600052601260045260246000fd5b500490565b81810381811115610c6757610c67611aa9565b600060208284031215611b3057600080fd5b8151611270816119be565b6000825160005b81811015611b5c5760208186018101518583015201611b42565b506000920191825250919050565b600060208284031215611b7c57600080fd5b81516112708161197056fe0aab2fa01991cb09a172fcbd047ae0ec54da8e5c963e3160632983264cf02186a264697066735822122088a3b54ff95ea017365e1ddc4f726baeadac5f648a9be23106b5cf724b9c122564736f6c634300081a0033",
			"opcodes": "PUSH1 0x80 PUSH1 0x40 MSTORE PUSH1 0x9 DUP1 SLOAD PUSH2 0xFF00 NOT AND PUSH2 0x100 OR SWAP1 SSTORE CALLVALUE DUP1 ISZERO PUSH2 0x1F JUMPI PUSH1 0x0 DUP1 REVERT JUMPDEST POP PUSH1 0x40 MLOAD PUSH2 0x1D87 CODESIZE SUB DUP1 PUSH2 0x1D87 DUP4 CODECOPY DUP2 ADD PUSH1 0x40 DUP2 SWAP1 MSTORE PUSH2 0x3E SWAP2 PUSH2 0x15F JUMP JUMPDEST PUSH1 0x1 PUSH1 0x0 SSTORE PUSH1 0x1 PUSH1 0x1 PUSH1 0xA0 SHL SUB DUP4 AND PUSH2 0x9E JUMPI PUSH1 0x40 MLOAD PUSH3 0x461BCD PUSH1 0xE5 SHL DUP2 MSTORE PUSH1 0x20 PUSH1 0x4 DUP3 ADD DUP2 SWAP1 MSTORE PUSH1 0x24 DUP3 ADD MSTORE PUSH32 0x446576656C6F70657220616464726573732063616E6E6F74206265207A65726F PUSH1 0x44 DUP3 ADD MSTORE PUSH1 0x64 ADD JUMPDEST PUSH1 0x40 MLOAD DUP1 SWAP2 SUB SWAP1 REVERT JUMPDEST PUSH1 0x1 PUSH1 0x1 PUSH1 0xA0 SHL SUB DUP3 AND PUSH2 0x100 JUMPI PUSH1 0x40 MLOAD PUSH3 0x461BCD PUSH1 0xE5 SHL DUP2 MSTORE PUSH1 0x20 PUSH1 0x4 DUP3 ADD MSTORE PUSH1 0x23 PUSH1 0x24 DUP3 ADD MSTORE PUSH32 0x546F6B656E466163746F727920616464726573732063616E6E6F74206265207A PUSH1 0x44 DUP3 ADD MSTORE PUSH3 0x65726F PUSH1 0xE8 SHL PUSH1 0x64 DUP3 ADD MSTORE PUSH1 0x84 ADD PUSH2 0x95 JUMP JUMPDEST PUSH1 0x3 DUP1 SLOAD PUSH1 0x1 PUSH1 0x1 PUSH1 0xA0 SHL SUB SWAP5 DUP6 AND PUSH1 0x1 PUSH1 0x1 PUSH1 0xA0 SHL SUB NOT SWAP2 DUP3 AND OR SWAP1 SWAP2 SSTORE PUSH1 0x2 DUP1 SLOAD SWAP4 SWAP1 SWAP5 AND SWAP3 AND SWAP2 SWAP1 SWAP2 OR SWAP1 SWAP2 SSTORE PUSH1 0xA SSTORE PUSH1 0x9 DUP1 SLOAD PUSH2 0xFF00 NOT AND SWAP1 SSTORE PUSH2 0x19B JUMP JUMPDEST DUP1 MLOAD PUSH1 0x1 PUSH1 0x1 PUSH1 0xA0 SHL SUB DUP2 AND DUP2 EQ PUSH2 0x15A JUMPI PUSH1 0x0 DUP1 REVERT JUMPDEST SWAP2 SWAP1 POP JUMP JUMPDEST PUSH1 0x0 DUP1 PUSH1 0x0 PUSH1 0x60 DUP5 DUP7 SUB SLT ISZERO PUSH2 0x174 JUMPI PUSH1 0x0 DUP1 REVERT JUMPDEST PUSH2 0x17D DUP5 PUSH2 0x143 JUMP JUMPDEST SWAP3 POP PUSH2 0x18B PUSH1 0x20 DUP6 ADD PUSH2 0x143 JUMP JUMPDEST SWAP2 POP PUSH1 0x40 DUP5 ADD MLOAD SWAP1 POP SWAP3 POP SWAP3 POP SWAP3 JUMP JUMPDEST PUSH2 0x1BDD DUP1 PUSH2 0x1AA PUSH1 0x0 CODECOPY PUSH1 0x0 RETURN INVALID PUSH1 0x80 PUSH1 0x40 MSTORE PUSH1 0x4 CALLDATASIZE LT PUSH2 0x181 JUMPI PUSH1 0x0 CALLDATALOAD PUSH1 0xE0 SHR DUP1 PUSH4 0x5A76F25E GT PUSH2 0xD1 JUMPI DUP1 PUSH4 0xA000BF4F GT PUSH2 0x8A JUMPI DUP1 PUSH4 0xC98A0AA8 GT PUSH2 0x64 JUMPI DUP1 PUSH4 0xC98A0AA8 EQ PUSH2 0x420 JUMPI DUP1 PUSH4 0xC98B7FD2 EQ PUSH2 0x440 JUMPI DUP1 PUSH4 0xCC1776D3 EQ PUSH2 0x460 JUMPI DUP1 PUSH4 0xE77772FE EQ PUSH2 0x476 JUMPI PUSH1 0x0 DUP1 REVERT JUMPDEST DUP1 PUSH4 0xA000BF4F EQ PUSH2 0x3E3 JUMPI DUP1 PUSH4 0xA4821719 EQ PUSH2 0x403 JUMPI DUP1 PUSH4 0xAFD6B3C1 EQ PUSH2 0x40B JUMPI PUSH1 0x0 DUP1 REVERT JUMPDEST DUP1 PUSH4 0x5A76F25E EQ PUSH2 0x34A JUMPI DUP1 PUSH4 0x60C72883 EQ PUSH2 0x360 JUMPI DUP1 PUSH4 0x8D5F17AA EQ PUSH2 0x37B JUMPI DUP1 PUSH4 0x90BC1E85 EQ PUSH2 0x39A JUMPI DUP1 PUSH4 0x96343FD5 EQ PUSH2 0x3B0 JUMPI DUP1 PUSH4 0x9ED7EF4E EQ PUSH2 0x3D0 JUMPI PUSH1 0x0 DUP1 REVERT JUMPDEST DUP1 PUSH4 0x2182AD88 GT PUSH2 0x13E JUMPI DUP1 PUSH4 0x3AD10EF6 GT PUSH2 0x118 JUMPI DUP1 PUSH4 0x3AD10EF6 EQ PUSH2 0x2DE JUMPI DUP1 PUSH4 0x436D3340 EQ PUSH2 0x2FE JUMPI DUP1 PUSH4 0x443CB4BC EQ PUSH2 0x31E JUMPI DUP1 PUSH4 0x4F7041A5 EQ PUSH2 0x334 JUMPI PUSH1 0x0 DUP1 REVERT JUMPDEST DUP1 PUSH4 0x2182AD88 EQ PUSH2 0x279 JUMPI DUP1 PUSH4 0x2397E4D7 EQ PUSH2 0x294 JUMPI DUP1 PUSH4 0x299CE7B2 EQ PUSH2 0x2B4 JUMPI PUSH1 0x0 DUP1 REVERT JUMPDEST DUP1 PUSH4 0x4C80C82 EQ PUSH2 0x186 JUMPI DUP1 PUSH4 0x4CCDE37 EQ PUSH2 0x1B8 JUMPI DUP1 PUSH4 0x902F1AC EQ PUSH2 0x1DA JUMPI DUP1 PUSH4 0xDFE1681 EQ PUSH2 0x202 JUMPI DUP1 PUSH4 0xF0E7C8A EQ PUSH2 0x23A JUMPI DUP1 PUSH4 0x12185A39 EQ PUSH2 0x259 JUMPI JUMPDEST PUSH1 0x0 DUP1 REVERT JUMPDEST CALLVALUE DUP1 ISZERO PUSH2 0x192 JUMPI PUSH1 0x0 DUP1 REVERT JUMPDEST POP PUSH2 0x1A5 PUSH11 0xD51AC75D3CBCA700901279 DUP2 JUMP JUMPDEST PUSH1 0x40 MLOAD SWAP1 DUP2 MSTORE PUSH1 0x20 ADD JUMPDEST PUSH1 0x40 MLOAD DUP1 SWAP2 SUB SWAP1 RETURN JUMPDEST CALLVALUE DUP1 ISZERO PUSH2 0x1C4 JUMPI PUSH1 0x0 DUP1 REVERT JUMPDEST POP PUSH2 0x1D8 PUSH2 0x1D3 CALLDATASIZE PUSH1 0x4 PUSH2 0x1988 JUMP JUMPDEST PUSH2 0x496 JUMP JUMPDEST STOP JUMPDEST CALLVALUE DUP1 ISZERO PUSH2 0x1E6 JUMPI PUSH1 0x0 DUP1 REVERT JUMPDEST POP PUSH1 0x5 SLOAD PUSH1 0x6 SLOAD PUSH1 0x40 DUP1 MLOAD SWAP3 DUP4 MSTORE PUSH1 0x20 DUP4 ADD SWAP2 SWAP1 SWAP2 MSTORE ADD PUSH2 0x1AF JUMP JUMPDEST CALLVALUE DUP1 ISZERO PUSH2 0x20E JUMPI PUSH1 0x0 DUP1 REVERT JUMPDEST POP PUSH1 0x1 SLOAD PUSH2 0x222 SWAP1 PUSH1 0x1 PUSH1 0x1 PUSH1 0xA0 SHL SUB AND DUP2 JUMP JUMPDEST PUSH1 0x40 MLOAD PUSH1 0x1 PUSH1 0x1 PUSH1 0xA0 SHL SUB SWAP1 SWAP2 AND DUP2 MSTORE PUSH1 0x20 ADD PUSH2 0x1AF JUMP JUMPDEST CALLVALUE DUP1 ISZERO PUSH2 0x246 JUMPI PUSH1 0x0 DUP1 REVERT JUMPDEST POP PUSH2 0x1A5 PUSH11 0xD51AC75D3CA56EA04771F4 DUP2 JUMP JUMPDEST CALLVALUE DUP1 ISZERO PUSH2 0x265 JUMPI PUSH1 0x0 DUP1 REVERT JUMPDEST POP PUSH2 0x1D8 PUSH2 0x274 CALLDATASIZE PUSH1 0x4 PUSH2 0x19A5 JUMP JUMPDEST PUSH2 0x574 JUMP JUMPDEST CALLVALUE DUP1 ISZERO PUSH2 0x285 JUMPI PUSH1 0x0 DUP1 REVERT JUMPDEST POP PUSH2 0x1A5 PUSH7 0x7134F38362D664 DUP2 JUMP JUMPDEST CALLVALUE DUP1 ISZERO PUSH2 0x2A0 JUMPI PUSH1 0x0 DUP1 REVERT JUMPDEST POP PUSH2 0x1A5 PUSH2 0x2AF CALLDATASIZE PUSH1 0x4 PUSH2 0x19A5 JUMP JUMPDEST PUSH2 0x5E3 JUMP JUMPDEST CALLVALUE DUP1 ISZERO PUSH2 0x2C0 JUMPI PUSH1 0x0 DUP1 REVERT JUMPDEST POP PUSH1 0x9 SLOAD PUSH2 0x2CE SWAP1 PUSH1 0xFF AND DUP2 JUMP JUMPDEST PUSH1 0x40 MLOAD SWAP1 ISZERO ISZERO DUP2 MSTORE PUSH1 0x20 ADD PUSH2 0x1AF JUMP JUMPDEST CALLVALUE DUP1 ISZERO PUSH2 0x2EA JUMPI PUSH1 0x0 DUP1 REVERT JUMPDEST POP PUSH1 0x3 SLOAD PUSH2 0x222 SWAP1 PUSH1 0x1 PUSH1 0x1 PUSH1 0xA0 SHL SUB AND DUP2 JUMP JUMPDEST CALLVALUE DUP1 ISZERO PUSH2 0x30A JUMPI PUSH1 0x0 DUP1 REVERT JUMPDEST POP PUSH2 0x1D8 PUSH2 0x319 CALLDATASIZE PUSH1 0x4 PUSH2 0x19A5 JUMP JUMPDEST PUSH2 0x990 JUMP JUMPDEST CALLVALUE DUP1 ISZERO PUSH2 0x32A JUMPI PUSH1 0x0 DUP1 REVERT JUMPDEST POP PUSH2 0x1A5 PUSH1 0x5 SLOAD DUP2 JUMP JUMPDEST CALLVALUE DUP1 ISZERO PUSH2 0x340 JUMPI PUSH1 0x0 DUP1 REVERT JUMPDEST POP PUSH2 0x1A5 PUSH1 0x7 SLOAD DUP2 JUMP JUMPDEST CALLVALUE DUP1 ISZERO PUSH2 0x356 JUMPI PUSH1 0x0 DUP1 REVERT JUMPDEST POP PUSH2 0x1A5 PUSH1 0x6 SLOAD DUP2 JUMP JUMPDEST CALLVALUE DUP1 ISZERO PUSH2 0x36C JUMPI PUSH1 0x0 DUP1 REVERT JUMPDEST POP PUSH2 0x1A5 PUSH7 0x7134F38362CA0E DUP2 JUMP JUMPDEST CALLVALUE DUP1 ISZERO PUSH2 0x387 JUMPI PUSH1 0x0 DUP1 REVERT JUMPDEST POP PUSH1 0x9 SLOAD PUSH2 0x2CE SWAP1 PUSH2 0x100 SWAP1 DIV PUSH1 0xFF AND DUP2 JUMP JUMPDEST CALLVALUE DUP1 ISZERO PUSH2 0x3A6 JUMPI PUSH1 0x0 DUP1 REVERT JUMPDEST POP PUSH2 0x1A5 PUSH1 0xA SLOAD DUP2 JUMP JUMPDEST CALLVALUE DUP1 ISZERO PUSH2 0x3BC JUMPI PUSH1 0x0 DUP1 REVERT JUMPDEST POP PUSH2 0x1D8 PUSH2 0x3CB CALLDATASIZE PUSH1 0x4 PUSH2 0x19A5 JUMP JUMPDEST PUSH2 0x9F9 JUMP JUMPDEST PUSH2 0x1D8 PUSH2 0x3DE CALLDATASIZE PUSH1 0x4 PUSH2 0x19CC JUMP JUMPDEST PUSH2 0xAB4 JUMP JUMPDEST CALLVALUE DUP1 ISZERO PUSH2 0x3EF JUMPI PUSH1 0x0 DUP1 REVERT JUMPDEST POP PUSH2 0x222 PUSH2 0x3FE CALLDATASIZE PUSH1 0x4 PUSH2 0x1A33 JUMP JUMPDEST PUSH2 0xBDA JUMP JUMPDEST PUSH2 0x1A5 PUSH2 0xC6D JUMP JUMPDEST CALLVALUE DUP1 ISZERO PUSH2 0x417 JUMPI PUSH1 0x0 DUP1 REVERT JUMPDEST POP PUSH2 0x1D8 PUSH2 0x1179 JUMP JUMPDEST CALLVALUE DUP1 ISZERO PUSH2 0x42C JUMPI PUSH1 0x0 DUP1 REVERT JUMPDEST POP PUSH2 0x1D8 PUSH2 0x43B CALLDATASIZE PUSH1 0x4 PUSH2 0x1A55 JUMP JUMPDEST PUSH2 0x1183 JUMP JUMPDEST CALLVALUE DUP1 ISZERO PUSH2 0x44C JUMPI PUSH1 0x0 DUP1 REVERT JUMPDEST POP PUSH1 0x4 SLOAD PUSH2 0x222 SWAP1 PUSH1 0x1 PUSH1 0x1 PUSH1 0xA0 SHL SUB AND DUP2 JUMP JUMPDEST CALLVALUE DUP1 ISZERO PUSH2 0x46C JUMPI PUSH1 0x0 DUP1 REVERT JUMPDEST POP PUSH2 0x1A5 PUSH1 0x8 SLOAD DUP2 JUMP JUMPDEST CALLVALUE DUP1 ISZERO PUSH2 0x482 JUMPI PUSH1 0x0 DUP1 REVERT JUMPDEST POP PUSH1 0x2 SLOAD PUSH2 0x222 SWAP1 PUSH1 0x1 PUSH1 0x1 PUSH1 0xA0 SHL SUB AND DUP2 JUMP JUMPDEST PUSH1 0x2 SLOAD PUSH1 0x1 PUSH1 0x1 PUSH1 0xA0 SHL SUB AND CALLER EQ PUSH2 0x4C9 JUMPI PUSH1 0x40 MLOAD PUSH3 0x461BCD PUSH1 0xE5 SHL DUP2 MSTORE PUSH1 0x4 ADD PUSH2 0x4C0 SWAP1 PUSH2 0x1A72 JUMP JUMPDEST PUSH1 0x40 MLOAD DUP1 SWAP2 SUB SWAP1 REVERT JUMPDEST PUSH1 0x1 PUSH1 0x1 PUSH1 0xA0 SHL SUB DUP2 AND PUSH2 0x52A JUMPI PUSH1 0x40 MLOAD PUSH3 0x461BCD PUSH1 0xE5 SHL DUP2 MSTORE PUSH1 0x20 PUSH1 0x4 DUP3 ADD MSTORE PUSH1 0x22 PUSH1 0x24 DUP3 ADD MSTORE PUSH32 0x496E697469616C697A657220616464726573732063616E6E6F74206265207A65 PUSH1 0x44 DUP3 ADD MSTORE PUSH2 0x726F PUSH1 0xF0 SHL PUSH1 0x64 DUP3 ADD MSTORE PUSH1 0x84 ADD PUSH2 0x4C0 JUMP JUMPDEST PUSH1 0x4 DUP1 SLOAD PUSH1 0x1 PUSH1 0x1 PUSH1 0xA0 SHL SUB NOT AND PUSH1 0x1 PUSH1 0x1 PUSH1 0xA0 SHL SUB DUP4 AND SWAP1 DUP2 OR SWAP1 SWAP2 SSTORE PUSH1 0x40 MLOAD PUSH32 0xE6223EF4A6CC26F11671126040EB90609754DF785E229F9FC28E9612CA3380BC SWAP1 PUSH1 0x0 SWAP1 LOG2 POP JUMP JUMPDEST PUSH1 0x2 SLOAD PUSH1 0x1 PUSH1 0x1 PUSH1 0xA0 SHL SUB AND CALLER EQ PUSH2 0x59E JUMPI PUSH1 0x40 MLOAD PUSH3 0x461BCD PUSH1 0xE5 SHL DUP2 MSTORE PUSH1 0x4 ADD PUSH2 0x4C0 SWAP1 PUSH2 0x1A72 JUMP JUMPDEST PUSH1 0x8 DUP2 SWAP1 SSTORE PUSH1 0x7 SLOAD PUSH1 0x40 DUP1 MLOAD SWAP2 DUP3 MSTORE PUSH1 0x20 DUP3 ADD DUP4 SWAP1 MSTORE PUSH32 0xB841FAF0D1B32571F4EF966A2F35E3AE51F3CDDA45318C3DA5570A5B2AD85605 SWAP2 ADD JUMPDEST PUSH1 0x40 MLOAD DUP1 SWAP2 SUB SWAP1 LOG1 POP JUMP JUMPDEST PUSH1 0x0 PUSH2 0x5ED PUSH2 0x11F6 JUMP JUMPDEST PUSH1 0x0 DUP3 GT PUSH2 0x635 JUMPI PUSH1 0x40 MLOAD PUSH3 0x461BCD PUSH1 0xE5 SHL DUP2 MSTORE PUSH1 0x20 PUSH1 0x4 DUP3 ADD MSTORE PUSH1 0x15 PUSH1 0x24 DUP3 ADD MSTORE PUSH21 0x4D7573742073656C6C20736F6D6520746F6B656E73 PUSH1 0x58 SHL PUSH1 0x44 DUP3 ADD MSTORE PUSH1 0x64 ADD PUSH2 0x4C0 JUMP JUMPDEST PUSH1 0x0 DUP3 PUSH1 0x5 SLOAD PUSH2 0x645 SWAP2 SWAP1 PUSH2 0x1ABF JUMP JUMPDEST SWAP1 POP PUSH1 0x0 PUSH2 0x65E PUSH11 0xD51AC75D3CBCA700901279 DUP4 PUSH2 0x1ABF JUMP JUMPDEST PUSH7 0x7134F38362D664 PUSH1 0x6 SLOAD PUSH2 0x673 SWAP2 SWAP1 PUSH2 0x1ABF JUMP JUMPDEST PUSH11 0xD51AC75D3CBCA700901279 PUSH1 0x5 SLOAD PUSH2 0x68C SWAP2 SWAP1 PUSH2 0x1ABF JUMP JUMPDEST PUSH2 0x696 SWAP2 SWAP1 PUSH2 0x1AD2 JUMP JUMPDEST PUSH2 0x6A0 SWAP2 SWAP1 PUSH2 0x1AE9 JUMP JUMPDEST SWAP1 POP PUSH7 0x7134F38362D664 DUP2 LT ISZERO PUSH2 0x6BB JUMPI POP PUSH7 0x7134F38362D664 JUMPDEST PUSH1 0x0 PUSH2 0x6CE PUSH7 0x7134F38362D664 DUP4 PUSH2 0x1B0B JUMP JUMPDEST SWAP1 POP PUSH1 0x6 SLOAD DUP2 GT PUSH2 0x6EC JUMPI DUP1 PUSH1 0x6 SLOAD PUSH2 0x6E7 SWAP2 SWAP1 PUSH2 0x1B0B JUMP JUMPDEST PUSH2 0x6F0 JUMP JUMPDEST PUSH1 0x6 SLOAD JUMPDEST SWAP4 POP DUP3 PUSH1 0x5 DUP2 SWAP1 SSTORE POP DUP4 PUSH1 0x6 PUSH1 0x0 DUP3 DUP3 SLOAD PUSH2 0x70B SWAP2 SWAP1 PUSH2 0x1B0B JUMP JUMPDEST SWAP1 SWAP2 SSTORE POP POP PUSH1 0x8 SLOAD PUSH1 0x0 SWAP1 PUSH2 0x3E8 SWAP1 PUSH2 0x724 SWAP1 DUP8 PUSH2 0x1AD2 JUMP JUMPDEST PUSH2 0x72E SWAP2 SWAP1 PUSH2 0x1AE9 JUMP JUMPDEST SWAP1 POP PUSH2 0x73A DUP2 DUP7 PUSH2 0x1B0B JUMP JUMPDEST PUSH1 0x3 SLOAD PUSH1 0x40 MLOAD SWAP2 SWAP7 POP PUSH1 0x0 SWAP2 PUSH1 0x1 PUSH1 0x1 PUSH1 0xA0 SHL SUB SWAP1 SWAP2 AND SWAP1 DUP4 SWAP1 DUP4 DUP2 DUP2 DUP2 DUP6 DUP8 GAS CALL SWAP3 POP POP POP RETURNDATASIZE DUP1 PUSH1 0x0 DUP2 EQ PUSH2 0x78C JUMPI PUSH1 0x40 MLOAD SWAP2 POP PUSH1 0x1F NOT PUSH1 0x3F RETURNDATASIZE ADD AND DUP3 ADD PUSH1 0x40 MSTORE RETURNDATASIZE DUP3 MSTORE RETURNDATASIZE PUSH1 0x0 PUSH1 0x20 DUP5 ADD RETURNDATACOPY PUSH2 0x791 JUMP JUMPDEST PUSH1 0x60 SWAP2 POP JUMPDEST POP POP SWAP1 POP DUP1 PUSH2 0x7E2 JUMPI PUSH1 0x40 MLOAD PUSH3 0x461BCD PUSH1 0xE5 SHL DUP2 MSTORE PUSH1 0x20 PUSH1 0x4 DUP3 ADD MSTORE PUSH1 0x17 PUSH1 0x24 DUP3 ADD MSTORE PUSH32 0x4661696C656420746F2073656E642073656C6C20746178000000000000000000 PUSH1 0x44 DUP3 ADD MSTORE PUSH1 0x64 ADD PUSH2 0x4C0 JUMP JUMPDEST PUSH1 0x1 SLOAD PUSH1 0x40 MLOAD PUSH4 0x23B872DD PUSH1 0xE0 SHL DUP2 MSTORE CALLER PUSH1 0x4 DUP3 ADD MSTORE ADDRESS PUSH1 0x24 DUP3 ADD MSTORE PUSH1 0x44 DUP2 ADD DUP10 SWAP1 MSTORE PUSH1 0x1 PUSH1 0x1 PUSH1 0xA0 SHL SUB SWAP1 SWAP2 AND SWAP1 PUSH4 0x23B872DD SWAP1 PUSH1 0x64 ADD PUSH1 0x20 PUSH1 0x40 MLOAD DUP1 DUP4 SUB DUP2 PUSH1 0x0 DUP8 GAS CALL ISZERO DUP1 ISZERO PUSH2 0x839 JUMPI RETURNDATASIZE PUSH1 0x0 DUP1 RETURNDATACOPY RETURNDATASIZE PUSH1 0x0 REVERT JUMPDEST POP POP POP POP PUSH1 0x40 MLOAD RETURNDATASIZE PUSH1 0x1F NOT PUSH1 0x1F DUP3 ADD AND DUP3 ADD DUP1 PUSH1 0x40 MSTORE POP DUP2 ADD SWAP1 PUSH2 0x85D SWAP2 SWAP1 PUSH2 0x1B1E JUMP JUMPDEST PUSH2 0x8A5 JUMPI PUSH1 0x40 MLOAD PUSH3 0x461BCD PUSH1 0xE5 SHL DUP2 MSTORE PUSH1 0x20 PUSH1 0x4 DUP3 ADD MSTORE PUSH1 0x19 PUSH1 0x24 DUP3 ADD MSTORE PUSH25 0x4661696C656420746F207472616E7366657220746F6B656E73 PUSH1 0x38 SHL PUSH1 0x44 DUP3 ADD MSTORE PUSH1 0x64 ADD PUSH2 0x4C0 JUMP JUMPDEST PUSH1 0x40 MLOAD PUSH1 0x0 SWAP1 CALLER SWAP1 DUP9 SWAP1 DUP4 DUP2 DUP2 DUP2 DUP6 DUP8 GAS CALL SWAP3 POP POP POP RETURNDATASIZE DUP1 PUSH1 0x0 DUP2 EQ PUSH2 0x8E7 JUMPI PUSH1 0x40 MLOAD SWAP2 POP PUSH1 0x1F NOT PUSH1 0x3F RETURNDATASIZE ADD AND DUP3 ADD PUSH1 0x40 MSTORE RETURNDATASIZE DUP3 MSTORE RETURNDATASIZE PUSH1 0x0 PUSH1 0x20 DUP5 ADD RETURNDATACOPY PUSH2 0x8EC JUMP JUMPDEST PUSH1 0x60 SWAP2 POP JUMPDEST POP POP SWAP1 POP DUP1 PUSH2 0x934 JUMPI PUSH1 0x40 MLOAD PUSH3 0x461BCD PUSH1 0xE5 SHL DUP2 MSTORE PUSH1 0x20 PUSH1 0x4 DUP3 ADD MSTORE PUSH1 0x14 PUSH1 0x24 DUP3 ADD MSTORE PUSH20 0x2330B4B632B2103A379039B2B7321032BA3432B9 PUSH1 0x61 SHL PUSH1 0x44 DUP3 ADD MSTORE PUSH1 0x64 ADD PUSH2 0x4C0 JUMP JUMPDEST PUSH1 0x8 SLOAD PUSH1 0x40 DUP1 MLOAD DUP11 DUP2 MSTORE PUSH1 0x20 DUP2 ADD DUP11 SWAP1 MSTORE SWAP1 DUP2 ADD SWAP2 SWAP1 SWAP2 MSTORE CALLER SWAP1 PUSH32 0x6DB63BEBF1E6540277744DF32846EBDB98385B1A73F2D5DE49B28348ADD63F50 SWAP1 PUSH1 0x60 ADD PUSH1 0x40 MLOAD DUP1 SWAP2 SUB SWAP1 LOG2 POP POP POP POP POP POP PUSH2 0x98B PUSH1 0x1 PUSH1 0x0 SSTORE JUMP JUMPDEST SWAP2 SWAP1 POP JUMP JUMPDEST PUSH1 0x2 SLOAD PUSH1 0x1 PUSH1 0x1 PUSH1 0xA0 SHL SUB AND CALLER EQ PUSH2 0x9BA JUMPI PUSH1 0x40 MLOAD PUSH3 0x461BCD PUSH1 0xE5 SHL DUP2 MSTORE PUSH1 0x4 ADD PUSH2 0x4C0 SWAP1 PUSH2 0x1A72 JUMP JUMPDEST PUSH1 0x7 DUP2 SWAP1 SSTORE PUSH1 0x8 SLOAD PUSH1 0x40 DUP1 MLOAD DUP4 DUP2 MSTORE PUSH1 0x20 DUP2 ADD SWAP3 SWAP1 SWAP3 MSTORE PUSH32 0xB841FAF0D1B32571F4EF966A2F35E3AE51F3CDDA45318C3DA5570A5B2AD85605 SWAP2 ADD PUSH2 0x5D8 JUMP JUMPDEST PUSH1 0x2 SLOAD PUSH1 0x1 PUSH1 0x1 PUSH1 0xA0 SHL SUB AND CALLER EQ PUSH2 0xA23 JUMPI PUSH1 0x40 MLOAD PUSH3 0x461BCD PUSH1 0xE5 SHL DUP2 MSTORE PUSH1 0x4 ADD PUSH2 0x4C0 SWAP1 PUSH2 0x1A72 JUMP JUMPDEST PUSH1 0x0 DUP2 GT PUSH2 0xA7F JUMPI PUSH1 0x40 MLOAD PUSH3 0x461BCD PUSH1 0xE5 SHL DUP2 MSTORE PUSH1 0x20 PUSH1 0x4 DUP3 ADD MSTORE PUSH1 0x23 PUSH1 0x24 DUP3 ADD MSTORE PUSH32 0x5468726573686F6C64206D7573742062652067726561746572207468616E207A PUSH1 0x44 DUP3 ADD MSTORE PUSH3 0x65726F PUSH1 0xE8 SHL PUSH1 0x64 DUP3 ADD MSTORE PUSH1 0x84 ADD PUSH2 0x4C0 JUMP JUMPDEST PUSH1 0xA DUP2 SWAP1 SSTORE PUSH1 0x40 MLOAD DUP2 DUP2 MSTORE PUSH32 0x4AD9AE9229776F627D7D2BE995964376397890E11BBFA94E8826810419A6EF6B SWAP1 PUSH1 0x20 ADD PUSH2 0x5D8 JUMP JUMPDEST PUSH1 0x2 SLOAD PUSH1 0x1 PUSH1 0x1 PUSH1 0xA0 SHL SUB AND CALLER EQ PUSH2 0xADE JUMPI PUSH1 0x40 MLOAD PUSH3 0x461BCD PUSH1 0xE5 SHL DUP2 MSTORE PUSH1 0x4 ADD PUSH2 0x4C0 SWAP1 PUSH2 0x1A72 JUMP JUMPDEST PUSH2 0xAE6 PUSH2 0x11F6 JUMP JUMPDEST PUSH1 0x1 SLOAD PUSH1 0x1 PUSH1 0x1 PUSH1 0xA0 SHL SUB AND ISZERO PUSH2 0xB3F JUMPI PUSH1 0x40 MLOAD PUSH3 0x461BCD PUSH1 0xE5 SHL DUP2 MSTORE PUSH1 0x20 PUSH1 0x4 DUP3 ADD MSTORE PUSH1 0x18 PUSH1 0x24 DUP3 ADD MSTORE PUSH32 0x506F6F6C20616C726561647920696E697469616C697A65640000000000000000 PUSH1 0x44 DUP3 ADD MSTORE PUSH1 0x64 ADD PUSH2 0x4C0 JUMP JUMPDEST PUSH1 0x1 DUP1 SLOAD PUSH1 0x1 PUSH1 0x1 PUSH1 0xA0 SHL SUB NOT SWAP1 DUP2 AND PUSH1 0x1 PUSH1 0x1 PUSH1 0xA0 SHL SUB DUP10 DUP2 AND SWAP2 SWAP1 SWAP2 OR SWAP1 SWAP3 SSTORE PUSH1 0x5 DUP8 SWAP1 SSTORE PUSH1 0x7 DUP7 SWAP1 SSTORE PUSH1 0x8 DUP6 SWAP1 SSTORE PUSH1 0x4 DUP1 SLOAD SWAP1 SWAP2 AND SWAP2 DUP5 AND SWAP2 SWAP1 SWAP2 OR SWAP1 SSTORE PUSH1 0x9 DUP1 SLOAD PUSH2 0xFF00 NOT AND PUSH2 0x100 DUP4 ISZERO ISZERO MUL OR SWAP1 SSTORE PUSH1 0x40 MLOAD DUP6 DUP2 MSTORE CALLER SWAP1 PUSH32 0xC17CEA59C2955CB181B03393209566960365771DBBA9DC3D510180E7CB312088 SWAP1 PUSH1 0x20 ADD PUSH1 0x40 MLOAD DUP1 SWAP2 SUB SWAP1 LOG2 PUSH2 0xBD2 PUSH1 0x1 PUSH1 0x0 SSTORE JUMP JUMPDEST POP POP POP POP POP POP JUMP JUMPDEST PUSH1 0x0 DUP1 DUP4 GT DUP1 ISZERO PUSH2 0xBEB JUMPI POP PUSH1 0x0 DUP3 GT JUMPDEST PUSH2 0xC41 JUMPI PUSH1 0x40 MLOAD PUSH3 0x461BCD PUSH1 0xE5 SHL DUP2 MSTORE PUSH1 0x20 PUSH1 0x4 DUP3 ADD MSTORE PUSH1 0x21 PUSH1 0x24 DUP3 ADD MSTORE PUSH32 0x416D6F756E7473206D7573742062652067726561746572207468616E207A6572 PUSH1 0x44 DUP3 ADD MSTORE PUSH1 0x6F PUSH1 0xF8 SHL PUSH1 0x64 DUP3 ADD MSTORE PUSH1 0x84 ADD PUSH2 0x4C0 JUMP JUMPDEST PUSH1 0x0 PUSH2 0xC51 DUP5 PUSH1 0x60 DUP6 SWAP1 SHL PUSH2 0x1AE9 JUMP JUMPDEST SWAP1 POP PUSH1 0x0 PUSH1 0x30 PUSH2 0xC60 DUP4 PUSH2 0x1220 JUMP JUMPDEST SWAP1 SHL SWAP3 POP POP POP JUMPDEST SWAP3 SWAP2 POP POP JUMP JUMPDEST PUSH1 0x0 PUSH2 0xC77 PUSH2 0x11F6 JUMP JUMPDEST PUSH1 0x9 SLOAD PUSH1 0xFF AND ISZERO PUSH2 0xCCA JUMPI PUSH1 0x40 MLOAD PUSH3 0x461BCD PUSH1 0xE5 SHL DUP2 MSTORE PUSH1 0x20 PUSH1 0x4 DUP3 ADD MSTORE PUSH1 0x18 PUSH1 0x24 DUP3 ADD MSTORE PUSH32 0x506F6F6C206D6967726174656420746F20416C67656272610000000000000000 PUSH1 0x44 DUP3 ADD MSTORE PUSH1 0x64 ADD PUSH2 0x4C0 JUMP JUMPDEST PUSH1 0x0 CALLVALUE GT PUSH2 0xD1A JUMPI PUSH1 0x40 MLOAD PUSH3 0x461BCD PUSH1 0xE5 SHL DUP2 MSTORE PUSH1 0x20 PUSH1 0x4 DUP3 ADD MSTORE PUSH1 0x1D PUSH1 0x24 DUP3 ADD MSTORE PUSH32 0x4D7573742073656E6420457468657220746F2062757920746F6B656E73000000 PUSH1 0x44 DUP3 ADD MSTORE PUSH1 0x64 ADD PUSH2 0x4C0 JUMP JUMPDEST PUSH8 0x2C68AF0BB140000 PUSH1 0x6 SLOAD LT PUSH2 0xD62 JUMPI PUSH1 0x40 MLOAD PUSH3 0x461BCD PUSH1 0xE5 SHL DUP2 MSTORE PUSH1 0x20 PUSH1 0x4 DUP3 ADD MSTORE PUSH1 0xC PUSH1 0x24 DUP3 ADD MSTORE PUSH12 0x141BDBDB081A5CC8199D5B1B PUSH1 0xA2 SHL PUSH1 0x44 DUP3 ADD MSTORE PUSH1 0x64 ADD PUSH2 0x4C0 JUMP JUMPDEST PUSH1 0x0 PUSH1 0x5 SLOAD GT PUSH2 0xDAC JUMPI PUSH1 0x40 MLOAD PUSH3 0x461BCD PUSH1 0xE5 SHL DUP2 MSTORE PUSH1 0x20 PUSH1 0x4 DUP3 ADD MSTORE PUSH1 0x15 PUSH1 0x24 DUP3 ADD MSTORE PUSH21 0x139BC81D1BDAD95B9CC81A5B881D1A19481C1BDBDB PUSH1 0x5A SHL PUSH1 0x44 DUP3 ADD MSTORE PUSH1 0x64 ADD PUSH2 0x4C0 JUMP JUMPDEST PUSH1 0x0 PUSH2 0x3E8 PUSH1 0x7 SLOAD CALLVALUE PUSH2 0xDBF SWAP2 SWAP1 PUSH2 0x1AD2 JUMP JUMPDEST PUSH2 0xDC9 SWAP2 SWAP1 PUSH2 0x1AE9 JUMP JUMPDEST SWAP1 POP PUSH1 0x0 PUSH2 0xDD7 DUP3 CALLVALUE PUSH2 0x1B0B JUMP JUMPDEST SWAP1 POP PUSH8 0x2C68AF0BB140000 DUP2 PUSH1 0x6 SLOAD PUSH2 0xDF0 SWAP2 SWAP1 PUSH2 0x1ABF JUMP JUMPDEST LT PUSH2 0xEE6 JUMPI PUSH1 0x0 PUSH1 0x6 SLOAD PUSH8 0x2C68AF0BB140000 PUSH2 0xE0D SWAP2 SWAP1 PUSH2 0x1B0B JUMP JUMPDEST SWAP1 POP PUSH1 0x0 PUSH2 0xE1B DUP3 DUP5 PUSH2 0x1B0B JUMP JUMPDEST SWAP1 POP DUP2 PUSH1 0x6 PUSH1 0x0 DUP3 DUP3 SLOAD PUSH2 0xE2F SWAP2 SWAP1 PUSH2 0x1ABF JUMP JUMPDEST SWAP1 SWAP2 SSTORE POP POP PUSH1 0x5 DUP1 SLOAD PUSH1 0x0 SWAP1 SWAP2 SSTORE SWAP5 POP DUP1 ISZERO PUSH2 0xEDF JUMPI PUSH1 0x40 MLOAD PUSH1 0x0 SWAP1 CALLER SWAP1 DUP4 SWAP1 DUP4 DUP2 DUP2 DUP2 DUP6 DUP8 GAS CALL SWAP3 POP POP POP RETURNDATASIZE DUP1 PUSH1 0x0 DUP2 EQ PUSH2 0xE87 JUMPI PUSH1 0x40 MLOAD SWAP2 POP PUSH1 0x1F NOT PUSH1 0x3F RETURNDATASIZE ADD AND DUP3 ADD PUSH1 0x40 MSTORE RETURNDATASIZE DUP3 MSTORE RETURNDATASIZE PUSH1 0x0 PUSH1 0x20 DUP5 ADD RETURNDATACOPY PUSH2 0xE8C JUMP JUMPDEST PUSH1 0x60 SWAP2 POP JUMPDEST POP POP SWAP1 POP DUP1 PUSH2 0xEDD JUMPI PUSH1 0x40 MLOAD PUSH3 0x461BCD PUSH1 0xE5 SHL DUP2 MSTORE PUSH1 0x20 PUSH1 0x4 DUP3 ADD MSTORE PUSH1 0x1D PUSH1 0x24 DUP3 ADD MSTORE PUSH32 0x4661696C656420746F20726566756E6420657863657373206574686572000000 PUSH1 0x44 DUP3 ADD MSTORE PUSH1 0x64 ADD PUSH2 0x4C0 JUMP JUMPDEST POP JUMPDEST POP POP PUSH2 0xFCD JUMP JUMPDEST PUSH1 0x0 DUP2 PUSH1 0x6 SLOAD PUSH2 0xEF6 SWAP2 SWAP1 PUSH2 0x1ABF JUMP JUMPDEST SWAP1 POP PUSH1 0x0 PUSH2 0xF0B PUSH7 0x7134F38362CA0E DUP4 PUSH2 0x1ABF JUMP JUMPDEST PUSH7 0x7134F38362D664 PUSH1 0x6 SLOAD PUSH2 0xF20 SWAP2 SWAP1 PUSH2 0x1ABF JUMP JUMPDEST PUSH11 0xD51AC75D3CBCA700901279 PUSH1 0x5 SLOAD PUSH2 0xF39 SWAP2 SWAP1 PUSH2 0x1ABF JUMP JUMPDEST PUSH2 0xF43 SWAP2 SWAP1 PUSH2 0x1AD2 JUMP JUMPDEST PUSH2 0xF4D SWAP2 SWAP1 PUSH2 0x1AE9 JUMP JUMPDEST SWAP1 POP PUSH11 0xD51AC75D3CA56EA04771F4 DUP2 LT ISZERO PUSH2 0xF70 JUMPI POP PUSH11 0xD51AC75D3CA56EA04771F4 JUMPDEST PUSH1 0x0 PUSH2 0xF87 PUSH11 0xD51AC75D3CA56EA04771F4 DUP4 PUSH2 0x1B0B JUMP JUMPDEST SWAP1 POP PUSH1 0x5 SLOAD DUP2 GT PUSH2 0xFA5 JUMPI DUP1 PUSH1 0x5 SLOAD PUSH2 0xFA0 SWAP2 SWAP1 PUSH2 0x1B0B JUMP JUMPDEST PUSH2 0xFA9 JUMP JUMPDEST PUSH1 0x5 SLOAD JUMPDEST SWAP6 POP DUP3 PUSH1 0x6 DUP2 SWAP1 SSTORE POP DUP6 PUSH1 0x5 PUSH1 0x0 DUP3 DUP3 SLOAD PUSH2 0xFC4 SWAP2 SWAP1 PUSH2 0x1B0B JUMP JUMPDEST SWAP1 SWAP2 SSTORE POP POP POP POP POP JUMPDEST PUSH1 0x1 SLOAD PUSH1 0x40 MLOAD PUSH4 0xA9059CBB PUSH1 0xE0 SHL DUP2 MSTORE CALLER PUSH1 0x4 DUP3 ADD MSTORE PUSH1 0x24 DUP2 ADD DUP6 SWAP1 MSTORE PUSH1 0x1 PUSH1 0x1 PUSH1 0xA0 SHL SUB SWAP1 SWAP2 AND SWAP1 PUSH4 0xA9059CBB SWAP1 PUSH1 0x44 ADD PUSH1 0x20 PUSH1 0x40 MLOAD DUP1 DUP4 SUB DUP2 PUSH1 0x0 DUP8 GAS CALL ISZERO DUP1 ISZERO PUSH2 0x101E JUMPI RETURNDATASIZE PUSH1 0x0 DUP1 RETURNDATACOPY RETURNDATASIZE PUSH1 0x0 REVERT JUMPDEST POP POP POP POP PUSH1 0x40 MLOAD RETURNDATASIZE PUSH1 0x1F NOT PUSH1 0x1F DUP3 ADD AND DUP3 ADD DUP1 PUSH1 0x40 MSTORE POP DUP2 ADD SWAP1 PUSH2 0x1042 SWAP2 SWAP1 PUSH2 0x1B1E JUMP JUMPDEST PUSH2 0x108A JUMPI PUSH1 0x40 MLOAD PUSH3 0x461BCD PUSH1 0xE5 SHL DUP2 MSTORE PUSH1 0x20 PUSH1 0x4 DUP3 ADD MSTORE PUSH1 0x19 PUSH1 0x24 DUP3 ADD MSTORE PUSH25 0x4661696C656420746F207472616E7366657220746F6B656E73 PUSH1 0x38 SHL PUSH1 0x44 DUP3 ADD MSTORE PUSH1 0x64 ADD PUSH2 0x4C0 JUMP JUMPDEST PUSH1 0x3 SLOAD PUSH1 0x40 MLOAD PUSH1 0x0 SWAP2 PUSH1 0x1 PUSH1 0x1 PUSH1 0xA0 SHL SUB AND SWAP1 DUP5 SWAP1 DUP4 DUP2 DUP2 DUP2 DUP6 DUP8 GAS CALL SWAP3 POP POP POP RETURNDATASIZE DUP1 PUSH1 0x0 DUP2 EQ PUSH2 0x10D7 JUMPI PUSH1 0x40 MLOAD SWAP2 POP PUSH1 0x1F NOT PUSH1 0x3F RETURNDATASIZE ADD AND DUP3 ADD PUSH1 0x40 MSTORE RETURNDATASIZE DUP3 MSTORE RETURNDATASIZE PUSH1 0x0 PUSH1 0x20 DUP5 ADD RETURNDATACOPY PUSH2 0x10DC JUMP JUMPDEST PUSH1 0x60 SWAP2 POP JUMPDEST POP POP SWAP1 POP DUP1 PUSH2 0x1126 JUMPI PUSH1 0x40 MLOAD PUSH3 0x461BCD PUSH1 0xE5 SHL DUP2 MSTORE PUSH1 0x20 PUSH1 0x4 DUP3 ADD MSTORE PUSH1 0x16 PUSH1 0x24 DUP3 ADD MSTORE PUSH22 0x8CC2D2D8CAC840E8DE40E6CADCC840C4EAF240E8C2F PUSH1 0x53 SHL PUSH1 0x44 DUP3 ADD MSTORE PUSH1 0x64 ADD PUSH2 0x4C0 JUMP JUMPDEST PUSH1 0x40 DUP1 MLOAD CALLVALUE DUP2 MSTORE PUSH1 0x20 DUP2 ADD DUP7 SWAP1 MSTORE SWAP1 DUP2 ADD DUP5 SWAP1 MSTORE CALLER SWAP1 PUSH32 0xD1A0D5E3D583A0E92588799DD06E50FD78C07DAF05F0CC06D7B848B1CA445F1 SWAP1 PUSH1 0x60 ADD PUSH1 0x40 MLOAD DUP1 SWAP2 SUB SWAP1 LOG2 POP POP POP PUSH2 0x1176 PUSH1 0x1 PUSH1 0x0 SSTORE JUMP JUMPDEST SWAP1 JUMP JUMPDEST PUSH2 0x1181 PUSH2 0x1277 JUMP JUMPDEST JUMP JUMPDEST PUSH1 0x2 SLOAD PUSH1 0x1 PUSH1 0x1 PUSH1 0xA0 SHL SUB AND CALLER EQ PUSH2 0x11AD JUMPI PUSH1 0x40 MLOAD PUSH3 0x461BCD PUSH1 0xE5 SHL DUP2 MSTORE PUSH1 0x4 ADD PUSH2 0x4C0 SWAP1 PUSH2 0x1A72 JUMP JUMPDEST PUSH1 0x9 DUP1 SLOAD DUP3 ISZERO ISZERO PUSH2 0x100 MUL PUSH2 0xFF00 NOT SWAP1 SWAP2 AND OR SWAP1 SSTORE PUSH1 0x40 MLOAD PUSH32 0xE7E0BD136AB3B57E3E925774A811E2482DF79072FA45D011A4F088ABFCC209D2 SWAP1 PUSH2 0x5D8 SWAP1 DUP4 ISZERO ISZERO DUP2 MSTORE PUSH1 0x20 ADD SWAP1 JUMP JUMPDEST PUSH1 0x2 PUSH1 0x0 SLOAD SUB PUSH2 0x1219 JUMPI PUSH1 0x40 MLOAD PUSH4 0x3EE5AEB5 PUSH1 0xE0 SHL DUP2 MSTORE PUSH1 0x4 ADD PUSH1 0x40 MLOAD DUP1 SWAP2 SUB SWAP1 REVERT JUMPDEST PUSH1 0x2 PUSH1 0x0 SSTORE JUMP JUMPDEST PUSH1 0x0 DUP1 PUSH1 0x2 PUSH2 0x1230 DUP5 PUSH1 0x1 PUSH2 0x1ABF JUMP JUMPDEST PUSH2 0x123A SWAP2 SWAP1 PUSH2 0x1AE9 JUMP JUMPDEST SWAP1 POP DUP3 JUMPDEST DUP1 DUP3 LT ISZERO PUSH2 0x1270 JUMPI POP DUP1 PUSH1 0x2 DUP2 PUSH2 0x1255 DUP2 DUP8 PUSH2 0x1AE9 JUMP JUMPDEST PUSH2 0x125F SWAP2 SWAP1 PUSH2 0x1ABF JUMP JUMPDEST PUSH2 0x1269 SWAP2 SWAP1 PUSH2 0x1AE9 JUMP JUMPDEST SWAP2 POP PUSH2 0x123E JUMP JUMPDEST SWAP4 SWAP3 POP POP POP JUMP JUMPDEST PUSH2 0x127F PUSH2 0x11F6 JUMP JUMPDEST TIMESTAMP ADDRESS PUSH1 0x1 PUSH1 0x1 PUSH1 0xA0 SHL SUB AND PUSH1 0x0 DUP1 MLOAD PUSH1 0x20 PUSH2 0x1B88 DUP4 CODECOPY DUP2 MLOAD SWAP2 MSTORE PUSH1 0x40 MLOAD PUSH2 0x12CB SWAP1 PUSH1 0x20 DUP1 DUP3 MSTORE PUSH1 0x11 SWAP1 DUP3 ADD MSTORE PUSH17 0x135A59DC985D1A5BDB881CDD185C9D1959 PUSH1 0x7A SHL PUSH1 0x40 DUP3 ADD MSTORE PUSH1 0x60 ADD SWAP1 JUMP JUMPDEST PUSH1 0x40 MLOAD DUP1 SWAP2 SUB SWAP1 LOG3 PUSH1 0x9 SLOAD PUSH1 0xFF AND ISZERO PUSH2 0x1326 JUMPI PUSH1 0x40 MLOAD PUSH3 0x461BCD PUSH1 0xE5 SHL DUP2 MSTORE PUSH1 0x20 PUSH1 0x4 DUP3 ADD MSTORE PUSH1 0x1B PUSH1 0x24 DUP3 ADD MSTORE PUSH32 0x416C7265616479206D6967726174656420746F20416C67656272610000000000 PUSH1 0x44 DUP3 ADD MSTORE PUSH1 0x64 ADD PUSH2 0x4C0 JUMP JUMPDEST TIMESTAMP ADDRESS PUSH1 0x1 PUSH1 0x1 PUSH1 0xA0 SHL SUB AND PUSH1 0x0 DUP1 MLOAD PUSH1 0x20 PUSH2 0x1B88 DUP4 CODECOPY DUP2 MLOAD SWAP2 MSTORE PUSH1 0x40 MLOAD PUSH2 0x1377 SWAP1 PUSH1 0x20 DUP1 DUP3 MSTORE PUSH1 0x16 SWAP1 DUP3 ADD MSTORE PUSH22 0x135A59DC985D1A5BDB8818DA1958DAC81C185CDCD959 PUSH1 0x52 SHL PUSH1 0x40 DUP3 ADD MSTORE PUSH1 0x60 ADD SWAP1 JUMP JUMPDEST PUSH1 0x40 MLOAD DUP1 SWAP2 SUB SWAP1 LOG3 PUSH1 0x4 SLOAD PUSH1 0x1 PUSH1 0x1 PUSH1 0xA0 SHL SUB AND PUSH2 0x13E7 JUMPI PUSH1 0x40 MLOAD PUSH3 0x461BCD PUSH1 0xE5 SHL DUP2 MSTORE PUSH1 0x20 PUSH1 0x4 DUP3 ADD MSTORE PUSH1 0x27 PUSH1 0x24 DUP3 ADD MSTORE PUSH32 0x416C676562726120506F6F6C496E697469616C697A6572206164647265737320 PUSH1 0x44 DUP3 ADD MSTORE PUSH7 0x1B9BDD081CD95D PUSH1 0xCA SHL PUSH1 0x64 DUP3 ADD MSTORE PUSH1 0x84 ADD PUSH2 0x4C0 JUMP JUMPDEST PUSH1 0x4 SLOAD PUSH1 0x40 MLOAD TIMESTAMP SWAP2 PUSH1 0x1 PUSH1 0x1 PUSH1 0xA0 SHL SUB AND SWAP1 PUSH1 0x0 DUP1 MLOAD PUSH1 0x20 PUSH2 0x1B88 DUP4 CODECOPY DUP2 MLOAD SWAP2 MSTORE SWAP1 PUSH2 0x1444 SWAP1 PUSH1 0x20 DUP1 DUP3 MSTORE PUSH1 0x18 SWAP1 DUP3 ADD MSTORE PUSH32 0x496E697469616C697A657220636865636B207061737365640000000000000000 PUSH1 0x40 DUP3 ADD MSTORE PUSH1 0x60 ADD SWAP1 JUMP JUMPDEST PUSH1 0x40 MLOAD DUP1 SWAP2 SUB SWAP1 LOG3 PUSH1 0x0 PUSH2 0x145A PUSH1 0x1 PUSH1 0x64 PUSH2 0xBDA JUMP JUMPDEST SWAP1 POP DUP1 PUSH1 0x1 PUSH1 0x1 PUSH1 0xA0 SHL SUB AND PUSH1 0x0 PUSH1 0x1 PUSH1 0x1 PUSH1 0xA0 SHL SUB AND PUSH1 0x0 DUP1 MLOAD PUSH1 0x20 PUSH2 0x1B88 DUP4 CODECOPY DUP2 MLOAD SWAP2 MSTORE PUSH1 0x40 MLOAD PUSH2 0x14BE SWAP1 PUSH1 0x20 DUP1 DUP3 MSTORE PUSH1 0x17 SWAP1 DUP3 ADD MSTORE PUSH32 0x5371727450726963655839362063616C63756C61746564000000000000000000 PUSH1 0x40 DUP3 ADD MSTORE PUSH1 0x60 ADD SWAP1 JUMP JUMPDEST PUSH1 0x40 MLOAD DUP1 SWAP2 SUB SWAP1 LOG3 PUSH1 0x1 SLOAD PUSH1 0x40 MLOAD PUSH1 0x1 PUSH1 0x1 PUSH1 0xA0 SHL SUB SWAP2 DUP3 AND PUSH1 0x24 DUP3 ADD MSTORE ADDRESS PUSH1 0x44 DUP3 ADD MSTORE SWAP1 DUP3 AND PUSH1 0x64 DUP3 ADD MSTORE PUSH1 0x0 SWAP1 PUSH1 0x84 ADD PUSH1 0x40 DUP1 MLOAD PUSH1 0x1F NOT DUP2 DUP5 SUB ADD DUP2 MSTORE SWAP2 DUP2 MSTORE PUSH1 0x20 DUP3 ADD DUP1 MLOAD PUSH1 0x1 PUSH1 0x1 PUSH1 0xE0 SHL SUB AND PUSH4 0x289236B7 PUSH1 0xE1 SHL OR SWAP1 MSTORE PUSH1 0x4 SLOAD SWAP1 MLOAD SWAP2 SWAP3 POP PUSH1 0x0 SWAP2 DUP3 SWAP2 PUSH1 0x1 PUSH1 0x1 PUSH1 0xA0 SHL SUB AND SWAP1 PUSH2 0x153C SWAP1 DUP6 SWAP1 PUSH2 0x1B3B JUMP JUMPDEST PUSH1 0x0 PUSH1 0x40 MLOAD DUP1 DUP4 SUB DUP2 PUSH1 0x0 DUP7 GAS CALL SWAP2 POP POP RETURNDATASIZE DUP1 PUSH1 0x0 DUP2 EQ PUSH2 0x1579 JUMPI PUSH1 0x40 MLOAD SWAP2 POP PUSH1 0x1F NOT PUSH1 0x3F RETURNDATASIZE ADD AND DUP3 ADD PUSH1 0x40 MSTORE RETURNDATASIZE DUP3 MSTORE RETURNDATASIZE PUSH1 0x0 PUSH1 0x20 DUP5 ADD RETURNDATACOPY PUSH2 0x157E JUMP JUMPDEST PUSH1 0x60 SWAP2 POP JUMPDEST POP SWAP2 POP SWAP2 POP DUP2 PUSH2 0x158F JUMPI PUSH1 0x0 PUSH2 0x1592 JUMP JUMPDEST PUSH1 0x1 JUMPDEST PUSH1 0x4 SLOAD PUSH1 0x40 MLOAD PUSH1 0xFF SWAP3 SWAP1 SWAP3 AND SWAP2 PUSH1 0x1 PUSH1 0x1 PUSH1 0xA0 SHL SUB SWAP1 SWAP2 AND SWAP1 PUSH1 0x0 DUP1 MLOAD PUSH1 0x20 PUSH2 0x1B88 DUP4 CODECOPY DUP2 MLOAD SWAP2 MSTORE SWAP1 PUSH2 0x15F6 SWAP1 PUSH1 0x20 DUP1 DUP3 MSTORE PUSH1 0x18 SWAP1 DUP3 ADD MSTORE PUSH32 0x43616C6C20746F20696E697469616C697A6572206D6164650000000000000000 PUSH1 0x40 DUP3 ADD MSTORE PUSH1 0x60 ADD SWAP1 JUMP JUMPDEST PUSH1 0x40 MLOAD DUP1 SWAP2 SUB SWAP1 LOG3 DUP2 PUSH2 0x1663 JUMPI PUSH1 0x40 MLOAD PUSH3 0x461BCD PUSH1 0xE5 SHL DUP2 MSTORE PUSH1 0x20 PUSH1 0x4 DUP3 ADD MSTORE PUSH1 0x2F PUSH1 0x24 DUP3 ADD MSTORE PUSH32 0x416C676562726120706F6F6C206372656174696F6E20616E6420696E69746961 PUSH1 0x44 DUP3 ADD MSTORE PUSH15 0x1B1A5E985D1A5BDB8819985A5B1959 PUSH1 0x8A SHL PUSH1 0x64 DUP3 ADD MSTORE PUSH1 0x84 ADD PUSH2 0x4C0 JUMP JUMPDEST PUSH1 0x0 DUP2 DUP1 PUSH1 0x20 ADD SWAP1 MLOAD DUP2 ADD SWAP1 PUSH2 0x1679 SWAP2 SWAP1 PUSH2 0x1B6A JUMP JUMPDEST SWAP1 POP TIMESTAMP DUP2 PUSH1 0x1 PUSH1 0x1 PUSH1 0xA0 SHL SUB AND PUSH1 0x0 DUP1 MLOAD PUSH1 0x20 PUSH2 0x1B88 DUP4 CODECOPY DUP2 MLOAD SWAP2 MSTORE PUSH1 0x40 MLOAD PUSH2 0x16CA SWAP1 PUSH1 0x20 DUP1 DUP3 MSTORE PUSH1 0x14 SWAP1 DUP3 ADD MSTORE PUSH20 0x141BDBDB081859191C995CDCC8191958DBD91959 PUSH1 0x62 SHL PUSH1 0x40 DUP3 ADD MSTORE PUSH1 0x60 ADD SWAP1 JUMP JUMPDEST PUSH1 0x40 MLOAD DUP1 SWAP2 SUB SWAP1 LOG3 PUSH1 0x1 PUSH1 0x1 PUSH1 0xA0 SHL SUB DUP2 AND PUSH2 0x1728 JUMPI PUSH1 0x40 MLOAD PUSH3 0x461BCD PUSH1 0xE5 SHL DUP2 MSTORE PUSH1 0x20 PUSH1 0x4 DUP3 ADD MSTORE PUSH1 0x1C PUSH1 0x24 DUP3 ADD MSTORE PUSH32 0x496E76616C696420416C676562726120706F6F6C206164647265737300000000 PUSH1 0x44 DUP3 ADD MSTORE PUSH1 0x64 ADD PUSH2 0x4C0 JUMP JUMPDEST PUSH1 0x1 SLOAD PUSH1 0x5 SLOAD PUSH1 0x40 MLOAD PUSH4 0xA9059CBB PUSH1 0xE0 SHL DUP2 MSTORE PUSH1 0x1 PUSH1 0x1 PUSH1 0xA0 SHL SUB DUP5 DUP2 AND PUSH1 0x4 DUP4 ADD MSTORE PUSH1 0x24 DUP3 ADD SWAP3 SWAP1 SWAP3 MSTORE SWAP2 AND SWAP1 PUSH4 0xA9059CBB SWAP1 PUSH1 0x44 ADD PUSH1 0x20 PUSH1 0x40 MLOAD DUP1 DUP4 SUB DUP2 PUSH1 0x0 DUP8 GAS CALL ISZERO DUP1 ISZERO PUSH2 0x177E JUMPI RETURNDATASIZE PUSH1 0x0 DUP1 RETURNDATACOPY RETURNDATASIZE PUSH1 0x0 REVERT JUMPDEST POP POP POP POP PUSH1 0x40 MLOAD RETURNDATASIZE PUSH1 0x1F NOT PUSH1 0x1F DUP3 ADD AND DUP3 ADD DUP1 PUSH1 0x40 MSTORE POP DUP2 ADD SWAP1 PUSH2 0x17A2 SWAP2 SWAP1 PUSH2 0x1B1E JUMP JUMPDEST POP PUSH1 0x5 SLOAD DUP2 PUSH1 0x1 PUSH1 0x1 PUSH1 0xA0 SHL SUB AND PUSH1 0x0 DUP1 MLOAD PUSH1 0x20 PUSH2 0x1B88 DUP4 CODECOPY DUP2 MLOAD SWAP2 MSTORE PUSH1 0x40 MLOAD PUSH2 0x17F2 SWAP1 PUSH1 0x20 DUP1 DUP3 MSTORE PUSH1 0x12 SWAP1 DUP3 ADD MSTORE PUSH18 0x151BDAD95B9CC81D1C985B9CD9995C9C9959 PUSH1 0x72 SHL PUSH1 0x40 DUP3 ADD MSTORE PUSH1 0x60 ADD SWAP1 JUMP JUMPDEST PUSH1 0x40 MLOAD DUP1 SWAP2 SUB SWAP1 LOG3 PUSH1 0x6 SLOAD PUSH1 0x40 MLOAD PUSH1 0x0 SWAP2 PUSH1 0x1 PUSH1 0x1 PUSH1 0xA0 SHL SUB DUP5 AND SWAP2 DUP4 DUP2 DUP2 DUP2 DUP6 DUP8 GAS CALL SWAP3 POP POP POP RETURNDATASIZE DUP1 PUSH1 0x0 DUP2 EQ PUSH2 0x1846 JUMPI PUSH1 0x40 MLOAD SWAP2 POP PUSH1 0x1F NOT PUSH1 0x3F RETURNDATASIZE ADD AND DUP3 ADD PUSH1 0x40 MSTORE RETURNDATASIZE DUP3 MSTORE RETURNDATASIZE PUSH1 0x0 PUSH1 0x20 DUP5 ADD RETURNDATACOPY PUSH2 0x184B JUMP JUMPDEST PUSH1 0x60 SWAP2 POP JUMPDEST POP POP SWAP1 POP DUP1 PUSH2 0x18AD JUMPI PUSH1 0x40 MLOAD PUSH3 0x461BCD PUSH1 0xE5 SHL DUP2 MSTORE PUSH1 0x20 PUSH1 0x4 DUP3 ADD MSTORE PUSH1 0x28 PUSH1 0x24 DUP3 ADD MSTORE PUSH32 0x4661696C656420746F207472616E7366657220457468657220746F20416C6765 PUSH1 0x44 DUP3 ADD MSTORE PUSH8 0x189C98481C1BDBDB PUSH1 0xC2 SHL PUSH1 0x64 DUP3 ADD MSTORE PUSH1 0x84 ADD PUSH2 0x4C0 JUMP JUMPDEST PUSH1 0x6 SLOAD DUP3 PUSH1 0x1 PUSH1 0x1 PUSH1 0xA0 SHL SUB AND PUSH1 0x0 DUP1 MLOAD PUSH1 0x20 PUSH2 0x1B88 DUP4 CODECOPY DUP2 MLOAD SWAP2 MSTORE PUSH1 0x40 MLOAD PUSH2 0x18FB SWAP1 PUSH1 0x20 DUP1 DUP3 MSTORE PUSH1 0x11 SWAP1 DUP3 ADD MSTORE PUSH17 0x115D1A195C881D1C985B9CD9995C9C9959 PUSH1 0x7A SHL PUSH1 0x40 DUP3 ADD MSTORE PUSH1 0x60 ADD SWAP1 JUMP JUMPDEST PUSH1 0x40 MLOAD DUP1 SWAP2 SUB SWAP1 LOG3 PUSH1 0x9 DUP1 SLOAD PUSH1 0xFF NOT AND PUSH1 0x1 OR SWAP1 SSTORE PUSH1 0x5 SLOAD PUSH1 0x6 SLOAD PUSH1 0x40 MLOAD PUSH1 0x1 PUSH1 0x1 PUSH1 0xA0 SHL SUB DUP6 AND SWAP3 PUSH32 0x681FA2C4629192623C409B90CB2463CEA250BD2012F3AC5F34AF5CFA45D4822A SWAP3 PUSH2 0x1958 SWAP3 SWAP2 DUP3 MSTORE PUSH1 0x20 DUP3 ADD MSTORE PUSH1 0x40 ADD SWAP1 JUMP JUMPDEST PUSH1 0x40 MLOAD DUP1 SWAP2 SUB SWAP1 LOG2 POP POP POP POP POP POP PUSH2 0x1181 PUSH1 0x1 PUSH1 0x0 SSTORE JUMP JUMPDEST PUSH1 0x1 PUSH1 0x1 PUSH1 0xA0 SHL SUB DUP2 AND DUP2 EQ PUSH2 0x1985 JUMPI PUSH1 0x0 DUP1 REVERT JUMPDEST POP JUMP JUMPDEST PUSH1 0x0 PUSH1 0x20 DUP3 DUP5 SUB SLT ISZERO PUSH2 0x199A JUMPI PUSH1 0x0 DUP1 REVERT JUMPDEST DUP2 CALLDATALOAD PUSH2 0x1270 DUP2 PUSH2 0x1970 JUMP JUMPDEST PUSH1 0x0 PUSH1 0x20 DUP3 DUP5 SUB SLT ISZERO PUSH2 0x19B7 JUMPI PUSH1 0x0 DUP1 REVERT JUMPDEST POP CALLDATALOAD SWAP2 SWAP1 POP JUMP JUMPDEST DUP1 ISZERO ISZERO DUP2 EQ PUSH2 0x1985 JUMPI PUSH1 0x0 DUP1 REVERT JUMPDEST PUSH1 0x0 DUP1 PUSH1 0x0 DUP1 PUSH1 0x0 DUP1 PUSH1 0xC0 DUP8 DUP10 SUB SLT ISZERO PUSH2 0x19E5 JUMPI PUSH1 0x0 DUP1 REVERT JUMPDEST DUP7 CALLDATALOAD PUSH2 0x19F0 DUP2 PUSH2 0x1970 JUMP JUMPDEST SWAP6 POP PUSH1 0x20 DUP8 ADD CALLDATALOAD SWAP5 POP PUSH1 0x40 DUP8 ADD CALLDATALOAD SWAP4 POP PUSH1 0x60 DUP8 ADD CALLDATALOAD SWAP3 POP PUSH1 0x80 DUP8 ADD CALLDATALOAD PUSH2 0x1A15 DUP2 PUSH2 0x1970 JUMP JUMPDEST SWAP2 POP PUSH1 0xA0 DUP8 ADD CALLDATALOAD PUSH2 0x1A25 DUP2 PUSH2 0x19BE JUMP JUMPDEST DUP1 SWAP2 POP POP SWAP3 SWAP6 POP SWAP3 SWAP6 POP SWAP3 SWAP6 JUMP JUMPDEST PUSH1 0x0 DUP1 PUSH1 0x40 DUP4 DUP6 SUB SLT ISZERO PUSH2 0x1A46 JUMPI PUSH1 0x0 DUP1 REVERT JUMPDEST POP POP DUP1 CALLDATALOAD SWAP3 PUSH1 0x20 SWAP1 SWAP2 ADD CALLDATALOAD SWAP2 POP JUMP JUMPDEST PUSH1 0x0 PUSH1 0x20 DUP3 DUP5 SUB SLT ISZERO PUSH2 0x1A67 JUMPI PUSH1 0x0 DUP1 REVERT JUMPDEST DUP2 CALLDATALOAD PUSH2 0x1270 DUP2 PUSH2 0x19BE JUMP JUMPDEST PUSH1 0x20 DUP1 DUP3 MSTORE PUSH1 0x1E SWAP1 DUP3 ADD MSTORE PUSH32 0x43616C6C6572206973206E6F742074686520546F6B656E466163746F72790000 PUSH1 0x40 DUP3 ADD MSTORE PUSH1 0x60 ADD SWAP1 JUMP JUMPDEST PUSH4 0x4E487B71 PUSH1 0xE0 SHL PUSH1 0x0 MSTORE PUSH1 0x11 PUSH1 0x4 MSTORE PUSH1 0x24 PUSH1 0x0 REVERT JUMPDEST DUP1 DUP3 ADD DUP1 DUP3 GT ISZERO PUSH2 0xC67 JUMPI PUSH2 0xC67 PUSH2 0x1AA9 JUMP JUMPDEST DUP1 DUP3 MUL DUP2 ISZERO DUP3 DUP3 DIV DUP5 EQ OR PUSH2 0xC67 JUMPI PUSH2 0xC67 PUSH2 0x1AA9 JUMP JUMPDEST PUSH1 0x0 DUP3 PUSH2 0x1B06 JUMPI PUSH4 0x4E487B71 PUSH1 0xE0 SHL PUSH1 0x0 MSTORE PUSH1 0x12 PUSH1 0x4 MSTORE PUSH1 0x24 PUSH1 0x0 REVERT JUMPDEST POP DIV SWAP1 JUMP JUMPDEST DUP2 DUP2 SUB DUP2 DUP2 GT ISZERO PUSH2 0xC67 JUMPI PUSH2 0xC67 PUSH2 0x1AA9 JUMP JUMPDEST PUSH1 0x0 PUSH1 0x20 DUP3 DUP5 SUB SLT ISZERO PUSH2 0x1B30 JUMPI PUSH1 0x0 DUP1 REVERT JUMPDEST DUP2 MLOAD PUSH2 0x1270 DUP2 PUSH2 0x19BE JUMP JUMPDEST PUSH1 0x0 DUP3 MLOAD PUSH1 0x0 JUMPDEST DUP2 DUP2 LT ISZERO PUSH2 0x1B5C JUMPI PUSH1 0x20 DUP2 DUP7 ADD DUP2 ADD MLOAD DUP6 DUP4 ADD MSTORE ADD PUSH2 0x1B42 JUMP JUMPDEST POP PUSH1 0x0 SWAP3 ADD SWAP2 DUP3 MSTORE POP SWAP2 SWAP1 POP JUMP JUMPDEST PUSH1 0x0 PUSH1 0x20 DUP3 DUP5 SUB SLT ISZERO PUSH2 0x1B7C JUMPI PUSH1 0x0 DUP1 REVERT JUMPDEST DUP2 MLOAD PUSH2 0x1270 DUP2 PUSH2 0x1970 JUMP INVALID EXP 0xAB 0x2F LOG0 NOT SWAP2 0xCB MULMOD LOG1 PUSH19 0xFCBD047AE0EC54DA8E5C963E3160632983264C CREATE 0x21 DUP7 LOG2 PUSH5 0x6970667358 0x22 SLT KECCAK256 DUP9 LOG3 0xB5 0x4F 0xF9 MCOPY LOG0 OR CALLDATASIZE MCOPY SAR 0xDC 0x4F PUSH19 0x6BAEADAC5F648A9BE23106B5CF724B9C122564 PUSH20 0x6F6C634300081A00330000000000000000000000 "
		},
		"gasEstimates": {
			"creation": {
				"codeDepositCost": "1426600",
				"executionCost": "infinite",
				"totalCost": "infinite"
			},
			"external": {
				"X_DELTA_LOWER()": "296",
				"X_DELTA_UPPER()": "208",
				"Y_DELTA_LOWER()": "229",
				"Y_DELTA_UPPER()": "230",
				"algebraPoolInitializer()": "2403",
				"autoMigrationEnabled()": "2388",
				"buyTax()": "2395",
				"buyToken()": "infinite",
				"calculateSqrtPriceX96(uint256,uint256)": "infinite",
				"devAddress()": "2382",
				"forceMigration()": "infinite",
				"getReserves()": "4475",
				"initialize(address,uint256,uint256,uint256,address,bool)": "infinite",
				"migratedToAlgebra()": "2400",
				"migrationThreshold()": "2373",
				"reserve0()": "2373",
				"reserve1()": "2307",
				"sellTax()": "2372",
				"sellToken(uint256)": "infinite",
				"setAlgebraPoolInitializer(address)": "27925",
				"toggleAutoMigration(bool)": "27795",
				"token0()": "2427",
				"tokenFactory()": "2447",
				"updateBuyTax(uint256)": "27991",
				"updateMigrationThreshold(uint256)": "25675",
				"updateSellTax(uint256)": "28044"
			},
			"internal": {
				"migrateToAlgebra()": "infinite",
				"sqrt(uint256)": "infinite"
			}
		},
		"methodIdentifiers": {
			"X_DELTA_LOWER()": "0f0e7c8a",
			"X_DELTA_UPPER()": "04c80c82",
			"Y_DELTA_LOWER()": "60c72883",
			"Y_DELTA_UPPER()": "2182ad88",
			"algebraPoolInitializer()": "c98b7fd2",
			"autoMigrationEnabled()": "8d5f17aa",
			"buyTax()": "4f7041a5",
			"buyToken()": "a4821719",
			"calculateSqrtPriceX96(uint256,uint256)": "a000bf4f",
			"devAddress()": "3ad10ef6",
			"forceMigration()": "afd6b3c1",
			"getReserves()": "0902f1ac",
			"initialize(address,uint256,uint256,uint256,address,bool)": "9ed7ef4e",
			"migratedToAlgebra()": "299ce7b2",
			"migrationThreshold()": "90bc1e85",
			"reserve0()": "443cb4bc",
			"reserve1()": "5a76f25e",
			"sellTax()": "cc1776d3",
			"sellToken(uint256)": "2397e4d7",
			"setAlgebraPoolInitializer(address)": "04ccde37",
			"toggleAutoMigration(bool)": "c98a0aa8",
			"token0()": "0dfe1681",
			"tokenFactory()": "e77772fe",
			"updateBuyTax(uint256)": "436d3340",
			"updateMigrationThreshold(uint256)": "96343fd5",
			"updateSellTax(uint256)": "12185a39"
		}
	},
	"abi": [
		{
			"inputs": [
				{
					"internalType": "address",
					"name": "_devAddress",
					"type": "address"
				},
				{
					"internalType": "address",
					"name": "_tokenFactory",
					"type": "address"
				},
				{
					"internalType": "uint256",
					"name": "_initialMigrationThreshold",
					"type": "uint256"
				}
			],
			"stateMutability": "nonpayable",
			"type": "constructor"
		},
		{
			"inputs": [],
			"name": "ReentrancyGuardReentrantCall",
			"type": "error"
		},
		{
			"anonymous": false,
			"inputs": [
				{
					"indexed": true,
					"internalType": "address",
					"name": "newInitializer",
					"type": "address"
				}
			],
			"name": "AlgebraPoolInitializerUpdated",
			"type": "event"
		},
		{
			"anonymous": false,
			"inputs": [
				{
					"indexed": false,
					"internalType": "bool",
					"name": "enabled",
					"type": "bool"
				}
			],
			"name": "AutoMigrationToggled",
			"type": "event"
		},
		{
			"anonymous": false,
			"inputs": [
				{
					"indexed": true,
					"internalType": "address",
					"name": "provider",
					"type": "address"
				},
				{
					"indexed": false,
					"internalType": "uint256",
					"name": "tokenAmount",
					"type": "uint256"
				}
			],
			"name": "LiquidityAdded",
			"type": "event"
		},
		{
			"anonymous": false,
			"inputs": [
				{
					"indexed": false,
					"internalType": "uint256",
					"name": "newThreshold",
					"type": "uint256"
				}
			],
			"name": "MigrationThresholdUpdated",
			"type": "event"
		},
		{
			"anonymous": false,
			"inputs": [
				{
					"indexed": true,
					"internalType": "address",
					"name": "newPoolAddress",
					"type": "address"
				},
				{
					"indexed": false,
					"internalType": "uint256",
					"name": "tokenTransferred",
					"type": "uint256"
				},
				{
					"indexed": false,
					"internalType": "uint256",
					"name": "etherTransferred",
					"type": "uint256"
				}
			],
			"name": "MigrationToAlgebra",
			"type": "event"
		},
		{
			"anonymous": false,
			"inputs": [
				{
					"indexed": false,
					"internalType": "string",
					"name": "step",
					"type": "string"
				},
				{
					"indexed": true,
					"internalType": "address",
					"name": "dataAddress",
					"type": "address"
				},
				{
					"indexed": true,
					"internalType": "uint256",
					"name": "value",
					"type": "uint256"
				}
			],
			"name": "Step",
			"type": "event"
		},
		{
			"anonymous": false,
			"inputs": [
				{
					"indexed": false,
					"internalType": "uint256",
					"name": "newBuyTax",
					"type": "uint256"
				},
				{
					"indexed": false,
					"internalType": "uint256",
					"name": "newSellTax",
					"type": "uint256"
				}
			],
			"name": "TaxUpdated",
			"type": "event"
		},
		{
			"anonymous": false,
			"inputs": [
				{
					"indexed": true,
					"internalType": "address",
					"name": "buyer",
					"type": "address"
				},
				{
					"indexed": false,
					"internalType": "uint256",
					"name": "amountIn",
					"type": "uint256"
				},
				{
					"indexed": false,
					"internalType": "uint256",
					"name": "amountOut",
					"type": "uint256"
				},
				{
					"indexed": false,
					"internalType": "uint256",
					"name": "tax",
					"type": "uint256"
				}
			],
			"name": "TokensPurchased",
			"type": "event"
		},
		{
			"anonymous": false,
			"inputs": [
				{
					"indexed": true,
					"internalType": "address",
					"name": "seller",
					"type": "address"
				},
				{
					"indexed": false,
					"internalType": "uint256",
					"name": "amountIn",
					"type": "uint256"
				},
				{
					"indexed": false,
					"internalType": "uint256",
					"name": "amountOut",
					"type": "uint256"
				},
				{
					"indexed": false,
					"internalType": "uint256",
					"name": "tax",
					"type": "uint256"
				}
			],
			"name": "TokensSold",
			"type": "event"
		},
		{
			"inputs": [],
			"name": "X_DELTA_LOWER",
			"outputs": [
				{
					"internalType": "uint256",
					"name": "",
					"type": "uint256"
				}
			],
			"stateMutability": "view",
			"type": "function"
		},
		{
			"inputs": [],
			"name": "X_DELTA_UPPER",
			"outputs": [
				{
					"internalType": "uint256",
					"name": "",
					"type": "uint256"
				}
			],
			"stateMutability": "view",
			"type": "function"
		},
		{
			"inputs": [],
			"name": "Y_DELTA_LOWER",
			"outputs": [
				{
					"internalType": "uint256",
					"name": "",
					"type": "uint256"
				}
			],
			"stateMutability": "view",
			"type": "function"
		},
		{
			"inputs": [],
			"name": "Y_DELTA_UPPER",
			"outputs": [
				{
					"internalType": "uint256",
					"name": "",
					"type": "uint256"
				}
			],
			"stateMutability": "view",
			"type": "function"
		},
		{
			"inputs": [],
			"name": "algebraPoolInitializer",
			"outputs": [
				{
					"internalType": "address",
					"name": "",
					"type": "address"
				}
			],
			"stateMutability": "view",
			"type": "function"
		},
		{
			"inputs": [],
			"name": "autoMigrationEnabled",
			"outputs": [
				{
					"internalType": "bool",
					"name": "",
					"type": "bool"
				}
			],
			"stateMutability": "view",
			"type": "function"
		},
		{
			"inputs": [],
			"name": "buyTax",
			"outputs": [
				{
					"internalType": "uint256",
					"name": "",
					"type": "uint256"
				}
			],
			"stateMutability": "view",
			"type": "function"
		},
		{
			"inputs": [],
			"name": "buyToken",
			"outputs": [
				{
					"internalType": "uint256",
					"name": "amountOut",
					"type": "uint256"
				}
			],
			"stateMutability": "payable",
			"type": "function"
		},
		{
			"inputs": [
				{
					"internalType": "uint256",
					"name": "amount0",
					"type": "uint256"
				},
				{
					"internalType": "uint256",
					"name": "amount1",
					"type": "uint256"
				}
			],
			"name": "calculateSqrtPriceX96",
			"outputs": [
				{
					"internalType": "uint160",
					"name": "",
					"type": "uint160"
				}
			],
			"stateMutability": "pure",
			"type": "function"
		},
		{
			"inputs": [],
			"name": "devAddress",
			"outputs": [
				{
					"internalType": "address",
					"name": "",
					"type": "address"
				}
			],
			"stateMutability": "view",
			"type": "function"
		},
		{
			"inputs": [],
			"name": "forceMigration",
			"outputs": [],
			"stateMutability": "nonpayable",
			"type": "function"
		},
		{
			"inputs": [],
			"name": "getReserves",
			"outputs": [
				{
					"internalType": "uint256",
					"name": "",
					"type": "uint256"
				},
				{
					"internalType": "uint256",
					"name": "",
					"type": "uint256"
				}
			],
			"stateMutability": "view",
			"type": "function"
		},
		{
			"inputs": [
				{
					"internalType": "address",
					"name": "_token0",
					"type": "address"
				},
				{
					"internalType": "uint256",
					"name": "_initialTokenReserve",
					"type": "uint256"
				},
				{
					"internalType": "uint256",
					"name": "_buyTax",
					"type": "uint256"
				},
				{
					"internalType": "uint256",
					"name": "_sellTax",
					"type": "uint256"
				},
				{
					"internalType": "address",
					"name": "_algebraPoolInitializer",
					"type": "address"
				},
				{
					"internalType": "bool",
					"name": "_automigration",
					"type": "bool"
				}
			],
			"name": "initialize",
			"outputs": [],
			"stateMutability": "payable",
			"type": "function"
		},
		{
			"inputs": [],
			"name": "migratedToAlgebra",
			"outputs": [
				{
					"internalType": "bool",
					"name": "",
					"type": "bool"
				}
			],
			"stateMutability": "view",
			"type": "function"
		},
		{
			"inputs": [],
			"name": "migrationThreshold",
			"outputs": [
				{
					"internalType": "uint256",
					"name": "",
					"type": "uint256"
				}
			],
			"stateMutability": "view",
			"type": "function"
		},
		{
			"inputs": [],
			"name": "reserve0",
			"outputs": [
				{
					"internalType": "uint256",
					"name": "",
					"type": "uint256"
				}
			],
			"stateMutability": "view",
			"type": "function"
		},
		{
			"inputs": [],
			"name": "reserve1",
			"outputs": [
				{
					"internalType": "uint256",
					"name": "",
					"type": "uint256"
				}
			],
			"stateMutability": "view",
			"type": "function"
		},
		{
			"inputs": [],
			"name": "sellTax",
			"outputs": [
				{
					"internalType": "uint256",
					"name": "",
					"type": "uint256"
				}
			],
			"stateMutability": "view",
			"type": "function"
		},
		{
			"inputs": [
				{
					"internalType": "uint256",
					"name": "amountIn",
					"type": "uint256"
				}
			],
			"name": "sellToken",
			"outputs": [
				{
					"internalType": "uint256",
					"name": "amountOut",
					"type": "uint256"
				}
			],
			"stateMutability": "nonpayable",
			"type": "function"
		},
		{
			"inputs": [
				{
					"internalType": "address",
					"name": "_initializer",
					"type": "address"
				}
			],
			"name": "setAlgebraPoolInitializer",
			"outputs": [],
			"stateMutability": "nonpayable",
			"type": "function"
		},
		{
			"inputs": [
				{
					"internalType": "bool",
					"name": "enable",
					"type": "bool"
				}
			],
			"name": "toggleAutoMigration",
			"outputs": [],
			"stateMutability": "nonpayable",
			"type": "function"
		},
		{
			"inputs": [],
			"name": "token0",
			"outputs": [
				{
					"internalType": "address",
					"name": "",
					"type": "address"
				}
			],
			"stateMutability": "view",
			"type": "function"
		},
		{
			"inputs": [],
			"name": "tokenFactory",
			"outputs": [
				{
					"internalType": "address",
					"name": "",
					"type": "address"
				}
			],
			"stateMutability": "view",
			"type": "function"
		},
		{
			"inputs": [
				{
					"internalType": "uint256",
					"name": "newBuyTax",
					"type": "uint256"
				}
			],
			"name": "updateBuyTax",
			"outputs": [],
			"stateMutability": "nonpayable",
			"type": "function"
		},
		{
			"inputs": [
				{
					"internalType": "uint256",
					"name": "newThreshold",
					"type": "uint256"
				}
			],
			"name": "updateMigrationThreshold",
			"outputs": [],
			"stateMutability": "nonpayable",
			"type": "function"
		},
		{
			"inputs": [
				{
					"internalType": "uint256",
					"name": "newSellTax",
					"type": "uint256"
				}
			],
			"name": "updateSellTax",
			"outputs": [],
			"stateMutability": "nonpayable",
			"type": "function"
		}
	]
}