{
	"data": {
		"bytecode": {
			"linkReferences": {},
			"object": "608060405265b5e620f480006007555f600855600a6009556702c68af0bb140000600a5534801561002e575f80fd5b50604051613bb3380380613bb383398101604081905261004d91610254565b338061007357604051631e4fbdf760e01b81525f60048201526024015b60405180910390fd5b61007c816101ea565b506001600160a01b0383166100de5760405162461bcd60e51b815260206004820152602260248201527f44657620616464726573732063616e6e6f74206265207a65726f206164647265604482015261737360f01b606482015260840161006a565b6001600160a01b03821661013f5760405162461bcd60e51b815260206004820152602260248201527f44414f20616464726573732063616e6e6f74206265207a65726f206164647265604482015261737360f01b606482015260840161006a565b6001600160a01b0381166101a85760405162461bcd60e51b815260206004820152602a60248201527f416c676562726120696e697469616c697a65722063616e6e6f74206265207a65604482015269726f206164647265737360b01b606482015260840161006a565b600480546001600160a01b039485166001600160a01b031991821617909155600580549385169382169390931790925560068054919093169116179055610294565b5f80546001600160a01b038381166001600160a01b0319831681178455604051919092169283917f8be0079c531659141344cd1fd0a4f28419497f9722a3daafe3b4186f6b6457e09190a35050565b80516001600160a01b038116811461024f575f80fd5b919050565b5f805f60608486031215610266575f80fd5b61026f84610239565b925061027d60208501610239565b915061028b60408501610239565b90509250925092565b613912806102a15f395ff3fe60806040526004361061017b575f3560e01c80637cdb1e46116100cd578063c98b7fd211610087578063ee06dbba11610062578063ee06dbba14610455578063f2fde38b14610474578063f3465c2614610493578063f975f3a2146104a8575f80fd5b8063c98b7fd214610402578063d785a58414610421578063d8a8770014610436575f80fd5b80637cdb1e4614610341578063844b67b7146103605780638da5cb5b1461037f578063989796b51461039b5780639a0c2d46146103cf578063bd5f2b0f146103ee575f80fd5b80634047fdcc11610138578063634282af11610113578063634282af1461028f57806368b64ec9146102ce578063715018a6146102ed5780637b6e797514610301575f80fd5b80634047fdcc146102455780634f370d241461026657806362d07f1a1461027a575f80fd5b806314e608131461017f5780631d66d690146101a75780632131c68c146101bb5780632a5c792a146101f25780632f2f2d56146102135780633ad10ef614610226575b5f80fd5b34801561018a575f80fd5b5061019460075481565b6040519081526020015b60405180910390f35b3480156101b2575f80fd5b50600154610194565b3480156101c6575f80fd5b506005546101da906001600160a01b031681565b6040516001600160a01b03909116815260200161019e565b3480156101fd575f80fd5b506102066104c7565b60405161019e91906111ae565b6101da6102213660046112a7565b61053d565b348015610231575f80fd5b506004546101da906001600160a01b031681565b348015610250575f80fd5b5061026461025f366004611327565b610b1f565b005b348015610271575f80fd5b50610194601e81565b348015610285575f80fd5b5061019460085481565b34801561029a575f80fd5b506102ae6102a936600461134f565b610c57565b604080516001600160a01b0393841681529290911660208301520161019e565b3480156102d9575f80fd5b506102646102e836600461134f565b610c8e565b3480156102f8575f80fd5b50610264610d30565b34801561030c575f80fd5b506101da61031b366004611366565b80516020818301810180516003825292820191909301209152546001600160a01b031681565b34801561034c575f80fd5b5061026461035b3660046113a0565b610d43565b34801561036b575f80fd5b5061026461037a3660046113c0565b610dbc565b34801561038a575f80fd5b505f546001600160a01b03166101da565b3480156103a6575f80fd5b506101da6103b53660046113c0565b60026020525f90815260409020546001600160a01b031681565b3480156103da575f80fd5b506102646103e93660046113ed565b610e6e565b3480156103f9575f80fd5b50610194603281565b34801561040d575f80fd5b506006546101da906001600160a01b031681565b34801561042c575f80fd5b50610194600a5481565b348015610441575f80fd5b50610264610450366004611327565b610f18565b348015610460575f80fd5b5061026461046f366004611327565b610fb2565b34801561047f575f80fd5b5061026461048e3660046113c0565b6110dc565b34801561049e575f80fd5b5061019460095481565b3480156104b3575f80fd5b506101946b06c9144c1c690d4cb400000081565b60606001805480602002602001604051908101604052809291908181526020015f905b82821015610534575f848152602090819020604080518082019091526002850290910180546001600160a01b039081168352600191820154168284015290835290920191016104ea565b50505050905090565b5f806001600160a01b03166003846040516105589190611422565b908152604051908190036020019020546001600160a01b0316146105cf5760405162461bcd60e51b815260206004820152602360248201527f546f6b656e20776974682074686973206e616d6520616c72656164792065786960448201526273747360e81b60648201526084015b60405180910390fd5b60075434146106305760405162461bcd60e51b815260206004820152602760248201527f496e636f72726563742045746865722076616c756520666f72206372656174696044820152661bdb8818dbdcdd60ca1b60648201526084016105c6565b5f6064600754600a610642919061144c565b61064c9190611463565b90505f8160075461065d9190611482565b6004546040519192505f916001600160a01b039091169084908381818185875af1925050503d805f81146106ac576040519150601f19603f3d011682016040523d82523d5f602084013e6106b1565b606091505b50509050806106fb5760405162461bcd60e51b81526020600482015260166024820152754661696c656420746f2073656e64206465762066656560501b60448201526064016105c6565b5f60405161070890611194565b604051809103905ff080158015610721573d5f803e3d5ffd5b5060405163266c45bb60e11b81529091506001600160a01b03821690634cd88b7690610753908a908a906004016114c3565b5f604051808303815f87803b15801561076a575f80fd5b505af115801561077c573d5f803e3d5ffd5b505050505f6103e8601e6b06c9144c1c690d4cb400000061079d919061144c565b6107a79190611463565b90505f6107c0826b06c9144c1c690d4cb4000000611482565b6005546040516340c10f1960e01b81526001600160a01b039182166004820152602481018590529192508416906340c10f19906044015f604051808303815f87803b15801561080d575f80fd5b505af115801561081f573d5f803e3d5ffd5b50506040516340c10f1960e01b8152306004820152602481018490526001600160a01b03861692506340c10f1991506044015f604051808303815f87803b158015610868575f80fd5b505af115801561087a573d5f803e3d5ffd5b5050600454600a546040515f94506001600160a01b03909216925030916108a0906111a1565b6001600160a01b0393841681529290911660208301526040820152606001604051809103905ff0801580156108d7573d5f803e3d5ffd5b5060405163a9059cbb60e01b81526001600160a01b03808316600483015260248201859052919250829186169063a9059cbb906044016020604051808303815f875af1158015610929573d5f803e3d5ffd5b505050506040513d601f19601f8201168201806040525081019061094d91906114f0565b50600854600954604051634ec81af160e01b81526001600160a01b038881166004830152602482018790526044820193909352606481019190915290831690634ec81af19089906084015f604051808303818588803b1580156109ae575f80fd5b505af11580156109c0573d5f803e3d5ffd5b50506040805180820182526001600160a01b03808b1680835287821660208085018281526001805480820182555f918252965160029788027fb10e2d527612073b26eecdfd717e6a320cf44b4afac2b0732d9fcbe2b7fa0cf6810180549289166001600160a01b031993841617905592517fb10e2d527612073b26eecdfd717e6a320cf44b4afac2b0732d9fcbe2b7fa0cf7909301805493909716928116929092179095559284529390935290839020805490911690911790555188935083925060039150610a90908f90611422565b90815260200160405180910390205f6101000a8154816001600160a01b0302191690836001600160a01b03160217905550816001600160a01b0316816001600160a01b03167f6596c1670eb3390048d23721809c3da5d3f531375ac0e2cab0f77a808ed643318e8e604051610b069291906114c3565b60405180910390a3985050505050505050505b92915050565b610b27611119565b5f8290505f816001600160a01b0316634f7041a56040518163ffffffff1660e01b8152600401602060405180830381865afa158015610b68573d5f803e3d5ffd5b505050506040513d601f19601f82011682018060405250810190610b8c919061150b565b610b969084611522565b90506032811115610bb95760405162461bcd60e51b81526004016105c690611535565b6040516312185a3960e01b8152600481018490526001600160a01b038316906312185a39906024015f604051808303815f87803b158015610bf8575f80fd5b505af1158015610c0a573d5f803e3d5ffd5b50505050836001600160a01b03167f0886a4dfb4672e86e61e0ab2c4e42bb92d9d3e5989b5612eb53a8ae6729d854c84604051610c4991815260200190565b60405180910390a250505050565b60018181548110610c66575f80fd5b5f918252602090912060029091020180546001909101546001600160a01b0391821692501682565b610c96611119565b5f8111610cf55760405162461bcd60e51b815260206004820152602760248201527f4372656174696f6e20636f7374206d7573742062652067726561746572207468604482015266616e207a65726f60c81b60648201526084016105c6565b60078190556040518181527f8c76f98cb6c586b4d243aea813535b5f077900fc55b5db21acb57022bed3efef9060200160405180910390a150565b610d38611119565b610d415f611145565b565b610d4b611119565b6032610d578284611522565b1115610d755760405162461bcd60e51b81526004016105c690611535565b6008829055600981905560408051838152602081018390527f016086f0bbee58f1c4315fde47f14672114c6fd39a61335a705278e88d8b8133910160405180910390a15050565b610dc4611119565b6001600160a01b038116610e255760405162461bcd60e51b815260206004820152602260248201527f496e697469616c697a65722063616e6e6f74206265207a65726f206164647265604482015261737360f01b60648201526084016105c6565b600680546001600160a01b0319166001600160a01b0383169081179091556040517f79c27eb818c0fc85c665e8e7658ea34e4d708ea821dc5fa04f99bf0c6d9a9ccd905f90a250565b610e76611119565b604051631931415560e31b8152811515600482015282906001600160a01b0382169063c98a0aa8906024015f604051808303815f87803b158015610eb8575f80fd5b505af1158015610eca573d5f803e3d5ffd5b50505050826001600160a01b03167fea8e8364da5eddf3fb7ae03b3bbf8f7eec1c692ccf20b222031dcb690c844d2683604051610f0b911515815260200190565b60405180910390a2505050565b610f20611119565b6040516396343fd560e01b81526004810182905282906001600160a01b038216906396343fd5906024015f604051808303815f87803b158015610f61575f80fd5b505af1158015610f73573d5f803e3d5ffd5b50505050826001600160a01b03167ff8e69fdb22ced36bbfd9888be1b10ffd4a153283bce3728eb4a5893c2b58348283604051610f0b91815260200190565b610fba611119565b5f8290505f816001600160a01b031663cc1776d36040518163ffffffff1660e01b8152600401602060405180830381865afa158015610ffb573d5f803e3d5ffd5b505050506040513d601f19601f8201168201806040525081019061101f919061150b565b6110299084611522565b9050603281111561104c5760405162461bcd60e51b81526004016105c690611535565b60405163010db4cd60e61b8152600481018490526001600160a01b0383169063436d3340906024015f604051808303815f87803b15801561108b575f80fd5b505af115801561109d573d5f803e3d5ffd5b50505050836001600160a01b03167f2ff83d7ea34209fe833b25aa0de5d72dba463a9551dd87a8574a25f9b42ed07484604051610c4991815260200190565b6110e4611119565b6001600160a01b03811661110d57604051631e4fbdf760e01b81525f60048201526024016105c6565b61111681611145565b50565b5f546001600160a01b03163314610d415760405163118cdaa760e01b81523360048201526024016105c6565b5f80546001600160a01b038381166001600160a01b0319831681178455604051919092169283917f8be0079c531659141344cd1fd0a4f28419497f9722a3daafe3b4186f6b6457e09190a35050565b610e758061156d83390190565b6114fb806123e283390190565b602080825282518282018190525f918401906040840190835b818110156111fd57835180516001600160a01b0390811685526020918201511681850152909301926040909201916001016111c7565b509095945050505050565b634e487b7160e01b5f52604160045260245ffd5b5f82601f83011261122b575f80fd5b813567ffffffffffffffff81111561124557611245611208565b604051601f8201601f19908116603f0116810167ffffffffffffffff8111828210171561127457611274611208565b60405281815283820160200185101561128b575f80fd5b816020850160208301375f918101602001919091529392505050565b5f80604083850312156112b8575f80fd5b823567ffffffffffffffff8111156112ce575f80fd5b6112da8582860161121c565b925050602083013567ffffffffffffffff8111156112f6575f80fd5b6113028582860161121c565b9150509250929050565b80356001600160a01b0381168114611322575f80fd5b919050565b5f8060408385031215611338575f80fd5b6113418361130c565b946020939093013593505050565b5f6020828403121561135f575f80fd5b5035919050565b5f60208284031215611376575f80fd5b813567ffffffffffffffff81111561138c575f80fd5b6113988482850161121c565b949350505050565b5f80604083850312156113b1575f80fd5b50508035926020909101359150565b5f602082840312156113d0575f80fd5b6113d98261130c565b9392505050565b8015158114611116575f80fd5b5f80604083850312156113fe575f80fd5b6114078361130c565b91506020830135611417816113e0565b809150509250929050565b5f82518060208501845e5f920191825250919050565b634e487b7160e01b5f52601160045260245ffd5b8082028115828204841417610b1957610b19611438565b5f8261147d57634e487b7160e01b5f52601260045260245ffd5b500490565b81810381811115610b1957610b19611438565b5f81518084528060208401602086015e5f602082860101526020601f19601f83011685010191505092915050565b604081525f6114d56040830185611495565b82810360208401526114e78185611495565b95945050505050565b5f60208284031215611500575f80fd5b81516113d9816113e0565b5f6020828403121561151b575f80fd5b5051919050565b80820180821115610b1957610b19611438565b6020808252601a908201527f546f74616c207461782063616e6e6f742065786365656420352500000000000060408201526060019056fe608060405234801561000f575f80fd5b5060408051602080820183525f808352835191820190935291825233916003610038838261016d565b506004610045828261016d565b5050506001600160a01b03811661007557604051631e4fbdf760e01b81525f600482015260240160405180910390fd5b61007e81610084565b50610227565b600580546001600160a01b038381166001600160a01b0319831681179093556040519116919082907f8be0079c531659141344cd1fd0a4f28419497f9722a3daafe3b4186f6b6457e0905f90a35050565b634e487b7160e01b5f52604160045260245ffd5b600181811c908216806100fd57607f821691505b60208210810361011b57634e487b7160e01b5f52602260045260245ffd5b50919050565b601f82111561016857805f5260205f20601f840160051c810160208510156101465750805b601f840160051c820191505b81811015610165575f8155600101610152565b50505b505050565b81516001600160401b03811115610186576101866100d5565b61019a8161019484546100e9565b84610121565b6020601f8211600181146101cc575f83156101b55750848201515b5f19600385901b1c1916600184901b178455610165565b5f84815260208120601f198516915b828110156101fb57878501518255602094850194600190920191016101db565b508482101561021857868401515f19600387901b60f8161c191681555b50505050600190811b01905550565b610c41806102345f395ff3fe608060405234801561000f575f80fd5b50600436106100fb575f3560e01c806370a0823111610093578063a9059cbb11610063578063a9059cbb14610202578063b90497e014610215578063dd62ed3e1461021d578063f2fde38b14610255575f80fd5b806370a08231146101af578063715018a6146101d75780638da5cb5b146101df57806395d89b41146101fa575f80fd5b8063313ce567116100ce578063313ce5671461016557806340c10f19146101745780634cd88b761461018957806358e792ee1461019c575f80fd5b806306fdde03146100ff578063095ea7b31461011d57806318160ddd1461014057806323b872dd14610152575b5f80fd5b610107610268565b604051610114919061086d565b60405180910390f35b61013061012b3660046108bd565b6102f8565b6040519015158152602001610114565b6002545b604051908152602001610114565b6101306101603660046108e5565b610311565b60405160128152602001610114565b6101876101823660046108bd565b610334565b005b6101876101973660046109be565b61034a565b6101876101aa366004610a23565b6103cd565b6101446101bd366004610a5d565b6001600160a01b03165f9081526020819052604090205490565b6101876103e1565b6005546040516001600160a01b039091168152602001610114565b6101076103f4565b6101306102103660046108bd565b610403565b610107610410565b61014461022b366004610a7d565b6001600160a01b039182165f90815260016020908152604080832093909416825291909152205490565b610187610263366004610a5d565b61049c565b60606006805461027790610aae565b80601f01602080910402602001604051908101604052809291908181526020018280546102a390610aae565b80156102ee5780601f106102c5576101008083540402835291602001916102ee565b820191905f5260205f20905b8154815290600101906020018083116102d157829003601f168201915b5050505050905090565b5f336103058185856104d9565b60019150505b92915050565b5f3361031e8582856104eb565b610329858585610566565b506001949350505050565b61033c6105c3565b61034682826105f0565b5050565b60085460ff16156103a25760405162461bcd60e51b815260206004820152601960248201527f546f6b656e20616c726561647920696e697469616c697a65640000000000000060448201526064015b60405180910390fd5b60066103ae8382610b31565b5060076103bb8282610b31565b50506008805460ff1916600117905550565b6103d56105c3565b60096103468282610b31565b6103e96105c3565b6103f25f610624565b565b60606007805461027790610aae565b5f33610305818585610566565b6009805461041d90610aae565b80601f016020809104026020016040519081016040528092919081815260200182805461044990610aae565b80156104945780601f1061046b57610100808354040283529160200191610494565b820191905f5260205f20905b81548152906001019060200180831161047757829003601f168201915b505050505081565b6104a46105c3565b6001600160a01b0381166104cd57604051631e4fbdf760e01b81525f6004820152602401610399565b6104d681610624565b50565b6104e68383836001610675565b505050565b6001600160a01b038381165f908152600160209081526040808320938616835292905220545f198114610560578181101561055257604051637dc7a0d960e11b81526001600160a01b03841660048201526024810182905260448101839052606401610399565b61056084848484035f610675565b50505050565b6001600160a01b03831661058f57604051634b637e8f60e11b81525f6004820152602401610399565b6001600160a01b0382166105b85760405163ec442f0560e01b81525f6004820152602401610399565b6104e6838383610747565b6005546001600160a01b031633146103f25760405163118cdaa760e01b8152336004820152602401610399565b6001600160a01b0382166106195760405163ec442f0560e01b81525f6004820152602401610399565b6103465f8383610747565b600580546001600160a01b038381166001600160a01b0319831681179093556040519116919082907f8be0079c531659141344cd1fd0a4f28419497f9722a3daafe3b4186f6b6457e0905f90a35050565b6001600160a01b03841661069e5760405163e602df0560e01b81525f6004820152602401610399565b6001600160a01b0383166106c757604051634a1406b160e11b81525f6004820152602401610399565b6001600160a01b038085165f908152600160209081526040808320938716835292905220829055801561056057826001600160a01b0316846001600160a01b03167f8c5be1e5ebec7d5bd14f71427d1e84f3dd0314c0f7b2291e5b200ac8c7c3b9258460405161073991815260200190565b60405180910390a350505050565b6001600160a01b038316610771578060025f8282546107669190610bec565b909155506107e19050565b6001600160a01b0383165f90815260208190526040902054818110156107c35760405163391434e360e21b81526001600160a01b03851660048201526024810182905260448101839052606401610399565b6001600160a01b0384165f9081526020819052604090209082900390555b6001600160a01b0382166107fd5760028054829003905561081b565b6001600160a01b0382165f9081526020819052604090208054820190555b816001600160a01b0316836001600160a01b03167fddf252ad1be2c89b69c2b068fc378daa952ba7f163c4a11628f55a4df523b3ef8360405161086091815260200190565b60405180910390a3505050565b602081525f82518060208401528060208501604085015e5f604082850101526040601f19601f83011684010191505092915050565b80356001600160a01b03811681146108b8575f80fd5b919050565b5f80604083850312156108ce575f80fd5b6108d7836108a2565b946020939093013593505050565b5f805f606084860312156108f7575f80fd5b610900846108a2565b925061090e602085016108a2565b929592945050506040919091013590565b634e487b7160e01b5f52604160045260245ffd5b5f82601f830112610942575f80fd5b813567ffffffffffffffff81111561095c5761095c61091f565b604051601f8201601f19908116603f0116810167ffffffffffffffff8111828210171561098b5761098b61091f565b6040528181528382016020018510156109a2575f80fd5b816020850160208301375f918101602001919091529392505050565b5f80604083850312156109cf575f80fd5b823567ffffffffffffffff8111156109e5575f80fd5b6109f185828601610933565b925050602083013567ffffffffffffffff811115610a0d575f80fd5b610a1985828601610933565b9150509250929050565b5f60208284031215610a33575f80fd5b813567ffffffffffffffff811115610a49575f80fd5b610a5584828501610933565b949350505050565b5f60208284031215610a6d575f80fd5b610a76826108a2565b9392505050565b5f8060408385031215610a8e575f80fd5b610a97836108a2565b9150610aa5602084016108a2565b90509250929050565b600181811c90821680610ac257607f821691505b602082108103610ae057634e487b7160e01b5f52602260045260245ffd5b50919050565b601f8211156104e657805f5260205f20601f840160051c81016020851015610b0b5750805b601f840160051c820191505b81811015610b2a575f8155600101610b17565b5050505050565b815167ffffffffffffffff811115610b4b57610b4b61091f565b610b5f81610b598454610aae565b84610ae6565b6020601f821160018114610b91575f8315610b7a5750848201515b5f19600385901b1c1916600184901b178455610b2a565b5f84815260208120601f198516915b82811015610bc05787850151825560209485019460019092019101610ba0565b5084821015610bdd57868401515f19600387901b60f8161c191681555b50505050600190811b01905550565b8082018082111561030b57634e487b7160e01b5f52601160045260245ffdfea26469706673582212207c7e904b4a05b82b07b43abf95483a4159c3a16eb1fc5249d480df8830f0a1ca64736f6c634300081a0033608060405234801561000f575f80fd5b506040516114fb3803806114fb83398101604081905261002e9161014d565b60015f556001600160a01b03831661008d5760405162461bcd60e51b815260206004820181905260248201527f446576656c6f70657220616464726573732063616e6e6f74206265207a65726f60448201526064015b60405180910390fd5b6001600160a01b0382166100ef5760405162461bcd60e51b815260206004820152602360248201527f546f6b656e466163746f727920616464726573732063616e6e6f74206265207a60448201526265726f60e81b6064820152608401610084565b600380546001600160a01b039485166001600160a01b0319918216179091556002805493909416921691909117909155600a556009805461ff0019169055610186565b80516001600160a01b0381168114610148575f80fd5b919050565b5f805f6060848603121561015f575f80fd5b61016884610132565b925061017660208501610132565b9150604084015190509250925092565b611368806101935f395ff3fe60806040526004361061011b575f3560e01c80634f7041a51161009d578063a482171911610062578063a4821719146102fa578063c98a0aa814610302578063c98b7fd214610321578063cc1776d314610340578063e77772fe14610355575f80fd5b80634f7041a51461027e5780635a76f25e146102935780638d5f17aa146102a857806390bc1e85146102c657806396343fd5146102db575f80fd5b8063299ce7b2116100e3578063299ce7b2146101ef5780633ad10ef614610218578063436d334014610237578063443cb4bc146102565780634ec81af11461026b575f80fd5b806304ccde371461011f5780630902f1ac146101405780630dfe16811461016c57806312185a39146101a35780632397e4d7146101c2575b5f80fd5b34801561012a575f80fd5b5061013e6101393660046111a0565b610374565b005b34801561014b575f80fd5b50600554600654604080519283526020830191909152015b60405180910390f35b348015610177575f80fd5b5060015461018b906001600160a01b031681565b6040516001600160a01b039091168152602001610163565b3480156101ae575f80fd5b5061013e6101bd3660046111c2565b610451565b3480156101cd575f80fd5b506101e16101dc3660046111c2565b6104c0565b604051908152602001610163565b3480156101fa575f80fd5b506009546102089060ff1681565b6040519015158152602001610163565b348015610223575f80fd5b5060035461018b906001600160a01b031681565b348015610242575f80fd5b5061013e6102513660046111c2565b6107df565b348015610261575f80fd5b506101e160055481565b61013e6102793660046111d9565b610848565b348015610289575f80fd5b506101e160075481565b34801561029e575f80fd5b506101e160065481565b3480156102b3575f80fd5b5060095461020890610100900460ff1681565b3480156102d1575f80fd5b506101e1600a5481565b3480156102e6575f80fd5b5061013e6102f53660046111c2565b6109ae565b6101e1610a68565b34801561030d575f80fd5b5061013e61031c36600461121e565b610d33565b34801561032c575f80fd5b5060045461018b906001600160a01b031681565b34801561034b575f80fd5b506101e160085481565b348015610360575f80fd5b5060025461018b906001600160a01b031681565b6002546001600160a01b031633146103a75760405162461bcd60e51b815260040161039e90611239565b60405180910390fd5b6001600160a01b0381166104085760405162461bcd60e51b815260206004820152602260248201527f496e697469616c697a657220616464726573732063616e6e6f74206265207a65604482015261726f60f01b606482015260840161039e565b600480546001600160a01b0319166001600160a01b0383169081179091556040517fe6223ef4a6cc26f11671126040eb90609754df785e229f9fc28e9612ca3380bc905f90a250565b6002546001600160a01b0316331461047b5760405162461bcd60e51b815260040161039e90611239565b600881905560075460408051918252602082018390527fb841faf0d1b32571f4ef966a2f35e3ae51f3cdda45318c3da5570a5b2ad8560591015b60405180910390a150565b5f6104c9610da6565b60095460ff16156105175760405162461bcd60e51b8152602060048201526018602482015277506f6f6c206d6967726174656420746f20416c676562726160401b604482015260640161039e565b5f821161055e5760405162461bcd60e51b81526020600482015260156024820152744d7573742073656c6c20736f6d6520746f6b656e7360581b604482015260640161039e565b5f6103e8600854846105709190611284565b61057a91906112a1565b90505f61058782856112c0565b6001546040516323b872dd60e01b8152336004820152306024820152604481018790529192506001600160a01b0316906323b872dd906064016020604051808303815f875af11580156105dc573d5f803e3d5ffd5b505050506040513d601f19601f8201168201806040525081019061060091906112d3565b5060015460035460405163a9059cbb60e01b81526001600160a01b0391821660048201526024810185905291169063a9059cbb906044016020604051808303815f875af1158015610653573d5f803e3d5ffd5b505050506040513d601f19601f8201168201806040525081019061067791906112d3565b505f8160055461068791906112ee565b90508060065460055461069a9190611284565b6106a491906112a1565b6006546106b191906112c0565b9350806005819055508360065f8282546106cb91906112c0565b90915550506040515f90339086908381818185875af1925050503d805f811461070f576040519150601f19603f3d011682016040523d82523d5f602084013e610714565b606091505b505090508061075d5760405162461bcd60e51b8152602060048201526015602482015274115d1a195c881d1c985b9cd9995c8819985a5b1959605a1b604482015260640161039e565b60015460408051888152602081018890525f926001600160a01b0316917ffa2dda1cc1b86e41239702756b13effbc1a092b5c57e3ad320fbe4f3b13fe235910160405180910390a3600954610100900460ff1680156107c05750600a5460065410155b156107cd576107cd610dce565b505050506107da60015f55565b919050565b6002546001600160a01b031633146108095760405162461bcd60e51b815260040161039e90611239565b60078190556008546040805183815260208101929092527fb841faf0d1b32571f4ef966a2f35e3ae51f3cdda45318c3da5570a5b2ad8560591016104b5565b6002546001600160a01b031633146108725760405162461bcd60e51b815260040161039e90611239565b61087a610da6565b6001546001600160a01b0316156108d35760405162461bcd60e51b815260206004820152601860248201527f506f6f6c20616c726561647920696e697469616c697a65640000000000000000604482015260640161039e565b5f34116109335760405162461bcd60e51b815260206004820152602860248201527f496e697469616c206e61746976652063757272656e63792072657365727665206044820152671c995c5d5a5c995960c21b606482015260840161039e565b600180546001600160a01b0319166001600160a01b03861617905560058390553460068190556007839055600882905560408051858152602081019290925233917fac1d76749e5447b7b16f5ab61447e1bd502f3bb4807af3b28e620d1700a6ee45910160405180910390a26109a860015f55565b50505050565b6002546001600160a01b031633146109d85760405162461bcd60e51b815260040161039e90611239565b5f8111610a335760405162461bcd60e51b815260206004820152602360248201527f5468726573686f6c64206d7573742062652067726561746572207468616e207a60448201526265726f60e81b606482015260840161039e565b600a8190556040518181527f4ad9ae9229776f627d7d2be995964376397890e11bbfa94e8826810419a6ef6b906020016104b5565b5f610a71610da6565b60095460ff1615610abf5760405162461bcd60e51b8152602060048201526018602482015277506f6f6c206d6967726174656420746f20416c676562726160401b604482015260640161039e565b5f3411610b0e5760405162461bcd60e51b815260206004820152601d60248201527f4d7573742073656e6420457468657220746f2062757920746f6b656e73000000604482015260640161039e565b5f6103e860075434610b209190611284565b610b2a91906112a1565b90505f610b3782346112c0565b6003546040519192505f916001600160a01b039091169084908381818185875af1925050503d805f8114610b86576040519150601f19603f3d011682016040523d82523d5f602084013e610b8b565b606091505b5050905080610be65760405162461bcd60e51b815260206004820152602160248201527f4661696c656420746f2073656e642074617820746f20646576206164647265736044820152607360f81b606482015260840161039e565b5f82600654610bf591906112ee565b905080600654600554610c089190611284565b610c1291906112a1565b600554610c1f91906112c0565b9450806006819055508460055f828254610c3991906112c0565b909155505060015460405163a9059cbb60e01b8152336004820152602481018790526001600160a01b039091169063a9059cbb906044016020604051808303815f875af1158015610c8c573d5f803e3d5ffd5b505050506040513d601f19601f82011682018060405250810190610cb091906112d3565b5060015460408051348152602081018890526001600160a01b03909216915f917ffa2dda1cc1b86e41239702756b13effbc1a092b5c57e3ad320fbe4f3b13fe235910160405180910390a3600954610100900460ff168015610d165750600a5460065410155b15610d2357610d23610dce565b50505050610d3060015f55565b90565b6002546001600160a01b03163314610d5d5760405162461bcd60e51b815260040161039e90611239565b600980548215156101000261ff00199091161790556040517fe7e0bd136ab3b57e3e925774a811e2482df79072fa45d011a4f088abfcc209d2906104b590831515815260200190565b60025f5403610dc857604051633ee5aeb560e01b815260040160405180910390fd5b60025f55565b610dd6610da6565b60095460ff1615610e295760405162461bcd60e51b815260206004820152601b60248201527f416c7265616479206d6967726174656420746f20416c67656272610000000000604482015260640161039e565b6004546001600160a01b0316610e915760405162461bcd60e51b815260206004820152602760248201527f416c676562726120506f6f6c496e697469616c697a65722061646472657373206044820152661b9bdd081cd95d60ca1b606482015260840161039e565b6001546040516001600160a01b0390911660248201525f9060440160408051601f198184030181529181526020820180516001600160e01b0316634824fce960e11b17905260045490519192505f9182916001600160a01b031690610ef7908590611301565b5f604051808303815f865af19150503d805f8114610f30576040519150601f19603f3d011682016040523d82523d5f602084013e610f35565b606091505b509150915081610f875760405162461bcd60e51b815260206004820152601c60248201527f416c676562726120706f6f6c206372656174696f6e206661696c656400000000604482015260640161039e565b5f81806020019051810190610f9c9190611317565b90506001600160a01b038116610ff45760405162461bcd60e51b815260206004820152601c60248201527f496e76616c696420416c676562726120706f6f6c206164647265737300000000604482015260640161039e565b60015460055460405163a9059cbb60e01b81526001600160a01b038481166004830152602482019290925291169063a9059cbb906044016020604051808303815f875af1158015611047573d5f803e3d5ffd5b505050506040513d601f19601f8201168201806040525081019061106b91906112d3565b506006546040515f916001600160a01b038416918381818185875af1925050503d805f81146110b5576040519150601f19603f3d011682016040523d82523d5f602084013e6110ba565b606091505b505090508061111c5760405162461bcd60e51b815260206004820152602860248201527f4661696c656420746f207472616e7366657220457468657220746f20416c6765604482015267189c98481c1bdbdb60c21b606482015260840161039e565b6009805460ff191660011790556005546006546040516001600160a01b038516927f681fa2c4629192623c409b90cb2463cea250bd2012f3ac5f34af5cfa45d4822a9261117192918252602082015260400190565b60405180910390a2505050505061118760015f55565b565b6001600160a01b038116811461119d575f80fd5b50565b5f602082840312156111b0575f80fd5b81356111bb81611189565b9392505050565b5f602082840312156111d2575f80fd5b5035919050565b5f805f80608085870312156111ec575f80fd5b84356111f781611189565b966020860135965060408601359560600135945092505050565b801515811461119d575f80fd5b5f6020828403121561122e575f80fd5b81356111bb81611211565b6020808252601e908201527f43616c6c6572206973206e6f742074686520546f6b656e466163746f72790000604082015260600190565b634e487b7160e01b5f52601160045260245ffd5b808202811582820484141761129b5761129b611270565b92915050565b5f826112bb57634e487b7160e01b5f52601260045260245ffd5b500490565b8181038181111561129b5761129b611270565b5f602082840312156112e3575f80fd5b81516111bb81611211565b8082018082111561129b5761129b611270565b5f82518060208501845e5f920191825250919050565b5f60208284031215611327575f80fd5b81516111bb8161118956fea2646970667358221220d8eb1c1ef4e570eb0df9082a37a008c80725cd1e3e2a8cc0e671b94eea80f45a64736f6c634300081a0033a2646970667358221220e16e81990c2a65fa3cfc23108e4345897ece18bf20500cdac783e59f5f0dac0f64736f6c634300081a0033",
			"opcodes": "PUSH1 0x80 PUSH1 0x40 MSTORE PUSH6 0xB5E620F48000 PUSH1 0x7 SSTORE PUSH0 PUSH1 0x8 SSTORE PUSH1 0xA PUSH1 0x9 SSTORE PUSH8 0x2C68AF0BB140000 PUSH1 0xA SSTORE CALLVALUE DUP1 ISZERO PUSH2 0x2E JUMPI PUSH0 DUP1 REVERT JUMPDEST POP PUSH1 0x40 MLOAD PUSH2 0x3BB3 CODESIZE SUB DUP1 PUSH2 0x3BB3 DUP4 CODECOPY DUP2 ADD PUSH1 0x40 DUP2 SWAP1 MSTORE PUSH2 0x4D SWAP2 PUSH2 0x254 JUMP JUMPDEST CALLER DUP1 PUSH2 0x73 JUMPI PUSH1 0x40 MLOAD PUSH4 0x1E4FBDF7 PUSH1 0xE0 SHL DUP2 MSTORE PUSH0 PUSH1 0x4 DUP3 ADD MSTORE PUSH1 0x24 ADD JUMPDEST PUSH1 0x40 MLOAD DUP1 SWAP2 SUB SWAP1 REVERT JUMPDEST PUSH2 0x7C DUP2 PUSH2 0x1EA JUMP JUMPDEST POP PUSH1 0x1 PUSH1 0x1 PUSH1 0xA0 SHL SUB DUP4 AND PUSH2 0xDE JUMPI PUSH1 0x40 MLOAD PUSH3 0x461BCD PUSH1 0xE5 SHL DUP2 MSTORE PUSH1 0x20 PUSH1 0x4 DUP3 ADD MSTORE PUSH1 0x22 PUSH1 0x24 DUP3 ADD MSTORE PUSH32 0x44657620616464726573732063616E6E6F74206265207A65726F206164647265 PUSH1 0x44 DUP3 ADD MSTORE PUSH2 0x7373 PUSH1 0xF0 SHL PUSH1 0x64 DUP3 ADD MSTORE PUSH1 0x84 ADD PUSH2 0x6A JUMP JUMPDEST PUSH1 0x1 PUSH1 0x1 PUSH1 0xA0 SHL SUB DUP3 AND PUSH2 0x13F JUMPI PUSH1 0x40 MLOAD PUSH3 0x461BCD PUSH1 0xE5 SHL DUP2 MSTORE PUSH1 0x20 PUSH1 0x4 DUP3 ADD MSTORE PUSH1 0x22 PUSH1 0x24 DUP3 ADD MSTORE PUSH32 0x44414F20616464726573732063616E6E6F74206265207A65726F206164647265 PUSH1 0x44 DUP3 ADD MSTORE PUSH2 0x7373 PUSH1 0xF0 SHL PUSH1 0x64 DUP3 ADD MSTORE PUSH1 0x84 ADD PUSH2 0x6A JUMP JUMPDEST PUSH1 0x1 PUSH1 0x1 PUSH1 0xA0 SHL SUB DUP2 AND PUSH2 0x1A8 JUMPI PUSH1 0x40 MLOAD PUSH3 0x461BCD PUSH1 0xE5 SHL DUP2 MSTORE PUSH1 0x20 PUSH1 0x4 DUP3 ADD MSTORE PUSH1 0x2A PUSH1 0x24 DUP3 ADD MSTORE PUSH32 0x416C676562726120696E697469616C697A65722063616E6E6F74206265207A65 PUSH1 0x44 DUP3 ADD MSTORE PUSH10 0x726F2061646472657373 PUSH1 0xB0 SHL PUSH1 0x64 DUP3 ADD MSTORE PUSH1 0x84 ADD PUSH2 0x6A JUMP JUMPDEST PUSH1 0x4 DUP1 SLOAD PUSH1 0x1 PUSH1 0x1 PUSH1 0xA0 SHL SUB SWAP5 DUP6 AND PUSH1 0x1 PUSH1 0x1 PUSH1 0xA0 SHL SUB NOT SWAP2 DUP3 AND OR SWAP1 SWAP2 SSTORE PUSH1 0x5 DUP1 SLOAD SWAP4 DUP6 AND SWAP4 DUP3 AND SWAP4 SWAP1 SWAP4 OR SWAP1 SWAP3 SSTORE PUSH1 0x6 DUP1 SLOAD SWAP2 SWAP1 SWAP4 AND SWAP2 AND OR SWAP1 SSTORE PUSH2 0x294 JUMP JUMPDEST PUSH0 DUP1 SLOAD PUSH1 0x1 PUSH1 0x1 PUSH1 0xA0 SHL SUB DUP4 DUP2 AND PUSH1 0x1 PUSH1 0x1 PUSH1 0xA0 SHL SUB NOT DUP4 AND DUP2 OR DUP5 SSTORE PUSH1 0x40 MLOAD SWAP2 SWAP1 SWAP3 AND SWAP3 DUP4 SWAP2 PUSH32 0x8BE0079C531659141344CD1FD0A4F28419497F9722A3DAAFE3B4186F6B6457E0 SWAP2 SWAP1 LOG3 POP POP JUMP JUMPDEST DUP1 MLOAD PUSH1 0x1 PUSH1 0x1 PUSH1 0xA0 SHL SUB DUP2 AND DUP2 EQ PUSH2 0x24F JUMPI PUSH0 DUP1 REVERT JUMPDEST SWAP2 SWAP1 POP JUMP JUMPDEST PUSH0 DUP1 PUSH0 PUSH1 0x60 DUP5 DUP7 SUB SLT ISZERO PUSH2 0x266 JUMPI PUSH0 DUP1 REVERT JUMPDEST PUSH2 0x26F DUP5 PUSH2 0x239 JUMP JUMPDEST SWAP3 POP PUSH2 0x27D PUSH1 0x20 DUP6 ADD PUSH2 0x239 JUMP JUMPDEST SWAP2 POP PUSH2 0x28B PUSH1 0x40 DUP6 ADD PUSH2 0x239 JUMP JUMPDEST SWAP1 POP SWAP3 POP SWAP3 POP SWAP3 JUMP JUMPDEST PUSH2 0x3912 DUP1 PUSH2 0x2A1 PUSH0 CODECOPY PUSH0 RETURN INVALID PUSH1 0x80 PUSH1 0x40 MSTORE PUSH1 0x4 CALLDATASIZE LT PUSH2 0x17B JUMPI PUSH0 CALLDATALOAD PUSH1 0xE0 SHR DUP1 PUSH4 0x7CDB1E46 GT PUSH2 0xCD JUMPI DUP1 PUSH4 0xC98B7FD2 GT PUSH2 0x87 JUMPI DUP1 PUSH4 0xEE06DBBA GT PUSH2 0x62 JUMPI DUP1 PUSH4 0xEE06DBBA EQ PUSH2 0x455 JUMPI DUP1 PUSH4 0xF2FDE38B EQ PUSH2 0x474 JUMPI DUP1 PUSH4 0xF3465C26 EQ PUSH2 0x493 JUMPI DUP1 PUSH4 0xF975F3A2 EQ PUSH2 0x4A8 JUMPI PUSH0 DUP1 REVERT JUMPDEST DUP1 PUSH4 0xC98B7FD2 EQ PUSH2 0x402 JUMPI DUP1 PUSH4 0xD785A584 EQ PUSH2 0x421 JUMPI DUP1 PUSH4 0xD8A87700 EQ PUSH2 0x436 JUMPI PUSH0 DUP1 REVERT JUMPDEST DUP1 PUSH4 0x7CDB1E46 EQ PUSH2 0x341 JUMPI DUP1 PUSH4 0x844B67B7 EQ PUSH2 0x360 JUMPI DUP1 PUSH4 0x8DA5CB5B EQ PUSH2 0x37F JUMPI DUP1 PUSH4 0x989796B5 EQ PUSH2 0x39B JUMPI DUP1 PUSH4 0x9A0C2D46 EQ PUSH2 0x3CF JUMPI DUP1 PUSH4 0xBD5F2B0F EQ PUSH2 0x3EE JUMPI PUSH0 DUP1 REVERT JUMPDEST DUP1 PUSH4 0x4047FDCC GT PUSH2 0x138 JUMPI DUP1 PUSH4 0x634282AF GT PUSH2 0x113 JUMPI DUP1 PUSH4 0x634282AF EQ PUSH2 0x28F JUMPI DUP1 PUSH4 0x68B64EC9 EQ PUSH2 0x2CE JUMPI DUP1 PUSH4 0x715018A6 EQ PUSH2 0x2ED JUMPI DUP1 PUSH4 0x7B6E7975 EQ PUSH2 0x301 JUMPI PUSH0 DUP1 REVERT JUMPDEST DUP1 PUSH4 0x4047FDCC EQ PUSH2 0x245 JUMPI DUP1 PUSH4 0x4F370D24 EQ PUSH2 0x266 JUMPI DUP1 PUSH4 0x62D07F1A EQ PUSH2 0x27A JUMPI PUSH0 DUP1 REVERT JUMPDEST DUP1 PUSH4 0x14E60813 EQ PUSH2 0x17F JUMPI DUP1 PUSH4 0x1D66D690 EQ PUSH2 0x1A7 JUMPI DUP1 PUSH4 0x2131C68C EQ PUSH2 0x1BB JUMPI DUP1 PUSH4 0x2A5C792A EQ PUSH2 0x1F2 JUMPI DUP1 PUSH4 0x2F2F2D56 EQ PUSH2 0x213 JUMPI DUP1 PUSH4 0x3AD10EF6 EQ PUSH2 0x226 JUMPI JUMPDEST PUSH0 DUP1 REVERT JUMPDEST CALLVALUE DUP1 ISZERO PUSH2 0x18A JUMPI PUSH0 DUP1 REVERT JUMPDEST POP PUSH2 0x194 PUSH1 0x7 SLOAD DUP2 JUMP JUMPDEST PUSH1 0x40 MLOAD SWAP1 DUP2 MSTORE PUSH1 0x20 ADD JUMPDEST PUSH1 0x40 MLOAD DUP1 SWAP2 SUB SWAP1 RETURN JUMPDEST CALLVALUE DUP1 ISZERO PUSH2 0x1B2 JUMPI PUSH0 DUP1 REVERT JUMPDEST POP PUSH1 0x1 SLOAD PUSH2 0x194 JUMP JUMPDEST CALLVALUE DUP1 ISZERO PUSH2 0x1C6 JUMPI PUSH0 DUP1 REVERT JUMPDEST POP PUSH1 0x5 SLOAD PUSH2 0x1DA SWAP1 PUSH1 0x1 PUSH1 0x1 PUSH1 0xA0 SHL SUB AND DUP2 JUMP JUMPDEST PUSH1 0x40 MLOAD PUSH1 0x1 PUSH1 0x1 PUSH1 0xA0 SHL SUB SWAP1 SWAP2 AND DUP2 MSTORE PUSH1 0x20 ADD PUSH2 0x19E JUMP JUMPDEST CALLVALUE DUP1 ISZERO PUSH2 0x1FD JUMPI PUSH0 DUP1 REVERT JUMPDEST POP PUSH2 0x206 PUSH2 0x4C7 JUMP JUMPDEST PUSH1 0x40 MLOAD PUSH2 0x19E SWAP2 SWAP1 PUSH2 0x11AE JUMP JUMPDEST PUSH2 0x1DA PUSH2 0x221 CALLDATASIZE PUSH1 0x4 PUSH2 0x12A7 JUMP JUMPDEST PUSH2 0x53D JUMP JUMPDEST CALLVALUE DUP1 ISZERO PUSH2 0x231 JUMPI PUSH0 DUP1 REVERT JUMPDEST POP PUSH1 0x4 SLOAD PUSH2 0x1DA SWAP1 PUSH1 0x1 PUSH1 0x1 PUSH1 0xA0 SHL SUB AND DUP2 JUMP JUMPDEST CALLVALUE DUP1 ISZERO PUSH2 0x250 JUMPI PUSH0 DUP1 REVERT JUMPDEST POP PUSH2 0x264 PUSH2 0x25F CALLDATASIZE PUSH1 0x4 PUSH2 0x1327 JUMP JUMPDEST PUSH2 0xB1F JUMP JUMPDEST STOP JUMPDEST CALLVALUE DUP1 ISZERO PUSH2 0x271 JUMPI PUSH0 DUP1 REVERT JUMPDEST POP PUSH2 0x194 PUSH1 0x1E DUP2 JUMP JUMPDEST CALLVALUE DUP1 ISZERO PUSH2 0x285 JUMPI PUSH0 DUP1 REVERT JUMPDEST POP PUSH2 0x194 PUSH1 0x8 SLOAD DUP2 JUMP JUMPDEST CALLVALUE DUP1 ISZERO PUSH2 0x29A JUMPI PUSH0 DUP1 REVERT JUMPDEST POP PUSH2 0x2AE PUSH2 0x2A9 CALLDATASIZE PUSH1 0x4 PUSH2 0x134F JUMP JUMPDEST PUSH2 0xC57 JUMP JUMPDEST PUSH1 0x40 DUP1 MLOAD PUSH1 0x1 PUSH1 0x1 PUSH1 0xA0 SHL SUB SWAP4 DUP5 AND DUP2 MSTORE SWAP3 SWAP1 SWAP2 AND PUSH1 0x20 DUP4 ADD MSTORE ADD PUSH2 0x19E JUMP JUMPDEST CALLVALUE DUP1 ISZERO PUSH2 0x2D9 JUMPI PUSH0 DUP1 REVERT JUMPDEST POP PUSH2 0x264 PUSH2 0x2E8 CALLDATASIZE PUSH1 0x4 PUSH2 0x134F JUMP JUMPDEST PUSH2 0xC8E JUMP JUMPDEST CALLVALUE DUP1 ISZERO PUSH2 0x2F8 JUMPI PUSH0 DUP1 REVERT JUMPDEST POP PUSH2 0x264 PUSH2 0xD30 JUMP JUMPDEST CALLVALUE DUP1 ISZERO PUSH2 0x30C JUMPI PUSH0 DUP1 REVERT JUMPDEST POP PUSH2 0x1DA PUSH2 0x31B CALLDATASIZE PUSH1 0x4 PUSH2 0x1366 JUMP JUMPDEST DUP1 MLOAD PUSH1 0x20 DUP2 DUP4 ADD DUP2 ADD DUP1 MLOAD PUSH1 0x3 DUP3 MSTORE SWAP3 DUP3 ADD SWAP2 SWAP1 SWAP4 ADD KECCAK256 SWAP2 MSTORE SLOAD PUSH1 0x1 PUSH1 0x1 PUSH1 0xA0 SHL SUB AND DUP2 JUMP JUMPDEST CALLVALUE DUP1 ISZERO PUSH2 0x34C JUMPI PUSH0 DUP1 REVERT JUMPDEST POP PUSH2 0x264 PUSH2 0x35B CALLDATASIZE PUSH1 0x4 PUSH2 0x13A0 JUMP JUMPDEST PUSH2 0xD43 JUMP JUMPDEST CALLVALUE DUP1 ISZERO PUSH2 0x36B JUMPI PUSH0 DUP1 REVERT JUMPDEST POP PUSH2 0x264 PUSH2 0x37A CALLDATASIZE PUSH1 0x4 PUSH2 0x13C0 JUMP JUMPDEST PUSH2 0xDBC JUMP JUMPDEST CALLVALUE DUP1 ISZERO PUSH2 0x38A JUMPI PUSH0 DUP1 REVERT JUMPDEST POP PUSH0 SLOAD PUSH1 0x1 PUSH1 0x1 PUSH1 0xA0 SHL SUB AND PUSH2 0x1DA JUMP JUMPDEST CALLVALUE DUP1 ISZERO PUSH2 0x3A6 JUMPI PUSH0 DUP1 REVERT JUMPDEST POP PUSH2 0x1DA PUSH2 0x3B5 CALLDATASIZE PUSH1 0x4 PUSH2 0x13C0 JUMP JUMPDEST PUSH1 0x2 PUSH1 0x20 MSTORE PUSH0 SWAP1 DUP2 MSTORE PUSH1 0x40 SWAP1 KECCAK256 SLOAD PUSH1 0x1 PUSH1 0x1 PUSH1 0xA0 SHL SUB AND DUP2 JUMP JUMPDEST CALLVALUE DUP1 ISZERO PUSH2 0x3DA JUMPI PUSH0 DUP1 REVERT JUMPDEST POP PUSH2 0x264 PUSH2 0x3E9 CALLDATASIZE PUSH1 0x4 PUSH2 0x13ED JUMP JUMPDEST PUSH2 0xE6E JUMP JUMPDEST CALLVALUE DUP1 ISZERO PUSH2 0x3F9 JUMPI PUSH0 DUP1 REVERT JUMPDEST POP PUSH2 0x194 PUSH1 0x32 DUP2 JUMP JUMPDEST CALLVALUE DUP1 ISZERO PUSH2 0x40D JUMPI PUSH0 DUP1 REVERT JUMPDEST POP PUSH1 0x6 SLOAD PUSH2 0x1DA SWAP1 PUSH1 0x1 PUSH1 0x1 PUSH1 0xA0 SHL SUB AND DUP2 JUMP JUMPDEST CALLVALUE DUP1 ISZERO PUSH2 0x42C JUMPI PUSH0 DUP1 REVERT JUMPDEST POP PUSH2 0x194 PUSH1 0xA SLOAD DUP2 JUMP JUMPDEST CALLVALUE DUP1 ISZERO PUSH2 0x441 JUMPI PUSH0 DUP1 REVERT JUMPDEST POP PUSH2 0x264 PUSH2 0x450 CALLDATASIZE PUSH1 0x4 PUSH2 0x1327 JUMP JUMPDEST PUSH2 0xF18 JUMP JUMPDEST CALLVALUE DUP1 ISZERO PUSH2 0x460 JUMPI PUSH0 DUP1 REVERT JUMPDEST POP PUSH2 0x264 PUSH2 0x46F CALLDATASIZE PUSH1 0x4 PUSH2 0x1327 JUMP JUMPDEST PUSH2 0xFB2 JUMP JUMPDEST CALLVALUE DUP1 ISZERO PUSH2 0x47F JUMPI PUSH0 DUP1 REVERT JUMPDEST POP PUSH2 0x264 PUSH2 0x48E CALLDATASIZE PUSH1 0x4 PUSH2 0x13C0 JUMP JUMPDEST PUSH2 0x10DC JUMP JUMPDEST CALLVALUE DUP1 ISZERO PUSH2 0x49E JUMPI PUSH0 DUP1 REVERT JUMPDEST POP PUSH2 0x194 PUSH1 0x9 SLOAD DUP2 JUMP JUMPDEST CALLVALUE DUP1 ISZERO PUSH2 0x4B3 JUMPI PUSH0 DUP1 REVERT JUMPDEST POP PUSH2 0x194 PUSH12 0x6C9144C1C690D4CB4000000 DUP2 JUMP JUMPDEST PUSH1 0x60 PUSH1 0x1 DUP1 SLOAD DUP1 PUSH1 0x20 MUL PUSH1 0x20 ADD PUSH1 0x40 MLOAD SWAP1 DUP2 ADD PUSH1 0x40 MSTORE DUP1 SWAP3 SWAP2 SWAP1 DUP2 DUP2 MSTORE PUSH1 0x20 ADD PUSH0 SWAP1 JUMPDEST DUP3 DUP3 LT ISZERO PUSH2 0x534 JUMPI PUSH0 DUP5 DUP2 MSTORE PUSH1 0x20 SWAP1 DUP2 SWAP1 KECCAK256 PUSH1 0x40 DUP1 MLOAD DUP1 DUP3 ADD SWAP1 SWAP2 MSTORE PUSH1 0x2 DUP6 MUL SWAP1 SWAP2 ADD DUP1 SLOAD PUSH1 0x1 PUSH1 0x1 PUSH1 0xA0 SHL SUB SWAP1 DUP2 AND DUP4 MSTORE PUSH1 0x1 SWAP2 DUP3 ADD SLOAD AND DUP3 DUP5 ADD MSTORE SWAP1 DUP4 MSTORE SWAP1 SWAP3 ADD SWAP2 ADD PUSH2 0x4EA JUMP JUMPDEST POP POP POP POP SWAP1 POP SWAP1 JUMP JUMPDEST PUSH0 DUP1 PUSH1 0x1 PUSH1 0x1 PUSH1 0xA0 SHL SUB AND PUSH1 0x3 DUP5 PUSH1 0x40 MLOAD PUSH2 0x558 SWAP2 SWAP1 PUSH2 0x1422 JUMP JUMPDEST SWAP1 DUP2 MSTORE PUSH1 0x40 MLOAD SWAP1 DUP2 SWAP1 SUB PUSH1 0x20 ADD SWAP1 KECCAK256 SLOAD PUSH1 0x1 PUSH1 0x1 PUSH1 0xA0 SHL SUB AND EQ PUSH2 0x5CF JUMPI PUSH1 0x40 MLOAD PUSH3 0x461BCD PUSH1 0xE5 SHL DUP2 MSTORE PUSH1 0x20 PUSH1 0x4 DUP3 ADD MSTORE PUSH1 0x23 PUSH1 0x24 DUP3 ADD MSTORE PUSH32 0x546F6B656E20776974682074686973206E616D6520616C726561647920657869 PUSH1 0x44 DUP3 ADD MSTORE PUSH3 0x737473 PUSH1 0xE8 SHL PUSH1 0x64 DUP3 ADD MSTORE PUSH1 0x84 ADD JUMPDEST PUSH1 0x40 MLOAD DUP1 SWAP2 SUB SWAP1 REVERT JUMPDEST PUSH1 0x7 SLOAD CALLVALUE EQ PUSH2 0x630 JUMPI PUSH1 0x40 MLOAD PUSH3 0x461BCD PUSH1 0xE5 SHL DUP2 MSTORE PUSH1 0x20 PUSH1 0x4 DUP3 ADD MSTORE PUSH1 0x27 PUSH1 0x24 DUP3 ADD MSTORE PUSH32 0x496E636F72726563742045746865722076616C756520666F7220637265617469 PUSH1 0x44 DUP3 ADD MSTORE PUSH7 0x1BDB8818DBDCDD PUSH1 0xCA SHL PUSH1 0x64 DUP3 ADD MSTORE PUSH1 0x84 ADD PUSH2 0x5C6 JUMP JUMPDEST PUSH0 PUSH1 0x64 PUSH1 0x7 SLOAD PUSH1 0xA PUSH2 0x642 SWAP2 SWAP1 PUSH2 0x144C JUMP JUMPDEST PUSH2 0x64C SWAP2 SWAP1 PUSH2 0x1463 JUMP JUMPDEST SWAP1 POP PUSH0 DUP2 PUSH1 0x7 SLOAD PUSH2 0x65D SWAP2 SWAP1 PUSH2 0x1482 JUMP JUMPDEST PUSH1 0x4 SLOAD PUSH1 0x40 MLOAD SWAP2 SWAP3 POP PUSH0 SWAP2 PUSH1 0x1 PUSH1 0x1 PUSH1 0xA0 SHL SUB SWAP1 SWAP2 AND SWAP1 DUP5 SWAP1 DUP4 DUP2 DUP2 DUP2 DUP6 DUP8 GAS CALL SWAP3 POP POP POP RETURNDATASIZE DUP1 PUSH0 DUP2 EQ PUSH2 0x6AC JUMPI PUSH1 0x40 MLOAD SWAP2 POP PUSH1 0x1F NOT PUSH1 0x3F RETURNDATASIZE ADD AND DUP3 ADD PUSH1 0x40 MSTORE RETURNDATASIZE DUP3 MSTORE RETURNDATASIZE PUSH0 PUSH1 0x20 DUP5 ADD RETURNDATACOPY PUSH2 0x6B1 JUMP JUMPDEST PUSH1 0x60 SWAP2 POP JUMPDEST POP POP SWAP1 POP DUP1 PUSH2 0x6FB JUMPI PUSH1 0x40 MLOAD PUSH3 0x461BCD PUSH1 0xE5 SHL DUP2 MSTORE PUSH1 0x20 PUSH1 0x4 DUP3 ADD MSTORE PUSH1 0x16 PUSH1 0x24 DUP3 ADD MSTORE PUSH22 0x4661696C656420746F2073656E642064657620666565 PUSH1 0x50 SHL PUSH1 0x44 DUP3 ADD MSTORE PUSH1 0x64 ADD PUSH2 0x5C6 JUMP JUMPDEST PUSH0 PUSH1 0x40 MLOAD PUSH2 0x708 SWAP1 PUSH2 0x1194 JUMP JUMPDEST PUSH1 0x40 MLOAD DUP1 SWAP2 SUB SWAP1 PUSH0 CREATE DUP1 ISZERO DUP1 ISZERO PUSH2 0x721 JUMPI RETURNDATASIZE PUSH0 DUP1 RETURNDATACOPY RETURNDATASIZE PUSH0 REVERT JUMPDEST POP PUSH1 0x40 MLOAD PUSH4 0x266C45BB PUSH1 0xE1 SHL DUP2 MSTORE SWAP1 SWAP2 POP PUSH1 0x1 PUSH1 0x1 PUSH1 0xA0 SHL SUB DUP3 AND SWAP1 PUSH4 0x4CD88B76 SWAP1 PUSH2 0x753 SWAP1 DUP11 SWAP1 DUP11 SWAP1 PUSH1 0x4 ADD PUSH2 0x14C3 JUMP JUMPDEST PUSH0 PUSH1 0x40 MLOAD DUP1 DUP4 SUB DUP2 PUSH0 DUP8 DUP1 EXTCODESIZE ISZERO DUP1 ISZERO PUSH2 0x76A JUMPI PUSH0 DUP1 REVERT JUMPDEST POP GAS CALL ISZERO DUP1 ISZERO PUSH2 0x77C JUMPI RETURNDATASIZE PUSH0 DUP1 RETURNDATACOPY RETURNDATASIZE PUSH0 REVERT JUMPDEST POP POP POP POP PUSH0 PUSH2 0x3E8 PUSH1 0x1E PUSH12 0x6C9144C1C690D4CB4000000 PUSH2 0x79D SWAP2 SWAP1 PUSH2 0x144C JUMP JUMPDEST PUSH2 0x7A7 SWAP2 SWAP1 PUSH2 0x1463 JUMP JUMPDEST SWAP1 POP PUSH0 PUSH2 0x7C0 DUP3 PUSH12 0x6C9144C1C690D4CB4000000 PUSH2 0x1482 JUMP JUMPDEST PUSH1 0x5 SLOAD PUSH1 0x40 MLOAD PUSH4 0x40C10F19 PUSH1 0xE0 SHL DUP2 MSTORE PUSH1 0x1 PUSH1 0x1 PUSH1 0xA0 SHL SUB SWAP2 DUP3 AND PUSH1 0x4 DUP3 ADD MSTORE PUSH1 0x24 DUP2 ADD DUP6 SWAP1 MSTORE SWAP2 SWAP3 POP DUP5 AND SWAP1 PUSH4 0x40C10F19 SWAP1 PUSH1 0x44 ADD PUSH0 PUSH1 0x40 MLOAD DUP1 DUP4 SUB DUP2 PUSH0 DUP8 DUP1 EXTCODESIZE ISZERO DUP1 ISZERO PUSH2 0x80D JUMPI PUSH0 DUP1 REVERT JUMPDEST POP GAS CALL ISZERO DUP1 ISZERO PUSH2 0x81F JUMPI RETURNDATASIZE PUSH0 DUP1 RETURNDATACOPY RETURNDATASIZE PUSH0 REVERT JUMPDEST POP POP PUSH1 0x40 MLOAD PUSH4 0x40C10F19 PUSH1 0xE0 SHL DUP2 MSTORE ADDRESS PUSH1 0x4 DUP3 ADD MSTORE PUSH1 0x24 DUP2 ADD DUP5 SWAP1 MSTORE PUSH1 0x1 PUSH1 0x1 PUSH1 0xA0 SHL SUB DUP7 AND SWAP3 POP PUSH4 0x40C10F19 SWAP2 POP PUSH1 0x44 ADD PUSH0 PUSH1 0x40 MLOAD DUP1 DUP4 SUB DUP2 PUSH0 DUP8 DUP1 EXTCODESIZE ISZERO DUP1 ISZERO PUSH2 0x868 JUMPI PUSH0 DUP1 REVERT JUMPDEST POP GAS CALL ISZERO DUP1 ISZERO PUSH2 0x87A JUMPI RETURNDATASIZE PUSH0 DUP1 RETURNDATACOPY RETURNDATASIZE PUSH0 REVERT JUMPDEST POP POP PUSH1 0x4 SLOAD PUSH1 0xA SLOAD PUSH1 0x40 MLOAD PUSH0 SWAP5 POP PUSH1 0x1 PUSH1 0x1 PUSH1 0xA0 SHL SUB SWAP1 SWAP3 AND SWAP3 POP ADDRESS SWAP2 PUSH2 0x8A0 SWAP1 PUSH2 0x11A1 JUMP JUMPDEST PUSH1 0x1 PUSH1 0x1 PUSH1 0xA0 SHL SUB SWAP4 DUP5 AND DUP2 MSTORE SWAP3 SWAP1 SWAP2 AND PUSH1 0x20 DUP4 ADD MSTORE PUSH1 0x40 DUP3 ADD MSTORE PUSH1 0x60 ADD PUSH1 0x40 MLOAD DUP1 SWAP2 SUB SWAP1 PUSH0 CREATE DUP1 ISZERO DUP1 ISZERO PUSH2 0x8D7 JUMPI RETURNDATASIZE PUSH0 DUP1 RETURNDATACOPY RETURNDATASIZE PUSH0 REVERT JUMPDEST POP PUSH1 0x40 MLOAD PUSH4 0xA9059CBB PUSH1 0xE0 SHL DUP2 MSTORE PUSH1 0x1 PUSH1 0x1 PUSH1 0xA0 SHL SUB DUP1 DUP4 AND PUSH1 0x4 DUP4 ADD MSTORE PUSH1 0x24 DUP3 ADD DUP6 SWAP1 MSTORE SWAP2 SWAP3 POP DUP3 SWAP2 DUP7 AND SWAP1 PUSH4 0xA9059CBB SWAP1 PUSH1 0x44 ADD PUSH1 0x20 PUSH1 0x40 MLOAD DUP1 DUP4 SUB DUP2 PUSH0 DUP8 GAS CALL ISZERO DUP1 ISZERO PUSH2 0x929 JUMPI RETURNDATASIZE PUSH0 DUP1 RETURNDATACOPY RETURNDATASIZE PUSH0 REVERT JUMPDEST POP POP POP POP PUSH1 0x40 MLOAD RETURNDATASIZE PUSH1 0x1F NOT PUSH1 0x1F DUP3 ADD AND DUP3 ADD DUP1 PUSH1 0x40 MSTORE POP DUP2 ADD SWAP1 PUSH2 0x94D SWAP2 SWAP1 PUSH2 0x14F0 JUMP JUMPDEST POP PUSH1 0x8 SLOAD PUSH1 0x9 SLOAD PUSH1 0x40 MLOAD PUSH4 0x4EC81AF1 PUSH1 0xE0 SHL DUP2 MSTORE PUSH1 0x1 PUSH1 0x1 PUSH1 0xA0 SHL SUB DUP9 DUP2 AND PUSH1 0x4 DUP4 ADD MSTORE PUSH1 0x24 DUP3 ADD DUP8 SWAP1 MSTORE PUSH1 0x44 DUP3 ADD SWAP4 SWAP1 SWAP4 MSTORE PUSH1 0x64 DUP2 ADD SWAP2 SWAP1 SWAP2 MSTORE SWAP1 DUP4 AND SWAP1 PUSH4 0x4EC81AF1 SWAP1 DUP10 SWAP1 PUSH1 0x84 ADD PUSH0 PUSH1 0x40 MLOAD DUP1 DUP4 SUB DUP2 DUP6 DUP9 DUP1 EXTCODESIZE ISZERO DUP1 ISZERO PUSH2 0x9AE JUMPI PUSH0 DUP1 REVERT JUMPDEST POP GAS CALL ISZERO DUP1 ISZERO PUSH2 0x9C0 JUMPI RETURNDATASIZE PUSH0 DUP1 RETURNDATACOPY RETURNDATASIZE PUSH0 REVERT JUMPDEST POP POP PUSH1 0x40 DUP1 MLOAD DUP1 DUP3 ADD DUP3 MSTORE PUSH1 0x1 PUSH1 0x1 PUSH1 0xA0 SHL SUB DUP1 DUP12 AND DUP1 DUP4 MSTORE DUP8 DUP3 AND PUSH1 0x20 DUP1 DUP6 ADD DUP3 DUP2 MSTORE PUSH1 0x1 DUP1 SLOAD DUP1 DUP3 ADD DUP3 SSTORE PUSH0 SWAP2 DUP3 MSTORE SWAP7 MLOAD PUSH1 0x2 SWAP8 DUP9 MUL PUSH32 0xB10E2D527612073B26EECDFD717E6A320CF44B4AFAC2B0732D9FCBE2B7FA0CF6 DUP2 ADD DUP1 SLOAD SWAP3 DUP10 AND PUSH1 0x1 PUSH1 0x1 PUSH1 0xA0 SHL SUB NOT SWAP4 DUP5 AND OR SWAP1 SSTORE SWAP3 MLOAD PUSH32 0xB10E2D527612073B26EECDFD717E6A320CF44B4AFAC2B0732D9FCBE2B7FA0CF7 SWAP1 SWAP4 ADD DUP1 SLOAD SWAP4 SWAP1 SWAP8 AND SWAP3 DUP2 AND SWAP3 SWAP1 SWAP3 OR SWAP1 SWAP6 SSTORE SWAP3 DUP5 MSTORE SWAP4 SWAP1 SWAP4 MSTORE SWAP1 DUP4 SWAP1 KECCAK256 DUP1 SLOAD SWAP1 SWAP2 AND SWAP1 SWAP2 OR SWAP1 SSTORE MLOAD DUP9 SWAP4 POP DUP4 SWAP3 POP PUSH1 0x3 SWAP2 POP PUSH2 0xA90 SWAP1 DUP16 SWAP1 PUSH2 0x1422 JUMP JUMPDEST SWAP1 DUP2 MSTORE PUSH1 0x20 ADD PUSH1 0x40 MLOAD DUP1 SWAP2 SUB SWAP1 KECCAK256 PUSH0 PUSH2 0x100 EXP DUP2 SLOAD DUP2 PUSH1 0x1 PUSH1 0x1 PUSH1 0xA0 SHL SUB MUL NOT AND SWAP1 DUP4 PUSH1 0x1 PUSH1 0x1 PUSH1 0xA0 SHL SUB AND MUL OR SWAP1 SSTORE POP DUP2 PUSH1 0x1 PUSH1 0x1 PUSH1 0xA0 SHL SUB AND DUP2 PUSH1 0x1 PUSH1 0x1 PUSH1 0xA0 SHL SUB AND PUSH32 0x6596C1670EB3390048D23721809C3DA5D3F531375AC0E2CAB0F77A808ED64331 DUP15 DUP15 PUSH1 0x40 MLOAD PUSH2 0xB06 SWAP3 SWAP2 SWAP1 PUSH2 0x14C3 JUMP JUMPDEST PUSH1 0x40 MLOAD DUP1 SWAP2 SUB SWAP1 LOG3 SWAP9 POP POP POP POP POP POP POP POP POP JUMPDEST SWAP3 SWAP2 POP POP JUMP JUMPDEST PUSH2 0xB27 PUSH2 0x1119 JUMP JUMPDEST PUSH0 DUP3 SWAP1 POP PUSH0 DUP2 PUSH1 0x1 PUSH1 0x1 PUSH1 0xA0 SHL SUB AND PUSH4 0x4F7041A5 PUSH1 0x40 MLOAD DUP2 PUSH4 0xFFFFFFFF AND PUSH1 0xE0 SHL DUP2 MSTORE PUSH1 0x4 ADD PUSH1 0x20 PUSH1 0x40 MLOAD DUP1 DUP4 SUB DUP2 DUP7 GAS STATICCALL ISZERO DUP1 ISZERO PUSH2 0xB68 JUMPI RETURNDATASIZE PUSH0 DUP1 RETURNDATACOPY RETURNDATASIZE PUSH0 REVERT JUMPDEST POP POP POP POP PUSH1 0x40 MLOAD RETURNDATASIZE PUSH1 0x1F NOT PUSH1 0x1F DUP3 ADD AND DUP3 ADD DUP1 PUSH1 0x40 MSTORE POP DUP2 ADD SWAP1 PUSH2 0xB8C SWAP2 SWAP1 PUSH2 0x150B JUMP JUMPDEST PUSH2 0xB96 SWAP1 DUP5 PUSH2 0x1522 JUMP JUMPDEST SWAP1 POP PUSH1 0x32 DUP2 GT ISZERO PUSH2 0xBB9 JUMPI PUSH1 0x40 MLOAD PUSH3 0x461BCD PUSH1 0xE5 SHL DUP2 MSTORE PUSH1 0x4 ADD PUSH2 0x5C6 SWAP1 PUSH2 0x1535 JUMP JUMPDEST PUSH1 0x40 MLOAD PUSH4 0x12185A39 PUSH1 0xE0 SHL DUP2 MSTORE PUSH1 0x4 DUP2 ADD DUP5 SWAP1 MSTORE PUSH1 0x1 PUSH1 0x1 PUSH1 0xA0 SHL SUB DUP4 AND SWAP1 PUSH4 0x12185A39 SWAP1 PUSH1 0x24 ADD PUSH0 PUSH1 0x40 MLOAD DUP1 DUP4 SUB DUP2 PUSH0 DUP8 DUP1 EXTCODESIZE ISZERO DUP1 ISZERO PUSH2 0xBF8 JUMPI PUSH0 DUP1 REVERT JUMPDEST POP GAS CALL ISZERO DUP1 ISZERO PUSH2 0xC0A JUMPI RETURNDATASIZE PUSH0 DUP1 RETURNDATACOPY RETURNDATASIZE PUSH0 REVERT JUMPDEST POP POP POP POP DUP4 PUSH1 0x1 PUSH1 0x1 PUSH1 0xA0 SHL SUB AND PUSH32 0x886A4DFB4672E86E61E0AB2C4E42BB92D9D3E5989B5612EB53A8AE6729D854C DUP5 PUSH1 0x40 MLOAD PUSH2 0xC49 SWAP2 DUP2 MSTORE PUSH1 0x20 ADD SWAP1 JUMP JUMPDEST PUSH1 0x40 MLOAD DUP1 SWAP2 SUB SWAP1 LOG2 POP POP POP POP JUMP JUMPDEST PUSH1 0x1 DUP2 DUP2 SLOAD DUP2 LT PUSH2 0xC66 JUMPI PUSH0 DUP1 REVERT JUMPDEST PUSH0 SWAP2 DUP3 MSTORE PUSH1 0x20 SWAP1 SWAP2 KECCAK256 PUSH1 0x2 SWAP1 SWAP2 MUL ADD DUP1 SLOAD PUSH1 0x1 SWAP1 SWAP2 ADD SLOAD PUSH1 0x1 PUSH1 0x1 PUSH1 0xA0 SHL SUB SWAP2 DUP3 AND SWAP3 POP AND DUP3 JUMP JUMPDEST PUSH2 0xC96 PUSH2 0x1119 JUMP JUMPDEST PUSH0 DUP2 GT PUSH2 0xCF5 JUMPI PUSH1 0x40 MLOAD PUSH3 0x461BCD PUSH1 0xE5 SHL DUP2 MSTORE PUSH1 0x20 PUSH1 0x4 DUP3 ADD MSTORE PUSH1 0x27 PUSH1 0x24 DUP3 ADD MSTORE PUSH32 0x4372656174696F6E20636F7374206D7573742062652067726561746572207468 PUSH1 0x44 DUP3 ADD MSTORE PUSH7 0x616E207A65726F PUSH1 0xC8 SHL PUSH1 0x64 DUP3 ADD MSTORE PUSH1 0x84 ADD PUSH2 0x5C6 JUMP JUMPDEST PUSH1 0x7 DUP2 SWAP1 SSTORE PUSH1 0x40 MLOAD DUP2 DUP2 MSTORE PUSH32 0x8C76F98CB6C586B4D243AEA813535B5F077900FC55B5DB21ACB57022BED3EFEF SWAP1 PUSH1 0x20 ADD PUSH1 0x40 MLOAD DUP1 SWAP2 SUB SWAP1 LOG1 POP JUMP JUMPDEST PUSH2 0xD38 PUSH2 0x1119 JUMP JUMPDEST PUSH2 0xD41 PUSH0 PUSH2 0x1145 JUMP JUMPDEST JUMP JUMPDEST PUSH2 0xD4B PUSH2 0x1119 JUMP JUMPDEST PUSH1 0x32 PUSH2 0xD57 DUP3 DUP5 PUSH2 0x1522 JUMP JUMPDEST GT ISZERO PUSH2 0xD75 JUMPI PUSH1 0x40 MLOAD PUSH3 0x461BCD PUSH1 0xE5 SHL DUP2 MSTORE PUSH1 0x4 ADD PUSH2 0x5C6 SWAP1 PUSH2 0x1535 JUMP JUMPDEST PUSH1 0x8 DUP3 SWAP1 SSTORE PUSH1 0x9 DUP2 SWAP1 SSTORE PUSH1 0x40 DUP1 MLOAD DUP4 DUP2 MSTORE PUSH1 0x20 DUP2 ADD DUP4 SWAP1 MSTORE PUSH32 0x16086F0BBEE58F1C4315FDE47F14672114C6FD39A61335A705278E88D8B8133 SWAP2 ADD PUSH1 0x40 MLOAD DUP1 SWAP2 SUB SWAP1 LOG1 POP POP JUMP JUMPDEST PUSH2 0xDC4 PUSH2 0x1119 JUMP JUMPDEST PUSH1 0x1 PUSH1 0x1 PUSH1 0xA0 SHL SUB DUP2 AND PUSH2 0xE25 JUMPI PUSH1 0x40 MLOAD PUSH3 0x461BCD PUSH1 0xE5 SHL DUP2 MSTORE PUSH1 0x20 PUSH1 0x4 DUP3 ADD MSTORE PUSH1 0x22 PUSH1 0x24 DUP3 ADD MSTORE PUSH32 0x496E697469616C697A65722063616E6E6F74206265207A65726F206164647265 PUSH1 0x44 DUP3 ADD MSTORE PUSH2 0x7373 PUSH1 0xF0 SHL PUSH1 0x64 DUP3 ADD MSTORE PUSH1 0x84 ADD PUSH2 0x5C6 JUMP JUMPDEST PUSH1 0x6 DUP1 SLOAD PUSH1 0x1 PUSH1 0x1 PUSH1 0xA0 SHL SUB NOT AND PUSH1 0x1 PUSH1 0x1 PUSH1 0xA0 SHL SUB DUP4 AND SWAP1 DUP2 OR SWAP1 SWAP2 SSTORE PUSH1 0x40 MLOAD PUSH32 0x79C27EB818C0FC85C665E8E7658EA34E4D708EA821DC5FA04F99BF0C6D9A9CCD SWAP1 PUSH0 SWAP1 LOG2 POP JUMP JUMPDEST PUSH2 0xE76 PUSH2 0x1119 JUMP JUMPDEST PUSH1 0x40 MLOAD PUSH4 0x19314155 PUSH1 0xE3 SHL DUP2 MSTORE DUP2 ISZERO ISZERO PUSH1 0x4 DUP3 ADD MSTORE DUP3 SWAP1 PUSH1 0x1 PUSH1 0x1 PUSH1 0xA0 SHL SUB DUP3 AND SWAP1 PUSH4 0xC98A0AA8 SWAP1 PUSH1 0x24 ADD PUSH0 PUSH1 0x40 MLOAD DUP1 DUP4 SUB DUP2 PUSH0 DUP8 DUP1 EXTCODESIZE ISZERO DUP1 ISZERO PUSH2 0xEB8 JUMPI PUSH0 DUP1 REVERT JUMPDEST POP GAS CALL ISZERO DUP1 ISZERO PUSH2 0xECA JUMPI RETURNDATASIZE PUSH0 DUP1 RETURNDATACOPY RETURNDATASIZE PUSH0 REVERT JUMPDEST POP POP POP POP DUP3 PUSH1 0x1 PUSH1 0x1 PUSH1 0xA0 SHL SUB AND PUSH32 0xEA8E8364DA5EDDF3FB7AE03B3BBF8F7EEC1C692CCF20B222031DCB690C844D26 DUP4 PUSH1 0x40 MLOAD PUSH2 0xF0B SWAP2 ISZERO ISZERO DUP2 MSTORE PUSH1 0x20 ADD SWAP1 JUMP JUMPDEST PUSH1 0x40 MLOAD DUP1 SWAP2 SUB SWAP1 LOG2 POP POP POP JUMP JUMPDEST PUSH2 0xF20 PUSH2 0x1119 JUMP JUMPDEST PUSH1 0x40 MLOAD PUSH4 0x96343FD5 PUSH1 0xE0 SHL DUP2 MSTORE PUSH1 0x4 DUP2 ADD DUP3 SWAP1 MSTORE DUP3 SWAP1 PUSH1 0x1 PUSH1 0x1 PUSH1 0xA0 SHL SUB DUP3 AND SWAP1 PUSH4 0x96343FD5 SWAP1 PUSH1 0x24 ADD PUSH0 PUSH1 0x40 MLOAD DUP1 DUP4 SUB DUP2 PUSH0 DUP8 DUP1 EXTCODESIZE ISZERO DUP1 ISZERO PUSH2 0xF61 JUMPI PUSH0 DUP1 REVERT JUMPDEST POP GAS CALL ISZERO DUP1 ISZERO PUSH2 0xF73 JUMPI RETURNDATASIZE PUSH0 DUP1 RETURNDATACOPY RETURNDATASIZE PUSH0 REVERT JUMPDEST POP POP POP POP DUP3 PUSH1 0x1 PUSH1 0x1 PUSH1 0xA0 SHL SUB AND PUSH32 0xF8E69FDB22CED36BBFD9888BE1B10FFD4A153283BCE3728EB4A5893C2B583482 DUP4 PUSH1 0x40 MLOAD PUSH2 0xF0B SWAP2 DUP2 MSTORE PUSH1 0x20 ADD SWAP1 JUMP JUMPDEST PUSH2 0xFBA PUSH2 0x1119 JUMP JUMPDEST PUSH0 DUP3 SWAP1 POP PUSH0 DUP2 PUSH1 0x1 PUSH1 0x1 PUSH1 0xA0 SHL SUB AND PUSH4 0xCC1776D3 PUSH1 0x40 MLOAD DUP2 PUSH4 0xFFFFFFFF AND PUSH1 0xE0 SHL DUP2 MSTORE PUSH1 0x4 ADD PUSH1 0x20 PUSH1 0x40 MLOAD DUP1 DUP4 SUB DUP2 DUP7 GAS STATICCALL ISZERO DUP1 ISZERO PUSH2 0xFFB JUMPI RETURNDATASIZE PUSH0 DUP1 RETURNDATACOPY RETURNDATASIZE PUSH0 REVERT JUMPDEST POP POP POP POP PUSH1 0x40 MLOAD RETURNDATASIZE PUSH1 0x1F NOT PUSH1 0x1F DUP3 ADD AND DUP3 ADD DUP1 PUSH1 0x40 MSTORE POP DUP2 ADD SWAP1 PUSH2 0x101F SWAP2 SWAP1 PUSH2 0x150B JUMP JUMPDEST PUSH2 0x1029 SWAP1 DUP5 PUSH2 0x1522 JUMP JUMPDEST SWAP1 POP PUSH1 0x32 DUP2 GT ISZERO PUSH2 0x104C JUMPI PUSH1 0x40 MLOAD PUSH3 0x461BCD PUSH1 0xE5 SHL DUP2 MSTORE PUSH1 0x4 ADD PUSH2 0x5C6 SWAP1 PUSH2 0x1535 JUMP JUMPDEST PUSH1 0x40 MLOAD PUSH4 0x10DB4CD PUSH1 0xE6 SHL DUP2 MSTORE PUSH1 0x4 DUP2 ADD DUP5 SWAP1 MSTORE PUSH1 0x1 PUSH1 0x1 PUSH1 0xA0 SHL SUB DUP4 AND SWAP1 PUSH4 0x436D3340 SWAP1 PUSH1 0x24 ADD PUSH0 PUSH1 0x40 MLOAD DUP1 DUP4 SUB DUP2 PUSH0 DUP8 DUP1 EXTCODESIZE ISZERO DUP1 ISZERO PUSH2 0x108B JUMPI PUSH0 DUP1 REVERT JUMPDEST POP GAS CALL ISZERO DUP1 ISZERO PUSH2 0x109D JUMPI RETURNDATASIZE PUSH0 DUP1 RETURNDATACOPY RETURNDATASIZE PUSH0 REVERT JUMPDEST POP POP POP POP DUP4 PUSH1 0x1 PUSH1 0x1 PUSH1 0xA0 SHL SUB AND PUSH32 0x2FF83D7EA34209FE833B25AA0DE5D72DBA463A9551DD87A8574A25F9B42ED074 DUP5 PUSH1 0x40 MLOAD PUSH2 0xC49 SWAP2 DUP2 MSTORE PUSH1 0x20 ADD SWAP1 JUMP JUMPDEST PUSH2 0x10E4 PUSH2 0x1119 JUMP JUMPDEST PUSH1 0x1 PUSH1 0x1 PUSH1 0xA0 SHL SUB DUP2 AND PUSH2 0x110D JUMPI PUSH1 0x40 MLOAD PUSH4 0x1E4FBDF7 PUSH1 0xE0 SHL DUP2 MSTORE PUSH0 PUSH1 0x4 DUP3 ADD MSTORE PUSH1 0x24 ADD PUSH2 0x5C6 JUMP JUMPDEST PUSH2 0x1116 DUP2 PUSH2 0x1145 JUMP JUMPDEST POP JUMP JUMPDEST PUSH0 SLOAD PUSH1 0x1 PUSH1 0x1 PUSH1 0xA0 SHL SUB AND CALLER EQ PUSH2 0xD41 JUMPI PUSH1 0x40 MLOAD PUSH4 0x118CDAA7 PUSH1 0xE0 SHL DUP2 MSTORE CALLER PUSH1 0x4 DUP3 ADD MSTORE PUSH1 0x24 ADD PUSH2 0x5C6 JUMP JUMPDEST PUSH0 DUP1 SLOAD PUSH1 0x1 PUSH1 0x1 PUSH1 0xA0 SHL SUB DUP4 DUP2 AND PUSH1 0x1 PUSH1 0x1 PUSH1 0xA0 SHL SUB NOT DUP4 AND DUP2 OR DUP5 SSTORE PUSH1 0x40 MLOAD SWAP2 SWAP1 SWAP3 AND SWAP3 DUP4 SWAP2 PUSH32 0x8BE0079C531659141344CD1FD0A4F28419497F9722A3DAAFE3B4186F6B6457E0 SWAP2 SWAP1 LOG3 POP POP JUMP JUMPDEST PUSH2 0xE75 DUP1 PUSH2 0x156D DUP4 CODECOPY ADD SWAP1 JUMP JUMPDEST PUSH2 0x14FB DUP1 PUSH2 0x23E2 DUP4 CODECOPY ADD SWAP1 JUMP JUMPDEST PUSH1 0x20 DUP1 DUP3 MSTORE DUP3 MLOAD DUP3 DUP3 ADD DUP2 SWAP1 MSTORE PUSH0 SWAP2 DUP5 ADD SWAP1 PUSH1 0x40 DUP5 ADD SWAP1 DUP4 JUMPDEST DUP2 DUP2 LT ISZERO PUSH2 0x11FD JUMPI DUP4 MLOAD DUP1 MLOAD PUSH1 0x1 PUSH1 0x1 PUSH1 0xA0 SHL SUB SWAP1 DUP2 AND DUP6 MSTORE PUSH1 0x20 SWAP2 DUP3 ADD MLOAD AND DUP2 DUP6 ADD MSTORE SWAP1 SWAP4 ADD SWAP3 PUSH1 0x40 SWAP1 SWAP3 ADD SWAP2 PUSH1 0x1 ADD PUSH2 0x11C7 JUMP JUMPDEST POP SWAP1 SWAP6 SWAP5 POP POP POP POP POP JUMP JUMPDEST PUSH4 0x4E487B71 PUSH1 0xE0 SHL PUSH0 MSTORE PUSH1 0x41 PUSH1 0x4 MSTORE PUSH1 0x24 PUSH0 REVERT JUMPDEST PUSH0 DUP3 PUSH1 0x1F DUP4 ADD SLT PUSH2 0x122B JUMPI PUSH0 DUP1 REVERT JUMPDEST DUP2 CALLDATALOAD PUSH8 0xFFFFFFFFFFFFFFFF DUP2 GT ISZERO PUSH2 0x1245 JUMPI PUSH2 0x1245 PUSH2 0x1208 JUMP JUMPDEST PUSH1 0x40 MLOAD PUSH1 0x1F DUP3 ADD PUSH1 0x1F NOT SWAP1 DUP2 AND PUSH1 0x3F ADD AND DUP2 ADD PUSH8 0xFFFFFFFFFFFFFFFF DUP2 GT DUP3 DUP3 LT OR ISZERO PUSH2 0x1274 JUMPI PUSH2 0x1274 PUSH2 0x1208 JUMP JUMPDEST PUSH1 0x40 MSTORE DUP2 DUP2 MSTORE DUP4 DUP3 ADD PUSH1 0x20 ADD DUP6 LT ISZERO PUSH2 0x128B JUMPI PUSH0 DUP1 REVERT JUMPDEST DUP2 PUSH1 0x20 DUP6 ADD PUSH1 0x20 DUP4 ADD CALLDATACOPY PUSH0 SWAP2 DUP2 ADD PUSH1 0x20 ADD SWAP2 SWAP1 SWAP2 MSTORE SWAP4 SWAP3 POP POP POP JUMP JUMPDEST PUSH0 DUP1 PUSH1 0x40 DUP4 DUP6 SUB SLT ISZERO PUSH2 0x12B8 JUMPI PUSH0 DUP1 REVERT JUMPDEST DUP3 CALLDATALOAD PUSH8 0xFFFFFFFFFFFFFFFF DUP2 GT ISZERO PUSH2 0x12CE JUMPI PUSH0 DUP1 REVERT JUMPDEST PUSH2 0x12DA DUP6 DUP3 DUP7 ADD PUSH2 0x121C JUMP JUMPDEST SWAP3 POP POP PUSH1 0x20 DUP4 ADD CALLDATALOAD PUSH8 0xFFFFFFFFFFFFFFFF DUP2 GT ISZERO PUSH2 0x12F6 JUMPI PUSH0 DUP1 REVERT JUMPDEST PUSH2 0x1302 DUP6 DUP3 DUP7 ADD PUSH2 0x121C JUMP JUMPDEST SWAP2 POP POP SWAP3 POP SWAP3 SWAP1 POP JUMP JUMPDEST DUP1 CALLDATALOAD PUSH1 0x1 PUSH1 0x1 PUSH1 0xA0 SHL SUB DUP2 AND DUP2 EQ PUSH2 0x1322 JUMPI PUSH0 DUP1 REVERT JUMPDEST SWAP2 SWAP1 POP JUMP JUMPDEST PUSH0 DUP1 PUSH1 0x40 DUP4 DUP6 SUB SLT ISZERO PUSH2 0x1338 JUMPI PUSH0 DUP1 REVERT JUMPDEST PUSH2 0x1341 DUP4 PUSH2 0x130C JUMP JUMPDEST SWAP5 PUSH1 0x20 SWAP4 SWAP1 SWAP4 ADD CALLDATALOAD SWAP4 POP POP POP JUMP JUMPDEST PUSH0 PUSH1 0x20 DUP3 DUP5 SUB SLT ISZERO PUSH2 0x135F JUMPI PUSH0 DUP1 REVERT JUMPDEST POP CALLDATALOAD SWAP2 SWAP1 POP JUMP JUMPDEST PUSH0 PUSH1 0x20 DUP3 DUP5 SUB SLT ISZERO PUSH2 0x1376 JUMPI PUSH0 DUP1 REVERT JUMPDEST DUP2 CALLDATALOAD PUSH8 0xFFFFFFFFFFFFFFFF DUP2 GT ISZERO PUSH2 0x138C JUMPI PUSH0 DUP1 REVERT JUMPDEST PUSH2 0x1398 DUP5 DUP3 DUP6 ADD PUSH2 0x121C JUMP JUMPDEST SWAP5 SWAP4 POP POP POP POP JUMP JUMPDEST PUSH0 DUP1 PUSH1 0x40 DUP4 DUP6 SUB SLT ISZERO PUSH2 0x13B1 JUMPI PUSH0 DUP1 REVERT JUMPDEST POP POP DUP1 CALLDATALOAD SWAP3 PUSH1 0x20 SWAP1 SWAP2 ADD CALLDATALOAD SWAP2 POP JUMP JUMPDEST PUSH0 PUSH1 0x20 DUP3 DUP5 SUB SLT ISZERO PUSH2 0x13D0 JUMPI PUSH0 DUP1 REVERT JUMPDEST PUSH2 0x13D9 DUP3 PUSH2 0x130C JUMP JUMPDEST SWAP4 SWAP3 POP POP POP JUMP JUMPDEST DUP1 ISZERO ISZERO DUP2 EQ PUSH2 0x1116 JUMPI PUSH0 DUP1 REVERT JUMPDEST PUSH0 DUP1 PUSH1 0x40 DUP4 DUP6 SUB SLT ISZERO PUSH2 0x13FE JUMPI PUSH0 DUP1 REVERT JUMPDEST PUSH2 0x1407 DUP4 PUSH2 0x130C JUMP JUMPDEST SWAP2 POP PUSH1 0x20 DUP4 ADD CALLDATALOAD PUSH2 0x1417 DUP2 PUSH2 0x13E0 JUMP JUMPDEST DUP1 SWAP2 POP POP SWAP3 POP SWAP3 SWAP1 POP JUMP JUMPDEST PUSH0 DUP3 MLOAD DUP1 PUSH1 0x20 DUP6 ADD DUP5 MCOPY PUSH0 SWAP3 ADD SWAP2 DUP3 MSTORE POP SWAP2 SWAP1 POP JUMP JUMPDEST PUSH4 0x4E487B71 PUSH1 0xE0 SHL PUSH0 MSTORE PUSH1 0x11 PUSH1 0x4 MSTORE PUSH1 0x24 PUSH0 REVERT JUMPDEST DUP1 DUP3 MUL DUP2 ISZERO DUP3 DUP3 DIV DUP5 EQ OR PUSH2 0xB19 JUMPI PUSH2 0xB19 PUSH2 0x1438 JUMP JUMPDEST PUSH0 DUP3 PUSH2 0x147D JUMPI PUSH4 0x4E487B71 PUSH1 0xE0 SHL PUSH0 MSTORE PUSH1 0x12 PUSH1 0x4 MSTORE PUSH1 0x24 PUSH0 REVERT JUMPDEST POP DIV SWAP1 JUMP JUMPDEST DUP2 DUP2 SUB DUP2 DUP2 GT ISZERO PUSH2 0xB19 JUMPI PUSH2 0xB19 PUSH2 0x1438 JUMP JUMPDEST PUSH0 DUP2 MLOAD DUP1 DUP5 MSTORE DUP1 PUSH1 0x20 DUP5 ADD PUSH1 0x20 DUP7 ADD MCOPY PUSH0 PUSH1 0x20 DUP3 DUP7 ADD ADD MSTORE PUSH1 0x20 PUSH1 0x1F NOT PUSH1 0x1F DUP4 ADD AND DUP6 ADD ADD SWAP2 POP POP SWAP3 SWAP2 POP POP JUMP JUMPDEST PUSH1 0x40 DUP2 MSTORE PUSH0 PUSH2 0x14D5 PUSH1 0x40 DUP4 ADD DUP6 PUSH2 0x1495 JUMP JUMPDEST DUP3 DUP2 SUB PUSH1 0x20 DUP5 ADD MSTORE PUSH2 0x14E7 DUP2 DUP6 PUSH2 0x1495 JUMP JUMPDEST SWAP6 SWAP5 POP POP POP POP POP JUMP JUMPDEST PUSH0 PUSH1 0x20 DUP3 DUP5 SUB SLT ISZERO PUSH2 0x1500 JUMPI PUSH0 DUP1 REVERT JUMPDEST DUP2 MLOAD PUSH2 0x13D9 DUP2 PUSH2 0x13E0 JUMP JUMPDEST PUSH0 PUSH1 0x20 DUP3 DUP5 SUB SLT ISZERO PUSH2 0x151B JUMPI PUSH0 DUP1 REVERT JUMPDEST POP MLOAD SWAP2 SWAP1 POP JUMP JUMPDEST DUP1 DUP3 ADD DUP1 DUP3 GT ISZERO PUSH2 0xB19 JUMPI PUSH2 0xB19 PUSH2 0x1438 JUMP JUMPDEST PUSH1 0x20 DUP1 DUP3 MSTORE PUSH1 0x1A SWAP1 DUP3 ADD MSTORE PUSH32 0x546F74616C207461782063616E6E6F7420657863656564203525000000000000 PUSH1 0x40 DUP3 ADD MSTORE PUSH1 0x60 ADD SWAP1 JUMP INVALID PUSH1 0x80 PUSH1 0x40 MSTORE CALLVALUE DUP1 ISZERO PUSH2 0xF JUMPI PUSH0 DUP1 REVERT JUMPDEST POP PUSH1 0x40 DUP1 MLOAD PUSH1 0x20 DUP1 DUP3 ADD DUP4 MSTORE PUSH0 DUP1 DUP4 MSTORE DUP4 MLOAD SWAP2 DUP3 ADD SWAP1 SWAP4 MSTORE SWAP2 DUP3 MSTORE CALLER SWAP2 PUSH1 0x3 PUSH2 0x38 DUP4 DUP3 PUSH2 0x16D JUMP JUMPDEST POP PUSH1 0x4 PUSH2 0x45 DUP3 DUP3 PUSH2 0x16D JUMP JUMPDEST POP POP POP PUSH1 0x1 PUSH1 0x1 PUSH1 0xA0 SHL SUB DUP2 AND PUSH2 0x75 JUMPI PUSH1 0x40 MLOAD PUSH4 0x1E4FBDF7 PUSH1 0xE0 SHL DUP2 MSTORE PUSH0 PUSH1 0x4 DUP3 ADD MSTORE PUSH1 0x24 ADD PUSH1 0x40 MLOAD DUP1 SWAP2 SUB SWAP1 REVERT JUMPDEST PUSH2 0x7E DUP2 PUSH2 0x84 JUMP JUMPDEST POP PUSH2 0x227 JUMP JUMPDEST PUSH1 0x5 DUP1 SLOAD PUSH1 0x1 PUSH1 0x1 PUSH1 0xA0 SHL SUB DUP4 DUP2 AND PUSH1 0x1 PUSH1 0x1 PUSH1 0xA0 SHL SUB NOT DUP4 AND DUP2 OR SWAP1 SWAP4 SSTORE PUSH1 0x40 MLOAD SWAP2 AND SWAP2 SWAP1 DUP3 SWAP1 PUSH32 0x8BE0079C531659141344CD1FD0A4F28419497F9722A3DAAFE3B4186F6B6457E0 SWAP1 PUSH0 SWAP1 LOG3 POP POP JUMP JUMPDEST PUSH4 0x4E487B71 PUSH1 0xE0 SHL PUSH0 MSTORE PUSH1 0x41 PUSH1 0x4 MSTORE PUSH1 0x24 PUSH0 REVERT JUMPDEST PUSH1 0x1 DUP2 DUP2 SHR SWAP1 DUP3 AND DUP1 PUSH2 0xFD JUMPI PUSH1 0x7F DUP3 AND SWAP2 POP JUMPDEST PUSH1 0x20 DUP3 LT DUP2 SUB PUSH2 0x11B JUMPI PUSH4 0x4E487B71 PUSH1 0xE0 SHL PUSH0 MSTORE PUSH1 0x22 PUSH1 0x4 MSTORE PUSH1 0x24 PUSH0 REVERT JUMPDEST POP SWAP2 SWAP1 POP JUMP JUMPDEST PUSH1 0x1F DUP3 GT ISZERO PUSH2 0x168 JUMPI DUP1 PUSH0 MSTORE PUSH1 0x20 PUSH0 KECCAK256 PUSH1 0x1F DUP5 ADD PUSH1 0x5 SHR DUP2 ADD PUSH1 0x20 DUP6 LT ISZERO PUSH2 0x146 JUMPI POP DUP1 JUMPDEST PUSH1 0x1F DUP5 ADD PUSH1 0x5 SHR DUP3 ADD SWAP2 POP JUMPDEST DUP2 DUP2 LT ISZERO PUSH2 0x165 JUMPI PUSH0 DUP2 SSTORE PUSH1 0x1 ADD PUSH2 0x152 JUMP JUMPDEST POP POP JUMPDEST POP POP POP JUMP JUMPDEST DUP2 MLOAD PUSH1 0x1 PUSH1 0x1 PUSH1 0x40 SHL SUB DUP2 GT ISZERO PUSH2 0x186 JUMPI PUSH2 0x186 PUSH2 0xD5 JUMP JUMPDEST PUSH2 0x19A DUP2 PUSH2 0x194 DUP5 SLOAD PUSH2 0xE9 JUMP JUMPDEST DUP5 PUSH2 0x121 JUMP JUMPDEST PUSH1 0x20 PUSH1 0x1F DUP3 GT PUSH1 0x1 DUP2 EQ PUSH2 0x1CC JUMPI PUSH0 DUP4 ISZERO PUSH2 0x1B5 JUMPI POP DUP5 DUP3 ADD MLOAD JUMPDEST PUSH0 NOT PUSH1 0x3 DUP6 SWAP1 SHL SHR NOT AND PUSH1 0x1 DUP5 SWAP1 SHL OR DUP5 SSTORE PUSH2 0x165 JUMP JUMPDEST PUSH0 DUP5 DUP2 MSTORE PUSH1 0x20 DUP2 KECCAK256 PUSH1 0x1F NOT DUP6 AND SWAP2 JUMPDEST DUP3 DUP2 LT ISZERO PUSH2 0x1FB JUMPI DUP8 DUP6 ADD MLOAD DUP3 SSTORE PUSH1 0x20 SWAP5 DUP6 ADD SWAP5 PUSH1 0x1 SWAP1 SWAP3 ADD SWAP2 ADD PUSH2 0x1DB JUMP JUMPDEST POP DUP5 DUP3 LT ISZERO PUSH2 0x218 JUMPI DUP7 DUP5 ADD MLOAD PUSH0 NOT PUSH1 0x3 DUP8 SWAP1 SHL PUSH1 0xF8 AND SHR NOT AND DUP2 SSTORE JUMPDEST POP POP POP POP PUSH1 0x1 SWAP1 DUP2 SHL ADD SWAP1 SSTORE POP JUMP JUMPDEST PUSH2 0xC41 DUP1 PUSH2 0x234 PUSH0 CODECOPY PUSH0 RETURN INVALID PUSH1 0x80 PUSH1 0x40 MSTORE CALLVALUE DUP1 ISZERO PUSH2 0xF JUMPI PUSH0 DUP1 REVERT JUMPDEST POP PUSH1 0x4 CALLDATASIZE LT PUSH2 0xFB JUMPI PUSH0 CALLDATALOAD PUSH1 0xE0 SHR DUP1 PUSH4 0x70A08231 GT PUSH2 0x93 JUMPI DUP1 PUSH4 0xA9059CBB GT PUSH2 0x63 JUMPI DUP1 PUSH4 0xA9059CBB EQ PUSH2 0x202 JUMPI DUP1 PUSH4 0xB90497E0 EQ PUSH2 0x215 JUMPI DUP1 PUSH4 0xDD62ED3E EQ PUSH2 0x21D JUMPI DUP1 PUSH4 0xF2FDE38B EQ PUSH2 0x255 JUMPI PUSH0 DUP1 REVERT JUMPDEST DUP1 PUSH4 0x70A08231 EQ PUSH2 0x1AF JUMPI DUP1 PUSH4 0x715018A6 EQ PUSH2 0x1D7 JUMPI DUP1 PUSH4 0x8DA5CB5B EQ PUSH2 0x1DF JUMPI DUP1 PUSH4 0x95D89B41 EQ PUSH2 0x1FA JUMPI PUSH0 DUP1 REVERT JUMPDEST DUP1 PUSH4 0x313CE567 GT PUSH2 0xCE JUMPI DUP1 PUSH4 0x313CE567 EQ PUSH2 0x165 JUMPI DUP1 PUSH4 0x40C10F19 EQ PUSH2 0x174 JUMPI DUP1 PUSH4 0x4CD88B76 EQ PUSH2 0x189 JUMPI DUP1 PUSH4 0x58E792EE EQ PUSH2 0x19C JUMPI PUSH0 DUP1 REVERT JUMPDEST DUP1 PUSH4 0x6FDDE03 EQ PUSH2 0xFF JUMPI DUP1 PUSH4 0x95EA7B3 EQ PUSH2 0x11D JUMPI DUP1 PUSH4 0x18160DDD EQ PUSH2 0x140 JUMPI DUP1 PUSH4 0x23B872DD EQ PUSH2 0x152 JUMPI JUMPDEST PUSH0 DUP1 REVERT JUMPDEST PUSH2 0x107 PUSH2 0x268 JUMP JUMPDEST PUSH1 0x40 MLOAD PUSH2 0x114 SWAP2 SWAP1 PUSH2 0x86D JUMP JUMPDEST PUSH1 0x40 MLOAD DUP1 SWAP2 SUB SWAP1 RETURN JUMPDEST PUSH2 0x130 PUSH2 0x12B CALLDATASIZE PUSH1 0x4 PUSH2 0x8BD JUMP JUMPDEST PUSH2 0x2F8 JUMP JUMPDEST PUSH1 0x40 MLOAD SWAP1 ISZERO ISZERO DUP2 MSTORE PUSH1 0x20 ADD PUSH2 0x114 JUMP JUMPDEST PUSH1 0x2 SLOAD JUMPDEST PUSH1 0x40 MLOAD SWAP1 DUP2 MSTORE PUSH1 0x20 ADD PUSH2 0x114 JUMP JUMPDEST PUSH2 0x130 PUSH2 0x160 CALLDATASIZE PUSH1 0x4 PUSH2 0x8E5 JUMP JUMPDEST PUSH2 0x311 JUMP JUMPDEST PUSH1 0x40 MLOAD PUSH1 0x12 DUP2 MSTORE PUSH1 0x20 ADD PUSH2 0x114 JUMP JUMPDEST PUSH2 0x187 PUSH2 0x182 CALLDATASIZE PUSH1 0x4 PUSH2 0x8BD JUMP JUMPDEST PUSH2 0x334 JUMP JUMPDEST STOP JUMPDEST PUSH2 0x187 PUSH2 0x197 CALLDATASIZE PUSH1 0x4 PUSH2 0x9BE JUMP JUMPDEST PUSH2 0x34A JUMP JUMPDEST PUSH2 0x187 PUSH2 0x1AA CALLDATASIZE PUSH1 0x4 PUSH2 0xA23 JUMP JUMPDEST PUSH2 0x3CD JUMP JUMPDEST PUSH2 0x144 PUSH2 0x1BD CALLDATASIZE PUSH1 0x4 PUSH2 0xA5D JUMP JUMPDEST PUSH1 0x1 PUSH1 0x1 PUSH1 0xA0 SHL SUB AND PUSH0 SWAP1 DUP2 MSTORE PUSH1 0x20 DUP2 SWAP1 MSTORE PUSH1 0x40 SWAP1 KECCAK256 SLOAD SWAP1 JUMP JUMPDEST PUSH2 0x187 PUSH2 0x3E1 JUMP JUMPDEST PUSH1 0x5 SLOAD PUSH1 0x40 MLOAD PUSH1 0x1 PUSH1 0x1 PUSH1 0xA0 SHL SUB SWAP1 SWAP2 AND DUP2 MSTORE PUSH1 0x20 ADD PUSH2 0x114 JUMP JUMPDEST PUSH2 0x107 PUSH2 0x3F4 JUMP JUMPDEST PUSH2 0x130 PUSH2 0x210 CALLDATASIZE PUSH1 0x4 PUSH2 0x8BD JUMP JUMPDEST PUSH2 0x403 JUMP JUMPDEST PUSH2 0x107 PUSH2 0x410 JUMP JUMPDEST PUSH2 0x144 PUSH2 0x22B CALLDATASIZE PUSH1 0x4 PUSH2 0xA7D JUMP JUMPDEST PUSH1 0x1 PUSH1 0x1 PUSH1 0xA0 SHL SUB SWAP2 DUP3 AND PUSH0 SWAP1 DUP2 MSTORE PUSH1 0x1 PUSH1 0x20 SWAP1 DUP2 MSTORE PUSH1 0x40 DUP1 DUP4 KECCAK256 SWAP4 SWAP1 SWAP5 AND DUP3 MSTORE SWAP2 SWAP1 SWAP2 MSTORE KECCAK256 SLOAD SWAP1 JUMP JUMPDEST PUSH2 0x187 PUSH2 0x263 CALLDATASIZE PUSH1 0x4 PUSH2 0xA5D JUMP JUMPDEST PUSH2 0x49C JUMP JUMPDEST PUSH1 0x60 PUSH1 0x6 DUP1 SLOAD PUSH2 0x277 SWAP1 PUSH2 0xAAE JUMP JUMPDEST DUP1 PUSH1 0x1F ADD PUSH1 0x20 DUP1 SWAP2 DIV MUL PUSH1 0x20 ADD PUSH1 0x40 MLOAD SWAP1 DUP2 ADD PUSH1 0x40 MSTORE DUP1 SWAP3 SWAP2 SWAP1 DUP2 DUP2 MSTORE PUSH1 0x20 ADD DUP3 DUP1 SLOAD PUSH2 0x2A3 SWAP1 PUSH2 0xAAE JUMP JUMPDEST DUP1 ISZERO PUSH2 0x2EE JUMPI DUP1 PUSH1 0x1F LT PUSH2 0x2C5 JUMPI PUSH2 0x100 DUP1 DUP4 SLOAD DIV MUL DUP4 MSTORE SWAP2 PUSH1 0x20 ADD SWAP2 PUSH2 0x2EE JUMP JUMPDEST DUP3 ADD SWAP2 SWAP1 PUSH0 MSTORE PUSH1 0x20 PUSH0 KECCAK256 SWAP1 JUMPDEST DUP2 SLOAD DUP2 MSTORE SWAP1 PUSH1 0x1 ADD SWAP1 PUSH1 0x20 ADD DUP1 DUP4 GT PUSH2 0x2D1 JUMPI DUP3 SWAP1 SUB PUSH1 0x1F AND DUP3 ADD SWAP2 JUMPDEST POP POP POP POP POP SWAP1 POP SWAP1 JUMP JUMPDEST PUSH0 CALLER PUSH2 0x305 DUP2 DUP6 DUP6 PUSH2 0x4D9 JUMP JUMPDEST PUSH1 0x1 SWAP2 POP POP JUMPDEST SWAP3 SWAP2 POP POP JUMP JUMPDEST PUSH0 CALLER PUSH2 0x31E DUP6 DUP3 DUP6 PUSH2 0x4EB JUMP JUMPDEST PUSH2 0x329 DUP6 DUP6 DUP6 PUSH2 0x566 JUMP JUMPDEST POP PUSH1 0x1 SWAP5 SWAP4 POP POP POP POP JUMP JUMPDEST PUSH2 0x33C PUSH2 0x5C3 JUMP JUMPDEST PUSH2 0x346 DUP3 DUP3 PUSH2 0x5F0 JUMP JUMPDEST POP POP JUMP JUMPDEST PUSH1 0x8 SLOAD PUSH1 0xFF AND ISZERO PUSH2 0x3A2 JUMPI PUSH1 0x40 MLOAD PUSH3 0x461BCD PUSH1 0xE5 SHL DUP2 MSTORE PUSH1 0x20 PUSH1 0x4 DUP3 ADD MSTORE PUSH1 0x19 PUSH1 0x24 DUP3 ADD MSTORE PUSH32 0x546F6B656E20616C726561647920696E697469616C697A656400000000000000 PUSH1 0x44 DUP3 ADD MSTORE PUSH1 0x64 ADD JUMPDEST PUSH1 0x40 MLOAD DUP1 SWAP2 SUB SWAP1 REVERT JUMPDEST PUSH1 0x6 PUSH2 0x3AE DUP4 DUP3 PUSH2 0xB31 JUMP JUMPDEST POP PUSH1 0x7 PUSH2 0x3BB DUP3 DUP3 PUSH2 0xB31 JUMP JUMPDEST POP POP PUSH1 0x8 DUP1 SLOAD PUSH1 0xFF NOT AND PUSH1 0x1 OR SWAP1 SSTORE POP JUMP JUMPDEST PUSH2 0x3D5 PUSH2 0x5C3 JUMP JUMPDEST PUSH1 0x9 PUSH2 0x346 DUP3 DUP3 PUSH2 0xB31 JUMP JUMPDEST PUSH2 0x3E9 PUSH2 0x5C3 JUMP JUMPDEST PUSH2 0x3F2 PUSH0 PUSH2 0x624 JUMP JUMPDEST JUMP JUMPDEST PUSH1 0x60 PUSH1 0x7 DUP1 SLOAD PUSH2 0x277 SWAP1 PUSH2 0xAAE JUMP JUMPDEST PUSH0 CALLER PUSH2 0x305 DUP2 DUP6 DUP6 PUSH2 0x566 JUMP JUMPDEST PUSH1 0x9 DUP1 SLOAD PUSH2 0x41D SWAP1 PUSH2 0xAAE JUMP JUMPDEST DUP1 PUSH1 0x1F ADD PUSH1 0x20 DUP1 SWAP2 DIV MUL PUSH1 0x20 ADD PUSH1 0x40 MLOAD SWAP1 DUP2 ADD PUSH1 0x40 MSTORE DUP1 SWAP3 SWAP2 SWAP1 DUP2 DUP2 MSTORE PUSH1 0x20 ADD DUP3 DUP1 SLOAD PUSH2 0x449 SWAP1 PUSH2 0xAAE JUMP JUMPDEST DUP1 ISZERO PUSH2 0x494 JUMPI DUP1 PUSH1 0x1F LT PUSH2 0x46B JUMPI PUSH2 0x100 DUP1 DUP4 SLOAD DIV MUL DUP4 MSTORE SWAP2 PUSH1 0x20 ADD SWAP2 PUSH2 0x494 JUMP JUMPDEST DUP3 ADD SWAP2 SWAP1 PUSH0 MSTORE PUSH1 0x20 PUSH0 KECCAK256 SWAP1 JUMPDEST DUP2 SLOAD DUP2 MSTORE SWAP1 PUSH1 0x1 ADD SWAP1 PUSH1 0x20 ADD DUP1 DUP4 GT PUSH2 0x477 JUMPI DUP3 SWAP1 SUB PUSH1 0x1F AND DUP3 ADD SWAP2 JUMPDEST POP POP POP POP POP DUP2 JUMP JUMPDEST PUSH2 0x4A4 PUSH2 0x5C3 JUMP JUMPDEST PUSH1 0x1 PUSH1 0x1 PUSH1 0xA0 SHL SUB DUP2 AND PUSH2 0x4CD JUMPI PUSH1 0x40 MLOAD PUSH4 0x1E4FBDF7 PUSH1 0xE0 SHL DUP2 MSTORE PUSH0 PUSH1 0x4 DUP3 ADD MSTORE PUSH1 0x24 ADD PUSH2 0x399 JUMP JUMPDEST PUSH2 0x4D6 DUP2 PUSH2 0x624 JUMP JUMPDEST POP JUMP JUMPDEST PUSH2 0x4E6 DUP4 DUP4 DUP4 PUSH1 0x1 PUSH2 0x675 JUMP JUMPDEST POP POP POP JUMP JUMPDEST PUSH1 0x1 PUSH1 0x1 PUSH1 0xA0 SHL SUB DUP4 DUP2 AND PUSH0 SWAP1 DUP2 MSTORE PUSH1 0x1 PUSH1 0x20 SWAP1 DUP2 MSTORE PUSH1 0x40 DUP1 DUP4 KECCAK256 SWAP4 DUP7 AND DUP4 MSTORE SWAP3 SWAP1 MSTORE KECCAK256 SLOAD PUSH0 NOT DUP2 EQ PUSH2 0x560 JUMPI DUP2 DUP2 LT ISZERO PUSH2 0x552 JUMPI PUSH1 0x40 MLOAD PUSH4 0x7DC7A0D9 PUSH1 0xE1 SHL DUP2 MSTORE PUSH1 0x1 PUSH1 0x1 PUSH1 0xA0 SHL SUB DUP5 AND PUSH1 0x4 DUP3 ADD MSTORE PUSH1 0x24 DUP2 ADD DUP3 SWAP1 MSTORE PUSH1 0x44 DUP2 ADD DUP4 SWAP1 MSTORE PUSH1 0x64 ADD PUSH2 0x399 JUMP JUMPDEST PUSH2 0x560 DUP5 DUP5 DUP5 DUP5 SUB PUSH0 PUSH2 0x675 JUMP JUMPDEST POP POP POP POP JUMP JUMPDEST PUSH1 0x1 PUSH1 0x1 PUSH1 0xA0 SHL SUB DUP4 AND PUSH2 0x58F JUMPI PUSH1 0x40 MLOAD PUSH4 0x4B637E8F PUSH1 0xE1 SHL DUP2 MSTORE PUSH0 PUSH1 0x4 DUP3 ADD MSTORE PUSH1 0x24 ADD PUSH2 0x399 JUMP JUMPDEST PUSH1 0x1 PUSH1 0x1 PUSH1 0xA0 SHL SUB DUP3 AND PUSH2 0x5B8 JUMPI PUSH1 0x40 MLOAD PUSH4 0xEC442F05 PUSH1 0xE0 SHL DUP2 MSTORE PUSH0 PUSH1 0x4 DUP3 ADD MSTORE PUSH1 0x24 ADD PUSH2 0x399 JUMP JUMPDEST PUSH2 0x4E6 DUP4 DUP4 DUP4 PUSH2 0x747 JUMP JUMPDEST PUSH1 0x5 SLOAD PUSH1 0x1 PUSH1 0x1 PUSH1 0xA0 SHL SUB AND CALLER EQ PUSH2 0x3F2 JUMPI PUSH1 0x40 MLOAD PUSH4 0x118CDAA7 PUSH1 0xE0 SHL DUP2 MSTORE CALLER PUSH1 0x4 DUP3 ADD MSTORE PUSH1 0x24 ADD PUSH2 0x399 JUMP JUMPDEST PUSH1 0x1 PUSH1 0x1 PUSH1 0xA0 SHL SUB DUP3 AND PUSH2 0x619 JUMPI PUSH1 0x40 MLOAD PUSH4 0xEC442F05 PUSH1 0xE0 SHL DUP2 MSTORE PUSH0 PUSH1 0x4 DUP3 ADD MSTORE PUSH1 0x24 ADD PUSH2 0x399 JUMP JUMPDEST PUSH2 0x346 PUSH0 DUP4 DUP4 PUSH2 0x747 JUMP JUMPDEST PUSH1 0x5 DUP1 SLOAD PUSH1 0x1 PUSH1 0x1 PUSH1 0xA0 SHL SUB DUP4 DUP2 AND PUSH1 0x1 PUSH1 0x1 PUSH1 0xA0 SHL SUB NOT DUP4 AND DUP2 OR SWAP1 SWAP4 SSTORE PUSH1 0x40 MLOAD SWAP2 AND SWAP2 SWAP1 DUP3 SWAP1 PUSH32 0x8BE0079C531659141344CD1FD0A4F28419497F9722A3DAAFE3B4186F6B6457E0 SWAP1 PUSH0 SWAP1 LOG3 POP POP JUMP JUMPDEST PUSH1 0x1 PUSH1 0x1 PUSH1 0xA0 SHL SUB DUP5 AND PUSH2 0x69E JUMPI PUSH1 0x40 MLOAD PUSH4 0xE602DF05 PUSH1 0xE0 SHL DUP2 MSTORE PUSH0 PUSH1 0x4 DUP3 ADD MSTORE PUSH1 0x24 ADD PUSH2 0x399 JUMP JUMPDEST PUSH1 0x1 PUSH1 0x1 PUSH1 0xA0 SHL SUB DUP4 AND PUSH2 0x6C7 JUMPI PUSH1 0x40 MLOAD PUSH4 0x4A1406B1 PUSH1 0xE1 SHL DUP2 MSTORE PUSH0 PUSH1 0x4 DUP3 ADD MSTORE PUSH1 0x24 ADD PUSH2 0x399 JUMP JUMPDEST PUSH1 0x1 PUSH1 0x1 PUSH1 0xA0 SHL SUB DUP1 DUP6 AND PUSH0 SWAP1 DUP2 MSTORE PUSH1 0x1 PUSH1 0x20 SWAP1 DUP2 MSTORE PUSH1 0x40 DUP1 DUP4 KECCAK256 SWAP4 DUP8 AND DUP4 MSTORE SWAP3 SWAP1 MSTORE KECCAK256 DUP3 SWAP1 SSTORE DUP1 ISZERO PUSH2 0x560 JUMPI DUP3 PUSH1 0x1 PUSH1 0x1 PUSH1 0xA0 SHL SUB AND DUP5 PUSH1 0x1 PUSH1 0x1 PUSH1 0xA0 SHL SUB AND PUSH32 0x8C5BE1E5EBEC7D5BD14F71427D1E84F3DD0314C0F7B2291E5B200AC8C7C3B925 DUP5 PUSH1 0x40 MLOAD PUSH2 0x739 SWAP2 DUP2 MSTORE PUSH1 0x20 ADD SWAP1 JUMP JUMPDEST PUSH1 0x40 MLOAD DUP1 SWAP2 SUB SWAP1 LOG3 POP POP POP POP JUMP JUMPDEST PUSH1 0x1 PUSH1 0x1 PUSH1 0xA0 SHL SUB DUP4 AND PUSH2 0x771 JUMPI DUP1 PUSH1 0x2 PUSH0 DUP3 DUP3 SLOAD PUSH2 0x766 SWAP2 SWAP1 PUSH2 0xBEC JUMP JUMPDEST SWAP1 SWAP2 SSTORE POP PUSH2 0x7E1 SWAP1 POP JUMP JUMPDEST PUSH1 0x1 PUSH1 0x1 PUSH1 0xA0 SHL SUB DUP4 AND PUSH0 SWAP1 DUP2 MSTORE PUSH1 0x20 DUP2 SWAP1 MSTORE PUSH1 0x40 SWAP1 KECCAK256 SLOAD DUP2 DUP2 LT ISZERO PUSH2 0x7C3 JUMPI PUSH1 0x40 MLOAD PUSH4 0x391434E3 PUSH1 0xE2 SHL DUP2 MSTORE PUSH1 0x1 PUSH1 0x1 PUSH1 0xA0 SHL SUB DUP6 AND PUSH1 0x4 DUP3 ADD MSTORE PUSH1 0x24 DUP2 ADD DUP3 SWAP1 MSTORE PUSH1 0x44 DUP2 ADD DUP4 SWAP1 MSTORE PUSH1 0x64 ADD PUSH2 0x399 JUMP JUMPDEST PUSH1 0x1 PUSH1 0x1 PUSH1 0xA0 SHL SUB DUP5 AND PUSH0 SWAP1 DUP2 MSTORE PUSH1 0x20 DUP2 SWAP1 MSTORE PUSH1 0x40 SWAP1 KECCAK256 SWAP1 DUP3 SWAP1 SUB SWAP1 SSTORE JUMPDEST PUSH1 0x1 PUSH1 0x1 PUSH1 0xA0 SHL SUB DUP3 AND PUSH2 0x7FD JUMPI PUSH1 0x2 DUP1 SLOAD DUP3 SWAP1 SUB SWAP1 SSTORE PUSH2 0x81B JUMP JUMPDEST PUSH1 0x1 PUSH1 0x1 PUSH1 0xA0 SHL SUB DUP3 AND PUSH0 SWAP1 DUP2 MSTORE PUSH1 0x20 DUP2 SWAP1 MSTORE PUSH1 0x40 SWAP1 KECCAK256 DUP1 SLOAD DUP3 ADD SWAP1 SSTORE JUMPDEST DUP2 PUSH1 0x1 PUSH1 0x1 PUSH1 0xA0 SHL SUB AND DUP4 PUSH1 0x1 PUSH1 0x1 PUSH1 0xA0 SHL SUB AND PUSH32 0xDDF252AD1BE2C89B69C2B068FC378DAA952BA7F163C4A11628F55A4DF523B3EF DUP4 PUSH1 0x40 MLOAD PUSH2 0x860 SWAP2 DUP2 MSTORE PUSH1 0x20 ADD SWAP1 JUMP JUMPDEST PUSH1 0x40 MLOAD DUP1 SWAP2 SUB SWAP1 LOG3 POP POP POP JUMP JUMPDEST PUSH1 0x20 DUP2 MSTORE PUSH0 DUP3 MLOAD DUP1 PUSH1 0x20 DUP5 ADD MSTORE DUP1 PUSH1 0x20 DUP6 ADD PUSH1 0x40 DUP6 ADD MCOPY PUSH0 PUSH1 0x40 DUP3 DUP6 ADD ADD MSTORE PUSH1 0x40 PUSH1 0x1F NOT PUSH1 0x1F DUP4 ADD AND DUP5 ADD ADD SWAP2 POP POP SWAP3 SWAP2 POP POP JUMP JUMPDEST DUP1 CALLDATALOAD PUSH1 0x1 PUSH1 0x1 PUSH1 0xA0 SHL SUB DUP2 AND DUP2 EQ PUSH2 0x8B8 JUMPI PUSH0 DUP1 REVERT JUMPDEST SWAP2 SWAP1 POP JUMP JUMPDEST PUSH0 DUP1 PUSH1 0x40 DUP4 DUP6 SUB SLT ISZERO PUSH2 0x8CE JUMPI PUSH0 DUP1 REVERT JUMPDEST PUSH2 0x8D7 DUP4 PUSH2 0x8A2 JUMP JUMPDEST SWAP5 PUSH1 0x20 SWAP4 SWAP1 SWAP4 ADD CALLDATALOAD SWAP4 POP POP POP JUMP JUMPDEST PUSH0 DUP1 PUSH0 PUSH1 0x60 DUP5 DUP7 SUB SLT ISZERO PUSH2 0x8F7 JUMPI PUSH0 DUP1 REVERT JUMPDEST PUSH2 0x900 DUP5 PUSH2 0x8A2 JUMP JUMPDEST SWAP3 POP PUSH2 0x90E PUSH1 0x20 DUP6 ADD PUSH2 0x8A2 JUMP JUMPDEST SWAP3 SWAP6 SWAP3 SWAP5 POP POP POP PUSH1 0x40 SWAP2 SWAP1 SWAP2 ADD CALLDATALOAD SWAP1 JUMP JUMPDEST PUSH4 0x4E487B71 PUSH1 0xE0 SHL PUSH0 MSTORE PUSH1 0x41 PUSH1 0x4 MSTORE PUSH1 0x24 PUSH0 REVERT JUMPDEST PUSH0 DUP3 PUSH1 0x1F DUP4 ADD SLT PUSH2 0x942 JUMPI PUSH0 DUP1 REVERT JUMPDEST DUP2 CALLDATALOAD PUSH8 0xFFFFFFFFFFFFFFFF DUP2 GT ISZERO PUSH2 0x95C JUMPI PUSH2 0x95C PUSH2 0x91F JUMP JUMPDEST PUSH1 0x40 MLOAD PUSH1 0x1F DUP3 ADD PUSH1 0x1F NOT SWAP1 DUP2 AND PUSH1 0x3F ADD AND DUP2 ADD PUSH8 0xFFFFFFFFFFFFFFFF DUP2 GT DUP3 DUP3 LT OR ISZERO PUSH2 0x98B JUMPI PUSH2 0x98B PUSH2 0x91F JUMP JUMPDEST PUSH1 0x40 MSTORE DUP2 DUP2 MSTORE DUP4 DUP3 ADD PUSH1 0x20 ADD DUP6 LT ISZERO PUSH2 0x9A2 JUMPI PUSH0 DUP1 REVERT JUMPDEST DUP2 PUSH1 0x20 DUP6 ADD PUSH1 0x20 DUP4 ADD CALLDATACOPY PUSH0 SWAP2 DUP2 ADD PUSH1 0x20 ADD SWAP2 SWAP1 SWAP2 MSTORE SWAP4 SWAP3 POP POP POP JUMP JUMPDEST PUSH0 DUP1 PUSH1 0x40 DUP4 DUP6 SUB SLT ISZERO PUSH2 0x9CF JUMPI PUSH0 DUP1 REVERT JUMPDEST DUP3 CALLDATALOAD PUSH8 0xFFFFFFFFFFFFFFFF DUP2 GT ISZERO PUSH2 0x9E5 JUMPI PUSH0 DUP1 REVERT JUMPDEST PUSH2 0x9F1 DUP6 DUP3 DUP7 ADD PUSH2 0x933 JUMP JUMPDEST SWAP3 POP POP PUSH1 0x20 DUP4 ADD CALLDATALOAD PUSH8 0xFFFFFFFFFFFFFFFF DUP2 GT ISZERO PUSH2 0xA0D JUMPI PUSH0 DUP1 REVERT JUMPDEST PUSH2 0xA19 DUP6 DUP3 DUP7 ADD PUSH2 0x933 JUMP JUMPDEST SWAP2 POP POP SWAP3 POP SWAP3 SWAP1 POP JUMP JUMPDEST PUSH0 PUSH1 0x20 DUP3 DUP5 SUB SLT ISZERO PUSH2 0xA33 JUMPI PUSH0 DUP1 REVERT JUMPDEST DUP2 CALLDATALOAD PUSH8 0xFFFFFFFFFFFFFFFF DUP2 GT ISZERO PUSH2 0xA49 JUMPI PUSH0 DUP1 REVERT JUMPDEST PUSH2 0xA55 DUP5 DUP3 DUP6 ADD PUSH2 0x933 JUMP JUMPDEST SWAP5 SWAP4 POP POP POP POP JUMP JUMPDEST PUSH0 PUSH1 0x20 DUP3 DUP5 SUB SLT ISZERO PUSH2 0xA6D JUMPI PUSH0 DUP1 REVERT JUMPDEST PUSH2 0xA76 DUP3 PUSH2 0x8A2 JUMP JUMPDEST SWAP4 SWAP3 POP POP POP JUMP JUMPDEST PUSH0 DUP1 PUSH1 0x40 DUP4 DUP6 SUB SLT ISZERO PUSH2 0xA8E JUMPI PUSH0 DUP1 REVERT JUMPDEST PUSH2 0xA97 DUP4 PUSH2 0x8A2 JUMP JUMPDEST SWAP2 POP PUSH2 0xAA5 PUSH1 0x20 DUP5 ADD PUSH2 0x8A2 JUMP JUMPDEST SWAP1 POP SWAP3 POP SWAP3 SWAP1 POP JUMP JUMPDEST PUSH1 0x1 DUP2 DUP2 SHR SWAP1 DUP3 AND DUP1 PUSH2 0xAC2 JUMPI PUSH1 0x7F DUP3 AND SWAP2 POP JUMPDEST PUSH1 0x20 DUP3 LT DUP2 SUB PUSH2 0xAE0 JUMPI PUSH4 0x4E487B71 PUSH1 0xE0 SHL PUSH0 MSTORE PUSH1 0x22 PUSH1 0x4 MSTORE PUSH1 0x24 PUSH0 REVERT JUMPDEST POP SWAP2 SWAP1 POP JUMP JUMPDEST PUSH1 0x1F DUP3 GT ISZERO PUSH2 0x4E6 JUMPI DUP1 PUSH0 MSTORE PUSH1 0x20 PUSH0 KECCAK256 PUSH1 0x1F DUP5 ADD PUSH1 0x5 SHR DUP2 ADD PUSH1 0x20 DUP6 LT ISZERO PUSH2 0xB0B JUMPI POP DUP1 JUMPDEST PUSH1 0x1F DUP5 ADD PUSH1 0x5 SHR DUP3 ADD SWAP2 POP JUMPDEST DUP2 DUP2 LT ISZERO PUSH2 0xB2A JUMPI PUSH0 DUP2 SSTORE PUSH1 0x1 ADD PUSH2 0xB17 JUMP JUMPDEST POP POP POP POP POP JUMP JUMPDEST DUP2 MLOAD PUSH8 0xFFFFFFFFFFFFFFFF DUP2 GT ISZERO PUSH2 0xB4B JUMPI PUSH2 0xB4B PUSH2 0x91F JUMP JUMPDEST PUSH2 0xB5F DUP2 PUSH2 0xB59 DUP5 SLOAD PUSH2 0xAAE JUMP JUMPDEST DUP5 PUSH2 0xAE6 JUMP JUMPDEST PUSH1 0x20 PUSH1 0x1F DUP3 GT PUSH1 0x1 DUP2 EQ PUSH2 0xB91 JUMPI PUSH0 DUP4 ISZERO PUSH2 0xB7A JUMPI POP DUP5 DUP3 ADD MLOAD JUMPDEST PUSH0 NOT PUSH1 0x3 DUP6 SWAP1 SHL SHR NOT AND PUSH1 0x1 DUP5 SWAP1 SHL OR DUP5 SSTORE PUSH2 0xB2A JUMP JUMPDEST PUSH0 DUP5 DUP2 MSTORE PUSH1 0x20 DUP2 KECCAK256 PUSH1 0x1F NOT DUP6 AND SWAP2 JUMPDEST DUP3 DUP2 LT ISZERO PUSH2 0xBC0 JUMPI DUP8 DUP6 ADD MLOAD DUP3 SSTORE PUSH1 0x20 SWAP5 DUP6 ADD SWAP5 PUSH1 0x1 SWAP1 SWAP3 ADD SWAP2 ADD PUSH2 0xBA0 JUMP JUMPDEST POP DUP5 DUP3 LT ISZERO PUSH2 0xBDD JUMPI DUP7 DUP5 ADD MLOAD PUSH0 NOT PUSH1 0x3 DUP8 SWAP1 SHL PUSH1 0xF8 AND SHR NOT AND DUP2 SSTORE JUMPDEST POP POP POP POP PUSH1 0x1 SWAP1 DUP2 SHL ADD SWAP1 SSTORE POP JUMP JUMPDEST DUP1 DUP3 ADD DUP1 DUP3 GT ISZERO PUSH2 0x30B JUMPI PUSH4 0x4E487B71 PUSH1 0xE0 SHL PUSH0 MSTORE PUSH1 0x11 PUSH1 0x4 MSTORE PUSH1 0x24 PUSH0 REVERT INVALID LOG2 PUSH5 0x6970667358 0x22 SLT KECCAK256 PUSH29 0x7E904B4A05B82B07B43ABF95483A4159C3A16EB1FC5249D480DF8830F0 LOG1 0xCA PUSH5 0x736F6C6343 STOP ADDMOD BYTE STOP CALLER PUSH1 0x80 PUSH1 0x40 MSTORE CALLVALUE DUP1 ISZERO PUSH2 0xF JUMPI PUSH0 DUP1 REVERT JUMPDEST POP PUSH1 0x40 MLOAD PUSH2 0x14FB CODESIZE SUB DUP1 PUSH2 0x14FB DUP4 CODECOPY DUP2 ADD PUSH1 0x40 DUP2 SWAP1 MSTORE PUSH2 0x2E SWAP2 PUSH2 0x14D JUMP JUMPDEST PUSH1 0x1 PUSH0 SSTORE PUSH1 0x1 PUSH1 0x1 PUSH1 0xA0 SHL SUB DUP4 AND PUSH2 0x8D JUMPI PUSH1 0x40 MLOAD PUSH3 0x461BCD PUSH1 0xE5 SHL DUP2 MSTORE PUSH1 0x20 PUSH1 0x4 DUP3 ADD DUP2 SWAP1 MSTORE PUSH1 0x24 DUP3 ADD MSTORE PUSH32 0x446576656C6F70657220616464726573732063616E6E6F74206265207A65726F PUSH1 0x44 DUP3 ADD MSTORE PUSH1 0x64 ADD JUMPDEST PUSH1 0x40 MLOAD DUP1 SWAP2 SUB SWAP1 REVERT JUMPDEST PUSH1 0x1 PUSH1 0x1 PUSH1 0xA0 SHL SUB DUP3 AND PUSH2 0xEF JUMPI PUSH1 0x40 MLOAD PUSH3 0x461BCD PUSH1 0xE5 SHL DUP2 MSTORE PUSH1 0x20 PUSH1 0x4 DUP3 ADD MSTORE PUSH1 0x23 PUSH1 0x24 DUP3 ADD MSTORE PUSH32 0x546F6B656E466163746F727920616464726573732063616E6E6F74206265207A PUSH1 0x44 DUP3 ADD MSTORE PUSH3 0x65726F PUSH1 0xE8 SHL PUSH1 0x64 DUP3 ADD MSTORE PUSH1 0x84 ADD PUSH2 0x84 JUMP JUMPDEST PUSH1 0x3 DUP1 SLOAD PUSH1 0x1 PUSH1 0x1 PUSH1 0xA0 SHL SUB SWAP5 DUP6 AND PUSH1 0x1 PUSH1 0x1 PUSH1 0xA0 SHL SUB NOT SWAP2 DUP3 AND OR SWAP1 SWAP2 SSTORE PUSH1 0x2 DUP1 SLOAD SWAP4 SWAP1 SWAP5 AND SWAP3 AND SWAP2 SWAP1 SWAP2 OR SWAP1 SWAP2 SSTORE PUSH1 0xA SSTORE PUSH1 0x9 DUP1 SLOAD PUSH2 0xFF00 NOT AND SWAP1 SSTORE PUSH2 0x186 JUMP JUMPDEST DUP1 MLOAD PUSH1 0x1 PUSH1 0x1 PUSH1 0xA0 SHL SUB DUP2 AND DUP2 EQ PUSH2 0x148 JUMPI PUSH0 DUP1 REVERT JUMPDEST SWAP2 SWAP1 POP JUMP JUMPDEST PUSH0 DUP1 PUSH0 PUSH1 0x60 DUP5 DUP7 SUB SLT ISZERO PUSH2 0x15F JUMPI PUSH0 DUP1 REVERT JUMPDEST PUSH2 0x168 DUP5 PUSH2 0x132 JUMP JUMPDEST SWAP3 POP PUSH2 0x176 PUSH1 0x20 DUP6 ADD PUSH2 0x132 JUMP JUMPDEST SWAP2 POP PUSH1 0x40 DUP5 ADD MLOAD SWAP1 POP SWAP3 POP SWAP3 POP SWAP3 JUMP JUMPDEST PUSH2 0x1368 DUP1 PUSH2 0x193 PUSH0 CODECOPY PUSH0 RETURN INVALID PUSH1 0x80 PUSH1 0x40 MSTORE PUSH1 0x4 CALLDATASIZE LT PUSH2 0x11B JUMPI PUSH0 CALLDATALOAD PUSH1 0xE0 SHR DUP1 PUSH4 0x4F7041A5 GT PUSH2 0x9D JUMPI DUP1 PUSH4 0xA4821719 GT PUSH2 0x62 JUMPI DUP1 PUSH4 0xA4821719 EQ PUSH2 0x2FA JUMPI DUP1 PUSH4 0xC98A0AA8 EQ PUSH2 0x302 JUMPI DUP1 PUSH4 0xC98B7FD2 EQ PUSH2 0x321 JUMPI DUP1 PUSH4 0xCC1776D3 EQ PUSH2 0x340 JUMPI DUP1 PUSH4 0xE77772FE EQ PUSH2 0x355 JUMPI PUSH0 DUP1 REVERT JUMPDEST DUP1 PUSH4 0x4F7041A5 EQ PUSH2 0x27E JUMPI DUP1 PUSH4 0x5A76F25E EQ PUSH2 0x293 JUMPI DUP1 PUSH4 0x8D5F17AA EQ PUSH2 0x2A8 JUMPI DUP1 PUSH4 0x90BC1E85 EQ PUSH2 0x2C6 JUMPI DUP1 PUSH4 0x96343FD5 EQ PUSH2 0x2DB JUMPI PUSH0 DUP1 REVERT JUMPDEST DUP1 PUSH4 0x299CE7B2 GT PUSH2 0xE3 JUMPI DUP1 PUSH4 0x299CE7B2 EQ PUSH2 0x1EF JUMPI DUP1 PUSH4 0x3AD10EF6 EQ PUSH2 0x218 JUMPI DUP1 PUSH4 0x436D3340 EQ PUSH2 0x237 JUMPI DUP1 PUSH4 0x443CB4BC EQ PUSH2 0x256 JUMPI DUP1 PUSH4 0x4EC81AF1 EQ PUSH2 0x26B JUMPI PUSH0 DUP1 REVERT JUMPDEST DUP1 PUSH4 0x4CCDE37 EQ PUSH2 0x11F JUMPI DUP1 PUSH4 0x902F1AC EQ PUSH2 0x140 JUMPI DUP1 PUSH4 0xDFE1681 EQ PUSH2 0x16C JUMPI DUP1 PUSH4 0x12185A39 EQ PUSH2 0x1A3 JUMPI DUP1 PUSH4 0x2397E4D7 EQ PUSH2 0x1C2 JUMPI JUMPDEST PUSH0 DUP1 REVERT JUMPDEST CALLVALUE DUP1 ISZERO PUSH2 0x12A JUMPI PUSH0 DUP1 REVERT JUMPDEST POP PUSH2 0x13E PUSH2 0x139 CALLDATASIZE PUSH1 0x4 PUSH2 0x11A0 JUMP JUMPDEST PUSH2 0x374 JUMP JUMPDEST STOP JUMPDEST CALLVALUE DUP1 ISZERO PUSH2 0x14B JUMPI PUSH0 DUP1 REVERT JUMPDEST POP PUSH1 0x5 SLOAD PUSH1 0x6 SLOAD PUSH1 0x40 DUP1 MLOAD SWAP3 DUP4 MSTORE PUSH1 0x20 DUP4 ADD SWAP2 SWAP1 SWAP2 MSTORE ADD JUMPDEST PUSH1 0x40 MLOAD DUP1 SWAP2 SUB SWAP1 RETURN JUMPDEST CALLVALUE DUP1 ISZERO PUSH2 0x177 JUMPI PUSH0 DUP1 REVERT JUMPDEST POP PUSH1 0x1 SLOAD PUSH2 0x18B SWAP1 PUSH1 0x1 PUSH1 0x1 PUSH1 0xA0 SHL SUB AND DUP2 JUMP JUMPDEST PUSH1 0x40 MLOAD PUSH1 0x1 PUSH1 0x1 PUSH1 0xA0 SHL SUB SWAP1 SWAP2 AND DUP2 MSTORE PUSH1 0x20 ADD PUSH2 0x163 JUMP JUMPDEST CALLVALUE DUP1 ISZERO PUSH2 0x1AE JUMPI PUSH0 DUP1 REVERT JUMPDEST POP PUSH2 0x13E PUSH2 0x1BD CALLDATASIZE PUSH1 0x4 PUSH2 0x11C2 JUMP JUMPDEST PUSH2 0x451 JUMP JUMPDEST CALLVALUE DUP1 ISZERO PUSH2 0x1CD JUMPI PUSH0 DUP1 REVERT JUMPDEST POP PUSH2 0x1E1 PUSH2 0x1DC CALLDATASIZE PUSH1 0x4 PUSH2 0x11C2 JUMP JUMPDEST PUSH2 0x4C0 JUMP JUMPDEST PUSH1 0x40 MLOAD SWAP1 DUP2 MSTORE PUSH1 0x20 ADD PUSH2 0x163 JUMP JUMPDEST CALLVALUE DUP1 ISZERO PUSH2 0x1FA JUMPI PUSH0 DUP1 REVERT JUMPDEST POP PUSH1 0x9 SLOAD PUSH2 0x208 SWAP1 PUSH1 0xFF AND DUP2 JUMP JUMPDEST PUSH1 0x40 MLOAD SWAP1 ISZERO ISZERO DUP2 MSTORE PUSH1 0x20 ADD PUSH2 0x163 JUMP JUMPDEST CALLVALUE DUP1 ISZERO PUSH2 0x223 JUMPI PUSH0 DUP1 REVERT JUMPDEST POP PUSH1 0x3 SLOAD PUSH2 0x18B SWAP1 PUSH1 0x1 PUSH1 0x1 PUSH1 0xA0 SHL SUB AND DUP2 JUMP JUMPDEST CALLVALUE DUP1 ISZERO PUSH2 0x242 JUMPI PUSH0 DUP1 REVERT JUMPDEST POP PUSH2 0x13E PUSH2 0x251 CALLDATASIZE PUSH1 0x4 PUSH2 0x11C2 JUMP JUMPDEST PUSH2 0x7DF JUMP JUMPDEST CALLVALUE DUP1 ISZERO PUSH2 0x261 JUMPI PUSH0 DUP1 REVERT JUMPDEST POP PUSH2 0x1E1 PUSH1 0x5 SLOAD DUP2 JUMP JUMPDEST PUSH2 0x13E PUSH2 0x279 CALLDATASIZE PUSH1 0x4 PUSH2 0x11D9 JUMP JUMPDEST PUSH2 0x848 JUMP JUMPDEST CALLVALUE DUP1 ISZERO PUSH2 0x289 JUMPI PUSH0 DUP1 REVERT JUMPDEST POP PUSH2 0x1E1 PUSH1 0x7 SLOAD DUP2 JUMP JUMPDEST CALLVALUE DUP1 ISZERO PUSH2 0x29E JUMPI PUSH0 DUP1 REVERT JUMPDEST POP PUSH2 0x1E1 PUSH1 0x6 SLOAD DUP2 JUMP JUMPDEST CALLVALUE DUP1 ISZERO PUSH2 0x2B3 JUMPI PUSH0 DUP1 REVERT JUMPDEST POP PUSH1 0x9 SLOAD PUSH2 0x208 SWAP1 PUSH2 0x100 SWAP1 DIV PUSH1 0xFF AND DUP2 JUMP JUMPDEST CALLVALUE DUP1 ISZERO PUSH2 0x2D1 JUMPI PUSH0 DUP1 REVERT JUMPDEST POP PUSH2 0x1E1 PUSH1 0xA SLOAD DUP2 JUMP JUMPDEST CALLVALUE DUP1 ISZERO PUSH2 0x2E6 JUMPI PUSH0 DUP1 REVERT JUMPDEST POP PUSH2 0x13E PUSH2 0x2F5 CALLDATASIZE PUSH1 0x4 PUSH2 0x11C2 JUMP JUMPDEST PUSH2 0x9AE JUMP JUMPDEST PUSH2 0x1E1 PUSH2 0xA68 JUMP JUMPDEST CALLVALUE DUP1 ISZERO PUSH2 0x30D JUMPI PUSH0 DUP1 REVERT JUMPDEST POP PUSH2 0x13E PUSH2 0x31C CALLDATASIZE PUSH1 0x4 PUSH2 0x121E JUMP JUMPDEST PUSH2 0xD33 JUMP JUMPDEST CALLVALUE DUP1 ISZERO PUSH2 0x32C JUMPI PUSH0 DUP1 REVERT JUMPDEST POP PUSH1 0x4 SLOAD PUSH2 0x18B SWAP1 PUSH1 0x1 PUSH1 0x1 PUSH1 0xA0 SHL SUB AND DUP2 JUMP JUMPDEST CALLVALUE DUP1 ISZERO PUSH2 0x34B JUMPI PUSH0 DUP1 REVERT JUMPDEST POP PUSH2 0x1E1 PUSH1 0x8 SLOAD DUP2 JUMP JUMPDEST CALLVALUE DUP1 ISZERO PUSH2 0x360 JUMPI PUSH0 DUP1 REVERT JUMPDEST POP PUSH1 0x2 SLOAD PUSH2 0x18B SWAP1 PUSH1 0x1 PUSH1 0x1 PUSH1 0xA0 SHL SUB AND DUP2 JUMP JUMPDEST PUSH1 0x2 SLOAD PUSH1 0x1 PUSH1 0x1 PUSH1 0xA0 SHL SUB AND CALLER EQ PUSH2 0x3A7 JUMPI PUSH1 0x40 MLOAD PUSH3 0x461BCD PUSH1 0xE5 SHL DUP2 MSTORE PUSH1 0x4 ADD PUSH2 0x39E SWAP1 PUSH2 0x1239 JUMP JUMPDEST PUSH1 0x40 MLOAD DUP1 SWAP2 SUB SWAP1 REVERT JUMPDEST PUSH1 0x1 PUSH1 0x1 PUSH1 0xA0 SHL SUB DUP2 AND PUSH2 0x408 JUMPI PUSH1 0x40 MLOAD PUSH3 0x461BCD PUSH1 0xE5 SHL DUP2 MSTORE PUSH1 0x20 PUSH1 0x4 DUP3 ADD MSTORE PUSH1 0x22 PUSH1 0x24 DUP3 ADD MSTORE PUSH32 0x496E697469616C697A657220616464726573732063616E6E6F74206265207A65 PUSH1 0x44 DUP3 ADD MSTORE PUSH2 0x726F PUSH1 0xF0 SHL PUSH1 0x64 DUP3 ADD MSTORE PUSH1 0x84 ADD PUSH2 0x39E JUMP JUMPDEST PUSH1 0x4 DUP1 SLOAD PUSH1 0x1 PUSH1 0x1 PUSH1 0xA0 SHL SUB NOT AND PUSH1 0x1 PUSH1 0x1 PUSH1 0xA0 SHL SUB DUP4 AND SWAP1 DUP2 OR SWAP1 SWAP2 SSTORE PUSH1 0x40 MLOAD PUSH32 0xE6223EF4A6CC26F11671126040EB90609754DF785E229F9FC28E9612CA3380BC SWAP1 PUSH0 SWAP1 LOG2 POP JUMP JUMPDEST PUSH1 0x2 SLOAD PUSH1 0x1 PUSH1 0x1 PUSH1 0xA0 SHL SUB AND CALLER EQ PUSH2 0x47B JUMPI PUSH1 0x40 MLOAD PUSH3 0x461BCD PUSH1 0xE5 SHL DUP2 MSTORE PUSH1 0x4 ADD PUSH2 0x39E SWAP1 PUSH2 0x1239 JUMP JUMPDEST PUSH1 0x8 DUP2 SWAP1 SSTORE PUSH1 0x7 SLOAD PUSH1 0x40 DUP1 MLOAD SWAP2 DUP3 MSTORE PUSH1 0x20 DUP3 ADD DUP4 SWAP1 MSTORE PUSH32 0xB841FAF0D1B32571F4EF966A2F35E3AE51F3CDDA45318C3DA5570A5B2AD85605 SWAP2 ADD JUMPDEST PUSH1 0x40 MLOAD DUP1 SWAP2 SUB SWAP1 LOG1 POP JUMP JUMPDEST PUSH0 PUSH2 0x4C9 PUSH2 0xDA6 JUMP JUMPDEST PUSH1 0x9 SLOAD PUSH1 0xFF AND ISZERO PUSH2 0x517 JUMPI PUSH1 0x40 MLOAD PUSH3 0x461BCD PUSH1 0xE5 SHL DUP2 MSTORE PUSH1 0x20 PUSH1 0x4 DUP3 ADD MSTORE PUSH1 0x18 PUSH1 0x24 DUP3 ADD MSTORE PUSH24 0x506F6F6C206D6967726174656420746F20416C6765627261 PUSH1 0x40 SHL PUSH1 0x44 DUP3 ADD MSTORE PUSH1 0x64 ADD PUSH2 0x39E JUMP JUMPDEST PUSH0 DUP3 GT PUSH2 0x55E JUMPI PUSH1 0x40 MLOAD PUSH3 0x461BCD PUSH1 0xE5 SHL DUP2 MSTORE PUSH1 0x20 PUSH1 0x4 DUP3 ADD MSTORE PUSH1 0x15 PUSH1 0x24 DUP3 ADD MSTORE PUSH21 0x4D7573742073656C6C20736F6D6520746F6B656E73 PUSH1 0x58 SHL PUSH1 0x44 DUP3 ADD MSTORE PUSH1 0x64 ADD PUSH2 0x39E JUMP JUMPDEST PUSH0 PUSH2 0x3E8 PUSH1 0x8 SLOAD DUP5 PUSH2 0x570 SWAP2 SWAP1 PUSH2 0x1284 JUMP JUMPDEST PUSH2 0x57A SWAP2 SWAP1 PUSH2 0x12A1 JUMP JUMPDEST SWAP1 POP PUSH0 PUSH2 0x587 DUP3 DUP6 PUSH2 0x12C0 JUMP JUMPDEST PUSH1 0x1 SLOAD PUSH1 0x40 MLOAD PUSH4 0x23B872DD PUSH1 0xE0 SHL DUP2 MSTORE CALLER PUSH1 0x4 DUP3 ADD MSTORE ADDRESS PUSH1 0x24 DUP3 ADD MSTORE PUSH1 0x44 DUP2 ADD DUP8 SWAP1 MSTORE SWAP2 SWAP3 POP PUSH1 0x1 PUSH1 0x1 PUSH1 0xA0 SHL SUB AND SWAP1 PUSH4 0x23B872DD SWAP1 PUSH1 0x64 ADD PUSH1 0x20 PUSH1 0x40 MLOAD DUP1 DUP4 SUB DUP2 PUSH0 DUP8 GAS CALL ISZERO DUP1 ISZERO PUSH2 0x5DC JUMPI RETURNDATASIZE PUSH0 DUP1 RETURNDATACOPY RETURNDATASIZE PUSH0 REVERT JUMPDEST POP POP POP POP PUSH1 0x40 MLOAD RETURNDATASIZE PUSH1 0x1F NOT PUSH1 0x1F DUP3 ADD AND DUP3 ADD DUP1 PUSH1 0x40 MSTORE POP DUP2 ADD SWAP1 PUSH2 0x600 SWAP2 SWAP1 PUSH2 0x12D3 JUMP JUMPDEST POP PUSH1 0x1 SLOAD PUSH1 0x3 SLOAD PUSH1 0x40 MLOAD PUSH4 0xA9059CBB PUSH1 0xE0 SHL DUP2 MSTORE PUSH1 0x1 PUSH1 0x1 PUSH1 0xA0 SHL SUB SWAP2 DUP3 AND PUSH1 0x4 DUP3 ADD MSTORE PUSH1 0x24 DUP2 ADD DUP6 SWAP1 MSTORE SWAP2 AND SWAP1 PUSH4 0xA9059CBB SWAP1 PUSH1 0x44 ADD PUSH1 0x20 PUSH1 0x40 MLOAD DUP1 DUP4 SUB DUP2 PUSH0 DUP8 GAS CALL ISZERO DUP1 ISZERO PUSH2 0x653 JUMPI RETURNDATASIZE PUSH0 DUP1 RETURNDATACOPY RETURNDATASIZE PUSH0 REVERT JUMPDEST POP POP POP POP PUSH1 0x40 MLOAD RETURNDATASIZE PUSH1 0x1F NOT PUSH1 0x1F DUP3 ADD AND DUP3 ADD DUP1 PUSH1 0x40 MSTORE POP DUP2 ADD SWAP1 PUSH2 0x677 SWAP2 SWAP1 PUSH2 0x12D3 JUMP JUMPDEST POP PUSH0 DUP2 PUSH1 0x5 SLOAD PUSH2 0x687 SWAP2 SWAP1 PUSH2 0x12EE JUMP JUMPDEST SWAP1 POP DUP1 PUSH1 0x6 SLOAD PUSH1 0x5 SLOAD PUSH2 0x69A SWAP2 SWAP1 PUSH2 0x1284 JUMP JUMPDEST PUSH2 0x6A4 SWAP2 SWAP1 PUSH2 0x12A1 JUMP JUMPDEST PUSH1 0x6 SLOAD PUSH2 0x6B1 SWAP2 SWAP1 PUSH2 0x12C0 JUMP JUMPDEST SWAP4 POP DUP1 PUSH1 0x5 DUP2 SWAP1 SSTORE POP DUP4 PUSH1 0x6 PUSH0 DUP3 DUP3 SLOAD PUSH2 0x6CB SWAP2 SWAP1 PUSH2 0x12C0 JUMP JUMPDEST SWAP1 SWAP2 SSTORE POP POP PUSH1 0x40 MLOAD PUSH0 SWAP1 CALLER SWAP1 DUP7 SWAP1 DUP4 DUP2 DUP2 DUP2 DUP6 DUP8 GAS CALL SWAP3 POP POP POP RETURNDATASIZE DUP1 PUSH0 DUP2 EQ PUSH2 0x70F JUMPI PUSH1 0x40 MLOAD SWAP2 POP PUSH1 0x1F NOT PUSH1 0x3F RETURNDATASIZE ADD AND DUP3 ADD PUSH1 0x40 MSTORE RETURNDATASIZE DUP3 MSTORE RETURNDATASIZE PUSH0 PUSH1 0x20 DUP5 ADD RETURNDATACOPY PUSH2 0x714 JUMP JUMPDEST PUSH1 0x60 SWAP2 POP JUMPDEST POP POP SWAP1 POP DUP1 PUSH2 0x75D JUMPI PUSH1 0x40 MLOAD PUSH3 0x461BCD PUSH1 0xE5 SHL DUP2 MSTORE PUSH1 0x20 PUSH1 0x4 DUP3 ADD MSTORE PUSH1 0x15 PUSH1 0x24 DUP3 ADD MSTORE PUSH21 0x115D1A195C881D1C985B9CD9995C8819985A5B1959 PUSH1 0x5A SHL PUSH1 0x44 DUP3 ADD MSTORE PUSH1 0x64 ADD PUSH2 0x39E JUMP JUMPDEST PUSH1 0x1 SLOAD PUSH1 0x40 DUP1 MLOAD DUP9 DUP2 MSTORE PUSH1 0x20 DUP2 ADD DUP9 SWAP1 MSTORE PUSH0 SWAP3 PUSH1 0x1 PUSH1 0x1 PUSH1 0xA0 SHL SUB AND SWAP2 PUSH32 0xFA2DDA1CC1B86E41239702756B13EFFBC1A092B5C57E3AD320FBE4F3B13FE235 SWAP2 ADD PUSH1 0x40 MLOAD DUP1 SWAP2 SUB SWAP1 LOG3 PUSH1 0x9 SLOAD PUSH2 0x100 SWAP1 DIV PUSH1 0xFF AND DUP1 ISZERO PUSH2 0x7C0 JUMPI POP PUSH1 0xA SLOAD PUSH1 0x6 SLOAD LT ISZERO JUMPDEST ISZERO PUSH2 0x7CD JUMPI PUSH2 0x7CD PUSH2 0xDCE JUMP JUMPDEST POP POP POP POP PUSH2 0x7DA PUSH1 0x1 PUSH0 SSTORE JUMP JUMPDEST SWAP2 SWAP1 POP JUMP JUMPDEST PUSH1 0x2 SLOAD PUSH1 0x1 PUSH1 0x1 PUSH1 0xA0 SHL SUB AND CALLER EQ PUSH2 0x809 JUMPI PUSH1 0x40 MLOAD PUSH3 0x461BCD PUSH1 0xE5 SHL DUP2 MSTORE PUSH1 0x4 ADD PUSH2 0x39E SWAP1 PUSH2 0x1239 JUMP JUMPDEST PUSH1 0x7 DUP2 SWAP1 SSTORE PUSH1 0x8 SLOAD PUSH1 0x40 DUP1 MLOAD DUP4 DUP2 MSTORE PUSH1 0x20 DUP2 ADD SWAP3 SWAP1 SWAP3 MSTORE PUSH32 0xB841FAF0D1B32571F4EF966A2F35E3AE51F3CDDA45318C3DA5570A5B2AD85605 SWAP2 ADD PUSH2 0x4B5 JUMP JUMPDEST PUSH1 0x2 SLOAD PUSH1 0x1 PUSH1 0x1 PUSH1 0xA0 SHL SUB AND CALLER EQ PUSH2 0x872 JUMPI PUSH1 0x40 MLOAD PUSH3 0x461BCD PUSH1 0xE5 SHL DUP2 MSTORE PUSH1 0x4 ADD PUSH2 0x39E SWAP1 PUSH2 0x1239 JUMP JUMPDEST PUSH2 0x87A PUSH2 0xDA6 JUMP JUMPDEST PUSH1 0x1 SLOAD PUSH1 0x1 PUSH1 0x1 PUSH1 0xA0 SHL SUB AND ISZERO PUSH2 0x8D3 JUMPI PUSH1 0x40 MLOAD PUSH3 0x461BCD PUSH1 0xE5 SHL DUP2 MSTORE PUSH1 0x20 PUSH1 0x4 DUP3 ADD MSTORE PUSH1 0x18 PUSH1 0x24 DUP3 ADD MSTORE PUSH32 0x506F6F6C20616C726561647920696E697469616C697A65640000000000000000 PUSH1 0x44 DUP3 ADD MSTORE PUSH1 0x64 ADD PUSH2 0x39E JUMP JUMPDEST PUSH0 CALLVALUE GT PUSH2 0x933 JUMPI PUSH1 0x40 MLOAD PUSH3 0x461BCD PUSH1 0xE5 SHL DUP2 MSTORE PUSH1 0x20 PUSH1 0x4 DUP3 ADD MSTORE PUSH1 0x28 PUSH1 0x24 DUP3 ADD MSTORE PUSH32 0x496E697469616C206E61746976652063757272656E6379207265736572766520 PUSH1 0x44 DUP3 ADD MSTORE PUSH8 0x1C995C5D5A5C9959 PUSH1 0xC2 SHL PUSH1 0x64 DUP3 ADD MSTORE PUSH1 0x84 ADD PUSH2 0x39E JUMP JUMPDEST PUSH1 0x1 DUP1 SLOAD PUSH1 0x1 PUSH1 0x1 PUSH1 0xA0 SHL SUB NOT AND PUSH1 0x1 PUSH1 0x1 PUSH1 0xA0 SHL SUB DUP7 AND OR SWAP1 SSTORE PUSH1 0x5 DUP4 SWAP1 SSTORE CALLVALUE PUSH1 0x6 DUP2 SWAP1 SSTORE PUSH1 0x7 DUP4 SWAP1 SSTORE PUSH1 0x8 DUP3 SWAP1 SSTORE PUSH1 0x40 DUP1 MLOAD DUP6 DUP2 MSTORE PUSH1 0x20 DUP2 ADD SWAP3 SWAP1 SWAP3 MSTORE CALLER SWAP2 PUSH32 0xAC1D76749E5447B7B16F5AB61447E1BD502F3BB4807AF3B28E620D1700A6EE45 SWAP2 ADD PUSH1 0x40 MLOAD DUP1 SWAP2 SUB SWAP1 LOG2 PUSH2 0x9A8 PUSH1 0x1 PUSH0 SSTORE JUMP JUMPDEST POP POP POP POP JUMP JUMPDEST PUSH1 0x2 SLOAD PUSH1 0x1 PUSH1 0x1 PUSH1 0xA0 SHL SUB AND CALLER EQ PUSH2 0x9D8 JUMPI PUSH1 0x40 MLOAD PUSH3 0x461BCD PUSH1 0xE5 SHL DUP2 MSTORE PUSH1 0x4 ADD PUSH2 0x39E SWAP1 PUSH2 0x1239 JUMP JUMPDEST PUSH0 DUP2 GT PUSH2 0xA33 JUMPI PUSH1 0x40 MLOAD PUSH3 0x461BCD PUSH1 0xE5 SHL DUP2 MSTORE PUSH1 0x20 PUSH1 0x4 DUP3 ADD MSTORE PUSH1 0x23 PUSH1 0x24 DUP3 ADD MSTORE PUSH32 0x5468726573686F6C64206D7573742062652067726561746572207468616E207A PUSH1 0x44 DUP3 ADD MSTORE PUSH3 0x65726F PUSH1 0xE8 SHL PUSH1 0x64 DUP3 ADD MSTORE PUSH1 0x84 ADD PUSH2 0x39E JUMP JUMPDEST PUSH1 0xA DUP2 SWAP1 SSTORE PUSH1 0x40 MLOAD DUP2 DUP2 MSTORE PUSH32 0x4AD9AE9229776F627D7D2BE995964376397890E11BBFA94E8826810419A6EF6B SWAP1 PUSH1 0x20 ADD PUSH2 0x4B5 JUMP JUMPDEST PUSH0 PUSH2 0xA71 PUSH2 0xDA6 JUMP JUMPDEST PUSH1 0x9 SLOAD PUSH1 0xFF AND ISZERO PUSH2 0xABF JUMPI PUSH1 0x40 MLOAD PUSH3 0x461BCD PUSH1 0xE5 SHL DUP2 MSTORE PUSH1 0x20 PUSH1 0x4 DUP3 ADD MSTORE PUSH1 0x18 PUSH1 0x24 DUP3 ADD MSTORE PUSH24 0x506F6F6C206D6967726174656420746F20416C6765627261 PUSH1 0x40 SHL PUSH1 0x44 DUP3 ADD MSTORE PUSH1 0x64 ADD PUSH2 0x39E JUMP JUMPDEST PUSH0 CALLVALUE GT PUSH2 0xB0E JUMPI PUSH1 0x40 MLOAD PUSH3 0x461BCD PUSH1 0xE5 SHL DUP2 MSTORE PUSH1 0x20 PUSH1 0x4 DUP3 ADD MSTORE PUSH1 0x1D PUSH1 0x24 DUP3 ADD MSTORE PUSH32 0x4D7573742073656E6420457468657220746F2062757920746F6B656E73000000 PUSH1 0x44 DUP3 ADD MSTORE PUSH1 0x64 ADD PUSH2 0x39E JUMP JUMPDEST PUSH0 PUSH2 0x3E8 PUSH1 0x7 SLOAD CALLVALUE PUSH2 0xB20 SWAP2 SWAP1 PUSH2 0x1284 JUMP JUMPDEST PUSH2 0xB2A SWAP2 SWAP1 PUSH2 0x12A1 JUMP JUMPDEST SWAP1 POP PUSH0 PUSH2 0xB37 DUP3 CALLVALUE PUSH2 0x12C0 JUMP JUMPDEST PUSH1 0x3 SLOAD PUSH1 0x40 MLOAD SWAP2 SWAP3 POP PUSH0 SWAP2 PUSH1 0x1 PUSH1 0x1 PUSH1 0xA0 SHL SUB SWAP1 SWAP2 AND SWAP1 DUP5 SWAP1 DUP4 DUP2 DUP2 DUP2 DUP6 DUP8 GAS CALL SWAP3 POP POP POP RETURNDATASIZE DUP1 PUSH0 DUP2 EQ PUSH2 0xB86 JUMPI PUSH1 0x40 MLOAD SWAP2 POP PUSH1 0x1F NOT PUSH1 0x3F RETURNDATASIZE ADD AND DUP3 ADD PUSH1 0x40 MSTORE RETURNDATASIZE DUP3 MSTORE RETURNDATASIZE PUSH0 PUSH1 0x20 DUP5 ADD RETURNDATACOPY PUSH2 0xB8B JUMP JUMPDEST PUSH1 0x60 SWAP2 POP JUMPDEST POP POP SWAP1 POP DUP1 PUSH2 0xBE6 JUMPI PUSH1 0x40 MLOAD PUSH3 0x461BCD PUSH1 0xE5 SHL DUP2 MSTORE PUSH1 0x20 PUSH1 0x4 DUP3 ADD MSTORE PUSH1 0x21 PUSH1 0x24 DUP3 ADD MSTORE PUSH32 0x4661696C656420746F2073656E642074617820746F2064657620616464726573 PUSH1 0x44 DUP3 ADD MSTORE PUSH1 0x73 PUSH1 0xF8 SHL PUSH1 0x64 DUP3 ADD MSTORE PUSH1 0x84 ADD PUSH2 0x39E JUMP JUMPDEST PUSH0 DUP3 PUSH1 0x6 SLOAD PUSH2 0xBF5 SWAP2 SWAP1 PUSH2 0x12EE JUMP JUMPDEST SWAP1 POP DUP1 PUSH1 0x6 SLOAD PUSH1 0x5 SLOAD PUSH2 0xC08 SWAP2 SWAP1 PUSH2 0x1284 JUMP JUMPDEST PUSH2 0xC12 SWAP2 SWAP1 PUSH2 0x12A1 JUMP JUMPDEST PUSH1 0x5 SLOAD PUSH2 0xC1F SWAP2 SWAP1 PUSH2 0x12C0 JUMP JUMPDEST SWAP5 POP DUP1 PUSH1 0x6 DUP2 SWAP1 SSTORE POP DUP5 PUSH1 0x5 PUSH0 DUP3 DUP3 SLOAD PUSH2 0xC39 SWAP2 SWAP1 PUSH2 0x12C0 JUMP JUMPDEST SWAP1 SWAP2 SSTORE POP POP PUSH1 0x1 SLOAD PUSH1 0x40 MLOAD PUSH4 0xA9059CBB PUSH1 0xE0 SHL DUP2 MSTORE CALLER PUSH1 0x4 DUP3 ADD MSTORE PUSH1 0x24 DUP2 ADD DUP8 SWAP1 MSTORE PUSH1 0x1 PUSH1 0x1 PUSH1 0xA0 SHL SUB SWAP1 SWAP2 AND SWAP1 PUSH4 0xA9059CBB SWAP1 PUSH1 0x44 ADD PUSH1 0x20 PUSH1 0x40 MLOAD DUP1 DUP4 SUB DUP2 PUSH0 DUP8 GAS CALL ISZERO DUP1 ISZERO PUSH2 0xC8C JUMPI RETURNDATASIZE PUSH0 DUP1 RETURNDATACOPY RETURNDATASIZE PUSH0 REVERT JUMPDEST POP POP POP POP PUSH1 0x40 MLOAD RETURNDATASIZE PUSH1 0x1F NOT PUSH1 0x1F DUP3 ADD AND DUP3 ADD DUP1 PUSH1 0x40 MSTORE POP DUP2 ADD SWAP1 PUSH2 0xCB0 SWAP2 SWAP1 PUSH2 0x12D3 JUMP JUMPDEST POP PUSH1 0x1 SLOAD PUSH1 0x40 DUP1 MLOAD CALLVALUE DUP2 MSTORE PUSH1 0x20 DUP2 ADD DUP9 SWAP1 MSTORE PUSH1 0x1 PUSH1 0x1 PUSH1 0xA0 SHL SUB SWAP1 SWAP3 AND SWAP2 PUSH0 SWAP2 PUSH32 0xFA2DDA1CC1B86E41239702756B13EFFBC1A092B5C57E3AD320FBE4F3B13FE235 SWAP2 ADD PUSH1 0x40 MLOAD DUP1 SWAP2 SUB SWAP1 LOG3 PUSH1 0x9 SLOAD PUSH2 0x100 SWAP1 DIV PUSH1 0xFF AND DUP1 ISZERO PUSH2 0xD16 JUMPI POP PUSH1 0xA SLOAD PUSH1 0x6 SLOAD LT ISZERO JUMPDEST ISZERO PUSH2 0xD23 JUMPI PUSH2 0xD23 PUSH2 0xDCE JUMP JUMPDEST POP POP POP POP PUSH2 0xD30 PUSH1 0x1 PUSH0 SSTORE JUMP JUMPDEST SWAP1 JUMP JUMPDEST PUSH1 0x2 SLOAD PUSH1 0x1 PUSH1 0x1 PUSH1 0xA0 SHL SUB AND CALLER EQ PUSH2 0xD5D JUMPI PUSH1 0x40 MLOAD PUSH3 0x461BCD PUSH1 0xE5 SHL DUP2 MSTORE PUSH1 0x4 ADD PUSH2 0x39E SWAP1 PUSH2 0x1239 JUMP JUMPDEST PUSH1 0x9 DUP1 SLOAD DUP3 ISZERO ISZERO PUSH2 0x100 MUL PUSH2 0xFF00 NOT SWAP1 SWAP2 AND OR SWAP1 SSTORE PUSH1 0x40 MLOAD PUSH32 0xE7E0BD136AB3B57E3E925774A811E2482DF79072FA45D011A4F088ABFCC209D2 SWAP1 PUSH2 0x4B5 SWAP1 DUP4 ISZERO ISZERO DUP2 MSTORE PUSH1 0x20 ADD SWAP1 JUMP JUMPDEST PUSH1 0x2 PUSH0 SLOAD SUB PUSH2 0xDC8 JUMPI PUSH1 0x40 MLOAD PUSH4 0x3EE5AEB5 PUSH1 0xE0 SHL DUP2 MSTORE PUSH1 0x4 ADD PUSH1 0x40 MLOAD DUP1 SWAP2 SUB SWAP1 REVERT JUMPDEST PUSH1 0x2 PUSH0 SSTORE JUMP JUMPDEST PUSH2 0xDD6 PUSH2 0xDA6 JUMP JUMPDEST PUSH1 0x9 SLOAD PUSH1 0xFF AND ISZERO PUSH2 0xE29 JUMPI PUSH1 0x40 MLOAD PUSH3 0x461BCD PUSH1 0xE5 SHL DUP2 MSTORE PUSH1 0x20 PUSH1 0x4 DUP3 ADD MSTORE PUSH1 0x1B PUSH1 0x24 DUP3 ADD MSTORE PUSH32 0x416C7265616479206D6967726174656420746F20416C67656272610000000000 PUSH1 0x44 DUP3 ADD MSTORE PUSH1 0x64 ADD PUSH2 0x39E JUMP JUMPDEST PUSH1 0x4 SLOAD PUSH1 0x1 PUSH1 0x1 PUSH1 0xA0 SHL SUB AND PUSH2 0xE91 JUMPI PUSH1 0x40 MLOAD PUSH3 0x461BCD PUSH1 0xE5 SHL DUP2 MSTORE PUSH1 0x20 PUSH1 0x4 DUP3 ADD MSTORE PUSH1 0x27 PUSH1 0x24 DUP3 ADD MSTORE PUSH32 0x416C676562726120506F6F6C496E697469616C697A6572206164647265737320 PUSH1 0x44 DUP3 ADD MSTORE PUSH7 0x1B9BDD081CD95D PUSH1 0xCA SHL PUSH1 0x64 DUP3 ADD MSTORE PUSH1 0x84 ADD PUSH2 0x39E JUMP JUMPDEST PUSH1 0x1 SLOAD PUSH1 0x40 MLOAD PUSH1 0x1 PUSH1 0x1 PUSH1 0xA0 SHL SUB SWAP1 SWAP2 AND PUSH1 0x24 DUP3 ADD MSTORE PUSH0 SWAP1 PUSH1 0x44 ADD PUSH1 0x40 DUP1 MLOAD PUSH1 0x1F NOT DUP2 DUP5 SUB ADD DUP2 MSTORE SWAP2 DUP2 MSTORE PUSH1 0x20 DUP3 ADD DUP1 MLOAD PUSH1 0x1 PUSH1 0x1 PUSH1 0xE0 SHL SUB AND PUSH4 0x4824FCE9 PUSH1 0xE1 SHL OR SWAP1 MSTORE PUSH1 0x4 SLOAD SWAP1 MLOAD SWAP2 SWAP3 POP PUSH0 SWAP2 DUP3 SWAP2 PUSH1 0x1 PUSH1 0x1 PUSH1 0xA0 SHL SUB AND SWAP1 PUSH2 0xEF7 SWAP1 DUP6 SWAP1 PUSH2 0x1301 JUMP JUMPDEST PUSH0 PUSH1 0x40 MLOAD DUP1 DUP4 SUB DUP2 PUSH0 DUP7 GAS CALL SWAP2 POP POP RETURNDATASIZE DUP1 PUSH0 DUP2 EQ PUSH2 0xF30 JUMPI PUSH1 0x40 MLOAD SWAP2 POP PUSH1 0x1F NOT PUSH1 0x3F RETURNDATASIZE ADD AND DUP3 ADD PUSH1 0x40 MSTORE RETURNDATASIZE DUP3 MSTORE RETURNDATASIZE PUSH0 PUSH1 0x20 DUP5 ADD RETURNDATACOPY PUSH2 0xF35 JUMP JUMPDEST PUSH1 0x60 SWAP2 POP JUMPDEST POP SWAP2 POP SWAP2 POP DUP2 PUSH2 0xF87 JUMPI PUSH1 0x40 MLOAD PUSH3 0x461BCD PUSH1 0xE5 SHL DUP2 MSTORE PUSH1 0x20 PUSH1 0x4 DUP3 ADD MSTORE PUSH1 0x1C PUSH1 0x24 DUP3 ADD MSTORE PUSH32 0x416C676562726120706F6F6C206372656174696F6E206661696C656400000000 PUSH1 0x44 DUP3 ADD MSTORE PUSH1 0x64 ADD PUSH2 0x39E JUMP JUMPDEST PUSH0 DUP2 DUP1 PUSH1 0x20 ADD SWAP1 MLOAD DUP2 ADD SWAP1 PUSH2 0xF9C SWAP2 SWAP1 PUSH2 0x1317 JUMP JUMPDEST SWAP1 POP PUSH1 0x1 PUSH1 0x1 PUSH1 0xA0 SHL SUB DUP2 AND PUSH2 0xFF4 JUMPI PUSH1 0x40 MLOAD PUSH3 0x461BCD PUSH1 0xE5 SHL DUP2 MSTORE PUSH1 0x20 PUSH1 0x4 DUP3 ADD MSTORE PUSH1 0x1C PUSH1 0x24 DUP3 ADD MSTORE PUSH32 0x496E76616C696420416C676562726120706F6F6C206164647265737300000000 PUSH1 0x44 DUP3 ADD MSTORE PUSH1 0x64 ADD PUSH2 0x39E JUMP JUMPDEST PUSH1 0x1 SLOAD PUSH1 0x5 SLOAD PUSH1 0x40 MLOAD PUSH4 0xA9059CBB PUSH1 0xE0 SHL DUP2 MSTORE PUSH1 0x1 PUSH1 0x1 PUSH1 0xA0 SHL SUB DUP5 DUP2 AND PUSH1 0x4 DUP4 ADD MSTORE PUSH1 0x24 DUP3 ADD SWAP3 SWAP1 SWAP3 MSTORE SWAP2 AND SWAP1 PUSH4 0xA9059CBB SWAP1 PUSH1 0x44 ADD PUSH1 0x20 PUSH1 0x40 MLOAD DUP1 DUP4 SUB DUP2 PUSH0 DUP8 GAS CALL ISZERO DUP1 ISZERO PUSH2 0x1047 JUMPI RETURNDATASIZE PUSH0 DUP1 RETURNDATACOPY RETURNDATASIZE PUSH0 REVERT JUMPDEST POP POP POP POP PUSH1 0x40 MLOAD RETURNDATASIZE PUSH1 0x1F NOT PUSH1 0x1F DUP3 ADD AND DUP3 ADD DUP1 PUSH1 0x40 MSTORE POP DUP2 ADD SWAP1 PUSH2 0x106B SWAP2 SWAP1 PUSH2 0x12D3 JUMP JUMPDEST POP PUSH1 0x6 SLOAD PUSH1 0x40 MLOAD PUSH0 SWAP2 PUSH1 0x1 PUSH1 0x1 PUSH1 0xA0 SHL SUB DUP5 AND SWAP2 DUP4 DUP2 DUP2 DUP2 DUP6 DUP8 GAS CALL SWAP3 POP POP POP RETURNDATASIZE DUP1 PUSH0 DUP2 EQ PUSH2 0x10B5 JUMPI PUSH1 0x40 MLOAD SWAP2 POP PUSH1 0x1F NOT PUSH1 0x3F RETURNDATASIZE ADD AND DUP3 ADD PUSH1 0x40 MSTORE RETURNDATASIZE DUP3 MSTORE RETURNDATASIZE PUSH0 PUSH1 0x20 DUP5 ADD RETURNDATACOPY PUSH2 0x10BA JUMP JUMPDEST PUSH1 0x60 SWAP2 POP JUMPDEST POP POP SWAP1 POP DUP1 PUSH2 0x111C JUMPI PUSH1 0x40 MLOAD PUSH3 0x461BCD PUSH1 0xE5 SHL DUP2 MSTORE PUSH1 0x20 PUSH1 0x4 DUP3 ADD MSTORE PUSH1 0x28 PUSH1 0x24 DUP3 ADD MSTORE PUSH32 0x4661696C656420746F207472616E7366657220457468657220746F20416C6765 PUSH1 0x44 DUP3 ADD MSTORE PUSH8 0x189C98481C1BDBDB PUSH1 0xC2 SHL PUSH1 0x64 DUP3 ADD MSTORE PUSH1 0x84 ADD PUSH2 0x39E JUMP JUMPDEST PUSH1 0x9 DUP1 SLOAD PUSH1 0xFF NOT AND PUSH1 0x1 OR SWAP1 SSTORE PUSH1 0x5 SLOAD PUSH1 0x6 SLOAD PUSH1 0x40 MLOAD PUSH1 0x1 PUSH1 0x1 PUSH1 0xA0 SHL SUB DUP6 AND SWAP3 PUSH32 0x681FA2C4629192623C409B90CB2463CEA250BD2012F3AC5F34AF5CFA45D4822A SWAP3 PUSH2 0x1171 SWAP3 SWAP2 DUP3 MSTORE PUSH1 0x20 DUP3 ADD MSTORE PUSH1 0x40 ADD SWAP1 JUMP JUMPDEST PUSH1 0x40 MLOAD DUP1 SWAP2 SUB SWAP1 LOG2 POP POP POP POP POP PUSH2 0x1187 PUSH1 0x1 PUSH0 SSTORE JUMP JUMPDEST JUMP JUMPDEST PUSH1 0x1 PUSH1 0x1 PUSH1 0xA0 SHL SUB DUP2 AND DUP2 EQ PUSH2 0x119D JUMPI PUSH0 DUP1 REVERT JUMPDEST POP JUMP JUMPDEST PUSH0 PUSH1 0x20 DUP3 DUP5 SUB SLT ISZERO PUSH2 0x11B0 JUMPI PUSH0 DUP1 REVERT JUMPDEST DUP2 CALLDATALOAD PUSH2 0x11BB DUP2 PUSH2 0x1189 JUMP JUMPDEST SWAP4 SWAP3 POP POP POP JUMP JUMPDEST PUSH0 PUSH1 0x20 DUP3 DUP5 SUB SLT ISZERO PUSH2 0x11D2 JUMPI PUSH0 DUP1 REVERT JUMPDEST POP CALLDATALOAD SWAP2 SWAP1 POP JUMP JUMPDEST PUSH0 DUP1 PUSH0 DUP1 PUSH1 0x80 DUP6 DUP8 SUB SLT ISZERO PUSH2 0x11EC JUMPI PUSH0 DUP1 REVERT JUMPDEST DUP5 CALLDATALOAD PUSH2 0x11F7 DUP2 PUSH2 0x1189 JUMP JUMPDEST SWAP7 PUSH1 0x20 DUP7 ADD CALLDATALOAD SWAP7 POP PUSH1 0x40 DUP7 ADD CALLDATALOAD SWAP6 PUSH1 0x60 ADD CALLDATALOAD SWAP5 POP SWAP3 POP POP POP JUMP JUMPDEST DUP1 ISZERO ISZERO DUP2 EQ PUSH2 0x119D JUMPI PUSH0 DUP1 REVERT JUMPDEST PUSH0 PUSH1 0x20 DUP3 DUP5 SUB SLT ISZERO PUSH2 0x122E JUMPI PUSH0 DUP1 REVERT JUMPDEST DUP2 CALLDATALOAD PUSH2 0x11BB DUP2 PUSH2 0x1211 JUMP JUMPDEST PUSH1 0x20 DUP1 DUP3 MSTORE PUSH1 0x1E SWAP1 DUP3 ADD MSTORE PUSH32 0x43616C6C6572206973206E6F742074686520546F6B656E466163746F72790000 PUSH1 0x40 DUP3 ADD MSTORE PUSH1 0x60 ADD SWAP1 JUMP JUMPDEST PUSH4 0x4E487B71 PUSH1 0xE0 SHL PUSH0 MSTORE PUSH1 0x11 PUSH1 0x4 MSTORE PUSH1 0x24 PUSH0 REVERT JUMPDEST DUP1 DUP3 MUL DUP2 ISZERO DUP3 DUP3 DIV DUP5 EQ OR PUSH2 0x129B JUMPI PUSH2 0x129B PUSH2 0x1270 JUMP JUMPDEST SWAP3 SWAP2 POP POP JUMP JUMPDEST PUSH0 DUP3 PUSH2 0x12BB JUMPI PUSH4 0x4E487B71 PUSH1 0xE0 SHL PUSH0 MSTORE PUSH1 0x12 PUSH1 0x4 MSTORE PUSH1 0x24 PUSH0 REVERT JUMPDEST POP DIV SWAP1 JUMP JUMPDEST DUP2 DUP2 SUB DUP2 DUP2 GT ISZERO PUSH2 0x129B JUMPI PUSH2 0x129B PUSH2 0x1270 JUMP JUMPDEST PUSH0 PUSH1 0x20 DUP3 DUP5 SUB SLT ISZERO PUSH2 0x12E3 JUMPI PUSH0 DUP1 REVERT JUMPDEST DUP2 MLOAD PUSH2 0x11BB DUP2 PUSH2 0x1211 JUMP JUMPDEST DUP1 DUP3 ADD DUP1 DUP3 GT ISZERO PUSH2 0x129B JUMPI PUSH2 0x129B PUSH2 0x1270 JUMP JUMPDEST PUSH0 DUP3 MLOAD DUP1 PUSH1 0x20 DUP6 ADD DUP5 MCOPY PUSH0 SWAP3 ADD SWAP2 DUP3 MSTORE POP SWAP2 SWAP1 POP JUMP JUMPDEST PUSH0 PUSH1 0x20 DUP3 DUP5 SUB SLT ISZERO PUSH2 0x1327 JUMPI PUSH0 DUP1 REVERT JUMPDEST DUP2 MLOAD PUSH2 0x11BB DUP2 PUSH2 0x1189 JUMP INVALID LOG2 PUSH5 0x6970667358 0x22 SLT KECCAK256 0xD8 0xEB SHR 0x1E DELEGATECALL 0xE5 PUSH17 0xEB0DF9082A37A008C80725CD1E3E2A8CC0 0xE6 PUSH18 0xB94EEA80F45A64736F6C634300081A0033A2 PUSH5 0x6970667358 0x22 SLT KECCAK256 0xE1 PUSH15 0x81990C2A65FA3CFC23108E4345897E 0xCE XOR 0xBF KECCAK256 POP 0xC 0xDA 0xC7 DUP4 0xE5 SWAP16 PUSH0 0xD 0xAC 0xF PUSH5 0x736F6C6343 STOP ADDMOD BYTE STOP CALLER "
		},
		"gasEstimates": {
			"creation": {
				"codeDepositCost": "2922000",
				"executionCost": "infinite",
				"totalCost": "infinite"
			},
			"external": {
				"DAO_RETRIBUTION_PERCENTAGE()": "251",
				"INITIAL_TOKEN_SUPPLY()": "293",
				"MAX_TOTAL_TAX()": "316",
				"algebraPoolInitializer()": "2381",
				"allTokens(uint256)": "6821",
				"createToken(string,string)": "infinite",
				"creationCost()": "2307",
				"daoAddress()": "2404",
				"defaultBuyTax()": "2373",
				"defaultMigrationThreshold()": "2350",
				"defaultSellTax()": "2371",
				"devAddress()": "2470",
				"getAllTokens()": "infinite",
				"getTotalTokensCreated()": "2326",
				"owner()": "2396",
				"renounceOwnership()": "infinite",
				"togglePoolMigration(address,bool)": "infinite",
				"tokenByName(string)": "infinite",
				"tokenToPool(address)": "2644",
				"transferOwnership(address)": "28395",
				"updateAlgebraInitializer(address)": "27950",
				"updateCreationCost(uint256)": "25639",
				"updateDefaultTaxes(uint256,uint256)": "48082",
				"updatePoolBuyTax(address,uint256)": "infinite",
				"updatePoolMigrationThreshold(address,uint256)": "infinite",
				"updatePoolSellTax(address,uint256)": "infinite"
			}
		},
		"methodIdentifiers": {
			"DAO_RETRIBUTION_PERCENTAGE()": "4f370d24",
			"INITIAL_TOKEN_SUPPLY()": "f975f3a2",
			"MAX_TOTAL_TAX()": "bd5f2b0f",
			"algebraPoolInitializer()": "c98b7fd2",
			"allTokens(uint256)": "634282af",
			"createToken(string,string)": "2f2f2d56",
			"creationCost()": "14e60813",
			"daoAddress()": "2131c68c",
			"defaultBuyTax()": "62d07f1a",
			"defaultMigrationThreshold()": "d785a584",
			"defaultSellTax()": "f3465c26",
			"devAddress()": "3ad10ef6",
			"getAllTokens()": "2a5c792a",
			"getTotalTokensCreated()": "1d66d690",
			"owner()": "8da5cb5b",
			"renounceOwnership()": "715018a6",
			"togglePoolMigration(address,bool)": "9a0c2d46",
			"tokenByName(string)": "7b6e7975",
			"tokenToPool(address)": "989796b5",
			"transferOwnership(address)": "f2fde38b",
			"updateAlgebraInitializer(address)": "844b67b7",
			"updateCreationCost(uint256)": "68b64ec9",
			"updateDefaultTaxes(uint256,uint256)": "7cdb1e46",
			"updatePoolBuyTax(address,uint256)": "ee06dbba",
			"updatePoolMigrationThreshold(address,uint256)": "d8a87700",
			"updatePoolSellTax(address,uint256)": "4047fdcc"
		}
	},
	"abi": [
		{
			"inputs": [
				{
					"internalType": "address",
					"name": "_devAddress",
					"type": "address"
				},
				{
					"internalType": "address",
					"name": "_daoAddress",
					"type": "address"
				},
				{
					"internalType": "address",
					"name": "_algebraInitializer",
					"type": "address"
				}
			],
			"stateMutability": "nonpayable",
			"type": "constructor"
		},
		{
			"inputs": [
				{
					"internalType": "address",
					"name": "owner",
					"type": "address"
				}
			],
			"name": "OwnableInvalidOwner",
			"type": "error"
		},
		{
			"inputs": [
				{
					"internalType": "address",
					"name": "account",
					"type": "address"
				}
			],
			"name": "OwnableUnauthorizedAccount",
			"type": "error"
		},
		{
			"anonymous": false,
			"inputs": [
				{
					"indexed": true,
					"internalType": "address",
					"name": "newInitializer",
					"type": "address"
				}
			],
			"name": "AlgebraInitializerUpdated",
			"type": "event"
		},
		{
			"anonymous": false,
			"inputs": [
				{
					"indexed": false,
					"internalType": "uint256",
					"name": "newCost",
					"type": "uint256"
				}
			],
			"name": "CreationCostUpdated",
			"type": "event"
		},
		{
			"anonymous": false,
			"inputs": [
				{
					"indexed": false,
					"internalType": "uint256",
					"name": "newBuyTax",
					"type": "uint256"
				},
				{
					"indexed": false,
					"internalType": "uint256",
					"name": "newSellTax",
					"type": "uint256"
				}
			],
			"name": "DefaultTaxesUpdated",
			"type": "event"
		},
		{
			"anonymous": false,
			"inputs": [
				{
					"indexed": true,
					"internalType": "address",
					"name": "poolAddress",
					"type": "address"
				},
				{
					"indexed": false,
					"internalType": "uint256",
					"name": "newThreshold",
					"type": "uint256"
				}
			],
			"name": "MigrationThresholdUpdated",
			"type": "event"
		},
		{
			"anonymous": false,
			"inputs": [
				{
					"indexed": true,
					"internalType": "address",
					"name": "poolAddress",
					"type": "address"
				},
				{
					"indexed": false,
					"internalType": "bool",
					"name": "enabled",
					"type": "bool"
				}
			],
			"name": "MigrationToggled",
			"type": "event"
		},
		{
			"anonymous": false,
			"inputs": [
				{
					"indexed": true,
					"internalType": "address",
					"name": "previousOwner",
					"type": "address"
				},
				{
					"indexed": true,
					"internalType": "address",
					"name": "newOwner",
					"type": "address"
				}
			],
			"name": "OwnershipTransferred",
			"type": "event"
		},
		{
			"anonymous": false,
			"inputs": [
				{
					"indexed": true,
					"internalType": "address",
					"name": "poolAddress",
					"type": "address"
				},
				{
					"indexed": false,
					"internalType": "uint256",
					"name": "newBuyTax",
					"type": "uint256"
				}
			],
			"name": "PoolBuyTaxUpdated",
			"type": "event"
		},
		{
			"anonymous": false,
			"inputs": [
				{
					"indexed": true,
					"internalType": "address",
					"name": "poolAddress",
					"type": "address"
				},
				{
					"indexed": false,
					"internalType": "uint256",
					"name": "newSellTax",
					"type": "uint256"
				}
			],
			"name": "PoolSellTaxUpdated",
			"type": "event"
		},
		{
			"anonymous": false,
			"inputs": [
				{
					"indexed": true,
					"internalType": "address",
					"name": "tokenAddress",
					"type": "address"
				},
				{
					"indexed": false,
					"internalType": "string",
					"name": "name",
					"type": "string"
				},
				{
					"indexed": false,
					"internalType": "string",
					"name": "symbol",
					"type": "string"
				},
				{
					"indexed": true,
					"internalType": "address",
					"name": "poolAddress",
					"type": "address"
				}
			],
			"name": "TokenCreated",
			"type": "event"
		},
		{
			"inputs": [],
			"name": "DAO_RETRIBUTION_PERCENTAGE",
			"outputs": [
				{
					"internalType": "uint256",
					"name": "",
					"type": "uint256"
				}
			],
			"stateMutability": "view",
			"type": "function"
		},
		{
			"inputs": [],
			"name": "INITIAL_TOKEN_SUPPLY",
			"outputs": [
				{
					"internalType": "uint256",
					"name": "",
					"type": "uint256"
				}
			],
			"stateMutability": "view",
			"type": "function"
		},
		{
			"inputs": [],
			"name": "MAX_TOTAL_TAX",
			"outputs": [
				{
					"internalType": "uint256",
					"name": "",
					"type": "uint256"
				}
			],
			"stateMutability": "view",
			"type": "function"
		},
		{
			"inputs": [],
			"name": "algebraPoolInitializer",
			"outputs": [
				{
					"internalType": "address",
					"name": "",
					"type": "address"
				}
			],
			"stateMutability": "view",
			"type": "function"
		},
		{
			"inputs": [
				{
					"internalType": "uint256",
					"name": "",
					"type": "uint256"
				}
			],
			"name": "allTokens",
			"outputs": [
				{
					"internalType": "address",
					"name": "tokenAddress",
					"type": "address"
				},
				{
					"internalType": "address",
					"name": "liquidityPoolAddress",
					"type": "address"
				}
			],
			"stateMutability": "view",
			"type": "function"
		},
		{
			"inputs": [
				{
					"internalType": "string",
					"name": "name",
					"type": "string"
				},
				{
					"internalType": "string",
					"name": "symbol",
					"type": "string"
				}
			],
			"name": "createToken",
			"outputs": [
				{
					"internalType": "address",
					"name": "",
					"type": "address"
				}
			],
			"stateMutability": "payable",
			"type": "function"
		},
		{
			"inputs": [],
			"name": "creationCost",
			"outputs": [
				{
					"internalType": "uint256",
					"name": "",
					"type": "uint256"
				}
			],
			"stateMutability": "view",
			"type": "function"
		},
		{
			"inputs": [],
			"name": "daoAddress",
			"outputs": [
				{
					"internalType": "address",
					"name": "",
					"type": "address"
				}
			],
			"stateMutability": "view",
			"type": "function"
		},
		{
			"inputs": [],
			"name": "defaultBuyTax",
			"outputs": [
				{
					"internalType": "uint256",
					"name": "",
					"type": "uint256"
				}
			],
			"stateMutability": "view",
			"type": "function"
		},
		{
			"inputs": [],
			"name": "defaultMigrationThreshold",
			"outputs": [
				{
					"internalType": "uint256",
					"name": "",
					"type": "uint256"
				}
			],
			"stateMutability": "view",
			"type": "function"
		},
		{
			"inputs": [],
			"name": "defaultSellTax",
			"outputs": [
				{
					"internalType": "uint256",
					"name": "",
					"type": "uint256"
				}
			],
			"stateMutability": "view",
			"type": "function"
		},
		{
			"inputs": [],
			"name": "devAddress",
			"outputs": [
				{
					"internalType": "address",
					"name": "",
					"type": "address"
				}
			],
			"stateMutability": "view",
			"type": "function"
		},
		{
			"inputs": [],
			"name": "getAllTokens",
			"outputs": [
				{
					"components": [
						{
							"internalType": "address",
							"name": "tokenAddress",
							"type": "address"
						},
						{
							"internalType": "address",
							"name": "liquidityPoolAddress",
							"type": "address"
						}
					],
					"internalType": "struct TokenFactory.TokenInfo[]",
					"name": "",
					"type": "tuple[]"
				}
			],
			"stateMutability": "view",
			"type": "function"
		},
		{
			"inputs": [],
			"name": "getTotalTokensCreated",
			"outputs": [
				{
					"internalType": "uint256",
					"name": "",
					"type": "uint256"
				}
			],
			"stateMutability": "view",
			"type": "function"
		},
		{
			"inputs": [],
			"name": "owner",
			"outputs": [
				{
					"internalType": "address",
					"name": "",
					"type": "address"
				}
			],
			"stateMutability": "view",
			"type": "function"
		},
		{
			"inputs": [],
			"name": "renounceOwnership",
			"outputs": [],
			"stateMutability": "nonpayable",
			"type": "function"
		},
		{
			"inputs": [
				{
					"internalType": "address",
					"name": "poolAddress",
					"type": "address"
				},
				{
					"internalType": "bool",
					"name": "enable",
					"type": "bool"
				}
			],
			"name": "togglePoolMigration",
			"outputs": [],
			"stateMutability": "nonpayable",
			"type": "function"
		},
		{
			"inputs": [
				{
					"internalType": "string",
					"name": "",
					"type": "string"
				}
			],
			"name": "tokenByName",
			"outputs": [
				{
					"internalType": "address",
					"name": "",
					"type": "address"
				}
			],
			"stateMutability": "view",
			"type": "function"
		},
		{
			"inputs": [
				{
					"internalType": "address",
					"name": "",
					"type": "address"
				}
			],
			"name": "tokenToPool",
			"outputs": [
				{
					"internalType": "address",
					"name": "",
					"type": "address"
				}
			],
			"stateMutability": "view",
			"type": "function"
		},
		{
			"inputs": [
				{
					"internalType": "address",
					"name": "newOwner",
					"type": "address"
				}
			],
			"name": "transferOwnership",
			"outputs": [],
			"stateMutability": "nonpayable",
			"type": "function"
		},
		{
			"inputs": [
				{
					"internalType": "address",
					"name": "newInitializer",
					"type": "address"
				}
			],
			"name": "updateAlgebraInitializer",
			"outputs": [],
			"stateMutability": "nonpayable",
			"type": "function"
		},
		{
			"inputs": [
				{
					"internalType": "uint256",
					"name": "newCost",
					"type": "uint256"
				}
			],
			"name": "updateCreationCost",
			"outputs": [],
			"stateMutability": "nonpayable",
			"type": "function"
		},
		{
			"inputs": [
				{
					"internalType": "uint256",
					"name": "newBuyTax",
					"type": "uint256"
				},
				{
					"internalType": "uint256",
					"name": "newSellTax",
					"type": "uint256"
				}
			],
			"name": "updateDefaultTaxes",
			"outputs": [],
			"stateMutability": "nonpayable",
			"type": "function"
		},
		{
			"inputs": [
				{
					"internalType": "address",
					"name": "poolAddress",
					"type": "address"
				},
				{
					"internalType": "uint256",
					"name": "newBuyTax",
					"type": "uint256"
				}
			],
			"name": "updatePoolBuyTax",
			"outputs": [],
			"stateMutability": "nonpayable",
			"type": "function"
		},
		{
			"inputs": [
				{
					"internalType": "address",
					"name": "poolAddress",
					"type": "address"
				},
				{
					"internalType": "uint256",
					"name": "newThreshold",
					"type": "uint256"
				}
			],
			"name": "updatePoolMigrationThreshold",
			"outputs": [],
			"stateMutability": "nonpayable",
			"type": "function"
		},
		{
			"inputs": [
				{
					"internalType": "address",
					"name": "poolAddress",
					"type": "address"
				},
				{
					"internalType": "uint256",
					"name": "newSellTax",
					"type": "uint256"
				}
			],
			"name": "updatePoolSellTax",
			"outputs": [],
			"stateMutability": "nonpayable",
			"type": "function"
		}
	]
}