{
	"contracts/launchpad/launchpad.sol": {
		"Launchpad": {
			"abi": [
				{
					"inputs": [
						{
							"internalType": "contract IERC20",
							"name": "_token",
							"type": "address"
						}
					],
					"stateMutability": "nonpayable",
					"type": "constructor"
				},
				{
					"inputs": [
						{
							"internalType": "address",
							"name": "owner",
							"type": "address"
						}
					],
					"name": "OwnableInvalidOwner",
					"type": "error"
				},
				{
					"inputs": [
						{
							"internalType": "address",
							"name": "account",
							"type": "address"
						}
					],
					"name": "OwnableUnauthorizedAccount",
					"type": "error"
				},
				{
					"anonymous": false,
					"inputs": [
						{
							"indexed": true,
							"internalType": "address",
							"name": "previousOwner",
							"type": "address"
						},
						{
							"indexed": true,
							"internalType": "address",
							"name": "newOwner",
							"type": "address"
						}
					],
					"name": "OwnershipTransferred",
					"type": "event"
				},
				{
					"inputs": [],
					"name": "DURATION",
					"outputs": [
						{
							"internalType": "uint256",
							"name": "",
							"type": "uint256"
						}
					],
					"stateMutability": "view",
					"type": "function"
				},
				{
					"inputs": [],
					"name": "MAX_TOKENS",
					"outputs": [
						{
							"internalType": "uint256",
							"name": "",
							"type": "uint256"
						}
					],
					"stateMutability": "view",
					"type": "function"
				},
				{
					"inputs": [],
					"name": "PRICE_PER_TOKEN",
					"outputs": [
						{
							"internalType": "uint256",
							"name": "",
							"type": "uint256"
						}
					],
					"stateMutability": "view",
					"type": "function"
				},
				{
					"inputs": [
						{
							"internalType": "uint256",
							"name": "",
							"type": "uint256"
						}
					],
					"name": "allContributors",
					"outputs": [
						{
							"internalType": "address",
							"name": "",
							"type": "address"
						}
					],
					"stateMutability": "view",
					"type": "function"
				},
				{
					"inputs": [],
					"name": "contribute",
					"outputs": [],
					"stateMutability": "payable",
					"type": "function"
				},
				{
					"inputs": [
						{
							"internalType": "address",
							"name": "",
							"type": "address"
						}
					],
					"name": "contributions",
					"outputs": [
						{
							"internalType": "uint256",
							"name": "",
							"type": "uint256"
						}
					],
					"stateMutability": "view",
					"type": "function"
				},
				{
					"inputs": [
						{
							"internalType": "address",
							"name": "",
							"type": "address"
						}
					],
					"name": "contributionsInTokens",
					"outputs": [
						{
							"internalType": "uint256",
							"name": "",
							"type": "uint256"
						}
					],
					"stateMutability": "view",
					"type": "function"
				},
				{
					"inputs": [],
					"name": "distributeTokens",
					"outputs": [],
					"stateMutability": "nonpayable",
					"type": "function"
				},
				{
					"inputs": [
						{
							"internalType": "address",
							"name": "_wallet",
							"type": "address"
						}
					],
					"name": "getAmountPerWallet",
					"outputs": [
						{
							"internalType": "uint256",
							"name": "",
							"type": "uint256"
						}
					],
					"stateMutability": "view",
					"type": "function"
				},
				{
					"inputs": [],
					"name": "launchpadEndTime",
					"outputs": [
						{
							"internalType": "uint256",
							"name": "",
							"type": "uint256"
						}
					],
					"stateMutability": "view",
					"type": "function"
				},
				{
					"inputs": [],
					"name": "launchpadStartTime",
					"outputs": [
						{
							"internalType": "uint256",
							"name": "",
							"type": "uint256"
						}
					],
					"stateMutability": "view",
					"type": "function"
				},
				{
					"inputs": [],
					"name": "maxAmountPerWallet",
					"outputs": [
						{
							"internalType": "uint256",
							"name": "",
							"type": "uint256"
						}
					],
					"stateMutability": "view",
					"type": "function"
				},
				{
					"inputs": [],
					"name": "owner",
					"outputs": [
						{
							"internalType": "address",
							"name": "",
							"type": "address"
						}
					],
					"stateMutability": "view",
					"type": "function"
				},
				{
					"inputs": [],
					"name": "refundAll",
					"outputs": [],
					"stateMutability": "nonpayable",
					"type": "function"
				},
				{
					"inputs": [
						{
							"internalType": "address",
							"name": "",
							"type": "address"
						}
					],
					"name": "remainingTokenAvailablePerWallet",
					"outputs": [
						{
							"internalType": "uint256",
							"name": "",
							"type": "uint256"
						}
					],
					"stateMutability": "view",
					"type": "function"
				},
				{
					"inputs": [],
					"name": "renounceOwnership",
					"outputs": [],
					"stateMutability": "nonpayable",
					"type": "function"
				},
				{
					"inputs": [
						{
							"internalType": "uint256",
							"name": "value",
							"type": "uint256"
						}
					],
					"name": "setMaxAmountPerWallet",
					"outputs": [],
					"stateMutability": "nonpayable",
					"type": "function"
				},
				{
					"inputs": [
						{
							"internalType": "uint256",
							"name": "value",
							"type": "uint256"
						}
					],
					"name": "setPrice",
					"outputs": [],
					"stateMutability": "nonpayable",
					"type": "function"
				},
				{
					"inputs": [
						{
							"internalType": "uint256",
							"name": "date",
							"type": "uint256"
						}
					],
					"name": "setStartLaunchpadTime",
					"outputs": [],
					"stateMutability": "nonpayable",
					"type": "function"
				},
				{
					"inputs": [
						{
							"internalType": "address",
							"name": "_taxCollector",
							"type": "address"
						}
					],
					"name": "setTaxCollector",
					"outputs": [],
					"stateMutability": "nonpayable",
					"type": "function"
				},
				{
					"inputs": [],
					"name": "taxCollector",
					"outputs": [
						{
							"internalType": "address",
							"name": "",
							"type": "address"
						}
					],
					"stateMutability": "view",
					"type": "function"
				},
				{
					"inputs": [],
					"name": "token",
					"outputs": [
						{
							"internalType": "contract IERC20",
							"name": "",
							"type": "address"
						}
					],
					"stateMutability": "view",
					"type": "function"
				},
				{
					"inputs": [],
					"name": "totalContributions",
					"outputs": [
						{
							"internalType": "uint256",
							"name": "",
							"type": "uint256"
						}
					],
					"stateMutability": "view",
					"type": "function"
				},
				{
					"inputs": [],
					"name": "totalTokensSold",
					"outputs": [
						{
							"internalType": "uint256",
							"name": "",
							"type": "uint256"
						}
					],
					"stateMutability": "view",
					"type": "function"
				},
				{
					"inputs": [
						{
							"internalType": "address",
							"name": "newOwner",
							"type": "address"
						}
					],
					"name": "transferOwnership",
					"outputs": [],
					"stateMutability": "nonpayable",
					"type": "function"
				},
				{
					"inputs": [],
					"name": "withdrawFunds",
					"outputs": [],
					"stateMutability": "nonpayable",
					"type": "function"
				}
			],
			"devdoc": {
				"errors": {
					"OwnableInvalidOwner(address)": [
						{
							"details": "The owner is not a valid owner account. (eg. `address(0)`)"
						}
					],
					"OwnableUnauthorizedAccount(address)": [
						{
							"details": "The caller account is not authorized to perform an operation."
						}
					]
				},
				"kind": "dev",
				"methods": {
					"owner()": {
						"details": "Returns the address of the current owner."
					},
					"renounceOwnership()": {
						"details": "Leaves the contract without owner. It will not be possible to call `onlyOwner` functions. Can only be called by the current owner. NOTE: Renouncing ownership will leave the contract without an owner, thereby disabling any functionality that is only available to the owner."
					},
					"transferOwnership(address)": {
						"details": "Transfers ownership of the contract to a new account (`newOwner`). Can only be called by the current owner."
					}
				},
				"version": 1
			},
			"evm": {
				"assembly": "    /* \"contracts/launchpad/launchpad.sol\":168:5187  contract Launchpad is Ownable {... */\n  mstore(0x40, 0x80)\n    /* \"contracts/launchpad/launchpad.sol\":301:316  0.0000016 ether */\n  0x0174876e8000\n    /* \"contracts/launchpad/launchpad.sol\":267:316  uint256 public  PRICE_PER_TOKEN = 0.0000016 ether */\n  0x02\n  sstore\n    /* \"contracts/launchpad/launchpad.sol\":514:529  0.083 * 1 ether */\n  0x0126e00f6c5b8000\n    /* \"contracts/launchpad/launchpad.sol\":477:529  uint256 public  maxAmountPerWallet = 0.083 * 1 ether */\n  0x03\n  sstore\n    /* \"contracts/launchpad/launchpad.sol\":1129:1262  constructor(IERC20 _token) Ownable(msg.sender) {... */\n  callvalue\n  dup1\n  iszero\n  tag_1\n  jumpi\n  0x00\n  dup1\n  revert\ntag_1:\n  pop\n  mload(0x40)\n  sub(codesize, bytecodeSize)\n  dup1\n  bytecodeSize\n  dup4\n  codecopy\n  dup2\n  dup2\n  add\n  0x40\n  mstore\n  dup2\n  add\n  swap1\n  tag_2\n  swap2\n  swap1\n  tag_3\n  jump\t// in\ntag_2:\n    /* \"contracts/launchpad/launchpad.sol\":1164:1174  msg.sender */\n  caller\n    /* \"@openzeppelin/contracts/access/Ownable.sol\":1297:1298  0 */\n  0x00\n    /* \"@openzeppelin/contracts/access/Ownable.sol\":1273:1299  initialOwner == address(0) */\n  0xffffffffffffffffffffffffffffffffffffffff\n  and\n    /* \"@openzeppelin/contracts/access/Ownable.sol\":1273:1285  initialOwner */\n  dup2\n    /* \"@openzeppelin/contracts/access/Ownable.sol\":1273:1299  initialOwner == address(0) */\n  0xffffffffffffffffffffffffffffffffffffffff\n  and\n  sub\n    /* \"@openzeppelin/contracts/access/Ownable.sol\":1269:1364  if (initialOwner == address(0)) {... */\n  tag_7\n  jumpi\n    /* \"@openzeppelin/contracts/access/Ownable.sol\":1350:1351  0 */\n  0x00\n    /* \"@openzeppelin/contracts/access/Ownable.sol\":1322:1353  OwnableInvalidOwner(address(0)) */\n  mload(0x40)\n  0x1e4fbdf700000000000000000000000000000000000000000000000000000000\n  dup2\n  mstore\n  0x04\n  add\n  tag_8\n  swap2\n  swap1\n  tag_9\n  jump\t// in\ntag_8:\n  mload(0x40)\n  dup1\n  swap2\n  sub\n  swap1\n  revert\n    /* \"@openzeppelin/contracts/access/Ownable.sol\":1269:1364  if (initialOwner == address(0)) {... */\ntag_7:\n    /* \"@openzeppelin/contracts/access/Ownable.sol\":1373:1405  _transferOwnership(initialOwner) */\n  tag_10\n    /* \"@openzeppelin/contracts/access/Ownable.sol\":1392:1404  initialOwner */\n  dup2\n    /* \"@openzeppelin/contracts/access/Ownable.sol\":1373:1391  _transferOwnership */\n  shl(0x20, tag_11)\n    /* \"@openzeppelin/contracts/access/Ownable.sol\":1373:1405  _transferOwnership(initialOwner) */\n  0x20\n  shr\n  jump\t// in\ntag_10:\n    /* \"@openzeppelin/contracts/access/Ownable.sol\":1225:1412  constructor(address initialOwner) {... */\n  pop\n    /* \"contracts/launchpad/launchpad.sol\":1194:1200  _token */\n  dup1\n    /* \"contracts/launchpad/launchpad.sol\":1186:1191  token */\n  0x01\n  0x00\n    /* \"contracts/launchpad/launchpad.sol\":1186:1200  token = _token */\n  0x0100\n  exp\n  dup2\n  sload\n  dup2\n  0xffffffffffffffffffffffffffffffffffffffff\n  mul\n  not\n  and\n  swap1\n  dup4\n  0xffffffffffffffffffffffffffffffffffffffff\n  and\n  mul\n  or\n  swap1\n  sstore\n  pop\n    /* \"contracts/launchpad/launchpad.sol\":357:363  4 days */\n  0x054600\n    /* \"contracts/launchpad/launchpad.sol\":1229:1244  block.timestamp */\n  timestamp\n    /* \"contracts/launchpad/launchpad.sol\":1229:1255  block.timestamp + DURATION */\n  tag_13\n  swap2\n  swap1\n  tag_14\n  jump\t// in\ntag_13:\n    /* \"contracts/launchpad/launchpad.sol\":1210:1226  launchpadEndTime */\n  0x04\n    /* \"contracts/launchpad/launchpad.sol\":1210:1255  launchpadEndTime = block.timestamp + DURATION */\n  dup2\n  swap1\n  sstore\n  pop\n    /* \"contracts/launchpad/launchpad.sol\":1129:1262  constructor(IERC20 _token) Ownable(msg.sender) {... */\n  pop\n    /* \"contracts/launchpad/launchpad.sol\":168:5187  contract Launchpad is Ownable {... */\n  jump(tag_15)\n    /* \"@openzeppelin/contracts/access/Ownable.sol\":2912:3099  function _transferOwnership(address newOwner) internal virtual {... */\ntag_11:\n    /* \"@openzeppelin/contracts/access/Ownable.sol\":2985:3001  address oldOwner */\n  0x00\n    /* \"@openzeppelin/contracts/access/Ownable.sol\":3004:3010  _owner */\n  dup1\n  0x00\n  swap1\n  sload\n  swap1\n  0x0100\n  exp\n  swap1\n  div\n  0xffffffffffffffffffffffffffffffffffffffff\n  and\n    /* \"@openzeppelin/contracts/access/Ownable.sol\":2985:3010  address oldOwner = _owner */\n  swap1\n  pop\n    /* \"@openzeppelin/contracts/access/Ownable.sol\":3029:3037  newOwner */\n  dup2\n    /* \"@openzeppelin/contracts/access/Ownable.sol\":3020:3026  _owner */\n  0x00\n  dup1\n    /* \"@openzeppelin/contracts/access/Ownable.sol\":3020:3037  _owner = newOwner */\n  0x0100\n  exp\n  dup2\n  sload\n  dup2\n  0xffffffffffffffffffffffffffffffffffffffff\n  mul\n  not\n  and\n  swap1\n  dup4\n  0xffffffffffffffffffffffffffffffffffffffff\n  and\n  mul\n  or\n  swap1\n  sstore\n  pop\n    /* \"@openzeppelin/contracts/access/Ownable.sol\":3083:3091  newOwner */\n  dup2\n    /* \"@openzeppelin/contracts/access/Ownable.sol\":3052:3092  OwnershipTransferred(oldOwner, newOwner) */\n  0xffffffffffffffffffffffffffffffffffffffff\n  and\n    /* \"@openzeppelin/contracts/access/Ownable.sol\":3073:3081  oldOwner */\n  dup2\n    /* \"@openzeppelin/contracts/access/Ownable.sol\":3052:3092  OwnershipTransferred(oldOwner, newOwner) */\n  0xffffffffffffffffffffffffffffffffffffffff\n  and\n  0x8be0079c531659141344cd1fd0a4f28419497f9722a3daafe3b4186f6b6457e0\n  mload(0x40)\n  mload(0x40)\n  dup1\n  swap2\n  sub\n  swap1\n  log3\n    /* \"@openzeppelin/contracts/access/Ownable.sol\":2975:3099  {... */\n  pop\n    /* \"@openzeppelin/contracts/access/Ownable.sol\":2912:3099  function _transferOwnership(address newOwner) internal virtual {... */\n  pop\n  jump\t// out\n    /* \"#utility.yul\":88:205   */\ntag_18:\n    /* \"#utility.yul\":197:198   */\n  0x00\n    /* \"#utility.yul\":194:195   */\n  dup1\n    /* \"#utility.yul\":187:199   */\n  revert\n    /* \"#utility.yul\":334:460   */\ntag_20:\n    /* \"#utility.yul\":371:378   */\n  0x00\n    /* \"#utility.yul\":411:453   */\n  0xffffffffffffffffffffffffffffffffffffffff\n    /* \"#utility.yul\":404:409   */\n  dup3\n    /* \"#utility.yul\":400:454   */\n  and\n    /* \"#utility.yul\":389:454   */\n  swap1\n  pop\n    /* \"#utility.yul\":334:460   */\n  swap2\n  swap1\n  pop\n  jump\t// out\n    /* \"#utility.yul\":466:562   */\ntag_21:\n    /* \"#utility.yul\":503:510   */\n  0x00\n    /* \"#utility.yul\":532:556   */\n  tag_34\n    /* \"#utility.yul\":550:555   */\n  dup3\n    /* \"#utility.yul\":532:556   */\n  tag_20\n  jump\t// in\ntag_34:\n    /* \"#utility.yul\":521:556   */\n  swap1\n  pop\n    /* \"#utility.yul\":466:562   */\n  swap2\n  swap1\n  pop\n  jump\t// out\n    /* \"#utility.yul\":568:678   */\ntag_22:\n    /* \"#utility.yul\":619:626   */\n  0x00\n    /* \"#utility.yul\":648:672   */\n  tag_36\n    /* \"#utility.yul\":666:671   */\n  dup3\n    /* \"#utility.yul\":648:672   */\n  tag_21\n  jump\t// in\ntag_36:\n    /* \"#utility.yul\":637:672   */\n  swap1\n  pop\n    /* \"#utility.yul\":568:678   */\n  swap2\n  swap1\n  pop\n  jump\t// out\n    /* \"#utility.yul\":684:834   */\ntag_23:\n    /* \"#utility.yul\":771:809   */\n  tag_38\n    /* \"#utility.yul\":803:808   */\n  dup2\n    /* \"#utility.yul\":771:809   */\n  tag_22\n  jump\t// in\ntag_38:\n    /* \"#utility.yul\":764:769   */\n  dup2\n    /* \"#utility.yul\":761:810   */\n  eq\n    /* \"#utility.yul\":751:828   */\n  tag_39\n  jumpi\n    /* \"#utility.yul\":824:825   */\n  0x00\n    /* \"#utility.yul\":821:822   */\n  dup1\n    /* \"#utility.yul\":814:826   */\n  revert\n    /* \"#utility.yul\":751:828   */\ntag_39:\n    /* \"#utility.yul\":684:834   */\n  pop\n  jump\t// out\n    /* \"#utility.yul\":840:1011   */\ntag_24:\n    /* \"#utility.yul\":911:916   */\n  0x00\n    /* \"#utility.yul\":942:948   */\n  dup2\n    /* \"#utility.yul\":936:949   */\n  mload\n    /* \"#utility.yul\":927:949   */\n  swap1\n  pop\n    /* \"#utility.yul\":958:1005   */\n  tag_41\n    /* \"#utility.yul\":999:1004   */\n  dup2\n    /* \"#utility.yul\":958:1005   */\n  tag_23\n  jump\t// in\ntag_41:\n    /* \"#utility.yul\":840:1011   */\n  swap3\n  swap2\n  pop\n  pop\n  jump\t// out\n    /* \"#utility.yul\":1017:1396   */\ntag_3:\n    /* \"#utility.yul\":1101:1107   */\n  0x00\n    /* \"#utility.yul\":1150:1152   */\n  0x20\n    /* \"#utility.yul\":1138:1147   */\n  dup3\n    /* \"#utility.yul\":1129:1136   */\n  dup5\n    /* \"#utility.yul\":1125:1148   */\n  sub\n    /* \"#utility.yul\":1121:1153   */\n  slt\n    /* \"#utility.yul\":1118:1237   */\n  iszero\n  tag_43\n  jumpi\n    /* \"#utility.yul\":1156:1235   */\n  tag_44\n  tag_18\n  jump\t// in\ntag_44:\n    /* \"#utility.yul\":1118:1237   */\ntag_43:\n    /* \"#utility.yul\":1276:1277   */\n  0x00\n    /* \"#utility.yul\":1301:1379   */\n  tag_45\n    /* \"#utility.yul\":1371:1378   */\n  dup5\n    /* \"#utility.yul\":1362:1368   */\n  dup3\n    /* \"#utility.yul\":1351:1360   */\n  dup6\n    /* \"#utility.yul\":1347:1369   */\n  add\n    /* \"#utility.yul\":1301:1379   */\n  tag_24\n  jump\t// in\ntag_45:\n    /* \"#utility.yul\":1291:1379   */\n  swap2\n  pop\n    /* \"#utility.yul\":1247:1389   */\n  pop\n    /* \"#utility.yul\":1017:1396   */\n  swap3\n  swap2\n  pop\n  pop\n  jump\t// out\n    /* \"#utility.yul\":1402:1520   */\ntag_25:\n    /* \"#utility.yul\":1489:1513   */\n  tag_47\n    /* \"#utility.yul\":1507:1512   */\n  dup2\n    /* \"#utility.yul\":1489:1513   */\n  tag_21\n  jump\t// in\ntag_47:\n    /* \"#utility.yul\":1484:1487   */\n  dup3\n    /* \"#utility.yul\":1477:1514   */\n  mstore\n    /* \"#utility.yul\":1402:1520   */\n  pop\n  pop\n  jump\t// out\n    /* \"#utility.yul\":1526:1748   */\ntag_9:\n    /* \"#utility.yul\":1619:1623   */\n  0x00\n    /* \"#utility.yul\":1657:1659   */\n  0x20\n    /* \"#utility.yul\":1646:1655   */\n  dup3\n    /* \"#utility.yul\":1642:1660   */\n  add\n    /* \"#utility.yul\":1634:1660   */\n  swap1\n  pop\n    /* \"#utility.yul\":1670:1741   */\n  tag_49\n    /* \"#utility.yul\":1738:1739   */\n  0x00\n    /* \"#utility.yul\":1727:1736   */\n  dup4\n    /* \"#utility.yul\":1723:1740   */\n  add\n    /* \"#utility.yul\":1714:1720   */\n  dup5\n    /* \"#utility.yul\":1670:1741   */\n  tag_25\n  jump\t// in\ntag_49:\n    /* \"#utility.yul\":1526:1748   */\n  swap3\n  swap2\n  pop\n  pop\n  jump\t// out\n    /* \"#utility.yul\":1754:1831   */\ntag_26:\n    /* \"#utility.yul\":1791:1798   */\n  0x00\n    /* \"#utility.yul\":1820:1825   */\n  dup2\n    /* \"#utility.yul\":1809:1825   */\n  swap1\n  pop\n    /* \"#utility.yul\":1754:1831   */\n  swap2\n  swap1\n  pop\n  jump\t// out\n    /* \"#utility.yul\":1837:2017   */\ntag_27:\n    /* \"#utility.yul\":1885:1962   */\n  0x4e487b7100000000000000000000000000000000000000000000000000000000\n    /* \"#utility.yul\":1882:1883   */\n  0x00\n    /* \"#utility.yul\":1875:1963   */\n  mstore\n    /* \"#utility.yul\":1982:1986   */\n  0x11\n    /* \"#utility.yul\":1979:1980   */\n  0x04\n    /* \"#utility.yul\":1972:1987   */\n  mstore\n    /* \"#utility.yul\":2006:2010   */\n  0x24\n    /* \"#utility.yul\":2003:2004   */\n  0x00\n    /* \"#utility.yul\":1996:2011   */\n  revert\n    /* \"#utility.yul\":2023:2214   */\ntag_14:\n    /* \"#utility.yul\":2063:2066   */\n  0x00\n    /* \"#utility.yul\":2082:2102   */\n  tag_53\n    /* \"#utility.yul\":2100:2101   */\n  dup3\n    /* \"#utility.yul\":2082:2102   */\n  tag_26\n  jump\t// in\ntag_53:\n    /* \"#utility.yul\":2077:2102   */\n  swap2\n  pop\n    /* \"#utility.yul\":2116:2136   */\n  tag_54\n    /* \"#utility.yul\":2134:2135   */\n  dup4\n    /* \"#utility.yul\":2116:2136   */\n  tag_26\n  jump\t// in\ntag_54:\n    /* \"#utility.yul\":2111:2136   */\n  swap3\n  pop\n    /* \"#utility.yul\":2159:2160   */\n  dup3\n    /* \"#utility.yul\":2156:2157   */\n  dup3\n    /* \"#utility.yul\":2152:2161   */\n  add\n    /* \"#utility.yul\":2145:2161   */\n  swap1\n  pop\n    /* \"#utility.yul\":2180:2183   */\n  dup1\n    /* \"#utility.yul\":2177:2178   */\n  dup3\n    /* \"#utility.yul\":2174:2184   */\n  gt\n    /* \"#utility.yul\":2171:2207   */\n  iszero\n  tag_55\n  jumpi\n    /* \"#utility.yul\":2187:2205   */\n  tag_56\n  tag_27\n  jump\t// in\ntag_56:\n    /* \"#utility.yul\":2171:2207   */\ntag_55:\n    /* \"#utility.yul\":2023:2214   */\n  swap3\n  swap2\n  pop\n  pop\n  jump\t// out\n    /* \"contracts/launchpad/launchpad.sol\":168:5187  contract Launchpad is Ownable {... */\ntag_15:\n  dataSize(sub_0)\n  dup1\n  dataOffset(sub_0)\n  0x00\n  codecopy\n  0x00\n  return\nstop\n\nsub_0: assembly {\n        /* \"contracts/launchpad/launchpad.sol\":168:5187  contract Launchpad is Ownable {... */\n      mstore(0x40, 0x80)\n      jumpi(tag_1, lt(calldatasize, 0x04))\n      shr(0xe0, calldataload(0x00))\n      dup1\n      0x833b9499\n      gt\n      tag_28\n      jumpi\n      dup1\n      0xbea1dcf8\n      gt\n      tag_29\n      jumpi\n      dup1\n      0xe07439f7\n      gt\n      tag_30\n      jumpi\n      dup1\n      0xe07439f7\n      eq\n      tag_24\n      jumpi\n      dup1\n      0xf2fde38b\n      eq\n      tag_25\n      jumpi\n      dup1\n      0xf47c84c5\n      eq\n      tag_26\n      jumpi\n      dup1\n      0xfc0c546a\n      eq\n      tag_27\n      jumpi\n      jump(tag_1)\n    tag_30:\n      dup1\n      0xbea1dcf8\n      eq\n      tag_21\n      jumpi\n      dup1\n      0xc452e427\n      eq\n      tag_22\n      jumpi\n      dup1\n      0xd7bb99ba\n      eq\n      tag_23\n      jumpi\n      jump(tag_1)\n    tag_29:\n      dup1\n      0x833b9499\n      eq\n      tag_15\n      jumpi\n      dup1\n      0x85266ec6\n      eq\n      tag_16\n      jumpi\n      dup1\n      0x8da5cb5b\n      eq\n      tag_17\n      jumpi\n      dup1\n      0x91b7f5ed\n      eq\n      tag_18\n      jumpi\n      dup1\n      0x9ab1b484\n      eq\n      tag_19\n      jumpi\n      dup1\n      0xbabbc405\n      eq\n      tag_20\n      jumpi\n      jump(tag_1)\n    tag_28:\n      dup1\n      0x37c08923\n      gt\n      tag_31\n      jumpi\n      dup1\n      0x42e94c90\n      gt\n      tag_32\n      jumpi\n      dup1\n      0x42e94c90\n      eq\n      tag_11\n      jumpi\n      dup1\n      0x63b20117\n      eq\n      tag_12\n      jumpi\n      dup1\n      0x64fa41ad\n      eq\n      tag_13\n      jumpi\n      dup1\n      0x715018a6\n      eq\n      tag_14\n      jumpi\n      jump(tag_1)\n    tag_32:\n      dup1\n      0x37c08923\n      eq\n      tag_8\n      jumpi\n      dup1\n      0x3805c0b5\n      eq\n      tag_9\n      jumpi\n      dup1\n      0x38e771ab\n      eq\n      tag_10\n      jumpi\n      jump(tag_1)\n    tag_31:\n      dup1\n      0x01df0781\n      eq\n      tag_2\n      jumpi\n      dup1\n      0x08695b41\n      eq\n      tag_3\n      jumpi\n      dup1\n      0x1be05289\n      eq\n      tag_4\n      jumpi\n      dup1\n      0x20055b92\n      eq\n      tag_5\n      jumpi\n      dup1\n      0x24600fc3\n      eq\n      tag_6\n      jumpi\n      dup1\n      0x36db7129\n      eq\n      tag_7\n      jumpi\n    tag_1:\n      0x00\n      dup1\n      revert\n        /* \"contracts/launchpad/launchpad.sol\":4941:5184  function setStartLaunchpadTime(uint256 date) public onlyOwner {... */\n    tag_2:\n      callvalue\n      dup1\n      iszero\n      tag_33\n      jumpi\n      0x00\n      dup1\n      revert\n    tag_33:\n      pop\n      tag_34\n      0x04\n      dup1\n      calldatasize\n      sub\n      dup2\n      add\n      swap1\n      tag_35\n      swap2\n      swap1\n      tag_36\n      jump\t// in\n    tag_35:\n      tag_37\n      jump\t// in\n    tag_34:\n      stop\n        /* \"contracts/launchpad/launchpad.sol\":4483:4595  function setTaxCollector(address _taxCollector) external onlyOwner {... */\n    tag_3:\n      callvalue\n      dup1\n      iszero\n      tag_38\n      jumpi\n      0x00\n      dup1\n      revert\n    tag_38:\n      pop\n      tag_39\n      0x04\n      dup1\n      calldatasize\n      sub\n      dup2\n      add\n      swap1\n      tag_40\n      swap2\n      swap1\n      tag_41\n      jump\t// in\n    tag_40:\n      tag_42\n      jump\t// in\n    tag_39:\n      stop\n        /* \"contracts/launchpad/launchpad.sol\":322:363  uint256 public constant DURATION = 4 days */\n    tag_4:\n      callvalue\n      dup1\n      iszero\n      tag_43\n      jumpi\n      0x00\n      dup1\n      revert\n    tag_43:\n      pop\n      tag_44\n      tag_45\n      jump\t// in\n    tag_44:\n      mload(0x40)\n      tag_46\n      swap2\n      swap1\n      tag_47\n      jump\t// in\n    tag_46:\n      mload(0x40)\n      dup1\n      swap2\n      sub\n      swap1\n      return\n        /* \"contracts/launchpad/launchpad.sol\":535:566  uint256 public launchpadEndTime */\n    tag_5:\n      callvalue\n      dup1\n      iszero\n      tag_48\n      jumpi\n      0x00\n      dup1\n      revert\n    tag_48:\n      pop\n      tag_49\n      tag_50\n      jump\t// in\n    tag_49:\n      mload(0x40)\n      tag_51\n      swap2\n      swap1\n      tag_47\n      jump\t// in\n    tag_51:\n      mload(0x40)\n      dup1\n      swap2\n      sub\n      swap1\n      return\n        /* \"contracts/launchpad/launchpad.sol\":4094:4418  function withdrawFunds() external onlyOwner onlyAfterLaunchpad {... */\n    tag_6:\n      callvalue\n      dup1\n      iszero\n      tag_52\n      jumpi\n      0x00\n      dup1\n      revert\n    tag_52:\n      pop\n      tag_53\n      tag_54\n      jump\t// in\n    tag_53:\n      stop\n        /* \"contracts/launchpad/launchpad.sol\":477:529  uint256 public  maxAmountPerWallet = 0.083 * 1 ether */\n    tag_7:\n      callvalue\n      dup1\n      iszero\n      tag_55\n      jumpi\n      0x00\n      dup1\n      revert\n    tag_55:\n      pop\n      tag_56\n      tag_57\n      jump\t// in\n    tag_56:\n      mload(0x40)\n      tag_58\n      swap2\n      swap1\n      tag_47\n      jump\t// in\n    tag_58:\n      mload(0x40)\n      dup1\n      swap2\n      sub\n      swap1\n      return\n        /* \"contracts/launchpad/launchpad.sol\":1020:1053  uint256 public totalContributions */\n    tag_8:\n      callvalue\n      dup1\n      iszero\n      tag_59\n      jumpi\n      0x00\n      dup1\n      revert\n    tag_59:\n      pop\n      tag_60\n      tag_61\n      jump\t// in\n    tag_60:\n      mload(0x40)\n      tag_62\n      swap2\n      swap1\n      tag_47\n      jump\t// in\n    tag_62:\n      mload(0x40)\n      dup1\n      swap2\n      sub\n      swap1\n      return\n        /* \"contracts/launchpad/launchpad.sol\":947:1014  mapping(address => uint256) public remainingTokenAvailablePerWallet */\n    tag_9:\n      callvalue\n      dup1\n      iszero\n      tag_63\n      jumpi\n      0x00\n      dup1\n      revert\n    tag_63:\n      pop\n      tag_64\n      0x04\n      dup1\n      calldatasize\n      sub\n      dup2\n      add\n      swap1\n      tag_65\n      swap2\n      swap1\n      tag_41\n      jump\t// in\n    tag_65:\n      tag_66\n      jump\t// in\n    tag_64:\n      mload(0x40)\n      tag_67\n      swap2\n      swap1\n      tag_47\n      jump\t// in\n    tag_67:\n      mload(0x40)\n      dup1\n      swap2\n      sub\n      swap1\n      return\n        /* \"contracts/launchpad/launchpad.sol\":2723:3519  function refundAll() external onlyOwner {... */\n    tag_10:\n      callvalue\n      dup1\n      iszero\n      tag_68\n      jumpi\n      0x00\n      dup1\n      revert\n    tag_68:\n      pop\n      tag_69\n      tag_70\n      jump\t// in\n    tag_69:\n      stop\n        /* \"contracts/launchpad/launchpad.sol\":785:833  mapping(address => uint256) public contributions */\n    tag_11:\n      callvalue\n      dup1\n      iszero\n      tag_71\n      jumpi\n      0x00\n      dup1\n      revert\n    tag_71:\n      pop\n      tag_72\n      0x04\n      dup1\n      calldatasize\n      sub\n      dup2\n      add\n      swap1\n      tag_73\n      swap2\n      swap1\n      tag_41\n      jump\t// in\n    tag_73:\n      tag_74\n      jump\t// in\n    tag_72:\n      mload(0x40)\n      tag_75\n      swap2\n      swap1\n      tag_47\n      jump\t// in\n    tag_75:\n      mload(0x40)\n      dup1\n      swap2\n      sub\n      swap1\n      return\n        /* \"contracts/launchpad/launchpad.sol\":1059:1089  uint256 public totalTokensSold */\n    tag_12:\n      callvalue\n      dup1\n      iszero\n      tag_76\n      jumpi\n      0x00\n      dup1\n      revert\n    tag_76:\n      pop\n      tag_77\n      tag_78\n      jump\t// in\n    tag_77:\n      mload(0x40)\n      tag_79\n      swap2\n      swap1\n      tag_47\n      jump\t// in\n    tag_79:\n      mload(0x40)\n      dup1\n      swap2\n      sub\n      swap1\n      return\n        /* \"contracts/launchpad/launchpad.sol\":885:941  mapping(address => uint256) public contributionsInTokens */\n    tag_13:\n      callvalue\n      dup1\n      iszero\n      tag_80\n      jumpi\n      0x00\n      dup1\n      revert\n    tag_80:\n      pop\n      tag_81\n      0x04\n      dup1\n      calldatasize\n      sub\n      dup2\n      add\n      swap1\n      tag_82\n      swap2\n      swap1\n      tag_41\n      jump\t// in\n    tag_82:\n      tag_83\n      jump\t// in\n    tag_81:\n      mload(0x40)\n      tag_84\n      swap2\n      swap1\n      tag_47\n      jump\t// in\n    tag_84:\n      mload(0x40)\n      dup1\n      swap2\n      sub\n      swap1\n      return\n        /* \"@openzeppelin/contracts/access/Ownable.sol\":2293:2394  function renounceOwnership() public virtual onlyOwner {... */\n    tag_14:\n      callvalue\n      dup1\n      iszero\n      tag_85\n      jumpi\n      0x00\n      dup1\n      revert\n    tag_85:\n      pop\n      tag_86\n      tag_87\n      jump\t// in\n    tag_86:\n      stop\n        /* \"contracts/launchpad/launchpad.sol\":267:316  uint256 public  PRICE_PER_TOKEN = 0.0000016 ether */\n    tag_15:\n      callvalue\n      dup1\n      iszero\n      tag_88\n      jumpi\n      0x00\n      dup1\n      revert\n    tag_88:\n      pop\n      tag_89\n      tag_90\n      jump\t// in\n    tag_89:\n      mload(0x40)\n      tag_91\n      swap2\n      swap1\n      tag_47\n      jump\t// in\n    tag_91:\n      mload(0x40)\n      dup1\n      swap2\n      sub\n      swap1\n      return\n        /* \"contracts/launchpad/launchpad.sol\":4728:4832  function setMaxAmountPerWallet(uint value) public onlyOwner {... */\n    tag_16:\n      callvalue\n      dup1\n      iszero\n      tag_92\n      jumpi\n      0x00\n      dup1\n      revert\n    tag_92:\n      pop\n      tag_93\n      0x04\n      dup1\n      calldatasize\n      sub\n      dup2\n      add\n      swap1\n      tag_94\n      swap2\n      swap1\n      tag_36\n      jump\t// in\n    tag_94:\n      tag_95\n      jump\t// in\n    tag_93:\n      stop\n        /* \"@openzeppelin/contracts/access/Ownable.sol\":1638:1723  function owner() public view virtual returns (address) {... */\n    tag_17:\n      callvalue\n      dup1\n      iszero\n      tag_96\n      jumpi\n      0x00\n      dup1\n      revert\n    tag_96:\n      pop\n      tag_97\n      tag_98\n      jump\t// in\n    tag_97:\n      mload(0x40)\n      tag_99\n      swap2\n      swap1\n      tag_100\n      jump\t// in\n    tag_99:\n      mload(0x40)\n      dup1\n      swap2\n      sub\n      swap1\n      return\n        /* \"contracts/launchpad/launchpad.sol\":4837:4936  function  setPrice(uint value) public onlyOwner {... */\n    tag_18:\n      callvalue\n      dup1\n      iszero\n      tag_101\n      jumpi\n      0x00\n      dup1\n      revert\n    tag_101:\n      pop\n      tag_102\n      0x04\n      dup1\n      calldatasize\n      sub\n      dup2\n      add\n      swap1\n      tag_103\n      swap2\n      swap1\n      tag_36\n      jump\t// in\n    tag_103:\n      tag_104\n      jump\t// in\n    tag_102:\n      stop\n        /* \"contracts/launchpad/launchpad.sol\":3527:4088  function distributeTokens() external onlyOwner onlyAfterLaunchpad {... */\n    tag_19:\n      callvalue\n      dup1\n      iszero\n      tag_105\n      jumpi\n      0x00\n      dup1\n      revert\n    tag_105:\n      pop\n      tag_106\n      tag_107\n      jump\t// in\n    tag_106:\n      stop\n        /* \"contracts/launchpad/launchpad.sol\":572:605  uint256 public launchpadStartTime */\n    tag_20:\n      callvalue\n      dup1\n      iszero\n      tag_108\n      jumpi\n      0x00\n      dup1\n      revert\n    tag_108:\n      pop\n      tag_109\n      tag_110\n      jump\t// in\n    tag_109:\n      mload(0x40)\n      tag_111\n      swap2\n      swap1\n      tag_47\n      jump\t// in\n    tag_111:\n      mload(0x40)\n      dup1\n      swap2\n      sub\n      swap1\n      return\n        /* \"contracts/launchpad/launchpad.sol\":687:714  address public taxCollector */\n    tag_21:\n      callvalue\n      dup1\n      iszero\n      tag_112\n      jumpi\n      0x00\n      dup1\n      revert\n    tag_112:\n      pop\n      tag_113\n      tag_114\n      jump\t// in\n    tag_113:\n      mload(0x40)\n      tag_115\n      swap2\n      swap1\n      tag_100\n      jump\t// in\n    tag_115:\n      mload(0x40)\n      dup1\n      swap2\n      sub\n      swap1\n      return\n        /* \"contracts/launchpad/launchpad.sol\":4601:4722  function getAmountPerWallet(address _wallet) public view returns (uint256) {... */\n    tag_22:\n      callvalue\n      dup1\n      iszero\n      tag_116\n      jumpi\n      0x00\n      dup1\n      revert\n    tag_116:\n      pop\n      tag_117\n      0x04\n      dup1\n      calldatasize\n      sub\n      dup2\n      add\n      swap1\n      tag_118\n      swap2\n      swap1\n      tag_41\n      jump\t// in\n    tag_118:\n      tag_119\n      jump\t// in\n    tag_117:\n      mload(0x40)\n      tag_120\n      swap2\n      swap1\n      tag_47\n      jump\t// in\n    tag_120:\n      mload(0x40)\n      dup1\n      swap2\n      sub\n      swap1\n      return\n        /* \"contracts/launchpad/launchpad.sol\":1651:2720  function contribute() external payable onlyDuringLaunchpad {... */\n    tag_23:\n      tag_121\n      tag_122\n      jump\t// in\n    tag_121:\n      stop\n        /* \"contracts/launchpad/launchpad.sol\":720:752  address[] public allContributors */\n    tag_24:\n      callvalue\n      dup1\n      iszero\n      tag_123\n      jumpi\n      0x00\n      dup1\n      revert\n    tag_123:\n      pop\n      tag_124\n      0x04\n      dup1\n      calldatasize\n      sub\n      dup2\n      add\n      swap1\n      tag_125\n      swap2\n      swap1\n      tag_36\n      jump\t// in\n    tag_125:\n      tag_126\n      jump\t// in\n    tag_124:\n      mload(0x40)\n      tag_127\n      swap2\n      swap1\n      tag_100\n      jump\t// in\n    tag_127:\n      mload(0x40)\n      dup1\n      swap2\n      sub\n      swap1\n      return\n        /* \"@openzeppelin/contracts/access/Ownable.sol\":2543:2758  function transferOwnership(address newOwner) public virtual onlyOwner {... */\n    tag_25:\n      callvalue\n      dup1\n      iszero\n      tag_128\n      jumpi\n      0x00\n      dup1\n      revert\n    tag_128:\n      pop\n      tag_129\n      0x04\n      dup1\n      calldatasize\n      sub\n      dup2\n      add\n      swap1\n      tag_130\n      swap2\n      swap1\n      tag_41\n      jump\t// in\n    tag_130:\n      tag_131\n      jump\t// in\n    tag_129:\n      stop\n        /* \"contracts/launchpad/launchpad.sol\":390:436  uint256 public constant MAX_TOKENS = 1_000_000 */\n    tag_26:\n      callvalue\n      dup1\n      iszero\n      tag_132\n      jumpi\n      0x00\n      dup1\n      revert\n    tag_132:\n      pop\n      tag_133\n      tag_134\n      jump\t// in\n    tag_133:\n      mload(0x40)\n      tag_135\n      swap2\n      swap1\n      tag_47\n      jump\t// in\n    tag_135:\n      mload(0x40)\n      dup1\n      swap2\n      sub\n      swap1\n      return\n        /* \"contracts/launchpad/launchpad.sol\":204:223  IERC20 public token */\n    tag_27:\n      callvalue\n      dup1\n      iszero\n      tag_136\n      jumpi\n      0x00\n      dup1\n      revert\n    tag_136:\n      pop\n      tag_137\n      tag_138\n      jump\t// in\n    tag_137:\n      mload(0x40)\n      tag_139\n      swap2\n      swap1\n      tag_140\n      jump\t// in\n    tag_139:\n      mload(0x40)\n      dup1\n      swap2\n      sub\n      swap1\n      return\n        /* \"contracts/launchpad/launchpad.sol\":4941:5184  function setStartLaunchpadTime(uint256 date) public onlyOwner {... */\n    tag_37:\n        /* \"@openzeppelin/contracts/access/Ownable.sol\":1531:1544  _checkOwner() */\n      tag_142\n        /* \"@openzeppelin/contracts/access/Ownable.sol\":1531:1542  _checkOwner */\n      tag_143\n        /* \"@openzeppelin/contracts/access/Ownable.sol\":1531:1544  _checkOwner() */\n      jump\t// in\n    tag_142:\n        /* \"contracts/launchpad/launchpad.sol\":5039:5040  0 */\n      0x00\n        /* \"contracts/launchpad/launchpad.sol\":5017:5035  launchpadStartTime */\n      sload(0x05)\n        /* \"contracts/launchpad/launchpad.sol\":5017:5040  launchpadStartTime == 0 */\n      eq\n        /* \"contracts/launchpad/launchpad.sol\":5017:5080  launchpadStartTime == 0 || launchpadStartTime > block.timestamp */\n      dup1\n      tag_145\n      jumpi\n      pop\n        /* \"contracts/launchpad/launchpad.sol\":5065:5080  block.timestamp */\n      timestamp\n        /* \"contracts/launchpad/launchpad.sol\":5044:5062  launchpadStartTime */\n      sload(0x05)\n        /* \"contracts/launchpad/launchpad.sol\":5044:5080  launchpadStartTime > block.timestamp */\n      gt\n        /* \"contracts/launchpad/launchpad.sol\":5017:5080  launchpadStartTime == 0 || launchpadStartTime > block.timestamp */\n    tag_145:\n        /* \"contracts/launchpad/launchpad.sol\":5009:5110  require(launchpadStartTime == 0 || launchpadStartTime > block.timestamp, \"launchpad already started\") */\n      tag_146\n      jumpi\n      mload(0x40)\n      0x08c379a000000000000000000000000000000000000000000000000000000000\n      dup2\n      mstore\n      0x04\n      add\n      tag_147\n      swap1\n      tag_148\n      jump\t// in\n    tag_147:\n      mload(0x40)\n      dup1\n      swap2\n      sub\n      swap1\n      revert\n    tag_146:\n        /* \"contracts/launchpad/launchpad.sol\":5137:5141  date */\n      dup1\n        /* \"contracts/launchpad/launchpad.sol\":5116:5134  launchpadStartTime */\n      0x05\n        /* \"contracts/launchpad/launchpad.sol\":5116:5141  launchpadStartTime = date */\n      dup2\n      swap1\n      sstore\n      pop\n        /* \"contracts/launchpad/launchpad.sol\":357:363  4 days */\n      0x054600\n        /* \"contracts/launchpad/launchpad.sol\":5166:5170  date */\n      dup2\n        /* \"contracts/launchpad/launchpad.sol\":5166:5181  date + DURATION */\n      tag_149\n      swap2\n      swap1\n      tag_150\n      jump\t// in\n    tag_149:\n        /* \"contracts/launchpad/launchpad.sol\":5147:5163  launchpadEndTime */\n      0x04\n        /* \"contracts/launchpad/launchpad.sol\":5147:5181  launchpadEndTime = date + DURATION */\n      dup2\n      swap1\n      sstore\n      pop\n        /* \"contracts/launchpad/launchpad.sol\":4941:5184  function setStartLaunchpadTime(uint256 date) public onlyOwner {... */\n      pop\n      jump\t// out\n        /* \"contracts/launchpad/launchpad.sol\":4483:4595  function setTaxCollector(address _taxCollector) external onlyOwner {... */\n    tag_42:\n        /* \"@openzeppelin/contracts/access/Ownable.sol\":1531:1544  _checkOwner() */\n      tag_152\n        /* \"@openzeppelin/contracts/access/Ownable.sol\":1531:1542  _checkOwner */\n      tag_143\n        /* \"@openzeppelin/contracts/access/Ownable.sol\":1531:1544  _checkOwner() */\n      jump\t// in\n    tag_152:\n        /* \"contracts/launchpad/launchpad.sol\":4575:4588  _taxCollector */\n      dup1\n        /* \"contracts/launchpad/launchpad.sol\":4560:4572  taxCollector */\n      0x06\n      0x00\n        /* \"contracts/launchpad/launchpad.sol\":4560:4588  taxCollector = _taxCollector */\n      0x0100\n      exp\n      dup2\n      sload\n      dup2\n      0xffffffffffffffffffffffffffffffffffffffff\n      mul\n      not\n      and\n      swap1\n      dup4\n      0xffffffffffffffffffffffffffffffffffffffff\n      and\n      mul\n      or\n      swap1\n      sstore\n      pop\n        /* \"contracts/launchpad/launchpad.sol\":4483:4595  function setTaxCollector(address _taxCollector) external onlyOwner {... */\n      pop\n      jump\t// out\n        /* \"contracts/launchpad/launchpad.sol\":322:363  uint256 public constant DURATION = 4 days */\n    tag_45:\n        /* \"contracts/launchpad/launchpad.sol\":357:363  4 days */\n      0x054600\n        /* \"contracts/launchpad/launchpad.sol\":322:363  uint256 public constant DURATION = 4 days */\n      dup2\n      jump\t// out\n        /* \"contracts/launchpad/launchpad.sol\":535:566  uint256 public launchpadEndTime */\n    tag_50:\n      sload(0x04)\n      dup2\n      jump\t// out\n        /* \"contracts/launchpad/launchpad.sol\":4094:4418  function withdrawFunds() external onlyOwner onlyAfterLaunchpad {... */\n    tag_54:\n        /* \"@openzeppelin/contracts/access/Ownable.sol\":1531:1544  _checkOwner() */\n      tag_155\n        /* \"@openzeppelin/contracts/access/Ownable.sol\":1531:1542  _checkOwner */\n      tag_143\n        /* \"@openzeppelin/contracts/access/Ownable.sol\":1531:1544  _checkOwner() */\n      jump\t// in\n    tag_155:\n        /* \"contracts/launchpad/launchpad.sol\":1562:1578  launchpadEndTime */\n      sload(0x04)\n        /* \"contracts/launchpad/launchpad.sol\":1544:1559  block.timestamp */\n      timestamp\n        /* \"contracts/launchpad/launchpad.sol\":1544:1578  block.timestamp > launchpadEndTime */\n      gt\n        /* \"contracts/launchpad/launchpad.sol\":1523:1630  require(... */\n      tag_157\n      jumpi\n      mload(0x40)\n      0x08c379a000000000000000000000000000000000000000000000000000000000\n      dup2\n      mstore\n      0x04\n      add\n      tag_158\n      swap1\n      tag_159\n      jump\t// in\n    tag_158:\n      mload(0x40)\n      dup1\n      swap2\n      sub\n      swap1\n      revert\n    tag_157:\n        /* \"contracts/launchpad/launchpad.sol\":4266:4267  0 */\n      0x00\n        /* \"contracts/launchpad/launchpad.sol\":4242:4268  taxCollector != address(0) */\n      0xffffffffffffffffffffffffffffffffffffffff\n      and\n        /* \"contracts/launchpad/launchpad.sol\":4242:4254  taxCollector */\n      0x06\n      0x00\n      swap1\n      sload\n      swap1\n      0x0100\n      exp\n      swap1\n      div\n      0xffffffffffffffffffffffffffffffffffffffff\n      and\n        /* \"contracts/launchpad/launchpad.sol\":4242:4268  taxCollector != address(0) */\n      0xffffffffffffffffffffffffffffffffffffffff\n      and\n      sub\n        /* \"contracts/launchpad/launchpad.sol\":4234:4302  require(taxCollector != address(0), \"Tax collector address not set\") */\n      tag_161\n      jumpi\n      mload(0x40)\n      0x08c379a000000000000000000000000000000000000000000000000000000000\n      dup2\n      mstore\n      0x04\n      add\n      tag_162\n      swap1\n      tag_163\n      jump\t// in\n    tag_162:\n      mload(0x40)\n      dup1\n      swap2\n      sub\n      swap1\n      revert\n    tag_161:\n        /* \"contracts/launchpad/launchpad.sol\":4320:4332  taxCollector */\n      0x06\n      0x00\n      swap1\n      sload\n      swap1\n      0x0100\n      exp\n      swap1\n      div\n      0xffffffffffffffffffffffffffffffffffffffff\n      and\n        /* \"contracts/launchpad/launchpad.sol\":4312:4342  payable(taxCollector).transfer */\n      0xffffffffffffffffffffffffffffffffffffffff\n      and\n        /* \"contracts/launchpad/launchpad.sol\":4312:4365  payable(taxCollector).transfer(address(this).balance) */\n      0x08fc\n        /* \"contracts/launchpad/launchpad.sol\":4343:4364  address(this).balance */\n      selfbalance\n        /* \"contracts/launchpad/launchpad.sol\":4312:4365  payable(taxCollector).transfer(address(this).balance) */\n      swap1\n      dup2\n      iszero\n      mul\n      swap1\n      mload(0x40)\n      0x00\n      mload(0x40)\n      dup1\n      dup4\n      sub\n      dup2\n      dup6\n      dup9\n      dup9\n      call\n      swap4\n      pop\n      pop\n      pop\n      pop\n      iszero\n      dup1\n      iszero\n      tag_165\n      jumpi\n      returndatasize\n      0x00\n      dup1\n      returndatacopy\n      revert(0x00, returndatasize)\n    tag_165:\n      pop\n        /* \"contracts/launchpad/launchpad.sol\":4094:4418  function withdrawFunds() external onlyOwner onlyAfterLaunchpad {... */\n      jump\t// out\n        /* \"contracts/launchpad/launchpad.sol\":477:529  uint256 public  maxAmountPerWallet = 0.083 * 1 ether */\n    tag_57:\n      sload(0x03)\n      dup2\n      jump\t// out\n        /* \"contracts/launchpad/launchpad.sol\":1020:1053  uint256 public totalContributions */\n    tag_61:\n      sload(0x0b)\n      dup2\n      jump\t// out\n        /* \"contracts/launchpad/launchpad.sol\":947:1014  mapping(address => uint256) public remainingTokenAvailablePerWallet */\n    tag_66:\n      mstore(0x20, 0x0a)\n      dup1\n      0x00\n      mstore\n      keccak256(0x00, 0x40)\n      0x00\n      swap2\n      pop\n      swap1\n      pop\n      sload\n      dup2\n      jump\t// out\n        /* \"contracts/launchpad/launchpad.sol\":2723:3519  function refundAll() external onlyOwner {... */\n    tag_70:\n        /* \"@openzeppelin/contracts/access/Ownable.sol\":1531:1544  _checkOwner() */\n      tag_167\n        /* \"@openzeppelin/contracts/access/Ownable.sol\":1531:1542  _checkOwner */\n      tag_143\n        /* \"@openzeppelin/contracts/access/Ownable.sol\":1531:1544  _checkOwner() */\n      jump\t// in\n    tag_167:\n        /* \"contracts/launchpad/launchpad.sol\":2829:2844  block.timestamp */\n      timestamp\n        /* \"contracts/launchpad/launchpad.sol\":2810:2826  launchpadEndTime */\n      0x04\n        /* \"contracts/launchpad/launchpad.sol\":2810:2844  launchpadEndTime = block.timestamp */\n      dup2\n      swap1\n      sstore\n      pop\n        /* \"contracts/launchpad/launchpad.sol\":2948:2949  0 */\n      0x00\n        /* \"contracts/launchpad/launchpad.sol\":2927:2945  totalContributions */\n      sload(0x0b)\n        /* \"contracts/launchpad/launchpad.sol\":2927:2949  totalContributions > 0 */\n      gt\n        /* \"contracts/launchpad/launchpad.sol\":2923:3517  if (totalContributions > 0) {... */\n      iszero\n      tag_169\n      jumpi\n        /* \"contracts/launchpad/launchpad.sol\":3020:3029  uint256 i */\n      0x00\n        /* \"contracts/launchpad/launchpad.sol\":3015:3479  for (uint256 i = 0; i < allContributors.length; i++) {... */\n    tag_170:\n        /* \"contracts/launchpad/launchpad.sol\":3039:3054  allContributors */\n      0x07\n        /* \"contracts/launchpad/launchpad.sol\":3039:3061  allContributors.length */\n      dup1\n      sload\n      swap1\n      pop\n        /* \"contracts/launchpad/launchpad.sol\":3035:3036  i */\n      dup2\n        /* \"contracts/launchpad/launchpad.sol\":3035:3061  i < allContributors.length */\n      lt\n        /* \"contracts/launchpad/launchpad.sol\":3015:3479  for (uint256 i = 0; i < allContributors.length; i++) {... */\n      iszero\n      tag_171\n      jumpi\n        /* \"contracts/launchpad/launchpad.sol\":3082:3101  address contributor */\n      0x00\n        /* \"contracts/launchpad/launchpad.sol\":3104:3119  allContributors */\n      0x07\n        /* \"contracts/launchpad/launchpad.sol\":3120:3121  i */\n      dup3\n        /* \"contracts/launchpad/launchpad.sol\":3104:3122  allContributors[i] */\n      dup2\n      sload\n      dup2\n      lt\n      tag_173\n      jumpi\n      tag_174\n      tag_175\n      jump\t// in\n    tag_174:\n    tag_173:\n      swap1\n      0x00\n      mstore\n      keccak256(0x00, 0x20)\n      add\n      0x00\n      swap1\n      sload\n      swap1\n      0x0100\n      exp\n      swap1\n      div\n      0xffffffffffffffffffffffffffffffffffffffff\n      and\n        /* \"contracts/launchpad/launchpad.sol\":3082:3122  address contributor = allContributors[i] */\n      swap1\n      pop\n        /* \"contracts/launchpad/launchpad.sol\":3136:3156  uint256 contribution */\n      0x00\n        /* \"contracts/launchpad/launchpad.sol\":3159:3172  contributions */\n      0x08\n        /* \"contracts/launchpad/launchpad.sol\":3159:3185  contributions[contributor] */\n      0x00\n        /* \"contracts/launchpad/launchpad.sol\":3173:3184  contributor */\n      dup4\n        /* \"contracts/launchpad/launchpad.sol\":3159:3185  contributions[contributor] */\n      0xffffffffffffffffffffffffffffffffffffffff\n      and\n      0xffffffffffffffffffffffffffffffffffffffff\n      and\n      dup2\n      mstore\n      0x20\n      add\n      swap1\n      dup2\n      mstore\n      0x20\n      add\n      0x00\n      keccak256\n      sload\n        /* \"contracts/launchpad/launchpad.sol\":3136:3185  uint256 contribution = contributions[contributor] */\n      swap1\n      pop\n        /* \"contracts/launchpad/launchpad.sol\":3218:3219  0 */\n      0x00\n        /* \"contracts/launchpad/launchpad.sol\":3203:3215  contribution */\n      dup2\n        /* \"contracts/launchpad/launchpad.sol\":3203:3219  contribution > 0 */\n      gt\n        /* \"contracts/launchpad/launchpad.sol\":3199:3469  if (contribution > 0) {... */\n      iszero\n      tag_177\n      jumpi\n        /* \"contracts/launchpad/launchpad.sol\":3239:3261  uint256 tokensToRefund */\n      0x00\n        /* \"contracts/launchpad/launchpad.sol\":3279:3294  PRICE_PER_TOKEN */\n      sload(0x02)\n        /* \"contracts/launchpad/launchpad.sol\":3264:3276  contribution */\n      dup3\n        /* \"contracts/launchpad/launchpad.sol\":3264:3294  contribution / PRICE_PER_TOKEN */\n      tag_178\n      swap2\n      swap1\n      tag_179\n      jump\t// in\n    tag_178:\n        /* \"contracts/launchpad/launchpad.sol\":3239:3294  uint256 tokensToRefund = contribution / PRICE_PER_TOKEN */\n      swap1\n      pop\n        /* \"contracts/launchpad/launchpad.sol\":3341:3342  0 */\n      0x00\n        /* \"contracts/launchpad/launchpad.sol\":3312:3325  contributions */\n      0x08\n        /* \"contracts/launchpad/launchpad.sol\":3312:3338  contributions[contributor] */\n      0x00\n        /* \"contracts/launchpad/launchpad.sol\":3326:3337  contributor */\n      dup6\n        /* \"contracts/launchpad/launchpad.sol\":3312:3338  contributions[contributor] */\n      0xffffffffffffffffffffffffffffffffffffffff\n      and\n      0xffffffffffffffffffffffffffffffffffffffff\n      and\n      dup2\n      mstore\n      0x20\n      add\n      swap1\n      dup2\n      mstore\n      0x20\n      add\n      0x00\n      keccak256\n        /* \"contracts/launchpad/launchpad.sol\":3312:3342  contributions[contributor] = 0 */\n      dup2\n      swap1\n      sstore\n      pop\n        /* \"contracts/launchpad/launchpad.sol\":3368:3379  contributor */\n      dup3\n        /* \"contracts/launchpad/launchpad.sol\":3360:3389  payable(contributor).transfer */\n      0xffffffffffffffffffffffffffffffffffffffff\n      and\n        /* \"contracts/launchpad/launchpad.sol\":3360:3403  payable(contributor).transfer(contribution) */\n      0x08fc\n        /* \"contracts/launchpad/launchpad.sol\":3390:3402  contribution */\n      dup4\n        /* \"contracts/launchpad/launchpad.sol\":3360:3403  payable(contributor).transfer(contribution) */\n      swap1\n      dup2\n      iszero\n      mul\n      swap1\n      mload(0x40)\n      0x00\n      mload(0x40)\n      dup1\n      dup4\n      sub\n      dup2\n      dup6\n      dup9\n      dup9\n      call\n      swap4\n      pop\n      pop\n      pop\n      pop\n      iszero\n      dup1\n      iszero\n      tag_181\n      jumpi\n      returndatasize\n      0x00\n      dup1\n      returndatacopy\n      revert(0x00, returndatasize)\n    tag_181:\n      pop\n        /* \"contracts/launchpad/launchpad.sol\":3440:3454  tokensToRefund */\n      dup1\n        /* \"contracts/launchpad/launchpad.sol\":3421:3436  totalTokensSold */\n      0x0c\n      0x00\n        /* \"contracts/launchpad/launchpad.sol\":3421:3454  totalTokensSold -= tokensToRefund */\n      dup3\n      dup3\n      sload\n      tag_182\n      swap2\n      swap1\n      tag_183\n      jump\t// in\n    tag_182:\n      swap3\n      pop\n      pop\n      dup2\n      swap1\n      sstore\n      pop\n        /* \"contracts/launchpad/launchpad.sol\":3221:3469  {... */\n      pop\n        /* \"contracts/launchpad/launchpad.sol\":3199:3469  if (contribution > 0) {... */\n    tag_177:\n        /* \"contracts/launchpad/launchpad.sol\":3068:3479  {... */\n      pop\n      pop\n        /* \"contracts/launchpad/launchpad.sol\":3063:3066  i++ */\n      dup1\n      dup1\n      0x01\n      add\n      swap2\n      pop\n      pop\n        /* \"contracts/launchpad/launchpad.sol\":3015:3479  for (uint256 i = 0; i < allContributors.length; i++) {... */\n      jump(tag_170)\n    tag_171:\n      pop\n        /* \"contracts/launchpad/launchpad.sol\":3509:3510  0 */\n      0x00\n        /* \"contracts/launchpad/launchpad.sol\":3488:3506  totalContributions */\n      0x0b\n        /* \"contracts/launchpad/launchpad.sol\":3488:3510  totalContributions = 0 */\n      dup2\n      swap1\n      sstore\n      pop\n        /* \"contracts/launchpad/launchpad.sol\":2923:3517  if (totalContributions > 0) {... */\n    tag_169:\n        /* \"contracts/launchpad/launchpad.sol\":2723:3519  function refundAll() external onlyOwner {... */\n      jump\t// out\n        /* \"contracts/launchpad/launchpad.sol\":785:833  mapping(address => uint256) public contributions */\n    tag_74:\n      mstore(0x20, 0x08)\n      dup1\n      0x00\n      mstore\n      keccak256(0x00, 0x40)\n      0x00\n      swap2\n      pop\n      swap1\n      pop\n      sload\n      dup2\n      jump\t// out\n        /* \"contracts/launchpad/launchpad.sol\":1059:1089  uint256 public totalTokensSold */\n    tag_78:\n      sload(0x0c)\n      dup2\n      jump\t// out\n        /* \"contracts/launchpad/launchpad.sol\":885:941  mapping(address => uint256) public contributionsInTokens */\n    tag_83:\n      mstore(0x20, 0x09)\n      dup1\n      0x00\n      mstore\n      keccak256(0x00, 0x40)\n      0x00\n      swap2\n      pop\n      swap1\n      pop\n      sload\n      dup2\n      jump\t// out\n        /* \"@openzeppelin/contracts/access/Ownable.sol\":2293:2394  function renounceOwnership() public virtual onlyOwner {... */\n    tag_87:\n        /* \"@openzeppelin/contracts/access/Ownable.sol\":1531:1544  _checkOwner() */\n      tag_185\n        /* \"@openzeppelin/contracts/access/Ownable.sol\":1531:1542  _checkOwner */\n      tag_143\n        /* \"@openzeppelin/contracts/access/Ownable.sol\":1531:1544  _checkOwner() */\n      jump\t// in\n    tag_185:\n        /* \"@openzeppelin/contracts/access/Ownable.sol\":2357:2387  _transferOwnership(address(0)) */\n      tag_187\n        /* \"@openzeppelin/contracts/access/Ownable.sol\":2384:2385  0 */\n      0x00\n        /* \"@openzeppelin/contracts/access/Ownable.sol\":2357:2375  _transferOwnership */\n      tag_188\n        /* \"@openzeppelin/contracts/access/Ownable.sol\":2357:2387  _transferOwnership(address(0)) */\n      jump\t// in\n    tag_187:\n        /* \"@openzeppelin/contracts/access/Ownable.sol\":2293:2394  function renounceOwnership() public virtual onlyOwner {... */\n      jump\t// out\n        /* \"contracts/launchpad/launchpad.sol\":267:316  uint256 public  PRICE_PER_TOKEN = 0.0000016 ether */\n    tag_90:\n      sload(0x02)\n      dup2\n      jump\t// out\n        /* \"contracts/launchpad/launchpad.sol\":4728:4832  function setMaxAmountPerWallet(uint value) public onlyOwner {... */\n    tag_95:\n        /* \"@openzeppelin/contracts/access/Ownable.sol\":1531:1544  _checkOwner() */\n      tag_190\n        /* \"@openzeppelin/contracts/access/Ownable.sol\":1531:1542  _checkOwner */\n      tag_143\n        /* \"@openzeppelin/contracts/access/Ownable.sol\":1531:1544  _checkOwner() */\n      jump\t// in\n    tag_190:\n        /* \"contracts/launchpad/launchpad.sol\":4819:4824  value */\n      dup1\n        /* \"contracts/launchpad/launchpad.sol\":4798:4816  maxAmountPerWallet */\n      0x03\n        /* \"contracts/launchpad/launchpad.sol\":4798:4824  maxAmountPerWallet = value */\n      dup2\n      swap1\n      sstore\n      pop\n        /* \"contracts/launchpad/launchpad.sol\":4728:4832  function setMaxAmountPerWallet(uint value) public onlyOwner {... */\n      pop\n      jump\t// out\n        /* \"@openzeppelin/contracts/access/Ownable.sol\":1638:1723  function owner() public view virtual returns (address) {... */\n    tag_98:\n        /* \"@openzeppelin/contracts/access/Ownable.sol\":1684:1691  address */\n      0x00\n        /* \"@openzeppelin/contracts/access/Ownable.sol\":1710:1716  _owner */\n      dup1\n      0x00\n      swap1\n      sload\n      swap1\n      0x0100\n      exp\n      swap1\n      div\n      0xffffffffffffffffffffffffffffffffffffffff\n      and\n        /* \"@openzeppelin/contracts/access/Ownable.sol\":1703:1716  return _owner */\n      swap1\n      pop\n        /* \"@openzeppelin/contracts/access/Ownable.sol\":1638:1723  function owner() public view virtual returns (address) {... */\n      swap1\n      jump\t// out\n        /* \"contracts/launchpad/launchpad.sol\":4837:4936  function  setPrice(uint value) public onlyOwner {... */\n    tag_104:\n        /* \"@openzeppelin/contracts/access/Ownable.sol\":1531:1544  _checkOwner() */\n      tag_194\n        /* \"@openzeppelin/contracts/access/Ownable.sol\":1531:1542  _checkOwner */\n      tag_143\n        /* \"@openzeppelin/contracts/access/Ownable.sol\":1531:1544  _checkOwner() */\n      jump\t// in\n    tag_194:\n        /* \"contracts/launchpad/launchpad.sol\":4914:4919  value */\n      dup1\n        /* \"contracts/launchpad/launchpad.sol\":4896:4911  PRICE_PER_TOKEN */\n      0x02\n        /* \"contracts/launchpad/launchpad.sol\":4896:4919  PRICE_PER_TOKEN = value */\n      dup2\n      swap1\n      sstore\n      pop\n        /* \"contracts/launchpad/launchpad.sol\":4837:4936  function  setPrice(uint value) public onlyOwner {... */\n      pop\n      jump\t// out\n        /* \"contracts/launchpad/launchpad.sol\":3527:4088  function distributeTokens() external onlyOwner onlyAfterLaunchpad {... */\n    tag_107:\n        /* \"@openzeppelin/contracts/access/Ownable.sol\":1531:1544  _checkOwner() */\n      tag_197\n        /* \"@openzeppelin/contracts/access/Ownable.sol\":1531:1542  _checkOwner */\n      tag_143\n        /* \"@openzeppelin/contracts/access/Ownable.sol\":1531:1544  _checkOwner() */\n      jump\t// in\n    tag_197:\n        /* \"contracts/launchpad/launchpad.sol\":1562:1578  launchpadEndTime */\n      sload(0x04)\n        /* \"contracts/launchpad/launchpad.sol\":1544:1559  block.timestamp */\n      timestamp\n        /* \"contracts/launchpad/launchpad.sol\":1544:1578  block.timestamp > launchpadEndTime */\n      gt\n        /* \"contracts/launchpad/launchpad.sol\":1523:1630  require(... */\n      tag_199\n      jumpi\n      mload(0x40)\n      0x08c379a000000000000000000000000000000000000000000000000000000000\n      dup2\n      mstore\n      0x04\n      add\n      tag_200\n      swap1\n      tag_159\n      jump\t// in\n    tag_200:\n      mload(0x40)\n      dup1\n      swap2\n      sub\n      swap1\n      revert\n    tag_199:\n        /* \"contracts/launchpad/launchpad.sol\":3714:3723  uint256 i */\n      0x00\n        /* \"contracts/launchpad/launchpad.sol\":3709:4082  for (uint256 i = 0; i < allContributors.length; i++) {... */\n    tag_202:\n        /* \"contracts/launchpad/launchpad.sol\":3733:3748  allContributors */\n      0x07\n        /* \"contracts/launchpad/launchpad.sol\":3733:3755  allContributors.length */\n      dup1\n      sload\n      swap1\n      pop\n        /* \"contracts/launchpad/launchpad.sol\":3729:3730  i */\n      dup2\n        /* \"contracts/launchpad/launchpad.sol\":3729:3755  i < allContributors.length */\n      lt\n        /* \"contracts/launchpad/launchpad.sol\":3709:4082  for (uint256 i = 0; i < allContributors.length; i++) {... */\n      iszero\n      tag_203\n      jumpi\n        /* \"contracts/launchpad/launchpad.sol\":3776:3795  address contributor */\n      0x00\n        /* \"contracts/launchpad/launchpad.sol\":3798:3813  allContributors */\n      0x07\n        /* \"contracts/launchpad/launchpad.sol\":3814:3815  i */\n      dup3\n        /* \"contracts/launchpad/launchpad.sol\":3798:3816  allContributors[i] */\n      dup2\n      sload\n      dup2\n      lt\n      tag_205\n      jumpi\n      tag_206\n      tag_175\n      jump\t// in\n    tag_206:\n    tag_205:\n      swap1\n      0x00\n      mstore\n      keccak256(0x00, 0x20)\n      add\n      0x00\n      swap1\n      sload\n      swap1\n      0x0100\n      exp\n      swap1\n      div\n      0xffffffffffffffffffffffffffffffffffffffff\n      and\n        /* \"contracts/launchpad/launchpad.sol\":3776:3816  address contributor = allContributors[i] */\n      swap1\n      pop\n        /* \"contracts/launchpad/launchpad.sol\":3830:3850  uint256 contribution */\n      0x00\n        /* \"contracts/launchpad/launchpad.sol\":3853:3866  contributions */\n      0x08\n        /* \"contracts/launchpad/launchpad.sol\":3853:3879  contributions[contributor] */\n      0x00\n        /* \"contracts/launchpad/launchpad.sol\":3867:3878  contributor */\n      dup4\n        /* \"contracts/launchpad/launchpad.sol\":3853:3879  contributions[contributor] */\n      0xffffffffffffffffffffffffffffffffffffffff\n      and\n      0xffffffffffffffffffffffffffffffffffffffff\n      and\n      dup2\n      mstore\n      0x20\n      add\n      swap1\n      dup2\n      mstore\n      0x20\n      add\n      0x00\n      keccak256\n      sload\n        /* \"contracts/launchpad/launchpad.sol\":3830:3879  uint256 contribution = contributions[contributor] */\n      swap1\n      pop\n        /* \"contracts/launchpad/launchpad.sol\":3912:3913  0 */\n      0x00\n        /* \"contracts/launchpad/launchpad.sol\":3897:3909  contribution */\n      dup2\n        /* \"contracts/launchpad/launchpad.sol\":3897:3913  contribution > 0 */\n      gt\n        /* \"contracts/launchpad/launchpad.sol\":3893:4072  if (contribution > 0) {... */\n      iszero\n      tag_208\n      jumpi\n        /* \"contracts/launchpad/launchpad.sol\":3933:3959  uint256 amountToDistribute */\n      0x00\n        /* \"contracts/launchpad/launchpad.sol\":3977:3992  PRICE_PER_TOKEN */\n      sload(0x02)\n        /* \"contracts/launchpad/launchpad.sol\":3962:3974  contribution */\n      dup3\n        /* \"contracts/launchpad/launchpad.sol\":3962:3992  contribution / PRICE_PER_TOKEN */\n      tag_209\n      swap2\n      swap1\n      tag_179\n      jump\t// in\n    tag_209:\n        /* \"contracts/launchpad/launchpad.sol\":3933:3992  uint256 amountToDistribute = contribution / PRICE_PER_TOKEN */\n      swap1\n      pop\n        /* \"contracts/launchpad/launchpad.sol\":4010:4015  token */\n      0x01\n      0x00\n      swap1\n      sload\n      swap1\n      0x0100\n      exp\n      swap1\n      div\n      0xffffffffffffffffffffffffffffffffffffffff\n      and\n        /* \"contracts/launchpad/launchpad.sol\":4010:4024  token.transfer */\n      0xffffffffffffffffffffffffffffffffffffffff\n      and\n      0xa9059cbb\n        /* \"contracts/launchpad/launchpad.sol\":4025:4036  contributor */\n      dup5\n        /* \"contracts/launchpad/launchpad.sol\":4038:4056  amountToDistribute */\n      dup4\n        /* \"contracts/launchpad/launchpad.sol\":4010:4057  token.transfer(contributor, amountToDistribute) */\n      mload(0x40)\n      dup4\n      0xffffffff\n      and\n      0xe0\n      shl\n      dup2\n      mstore\n      0x04\n      add\n      tag_210\n      swap3\n      swap2\n      swap1\n      tag_211\n      jump\t// in\n    tag_210:\n      0x20\n      mload(0x40)\n      dup1\n      dup4\n      sub\n      dup2\n      0x00\n      dup8\n      gas\n      call\n      iszero\n      dup1\n      iszero\n      tag_213\n      jumpi\n      returndatasize\n      0x00\n      dup1\n      returndatacopy\n      revert(0x00, returndatasize)\n    tag_213:\n      pop\n      pop\n      pop\n      pop\n      mload(0x40)\n      returndatasize\n      not(0x1f)\n      0x1f\n      dup3\n      add\n      and\n      dup3\n      add\n      dup1\n      0x40\n      mstore\n      pop\n      dup2\n      add\n      swap1\n      tag_214\n      swap2\n      swap1\n      tag_215\n      jump\t// in\n    tag_214:\n      pop\n        /* \"contracts/launchpad/launchpad.sol\":3915:4072  {... */\n      pop\n        /* \"contracts/launchpad/launchpad.sol\":3893:4072  if (contribution > 0) {... */\n    tag_208:\n        /* \"contracts/launchpad/launchpad.sol\":3762:4082  {... */\n      pop\n      pop\n        /* \"contracts/launchpad/launchpad.sol\":3757:3760  i++ */\n      dup1\n      dup1\n      0x01\n      add\n      swap2\n      pop\n      pop\n        /* \"contracts/launchpad/launchpad.sol\":3709:4082  for (uint256 i = 0; i < allContributors.length; i++) {... */\n      jump(tag_202)\n    tag_203:\n      pop\n        /* \"contracts/launchpad/launchpad.sol\":3527:4088  function distributeTokens() external onlyOwner onlyAfterLaunchpad {... */\n      jump\t// out\n        /* \"contracts/launchpad/launchpad.sol\":572:605  uint256 public launchpadStartTime */\n    tag_110:\n      sload(0x05)\n      dup2\n      jump\t// out\n        /* \"contracts/launchpad/launchpad.sol\":687:714  address public taxCollector */\n    tag_114:\n      0x06\n      0x00\n      swap1\n      sload\n      swap1\n      0x0100\n      exp\n      swap1\n      div\n      0xffffffffffffffffffffffffffffffffffffffff\n      and\n      dup2\n      jump\t// out\n        /* \"contracts/launchpad/launchpad.sol\":4601:4722  function getAmountPerWallet(address _wallet) public view returns (uint256) {... */\n    tag_119:\n        /* \"contracts/launchpad/launchpad.sol\":4667:4674  uint256 */\n      0x00\n        /* \"contracts/launchpad/launchpad.sol\":4693:4706  contributions */\n      0x08\n        /* \"contracts/launchpad/launchpad.sol\":4693:4715  contributions[_wallet] */\n      0x00\n        /* \"contracts/launchpad/launchpad.sol\":4707:4714  _wallet */\n      dup4\n        /* \"contracts/launchpad/launchpad.sol\":4693:4715  contributions[_wallet] */\n      0xffffffffffffffffffffffffffffffffffffffff\n      and\n      0xffffffffffffffffffffffffffffffffffffffff\n      and\n      dup2\n      mstore\n      0x20\n      add\n      swap1\n      dup2\n      mstore\n      0x20\n      add\n      0x00\n      keccak256\n      sload\n        /* \"contracts/launchpad/launchpad.sol\":4686:4715  return contributions[_wallet] */\n      swap1\n      pop\n        /* \"contracts/launchpad/launchpad.sol\":4601:4722  function getAmountPerWallet(address _wallet) public view returns (uint256) {... */\n      swap2\n      swap1\n      pop\n      jump\t// out\n        /* \"contracts/launchpad/launchpad.sol\":1651:2720  function contribute() external payable onlyDuringLaunchpad {... */\n    tag_122:\n        /* \"contracts/launchpad/launchpad.sol\":1336:1352  launchpadEndTime */\n      sload(0x04)\n        /* \"contracts/launchpad/launchpad.sol\":1317:1332  block.timestamp */\n      timestamp\n        /* \"contracts/launchpad/launchpad.sol\":1317:1352  block.timestamp <= launchpadEndTime */\n      gt\n      iszero\n        /* \"contracts/launchpad/launchpad.sol\":1309:1376  require(block.timestamp <= launchpadEndTime, \"Launchpad has ended\") */\n      tag_218\n      jumpi\n      mload(0x40)\n      0x08c379a000000000000000000000000000000000000000000000000000000000\n      dup2\n      mstore\n      0x04\n      add\n      tag_219\n      swap1\n      tag_220\n      jump\t// in\n    tag_219:\n      mload(0x40)\n      dup1\n      swap2\n      sub\n      swap1\n      revert\n    tag_218:\n        /* \"contracts/launchpad/launchpad.sol\":1413:1431  launchpadStartTime */\n      sload(0x05)\n        /* \"contracts/launchpad/launchpad.sol\":1394:1409  block.timestamp */\n      timestamp\n        /* \"contracts/launchpad/launchpad.sol\":1394:1431  block.timestamp >= launchpadStartTime */\n      lt\n      iszero\n        /* \"contracts/launchpad/launchpad.sol\":1386:1459  require(block.timestamp >= launchpadStartTime,\"Launchpad is not started\") */\n      tag_221\n      jumpi\n      mload(0x40)\n      0x08c379a000000000000000000000000000000000000000000000000000000000\n      dup2\n      mstore\n      0x04\n      add\n      tag_222\n      swap1\n      tag_223\n      jump\t// in\n    tag_222:\n      mload(0x40)\n      dup1\n      swap2\n      sub\n      swap1\n      revert\n    tag_221:\n        /* \"contracts/launchpad/launchpad.sol\":1736:1737  0 */\n      0x00\n        /* \"contracts/launchpad/launchpad.sol\":1724:1733  msg.value */\n      callvalue\n        /* \"contracts/launchpad/launchpad.sol\":1724:1737  msg.value > 0 */\n      gt\n        /* \"contracts/launchpad/launchpad.sol\":1716:1762  require(msg.value > 0, \"You need to send ETH\") */\n      tag_225\n      jumpi\n      mload(0x40)\n      0x08c379a000000000000000000000000000000000000000000000000000000000\n      dup2\n      mstore\n      0x04\n      add\n      tag_226\n      swap1\n      tag_227\n      jump\t// in\n    tag_226:\n      mload(0x40)\n      dup1\n      swap2\n      sub\n      swap1\n      revert\n    tag_225:\n        /* \"contracts/launchpad/launchpad.sol\":1768:1787  uint256 tokensToBuy */\n      0x00\n        /* \"contracts/launchpad/launchpad.sol\":1803:1818  PRICE_PER_TOKEN */\n      sload(0x02)\n        /* \"contracts/launchpad/launchpad.sol\":1790:1799  msg.value */\n      callvalue\n        /* \"contracts/launchpad/launchpad.sol\":1790:1818  msg.value  / PRICE_PER_TOKEN */\n      tag_228\n      swap2\n      swap1\n      tag_179\n      jump\t// in\n    tag_228:\n        /* \"contracts/launchpad/launchpad.sol\":1768:1818  uint256 tokensToBuy = msg.value  / PRICE_PER_TOKEN */\n      swap1\n      pop\n        /* \"contracts/launchpad/launchpad.sol\":427:436  1_000_000 */\n      0x0f4240\n        /* \"contracts/launchpad/launchpad.sol\":1922:1933  tokensToBuy */\n      dup2\n        /* \"contracts/launchpad/launchpad.sol\":1904:1919  totalTokensSold */\n      sload(0x0c)\n        /* \"contracts/launchpad/launchpad.sol\":1904:1933  totalTokensSold + tokensToBuy */\n      tag_229\n      swap2\n      swap1\n      tag_150\n      jump\t// in\n    tag_229:\n        /* \"contracts/launchpad/launchpad.sol\":1904:1947  totalTokensSold + tokensToBuy <= MAX_TOKENS */\n      gt\n      iszero\n        /* \"contracts/launchpad/launchpad.sol\":1887:1992  require(... */\n      tag_230\n      jumpi\n      mload(0x40)\n      0x08c379a000000000000000000000000000000000000000000000000000000000\n      dup2\n      mstore\n      0x04\n      add\n      tag_231\n      swap1\n      tag_232\n      jump\t// in\n    tag_231:\n      mload(0x40)\n      dup1\n      swap2\n      sub\n      swap1\n      revert\n    tag_230:\n        /* \"contracts/launchpad/launchpad.sol\":2032:2033  0 */\n      0x00\n        /* \"contracts/launchpad/launchpad.sol\":2003:2016  contributions */\n      0x08\n        /* \"contracts/launchpad/launchpad.sol\":2003:2028  contributions[msg.sender] */\n      0x00\n        /* \"contracts/launchpad/launchpad.sol\":2017:2027  msg.sender */\n      caller\n        /* \"contracts/launchpad/launchpad.sol\":2003:2028  contributions[msg.sender] */\n      0xffffffffffffffffffffffffffffffffffffffff\n      and\n      0xffffffffffffffffffffffffffffffffffffffff\n      and\n      dup2\n      mstore\n      0x20\n      add\n      swap1\n      dup2\n      mstore\n      0x20\n      add\n      0x00\n      keccak256\n      sload\n        /* \"contracts/launchpad/launchpad.sol\":2003:2033  contributions[msg.sender] == 0 */\n      sub\n        /* \"contracts/launchpad/launchpad.sol\":1999:2159  if (contributions[msg.sender] == 0) {... */\n      tag_233\n      jumpi\n        /* \"contracts/launchpad/launchpad.sol\":2045:2060  allContributors */\n      0x07\n        /* \"contracts/launchpad/launchpad.sol\":2066:2076  msg.sender */\n      caller\n        /* \"contracts/launchpad/launchpad.sol\":2045:2077  allContributors.push(msg.sender) */\n      swap1\n      dup1\n      0x01\n      dup2\n      sload\n      add\n      dup1\n      dup3\n      sstore\n      dup1\n      swap2\n      pop\n      pop\n      0x01\n      swap1\n      sub\n      swap1\n      0x00\n      mstore\n      keccak256(0x00, 0x20)\n      add\n      0x00\n      swap1\n      swap2\n      swap1\n      swap2\n      swap1\n      swap2\n      0x0100\n      exp\n      dup2\n      sload\n      dup2\n      0xffffffffffffffffffffffffffffffffffffffff\n      mul\n      not\n      and\n      swap1\n      dup4\n      0xffffffffffffffffffffffffffffffffffffffff\n      and\n      mul\n      or\n      swap1\n      sstore\n      pop\n        /* \"contracts/launchpad/launchpad.sol\":2134:2152  maxAmountPerWallet */\n      sload(0x03)\n        /* \"contracts/launchpad/launchpad.sol\":2087:2119  remainingTokenAvailablePerWallet */\n      0x0a\n        /* \"contracts/launchpad/launchpad.sol\":2087:2131  remainingTokenAvailablePerWallet[msg.sender] */\n      0x00\n        /* \"contracts/launchpad/launchpad.sol\":2120:2130  msg.sender */\n      caller\n        /* \"contracts/launchpad/launchpad.sol\":2087:2131  remainingTokenAvailablePerWallet[msg.sender] */\n      0xffffffffffffffffffffffffffffffffffffffff\n      and\n      0xffffffffffffffffffffffffffffffffffffffff\n      and\n      dup2\n      mstore\n      0x20\n      add\n      swap1\n      dup2\n      mstore\n      0x20\n      add\n      0x00\n      keccak256\n        /* \"contracts/launchpad/launchpad.sol\":2087:2152  remainingTokenAvailablePerWallet[msg.sender] = maxAmountPerWallet */\n      dup2\n      swap1\n      sstore\n      pop\n        /* \"contracts/launchpad/launchpad.sol\":1999:2159  if (contributions[msg.sender] == 0) {... */\n    tag_233:\n        /* \"contracts/launchpad/launchpad.sol\":2228:2260  uint256 remainingTokensForWallet */\n      0x00\n        /* \"contracts/launchpad/launchpad.sol\":2310:2325  PRICE_PER_TOKEN */\n      sload(0x02)\n        /* \"contracts/launchpad/launchpad.sol\":2263:2295  remainingTokenAvailablePerWallet */\n      0x0a\n        /* \"contracts/launchpad/launchpad.sol\":2263:2307  remainingTokenAvailablePerWallet[msg.sender] */\n      0x00\n        /* \"contracts/launchpad/launchpad.sol\":2296:2306  msg.sender */\n      caller\n        /* \"contracts/launchpad/launchpad.sol\":2263:2307  remainingTokenAvailablePerWallet[msg.sender] */\n      0xffffffffffffffffffffffffffffffffffffffff\n      and\n      0xffffffffffffffffffffffffffffffffffffffff\n      and\n      dup2\n      mstore\n      0x20\n      add\n      swap1\n      dup2\n      mstore\n      0x20\n      add\n      0x00\n      keccak256\n      sload\n        /* \"contracts/launchpad/launchpad.sol\":2263:2325  remainingTokenAvailablePerWallet[msg.sender] / PRICE_PER_TOKEN */\n      tag_235\n      swap2\n      swap1\n      tag_179\n      jump\t// in\n    tag_235:\n        /* \"contracts/launchpad/launchpad.sol\":2228:2325  uint256 remainingTokensForWallet = remainingTokenAvailablePerWallet[msg.sender] / PRICE_PER_TOKEN */\n      swap1\n      pop\n        /* \"contracts/launchpad/launchpad.sol\":2354:2378  remainingTokensForWallet */\n      dup1\n        /* \"contracts/launchpad/launchpad.sol\":2339:2350  tokensToBuy */\n      dup3\n        /* \"contracts/launchpad/launchpad.sol\":2339:2378  tokensToBuy <= remainingTokensForWallet */\n      gt\n      iszero\n        /* \"contracts/launchpad/launchpad.sol\":2331:2415  require(tokensToBuy <= remainingTokensForWallet, \"Exceeds the max token per wallet\") */\n      tag_236\n      jumpi\n      mload(0x40)\n      0x08c379a000000000000000000000000000000000000000000000000000000000\n      dup2\n      mstore\n      0x04\n      add\n      tag_237\n      swap1\n      tag_238\n      jump\t// in\n    tag_237:\n      mload(0x40)\n      dup1\n      swap2\n      sub\n      swap1\n      revert\n    tag_236:\n        /* \"contracts/launchpad/launchpad.sol\":2451:2460  msg.value */\n      callvalue\n        /* \"contracts/launchpad/launchpad.sol\":2422:2435  contributions */\n      0x08\n        /* \"contracts/launchpad/launchpad.sol\":2422:2447  contributions[msg.sender] */\n      0x00\n        /* \"contracts/launchpad/launchpad.sol\":2436:2446  msg.sender */\n      caller\n        /* \"contracts/launchpad/launchpad.sol\":2422:2447  contributions[msg.sender] */\n      0xffffffffffffffffffffffffffffffffffffffff\n      and\n      0xffffffffffffffffffffffffffffffffffffffff\n      and\n      dup2\n      mstore\n      0x20\n      add\n      swap1\n      dup2\n      mstore\n      0x20\n      add\n      0x00\n      keccak256\n      0x00\n        /* \"contracts/launchpad/launchpad.sol\":2422:2460  contributions[msg.sender] += msg.value */\n      dup3\n      dup3\n      sload\n      tag_239\n      swap2\n      swap1\n      tag_150\n      jump\t// in\n    tag_239:\n      swap3\n      pop\n      pop\n      dup2\n      swap1\n      sstore\n      pop\n        /* \"contracts/launchpad/launchpad.sol\":2503:2514  tokensToBuy */\n      dup2\n        /* \"contracts/launchpad/launchpad.sol\":2466:2487  contributionsInTokens */\n      0x09\n        /* \"contracts/launchpad/launchpad.sol\":2466:2499  contributionsInTokens[msg.sender] */\n      0x00\n        /* \"contracts/launchpad/launchpad.sol\":2488:2498  msg.sender */\n      caller\n        /* \"contracts/launchpad/launchpad.sol\":2466:2499  contributionsInTokens[msg.sender] */\n      0xffffffffffffffffffffffffffffffffffffffff\n      and\n      0xffffffffffffffffffffffffffffffffffffffff\n      and\n      dup2\n      mstore\n      0x20\n      add\n      swap1\n      dup2\n      mstore\n      0x20\n      add\n      0x00\n      keccak256\n      0x00\n        /* \"contracts/launchpad/launchpad.sol\":2466:2514  contributionsInTokens[msg.sender] += tokensToBuy */\n      dup3\n      dup3\n      sload\n      tag_240\n      swap2\n      swap1\n      tag_150\n      jump\t// in\n    tag_240:\n      swap3\n      pop\n      pop\n      dup2\n      swap1\n      sstore\n      pop\n        /* \"contracts/launchpad/launchpad.sol\":2582:2597  PRICE_PER_TOKEN */\n      sload(0x02)\n        /* \"contracts/launchpad/launchpad.sol\":2568:2579  tokensToBuy */\n      dup3\n        /* \"contracts/launchpad/launchpad.sol\":2568:2597  tokensToBuy * PRICE_PER_TOKEN */\n      tag_241\n      swap2\n      swap1\n      tag_242\n      jump\t// in\n    tag_241:\n        /* \"contracts/launchpad/launchpad.sol\":2520:2552  remainingTokenAvailablePerWallet */\n      0x0a\n        /* \"contracts/launchpad/launchpad.sol\":2520:2564  remainingTokenAvailablePerWallet[msg.sender] */\n      0x00\n        /* \"contracts/launchpad/launchpad.sol\":2553:2563  msg.sender */\n      caller\n        /* \"contracts/launchpad/launchpad.sol\":2520:2564  remainingTokenAvailablePerWallet[msg.sender] */\n      0xffffffffffffffffffffffffffffffffffffffff\n      and\n      0xffffffffffffffffffffffffffffffffffffffff\n      and\n      dup2\n      mstore\n      0x20\n      add\n      swap1\n      dup2\n      mstore\n      0x20\n      add\n      0x00\n      keccak256\n      0x00\n        /* \"contracts/launchpad/launchpad.sol\":2520:2597  remainingTokenAvailablePerWallet[msg.sender] -= tokensToBuy * PRICE_PER_TOKEN */\n      dup3\n      dup3\n      sload\n      tag_243\n      swap2\n      swap1\n      tag_183\n      jump\t// in\n    tag_243:\n      swap3\n      pop\n      pop\n      dup2\n      swap1\n      sstore\n      pop\n        /* \"contracts/launchpad/launchpad.sol\":2672:2681  msg.value */\n      callvalue\n        /* \"contracts/launchpad/launchpad.sol\":2650:2668  totalContributions */\n      0x0b\n      0x00\n        /* \"contracts/launchpad/launchpad.sol\":2650:2681  totalContributions += msg.value */\n      dup3\n      dup3\n      sload\n      tag_244\n      swap2\n      swap1\n      tag_150\n      jump\t// in\n    tag_244:\n      swap3\n      pop\n      pop\n      dup2\n      swap1\n      sstore\n      pop\n        /* \"contracts/launchpad/launchpad.sol\":2706:2717  tokensToBuy */\n      dup2\n        /* \"contracts/launchpad/launchpad.sol\":2687:2702  totalTokensSold */\n      0x0c\n      0x00\n        /* \"contracts/launchpad/launchpad.sol\":2687:2717  totalTokensSold += tokensToBuy */\n      dup3\n      dup3\n      sload\n      tag_245\n      swap2\n      swap1\n      tag_150\n      jump\t// in\n    tag_245:\n      swap3\n      pop\n      pop\n      dup2\n      swap1\n      sstore\n      pop\n        /* \"contracts/launchpad/launchpad.sol\":1710:2720  {... */\n      pop\n      pop\n        /* \"contracts/launchpad/launchpad.sol\":1651:2720  function contribute() external payable onlyDuringLaunchpad {... */\n      jump\t// out\n        /* \"contracts/launchpad/launchpad.sol\":720:752  address[] public allContributors */\n    tag_126:\n      0x07\n      dup2\n      dup2\n      sload\n      dup2\n      lt\n      tag_246\n      jumpi\n      0x00\n      dup1\n      revert\n    tag_246:\n      swap1\n      0x00\n      mstore\n      keccak256(0x00, 0x20)\n      add\n      0x00\n      swap2\n      pop\n      sload\n      swap1\n      0x0100\n      exp\n      swap1\n      div\n      0xffffffffffffffffffffffffffffffffffffffff\n      and\n      dup2\n      jump\t// out\n        /* \"@openzeppelin/contracts/access/Ownable.sol\":2543:2758  function transferOwnership(address newOwner) public virtual onlyOwner {... */\n    tag_131:\n        /* \"@openzeppelin/contracts/access/Ownable.sol\":1531:1544  _checkOwner() */\n      tag_249\n        /* \"@openzeppelin/contracts/access/Ownable.sol\":1531:1542  _checkOwner */\n      tag_143\n        /* \"@openzeppelin/contracts/access/Ownable.sol\":1531:1544  _checkOwner() */\n      jump\t// in\n    tag_249:\n        /* \"@openzeppelin/contracts/access/Ownable.sol\":2647:2648  0 */\n      0x00\n        /* \"@openzeppelin/contracts/access/Ownable.sol\":2627:2649  newOwner == address(0) */\n      0xffffffffffffffffffffffffffffffffffffffff\n      and\n        /* \"@openzeppelin/contracts/access/Ownable.sol\":2627:2635  newOwner */\n      dup2\n        /* \"@openzeppelin/contracts/access/Ownable.sol\":2627:2649  newOwner == address(0) */\n      0xffffffffffffffffffffffffffffffffffffffff\n      and\n      sub\n        /* \"@openzeppelin/contracts/access/Ownable.sol\":2623:2714  if (newOwner == address(0)) {... */\n      tag_251\n      jumpi\n        /* \"@openzeppelin/contracts/access/Ownable.sol\":2700:2701  0 */\n      0x00\n        /* \"@openzeppelin/contracts/access/Ownable.sol\":2672:2703  OwnableInvalidOwner(address(0)) */\n      mload(0x40)\n      0x1e4fbdf700000000000000000000000000000000000000000000000000000000\n      dup2\n      mstore\n      0x04\n      add\n      tag_252\n      swap2\n      swap1\n      tag_100\n      jump\t// in\n    tag_252:\n      mload(0x40)\n      dup1\n      swap2\n      sub\n      swap1\n      revert\n        /* \"@openzeppelin/contracts/access/Ownable.sol\":2623:2714  if (newOwner == address(0)) {... */\n    tag_251:\n        /* \"@openzeppelin/contracts/access/Ownable.sol\":2723:2751  _transferOwnership(newOwner) */\n      tag_253\n        /* \"@openzeppelin/contracts/access/Ownable.sol\":2742:2750  newOwner */\n      dup2\n        /* \"@openzeppelin/contracts/access/Ownable.sol\":2723:2741  _transferOwnership */\n      tag_188\n        /* \"@openzeppelin/contracts/access/Ownable.sol\":2723:2751  _transferOwnership(newOwner) */\n      jump\t// in\n    tag_253:\n        /* \"@openzeppelin/contracts/access/Ownable.sol\":2543:2758  function transferOwnership(address newOwner) public virtual onlyOwner {... */\n      pop\n      jump\t// out\n        /* \"contracts/launchpad/launchpad.sol\":390:436  uint256 public constant MAX_TOKENS = 1_000_000 */\n    tag_134:\n        /* \"contracts/launchpad/launchpad.sol\":427:436  1_000_000 */\n      0x0f4240\n        /* \"contracts/launchpad/launchpad.sol\":390:436  uint256 public constant MAX_TOKENS = 1_000_000 */\n      dup2\n      jump\t// out\n        /* \"contracts/launchpad/launchpad.sol\":204:223  IERC20 public token */\n    tag_138:\n      0x01\n      0x00\n      swap1\n      sload\n      swap1\n      0x0100\n      exp\n      swap1\n      div\n      0xffffffffffffffffffffffffffffffffffffffff\n      and\n      dup2\n      jump\t// out\n        /* \"@openzeppelin/contracts/access/Ownable.sol\":1796:1958  function _checkOwner() internal view virtual {... */\n    tag_143:\n        /* \"@openzeppelin/contracts/access/Ownable.sol\":1866:1878  _msgSender() */\n      tag_255\n        /* \"@openzeppelin/contracts/access/Ownable.sol\":1866:1876  _msgSender */\n      tag_256\n        /* \"@openzeppelin/contracts/access/Ownable.sol\":1866:1878  _msgSender() */\n      jump\t// in\n    tag_255:\n        /* \"@openzeppelin/contracts/access/Ownable.sol\":1855:1878  owner() != _msgSender() */\n      0xffffffffffffffffffffffffffffffffffffffff\n      and\n        /* \"@openzeppelin/contracts/access/Ownable.sol\":1855:1862  owner() */\n      tag_257\n        /* \"@openzeppelin/contracts/access/Ownable.sol\":1855:1860  owner */\n      tag_98\n        /* \"@openzeppelin/contracts/access/Ownable.sol\":1855:1862  owner() */\n      jump\t// in\n    tag_257:\n        /* \"@openzeppelin/contracts/access/Ownable.sol\":1855:1878  owner() != _msgSender() */\n      0xffffffffffffffffffffffffffffffffffffffff\n      and\n      eq\n        /* \"@openzeppelin/contracts/access/Ownable.sol\":1851:1952  if (owner() != _msgSender()) {... */\n      tag_258\n      jumpi\n        /* \"@openzeppelin/contracts/access/Ownable.sol\":1928:1940  _msgSender() */\n      tag_259\n        /* \"@openzeppelin/contracts/access/Ownable.sol\":1928:1938  _msgSender */\n      tag_256\n        /* \"@openzeppelin/contracts/access/Ownable.sol\":1928:1940  _msgSender() */\n      jump\t// in\n    tag_259:\n        /* \"@openzeppelin/contracts/access/Ownable.sol\":1901:1941  OwnableUnauthorizedAccount(_msgSender()) */\n      mload(0x40)\n      0x118cdaa700000000000000000000000000000000000000000000000000000000\n      dup2\n      mstore\n      0x04\n      add\n      tag_260\n      swap2\n      swap1\n      tag_100\n      jump\t// in\n    tag_260:\n      mload(0x40)\n      dup1\n      swap2\n      sub\n      swap1\n      revert\n        /* \"@openzeppelin/contracts/access/Ownable.sol\":1851:1952  if (owner() != _msgSender()) {... */\n    tag_258:\n        /* \"@openzeppelin/contracts/access/Ownable.sol\":1796:1958  function _checkOwner() internal view virtual {... */\n      jump\t// out\n        /* \"@openzeppelin/contracts/access/Ownable.sol\":2912:3099  function _transferOwnership(address newOwner) internal virtual {... */\n    tag_188:\n        /* \"@openzeppelin/contracts/access/Ownable.sol\":2985:3001  address oldOwner */\n      0x00\n        /* \"@openzeppelin/contracts/access/Ownable.sol\":3004:3010  _owner */\n      dup1\n      0x00\n      swap1\n      sload\n      swap1\n      0x0100\n      exp\n      swap1\n      div\n      0xffffffffffffffffffffffffffffffffffffffff\n      and\n        /* \"@openzeppelin/contracts/access/Ownable.sol\":2985:3010  address oldOwner = _owner */\n      swap1\n      pop\n        /* \"@openzeppelin/contracts/access/Ownable.sol\":3029:3037  newOwner */\n      dup2\n        /* \"@openzeppelin/contracts/access/Ownable.sol\":3020:3026  _owner */\n      0x00\n      dup1\n        /* \"@openzeppelin/contracts/access/Ownable.sol\":3020:3037  _owner = newOwner */\n      0x0100\n      exp\n      dup2\n      sload\n      dup2\n      0xffffffffffffffffffffffffffffffffffffffff\n      mul\n      not\n      and\n      swap1\n      dup4\n      0xffffffffffffffffffffffffffffffffffffffff\n      and\n      mul\n      or\n      swap1\n      sstore\n      pop\n        /* \"@openzeppelin/contracts/access/Ownable.sol\":3083:3091  newOwner */\n      dup2\n        /* \"@openzeppelin/contracts/access/Ownable.sol\":3052:3092  OwnershipTransferred(oldOwner, newOwner) */\n      0xffffffffffffffffffffffffffffffffffffffff\n      and\n        /* \"@openzeppelin/contracts/access/Ownable.sol\":3073:3081  oldOwner */\n      dup2\n        /* \"@openzeppelin/contracts/access/Ownable.sol\":3052:3092  OwnershipTransferred(oldOwner, newOwner) */\n      0xffffffffffffffffffffffffffffffffffffffff\n      and\n      0x8be0079c531659141344cd1fd0a4f28419497f9722a3daafe3b4186f6b6457e0\n      mload(0x40)\n      mload(0x40)\n      dup1\n      swap2\n      sub\n      swap1\n      log3\n        /* \"@openzeppelin/contracts/access/Ownable.sol\":2975:3099  {... */\n      pop\n        /* \"@openzeppelin/contracts/access/Ownable.sol\":2912:3099  function _transferOwnership(address newOwner) internal virtual {... */\n      pop\n      jump\t// out\n        /* \"@openzeppelin/contracts/utils/Context.sol\":656:752  function _msgSender() internal view virtual returns (address) {... */\n    tag_256:\n        /* \"@openzeppelin/contracts/utils/Context.sol\":709:716  address */\n      0x00\n        /* \"@openzeppelin/contracts/utils/Context.sol\":735:745  msg.sender */\n      caller\n        /* \"@openzeppelin/contracts/utils/Context.sol\":728:745  return msg.sender */\n      swap1\n      pop\n        /* \"@openzeppelin/contracts/utils/Context.sol\":656:752  function _msgSender() internal view virtual returns (address) {... */\n      swap1\n      jump\t// out\n        /* \"#utility.yul\":88:205   */\n    tag_264:\n        /* \"#utility.yul\":197:198   */\n      0x00\n        /* \"#utility.yul\":194:195   */\n      dup1\n        /* \"#utility.yul\":187:199   */\n      revert\n        /* \"#utility.yul\":334:411   */\n    tag_266:\n        /* \"#utility.yul\":371:378   */\n      0x00\n        /* \"#utility.yul\":400:405   */\n      dup2\n        /* \"#utility.yul\":389:405   */\n      swap1\n      pop\n        /* \"#utility.yul\":334:411   */\n      swap2\n      swap1\n      pop\n      jump\t// out\n        /* \"#utility.yul\":417:539   */\n    tag_267:\n        /* \"#utility.yul\":490:514   */\n      tag_308\n        /* \"#utility.yul\":508:513   */\n      dup2\n        /* \"#utility.yul\":490:514   */\n      tag_266\n      jump\t// in\n    tag_308:\n        /* \"#utility.yul\":483:488   */\n      dup2\n        /* \"#utility.yul\":480:515   */\n      eq\n        /* \"#utility.yul\":470:533   */\n      tag_309\n      jumpi\n        /* \"#utility.yul\":529:530   */\n      0x00\n        /* \"#utility.yul\":526:527   */\n      dup1\n        /* \"#utility.yul\":519:531   */\n      revert\n        /* \"#utility.yul\":470:533   */\n    tag_309:\n        /* \"#utility.yul\":417:539   */\n      pop\n      jump\t// out\n        /* \"#utility.yul\":545:684   */\n    tag_268:\n        /* \"#utility.yul\":591:596   */\n      0x00\n        /* \"#utility.yul\":629:635   */\n      dup2\n        /* \"#utility.yul\":616:636   */\n      calldataload\n        /* \"#utility.yul\":607:636   */\n      swap1\n      pop\n        /* \"#utility.yul\":645:678   */\n      tag_311\n        /* \"#utility.yul\":672:677   */\n      dup2\n        /* \"#utility.yul\":645:678   */\n      tag_267\n      jump\t// in\n    tag_311:\n        /* \"#utility.yul\":545:684   */\n      swap3\n      swap2\n      pop\n      pop\n      jump\t// out\n        /* \"#utility.yul\":690:1019   */\n    tag_36:\n        /* \"#utility.yul\":749:755   */\n      0x00\n        /* \"#utility.yul\":798:800   */\n      0x20\n        /* \"#utility.yul\":786:795   */\n      dup3\n        /* \"#utility.yul\":777:784   */\n      dup5\n        /* \"#utility.yul\":773:796   */\n      sub\n        /* \"#utility.yul\":769:801   */\n      slt\n        /* \"#utility.yul\":766:885   */\n      iszero\n      tag_313\n      jumpi\n        /* \"#utility.yul\":804:883   */\n      tag_314\n      tag_264\n      jump\t// in\n    tag_314:\n        /* \"#utility.yul\":766:885   */\n    tag_313:\n        /* \"#utility.yul\":924:925   */\n      0x00\n        /* \"#utility.yul\":949:1002   */\n      tag_315\n        /* \"#utility.yul\":994:1001   */\n      dup5\n        /* \"#utility.yul\":985:991   */\n      dup3\n        /* \"#utility.yul\":974:983   */\n      dup6\n        /* \"#utility.yul\":970:992   */\n      add\n        /* \"#utility.yul\":949:1002   */\n      tag_268\n      jump\t// in\n    tag_315:\n        /* \"#utility.yul\":939:1002   */\n      swap2\n      pop\n        /* \"#utility.yul\":895:1012   */\n      pop\n        /* \"#utility.yul\":690:1019   */\n      swap3\n      swap2\n      pop\n      pop\n      jump\t// out\n        /* \"#utility.yul\":1025:1151   */\n    tag_269:\n        /* \"#utility.yul\":1062:1069   */\n      0x00\n        /* \"#utility.yul\":1102:1144   */\n      0xffffffffffffffffffffffffffffffffffffffff\n        /* \"#utility.yul\":1095:1100   */\n      dup3\n        /* \"#utility.yul\":1091:1145   */\n      and\n        /* \"#utility.yul\":1080:1145   */\n      swap1\n      pop\n        /* \"#utility.yul\":1025:1151   */\n      swap2\n      swap1\n      pop\n      jump\t// out\n        /* \"#utility.yul\":1157:1253   */\n    tag_270:\n        /* \"#utility.yul\":1194:1201   */\n      0x00\n        /* \"#utility.yul\":1223:1247   */\n      tag_318\n        /* \"#utility.yul\":1241:1246   */\n      dup3\n        /* \"#utility.yul\":1223:1247   */\n      tag_269\n      jump\t// in\n    tag_318:\n        /* \"#utility.yul\":1212:1247   */\n      swap1\n      pop\n        /* \"#utility.yul\":1157:1253   */\n      swap2\n      swap1\n      pop\n      jump\t// out\n        /* \"#utility.yul\":1259:1381   */\n    tag_271:\n        /* \"#utility.yul\":1332:1356   */\n      tag_320\n        /* \"#utility.yul\":1350:1355   */\n      dup2\n        /* \"#utility.yul\":1332:1356   */\n      tag_270\n      jump\t// in\n    tag_320:\n        /* \"#utility.yul\":1325:1330   */\n      dup2\n        /* \"#utility.yul\":1322:1357   */\n      eq\n        /* \"#utility.yul\":1312:1375   */\n      tag_321\n      jumpi\n        /* \"#utility.yul\":1371:1372   */\n      0x00\n        /* \"#utility.yul\":1368:1369   */\n      dup1\n        /* \"#utility.yul\":1361:1373   */\n      revert\n        /* \"#utility.yul\":1312:1375   */\n    tag_321:\n        /* \"#utility.yul\":1259:1381   */\n      pop\n      jump\t// out\n        /* \"#utility.yul\":1387:1526   */\n    tag_272:\n        /* \"#utility.yul\":1433:1438   */\n      0x00\n        /* \"#utility.yul\":1471:1477   */\n      dup2\n        /* \"#utility.yul\":1458:1478   */\n      calldataload\n        /* \"#utility.yul\":1449:1478   */\n      swap1\n      pop\n        /* \"#utility.yul\":1487:1520   */\n      tag_323\n        /* \"#utility.yul\":1514:1519   */\n      dup2\n        /* \"#utility.yul\":1487:1520   */\n      tag_271\n      jump\t// in\n    tag_323:\n        /* \"#utility.yul\":1387:1526   */\n      swap3\n      swap2\n      pop\n      pop\n      jump\t// out\n        /* \"#utility.yul\":1532:1861   */\n    tag_41:\n        /* \"#utility.yul\":1591:1597   */\n      0x00\n        /* \"#utility.yul\":1640:1642   */\n      0x20\n        /* \"#utility.yul\":1628:1637   */\n      dup3\n        /* \"#utility.yul\":1619:1626   */\n      dup5\n        /* \"#utility.yul\":1615:1638   */\n      sub\n        /* \"#utility.yul\":1611:1643   */\n      slt\n        /* \"#utility.yul\":1608:1727   */\n      iszero\n      tag_325\n      jumpi\n        /* \"#utility.yul\":1646:1725   */\n      tag_326\n      tag_264\n      jump\t// in\n    tag_326:\n        /* \"#utility.yul\":1608:1727   */\n    tag_325:\n        /* \"#utility.yul\":1766:1767   */\n      0x00\n        /* \"#utility.yul\":1791:1844   */\n      tag_327\n        /* \"#utility.yul\":1836:1843   */\n      dup5\n        /* \"#utility.yul\":1827:1833   */\n      dup3\n        /* \"#utility.yul\":1816:1825   */\n      dup6\n        /* \"#utility.yul\":1812:1834   */\n      add\n        /* \"#utility.yul\":1791:1844   */\n      tag_272\n      jump\t// in\n    tag_327:\n        /* \"#utility.yul\":1781:1844   */\n      swap2\n      pop\n        /* \"#utility.yul\":1737:1854   */\n      pop\n        /* \"#utility.yul\":1532:1861   */\n      swap3\n      swap2\n      pop\n      pop\n      jump\t// out\n        /* \"#utility.yul\":1867:1985   */\n    tag_273:\n        /* \"#utility.yul\":1954:1978   */\n      tag_329\n        /* \"#utility.yul\":1972:1977   */\n      dup2\n        /* \"#utility.yul\":1954:1978   */\n      tag_266\n      jump\t// in\n    tag_329:\n        /* \"#utility.yul\":1949:1952   */\n      dup3\n        /* \"#utility.yul\":1942:1979   */\n      mstore\n        /* \"#utility.yul\":1867:1985   */\n      pop\n      pop\n      jump\t// out\n        /* \"#utility.yul\":1991:2213   */\n    tag_47:\n        /* \"#utility.yul\":2084:2088   */\n      0x00\n        /* \"#utility.yul\":2122:2124   */\n      0x20\n        /* \"#utility.yul\":2111:2120   */\n      dup3\n        /* \"#utility.yul\":2107:2125   */\n      add\n        /* \"#utility.yul\":2099:2125   */\n      swap1\n      pop\n        /* \"#utility.yul\":2135:2206   */\n      tag_331\n        /* \"#utility.yul\":2203:2204   */\n      0x00\n        /* \"#utility.yul\":2192:2201   */\n      dup4\n        /* \"#utility.yul\":2188:2205   */\n      add\n        /* \"#utility.yul\":2179:2185   */\n      dup5\n        /* \"#utility.yul\":2135:2206   */\n      tag_273\n      jump\t// in\n    tag_331:\n        /* \"#utility.yul\":1991:2213   */\n      swap3\n      swap2\n      pop\n      pop\n      jump\t// out\n        /* \"#utility.yul\":2219:2337   */\n    tag_274:\n        /* \"#utility.yul\":2306:2330   */\n      tag_333\n        /* \"#utility.yul\":2324:2329   */\n      dup2\n        /* \"#utility.yul\":2306:2330   */\n      tag_270\n      jump\t// in\n    tag_333:\n        /* \"#utility.yul\":2301:2304   */\n      dup3\n        /* \"#utility.yul\":2294:2331   */\n      mstore\n        /* \"#utility.yul\":2219:2337   */\n      pop\n      pop\n      jump\t// out\n        /* \"#utility.yul\":2343:2565   */\n    tag_100:\n        /* \"#utility.yul\":2436:2440   */\n      0x00\n        /* \"#utility.yul\":2474:2476   */\n      0x20\n        /* \"#utility.yul\":2463:2472   */\n      dup3\n        /* \"#utility.yul\":2459:2477   */\n      add\n        /* \"#utility.yul\":2451:2477   */\n      swap1\n      pop\n        /* \"#utility.yul\":2487:2558   */\n      tag_335\n        /* \"#utility.yul\":2555:2556   */\n      0x00\n        /* \"#utility.yul\":2544:2553   */\n      dup4\n        /* \"#utility.yul\":2540:2557   */\n      add\n        /* \"#utility.yul\":2531:2537   */\n      dup5\n        /* \"#utility.yul\":2487:2558   */\n      tag_274\n      jump\t// in\n    tag_335:\n        /* \"#utility.yul\":2343:2565   */\n      swap3\n      swap2\n      pop\n      pop\n      jump\t// out\n        /* \"#utility.yul\":2571:2631   */\n    tag_275:\n        /* \"#utility.yul\":2599:2602   */\n      0x00\n        /* \"#utility.yul\":2620:2625   */\n      dup2\n        /* \"#utility.yul\":2613:2625   */\n      swap1\n      pop\n        /* \"#utility.yul\":2571:2631   */\n      swap2\n      swap1\n      pop\n      jump\t// out\n        /* \"#utility.yul\":2637:2779   */\n    tag_276:\n        /* \"#utility.yul\":2687:2696   */\n      0x00\n        /* \"#utility.yul\":2720:2773   */\n      tag_338\n        /* \"#utility.yul\":2738:2772   */\n      tag_339\n        /* \"#utility.yul\":2747:2771   */\n      tag_340\n        /* \"#utility.yul\":2765:2770   */\n      dup5\n        /* \"#utility.yul\":2747:2771   */\n      tag_269\n      jump\t// in\n    tag_340:\n        /* \"#utility.yul\":2738:2772   */\n      tag_275\n      jump\t// in\n    tag_339:\n        /* \"#utility.yul\":2720:2773   */\n      tag_269\n      jump\t// in\n    tag_338:\n        /* \"#utility.yul\":2707:2773   */\n      swap1\n      pop\n        /* \"#utility.yul\":2637:2779   */\n      swap2\n      swap1\n      pop\n      jump\t// out\n        /* \"#utility.yul\":2785:2911   */\n    tag_277:\n        /* \"#utility.yul\":2835:2844   */\n      0x00\n        /* \"#utility.yul\":2868:2905   */\n      tag_342\n        /* \"#utility.yul\":2899:2904   */\n      dup3\n        /* \"#utility.yul\":2868:2905   */\n      tag_276\n      jump\t// in\n    tag_342:\n        /* \"#utility.yul\":2855:2905   */\n      swap1\n      pop\n        /* \"#utility.yul\":2785:2911   */\n      swap2\n      swap1\n      pop\n      jump\t// out\n        /* \"#utility.yul\":2917:3057   */\n    tag_278:\n        /* \"#utility.yul\":2981:2990   */\n      0x00\n        /* \"#utility.yul\":3014:3051   */\n      tag_344\n        /* \"#utility.yul\":3045:3050   */\n      dup3\n        /* \"#utility.yul\":3014:3051   */\n      tag_277\n      jump\t// in\n    tag_344:\n        /* \"#utility.yul\":3001:3051   */\n      swap1\n      pop\n        /* \"#utility.yul\":2917:3057   */\n      swap2\n      swap1\n      pop\n      jump\t// out\n        /* \"#utility.yul\":3063:3222   */\n    tag_279:\n        /* \"#utility.yul\":3164:3215   */\n      tag_346\n        /* \"#utility.yul\":3209:3214   */\n      dup2\n        /* \"#utility.yul\":3164:3215   */\n      tag_278\n      jump\t// in\n    tag_346:\n        /* \"#utility.yul\":3159:3162   */\n      dup3\n        /* \"#utility.yul\":3152:3216   */\n      mstore\n        /* \"#utility.yul\":3063:3222   */\n      pop\n      pop\n      jump\t// out\n        /* \"#utility.yul\":3228:3478   */\n    tag_140:\n        /* \"#utility.yul\":3335:3339   */\n      0x00\n        /* \"#utility.yul\":3373:3375   */\n      0x20\n        /* \"#utility.yul\":3362:3371   */\n      dup3\n        /* \"#utility.yul\":3358:3376   */\n      add\n        /* \"#utility.yul\":3350:3376   */\n      swap1\n      pop\n        /* \"#utility.yul\":3386:3471   */\n      tag_348\n        /* \"#utility.yul\":3468:3469   */\n      0x00\n        /* \"#utility.yul\":3457:3466   */\n      dup4\n        /* \"#utility.yul\":3453:3470   */\n      add\n        /* \"#utility.yul\":3444:3450   */\n      dup5\n        /* \"#utility.yul\":3386:3471   */\n      tag_279\n      jump\t// in\n    tag_348:\n        /* \"#utility.yul\":3228:3478   */\n      swap3\n      swap2\n      pop\n      pop\n      jump\t// out\n        /* \"#utility.yul\":3484:3653   */\n    tag_280:\n        /* \"#utility.yul\":3568:3579   */\n      0x00\n        /* \"#utility.yul\":3602:3608   */\n      dup3\n        /* \"#utility.yul\":3597:3600   */\n      dup3\n        /* \"#utility.yul\":3590:3609   */\n      mstore\n        /* \"#utility.yul\":3642:3646   */\n      0x20\n        /* \"#utility.yul\":3637:3640   */\n      dup3\n        /* \"#utility.yul\":3633:3647   */\n      add\n        /* \"#utility.yul\":3618:3647   */\n      swap1\n      pop\n        /* \"#utility.yul\":3484:3653   */\n      swap3\n      swap2\n      pop\n      pop\n      jump\t// out\n        /* \"#utility.yul\":3659:3834   */\n    tag_281:\n        /* \"#utility.yul\":3799:3826   */\n      0x6c61756e636870616420616c7265616479207374617274656400000000000000\n        /* \"#utility.yul\":3795:3796   */\n      0x00\n        /* \"#utility.yul\":3787:3793   */\n      dup3\n        /* \"#utility.yul\":3783:3797   */\n      add\n        /* \"#utility.yul\":3776:3827   */\n      mstore\n        /* \"#utility.yul\":3659:3834   */\n      pop\n      jump\t// out\n        /* \"#utility.yul\":3840:4206   */\n    tag_282:\n        /* \"#utility.yul\":3982:3985   */\n      0x00\n        /* \"#utility.yul\":4003:4070   */\n      tag_352\n        /* \"#utility.yul\":4067:4069   */\n      0x19\n        /* \"#utility.yul\":4062:4065   */\n      dup4\n        /* \"#utility.yul\":4003:4070   */\n      tag_280\n      jump\t// in\n    tag_352:\n        /* \"#utility.yul\":3996:4070   */\n      swap2\n      pop\n        /* \"#utility.yul\":4079:4172   */\n      tag_353\n        /* \"#utility.yul\":4168:4171   */\n      dup3\n        /* \"#utility.yul\":4079:4172   */\n      tag_281\n      jump\t// in\n    tag_353:\n        /* \"#utility.yul\":4197:4199   */\n      0x20\n        /* \"#utility.yul\":4192:4195   */\n      dup3\n        /* \"#utility.yul\":4188:4200   */\n      add\n        /* \"#utility.yul\":4181:4200   */\n      swap1\n      pop\n        /* \"#utility.yul\":3840:4206   */\n      swap2\n      swap1\n      pop\n      jump\t// out\n        /* \"#utility.yul\":4212:4631   */\n    tag_148:\n        /* \"#utility.yul\":4378:4382   */\n      0x00\n        /* \"#utility.yul\":4416:4418   */\n      0x20\n        /* \"#utility.yul\":4405:4414   */\n      dup3\n        /* \"#utility.yul\":4401:4419   */\n      add\n        /* \"#utility.yul\":4393:4419   */\n      swap1\n      pop\n        /* \"#utility.yul\":4465:4474   */\n      dup2\n        /* \"#utility.yul\":4459:4463   */\n      dup2\n        /* \"#utility.yul\":4455:4475   */\n      sub\n        /* \"#utility.yul\":4451:4452   */\n      0x00\n        /* \"#utility.yul\":4440:4449   */\n      dup4\n        /* \"#utility.yul\":4436:4453   */\n      add\n        /* \"#utility.yul\":4429:4476   */\n      mstore\n        /* \"#utility.yul\":4493:4624   */\n      tag_355\n        /* \"#utility.yul\":4619:4623   */\n      dup2\n        /* \"#utility.yul\":4493:4624   */\n      tag_282\n      jump\t// in\n    tag_355:\n        /* \"#utility.yul\":4485:4624   */\n      swap1\n      pop\n        /* \"#utility.yul\":4212:4631   */\n      swap2\n      swap1\n      pop\n      jump\t// out\n        /* \"#utility.yul\":4637:4817   */\n    tag_283:\n        /* \"#utility.yul\":4685:4762   */\n      0x4e487b7100000000000000000000000000000000000000000000000000000000\n        /* \"#utility.yul\":4682:4683   */\n      0x00\n        /* \"#utility.yul\":4675:4763   */\n      mstore\n        /* \"#utility.yul\":4782:4786   */\n      0x11\n        /* \"#utility.yul\":4779:4780   */\n      0x04\n        /* \"#utility.yul\":4772:4787   */\n      mstore\n        /* \"#utility.yul\":4806:4810   */\n      0x24\n        /* \"#utility.yul\":4803:4804   */\n      0x00\n        /* \"#utility.yul\":4796:4811   */\n      revert\n        /* \"#utility.yul\":4823:5014   */\n    tag_150:\n        /* \"#utility.yul\":4863:4866   */\n      0x00\n        /* \"#utility.yul\":4882:4902   */\n      tag_358\n        /* \"#utility.yul\":4900:4901   */\n      dup3\n        /* \"#utility.yul\":4882:4902   */\n      tag_266\n      jump\t// in\n    tag_358:\n        /* \"#utility.yul\":4877:4902   */\n      swap2\n      pop\n        /* \"#utility.yul\":4916:4936   */\n      tag_359\n        /* \"#utility.yul\":4934:4935   */\n      dup4\n        /* \"#utility.yul\":4916:4936   */\n      tag_266\n      jump\t// in\n    tag_359:\n        /* \"#utility.yul\":4911:4936   */\n      swap3\n      pop\n        /* \"#utility.yul\":4959:4960   */\n      dup3\n        /* \"#utility.yul\":4956:4957   */\n      dup3\n        /* \"#utility.yul\":4952:4961   */\n      add\n        /* \"#utility.yul\":4945:4961   */\n      swap1\n      pop\n        /* \"#utility.yul\":4980:4983   */\n      dup1\n        /* \"#utility.yul\":4977:4978   */\n      dup3\n        /* \"#utility.yul\":4974:4984   */\n      gt\n        /* \"#utility.yul\":4971:5007   */\n      iszero\n      tag_360\n      jumpi\n        /* \"#utility.yul\":4987:5005   */\n      tag_361\n      tag_283\n      jump\t// in\n    tag_361:\n        /* \"#utility.yul\":4971:5007   */\n    tag_360:\n        /* \"#utility.yul\":4823:5014   */\n      swap3\n      swap2\n      pop\n      pop\n      jump\t// out\n        /* \"#utility.yul\":5020:5196   */\n    tag_284:\n        /* \"#utility.yul\":5160:5188   */\n      0x4c61756e6368706164206e6f742066696e697368656420796574000000000000\n        /* \"#utility.yul\":5156:5157   */\n      0x00\n        /* \"#utility.yul\":5148:5154   */\n      dup3\n        /* \"#utility.yul\":5144:5158   */\n      add\n        /* \"#utility.yul\":5137:5189   */\n      mstore\n        /* \"#utility.yul\":5020:5196   */\n      pop\n      jump\t// out\n        /* \"#utility.yul\":5202:5568   */\n    tag_285:\n        /* \"#utility.yul\":5344:5347   */\n      0x00\n        /* \"#utility.yul\":5365:5432   */\n      tag_364\n        /* \"#utility.yul\":5429:5431   */\n      0x1a\n        /* \"#utility.yul\":5424:5427   */\n      dup4\n        /* \"#utility.yul\":5365:5432   */\n      tag_280\n      jump\t// in\n    tag_364:\n        /* \"#utility.yul\":5358:5432   */\n      swap2\n      pop\n        /* \"#utility.yul\":5441:5534   */\n      tag_365\n        /* \"#utility.yul\":5530:5533   */\n      dup3\n        /* \"#utility.yul\":5441:5534   */\n      tag_284\n      jump\t// in\n    tag_365:\n        /* \"#utility.yul\":5559:5561   */\n      0x20\n        /* \"#utility.yul\":5554:5557   */\n      dup3\n        /* \"#utility.yul\":5550:5562   */\n      add\n        /* \"#utility.yul\":5543:5562   */\n      swap1\n      pop\n        /* \"#utility.yul\":5202:5568   */\n      swap2\n      swap1\n      pop\n      jump\t// out\n        /* \"#utility.yul\":5574:5993   */\n    tag_159:\n        /* \"#utility.yul\":5740:5744   */\n      0x00\n        /* \"#utility.yul\":5778:5780   */\n      0x20\n        /* \"#utility.yul\":5767:5776   */\n      dup3\n        /* \"#utility.yul\":5763:5781   */\n      add\n        /* \"#utility.yul\":5755:5781   */\n      swap1\n      pop\n        /* \"#utility.yul\":5827:5836   */\n      dup2\n        /* \"#utility.yul\":5821:5825   */\n      dup2\n        /* \"#utility.yul\":5817:5837   */\n      sub\n        /* \"#utility.yul\":5813:5814   */\n      0x00\n        /* \"#utility.yul\":5802:5811   */\n      dup4\n        /* \"#utility.yul\":5798:5815   */\n      add\n        /* \"#utility.yul\":5791:5838   */\n      mstore\n        /* \"#utility.yul\":5855:5986   */\n      tag_367\n        /* \"#utility.yul\":5981:5985   */\n      dup2\n        /* \"#utility.yul\":5855:5986   */\n      tag_285\n      jump\t// in\n    tag_367:\n        /* \"#utility.yul\":5847:5986   */\n      swap1\n      pop\n        /* \"#utility.yul\":5574:5993   */\n      swap2\n      swap1\n      pop\n      jump\t// out\n        /* \"#utility.yul\":5999:6178   */\n    tag_286:\n        /* \"#utility.yul\":6139:6170   */\n      0x54617820636f6c6c6563746f722061646472657373206e6f7420736574000000\n        /* \"#utility.yul\":6135:6136   */\n      0x00\n        /* \"#utility.yul\":6127:6133   */\n      dup3\n        /* \"#utility.yul\":6123:6137   */\n      add\n        /* \"#utility.yul\":6116:6171   */\n      mstore\n        /* \"#utility.yul\":5999:6178   */\n      pop\n      jump\t// out\n        /* \"#utility.yul\":6184:6550   */\n    tag_287:\n        /* \"#utility.yul\":6326:6329   */\n      0x00\n        /* \"#utility.yul\":6347:6414   */\n      tag_370\n        /* \"#utility.yul\":6411:6413   */\n      0x1d\n        /* \"#utility.yul\":6406:6409   */\n      dup4\n        /* \"#utility.yul\":6347:6414   */\n      tag_280\n      jump\t// in\n    tag_370:\n        /* \"#utility.yul\":6340:6414   */\n      swap2\n      pop\n        /* \"#utility.yul\":6423:6516   */\n      tag_371\n        /* \"#utility.yul\":6512:6515   */\n      dup3\n        /* \"#utility.yul\":6423:6516   */\n      tag_286\n      jump\t// in\n    tag_371:\n        /* \"#utility.yul\":6541:6543   */\n      0x20\n        /* \"#utility.yul\":6536:6539   */\n      dup3\n        /* \"#utility.yul\":6532:6544   */\n      add\n        /* \"#utility.yul\":6525:6544   */\n      swap1\n      pop\n        /* \"#utility.yul\":6184:6550   */\n      swap2\n      swap1\n      pop\n      jump\t// out\n        /* \"#utility.yul\":6556:6975   */\n    tag_163:\n        /* \"#utility.yul\":6722:6726   */\n      0x00\n        /* \"#utility.yul\":6760:6762   */\n      0x20\n        /* \"#utility.yul\":6749:6758   */\n      dup3\n        /* \"#utility.yul\":6745:6763   */\n      add\n        /* \"#utility.yul\":6737:6763   */\n      swap1\n      pop\n        /* \"#utility.yul\":6809:6818   */\n      dup2\n        /* \"#utility.yul\":6803:6807   */\n      dup2\n        /* \"#utility.yul\":6799:6819   */\n      sub\n        /* \"#utility.yul\":6795:6796   */\n      0x00\n        /* \"#utility.yul\":6784:6793   */\n      dup4\n        /* \"#utility.yul\":6780:6797   */\n      add\n        /* \"#utility.yul\":6773:6820   */\n      mstore\n        /* \"#utility.yul\":6837:6968   */\n      tag_373\n        /* \"#utility.yul\":6963:6967   */\n      dup2\n        /* \"#utility.yul\":6837:6968   */\n      tag_287\n      jump\t// in\n    tag_373:\n        /* \"#utility.yul\":6829:6968   */\n      swap1\n      pop\n        /* \"#utility.yul\":6556:6975   */\n      swap2\n      swap1\n      pop\n      jump\t// out\n        /* \"#utility.yul\":6981:7161   */\n    tag_175:\n        /* \"#utility.yul\":7029:7106   */\n      0x4e487b7100000000000000000000000000000000000000000000000000000000\n        /* \"#utility.yul\":7026:7027   */\n      0x00\n        /* \"#utility.yul\":7019:7107   */\n      mstore\n        /* \"#utility.yul\":7126:7130   */\n      0x32\n        /* \"#utility.yul\":7123:7124   */\n      0x04\n        /* \"#utility.yul\":7116:7131   */\n      mstore\n        /* \"#utility.yul\":7150:7154   */\n      0x24\n        /* \"#utility.yul\":7147:7148   */\n      0x00\n        /* \"#utility.yul\":7140:7155   */\n      revert\n        /* \"#utility.yul\":7167:7347   */\n    tag_288:\n        /* \"#utility.yul\":7215:7292   */\n      0x4e487b7100000000000000000000000000000000000000000000000000000000\n        /* \"#utility.yul\":7212:7213   */\n      0x00\n        /* \"#utility.yul\":7205:7293   */\n      mstore\n        /* \"#utility.yul\":7312:7316   */\n      0x12\n        /* \"#utility.yul\":7309:7310   */\n      0x04\n        /* \"#utility.yul\":7302:7317   */\n      mstore\n        /* \"#utility.yul\":7336:7340   */\n      0x24\n        /* \"#utility.yul\":7333:7334   */\n      0x00\n        /* \"#utility.yul\":7326:7341   */\n      revert\n        /* \"#utility.yul\":7353:7538   */\n    tag_179:\n        /* \"#utility.yul\":7393:7394   */\n      0x00\n        /* \"#utility.yul\":7410:7430   */\n      tag_377\n        /* \"#utility.yul\":7428:7429   */\n      dup3\n        /* \"#utility.yul\":7410:7430   */\n      tag_266\n      jump\t// in\n    tag_377:\n        /* \"#utility.yul\":7405:7430   */\n      swap2\n      pop\n        /* \"#utility.yul\":7444:7464   */\n      tag_378\n        /* \"#utility.yul\":7462:7463   */\n      dup4\n        /* \"#utility.yul\":7444:7464   */\n      tag_266\n      jump\t// in\n    tag_378:\n        /* \"#utility.yul\":7439:7464   */\n      swap3\n      pop\n        /* \"#utility.yul\":7483:7484   */\n      dup3\n        /* \"#utility.yul\":7473:7508   */\n      tag_379\n      jumpi\n        /* \"#utility.yul\":7488:7506   */\n      tag_380\n      tag_288\n      jump\t// in\n    tag_380:\n        /* \"#utility.yul\":7473:7508   */\n    tag_379:\n        /* \"#utility.yul\":7530:7531   */\n      dup3\n        /* \"#utility.yul\":7527:7528   */\n      dup3\n        /* \"#utility.yul\":7523:7532   */\n      div\n        /* \"#utility.yul\":7518:7532   */\n      swap1\n      pop\n        /* \"#utility.yul\":7353:7538   */\n      swap3\n      swap2\n      pop\n      pop\n      jump\t// out\n        /* \"#utility.yul\":7544:7738   */\n    tag_183:\n        /* \"#utility.yul\":7584:7588   */\n      0x00\n        /* \"#utility.yul\":7604:7624   */\n      tag_382\n        /* \"#utility.yul\":7622:7623   */\n      dup3\n        /* \"#utility.yul\":7604:7624   */\n      tag_266\n      jump\t// in\n    tag_382:\n        /* \"#utility.yul\":7599:7624   */\n      swap2\n      pop\n        /* \"#utility.yul\":7638:7658   */\n      tag_383\n        /* \"#utility.yul\":7656:7657   */\n      dup4\n        /* \"#utility.yul\":7638:7658   */\n      tag_266\n      jump\t// in\n    tag_383:\n        /* \"#utility.yul\":7633:7658   */\n      swap3\n      pop\n        /* \"#utility.yul\":7682:7683   */\n      dup3\n        /* \"#utility.yul\":7679:7680   */\n      dup3\n        /* \"#utility.yul\":7675:7684   */\n      sub\n        /* \"#utility.yul\":7667:7684   */\n      swap1\n      pop\n        /* \"#utility.yul\":7706:7707   */\n      dup2\n        /* \"#utility.yul\":7700:7704   */\n      dup2\n        /* \"#utility.yul\":7697:7708   */\n      gt\n        /* \"#utility.yul\":7694:7731   */\n      iszero\n      tag_384\n      jumpi\n        /* \"#utility.yul\":7711:7729   */\n      tag_385\n      tag_283\n      jump\t// in\n    tag_385:\n        /* \"#utility.yul\":7694:7731   */\n    tag_384:\n        /* \"#utility.yul\":7544:7738   */\n      swap3\n      swap2\n      pop\n      pop\n      jump\t// out\n        /* \"#utility.yul\":7744:8076   */\n    tag_211:\n        /* \"#utility.yul\":7865:7869   */\n      0x00\n        /* \"#utility.yul\":7903:7905   */\n      0x40\n        /* \"#utility.yul\":7892:7901   */\n      dup3\n        /* \"#utility.yul\":7888:7906   */\n      add\n        /* \"#utility.yul\":7880:7906   */\n      swap1\n      pop\n        /* \"#utility.yul\":7916:7987   */\n      tag_387\n        /* \"#utility.yul\":7984:7985   */\n      0x00\n        /* \"#utility.yul\":7973:7982   */\n      dup4\n        /* \"#utility.yul\":7969:7986   */\n      add\n        /* \"#utility.yul\":7960:7966   */\n      dup6\n        /* \"#utility.yul\":7916:7987   */\n      tag_274\n      jump\t// in\n    tag_387:\n        /* \"#utility.yul\":7997:8069   */\n      tag_388\n        /* \"#utility.yul\":8065:8067   */\n      0x20\n        /* \"#utility.yul\":8054:8063   */\n      dup4\n        /* \"#utility.yul\":8050:8068   */\n      add\n        /* \"#utility.yul\":8041:8047   */\n      dup5\n        /* \"#utility.yul\":7997:8069   */\n      tag_273\n      jump\t// in\n    tag_388:\n        /* \"#utility.yul\":7744:8076   */\n      swap4\n      swap3\n      pop\n      pop\n      pop\n      jump\t// out\n        /* \"#utility.yul\":8082:8172   */\n    tag_289:\n        /* \"#utility.yul\":8116:8123   */\n      0x00\n        /* \"#utility.yul\":8159:8164   */\n      dup2\n        /* \"#utility.yul\":8152:8165   */\n      iszero\n        /* \"#utility.yul\":8145:8166   */\n      iszero\n        /* \"#utility.yul\":8134:8166   */\n      swap1\n      pop\n        /* \"#utility.yul\":8082:8172   */\n      swap2\n      swap1\n      pop\n      jump\t// out\n        /* \"#utility.yul\":8178:8294   */\n    tag_290:\n        /* \"#utility.yul\":8248:8269   */\n      tag_391\n        /* \"#utility.yul\":8263:8268   */\n      dup2\n        /* \"#utility.yul\":8248:8269   */\n      tag_289\n      jump\t// in\n    tag_391:\n        /* \"#utility.yul\":8241:8246   */\n      dup2\n        /* \"#utility.yul\":8238:8270   */\n      eq\n        /* \"#utility.yul\":8228:8288   */\n      tag_392\n      jumpi\n        /* \"#utility.yul\":8284:8285   */\n      0x00\n        /* \"#utility.yul\":8281:8282   */\n      dup1\n        /* \"#utility.yul\":8274:8286   */\n      revert\n        /* \"#utility.yul\":8228:8288   */\n    tag_392:\n        /* \"#utility.yul\":8178:8294   */\n      pop\n      jump\t// out\n        /* \"#utility.yul\":8300:8437   */\n    tag_291:\n        /* \"#utility.yul\":8354:8359   */\n      0x00\n        /* \"#utility.yul\":8385:8391   */\n      dup2\n        /* \"#utility.yul\":8379:8392   */\n      mload\n        /* \"#utility.yul\":8370:8392   */\n      swap1\n      pop\n        /* \"#utility.yul\":8401:8431   */\n      tag_394\n        /* \"#utility.yul\":8425:8430   */\n      dup2\n        /* \"#utility.yul\":8401:8431   */\n      tag_290\n      jump\t// in\n    tag_394:\n        /* \"#utility.yul\":8300:8437   */\n      swap3\n      swap2\n      pop\n      pop\n      jump\t// out\n        /* \"#utility.yul\":8443:8788   */\n    tag_215:\n        /* \"#utility.yul\":8510:8516   */\n      0x00\n        /* \"#utility.yul\":8559:8561   */\n      0x20\n        /* \"#utility.yul\":8547:8556   */\n      dup3\n        /* \"#utility.yul\":8538:8545   */\n      dup5\n        /* \"#utility.yul\":8534:8557   */\n      sub\n        /* \"#utility.yul\":8530:8562   */\n      slt\n        /* \"#utility.yul\":8527:8646   */\n      iszero\n      tag_396\n      jumpi\n        /* \"#utility.yul\":8565:8644   */\n      tag_397\n      tag_264\n      jump\t// in\n    tag_397:\n        /* \"#utility.yul\":8527:8646   */\n    tag_396:\n        /* \"#utility.yul\":8685:8686   */\n      0x00\n        /* \"#utility.yul\":8710:8771   */\n      tag_398\n        /* \"#utility.yul\":8763:8770   */\n      dup5\n        /* \"#utility.yul\":8754:8760   */\n      dup3\n        /* \"#utility.yul\":8743:8752   */\n      dup6\n        /* \"#utility.yul\":8739:8761   */\n      add\n        /* \"#utility.yul\":8710:8771   */\n      tag_291\n      jump\t// in\n    tag_398:\n        /* \"#utility.yul\":8700:8771   */\n      swap2\n      pop\n        /* \"#utility.yul\":8656:8781   */\n      pop\n        /* \"#utility.yul\":8443:8788   */\n      swap3\n      swap2\n      pop\n      pop\n      jump\t// out\n        /* \"#utility.yul\":8794:8963   */\n    tag_292:\n        /* \"#utility.yul\":8934:8955   */\n      0x4c61756e63687061642068617320656e64656400000000000000000000000000\n        /* \"#utility.yul\":8930:8931   */\n      0x00\n        /* \"#utility.yul\":8922:8928   */\n      dup3\n        /* \"#utility.yul\":8918:8932   */\n      add\n        /* \"#utility.yul\":8911:8956   */\n      mstore\n        /* \"#utility.yul\":8794:8963   */\n      pop\n      jump\t// out\n        /* \"#utility.yul\":8969:9335   */\n    tag_293:\n        /* \"#utility.yul\":9111:9114   */\n      0x00\n        /* \"#utility.yul\":9132:9199   */\n      tag_401\n        /* \"#utility.yul\":9196:9198   */\n      0x13\n        /* \"#utility.yul\":9191:9194   */\n      dup4\n        /* \"#utility.yul\":9132:9199   */\n      tag_280\n      jump\t// in\n    tag_401:\n        /* \"#utility.yul\":9125:9199   */\n      swap2\n      pop\n        /* \"#utility.yul\":9208:9301   */\n      tag_402\n        /* \"#utility.yul\":9297:9300   */\n      dup3\n        /* \"#utility.yul\":9208:9301   */\n      tag_292\n      jump\t// in\n    tag_402:\n        /* \"#utility.yul\":9326:9328   */\n      0x20\n        /* \"#utility.yul\":9321:9324   */\n      dup3\n        /* \"#utility.yul\":9317:9329   */\n      add\n        /* \"#utility.yul\":9310:9329   */\n      swap1\n      pop\n        /* \"#utility.yul\":8969:9335   */\n      swap2\n      swap1\n      pop\n      jump\t// out\n        /* \"#utility.yul\":9341:9760   */\n    tag_220:\n        /* \"#utility.yul\":9507:9511   */\n      0x00\n        /* \"#utility.yul\":9545:9547   */\n      0x20\n        /* \"#utility.yul\":9534:9543   */\n      dup3\n        /* \"#utility.yul\":9530:9548   */\n      add\n        /* \"#utility.yul\":9522:9548   */\n      swap1\n      pop\n        /* \"#utility.yul\":9594:9603   */\n      dup2\n        /* \"#utility.yul\":9588:9592   */\n      dup2\n        /* \"#utility.yul\":9584:9604   */\n      sub\n        /* \"#utility.yul\":9580:9581   */\n      0x00\n        /* \"#utility.yul\":9569:9578   */\n      dup4\n        /* \"#utility.yul\":9565:9582   */\n      add\n        /* \"#utility.yul\":9558:9605   */\n      mstore\n        /* \"#utility.yul\":9622:9753   */\n      tag_404\n        /* \"#utility.yul\":9748:9752   */\n      dup2\n        /* \"#utility.yul\":9622:9753   */\n      tag_293\n      jump\t// in\n    tag_404:\n        /* \"#utility.yul\":9614:9753   */\n      swap1\n      pop\n        /* \"#utility.yul\":9341:9760   */\n      swap2\n      swap1\n      pop\n      jump\t// out\n        /* \"#utility.yul\":9766:9940   */\n    tag_294:\n        /* \"#utility.yul\":9906:9932   */\n      0x4c61756e6368706164206973206e6f7420737461727465640000000000000000\n        /* \"#utility.yul\":9902:9903   */\n      0x00\n        /* \"#utility.yul\":9894:9900   */\n      dup3\n        /* \"#utility.yul\":9890:9904   */\n      add\n        /* \"#utility.yul\":9883:9933   */\n      mstore\n        /* \"#utility.yul\":9766:9940   */\n      pop\n      jump\t// out\n        /* \"#utility.yul\":9946:10312   */\n    tag_295:\n        /* \"#utility.yul\":10088:10091   */\n      0x00\n        /* \"#utility.yul\":10109:10176   */\n      tag_407\n        /* \"#utility.yul\":10173:10175   */\n      0x18\n        /* \"#utility.yul\":10168:10171   */\n      dup4\n        /* \"#utility.yul\":10109:10176   */\n      tag_280\n      jump\t// in\n    tag_407:\n        /* \"#utility.yul\":10102:10176   */\n      swap2\n      pop\n        /* \"#utility.yul\":10185:10278   */\n      tag_408\n        /* \"#utility.yul\":10274:10277   */\n      dup3\n        /* \"#utility.yul\":10185:10278   */\n      tag_294\n      jump\t// in\n    tag_408:\n        /* \"#utility.yul\":10303:10305   */\n      0x20\n        /* \"#utility.yul\":10298:10301   */\n      dup3\n        /* \"#utility.yul\":10294:10306   */\n      add\n        /* \"#utility.yul\":10287:10306   */\n      swap1\n      pop\n        /* \"#utility.yul\":9946:10312   */\n      swap2\n      swap1\n      pop\n      jump\t// out\n        /* \"#utility.yul\":10318:10737   */\n    tag_223:\n        /* \"#utility.yul\":10484:10488   */\n      0x00\n        /* \"#utility.yul\":10522:10524   */\n      0x20\n        /* \"#utility.yul\":10511:10520   */\n      dup3\n        /* \"#utility.yul\":10507:10525   */\n      add\n        /* \"#utility.yul\":10499:10525   */\n      swap1\n      pop\n        /* \"#utility.yul\":10571:10580   */\n      dup2\n        /* \"#utility.yul\":10565:10569   */\n      dup2\n        /* \"#utility.yul\":10561:10581   */\n      sub\n        /* \"#utility.yul\":10557:10558   */\n      0x00\n        /* \"#utility.yul\":10546:10555   */\n      dup4\n        /* \"#utility.yul\":10542:10559   */\n      add\n        /* \"#utility.yul\":10535:10582   */\n      mstore\n        /* \"#utility.yul\":10599:10730   */\n      tag_410\n        /* \"#utility.yul\":10725:10729   */\n      dup2\n        /* \"#utility.yul\":10599:10730   */\n      tag_295\n      jump\t// in\n    tag_410:\n        /* \"#utility.yul\":10591:10730   */\n      swap1\n      pop\n        /* \"#utility.yul\":10318:10737   */\n      swap2\n      swap1\n      pop\n      jump\t// out\n        /* \"#utility.yul\":10743:10913   */\n    tag_296:\n        /* \"#utility.yul\":10883:10905   */\n      0x596f75206e65656420746f2073656e6420455448000000000000000000000000\n        /* \"#utility.yul\":10879:10880   */\n      0x00\n        /* \"#utility.yul\":10871:10877   */\n      dup3\n        /* \"#utility.yul\":10867:10881   */\n      add\n        /* \"#utility.yul\":10860:10906   */\n      mstore\n        /* \"#utility.yul\":10743:10913   */\n      pop\n      jump\t// out\n        /* \"#utility.yul\":10919:11285   */\n    tag_297:\n        /* \"#utility.yul\":11061:11064   */\n      0x00\n        /* \"#utility.yul\":11082:11149   */\n      tag_413\n        /* \"#utility.yul\":11146:11148   */\n      0x14\n        /* \"#utility.yul\":11141:11144   */\n      dup4\n        /* \"#utility.yul\":11082:11149   */\n      tag_280\n      jump\t// in\n    tag_413:\n        /* \"#utility.yul\":11075:11149   */\n      swap2\n      pop\n        /* \"#utility.yul\":11158:11251   */\n      tag_414\n        /* \"#utility.yul\":11247:11250   */\n      dup3\n        /* \"#utility.yul\":11158:11251   */\n      tag_296\n      jump\t// in\n    tag_414:\n        /* \"#utility.yul\":11276:11278   */\n      0x20\n        /* \"#utility.yul\":11271:11274   */\n      dup3\n        /* \"#utility.yul\":11267:11279   */\n      add\n        /* \"#utility.yul\":11260:11279   */\n      swap1\n      pop\n        /* \"#utility.yul\":10919:11285   */\n      swap2\n      swap1\n      pop\n      jump\t// out\n        /* \"#utility.yul\":11291:11710   */\n    tag_227:\n        /* \"#utility.yul\":11457:11461   */\n      0x00\n        /* \"#utility.yul\":11495:11497   */\n      0x20\n        /* \"#utility.yul\":11484:11493   */\n      dup3\n        /* \"#utility.yul\":11480:11498   */\n      add\n        /* \"#utility.yul\":11472:11498   */\n      swap1\n      pop\n        /* \"#utility.yul\":11544:11553   */\n      dup2\n        /* \"#utility.yul\":11538:11542   */\n      dup2\n        /* \"#utility.yul\":11534:11554   */\n      sub\n        /* \"#utility.yul\":11530:11531   */\n      0x00\n        /* \"#utility.yul\":11519:11528   */\n      dup4\n        /* \"#utility.yul\":11515:11532   */\n      add\n        /* \"#utility.yul\":11508:11555   */\n      mstore\n        /* \"#utility.yul\":11572:11703   */\n      tag_416\n        /* \"#utility.yul\":11698:11702   */\n      dup2\n        /* \"#utility.yul\":11572:11703   */\n      tag_297\n      jump\t// in\n    tag_416:\n        /* \"#utility.yul\":11564:11703   */\n      swap1\n      pop\n        /* \"#utility.yul\":11291:11710   */\n      swap2\n      swap1\n      pop\n      jump\t// out\n        /* \"#utility.yul\":11716:11893   */\n    tag_298:\n        /* \"#utility.yul\":11856:11885   */\n      0x45786365656473206d6178696d756d20746f6b656e206c696d69740000000000\n        /* \"#utility.yul\":11852:11853   */\n      0x00\n        /* \"#utility.yul\":11844:11850   */\n      dup3\n        /* \"#utility.yul\":11840:11854   */\n      add\n        /* \"#utility.yul\":11833:11886   */\n      mstore\n        /* \"#utility.yul\":11716:11893   */\n      pop\n      jump\t// out\n        /* \"#utility.yul\":11899:12265   */\n    tag_299:\n        /* \"#utility.yul\":12041:12044   */\n      0x00\n        /* \"#utility.yul\":12062:12129   */\n      tag_419\n        /* \"#utility.yul\":12126:12128   */\n      0x1b\n        /* \"#utility.yul\":12121:12124   */\n      dup4\n        /* \"#utility.yul\":12062:12129   */\n      tag_280\n      jump\t// in\n    tag_419:\n        /* \"#utility.yul\":12055:12129   */\n      swap2\n      pop\n        /* \"#utility.yul\":12138:12231   */\n      tag_420\n        /* \"#utility.yul\":12227:12230   */\n      dup3\n        /* \"#utility.yul\":12138:12231   */\n      tag_298\n      jump\t// in\n    tag_420:\n        /* \"#utility.yul\":12256:12258   */\n      0x20\n        /* \"#utility.yul\":12251:12254   */\n      dup3\n        /* \"#utility.yul\":12247:12259   */\n      add\n        /* \"#utility.yul\":12240:12259   */\n      swap1\n      pop\n        /* \"#utility.yul\":11899:12265   */\n      swap2\n      swap1\n      pop\n      jump\t// out\n        /* \"#utility.yul\":12271:12690   */\n    tag_232:\n        /* \"#utility.yul\":12437:12441   */\n      0x00\n        /* \"#utility.yul\":12475:12477   */\n      0x20\n        /* \"#utility.yul\":12464:12473   */\n      dup3\n        /* \"#utility.yul\":12460:12478   */\n      add\n        /* \"#utility.yul\":12452:12478   */\n      swap1\n      pop\n        /* \"#utility.yul\":12524:12533   */\n      dup2\n        /* \"#utility.yul\":12518:12522   */\n      dup2\n        /* \"#utility.yul\":12514:12534   */\n      sub\n        /* \"#utility.yul\":12510:12511   */\n      0x00\n        /* \"#utility.yul\":12499:12508   */\n      dup4\n        /* \"#utility.yul\":12495:12512   */\n      add\n        /* \"#utility.yul\":12488:12535   */\n      mstore\n        /* \"#utility.yul\":12552:12683   */\n      tag_422\n        /* \"#utility.yul\":12678:12682   */\n      dup2\n        /* \"#utility.yul\":12552:12683   */\n      tag_299\n      jump\t// in\n    tag_422:\n        /* \"#utility.yul\":12544:12683   */\n      swap1\n      pop\n        /* \"#utility.yul\":12271:12690   */\n      swap2\n      swap1\n      pop\n      jump\t// out\n        /* \"#utility.yul\":12696:12878   */\n    tag_300:\n        /* \"#utility.yul\":12836:12870   */\n      0x4578636565647320746865206d617820746f6b656e207065722077616c6c6574\n        /* \"#utility.yul\":12832:12833   */\n      0x00\n        /* \"#utility.yul\":12824:12830   */\n      dup3\n        /* \"#utility.yul\":12820:12834   */\n      add\n        /* \"#utility.yul\":12813:12871   */\n      mstore\n        /* \"#utility.yul\":12696:12878   */\n      pop\n      jump\t// out\n        /* \"#utility.yul\":12884:13250   */\n    tag_301:\n        /* \"#utility.yul\":13026:13029   */\n      0x00\n        /* \"#utility.yul\":13047:13114   */\n      tag_425\n        /* \"#utility.yul\":13111:13113   */\n      0x20\n        /* \"#utility.yul\":13106:13109   */\n      dup4\n        /* \"#utility.yul\":13047:13114   */\n      tag_280\n      jump\t// in\n    tag_425:\n        /* \"#utility.yul\":13040:13114   */\n      swap2\n      pop\n        /* \"#utility.yul\":13123:13216   */\n      tag_426\n        /* \"#utility.yul\":13212:13215   */\n      dup3\n        /* \"#utility.yul\":13123:13216   */\n      tag_300\n      jump\t// in\n    tag_426:\n        /* \"#utility.yul\":13241:13243   */\n      0x20\n        /* \"#utility.yul\":13236:13239   */\n      dup3\n        /* \"#utility.yul\":13232:13244   */\n      add\n        /* \"#utility.yul\":13225:13244   */\n      swap1\n      pop\n        /* \"#utility.yul\":12884:13250   */\n      swap2\n      swap1\n      pop\n      jump\t// out\n        /* \"#utility.yul\":13256:13675   */\n    tag_238:\n        /* \"#utility.yul\":13422:13426   */\n      0x00\n        /* \"#utility.yul\":13460:13462   */\n      0x20\n        /* \"#utility.yul\":13449:13458   */\n      dup3\n        /* \"#utility.yul\":13445:13463   */\n      add\n        /* \"#utility.yul\":13437:13463   */\n      swap1\n      pop\n        /* \"#utility.yul\":13509:13518   */\n      dup2\n        /* \"#utility.yul\":13503:13507   */\n      dup2\n        /* \"#utility.yul\":13499:13519   */\n      sub\n        /* \"#utility.yul\":13495:13496   */\n      0x00\n        /* \"#utility.yul\":13484:13493   */\n      dup4\n        /* \"#utility.yul\":13480:13497   */\n      add\n        /* \"#utility.yul\":13473:13520   */\n      mstore\n        /* \"#utility.yul\":13537:13668   */\n      tag_428\n        /* \"#utility.yul\":13663:13667   */\n      dup2\n        /* \"#utility.yul\":13537:13668   */\n      tag_301\n      jump\t// in\n    tag_428:\n        /* \"#utility.yul\":13529:13668   */\n      swap1\n      pop\n        /* \"#utility.yul\":13256:13675   */\n      swap2\n      swap1\n      pop\n      jump\t// out\n        /* \"#utility.yul\":13681:14091   */\n    tag_242:\n        /* \"#utility.yul\":13721:13728   */\n      0x00\n        /* \"#utility.yul\":13744:13764   */\n      tag_430\n        /* \"#utility.yul\":13762:13763   */\n      dup3\n        /* \"#utility.yul\":13744:13764   */\n      tag_266\n      jump\t// in\n    tag_430:\n        /* \"#utility.yul\":13739:13764   */\n      swap2\n      pop\n        /* \"#utility.yul\":13778:13798   */\n      tag_431\n        /* \"#utility.yul\":13796:13797   */\n      dup4\n        /* \"#utility.yul\":13778:13798   */\n      tag_266\n      jump\t// in\n    tag_431:\n        /* \"#utility.yul\":13773:13798   */\n      swap3\n      pop\n        /* \"#utility.yul\":13833:13834   */\n      dup3\n        /* \"#utility.yul\":13830:13831   */\n      dup3\n        /* \"#utility.yul\":13826:13835   */\n      mul\n        /* \"#utility.yul\":13855:13885   */\n      tag_432\n        /* \"#utility.yul\":13873:13884   */\n      dup2\n        /* \"#utility.yul\":13855:13885   */\n      tag_266\n      jump\t// in\n    tag_432:\n        /* \"#utility.yul\":13844:13885   */\n      swap2\n      pop\n        /* \"#utility.yul\":14034:14035   */\n      dup3\n        /* \"#utility.yul\":14025:14032   */\n      dup3\n        /* \"#utility.yul\":14021:14036   */\n      div\n        /* \"#utility.yul\":14018:14019   */\n      dup5\n        /* \"#utility.yul\":14015:14037   */\n      eq\n        /* \"#utility.yul\":13995:13996   */\n      dup4\n        /* \"#utility.yul\":13988:13997   */\n      iszero\n        /* \"#utility.yul\":13968:14051   */\n      or\n        /* \"#utility.yul\":13945:14084   */\n      tag_433\n      jumpi\n        /* \"#utility.yul\":14064:14082   */\n      tag_434\n      tag_283\n      jump\t// in\n    tag_434:\n        /* \"#utility.yul\":13945:14084   */\n    tag_433:\n        /* \"#utility.yul\":13729:14091   */\n      pop\n        /* \"#utility.yul\":13681:14091   */\n      swap3\n      swap2\n      pop\n      pop\n      jump\t// out\n\n    auxdata: 0xa2646970667358221220e458635995caf792c84748e4aea8fe91ae99f7e9a26040a6c2e5f6d0bdae403564736f6c634300081a0033\n}\n",
				"bytecode": {
					"linkReferences": {},
					"object": "6080604052650174876e8000600255670126e00f6c5b8000600355348015610025575f80fd5b50604051611c4f380380611c4f83398181016040528101906100479190610253565b335f73ffffffffffffffffffffffffffffffffffffffff168173ffffffffffffffffffffffffffffffffffffffff16036100b8575f6040517f1e4fbdf70000000000000000000000000000000000000000000000000000000081526004016100af919061028d565b60405180910390fd5b6100c78161012360201b60201c565b508060015f6101000a81548173ffffffffffffffffffffffffffffffffffffffff021916908373ffffffffffffffffffffffffffffffffffffffff160217905550620546004261011791906102dc565b6004819055505061030f565b5f805f9054906101000a900473ffffffffffffffffffffffffffffffffffffffff169050815f806101000a81548173ffffffffffffffffffffffffffffffffffffffff021916908373ffffffffffffffffffffffffffffffffffffffff1602179055508173ffffffffffffffffffffffffffffffffffffffff168173ffffffffffffffffffffffffffffffffffffffff167f8be0079c531659141344cd1fd0a4f28419497f9722a3daafe3b4186f6b6457e060405160405180910390a35050565b5f80fd5b5f73ffffffffffffffffffffffffffffffffffffffff82169050919050565b5f610211826101e8565b9050919050565b5f61022282610207565b9050919050565b61023281610218565b811461023c575f80fd5b50565b5f8151905061024d81610229565b92915050565b5f60208284031215610268576102676101e4565b5b5f6102758482850161023f565b91505092915050565b61028781610207565b82525050565b5f6020820190506102a05f83018461027e565b92915050565b5f819050919050565b7f4e487b71000000000000000000000000000000000000000000000000000000005f52601160045260245ffd5b5f6102e6826102a6565b91506102f1836102a6565b9250828201905080821115610309576103086102af565b5b92915050565b6119338061031c5f395ff3fe608060405260043610610180575f3560e01c8063833b9499116100d0578063bea1dcf811610089578063e07439f711610063578063e07439f7146104f0578063f2fde38b1461052c578063f47c84c514610554578063fc0c546a1461057e57610180565b8063bea1dcf814610480578063c452e427146104aa578063d7bb99ba146104e657610180565b8063833b94991461039c57806385266ec6146103c65780638da5cb5b146103ee57806391b7f5ed146104185780639ab1b48414610440578063babbc4051461045657610180565b806337c089231161013d57806342e94c901161011757806342e94c90146102e457806363b201171461032057806364fa41ad1461034a578063715018a61461038657610180565b806337c08923146102685780633805c0b51461029257806338e771ab146102ce57610180565b806301df07811461018457806308695b41146101ac5780631be05289146101d457806320055b92146101fe57806324600fc31461022857806336db71291461023e575b5f80fd5b34801561018f575f80fd5b506101aa60048036038101906101a59190611254565b6105a8565b005b3480156101b7575f80fd5b506101d260048036038101906101cd91906112d9565b61061f565b005b3480156101df575f80fd5b506101e861066a565b6040516101f59190611313565b60405180910390f35b348015610209575f80fd5b50610212610671565b60405161021f9190611313565b60405180910390f35b348015610233575f80fd5b5061023c610677565b005b348015610249575f80fd5b506102526107b9565b60405161025f9190611313565b60405180910390f35b348015610273575f80fd5b5061027c6107bf565b6040516102899190611313565b60405180910390f35b34801561029d575f80fd5b506102b860048036038101906102b391906112d9565b6107c5565b6040516102c59190611313565b60405180910390f35b3480156102d9575f80fd5b506102e26107da565b005b3480156102ef575f80fd5b5061030a600480360381019061030591906112d9565b610955565b6040516103179190611313565b60405180910390f35b34801561032b575f80fd5b5061033461096a565b6040516103419190611313565b60405180910390f35b348015610355575f80fd5b50610370600480360381019061036b91906112d9565b610970565b60405161037d9190611313565b60405180910390f35b348015610391575f80fd5b5061039a610985565b005b3480156103a7575f80fd5b506103b0610998565b6040516103bd9190611313565b60405180910390f35b3480156103d1575f80fd5b506103ec60048036038101906103e79190611254565b61099e565b005b3480156103f9575f80fd5b506104026109b0565b60405161040f919061133b565b60405180910390f35b348015610423575f80fd5b5061043e60048036038101906104399190611254565b6109d7565b005b34801561044b575f80fd5b506104546109e9565b005b348015610461575f80fd5b5061046a610b8e565b6040516104779190611313565b60405180910390f35b34801561048b575f80fd5b50610494610b94565b6040516104a1919061133b565b60405180910390f35b3480156104b5575f80fd5b506104d060048036038101906104cb91906112d9565b610bb9565b6040516104dd9190611313565b60405180910390f35b6104ee610bff565b005b3480156104fb575f80fd5b5061051660048036038101906105119190611254565b610fe3565b604051610523919061133b565b60405180910390f35b348015610537575f80fd5b50610552600480360381019061054d91906112d9565b61101e565b005b34801561055f575f80fd5b506105686110a2565b6040516105759190611313565b60405180910390f35b348015610589575f80fd5b506105926110a9565b60405161059f91906113af565b60405180910390f35b6105b06110ce565b5f60055414806105c1575042600554115b610600576040517f08c379a00000000000000000000000000000000000000000000000000000000081526004016105f790611422565b60405180910390fd5b806005819055506205460081610616919061146d565b60048190555050565b6106276110ce565b8060065f6101000a81548173ffffffffffffffffffffffffffffffffffffffff021916908373ffffffffffffffffffffffffffffffffffffffff16021790555050565b6205460081565b60045481565b61067f6110ce565b60045442116106c3576040517f08c379a00000000000000000000000000000000000000000000000000000000081526004016106ba906114ea565b60405180910390fd5b5f73ffffffffffffffffffffffffffffffffffffffff1660065f9054906101000a900473ffffffffffffffffffffffffffffffffffffffff1673ffffffffffffffffffffffffffffffffffffffff1603610752576040517f08c379a000000000000000000000000000000000000000000000000000000000815260040161074990611552565b60405180910390fd5b60065f9054906101000a900473ffffffffffffffffffffffffffffffffffffffff1673ffffffffffffffffffffffffffffffffffffffff166108fc4790811502906040515f60405180830381858888f193505050501580156107b6573d5f803e3d5ffd5b50565b60035481565b600b5481565b600a602052805f5260405f205f915090505481565b6107e26110ce565b426004819055505f600b541115610953575f5b60078054905081101561094a575f6007828154811061081757610816611570565b5b905f5260205f20015f9054906101000a900473ffffffffffffffffffffffffffffffffffffffff1690505f60085f8373ffffffffffffffffffffffffffffffffffffffff1673ffffffffffffffffffffffffffffffffffffffff1681526020019081526020015f205490505f81111561093b575f6002548261089991906115ca565b90505f60085f8573ffffffffffffffffffffffffffffffffffffffff1673ffffffffffffffffffffffffffffffffffffffff1681526020019081526020015f20819055508273ffffffffffffffffffffffffffffffffffffffff166108fc8390811502906040515f60405180830381858888f19350505050158015610920573d5f803e3d5ffd5b5080600c5f82825461093291906115fa565b92505081905550505b505080806001019150506107f5565b505f600b819055505b565b6008602052805f5260405f205f915090505481565b600c5481565b6009602052805f5260405f205f915090505481565b61098d6110ce565b6109965f611155565b565b60025481565b6109a66110ce565b8060038190555050565b5f805f9054906101000a900473ffffffffffffffffffffffffffffffffffffffff16905090565b6109df6110ce565b8060028190555050565b6109f16110ce565b6004544211610a35576040517f08c379a0000000000000000000000000000000000000000000000000000000008152600401610a2c906114ea565b60405180910390fd5b5f5b600780549050811015610b8b575f60078281548110610a5957610a58611570565b5b905f5260205f20015f9054906101000a900473ffffffffffffffffffffffffffffffffffffffff1690505f60085f8373ffffffffffffffffffffffffffffffffffffffff1673ffffffffffffffffffffffffffffffffffffffff1681526020019081526020015f205490505f811115610b7c575f60025482610adb91906115ca565b905060015f9054906101000a900473ffffffffffffffffffffffffffffffffffffffff1673ffffffffffffffffffffffffffffffffffffffff1663a9059cbb84836040518363ffffffff1660e01b8152600401610b3992919061162d565b6020604051808303815f875af1158015610b55573d5f803e3d5ffd5b505050506040513d601f19601f82011682018060405250810190610b799190611689565b50505b50508080600101915050610a37565b50565b60055481565b60065f9054906101000a900473ffffffffffffffffffffffffffffffffffffffff1681565b5f60085f8373ffffffffffffffffffffffffffffffffffffffff1673ffffffffffffffffffffffffffffffffffffffff1681526020019081526020015f20549050919050565b600454421115610c44576040517f08c379a0000000000000000000000000000000000000000000000000000000008152600401610c3b906116fe565b60405180910390fd5b600554421015610c89576040517f08c379a0000000000000000000000000000000000000000000000000000000008152600401610c8090611766565b60405180910390fd5b5f3411610ccb576040517f08c379a0000000000000000000000000000000000000000000000000000000008152600401610cc2906117ce565b60405180910390fd5b5f60025434610cda91906115ca565b9050620f424081600c54610cee919061146d565b1115610d2f576040517f08c379a0000000000000000000000000000000000000000000000000000000008152600401610d2690611836565b60405180910390fd5b5f60085f3373ffffffffffffffffffffffffffffffffffffffff1673ffffffffffffffffffffffffffffffffffffffff1681526020019081526020015f205403610e1857600733908060018154018082558091505060019003905f5260205f20015f9091909190916101000a81548173ffffffffffffffffffffffffffffffffffffffff021916908373ffffffffffffffffffffffffffffffffffffffff160217905550600354600a5f3373ffffffffffffffffffffffffffffffffffffffff1673ffffffffffffffffffffffffffffffffffffffff1681526020019081526020015f20819055505b5f600254600a5f3373ffffffffffffffffffffffffffffffffffffffff1673ffffffffffffffffffffffffffffffffffffffff1681526020019081526020015f2054610e6491906115ca565b905080821115610ea9576040517f08c379a0000000000000000000000000000000000000000000000000000000008152600401610ea09061189e565b60405180910390fd5b3460085f3373ffffffffffffffffffffffffffffffffffffffff1673ffffffffffffffffffffffffffffffffffffffff1681526020019081526020015f205f828254610ef5919061146d565b925050819055508160095f3373ffffffffffffffffffffffffffffffffffffffff1673ffffffffffffffffffffffffffffffffffffffff1681526020019081526020015f205f828254610f48919061146d565b9250508190555060025482610f5d91906118bc565b600a5f3373ffffffffffffffffffffffffffffffffffffffff1673ffffffffffffffffffffffffffffffffffffffff1681526020019081526020015f205f828254610fa891906115fa565b9250508190555034600b5f828254610fc0919061146d565b9250508190555081600c5f828254610fd8919061146d565b925050819055505050565b60078181548110610ff2575f80fd5b905f5260205f20015f915054906101000a900473ffffffffffffffffffffffffffffffffffffffff1681565b6110266110ce565b5f73ffffffffffffffffffffffffffffffffffffffff168173ffffffffffffffffffffffffffffffffffffffff1603611096575f6040517f1e4fbdf700000000000000000000000000000000000000000000000000000000815260040161108d919061133b565b60405180910390fd5b61109f81611155565b50565b620f424081565b60015f9054906101000a900473ffffffffffffffffffffffffffffffffffffffff1681565b6110d6611216565b73ffffffffffffffffffffffffffffffffffffffff166110f46109b0565b73ffffffffffffffffffffffffffffffffffffffff161461115357611117611216565b6040517f118cdaa700000000000000000000000000000000000000000000000000000000815260040161114a919061133b565b60405180910390fd5b565b5f805f9054906101000a900473ffffffffffffffffffffffffffffffffffffffff169050815f806101000a81548173ffffffffffffffffffffffffffffffffffffffff021916908373ffffffffffffffffffffffffffffffffffffffff1602179055508173ffffffffffffffffffffffffffffffffffffffff168173ffffffffffffffffffffffffffffffffffffffff167f8be0079c531659141344cd1fd0a4f28419497f9722a3daafe3b4186f6b6457e060405160405180910390a35050565b5f33905090565b5f80fd5b5f819050919050565b61123381611221565b811461123d575f80fd5b50565b5f8135905061124e8161122a565b92915050565b5f602082840312156112695761126861121d565b5b5f61127684828501611240565b91505092915050565b5f73ffffffffffffffffffffffffffffffffffffffff82169050919050565b5f6112a88261127f565b9050919050565b6112b88161129e565b81146112c2575f80fd5b50565b5f813590506112d3816112af565b92915050565b5f602082840312156112ee576112ed61121d565b5b5f6112fb848285016112c5565b91505092915050565b61130d81611221565b82525050565b5f6020820190506113265f830184611304565b92915050565b6113358161129e565b82525050565b5f60208201905061134e5f83018461132c565b92915050565b5f819050919050565b5f61137761137261136d8461127f565b611354565b61127f565b9050919050565b5f6113888261135d565b9050919050565b5f6113998261137e565b9050919050565b6113a98161138f565b82525050565b5f6020820190506113c25f8301846113a0565b92915050565b5f82825260208201905092915050565b7f6c61756e636870616420616c72656164792073746172746564000000000000005f82015250565b5f61140c6019836113c8565b9150611417826113d8565b602082019050919050565b5f6020820190508181035f83015261143981611400565b9050919050565b7f4e487b71000000000000000000000000000000000000000000000000000000005f52601160045260245ffd5b5f61147782611221565b915061148283611221565b925082820190508082111561149a57611499611440565b5b92915050565b7f4c61756e6368706164206e6f742066696e6973686564207965740000000000005f82015250565b5f6114d4601a836113c8565b91506114df826114a0565b602082019050919050565b5f6020820190508181035f830152611501816114c8565b9050919050565b7f54617820636f6c6c6563746f722061646472657373206e6f74207365740000005f82015250565b5f61153c601d836113c8565b915061154782611508565b602082019050919050565b5f6020820190508181035f83015261156981611530565b9050919050565b7f4e487b71000000000000000000000000000000000000000000000000000000005f52603260045260245ffd5b7f4e487b71000000000000000000000000000000000000000000000000000000005f52601260045260245ffd5b5f6115d482611221565b91506115df83611221565b9250826115ef576115ee61159d565b5b828204905092915050565b5f61160482611221565b915061160f83611221565b925082820390508181111561162757611626611440565b5b92915050565b5f6040820190506116405f83018561132c565b61164d6020830184611304565b9392505050565b5f8115159050919050565b61166881611654565b8114611672575f80fd5b50565b5f815190506116838161165f565b92915050565b5f6020828403121561169e5761169d61121d565b5b5f6116ab84828501611675565b91505092915050565b7f4c61756e63687061642068617320656e646564000000000000000000000000005f82015250565b5f6116e86013836113c8565b91506116f3826116b4565b602082019050919050565b5f6020820190508181035f830152611715816116dc565b9050919050565b7f4c61756e6368706164206973206e6f74207374617274656400000000000000005f82015250565b5f6117506018836113c8565b915061175b8261171c565b602082019050919050565b5f6020820190508181035f83015261177d81611744565b9050919050565b7f596f75206e65656420746f2073656e64204554480000000000000000000000005f82015250565b5f6117b86014836113c8565b91506117c382611784565b602082019050919050565b5f6020820190508181035f8301526117e5816117ac565b9050919050565b7f45786365656473206d6178696d756d20746f6b656e206c696d697400000000005f82015250565b5f611820601b836113c8565b915061182b826117ec565b602082019050919050565b5f6020820190508181035f83015261184d81611814565b9050919050565b7f4578636565647320746865206d617820746f6b656e207065722077616c6c65745f82015250565b5f6118886020836113c8565b915061189382611854565b602082019050919050565b5f6020820190508181035f8301526118b58161187c565b9050919050565b5f6118c682611221565b91506118d183611221565b92508282026118df81611221565b915082820484148315176118f6576118f5611440565b5b509291505056fea2646970667358221220e458635995caf792c84748e4aea8fe91ae99f7e9a26040a6c2e5f6d0bdae403564736f6c634300081a0033",
					"opcodes": "PUSH1 0x80 PUSH1 0x40 MSTORE PUSH6 0x174876E8000 PUSH1 0x2 SSTORE PUSH8 0x126E00F6C5B8000 PUSH1 0x3 SSTORE CALLVALUE DUP1 ISZERO PUSH2 0x25 JUMPI PUSH0 DUP1 REVERT JUMPDEST POP PUSH1 0x40 MLOAD PUSH2 0x1C4F CODESIZE SUB DUP1 PUSH2 0x1C4F DUP4 CODECOPY DUP2 DUP2 ADD PUSH1 0x40 MSTORE DUP2 ADD SWAP1 PUSH2 0x47 SWAP2 SWAP1 PUSH2 0x253 JUMP JUMPDEST CALLER PUSH0 PUSH20 0xFFFFFFFFFFFFFFFFFFFFFFFFFFFFFFFFFFFFFFFF AND DUP2 PUSH20 0xFFFFFFFFFFFFFFFFFFFFFFFFFFFFFFFFFFFFFFFF AND SUB PUSH2 0xB8 JUMPI PUSH0 PUSH1 0x40 MLOAD PUSH32 0x1E4FBDF700000000000000000000000000000000000000000000000000000000 DUP2 MSTORE PUSH1 0x4 ADD PUSH2 0xAF SWAP2 SWAP1 PUSH2 0x28D JUMP JUMPDEST PUSH1 0x40 MLOAD DUP1 SWAP2 SUB SWAP1 REVERT JUMPDEST PUSH2 0xC7 DUP2 PUSH2 0x123 PUSH1 0x20 SHL PUSH1 0x20 SHR JUMP JUMPDEST POP DUP1 PUSH1 0x1 PUSH0 PUSH2 0x100 EXP DUP2 SLOAD DUP2 PUSH20 0xFFFFFFFFFFFFFFFFFFFFFFFFFFFFFFFFFFFFFFFF MUL NOT AND SWAP1 DUP4 PUSH20 0xFFFFFFFFFFFFFFFFFFFFFFFFFFFFFFFFFFFFFFFF AND MUL OR SWAP1 SSTORE POP PUSH3 0x54600 TIMESTAMP PUSH2 0x117 SWAP2 SWAP1 PUSH2 0x2DC JUMP JUMPDEST PUSH1 0x4 DUP2 SWAP1 SSTORE POP POP PUSH2 0x30F JUMP JUMPDEST PUSH0 DUP1 PUSH0 SWAP1 SLOAD SWAP1 PUSH2 0x100 EXP SWAP1 DIV PUSH20 0xFFFFFFFFFFFFFFFFFFFFFFFFFFFFFFFFFFFFFFFF AND SWAP1 POP DUP2 PUSH0 DUP1 PUSH2 0x100 EXP DUP2 SLOAD DUP2 PUSH20 0xFFFFFFFFFFFFFFFFFFFFFFFFFFFFFFFFFFFFFFFF MUL NOT AND SWAP1 DUP4 PUSH20 0xFFFFFFFFFFFFFFFFFFFFFFFFFFFFFFFFFFFFFFFF AND MUL OR SWAP1 SSTORE POP DUP2 PUSH20 0xFFFFFFFFFFFFFFFFFFFFFFFFFFFFFFFFFFFFFFFF AND DUP2 PUSH20 0xFFFFFFFFFFFFFFFFFFFFFFFFFFFFFFFFFFFFFFFF AND PUSH32 0x8BE0079C531659141344CD1FD0A4F28419497F9722A3DAAFE3B4186F6B6457E0 PUSH1 0x40 MLOAD PUSH1 0x40 MLOAD DUP1 SWAP2 SUB SWAP1 LOG3 POP POP JUMP JUMPDEST PUSH0 DUP1 REVERT JUMPDEST PUSH0 PUSH20 0xFFFFFFFFFFFFFFFFFFFFFFFFFFFFFFFFFFFFFFFF DUP3 AND SWAP1 POP SWAP2 SWAP1 POP JUMP JUMPDEST PUSH0 PUSH2 0x211 DUP3 PUSH2 0x1E8 JUMP JUMPDEST SWAP1 POP SWAP2 SWAP1 POP JUMP JUMPDEST PUSH0 PUSH2 0x222 DUP3 PUSH2 0x207 JUMP JUMPDEST SWAP1 POP SWAP2 SWAP1 POP JUMP JUMPDEST PUSH2 0x232 DUP2 PUSH2 0x218 JUMP JUMPDEST DUP2 EQ PUSH2 0x23C JUMPI PUSH0 DUP1 REVERT JUMPDEST POP JUMP JUMPDEST PUSH0 DUP2 MLOAD SWAP1 POP PUSH2 0x24D DUP2 PUSH2 0x229 JUMP JUMPDEST SWAP3 SWAP2 POP POP JUMP JUMPDEST PUSH0 PUSH1 0x20 DUP3 DUP5 SUB SLT ISZERO PUSH2 0x268 JUMPI PUSH2 0x267 PUSH2 0x1E4 JUMP JUMPDEST JUMPDEST PUSH0 PUSH2 0x275 DUP5 DUP3 DUP6 ADD PUSH2 0x23F JUMP JUMPDEST SWAP2 POP POP SWAP3 SWAP2 POP POP JUMP JUMPDEST PUSH2 0x287 DUP2 PUSH2 0x207 JUMP JUMPDEST DUP3 MSTORE POP POP JUMP JUMPDEST PUSH0 PUSH1 0x20 DUP3 ADD SWAP1 POP PUSH2 0x2A0 PUSH0 DUP4 ADD DUP5 PUSH2 0x27E JUMP JUMPDEST SWAP3 SWAP2 POP POP JUMP JUMPDEST PUSH0 DUP2 SWAP1 POP SWAP2 SWAP1 POP JUMP JUMPDEST PUSH32 0x4E487B7100000000000000000000000000000000000000000000000000000000 PUSH0 MSTORE PUSH1 0x11 PUSH1 0x4 MSTORE PUSH1 0x24 PUSH0 REVERT JUMPDEST PUSH0 PUSH2 0x2E6 DUP3 PUSH2 0x2A6 JUMP JUMPDEST SWAP2 POP PUSH2 0x2F1 DUP4 PUSH2 0x2A6 JUMP JUMPDEST SWAP3 POP DUP3 DUP3 ADD SWAP1 POP DUP1 DUP3 GT ISZERO PUSH2 0x309 JUMPI PUSH2 0x308 PUSH2 0x2AF JUMP JUMPDEST JUMPDEST SWAP3 SWAP2 POP POP JUMP JUMPDEST PUSH2 0x1933 DUP1 PUSH2 0x31C PUSH0 CODECOPY PUSH0 RETURN INVALID PUSH1 0x80 PUSH1 0x40 MSTORE PUSH1 0x4 CALLDATASIZE LT PUSH2 0x180 JUMPI PUSH0 CALLDATALOAD PUSH1 0xE0 SHR DUP1 PUSH4 0x833B9499 GT PUSH2 0xD0 JUMPI DUP1 PUSH4 0xBEA1DCF8 GT PUSH2 0x89 JUMPI DUP1 PUSH4 0xE07439F7 GT PUSH2 0x63 JUMPI DUP1 PUSH4 0xE07439F7 EQ PUSH2 0x4F0 JUMPI DUP1 PUSH4 0xF2FDE38B EQ PUSH2 0x52C JUMPI DUP1 PUSH4 0xF47C84C5 EQ PUSH2 0x554 JUMPI DUP1 PUSH4 0xFC0C546A EQ PUSH2 0x57E JUMPI PUSH2 0x180 JUMP JUMPDEST DUP1 PUSH4 0xBEA1DCF8 EQ PUSH2 0x480 JUMPI DUP1 PUSH4 0xC452E427 EQ PUSH2 0x4AA JUMPI DUP1 PUSH4 0xD7BB99BA EQ PUSH2 0x4E6 JUMPI PUSH2 0x180 JUMP JUMPDEST DUP1 PUSH4 0x833B9499 EQ PUSH2 0x39C JUMPI DUP1 PUSH4 0x85266EC6 EQ PUSH2 0x3C6 JUMPI DUP1 PUSH4 0x8DA5CB5B EQ PUSH2 0x3EE JUMPI DUP1 PUSH4 0x91B7F5ED EQ PUSH2 0x418 JUMPI DUP1 PUSH4 0x9AB1B484 EQ PUSH2 0x440 JUMPI DUP1 PUSH4 0xBABBC405 EQ PUSH2 0x456 JUMPI PUSH2 0x180 JUMP JUMPDEST DUP1 PUSH4 0x37C08923 GT PUSH2 0x13D JUMPI DUP1 PUSH4 0x42E94C90 GT PUSH2 0x117 JUMPI DUP1 PUSH4 0x42E94C90 EQ PUSH2 0x2E4 JUMPI DUP1 PUSH4 0x63B20117 EQ PUSH2 0x320 JUMPI DUP1 PUSH4 0x64FA41AD EQ PUSH2 0x34A JUMPI DUP1 PUSH4 0x715018A6 EQ PUSH2 0x386 JUMPI PUSH2 0x180 JUMP JUMPDEST DUP1 PUSH4 0x37C08923 EQ PUSH2 0x268 JUMPI DUP1 PUSH4 0x3805C0B5 EQ PUSH2 0x292 JUMPI DUP1 PUSH4 0x38E771AB EQ PUSH2 0x2CE JUMPI PUSH2 0x180 JUMP JUMPDEST DUP1 PUSH4 0x1DF0781 EQ PUSH2 0x184 JUMPI DUP1 PUSH4 0x8695B41 EQ PUSH2 0x1AC JUMPI DUP1 PUSH4 0x1BE05289 EQ PUSH2 0x1D4 JUMPI DUP1 PUSH4 0x20055B92 EQ PUSH2 0x1FE JUMPI DUP1 PUSH4 0x24600FC3 EQ PUSH2 0x228 JUMPI DUP1 PUSH4 0x36DB7129 EQ PUSH2 0x23E JUMPI JUMPDEST PUSH0 DUP1 REVERT JUMPDEST CALLVALUE DUP1 ISZERO PUSH2 0x18F JUMPI PUSH0 DUP1 REVERT JUMPDEST POP PUSH2 0x1AA PUSH1 0x4 DUP1 CALLDATASIZE SUB DUP2 ADD SWAP1 PUSH2 0x1A5 SWAP2 SWAP1 PUSH2 0x1254 JUMP JUMPDEST PUSH2 0x5A8 JUMP JUMPDEST STOP JUMPDEST CALLVALUE DUP1 ISZERO PUSH2 0x1B7 JUMPI PUSH0 DUP1 REVERT JUMPDEST POP PUSH2 0x1D2 PUSH1 0x4 DUP1 CALLDATASIZE SUB DUP2 ADD SWAP1 PUSH2 0x1CD SWAP2 SWAP1 PUSH2 0x12D9 JUMP JUMPDEST PUSH2 0x61F JUMP JUMPDEST STOP JUMPDEST CALLVALUE DUP1 ISZERO PUSH2 0x1DF JUMPI PUSH0 DUP1 REVERT JUMPDEST POP PUSH2 0x1E8 PUSH2 0x66A JUMP JUMPDEST PUSH1 0x40 MLOAD PUSH2 0x1F5 SWAP2 SWAP1 PUSH2 0x1313 JUMP JUMPDEST PUSH1 0x40 MLOAD DUP1 SWAP2 SUB SWAP1 RETURN JUMPDEST CALLVALUE DUP1 ISZERO PUSH2 0x209 JUMPI PUSH0 DUP1 REVERT JUMPDEST POP PUSH2 0x212 PUSH2 0x671 JUMP JUMPDEST PUSH1 0x40 MLOAD PUSH2 0x21F SWAP2 SWAP1 PUSH2 0x1313 JUMP JUMPDEST PUSH1 0x40 MLOAD DUP1 SWAP2 SUB SWAP1 RETURN JUMPDEST CALLVALUE DUP1 ISZERO PUSH2 0x233 JUMPI PUSH0 DUP1 REVERT JUMPDEST POP PUSH2 0x23C PUSH2 0x677 JUMP JUMPDEST STOP JUMPDEST CALLVALUE DUP1 ISZERO PUSH2 0x249 JUMPI PUSH0 DUP1 REVERT JUMPDEST POP PUSH2 0x252 PUSH2 0x7B9 JUMP JUMPDEST PUSH1 0x40 MLOAD PUSH2 0x25F SWAP2 SWAP1 PUSH2 0x1313 JUMP JUMPDEST PUSH1 0x40 MLOAD DUP1 SWAP2 SUB SWAP1 RETURN JUMPDEST CALLVALUE DUP1 ISZERO PUSH2 0x273 JUMPI PUSH0 DUP1 REVERT JUMPDEST POP PUSH2 0x27C PUSH2 0x7BF JUMP JUMPDEST PUSH1 0x40 MLOAD PUSH2 0x289 SWAP2 SWAP1 PUSH2 0x1313 JUMP JUMPDEST PUSH1 0x40 MLOAD DUP1 SWAP2 SUB SWAP1 RETURN JUMPDEST CALLVALUE DUP1 ISZERO PUSH2 0x29D JUMPI PUSH0 DUP1 REVERT JUMPDEST POP PUSH2 0x2B8 PUSH1 0x4 DUP1 CALLDATASIZE SUB DUP2 ADD SWAP1 PUSH2 0x2B3 SWAP2 SWAP1 PUSH2 0x12D9 JUMP JUMPDEST PUSH2 0x7C5 JUMP JUMPDEST PUSH1 0x40 MLOAD PUSH2 0x2C5 SWAP2 SWAP1 PUSH2 0x1313 JUMP JUMPDEST PUSH1 0x40 MLOAD DUP1 SWAP2 SUB SWAP1 RETURN JUMPDEST CALLVALUE DUP1 ISZERO PUSH2 0x2D9 JUMPI PUSH0 DUP1 REVERT JUMPDEST POP PUSH2 0x2E2 PUSH2 0x7DA JUMP JUMPDEST STOP JUMPDEST CALLVALUE DUP1 ISZERO PUSH2 0x2EF JUMPI PUSH0 DUP1 REVERT JUMPDEST POP PUSH2 0x30A PUSH1 0x4 DUP1 CALLDATASIZE SUB DUP2 ADD SWAP1 PUSH2 0x305 SWAP2 SWAP1 PUSH2 0x12D9 JUMP JUMPDEST PUSH2 0x955 JUMP JUMPDEST PUSH1 0x40 MLOAD PUSH2 0x317 SWAP2 SWAP1 PUSH2 0x1313 JUMP JUMPDEST PUSH1 0x40 MLOAD DUP1 SWAP2 SUB SWAP1 RETURN JUMPDEST CALLVALUE DUP1 ISZERO PUSH2 0x32B JUMPI PUSH0 DUP1 REVERT JUMPDEST POP PUSH2 0x334 PUSH2 0x96A JUMP JUMPDEST PUSH1 0x40 MLOAD PUSH2 0x341 SWAP2 SWAP1 PUSH2 0x1313 JUMP JUMPDEST PUSH1 0x40 MLOAD DUP1 SWAP2 SUB SWAP1 RETURN JUMPDEST CALLVALUE DUP1 ISZERO PUSH2 0x355 JUMPI PUSH0 DUP1 REVERT JUMPDEST POP PUSH2 0x370 PUSH1 0x4 DUP1 CALLDATASIZE SUB DUP2 ADD SWAP1 PUSH2 0x36B SWAP2 SWAP1 PUSH2 0x12D9 JUMP JUMPDEST PUSH2 0x970 JUMP JUMPDEST PUSH1 0x40 MLOAD PUSH2 0x37D SWAP2 SWAP1 PUSH2 0x1313 JUMP JUMPDEST PUSH1 0x40 MLOAD DUP1 SWAP2 SUB SWAP1 RETURN JUMPDEST CALLVALUE DUP1 ISZERO PUSH2 0x391 JUMPI PUSH0 DUP1 REVERT JUMPDEST POP PUSH2 0x39A PUSH2 0x985 JUMP JUMPDEST STOP JUMPDEST CALLVALUE DUP1 ISZERO PUSH2 0x3A7 JUMPI PUSH0 DUP1 REVERT JUMPDEST POP PUSH2 0x3B0 PUSH2 0x998 JUMP JUMPDEST PUSH1 0x40 MLOAD PUSH2 0x3BD SWAP2 SWAP1 PUSH2 0x1313 JUMP JUMPDEST PUSH1 0x40 MLOAD DUP1 SWAP2 SUB SWAP1 RETURN JUMPDEST CALLVALUE DUP1 ISZERO PUSH2 0x3D1 JUMPI PUSH0 DUP1 REVERT JUMPDEST POP PUSH2 0x3EC PUSH1 0x4 DUP1 CALLDATASIZE SUB DUP2 ADD SWAP1 PUSH2 0x3E7 SWAP2 SWAP1 PUSH2 0x1254 JUMP JUMPDEST PUSH2 0x99E JUMP JUMPDEST STOP JUMPDEST CALLVALUE DUP1 ISZERO PUSH2 0x3F9 JUMPI PUSH0 DUP1 REVERT JUMPDEST POP PUSH2 0x402 PUSH2 0x9B0 JUMP JUMPDEST PUSH1 0x40 MLOAD PUSH2 0x40F SWAP2 SWAP1 PUSH2 0x133B JUMP JUMPDEST PUSH1 0x40 MLOAD DUP1 SWAP2 SUB SWAP1 RETURN JUMPDEST CALLVALUE DUP1 ISZERO PUSH2 0x423 JUMPI PUSH0 DUP1 REVERT JUMPDEST POP PUSH2 0x43E PUSH1 0x4 DUP1 CALLDATASIZE SUB DUP2 ADD SWAP1 PUSH2 0x439 SWAP2 SWAP1 PUSH2 0x1254 JUMP JUMPDEST PUSH2 0x9D7 JUMP JUMPDEST STOP JUMPDEST CALLVALUE DUP1 ISZERO PUSH2 0x44B JUMPI PUSH0 DUP1 REVERT JUMPDEST POP PUSH2 0x454 PUSH2 0x9E9 JUMP JUMPDEST STOP JUMPDEST CALLVALUE DUP1 ISZERO PUSH2 0x461 JUMPI PUSH0 DUP1 REVERT JUMPDEST POP PUSH2 0x46A PUSH2 0xB8E JUMP JUMPDEST PUSH1 0x40 MLOAD PUSH2 0x477 SWAP2 SWAP1 PUSH2 0x1313 JUMP JUMPDEST PUSH1 0x40 MLOAD DUP1 SWAP2 SUB SWAP1 RETURN JUMPDEST CALLVALUE DUP1 ISZERO PUSH2 0x48B JUMPI PUSH0 DUP1 REVERT JUMPDEST POP PUSH2 0x494 PUSH2 0xB94 JUMP JUMPDEST PUSH1 0x40 MLOAD PUSH2 0x4A1 SWAP2 SWAP1 PUSH2 0x133B JUMP JUMPDEST PUSH1 0x40 MLOAD DUP1 SWAP2 SUB SWAP1 RETURN JUMPDEST CALLVALUE DUP1 ISZERO PUSH2 0x4B5 JUMPI PUSH0 DUP1 REVERT JUMPDEST POP PUSH2 0x4D0 PUSH1 0x4 DUP1 CALLDATASIZE SUB DUP2 ADD SWAP1 PUSH2 0x4CB SWAP2 SWAP1 PUSH2 0x12D9 JUMP JUMPDEST PUSH2 0xBB9 JUMP JUMPDEST PUSH1 0x40 MLOAD PUSH2 0x4DD SWAP2 SWAP1 PUSH2 0x1313 JUMP JUMPDEST PUSH1 0x40 MLOAD DUP1 SWAP2 SUB SWAP1 RETURN JUMPDEST PUSH2 0x4EE PUSH2 0xBFF JUMP JUMPDEST STOP JUMPDEST CALLVALUE DUP1 ISZERO PUSH2 0x4FB JUMPI PUSH0 DUP1 REVERT JUMPDEST POP PUSH2 0x516 PUSH1 0x4 DUP1 CALLDATASIZE SUB DUP2 ADD SWAP1 PUSH2 0x511 SWAP2 SWAP1 PUSH2 0x1254 JUMP JUMPDEST PUSH2 0xFE3 JUMP JUMPDEST PUSH1 0x40 MLOAD PUSH2 0x523 SWAP2 SWAP1 PUSH2 0x133B JUMP JUMPDEST PUSH1 0x40 MLOAD DUP1 SWAP2 SUB SWAP1 RETURN JUMPDEST CALLVALUE DUP1 ISZERO PUSH2 0x537 JUMPI PUSH0 DUP1 REVERT JUMPDEST POP PUSH2 0x552 PUSH1 0x4 DUP1 CALLDATASIZE SUB DUP2 ADD SWAP1 PUSH2 0x54D SWAP2 SWAP1 PUSH2 0x12D9 JUMP JUMPDEST PUSH2 0x101E JUMP JUMPDEST STOP JUMPDEST CALLVALUE DUP1 ISZERO PUSH2 0x55F JUMPI PUSH0 DUP1 REVERT JUMPDEST POP PUSH2 0x568 PUSH2 0x10A2 JUMP JUMPDEST PUSH1 0x40 MLOAD PUSH2 0x575 SWAP2 SWAP1 PUSH2 0x1313 JUMP JUMPDEST PUSH1 0x40 MLOAD DUP1 SWAP2 SUB SWAP1 RETURN JUMPDEST CALLVALUE DUP1 ISZERO PUSH2 0x589 JUMPI PUSH0 DUP1 REVERT JUMPDEST POP PUSH2 0x592 PUSH2 0x10A9 JUMP JUMPDEST PUSH1 0x40 MLOAD PUSH2 0x59F SWAP2 SWAP1 PUSH2 0x13AF JUMP JUMPDEST PUSH1 0x40 MLOAD DUP1 SWAP2 SUB SWAP1 RETURN JUMPDEST PUSH2 0x5B0 PUSH2 0x10CE JUMP JUMPDEST PUSH0 PUSH1 0x5 SLOAD EQ DUP1 PUSH2 0x5C1 JUMPI POP TIMESTAMP PUSH1 0x5 SLOAD GT JUMPDEST PUSH2 0x600 JUMPI PUSH1 0x40 MLOAD PUSH32 0x8C379A000000000000000000000000000000000000000000000000000000000 DUP2 MSTORE PUSH1 0x4 ADD PUSH2 0x5F7 SWAP1 PUSH2 0x1422 JUMP JUMPDEST PUSH1 0x40 MLOAD DUP1 SWAP2 SUB SWAP1 REVERT JUMPDEST DUP1 PUSH1 0x5 DUP2 SWAP1 SSTORE POP PUSH3 0x54600 DUP2 PUSH2 0x616 SWAP2 SWAP1 PUSH2 0x146D JUMP JUMPDEST PUSH1 0x4 DUP2 SWAP1 SSTORE POP POP JUMP JUMPDEST PUSH2 0x627 PUSH2 0x10CE JUMP JUMPDEST DUP1 PUSH1 0x6 PUSH0 PUSH2 0x100 EXP DUP2 SLOAD DUP2 PUSH20 0xFFFFFFFFFFFFFFFFFFFFFFFFFFFFFFFFFFFFFFFF MUL NOT AND SWAP1 DUP4 PUSH20 0xFFFFFFFFFFFFFFFFFFFFFFFFFFFFFFFFFFFFFFFF AND MUL OR SWAP1 SSTORE POP POP JUMP JUMPDEST PUSH3 0x54600 DUP2 JUMP JUMPDEST PUSH1 0x4 SLOAD DUP2 JUMP JUMPDEST PUSH2 0x67F PUSH2 0x10CE JUMP JUMPDEST PUSH1 0x4 SLOAD TIMESTAMP GT PUSH2 0x6C3 JUMPI PUSH1 0x40 MLOAD PUSH32 0x8C379A000000000000000000000000000000000000000000000000000000000 DUP2 MSTORE PUSH1 0x4 ADD PUSH2 0x6BA SWAP1 PUSH2 0x14EA JUMP JUMPDEST PUSH1 0x40 MLOAD DUP1 SWAP2 SUB SWAP1 REVERT JUMPDEST PUSH0 PUSH20 0xFFFFFFFFFFFFFFFFFFFFFFFFFFFFFFFFFFFFFFFF AND PUSH1 0x6 PUSH0 SWAP1 SLOAD SWAP1 PUSH2 0x100 EXP SWAP1 DIV PUSH20 0xFFFFFFFFFFFFFFFFFFFFFFFFFFFFFFFFFFFFFFFF AND PUSH20 0xFFFFFFFFFFFFFFFFFFFFFFFFFFFFFFFFFFFFFFFF AND SUB PUSH2 0x752 JUMPI PUSH1 0x40 MLOAD PUSH32 0x8C379A000000000000000000000000000000000000000000000000000000000 DUP2 MSTORE PUSH1 0x4 ADD PUSH2 0x749 SWAP1 PUSH2 0x1552 JUMP JUMPDEST PUSH1 0x40 MLOAD DUP1 SWAP2 SUB SWAP1 REVERT JUMPDEST PUSH1 0x6 PUSH0 SWAP1 SLOAD SWAP1 PUSH2 0x100 EXP SWAP1 DIV PUSH20 0xFFFFFFFFFFFFFFFFFFFFFFFFFFFFFFFFFFFFFFFF AND PUSH20 0xFFFFFFFFFFFFFFFFFFFFFFFFFFFFFFFFFFFFFFFF AND PUSH2 0x8FC SELFBALANCE SWAP1 DUP2 ISZERO MUL SWAP1 PUSH1 0x40 MLOAD PUSH0 PUSH1 0x40 MLOAD DUP1 DUP4 SUB DUP2 DUP6 DUP9 DUP9 CALL SWAP4 POP POP POP POP ISZERO DUP1 ISZERO PUSH2 0x7B6 JUMPI RETURNDATASIZE PUSH0 DUP1 RETURNDATACOPY RETURNDATASIZE PUSH0 REVERT JUMPDEST POP JUMP JUMPDEST PUSH1 0x3 SLOAD DUP2 JUMP JUMPDEST PUSH1 0xB SLOAD DUP2 JUMP JUMPDEST PUSH1 0xA PUSH1 0x20 MSTORE DUP1 PUSH0 MSTORE PUSH1 0x40 PUSH0 KECCAK256 PUSH0 SWAP2 POP SWAP1 POP SLOAD DUP2 JUMP JUMPDEST PUSH2 0x7E2 PUSH2 0x10CE JUMP JUMPDEST TIMESTAMP PUSH1 0x4 DUP2 SWAP1 SSTORE POP PUSH0 PUSH1 0xB SLOAD GT ISZERO PUSH2 0x953 JUMPI PUSH0 JUMPDEST PUSH1 0x7 DUP1 SLOAD SWAP1 POP DUP2 LT ISZERO PUSH2 0x94A JUMPI PUSH0 PUSH1 0x7 DUP3 DUP2 SLOAD DUP2 LT PUSH2 0x817 JUMPI PUSH2 0x816 PUSH2 0x1570 JUMP JUMPDEST JUMPDEST SWAP1 PUSH0 MSTORE PUSH1 0x20 PUSH0 KECCAK256 ADD PUSH0 SWAP1 SLOAD SWAP1 PUSH2 0x100 EXP SWAP1 DIV PUSH20 0xFFFFFFFFFFFFFFFFFFFFFFFFFFFFFFFFFFFFFFFF AND SWAP1 POP PUSH0 PUSH1 0x8 PUSH0 DUP4 PUSH20 0xFFFFFFFFFFFFFFFFFFFFFFFFFFFFFFFFFFFFFFFF AND PUSH20 0xFFFFFFFFFFFFFFFFFFFFFFFFFFFFFFFFFFFFFFFF AND DUP2 MSTORE PUSH1 0x20 ADD SWAP1 DUP2 MSTORE PUSH1 0x20 ADD PUSH0 KECCAK256 SLOAD SWAP1 POP PUSH0 DUP2 GT ISZERO PUSH2 0x93B JUMPI PUSH0 PUSH1 0x2 SLOAD DUP3 PUSH2 0x899 SWAP2 SWAP1 PUSH2 0x15CA JUMP JUMPDEST SWAP1 POP PUSH0 PUSH1 0x8 PUSH0 DUP6 PUSH20 0xFFFFFFFFFFFFFFFFFFFFFFFFFFFFFFFFFFFFFFFF AND PUSH20 0xFFFFFFFFFFFFFFFFFFFFFFFFFFFFFFFFFFFFFFFF AND DUP2 MSTORE PUSH1 0x20 ADD SWAP1 DUP2 MSTORE PUSH1 0x20 ADD PUSH0 KECCAK256 DUP2 SWAP1 SSTORE POP DUP3 PUSH20 0xFFFFFFFFFFFFFFFFFFFFFFFFFFFFFFFFFFFFFFFF AND PUSH2 0x8FC DUP4 SWAP1 DUP2 ISZERO MUL SWAP1 PUSH1 0x40 MLOAD PUSH0 PUSH1 0x40 MLOAD DUP1 DUP4 SUB DUP2 DUP6 DUP9 DUP9 CALL SWAP4 POP POP POP POP ISZERO DUP1 ISZERO PUSH2 0x920 JUMPI RETURNDATASIZE PUSH0 DUP1 RETURNDATACOPY RETURNDATASIZE PUSH0 REVERT JUMPDEST POP DUP1 PUSH1 0xC PUSH0 DUP3 DUP3 SLOAD PUSH2 0x932 SWAP2 SWAP1 PUSH2 0x15FA JUMP JUMPDEST SWAP3 POP POP DUP2 SWAP1 SSTORE POP POP JUMPDEST POP POP DUP1 DUP1 PUSH1 0x1 ADD SWAP2 POP POP PUSH2 0x7F5 JUMP JUMPDEST POP PUSH0 PUSH1 0xB DUP2 SWAP1 SSTORE POP JUMPDEST JUMP JUMPDEST PUSH1 0x8 PUSH1 0x20 MSTORE DUP1 PUSH0 MSTORE PUSH1 0x40 PUSH0 KECCAK256 PUSH0 SWAP2 POP SWAP1 POP SLOAD DUP2 JUMP JUMPDEST PUSH1 0xC SLOAD DUP2 JUMP JUMPDEST PUSH1 0x9 PUSH1 0x20 MSTORE DUP1 PUSH0 MSTORE PUSH1 0x40 PUSH0 KECCAK256 PUSH0 SWAP2 POP SWAP1 POP SLOAD DUP2 JUMP JUMPDEST PUSH2 0x98D PUSH2 0x10CE JUMP JUMPDEST PUSH2 0x996 PUSH0 PUSH2 0x1155 JUMP JUMPDEST JUMP JUMPDEST PUSH1 0x2 SLOAD DUP2 JUMP JUMPDEST PUSH2 0x9A6 PUSH2 0x10CE JUMP JUMPDEST DUP1 PUSH1 0x3 DUP2 SWAP1 SSTORE POP POP JUMP JUMPDEST PUSH0 DUP1 PUSH0 SWAP1 SLOAD SWAP1 PUSH2 0x100 EXP SWAP1 DIV PUSH20 0xFFFFFFFFFFFFFFFFFFFFFFFFFFFFFFFFFFFFFFFF AND SWAP1 POP SWAP1 JUMP JUMPDEST PUSH2 0x9DF PUSH2 0x10CE JUMP JUMPDEST DUP1 PUSH1 0x2 DUP2 SWAP1 SSTORE POP POP JUMP JUMPDEST PUSH2 0x9F1 PUSH2 0x10CE JUMP JUMPDEST PUSH1 0x4 SLOAD TIMESTAMP GT PUSH2 0xA35 JUMPI PUSH1 0x40 MLOAD PUSH32 0x8C379A000000000000000000000000000000000000000000000000000000000 DUP2 MSTORE PUSH1 0x4 ADD PUSH2 0xA2C SWAP1 PUSH2 0x14EA JUMP JUMPDEST PUSH1 0x40 MLOAD DUP1 SWAP2 SUB SWAP1 REVERT JUMPDEST PUSH0 JUMPDEST PUSH1 0x7 DUP1 SLOAD SWAP1 POP DUP2 LT ISZERO PUSH2 0xB8B JUMPI PUSH0 PUSH1 0x7 DUP3 DUP2 SLOAD DUP2 LT PUSH2 0xA59 JUMPI PUSH2 0xA58 PUSH2 0x1570 JUMP JUMPDEST JUMPDEST SWAP1 PUSH0 MSTORE PUSH1 0x20 PUSH0 KECCAK256 ADD PUSH0 SWAP1 SLOAD SWAP1 PUSH2 0x100 EXP SWAP1 DIV PUSH20 0xFFFFFFFFFFFFFFFFFFFFFFFFFFFFFFFFFFFFFFFF AND SWAP1 POP PUSH0 PUSH1 0x8 PUSH0 DUP4 PUSH20 0xFFFFFFFFFFFFFFFFFFFFFFFFFFFFFFFFFFFFFFFF AND PUSH20 0xFFFFFFFFFFFFFFFFFFFFFFFFFFFFFFFFFFFFFFFF AND DUP2 MSTORE PUSH1 0x20 ADD SWAP1 DUP2 MSTORE PUSH1 0x20 ADD PUSH0 KECCAK256 SLOAD SWAP1 POP PUSH0 DUP2 GT ISZERO PUSH2 0xB7C JUMPI PUSH0 PUSH1 0x2 SLOAD DUP3 PUSH2 0xADB SWAP2 SWAP1 PUSH2 0x15CA JUMP JUMPDEST SWAP1 POP PUSH1 0x1 PUSH0 SWAP1 SLOAD SWAP1 PUSH2 0x100 EXP SWAP1 DIV PUSH20 0xFFFFFFFFFFFFFFFFFFFFFFFFFFFFFFFFFFFFFFFF AND PUSH20 0xFFFFFFFFFFFFFFFFFFFFFFFFFFFFFFFFFFFFFFFF AND PUSH4 0xA9059CBB DUP5 DUP4 PUSH1 0x40 MLOAD DUP4 PUSH4 0xFFFFFFFF AND PUSH1 0xE0 SHL DUP2 MSTORE PUSH1 0x4 ADD PUSH2 0xB39 SWAP3 SWAP2 SWAP1 PUSH2 0x162D JUMP JUMPDEST PUSH1 0x20 PUSH1 0x40 MLOAD DUP1 DUP4 SUB DUP2 PUSH0 DUP8 GAS CALL ISZERO DUP1 ISZERO PUSH2 0xB55 JUMPI RETURNDATASIZE PUSH0 DUP1 RETURNDATACOPY RETURNDATASIZE PUSH0 REVERT JUMPDEST POP POP POP POP PUSH1 0x40 MLOAD RETURNDATASIZE PUSH1 0x1F NOT PUSH1 0x1F DUP3 ADD AND DUP3 ADD DUP1 PUSH1 0x40 MSTORE POP DUP2 ADD SWAP1 PUSH2 0xB79 SWAP2 SWAP1 PUSH2 0x1689 JUMP JUMPDEST POP POP JUMPDEST POP POP DUP1 DUP1 PUSH1 0x1 ADD SWAP2 POP POP PUSH2 0xA37 JUMP JUMPDEST POP JUMP JUMPDEST PUSH1 0x5 SLOAD DUP2 JUMP JUMPDEST PUSH1 0x6 PUSH0 SWAP1 SLOAD SWAP1 PUSH2 0x100 EXP SWAP1 DIV PUSH20 0xFFFFFFFFFFFFFFFFFFFFFFFFFFFFFFFFFFFFFFFF AND DUP2 JUMP JUMPDEST PUSH0 PUSH1 0x8 PUSH0 DUP4 PUSH20 0xFFFFFFFFFFFFFFFFFFFFFFFFFFFFFFFFFFFFFFFF AND PUSH20 0xFFFFFFFFFFFFFFFFFFFFFFFFFFFFFFFFFFFFFFFF AND DUP2 MSTORE PUSH1 0x20 ADD SWAP1 DUP2 MSTORE PUSH1 0x20 ADD PUSH0 KECCAK256 SLOAD SWAP1 POP SWAP2 SWAP1 POP JUMP JUMPDEST PUSH1 0x4 SLOAD TIMESTAMP GT ISZERO PUSH2 0xC44 JUMPI PUSH1 0x40 MLOAD PUSH32 0x8C379A000000000000000000000000000000000000000000000000000000000 DUP2 MSTORE PUSH1 0x4 ADD PUSH2 0xC3B SWAP1 PUSH2 0x16FE JUMP JUMPDEST PUSH1 0x40 MLOAD DUP1 SWAP2 SUB SWAP1 REVERT JUMPDEST PUSH1 0x5 SLOAD TIMESTAMP LT ISZERO PUSH2 0xC89 JUMPI PUSH1 0x40 MLOAD PUSH32 0x8C379A000000000000000000000000000000000000000000000000000000000 DUP2 MSTORE PUSH1 0x4 ADD PUSH2 0xC80 SWAP1 PUSH2 0x1766 JUMP JUMPDEST PUSH1 0x40 MLOAD DUP1 SWAP2 SUB SWAP1 REVERT JUMPDEST PUSH0 CALLVALUE GT PUSH2 0xCCB JUMPI PUSH1 0x40 MLOAD PUSH32 0x8C379A000000000000000000000000000000000000000000000000000000000 DUP2 MSTORE PUSH1 0x4 ADD PUSH2 0xCC2 SWAP1 PUSH2 0x17CE JUMP JUMPDEST PUSH1 0x40 MLOAD DUP1 SWAP2 SUB SWAP1 REVERT JUMPDEST PUSH0 PUSH1 0x2 SLOAD CALLVALUE PUSH2 0xCDA SWAP2 SWAP1 PUSH2 0x15CA JUMP JUMPDEST SWAP1 POP PUSH3 0xF4240 DUP2 PUSH1 0xC SLOAD PUSH2 0xCEE SWAP2 SWAP1 PUSH2 0x146D JUMP JUMPDEST GT ISZERO PUSH2 0xD2F JUMPI PUSH1 0x40 MLOAD PUSH32 0x8C379A000000000000000000000000000000000000000000000000000000000 DUP2 MSTORE PUSH1 0x4 ADD PUSH2 0xD26 SWAP1 PUSH2 0x1836 JUMP JUMPDEST PUSH1 0x40 MLOAD DUP1 SWAP2 SUB SWAP1 REVERT JUMPDEST PUSH0 PUSH1 0x8 PUSH0 CALLER PUSH20 0xFFFFFFFFFFFFFFFFFFFFFFFFFFFFFFFFFFFFFFFF AND PUSH20 0xFFFFFFFFFFFFFFFFFFFFFFFFFFFFFFFFFFFFFFFF AND DUP2 MSTORE PUSH1 0x20 ADD SWAP1 DUP2 MSTORE PUSH1 0x20 ADD PUSH0 KECCAK256 SLOAD SUB PUSH2 0xE18 JUMPI PUSH1 0x7 CALLER SWAP1 DUP1 PUSH1 0x1 DUP2 SLOAD ADD DUP1 DUP3 SSTORE DUP1 SWAP2 POP POP PUSH1 0x1 SWAP1 SUB SWAP1 PUSH0 MSTORE PUSH1 0x20 PUSH0 KECCAK256 ADD PUSH0 SWAP1 SWAP2 SWAP1 SWAP2 SWAP1 SWAP2 PUSH2 0x100 EXP DUP2 SLOAD DUP2 PUSH20 0xFFFFFFFFFFFFFFFFFFFFFFFFFFFFFFFFFFFFFFFF MUL NOT AND SWAP1 DUP4 PUSH20 0xFFFFFFFFFFFFFFFFFFFFFFFFFFFFFFFFFFFFFFFF AND MUL OR SWAP1 SSTORE POP PUSH1 0x3 SLOAD PUSH1 0xA PUSH0 CALLER PUSH20 0xFFFFFFFFFFFFFFFFFFFFFFFFFFFFFFFFFFFFFFFF AND PUSH20 0xFFFFFFFFFFFFFFFFFFFFFFFFFFFFFFFFFFFFFFFF AND DUP2 MSTORE PUSH1 0x20 ADD SWAP1 DUP2 MSTORE PUSH1 0x20 ADD PUSH0 KECCAK256 DUP2 SWAP1 SSTORE POP JUMPDEST PUSH0 PUSH1 0x2 SLOAD PUSH1 0xA PUSH0 CALLER PUSH20 0xFFFFFFFFFFFFFFFFFFFFFFFFFFFFFFFFFFFFFFFF AND PUSH20 0xFFFFFFFFFFFFFFFFFFFFFFFFFFFFFFFFFFFFFFFF AND DUP2 MSTORE PUSH1 0x20 ADD SWAP1 DUP2 MSTORE PUSH1 0x20 ADD PUSH0 KECCAK256 SLOAD PUSH2 0xE64 SWAP2 SWAP1 PUSH2 0x15CA JUMP JUMPDEST SWAP1 POP DUP1 DUP3 GT ISZERO PUSH2 0xEA9 JUMPI PUSH1 0x40 MLOAD PUSH32 0x8C379A000000000000000000000000000000000000000000000000000000000 DUP2 MSTORE PUSH1 0x4 ADD PUSH2 0xEA0 SWAP1 PUSH2 0x189E JUMP JUMPDEST PUSH1 0x40 MLOAD DUP1 SWAP2 SUB SWAP1 REVERT JUMPDEST CALLVALUE PUSH1 0x8 PUSH0 CALLER PUSH20 0xFFFFFFFFFFFFFFFFFFFFFFFFFFFFFFFFFFFFFFFF AND PUSH20 0xFFFFFFFFFFFFFFFFFFFFFFFFFFFFFFFFFFFFFFFF AND DUP2 MSTORE PUSH1 0x20 ADD SWAP1 DUP2 MSTORE PUSH1 0x20 ADD PUSH0 KECCAK256 PUSH0 DUP3 DUP3 SLOAD PUSH2 0xEF5 SWAP2 SWAP1 PUSH2 0x146D JUMP JUMPDEST SWAP3 POP POP DUP2 SWAP1 SSTORE POP DUP2 PUSH1 0x9 PUSH0 CALLER PUSH20 0xFFFFFFFFFFFFFFFFFFFFFFFFFFFFFFFFFFFFFFFF AND PUSH20 0xFFFFFFFFFFFFFFFFFFFFFFFFFFFFFFFFFFFFFFFF AND DUP2 MSTORE PUSH1 0x20 ADD SWAP1 DUP2 MSTORE PUSH1 0x20 ADD PUSH0 KECCAK256 PUSH0 DUP3 DUP3 SLOAD PUSH2 0xF48 SWAP2 SWAP1 PUSH2 0x146D JUMP JUMPDEST SWAP3 POP POP DUP2 SWAP1 SSTORE POP PUSH1 0x2 SLOAD DUP3 PUSH2 0xF5D SWAP2 SWAP1 PUSH2 0x18BC JUMP JUMPDEST PUSH1 0xA PUSH0 CALLER PUSH20 0xFFFFFFFFFFFFFFFFFFFFFFFFFFFFFFFFFFFFFFFF AND PUSH20 0xFFFFFFFFFFFFFFFFFFFFFFFFFFFFFFFFFFFFFFFF AND DUP2 MSTORE PUSH1 0x20 ADD SWAP1 DUP2 MSTORE PUSH1 0x20 ADD PUSH0 KECCAK256 PUSH0 DUP3 DUP3 SLOAD PUSH2 0xFA8 SWAP2 SWAP1 PUSH2 0x15FA JUMP JUMPDEST SWAP3 POP POP DUP2 SWAP1 SSTORE POP CALLVALUE PUSH1 0xB PUSH0 DUP3 DUP3 SLOAD PUSH2 0xFC0 SWAP2 SWAP1 PUSH2 0x146D JUMP JUMPDEST SWAP3 POP POP DUP2 SWAP1 SSTORE POP DUP2 PUSH1 0xC PUSH0 DUP3 DUP3 SLOAD PUSH2 0xFD8 SWAP2 SWAP1 PUSH2 0x146D JUMP JUMPDEST SWAP3 POP POP DUP2 SWAP1 SSTORE POP POP POP JUMP JUMPDEST PUSH1 0x7 DUP2 DUP2 SLOAD DUP2 LT PUSH2 0xFF2 JUMPI PUSH0 DUP1 REVERT JUMPDEST SWAP1 PUSH0 MSTORE PUSH1 0x20 PUSH0 KECCAK256 ADD PUSH0 SWAP2 POP SLOAD SWAP1 PUSH2 0x100 EXP SWAP1 DIV PUSH20 0xFFFFFFFFFFFFFFFFFFFFFFFFFFFFFFFFFFFFFFFF AND DUP2 JUMP JUMPDEST PUSH2 0x1026 PUSH2 0x10CE JUMP JUMPDEST PUSH0 PUSH20 0xFFFFFFFFFFFFFFFFFFFFFFFFFFFFFFFFFFFFFFFF AND DUP2 PUSH20 0xFFFFFFFFFFFFFFFFFFFFFFFFFFFFFFFFFFFFFFFF AND SUB PUSH2 0x1096 JUMPI PUSH0 PUSH1 0x40 MLOAD PUSH32 0x1E4FBDF700000000000000000000000000000000000000000000000000000000 DUP2 MSTORE PUSH1 0x4 ADD PUSH2 0x108D SWAP2 SWAP1 PUSH2 0x133B JUMP JUMPDEST PUSH1 0x40 MLOAD DUP1 SWAP2 SUB SWAP1 REVERT JUMPDEST PUSH2 0x109F DUP2 PUSH2 0x1155 JUMP JUMPDEST POP JUMP JUMPDEST PUSH3 0xF4240 DUP2 JUMP JUMPDEST PUSH1 0x1 PUSH0 SWAP1 SLOAD SWAP1 PUSH2 0x100 EXP SWAP1 DIV PUSH20 0xFFFFFFFFFFFFFFFFFFFFFFFFFFFFFFFFFFFFFFFF AND DUP2 JUMP JUMPDEST PUSH2 0x10D6 PUSH2 0x1216 JUMP JUMPDEST PUSH20 0xFFFFFFFFFFFFFFFFFFFFFFFFFFFFFFFFFFFFFFFF AND PUSH2 0x10F4 PUSH2 0x9B0 JUMP JUMPDEST PUSH20 0xFFFFFFFFFFFFFFFFFFFFFFFFFFFFFFFFFFFFFFFF AND EQ PUSH2 0x1153 JUMPI PUSH2 0x1117 PUSH2 0x1216 JUMP JUMPDEST PUSH1 0x40 MLOAD PUSH32 0x118CDAA700000000000000000000000000000000000000000000000000000000 DUP2 MSTORE PUSH1 0x4 ADD PUSH2 0x114A SWAP2 SWAP1 PUSH2 0x133B JUMP JUMPDEST PUSH1 0x40 MLOAD DUP1 SWAP2 SUB SWAP1 REVERT JUMPDEST JUMP JUMPDEST PUSH0 DUP1 PUSH0 SWAP1 SLOAD SWAP1 PUSH2 0x100 EXP SWAP1 DIV PUSH20 0xFFFFFFFFFFFFFFFFFFFFFFFFFFFFFFFFFFFFFFFF AND SWAP1 POP DUP2 PUSH0 DUP1 PUSH2 0x100 EXP DUP2 SLOAD DUP2 PUSH20 0xFFFFFFFFFFFFFFFFFFFFFFFFFFFFFFFFFFFFFFFF MUL NOT AND SWAP1 DUP4 PUSH20 0xFFFFFFFFFFFFFFFFFFFFFFFFFFFFFFFFFFFFFFFF AND MUL OR SWAP1 SSTORE POP DUP2 PUSH20 0xFFFFFFFFFFFFFFFFFFFFFFFFFFFFFFFFFFFFFFFF AND DUP2 PUSH20 0xFFFFFFFFFFFFFFFFFFFFFFFFFFFFFFFFFFFFFFFF AND PUSH32 0x8BE0079C531659141344CD1FD0A4F28419497F9722A3DAAFE3B4186F6B6457E0 PUSH1 0x40 MLOAD PUSH1 0x40 MLOAD DUP1 SWAP2 SUB SWAP1 LOG3 POP POP JUMP JUMPDEST PUSH0 CALLER SWAP1 POP SWAP1 JUMP JUMPDEST PUSH0 DUP1 REVERT JUMPDEST PUSH0 DUP2 SWAP1 POP SWAP2 SWAP1 POP JUMP JUMPDEST PUSH2 0x1233 DUP2 PUSH2 0x1221 JUMP JUMPDEST DUP2 EQ PUSH2 0x123D JUMPI PUSH0 DUP1 REVERT JUMPDEST POP JUMP JUMPDEST PUSH0 DUP2 CALLDATALOAD SWAP1 POP PUSH2 0x124E DUP2 PUSH2 0x122A JUMP JUMPDEST SWAP3 SWAP2 POP POP JUMP JUMPDEST PUSH0 PUSH1 0x20 DUP3 DUP5 SUB SLT ISZERO PUSH2 0x1269 JUMPI PUSH2 0x1268 PUSH2 0x121D JUMP JUMPDEST JUMPDEST PUSH0 PUSH2 0x1276 DUP5 DUP3 DUP6 ADD PUSH2 0x1240 JUMP JUMPDEST SWAP2 POP POP SWAP3 SWAP2 POP POP JUMP JUMPDEST PUSH0 PUSH20 0xFFFFFFFFFFFFFFFFFFFFFFFFFFFFFFFFFFFFFFFF DUP3 AND SWAP1 POP SWAP2 SWAP1 POP JUMP JUMPDEST PUSH0 PUSH2 0x12A8 DUP3 PUSH2 0x127F JUMP JUMPDEST SWAP1 POP SWAP2 SWAP1 POP JUMP JUMPDEST PUSH2 0x12B8 DUP2 PUSH2 0x129E JUMP JUMPDEST DUP2 EQ PUSH2 0x12C2 JUMPI PUSH0 DUP1 REVERT JUMPDEST POP JUMP JUMPDEST PUSH0 DUP2 CALLDATALOAD SWAP1 POP PUSH2 0x12D3 DUP2 PUSH2 0x12AF JUMP JUMPDEST SWAP3 SWAP2 POP POP JUMP JUMPDEST PUSH0 PUSH1 0x20 DUP3 DUP5 SUB SLT ISZERO PUSH2 0x12EE JUMPI PUSH2 0x12ED PUSH2 0x121D JUMP JUMPDEST JUMPDEST PUSH0 PUSH2 0x12FB DUP5 DUP3 DUP6 ADD PUSH2 0x12C5 JUMP JUMPDEST SWAP2 POP POP SWAP3 SWAP2 POP POP JUMP JUMPDEST PUSH2 0x130D DUP2 PUSH2 0x1221 JUMP JUMPDEST DUP3 MSTORE POP POP JUMP JUMPDEST PUSH0 PUSH1 0x20 DUP3 ADD SWAP1 POP PUSH2 0x1326 PUSH0 DUP4 ADD DUP5 PUSH2 0x1304 JUMP JUMPDEST SWAP3 SWAP2 POP POP JUMP JUMPDEST PUSH2 0x1335 DUP2 PUSH2 0x129E JUMP JUMPDEST DUP3 MSTORE POP POP JUMP JUMPDEST PUSH0 PUSH1 0x20 DUP3 ADD SWAP1 POP PUSH2 0x134E PUSH0 DUP4 ADD DUP5 PUSH2 0x132C JUMP JUMPDEST SWAP3 SWAP2 POP POP JUMP JUMPDEST PUSH0 DUP2 SWAP1 POP SWAP2 SWAP1 POP JUMP JUMPDEST PUSH0 PUSH2 0x1377 PUSH2 0x1372 PUSH2 0x136D DUP5 PUSH2 0x127F JUMP JUMPDEST PUSH2 0x1354 JUMP JUMPDEST PUSH2 0x127F JUMP JUMPDEST SWAP1 POP SWAP2 SWAP1 POP JUMP JUMPDEST PUSH0 PUSH2 0x1388 DUP3 PUSH2 0x135D JUMP JUMPDEST SWAP1 POP SWAP2 SWAP1 POP JUMP JUMPDEST PUSH0 PUSH2 0x1399 DUP3 PUSH2 0x137E JUMP JUMPDEST SWAP1 POP SWAP2 SWAP1 POP JUMP JUMPDEST PUSH2 0x13A9 DUP2 PUSH2 0x138F JUMP JUMPDEST DUP3 MSTORE POP POP JUMP JUMPDEST PUSH0 PUSH1 0x20 DUP3 ADD SWAP1 POP PUSH2 0x13C2 PUSH0 DUP4 ADD DUP5 PUSH2 0x13A0 JUMP JUMPDEST SWAP3 SWAP2 POP POP JUMP JUMPDEST PUSH0 DUP3 DUP3 MSTORE PUSH1 0x20 DUP3 ADD SWAP1 POP SWAP3 SWAP2 POP POP JUMP JUMPDEST PUSH32 0x6C61756E636870616420616C7265616479207374617274656400000000000000 PUSH0 DUP3 ADD MSTORE POP JUMP JUMPDEST PUSH0 PUSH2 0x140C PUSH1 0x19 DUP4 PUSH2 0x13C8 JUMP JUMPDEST SWAP2 POP PUSH2 0x1417 DUP3 PUSH2 0x13D8 JUMP JUMPDEST PUSH1 0x20 DUP3 ADD SWAP1 POP SWAP2 SWAP1 POP JUMP JUMPDEST PUSH0 PUSH1 0x20 DUP3 ADD SWAP1 POP DUP2 DUP2 SUB PUSH0 DUP4 ADD MSTORE PUSH2 0x1439 DUP2 PUSH2 0x1400 JUMP JUMPDEST SWAP1 POP SWAP2 SWAP1 POP JUMP JUMPDEST PUSH32 0x4E487B7100000000000000000000000000000000000000000000000000000000 PUSH0 MSTORE PUSH1 0x11 PUSH1 0x4 MSTORE PUSH1 0x24 PUSH0 REVERT JUMPDEST PUSH0 PUSH2 0x1477 DUP3 PUSH2 0x1221 JUMP JUMPDEST SWAP2 POP PUSH2 0x1482 DUP4 PUSH2 0x1221 JUMP JUMPDEST SWAP3 POP DUP3 DUP3 ADD SWAP1 POP DUP1 DUP3 GT ISZERO PUSH2 0x149A JUMPI PUSH2 0x1499 PUSH2 0x1440 JUMP JUMPDEST JUMPDEST SWAP3 SWAP2 POP POP JUMP JUMPDEST PUSH32 0x4C61756E6368706164206E6F742066696E697368656420796574000000000000 PUSH0 DUP3 ADD MSTORE POP JUMP JUMPDEST PUSH0 PUSH2 0x14D4 PUSH1 0x1A DUP4 PUSH2 0x13C8 JUMP JUMPDEST SWAP2 POP PUSH2 0x14DF DUP3 PUSH2 0x14A0 JUMP JUMPDEST PUSH1 0x20 DUP3 ADD SWAP1 POP SWAP2 SWAP1 POP JUMP JUMPDEST PUSH0 PUSH1 0x20 DUP3 ADD SWAP1 POP DUP2 DUP2 SUB PUSH0 DUP4 ADD MSTORE PUSH2 0x1501 DUP2 PUSH2 0x14C8 JUMP JUMPDEST SWAP1 POP SWAP2 SWAP1 POP JUMP JUMPDEST PUSH32 0x54617820636F6C6C6563746F722061646472657373206E6F7420736574000000 PUSH0 DUP3 ADD MSTORE POP JUMP JUMPDEST PUSH0 PUSH2 0x153C PUSH1 0x1D DUP4 PUSH2 0x13C8 JUMP JUMPDEST SWAP2 POP PUSH2 0x1547 DUP3 PUSH2 0x1508 JUMP JUMPDEST PUSH1 0x20 DUP3 ADD SWAP1 POP SWAP2 SWAP1 POP JUMP JUMPDEST PUSH0 PUSH1 0x20 DUP3 ADD SWAP1 POP DUP2 DUP2 SUB PUSH0 DUP4 ADD MSTORE PUSH2 0x1569 DUP2 PUSH2 0x1530 JUMP JUMPDEST SWAP1 POP SWAP2 SWAP1 POP JUMP JUMPDEST PUSH32 0x4E487B7100000000000000000000000000000000000000000000000000000000 PUSH0 MSTORE PUSH1 0x32 PUSH1 0x4 MSTORE PUSH1 0x24 PUSH0 REVERT JUMPDEST PUSH32 0x4E487B7100000000000000000000000000000000000000000000000000000000 PUSH0 MSTORE PUSH1 0x12 PUSH1 0x4 MSTORE PUSH1 0x24 PUSH0 REVERT JUMPDEST PUSH0 PUSH2 0x15D4 DUP3 PUSH2 0x1221 JUMP JUMPDEST SWAP2 POP PUSH2 0x15DF DUP4 PUSH2 0x1221 JUMP JUMPDEST SWAP3 POP DUP3 PUSH2 0x15EF JUMPI PUSH2 0x15EE PUSH2 0x159D JUMP JUMPDEST JUMPDEST DUP3 DUP3 DIV SWAP1 POP SWAP3 SWAP2 POP POP JUMP JUMPDEST PUSH0 PUSH2 0x1604 DUP3 PUSH2 0x1221 JUMP JUMPDEST SWAP2 POP PUSH2 0x160F DUP4 PUSH2 0x1221 JUMP JUMPDEST SWAP3 POP DUP3 DUP3 SUB SWAP1 POP DUP2 DUP2 GT ISZERO PUSH2 0x1627 JUMPI PUSH2 0x1626 PUSH2 0x1440 JUMP JUMPDEST JUMPDEST SWAP3 SWAP2 POP POP JUMP JUMPDEST PUSH0 PUSH1 0x40 DUP3 ADD SWAP1 POP PUSH2 0x1640 PUSH0 DUP4 ADD DUP6 PUSH2 0x132C JUMP JUMPDEST PUSH2 0x164D PUSH1 0x20 DUP4 ADD DUP5 PUSH2 0x1304 JUMP JUMPDEST SWAP4 SWAP3 POP POP POP JUMP JUMPDEST PUSH0 DUP2 ISZERO ISZERO SWAP1 POP SWAP2 SWAP1 POP JUMP JUMPDEST PUSH2 0x1668 DUP2 PUSH2 0x1654 JUMP JUMPDEST DUP2 EQ PUSH2 0x1672 JUMPI PUSH0 DUP1 REVERT JUMPDEST POP JUMP JUMPDEST PUSH0 DUP2 MLOAD SWAP1 POP PUSH2 0x1683 DUP2 PUSH2 0x165F JUMP JUMPDEST SWAP3 SWAP2 POP POP JUMP JUMPDEST PUSH0 PUSH1 0x20 DUP3 DUP5 SUB SLT ISZERO PUSH2 0x169E JUMPI PUSH2 0x169D PUSH2 0x121D JUMP JUMPDEST JUMPDEST PUSH0 PUSH2 0x16AB DUP5 DUP3 DUP6 ADD PUSH2 0x1675 JUMP JUMPDEST SWAP2 POP POP SWAP3 SWAP2 POP POP JUMP JUMPDEST PUSH32 0x4C61756E63687061642068617320656E64656400000000000000000000000000 PUSH0 DUP3 ADD MSTORE POP JUMP JUMPDEST PUSH0 PUSH2 0x16E8 PUSH1 0x13 DUP4 PUSH2 0x13C8 JUMP JUMPDEST SWAP2 POP PUSH2 0x16F3 DUP3 PUSH2 0x16B4 JUMP JUMPDEST PUSH1 0x20 DUP3 ADD SWAP1 POP SWAP2 SWAP1 POP JUMP JUMPDEST PUSH0 PUSH1 0x20 DUP3 ADD SWAP1 POP DUP2 DUP2 SUB PUSH0 DUP4 ADD MSTORE PUSH2 0x1715 DUP2 PUSH2 0x16DC JUMP JUMPDEST SWAP1 POP SWAP2 SWAP1 POP JUMP JUMPDEST PUSH32 0x4C61756E6368706164206973206E6F7420737461727465640000000000000000 PUSH0 DUP3 ADD MSTORE POP JUMP JUMPDEST PUSH0 PUSH2 0x1750 PUSH1 0x18 DUP4 PUSH2 0x13C8 JUMP JUMPDEST SWAP2 POP PUSH2 0x175B DUP3 PUSH2 0x171C JUMP JUMPDEST PUSH1 0x20 DUP3 ADD SWAP1 POP SWAP2 SWAP1 POP JUMP JUMPDEST PUSH0 PUSH1 0x20 DUP3 ADD SWAP1 POP DUP2 DUP2 SUB PUSH0 DUP4 ADD MSTORE PUSH2 0x177D DUP2 PUSH2 0x1744 JUMP JUMPDEST SWAP1 POP SWAP2 SWAP1 POP JUMP JUMPDEST PUSH32 0x596F75206E65656420746F2073656E6420455448000000000000000000000000 PUSH0 DUP3 ADD MSTORE POP JUMP JUMPDEST PUSH0 PUSH2 0x17B8 PUSH1 0x14 DUP4 PUSH2 0x13C8 JUMP JUMPDEST SWAP2 POP PUSH2 0x17C3 DUP3 PUSH2 0x1784 JUMP JUMPDEST PUSH1 0x20 DUP3 ADD SWAP1 POP SWAP2 SWAP1 POP JUMP JUMPDEST PUSH0 PUSH1 0x20 DUP3 ADD SWAP1 POP DUP2 DUP2 SUB PUSH0 DUP4 ADD MSTORE PUSH2 0x17E5 DUP2 PUSH2 0x17AC JUMP JUMPDEST SWAP1 POP SWAP2 SWAP1 POP JUMP JUMPDEST PUSH32 0x45786365656473206D6178696D756D20746F6B656E206C696D69740000000000 PUSH0 DUP3 ADD MSTORE POP JUMP JUMPDEST PUSH0 PUSH2 0x1820 PUSH1 0x1B DUP4 PUSH2 0x13C8 JUMP JUMPDEST SWAP2 POP PUSH2 0x182B DUP3 PUSH2 0x17EC JUMP JUMPDEST PUSH1 0x20 DUP3 ADD SWAP1 POP SWAP2 SWAP1 POP JUMP JUMPDEST PUSH0 PUSH1 0x20 DUP3 ADD SWAP1 POP DUP2 DUP2 SUB PUSH0 DUP4 ADD MSTORE PUSH2 0x184D DUP2 PUSH2 0x1814 JUMP JUMPDEST SWAP1 POP SWAP2 SWAP1 POP JUMP JUMPDEST PUSH32 0x4578636565647320746865206D617820746F6B656E207065722077616C6C6574 PUSH0 DUP3 ADD MSTORE POP JUMP JUMPDEST PUSH0 PUSH2 0x1888 PUSH1 0x20 DUP4 PUSH2 0x13C8 JUMP JUMPDEST SWAP2 POP PUSH2 0x1893 DUP3 PUSH2 0x1854 JUMP JUMPDEST PUSH1 0x20 DUP3 ADD SWAP1 POP SWAP2 SWAP1 POP JUMP JUMPDEST PUSH0 PUSH1 0x20 DUP3 ADD SWAP1 POP DUP2 DUP2 SUB PUSH0 DUP4 ADD MSTORE PUSH2 0x18B5 DUP2 PUSH2 0x187C JUMP JUMPDEST SWAP1 POP SWAP2 SWAP1 POP JUMP JUMPDEST PUSH0 PUSH2 0x18C6 DUP3 PUSH2 0x1221 JUMP JUMPDEST SWAP2 POP PUSH2 0x18D1 DUP4 PUSH2 0x1221 JUMP JUMPDEST SWAP3 POP DUP3 DUP3 MUL PUSH2 0x18DF DUP2 PUSH2 0x1221 JUMP JUMPDEST SWAP2 POP DUP3 DUP3 DIV DUP5 EQ DUP4 ISZERO OR PUSH2 0x18F6 JUMPI PUSH2 0x18F5 PUSH2 0x1440 JUMP JUMPDEST JUMPDEST POP SWAP3 SWAP2 POP POP JUMP INVALID LOG2 PUSH5 0x6970667358 0x22 SLT KECCAK256 0xE4 PC PUSH4 0x5995CAF7 SWAP3 0xC8 SELFBALANCE BASEFEE 0xE4 0xAE 0xA8 INVALID SWAP2 0xAE SWAP10 0xF7 0xE9 LOG2 PUSH1 0x40 0xA6 0xC2 0xE5 0xF6 0xD0 0xBD 0xAE BLOCKHASH CALLDATALOAD PUSH5 0x736F6C6343 STOP ADDMOD BYTE STOP CALLER "
				},
				"gasEstimates": {
					"creation": {
						"codeDepositCost": "1290200",
						"executionCost": "infinite",
						"totalCost": "infinite"
					},
					"external": {
						"DURATION()": "393",
						"MAX_TOKENS()": "413",
						"PRICE_PER_TOKEN()": "2448",
						"allContributors(uint256)": "4988",
						"contribute()": "infinite",
						"contributions(address)": "2847",
						"contributionsInTokens(address)": "2891",
						"distributeTokens()": "infinite",
						"getAmountPerWallet(address)": "2896",
						"launchpadEndTime()": "2515",
						"launchpadStartTime()": "2558",
						"maxAmountPerWallet()": "2559",
						"owner()": "2582",
						"refundAll()": "infinite",
						"remainingTokenAvailablePerWallet(address)": "2870",
						"renounceOwnership()": "infinite",
						"setMaxAmountPerWallet(uint256)": "infinite",
						"setPrice(uint256)": "infinite",
						"setStartLaunchpadTime(uint256)": "infinite",
						"setTaxCollector(address)": "infinite",
						"taxCollector()": "2553",
						"token()": "infinite",
						"totalContributions()": "2471",
						"totalTokensSold()": "2492",
						"transferOwnership(address)": "infinite",
						"withdrawFunds()": "infinite"
					}
				},
				"methodIdentifiers": {
					"DURATION()": "1be05289",
					"MAX_TOKENS()": "f47c84c5",
					"PRICE_PER_TOKEN()": "833b9499",
					"allContributors(uint256)": "e07439f7",
					"contribute()": "d7bb99ba",
					"contributions(address)": "42e94c90",
					"contributionsInTokens(address)": "64fa41ad",
					"distributeTokens()": "9ab1b484",
					"getAmountPerWallet(address)": "c452e427",
					"launchpadEndTime()": "20055b92",
					"launchpadStartTime()": "babbc405",
					"maxAmountPerWallet()": "36db7129",
					"owner()": "8da5cb5b",
					"refundAll()": "38e771ab",
					"remainingTokenAvailablePerWallet(address)": "3805c0b5",
					"renounceOwnership()": "715018a6",
					"setMaxAmountPerWallet(uint256)": "85266ec6",
					"setPrice(uint256)": "91b7f5ed",
					"setStartLaunchpadTime(uint256)": "01df0781",
					"setTaxCollector(address)": "08695b41",
					"taxCollector()": "bea1dcf8",
					"token()": "fc0c546a",
					"totalContributions()": "37c08923",
					"totalTokensSold()": "63b20117",
					"transferOwnership(address)": "f2fde38b",
					"withdrawFunds()": "24600fc3"
				}
			},
			"storageLayout": {
				"storage": [
					{
						"astId": 8,
						"contract": "contracts/launchpad/launchpad.sol:Launchpad",
						"label": "_owner",
						"offset": 0,
						"slot": "0",
						"type": "t_address"
					},
					{
						"astId": 264,
						"contract": "contracts/launchpad/launchpad.sol:Launchpad",
						"label": "token",
						"offset": 0,
						"slot": "1",
						"type": "t_contract(IERC20)225"
					},
					{
						"astId": 267,
						"contract": "contracts/launchpad/launchpad.sol:Launchpad",
						"label": "PRICE_PER_TOKEN",
						"offset": 0,
						"slot": "2",
						"type": "t_uint256"
					},
					{
						"astId": 278,
						"contract": "contracts/launchpad/launchpad.sol:Launchpad",
						"label": "maxAmountPerWallet",
						"offset": 0,
						"slot": "3",
						"type": "t_uint256"
					},
					{
						"astId": 280,
						"contract": "contracts/launchpad/launchpad.sol:Launchpad",
						"label": "launchpadEndTime",
						"offset": 0,
						"slot": "4",
						"type": "t_uint256"
					},
					{
						"astId": 282,
						"contract": "contracts/launchpad/launchpad.sol:Launchpad",
						"label": "launchpadStartTime",
						"offset": 0,
						"slot": "5",
						"type": "t_uint256"
					},
					{
						"astId": 284,
						"contract": "contracts/launchpad/launchpad.sol:Launchpad",
						"label": "taxCollector",
						"offset": 0,
						"slot": "6",
						"type": "t_address"
					},
					{
						"astId": 287,
						"contract": "contracts/launchpad/launchpad.sol:Launchpad",
						"label": "allContributors",
						"offset": 0,
						"slot": "7",
						"type": "t_array(t_address)dyn_storage"
					},
					{
						"astId": 291,
						"contract": "contracts/launchpad/launchpad.sol:Launchpad",
						"label": "contributions",
						"offset": 0,
						"slot": "8",
						"type": "t_mapping(t_address,t_uint256)"
					},
					{
						"astId": 295,
						"contract": "contracts/launchpad/launchpad.sol:Launchpad",
						"label": "contributionsInTokens",
						"offset": 0,
						"slot": "9",
						"type": "t_mapping(t_address,t_uint256)"
					},
					{
						"astId": 299,
						"contract": "contracts/launchpad/launchpad.sol:Launchpad",
						"label": "remainingTokenAvailablePerWallet",
						"offset": 0,
						"slot": "10",
						"type": "t_mapping(t_address,t_uint256)"
					},
					{
						"astId": 301,
						"contract": "contracts/launchpad/launchpad.sol:Launchpad",
						"label": "totalContributions",
						"offset": 0,
						"slot": "11",
						"type": "t_uint256"
					},
					{
						"astId": 303,
						"contract": "contracts/launchpad/launchpad.sol:Launchpad",
						"label": "totalTokensSold",
						"offset": 0,
						"slot": "12",
						"type": "t_uint256"
					}
				],
				"types": {
					"t_address": {
						"encoding": "inplace",
						"label": "address",
						"numberOfBytes": "20"
					},
					"t_array(t_address)dyn_storage": {
						"base": "t_address",
						"encoding": "dynamic_array",
						"label": "address[]",
						"numberOfBytes": "32"
					},
					"t_contract(IERC20)225": {
						"encoding": "inplace",
						"label": "contract IERC20",
						"numberOfBytes": "20"
					},
					"t_mapping(t_address,t_uint256)": {
						"encoding": "mapping",
						"key": "t_address",
						"label": "mapping(address => uint256)",
						"numberOfBytes": "32",
						"value": "t_uint256"
					},
					"t_uint256": {
						"encoding": "inplace",
						"label": "uint256",
						"numberOfBytes": "32"
					}
				}
			},
			"userdoc": {
				"kind": "user",
				"methods": {},
				"version": 1
			}
		}
	}
}