{
	"contracts/token factory/LiquidityPool.sol": {
		"LiquidityPool": {
			"abi": [
				{
					"inputs": [
						{
							"internalType": "address",
							"name": "_devAddress",
							"type": "address"
						},
						{
							"internalType": "address",
							"name": "_tokenFactory",
							"type": "address"
						},
						{
							"internalType": "uint256",
							"name": "_initialMigrationThreshold",
							"type": "uint256"
						}
					],
					"stateMutability": "nonpayable",
					"type": "constructor"
				},
				{
					"inputs": [],
					"name": "ReentrancyGuardReentrantCall",
					"type": "error"
				},
				{
					"anonymous": false,
					"inputs": [
						{
							"indexed": true,
							"internalType": "address",
							"name": "newInitializer",
							"type": "address"
						}
					],
					"name": "AlgebraPoolInitializerUpdated",
					"type": "event"
				},
				{
					"anonymous": false,
					"inputs": [
						{
							"indexed": false,
							"internalType": "bool",
							"name": "enabled",
							"type": "bool"
						}
					],
					"name": "AutoMigrationToggled",
					"type": "event"
				},
				{
					"anonymous": false,
					"inputs": [
						{
							"indexed": true,
							"internalType": "address",
							"name": "provider",
							"type": "address"
						},
						{
							"indexed": false,
							"internalType": "uint256",
							"name": "tokenAmount",
							"type": "uint256"
						}
					],
					"name": "LiquidityAdded",
					"type": "event"
				},
				{
					"anonymous": false,
					"inputs": [
						{
							"indexed": true,
							"internalType": "address",
							"name": "poolAddress",
							"type": "address"
						},
						{
							"indexed": false,
							"internalType": "uint256",
							"name": "tokenAmount",
							"type": "uint256"
						},
						{
							"indexed": false,
							"internalType": "uint256",
							"name": "ethAmount",
							"type": "uint256"
						}
					],
					"name": "MigrationCompleted",
					"type": "event"
				},
				{
					"anonymous": false,
					"inputs": [
						{
							"indexed": true,
							"internalType": "address",
							"name": "token",
							"type": "address"
						},
						{
							"indexed": false,
							"internalType": "uint256",
							"name": "tokenAmount",
							"type": "uint256"
						},
						{
							"indexed": false,
							"internalType": "uint256",
							"name": "ethAmount",
							"type": "uint256"
						}
					],
					"name": "MigrationExecuted",
					"type": "event"
				},
				{
					"anonymous": false,
					"inputs": [
						{
							"indexed": true,
							"internalType": "address",
							"name": "poolAddress",
							"type": "address"
						},
						{
							"indexed": false,
							"internalType": "uint256",
							"name": "timestamp",
							"type": "uint256"
						}
					],
					"name": "MigrationStarted",
					"type": "event"
				},
				{
					"anonymous": false,
					"inputs": [
						{
							"indexed": false,
							"internalType": "uint256",
							"name": "newThreshold",
							"type": "uint256"
						}
					],
					"name": "MigrationThresholdUpdated",
					"type": "event"
				},
				{
					"anonymous": false,
					"inputs": [
						{
							"indexed": true,
							"internalType": "address",
							"name": "newPoolAddress",
							"type": "address"
						},
						{
							"indexed": false,
							"internalType": "uint256",
							"name": "tokenTransferred",
							"type": "uint256"
						},
						{
							"indexed": false,
							"internalType": "uint256",
							"name": "etherTransferred",
							"type": "uint256"
						}
					],
					"name": "MigrationToAlgebra",
					"type": "event"
				},
				{
					"anonymous": false,
					"inputs": [
						{
							"indexed": false,
							"internalType": "string",
							"name": "step",
							"type": "string"
						},
						{
							"indexed": true,
							"internalType": "address",
							"name": "dataAddress",
							"type": "address"
						},
						{
							"indexed": true,
							"internalType": "uint256",
							"name": "value",
							"type": "uint256"
						}
					],
					"name": "Step",
					"type": "event"
				},
				{
					"anonymous": false,
					"inputs": [
						{
							"indexed": false,
							"internalType": "uint256",
							"name": "newBuyTax",
							"type": "uint256"
						},
						{
							"indexed": false,
							"internalType": "uint256",
							"name": "newSellTax",
							"type": "uint256"
						}
					],
					"name": "TaxUpdated",
					"type": "event"
				},
				{
					"anonymous": false,
					"inputs": [
						{
							"indexed": true,
							"internalType": "address",
							"name": "buyer",
							"type": "address"
						},
						{
							"indexed": false,
							"internalType": "uint256",
							"name": "amountIn",
							"type": "uint256"
						},
						{
							"indexed": false,
							"internalType": "uint256",
							"name": "amountOut",
							"type": "uint256"
						},
						{
							"indexed": false,
							"internalType": "uint256",
							"name": "tax",
							"type": "uint256"
						}
					],
					"name": "TokensPurchased",
					"type": "event"
				},
				{
					"anonymous": false,
					"inputs": [
						{
							"indexed": true,
							"internalType": "address",
							"name": "seller",
							"type": "address"
						},
						{
							"indexed": false,
							"internalType": "uint256",
							"name": "amountIn",
							"type": "uint256"
						},
						{
							"indexed": false,
							"internalType": "uint256",
							"name": "amountOut",
							"type": "uint256"
						},
						{
							"indexed": false,
							"internalType": "uint256",
							"name": "tax",
							"type": "uint256"
						}
					],
					"name": "TokensSold",
					"type": "event"
				},
				{
					"inputs": [],
					"name": "X_DELTA_LOWER",
					"outputs": [
						{
							"internalType": "uint256",
							"name": "",
							"type": "uint256"
						}
					],
					"stateMutability": "view",
					"type": "function"
				},
				{
					"inputs": [],
					"name": "X_DELTA_UPPER",
					"outputs": [
						{
							"internalType": "uint256",
							"name": "",
							"type": "uint256"
						}
					],
					"stateMutability": "view",
					"type": "function"
				},
				{
					"inputs": [],
					"name": "Y_DELTA_LOWER",
					"outputs": [
						{
							"internalType": "uint256",
							"name": "",
							"type": "uint256"
						}
					],
					"stateMutability": "view",
					"type": "function"
				},
				{
					"inputs": [],
					"name": "Y_DELTA_UPPER",
					"outputs": [
						{
							"internalType": "uint256",
							"name": "",
							"type": "uint256"
						}
					],
					"stateMutability": "view",
					"type": "function"
				},
				{
					"inputs": [],
					"name": "algebraPoolAddress",
					"outputs": [
						{
							"internalType": "address",
							"name": "",
							"type": "address"
						}
					],
					"stateMutability": "view",
					"type": "function"
				},
				{
					"inputs": [],
					"name": "algebraPoolInitializer",
					"outputs": [
						{
							"internalType": "address",
							"name": "",
							"type": "address"
						}
					],
					"stateMutability": "view",
					"type": "function"
				},
				{
					"inputs": [],
					"name": "autoMigrationEnabled",
					"outputs": [
						{
							"internalType": "bool",
							"name": "",
							"type": "bool"
						}
					],
					"stateMutability": "view",
					"type": "function"
				},
				{
					"inputs": [],
					"name": "buyTax",
					"outputs": [
						{
							"internalType": "uint256",
							"name": "",
							"type": "uint256"
						}
					],
					"stateMutability": "view",
					"type": "function"
				},
				{
					"inputs": [],
					"name": "buyToken",
					"outputs": [
						{
							"internalType": "uint256",
							"name": "amountOut",
							"type": "uint256"
						}
					],
					"stateMutability": "payable",
					"type": "function"
				},
				{
					"inputs": [
						{
							"internalType": "uint256",
							"name": "amount0",
							"type": "uint256"
						},
						{
							"internalType": "uint256",
							"name": "amount1",
							"type": "uint256"
						}
					],
					"name": "calculateSqrtPriceX96",
					"outputs": [
						{
							"internalType": "uint160",
							"name": "",
							"type": "uint160"
						}
					],
					"stateMutability": "pure",
					"type": "function"
				},
				{
					"inputs": [],
					"name": "devAddress",
					"outputs": [
						{
							"internalType": "address",
							"name": "",
							"type": "address"
						}
					],
					"stateMutability": "view",
					"type": "function"
				},
				{
					"inputs": [],
					"name": "forceMigration",
					"outputs": [],
					"stateMutability": "nonpayable",
					"type": "function"
				},
				{
					"inputs": [],
					"name": "getReserves",
					"outputs": [
						{
							"internalType": "uint256",
							"name": "",
							"type": "uint256"
						},
						{
							"internalType": "uint256",
							"name": "",
							"type": "uint256"
						}
					],
					"stateMutability": "view",
					"type": "function"
				},
				{
					"inputs": [
						{
							"internalType": "address",
							"name": "_token0",
							"type": "address"
						},
						{
							"internalType": "uint256",
							"name": "_initialTokenReserve",
							"type": "uint256"
						},
						{
							"internalType": "uint256",
							"name": "_buyTax",
							"type": "uint256"
						},
						{
							"internalType": "uint256",
							"name": "_sellTax",
							"type": "uint256"
						},
						{
							"internalType": "address",
							"name": "_migrator",
							"type": "address"
						},
						{
							"internalType": "bool",
							"name": "_automigration",
							"type": "bool"
						}
					],
					"name": "initialize",
					"outputs": [],
					"stateMutability": "payable",
					"type": "function"
				},
				{
					"inputs": [],
					"name": "migratedToAlgebra",
					"outputs": [
						{
							"internalType": "bool",
							"name": "",
							"type": "bool"
						}
					],
					"stateMutability": "view",
					"type": "function"
				},
				{
					"inputs": [],
					"name": "migrationThreshold",
					"outputs": [
						{
							"internalType": "uint256",
							"name": "",
							"type": "uint256"
						}
					],
					"stateMutability": "view",
					"type": "function"
				},
				{
					"inputs": [],
					"name": "migrator",
					"outputs": [
						{
							"internalType": "address",
							"name": "",
							"type": "address"
						}
					],
					"stateMutability": "view",
					"type": "function"
				},
				{
					"inputs": [],
					"name": "reserve0",
					"outputs": [
						{
							"internalType": "uint256",
							"name": "",
							"type": "uint256"
						}
					],
					"stateMutability": "view",
					"type": "function"
				},
				{
					"inputs": [],
					"name": "reserve1",
					"outputs": [
						{
							"internalType": "uint256",
							"name": "",
							"type": "uint256"
						}
					],
					"stateMutability": "view",
					"type": "function"
				},
				{
					"inputs": [],
					"name": "sellTax",
					"outputs": [
						{
							"internalType": "uint256",
							"name": "",
							"type": "uint256"
						}
					],
					"stateMutability": "view",
					"type": "function"
				},
				{
					"inputs": [
						{
							"internalType": "uint256",
							"name": "amountIn",
							"type": "uint256"
						}
					],
					"name": "sellToken",
					"outputs": [
						{
							"internalType": "uint256",
							"name": "amountOut",
							"type": "uint256"
						}
					],
					"stateMutability": "nonpayable",
					"type": "function"
				},
				{
					"inputs": [
						{
							"internalType": "address",
							"name": "_initializer",
							"type": "address"
						}
					],
					"name": "setAlgebraPoolInitializer",
					"outputs": [],
					"stateMutability": "nonpayable",
					"type": "function"
				},
				{
					"inputs": [
						{
							"internalType": "bool",
							"name": "enable",
							"type": "bool"
						}
					],
					"name": "toggleAutoMigration",
					"outputs": [],
					"stateMutability": "nonpayable",
					"type": "function"
				},
				{
					"inputs": [],
					"name": "token0",
					"outputs": [
						{
							"internalType": "address",
							"name": "",
							"type": "address"
						}
					],
					"stateMutability": "view",
					"type": "function"
				},
				{
					"inputs": [],
					"name": "tokenFactory",
					"outputs": [
						{
							"internalType": "address",
							"name": "",
							"type": "address"
						}
					],
					"stateMutability": "view",
					"type": "function"
				},
				{
					"inputs": [
						{
							"internalType": "uint256",
							"name": "newBuyTax",
							"type": "uint256"
						}
					],
					"name": "updateBuyTax",
					"outputs": [],
					"stateMutability": "nonpayable",
					"type": "function"
				},
				{
					"inputs": [
						{
							"internalType": "uint256",
							"name": "newThreshold",
							"type": "uint256"
						}
					],
					"name": "updateMigrationThreshold",
					"outputs": [],
					"stateMutability": "nonpayable",
					"type": "function"
				},
				{
					"inputs": [
						{
							"internalType": "uint256",
							"name": "newSellTax",
							"type": "uint256"
						}
					],
					"name": "updateSellTax",
					"outputs": [],
					"stateMutability": "nonpayable",
					"type": "function"
				}
			],
			"devdoc": {
				"errors": {
					"ReentrancyGuardReentrantCall()": [
						{
							"details": "Unauthorized reentrant call."
						}
					]
				},
				"kind": "dev",
				"methods": {},
				"version": 1
			},
			"evm": {
				"assembly": "    /* \"contracts/token factory/LiquidityPool.sol\":669:11581  contract LiquidityPool is ReentrancyGuard {... */\n  mstore(0x40, 0x80)\n    /* \"contracts/token factory/LiquidityPool.sol\":1610:1649  bool public autoMigrationEnabled = true */\n  0x0b\n  dup1\n  sload\n  not(0xff00)\n  and\n  0x0100\n  or\n  swap1\n  sstore\n    /* \"contracts/token factory/LiquidityPool.sol\":2868:3322  constructor(address _devAddress, address _tokenFactory, uint256 _initialMigrationThreshold) {... */\n  callvalue\n  dup1\n  iszero\n  tag_1\n  jumpi\n  0x00\n  dup1\n  revert\ntag_1:\n  pop\n  mload(0x40)\n  sub(codesize, bytecodeSize)\n  dup1\n  bytecodeSize\n  dup4\n  codecopy\n  dup2\n  add\n  0x40\n  dup2\n  swap1\n  mstore\n  tag_2\n  swap2\n  tag_3\n  jump\t// in\ntag_2:\n    /* \"@openzeppelin/contracts/utils/ReentrancyGuard.sol\":1857:1858  1 */\n  0x01\n    /* \"@openzeppelin/contracts/utils/ReentrancyGuard.sol\":2061:2068  _status */\n  0x00\n    /* \"@openzeppelin/contracts/utils/ReentrancyGuard.sol\":2061:2082  _status = NOT_ENTERED */\n  sstore\n  sub(shl(0xa0, 0x01), 0x01)\n    /* \"contracts/token factory/LiquidityPool.sol\":2978:3003  _devAddress != address(0) */\n  dup4\n  and\n    /* \"contracts/token factory/LiquidityPool.sol\":2970:3040  require(_devAddress != address(0), \"Developer address cannot be zero\") */\n  tag_8\n  jumpi\n  mload(0x40)\n  shl(0xe5, 0x461bcd)\n  dup2\n  mstore\n    /* \"#utility.yul\":757:759   */\n  0x20\n    /* \"contracts/token factory/LiquidityPool.sol\":2970:3040  require(_devAddress != address(0), \"Developer address cannot be zero\") */\n  0x04\n  dup3\n  add\n    /* \"#utility.yul\":739:760   */\n  dup2\n  swap1\n  mstore\n    /* \"#utility.yul\":776:794   */\n  0x24\n  dup3\n  add\n    /* \"#utility.yul\":769:799   */\n  mstore\n    /* \"#utility.yul\":835:869   */\n  0x446576656c6f70657220616464726573732063616e6e6f74206265207a65726f\n    /* \"#utility.yul\":815:833   */\n  0x44\n  dup3\n  add\n    /* \"#utility.yul\":808:870   */\n  mstore\n    /* \"#utility.yul\":887:905   */\n  0x64\n  add\n    /* \"contracts/token factory/LiquidityPool.sol\":2970:3040  require(_devAddress != address(0), \"Developer address cannot be zero\") */\ntag_9:\n  mload(0x40)\n  dup1\n  swap2\n  sub\n  swap1\n  revert\ntag_8:\n  sub(shl(0xa0, 0x01), 0x01)\n    /* \"contracts/token factory/LiquidityPool.sol\":3058:3085  _tokenFactory != address(0) */\n  dup3\n  and\n    /* \"contracts/token factory/LiquidityPool.sol\":3050:3125  require(_tokenFactory != address(0), \"TokenFactory address cannot be zero\") */\n  tag_11\n  jumpi\n  mload(0x40)\n  shl(0xe5, 0x461bcd)\n  dup2\n  mstore\n    /* \"#utility.yul\":1118:1120   */\n  0x20\n    /* \"contracts/token factory/LiquidityPool.sol\":3050:3125  require(_tokenFactory != address(0), \"TokenFactory address cannot be zero\") */\n  0x04\n  dup3\n  add\n    /* \"#utility.yul\":1100:1121   */\n  mstore\n    /* \"#utility.yul\":1157:1159   */\n  0x23\n    /* \"#utility.yul\":1137:1155   */\n  0x24\n  dup3\n  add\n    /* \"#utility.yul\":1130:1160   */\n  mstore\n    /* \"#utility.yul\":1196:1230   */\n  0x546f6b656e466163746f727920616464726573732063616e6e6f74206265207a\n    /* \"#utility.yul\":1176:1194   */\n  0x44\n  dup3\n  add\n    /* \"#utility.yul\":1169:1231   */\n  mstore\n  shl(0xe8, 0x65726f)\n    /* \"#utility.yul\":1247:1265   */\n  0x64\n  dup3\n  add\n    /* \"#utility.yul\":1240:1273   */\n  mstore\n    /* \"#utility.yul\":1290:1309   */\n  0x84\n  add\n    /* \"contracts/token factory/LiquidityPool.sol\":3050:3125  require(_tokenFactory != address(0), \"TokenFactory address cannot be zero\") */\n  tag_9\n    /* \"#utility.yul\":916:1315   */\n  jump\n    /* \"contracts/token factory/LiquidityPool.sol\":3050:3125  require(_tokenFactory != address(0), \"TokenFactory address cannot be zero\") */\ntag_11:\n    /* \"contracts/token factory/LiquidityPool.sol\":3135:3145  devAddress */\n  0x03\n    /* \"contracts/token factory/LiquidityPool.sol\":3135:3159  devAddress = _devAddress */\n  dup1\n  sload\n  sub(shl(0xa0, 0x01), 0x01)\n  swap5\n  dup6\n  and\n  not(sub(shl(0xa0, 0x01), 0x01))\n  swap2\n  dup3\n  and\n  or\n  swap1\n  swap2\n  sstore\n    /* \"contracts/token factory/LiquidityPool.sol\":3169:3181  tokenFactory */\n  0x02\n    /* \"contracts/token factory/LiquidityPool.sol\":3169:3197  tokenFactory = _tokenFactory */\n  dup1\n  sload\n  swap4\n  swap1\n  swap5\n  and\n  swap3\n  and\n  swap2\n  swap1\n  swap2\n  or\n  swap1\n  swap2\n  sstore\n    /* \"contracts/token factory/LiquidityPool.sol\":3207:3225  migrationThreshold */\n  0x0c\n    /* \"contracts/token factory/LiquidityPool.sol\":3207:3254  migrationThreshold = _initialMigrationThreshold */\n  sstore\n    /* \"contracts/token factory/LiquidityPool.sol\":3264:3284  autoMigrationEnabled */\n  0x0b\n    /* \"contracts/token factory/LiquidityPool.sol\":3264:3292  autoMigrationEnabled = false */\n  dup1\n  sload\n  not(0xff00)\n  and\n  swap1\n  sstore\n    /* \"contracts/token factory/LiquidityPool.sol\":669:11581  contract LiquidityPool is ReentrancyGuard {... */\n  jump(tag_16)\n    /* \"#utility.yul\":14:191   */\ntag_15:\n    /* \"#utility.yul\":93:106   */\n  dup1\n  mload\n  sub(shl(0xa0, 0x01), 0x01)\n    /* \"#utility.yul\":135:166   */\n  dup2\n  and\n    /* \"#utility.yul\":125:167   */\n  dup2\n  eq\n    /* \"#utility.yul\":115:185   */\n  tag_18\n  jumpi\n    /* \"#utility.yul\":181:182   */\n  0x00\n    /* \"#utility.yul\":178:179   */\n  dup1\n    /* \"#utility.yul\":171:183   */\n  revert\n    /* \"#utility.yul\":115:185   */\ntag_18:\n    /* \"#utility.yul\":14:191   */\n  swap2\n  swap1\n  pop\n  jump\t// out\n    /* \"#utility.yul\":196:550   */\ntag_3:\n    /* \"#utility.yul\":284:290   */\n  0x00\n    /* \"#utility.yul\":292:298   */\n  dup1\n    /* \"#utility.yul\":300:306   */\n  0x00\n    /* \"#utility.yul\":353:355   */\n  0x60\n    /* \"#utility.yul\":341:350   */\n  dup5\n    /* \"#utility.yul\":332:339   */\n  dup7\n    /* \"#utility.yul\":328:351   */\n  sub\n    /* \"#utility.yul\":324:356   */\n  slt\n    /* \"#utility.yul\":321:373   */\n  iszero\n  tag_20\n  jumpi\n    /* \"#utility.yul\":369:370   */\n  0x00\n    /* \"#utility.yul\":366:367   */\n  dup1\n    /* \"#utility.yul\":359:371   */\n  revert\n    /* \"#utility.yul\":321:373   */\ntag_20:\n    /* \"#utility.yul\":392:432   */\n  tag_21\n    /* \"#utility.yul\":422:431   */\n  dup5\n    /* \"#utility.yul\":392:432   */\n  tag_15\n  jump\t// in\ntag_21:\n    /* \"#utility.yul\":382:432   */\n  swap3\n  pop\n    /* \"#utility.yul\":451:500   */\n  tag_22\n    /* \"#utility.yul\":496:498   */\n  0x20\n    /* \"#utility.yul\":485:494   */\n  dup6\n    /* \"#utility.yul\":481:499   */\n  add\n    /* \"#utility.yul\":451:500   */\n  tag_15\n  jump\t// in\ntag_22:\n    /* \"#utility.yul\":441:500   */\n  swap2\n  pop\n    /* \"#utility.yul\":540:542   */\n  0x40\n    /* \"#utility.yul\":529:538   */\n  dup5\n    /* \"#utility.yul\":525:543   */\n  add\n    /* \"#utility.yul\":519:544   */\n  mload\n    /* \"#utility.yul\":509:544   */\n  swap1\n  pop\n    /* \"#utility.yul\":196:550   */\n  swap3\n  pop\n  swap3\n  pop\n  swap3\n  jump\t// out\n    /* \"#utility.yul\":916:1315   */\ntag_16:\n    /* \"contracts/token factory/LiquidityPool.sol\":669:11581  contract LiquidityPool is ReentrancyGuard {... */\n  dataSize(sub_0)\n  dup1\n  dataOffset(sub_0)\n  0x00\n  codecopy\n  0x00\n  return\nstop\n\nsub_0: assembly {\n        /* \"contracts/token factory/LiquidityPool.sol\":669:11581  contract LiquidityPool is ReentrancyGuard {... */\n      mstore(0x40, 0x80)\n      jumpi(tag_1, lt(calldatasize, 0x04))\n      shr(0xe0, calldataload(0x00))\n      dup1\n      0x5a76f25e\n      gt\n      tag_30\n      jumpi\n      dup1\n      0xa000bf4f\n      gt\n      tag_31\n      jumpi\n      dup1\n      0xc98a0aa8\n      gt\n      tag_32\n      jumpi\n      dup1\n      0xc98a0aa8\n      eq\n      tag_26\n      jumpi\n      dup1\n      0xc98b7fd2\n      eq\n      tag_27\n      jumpi\n      dup1\n      0xcc1776d3\n      eq\n      tag_28\n      jumpi\n      dup1\n      0xe77772fe\n      eq\n      tag_29\n      jumpi\n      0x00\n      dup1\n      revert\n    tag_32:\n      dup1\n      0xa000bf4f\n      eq\n      tag_23\n      jumpi\n      dup1\n      0xa4821719\n      eq\n      tag_24\n      jumpi\n      dup1\n      0xafd6b3c1\n      eq\n      tag_25\n      jumpi\n      0x00\n      dup1\n      revert\n    tag_31:\n      dup1\n      0x8d5f17aa\n      gt\n      tag_33\n      jumpi\n      dup1\n      0x8d5f17aa\n      eq\n      tag_19\n      jumpi\n      dup1\n      0x90bc1e85\n      eq\n      tag_20\n      jumpi\n      dup1\n      0x96343fd5\n      eq\n      tag_21\n      jumpi\n      dup1\n      0x9ed7ef4e\n      eq\n      tag_22\n      jumpi\n      0x00\n      dup1\n      revert\n    tag_33:\n      dup1\n      0x5a76f25e\n      eq\n      tag_16\n      jumpi\n      dup1\n      0x60c72883\n      eq\n      tag_17\n      jumpi\n      dup1\n      0x7cd07e47\n      eq\n      tag_18\n      jumpi\n      0x00\n      dup1\n      revert\n    tag_30:\n      dup1\n      0x2182ad88\n      gt\n      tag_34\n      jumpi\n      dup1\n      0x3ad10ef6\n      gt\n      tag_35\n      jumpi\n      dup1\n      0x3ad10ef6\n      eq\n      tag_12\n      jumpi\n      dup1\n      0x436d3340\n      eq\n      tag_13\n      jumpi\n      dup1\n      0x443cb4bc\n      eq\n      tag_14\n      jumpi\n      dup1\n      0x4f7041a5\n      eq\n      tag_15\n      jumpi\n      0x00\n      dup1\n      revert\n    tag_35:\n      dup1\n      0x2182ad88\n      eq\n      tag_9\n      jumpi\n      dup1\n      0x2397e4d7\n      eq\n      tag_10\n      jumpi\n      dup1\n      0x299ce7b2\n      eq\n      tag_11\n      jumpi\n      0x00\n      dup1\n      revert\n    tag_34:\n      dup1\n      0x0902f1ac\n      gt\n      tag_36\n      jumpi\n      dup1\n      0x0902f1ac\n      eq\n      tag_5\n      jumpi\n      dup1\n      0x0dfe1681\n      eq\n      tag_6\n      jumpi\n      dup1\n      0x0f0e7c8a\n      eq\n      tag_7\n      jumpi\n      dup1\n      0x12185a39\n      eq\n      tag_8\n      jumpi\n      0x00\n      dup1\n      revert\n    tag_36:\n      dup1\n      0x04c80c82\n      eq\n      tag_2\n      jumpi\n      dup1\n      0x04ccde37\n      eq\n      tag_3\n      jumpi\n      dup1\n      0x077672df\n      eq\n      tag_4\n      jumpi\n    tag_1:\n      0x00\n      dup1\n      revert\n        /* \"contracts/token factory/LiquidityPool.sol\":790:857  uint256 public constant X_DELTA_UPPER = 257627658726993462773682809 */\n    tag_2:\n      callvalue\n      dup1\n      iszero\n      tag_37\n      jumpi\n      0x00\n      dup1\n      revert\n    tag_37:\n      pop\n      tag_38\n        /* \"contracts/token factory/LiquidityPool.sol\":830:857  257627658726993462773682809 */\n      0xd51ac75d3cbca700901279\n        /* \"contracts/token factory/LiquidityPool.sol\":790:857  uint256 public constant X_DELTA_UPPER = 257627658726993462773682809 */\n      dup2\n      jump\n    tag_38:\n      mload(0x40)\n        /* \"#utility.yul\":160:185   */\n      swap1\n      dup2\n      mstore\n        /* \"#utility.yul\":148:150   */\n      0x20\n        /* \"#utility.yul\":133:151   */\n      add\n        /* \"contracts/token factory/LiquidityPool.sol\":790:857  uint256 public constant X_DELTA_UPPER = 257627658726993462773682809 */\n    tag_40:\n      mload(0x40)\n      dup1\n      swap2\n      sub\n      swap1\n      return\n        /* \"contracts/token factory/LiquidityPool.sol\":3970:4243  function setAlgebraPoolInitializer(address _initializer) external onlyFactory {... */\n    tag_3:\n      callvalue\n      dup1\n      iszero\n      tag_42\n      jumpi\n      0x00\n      dup1\n      revert\n    tag_42:\n      pop\n      tag_43\n      tag_44\n      calldatasize\n      0x04\n      tag_45\n      jump\t// in\n    tag_44:\n      tag_46\n      jump\t// in\n    tag_43:\n      stop\n        /* \"contracts/token factory/LiquidityPool.sol\":1266:1299  address public algebraPoolAddress */\n    tag_4:\n      callvalue\n      dup1\n      iszero\n      tag_47\n      jumpi\n      0x00\n      dup1\n      revert\n    tag_47:\n      pop\n      sload(0x06)\n      tag_48\n      swap1\n      sub(shl(0xa0, 0x01), 0x01)\n      and\n      dup2\n      jump\n    tag_48:\n      mload(0x40)\n      sub(shl(0xa0, 0x01), 0x01)\n        /* \"#utility.yul\":748:780   */\n      swap1\n      swap2\n      and\n        /* \"#utility.yul\":730:781   */\n      dup2\n      mstore\n        /* \"#utility.yul\":718:720   */\n      0x20\n        /* \"#utility.yul\":703:721   */\n      add\n        /* \"contracts/token factory/LiquidityPool.sol\":1266:1299  address public algebraPoolAddress */\n      tag_40\n        /* \"#utility.yul\":584:787   */\n      jump\n        /* \"contracts/token factory/LiquidityPool.sol\":10438:10546  function getReserves() external view returns (uint256, uint256) {... */\n    tag_5:\n      callvalue\n      dup1\n      iszero\n      tag_52\n      jumpi\n      0x00\n      dup1\n      revert\n    tag_52:\n      pop\n        /* \"contracts/token factory/LiquidityPool.sol\":10520:10528  reserve0 */\n      sload(0x07)\n        /* \"contracts/token factory/LiquidityPool.sol\":10530:10538  reserve1 */\n      sload(0x08)\n        /* \"contracts/token factory/LiquidityPool.sol\":10438:10546  function getReserves() external view returns (uint256, uint256) {... */\n      0x40\n      dup1\n      mload\n        /* \"#utility.yul\":966:991   */\n      swap3\n      dup4\n      mstore\n        /* \"#utility.yul\":1022:1024   */\n      0x20\n        /* \"#utility.yul\":1007:1025   */\n      dup4\n      add\n        /* \"#utility.yul\":1000:1034   */\n      swap2\n      swap1\n      swap2\n      mstore\n        /* \"#utility.yul\":939:957   */\n      add\n        /* \"contracts/token factory/LiquidityPool.sol\":10438:10546  function getReserves() external view returns (uint256, uint256) {... */\n      tag_40\n        /* \"#utility.yul\":792:1040   */\n      jump\n        /* \"contracts/token factory/LiquidityPool.sol\":990:1011  address public token0 */\n    tag_6:\n      callvalue\n      dup1\n      iszero\n      tag_57\n      jumpi\n      0x00\n      dup1\n      revert\n    tag_57:\n      pop\n      sload(0x01)\n      tag_48\n      swap1\n      sub(shl(0xa0, 0x01), 0x01)\n      and\n      dup2\n      jump\n        /* \"contracts/token factory/LiquidityPool.sol\":717:784  uint256 public constant X_DELTA_LOWER = 257627658726967931872702964 */\n    tag_7:\n      callvalue\n      dup1\n      iszero\n      tag_61\n      jumpi\n      0x00\n      dup1\n      revert\n    tag_61:\n      pop\n      tag_38\n        /* \"contracts/token factory/LiquidityPool.sol\":757:784  257627658726967931872702964 */\n      0xd51ac75d3ca56ea04771f4\n        /* \"contracts/token factory/LiquidityPool.sol\":717:784  uint256 public constant X_DELTA_LOWER = 257627658726967931872702964 */\n      dup2\n      jump\n        /* \"contracts/token factory/LiquidityPool.sol\":10700:10846  function updateSellTax(uint256 newSellTax) external onlyFactory {... */\n    tag_8:\n      callvalue\n      dup1\n      iszero\n      tag_65\n      jumpi\n      0x00\n      dup1\n      revert\n    tag_65:\n      pop\n      tag_43\n      tag_67\n      calldatasize\n      0x04\n      tag_68\n      jump\t// in\n    tag_67:\n      tag_69\n      jump\t// in\n        /* \"contracts/token factory/LiquidityPool.sol\":926:983  uint256 public constant Y_DELTA_UPPER = 31864892854294116 */\n    tag_9:\n      callvalue\n      dup1\n      iszero\n      tag_70\n      jumpi\n      0x00\n      dup1\n      revert\n    tag_70:\n      pop\n      tag_38\n        /* \"contracts/token factory/LiquidityPool.sol\":966:983  31864892854294116 */\n      0x7134f38362d664\n        /* \"contracts/token factory/LiquidityPool.sol\":926:983  uint256 public constant Y_DELTA_UPPER = 31864892854294116 */\n      dup2\n      jump\n        /* \"contracts/token factory/LiquidityPool.sol\":9165:10432  function sellToken(... */\n    tag_10:\n      callvalue\n      dup1\n      iszero\n      tag_74\n      jumpi\n      0x00\n      dup1\n      revert\n    tag_74:\n      pop\n      tag_38\n      tag_76\n      calldatasize\n      0x04\n      tag_68\n      jump\t// in\n    tag_76:\n      tag_77\n      jump\t// in\n        /* \"contracts/token factory/LiquidityPool.sol\":1531:1560  bool public migratedToAlgebra */\n    tag_11:\n      callvalue\n      dup1\n      iszero\n      tag_79\n      jumpi\n      0x00\n      dup1\n      revert\n    tag_79:\n      pop\n      sload(0x0b)\n      tag_80\n      swap1\n      0xff\n      and\n      dup2\n      jump\n    tag_80:\n      mload(0x40)\n        /* \"#utility.yul\":1441:1455   */\n      swap1\n      iszero\n        /* \"#utility.yul\":1434:1456   */\n      iszero\n        /* \"#utility.yul\":1416:1457   */\n      dup2\n      mstore\n        /* \"#utility.yul\":1404:1406   */\n      0x20\n        /* \"#utility.yul\":1389:1407   */\n      add\n        /* \"contracts/token factory/LiquidityPool.sol\":1531:1560  bool public migratedToAlgebra */\n      tag_40\n        /* \"#utility.yul\":1276:1463   */\n      jump\n        /* \"contracts/token factory/LiquidityPool.sol\":1097:1122  address public devAddress */\n    tag_12:\n      callvalue\n      dup1\n      iszero\n      tag_84\n      jumpi\n      0x00\n      dup1\n      revert\n    tag_84:\n      pop\n      sload(0x03)\n      tag_48\n      swap1\n      sub(shl(0xa0, 0x01), 0x01)\n      and\n      dup2\n      jump\n        /* \"contracts/token factory/LiquidityPool.sol\":10552:10694  function updateBuyTax(uint256 newBuyTax) external onlyFactory {... */\n    tag_13:\n      callvalue\n      dup1\n      iszero\n      tag_88\n      jumpi\n      0x00\n      dup1\n      revert\n    tag_88:\n      pop\n      tag_43\n      tag_90\n      calldatasize\n      0x04\n      tag_68\n      jump\t// in\n    tag_90:\n      tag_91\n      jump\t// in\n        /* \"contracts/token factory/LiquidityPool.sol\":1306:1329  uint256 public reserve0 */\n    tag_14:\n      callvalue\n      dup1\n      iszero\n      tag_92\n      jumpi\n      0x00\n      dup1\n      revert\n    tag_92:\n      pop\n      tag_38\n      sload(0x07)\n      dup2\n      jump\n        /* \"contracts/token factory/LiquidityPool.sol\":1422:1443  uint256 public buyTax */\n    tag_15:\n      callvalue\n      dup1\n      iszero\n      tag_96\n      jumpi\n      0x00\n      dup1\n      revert\n    tag_96:\n      pop\n      tag_38\n      sload(0x09)\n      dup2\n      jump\n        /* \"contracts/token factory/LiquidityPool.sol\":1352:1375  uint256 public reserve1 */\n    tag_16:\n      callvalue\n      dup1\n      iszero\n      tag_100\n      jumpi\n      0x00\n      dup1\n      revert\n    tag_100:\n      pop\n      tag_38\n      sload(0x08)\n      dup2\n      jump\n        /* \"contracts/token factory/LiquidityPool.sol\":863:920  uint256 public constant Y_DELTA_LOWER = 31864892854290958 */\n    tag_17:\n      callvalue\n      dup1\n      iszero\n      tag_104\n      jumpi\n      0x00\n      dup1\n      revert\n    tag_104:\n      pop\n      tag_38\n        /* \"contracts/token factory/LiquidityPool.sol\":903:920  31864892854290958 */\n      0x7134f38362ca0e\n        /* \"contracts/token factory/LiquidityPool.sol\":863:920  uint256 public constant Y_DELTA_LOWER = 31864892854290958 */\n      dup2\n      jump\n        /* \"contracts/token factory/LiquidityPool.sol\":1236:1259  address public migrator */\n    tag_18:\n      callvalue\n      dup1\n      iszero\n      tag_108\n      jumpi\n      0x00\n      dup1\n      revert\n    tag_108:\n      pop\n      sload(0x05)\n      tag_48\n      swap1\n      sub(shl(0xa0, 0x01), 0x01)\n      and\n      dup2\n      jump\n        /* \"contracts/token factory/LiquidityPool.sol\":1610:1649  bool public autoMigrationEnabled = true */\n    tag_19:\n      callvalue\n      dup1\n      iszero\n      tag_112\n      jumpi\n      0x00\n      dup1\n      revert\n    tag_112:\n      pop\n      sload(0x0b)\n      tag_80\n      swap1\n      0x0100\n      swap1\n      div\n      0xff\n      and\n      dup2\n      jump\n        /* \"contracts/token factory/LiquidityPool.sol\":1692:1725  uint256 public migrationThreshold */\n    tag_20:\n      callvalue\n      dup1\n      iszero\n      tag_116\n      jumpi\n      0x00\n      dup1\n      revert\n    tag_116:\n      pop\n      tag_38\n      sload(0x0c)\n      dup2\n      jump\n        /* \"contracts/token factory/LiquidityPool.sol\":4407:4662  function updateMigrationThreshold(uint256 newThreshold) external onlyFactory {... */\n    tag_21:\n      callvalue\n      dup1\n      iszero\n      tag_120\n      jumpi\n      0x00\n      dup1\n      revert\n    tag_120:\n      pop\n      tag_43\n      tag_122\n      calldatasize\n      0x04\n      tag_68\n      jump\t// in\n    tag_122:\n      tag_123\n      jump\t// in\n        /* \"contracts/token factory/LiquidityPool.sol\":3328:3964  function initialize(... */\n    tag_22:\n      tag_43\n      tag_125\n      calldatasize\n      0x04\n      tag_126\n      jump\t// in\n    tag_125:\n      tag_127\n      jump\t// in\n        /* \"contracts/token factory/LiquidityPool.sol\":10906:11328  function calculateSqrtPriceX96(uint256 amount0, uint256 amount1) public pure returns (uint160) {... */\n    tag_23:\n      callvalue\n      dup1\n      iszero\n      tag_128\n      jumpi\n      0x00\n      dup1\n      revert\n    tag_128:\n      pop\n      tag_48\n      tag_130\n      calldatasize\n      0x04\n      tag_131\n      jump\t// in\n    tag_130:\n      tag_132\n      jump\t// in\n        /* \"contracts/token factory/LiquidityPool.sol\":7414:9159  function buyToken()... */\n    tag_24:\n      tag_38\n      tag_136\n      jump\t// in\n        /* \"contracts/token factory/LiquidityPool.sol\":10851:10905  function forceMigration() external  {... */\n    tag_25:\n      callvalue\n      dup1\n      iszero\n      tag_138\n      jumpi\n      0x00\n      dup1\n      revert\n    tag_138:\n      pop\n      tag_43\n      tag_140\n      jump\t// in\n        /* \"contracts/token factory/LiquidityPool.sol\":4249:4401  function toggleAutoMigration(bool enable) external onlyFactory {... */\n    tag_26:\n      callvalue\n      dup1\n      iszero\n      tag_141\n      jumpi\n      0x00\n      dup1\n      revert\n    tag_141:\n      pop\n      tag_43\n      tag_143\n      calldatasize\n      0x04\n      tag_144\n      jump\t// in\n    tag_143:\n      tag_145\n      jump\t// in\n        /* \"contracts/token factory/LiquidityPool.sol\":1149:1186  address public algebraPoolInitializer */\n    tag_27:\n      callvalue\n      dup1\n      iszero\n      tag_146\n      jumpi\n      0x00\n      dup1\n      revert\n    tag_146:\n      pop\n      sload(0x04)\n      tag_48\n      swap1\n      sub(shl(0xa0, 0x01), 0x01)\n      and\n      dup2\n      jump\n        /* \"contracts/token factory/LiquidityPool.sol\":1475:1497  uint256 public sellTax */\n    tag_28:\n      callvalue\n      dup1\n      iszero\n      tag_150\n      jumpi\n      0x00\n      dup1\n      revert\n    tag_150:\n      pop\n      tag_38\n      sload(0x0a)\n      dup2\n      jump\n        /* \"contracts/token factory/LiquidityPool.sol\":1040:1067  address public tokenFactory */\n    tag_29:\n      callvalue\n      dup1\n      iszero\n      tag_154\n      jumpi\n      0x00\n      dup1\n      revert\n    tag_154:\n      pop\n      sload(0x02)\n      tag_48\n      swap1\n      sub(shl(0xa0, 0x01), 0x01)\n      and\n      dup2\n      jump\n        /* \"contracts/token factory/LiquidityPool.sol\":3970:4243  function setAlgebraPoolInitializer(address _initializer) external onlyFactory {... */\n    tag_46:\n        /* \"contracts/token factory/LiquidityPool.sol\":2797:2809  tokenFactory */\n      and(sub(shl(0xa0, 0x01), 0x01), sload(0x02))\n        /* \"contracts/token factory/LiquidityPool.sol\":2783:2793  msg.sender */\n      caller\n        /* \"contracts/token factory/LiquidityPool.sol\":2783:2809  msg.sender == tokenFactory */\n      eq\n        /* \"contracts/token factory/LiquidityPool.sol\":2775:2844  require(msg.sender == tokenFactory, \"Caller is not the TokenFactory\") */\n      tag_159\n      jumpi\n      mload(0x40)\n      shl(0xe5, 0x461bcd)\n      dup2\n      mstore\n      0x04\n      add\n      tag_160\n      swap1\n      tag_161\n      jump\t// in\n    tag_160:\n      mload(0x40)\n      dup1\n      swap2\n      sub\n      swap1\n      revert\n    tag_159:\n      sub(shl(0xa0, 0x01), 0x01)\n        /* \"contracts/token factory/LiquidityPool.sol\":4066:4092  _initializer != address(0) */\n      dup2\n      and\n        /* \"contracts/token factory/LiquidityPool.sol\":4058:4131  require(_initializer != address(0), \"Initializer address cannot be zero\") */\n      tag_163\n      jumpi\n      mload(0x40)\n      shl(0xe5, 0x461bcd)\n      dup2\n      mstore\n        /* \"#utility.yul\":3848:3850   */\n      0x20\n        /* \"contracts/token factory/LiquidityPool.sol\":4058:4131  require(_initializer != address(0), \"Initializer address cannot be zero\") */\n      0x04\n      dup3\n      add\n        /* \"#utility.yul\":3830:3851   */\n      mstore\n        /* \"#utility.yul\":3887:3889   */\n      0x22\n        /* \"#utility.yul\":3867:3885   */\n      0x24\n      dup3\n      add\n        /* \"#utility.yul\":3860:3890   */\n      mstore\n        /* \"#utility.yul\":3926:3960   */\n      0x496e697469616c697a657220616464726573732063616e6e6f74206265207a65\n        /* \"#utility.yul\":3906:3924   */\n      0x44\n      dup3\n      add\n        /* \"#utility.yul\":3899:3961   */\n      mstore\n      shl(0xf0, 0x726f)\n        /* \"#utility.yul\":3977:3995   */\n      0x64\n      dup3\n      add\n        /* \"#utility.yul\":3970:4002   */\n      mstore\n        /* \"#utility.yul\":4019:4038   */\n      0x84\n      add\n        /* \"contracts/token factory/LiquidityPool.sol\":4058:4131  require(_initializer != address(0), \"Initializer address cannot be zero\") */\n      tag_160\n        /* \"#utility.yul\":3646:4044   */\n      jump\n        /* \"contracts/token factory/LiquidityPool.sol\":4058:4131  require(_initializer != address(0), \"Initializer address cannot be zero\") */\n    tag_163:\n        /* \"contracts/token factory/LiquidityPool.sol\":4141:4163  algebraPoolInitializer */\n      0x04\n        /* \"contracts/token factory/LiquidityPool.sol\":4141:4178  algebraPoolInitializer = _initializer */\n      dup1\n      sload\n      not(sub(shl(0xa0, 0x01), 0x01))\n      and\n      sub(shl(0xa0, 0x01), 0x01)\n      dup4\n      and\n      swap1\n      dup2\n      or\n      swap1\n      swap2\n      sstore\n        /* \"contracts/token factory/LiquidityPool.sol\":4193:4236  AlgebraPoolInitializerUpdated(_initializer) */\n      mload(0x40)\n      0xe6223ef4a6cc26f11671126040eb90609754df785e229f9fc28e9612ca3380bc\n      swap1\n      0x00\n      swap1\n      log2\n        /* \"contracts/token factory/LiquidityPool.sol\":3970:4243  function setAlgebraPoolInitializer(address _initializer) external onlyFactory {... */\n      pop\n      jump\t// out\n        /* \"contracts/token factory/LiquidityPool.sol\":10700:10846  function updateSellTax(uint256 newSellTax) external onlyFactory {... */\n    tag_69:\n        /* \"contracts/token factory/LiquidityPool.sol\":2797:2809  tokenFactory */\n      and(sub(shl(0xa0, 0x01), 0x01), sload(0x02))\n        /* \"contracts/token factory/LiquidityPool.sol\":2783:2793  msg.sender */\n      caller\n        /* \"contracts/token factory/LiquidityPool.sol\":2783:2809  msg.sender == tokenFactory */\n      eq\n        /* \"contracts/token factory/LiquidityPool.sol\":2775:2844  require(msg.sender == tokenFactory, \"Caller is not the TokenFactory\") */\n      tag_168\n      jumpi\n      mload(0x40)\n      shl(0xe5, 0x461bcd)\n      dup2\n      mstore\n      0x04\n      add\n      tag_160\n      swap1\n      tag_161\n      jump\t// in\n    tag_168:\n        /* \"contracts/token factory/LiquidityPool.sol\":10774:10781  sellTax */\n      0x0a\n        /* \"contracts/token factory/LiquidityPool.sol\":10774:10794  sellTax = newSellTax */\n      dup2\n      swap1\n      sstore\n        /* \"contracts/token factory/LiquidityPool.sol\":10820:10826  buyTax */\n      sload(0x09)\n        /* \"contracts/token factory/LiquidityPool.sol\":10809:10839  TaxUpdated(buyTax, newSellTax) */\n      0x40\n      dup1\n      mload\n        /* \"#utility.yul\":966:991   */\n      swap2\n      dup3\n      mstore\n        /* \"#utility.yul\":1022:1024   */\n      0x20\n        /* \"#utility.yul\":1007:1025   */\n      dup3\n      add\n        /* \"#utility.yul\":1000:1034   */\n      dup4\n      swap1\n      mstore\n        /* \"contracts/token factory/LiquidityPool.sol\":10809:10839  TaxUpdated(buyTax, newSellTax) */\n      0xb841faf0d1b32571f4ef966a2f35e3ae51f3cdda45318c3da5570a5b2ad85605\n      swap2\n        /* \"#utility.yul\":939:957   */\n      add\n        /* \"contracts/token factory/LiquidityPool.sol\":10809:10839  TaxUpdated(buyTax, newSellTax) */\n    tag_171:\n      mload(0x40)\n      dup1\n      swap2\n      sub\n      swap1\n      log1\n        /* \"contracts/token factory/LiquidityPool.sol\":10700:10846  function updateSellTax(uint256 newSellTax) external onlyFactory {... */\n      pop\n      jump\t// out\n        /* \"contracts/token factory/LiquidityPool.sol\":9165:10432  function sellToken(... */\n    tag_77:\n        /* \"contracts/token factory/LiquidityPool.sol\":9247:9264  uint256 amountOut */\n      0x00\n        /* \"@openzeppelin/contracts/utils/ReentrancyGuard.sol\":2500:2521  _nonReentrantBefore() */\n      tag_173\n        /* \"@openzeppelin/contracts/utils/ReentrancyGuard.sol\":2500:2519  _nonReentrantBefore */\n      tag_174\n        /* \"@openzeppelin/contracts/utils/ReentrancyGuard.sol\":2500:2521  _nonReentrantBefore() */\n      jump\t// in\n    tag_173:\n        /* \"contracts/token factory/LiquidityPool.sol\":9295:9296  0 */\n      0x00\n        /* \"contracts/token factory/LiquidityPool.sol\":9284:9292  amountIn */\n      dup3\n        /* \"contracts/token factory/LiquidityPool.sol\":9284:9296  amountIn > 0 */\n      gt\n        /* \"contracts/token factory/LiquidityPool.sol\":9276:9322  require(amountIn > 0, \"Must sell some tokens\") */\n      tag_176\n      jumpi\n      mload(0x40)\n      shl(0xe5, 0x461bcd)\n      dup2\n      mstore\n        /* \"#utility.yul\":4251:4253   */\n      0x20\n        /* \"contracts/token factory/LiquidityPool.sol\":9276:9322  require(amountIn > 0, \"Must sell some tokens\") */\n      0x04\n      dup3\n      add\n        /* \"#utility.yul\":4233:4254   */\n      mstore\n        /* \"#utility.yul\":4290:4292   */\n      0x15\n        /* \"#utility.yul\":4270:4288   */\n      0x24\n      dup3\n      add\n        /* \"#utility.yul\":4263:4293   */\n      mstore\n      shl(0x58, 0x4d7573742073656c6c20736f6d6520746f6b656e73)\n        /* \"#utility.yul\":4309:4327   */\n      0x44\n      dup3\n      add\n        /* \"#utility.yul\":4302:4353   */\n      mstore\n        /* \"#utility.yul\":4370:4388   */\n      0x64\n      add\n        /* \"contracts/token factory/LiquidityPool.sol\":9276:9322  require(amountIn > 0, \"Must sell some tokens\") */\n      tag_160\n        /* \"#utility.yul\":4049:4394   */\n      jump\n        /* \"contracts/token factory/LiquidityPool.sol\":9276:9322  require(amountIn > 0, \"Must sell some tokens\") */\n    tag_176:\n        /* \"contracts/token factory/LiquidityPool.sol\":9341:9358  migratedToAlgebra */\n      and(0xff, sload(0x0b))\n        /* \"contracts/token factory/LiquidityPool.sol\":9340:9358  !migratedToAlgebra */\n      iszero\n        /* \"contracts/token factory/LiquidityPool.sol\":9332:9387  require(!migratedToAlgebra, \"Pool migrated to Algebra\") */\n      tag_179\n      jumpi\n      mload(0x40)\n      shl(0xe5, 0x461bcd)\n      dup2\n      mstore\n        /* \"#utility.yul\":4601:4603   */\n      0x20\n        /* \"contracts/token factory/LiquidityPool.sol\":9332:9387  require(!migratedToAlgebra, \"Pool migrated to Algebra\") */\n      0x04\n      dup3\n      add\n        /* \"#utility.yul\":4583:4604   */\n      mstore\n        /* \"#utility.yul\":4640:4642   */\n      0x18\n        /* \"#utility.yul\":4620:4638   */\n      0x24\n      dup3\n      add\n        /* \"#utility.yul\":4613:4643   */\n      mstore\n      shl(0x40, 0x506f6f6c206d6967726174656420746f20416c6765627261)\n        /* \"#utility.yul\":4659:4677   */\n      0x44\n      dup3\n      add\n        /* \"#utility.yul\":4652:4706   */\n      mstore\n        /* \"#utility.yul\":4723:4741   */\n      0x64\n      add\n        /* \"contracts/token factory/LiquidityPool.sol\":9332:9387  require(!migratedToAlgebra, \"Pool migrated to Algebra\") */\n      tag_160\n        /* \"#utility.yul\":4399:4747   */\n      jump\n        /* \"contracts/token factory/LiquidityPool.sol\":9332:9387  require(!migratedToAlgebra, \"Pool migrated to Algebra\") */\n    tag_179:\n        /* \"contracts/token factory/LiquidityPool.sol\":9398:9417  uint256 newReserve0 */\n      0x00\n        /* \"contracts/token factory/LiquidityPool.sol\":9431:9439  amountIn */\n      dup3\n        /* \"contracts/token factory/LiquidityPool.sol\":9420:9428  reserve0 */\n      sload(0x07)\n        /* \"contracts/token factory/LiquidityPool.sol\":9420:9439  reserve0 + amountIn */\n      tag_182\n      swap2\n      swap1\n      tag_183\n      jump\t// in\n    tag_182:\n        /* \"contracts/token factory/LiquidityPool.sol\":9398:9439  uint256 newReserve0 = reserve0 + amountIn */\n      swap1\n      pop\n        /* \"contracts/token factory/LiquidityPool.sol\":9449:9465  uint256 quotient */\n      0x00\n        /* \"contracts/token factory/LiquidityPool.sol\":9542:9569  newReserve0 + X_DELTA_UPPER */\n      tag_184\n        /* \"contracts/token factory/LiquidityPool.sol\":830:857  257627658726993462773682809 */\n      0xd51ac75d3cbca700901279\n        /* \"contracts/token factory/LiquidityPool.sol\":9398:9439  uint256 newReserve0 = reserve0 + amountIn */\n      dup4\n        /* \"contracts/token factory/LiquidityPool.sol\":9542:9569  newReserve0 + X_DELTA_UPPER */\n      tag_183\n      jump\t// in\n    tag_184:\n        /* \"contracts/token factory/LiquidityPool.sol\":966:983  31864892854294116 */\n      0x7134f38362d664\n        /* \"contracts/token factory/LiquidityPool.sol\":9499:9507  reserve1 */\n      sload(0x08)\n        /* \"contracts/token factory/LiquidityPool.sol\":9499:9523  reserve1 + Y_DELTA_UPPER */\n      tag_185\n      swap2\n      swap1\n      tag_183\n      jump\t// in\n    tag_185:\n        /* \"contracts/token factory/LiquidityPool.sol\":830:857  257627658726993462773682809 */\n      0xd51ac75d3cbca700901279\n        /* \"contracts/token factory/LiquidityPool.sol\":9470:9478  reserve0 */\n      sload(0x07)\n        /* \"contracts/token factory/LiquidityPool.sol\":9470:9494  reserve0 + X_DELTA_UPPER */\n      tag_186\n      swap2\n      swap1\n      tag_183\n      jump\t// in\n    tag_186:\n        /* \"contracts/token factory/LiquidityPool.sol\":9469:9524  (reserve0 + X_DELTA_UPPER) * (reserve1 + Y_DELTA_UPPER) */\n      tag_187\n      swap2\n      swap1\n      tag_188\n      jump\t// in\n    tag_187:\n        /* \"contracts/token factory/LiquidityPool.sol\":9468:9570  ((reserve0 + X_DELTA_UPPER) * (reserve1 + Y_DELTA_UPPER)) / ... */\n      tag_189\n      swap2\n      swap1\n      tag_190\n      jump\t// in\n    tag_189:\n        /* \"contracts/token factory/LiquidityPool.sol\":9449:9570  uint256 quotient = ((reserve0 + X_DELTA_UPPER) * (reserve1 + Y_DELTA_UPPER)) / ... */\n      swap1\n      pop\n        /* \"contracts/token factory/LiquidityPool.sol\":966:983  31864892854294116 */\n      0x7134f38362d664\n        /* \"contracts/token factory/LiquidityPool.sol\":9584:9592  quotient */\n      dup2\n        /* \"contracts/token factory/LiquidityPool.sol\":9584:9608  quotient < Y_DELTA_UPPER */\n      lt\n        /* \"contracts/token factory/LiquidityPool.sol\":9580:9659  if (quotient < Y_DELTA_UPPER) {... */\n      iszero\n      tag_191\n      jumpi\n      pop\n        /* \"contracts/token factory/LiquidityPool.sol\":966:983  31864892854294116 */\n      0x7134f38362d664\n        /* \"contracts/token factory/LiquidityPool.sol\":9580:9659  if (quotient < Y_DELTA_UPPER) {... */\n    tag_191:\n        /* \"contracts/token factory/LiquidityPool.sol\":9668:9687  uint256 newReserve1 */\n      0x00\n        /* \"contracts/token factory/LiquidityPool.sol\":9690:9714  quotient - Y_DELTA_UPPER */\n      tag_192\n        /* \"contracts/token factory/LiquidityPool.sol\":966:983  31864892854294116 */\n      0x7134f38362d664\n        /* \"contracts/token factory/LiquidityPool.sol\":9690:9698  quotient */\n      dup4\n        /* \"contracts/token factory/LiquidityPool.sol\":9690:9714  quotient - Y_DELTA_UPPER */\n      tag_193\n      jump\t// in\n    tag_192:\n        /* \"contracts/token factory/LiquidityPool.sol\":9668:9714  uint256 newReserve1 = quotient - Y_DELTA_UPPER */\n      swap1\n      pop\n        /* \"contracts/token factory/LiquidityPool.sol\":9750:9758  reserve1 */\n      sload(0x08)\n        /* \"contracts/token factory/LiquidityPool.sol\":9736:9747  newReserve1 */\n      dup2\n        /* \"contracts/token factory/LiquidityPool.sol\":9736:9758  newReserve1 > reserve1 */\n      gt\n        /* \"contracts/token factory/LiquidityPool.sol\":9736:9794  newReserve1 > reserve1 ? reserve1 : reserve1 - newReserve1 */\n      tag_194\n      jumpi\n        /* \"contracts/token factory/LiquidityPool.sol\":9783:9794  newReserve1 */\n      dup1\n        /* \"contracts/token factory/LiquidityPool.sol\":9772:9780  reserve1 */\n      sload(0x08)\n        /* \"contracts/token factory/LiquidityPool.sol\":9772:9794  reserve1 - newReserve1 */\n      tag_195\n      swap2\n      swap1\n      tag_193\n      jump\t// in\n    tag_195:\n        /* \"contracts/token factory/LiquidityPool.sol\":9736:9794  newReserve1 > reserve1 ? reserve1 : reserve1 - newReserve1 */\n      jump(tag_196)\n    tag_194:\n        /* \"contracts/token factory/LiquidityPool.sol\":9761:9769  reserve1 */\n      sload(0x08)\n        /* \"contracts/token factory/LiquidityPool.sol\":9736:9794  newReserve1 > reserve1 ? reserve1 : reserve1 - newReserve1 */\n    tag_196:\n        /* \"contracts/token factory/LiquidityPool.sol\":9724:9794  amountOut = newReserve1 > reserve1 ? reserve1 : reserve1 - newReserve1 */\n      swap4\n      pop\n        /* \"contracts/token factory/LiquidityPool.sol\":9816:9827  newReserve0 */\n      dup3\n        /* \"contracts/token factory/LiquidityPool.sol\":9805:9813  reserve0 */\n      0x07\n        /* \"contracts/token factory/LiquidityPool.sol\":9805:9827  reserve0 = newReserve0 */\n      dup2\n      swap1\n      sstore\n      pop\n        /* \"contracts/token factory/LiquidityPool.sol\":9849:9858  amountOut */\n      dup4\n        /* \"contracts/token factory/LiquidityPool.sol\":9837:9845  reserve1 */\n      0x08\n      0x00\n        /* \"contracts/token factory/LiquidityPool.sol\":9837:9858  reserve1 -= amountOut */\n      dup3\n      dup3\n      sload\n      tag_197\n      swap2\n      swap1\n      tag_193\n      jump\t// in\n    tag_197:\n      swap1\n      swap2\n      sstore\n      pop\n      pop\n        /* \"contracts/token factory/LiquidityPool.sol\":9959:9966  sellTax */\n      sload(0x0a)\n        /* \"contracts/token factory/LiquidityPool.sol\":9927:9943  uint256 etherTax */\n      0x00\n      swap1\n        /* \"contracts/token factory/LiquidityPool.sol\":9970:9974  1000 */\n      0x03e8\n      swap1\n        /* \"contracts/token factory/LiquidityPool.sol\":9947:9966  amountOut * sellTax */\n      tag_198\n      swap1\n        /* \"contracts/token factory/LiquidityPool.sol\":9947:9956  amountOut */\n      dup8\n        /* \"contracts/token factory/LiquidityPool.sol\":9947:9966  amountOut * sellTax */\n      tag_188\n      jump\t// in\n    tag_198:\n        /* \"contracts/token factory/LiquidityPool.sol\":9946:9974  (amountOut * sellTax) / 1000 */\n      tag_199\n      swap2\n      swap1\n      tag_190\n      jump\t// in\n    tag_199:\n        /* \"contracts/token factory/LiquidityPool.sol\":9927:9974  uint256 etherTax = (amountOut * sellTax) / 1000 */\n      swap1\n      pop\n        /* \"contracts/token factory/LiquidityPool.sol\":9984:10005  amountOut -= etherTax */\n      tag_200\n        /* \"contracts/token factory/LiquidityPool.sol\":9927:9974  uint256 etherTax = (amountOut * sellTax) / 1000 */\n      dup2\n        /* \"contracts/token factory/LiquidityPool.sol\":9984:10005  amountOut -= etherTax */\n      dup7\n      tag_193\n      jump\t// in\n    tag_200:\n        /* \"contracts/token factory/LiquidityPool.sol\":10035:10045  devAddress */\n      sload(0x03)\n        /* \"contracts/token factory/LiquidityPool.sol\":10035:10071  devAddress.call{value: etherTax}(\"\") */\n      mload(0x40)\n        /* \"contracts/token factory/LiquidityPool.sol\":9984:10005  amountOut -= etherTax */\n      swap2\n      swap7\n      pop\n        /* \"contracts/token factory/LiquidityPool.sol\":10017:10029  bool taxSent */\n      0x00\n      swap2\n      sub(shl(0xa0, 0x01), 0x01)\n        /* \"contracts/token factory/LiquidityPool.sol\":10035:10045  devAddress */\n      swap1\n      swap2\n      and\n      swap1\n        /* \"contracts/token factory/LiquidityPool.sol\":10058:10066  etherTax */\n      dup4\n      swap1\n        /* \"contracts/token factory/LiquidityPool.sol\":10017:10029  bool taxSent */\n      dup4\n        /* \"contracts/token factory/LiquidityPool.sol\":10035:10071  devAddress.call{value: etherTax}(\"\") */\n      dup2\n        /* \"contracts/token factory/LiquidityPool.sol\":10017:10029  bool taxSent */\n      dup2\n        /* \"contracts/token factory/LiquidityPool.sol\":10035:10071  devAddress.call{value: etherTax}(\"\") */\n      dup2\n        /* \"contracts/token factory/LiquidityPool.sol\":10058:10066  etherTax */\n      dup6\n        /* \"contracts/token factory/LiquidityPool.sol\":10035:10045  devAddress */\n      dup8\n        /* \"contracts/token factory/LiquidityPool.sol\":10035:10071  devAddress.call{value: etherTax}(\"\") */\n      gas\n      call\n      swap3\n      pop\n      pop\n      pop\n      returndatasize\n      dup1\n      0x00\n      dup2\n      eq\n      tag_205\n      jumpi\n      mload(0x40)\n      swap2\n      pop\n      and(add(returndatasize, 0x3f), not(0x1f))\n      dup3\n      add\n      0x40\n      mstore\n      returndatasize\n      dup3\n      mstore\n      returndatasize\n      0x00\n      0x20\n      dup5\n      add\n      returndatacopy\n      jump(tag_204)\n    tag_205:\n      0x60\n      swap2\n      pop\n    tag_204:\n      pop\n        /* \"contracts/token factory/LiquidityPool.sol\":10016:10071  (bool taxSent, ) = devAddress.call{value: etherTax}(\"\") */\n      pop\n      swap1\n      pop\n        /* \"contracts/token factory/LiquidityPool.sol\":10089:10096  taxSent */\n      dup1\n        /* \"contracts/token factory/LiquidityPool.sol\":10081:10124  require(taxSent, \"Failed to send sell tax\") */\n      tag_206\n      jumpi\n      mload(0x40)\n      shl(0xe5, 0x461bcd)\n      dup2\n      mstore\n        /* \"#utility.yul\":5954:5956   */\n      0x20\n        /* \"contracts/token factory/LiquidityPool.sol\":10081:10124  require(taxSent, \"Failed to send sell tax\") */\n      0x04\n      dup3\n      add\n        /* \"#utility.yul\":5936:5957   */\n      mstore\n        /* \"#utility.yul\":5993:5995   */\n      0x17\n        /* \"#utility.yul\":5973:5991   */\n      0x24\n      dup3\n      add\n        /* \"#utility.yul\":5966:5996   */\n      mstore\n        /* \"#utility.yul\":6032:6057   */\n      0x4661696c656420746f2073656e642073656c6c20746178000000000000000000\n        /* \"#utility.yul\":6012:6030   */\n      0x44\n      dup3\n      add\n        /* \"#utility.yul\":6005:6058   */\n      mstore\n        /* \"#utility.yul\":6075:6093   */\n      0x64\n      add\n        /* \"contracts/token factory/LiquidityPool.sol\":10081:10124  require(taxSent, \"Failed to send sell tax\") */\n      tag_160\n        /* \"#utility.yul\":5752:6099   */\n      jump\n        /* \"contracts/token factory/LiquidityPool.sol\":10081:10124  require(taxSent, \"Failed to send sell tax\") */\n    tag_206:\n        /* \"contracts/token factory/LiquidityPool.sol\":10151:10157  token0 */\n      sload(0x01)\n        /* \"contracts/token factory/LiquidityPool.sol\":10144:10208  IERC20(token0).transferFrom(msg.sender, address(this), amountIn) */\n      mload(0x40)\n      shl(0xe0, 0x23b872dd)\n      dup2\n      mstore\n        /* \"contracts/token factory/LiquidityPool.sol\":10172:10182  msg.sender */\n      caller\n        /* \"contracts/token factory/LiquidityPool.sol\":10144:10208  IERC20(token0).transferFrom(msg.sender, address(this), amountIn) */\n      0x04\n      dup3\n      add\n        /* \"#utility.yul\":6306:6357   */\n      mstore\n        /* \"contracts/token factory/LiquidityPool.sol\":10192:10196  this */\n      address\n        /* \"#utility.yul\":6373:6391   */\n      0x24\n      dup3\n      add\n        /* \"#utility.yul\":6366:6426   */\n      mstore\n        /* \"#utility.yul\":6442:6460   */\n      0x44\n      dup2\n      add\n        /* \"#utility.yul\":6435:6469   */\n      dup10\n      swap1\n      mstore\n      sub(shl(0xa0, 0x01), 0x01)\n        /* \"contracts/token factory/LiquidityPool.sol\":10151:10157  token0 */\n      swap1\n      swap2\n      and\n      swap1\n        /* \"contracts/token factory/LiquidityPool.sol\":10144:10171  IERC20(token0).transferFrom */\n      0x23b872dd\n      swap1\n        /* \"#utility.yul\":6279:6297   */\n      0x64\n      add\n        /* \"contracts/token factory/LiquidityPool.sol\":10144:10208  IERC20(token0).transferFrom(msg.sender, address(this), amountIn) */\n      0x20\n      mload(0x40)\n      dup1\n      dup4\n      sub\n      dup2\n      0x00\n      dup8\n      gas\n      call\n      iszero\n      dup1\n      iszero\n      tag_212\n      jumpi\n      returndatasize\n      0x00\n      dup1\n      returndatacopy\n      revert(0x00, returndatasize)\n    tag_212:\n      pop\n      pop\n      pop\n      pop\n      mload(0x40)\n      returndatasize\n      not(0x1f)\n      0x1f\n      dup3\n      add\n      and\n      dup3\n      add\n      dup1\n      0x40\n      mstore\n      pop\n      dup2\n      add\n      swap1\n      tag_213\n      swap2\n      swap1\n      tag_214\n      jump\t// in\n    tag_213:\n        /* \"contracts/token factory/LiquidityPool.sol\":10136:10241  require(IERC20(token0).transferFrom(msg.sender, address(this), amountIn), \"Failed to transfer tokens\"   ) */\n      tag_215\n      jumpi\n      mload(0x40)\n      shl(0xe5, 0x461bcd)\n      dup2\n      mstore\n        /* \"#utility.yul\":6932:6934   */\n      0x20\n        /* \"contracts/token factory/LiquidityPool.sol\":10136:10241  require(IERC20(token0).transferFrom(msg.sender, address(this), amountIn), \"Failed to transfer tokens\"   ) */\n      0x04\n      dup3\n      add\n        /* \"#utility.yul\":6914:6935   */\n      mstore\n        /* \"#utility.yul\":6971:6973   */\n      0x19\n        /* \"#utility.yul\":6951:6969   */\n      0x24\n      dup3\n      add\n        /* \"#utility.yul\":6944:6974   */\n      mstore\n      shl(0x38, 0x4661696c656420746f207472616e7366657220746f6b656e73)\n        /* \"#utility.yul\":6990:7008   */\n      0x44\n      dup3\n      add\n        /* \"#utility.yul\":6983:7038   */\n      mstore\n        /* \"#utility.yul\":7055:7073   */\n      0x64\n      add\n        /* \"contracts/token factory/LiquidityPool.sol\":10136:10241  require(IERC20(token0).transferFrom(msg.sender, address(this), amountIn), \"Failed to transfer tokens\"   ) */\n      tag_160\n        /* \"#utility.yul\":6730:7079   */\n      jump\n        /* \"contracts/token factory/LiquidityPool.sol\":10136:10241  require(IERC20(token0).transferFrom(msg.sender, address(this), amountIn), \"Failed to transfer tokens\"   ) */\n    tag_215:\n        /* \"contracts/token factory/LiquidityPool.sol\":10270:10307  msg.sender.call{value: amountOut}(\"\") */\n      mload(0x40)\n        /* \"contracts/token factory/LiquidityPool.sol\":10252:10264  bool success */\n      0x00\n      swap1\n        /* \"contracts/token factory/LiquidityPool.sol\":10270:10280  msg.sender */\n      caller\n      swap1\n        /* \"contracts/token factory/LiquidityPool.sol\":10293:10302  amountOut */\n      dup9\n      swap1\n        /* \"contracts/token factory/LiquidityPool.sol\":10252:10264  bool success */\n      dup4\n        /* \"contracts/token factory/LiquidityPool.sol\":10270:10307  msg.sender.call{value: amountOut}(\"\") */\n      dup2\n        /* \"contracts/token factory/LiquidityPool.sol\":10252:10264  bool success */\n      dup2\n        /* \"contracts/token factory/LiquidityPool.sol\":10270:10307  msg.sender.call{value: amountOut}(\"\") */\n      dup2\n        /* \"contracts/token factory/LiquidityPool.sol\":10293:10302  amountOut */\n      dup6\n        /* \"contracts/token factory/LiquidityPool.sol\":10270:10280  msg.sender */\n      dup8\n        /* \"contracts/token factory/LiquidityPool.sol\":10270:10307  msg.sender.call{value: amountOut}(\"\") */\n      gas\n      call\n      swap3\n      pop\n      pop\n      pop\n      returndatasize\n      dup1\n      0x00\n      dup2\n      eq\n      tag_221\n      jumpi\n      mload(0x40)\n      swap2\n      pop\n      and(add(returndatasize, 0x3f), not(0x1f))\n      dup3\n      add\n      0x40\n      mstore\n      returndatasize\n      dup3\n      mstore\n      returndatasize\n      0x00\n      0x20\n      dup5\n      add\n      returndatacopy\n      jump(tag_220)\n    tag_221:\n      0x60\n      swap2\n      pop\n    tag_220:\n      pop\n        /* \"contracts/token factory/LiquidityPool.sol\":10251:10307  (bool success, ) = msg.sender.call{value: amountOut}(\"\") */\n      pop\n      swap1\n      pop\n        /* \"contracts/token factory/LiquidityPool.sol\":10325:10332  success */\n      dup1\n        /* \"contracts/token factory/LiquidityPool.sol\":10317:10357  require(success, \"Failed to send ether\") */\n      tag_222\n      jumpi\n      mload(0x40)\n      shl(0xe5, 0x461bcd)\n      dup2\n      mstore\n        /* \"#utility.yul\":7286:7288   */\n      0x20\n        /* \"contracts/token factory/LiquidityPool.sol\":10317:10357  require(success, \"Failed to send ether\") */\n      0x04\n      dup3\n      add\n        /* \"#utility.yul\":7268:7289   */\n      mstore\n        /* \"#utility.yul\":7325:7327   */\n      0x14\n        /* \"#utility.yul\":7305:7323   */\n      0x24\n      dup3\n      add\n        /* \"#utility.yul\":7298:7328   */\n      mstore\n      shl(0x61, 0x2330b4b632b2103a379039b2b7321032ba3432b9)\n        /* \"#utility.yul\":7344:7362   */\n      0x44\n      dup3\n      add\n        /* \"#utility.yul\":7337:7387   */\n      mstore\n        /* \"#utility.yul\":7404:7422   */\n      0x64\n      add\n        /* \"contracts/token factory/LiquidityPool.sol\":10317:10357  require(success, \"Failed to send ether\") */\n      tag_160\n        /* \"#utility.yul\":7084:7428   */\n      jump\n        /* \"contracts/token factory/LiquidityPool.sol\":10317:10357  require(success, \"Failed to send ether\") */\n    tag_222:\n        /* \"contracts/token factory/LiquidityPool.sol\":10417:10424  sellTax */\n      sload(0x0a)\n        /* \"contracts/token factory/LiquidityPool.sol\":10373:10425  TokensSold(msg.sender, amountIn, amountOut, sellTax) */\n      0x40\n      dup1\n      mload\n        /* \"#utility.yul\":7635:7660   */\n      dup11\n      dup2\n      mstore\n        /* \"#utility.yul\":7691:7693   */\n      0x20\n        /* \"#utility.yul\":7676:7694   */\n      dup2\n      add\n        /* \"#utility.yul\":7669:7703   */\n      dup11\n      swap1\n      mstore\n        /* \"#utility.yul\":7719:7737   */\n      swap1\n      dup2\n      add\n        /* \"#utility.yul\":7712:7746   */\n      swap2\n      swap1\n      swap2\n      mstore\n        /* \"contracts/token factory/LiquidityPool.sol\":10384:10394  msg.sender */\n      caller\n      swap1\n        /* \"contracts/token factory/LiquidityPool.sol\":10373:10425  TokensSold(msg.sender, amountIn, amountOut, sellTax) */\n      0x6db63bebf1e6540277744df32846ebdb98385b1a73f2d5de49b28348add63f50\n      swap1\n        /* \"#utility.yul\":7623:7625   */\n      0x60\n        /* \"#utility.yul\":7608:7626   */\n      add\n        /* \"contracts/token factory/LiquidityPool.sol\":10373:10425  TokensSold(msg.sender, amountIn, amountOut, sellTax) */\n      mload(0x40)\n      dup1\n      swap2\n      sub\n      swap1\n      log2\n        /* \"contracts/token factory/LiquidityPool.sol\":9266:10432  {... */\n      pop\n      pop\n      pop\n      pop\n      pop\n      pop\n        /* \"@openzeppelin/contracts/utils/ReentrancyGuard.sol\":2542:2562  _nonReentrantAfter() */\n      tag_227\n        /* \"@openzeppelin/contracts/utils/ReentrancyGuard.sol\":1857:1858  1 */\n      0x01\n        /* \"@openzeppelin/contracts/utils/ReentrancyGuard.sol\":3068:3075  _status */\n      0x00\n        /* \"@openzeppelin/contracts/utils/ReentrancyGuard.sol\":3068:3089  _status = NOT_ENTERED */\n      sstore\n        /* \"@openzeppelin/contracts/utils/ReentrancyGuard.sol\":2888:3096  function _nonReentrantAfter() private {... */\n      jump\n        /* \"@openzeppelin/contracts/utils/ReentrancyGuard.sol\":2542:2562  _nonReentrantAfter() */\n    tag_227:\n        /* \"contracts/token factory/LiquidityPool.sol\":9165:10432  function sellToken(... */\n      swap2\n      swap1\n      pop\n      jump\t// out\n        /* \"contracts/token factory/LiquidityPool.sol\":10552:10694  function updateBuyTax(uint256 newBuyTax) external onlyFactory {... */\n    tag_91:\n        /* \"contracts/token factory/LiquidityPool.sol\":2797:2809  tokenFactory */\n      and(sub(shl(0xa0, 0x01), 0x01), sload(0x02))\n        /* \"contracts/token factory/LiquidityPool.sol\":2783:2793  msg.sender */\n      caller\n        /* \"contracts/token factory/LiquidityPool.sol\":2783:2809  msg.sender == tokenFactory */\n      eq\n        /* \"contracts/token factory/LiquidityPool.sol\":2775:2844  require(msg.sender == tokenFactory, \"Caller is not the TokenFactory\") */\n      tag_230\n      jumpi\n      mload(0x40)\n      shl(0xe5, 0x461bcd)\n      dup2\n      mstore\n      0x04\n      add\n      tag_160\n      swap1\n      tag_161\n      jump\t// in\n    tag_230:\n        /* \"contracts/token factory/LiquidityPool.sol\":10624:10630  buyTax */\n      0x09\n        /* \"contracts/token factory/LiquidityPool.sol\":10624:10642  buyTax = newBuyTax */\n      dup2\n      swap1\n      sstore\n        /* \"contracts/token factory/LiquidityPool.sol\":10679:10686  sellTax */\n      sload(0x0a)\n        /* \"contracts/token factory/LiquidityPool.sol\":10657:10687  TaxUpdated(newBuyTax, sellTax) */\n      0x40\n      dup1\n      mload\n        /* \"#utility.yul\":966:991   */\n      dup4\n      dup2\n      mstore\n        /* \"#utility.yul\":1022:1024   */\n      0x20\n        /* \"#utility.yul\":1007:1025   */\n      dup2\n      add\n        /* \"#utility.yul\":1000:1034   */\n      swap3\n      swap1\n      swap3\n      mstore\n        /* \"contracts/token factory/LiquidityPool.sol\":10657:10687  TaxUpdated(newBuyTax, sellTax) */\n      0xb841faf0d1b32571f4ef966a2f35e3ae51f3cdda45318c3da5570a5b2ad85605\n      swap2\n        /* \"#utility.yul\":939:957   */\n      add\n        /* \"contracts/token factory/LiquidityPool.sol\":10657:10687  TaxUpdated(newBuyTax, sellTax) */\n      tag_171\n        /* \"#utility.yul\":792:1040   */\n      jump\n        /* \"contracts/token factory/LiquidityPool.sol\":4407:4662  function updateMigrationThreshold(uint256 newThreshold) external onlyFactory {... */\n    tag_123:\n        /* \"contracts/token factory/LiquidityPool.sol\":2797:2809  tokenFactory */\n      and(sub(shl(0xa0, 0x01), 0x01), sload(0x02))\n        /* \"contracts/token factory/LiquidityPool.sol\":2783:2793  msg.sender */\n      caller\n        /* \"contracts/token factory/LiquidityPool.sol\":2783:2809  msg.sender == tokenFactory */\n      eq\n        /* \"contracts/token factory/LiquidityPool.sol\":2775:2844  require(msg.sender == tokenFactory, \"Caller is not the TokenFactory\") */\n      tag_235\n      jumpi\n      mload(0x40)\n      shl(0xe5, 0x461bcd)\n      dup2\n      mstore\n      0x04\n      add\n      tag_160\n      swap1\n      tag_161\n      jump\t// in\n    tag_235:\n        /* \"contracts/token factory/LiquidityPool.sol\":4517:4518  0 */\n      0x00\n        /* \"contracts/token factory/LiquidityPool.sol\":4502:4514  newThreshold */\n      dup2\n        /* \"contracts/token factory/LiquidityPool.sol\":4502:4518  newThreshold > 0 */\n      gt\n        /* \"contracts/token factory/LiquidityPool.sol\":4494:4558  require(newThreshold > 0, \"Threshold must be greater than zero\") */\n      tag_238\n      jumpi\n      mload(0x40)\n      shl(0xe5, 0x461bcd)\n      dup2\n      mstore\n        /* \"#utility.yul\":7959:7961   */\n      0x20\n        /* \"contracts/token factory/LiquidityPool.sol\":4494:4558  require(newThreshold > 0, \"Threshold must be greater than zero\") */\n      0x04\n      dup3\n      add\n        /* \"#utility.yul\":7941:7962   */\n      mstore\n        /* \"#utility.yul\":7998:8000   */\n      0x23\n        /* \"#utility.yul\":7978:7996   */\n      0x24\n      dup3\n      add\n        /* \"#utility.yul\":7971:8001   */\n      mstore\n        /* \"#utility.yul\":8037:8071   */\n      0x5468726573686f6c64206d7573742062652067726561746572207468616e207a\n        /* \"#utility.yul\":8017:8035   */\n      0x44\n      dup3\n      add\n        /* \"#utility.yul\":8010:8072   */\n      mstore\n      shl(0xe8, 0x65726f)\n        /* \"#utility.yul\":8088:8106   */\n      0x64\n      dup3\n      add\n        /* \"#utility.yul\":8081:8114   */\n      mstore\n        /* \"#utility.yul\":8131:8150   */\n      0x84\n      add\n        /* \"contracts/token factory/LiquidityPool.sol\":4494:4558  require(newThreshold > 0, \"Threshold must be greater than zero\") */\n      tag_160\n        /* \"#utility.yul\":7757:8156   */\n      jump\n        /* \"contracts/token factory/LiquidityPool.sol\":4494:4558  require(newThreshold > 0, \"Threshold must be greater than zero\") */\n    tag_238:\n        /* \"contracts/token factory/LiquidityPool.sol\":4568:4586  migrationThreshold */\n      0x0c\n        /* \"contracts/token factory/LiquidityPool.sol\":4568:4601  migrationThreshold = newThreshold */\n      dup2\n      swap1\n      sstore\n        /* \"contracts/token factory/LiquidityPool.sol\":4616:4655  MigrationThresholdUpdated(newThreshold) */\n      mload(0x40)\n        /* \"#utility.yul\":160:185   */\n      dup2\n      dup2\n      mstore\n        /* \"contracts/token factory/LiquidityPool.sol\":4616:4655  MigrationThresholdUpdated(newThreshold) */\n      0x4ad9ae9229776f627d7d2be995964376397890e11bbfa94e8826810419a6ef6b\n      swap1\n        /* \"#utility.yul\":148:150   */\n      0x20\n        /* \"#utility.yul\":133:151   */\n      add\n        /* \"contracts/token factory/LiquidityPool.sol\":4616:4655  MigrationThresholdUpdated(newThreshold) */\n      tag_171\n        /* \"#utility.yul\":14:191   */\n      jump\n        /* \"contracts/token factory/LiquidityPool.sol\":3328:3964  function initialize(... */\n    tag_127:\n        /* \"contracts/token factory/LiquidityPool.sol\":2797:2809  tokenFactory */\n      and(sub(shl(0xa0, 0x01), 0x01), sload(0x02))\n        /* \"contracts/token factory/LiquidityPool.sol\":2783:2793  msg.sender */\n      caller\n        /* \"contracts/token factory/LiquidityPool.sol\":2783:2809  msg.sender == tokenFactory */\n      eq\n        /* \"contracts/token factory/LiquidityPool.sol\":2775:2844  require(msg.sender == tokenFactory, \"Caller is not the TokenFactory\") */\n      tag_243\n      jumpi\n      mload(0x40)\n      shl(0xe5, 0x461bcd)\n      dup2\n      mstore\n      0x04\n      add\n      tag_160\n      swap1\n      tag_161\n      jump\t// in\n    tag_243:\n        /* \"@openzeppelin/contracts/utils/ReentrancyGuard.sol\":2500:2521  _nonReentrantBefore() */\n      tag_246\n        /* \"@openzeppelin/contracts/utils/ReentrancyGuard.sol\":2500:2519  _nonReentrantBefore */\n      tag_174\n        /* \"@openzeppelin/contracts/utils/ReentrancyGuard.sol\":2500:2521  _nonReentrantBefore() */\n      jump\t// in\n    tag_246:\n        /* \"contracts/token factory/LiquidityPool.sol\":3584:3590  token0 */\n      and(sub(shl(0xa0, 0x01), 0x01), sload(0x01))\n        /* \"contracts/token factory/LiquidityPool.sol\":3584:3604  token0 == address(0) */\n      iszero\n        /* \"contracts/token factory/LiquidityPool.sol\":3576:3633  require(token0 == address(0), \"Pool already initialized\") */\n      tag_248\n      jumpi\n      mload(0x40)\n      shl(0xe5, 0x461bcd)\n      dup2\n      mstore\n        /* \"#utility.yul\":8363:8365   */\n      0x20\n        /* \"contracts/token factory/LiquidityPool.sol\":3576:3633  require(token0 == address(0), \"Pool already initialized\") */\n      0x04\n      dup3\n      add\n        /* \"#utility.yul\":8345:8366   */\n      mstore\n        /* \"#utility.yul\":8402:8404   */\n      0x18\n        /* \"#utility.yul\":8382:8400   */\n      0x24\n      dup3\n      add\n        /* \"#utility.yul\":8375:8405   */\n      mstore\n        /* \"#utility.yul\":8441:8467   */\n      0x506f6f6c20616c726561647920696e697469616c697a65640000000000000000\n        /* \"#utility.yul\":8421:8439   */\n      0x44\n      dup3\n      add\n        /* \"#utility.yul\":8414:8468   */\n      mstore\n        /* \"#utility.yul\":8485:8503   */\n      0x64\n      add\n        /* \"contracts/token factory/LiquidityPool.sol\":3576:3633  require(token0 == address(0), \"Pool already initialized\") */\n      tag_160\n        /* \"#utility.yul\":8161:8509   */\n      jump\n        /* \"contracts/token factory/LiquidityPool.sol\":3576:3633  require(token0 == address(0), \"Pool already initialized\") */\n    tag_248:\n        /* \"contracts/token factory/LiquidityPool.sol\":3644:3650  token0 */\n      0x01\n        /* \"contracts/token factory/LiquidityPool.sol\":3644:3660  token0 = _token0 */\n      dup1\n      sload\n      not(sub(shl(0xa0, 0x01), 0x01))\n      swap1\n      dup2\n      and\n      sub(shl(0xa0, 0x01), 0x01)\n      dup10\n      dup2\n      and\n      swap2\n      swap1\n      swap2\n      or\n      swap1\n      swap3\n      sstore\n        /* \"contracts/token factory/LiquidityPool.sol\":3670:3678  reserve0 */\n      0x07\n        /* \"contracts/token factory/LiquidityPool.sol\":3670:3701  reserve0 = _initialTokenReserve */\n      dup8\n      swap1\n      sstore\n        /* \"contracts/token factory/LiquidityPool.sol\":3711:3717  buyTax */\n      0x09\n        /* \"contracts/token factory/LiquidityPool.sol\":3711:3727  buyTax = _buyTax */\n      dup7\n      swap1\n      sstore\n        /* \"contracts/token factory/LiquidityPool.sol\":3737:3744  sellTax */\n      0x0a\n        /* \"contracts/token factory/LiquidityPool.sol\":3737:3755  sellTax = _sellTax */\n      dup6\n      swap1\n      sstore\n        /* \"contracts/token factory/LiquidityPool.sol\":3825:3845  autoMigrationEnabled */\n      0x0b\n        /* \"contracts/token factory/LiquidityPool.sol\":3825:3862  autoMigrationEnabled = _automigration */\n      dup1\n      sload\n      not(0xff00)\n      and\n        /* \"contracts/token factory/LiquidityPool.sol\":3644:3660  token0 = _token0 */\n      0x0100\n        /* \"contracts/token factory/LiquidityPool.sol\":3825:3862  autoMigrationEnabled = _automigration */\n      dup6\n      iszero\n      iszero\n      mul\n      or\n      swap1\n      sstore\n        /* \"contracts/token factory/LiquidityPool.sol\":3873:3881  migrator */\n      0x05\n        /* \"contracts/token factory/LiquidityPool.sol\":3873:3893  migrator = _migrator */\n      dup1\n      sload\n      swap1\n      swap2\n      and\n      swap2\n      dup5\n      and\n      swap2\n      swap1\n      swap2\n      or\n      swap1\n      sstore\n        /* \"contracts/token factory/LiquidityPool.sol\":3909:3957  LiquidityAdded(msg.sender, _initialTokenReserve) */\n      mload(0x40)\n        /* \"#utility.yul\":160:185   */\n      dup6\n      dup2\n      mstore\n        /* \"contracts/token factory/LiquidityPool.sol\":3924:3934  msg.sender */\n      caller\n      swap1\n        /* \"contracts/token factory/LiquidityPool.sol\":3909:3957  LiquidityAdded(msg.sender, _initialTokenReserve) */\n      0xc17cea59c2955cb181b03393209566960365771dbba9dc3d510180e7cb312088\n      swap1\n        /* \"#utility.yul\":148:150   */\n      0x20\n        /* \"#utility.yul\":133:151   */\n      add\n        /* \"contracts/token factory/LiquidityPool.sol\":3909:3957  LiquidityAdded(msg.sender, _initialTokenReserve) */\n      mload(0x40)\n      dup1\n      swap2\n      sub\n      swap1\n      log2\n        /* \"@openzeppelin/contracts/utils/ReentrancyGuard.sol\":2542:2562  _nonReentrantAfter() */\n      tag_252\n        /* \"@openzeppelin/contracts/utils/ReentrancyGuard.sol\":1857:1858  1 */\n      0x01\n        /* \"@openzeppelin/contracts/utils/ReentrancyGuard.sol\":3068:3075  _status */\n      0x00\n        /* \"@openzeppelin/contracts/utils/ReentrancyGuard.sol\":3068:3089  _status = NOT_ENTERED */\n      sstore\n        /* \"@openzeppelin/contracts/utils/ReentrancyGuard.sol\":2888:3096  function _nonReentrantAfter() private {... */\n      jump\n        /* \"@openzeppelin/contracts/utils/ReentrancyGuard.sol\":2542:2562  _nonReentrantAfter() */\n    tag_252:\n        /* \"contracts/token factory/LiquidityPool.sol\":3328:3964  function initialize(... */\n      pop\n      pop\n      pop\n      pop\n      pop\n      pop\n      jump\t// out\n        /* \"contracts/token factory/LiquidityPool.sol\":10906:11328  function calculateSqrtPriceX96(uint256 amount0, uint256 amount1) public pure returns (uint160) {... */\n    tag_132:\n        /* \"contracts/token factory/LiquidityPool.sol\":10992:10999  uint160 */\n      0x00\n        /* \"contracts/token factory/LiquidityPool.sol\":11025:11026  0 */\n      dup1\n        /* \"contracts/token factory/LiquidityPool.sol\":11015:11022  amount0 */\n      dup4\n        /* \"contracts/token factory/LiquidityPool.sol\":11015:11026  amount0 > 0 */\n      gt\n        /* \"contracts/token factory/LiquidityPool.sol\":11015:11041  amount0 > 0 && amount1 > 0 */\n      dup1\n      iszero\n      tag_254\n      jumpi\n      pop\n        /* \"contracts/token factory/LiquidityPool.sol\":11040:11041  0 */\n      0x00\n        /* \"contracts/token factory/LiquidityPool.sol\":11030:11037  amount1 */\n      dup3\n        /* \"contracts/token factory/LiquidityPool.sol\":11030:11041  amount1 > 0 */\n      gt\n        /* \"contracts/token factory/LiquidityPool.sol\":11015:11041  amount0 > 0 && amount1 > 0 */\n    tag_254:\n        /* \"contracts/token factory/LiquidityPool.sol\":11007:11079  require(amount0 > 0 && amount1 > 0, \"Amounts must be greater than zero\") */\n      tag_255\n      jumpi\n      mload(0x40)\n      shl(0xe5, 0x461bcd)\n      dup2\n      mstore\n        /* \"#utility.yul\":8716:8718   */\n      0x20\n        /* \"contracts/token factory/LiquidityPool.sol\":11007:11079  require(amount0 > 0 && amount1 > 0, \"Amounts must be greater than zero\") */\n      0x04\n      dup3\n      add\n        /* \"#utility.yul\":8698:8719   */\n      mstore\n        /* \"#utility.yul\":8755:8757   */\n      0x21\n        /* \"#utility.yul\":8735:8753   */\n      0x24\n      dup3\n      add\n        /* \"#utility.yul\":8728:8758   */\n      mstore\n        /* \"#utility.yul\":8794:8828   */\n      0x416d6f756e7473206d7573742062652067726561746572207468616e207a6572\n        /* \"#utility.yul\":8774:8792   */\n      0x44\n      dup3\n      add\n        /* \"#utility.yul\":8767:8829   */\n      mstore\n      shl(0xf8, 0x6f)\n        /* \"#utility.yul\":8845:8863   */\n      0x64\n      dup3\n      add\n        /* \"#utility.yul\":8838:8869   */\n      mstore\n        /* \"#utility.yul\":8886:8905   */\n      0x84\n      add\n        /* \"contracts/token factory/LiquidityPool.sol\":11007:11079  require(amount0 > 0 && amount1 > 0, \"Amounts must be greater than zero\") */\n      tag_160\n        /* \"#utility.yul\":8514:8911   */\n      jump\n        /* \"contracts/token factory/LiquidityPool.sol\":11007:11079  require(amount0 > 0 && amount1 > 0, \"Amounts must be greater than zero\") */\n    tag_255:\n        /* \"contracts/token factory/LiquidityPool.sol\":11085:11098  uint256 ratio */\n      0x00\n        /* \"contracts/token factory/LiquidityPool.sol\":11101:11126  (amount1 << 96) / amount0 */\n      tag_258\n        /* \"contracts/token factory/LiquidityPool.sol\":11119:11126  amount0 */\n      dup5\n        /* \"contracts/token factory/LiquidityPool.sol\":11113:11115  96 */\n      0x60\n        /* \"contracts/token factory/LiquidityPool.sol\":11102:11115  amount1 << 96 */\n      dup6\n      swap1\n      shl\n        /* \"contracts/token factory/LiquidityPool.sol\":11101:11126  (amount1 << 96) / amount0 */\n      tag_190\n      jump\t// in\n    tag_258:\n        /* \"contracts/token factory/LiquidityPool.sol\":11085:11126  uint256 ratio = (amount1 << 96) / amount0 */\n      swap1\n      pop\n        /* \"contracts/token factory/LiquidityPool.sol\":11200:11220  uint160 sqrtPriceX96 */\n      0x00\n        /* \"contracts/token factory/LiquidityPool.sol\":11246:11248  48 */\n      0x30\n        /* \"contracts/token factory/LiquidityPool.sol\":11231:11242  sqrt(ratio) */\n      tag_259\n        /* \"contracts/token factory/LiquidityPool.sol\":11236:11241  ratio */\n      dup4\n        /* \"contracts/token factory/LiquidityPool.sol\":11231:11235  sqrt */\n      tag_260\n        /* \"contracts/token factory/LiquidityPool.sol\":11231:11242  sqrt(ratio) */\n      jump\t// in\n    tag_259:\n        /* \"contracts/token factory/LiquidityPool.sol\":11231:11248  sqrt(ratio) << 48 */\n      swap1\n      shl\n      swap3\n      pop\n      pop\n      pop\n        /* \"contracts/token factory/LiquidityPool.sol\":10906:11328  function calculateSqrtPriceX96(uint256 amount0, uint256 amount1) public pure returns (uint160) {... */\n    tag_253:\n      swap3\n      swap2\n      pop\n      pop\n      jump\t// out\n        /* \"contracts/token factory/LiquidityPool.sol\":7414:9159  function buyToken()... */\n    tag_136:\n        /* \"contracts/token factory/LiquidityPool.sol\":7505:7522  uint256 amountOut */\n      0x00\n        /* \"@openzeppelin/contracts/utils/ReentrancyGuard.sol\":2500:2521  _nonReentrantBefore() */\n      tag_262\n        /* \"@openzeppelin/contracts/utils/ReentrancyGuard.sol\":2500:2519  _nonReentrantBefore */\n      tag_174\n        /* \"@openzeppelin/contracts/utils/ReentrancyGuard.sol\":2500:2521  _nonReentrantBefore() */\n      jump\t// in\n    tag_262:\n        /* \"contracts/token factory/LiquidityPool.sol\":7547:7564  migratedToAlgebra */\n      and(0xff, sload(0x0b))\n        /* \"contracts/token factory/LiquidityPool.sol\":7546:7564  !migratedToAlgebra */\n      iszero\n        /* \"contracts/token factory/LiquidityPool.sol\":7538:7593  require(!migratedToAlgebra, \"Pool migrated to Algebra\") */\n      tag_264\n      jumpi\n      mload(0x40)\n      shl(0xe5, 0x461bcd)\n      dup2\n      mstore\n        /* \"#utility.yul\":4601:4603   */\n      0x20\n        /* \"contracts/token factory/LiquidityPool.sol\":7538:7593  require(!migratedToAlgebra, \"Pool migrated to Algebra\") */\n      0x04\n      dup3\n      add\n        /* \"#utility.yul\":4583:4604   */\n      mstore\n        /* \"#utility.yul\":4640:4642   */\n      0x18\n        /* \"#utility.yul\":4620:4638   */\n      0x24\n      dup3\n      add\n        /* \"#utility.yul\":4613:4643   */\n      mstore\n      shl(0x40, 0x506f6f6c206d6967726174656420746f20416c6765627261)\n        /* \"#utility.yul\":4659:4677   */\n      0x44\n      dup3\n      add\n        /* \"#utility.yul\":4652:4706   */\n      mstore\n        /* \"#utility.yul\":4723:4741   */\n      0x64\n      add\n        /* \"contracts/token factory/LiquidityPool.sol\":7538:7593  require(!migratedToAlgebra, \"Pool migrated to Algebra\") */\n      tag_160\n        /* \"#utility.yul\":4399:4747   */\n      jump\n        /* \"contracts/token factory/LiquidityPool.sol\":7538:7593  require(!migratedToAlgebra, \"Pool migrated to Algebra\") */\n    tag_264:\n        /* \"contracts/token factory/LiquidityPool.sol\":7623:7624  0 */\n      0x00\n        /* \"contracts/token factory/LiquidityPool.sol\":7611:7620  msg.value */\n      callvalue\n        /* \"contracts/token factory/LiquidityPool.sol\":7611:7624  msg.value > 0 */\n      gt\n        /* \"contracts/token factory/LiquidityPool.sol\":7603:7658  require(msg.value > 0, \"Must send Ether to buy tokens\") */\n      tag_266\n      jumpi\n      mload(0x40)\n      shl(0xe5, 0x461bcd)\n      dup2\n      mstore\n        /* \"#utility.yul\":9118:9120   */\n      0x20\n        /* \"contracts/token factory/LiquidityPool.sol\":7603:7658  require(msg.value > 0, \"Must send Ether to buy tokens\") */\n      0x04\n      dup3\n      add\n        /* \"#utility.yul\":9100:9121   */\n      mstore\n        /* \"#utility.yul\":9157:9159   */\n      0x1d\n        /* \"#utility.yul\":9137:9155   */\n      0x24\n      dup3\n      add\n        /* \"#utility.yul\":9130:9160   */\n      mstore\n        /* \"#utility.yul\":9196:9227   */\n      0x4d7573742073656e6420457468657220746f2062757920746f6b656e73000000\n        /* \"#utility.yul\":9176:9194   */\n      0x44\n      dup3\n      add\n        /* \"#utility.yul\":9169:9228   */\n      mstore\n        /* \"#utility.yul\":9245:9263   */\n      0x64\n      add\n        /* \"contracts/token factory/LiquidityPool.sol\":7603:7658  require(msg.value > 0, \"Must send Ether to buy tokens\") */\n      tag_160\n        /* \"#utility.yul\":8916:9269   */\n      jump\n        /* \"contracts/token factory/LiquidityPool.sol\":7603:7658  require(msg.value > 0, \"Must send Ether to buy tokens\") */\n    tag_266:\n        /* \"contracts/token factory/LiquidityPool.sol\":7687:7696  0.2 ether */\n      0x02c68af0bb140000\n        /* \"contracts/token factory/LiquidityPool.sol\":7676:7684  reserve1 */\n      sload(0x08)\n        /* \"contracts/token factory/LiquidityPool.sol\":7676:7696  reserve1 < 0.2 ether */\n      lt\n        /* \"contracts/token factory/LiquidityPool.sol\":7668:7713  require(reserve1 < 0.2 ether, \"Pool is full\") */\n      tag_269\n      jumpi\n      mload(0x40)\n      shl(0xe5, 0x461bcd)\n      dup2\n      mstore\n        /* \"#utility.yul\":9476:9478   */\n      0x20\n        /* \"contracts/token factory/LiquidityPool.sol\":7668:7713  require(reserve1 < 0.2 ether, \"Pool is full\") */\n      0x04\n      dup3\n      add\n        /* \"#utility.yul\":9458:9479   */\n      mstore\n        /* \"#utility.yul\":9515:9517   */\n      0x0c\n        /* \"#utility.yul\":9495:9513   */\n      0x24\n      dup3\n      add\n        /* \"#utility.yul\":9488:9518   */\n      mstore\n      shl(0xa2, 0x141bdbdb081a5cc8199d5b1b)\n        /* \"#utility.yul\":9534:9552   */\n      0x44\n      dup3\n      add\n        /* \"#utility.yul\":9527:9569   */\n      mstore\n        /* \"#utility.yul\":9586:9604   */\n      0x64\n      add\n        /* \"contracts/token factory/LiquidityPool.sol\":7668:7713  require(reserve1 < 0.2 ether, \"Pool is full\") */\n      tag_160\n        /* \"#utility.yul\":9274:9610   */\n      jump\n        /* \"contracts/token factory/LiquidityPool.sol\":7668:7713  require(reserve1 < 0.2 ether, \"Pool is full\") */\n    tag_269:\n        /* \"contracts/token factory/LiquidityPool.sol\":7742:7743  0 */\n      0x00\n        /* \"contracts/token factory/LiquidityPool.sol\":7731:7739  reserve0 */\n      sload(0x07)\n        /* \"contracts/token factory/LiquidityPool.sol\":7731:7743  reserve0 > 0 */\n      gt\n        /* \"contracts/token factory/LiquidityPool.sol\":7723:7769  require(reserve0 > 0, \"No tokens in the pool\") */\n      tag_272\n      jumpi\n      mload(0x40)\n      shl(0xe5, 0x461bcd)\n      dup2\n      mstore\n        /* \"#utility.yul\":9817:9819   */\n      0x20\n        /* \"contracts/token factory/LiquidityPool.sol\":7723:7769  require(reserve0 > 0, \"No tokens in the pool\") */\n      0x04\n      dup3\n      add\n        /* \"#utility.yul\":9799:9820   */\n      mstore\n        /* \"#utility.yul\":9856:9858   */\n      0x15\n        /* \"#utility.yul\":9836:9854   */\n      0x24\n      dup3\n      add\n        /* \"#utility.yul\":9829:9859   */\n      mstore\n      shl(0x5a, 0x139bc81d1bdad95b9cc81a5b881d1a19481c1bdbdb)\n        /* \"#utility.yul\":9875:9893   */\n      0x44\n      dup3\n      add\n        /* \"#utility.yul\":9868:9919   */\n      mstore\n        /* \"#utility.yul\":9936:9954   */\n      0x64\n      add\n        /* \"contracts/token factory/LiquidityPool.sol\":7723:7769  require(reserve0 > 0, \"No tokens in the pool\") */\n      tag_160\n        /* \"#utility.yul\":9615:9960   */\n      jump\n        /* \"contracts/token factory/LiquidityPool.sol\":7723:7769  require(reserve0 > 0, \"No tokens in the pool\") */\n    tag_272:\n        /* \"contracts/token factory/LiquidityPool.sol\":7780:7791  uint256 tax */\n      0x00\n        /* \"contracts/token factory/LiquidityPool.sol\":7817:7821  1000 */\n      0x03e8\n        /* \"contracts/token factory/LiquidityPool.sol\":7807:7813  buyTax */\n      sload(0x09)\n        /* \"contracts/token factory/LiquidityPool.sol\":7795:7804  msg.value */\n      callvalue\n        /* \"contracts/token factory/LiquidityPool.sol\":7795:7813  msg.value * buyTax */\n      tag_275\n      swap2\n      swap1\n      tag_188\n      jump\t// in\n    tag_275:\n        /* \"contracts/token factory/LiquidityPool.sol\":7794:7821  (msg.value * buyTax) / 1000 */\n      tag_276\n      swap2\n      swap1\n      tag_190\n      jump\t// in\n    tag_276:\n        /* \"contracts/token factory/LiquidityPool.sol\":7780:7821  uint256 tax = (msg.value * buyTax) / 1000 */\n      swap1\n      pop\n        /* \"contracts/token factory/LiquidityPool.sol\":7831:7855  uint256 amountInAfterTax */\n      0x00\n        /* \"contracts/token factory/LiquidityPool.sol\":7858:7873  msg.value - tax */\n      tag_277\n        /* \"contracts/token factory/LiquidityPool.sol\":7780:7821  uint256 tax = (msg.value * buyTax) / 1000 */\n      dup3\n        /* \"contracts/token factory/LiquidityPool.sol\":7858:7867  msg.value */\n      callvalue\n        /* \"contracts/token factory/LiquidityPool.sol\":7858:7873  msg.value - tax */\n      tag_193\n      jump\t// in\n    tag_277:\n        /* \"contracts/token factory/LiquidityPool.sol\":7831:7873  uint256 amountInAfterTax = msg.value - tax */\n      swap1\n      pop\n        /* \"contracts/token factory/LiquidityPool.sol\":7919:7928  0.2 ether */\n      0x02c68af0bb140000\n        /* \"contracts/token factory/LiquidityPool.sol\":7899:7915  amountInAfterTax */\n      dup2\n        /* \"contracts/token factory/LiquidityPool.sol\":7888:7896  reserve1 */\n      sload(0x08)\n        /* \"contracts/token factory/LiquidityPool.sol\":7888:7915  reserve1 + amountInAfterTax */\n      tag_278\n      swap2\n      swap1\n      tag_183\n      jump\t// in\n    tag_278:\n        /* \"contracts/token factory/LiquidityPool.sol\":7888:7928  reserve1 + amountInAfterTax >= 0.2 ether */\n      lt\n        /* \"contracts/token factory/LiquidityPool.sol\":7884:8876  if (reserve1 + amountInAfterTax >= 0.2 ether) {... */\n      tag_279\n      jumpi\n        /* \"contracts/token factory/LiquidityPool.sol\":7944:7962  uint256 etherToUse */\n      0x00\n        /* \"contracts/token factory/LiquidityPool.sol\":7977:7985  reserve1 */\n      sload(0x08)\n        /* \"contracts/token factory/LiquidityPool.sol\":7965:7974  0.2 ether */\n      0x02c68af0bb140000\n        /* \"contracts/token factory/LiquidityPool.sol\":7965:7985  0.2 ether - reserve1 */\n      tag_280\n      swap2\n      swap1\n      tag_193\n      jump\t// in\n    tag_280:\n        /* \"contracts/token factory/LiquidityPool.sol\":7944:7985  uint256 etherToUse = 0.2 ether - reserve1 */\n      swap1\n      pop\n        /* \"contracts/token factory/LiquidityPool.sol\":7999:8013  uint256 refund */\n      0x00\n        /* \"contracts/token factory/LiquidityPool.sol\":8016:8045  amountInAfterTax - etherToUse */\n      tag_281\n        /* \"contracts/token factory/LiquidityPool.sol\":7944:7985  uint256 etherToUse = 0.2 ether - reserve1 */\n      dup3\n        /* \"contracts/token factory/LiquidityPool.sol\":8016:8032  amountInAfterTax */\n      dup5\n        /* \"contracts/token factory/LiquidityPool.sol\":8016:8045  amountInAfterTax - etherToUse */\n      tag_193\n      jump\t// in\n    tag_281:\n        /* \"contracts/token factory/LiquidityPool.sol\":7999:8045  uint256 refund = amountInAfterTax - etherToUse */\n      swap1\n      pop\n        /* \"contracts/token factory/LiquidityPool.sol\":8072:8082  etherToUse */\n      dup2\n        /* \"contracts/token factory/LiquidityPool.sol\":8060:8068  reserve1 */\n      0x08\n      0x00\n        /* \"contracts/token factory/LiquidityPool.sol\":8060:8082  reserve1 += etherToUse */\n      dup3\n      dup3\n      sload\n      tag_282\n      swap2\n      swap1\n      tag_183\n      jump\t// in\n    tag_282:\n      swap1\n      swap2\n      sstore\n      pop\n      pop\n        /* \"contracts/token factory/LiquidityPool.sol\":8108:8116  reserve0 */\n      0x07\n      dup1\n      sload\n        /* \"contracts/token factory/LiquidityPool.sol\":8141:8142  0 */\n      0x00\n        /* \"contracts/token factory/LiquidityPool.sol\":8130:8142  reserve0 = 0 */\n      swap1\n      swap2\n      sstore\n        /* \"contracts/token factory/LiquidityPool.sol\":8108:8116  reserve0 */\n      swap5\n      pop\n        /* \"contracts/token factory/LiquidityPool.sol\":8161:8171  refund > 0 */\n      dup1\n      iszero\n        /* \"contracts/token factory/LiquidityPool.sol\":8157:8332  if (refund > 0) {... */\n      tag_283\n      jumpi\n        /* \"contracts/token factory/LiquidityPool.sol\":8213:8247  msg.sender.call{value: refund}(\"\") */\n      mload(0x40)\n        /* \"contracts/token factory/LiquidityPool.sol\":8192:8207  bool refundSent */\n      0x00\n      swap1\n        /* \"contracts/token factory/LiquidityPool.sol\":8213:8223  msg.sender */\n      caller\n      swap1\n        /* \"contracts/token factory/LiquidityPool.sol\":8236:8242  refund */\n      dup4\n      swap1\n        /* \"contracts/token factory/LiquidityPool.sol\":8192:8207  bool refundSent */\n      dup4\n        /* \"contracts/token factory/LiquidityPool.sol\":8213:8247  msg.sender.call{value: refund}(\"\") */\n      dup2\n        /* \"contracts/token factory/LiquidityPool.sol\":8192:8207  bool refundSent */\n      dup2\n        /* \"contracts/token factory/LiquidityPool.sol\":8213:8247  msg.sender.call{value: refund}(\"\") */\n      dup2\n        /* \"contracts/token factory/LiquidityPool.sol\":8236:8242  refund */\n      dup6\n        /* \"contracts/token factory/LiquidityPool.sol\":8213:8223  msg.sender */\n      dup8\n        /* \"contracts/token factory/LiquidityPool.sol\":8213:8247  msg.sender.call{value: refund}(\"\") */\n      gas\n      call\n      swap3\n      pop\n      pop\n      pop\n      returndatasize\n      dup1\n      0x00\n      dup2\n      eq\n      tag_287\n      jumpi\n      mload(0x40)\n      swap2\n      pop\n      and(add(returndatasize, 0x3f), not(0x1f))\n      dup3\n      add\n      0x40\n      mstore\n      returndatasize\n      dup3\n      mstore\n      returndatasize\n      0x00\n      0x20\n      dup5\n      add\n      returndatacopy\n      jump(tag_286)\n    tag_287:\n      0x60\n      swap2\n      pop\n    tag_286:\n      pop\n        /* \"contracts/token factory/LiquidityPool.sol\":8191:8247  (bool refundSent, ) = msg.sender.call{value: refund}(\"\") */\n      pop\n      swap1\n      pop\n        /* \"contracts/token factory/LiquidityPool.sol\":8273:8283  refundSent */\n      dup1\n        /* \"contracts/token factory/LiquidityPool.sol\":8265:8317  require(refundSent, \"Failed to refund excess ether\") */\n      tag_288\n      jumpi\n      mload(0x40)\n      shl(0xe5, 0x461bcd)\n      dup2\n      mstore\n        /* \"#utility.yul\":10167:10169   */\n      0x20\n        /* \"contracts/token factory/LiquidityPool.sol\":8265:8317  require(refundSent, \"Failed to refund excess ether\") */\n      0x04\n      dup3\n      add\n        /* \"#utility.yul\":10149:10170   */\n      mstore\n        /* \"#utility.yul\":10206:10208   */\n      0x1d\n        /* \"#utility.yul\":10186:10204   */\n      0x24\n      dup3\n      add\n        /* \"#utility.yul\":10179:10209   */\n      mstore\n        /* \"#utility.yul\":10245:10276   */\n      0x4661696c656420746f20726566756e6420657863657373206574686572000000\n        /* \"#utility.yul\":10225:10243   */\n      0x44\n      dup3\n      add\n        /* \"#utility.yul\":10218:10277   */\n      mstore\n        /* \"#utility.yul\":10294:10312   */\n      0x64\n      add\n        /* \"contracts/token factory/LiquidityPool.sol\":8265:8317  require(refundSent, \"Failed to refund excess ether\") */\n      tag_160\n        /* \"#utility.yul\":9965:10318   */\n      jump\n        /* \"contracts/token factory/LiquidityPool.sol\":8265:8317  require(refundSent, \"Failed to refund excess ether\") */\n    tag_288:\n        /* \"contracts/token factory/LiquidityPool.sol\":8173:8332  {... */\n      pop\n        /* \"contracts/token factory/LiquidityPool.sol\":8157:8332  if (refund > 0) {... */\n    tag_283:\n        /* \"contracts/token factory/LiquidityPool.sol\":7930:8342  {... */\n      pop\n      pop\n        /* \"contracts/token factory/LiquidityPool.sol\":7884:8876  if (reserve1 + amountInAfterTax >= 0.2 ether) {... */\n      jump(tag_291)\n    tag_279:\n        /* \"contracts/token factory/LiquidityPool.sol\":8362:8381  uint256 newReserve1 */\n      0x00\n        /* \"contracts/token factory/LiquidityPool.sol\":8395:8411  amountInAfterTax */\n      dup2\n        /* \"contracts/token factory/LiquidityPool.sol\":8384:8392  reserve1 */\n      sload(0x08)\n        /* \"contracts/token factory/LiquidityPool.sol\":8384:8411  reserve1 + amountInAfterTax */\n      tag_292\n      swap2\n      swap1\n      tag_183\n      jump\t// in\n    tag_292:\n        /* \"contracts/token factory/LiquidityPool.sol\":8362:8411  uint256 newReserve1 = reserve1 + amountInAfterTax */\n      swap1\n      pop\n        /* \"contracts/token factory/LiquidityPool.sol\":8425:8441  uint256 quotient */\n      0x00\n        /* \"contracts/token factory/LiquidityPool.sol\":8521:8548  newReserve1 + Y_DELTA_LOWER */\n      tag_293\n        /* \"contracts/token factory/LiquidityPool.sol\":903:920  31864892854290958 */\n      0x7134f38362ca0e\n        /* \"contracts/token factory/LiquidityPool.sol\":8362:8411  uint256 newReserve1 = reserve1 + amountInAfterTax */\n      dup4\n        /* \"contracts/token factory/LiquidityPool.sol\":8521:8548  newReserve1 + Y_DELTA_LOWER */\n      tag_183\n      jump\t// in\n    tag_293:\n        /* \"contracts/token factory/LiquidityPool.sol\":966:983  31864892854294116 */\n      0x7134f38362d664\n        /* \"contracts/token factory/LiquidityPool.sol\":8491:8499  reserve1 */\n      sload(0x08)\n        /* \"contracts/token factory/LiquidityPool.sol\":8491:8515  reserve1 + Y_DELTA_UPPER */\n      tag_294\n      swap2\n      swap1\n      tag_183\n      jump\t// in\n    tag_294:\n        /* \"contracts/token factory/LiquidityPool.sol\":830:857  257627658726993462773682809 */\n      0xd51ac75d3cbca700901279\n        /* \"contracts/token factory/LiquidityPool.sol\":8446:8454  reserve0 */\n      sload(0x07)\n        /* \"contracts/token factory/LiquidityPool.sol\":8446:8470  reserve0 + X_DELTA_UPPER */\n      tag_295\n      swap2\n      swap1\n      tag_183\n      jump\t// in\n    tag_295:\n        /* \"contracts/token factory/LiquidityPool.sol\":8445:8516  (reserve0 + X_DELTA_UPPER) *... */\n      tag_296\n      swap2\n      swap1\n      tag_188\n      jump\t// in\n    tag_296:\n        /* \"contracts/token factory/LiquidityPool.sol\":8444:8549  ((reserve0 + X_DELTA_UPPER) *... */\n      tag_297\n      swap2\n      swap1\n      tag_190\n      jump\t// in\n    tag_297:\n        /* \"contracts/token factory/LiquidityPool.sol\":8425:8549  uint256 quotient = ((reserve0 + X_DELTA_UPPER) *... */\n      swap1\n      pop\n        /* \"contracts/token factory/LiquidityPool.sol\":757:784  257627658726967931872702964 */\n      0xd51ac75d3ca56ea04771f4\n        /* \"contracts/token factory/LiquidityPool.sol\":8567:8575  quotient */\n      dup2\n        /* \"contracts/token factory/LiquidityPool.sol\":8567:8591  quotient < X_DELTA_LOWER */\n      lt\n        /* \"contracts/token factory/LiquidityPool.sol\":8563:8650  if (quotient < X_DELTA_LOWER) {... */\n      iszero\n      tag_298\n      jumpi\n      pop\n        /* \"contracts/token factory/LiquidityPool.sol\":757:784  257627658726967931872702964 */\n      0xd51ac75d3ca56ea04771f4\n        /* \"contracts/token factory/LiquidityPool.sol\":8563:8650  if (quotient < X_DELTA_LOWER) {... */\n    tag_298:\n        /* \"contracts/token factory/LiquidityPool.sol\":8663:8682  uint256 newReserve0 */\n      0x00\n        /* \"contracts/token factory/LiquidityPool.sol\":8685:8709  quotient - X_DELTA_LOWER */\n      tag_299\n        /* \"contracts/token factory/LiquidityPool.sol\":757:784  257627658726967931872702964 */\n      0xd51ac75d3ca56ea04771f4\n        /* \"contracts/token factory/LiquidityPool.sol\":8685:8693  quotient */\n      dup4\n        /* \"contracts/token factory/LiquidityPool.sol\":8685:8709  quotient - X_DELTA_LOWER */\n      tag_193\n      jump\t// in\n    tag_299:\n        /* \"contracts/token factory/LiquidityPool.sol\":8663:8709  uint256 newReserve0 = quotient - X_DELTA_LOWER */\n      swap1\n      pop\n        /* \"contracts/token factory/LiquidityPool.sol\":8749:8757  reserve0 */\n      sload(0x07)\n        /* \"contracts/token factory/LiquidityPool.sol\":8735:8746  newReserve0 */\n      dup2\n        /* \"contracts/token factory/LiquidityPool.sol\":8735:8757  newReserve0 > reserve0 */\n      gt\n        /* \"contracts/token factory/LiquidityPool.sol\":8735:8793  newReserve0 > reserve0 ? reserve0 : reserve0 - newReserve0 */\n      tag_300\n      jumpi\n        /* \"contracts/token factory/LiquidityPool.sol\":8782:8793  newReserve0 */\n      dup1\n        /* \"contracts/token factory/LiquidityPool.sol\":8771:8779  reserve0 */\n      sload(0x07)\n        /* \"contracts/token factory/LiquidityPool.sol\":8771:8793  reserve0 - newReserve0 */\n      tag_301\n      swap2\n      swap1\n      tag_193\n      jump\t// in\n    tag_301:\n        /* \"contracts/token factory/LiquidityPool.sol\":8735:8793  newReserve0 > reserve0 ? reserve0 : reserve0 - newReserve0 */\n      jump(tag_302)\n    tag_300:\n        /* \"contracts/token factory/LiquidityPool.sol\":8760:8768  reserve0 */\n      sload(0x07)\n        /* \"contracts/token factory/LiquidityPool.sol\":8735:8793  newReserve0 > reserve0 ? reserve0 : reserve0 - newReserve0 */\n    tag_302:\n        /* \"contracts/token factory/LiquidityPool.sol\":8723:8793  amountOut = newReserve0 > reserve0 ? reserve0 : reserve0 - newReserve0 */\n      swap6\n      pop\n        /* \"contracts/token factory/LiquidityPool.sol\":8819:8830  newReserve1 */\n      dup3\n        /* \"contracts/token factory/LiquidityPool.sol\":8808:8816  reserve1 */\n      0x08\n        /* \"contracts/token factory/LiquidityPool.sol\":8808:8830  reserve1 = newReserve1 */\n      dup2\n      swap1\n      sstore\n      pop\n        /* \"contracts/token factory/LiquidityPool.sol\":8856:8865  amountOut */\n      dup6\n        /* \"contracts/token factory/LiquidityPool.sol\":8844:8852  reserve0 */\n      0x07\n      0x00\n        /* \"contracts/token factory/LiquidityPool.sol\":8844:8865  reserve0 -= amountOut */\n      dup3\n      dup3\n      sload\n      tag_303\n      swap2\n      swap1\n      tag_193\n      jump\t// in\n    tag_303:\n      swap1\n      swap2\n      sstore\n      pop\n      pop\n      pop\n      pop\n      pop\n        /* \"contracts/token factory/LiquidityPool.sol\":7884:8876  if (reserve1 + amountInAfterTax >= 0.2 ether) {... */\n    tag_291:\n        /* \"contracts/token factory/LiquidityPool.sol\":8901:8907  token0 */\n      sload(0x01)\n        /* \"contracts/token factory/LiquidityPool.sol\":8894:8940  IERC20(token0).transfer(msg.sender, amountOut) */\n      mload(0x40)\n      shl(0xe0, 0xa9059cbb)\n      dup2\n      mstore\n        /* \"contracts/token factory/LiquidityPool.sol\":8918:8928  msg.sender */\n      caller\n        /* \"contracts/token factory/LiquidityPool.sol\":8894:8940  IERC20(token0).transfer(msg.sender, amountOut) */\n      0x04\n      dup3\n      add\n        /* \"#utility.yul\":10497:10548   */\n      mstore\n        /* \"#utility.yul\":10564:10582   */\n      0x24\n      dup2\n      add\n        /* \"#utility.yul\":10557:10591   */\n      dup6\n      swap1\n      mstore\n      sub(shl(0xa0, 0x01), 0x01)\n        /* \"contracts/token factory/LiquidityPool.sol\":8901:8907  token0 */\n      swap1\n      swap2\n      and\n      swap1\n        /* \"contracts/token factory/LiquidityPool.sol\":8894:8917  IERC20(token0).transfer */\n      0xa9059cbb\n      swap1\n        /* \"#utility.yul\":10470:10488   */\n      0x44\n      add\n        /* \"contracts/token factory/LiquidityPool.sol\":8894:8940  IERC20(token0).transfer(msg.sender, amountOut) */\n      0x20\n      mload(0x40)\n      dup1\n      dup4\n      sub\n      dup2\n      0x00\n      dup8\n      gas\n      call\n      iszero\n      dup1\n      iszero\n      tag_307\n      jumpi\n      returndatasize\n      0x00\n      dup1\n      returndatacopy\n      revert(0x00, returndatasize)\n    tag_307:\n      pop\n      pop\n      pop\n      pop\n      mload(0x40)\n      returndatasize\n      not(0x1f)\n      0x1f\n      dup3\n      add\n      and\n      dup3\n      add\n      dup1\n      0x40\n      mstore\n      pop\n      dup2\n      add\n      swap1\n      tag_308\n      swap2\n      swap1\n      tag_214\n      jump\t// in\n    tag_308:\n        /* \"contracts/token factory/LiquidityPool.sol\":8886:8970  require(IERC20(token0).transfer(msg.sender, amountOut), \"Failed to transfer tokens\") */\n      tag_309\n      jumpi\n      mload(0x40)\n      shl(0xe5, 0x461bcd)\n      dup2\n      mstore\n        /* \"#utility.yul\":6932:6934   */\n      0x20\n        /* \"contracts/token factory/LiquidityPool.sol\":8886:8970  require(IERC20(token0).transfer(msg.sender, amountOut), \"Failed to transfer tokens\") */\n      0x04\n      dup3\n      add\n        /* \"#utility.yul\":6914:6935   */\n      mstore\n        /* \"#utility.yul\":6971:6973   */\n      0x19\n        /* \"#utility.yul\":6951:6969   */\n      0x24\n      dup3\n      add\n        /* \"#utility.yul\":6944:6974   */\n      mstore\n      shl(0x38, 0x4661696c656420746f207472616e7366657220746f6b656e73)\n        /* \"#utility.yul\":6990:7008   */\n      0x44\n      dup3\n      add\n        /* \"#utility.yul\":6983:7038   */\n      mstore\n        /* \"#utility.yul\":7055:7073   */\n      0x64\n      add\n        /* \"contracts/token factory/LiquidityPool.sol\":8886:8970  require(IERC20(token0).transfer(msg.sender, amountOut), \"Failed to transfer tokens\") */\n      tag_160\n        /* \"#utility.yul\":6730:7079   */\n      jump\n        /* \"contracts/token factory/LiquidityPool.sol\":8886:8970  require(IERC20(token0).transfer(msg.sender, amountOut), \"Failed to transfer tokens\") */\n    tag_309:\n        /* \"contracts/token factory/LiquidityPool.sol\":9000:9010  devAddress */\n      sload(0x03)\n        /* \"contracts/token factory/LiquidityPool.sol\":9000:9031  devAddress.call{value: tax}(\"\") */\n      mload(0x40)\n        /* \"contracts/token factory/LiquidityPool.sol\":8982:8994  bool taxSent */\n      0x00\n      swap2\n      sub(shl(0xa0, 0x01), 0x01)\n        /* \"contracts/token factory/LiquidityPool.sol\":9000:9010  devAddress */\n      and\n      swap1\n        /* \"contracts/token factory/LiquidityPool.sol\":9023:9026  tax */\n      dup5\n      swap1\n        /* \"contracts/token factory/LiquidityPool.sol\":8982:8994  bool taxSent */\n      dup4\n        /* \"contracts/token factory/LiquidityPool.sol\":9000:9031  devAddress.call{value: tax}(\"\") */\n      dup2\n        /* \"contracts/token factory/LiquidityPool.sol\":8982:8994  bool taxSent */\n      dup2\n        /* \"contracts/token factory/LiquidityPool.sol\":9000:9031  devAddress.call{value: tax}(\"\") */\n      dup2\n        /* \"contracts/token factory/LiquidityPool.sol\":9023:9026  tax */\n      dup6\n        /* \"contracts/token factory/LiquidityPool.sol\":9000:9010  devAddress */\n      dup8\n        /* \"contracts/token factory/LiquidityPool.sol\":9000:9031  devAddress.call{value: tax}(\"\") */\n      gas\n      call\n      swap3\n      pop\n      pop\n      pop\n      returndatasize\n      dup1\n      0x00\n      dup2\n      eq\n      tag_314\n      jumpi\n      mload(0x40)\n      swap2\n      pop\n      and(add(returndatasize, 0x3f), not(0x1f))\n      dup3\n      add\n      0x40\n      mstore\n      returndatasize\n      dup3\n      mstore\n      returndatasize\n      0x00\n      0x20\n      dup5\n      add\n      returndatacopy\n      jump(tag_313)\n    tag_314:\n      0x60\n      swap2\n      pop\n    tag_313:\n      pop\n        /* \"contracts/token factory/LiquidityPool.sol\":8981:9031  (bool taxSent, ) = devAddress.call{value: tax}(\"\") */\n      pop\n      swap1\n      pop\n        /* \"contracts/token factory/LiquidityPool.sol\":9049:9056  taxSent */\n      dup1\n        /* \"contracts/token factory/LiquidityPool.sol\":9041:9083  require(taxSent, \"Failed to send buy tax\") */\n      tag_315\n      jumpi\n      mload(0x40)\n      shl(0xe5, 0x461bcd)\n      dup2\n      mstore\n        /* \"#utility.yul\":10804:10806   */\n      0x20\n        /* \"contracts/token factory/LiquidityPool.sol\":9041:9083  require(taxSent, \"Failed to send buy tax\") */\n      0x04\n      dup3\n      add\n        /* \"#utility.yul\":10786:10807   */\n      mstore\n        /* \"#utility.yul\":10843:10845   */\n      0x16\n        /* \"#utility.yul\":10823:10841   */\n      0x24\n      dup3\n      add\n        /* \"#utility.yul\":10816:10846   */\n      mstore\n      shl(0x53, 0x08cc2d2d8cac840e8de40e6cadcc840c4eaf240e8c2f)\n        /* \"#utility.yul\":10862:10880   */\n      0x44\n      dup3\n      add\n        /* \"#utility.yul\":10855:10907   */\n      mstore\n        /* \"#utility.yul\":10924:10942   */\n      0x64\n      add\n        /* \"contracts/token factory/LiquidityPool.sol\":9041:9083  require(taxSent, \"Failed to send buy tax\") */\n      tag_160\n        /* \"#utility.yul\":10602:10948   */\n      jump\n        /* \"contracts/token factory/LiquidityPool.sol\":9041:9083  require(taxSent, \"Failed to send buy tax\") */\n    tag_315:\n        /* \"contracts/token factory/LiquidityPool.sol\":9098:9152  TokensPurchased(msg.sender, msg.value, amountOut, tax) */\n      0x40\n      dup1\n      mload\n        /* \"contracts/token factory/LiquidityPool.sol\":9126:9135  msg.value */\n      callvalue\n        /* \"#utility.yul\":7635:7660   */\n      dup2\n      mstore\n        /* \"#utility.yul\":7691:7693   */\n      0x20\n        /* \"#utility.yul\":7676:7694   */\n      dup2\n      add\n        /* \"#utility.yul\":7669:7703   */\n      dup7\n      swap1\n      mstore\n        /* \"#utility.yul\":7719:7737   */\n      swap1\n      dup2\n      add\n        /* \"#utility.yul\":7712:7746   */\n      dup5\n      swap1\n      mstore\n        /* \"contracts/token factory/LiquidityPool.sol\":9114:9124  msg.sender */\n      caller\n      swap1\n        /* \"contracts/token factory/LiquidityPool.sol\":9098:9152  TokensPurchased(msg.sender, msg.value, amountOut, tax) */\n      0x0d1a0d5e3d583a0e92588799dd06e50fd78c07daf05f0cc06d7b848b1ca445f1\n      swap1\n        /* \"#utility.yul\":7623:7625   */\n      0x60\n        /* \"#utility.yul\":7608:7626   */\n      add\n        /* \"contracts/token factory/LiquidityPool.sol\":9098:9152  TokensPurchased(msg.sender, msg.value, amountOut, tax) */\n      mload(0x40)\n      dup1\n      swap2\n      sub\n      swap1\n      log2\n        /* \"contracts/token factory/LiquidityPool.sol\":7528:9159  {... */\n      pop\n      pop\n      pop\n        /* \"@openzeppelin/contracts/utils/ReentrancyGuard.sol\":2542:2562  _nonReentrantAfter() */\n      tag_319\n        /* \"@openzeppelin/contracts/utils/ReentrancyGuard.sol\":1857:1858  1 */\n      0x01\n        /* \"@openzeppelin/contracts/utils/ReentrancyGuard.sol\":3068:3075  _status */\n      0x00\n        /* \"@openzeppelin/contracts/utils/ReentrancyGuard.sol\":3068:3089  _status = NOT_ENTERED */\n      sstore\n        /* \"@openzeppelin/contracts/utils/ReentrancyGuard.sol\":2888:3096  function _nonReentrantAfter() private {... */\n      jump\n        /* \"@openzeppelin/contracts/utils/ReentrancyGuard.sol\":2542:2562  _nonReentrantAfter() */\n    tag_319:\n        /* \"contracts/token factory/LiquidityPool.sol\":7414:9159  function buyToken()... */\n      swap1\n      jump\t// out\n        /* \"contracts/token factory/LiquidityPool.sol\":10851:10905  function forceMigration() external  {... */\n    tag_140:\n        /* \"contracts/token factory/LiquidityPool.sol\":10893:10902  migrate() */\n      tag_321\n        /* \"contracts/token factory/LiquidityPool.sol\":10893:10900  migrate */\n      tag_322\n        /* \"contracts/token factory/LiquidityPool.sol\":10893:10902  migrate() */\n      jump\t// in\n    tag_321:\n        /* \"contracts/token factory/LiquidityPool.sol\":10851:10905  function forceMigration() external  {... */\n      jump\t// out\n        /* \"contracts/token factory/LiquidityPool.sol\":4249:4401  function toggleAutoMigration(bool enable) external onlyFactory {... */\n    tag_145:\n        /* \"contracts/token factory/LiquidityPool.sol\":2797:2809  tokenFactory */\n      and(sub(shl(0xa0, 0x01), 0x01), sload(0x02))\n        /* \"contracts/token factory/LiquidityPool.sol\":2783:2793  msg.sender */\n      caller\n        /* \"contracts/token factory/LiquidityPool.sol\":2783:2809  msg.sender == tokenFactory */\n      eq\n        /* \"contracts/token factory/LiquidityPool.sol\":2775:2844  require(msg.sender == tokenFactory, \"Caller is not the TokenFactory\") */\n      tag_324\n      jumpi\n      mload(0x40)\n      shl(0xe5, 0x461bcd)\n      dup2\n      mstore\n      0x04\n      add\n      tag_160\n      swap1\n      tag_161\n      jump\t// in\n    tag_324:\n        /* \"contracts/token factory/LiquidityPool.sol\":4322:4342  autoMigrationEnabled */\n      0x0b\n        /* \"contracts/token factory/LiquidityPool.sol\":4322:4351  autoMigrationEnabled = enable */\n      dup1\n      sload\n      dup3\n      iszero\n      iszero\n      0x0100\n      mul\n      not(0xff00)\n      swap1\n      swap2\n      and\n      or\n      swap1\n      sstore\n        /* \"contracts/token factory/LiquidityPool.sol\":4366:4394  AutoMigrationToggled(enable) */\n      mload(0x40)\n      0xe7e0bd136ab3b57e3e925774a811e2482df79072fa45d011a4f088abfcc209d2\n      swap1\n      tag_171\n      swap1\n        /* \"contracts/token factory/LiquidityPool.sol\":4345:4351  enable */\n      dup4\n        /* \"#utility.yul\":1441:1455   */\n      iszero\n        /* \"#utility.yul\":1434:1456   */\n      iszero\n        /* \"#utility.yul\":1416:1457   */\n      dup2\n      mstore\n        /* \"#utility.yul\":1404:1406   */\n      0x20\n        /* \"#utility.yul\":1389:1407   */\n      add\n      swap1\n        /* \"#utility.yul\":1276:1463   */\n      jump\n        /* \"@openzeppelin/contracts/utils/ReentrancyGuard.sol\":2575:2882  function _nonReentrantBefore() private {... */\n    tag_174:\n        /* \"@openzeppelin/contracts/utils/ReentrancyGuard.sol\":1899:1900  2 */\n      0x02\n        /* \"@openzeppelin/contracts/utils/ReentrancyGuard.sol\":2702:2709  _status */\n      sload(0x00)\n        /* \"@openzeppelin/contracts/utils/ReentrancyGuard.sol\":2702:2720  _status == ENTERED */\n      sub\n        /* \"@openzeppelin/contracts/utils/ReentrancyGuard.sol\":2698:2784  if (_status == ENTERED) {... */\n      tag_329\n      jumpi\n        /* \"@openzeppelin/contracts/utils/ReentrancyGuard.sol\":2743:2773  ReentrancyGuardReentrantCall() */\n      mload(0x40)\n      shl(0xe0, 0x3ee5aeb5)\n      dup2\n      mstore\n      0x04\n      add\n      mload(0x40)\n      dup1\n      swap2\n      sub\n      swap1\n      revert\n        /* \"@openzeppelin/contracts/utils/ReentrancyGuard.sol\":2698:2784  if (_status == ENTERED) {... */\n    tag_329:\n        /* \"@openzeppelin/contracts/utils/ReentrancyGuard.sol\":1899:1900  2 */\n      0x02\n        /* \"@openzeppelin/contracts/utils/ReentrancyGuard.sol\":2858:2865  _status */\n      0x00\n        /* \"@openzeppelin/contracts/utils/ReentrancyGuard.sol\":2858:2875  _status = ENTERED */\n      sstore\n        /* \"@openzeppelin/contracts/utils/ReentrancyGuard.sol\":2575:2882  function _nonReentrantBefore() private {... */\n      jump\t// out\n        /* \"contracts/token factory/LiquidityPool.sol\":11385:11577  function sqrt(uint256 x) internal pure returns (uint256) {... */\n    tag_260:\n        /* \"contracts/token factory/LiquidityPool.sol\":11433:11440  uint256 */\n      0x00\n      dup1\n        /* \"contracts/token factory/LiquidityPool.sol\":11470:11471  2 */\n      0x02\n        /* \"contracts/token factory/LiquidityPool.sol\":11461:11466  x + 1 */\n      tag_332\n        /* \"contracts/token factory/LiquidityPool.sol\":11461:11462  x */\n      dup5\n        /* \"contracts/token factory/LiquidityPool.sol\":11465:11466  1 */\n      0x01\n        /* \"contracts/token factory/LiquidityPool.sol\":11461:11466  x + 1 */\n      tag_183\n      jump\t// in\n    tag_332:\n        /* \"contracts/token factory/LiquidityPool.sol\":11460:11471  (x + 1) / 2 */\n      tag_333\n      swap2\n      swap1\n      tag_190\n      jump\t// in\n    tag_333:\n        /* \"contracts/token factory/LiquidityPool.sol\":11448:11471  uint256 z = (x + 1) / 2 */\n      swap1\n      pop\n        /* \"contracts/token factory/LiquidityPool.sol\":11489:11490  x */\n      dup3\n        /* \"contracts/token factory/LiquidityPool.sol\":11496:11561  while (z < y) {... */\n    tag_334:\n        /* \"contracts/token factory/LiquidityPool.sol\":11507:11508  y */\n      dup1\n        /* \"contracts/token factory/LiquidityPool.sol\":11503:11504  z */\n      dup3\n        /* \"contracts/token factory/LiquidityPool.sol\":11503:11508  z < y */\n      lt\n        /* \"contracts/token factory/LiquidityPool.sol\":11496:11561  while (z < y) {... */\n      iszero\n      tag_335\n      jumpi\n      pop\n        /* \"contracts/token factory/LiquidityPool.sol\":11524:11525  z */\n      dup1\n        /* \"contracts/token factory/LiquidityPool.sol\":11553:11554  2 */\n      0x02\n        /* \"contracts/token factory/LiquidityPool.sol\":11524:11525  z */\n      dup2\n        /* \"contracts/token factory/LiquidityPool.sol\":11540:11545  x / z */\n      tag_336\n        /* \"contracts/token factory/LiquidityPool.sol\":11524:11525  z */\n      dup2\n        /* \"contracts/token factory/LiquidityPool.sol\":11540:11541  x */\n      dup8\n        /* \"contracts/token factory/LiquidityPool.sol\":11540:11545  x / z */\n      tag_190\n      jump\t// in\n    tag_336:\n        /* \"contracts/token factory/LiquidityPool.sol\":11540:11549  x / z + z */\n      tag_337\n      swap2\n      swap1\n      tag_183\n      jump\t// in\n    tag_337:\n        /* \"contracts/token factory/LiquidityPool.sol\":11539:11554  (x / z + z) / 2 */\n      tag_338\n      swap2\n      swap1\n      tag_190\n      jump\t// in\n    tag_338:\n        /* \"contracts/token factory/LiquidityPool.sol\":11535:11554  z = (x / z + z) / 2 */\n      swap2\n      pop\n        /* \"contracts/token factory/LiquidityPool.sol\":11496:11561  while (z < y) {... */\n      jump(tag_334)\n    tag_335:\n        /* \"contracts/token factory/LiquidityPool.sol\":11573:11574  y */\n      swap4\n        /* \"contracts/token factory/LiquidityPool.sol\":11385:11577  function sqrt(uint256 x) internal pure returns (uint256) {... */\n      swap3\n      pop\n      pop\n      pop\n      jump\t// out\n        /* \"contracts/token factory/LiquidityPool.sol\":6371:7403  function migrate() internal nonReentrant {... */\n    tag_322:\n        /* \"@openzeppelin/contracts/utils/ReentrancyGuard.sol\":2500:2521  _nonReentrantBefore() */\n      tag_340\n        /* \"@openzeppelin/contracts/utils/ReentrancyGuard.sol\":2500:2519  _nonReentrantBefore */\n      tag_174\n        /* \"@openzeppelin/contracts/utils/ReentrancyGuard.sol\":2500:2521  _nonReentrantBefore() */\n      jump\t// in\n    tag_340:\n        /* \"contracts/token factory/LiquidityPool.sol\":6427:6444  migratedToAlgebra */\n      and(0xff, sload(0x0b))\n        /* \"contracts/token factory/LiquidityPool.sol\":6426:6444  !migratedToAlgebra */\n      iszero\n        /* \"contracts/token factory/LiquidityPool.sol\":6418:6476  require(!migratedToAlgebra, \"Already migrated to Algebra\") */\n      tag_342\n      jumpi\n      mload(0x40)\n      shl(0xe5, 0x461bcd)\n      dup2\n      mstore\n        /* \"#utility.yul\":11155:11157   */\n      0x20\n        /* \"contracts/token factory/LiquidityPool.sol\":6418:6476  require(!migratedToAlgebra, \"Already migrated to Algebra\") */\n      0x04\n      dup3\n      add\n        /* \"#utility.yul\":11137:11158   */\n      mstore\n        /* \"#utility.yul\":11194:11196   */\n      0x1b\n        /* \"#utility.yul\":11174:11192   */\n      0x24\n      dup3\n      add\n        /* \"#utility.yul\":11167:11197   */\n      mstore\n        /* \"#utility.yul\":11233:11262   */\n      0x416c7265616479206d6967726174656420746f20416c67656272610000000000\n        /* \"#utility.yul\":11213:11231   */\n      0x44\n      dup3\n      add\n        /* \"#utility.yul\":11206:11263   */\n      mstore\n        /* \"#utility.yul\":11280:11298   */\n      0x64\n      add\n        /* \"contracts/token factory/LiquidityPool.sol\":6418:6476  require(!migratedToAlgebra, \"Already migrated to Algebra\") */\n      tag_160\n        /* \"#utility.yul\":10953:11304   */\n      jump\n        /* \"contracts/token factory/LiquidityPool.sol\":6418:6476  require(!migratedToAlgebra, \"Already migrated to Algebra\") */\n    tag_342:\n        /* \"contracts/token factory/LiquidityPool.sol\":6498:6506  migrator */\n      and(sub(shl(0xa0, 0x01), 0x01), sload(0x05))\n        /* \"contracts/token factory/LiquidityPool.sol\":6482:6550  require(address(migrator) != address(0), \"Migrator address not set\") */\n      tag_345\n      jumpi\n      mload(0x40)\n      shl(0xe5, 0x461bcd)\n      dup2\n      mstore\n        /* \"#utility.yul\":11511:11513   */\n      0x20\n        /* \"contracts/token factory/LiquidityPool.sol\":6482:6550  require(address(migrator) != address(0), \"Migrator address not set\") */\n      0x04\n      dup3\n      add\n        /* \"#utility.yul\":11493:11514   */\n      mstore\n        /* \"#utility.yul\":11550:11552   */\n      0x18\n        /* \"#utility.yul\":11530:11548   */\n      0x24\n      dup3\n      add\n        /* \"#utility.yul\":11523:11553   */\n      mstore\n        /* \"#utility.yul\":11589:11615   */\n      0x4d69677261746f722061646472657373206e6f74207365740000000000000000\n        /* \"#utility.yul\":11569:11587   */\n      0x44\n      dup3\n      add\n        /* \"#utility.yul\":11562:11616   */\n      mstore\n        /* \"#utility.yul\":11633:11651   */\n      0x64\n      add\n        /* \"contracts/token factory/LiquidityPool.sol\":6482:6550  require(address(migrator) != address(0), \"Migrator address not set\") */\n      tag_160\n        /* \"#utility.yul\":11309:11657   */\n      jump\n        /* \"contracts/token factory/LiquidityPool.sol\":6482:6550  require(address(migrator) != address(0), \"Migrator address not set\") */\n    tag_345:\n        /* \"contracts/token factory/LiquidityPool.sol\":6572:6578  token0 */\n      and(sub(shl(0xa0, 0x01), 0x01), sload(0x01))\n        /* \"contracts/token factory/LiquidityPool.sol\":6556:6611  require(address(token0) != address(0), \"Token not set\") */\n      tag_348\n      jumpi\n      mload(0x40)\n      shl(0xe5, 0x461bcd)\n      dup2\n      mstore\n        /* \"#utility.yul\":11864:11866   */\n      0x20\n        /* \"contracts/token factory/LiquidityPool.sol\":6556:6611  require(address(token0) != address(0), \"Token not set\") */\n      0x04\n      dup3\n      add\n        /* \"#utility.yul\":11846:11867   */\n      mstore\n        /* \"#utility.yul\":11903:11905   */\n      0x0d\n        /* \"#utility.yul\":11883:11901   */\n      0x24\n      dup3\n      add\n        /* \"#utility.yul\":11876:11906   */\n      mstore\n      shl(0x9a, 0x151bdad95b881b9bdd081cd95d)\n        /* \"#utility.yul\":11922:11940   */\n      0x44\n      dup3\n      add\n        /* \"#utility.yul\":11915:11958   */\n      mstore\n        /* \"#utility.yul\":11975:11993   */\n      0x64\n      add\n        /* \"contracts/token factory/LiquidityPool.sol\":6556:6611  require(address(token0) != address(0), \"Token not set\") */\n      tag_160\n        /* \"#utility.yul\":11662:11999   */\n      jump\n        /* \"contracts/token factory/LiquidityPool.sol\":6556:6611  require(address(token0) != address(0), \"Token not set\") */\n    tag_348:\n        /* \"contracts/token factory/LiquidityPool.sol\":6705:6753  MigrationStarted(address(this), block.timestamp) */\n      mload(0x40)\n        /* \"contracts/token factory/LiquidityPool.sol\":6737:6752  block.timestamp */\n      timestamp\n        /* \"#utility.yul\":160:185   */\n      dup2\n      mstore\n        /* \"contracts/token factory/LiquidityPool.sol\":6730:6734  this */\n      address\n      swap1\n        /* \"contracts/token factory/LiquidityPool.sol\":6705:6753  MigrationStarted(address(this), block.timestamp) */\n      0x06fe31fe06376e41620b746f0ae12f6a52c0f80e8204ff068cd22417e94af545\n      swap1\n        /* \"#utility.yul\":148:150   */\n      0x20\n        /* \"#utility.yul\":133:151   */\n      add\n        /* \"contracts/token factory/LiquidityPool.sol\":6705:6753  MigrationStarted(address(this), block.timestamp) */\n      mload(0x40)\n      dup1\n      swap2\n      sub\n      swap1\n      log2\n        /* \"contracts/token factory/LiquidityPool.sol\":6824:6830  token0 */\n      sload(0x01)\n        /* \"contracts/token factory/LiquidityPool.sol\":6840:6848  migrator */\n      sload(0x05)\n        /* \"contracts/token factory/LiquidityPool.sol\":6850:6858  reserve0 */\n      sload(0x07)\n        /* \"contracts/token factory/LiquidityPool.sol\":6817:6859  IERC20(token0).approve(migrator, reserve0) */\n      mload(0x40)\n      shl(0xe0, 0x095ea7b3)\n      dup2\n      mstore\n      sub(shl(0xa0, 0x01), 0x01)\n        /* \"contracts/token factory/LiquidityPool.sol\":6840:6848  migrator */\n      swap3\n      dup4\n      and\n        /* \"contracts/token factory/LiquidityPool.sol\":6817:6859  IERC20(token0).approve(migrator, reserve0) */\n      0x04\n      dup3\n      add\n        /* \"#utility.yul\":10497:10548   */\n      mstore\n        /* \"#utility.yul\":10564:10582   */\n      0x24\n      dup2\n      add\n        /* \"#utility.yul\":10557:10591   */\n      swap2\n      swap1\n      swap2\n      mstore\n        /* \"contracts/token factory/LiquidityPool.sol\":6824:6830  token0 */\n      swap2\n      and\n      swap1\n        /* \"contracts/token factory/LiquidityPool.sol\":6817:6839  IERC20(token0).approve */\n      0x095ea7b3\n      swap1\n        /* \"#utility.yul\":10470:10488   */\n      0x44\n      add\n        /* \"contracts/token factory/LiquidityPool.sol\":6817:6859  IERC20(token0).approve(migrator, reserve0) */\n      0x20\n      mload(0x40)\n      dup1\n      dup4\n      sub\n      dup2\n      0x00\n      dup8\n      gas\n      call\n      iszero\n      dup1\n      iszero\n      tag_354\n      jumpi\n      returndatasize\n      0x00\n      dup1\n      returndatacopy\n      revert(0x00, returndatasize)\n    tag_354:\n      pop\n      pop\n      pop\n      pop\n      mload(0x40)\n      returndatasize\n      not(0x1f)\n      0x1f\n      dup3\n      add\n      and\n      dup3\n      add\n      dup1\n      0x40\n      mstore\n      pop\n      dup2\n      add\n      swap1\n      tag_355\n      swap2\n      swap1\n      tag_214\n      jump\t// in\n    tag_355:\n      pop\n        /* \"contracts/token factory/LiquidityPool.sol\":7115:7123  migrator */\n      sload(0x05)\n        /* \"contracts/token factory/LiquidityPool.sol\":7150:7158  reserve1 */\n      sload(0x08)\n        /* \"contracts/token factory/LiquidityPool.sol\":7115:7123  migrator */\n      0x01\n        /* \"contracts/token factory/LiquidityPool.sol\":7168:7174  token0 */\n      sload\n        /* \"contracts/token factory/LiquidityPool.sol\":7177:7185  reserve0 */\n      sload(0x07)\n        /* \"contracts/token factory/LiquidityPool.sol\":7105:7186  IMigrator(migrator).initiateMigration{value: reserve1}(address(token0), reserve0) */\n      mload(0x40)\n      shl(0xe3, 0x031faf0b)\n      dup2\n      mstore\n      sub(shl(0xa0, 0x01), 0x01)\n        /* \"contracts/token factory/LiquidityPool.sol\":7168:7174  token0 */\n      swap3\n      dup4\n      and\n        /* \"contracts/token factory/LiquidityPool.sol\":7105:7186  IMigrator(migrator).initiateMigration{value: reserve1}(address(token0), reserve0) */\n      0x04\n      dup3\n      add\n        /* \"#utility.yul\":10497:10548   */\n      mstore\n        /* \"#utility.yul\":10564:10582   */\n      0x24\n      dup2\n      add\n        /* \"#utility.yul\":10557:10591   */\n      swap2\n      swap1\n      swap2\n      mstore\n        /* \"contracts/token factory/LiquidityPool.sol\":7083:7102  address poolAddress */\n      0x00\n      swap4\n        /* \"contracts/token factory/LiquidityPool.sol\":7115:7123  migrator */\n      swap2\n      swap1\n      swap2\n      and\n      swap2\n        /* \"contracts/token factory/LiquidityPool.sol\":7105:7142  IMigrator(migrator).initiateMigration */\n      0x18fd7858\n      swap2\n        /* \"#utility.yul\":10470:10488   */\n      0x44\n      add\n        /* \"contracts/token factory/LiquidityPool.sol\":7105:7186  IMigrator(migrator).initiateMigration{value: reserve1}(address(token0), reserve0) */\n      0x20\n      mload(0x40)\n      dup1\n      dup4\n      sub\n      dup2\n      dup6\n      dup9\n      gas\n      call\n      iszero\n      dup1\n      iszero\n      tag_358\n      jumpi\n      returndatasize\n      0x00\n      dup1\n      returndatacopy\n      revert(0x00, returndatasize)\n    tag_358:\n      pop\n      pop\n      pop\n      pop\n      pop\n      mload(0x40)\n      returndatasize\n      not(0x1f)\n      0x1f\n      dup3\n      add\n      and\n      dup3\n      add\n      dup1\n      0x40\n      mstore\n      pop\n      dup2\n      add\n      swap1\n      tag_359\n      swap2\n      swap1\n      tag_360\n      jump\t// in\n    tag_359:\n        /* \"contracts/token factory/LiquidityPool.sol\":7083:7186  address poolAddress = IMigrator(migrator).initiateMigration{value: reserve1}(address(token0), reserve0) */\n      swap1\n      pop\n      sub(shl(0xa0, 0x01), 0x01)\n        /* \"contracts/token factory/LiquidityPool.sol\":7200:7225  poolAddress != address(0) */\n      dup2\n      and\n        /* \"contracts/token factory/LiquidityPool.sol\":7192:7268  require(poolAddress != address(0), \"Migration failed: pool address is zero\") */\n      tag_361\n      jumpi\n      mload(0x40)\n      shl(0xe5, 0x461bcd)\n      dup2\n      mstore\n        /* \"#utility.yul\":12462:12464   */\n      0x20\n        /* \"contracts/token factory/LiquidityPool.sol\":7192:7268  require(poolAddress != address(0), \"Migration failed: pool address is zero\") */\n      0x04\n      dup3\n      add\n        /* \"#utility.yul\":12444:12465   */\n      mstore\n        /* \"#utility.yul\":12501:12503   */\n      0x26\n        /* \"#utility.yul\":12481:12499   */\n      0x24\n      dup3\n      add\n        /* \"#utility.yul\":12474:12504   */\n      mstore\n        /* \"#utility.yul\":12540:12574   */\n      0x4d6967726174696f6e206661696c65643a20706f6f6c20616464726573732069\n        /* \"#utility.yul\":12520:12538   */\n      0x44\n      dup3\n      add\n        /* \"#utility.yul\":12513:12575   */\n      mstore\n      shl(0xd0, 0x73207a65726f)\n        /* \"#utility.yul\":12591:12609   */\n      0x64\n      dup3\n      add\n        /* \"#utility.yul\":12584:12620   */\n      mstore\n        /* \"#utility.yul\":12637:12656   */\n      0x84\n      add\n        /* \"contracts/token factory/LiquidityPool.sol\":7192:7268  require(poolAddress != address(0), \"Migration failed: pool address is zero\") */\n      tag_160\n        /* \"#utility.yul\":12260:12662   */\n      jump\n        /* \"contracts/token factory/LiquidityPool.sol\":7192:7268  require(poolAddress != address(0), \"Migration failed: pool address is zero\") */\n    tag_361:\n        /* \"contracts/token factory/LiquidityPool.sol\":7275:7293  algebraPoolAddress */\n      0x06\n        /* \"contracts/token factory/LiquidityPool.sol\":7275:7307  algebraPoolAddress = poolAddress */\n      dup1\n      sload\n      sub(shl(0xa0, 0x01), 0x01)\n      dup4\n      and\n      not(sub(shl(0xa0, 0x01), 0x01))\n      swap1\n      swap2\n      and\n      dup2\n      or\n      swap1\n      swap2\n      sstore\n        /* \"contracts/token factory/LiquidityPool.sol\":7313:7330  migratedToAlgebra */\n      0x0b\n        /* \"contracts/token factory/LiquidityPool.sol\":7313:7337  migratedToAlgebra = true */\n      dup1\n      sload\n      not(0xff)\n      and\n        /* \"contracts/token factory/LiquidityPool.sol\":7275:7307  algebraPoolAddress = poolAddress */\n      0x01\n        /* \"contracts/token factory/LiquidityPool.sol\":7313:7337  migratedToAlgebra = true */\n      or\n      swap1\n      sstore\n        /* \"contracts/token factory/LiquidityPool.sol\":7381:7389  reserve0 */\n      sload(0x07)\n        /* \"contracts/token factory/LiquidityPool.sol\":7391:7399  reserve1 */\n      sload(0x08)\n        /* \"contracts/token factory/LiquidityPool.sol\":7349:7400  MigrationCompleted(poolAddress, reserve0, reserve1) */\n      mload(0x40)\n      0x44552cbabef600cc57fcdab812e865d5184af80ea976bb4b48198dee6a24448c\n      swap3\n      tag_364\n      swap3\n        /* \"contracts/token factory/LiquidityPool.sol\":7381:7389  reserve0 */\n      swap1\n        /* \"#utility.yul\":966:991   */\n      dup3\n      mstore\n        /* \"#utility.yul\":1022:1024   */\n      0x20\n        /* \"#utility.yul\":1007:1025   */\n      dup3\n      add\n        /* \"#utility.yul\":1000:1034   */\n      mstore\n        /* \"#utility.yul\":954:956   */\n      0x40\n        /* \"#utility.yul\":939:957   */\n      add\n      swap1\n        /* \"#utility.yul\":792:1040   */\n      jump\n        /* \"contracts/token factory/LiquidityPool.sol\":7349:7400  MigrationCompleted(poolAddress, reserve0, reserve1) */\n    tag_364:\n      mload(0x40)\n      dup1\n      swap2\n      sub\n      swap1\n      log2\n        /* \"contracts/token factory/LiquidityPool.sol\":6412:7403  {... */\n      pop\n        /* \"@openzeppelin/contracts/utils/ReentrancyGuard.sol\":2542:2562  _nonReentrantAfter() */\n      tag_321\n        /* \"@openzeppelin/contracts/utils/ReentrancyGuard.sol\":1857:1858  1 */\n      0x01\n        /* \"@openzeppelin/contracts/utils/ReentrancyGuard.sol\":3068:3075  _status */\n      0x00\n        /* \"@openzeppelin/contracts/utils/ReentrancyGuard.sol\":3068:3089  _status = NOT_ENTERED */\n      sstore\n        /* \"@openzeppelin/contracts/utils/ReentrancyGuard.sol\":2888:3096  function _nonReentrantAfter() private {... */\n      jump\n        /* \"#utility.yul\":196:327   */\n    tag_366:\n      sub(shl(0xa0, 0x01), 0x01)\n        /* \"#utility.yul\":271:302   */\n      dup2\n      and\n        /* \"#utility.yul\":261:303   */\n      dup2\n      eq\n        /* \"#utility.yul\":251:321   */\n      tag_372\n      jumpi\n        /* \"#utility.yul\":317:318   */\n      0x00\n        /* \"#utility.yul\":314:315   */\n      dup1\n        /* \"#utility.yul\":307:319   */\n      revert\n        /* \"#utility.yul\":251:321   */\n    tag_372:\n        /* \"#utility.yul\":196:327   */\n      pop\n      jump\t// out\n        /* \"#utility.yul\":332:579   */\n    tag_45:\n        /* \"#utility.yul\":391:397   */\n      0x00\n        /* \"#utility.yul\":444:446   */\n      0x20\n        /* \"#utility.yul\":432:441   */\n      dup3\n        /* \"#utility.yul\":423:430   */\n      dup5\n        /* \"#utility.yul\":419:442   */\n      sub\n        /* \"#utility.yul\":415:447   */\n      slt\n        /* \"#utility.yul\":412:464   */\n      iszero\n      tag_374\n      jumpi\n        /* \"#utility.yul\":460:461   */\n      0x00\n        /* \"#utility.yul\":457:458   */\n      dup1\n        /* \"#utility.yul\":450:462   */\n      revert\n        /* \"#utility.yul\":412:464   */\n    tag_374:\n        /* \"#utility.yul\":499:508   */\n      dup2\n        /* \"#utility.yul\":486:509   */\n      calldataload\n        /* \"#utility.yul\":518:549   */\n      tag_335\n        /* \"#utility.yul\":543:548   */\n      dup2\n        /* \"#utility.yul\":518:549   */\n      tag_366\n      jump\t// in\n        /* \"#utility.yul\":1045:1271   */\n    tag_68:\n        /* \"#utility.yul\":1104:1110   */\n      0x00\n        /* \"#utility.yul\":1157:1159   */\n      0x20\n        /* \"#utility.yul\":1145:1154   */\n      dup3\n        /* \"#utility.yul\":1136:1143   */\n      dup5\n        /* \"#utility.yul\":1132:1155   */\n      sub\n        /* \"#utility.yul\":1128:1160   */\n      slt\n        /* \"#utility.yul\":1125:1177   */\n      iszero\n      tag_379\n      jumpi\n        /* \"#utility.yul\":1173:1174   */\n      0x00\n        /* \"#utility.yul\":1170:1171   */\n      dup1\n        /* \"#utility.yul\":1163:1175   */\n      revert\n        /* \"#utility.yul\":1125:1177   */\n    tag_379:\n      pop\n        /* \"#utility.yul\":1218:1241   */\n      calldataload\n      swap2\n        /* \"#utility.yul\":1045:1271   */\n      swap1\n      pop\n      jump\t// out\n        /* \"#utility.yul\":1468:1586   */\n    tag_367:\n        /* \"#utility.yul\":1554:1559   */\n      dup1\n        /* \"#utility.yul\":1547:1560   */\n      iszero\n        /* \"#utility.yul\":1540:1561   */\n      iszero\n        /* \"#utility.yul\":1533:1538   */\n      dup2\n        /* \"#utility.yul\":1530:1562   */\n      eq\n        /* \"#utility.yul\":1520:1580   */\n      tag_372\n      jumpi\n        /* \"#utility.yul\":1576:1577   */\n      0x00\n        /* \"#utility.yul\":1573:1574   */\n      dup1\n        /* \"#utility.yul\":1566:1578   */\n      revert\n        /* \"#utility.yul\":1591:2477   */\n    tag_126:\n        /* \"#utility.yul\":1692:1698   */\n      0x00\n        /* \"#utility.yul\":1700:1706   */\n      dup1\n        /* \"#utility.yul\":1708:1714   */\n      0x00\n        /* \"#utility.yul\":1716:1722   */\n      dup1\n        /* \"#utility.yul\":1724:1730   */\n      0x00\n        /* \"#utility.yul\":1732:1738   */\n      dup1\n        /* \"#utility.yul\":1785:1788   */\n      0xc0\n        /* \"#utility.yul\":1773:1782   */\n      dup8\n        /* \"#utility.yul\":1764:1771   */\n      dup10\n        /* \"#utility.yul\":1760:1783   */\n      sub\n        /* \"#utility.yul\":1756:1789   */\n      slt\n        /* \"#utility.yul\":1753:1806   */\n      iszero\n      tag_384\n      jumpi\n        /* \"#utility.yul\":1802:1803   */\n      0x00\n        /* \"#utility.yul\":1799:1800   */\n      dup1\n        /* \"#utility.yul\":1792:1804   */\n      revert\n        /* \"#utility.yul\":1753:1806   */\n    tag_384:\n        /* \"#utility.yul\":1841:1850   */\n      dup7\n        /* \"#utility.yul\":1828:1851   */\n      calldataload\n        /* \"#utility.yul\":1860:1891   */\n      tag_385\n        /* \"#utility.yul\":1885:1890   */\n      dup2\n        /* \"#utility.yul\":1860:1891   */\n      tag_366\n      jump\t// in\n    tag_385:\n        /* \"#utility.yul\":1910:1915   */\n      swap6\n      pop\n        /* \"#utility.yul\":1988:1990   */\n      0x20\n        /* \"#utility.yul\":1973:1991   */\n      dup8\n      add\n        /* \"#utility.yul\":1960:1992   */\n      calldataload\n      swap5\n      pop\n        /* \"#utility.yul\":2091:2093   */\n      0x40\n        /* \"#utility.yul\":2076:2094   */\n      dup8\n      add\n        /* \"#utility.yul\":2063:2095   */\n      calldataload\n      swap4\n      pop\n        /* \"#utility.yul\":2194:2196   */\n      0x60\n        /* \"#utility.yul\":2179:2197   */\n      dup8\n      add\n        /* \"#utility.yul\":2166:2198   */\n      calldataload\n      swap3\n      pop\n        /* \"#utility.yul\":2276:2279   */\n      0x80\n        /* \"#utility.yul\":2261:2280   */\n      dup8\n      add\n        /* \"#utility.yul\":2248:2281   */\n      calldataload\n        /* \"#utility.yul\":2290:2323   */\n      tag_386\n        /* \"#utility.yul\":2248:2281   */\n      dup2\n        /* \"#utility.yul\":2290:2323   */\n      tag_366\n      jump\t// in\n    tag_386:\n        /* \"#utility.yul\":2342:2349   */\n      swap2\n      pop\n        /* \"#utility.yul\":2401:2404   */\n      0xa0\n        /* \"#utility.yul\":2386:2405   */\n      dup8\n      add\n        /* \"#utility.yul\":2373:2406   */\n      calldataload\n        /* \"#utility.yul\":2415:2445   */\n      tag_387\n        /* \"#utility.yul\":2373:2406   */\n      dup2\n        /* \"#utility.yul\":2415:2445   */\n      tag_367\n      jump\t// in\n    tag_387:\n        /* \"#utility.yul\":2464:2471   */\n      dup1\n        /* \"#utility.yul\":2454:2471   */\n      swap2\n      pop\n      pop\n        /* \"#utility.yul\":1591:2477   */\n      swap3\n      swap6\n      pop\n      swap3\n      swap6\n      pop\n      swap3\n      swap6\n      jump\t// out\n        /* \"#utility.yul\":2482:2828   */\n    tag_131:\n        /* \"#utility.yul\":2550:2556   */\n      0x00\n        /* \"#utility.yul\":2558:2564   */\n      dup1\n        /* \"#utility.yul\":2611:2613   */\n      0x40\n        /* \"#utility.yul\":2599:2608   */\n      dup4\n        /* \"#utility.yul\":2590:2597   */\n      dup6\n        /* \"#utility.yul\":2586:2609   */\n      sub\n        /* \"#utility.yul\":2582:2614   */\n      slt\n        /* \"#utility.yul\":2579:2631   */\n      iszero\n      tag_389\n      jumpi\n        /* \"#utility.yul\":2627:2628   */\n      0x00\n        /* \"#utility.yul\":2624:2625   */\n      dup1\n        /* \"#utility.yul\":2617:2629   */\n      revert\n        /* \"#utility.yul\":2579:2631   */\n    tag_389:\n      pop\n      pop\n        /* \"#utility.yul\":2672:2695   */\n      dup1\n      calldataload\n      swap3\n        /* \"#utility.yul\":2792:2794   */\n      0x20\n        /* \"#utility.yul\":2777:2795   */\n      swap1\n      swap2\n      add\n        /* \"#utility.yul\":2764:2796   */\n      calldataload\n      swap2\n      pop\n        /* \"#utility.yul\":2482:2828   */\n      jump\t// out\n        /* \"#utility.yul\":3041:3282   */\n    tag_144:\n        /* \"#utility.yul\":3097:3103   */\n      0x00\n        /* \"#utility.yul\":3150:3152   */\n      0x20\n        /* \"#utility.yul\":3138:3147   */\n      dup3\n        /* \"#utility.yul\":3129:3136   */\n      dup5\n        /* \"#utility.yul\":3125:3148   */\n      sub\n        /* \"#utility.yul\":3121:3153   */\n      slt\n        /* \"#utility.yul\":3118:3170   */\n      iszero\n      tag_392\n      jumpi\n        /* \"#utility.yul\":3166:3167   */\n      0x00\n        /* \"#utility.yul\":3163:3164   */\n      dup1\n        /* \"#utility.yul\":3156:3168   */\n      revert\n        /* \"#utility.yul\":3118:3170   */\n    tag_392:\n        /* \"#utility.yul\":3205:3214   */\n      dup2\n        /* \"#utility.yul\":3192:3215   */\n      calldataload\n        /* \"#utility.yul\":3224:3252   */\n      tag_335\n        /* \"#utility.yul\":3246:3251   */\n      dup2\n        /* \"#utility.yul\":3224:3252   */\n      tag_367\n      jump\t// in\n        /* \"#utility.yul\":3287:3641   */\n    tag_161:\n        /* \"#utility.yul\":3489:3491   */\n      0x20\n        /* \"#utility.yul\":3471:3492   */\n      dup1\n      dup3\n      mstore\n        /* \"#utility.yul\":3528:3530   */\n      0x1e\n        /* \"#utility.yul\":3508:3526   */\n      swap1\n      dup3\n      add\n        /* \"#utility.yul\":3501:3531   */\n      mstore\n        /* \"#utility.yul\":3567:3599   */\n      0x43616c6c6572206973206e6f742074686520546f6b656e466163746f72790000\n        /* \"#utility.yul\":3562:3564   */\n      0x40\n        /* \"#utility.yul\":3547:3565   */\n      dup3\n      add\n        /* \"#utility.yul\":3540:3600   */\n      mstore\n        /* \"#utility.yul\":3632:3634   */\n      0x60\n        /* \"#utility.yul\":3617:3635   */\n      add\n      swap1\n        /* \"#utility.yul\":3287:3641   */\n      jump\t// out\n        /* \"#utility.yul\":4752:4879   */\n    tag_368:\n        /* \"#utility.yul\":4813:4823   */\n      0x4e487b71\n        /* \"#utility.yul\":4808:4811   */\n      0xe0\n        /* \"#utility.yul\":4804:4824   */\n      shl\n        /* \"#utility.yul\":4801:4802   */\n      0x00\n        /* \"#utility.yul\":4794:4825   */\n      mstore\n        /* \"#utility.yul\":4844:4848   */\n      0x11\n        /* \"#utility.yul\":4841:4842   */\n      0x04\n        /* \"#utility.yul\":4834:4849   */\n      mstore\n        /* \"#utility.yul\":4868:4872   */\n      0x24\n        /* \"#utility.yul\":4865:4866   */\n      0x00\n        /* \"#utility.yul\":4858:4873   */\n      revert\n        /* \"#utility.yul\":4884:5009   */\n    tag_183:\n        /* \"#utility.yul\":4949:4958   */\n      dup1\n      dup3\n      add\n        /* \"#utility.yul\":4970:4980   */\n      dup1\n      dup3\n      gt\n        /* \"#utility.yul\":4967:5003   */\n      iszero\n      tag_253\n      jumpi\n        /* \"#utility.yul\":4983:5001   */\n      tag_253\n      tag_368\n      jump\t// in\n        /* \"#utility.yul\":5014:5182   */\n    tag_188:\n        /* \"#utility.yul\":5087:5096   */\n      dup1\n      dup3\n      mul\n        /* \"#utility.yul\":5118:5127   */\n      dup2\n      iszero\n        /* \"#utility.yul\":5135:5150   */\n      dup3\n      dup3\n      div\n        /* \"#utility.yul\":5129:5151   */\n      dup5\n      eq\n        /* \"#utility.yul\":5115:5152   */\n      or\n        /* \"#utility.yul\":5105:5176   */\n      tag_253\n      jumpi\n        /* \"#utility.yul\":5156:5174   */\n      tag_253\n      tag_368\n      jump\t// in\n        /* \"#utility.yul\":5187:5404   */\n    tag_190:\n        /* \"#utility.yul\":5227:5228   */\n      0x00\n        /* \"#utility.yul\":5253:5254   */\n      dup3\n        /* \"#utility.yul\":5243:5375   */\n      tag_406\n      jumpi\n        /* \"#utility.yul\":5297:5307   */\n      0x4e487b71\n        /* \"#utility.yul\":5292:5295   */\n      0xe0\n        /* \"#utility.yul\":5288:5308   */\n      shl\n        /* \"#utility.yul\":5285:5286   */\n      0x00\n        /* \"#utility.yul\":5278:5309   */\n      mstore\n        /* \"#utility.yul\":5332:5336   */\n      0x12\n        /* \"#utility.yul\":5329:5330   */\n      0x04\n        /* \"#utility.yul\":5322:5337   */\n      mstore\n        /* \"#utility.yul\":5360:5364   */\n      0x24\n        /* \"#utility.yul\":5357:5358   */\n      0x00\n        /* \"#utility.yul\":5350:5365   */\n      revert\n        /* \"#utility.yul\":5243:5375   */\n    tag_406:\n      pop\n        /* \"#utility.yul\":5389:5398   */\n      div\n      swap1\n        /* \"#utility.yul\":5187:5404   */\n      jump\t// out\n        /* \"#utility.yul\":5409:5537   */\n    tag_193:\n        /* \"#utility.yul\":5476:5485   */\n      dup2\n      dup2\n      sub\n        /* \"#utility.yul\":5497:5508   */\n      dup2\n      dup2\n      gt\n        /* \"#utility.yul\":5494:5531   */\n      iszero\n      tag_253\n      jumpi\n        /* \"#utility.yul\":5511:5529   */\n      tag_253\n      tag_368\n      jump\t// in\n        /* \"#utility.yul\":6480:6725   */\n    tag_214:\n        /* \"#utility.yul\":6547:6553   */\n      0x00\n        /* \"#utility.yul\":6600:6602   */\n      0x20\n        /* \"#utility.yul\":6588:6597   */\n      dup3\n        /* \"#utility.yul\":6579:6586   */\n      dup5\n        /* \"#utility.yul\":6575:6598   */\n      sub\n        /* \"#utility.yul\":6571:6603   */\n      slt\n        /* \"#utility.yul\":6568:6620   */\n      iszero\n      tag_414\n      jumpi\n        /* \"#utility.yul\":6616:6617   */\n      0x00\n        /* \"#utility.yul\":6613:6614   */\n      dup1\n        /* \"#utility.yul\":6606:6618   */\n      revert\n        /* \"#utility.yul\":6568:6620   */\n    tag_414:\n        /* \"#utility.yul\":6648:6657   */\n      dup2\n        /* \"#utility.yul\":6642:6658   */\n      mload\n        /* \"#utility.yul\":6667:6695   */\n      tag_335\n        /* \"#utility.yul\":6689:6694   */\n      dup2\n        /* \"#utility.yul\":6667:6695   */\n      tag_367\n      jump\t// in\n        /* \"#utility.yul\":12004:12255   */\n    tag_360:\n        /* \"#utility.yul\":12074:12080   */\n      0x00\n        /* \"#utility.yul\":12127:12129   */\n      0x20\n        /* \"#utility.yul\":12115:12124   */\n      dup3\n        /* \"#utility.yul\":12106:12113   */\n      dup5\n        /* \"#utility.yul\":12102:12125   */\n      sub\n        /* \"#utility.yul\":12098:12130   */\n      slt\n        /* \"#utility.yul\":12095:12147   */\n      iszero\n      tag_432\n      jumpi\n        /* \"#utility.yul\":12143:12144   */\n      0x00\n        /* \"#utility.yul\":12140:12141   */\n      dup1\n        /* \"#utility.yul\":12133:12145   */\n      revert\n        /* \"#utility.yul\":12095:12147   */\n    tag_432:\n        /* \"#utility.yul\":12175:12184   */\n      dup2\n        /* \"#utility.yul\":12169:12185   */\n      mload\n        /* \"#utility.yul\":12194:12225   */\n      tag_335\n        /* \"#utility.yul\":12219:12224   */\n      dup2\n        /* \"#utility.yul\":12194:12225   */\n      tag_366\n      jump\t// in\n\n    auxdata: 0xa2646970667358221220eb6f4f527f7734a5edb54b955307550ae0dd4436c2dd0889de65d687fd7d1a3964736f6c634300081a0033\n}\n",
				"bytecode": {
					"linkReferences": {},
					"object": "6080604052600b805461ff00191661010017905534801561001f57600080fd5b50604051611a14380380611a1483398101604081905261003e9161015f565b60016000556001600160a01b03831661009e5760405162461bcd60e51b815260206004820181905260248201527f446576656c6f70657220616464726573732063616e6e6f74206265207a65726f60448201526064015b60405180910390fd5b6001600160a01b0382166101005760405162461bcd60e51b815260206004820152602360248201527f546f6b656e466163746f727920616464726573732063616e6e6f74206265207a60448201526265726f60e81b6064820152608401610095565b600380546001600160a01b039485166001600160a01b0319918216179091556002805493909416921691909117909155600c55600b805461ff001916905561019b565b80516001600160a01b038116811461015a57600080fd5b919050565b60008060006060848603121561017457600080fd5b61017d84610143565b925061018b60208501610143565b9150604084015190509250925092565b61186a806101aa6000396000f3fe6080604052600436106101b75760003560e01c80635a76f25e116100ec578063a000bf4f1161008a578063c98a0aa811610064578063c98a0aa814610496578063c98b7fd2146104b6578063cc1776d3146104d6578063e77772fe146104ec57600080fd5b8063a000bf4f14610459578063a482171914610479578063afd6b3c11461048157600080fd5b80638d5f17aa116100c65780638d5f17aa146103f157806390bc1e851461041057806396343fd5146104265780639ed7ef4e1461044657600080fd5b80635a76f25e146103a057806360c72883146103b65780637cd07e47146103d157600080fd5b80632182ad88116101595780633ad10ef6116101335780633ad10ef614610334578063436d334014610354578063443cb4bc146103745780634f7041a51461038a57600080fd5b80632182ad88146102cf5780632397e4d7146102ea578063299ce7b21461030a57600080fd5b80630902f1ac116101955780630902f1ac146102485780630dfe1681146102705780630f0e7c8a1461029057806312185a39146102af57600080fd5b806304c80c82146101bc57806304ccde37146101ee578063077672df14610210575b600080fd5b3480156101c857600080fd5b506101db6ad51ac75d3cbca70090127981565b6040519081526020015b60405180910390f35b3480156101fa57600080fd5b5061020e610209366004611664565b61050c565b005b34801561021c57600080fd5b50600654610230906001600160a01b031681565b6040516001600160a01b0390911681526020016101e5565b34801561025457600080fd5b50600754600854604080519283526020830191909152016101e5565b34801561027c57600080fd5b50600154610230906001600160a01b031681565b34801561029c57600080fd5b506101db6ad51ac75d3ca56ea04771f481565b3480156102bb57600080fd5b5061020e6102ca366004611681565b6105ea565b3480156102db57600080fd5b506101db667134f38362d66481565b3480156102f657600080fd5b506101db610305366004611681565b610659565b34801561031657600080fd5b50600b546103249060ff1681565b60405190151581526020016101e5565b34801561034057600080fd5b50600354610230906001600160a01b031681565b34801561036057600080fd5b5061020e61036f366004611681565b610a54565b34801561038057600080fd5b506101db60075481565b34801561039657600080fd5b506101db60095481565b3480156103ac57600080fd5b506101db60085481565b3480156103c257600080fd5b506101db667134f38362ca0e81565b3480156103dd57600080fd5b50600554610230906001600160a01b031681565b3480156103fd57600080fd5b50600b5461032490610100900460ff1681565b34801561041c57600080fd5b506101db600c5481565b34801561043257600080fd5b5061020e610441366004611681565b610abd565b61020e6104543660046116a8565b610b78565b34801561046557600080fd5b5061023061047436600461170f565b610c9e565b6101db610d31565b34801561048d57600080fd5b5061020e611238565b3480156104a257600080fd5b5061020e6104b1366004611731565b611242565b3480156104c257600080fd5b50600454610230906001600160a01b031681565b3480156104e257600080fd5b506101db600a5481565b3480156104f857600080fd5b50600254610230906001600160a01b031681565b6002546001600160a01b0316331461053f5760405162461bcd60e51b81526004016105369061174e565b60405180910390fd5b6001600160a01b0381166105a05760405162461bcd60e51b815260206004820152602260248201527f496e697469616c697a657220616464726573732063616e6e6f74206265207a65604482015261726f60f01b6064820152608401610536565b600480546001600160a01b0319166001600160a01b0383169081179091556040517fe6223ef4a6cc26f11671126040eb90609754df785e229f9fc28e9612ca3380bc90600090a250565b6002546001600160a01b031633146106145760405162461bcd60e51b81526004016105369061174e565b600a81905560095460408051918252602082018390527fb841faf0d1b32571f4ef966a2f35e3ae51f3cdda45318c3da5570a5b2ad8560591015b60405180910390a150565b60006106636112b5565b600082116106ab5760405162461bcd60e51b81526020600482015260156024820152744d7573742073656c6c20736f6d6520746f6b656e7360581b6044820152606401610536565b600b5460ff16156106f95760405162461bcd60e51b8152602060048201526018602482015277506f6f6c206d6967726174656420746f20416c676562726160401b6044820152606401610536565b600082600754610709919061179b565b905060006107226ad51ac75d3cbca7009012798361179b565b667134f38362d664600854610737919061179b565b6ad51ac75d3cbca700901279600754610750919061179b565b61075a91906117ae565b61076491906117c5565b9050667134f38362d66481101561077f5750667134f38362d6645b6000610792667134f38362d664836117e7565b905060085481116107b057806008546107ab91906117e7565b6107b4565b6008545b93508260078190555083600860008282546107cf91906117e7565b9091555050600a546000906103e8906107e890876117ae565b6107f291906117c5565b90506107fe81866117e7565b6003546040519196506000916001600160a01b039091169083908381818185875af1925050503d8060008114610850576040519150601f19603f3d011682016040523d82523d6000602084013e610855565b606091505b50509050806108a65760405162461bcd60e51b815260206004820152601760248201527f4661696c656420746f2073656e642073656c6c207461780000000000000000006044820152606401610536565b6001546040516323b872dd60e01b8152336004820152306024820152604481018990526001600160a01b03909116906323b872dd906064016020604051808303816000875af11580156108fd573d6000803e3d6000fd5b505050506040513d601f19601f8201168201806040525081019061092191906117fa565b6109695760405162461bcd60e51b81526020600482015260196024820152784661696c656420746f207472616e7366657220746f6b656e7360381b6044820152606401610536565b604051600090339088908381818185875af1925050503d80600081146109ab576040519150601f19603f3d011682016040523d82523d6000602084013e6109b0565b606091505b50509050806109f85760405162461bcd60e51b81526020600482015260146024820152732330b4b632b2103a379039b2b7321032ba3432b960611b6044820152606401610536565b600a54604080518a8152602081018a90529081019190915233907f6db63bebf1e6540277744df32846ebdb98385b1a73f2d5de49b28348add63f509060600160405180910390a2505050505050610a4f6001600055565b919050565b6002546001600160a01b03163314610a7e5760405162461bcd60e51b81526004016105369061174e565b6009819055600a546040805183815260208101929092527fb841faf0d1b32571f4ef966a2f35e3ae51f3cdda45318c3da5570a5b2ad85605910161064e565b6002546001600160a01b03163314610ae75760405162461bcd60e51b81526004016105369061174e565b60008111610b435760405162461bcd60e51b815260206004820152602360248201527f5468726573686f6c64206d7573742062652067726561746572207468616e207a60448201526265726f60e81b6064820152608401610536565b600c8190556040518181527f4ad9ae9229776f627d7d2be995964376397890e11bbfa94e8826810419a6ef6b9060200161064e565b6002546001600160a01b03163314610ba25760405162461bcd60e51b81526004016105369061174e565b610baa6112b5565b6001546001600160a01b031615610c035760405162461bcd60e51b815260206004820152601860248201527f506f6f6c20616c726561647920696e697469616c697a656400000000000000006044820152606401610536565b600180546001600160a01b03199081166001600160a01b038981169190911790925560078790556009869055600a859055600b805461ff001916610100851515021790556005805490911691841691909117905560405185815233907fc17cea59c2955cb181b03393209566960365771dbba9dc3d510180e7cb3120889060200160405180910390a2610c966001600055565b505050505050565b60008083118015610caf5750600082115b610d055760405162461bcd60e51b815260206004820152602160248201527f416d6f756e7473206d7573742062652067726561746572207468616e207a65726044820152606f60f81b6064820152608401610536565b6000610d1584606085901b6117c5565b905060006030610d24836112df565b901b925050505b92915050565b6000610d3b6112b5565b600b5460ff1615610d895760405162461bcd60e51b8152602060048201526018602482015277506f6f6c206d6967726174656420746f20416c676562726160401b6044820152606401610536565b60003411610dd95760405162461bcd60e51b815260206004820152601d60248201527f4d7573742073656e6420457468657220746f2062757920746f6b656e730000006044820152606401610536565b6702c68af0bb14000060085410610e215760405162461bcd60e51b815260206004820152600c60248201526b141bdbdb081a5cc8199d5b1b60a21b6044820152606401610536565b600060075411610e6b5760405162461bcd60e51b8152602060048201526015602482015274139bc81d1bdad95b9cc81a5b881d1a19481c1bdbdb605a1b6044820152606401610536565b60006103e860095434610e7e91906117ae565b610e8891906117c5565b90506000610e9682346117e7565b90506702c68af0bb14000081600854610eaf919061179b565b10610fa55760006008546702c68af0bb140000610ecc91906117e7565b90506000610eda82846117e7565b90508160086000828254610eee919061179b565b909155505060078054600090915594508015610f9e57604051600090339083908381818185875af1925050503d8060008114610f46576040519150601f19603f3d011682016040523d82523d6000602084013e610f4b565b606091505b5050905080610f9c5760405162461bcd60e51b815260206004820152601d60248201527f4661696c656420746f20726566756e64206578636573732065746865720000006044820152606401610536565b505b505061108c565b600081600854610fb5919061179b565b90506000610fca667134f38362ca0e8361179b565b667134f38362d664600854610fdf919061179b565b6ad51ac75d3cbca700901279600754610ff8919061179b565b61100291906117ae565b61100c91906117c5565b90506ad51ac75d3ca56ea04771f481101561102f57506ad51ac75d3ca56ea04771f45b60006110466ad51ac75d3ca56ea04771f4836117e7565b90506007548111611064578060075461105f91906117e7565b611068565b6007545b955082600881905550856007600082825461108391906117e7565b90915550505050505b60015460405163a9059cbb60e01b8152336004820152602481018590526001600160a01b039091169063a9059cbb906044016020604051808303816000875af11580156110dd573d6000803e3d6000fd5b505050506040513d601f19601f8201168201806040525081019061110191906117fa565b6111495760405162461bcd60e51b81526020600482015260196024820152784661696c656420746f207472616e7366657220746f6b656e7360381b6044820152606401610536565b6003546040516000916001600160a01b03169084908381818185875af1925050503d8060008114611196576040519150601f19603f3d011682016040523d82523d6000602084013e61119b565b606091505b50509050806111e55760405162461bcd60e51b815260206004820152601660248201527508cc2d2d8cac840e8de40e6cadcc840c4eaf240e8c2f60531b6044820152606401610536565b604080513481526020810186905290810184905233907f0d1a0d5e3d583a0e92588799dd06e50fd78c07daf05f0cc06d7b848b1ca445f19060600160405180910390a25050506112356001600055565b90565b611240611336565b565b6002546001600160a01b0316331461126c5760405162461bcd60e51b81526004016105369061174e565b600b80548215156101000261ff00199091161790556040517fe7e0bd136ab3b57e3e925774a811e2482df79072fa45d011a4f088abfcc209d29061064e90831515815260200190565b6002600054036112d857604051633ee5aeb560e01b815260040160405180910390fd5b6002600055565b60008060026112ef84600161179b565b6112f991906117c5565b9050825b8082101561132f57508060028161131481876117c5565b61131e919061179b565b61132891906117c5565b91506112fd565b9392505050565b61133e6112b5565b600b5460ff16156113915760405162461bcd60e51b815260206004820152601b60248201527f416c7265616479206d6967726174656420746f20416c676562726100000000006044820152606401610536565b6005546001600160a01b03166113e95760405162461bcd60e51b815260206004820152601860248201527f4d69677261746f722061646472657373206e6f742073657400000000000000006044820152606401610536565b6001546001600160a01b03166114315760405162461bcd60e51b815260206004820152600d60248201526c151bdad95b881b9bdd081cd95d609a1b6044820152606401610536565b60405142815230907f06fe31fe06376e41620b746f0ae12f6a52c0f80e8204ff068cd22417e94af5459060200160405180910390a260015460055460075460405163095ea7b360e01b81526001600160a01b039283166004820152602481019190915291169063095ea7b3906044016020604051808303816000875af11580156114bf573d6000803e3d6000fd5b505050506040513d601f19601f820116820180604052508101906114e391906117fa565b5060055460085460015460075460405163031faf0b60e31b81526001600160a01b039283166004820152602481019190915260009391909116916318fd78589160440160206040518083038185885af1158015611544573d6000803e3d6000fd5b50505050506040513d601f19601f820116820180604052508101906115699190611817565b90506001600160a01b0381166115d05760405162461bcd60e51b815260206004820152602660248201527f4d6967726174696f6e206661696c65643a20706f6f6c2061646472657373206960448201526573207a65726f60d01b6064820152608401610536565b600680546001600160a01b0383166001600160a01b03199091168117909155600b805460ff191660011790556007546008546040517f44552cbabef600cc57fcdab812e865d5184af80ea976bb4b48198dee6a24448c9261163992908252602082015260400190565b60405180910390a2506112406001600055565b6001600160a01b038116811461166157600080fd5b50565b60006020828403121561167657600080fd5b813561132f8161164c565b60006020828403121561169357600080fd5b5035919050565b801515811461166157600080fd5b60008060008060008060c087890312156116c157600080fd5b86356116cc8161164c565b955060208701359450604087013593506060870135925060808701356116f18161164c565b915060a08701356117018161169a565b809150509295509295509295565b6000806040838503121561172257600080fd5b50508035926020909101359150565b60006020828403121561174357600080fd5b813561132f8161169a565b6020808252601e908201527f43616c6c6572206973206e6f742074686520546f6b656e466163746f72790000604082015260600190565b634e487b7160e01b600052601160045260246000fd5b80820180821115610d2b57610d2b611785565b8082028115828204841417610d2b57610d2b611785565b6000826117e257634e487b7160e01b600052601260045260246000fd5b500490565b81810381811115610d2b57610d2b611785565b60006020828403121561180c57600080fd5b815161132f8161169a565b60006020828403121561182957600080fd5b815161132f8161164c56fea2646970667358221220eb6f4f527f7734a5edb54b955307550ae0dd4436c2dd0889de65d687fd7d1a3964736f6c634300081a0033",
					"opcodes": "PUSH1 0x80 PUSH1 0x40 MSTORE PUSH1 0xB DUP1 SLOAD PUSH2 0xFF00 NOT AND PUSH2 0x100 OR SWAP1 SSTORE CALLVALUE DUP1 ISZERO PUSH2 0x1F JUMPI PUSH1 0x0 DUP1 REVERT JUMPDEST POP PUSH1 0x40 MLOAD PUSH2 0x1A14 CODESIZE SUB DUP1 PUSH2 0x1A14 DUP4 CODECOPY DUP2 ADD PUSH1 0x40 DUP2 SWAP1 MSTORE PUSH2 0x3E SWAP2 PUSH2 0x15F JUMP JUMPDEST PUSH1 0x1 PUSH1 0x0 SSTORE PUSH1 0x1 PUSH1 0x1 PUSH1 0xA0 SHL SUB DUP4 AND PUSH2 0x9E JUMPI PUSH1 0x40 MLOAD PUSH3 0x461BCD PUSH1 0xE5 SHL DUP2 MSTORE PUSH1 0x20 PUSH1 0x4 DUP3 ADD DUP2 SWAP1 MSTORE PUSH1 0x24 DUP3 ADD MSTORE PUSH32 0x446576656C6F70657220616464726573732063616E6E6F74206265207A65726F PUSH1 0x44 DUP3 ADD MSTORE PUSH1 0x64 ADD JUMPDEST PUSH1 0x40 MLOAD DUP1 SWAP2 SUB SWAP1 REVERT JUMPDEST PUSH1 0x1 PUSH1 0x1 PUSH1 0xA0 SHL SUB DUP3 AND PUSH2 0x100 JUMPI PUSH1 0x40 MLOAD PUSH3 0x461BCD PUSH1 0xE5 SHL DUP2 MSTORE PUSH1 0x20 PUSH1 0x4 DUP3 ADD MSTORE PUSH1 0x23 PUSH1 0x24 DUP3 ADD MSTORE PUSH32 0x546F6B656E466163746F727920616464726573732063616E6E6F74206265207A PUSH1 0x44 DUP3 ADD MSTORE PUSH3 0x65726F PUSH1 0xE8 SHL PUSH1 0x64 DUP3 ADD MSTORE PUSH1 0x84 ADD PUSH2 0x95 JUMP JUMPDEST PUSH1 0x3 DUP1 SLOAD PUSH1 0x1 PUSH1 0x1 PUSH1 0xA0 SHL SUB SWAP5 DUP6 AND PUSH1 0x1 PUSH1 0x1 PUSH1 0xA0 SHL SUB NOT SWAP2 DUP3 AND OR SWAP1 SWAP2 SSTORE PUSH1 0x2 DUP1 SLOAD SWAP4 SWAP1 SWAP5 AND SWAP3 AND SWAP2 SWAP1 SWAP2 OR SWAP1 SWAP2 SSTORE PUSH1 0xC SSTORE PUSH1 0xB DUP1 SLOAD PUSH2 0xFF00 NOT AND SWAP1 SSTORE PUSH2 0x19B JUMP JUMPDEST DUP1 MLOAD PUSH1 0x1 PUSH1 0x1 PUSH1 0xA0 SHL SUB DUP2 AND DUP2 EQ PUSH2 0x15A JUMPI PUSH1 0x0 DUP1 REVERT JUMPDEST SWAP2 SWAP1 POP JUMP JUMPDEST PUSH1 0x0 DUP1 PUSH1 0x0 PUSH1 0x60 DUP5 DUP7 SUB SLT ISZERO PUSH2 0x174 JUMPI PUSH1 0x0 DUP1 REVERT JUMPDEST PUSH2 0x17D DUP5 PUSH2 0x143 JUMP JUMPDEST SWAP3 POP PUSH2 0x18B PUSH1 0x20 DUP6 ADD PUSH2 0x143 JUMP JUMPDEST SWAP2 POP PUSH1 0x40 DUP5 ADD MLOAD SWAP1 POP SWAP3 POP SWAP3 POP SWAP3 JUMP JUMPDEST PUSH2 0x186A DUP1 PUSH2 0x1AA PUSH1 0x0 CODECOPY PUSH1 0x0 RETURN INVALID PUSH1 0x80 PUSH1 0x40 MSTORE PUSH1 0x4 CALLDATASIZE LT PUSH2 0x1B7 JUMPI PUSH1 0x0 CALLDATALOAD PUSH1 0xE0 SHR DUP1 PUSH4 0x5A76F25E GT PUSH2 0xEC JUMPI DUP1 PUSH4 0xA000BF4F GT PUSH2 0x8A JUMPI DUP1 PUSH4 0xC98A0AA8 GT PUSH2 0x64 JUMPI DUP1 PUSH4 0xC98A0AA8 EQ PUSH2 0x496 JUMPI DUP1 PUSH4 0xC98B7FD2 EQ PUSH2 0x4B6 JUMPI DUP1 PUSH4 0xCC1776D3 EQ PUSH2 0x4D6 JUMPI DUP1 PUSH4 0xE77772FE EQ PUSH2 0x4EC JUMPI PUSH1 0x0 DUP1 REVERT JUMPDEST DUP1 PUSH4 0xA000BF4F EQ PUSH2 0x459 JUMPI DUP1 PUSH4 0xA4821719 EQ PUSH2 0x479 JUMPI DUP1 PUSH4 0xAFD6B3C1 EQ PUSH2 0x481 JUMPI PUSH1 0x0 DUP1 REVERT JUMPDEST DUP1 PUSH4 0x8D5F17AA GT PUSH2 0xC6 JUMPI DUP1 PUSH4 0x8D5F17AA EQ PUSH2 0x3F1 JUMPI DUP1 PUSH4 0x90BC1E85 EQ PUSH2 0x410 JUMPI DUP1 PUSH4 0x96343FD5 EQ PUSH2 0x426 JUMPI DUP1 PUSH4 0x9ED7EF4E EQ PUSH2 0x446 JUMPI PUSH1 0x0 DUP1 REVERT JUMPDEST DUP1 PUSH4 0x5A76F25E EQ PUSH2 0x3A0 JUMPI DUP1 PUSH4 0x60C72883 EQ PUSH2 0x3B6 JUMPI DUP1 PUSH4 0x7CD07E47 EQ PUSH2 0x3D1 JUMPI PUSH1 0x0 DUP1 REVERT JUMPDEST DUP1 PUSH4 0x2182AD88 GT PUSH2 0x159 JUMPI DUP1 PUSH4 0x3AD10EF6 GT PUSH2 0x133 JUMPI DUP1 PUSH4 0x3AD10EF6 EQ PUSH2 0x334 JUMPI DUP1 PUSH4 0x436D3340 EQ PUSH2 0x354 JUMPI DUP1 PUSH4 0x443CB4BC EQ PUSH2 0x374 JUMPI DUP1 PUSH4 0x4F7041A5 EQ PUSH2 0x38A JUMPI PUSH1 0x0 DUP1 REVERT JUMPDEST DUP1 PUSH4 0x2182AD88 EQ PUSH2 0x2CF JUMPI DUP1 PUSH4 0x2397E4D7 EQ PUSH2 0x2EA JUMPI DUP1 PUSH4 0x299CE7B2 EQ PUSH2 0x30A JUMPI PUSH1 0x0 DUP1 REVERT JUMPDEST DUP1 PUSH4 0x902F1AC GT PUSH2 0x195 JUMPI DUP1 PUSH4 0x902F1AC EQ PUSH2 0x248 JUMPI DUP1 PUSH4 0xDFE1681 EQ PUSH2 0x270 JUMPI DUP1 PUSH4 0xF0E7C8A EQ PUSH2 0x290 JUMPI DUP1 PUSH4 0x12185A39 EQ PUSH2 0x2AF JUMPI PUSH1 0x0 DUP1 REVERT JUMPDEST DUP1 PUSH4 0x4C80C82 EQ PUSH2 0x1BC JUMPI DUP1 PUSH4 0x4CCDE37 EQ PUSH2 0x1EE JUMPI DUP1 PUSH4 0x77672DF EQ PUSH2 0x210 JUMPI JUMPDEST PUSH1 0x0 DUP1 REVERT JUMPDEST CALLVALUE DUP1 ISZERO PUSH2 0x1C8 JUMPI PUSH1 0x0 DUP1 REVERT JUMPDEST POP PUSH2 0x1DB PUSH11 0xD51AC75D3CBCA700901279 DUP2 JUMP JUMPDEST PUSH1 0x40 MLOAD SWAP1 DUP2 MSTORE PUSH1 0x20 ADD JUMPDEST PUSH1 0x40 MLOAD DUP1 SWAP2 SUB SWAP1 RETURN JUMPDEST CALLVALUE DUP1 ISZERO PUSH2 0x1FA JUMPI PUSH1 0x0 DUP1 REVERT JUMPDEST POP PUSH2 0x20E PUSH2 0x209 CALLDATASIZE PUSH1 0x4 PUSH2 0x1664 JUMP JUMPDEST PUSH2 0x50C JUMP JUMPDEST STOP JUMPDEST CALLVALUE DUP1 ISZERO PUSH2 0x21C JUMPI PUSH1 0x0 DUP1 REVERT JUMPDEST POP PUSH1 0x6 SLOAD PUSH2 0x230 SWAP1 PUSH1 0x1 PUSH1 0x1 PUSH1 0xA0 SHL SUB AND DUP2 JUMP JUMPDEST PUSH1 0x40 MLOAD PUSH1 0x1 PUSH1 0x1 PUSH1 0xA0 SHL SUB SWAP1 SWAP2 AND DUP2 MSTORE PUSH1 0x20 ADD PUSH2 0x1E5 JUMP JUMPDEST CALLVALUE DUP1 ISZERO PUSH2 0x254 JUMPI PUSH1 0x0 DUP1 REVERT JUMPDEST POP PUSH1 0x7 SLOAD PUSH1 0x8 SLOAD PUSH1 0x40 DUP1 MLOAD SWAP3 DUP4 MSTORE PUSH1 0x20 DUP4 ADD SWAP2 SWAP1 SWAP2 MSTORE ADD PUSH2 0x1E5 JUMP JUMPDEST CALLVALUE DUP1 ISZERO PUSH2 0x27C JUMPI PUSH1 0x0 DUP1 REVERT JUMPDEST POP PUSH1 0x1 SLOAD PUSH2 0x230 SWAP1 PUSH1 0x1 PUSH1 0x1 PUSH1 0xA0 SHL SUB AND DUP2 JUMP JUMPDEST CALLVALUE DUP1 ISZERO PUSH2 0x29C JUMPI PUSH1 0x0 DUP1 REVERT JUMPDEST POP PUSH2 0x1DB PUSH11 0xD51AC75D3CA56EA04771F4 DUP2 JUMP JUMPDEST CALLVALUE DUP1 ISZERO PUSH2 0x2BB JUMPI PUSH1 0x0 DUP1 REVERT JUMPDEST POP PUSH2 0x20E PUSH2 0x2CA CALLDATASIZE PUSH1 0x4 PUSH2 0x1681 JUMP JUMPDEST PUSH2 0x5EA JUMP JUMPDEST CALLVALUE DUP1 ISZERO PUSH2 0x2DB JUMPI PUSH1 0x0 DUP1 REVERT JUMPDEST POP PUSH2 0x1DB PUSH7 0x7134F38362D664 DUP2 JUMP JUMPDEST CALLVALUE DUP1 ISZERO PUSH2 0x2F6 JUMPI PUSH1 0x0 DUP1 REVERT JUMPDEST POP PUSH2 0x1DB PUSH2 0x305 CALLDATASIZE PUSH1 0x4 PUSH2 0x1681 JUMP JUMPDEST PUSH2 0x659 JUMP JUMPDEST CALLVALUE DUP1 ISZERO PUSH2 0x316 JUMPI PUSH1 0x0 DUP1 REVERT JUMPDEST POP PUSH1 0xB SLOAD PUSH2 0x324 SWAP1 PUSH1 0xFF AND DUP2 JUMP JUMPDEST PUSH1 0x40 MLOAD SWAP1 ISZERO ISZERO DUP2 MSTORE PUSH1 0x20 ADD PUSH2 0x1E5 JUMP JUMPDEST CALLVALUE DUP1 ISZERO PUSH2 0x340 JUMPI PUSH1 0x0 DUP1 REVERT JUMPDEST POP PUSH1 0x3 SLOAD PUSH2 0x230 SWAP1 PUSH1 0x1 PUSH1 0x1 PUSH1 0xA0 SHL SUB AND DUP2 JUMP JUMPDEST CALLVALUE DUP1 ISZERO PUSH2 0x360 JUMPI PUSH1 0x0 DUP1 REVERT JUMPDEST POP PUSH2 0x20E PUSH2 0x36F CALLDATASIZE PUSH1 0x4 PUSH2 0x1681 JUMP JUMPDEST PUSH2 0xA54 JUMP JUMPDEST CALLVALUE DUP1 ISZERO PUSH2 0x380 JUMPI PUSH1 0x0 DUP1 REVERT JUMPDEST POP PUSH2 0x1DB PUSH1 0x7 SLOAD DUP2 JUMP JUMPDEST CALLVALUE DUP1 ISZERO PUSH2 0x396 JUMPI PUSH1 0x0 DUP1 REVERT JUMPDEST POP PUSH2 0x1DB PUSH1 0x9 SLOAD DUP2 JUMP JUMPDEST CALLVALUE DUP1 ISZERO PUSH2 0x3AC JUMPI PUSH1 0x0 DUP1 REVERT JUMPDEST POP PUSH2 0x1DB PUSH1 0x8 SLOAD DUP2 JUMP JUMPDEST CALLVALUE DUP1 ISZERO PUSH2 0x3C2 JUMPI PUSH1 0x0 DUP1 REVERT JUMPDEST POP PUSH2 0x1DB PUSH7 0x7134F38362CA0E DUP2 JUMP JUMPDEST CALLVALUE DUP1 ISZERO PUSH2 0x3DD JUMPI PUSH1 0x0 DUP1 REVERT JUMPDEST POP PUSH1 0x5 SLOAD PUSH2 0x230 SWAP1 PUSH1 0x1 PUSH1 0x1 PUSH1 0xA0 SHL SUB AND DUP2 JUMP JUMPDEST CALLVALUE DUP1 ISZERO PUSH2 0x3FD JUMPI PUSH1 0x0 DUP1 REVERT JUMPDEST POP PUSH1 0xB SLOAD PUSH2 0x324 SWAP1 PUSH2 0x100 SWAP1 DIV PUSH1 0xFF AND DUP2 JUMP JUMPDEST CALLVALUE DUP1 ISZERO PUSH2 0x41C JUMPI PUSH1 0x0 DUP1 REVERT JUMPDEST POP PUSH2 0x1DB PUSH1 0xC SLOAD DUP2 JUMP JUMPDEST CALLVALUE DUP1 ISZERO PUSH2 0x432 JUMPI PUSH1 0x0 DUP1 REVERT JUMPDEST POP PUSH2 0x20E PUSH2 0x441 CALLDATASIZE PUSH1 0x4 PUSH2 0x1681 JUMP JUMPDEST PUSH2 0xABD JUMP JUMPDEST PUSH2 0x20E PUSH2 0x454 CALLDATASIZE PUSH1 0x4 PUSH2 0x16A8 JUMP JUMPDEST PUSH2 0xB78 JUMP JUMPDEST CALLVALUE DUP1 ISZERO PUSH2 0x465 JUMPI PUSH1 0x0 DUP1 REVERT JUMPDEST POP PUSH2 0x230 PUSH2 0x474 CALLDATASIZE PUSH1 0x4 PUSH2 0x170F JUMP JUMPDEST PUSH2 0xC9E JUMP JUMPDEST PUSH2 0x1DB PUSH2 0xD31 JUMP JUMPDEST CALLVALUE DUP1 ISZERO PUSH2 0x48D JUMPI PUSH1 0x0 DUP1 REVERT JUMPDEST POP PUSH2 0x20E PUSH2 0x1238 JUMP JUMPDEST CALLVALUE DUP1 ISZERO PUSH2 0x4A2 JUMPI PUSH1 0x0 DUP1 REVERT JUMPDEST POP PUSH2 0x20E PUSH2 0x4B1 CALLDATASIZE PUSH1 0x4 PUSH2 0x1731 JUMP JUMPDEST PUSH2 0x1242 JUMP JUMPDEST CALLVALUE DUP1 ISZERO PUSH2 0x4C2 JUMPI PUSH1 0x0 DUP1 REVERT JUMPDEST POP PUSH1 0x4 SLOAD PUSH2 0x230 SWAP1 PUSH1 0x1 PUSH1 0x1 PUSH1 0xA0 SHL SUB AND DUP2 JUMP JUMPDEST CALLVALUE DUP1 ISZERO PUSH2 0x4E2 JUMPI PUSH1 0x0 DUP1 REVERT JUMPDEST POP PUSH2 0x1DB PUSH1 0xA SLOAD DUP2 JUMP JUMPDEST CALLVALUE DUP1 ISZERO PUSH2 0x4F8 JUMPI PUSH1 0x0 DUP1 REVERT JUMPDEST POP PUSH1 0x2 SLOAD PUSH2 0x230 SWAP1 PUSH1 0x1 PUSH1 0x1 PUSH1 0xA0 SHL SUB AND DUP2 JUMP JUMPDEST PUSH1 0x2 SLOAD PUSH1 0x1 PUSH1 0x1 PUSH1 0xA0 SHL SUB AND CALLER EQ PUSH2 0x53F JUMPI PUSH1 0x40 MLOAD PUSH3 0x461BCD PUSH1 0xE5 SHL DUP2 MSTORE PUSH1 0x4 ADD PUSH2 0x536 SWAP1 PUSH2 0x174E JUMP JUMPDEST PUSH1 0x40 MLOAD DUP1 SWAP2 SUB SWAP1 REVERT JUMPDEST PUSH1 0x1 PUSH1 0x1 PUSH1 0xA0 SHL SUB DUP2 AND PUSH2 0x5A0 JUMPI PUSH1 0x40 MLOAD PUSH3 0x461BCD PUSH1 0xE5 SHL DUP2 MSTORE PUSH1 0x20 PUSH1 0x4 DUP3 ADD MSTORE PUSH1 0x22 PUSH1 0x24 DUP3 ADD MSTORE PUSH32 0x496E697469616C697A657220616464726573732063616E6E6F74206265207A65 PUSH1 0x44 DUP3 ADD MSTORE PUSH2 0x726F PUSH1 0xF0 SHL PUSH1 0x64 DUP3 ADD MSTORE PUSH1 0x84 ADD PUSH2 0x536 JUMP JUMPDEST PUSH1 0x4 DUP1 SLOAD PUSH1 0x1 PUSH1 0x1 PUSH1 0xA0 SHL SUB NOT AND PUSH1 0x1 PUSH1 0x1 PUSH1 0xA0 SHL SUB DUP4 AND SWAP1 DUP2 OR SWAP1 SWAP2 SSTORE PUSH1 0x40 MLOAD PUSH32 0xE6223EF4A6CC26F11671126040EB90609754DF785E229F9FC28E9612CA3380BC SWAP1 PUSH1 0x0 SWAP1 LOG2 POP JUMP JUMPDEST PUSH1 0x2 SLOAD PUSH1 0x1 PUSH1 0x1 PUSH1 0xA0 SHL SUB AND CALLER EQ PUSH2 0x614 JUMPI PUSH1 0x40 MLOAD PUSH3 0x461BCD PUSH1 0xE5 SHL DUP2 MSTORE PUSH1 0x4 ADD PUSH2 0x536 SWAP1 PUSH2 0x174E JUMP JUMPDEST PUSH1 0xA DUP2 SWAP1 SSTORE PUSH1 0x9 SLOAD PUSH1 0x40 DUP1 MLOAD SWAP2 DUP3 MSTORE PUSH1 0x20 DUP3 ADD DUP4 SWAP1 MSTORE PUSH32 0xB841FAF0D1B32571F4EF966A2F35E3AE51F3CDDA45318C3DA5570A5B2AD85605 SWAP2 ADD JUMPDEST PUSH1 0x40 MLOAD DUP1 SWAP2 SUB SWAP1 LOG1 POP JUMP JUMPDEST PUSH1 0x0 PUSH2 0x663 PUSH2 0x12B5 JUMP JUMPDEST PUSH1 0x0 DUP3 GT PUSH2 0x6AB JUMPI PUSH1 0x40 MLOAD PUSH3 0x461BCD PUSH1 0xE5 SHL DUP2 MSTORE PUSH1 0x20 PUSH1 0x4 DUP3 ADD MSTORE PUSH1 0x15 PUSH1 0x24 DUP3 ADD MSTORE PUSH21 0x4D7573742073656C6C20736F6D6520746F6B656E73 PUSH1 0x58 SHL PUSH1 0x44 DUP3 ADD MSTORE PUSH1 0x64 ADD PUSH2 0x536 JUMP JUMPDEST PUSH1 0xB SLOAD PUSH1 0xFF AND ISZERO PUSH2 0x6F9 JUMPI PUSH1 0x40 MLOAD PUSH3 0x461BCD PUSH1 0xE5 SHL DUP2 MSTORE PUSH1 0x20 PUSH1 0x4 DUP3 ADD MSTORE PUSH1 0x18 PUSH1 0x24 DUP3 ADD MSTORE PUSH24 0x506F6F6C206D6967726174656420746F20416C6765627261 PUSH1 0x40 SHL PUSH1 0x44 DUP3 ADD MSTORE PUSH1 0x64 ADD PUSH2 0x536 JUMP JUMPDEST PUSH1 0x0 DUP3 PUSH1 0x7 SLOAD PUSH2 0x709 SWAP2 SWAP1 PUSH2 0x179B JUMP JUMPDEST SWAP1 POP PUSH1 0x0 PUSH2 0x722 PUSH11 0xD51AC75D3CBCA700901279 DUP4 PUSH2 0x179B JUMP JUMPDEST PUSH7 0x7134F38362D664 PUSH1 0x8 SLOAD PUSH2 0x737 SWAP2 SWAP1 PUSH2 0x179B JUMP JUMPDEST PUSH11 0xD51AC75D3CBCA700901279 PUSH1 0x7 SLOAD PUSH2 0x750 SWAP2 SWAP1 PUSH2 0x179B JUMP JUMPDEST PUSH2 0x75A SWAP2 SWAP1 PUSH2 0x17AE JUMP JUMPDEST PUSH2 0x764 SWAP2 SWAP1 PUSH2 0x17C5 JUMP JUMPDEST SWAP1 POP PUSH7 0x7134F38362D664 DUP2 LT ISZERO PUSH2 0x77F JUMPI POP PUSH7 0x7134F38362D664 JUMPDEST PUSH1 0x0 PUSH2 0x792 PUSH7 0x7134F38362D664 DUP4 PUSH2 0x17E7 JUMP JUMPDEST SWAP1 POP PUSH1 0x8 SLOAD DUP2 GT PUSH2 0x7B0 JUMPI DUP1 PUSH1 0x8 SLOAD PUSH2 0x7AB SWAP2 SWAP1 PUSH2 0x17E7 JUMP JUMPDEST PUSH2 0x7B4 JUMP JUMPDEST PUSH1 0x8 SLOAD JUMPDEST SWAP4 POP DUP3 PUSH1 0x7 DUP2 SWAP1 SSTORE POP DUP4 PUSH1 0x8 PUSH1 0x0 DUP3 DUP3 SLOAD PUSH2 0x7CF SWAP2 SWAP1 PUSH2 0x17E7 JUMP JUMPDEST SWAP1 SWAP2 SSTORE POP POP PUSH1 0xA SLOAD PUSH1 0x0 SWAP1 PUSH2 0x3E8 SWAP1 PUSH2 0x7E8 SWAP1 DUP8 PUSH2 0x17AE JUMP JUMPDEST PUSH2 0x7F2 SWAP2 SWAP1 PUSH2 0x17C5 JUMP JUMPDEST SWAP1 POP PUSH2 0x7FE DUP2 DUP7 PUSH2 0x17E7 JUMP JUMPDEST PUSH1 0x3 SLOAD PUSH1 0x40 MLOAD SWAP2 SWAP7 POP PUSH1 0x0 SWAP2 PUSH1 0x1 PUSH1 0x1 PUSH1 0xA0 SHL SUB SWAP1 SWAP2 AND SWAP1 DUP4 SWAP1 DUP4 DUP2 DUP2 DUP2 DUP6 DUP8 GAS CALL SWAP3 POP POP POP RETURNDATASIZE DUP1 PUSH1 0x0 DUP2 EQ PUSH2 0x850 JUMPI PUSH1 0x40 MLOAD SWAP2 POP PUSH1 0x1F NOT PUSH1 0x3F RETURNDATASIZE ADD AND DUP3 ADD PUSH1 0x40 MSTORE RETURNDATASIZE DUP3 MSTORE RETURNDATASIZE PUSH1 0x0 PUSH1 0x20 DUP5 ADD RETURNDATACOPY PUSH2 0x855 JUMP JUMPDEST PUSH1 0x60 SWAP2 POP JUMPDEST POP POP SWAP1 POP DUP1 PUSH2 0x8A6 JUMPI PUSH1 0x40 MLOAD PUSH3 0x461BCD PUSH1 0xE5 SHL DUP2 MSTORE PUSH1 0x20 PUSH1 0x4 DUP3 ADD MSTORE PUSH1 0x17 PUSH1 0x24 DUP3 ADD MSTORE PUSH32 0x4661696C656420746F2073656E642073656C6C20746178000000000000000000 PUSH1 0x44 DUP3 ADD MSTORE PUSH1 0x64 ADD PUSH2 0x536 JUMP JUMPDEST PUSH1 0x1 SLOAD PUSH1 0x40 MLOAD PUSH4 0x23B872DD PUSH1 0xE0 SHL DUP2 MSTORE CALLER PUSH1 0x4 DUP3 ADD MSTORE ADDRESS PUSH1 0x24 DUP3 ADD MSTORE PUSH1 0x44 DUP2 ADD DUP10 SWAP1 MSTORE PUSH1 0x1 PUSH1 0x1 PUSH1 0xA0 SHL SUB SWAP1 SWAP2 AND SWAP1 PUSH4 0x23B872DD SWAP1 PUSH1 0x64 ADD PUSH1 0x20 PUSH1 0x40 MLOAD DUP1 DUP4 SUB DUP2 PUSH1 0x0 DUP8 GAS CALL ISZERO DUP1 ISZERO PUSH2 0x8FD JUMPI RETURNDATASIZE PUSH1 0x0 DUP1 RETURNDATACOPY RETURNDATASIZE PUSH1 0x0 REVERT JUMPDEST POP POP POP POP PUSH1 0x40 MLOAD RETURNDATASIZE PUSH1 0x1F NOT PUSH1 0x1F DUP3 ADD AND DUP3 ADD DUP1 PUSH1 0x40 MSTORE POP DUP2 ADD SWAP1 PUSH2 0x921 SWAP2 SWAP1 PUSH2 0x17FA JUMP JUMPDEST PUSH2 0x969 JUMPI PUSH1 0x40 MLOAD PUSH3 0x461BCD PUSH1 0xE5 SHL DUP2 MSTORE PUSH1 0x20 PUSH1 0x4 DUP3 ADD MSTORE PUSH1 0x19 PUSH1 0x24 DUP3 ADD MSTORE PUSH25 0x4661696C656420746F207472616E7366657220746F6B656E73 PUSH1 0x38 SHL PUSH1 0x44 DUP3 ADD MSTORE PUSH1 0x64 ADD PUSH2 0x536 JUMP JUMPDEST PUSH1 0x40 MLOAD PUSH1 0x0 SWAP1 CALLER SWAP1 DUP9 SWAP1 DUP4 DUP2 DUP2 DUP2 DUP6 DUP8 GAS CALL SWAP3 POP POP POP RETURNDATASIZE DUP1 PUSH1 0x0 DUP2 EQ PUSH2 0x9AB JUMPI PUSH1 0x40 MLOAD SWAP2 POP PUSH1 0x1F NOT PUSH1 0x3F RETURNDATASIZE ADD AND DUP3 ADD PUSH1 0x40 MSTORE RETURNDATASIZE DUP3 MSTORE RETURNDATASIZE PUSH1 0x0 PUSH1 0x20 DUP5 ADD RETURNDATACOPY PUSH2 0x9B0 JUMP JUMPDEST PUSH1 0x60 SWAP2 POP JUMPDEST POP POP SWAP1 POP DUP1 PUSH2 0x9F8 JUMPI PUSH1 0x40 MLOAD PUSH3 0x461BCD PUSH1 0xE5 SHL DUP2 MSTORE PUSH1 0x20 PUSH1 0x4 DUP3 ADD MSTORE PUSH1 0x14 PUSH1 0x24 DUP3 ADD MSTORE PUSH20 0x2330B4B632B2103A379039B2B7321032BA3432B9 PUSH1 0x61 SHL PUSH1 0x44 DUP3 ADD MSTORE PUSH1 0x64 ADD PUSH2 0x536 JUMP JUMPDEST PUSH1 0xA SLOAD PUSH1 0x40 DUP1 MLOAD DUP11 DUP2 MSTORE PUSH1 0x20 DUP2 ADD DUP11 SWAP1 MSTORE SWAP1 DUP2 ADD SWAP2 SWAP1 SWAP2 MSTORE CALLER SWAP1 PUSH32 0x6DB63BEBF1E6540277744DF32846EBDB98385B1A73F2D5DE49B28348ADD63F50 SWAP1 PUSH1 0x60 ADD PUSH1 0x40 MLOAD DUP1 SWAP2 SUB SWAP1 LOG2 POP POP POP POP POP POP PUSH2 0xA4F PUSH1 0x1 PUSH1 0x0 SSTORE JUMP JUMPDEST SWAP2 SWAP1 POP JUMP JUMPDEST PUSH1 0x2 SLOAD PUSH1 0x1 PUSH1 0x1 PUSH1 0xA0 SHL SUB AND CALLER EQ PUSH2 0xA7E JUMPI PUSH1 0x40 MLOAD PUSH3 0x461BCD PUSH1 0xE5 SHL DUP2 MSTORE PUSH1 0x4 ADD PUSH2 0x536 SWAP1 PUSH2 0x174E JUMP JUMPDEST PUSH1 0x9 DUP2 SWAP1 SSTORE PUSH1 0xA SLOAD PUSH1 0x40 DUP1 MLOAD DUP4 DUP2 MSTORE PUSH1 0x20 DUP2 ADD SWAP3 SWAP1 SWAP3 MSTORE PUSH32 0xB841FAF0D1B32571F4EF966A2F35E3AE51F3CDDA45318C3DA5570A5B2AD85605 SWAP2 ADD PUSH2 0x64E JUMP JUMPDEST PUSH1 0x2 SLOAD PUSH1 0x1 PUSH1 0x1 PUSH1 0xA0 SHL SUB AND CALLER EQ PUSH2 0xAE7 JUMPI PUSH1 0x40 MLOAD PUSH3 0x461BCD PUSH1 0xE5 SHL DUP2 MSTORE PUSH1 0x4 ADD PUSH2 0x536 SWAP1 PUSH2 0x174E JUMP JUMPDEST PUSH1 0x0 DUP2 GT PUSH2 0xB43 JUMPI PUSH1 0x40 MLOAD PUSH3 0x461BCD PUSH1 0xE5 SHL DUP2 MSTORE PUSH1 0x20 PUSH1 0x4 DUP3 ADD MSTORE PUSH1 0x23 PUSH1 0x24 DUP3 ADD MSTORE PUSH32 0x5468726573686F6C64206D7573742062652067726561746572207468616E207A PUSH1 0x44 DUP3 ADD MSTORE PUSH3 0x65726F PUSH1 0xE8 SHL PUSH1 0x64 DUP3 ADD MSTORE PUSH1 0x84 ADD PUSH2 0x536 JUMP JUMPDEST PUSH1 0xC DUP2 SWAP1 SSTORE PUSH1 0x40 MLOAD DUP2 DUP2 MSTORE PUSH32 0x4AD9AE9229776F627D7D2BE995964376397890E11BBFA94E8826810419A6EF6B SWAP1 PUSH1 0x20 ADD PUSH2 0x64E JUMP JUMPDEST PUSH1 0x2 SLOAD PUSH1 0x1 PUSH1 0x1 PUSH1 0xA0 SHL SUB AND CALLER EQ PUSH2 0xBA2 JUMPI PUSH1 0x40 MLOAD PUSH3 0x461BCD PUSH1 0xE5 SHL DUP2 MSTORE PUSH1 0x4 ADD PUSH2 0x536 SWAP1 PUSH2 0x174E JUMP JUMPDEST PUSH2 0xBAA PUSH2 0x12B5 JUMP JUMPDEST PUSH1 0x1 SLOAD PUSH1 0x1 PUSH1 0x1 PUSH1 0xA0 SHL SUB AND ISZERO PUSH2 0xC03 JUMPI PUSH1 0x40 MLOAD PUSH3 0x461BCD PUSH1 0xE5 SHL DUP2 MSTORE PUSH1 0x20 PUSH1 0x4 DUP3 ADD MSTORE PUSH1 0x18 PUSH1 0x24 DUP3 ADD MSTORE PUSH32 0x506F6F6C20616C726561647920696E697469616C697A65640000000000000000 PUSH1 0x44 DUP3 ADD MSTORE PUSH1 0x64 ADD PUSH2 0x536 JUMP JUMPDEST PUSH1 0x1 DUP1 SLOAD PUSH1 0x1 PUSH1 0x1 PUSH1 0xA0 SHL SUB NOT SWAP1 DUP2 AND PUSH1 0x1 PUSH1 0x1 PUSH1 0xA0 SHL SUB DUP10 DUP2 AND SWAP2 SWAP1 SWAP2 OR SWAP1 SWAP3 SSTORE PUSH1 0x7 DUP8 SWAP1 SSTORE PUSH1 0x9 DUP7 SWAP1 SSTORE PUSH1 0xA DUP6 SWAP1 SSTORE PUSH1 0xB DUP1 SLOAD PUSH2 0xFF00 NOT AND PUSH2 0x100 DUP6 ISZERO ISZERO MUL OR SWAP1 SSTORE PUSH1 0x5 DUP1 SLOAD SWAP1 SWAP2 AND SWAP2 DUP5 AND SWAP2 SWAP1 SWAP2 OR SWAP1 SSTORE PUSH1 0x40 MLOAD DUP6 DUP2 MSTORE CALLER SWAP1 PUSH32 0xC17CEA59C2955CB181B03393209566960365771DBBA9DC3D510180E7CB312088 SWAP1 PUSH1 0x20 ADD PUSH1 0x40 MLOAD DUP1 SWAP2 SUB SWAP1 LOG2 PUSH2 0xC96 PUSH1 0x1 PUSH1 0x0 SSTORE JUMP JUMPDEST POP POP POP POP POP POP JUMP JUMPDEST PUSH1 0x0 DUP1 DUP4 GT DUP1 ISZERO PUSH2 0xCAF JUMPI POP PUSH1 0x0 DUP3 GT JUMPDEST PUSH2 0xD05 JUMPI PUSH1 0x40 MLOAD PUSH3 0x461BCD PUSH1 0xE5 SHL DUP2 MSTORE PUSH1 0x20 PUSH1 0x4 DUP3 ADD MSTORE PUSH1 0x21 PUSH1 0x24 DUP3 ADD MSTORE PUSH32 0x416D6F756E7473206D7573742062652067726561746572207468616E207A6572 PUSH1 0x44 DUP3 ADD MSTORE PUSH1 0x6F PUSH1 0xF8 SHL PUSH1 0x64 DUP3 ADD MSTORE PUSH1 0x84 ADD PUSH2 0x536 JUMP JUMPDEST PUSH1 0x0 PUSH2 0xD15 DUP5 PUSH1 0x60 DUP6 SWAP1 SHL PUSH2 0x17C5 JUMP JUMPDEST SWAP1 POP PUSH1 0x0 PUSH1 0x30 PUSH2 0xD24 DUP4 PUSH2 0x12DF JUMP JUMPDEST SWAP1 SHL SWAP3 POP POP POP JUMPDEST SWAP3 SWAP2 POP POP JUMP JUMPDEST PUSH1 0x0 PUSH2 0xD3B PUSH2 0x12B5 JUMP JUMPDEST PUSH1 0xB SLOAD PUSH1 0xFF AND ISZERO PUSH2 0xD89 JUMPI PUSH1 0x40 MLOAD PUSH3 0x461BCD PUSH1 0xE5 SHL DUP2 MSTORE PUSH1 0x20 PUSH1 0x4 DUP3 ADD MSTORE PUSH1 0x18 PUSH1 0x24 DUP3 ADD MSTORE PUSH24 0x506F6F6C206D6967726174656420746F20416C6765627261 PUSH1 0x40 SHL PUSH1 0x44 DUP3 ADD MSTORE PUSH1 0x64 ADD PUSH2 0x536 JUMP JUMPDEST PUSH1 0x0 CALLVALUE GT PUSH2 0xDD9 JUMPI PUSH1 0x40 MLOAD PUSH3 0x461BCD PUSH1 0xE5 SHL DUP2 MSTORE PUSH1 0x20 PUSH1 0x4 DUP3 ADD MSTORE PUSH1 0x1D PUSH1 0x24 DUP3 ADD MSTORE PUSH32 0x4D7573742073656E6420457468657220746F2062757920746F6B656E73000000 PUSH1 0x44 DUP3 ADD MSTORE PUSH1 0x64 ADD PUSH2 0x536 JUMP JUMPDEST PUSH8 0x2C68AF0BB140000 PUSH1 0x8 SLOAD LT PUSH2 0xE21 JUMPI PUSH1 0x40 MLOAD PUSH3 0x461BCD PUSH1 0xE5 SHL DUP2 MSTORE PUSH1 0x20 PUSH1 0x4 DUP3 ADD MSTORE PUSH1 0xC PUSH1 0x24 DUP3 ADD MSTORE PUSH12 0x141BDBDB081A5CC8199D5B1B PUSH1 0xA2 SHL PUSH1 0x44 DUP3 ADD MSTORE PUSH1 0x64 ADD PUSH2 0x536 JUMP JUMPDEST PUSH1 0x0 PUSH1 0x7 SLOAD GT PUSH2 0xE6B JUMPI PUSH1 0x40 MLOAD PUSH3 0x461BCD PUSH1 0xE5 SHL DUP2 MSTORE PUSH1 0x20 PUSH1 0x4 DUP3 ADD MSTORE PUSH1 0x15 PUSH1 0x24 DUP3 ADD MSTORE PUSH21 0x139BC81D1BDAD95B9CC81A5B881D1A19481C1BDBDB PUSH1 0x5A SHL PUSH1 0x44 DUP3 ADD MSTORE PUSH1 0x64 ADD PUSH2 0x536 JUMP JUMPDEST PUSH1 0x0 PUSH2 0x3E8 PUSH1 0x9 SLOAD CALLVALUE PUSH2 0xE7E SWAP2 SWAP1 PUSH2 0x17AE JUMP JUMPDEST PUSH2 0xE88 SWAP2 SWAP1 PUSH2 0x17C5 JUMP JUMPDEST SWAP1 POP PUSH1 0x0 PUSH2 0xE96 DUP3 CALLVALUE PUSH2 0x17E7 JUMP JUMPDEST SWAP1 POP PUSH8 0x2C68AF0BB140000 DUP2 PUSH1 0x8 SLOAD PUSH2 0xEAF SWAP2 SWAP1 PUSH2 0x179B JUMP JUMPDEST LT PUSH2 0xFA5 JUMPI PUSH1 0x0 PUSH1 0x8 SLOAD PUSH8 0x2C68AF0BB140000 PUSH2 0xECC SWAP2 SWAP1 PUSH2 0x17E7 JUMP JUMPDEST SWAP1 POP PUSH1 0x0 PUSH2 0xEDA DUP3 DUP5 PUSH2 0x17E7 JUMP JUMPDEST SWAP1 POP DUP2 PUSH1 0x8 PUSH1 0x0 DUP3 DUP3 SLOAD PUSH2 0xEEE SWAP2 SWAP1 PUSH2 0x179B JUMP JUMPDEST SWAP1 SWAP2 SSTORE POP POP PUSH1 0x7 DUP1 SLOAD PUSH1 0x0 SWAP1 SWAP2 SSTORE SWAP5 POP DUP1 ISZERO PUSH2 0xF9E JUMPI PUSH1 0x40 MLOAD PUSH1 0x0 SWAP1 CALLER SWAP1 DUP4 SWAP1 DUP4 DUP2 DUP2 DUP2 DUP6 DUP8 GAS CALL SWAP3 POP POP POP RETURNDATASIZE DUP1 PUSH1 0x0 DUP2 EQ PUSH2 0xF46 JUMPI PUSH1 0x40 MLOAD SWAP2 POP PUSH1 0x1F NOT PUSH1 0x3F RETURNDATASIZE ADD AND DUP3 ADD PUSH1 0x40 MSTORE RETURNDATASIZE DUP3 MSTORE RETURNDATASIZE PUSH1 0x0 PUSH1 0x20 DUP5 ADD RETURNDATACOPY PUSH2 0xF4B JUMP JUMPDEST PUSH1 0x60 SWAP2 POP JUMPDEST POP POP SWAP1 POP DUP1 PUSH2 0xF9C JUMPI PUSH1 0x40 MLOAD PUSH3 0x461BCD PUSH1 0xE5 SHL DUP2 MSTORE PUSH1 0x20 PUSH1 0x4 DUP3 ADD MSTORE PUSH1 0x1D PUSH1 0x24 DUP3 ADD MSTORE PUSH32 0x4661696C656420746F20726566756E6420657863657373206574686572000000 PUSH1 0x44 DUP3 ADD MSTORE PUSH1 0x64 ADD PUSH2 0x536 JUMP JUMPDEST POP JUMPDEST POP POP PUSH2 0x108C JUMP JUMPDEST PUSH1 0x0 DUP2 PUSH1 0x8 SLOAD PUSH2 0xFB5 SWAP2 SWAP1 PUSH2 0x179B JUMP JUMPDEST SWAP1 POP PUSH1 0x0 PUSH2 0xFCA PUSH7 0x7134F38362CA0E DUP4 PUSH2 0x179B JUMP JUMPDEST PUSH7 0x7134F38362D664 PUSH1 0x8 SLOAD PUSH2 0xFDF SWAP2 SWAP1 PUSH2 0x179B JUMP JUMPDEST PUSH11 0xD51AC75D3CBCA700901279 PUSH1 0x7 SLOAD PUSH2 0xFF8 SWAP2 SWAP1 PUSH2 0x179B JUMP JUMPDEST PUSH2 0x1002 SWAP2 SWAP1 PUSH2 0x17AE JUMP JUMPDEST PUSH2 0x100C SWAP2 SWAP1 PUSH2 0x17C5 JUMP JUMPDEST SWAP1 POP PUSH11 0xD51AC75D3CA56EA04771F4 DUP2 LT ISZERO PUSH2 0x102F JUMPI POP PUSH11 0xD51AC75D3CA56EA04771F4 JUMPDEST PUSH1 0x0 PUSH2 0x1046 PUSH11 0xD51AC75D3CA56EA04771F4 DUP4 PUSH2 0x17E7 JUMP JUMPDEST SWAP1 POP PUSH1 0x7 SLOAD DUP2 GT PUSH2 0x1064 JUMPI DUP1 PUSH1 0x7 SLOAD PUSH2 0x105F SWAP2 SWAP1 PUSH2 0x17E7 JUMP JUMPDEST PUSH2 0x1068 JUMP JUMPDEST PUSH1 0x7 SLOAD JUMPDEST SWAP6 POP DUP3 PUSH1 0x8 DUP2 SWAP1 SSTORE POP DUP6 PUSH1 0x7 PUSH1 0x0 DUP3 DUP3 SLOAD PUSH2 0x1083 SWAP2 SWAP1 PUSH2 0x17E7 JUMP JUMPDEST SWAP1 SWAP2 SSTORE POP POP POP POP POP JUMPDEST PUSH1 0x1 SLOAD PUSH1 0x40 MLOAD PUSH4 0xA9059CBB PUSH1 0xE0 SHL DUP2 MSTORE CALLER PUSH1 0x4 DUP3 ADD MSTORE PUSH1 0x24 DUP2 ADD DUP6 SWAP1 MSTORE PUSH1 0x1 PUSH1 0x1 PUSH1 0xA0 SHL SUB SWAP1 SWAP2 AND SWAP1 PUSH4 0xA9059CBB SWAP1 PUSH1 0x44 ADD PUSH1 0x20 PUSH1 0x40 MLOAD DUP1 DUP4 SUB DUP2 PUSH1 0x0 DUP8 GAS CALL ISZERO DUP1 ISZERO PUSH2 0x10DD JUMPI RETURNDATASIZE PUSH1 0x0 DUP1 RETURNDATACOPY RETURNDATASIZE PUSH1 0x0 REVERT JUMPDEST POP POP POP POP PUSH1 0x40 MLOAD RETURNDATASIZE PUSH1 0x1F NOT PUSH1 0x1F DUP3 ADD AND DUP3 ADD DUP1 PUSH1 0x40 MSTORE POP DUP2 ADD SWAP1 PUSH2 0x1101 SWAP2 SWAP1 PUSH2 0x17FA JUMP JUMPDEST PUSH2 0x1149 JUMPI PUSH1 0x40 MLOAD PUSH3 0x461BCD PUSH1 0xE5 SHL DUP2 MSTORE PUSH1 0x20 PUSH1 0x4 DUP3 ADD MSTORE PUSH1 0x19 PUSH1 0x24 DUP3 ADD MSTORE PUSH25 0x4661696C656420746F207472616E7366657220746F6B656E73 PUSH1 0x38 SHL PUSH1 0x44 DUP3 ADD MSTORE PUSH1 0x64 ADD PUSH2 0x536 JUMP JUMPDEST PUSH1 0x3 SLOAD PUSH1 0x40 MLOAD PUSH1 0x0 SWAP2 PUSH1 0x1 PUSH1 0x1 PUSH1 0xA0 SHL SUB AND SWAP1 DUP5 SWAP1 DUP4 DUP2 DUP2 DUP2 DUP6 DUP8 GAS CALL SWAP3 POP POP POP RETURNDATASIZE DUP1 PUSH1 0x0 DUP2 EQ PUSH2 0x1196 JUMPI PUSH1 0x40 MLOAD SWAP2 POP PUSH1 0x1F NOT PUSH1 0x3F RETURNDATASIZE ADD AND DUP3 ADD PUSH1 0x40 MSTORE RETURNDATASIZE DUP3 MSTORE RETURNDATASIZE PUSH1 0x0 PUSH1 0x20 DUP5 ADD RETURNDATACOPY PUSH2 0x119B JUMP JUMPDEST PUSH1 0x60 SWAP2 POP JUMPDEST POP POP SWAP1 POP DUP1 PUSH2 0x11E5 JUMPI PUSH1 0x40 MLOAD PUSH3 0x461BCD PUSH1 0xE5 SHL DUP2 MSTORE PUSH1 0x20 PUSH1 0x4 DUP3 ADD MSTORE PUSH1 0x16 PUSH1 0x24 DUP3 ADD MSTORE PUSH22 0x8CC2D2D8CAC840E8DE40E6CADCC840C4EAF240E8C2F PUSH1 0x53 SHL PUSH1 0x44 DUP3 ADD MSTORE PUSH1 0x64 ADD PUSH2 0x536 JUMP JUMPDEST PUSH1 0x40 DUP1 MLOAD CALLVALUE DUP2 MSTORE PUSH1 0x20 DUP2 ADD DUP7 SWAP1 MSTORE SWAP1 DUP2 ADD DUP5 SWAP1 MSTORE CALLER SWAP1 PUSH32 0xD1A0D5E3D583A0E92588799DD06E50FD78C07DAF05F0CC06D7B848B1CA445F1 SWAP1 PUSH1 0x60 ADD PUSH1 0x40 MLOAD DUP1 SWAP2 SUB SWAP1 LOG2 POP POP POP PUSH2 0x1235 PUSH1 0x1 PUSH1 0x0 SSTORE JUMP JUMPDEST SWAP1 JUMP JUMPDEST PUSH2 0x1240 PUSH2 0x1336 JUMP JUMPDEST JUMP JUMPDEST PUSH1 0x2 SLOAD PUSH1 0x1 PUSH1 0x1 PUSH1 0xA0 SHL SUB AND CALLER EQ PUSH2 0x126C JUMPI PUSH1 0x40 MLOAD PUSH3 0x461BCD PUSH1 0xE5 SHL DUP2 MSTORE PUSH1 0x4 ADD PUSH2 0x536 SWAP1 PUSH2 0x174E JUMP JUMPDEST PUSH1 0xB DUP1 SLOAD DUP3 ISZERO ISZERO PUSH2 0x100 MUL PUSH2 0xFF00 NOT SWAP1 SWAP2 AND OR SWAP1 SSTORE PUSH1 0x40 MLOAD PUSH32 0xE7E0BD136AB3B57E3E925774A811E2482DF79072FA45D011A4F088ABFCC209D2 SWAP1 PUSH2 0x64E SWAP1 DUP4 ISZERO ISZERO DUP2 MSTORE PUSH1 0x20 ADD SWAP1 JUMP JUMPDEST PUSH1 0x2 PUSH1 0x0 SLOAD SUB PUSH2 0x12D8 JUMPI PUSH1 0x40 MLOAD PUSH4 0x3EE5AEB5 PUSH1 0xE0 SHL DUP2 MSTORE PUSH1 0x4 ADD PUSH1 0x40 MLOAD DUP1 SWAP2 SUB SWAP1 REVERT JUMPDEST PUSH1 0x2 PUSH1 0x0 SSTORE JUMP JUMPDEST PUSH1 0x0 DUP1 PUSH1 0x2 PUSH2 0x12EF DUP5 PUSH1 0x1 PUSH2 0x179B JUMP JUMPDEST PUSH2 0x12F9 SWAP2 SWAP1 PUSH2 0x17C5 JUMP JUMPDEST SWAP1 POP DUP3 JUMPDEST DUP1 DUP3 LT ISZERO PUSH2 0x132F JUMPI POP DUP1 PUSH1 0x2 DUP2 PUSH2 0x1314 DUP2 DUP8 PUSH2 0x17C5 JUMP JUMPDEST PUSH2 0x131E SWAP2 SWAP1 PUSH2 0x179B JUMP JUMPDEST PUSH2 0x1328 SWAP2 SWAP1 PUSH2 0x17C5 JUMP JUMPDEST SWAP2 POP PUSH2 0x12FD JUMP JUMPDEST SWAP4 SWAP3 POP POP POP JUMP JUMPDEST PUSH2 0x133E PUSH2 0x12B5 JUMP JUMPDEST PUSH1 0xB SLOAD PUSH1 0xFF AND ISZERO PUSH2 0x1391 JUMPI PUSH1 0x40 MLOAD PUSH3 0x461BCD PUSH1 0xE5 SHL DUP2 MSTORE PUSH1 0x20 PUSH1 0x4 DUP3 ADD MSTORE PUSH1 0x1B PUSH1 0x24 DUP3 ADD MSTORE PUSH32 0x416C7265616479206D6967726174656420746F20416C67656272610000000000 PUSH1 0x44 DUP3 ADD MSTORE PUSH1 0x64 ADD PUSH2 0x536 JUMP JUMPDEST PUSH1 0x5 SLOAD PUSH1 0x1 PUSH1 0x1 PUSH1 0xA0 SHL SUB AND PUSH2 0x13E9 JUMPI PUSH1 0x40 MLOAD PUSH3 0x461BCD PUSH1 0xE5 SHL DUP2 MSTORE PUSH1 0x20 PUSH1 0x4 DUP3 ADD MSTORE PUSH1 0x18 PUSH1 0x24 DUP3 ADD MSTORE PUSH32 0x4D69677261746F722061646472657373206E6F74207365740000000000000000 PUSH1 0x44 DUP3 ADD MSTORE PUSH1 0x64 ADD PUSH2 0x536 JUMP JUMPDEST PUSH1 0x1 SLOAD PUSH1 0x1 PUSH1 0x1 PUSH1 0xA0 SHL SUB AND PUSH2 0x1431 JUMPI PUSH1 0x40 MLOAD PUSH3 0x461BCD PUSH1 0xE5 SHL DUP2 MSTORE PUSH1 0x20 PUSH1 0x4 DUP3 ADD MSTORE PUSH1 0xD PUSH1 0x24 DUP3 ADD MSTORE PUSH13 0x151BDAD95B881B9BDD081CD95D PUSH1 0x9A SHL PUSH1 0x44 DUP3 ADD MSTORE PUSH1 0x64 ADD PUSH2 0x536 JUMP JUMPDEST PUSH1 0x40 MLOAD TIMESTAMP DUP2 MSTORE ADDRESS SWAP1 PUSH32 0x6FE31FE06376E41620B746F0AE12F6A52C0F80E8204FF068CD22417E94AF545 SWAP1 PUSH1 0x20 ADD PUSH1 0x40 MLOAD DUP1 SWAP2 SUB SWAP1 LOG2 PUSH1 0x1 SLOAD PUSH1 0x5 SLOAD PUSH1 0x7 SLOAD PUSH1 0x40 MLOAD PUSH4 0x95EA7B3 PUSH1 0xE0 SHL DUP2 MSTORE PUSH1 0x1 PUSH1 0x1 PUSH1 0xA0 SHL SUB SWAP3 DUP4 AND PUSH1 0x4 DUP3 ADD MSTORE PUSH1 0x24 DUP2 ADD SWAP2 SWAP1 SWAP2 MSTORE SWAP2 AND SWAP1 PUSH4 0x95EA7B3 SWAP1 PUSH1 0x44 ADD PUSH1 0x20 PUSH1 0x40 MLOAD DUP1 DUP4 SUB DUP2 PUSH1 0x0 DUP8 GAS CALL ISZERO DUP1 ISZERO PUSH2 0x14BF JUMPI RETURNDATASIZE PUSH1 0x0 DUP1 RETURNDATACOPY RETURNDATASIZE PUSH1 0x0 REVERT JUMPDEST POP POP POP POP PUSH1 0x40 MLOAD RETURNDATASIZE PUSH1 0x1F NOT PUSH1 0x1F DUP3 ADD AND DUP3 ADD DUP1 PUSH1 0x40 MSTORE POP DUP2 ADD SWAP1 PUSH2 0x14E3 SWAP2 SWAP1 PUSH2 0x17FA JUMP JUMPDEST POP PUSH1 0x5 SLOAD PUSH1 0x8 SLOAD PUSH1 0x1 SLOAD PUSH1 0x7 SLOAD PUSH1 0x40 MLOAD PUSH4 0x31FAF0B PUSH1 0xE3 SHL DUP2 MSTORE PUSH1 0x1 PUSH1 0x1 PUSH1 0xA0 SHL SUB SWAP3 DUP4 AND PUSH1 0x4 DUP3 ADD MSTORE PUSH1 0x24 DUP2 ADD SWAP2 SWAP1 SWAP2 MSTORE PUSH1 0x0 SWAP4 SWAP2 SWAP1 SWAP2 AND SWAP2 PUSH4 0x18FD7858 SWAP2 PUSH1 0x44 ADD PUSH1 0x20 PUSH1 0x40 MLOAD DUP1 DUP4 SUB DUP2 DUP6 DUP9 GAS CALL ISZERO DUP1 ISZERO PUSH2 0x1544 JUMPI RETURNDATASIZE PUSH1 0x0 DUP1 RETURNDATACOPY RETURNDATASIZE PUSH1 0x0 REVERT JUMPDEST POP POP POP POP POP PUSH1 0x40 MLOAD RETURNDATASIZE PUSH1 0x1F NOT PUSH1 0x1F DUP3 ADD AND DUP3 ADD DUP1 PUSH1 0x40 MSTORE POP DUP2 ADD SWAP1 PUSH2 0x1569 SWAP2 SWAP1 PUSH2 0x1817 JUMP JUMPDEST SWAP1 POP PUSH1 0x1 PUSH1 0x1 PUSH1 0xA0 SHL SUB DUP2 AND PUSH2 0x15D0 JUMPI PUSH1 0x40 MLOAD PUSH3 0x461BCD PUSH1 0xE5 SHL DUP2 MSTORE PUSH1 0x20 PUSH1 0x4 DUP3 ADD MSTORE PUSH1 0x26 PUSH1 0x24 DUP3 ADD MSTORE PUSH32 0x4D6967726174696F6E206661696C65643A20706F6F6C20616464726573732069 PUSH1 0x44 DUP3 ADD MSTORE PUSH6 0x73207A65726F PUSH1 0xD0 SHL PUSH1 0x64 DUP3 ADD MSTORE PUSH1 0x84 ADD PUSH2 0x536 JUMP JUMPDEST PUSH1 0x6 DUP1 SLOAD PUSH1 0x1 PUSH1 0x1 PUSH1 0xA0 SHL SUB DUP4 AND PUSH1 0x1 PUSH1 0x1 PUSH1 0xA0 SHL SUB NOT SWAP1 SWAP2 AND DUP2 OR SWAP1 SWAP2 SSTORE PUSH1 0xB DUP1 SLOAD PUSH1 0xFF NOT AND PUSH1 0x1 OR SWAP1 SSTORE PUSH1 0x7 SLOAD PUSH1 0x8 SLOAD PUSH1 0x40 MLOAD PUSH32 0x44552CBABEF600CC57FCDAB812E865D5184AF80EA976BB4B48198DEE6A24448C SWAP3 PUSH2 0x1639 SWAP3 SWAP1 DUP3 MSTORE PUSH1 0x20 DUP3 ADD MSTORE PUSH1 0x40 ADD SWAP1 JUMP JUMPDEST PUSH1 0x40 MLOAD DUP1 SWAP2 SUB SWAP1 LOG2 POP PUSH2 0x1240 PUSH1 0x1 PUSH1 0x0 SSTORE JUMP JUMPDEST PUSH1 0x1 PUSH1 0x1 PUSH1 0xA0 SHL SUB DUP2 AND DUP2 EQ PUSH2 0x1661 JUMPI PUSH1 0x0 DUP1 REVERT JUMPDEST POP JUMP JUMPDEST PUSH1 0x0 PUSH1 0x20 DUP3 DUP5 SUB SLT ISZERO PUSH2 0x1676 JUMPI PUSH1 0x0 DUP1 REVERT JUMPDEST DUP2 CALLDATALOAD PUSH2 0x132F DUP2 PUSH2 0x164C JUMP JUMPDEST PUSH1 0x0 PUSH1 0x20 DUP3 DUP5 SUB SLT ISZERO PUSH2 0x1693 JUMPI PUSH1 0x0 DUP1 REVERT JUMPDEST POP CALLDATALOAD SWAP2 SWAP1 POP JUMP JUMPDEST DUP1 ISZERO ISZERO DUP2 EQ PUSH2 0x1661 JUMPI PUSH1 0x0 DUP1 REVERT JUMPDEST PUSH1 0x0 DUP1 PUSH1 0x0 DUP1 PUSH1 0x0 DUP1 PUSH1 0xC0 DUP8 DUP10 SUB SLT ISZERO PUSH2 0x16C1 JUMPI PUSH1 0x0 DUP1 REVERT JUMPDEST DUP7 CALLDATALOAD PUSH2 0x16CC DUP2 PUSH2 0x164C JUMP JUMPDEST SWAP6 POP PUSH1 0x20 DUP8 ADD CALLDATALOAD SWAP5 POP PUSH1 0x40 DUP8 ADD CALLDATALOAD SWAP4 POP PUSH1 0x60 DUP8 ADD CALLDATALOAD SWAP3 POP PUSH1 0x80 DUP8 ADD CALLDATALOAD PUSH2 0x16F1 DUP2 PUSH2 0x164C JUMP JUMPDEST SWAP2 POP PUSH1 0xA0 DUP8 ADD CALLDATALOAD PUSH2 0x1701 DUP2 PUSH2 0x169A JUMP JUMPDEST DUP1 SWAP2 POP POP SWAP3 SWAP6 POP SWAP3 SWAP6 POP SWAP3 SWAP6 JUMP JUMPDEST PUSH1 0x0 DUP1 PUSH1 0x40 DUP4 DUP6 SUB SLT ISZERO PUSH2 0x1722 JUMPI PUSH1 0x0 DUP1 REVERT JUMPDEST POP POP DUP1 CALLDATALOAD SWAP3 PUSH1 0x20 SWAP1 SWAP2 ADD CALLDATALOAD SWAP2 POP JUMP JUMPDEST PUSH1 0x0 PUSH1 0x20 DUP3 DUP5 SUB SLT ISZERO PUSH2 0x1743 JUMPI PUSH1 0x0 DUP1 REVERT JUMPDEST DUP2 CALLDATALOAD PUSH2 0x132F DUP2 PUSH2 0x169A JUMP JUMPDEST PUSH1 0x20 DUP1 DUP3 MSTORE PUSH1 0x1E SWAP1 DUP3 ADD MSTORE PUSH32 0x43616C6C6572206973206E6F742074686520546F6B656E466163746F72790000 PUSH1 0x40 DUP3 ADD MSTORE PUSH1 0x60 ADD SWAP1 JUMP JUMPDEST PUSH4 0x4E487B71 PUSH1 0xE0 SHL PUSH1 0x0 MSTORE PUSH1 0x11 PUSH1 0x4 MSTORE PUSH1 0x24 PUSH1 0x0 REVERT JUMPDEST DUP1 DUP3 ADD DUP1 DUP3 GT ISZERO PUSH2 0xD2B JUMPI PUSH2 0xD2B PUSH2 0x1785 JUMP JUMPDEST DUP1 DUP3 MUL DUP2 ISZERO DUP3 DUP3 DIV DUP5 EQ OR PUSH2 0xD2B JUMPI PUSH2 0xD2B PUSH2 0x1785 JUMP JUMPDEST PUSH1 0x0 DUP3 PUSH2 0x17E2 JUMPI PUSH4 0x4E487B71 PUSH1 0xE0 SHL PUSH1 0x0 MSTORE PUSH1 0x12 PUSH1 0x4 MSTORE PUSH1 0x24 PUSH1 0x0 REVERT JUMPDEST POP DIV SWAP1 JUMP JUMPDEST DUP2 DUP2 SUB DUP2 DUP2 GT ISZERO PUSH2 0xD2B JUMPI PUSH2 0xD2B PUSH2 0x1785 JUMP JUMPDEST PUSH1 0x0 PUSH1 0x20 DUP3 DUP5 SUB SLT ISZERO PUSH2 0x180C JUMPI PUSH1 0x0 DUP1 REVERT JUMPDEST DUP2 MLOAD PUSH2 0x132F DUP2 PUSH2 0x169A JUMP JUMPDEST PUSH1 0x0 PUSH1 0x20 DUP3 DUP5 SUB SLT ISZERO PUSH2 0x1829 JUMPI PUSH1 0x0 DUP1 REVERT JUMPDEST DUP2 MLOAD PUSH2 0x132F DUP2 PUSH2 0x164C JUMP INVALID LOG2 PUSH5 0x6970667358 0x22 SLT KECCAK256 0xEB PUSH16 0x4F527F7734A5EDB54B955307550AE0DD PREVRANDAO CALLDATASIZE 0xC2 0xDD ADDMOD DUP10 0xDE PUSH6 0xD687FD7D1A39 PUSH5 0x736F6C6343 STOP ADDMOD BYTE STOP CALLER "
				},
				"gasEstimates": {
					"creation": {
						"codeDepositCost": "1250000",
						"executionCost": "infinite",
						"totalCost": "infinite"
					},
					"external": {
						"X_DELTA_LOWER()": "274",
						"X_DELTA_UPPER()": "231",
						"Y_DELTA_LOWER()": "252",
						"Y_DELTA_UPPER()": "230",
						"algebraPoolAddress()": "2428",
						"algebraPoolInitializer()": "2403",
						"autoMigrationEnabled()": "2366",
						"buyTax()": "2395",
						"buyToken()": "infinite",
						"calculateSqrtPriceX96(uint256,uint256)": "infinite",
						"devAddress()": "2382",
						"forceMigration()": "infinite",
						"getReserves()": "4453",
						"initialize(address,uint256,uint256,uint256,address,bool)": "infinite",
						"migratedToAlgebra()": "2400",
						"migrationThreshold()": "2351",
						"migrator()": "2427",
						"reserve0()": "2373",
						"reserve1()": "2330",
						"sellTax()": "2372",
						"sellToken(uint256)": "infinite",
						"setAlgebraPoolInitializer(address)": "27948",
						"toggleAutoMigration(bool)": "27795",
						"token0()": "2405",
						"tokenFactory()": "2447",
						"updateBuyTax(uint256)": "27991",
						"updateMigrationThreshold(uint256)": "25653",
						"updateSellTax(uint256)": "28022"
					},
					"internal": {
						"migrate()": "infinite",
						"sqrt(uint256)": "infinite"
					}
				},
				"methodIdentifiers": {
					"X_DELTA_LOWER()": "0f0e7c8a",
					"X_DELTA_UPPER()": "04c80c82",
					"Y_DELTA_LOWER()": "60c72883",
					"Y_DELTA_UPPER()": "2182ad88",
					"algebraPoolAddress()": "077672df",
					"algebraPoolInitializer()": "c98b7fd2",
					"autoMigrationEnabled()": "8d5f17aa",
					"buyTax()": "4f7041a5",
					"buyToken()": "a4821719",
					"calculateSqrtPriceX96(uint256,uint256)": "a000bf4f",
					"devAddress()": "3ad10ef6",
					"forceMigration()": "afd6b3c1",
					"getReserves()": "0902f1ac",
					"initialize(address,uint256,uint256,uint256,address,bool)": "9ed7ef4e",
					"migratedToAlgebra()": "299ce7b2",
					"migrationThreshold()": "90bc1e85",
					"migrator()": "7cd07e47",
					"reserve0()": "443cb4bc",
					"reserve1()": "5a76f25e",
					"sellTax()": "cc1776d3",
					"sellToken(uint256)": "2397e4d7",
					"setAlgebraPoolInitializer(address)": "04ccde37",
					"toggleAutoMigration(bool)": "c98a0aa8",
					"token0()": "0dfe1681",
					"tokenFactory()": "e77772fe",
					"updateBuyTax(uint256)": "436d3340",
					"updateMigrationThreshold(uint256)": "96343fd5",
					"updateSellTax(uint256)": "12185a39"
				}
			},
			"storageLayout": {
				"storage": [
					{
						"astId": 88,
						"contract": "contracts/token factory/LiquidityPool.sol:LiquidityPool",
						"label": "_status",
						"offset": 0,
						"slot": "0",
						"type": "t_uint256"
					},
					{
						"astId": 202,
						"contract": "contracts/token factory/LiquidityPool.sol:LiquidityPool",
						"label": "token0",
						"offset": 0,
						"slot": "1",
						"type": "t_address"
					},
					{
						"astId": 204,
						"contract": "contracts/token factory/LiquidityPool.sol:LiquidityPool",
						"label": "tokenFactory",
						"offset": 0,
						"slot": "2",
						"type": "t_address"
					},
					{
						"astId": 206,
						"contract": "contracts/token factory/LiquidityPool.sol:LiquidityPool",
						"label": "devAddress",
						"offset": 0,
						"slot": "3",
						"type": "t_address"
					},
					{
						"astId": 208,
						"contract": "contracts/token factory/LiquidityPool.sol:LiquidityPool",
						"label": "algebraPoolInitializer",
						"offset": 0,
						"slot": "4",
						"type": "t_address"
					},
					{
						"astId": 210,
						"contract": "contracts/token factory/LiquidityPool.sol:LiquidityPool",
						"label": "migrator",
						"offset": 0,
						"slot": "5",
						"type": "t_address"
					},
					{
						"astId": 212,
						"contract": "contracts/token factory/LiquidityPool.sol:LiquidityPool",
						"label": "algebraPoolAddress",
						"offset": 0,
						"slot": "6",
						"type": "t_address"
					},
					{
						"astId": 214,
						"contract": "contracts/token factory/LiquidityPool.sol:LiquidityPool",
						"label": "reserve0",
						"offset": 0,
						"slot": "7",
						"type": "t_uint256"
					},
					{
						"astId": 216,
						"contract": "contracts/token factory/LiquidityPool.sol:LiquidityPool",
						"label": "reserve1",
						"offset": 0,
						"slot": "8",
						"type": "t_uint256"
					},
					{
						"astId": 218,
						"contract": "contracts/token factory/LiquidityPool.sol:LiquidityPool",
						"label": "buyTax",
						"offset": 0,
						"slot": "9",
						"type": "t_uint256"
					},
					{
						"astId": 220,
						"contract": "contracts/token factory/LiquidityPool.sol:LiquidityPool",
						"label": "sellTax",
						"offset": 0,
						"slot": "10",
						"type": "t_uint256"
					},
					{
						"astId": 222,
						"contract": "contracts/token factory/LiquidityPool.sol:LiquidityPool",
						"label": "migratedToAlgebra",
						"offset": 0,
						"slot": "11",
						"type": "t_bool"
					},
					{
						"astId": 225,
						"contract": "contracts/token factory/LiquidityPool.sol:LiquidityPool",
						"label": "autoMigrationEnabled",
						"offset": 1,
						"slot": "11",
						"type": "t_bool"
					},
					{
						"astId": 227,
						"contract": "contracts/token factory/LiquidityPool.sol:LiquidityPool",
						"label": "migrationThreshold",
						"offset": 0,
						"slot": "12",
						"type": "t_uint256"
					}
				],
				"types": {
					"t_address": {
						"encoding": "inplace",
						"label": "address",
						"numberOfBytes": "20"
					},
					"t_bool": {
						"encoding": "inplace",
						"label": "bool",
						"numberOfBytes": "1"
					},
					"t_uint256": {
						"encoding": "inplace",
						"label": "uint256",
						"numberOfBytes": "32"
					}
				}
			},
			"userdoc": {
				"kind": "user",
				"methods": {},
				"version": 1
			}
		}
	}
}