{
	"contracts/token factory/LiquidityPool.sol": {
		"LiquidityPool": {
			"abi": [
				{
					"inputs": [
						{
							"internalType": "address",
							"name": "_devAddress",
							"type": "address"
						},
						{
							"internalType": "address",
							"name": "_tokenFactory",
							"type": "address"
						}
					],
					"stateMutability": "nonpayable",
					"type": "constructor"
				},
				{
					"inputs": [],
					"name": "ReentrancyGuardReentrantCall",
					"type": "error"
				},
				{
					"anonymous": false,
					"inputs": [
						{
							"indexed": false,
							"internalType": "uint256",
							"name": "newBuyTax",
							"type": "uint256"
						}
					],
					"name": "BuyTaxUpdated",
					"type": "event"
				},
				{
					"anonymous": false,
					"inputs": [
						{
							"indexed": true,
							"internalType": "address",
							"name": "buyer",
							"type": "address"
						},
						{
							"indexed": false,
							"internalType": "uint256",
							"name": "etherAmount",
							"type": "uint256"
						},
						{
							"indexed": false,
							"internalType": "uint256",
							"name": "tokenAmount",
							"type": "uint256"
						}
					],
					"name": "BuyToken",
					"type": "event"
				},
				{
					"anonymous": false,
					"inputs": [
						{
							"indexed": true,
							"internalType": "address",
							"name": "provider",
							"type": "address"
						},
						{
							"indexed": false,
							"internalType": "uint256",
							"name": "amountToken",
							"type": "uint256"
						},
						{
							"indexed": false,
							"internalType": "uint256",
							"name": "amountNative",
							"type": "uint256"
						}
					],
					"name": "LiquidityAdded",
					"type": "event"
				},
				{
					"anonymous": false,
					"inputs": [
						{
							"indexed": false,
							"internalType": "bool",
							"name": "enabled",
							"type": "bool"
						}
					],
					"name": "PenaltiesStatusUpdated",
					"type": "event"
				},
				{
					"anonymous": false,
					"inputs": [
						{
							"indexed": true,
							"internalType": "address",
							"name": "trader",
							"type": "address"
						},
						{
							"indexed": false,
							"internalType": "uint256",
							"name": "penaltyAmount",
							"type": "uint256"
						},
						{
							"indexed": false,
							"internalType": "uint256",
							"name": "newAmountOut",
							"type": "uint256"
						}
					],
					"name": "PenaltyApplied",
					"type": "event"
				},
				{
					"anonymous": false,
					"inputs": [
						{
							"indexed": false,
							"internalType": "uint256",
							"name": "newSellTax",
							"type": "uint256"
						}
					],
					"name": "SellTaxUpdated",
					"type": "event"
				},
				{
					"anonymous": false,
					"inputs": [
						{
							"indexed": true,
							"internalType": "address",
							"name": "seller",
							"type": "address"
						},
						{
							"indexed": false,
							"internalType": "uint256",
							"name": "tokenAmount",
							"type": "uint256"
						},
						{
							"indexed": false,
							"internalType": "uint256",
							"name": "etherAmount",
							"type": "uint256"
						}
					],
					"name": "SellToken",
					"type": "event"
				},
				{
					"inputs": [],
					"name": "buyTax",
					"outputs": [
						{
							"internalType": "uint256",
							"name": "",
							"type": "uint256"
						}
					],
					"stateMutability": "view",
					"type": "function"
				},
				{
					"inputs": [],
					"name": "buyToken",
					"outputs": [
						{
							"internalType": "uint256",
							"name": "amountOut",
							"type": "uint256"
						}
					],
					"stateMutability": "payable",
					"type": "function"
				},
				{
					"inputs": [
						{
							"internalType": "uint256",
							"name": "amountIn",
							"type": "uint256"
						}
					],
					"name": "calculatePenalty",
					"outputs": [
						{
							"internalType": "uint256",
							"name": "penaltyAmount",
							"type": "uint256"
						},
						{
							"internalType": "uint256",
							"name": "penaltyPercentage",
							"type": "uint256"
						}
					],
					"stateMutability": "view",
					"type": "function"
				},
				{
					"inputs": [
						{
							"internalType": "uint256",
							"name": "tokenAmount",
							"type": "uint256"
						}
					],
					"name": "calculatePriceForEther",
					"outputs": [
						{
							"internalType": "uint256",
							"name": "etherAmount",
							"type": "uint256"
						}
					],
					"stateMutability": "view",
					"type": "function"
				},
				{
					"inputs": [
						{
							"internalType": "uint256",
							"name": "etherAmount",
							"type": "uint256"
						}
					],
					"name": "calculatePriceForTokens",
					"outputs": [
						{
							"internalType": "uint256",
							"name": "tokenAmount",
							"type": "uint256"
						}
					],
					"stateMutability": "view",
					"type": "function"
				},
				{
					"inputs": [],
					"name": "devAddress",
					"outputs": [
						{
							"internalType": "address",
							"name": "",
							"type": "address"
						}
					],
					"stateMutability": "view",
					"type": "function"
				},
				{
					"inputs": [
						{
							"internalType": "address",
							"name": "_token0",
							"type": "address"
						},
						{
							"internalType": "uint256",
							"name": "_initialTokenReserve",
							"type": "uint256"
						}
					],
					"name": "initialize",
					"outputs": [],
					"stateMutability": "payable",
					"type": "function"
				},
				{
					"inputs": [],
					"name": "penaltiesEnabled",
					"outputs": [
						{
							"internalType": "bool",
							"name": "",
							"type": "bool"
						}
					],
					"stateMutability": "view",
					"type": "function"
				},
				{
					"inputs": [],
					"name": "penaltyThreshold",
					"outputs": [
						{
							"internalType": "uint256",
							"name": "",
							"type": "uint256"
						}
					],
					"stateMutability": "view",
					"type": "function"
				},
				{
					"inputs": [],
					"name": "reserve0",
					"outputs": [
						{
							"internalType": "uint256",
							"name": "",
							"type": "uint256"
						}
					],
					"stateMutability": "view",
					"type": "function"
				},
				{
					"inputs": [],
					"name": "reserve1",
					"outputs": [
						{
							"internalType": "uint256",
							"name": "",
							"type": "uint256"
						}
					],
					"stateMutability": "view",
					"type": "function"
				},
				{
					"inputs": [],
					"name": "sellTax",
					"outputs": [
						{
							"internalType": "uint256",
							"name": "",
							"type": "uint256"
						}
					],
					"stateMutability": "view",
					"type": "function"
				},
				{
					"inputs": [
						{
							"internalType": "uint256",
							"name": "amountIn",
							"type": "uint256"
						}
					],
					"name": "sellToken",
					"outputs": [
						{
							"internalType": "uint256",
							"name": "amountOut",
							"type": "uint256"
						}
					],
					"stateMutability": "nonpayable",
					"type": "function"
				},
				{
					"inputs": [
						{
							"internalType": "bool",
							"name": "enable",
							"type": "bool"
						}
					],
					"name": "togglePenalties",
					"outputs": [],
					"stateMutability": "nonpayable",
					"type": "function"
				},
				{
					"inputs": [],
					"name": "token0",
					"outputs": [
						{
							"internalType": "address",
							"name": "",
							"type": "address"
						}
					],
					"stateMutability": "view",
					"type": "function"
				},
				{
					"inputs": [],
					"name": "tokenFactory",
					"outputs": [
						{
							"internalType": "address",
							"name": "",
							"type": "address"
						}
					],
					"stateMutability": "view",
					"type": "function"
				},
				{
					"inputs": [
						{
							"internalType": "uint256",
							"name": "newBuyTax",
							"type": "uint256"
						}
					],
					"name": "updateBuyTax",
					"outputs": [],
					"stateMutability": "nonpayable",
					"type": "function"
				},
				{
					"inputs": [
						{
							"internalType": "uint256",
							"name": "newSellTax",
							"type": "uint256"
						}
					],
					"name": "updateSellTax",
					"outputs": [],
					"stateMutability": "nonpayable",
					"type": "function"
				}
			],
			"devdoc": {
				"errors": {
					"ReentrancyGuardReentrantCall()": [
						{
							"details": "Unauthorized reentrant call."
						}
					]
				},
				"kind": "dev",
				"methods": {},
				"version": 1
			},
			"evm": {
				"assembly": "    /* \"contracts/token factory/LiquidityPool.sol\":176:6153  contract LiquidityPool is ReentrancyGuard {... */\n  mstore(0x40, 0x80)\n    /* \"contracts/token factory/LiquidityPool.sol\":515:516  0 */\n  0x00\n    /* \"contracts/token factory/LiquidityPool.sol\":491:516  uint256 public buyTax = 0 */\n  0x05\n  sstore\n    /* \"contracts/token factory/LiquidityPool.sol\":594:596  10 */\n  0x0a\n    /* \"contracts/token factory/LiquidityPool.sol\":569:596  uint256 public sellTax = 10 */\n  0x06\n  sstore\n    /* \"contracts/token factory/LiquidityPool.sol\":759:762  200 */\n  0xc8\n    /* \"contracts/token factory/LiquidityPool.sol\":725:762  uint256 public penaltyThreshold = 200 */\n  0x08\n  sstore\n    /* \"contracts/token factory/LiquidityPool.sol\":824:860  bool public penaltiesEnabled = false */\n  0x09\n  dup1\n  sload\n  not(0xff)\n  and\n  swap1\n  sstore\n    /* \"contracts/token factory/LiquidityPool.sol\":1539:1855  constructor(address _devAddress, address _tokenFactory) {... */\n  callvalue\n  dup1\n  iszero\n  tag_1\n  jumpi\n  0x00\n  dup1\n  revert\ntag_1:\n  pop\n  mload(0x40)\n  sub(codesize, bytecodeSize)\n  dup1\n  bytecodeSize\n  dup4\n  codecopy\n  dup2\n  add\n  0x40\n  dup2\n  swap1\n  mstore\n  tag_2\n  swap2\n  tag_3\n  jump\t// in\ntag_2:\n    /* \"@openzeppelin/contracts/utils/ReentrancyGuard.sol\":1857:1858  1 */\n  0x01\n    /* \"@openzeppelin/contracts/utils/ReentrancyGuard.sol\":2061:2068  _status */\n  0x00\n    /* \"@openzeppelin/contracts/utils/ReentrancyGuard.sol\":2061:2082  _status = NOT_ENTERED */\n  sstore\n  sub(shl(0xa0, 0x01), 0x01)\n    /* \"contracts/token factory/LiquidityPool.sol\":1613:1638  _devAddress != address(0) */\n  dup3\n  and\n    /* \"contracts/token factory/LiquidityPool.sol\":1605:1683  require(_devAddress != address(0), \"Developer address cannot be zero address\") */\n  tag_8\n  jumpi\n  mload(0x40)\n  shl(0xe5, 0x461bcd)\n  dup2\n  mstore\n    /* \"#utility.yul\":696:698   */\n  0x20\n    /* \"contracts/token factory/LiquidityPool.sol\":1605:1683  require(_devAddress != address(0), \"Developer address cannot be zero address\") */\n  0x04\n  dup3\n  add\n    /* \"#utility.yul\":678:699   */\n  mstore\n    /* \"#utility.yul\":735:737   */\n  0x28\n    /* \"#utility.yul\":715:733   */\n  0x24\n  dup3\n  add\n    /* \"#utility.yul\":708:738   */\n  mstore\n    /* \"#utility.yul\":774:808   */\n  0x446576656c6f70657220616464726573732063616e6e6f74206265207a65726f\n    /* \"#utility.yul\":754:772   */\n  0x44\n  dup3\n  add\n    /* \"#utility.yul\":747:809   */\n  mstore\n  shl(0xc0, 0x2061646472657373)\n    /* \"#utility.yul\":825:843   */\n  0x64\n  dup3\n  add\n    /* \"#utility.yul\":818:856   */\n  mstore\n    /* \"#utility.yul\":873:892   */\n  0x84\n  add\n    /* \"contracts/token factory/LiquidityPool.sol\":1605:1683  require(_devAddress != address(0), \"Developer address cannot be zero address\") */\ntag_9:\n  mload(0x40)\n  dup1\n  swap2\n  sub\n  swap1\n  revert\ntag_8:\n  sub(shl(0xa0, 0x01), 0x01)\n    /* \"contracts/token factory/LiquidityPool.sol\":1701:1728  _tokenFactory != address(0) */\n  dup2\n  and\n    /* \"contracts/token factory/LiquidityPool.sol\":1693:1776  require(_tokenFactory != address(0), \"TokenFactory address cannot be zero address\") */\n  tag_11\n  jumpi\n  mload(0x40)\n  shl(0xe5, 0x461bcd)\n  dup2\n  mstore\n    /* \"#utility.yul\":1105:1107   */\n  0x20\n    /* \"contracts/token factory/LiquidityPool.sol\":1693:1776  require(_tokenFactory != address(0), \"TokenFactory address cannot be zero address\") */\n  0x04\n  dup3\n  add\n    /* \"#utility.yul\":1087:1108   */\n  mstore\n    /* \"#utility.yul\":1144:1146   */\n  0x2b\n    /* \"#utility.yul\":1124:1142   */\n  0x24\n  dup3\n  add\n    /* \"#utility.yul\":1117:1147   */\n  mstore\n    /* \"#utility.yul\":1183:1217   */\n  0x546f6b656e466163746f727920616464726573732063616e6e6f74206265207a\n    /* \"#utility.yul\":1163:1181   */\n  0x44\n  dup3\n  add\n    /* \"#utility.yul\":1156:1218   */\n  mstore\n  shl(0xa8, 0x65726f2061646472657373)\n    /* \"#utility.yul\":1234:1252   */\n  0x64\n  dup3\n  add\n    /* \"#utility.yul\":1227:1268   */\n  mstore\n    /* \"#utility.yul\":1285:1304   */\n  0x84\n  add\n    /* \"contracts/token factory/LiquidityPool.sol\":1693:1776  require(_tokenFactory != address(0), \"TokenFactory address cannot be zero address\") */\n  tag_9\n    /* \"#utility.yul\":903:1310   */\n  jump\n    /* \"contracts/token factory/LiquidityPool.sol\":1693:1776  require(_tokenFactory != address(0), \"TokenFactory address cannot be zero address\") */\ntag_11:\n    /* \"contracts/token factory/LiquidityPool.sol\":1786:1796  devAddress */\n  0x07\n    /* \"contracts/token factory/LiquidityPool.sol\":1786:1810  devAddress = _devAddress */\n  dup1\n  sload\n  sub(shl(0xa0, 0x01), 0x01)\n  swap4\n  dup5\n  and\n  not(sub(shl(0xa0, 0x01), 0x01))\n  swap2\n  dup3\n  and\n  or\n  swap1\n  swap2\n  sstore\n    /* \"contracts/token factory/LiquidityPool.sol\":1820:1832  tokenFactory */\n  0x02\n    /* \"contracts/token factory/LiquidityPool.sol\":1820:1848  tokenFactory = _tokenFactory */\n  dup1\n  sload\n  swap3\n  swap1\n  swap4\n  and\n  swap2\n  and\n  or\n  swap1\n  sstore\n    /* \"contracts/token factory/LiquidityPool.sol\":176:6153  contract LiquidityPool is ReentrancyGuard {... */\n  jump(tag_16)\n    /* \"#utility.yul\":14:191   */\ntag_15:\n    /* \"#utility.yul\":93:106   */\n  dup1\n  mload\n  sub(shl(0xa0, 0x01), 0x01)\n    /* \"#utility.yul\":135:166   */\n  dup2\n  and\n    /* \"#utility.yul\":125:167   */\n  dup2\n  eq\n    /* \"#utility.yul\":115:185   */\n  tag_18\n  jumpi\n    /* \"#utility.yul\":181:182   */\n  0x00\n    /* \"#utility.yul\":178:179   */\n  dup1\n    /* \"#utility.yul\":171:183   */\n  revert\n    /* \"#utility.yul\":115:185   */\ntag_18:\n    /* \"#utility.yul\":14:191   */\n  swap2\n  swap1\n  pop\n  jump\t// out\n    /* \"#utility.yul\":196:489   */\ntag_3:\n    /* \"#utility.yul\":275:281   */\n  0x00\n    /* \"#utility.yul\":283:289   */\n  dup1\n    /* \"#utility.yul\":336:338   */\n  0x40\n    /* \"#utility.yul\":324:333   */\n  dup4\n    /* \"#utility.yul\":315:322   */\n  dup6\n    /* \"#utility.yul\":311:334   */\n  sub\n    /* \"#utility.yul\":307:339   */\n  slt\n    /* \"#utility.yul\":304:356   */\n  iszero\n  tag_20\n  jumpi\n    /* \"#utility.yul\":352:353   */\n  0x00\n    /* \"#utility.yul\":349:350   */\n  dup1\n    /* \"#utility.yul\":342:354   */\n  revert\n    /* \"#utility.yul\":304:356   */\ntag_20:\n    /* \"#utility.yul\":375:415   */\n  tag_21\n    /* \"#utility.yul\":405:414   */\n  dup4\n    /* \"#utility.yul\":375:415   */\n  tag_15\n  jump\t// in\ntag_21:\n    /* \"#utility.yul\":365:415   */\n  swap2\n  pop\n    /* \"#utility.yul\":434:483   */\n  tag_22\n    /* \"#utility.yul\":479:481   */\n  0x20\n    /* \"#utility.yul\":468:477   */\n  dup5\n    /* \"#utility.yul\":464:482   */\n  add\n    /* \"#utility.yul\":434:483   */\n  tag_15\n  jump\t// in\ntag_22:\n    /* \"#utility.yul\":424:483   */\n  swap1\n  pop\n    /* \"#utility.yul\":196:489   */\n  swap3\n  pop\n  swap3\n  swap1\n  pop\n  jump\t// out\n    /* \"#utility.yul\":903:1310   */\ntag_16:\n    /* \"contracts/token factory/LiquidityPool.sol\":176:6153  contract LiquidityPool is ReentrancyGuard {... */\n  dataSize(sub_0)\n  dup1\n  dataOffset(sub_0)\n  0x00\n  codecopy\n  0x00\n  return\nstop\n\nsub_0: assembly {\n        /* \"contracts/token factory/LiquidityPool.sol\":176:6153  contract LiquidityPool is ReentrancyGuard {... */\n      mstore(0x40, 0x80)\n      jumpi(tag_1, lt(calldatasize, 0x04))\n      shr(0xe0, calldataload(0x00))\n      dup1\n      0x4f7041a5\n      gt\n      tag_20\n      jumpi\n      dup1\n      0xaac8e6a4\n      gt\n      tag_21\n      jumpi\n      dup1\n      0xaac8e6a4\n      eq\n      tag_15\n      jumpi\n      dup1\n      0xc91e5149\n      eq\n      tag_16\n      jumpi\n      dup1\n      0xcc1776d3\n      eq\n      tag_17\n      jumpi\n      dup1\n      0xcd6dc687\n      eq\n      tag_18\n      jumpi\n      dup1\n      0xe77772fe\n      eq\n      tag_19\n      jumpi\n      0x00\n      dup1\n      revert\n    tag_21:\n      dup1\n      0x4f7041a5\n      eq\n      tag_11\n      jumpi\n      dup1\n      0x5a76f25e\n      eq\n      tag_12\n      jumpi\n      dup1\n      0x88e22f7f\n      eq\n      tag_13\n      jumpi\n      dup1\n      0xa4821719\n      eq\n      tag_14\n      jumpi\n      0x00\n      dup1\n      revert\n    tag_20:\n      dup1\n      0x3ad10ef6\n      gt\n      tag_22\n      jumpi\n      dup1\n      0x3ad10ef6\n      eq\n      tag_6\n      jumpi\n      dup1\n      0x436d3340\n      eq\n      tag_7\n      jumpi\n      dup1\n      0x443cb4bc\n      eq\n      tag_8\n      jumpi\n      dup1\n      0x465fa408\n      eq\n      tag_9\n      jumpi\n      dup1\n      0x4ecce451\n      eq\n      tag_10\n      jumpi\n      0x00\n      dup1\n      revert\n    tag_22:\n      dup1\n      0x0dfe1681\n      eq\n      tag_2\n      jumpi\n      dup1\n      0x12185a39\n      eq\n      tag_3\n      jumpi\n      dup1\n      0x2397e4d7\n      eq\n      tag_4\n      jumpi\n      dup1\n      0x23e18ddd\n      eq\n      tag_5\n      jumpi\n    tag_1:\n      0x00\n      dup1\n      revert\n        /* \"contracts/token factory/LiquidityPool.sol\":224:245  address public token0 */\n    tag_2:\n      callvalue\n      dup1\n      iszero\n      tag_23\n      jumpi\n      0x00\n      dup1\n      revert\n    tag_23:\n      pop\n      sload(0x01)\n      tag_24\n      swap1\n      sub(shl(0xa0, 0x01), 0x01)\n      and\n      dup2\n      jump\n    tag_24:\n      mload(0x40)\n      sub(shl(0xa0, 0x01), 0x01)\n        /* \"#utility.yul\":178:210   */\n      swap1\n      swap2\n      and\n        /* \"#utility.yul\":160:211   */\n      dup2\n      mstore\n        /* \"#utility.yul\":148:150   */\n      0x20\n        /* \"#utility.yul\":133:151   */\n      add\n        /* \"contracts/token factory/LiquidityPool.sol\":224:245  address public token0 */\n    tag_26:\n      mload(0x40)\n      dup1\n      swap2\n      sub\n      swap1\n      return\n        /* \"contracts/token factory/LiquidityPool.sol\":2726:2942  function updateSellTax(uint256 newSellTax) external onlyFactory {... */\n    tag_3:\n      callvalue\n      dup1\n      iszero\n      tag_28\n      jumpi\n      0x00\n      dup1\n      revert\n    tag_28:\n      pop\n      tag_29\n      tag_30\n      calldatasize\n      0x04\n      tag_31\n      jump\t// in\n    tag_30:\n      tag_32\n      jump\t// in\n    tag_29:\n      stop\n        /* \"contracts/token factory/LiquidityPool.sol\":3735:4481  function sellToken(uint256 amountIn) external nonReentrant returns (uint256 amountOut) {... */\n    tag_4:\n      callvalue\n      dup1\n      iszero\n      tag_33\n      jumpi\n      0x00\n      dup1\n      revert\n    tag_33:\n      pop\n      tag_34\n      tag_35\n      calldatasize\n      0x04\n      tag_31\n      jump\t// in\n    tag_35:\n      tag_36\n      jump\t// in\n    tag_34:\n      mload(0x40)\n        /* \"#utility.yul\":599:624   */\n      swap1\n      dup2\n      mstore\n        /* \"#utility.yul\":587:589   */\n      0x20\n        /* \"#utility.yul\":572:590   */\n      add\n        /* \"contracts/token factory/LiquidityPool.sol\":3735:4481  function sellToken(uint256 amountIn) external nonReentrant returns (uint256 amountOut) {... */\n      tag_26\n        /* \"#utility.yul\":453:630   */\n      jump\n        /* \"contracts/token factory/LiquidityPool.sol\":5326:5472  function togglePenalties(bool enable) external onlyFactory {... */\n    tag_5:\n      callvalue\n      dup1\n      iszero\n      tag_39\n      jumpi\n      0x00\n      dup1\n      revert\n    tag_39:\n      pop\n      tag_29\n      tag_41\n      calldatasize\n      0x04\n      tag_42\n      jump\t// in\n    tag_41:\n      tag_43\n      jump\t// in\n        /* \"contracts/token factory/LiquidityPool.sol\":650:675  address public devAddress */\n    tag_6:\n      callvalue\n      dup1\n      iszero\n      tag_44\n      jumpi\n      0x00\n      dup1\n      revert\n    tag_44:\n      pop\n      sload(0x07)\n      tag_24\n      swap1\n      sub(shl(0xa0, 0x01), 0x01)\n      and\n      dup2\n      jump\n        /* \"contracts/token factory/LiquidityPool.sol\":2461:2671  function updateBuyTax(uint256 newBuyTax) external onlyFactory {... */\n    tag_7:\n      callvalue\n      dup1\n      iszero\n      tag_48\n      jumpi\n      0x00\n      dup1\n      revert\n    tag_48:\n      pop\n      tag_29\n      tag_50\n      calldatasize\n      0x04\n      tag_31\n      jump\t// in\n    tag_50:\n      tag_51\n      jump\t// in\n        /* \"contracts/token factory/LiquidityPool.sol\":345:368  uint256 public reserve0 */\n    tag_8:\n      callvalue\n      dup1\n      iszero\n      tag_52\n      jumpi\n      0x00\n      dup1\n      revert\n    tag_52:\n      pop\n      tag_34\n      sload(0x03)\n      dup2\n      jump\n        /* \"contracts/token factory/LiquidityPool.sol\":4562:4874  function calculatePriceForTokens(uint256 etherAmount) public view returns (uint256 tokenAmount) {... */\n    tag_9:\n      callvalue\n      dup1\n      iszero\n      tag_56\n      jumpi\n      0x00\n      dup1\n      revert\n    tag_56:\n      pop\n      tag_34\n      tag_58\n      calldatasize\n      0x04\n      tag_31\n      jump\t// in\n    tag_58:\n      tag_59\n      jump\t// in\n        /* \"contracts/token factory/LiquidityPool.sol\":5542:6151  function calculatePenalty(uint256 amountIn) public view returns (uint256 penaltyAmount, uint256 penaltyPercentage) {... */\n    tag_10:\n      callvalue\n      dup1\n      iszero\n      tag_61\n      jumpi\n      0x00\n      dup1\n      revert\n    tag_61:\n      pop\n      tag_62\n      tag_63\n      calldatasize\n      0x04\n      tag_31\n      jump\t// in\n    tag_63:\n      tag_64\n      jump\t// in\n    tag_62:\n      0x40\n      dup1\n      mload\n        /* \"#utility.yul\":1178:1203   */\n      swap3\n      dup4\n      mstore\n        /* \"#utility.yul\":1234:1236   */\n      0x20\n        /* \"#utility.yul\":1219:1237   */\n      dup4\n      add\n        /* \"#utility.yul\":1212:1246   */\n      swap2\n      swap1\n      swap2\n      mstore\n        /* \"#utility.yul\":1151:1169   */\n      add\n        /* \"contracts/token factory/LiquidityPool.sol\":5542:6151  function calculatePenalty(uint256 amountIn) public view returns (uint256 penaltyAmount, uint256 penaltyPercentage) {... */\n      tag_26\n        /* \"#utility.yul\":1004:1252   */\n      jump\n        /* \"contracts/token factory/LiquidityPool.sol\":491:516  uint256 public buyTax = 0 */\n    tag_11:\n      callvalue\n      dup1\n      iszero\n      tag_67\n      jumpi\n      0x00\n      dup1\n      revert\n    tag_67:\n      pop\n      tag_34\n      sload(0x05)\n      dup2\n      jump\n        /* \"contracts/token factory/LiquidityPool.sol\":402:425  uint256 public reserve1 */\n    tag_12:\n      callvalue\n      dup1\n      iszero\n      tag_71\n      jumpi\n      0x00\n      dup1\n      revert\n    tag_71:\n      pop\n      tag_34\n      sload(0x04)\n      dup2\n      jump\n        /* \"contracts/token factory/LiquidityPool.sol\":824:860  bool public penaltiesEnabled = false */\n    tag_13:\n      callvalue\n      dup1\n      iszero\n      tag_75\n      jumpi\n      0x00\n      dup1\n      revert\n    tag_75:\n      pop\n      sload(0x09)\n      tag_76\n      swap1\n      0xff\n      and\n      dup2\n      jump\n    tag_76:\n      mload(0x40)\n        /* \"#utility.yul\":1422:1436   */\n      swap1\n      iszero\n        /* \"#utility.yul\":1415:1437   */\n      iszero\n        /* \"#utility.yul\":1397:1438   */\n      dup2\n      mstore\n        /* \"#utility.yul\":1385:1387   */\n      0x20\n        /* \"#utility.yul\":1370:1388   */\n      add\n        /* \"contracts/token factory/LiquidityPool.sol\":824:860  bool public penaltiesEnabled = false */\n      tag_26\n        /* \"#utility.yul\":1257:1444   */\n      jump\n        /* \"contracts/token factory/LiquidityPool.sol\":2996:3681  function buyToken() external payable nonReentrant returns (uint256 amountOut) {... */\n    tag_14:\n      tag_34\n      tag_81\n      jump\t// in\n        /* \"contracts/token factory/LiquidityPool.sol\":4955:5267  function calculatePriceForEther(uint256 tokenAmount) public view returns (uint256 etherAmount) {... */\n    tag_15:\n      callvalue\n      dup1\n      iszero\n      tag_83\n      jumpi\n      0x00\n      dup1\n      revert\n    tag_83:\n      pop\n      tag_34\n      tag_85\n      calldatasize\n      0x04\n      tag_31\n      jump\t// in\n    tag_85:\n      tag_86\n      jump\t// in\n        /* \"contracts/token factory/LiquidityPool.sol\":725:762  uint256 public penaltyThreshold = 200 */\n    tag_16:\n      callvalue\n      dup1\n      iszero\n      tag_88\n      jumpi\n      0x00\n      dup1\n      revert\n    tag_88:\n      pop\n      tag_34\n      sload(0x08)\n      dup2\n      jump\n        /* \"contracts/token factory/LiquidityPool.sol\":569:596  uint256 public sellTax = 10 */\n    tag_17:\n      callvalue\n      dup1\n      iszero\n      tag_92\n      jumpi\n      0x00\n      dup1\n      revert\n    tag_92:\n      pop\n      tag_34\n      sload(0x06)\n      dup2\n      jump\n        /* \"contracts/token factory/LiquidityPool.sol\":1940:2407  function initialize(... */\n    tag_18:\n      tag_29\n      tag_97\n      calldatasize\n      0x04\n      tag_98\n      jump\t// in\n    tag_97:\n      tag_99\n      jump\t// in\n        /* \"contracts/token factory/LiquidityPool.sol\":277:304  address public tokenFactory */\n    tag_19:\n      callvalue\n      dup1\n      iszero\n      tag_100\n      jumpi\n      0x00\n      dup1\n      revert\n    tag_100:\n      pop\n      sload(0x02)\n      tag_24\n      swap1\n      sub(shl(0xa0, 0x01), 0x01)\n      and\n      dup2\n      jump\n        /* \"contracts/token factory/LiquidityPool.sol\":2726:2942  function updateSellTax(uint256 newSellTax) external onlyFactory {... */\n    tag_32:\n        /* \"contracts/token factory/LiquidityPool.sol\":967:979  tokenFactory */\n      and(sub(shl(0xa0, 0x01), 0x01), sload(0x02))\n        /* \"contracts/token factory/LiquidityPool.sol\":953:963  msg.sender */\n      caller\n        /* \"contracts/token factory/LiquidityPool.sol\":953:979  msg.sender == tokenFactory */\n      eq\n        /* \"contracts/token factory/LiquidityPool.sol\":945:1014  require(msg.sender == tokenFactory, \"Caller is not the TokenFactory\") */\n      tag_105\n      jumpi\n      mload(0x40)\n      shl(0xe5, 0x461bcd)\n      dup2\n      mstore\n      0x04\n      add\n      tag_106\n      swap1\n      tag_107\n      jump\t// in\n    tag_106:\n      mload(0x40)\n      dup1\n      swap2\n      sub\n      swap1\n      revert\n    tag_105:\n        /* \"contracts/token factory/LiquidityPool.sol\":2831:2833  50 */\n      0x32\n        /* \"contracts/token factory/LiquidityPool.sol\":2817:2827  newSellTax */\n      dup2\n        /* \"contracts/token factory/LiquidityPool.sol\":2808:2814  buyTax */\n      sload(0x05)\n        /* \"contracts/token factory/LiquidityPool.sol\":2808:2827  buyTax + newSellTax */\n      tag_109\n      swap2\n      swap1\n      tag_110\n      jump\t// in\n    tag_109:\n        /* \"contracts/token factory/LiquidityPool.sol\":2808:2833  buyTax + newSellTax <= 50 */\n      gt\n      iszero\n        /* \"contracts/token factory/LiquidityPool.sol\":2800:2864  require(buyTax + newSellTax <= 50, \"Total tax cannot exceed 5%\") */\n      tag_111\n      jumpi\n      mload(0x40)\n      shl(0xe5, 0x461bcd)\n      dup2\n      mstore\n        /* \"#utility.yul\":2683:2685   */\n      0x20\n        /* \"contracts/token factory/LiquidityPool.sol\":2800:2864  require(buyTax + newSellTax <= 50, \"Total tax cannot exceed 5%\") */\n      0x04\n      dup3\n      add\n        /* \"#utility.yul\":2665:2686   */\n      mstore\n        /* \"#utility.yul\":2722:2724   */\n      0x1a\n        /* \"#utility.yul\":2702:2720   */\n      0x24\n      dup3\n      add\n        /* \"#utility.yul\":2695:2725   */\n      mstore\n        /* \"#utility.yul\":2761:2789   */\n      0x546f74616c207461782063616e6e6f7420657863656564203525000000000000\n        /* \"#utility.yul\":2741:2759   */\n      0x44\n      dup3\n      add\n        /* \"#utility.yul\":2734:2790   */\n      mstore\n        /* \"#utility.yul\":2807:2825   */\n      0x64\n      add\n        /* \"contracts/token factory/LiquidityPool.sol\":2800:2864  require(buyTax + newSellTax <= 50, \"Total tax cannot exceed 5%\") */\n      tag_106\n        /* \"#utility.yul\":2481:2831   */\n      jump\n        /* \"contracts/token factory/LiquidityPool.sol\":2800:2864  require(buyTax + newSellTax <= 50, \"Total tax cannot exceed 5%\") */\n    tag_111:\n        /* \"contracts/token factory/LiquidityPool.sol\":2874:2881  sellTax */\n      0x06\n        /* \"contracts/token factory/LiquidityPool.sol\":2874:2894  sellTax = newSellTax */\n      dup2\n      swap1\n      sstore\n        /* \"contracts/token factory/LiquidityPool.sol\":2909:2935  SellTaxUpdated(newSellTax) */\n      mload(0x40)\n        /* \"#utility.yul\":599:624   */\n      dup2\n      dup2\n      mstore\n        /* \"contracts/token factory/LiquidityPool.sol\":2909:2935  SellTaxUpdated(newSellTax) */\n      0xa6255338a5f732d64ceba7f4c18182567f9d1067eb984b46d478b37d72a52d11\n      swap1\n        /* \"#utility.yul\":587:589   */\n      0x20\n        /* \"#utility.yul\":572:590   */\n      add\n        /* \"contracts/token factory/LiquidityPool.sol\":2909:2935  SellTaxUpdated(newSellTax) */\n    tag_114:\n      mload(0x40)\n      dup1\n      swap2\n      sub\n      swap1\n      log1\n        /* \"contracts/token factory/LiquidityPool.sol\":2726:2942  function updateSellTax(uint256 newSellTax) external onlyFactory {... */\n      pop\n      jump\t// out\n        /* \"contracts/token factory/LiquidityPool.sol\":3735:4481  function sellToken(uint256 amountIn) external nonReentrant returns (uint256 amountOut) {... */\n    tag_36:\n        /* \"contracts/token factory/LiquidityPool.sol\":3803:3820  uint256 amountOut */\n      0x00\n        /* \"@openzeppelin/contracts/utils/ReentrancyGuard.sol\":2500:2521  _nonReentrantBefore() */\n      tag_116\n        /* \"@openzeppelin/contracts/utils/ReentrancyGuard.sol\":2500:2519  _nonReentrantBefore */\n      tag_117\n        /* \"@openzeppelin/contracts/utils/ReentrancyGuard.sol\":2500:2521  _nonReentrantBefore() */\n      jump\t// in\n    tag_116:\n        /* \"contracts/token factory/LiquidityPool.sol\":3851:3852  0 */\n      0x00\n        /* \"contracts/token factory/LiquidityPool.sol\":3840:3848  amountIn */\n      dup3\n        /* \"contracts/token factory/LiquidityPool.sol\":3840:3852  amountIn > 0 */\n      gt\n        /* \"contracts/token factory/LiquidityPool.sol\":3832:3878  require(amountIn > 0, \"Must sell some tokens\") */\n      tag_119\n      jumpi\n      mload(0x40)\n      shl(0xe5, 0x461bcd)\n      dup2\n      mstore\n        /* \"#utility.yul\":3038:3040   */\n      0x20\n        /* \"contracts/token factory/LiquidityPool.sol\":3832:3878  require(amountIn > 0, \"Must sell some tokens\") */\n      0x04\n      dup3\n      add\n        /* \"#utility.yul\":3020:3041   */\n      mstore\n        /* \"#utility.yul\":3077:3079   */\n      0x15\n        /* \"#utility.yul\":3057:3075   */\n      0x24\n      dup3\n      add\n        /* \"#utility.yul\":3050:3080   */\n      mstore\n      shl(0x58, 0x4d7573742073656c6c20736f6d6520746f6b656e73)\n        /* \"#utility.yul\":3096:3114   */\n      0x44\n      dup3\n      add\n        /* \"#utility.yul\":3089:3140   */\n      mstore\n        /* \"#utility.yul\":3157:3175   */\n      0x64\n      add\n        /* \"contracts/token factory/LiquidityPool.sol\":3832:3878  require(amountIn > 0, \"Must sell some tokens\") */\n      tag_106\n        /* \"#utility.yul\":2836:3181   */\n      jump\n        /* \"contracts/token factory/LiquidityPool.sol\":3832:3878  require(amountIn > 0, \"Must sell some tokens\") */\n    tag_119:\n        /* \"contracts/token factory/LiquidityPool.sol\":3889:3900  uint256 tax */\n      0x00\n        /* \"contracts/token factory/LiquidityPool.sol\":3926:3930  1000 */\n      0x03e8\n        /* \"contracts/token factory/LiquidityPool.sol\":3915:3922  sellTax */\n      sload(0x06)\n        /* \"contracts/token factory/LiquidityPool.sol\":3904:3912  amountIn */\n      dup5\n        /* \"contracts/token factory/LiquidityPool.sol\":3904:3922  amountIn * sellTax */\n      tag_122\n      swap2\n      swap1\n      tag_123\n      jump\t// in\n    tag_122:\n        /* \"contracts/token factory/LiquidityPool.sol\":3903:3930  (amountIn * sellTax) / 1000 */\n      tag_124\n      swap2\n      swap1\n      tag_125\n      jump\t// in\n    tag_124:\n        /* \"contracts/token factory/LiquidityPool.sol\":3889:3930  uint256 tax = (amountIn * sellTax) / 1000 */\n      swap1\n      pop\n        /* \"contracts/token factory/LiquidityPool.sol\":3940:3964  uint256 amountInAfterTax */\n      0x00\n        /* \"contracts/token factory/LiquidityPool.sol\":3967:3981  amountIn - tax */\n      tag_126\n        /* \"contracts/token factory/LiquidityPool.sol\":3889:3930  uint256 tax = (amountIn * sellTax) / 1000 */\n      dup3\n        /* \"contracts/token factory/LiquidityPool.sol\":3967:3975  amountIn */\n      dup6\n        /* \"contracts/token factory/LiquidityPool.sol\":3967:3981  amountIn - tax */\n      tag_127\n      jump\t// in\n    tag_126:\n        /* \"contracts/token factory/LiquidityPool.sol\":3999:4005  token0 */\n      sload(0x01)\n        /* \"contracts/token factory/LiquidityPool.sol\":3992:4056  IERC20(token0).transferFrom(msg.sender, address(this), amountIn) */\n      mload(0x40)\n      shl(0xe0, 0x23b872dd)\n      dup2\n      mstore\n        /* \"contracts/token factory/LiquidityPool.sol\":4020:4030  msg.sender */\n      caller\n        /* \"contracts/token factory/LiquidityPool.sol\":3992:4056  IERC20(token0).transferFrom(msg.sender, address(this), amountIn) */\n      0x04\n      dup3\n      add\n        /* \"#utility.yul\":3916:3967   */\n      mstore\n        /* \"contracts/token factory/LiquidityPool.sol\":4040:4044  this */\n      address\n        /* \"#utility.yul\":3983:4001   */\n      0x24\n      dup3\n      add\n        /* \"#utility.yul\":3976:4036   */\n      mstore\n        /* \"#utility.yul\":4052:4070   */\n      0x44\n      dup2\n      add\n        /* \"#utility.yul\":4045:4079   */\n      dup8\n      swap1\n      mstore\n        /* \"contracts/token factory/LiquidityPool.sol\":3940:3981  uint256 amountInAfterTax = amountIn - tax */\n      swap2\n      swap3\n      pop\n      sub(shl(0xa0, 0x01), 0x01)\n        /* \"contracts/token factory/LiquidityPool.sol\":3999:4005  token0 */\n      and\n      swap1\n        /* \"contracts/token factory/LiquidityPool.sol\":3992:4019  IERC20(token0).transferFrom */\n      0x23b872dd\n      swap1\n        /* \"#utility.yul\":3889:3907   */\n      0x64\n      add\n        /* \"contracts/token factory/LiquidityPool.sol\":3992:4056  IERC20(token0).transferFrom(msg.sender, address(this), amountIn) */\n      0x20\n      mload(0x40)\n      dup1\n      dup4\n      sub\n      dup2\n      0x00\n      dup8\n      gas\n      call\n      iszero\n      dup1\n      iszero\n      tag_131\n      jumpi\n      returndatasize\n      0x00\n      dup1\n      returndatacopy\n      revert(0x00, returndatasize)\n    tag_131:\n      pop\n      pop\n      pop\n      pop\n      mload(0x40)\n      returndatasize\n      not(0x1f)\n      0x1f\n      dup3\n      add\n      and\n      dup3\n      add\n      dup1\n      0x40\n      mstore\n      pop\n      dup2\n      add\n      swap1\n      tag_132\n      swap2\n      swap1\n      tag_133\n      jump\t// in\n    tag_132:\n      pop\n        /* \"contracts/token factory/LiquidityPool.sol\":4073:4079  token0 */\n      sload(0x01)\n        /* \"contracts/token factory/LiquidityPool.sol\":4090:4100  devAddress */\n      sload(0x07)\n        /* \"contracts/token factory/LiquidityPool.sol\":4066:4106  IERC20(token0).transfer(devAddress, tax) */\n      mload(0x40)\n      shl(0xe0, 0xa9059cbb)\n      dup2\n      mstore\n      sub(shl(0xa0, 0x01), 0x01)\n        /* \"contracts/token factory/LiquidityPool.sol\":4090:4100  devAddress */\n      swap2\n      dup3\n      and\n        /* \"contracts/token factory/LiquidityPool.sol\":4066:4106  IERC20(token0).transfer(devAddress, tax) */\n      0x04\n      dup3\n      add\n        /* \"#utility.yul\":4514:4565   */\n      mstore\n        /* \"#utility.yul\":4581:4599   */\n      0x24\n      dup2\n      add\n        /* \"#utility.yul\":4574:4608   */\n      dup6\n      swap1\n      mstore\n        /* \"contracts/token factory/LiquidityPool.sol\":4073:4079  token0 */\n      swap2\n      and\n      swap1\n        /* \"contracts/token factory/LiquidityPool.sol\":4066:4089  IERC20(token0).transfer */\n      0xa9059cbb\n      swap1\n        /* \"#utility.yul\":4487:4505   */\n      0x44\n      add\n        /* \"contracts/token factory/LiquidityPool.sol\":4066:4106  IERC20(token0).transfer(devAddress, tax) */\n      0x20\n      mload(0x40)\n      dup1\n      dup4\n      sub\n      dup2\n      0x00\n      dup8\n      gas\n      call\n      iszero\n      dup1\n      iszero\n      tag_137\n      jumpi\n      returndatasize\n      0x00\n      dup1\n      returndatacopy\n      revert(0x00, returndatasize)\n    tag_137:\n      pop\n      pop\n      pop\n      pop\n      mload(0x40)\n      returndatasize\n      not(0x1f)\n      0x1f\n      dup3\n      add\n      and\n      dup3\n      add\n      dup1\n      0x40\n      mstore\n      pop\n      dup2\n      add\n      swap1\n      tag_138\n      swap2\n      swap1\n      tag_133\n      jump\t// in\n    tag_138:\n      pop\n        /* \"contracts/token factory/LiquidityPool.sol\":4117:4136  uint256 newReserve0 */\n      0x00\n        /* \"contracts/token factory/LiquidityPool.sol\":4150:4166  amountInAfterTax */\n      dup2\n        /* \"contracts/token factory/LiquidityPool.sol\":4139:4147  reserve0 */\n      sload(0x03)\n        /* \"contracts/token factory/LiquidityPool.sol\":4139:4166  reserve0 + amountInAfterTax */\n      tag_139\n      swap2\n      swap1\n      tag_110\n      jump\t// in\n    tag_139:\n        /* \"contracts/token factory/LiquidityPool.sol\":4117:4166  uint256 newReserve0 = reserve0 + amountInAfterTax */\n      swap1\n      pop\n        /* \"contracts/token factory/LiquidityPool.sol\":4223:4234  newReserve0 */\n      dup1\n        /* \"contracts/token factory/LiquidityPool.sol\":4211:4219  reserve1 */\n      sload(0x04)\n        /* \"contracts/token factory/LiquidityPool.sol\":4200:4208  reserve0 */\n      sload(0x03)\n        /* \"contracts/token factory/LiquidityPool.sol\":4200:4219  reserve0 * reserve1 */\n      tag_140\n      swap2\n      swap1\n      tag_123\n      jump\t// in\n    tag_140:\n        /* \"contracts/token factory/LiquidityPool.sol\":4199:4234  (reserve0 * reserve1) / newReserve0 */\n      tag_141\n      swap2\n      swap1\n      tag_125\n      jump\t// in\n    tag_141:\n        /* \"contracts/token factory/LiquidityPool.sol\":4188:4196  reserve1 */\n      sload(0x04)\n        /* \"contracts/token factory/LiquidityPool.sol\":4188:4234  reserve1 - (reserve0 * reserve1) / newReserve0 */\n      tag_142\n      swap2\n      swap1\n      tag_127\n      jump\t// in\n    tag_142:\n        /* \"contracts/token factory/LiquidityPool.sol\":4176:4234  amountOut = reserve1 - (reserve0 * reserve1) / newReserve0 */\n      swap4\n      pop\n        /* \"contracts/token factory/LiquidityPool.sol\":4256:4267  newReserve0 */\n      dup1\n        /* \"contracts/token factory/LiquidityPool.sol\":4245:4253  reserve0 */\n      0x03\n        /* \"contracts/token factory/LiquidityPool.sol\":4245:4267  reserve0 = newReserve0 */\n      dup2\n      swap1\n      sstore\n      pop\n        /* \"contracts/token factory/LiquidityPool.sol\":4289:4298  amountOut */\n      dup4\n        /* \"contracts/token factory/LiquidityPool.sol\":4277:4285  reserve1 */\n      0x04\n      0x00\n        /* \"contracts/token factory/LiquidityPool.sol\":4277:4298  reserve1 -= amountOut */\n      dup3\n      dup3\n      sload\n      tag_143\n      swap2\n      swap1\n      tag_127\n      jump\t// in\n    tag_143:\n      swap1\n      swap2\n      sstore\n      pop\n      pop\n        /* \"contracts/token factory/LiquidityPool.sol\":4328:4365  msg.sender.call{value: amountOut}(\"\") */\n      mload(0x40)\n        /* \"contracts/token factory/LiquidityPool.sol\":4310:4322  bool success */\n      0x00\n      swap1\n        /* \"contracts/token factory/LiquidityPool.sol\":4328:4338  msg.sender */\n      caller\n      swap1\n        /* \"contracts/token factory/LiquidityPool.sol\":4351:4360  amountOut */\n      dup7\n      swap1\n        /* \"contracts/token factory/LiquidityPool.sol\":4310:4322  bool success */\n      dup4\n        /* \"contracts/token factory/LiquidityPool.sol\":4328:4365  msg.sender.call{value: amountOut}(\"\") */\n      dup2\n        /* \"contracts/token factory/LiquidityPool.sol\":4310:4322  bool success */\n      dup2\n        /* \"contracts/token factory/LiquidityPool.sol\":4328:4365  msg.sender.call{value: amountOut}(\"\") */\n      dup2\n        /* \"contracts/token factory/LiquidityPool.sol\":4351:4360  amountOut */\n      dup6\n        /* \"contracts/token factory/LiquidityPool.sol\":4328:4338  msg.sender */\n      dup8\n        /* \"contracts/token factory/LiquidityPool.sol\":4328:4365  msg.sender.call{value: amountOut}(\"\") */\n      gas\n      call\n      swap3\n      pop\n      pop\n      pop\n      returndatasize\n      dup1\n      0x00\n      dup2\n      eq\n      tag_148\n      jumpi\n      mload(0x40)\n      swap2\n      pop\n      and(add(returndatasize, 0x3f), not(0x1f))\n      dup3\n      add\n      0x40\n      mstore\n      returndatasize\n      dup3\n      mstore\n      returndatasize\n      0x00\n      0x20\n      dup5\n      add\n      returndatacopy\n      jump(tag_147)\n    tag_148:\n      0x60\n      swap2\n      pop\n    tag_147:\n      pop\n        /* \"contracts/token factory/LiquidityPool.sol\":4309:4365  (bool success, ) = msg.sender.call{value: amountOut}(\"\") */\n      pop\n      swap1\n      pop\n        /* \"contracts/token factory/LiquidityPool.sol\":4383:4390  success */\n      dup1\n        /* \"contracts/token factory/LiquidityPool.sol\":4375:4416  require(success, \"Ether transfer failed\") */\n      tag_149\n      jumpi\n      mload(0x40)\n      shl(0xe5, 0x461bcd)\n      dup2\n      mstore\n        /* \"#utility.yul\":5031:5033   */\n      0x20\n        /* \"contracts/token factory/LiquidityPool.sol\":4375:4416  require(success, \"Ether transfer failed\") */\n      0x04\n      dup3\n      add\n        /* \"#utility.yul\":5013:5034   */\n      mstore\n        /* \"#utility.yul\":5070:5072   */\n      0x15\n        /* \"#utility.yul\":5050:5068   */\n      0x24\n      dup3\n      add\n        /* \"#utility.yul\":5043:5073   */\n      mstore\n      shl(0x5a, 0x115d1a195c881d1c985b9cd9995c8819985a5b1959)\n        /* \"#utility.yul\":5089:5107   */\n      0x44\n      dup3\n      add\n        /* \"#utility.yul\":5082:5133   */\n      mstore\n        /* \"#utility.yul\":5150:5168   */\n      0x64\n      add\n        /* \"contracts/token factory/LiquidityPool.sol\":4375:4416  require(success, \"Ether transfer failed\") */\n      tag_106\n        /* \"#utility.yul\":4829:5174   */\n      jump\n        /* \"contracts/token factory/LiquidityPool.sol\":4375:4416  require(success, \"Ether transfer failed\") */\n    tag_149:\n        /* \"contracts/token factory/LiquidityPool.sol\":4432:4474  SellToken(msg.sender, amountIn, amountOut) */\n      0x40\n      dup1\n      mload\n        /* \"#utility.yul\":1178:1203   */\n      dup8\n      dup2\n      mstore\n        /* \"#utility.yul\":1234:1236   */\n      0x20\n        /* \"#utility.yul\":1219:1237   */\n      dup2\n      add\n        /* \"#utility.yul\":1212:1246   */\n      dup8\n      swap1\n      mstore\n        /* \"contracts/token factory/LiquidityPool.sol\":4442:4452  msg.sender */\n      caller\n      swap2\n        /* \"contracts/token factory/LiquidityPool.sol\":4432:4474  SellToken(msg.sender, amountIn, amountOut) */\n      0xa8ff15eb642b39da3ab82bb74a87b76cc3e1aef2b82b70bc2a35458386db29aa\n      swap2\n        /* \"#utility.yul\":1151:1169   */\n      add\n        /* \"contracts/token factory/LiquidityPool.sol\":4432:4474  SellToken(msg.sender, amountIn, amountOut) */\n      mload(0x40)\n      dup1\n      swap2\n      sub\n      swap1\n      log2\n        /* \"contracts/token factory/LiquidityPool.sol\":3822:4481  {... */\n      pop\n      pop\n      pop\n      pop\n        /* \"@openzeppelin/contracts/utils/ReentrancyGuard.sol\":2542:2562  _nonReentrantAfter() */\n      tag_153\n        /* \"@openzeppelin/contracts/utils/ReentrancyGuard.sol\":1857:1858  1 */\n      0x01\n        /* \"@openzeppelin/contracts/utils/ReentrancyGuard.sol\":3068:3075  _status */\n      0x00\n        /* \"@openzeppelin/contracts/utils/ReentrancyGuard.sol\":3068:3089  _status = NOT_ENTERED */\n      sstore\n        /* \"@openzeppelin/contracts/utils/ReentrancyGuard.sol\":2888:3096  function _nonReentrantAfter() private {... */\n      jump\n        /* \"@openzeppelin/contracts/utils/ReentrancyGuard.sol\":2542:2562  _nonReentrantAfter() */\n    tag_153:\n        /* \"contracts/token factory/LiquidityPool.sol\":3735:4481  function sellToken(uint256 amountIn) external nonReentrant returns (uint256 amountOut) {... */\n      swap2\n      swap1\n      pop\n      jump\t// out\n        /* \"contracts/token factory/LiquidityPool.sol\":5326:5472  function togglePenalties(bool enable) external onlyFactory {... */\n    tag_43:\n        /* \"contracts/token factory/LiquidityPool.sol\":967:979  tokenFactory */\n      and(sub(shl(0xa0, 0x01), 0x01), sload(0x02))\n        /* \"contracts/token factory/LiquidityPool.sol\":953:963  msg.sender */\n      caller\n        /* \"contracts/token factory/LiquidityPool.sol\":953:979  msg.sender == tokenFactory */\n      eq\n        /* \"contracts/token factory/LiquidityPool.sol\":945:1014  require(msg.sender == tokenFactory, \"Caller is not the TokenFactory\") */\n      tag_156\n      jumpi\n      mload(0x40)\n      shl(0xe5, 0x461bcd)\n      dup2\n      mstore\n      0x04\n      add\n      tag_106\n      swap1\n      tag_107\n      jump\t// in\n    tag_156:\n        /* \"contracts/token factory/LiquidityPool.sol\":5395:5411  penaltiesEnabled */\n      0x09\n        /* \"contracts/token factory/LiquidityPool.sol\":5395:5420  penaltiesEnabled = enable */\n      dup1\n      sload\n      not(0xff)\n      and\n      dup3\n      iszero\n      iszero\n      swap1\n      dup2\n      or\n      swap1\n      swap2\n      sstore\n        /* \"contracts/token factory/LiquidityPool.sol\":5435:5465  PenaltiesStatusUpdated(enable) */\n      mload(0x40)\n        /* \"#utility.yul\":1397:1438   */\n      swap1\n      dup2\n      mstore\n        /* \"contracts/token factory/LiquidityPool.sol\":5435:5465  PenaltiesStatusUpdated(enable) */\n      0xec615c5e0f8d777f63be66955c04b8f91b4a878f984f8e1b9afa7255e83f0ef3\n      swap1\n        /* \"#utility.yul\":1385:1387   */\n      0x20\n        /* \"#utility.yul\":1370:1388   */\n      add\n        /* \"contracts/token factory/LiquidityPool.sol\":5435:5465  PenaltiesStatusUpdated(enable) */\n      tag_114\n        /* \"#utility.yul\":1257:1444   */\n      jump\n        /* \"contracts/token factory/LiquidityPool.sol\":2461:2671  function updateBuyTax(uint256 newBuyTax) external onlyFactory {... */\n    tag_51:\n        /* \"contracts/token factory/LiquidityPool.sol\":967:979  tokenFactory */\n      and(sub(shl(0xa0, 0x01), 0x01), sload(0x02))\n        /* \"contracts/token factory/LiquidityPool.sol\":953:963  msg.sender */\n      caller\n        /* \"contracts/token factory/LiquidityPool.sol\":953:979  msg.sender == tokenFactory */\n      eq\n        /* \"contracts/token factory/LiquidityPool.sol\":945:1014  require(msg.sender == tokenFactory, \"Caller is not the TokenFactory\") */\n      tag_161\n      jumpi\n      mload(0x40)\n      shl(0xe5, 0x461bcd)\n      dup2\n      mstore\n      0x04\n      add\n      tag_106\n      swap1\n      tag_107\n      jump\t// in\n    tag_161:\n        /* \"contracts/token factory/LiquidityPool.sol\":2564:2566  50 */\n      0x32\n        /* \"contracts/token factory/LiquidityPool.sol\":2553:2560  sellTax */\n      sload(0x06)\n        /* \"contracts/token factory/LiquidityPool.sol\":2541:2550  newBuyTax */\n      dup3\n        /* \"contracts/token factory/LiquidityPool.sol\":2541:2560  newBuyTax + sellTax */\n      tag_164\n      swap2\n      swap1\n      tag_110\n      jump\t// in\n    tag_164:\n        /* \"contracts/token factory/LiquidityPool.sol\":2541:2566  newBuyTax + sellTax <= 50 */\n      gt\n      iszero\n        /* \"contracts/token factory/LiquidityPool.sol\":2533:2597  require(newBuyTax + sellTax <= 50, \"Total tax cannot exceed 5%\") */\n      tag_165\n      jumpi\n      mload(0x40)\n      shl(0xe5, 0x461bcd)\n      dup2\n      mstore\n        /* \"#utility.yul\":2683:2685   */\n      0x20\n        /* \"contracts/token factory/LiquidityPool.sol\":2533:2597  require(newBuyTax + sellTax <= 50, \"Total tax cannot exceed 5%\") */\n      0x04\n      dup3\n      add\n        /* \"#utility.yul\":2665:2686   */\n      mstore\n        /* \"#utility.yul\":2722:2724   */\n      0x1a\n        /* \"#utility.yul\":2702:2720   */\n      0x24\n      dup3\n      add\n        /* \"#utility.yul\":2695:2725   */\n      mstore\n        /* \"#utility.yul\":2761:2789   */\n      0x546f74616c207461782063616e6e6f7420657863656564203525000000000000\n        /* \"#utility.yul\":2741:2759   */\n      0x44\n      dup3\n      add\n        /* \"#utility.yul\":2734:2790   */\n      mstore\n        /* \"#utility.yul\":2807:2825   */\n      0x64\n      add\n        /* \"contracts/token factory/LiquidityPool.sol\":2533:2597  require(newBuyTax + sellTax <= 50, \"Total tax cannot exceed 5%\") */\n      tag_106\n        /* \"#utility.yul\":2481:2831   */\n      jump\n        /* \"contracts/token factory/LiquidityPool.sol\":2533:2597  require(newBuyTax + sellTax <= 50, \"Total tax cannot exceed 5%\") */\n    tag_165:\n        /* \"contracts/token factory/LiquidityPool.sol\":2607:2613  buyTax */\n      0x05\n        /* \"contracts/token factory/LiquidityPool.sol\":2607:2625  buyTax = newBuyTax */\n      dup2\n      swap1\n      sstore\n        /* \"contracts/token factory/LiquidityPool.sol\":2640:2664  BuyTaxUpdated(newBuyTax) */\n      mload(0x40)\n        /* \"#utility.yul\":599:624   */\n      dup2\n      dup2\n      mstore\n        /* \"contracts/token factory/LiquidityPool.sol\":2640:2664  BuyTaxUpdated(newBuyTax) */\n      0x7a758dc8e99047b028278b3e2ff1416d8493a7aacee7a5dc30b6bf93270eccce\n      swap1\n        /* \"#utility.yul\":587:589   */\n      0x20\n        /* \"#utility.yul\":572:590   */\n      add\n        /* \"contracts/token factory/LiquidityPool.sol\":2640:2664  BuyTaxUpdated(newBuyTax) */\n      tag_114\n        /* \"#utility.yul\":453:630   */\n      jump\n        /* \"contracts/token factory/LiquidityPool.sol\":4562:4874  function calculatePriceForTokens(uint256 etherAmount) public view returns (uint256 tokenAmount) {... */\n    tag_59:\n        /* \"contracts/token factory/LiquidityPool.sol\":4637:4656  uint256 tokenAmount */\n      0x00\n        /* \"contracts/token factory/LiquidityPool.sol\":4668:4692  uint256 amountInAfterTax */\n      dup1\n        /* \"contracts/token factory/LiquidityPool.sol\":4734:4738  1000 */\n      0x03e8\n        /* \"contracts/token factory/LiquidityPool.sol\":4724:4730  buyTax */\n      sload(0x05)\n        /* \"contracts/token factory/LiquidityPool.sol\":4710:4721  etherAmount */\n      dup5\n        /* \"contracts/token factory/LiquidityPool.sol\":4710:4730  etherAmount * buyTax */\n      tag_169\n      swap2\n      swap1\n      tag_123\n      jump\t// in\n    tag_169:\n        /* \"contracts/token factory/LiquidityPool.sol\":4709:4738  (etherAmount * buyTax) / 1000 */\n      tag_170\n      swap2\n      swap1\n      tag_125\n      jump\t// in\n    tag_170:\n        /* \"contracts/token factory/LiquidityPool.sol\":4695:4738  etherAmount - (etherAmount * buyTax) / 1000 */\n      tag_171\n      swap1\n        /* \"contracts/token factory/LiquidityPool.sol\":4695:4706  etherAmount */\n      dup5\n        /* \"contracts/token factory/LiquidityPool.sol\":4695:4738  etherAmount - (etherAmount * buyTax) / 1000 */\n      tag_127\n      jump\t// in\n    tag_171:\n        /* \"contracts/token factory/LiquidityPool.sol\":4668:4738  uint256 amountInAfterTax = etherAmount - (etherAmount * buyTax) / 1000 */\n      swap1\n      pop\n        /* \"contracts/token factory/LiquidityPool.sol\":4748:4767  uint256 newReserve1 */\n      0x00\n        /* \"contracts/token factory/LiquidityPool.sol\":4781:4797  amountInAfterTax */\n      dup2\n        /* \"contracts/token factory/LiquidityPool.sol\":4770:4778  reserve1 */\n      sload(0x04)\n        /* \"contracts/token factory/LiquidityPool.sol\":4770:4797  reserve1 + amountInAfterTax */\n      tag_172\n      swap2\n      swap1\n      tag_110\n      jump\t// in\n    tag_172:\n        /* \"contracts/token factory/LiquidityPool.sol\":4748:4797  uint256 newReserve1 = reserve1 + amountInAfterTax */\n      swap1\n      pop\n        /* \"contracts/token factory/LiquidityPool.sol\":4856:4867  newReserve1 */\n      dup1\n        /* \"contracts/token factory/LiquidityPool.sol\":4844:4852  reserve1 */\n      sload(0x04)\n        /* \"contracts/token factory/LiquidityPool.sol\":4833:4841  reserve0 */\n      sload(0x03)\n        /* \"contracts/token factory/LiquidityPool.sol\":4833:4852  reserve0 * reserve1 */\n      tag_173\n      swap2\n      swap1\n      tag_123\n      jump\t// in\n    tag_173:\n        /* \"contracts/token factory/LiquidityPool.sol\":4832:4867  (reserve0 * reserve1) / newReserve1 */\n      tag_174\n      swap2\n      swap1\n      tag_125\n      jump\t// in\n    tag_174:\n        /* \"contracts/token factory/LiquidityPool.sol\":4821:4829  reserve0 */\n      sload(0x03)\n        /* \"contracts/token factory/LiquidityPool.sol\":4821:4867  reserve0 - (reserve0 * reserve1) / newReserve1 */\n      tag_175\n      swap2\n      swap1\n      tag_127\n      jump\t// in\n    tag_175:\n        /* \"contracts/token factory/LiquidityPool.sol\":4807:4867  tokenAmount = reserve0 - (reserve0 * reserve1) / newReserve1 */\n      swap5\n        /* \"contracts/token factory/LiquidityPool.sol\":4562:4874  function calculatePriceForTokens(uint256 etherAmount) public view returns (uint256 tokenAmount) {... */\n      swap4\n      pop\n      pop\n      pop\n      pop\n      jump\t// out\n        /* \"contracts/token factory/LiquidityPool.sol\":5542:6151  function calculatePenalty(uint256 amountIn) public view returns (uint256 penaltyAmount, uint256 penaltyPercentage) {... */\n    tag_64:\n        /* \"contracts/token factory/LiquidityPool.sol\":5607:5628  uint256 penaltyAmount */\n      0x00\n        /* \"contracts/token factory/LiquidityPool.sol\":5630:5655  uint256 penaltyPercentage */\n      dup1\n        /* \"contracts/token factory/LiquidityPool.sol\":5667:5692  uint256 circulatingSupply */\n      0x00\n        /* \"contracts/token factory/LiquidityPool.sol\":5702:5708  token0 */\n      0x01\n      0x00\n      swap1\n      sload\n      swap1\n      0x0100\n      exp\n      swap1\n      div\n      sub(shl(0xa0, 0x01), 0x01)\n      and\n      sub(shl(0xa0, 0x01), 0x01)\n        /* \"contracts/token factory/LiquidityPool.sol\":5695:5721  IERC20(token0).totalSupply */\n      and\n      0x18160ddd\n        /* \"contracts/token factory/LiquidityPool.sol\":5695:5723  IERC20(token0).totalSupply() */\n      mload(0x40)\n      dup2\n      0xffffffff\n      and\n      0xe0\n      shl\n      dup2\n      mstore\n      0x04\n      add\n      0x20\n      mload(0x40)\n      dup1\n      dup4\n      sub\n      dup2\n      dup7\n      gas\n      staticcall\n      iszero\n      dup1\n      iszero\n      tag_178\n      jumpi\n      returndatasize\n      0x00\n      dup1\n      returndatacopy\n      revert(0x00, returndatasize)\n    tag_178:\n      pop\n      pop\n      pop\n      pop\n      mload(0x40)\n      returndatasize\n      not(0x1f)\n      0x1f\n      dup3\n      add\n      and\n      dup3\n      add\n      dup1\n      0x40\n      mstore\n      pop\n      dup2\n      add\n      swap1\n      tag_179\n      swap2\n      swap1\n      tag_180\n      jump\t// in\n    tag_179:\n        /* \"contracts/token factory/LiquidityPool.sol\":5667:5723  uint256 circulatingSupply = IERC20(token0).totalSupply() */\n      swap1\n      pop\n        /* \"contracts/token factory/LiquidityPool.sol\":5733:5755  uint256 sellPercentage */\n      0x00\n        /* \"contracts/token factory/LiquidityPool.sol\":5667:5723  uint256 circulatingSupply = IERC20(token0).totalSupply() */\n      dup2\n        /* \"contracts/token factory/LiquidityPool.sol\":5759:5774  amountIn * 1000 */\n      tag_181\n        /* \"contracts/token factory/LiquidityPool.sol\":5759:5767  amountIn */\n      dup7\n        /* \"contracts/token factory/LiquidityPool.sol\":5770:5774  1000 */\n      0x03e8\n        /* \"contracts/token factory/LiquidityPool.sol\":5759:5774  amountIn * 1000 */\n      tag_123\n      jump\t// in\n    tag_181:\n        /* \"contracts/token factory/LiquidityPool.sol\":5758:5795  (amountIn * 1000) / circulatingSupply */\n      tag_182\n      swap2\n      swap1\n      tag_125\n      jump\t// in\n    tag_182:\n        /* \"contracts/token factory/LiquidityPool.sol\":5810:5826  penaltiesEnabled */\n      sload(0x09)\n        /* \"contracts/token factory/LiquidityPool.sol\":5733:5795  uint256 sellPercentage = (amountIn * 1000) / circulatingSupply */\n      swap1\n      swap2\n      pop\n        /* \"contracts/token factory/LiquidityPool.sol\":5810:5826  penaltiesEnabled */\n      0xff\n      and\n        /* \"contracts/token factory/LiquidityPool.sol\":5810:5863  penaltiesEnabled && sellPercentage > penaltyThreshold */\n      dup1\n      iszero\n      tag_183\n      jumpi\n      pop\n        /* \"contracts/token factory/LiquidityPool.sol\":5847:5863  penaltyThreshold */\n      sload(0x08)\n        /* \"contracts/token factory/LiquidityPool.sol\":5830:5844  sellPercentage */\n      dup2\n        /* \"contracts/token factory/LiquidityPool.sol\":5830:5863  sellPercentage > penaltyThreshold */\n      gt\n        /* \"contracts/token factory/LiquidityPool.sol\":5810:5863  penaltiesEnabled && sellPercentage > penaltyThreshold */\n    tag_183:\n        /* \"contracts/token factory/LiquidityPool.sol\":5806:6093  if (penaltiesEnabled && sellPercentage > penaltyThreshold) {... */\n      iszero\n      tag_184\n      jumpi\n        /* \"contracts/token factory/LiquidityPool.sol\":5916:5932  penaltyThreshold */\n      sload(0x08)\n        /* \"contracts/token factory/LiquidityPool.sol\":5899:5932  sellPercentage - penaltyThreshold */\n      tag_185\n      swap1\n        /* \"contracts/token factory/LiquidityPool.sol\":5899:5913  sellPercentage */\n      dup3\n        /* \"contracts/token factory/LiquidityPool.sol\":5899:5932  sellPercentage - penaltyThreshold */\n      tag_127\n      jump\t// in\n    tag_185:\n        /* \"contracts/token factory/LiquidityPool.sol\":5879:5932  penaltyPercentage = sellPercentage - penaltyThreshold */\n      swap3\n      pop\n        /* \"contracts/token factory/LiquidityPool.sol\":5995:5999  1000 */\n      0x03e8\n        /* \"contracts/token factory/LiquidityPool.sol\":5963:5991  penaltyPercentage * amountIn */\n      tag_186\n        /* \"contracts/token factory/LiquidityPool.sol\":5983:5991  amountIn */\n      dup7\n        /* \"contracts/token factory/LiquidityPool.sol\":5879:5932  penaltyPercentage = sellPercentage - penaltyThreshold */\n      dup6\n        /* \"contracts/token factory/LiquidityPool.sol\":5963:5991  penaltyPercentage * amountIn */\n      tag_123\n      jump\t// in\n    tag_186:\n        /* \"contracts/token factory/LiquidityPool.sol\":5962:5999  (penaltyPercentage * amountIn) / 1000 */\n      tag_187\n      swap2\n      swap1\n      tag_125\n      jump\t// in\n    tag_187:\n        /* \"contracts/token factory/LiquidityPool.sol\":5946:5999  penaltyAmount = (penaltyPercentage * amountIn) / 1000 */\n      swap4\n      pop\n        /* \"contracts/token factory/LiquidityPool.sol\":5806:6093  if (penaltiesEnabled && sellPercentage > penaltyThreshold) {... */\n      jump(tag_188)\n    tag_184:\n        /* \"contracts/token factory/LiquidityPool.sol\":6046:6047  0 */\n      0x00\n        /* \"contracts/token factory/LiquidityPool.sol\":6030:6047  penaltyAmount = 0 */\n      swap4\n      pop\n        /* \"contracts/token factory/LiquidityPool.sol\":6081:6082  0 */\n      0x00\n        /* \"contracts/token factory/LiquidityPool.sol\":6061:6082  penaltyPercentage = 0 */\n      swap3\n      pop\n        /* \"contracts/token factory/LiquidityPool.sol\":5806:6093  if (penaltiesEnabled && sellPercentage > penaltyThreshold) {... */\n    tag_188:\n        /* \"contracts/token factory/LiquidityPool.sol\":6103:6144  return (penaltyAmount, penaltyPercentage) */\n      pop\n      pop\n        /* \"contracts/token factory/LiquidityPool.sol\":5542:6151  function calculatePenalty(uint256 amountIn) public view returns (uint256 penaltyAmount, uint256 penaltyPercentage) {... */\n      swap2\n      pop\n      swap2\n      jump\t// out\n        /* \"contracts/token factory/LiquidityPool.sol\":2996:3681  function buyToken() external payable nonReentrant returns (uint256 amountOut) {... */\n    tag_81:\n        /* \"contracts/token factory/LiquidityPool.sol\":3055:3072  uint256 amountOut */\n      0x00\n        /* \"@openzeppelin/contracts/utils/ReentrancyGuard.sol\":2500:2521  _nonReentrantBefore() */\n      tag_190\n        /* \"@openzeppelin/contracts/utils/ReentrancyGuard.sol\":2500:2519  _nonReentrantBefore */\n      tag_117\n        /* \"@openzeppelin/contracts/utils/ReentrancyGuard.sol\":2500:2521  _nonReentrantBefore() */\n      jump\t// in\n    tag_190:\n        /* \"contracts/token factory/LiquidityPool.sol\":3104:3105  0 */\n      0x00\n        /* \"contracts/token factory/LiquidityPool.sol\":3092:3101  msg.value */\n      callvalue\n        /* \"contracts/token factory/LiquidityPool.sol\":3092:3105  msg.value > 0 */\n      gt\n        /* \"contracts/token factory/LiquidityPool.sol\":3084:3139  require(msg.value > 0, \"Must send Ether to buy tokens\") */\n      tag_192\n      jumpi\n      mload(0x40)\n      shl(0xe5, 0x461bcd)\n      dup2\n      mstore\n        /* \"#utility.yul\":5570:5572   */\n      0x20\n        /* \"contracts/token factory/LiquidityPool.sol\":3084:3139  require(msg.value > 0, \"Must send Ether to buy tokens\") */\n      0x04\n      dup3\n      add\n        /* \"#utility.yul\":5552:5573   */\n      mstore\n        /* \"#utility.yul\":5609:5611   */\n      0x1d\n        /* \"#utility.yul\":5589:5607   */\n      0x24\n      dup3\n      add\n        /* \"#utility.yul\":5582:5612   */\n      mstore\n        /* \"#utility.yul\":5648:5679   */\n      0x4d7573742073656e6420457468657220746f2062757920746f6b656e73000000\n        /* \"#utility.yul\":5628:5646   */\n      0x44\n      dup3\n      add\n        /* \"#utility.yul\":5621:5680   */\n      mstore\n        /* \"#utility.yul\":5697:5715   */\n      0x64\n      add\n        /* \"contracts/token factory/LiquidityPool.sol\":3084:3139  require(msg.value > 0, \"Must send Ether to buy tokens\") */\n      tag_106\n        /* \"#utility.yul\":5368:5721   */\n      jump\n        /* \"contracts/token factory/LiquidityPool.sol\":3084:3139  require(msg.value > 0, \"Must send Ether to buy tokens\") */\n    tag_192:\n        /* \"contracts/token factory/LiquidityPool.sol\":3150:3161  uint256 tax */\n      0x00\n        /* \"contracts/token factory/LiquidityPool.sol\":3187:3191  1000 */\n      0x03e8\n        /* \"contracts/token factory/LiquidityPool.sol\":3177:3183  buyTax */\n      sload(0x05)\n        /* \"contracts/token factory/LiquidityPool.sol\":3165:3174  msg.value */\n      callvalue\n        /* \"contracts/token factory/LiquidityPool.sol\":3165:3183  msg.value * buyTax */\n      tag_195\n      swap2\n      swap1\n      tag_123\n      jump\t// in\n    tag_195:\n        /* \"contracts/token factory/LiquidityPool.sol\":3164:3191  (msg.value * buyTax) / 1000 */\n      tag_196\n      swap2\n      swap1\n      tag_125\n      jump\t// in\n    tag_196:\n        /* \"contracts/token factory/LiquidityPool.sol\":3150:3191  uint256 tax = (msg.value * buyTax) / 1000 */\n      swap1\n      pop\n        /* \"contracts/token factory/LiquidityPool.sol\":3201:3225  uint256 amountInAfterTax */\n      0x00\n        /* \"contracts/token factory/LiquidityPool.sol\":3228:3243  msg.value - tax */\n      tag_197\n        /* \"contracts/token factory/LiquidityPool.sol\":3150:3191  uint256 tax = (msg.value * buyTax) / 1000 */\n      dup3\n        /* \"contracts/token factory/LiquidityPool.sol\":3228:3237  msg.value */\n      callvalue\n        /* \"contracts/token factory/LiquidityPool.sol\":3228:3243  msg.value - tax */\n      tag_127\n      jump\t// in\n    tag_197:\n        /* \"contracts/token factory/LiquidityPool.sol\":3273:3283  devAddress */\n      sload(0x07)\n        /* \"contracts/token factory/LiquidityPool.sol\":3273:3304  devAddress.call{value: tax}(\"\") */\n      mload(0x40)\n        /* \"contracts/token factory/LiquidityPool.sol\":3201:3243  uint256 amountInAfterTax = msg.value - tax */\n      swap2\n      swap3\n      pop\n        /* \"contracts/token factory/LiquidityPool.sol\":3255:3267  bool taxSent */\n      0x00\n      swap2\n      sub(shl(0xa0, 0x01), 0x01)\n        /* \"contracts/token factory/LiquidityPool.sol\":3273:3283  devAddress */\n      swap1\n      swap2\n      and\n      swap1\n        /* \"contracts/token factory/LiquidityPool.sol\":3296:3299  tax */\n      dup5\n      swap1\n        /* \"contracts/token factory/LiquidityPool.sol\":3255:3267  bool taxSent */\n      dup4\n        /* \"contracts/token factory/LiquidityPool.sol\":3273:3304  devAddress.call{value: tax}(\"\") */\n      dup2\n        /* \"contracts/token factory/LiquidityPool.sol\":3255:3267  bool taxSent */\n      dup2\n        /* \"contracts/token factory/LiquidityPool.sol\":3273:3304  devAddress.call{value: tax}(\"\") */\n      dup2\n        /* \"contracts/token factory/LiquidityPool.sol\":3296:3299  tax */\n      dup6\n        /* \"contracts/token factory/LiquidityPool.sol\":3273:3283  devAddress */\n      dup8\n        /* \"contracts/token factory/LiquidityPool.sol\":3273:3304  devAddress.call{value: tax}(\"\") */\n      gas\n      call\n      swap3\n      pop\n      pop\n      pop\n      returndatasize\n      dup1\n      0x00\n      dup2\n      eq\n      tag_201\n      jumpi\n      mload(0x40)\n      swap2\n      pop\n      and(add(returndatasize, 0x3f), not(0x1f))\n      dup3\n      add\n      0x40\n      mstore\n      returndatasize\n      dup3\n      mstore\n      returndatasize\n      0x00\n      0x20\n      dup5\n      add\n      returndatacopy\n      jump(tag_200)\n    tag_201:\n      0x60\n      swap2\n      pop\n    tag_200:\n      pop\n        /* \"contracts/token factory/LiquidityPool.sol\":3254:3304  (bool taxSent, ) = devAddress.call{value: tax}(\"\") */\n      pop\n      swap1\n      pop\n        /* \"contracts/token factory/LiquidityPool.sol\":3322:3329  taxSent */\n      dup1\n        /* \"contracts/token factory/LiquidityPool.sol\":3314:3367  require(taxSent, \"Failed to send tax to dev address\") */\n      tag_202\n      jumpi\n      mload(0x40)\n      shl(0xe5, 0x461bcd)\n      dup2\n      mstore\n        /* \"#utility.yul\":5928:5930   */\n      0x20\n        /* \"contracts/token factory/LiquidityPool.sol\":3314:3367  require(taxSent, \"Failed to send tax to dev address\") */\n      0x04\n      dup3\n      add\n        /* \"#utility.yul\":5910:5931   */\n      mstore\n        /* \"#utility.yul\":5967:5969   */\n      0x21\n        /* \"#utility.yul\":5947:5965   */\n      0x24\n      dup3\n      add\n        /* \"#utility.yul\":5940:5970   */\n      mstore\n        /* \"#utility.yul\":6006:6040   */\n      0x4661696c656420746f2073656e642074617820746f2064657620616464726573\n        /* \"#utility.yul\":5986:6004   */\n      0x44\n      dup3\n      add\n        /* \"#utility.yul\":5979:6041   */\n      mstore\n      shl(0xf8, 0x73)\n        /* \"#utility.yul\":6057:6075   */\n      0x64\n      dup3\n      add\n        /* \"#utility.yul\":6050:6081   */\n      mstore\n        /* \"#utility.yul\":6098:6117   */\n      0x84\n      add\n        /* \"contracts/token factory/LiquidityPool.sol\":3314:3367  require(taxSent, \"Failed to send tax to dev address\") */\n      tag_106\n        /* \"#utility.yul\":5726:6123   */\n      jump\n        /* \"contracts/token factory/LiquidityPool.sol\":3314:3367  require(taxSent, \"Failed to send tax to dev address\") */\n    tag_202:\n        /* \"contracts/token factory/LiquidityPool.sol\":3378:3397  uint256 newReserve1 */\n      0x00\n        /* \"contracts/token factory/LiquidityPool.sol\":3411:3427  amountInAfterTax */\n      dup3\n        /* \"contracts/token factory/LiquidityPool.sol\":3400:3408  reserve1 */\n      sload(0x04)\n        /* \"contracts/token factory/LiquidityPool.sol\":3400:3427  reserve1 + amountInAfterTax */\n      tag_205\n      swap2\n      swap1\n      tag_110\n      jump\t// in\n    tag_205:\n        /* \"contracts/token factory/LiquidityPool.sol\":3378:3427  uint256 newReserve1 = reserve1 + amountInAfterTax */\n      swap1\n      pop\n        /* \"contracts/token factory/LiquidityPool.sol\":3484:3495  newReserve1 */\n      dup1\n        /* \"contracts/token factory/LiquidityPool.sol\":3472:3480  reserve1 */\n      sload(0x04)\n        /* \"contracts/token factory/LiquidityPool.sol\":3461:3469  reserve0 */\n      sload(0x03)\n        /* \"contracts/token factory/LiquidityPool.sol\":3461:3480  reserve0 * reserve1 */\n      tag_206\n      swap2\n      swap1\n      tag_123\n      jump\t// in\n    tag_206:\n        /* \"contracts/token factory/LiquidityPool.sol\":3460:3495  (reserve0 * reserve1) / newReserve1 */\n      tag_207\n      swap2\n      swap1\n      tag_125\n      jump\t// in\n    tag_207:\n        /* \"contracts/token factory/LiquidityPool.sol\":3449:3457  reserve0 */\n      sload(0x03)\n        /* \"contracts/token factory/LiquidityPool.sol\":3449:3495  reserve0 - (reserve0 * reserve1) / newReserve1 */\n      tag_208\n      swap2\n      swap1\n      tag_127\n      jump\t// in\n    tag_208:\n        /* \"contracts/token factory/LiquidityPool.sol\":3437:3495  amountOut = reserve0 - (reserve0 * reserve1) / newReserve1 */\n      swap5\n      pop\n        /* \"contracts/token factory/LiquidityPool.sol\":3517:3528  newReserve1 */\n      dup1\n        /* \"contracts/token factory/LiquidityPool.sol\":3506:3514  reserve1 */\n      0x04\n        /* \"contracts/token factory/LiquidityPool.sol\":3506:3528  reserve1 = newReserve1 */\n      dup2\n      swap1\n      sstore\n      pop\n        /* \"contracts/token factory/LiquidityPool.sol\":3550:3559  amountOut */\n      dup5\n        /* \"contracts/token factory/LiquidityPool.sol\":3538:3546  reserve0 */\n      0x03\n      0x00\n        /* \"contracts/token factory/LiquidityPool.sol\":3538:3559  reserve0 -= amountOut */\n      dup3\n      dup3\n      sload\n      tag_209\n      swap2\n      swap1\n      tag_127\n      jump\t// in\n    tag_209:\n      swap1\n      swap2\n      sstore\n      pop\n      pop\n        /* \"contracts/token factory/LiquidityPool.sol\":3577:3583  token0 */\n      sload(0x01)\n        /* \"contracts/token factory/LiquidityPool.sol\":3570:3616  IERC20(token0).transfer(msg.sender, amountOut) */\n      mload(0x40)\n      shl(0xe0, 0xa9059cbb)\n      dup2\n      mstore\n        /* \"contracts/token factory/LiquidityPool.sol\":3594:3604  msg.sender */\n      caller\n        /* \"contracts/token factory/LiquidityPool.sol\":3570:3616  IERC20(token0).transfer(msg.sender, amountOut) */\n      0x04\n      dup3\n      add\n        /* \"#utility.yul\":4514:4565   */\n      mstore\n        /* \"#utility.yul\":4581:4599   */\n      0x24\n      dup2\n      add\n        /* \"#utility.yul\":4574:4608   */\n      dup8\n      swap1\n      mstore\n      sub(shl(0xa0, 0x01), 0x01)\n        /* \"contracts/token factory/LiquidityPool.sol\":3577:3583  token0 */\n      swap1\n      swap2\n      and\n      swap1\n        /* \"contracts/token factory/LiquidityPool.sol\":3570:3593  IERC20(token0).transfer */\n      0xa9059cbb\n      swap1\n        /* \"#utility.yul\":4487:4505   */\n      0x44\n      add\n        /* \"contracts/token factory/LiquidityPool.sol\":3570:3616  IERC20(token0).transfer(msg.sender, amountOut) */\n      0x20\n      mload(0x40)\n      dup1\n      dup4\n      sub\n      dup2\n      0x00\n      dup8\n      gas\n      call\n      iszero\n      dup1\n      iszero\n      tag_212\n      jumpi\n      returndatasize\n      0x00\n      dup1\n      returndatacopy\n      revert(0x00, returndatasize)\n    tag_212:\n      pop\n      pop\n      pop\n      pop\n      mload(0x40)\n      returndatasize\n      not(0x1f)\n      0x1f\n      dup3\n      add\n      and\n      dup3\n      add\n      dup1\n      0x40\n      mstore\n      pop\n      dup2\n      add\n      swap1\n      tag_213\n      swap2\n      swap1\n      tag_133\n      jump\t// in\n    tag_213:\n      pop\n        /* \"contracts/token factory/LiquidityPool.sol\":3632:3674  BuyToken(msg.sender, msg.value, amountOut) */\n      0x40\n      dup1\n      mload\n        /* \"contracts/token factory/LiquidityPool.sol\":3653:3662  msg.value */\n      callvalue\n        /* \"#utility.yul\":1178:1203   */\n      dup2\n      mstore\n        /* \"#utility.yul\":1234:1236   */\n      0x20\n        /* \"#utility.yul\":1219:1237   */\n      dup2\n      add\n        /* \"#utility.yul\":1212:1246   */\n      dup8\n      swap1\n      mstore\n        /* \"contracts/token factory/LiquidityPool.sol\":3641:3651  msg.sender */\n      caller\n      swap2\n        /* \"contracts/token factory/LiquidityPool.sol\":3632:3674  BuyToken(msg.sender, msg.value, amountOut) */\n      0xf6f342132c7de5e5a1e99c8efae544c94731f3ff093f5c3c97c6973d9415cdfb\n      swap2\n        /* \"#utility.yul\":1151:1169   */\n      add\n        /* \"contracts/token factory/LiquidityPool.sol\":3632:3674  BuyToken(msg.sender, msg.value, amountOut) */\n      mload(0x40)\n      dup1\n      swap2\n      sub\n      swap1\n      log2\n        /* \"contracts/token factory/LiquidityPool.sol\":3074:3681  {... */\n      pop\n      pop\n      pop\n      pop\n        /* \"@openzeppelin/contracts/utils/ReentrancyGuard.sol\":2542:2562  _nonReentrantAfter() */\n      tag_215\n        /* \"@openzeppelin/contracts/utils/ReentrancyGuard.sol\":1857:1858  1 */\n      0x01\n        /* \"@openzeppelin/contracts/utils/ReentrancyGuard.sol\":3068:3075  _status */\n      0x00\n        /* \"@openzeppelin/contracts/utils/ReentrancyGuard.sol\":3068:3089  _status = NOT_ENTERED */\n      sstore\n        /* \"@openzeppelin/contracts/utils/ReentrancyGuard.sol\":2888:3096  function _nonReentrantAfter() private {... */\n      jump\n        /* \"@openzeppelin/contracts/utils/ReentrancyGuard.sol\":2542:2562  _nonReentrantAfter() */\n    tag_215:\n        /* \"contracts/token factory/LiquidityPool.sol\":2996:3681  function buyToken() external payable nonReentrant returns (uint256 amountOut) {... */\n      swap1\n      jump\t// out\n        /* \"contracts/token factory/LiquidityPool.sol\":4955:5267  function calculatePriceForEther(uint256 tokenAmount) public view returns (uint256 etherAmount) {... */\n    tag_86:\n        /* \"contracts/token factory/LiquidityPool.sol\":5029:5048  uint256 etherAmount */\n      0x00\n        /* \"contracts/token factory/LiquidityPool.sol\":5060:5084  uint256 amountInAfterTax */\n      dup1\n        /* \"contracts/token factory/LiquidityPool.sol\":5127:5131  1000 */\n      0x03e8\n        /* \"contracts/token factory/LiquidityPool.sol\":5116:5123  sellTax */\n      sload(0x06)\n        /* \"contracts/token factory/LiquidityPool.sol\":5102:5113  tokenAmount */\n      dup5\n        /* \"contracts/token factory/LiquidityPool.sol\":5102:5123  tokenAmount * sellTax */\n      tag_217\n      swap2\n      swap1\n      tag_123\n      jump\t// in\n    tag_217:\n        /* \"contracts/token factory/LiquidityPool.sol\":5101:5131  (tokenAmount * sellTax) / 1000 */\n      tag_218\n      swap2\n      swap1\n      tag_125\n      jump\t// in\n    tag_218:\n        /* \"contracts/token factory/LiquidityPool.sol\":5087:5131  tokenAmount - (tokenAmount * sellTax) / 1000 */\n      tag_219\n      swap1\n        /* \"contracts/token factory/LiquidityPool.sol\":5087:5098  tokenAmount */\n      dup5\n        /* \"contracts/token factory/LiquidityPool.sol\":5087:5131  tokenAmount - (tokenAmount * sellTax) / 1000 */\n      tag_127\n      jump\t// in\n    tag_219:\n        /* \"contracts/token factory/LiquidityPool.sol\":5060:5131  uint256 amountInAfterTax = tokenAmount - (tokenAmount * sellTax) / 1000 */\n      swap1\n      pop\n        /* \"contracts/token factory/LiquidityPool.sol\":5141:5160  uint256 newReserve0 */\n      0x00\n        /* \"contracts/token factory/LiquidityPool.sol\":5174:5190  amountInAfterTax */\n      dup2\n        /* \"contracts/token factory/LiquidityPool.sol\":5163:5171  reserve0 */\n      sload(0x03)\n        /* \"contracts/token factory/LiquidityPool.sol\":5163:5190  reserve0 + amountInAfterTax */\n      tag_220\n      swap2\n      swap1\n      tag_110\n      jump\t// in\n    tag_220:\n        /* \"contracts/token factory/LiquidityPool.sol\":5141:5190  uint256 newReserve0 = reserve0 + amountInAfterTax */\n      swap1\n      pop\n        /* \"contracts/token factory/LiquidityPool.sol\":5249:5260  newReserve0 */\n      dup1\n        /* \"contracts/token factory/LiquidityPool.sol\":5237:5245  reserve1 */\n      sload(0x04)\n        /* \"contracts/token factory/LiquidityPool.sol\":5226:5234  reserve0 */\n      sload(0x03)\n        /* \"contracts/token factory/LiquidityPool.sol\":5226:5245  reserve0 * reserve1 */\n      tag_221\n      swap2\n      swap1\n      tag_123\n      jump\t// in\n    tag_221:\n        /* \"contracts/token factory/LiquidityPool.sol\":5225:5260  (reserve0 * reserve1) / newReserve0 */\n      tag_222\n      swap2\n      swap1\n      tag_125\n      jump\t// in\n    tag_222:\n        /* \"contracts/token factory/LiquidityPool.sol\":5214:5222  reserve1 */\n      sload(0x04)\n        /* \"contracts/token factory/LiquidityPool.sol\":5214:5260  reserve1 - (reserve0 * reserve1) / newReserve0 */\n      tag_175\n      swap2\n      swap1\n      tag_127\n      jump\t// in\n        /* \"contracts/token factory/LiquidityPool.sol\":1940:2407  function initialize(... */\n    tag_99:\n        /* \"@openzeppelin/contracts/utils/ReentrancyGuard.sol\":2500:2521  _nonReentrantBefore() */\n      tag_225\n        /* \"@openzeppelin/contracts/utils/ReentrancyGuard.sol\":2500:2519  _nonReentrantBefore */\n      tag_117\n        /* \"@openzeppelin/contracts/utils/ReentrancyGuard.sol\":2500:2521  _nonReentrantBefore() */\n      jump\t// in\n    tag_225:\n        /* \"contracts/token factory/LiquidityPool.sol\":967:979  tokenFactory */\n      and(sub(shl(0xa0, 0x01), 0x01), sload(0x02))\n        /* \"contracts/token factory/LiquidityPool.sol\":953:963  msg.sender */\n      caller\n        /* \"contracts/token factory/LiquidityPool.sol\":953:979  msg.sender == tokenFactory */\n      eq\n        /* \"contracts/token factory/LiquidityPool.sol\":945:1014  require(msg.sender == tokenFactory, \"Caller is not the TokenFactory\") */\n      tag_227\n      jumpi\n      mload(0x40)\n      shl(0xe5, 0x461bcd)\n      dup2\n      mstore\n      0x04\n      add\n      tag_106\n      swap1\n      tag_107\n      jump\t// in\n    tag_227:\n        /* \"contracts/token factory/LiquidityPool.sol\":2089:2095  token0 */\n      and(sub(shl(0xa0, 0x01), 0x01), sload(0x01))\n        /* \"contracts/token factory/LiquidityPool.sol\":2089:2109  token0 == address(0) */\n      iszero\n        /* \"contracts/token factory/LiquidityPool.sol\":2081:2138  require(token0 == address(0), \"Pool already initialized\") */\n      tag_230\n      jumpi\n      mload(0x40)\n      shl(0xe5, 0x461bcd)\n      dup2\n      mstore\n        /* \"#utility.yul\":6330:6332   */\n      0x20\n        /* \"contracts/token factory/LiquidityPool.sol\":2081:2138  require(token0 == address(0), \"Pool already initialized\") */\n      0x04\n      dup3\n      add\n        /* \"#utility.yul\":6312:6333   */\n      mstore\n        /* \"#utility.yul\":6369:6371   */\n      0x18\n        /* \"#utility.yul\":6349:6367   */\n      0x24\n      dup3\n      add\n        /* \"#utility.yul\":6342:6372   */\n      mstore\n        /* \"#utility.yul\":6408:6434   */\n      0x506f6f6c20616c726561647920696e697469616c697a65640000000000000000\n        /* \"#utility.yul\":6388:6406   */\n      0x44\n      dup3\n      add\n        /* \"#utility.yul\":6381:6435   */\n      mstore\n        /* \"#utility.yul\":6452:6470   */\n      0x64\n      add\n        /* \"contracts/token factory/LiquidityPool.sol\":2081:2138  require(token0 == address(0), \"Pool already initialized\") */\n      tag_106\n        /* \"#utility.yul\":6128:6476   */\n      jump\n        /* \"contracts/token factory/LiquidityPool.sol\":2081:2138  require(token0 == address(0), \"Pool already initialized\") */\n    tag_230:\n        /* \"contracts/token factory/LiquidityPool.sol\":2168:2169  0 */\n      0x00\n        /* \"contracts/token factory/LiquidityPool.sol\":2156:2165  msg.value */\n      callvalue\n        /* \"contracts/token factory/LiquidityPool.sol\":2156:2169  msg.value > 0 */\n      gt\n        /* \"contracts/token factory/LiquidityPool.sol\":2148:2227  require(msg.value > 0, \"Initial native token amount must be greater than zero\") */\n      tag_233\n      jumpi\n      mload(0x40)\n      shl(0xe5, 0x461bcd)\n      dup2\n      mstore\n        /* \"#utility.yul\":6683:6685   */\n      0x20\n        /* \"contracts/token factory/LiquidityPool.sol\":2148:2227  require(msg.value > 0, \"Initial native token amount must be greater than zero\") */\n      0x04\n      dup3\n      add\n        /* \"#utility.yul\":6665:6686   */\n      mstore\n        /* \"#utility.yul\":6722:6724   */\n      0x35\n        /* \"#utility.yul\":6702:6720   */\n      0x24\n      dup3\n      add\n        /* \"#utility.yul\":6695:6725   */\n      mstore\n        /* \"#utility.yul\":6761:6795   */\n      0x496e697469616c206e617469766520746f6b656e20616d6f756e74206d757374\n        /* \"#utility.yul\":6741:6759   */\n      0x44\n      dup3\n      add\n        /* \"#utility.yul\":6734:6796   */\n      mstore\n      shl(0x58, 0x2062652067726561746572207468616e207a65726f)\n        /* \"#utility.yul\":6812:6830   */\n      0x64\n      dup3\n      add\n        /* \"#utility.yul\":6805:6856   */\n      mstore\n        /* \"#utility.yul\":6873:6892   */\n      0x84\n      add\n        /* \"contracts/token factory/LiquidityPool.sol\":2148:2227  require(msg.value > 0, \"Initial native token amount must be greater than zero\") */\n      tag_106\n        /* \"#utility.yul\":6481:6898   */\n      jump\n        /* \"contracts/token factory/LiquidityPool.sol\":2148:2227  require(msg.value > 0, \"Initial native token amount must be greater than zero\") */\n    tag_233:\n        /* \"contracts/token factory/LiquidityPool.sol\":2238:2244  token0 */\n      0x01\n        /* \"contracts/token factory/LiquidityPool.sol\":2238:2254  token0 = _token0 */\n      dup1\n      sload\n      not(sub(shl(0xa0, 0x01), 0x01))\n      and\n      sub(shl(0xa0, 0x01), 0x01)\n      dup5\n      and\n      or\n      swap1\n      sstore\n        /* \"contracts/token factory/LiquidityPool.sol\":2264:2272  reserve0 */\n      0x03\n        /* \"contracts/token factory/LiquidityPool.sol\":2264:2295  reserve0 = _initialTokenReserve */\n      dup2\n      swap1\n      sstore\n        /* \"contracts/token factory/LiquidityPool.sol\":2316:2325  msg.value */\n      callvalue\n        /* \"contracts/token factory/LiquidityPool.sol\":2305:2313  reserve1 */\n      0x04\n        /* \"contracts/token factory/LiquidityPool.sol\":2305:2325  reserve1 = msg.value */\n      dup2\n      swap1\n      sstore\n        /* \"contracts/token factory/LiquidityPool.sol\":2341:2400  LiquidityAdded(msg.sender, _initialTokenReserve, msg.value) */\n      0x40\n      dup1\n      mload\n        /* \"#utility.yul\":1178:1203   */\n      dup4\n      dup2\n      mstore\n        /* \"#utility.yul\":1234:1236   */\n      0x20\n        /* \"#utility.yul\":1219:1237   */\n      dup2\n      add\n        /* \"#utility.yul\":1212:1246   */\n      swap3\n      swap1\n      swap3\n      mstore\n        /* \"contracts/token factory/LiquidityPool.sol\":2356:2366  msg.sender */\n      caller\n      swap2\n        /* \"contracts/token factory/LiquidityPool.sol\":2341:2400  LiquidityAdded(msg.sender, _initialTokenReserve, msg.value) */\n      0xac1d76749e5447b7b16f5ab61447e1bd502f3bb4807af3b28e620d1700a6ee45\n      swap2\n        /* \"#utility.yul\":1151:1169   */\n      add\n        /* \"contracts/token factory/LiquidityPool.sol\":2341:2400  LiquidityAdded(msg.sender, _initialTokenReserve, msg.value) */\n      mload(0x40)\n      dup1\n      swap2\n      sub\n      swap1\n      log2\n        /* \"@openzeppelin/contracts/utils/ReentrancyGuard.sol\":2542:2562  _nonReentrantAfter() */\n      tag_237\n        /* \"@openzeppelin/contracts/utils/ReentrancyGuard.sol\":1857:1858  1 */\n      0x01\n        /* \"@openzeppelin/contracts/utils/ReentrancyGuard.sol\":3068:3075  _status */\n      0x00\n        /* \"@openzeppelin/contracts/utils/ReentrancyGuard.sol\":3068:3089  _status = NOT_ENTERED */\n      sstore\n        /* \"@openzeppelin/contracts/utils/ReentrancyGuard.sol\":2888:3096  function _nonReentrantAfter() private {... */\n      jump\n        /* \"@openzeppelin/contracts/utils/ReentrancyGuard.sol\":2542:2562  _nonReentrantAfter() */\n    tag_237:\n        /* \"contracts/token factory/LiquidityPool.sol\":1940:2407  function initialize(... */\n      pop\n      pop\n      jump\t// out\n        /* \"@openzeppelin/contracts/utils/ReentrancyGuard.sol\":2575:2882  function _nonReentrantBefore() private {... */\n    tag_117:\n        /* \"@openzeppelin/contracts/utils/ReentrancyGuard.sol\":1899:1900  2 */\n      0x02\n        /* \"@openzeppelin/contracts/utils/ReentrancyGuard.sol\":2702:2709  _status */\n      sload(0x00)\n        /* \"@openzeppelin/contracts/utils/ReentrancyGuard.sol\":2702:2720  _status == ENTERED */\n      sub\n        /* \"@openzeppelin/contracts/utils/ReentrancyGuard.sol\":2698:2784  if (_status == ENTERED) {... */\n      tag_239\n      jumpi\n        /* \"@openzeppelin/contracts/utils/ReentrancyGuard.sol\":2743:2773  ReentrancyGuardReentrantCall() */\n      mload(0x40)\n      shl(0xe0, 0x3ee5aeb5)\n      dup2\n      mstore\n      0x04\n      add\n      mload(0x40)\n      dup1\n      swap2\n      sub\n      swap1\n      revert\n        /* \"@openzeppelin/contracts/utils/ReentrancyGuard.sol\":2698:2784  if (_status == ENTERED) {... */\n    tag_239:\n        /* \"@openzeppelin/contracts/utils/ReentrancyGuard.sol\":1899:1900  2 */\n      0x02\n        /* \"@openzeppelin/contracts/utils/ReentrancyGuard.sol\":2858:2865  _status */\n      0x00\n        /* \"@openzeppelin/contracts/utils/ReentrancyGuard.sol\":2858:2875  _status = ENTERED */\n      sstore\n        /* \"@openzeppelin/contracts/utils/ReentrancyGuard.sol\":2575:2882  function _nonReentrantBefore() private {... */\n      jump\t// out\n        /* \"#utility.yul\":222:448   */\n    tag_31:\n        /* \"#utility.yul\":281:287   */\n      0x00\n        /* \"#utility.yul\":334:336   */\n      0x20\n        /* \"#utility.yul\":322:331   */\n      dup3\n        /* \"#utility.yul\":313:320   */\n      dup5\n        /* \"#utility.yul\":309:332   */\n      sub\n        /* \"#utility.yul\":305:337   */\n      slt\n        /* \"#utility.yul\":302:354   */\n      iszero\n      tag_246\n      jumpi\n        /* \"#utility.yul\":350:351   */\n      0x00\n        /* \"#utility.yul\":347:348   */\n      dup1\n        /* \"#utility.yul\":340:352   */\n      revert\n        /* \"#utility.yul\":302:354   */\n    tag_246:\n      pop\n        /* \"#utility.yul\":395:418   */\n      calldataload\n      swap2\n        /* \"#utility.yul\":222:448   */\n      swap1\n      pop\n      jump\t// out\n        /* \"#utility.yul\":635:753   */\n    tag_241:\n        /* \"#utility.yul\":721:726   */\n      dup1\n        /* \"#utility.yul\":714:727   */\n      iszero\n        /* \"#utility.yul\":707:728   */\n      iszero\n        /* \"#utility.yul\":700:705   */\n      dup2\n        /* \"#utility.yul\":697:729   */\n      eq\n        /* \"#utility.yul\":687:747   */\n      tag_249\n      jumpi\n        /* \"#utility.yul\":743:744   */\n      0x00\n        /* \"#utility.yul\":740:741   */\n      dup1\n        /* \"#utility.yul\":733:745   */\n      revert\n        /* \"#utility.yul\":687:747   */\n    tag_249:\n        /* \"#utility.yul\":635:753   */\n      pop\n      jump\t// out\n        /* \"#utility.yul\":758:999   */\n    tag_42:\n        /* \"#utility.yul\":814:820   */\n      0x00\n        /* \"#utility.yul\":867:869   */\n      0x20\n        /* \"#utility.yul\":855:864   */\n      dup3\n        /* \"#utility.yul\":846:853   */\n      dup5\n        /* \"#utility.yul\":842:865   */\n      sub\n        /* \"#utility.yul\":838:870   */\n      slt\n        /* \"#utility.yul\":835:887   */\n      iszero\n      tag_251\n      jumpi\n        /* \"#utility.yul\":883:884   */\n      0x00\n        /* \"#utility.yul\":880:881   */\n      dup1\n        /* \"#utility.yul\":873:885   */\n      revert\n        /* \"#utility.yul\":835:887   */\n    tag_251:\n        /* \"#utility.yul\":922:931   */\n      dup2\n        /* \"#utility.yul\":909:932   */\n      calldataload\n        /* \"#utility.yul\":941:969   */\n      tag_252\n        /* \"#utility.yul\":963:968   */\n      dup2\n        /* \"#utility.yul\":941:969   */\n      tag_241\n      jump\t// in\n    tag_252:\n        /* \"#utility.yul\":988:993   */\n      swap4\n        /* \"#utility.yul\":758:999   */\n      swap3\n      pop\n      pop\n      pop\n      jump\t// out\n        /* \"#utility.yul\":1449:1855   */\n    tag_98:\n        /* \"#utility.yul\":1517:1523   */\n      0x00\n        /* \"#utility.yul\":1525:1531   */\n      dup1\n        /* \"#utility.yul\":1578:1580   */\n      0x40\n        /* \"#utility.yul\":1566:1575   */\n      dup4\n        /* \"#utility.yul\":1557:1564   */\n      dup6\n        /* \"#utility.yul\":1553:1576   */\n      sub\n        /* \"#utility.yul\":1549:1581   */\n      slt\n        /* \"#utility.yul\":1546:1598   */\n      iszero\n      tag_256\n      jumpi\n        /* \"#utility.yul\":1594:1595   */\n      0x00\n        /* \"#utility.yul\":1591:1592   */\n      dup1\n        /* \"#utility.yul\":1584:1596   */\n      revert\n        /* \"#utility.yul\":1546:1598   */\n    tag_256:\n        /* \"#utility.yul\":1620:1643   */\n      dup3\n      calldataload\n      sub(shl(0xa0, 0x01), 0x01)\n        /* \"#utility.yul\":1672:1703   */\n      dup2\n      and\n        /* \"#utility.yul\":1662:1704   */\n      dup2\n      eq\n        /* \"#utility.yul\":1652:1722   */\n      tag_257\n      jumpi\n        /* \"#utility.yul\":1718:1719   */\n      0x00\n        /* \"#utility.yul\":1715:1716   */\n      dup1\n        /* \"#utility.yul\":1708:1720   */\n      revert\n        /* \"#utility.yul\":1652:1722   */\n    tag_257:\n        /* \"#utility.yul\":1741:1746   */\n      swap5\n        /* \"#utility.yul\":1819:1821   */\n      0x20\n        /* \"#utility.yul\":1804:1822   */\n      swap4\n      swap1\n      swap4\n      add\n        /* \"#utility.yul\":1791:1823   */\n      calldataload\n      swap4\n      pop\n      pop\n      pop\n        /* \"#utility.yul\":1449:1855   */\n      jump\t// out\n        /* \"#utility.yul\":1860:2214   */\n    tag_107:\n        /* \"#utility.yul\":2062:2064   */\n      0x20\n        /* \"#utility.yul\":2044:2065   */\n      dup1\n      dup3\n      mstore\n        /* \"#utility.yul\":2101:2103   */\n      0x1e\n        /* \"#utility.yul\":2081:2099   */\n      swap1\n      dup3\n      add\n        /* \"#utility.yul\":2074:2104   */\n      mstore\n        /* \"#utility.yul\":2140:2172   */\n      0x43616c6c6572206973206e6f742074686520546f6b656e466163746f72790000\n        /* \"#utility.yul\":2135:2137   */\n      0x40\n        /* \"#utility.yul\":2120:2138   */\n      dup3\n      add\n        /* \"#utility.yul\":2113:2173   */\n      mstore\n        /* \"#utility.yul\":2205:2207   */\n      0x60\n        /* \"#utility.yul\":2190:2208   */\n      add\n      swap1\n        /* \"#utility.yul\":1860:2214   */\n      jump\t// out\n        /* \"#utility.yul\":2219:2346   */\n    tag_242:\n        /* \"#utility.yul\":2280:2290   */\n      0x4e487b71\n        /* \"#utility.yul\":2275:2278   */\n      0xe0\n        /* \"#utility.yul\":2271:2291   */\n      shl\n        /* \"#utility.yul\":2268:2269   */\n      0x00\n        /* \"#utility.yul\":2261:2292   */\n      mstore\n        /* \"#utility.yul\":2311:2315   */\n      0x11\n        /* \"#utility.yul\":2308:2309   */\n      0x04\n        /* \"#utility.yul\":2301:2316   */\n      mstore\n        /* \"#utility.yul\":2335:2339   */\n      0x24\n        /* \"#utility.yul\":2332:2333   */\n      0x00\n        /* \"#utility.yul\":2325:2340   */\n      revert\n        /* \"#utility.yul\":2351:2476   */\n    tag_110:\n        /* \"#utility.yul\":2416:2425   */\n      dup1\n      dup3\n      add\n        /* \"#utility.yul\":2437:2447   */\n      dup1\n      dup3\n      gt\n        /* \"#utility.yul\":2434:2470   */\n      iszero\n      tag_262\n      jumpi\n        /* \"#utility.yul\":2450:2468   */\n      tag_262\n      tag_242\n      jump\t// in\n    tag_262:\n        /* \"#utility.yul\":2351:2476   */\n      swap3\n      swap2\n      pop\n      pop\n      jump\t// out\n        /* \"#utility.yul\":3186:3354   */\n    tag_123:\n        /* \"#utility.yul\":3259:3268   */\n      dup1\n      dup3\n      mul\n        /* \"#utility.yul\":3290:3299   */\n      dup2\n      iszero\n        /* \"#utility.yul\":3307:3322   */\n      dup3\n      dup3\n      div\n        /* \"#utility.yul\":3301:3323   */\n      dup5\n      eq\n        /* \"#utility.yul\":3287:3324   */\n      or\n        /* \"#utility.yul\":3277:3348   */\n      tag_262\n      jumpi\n        /* \"#utility.yul\":3328:3346   */\n      tag_262\n      tag_242\n      jump\t// in\n        /* \"#utility.yul\":3359:3576   */\n    tag_125:\n        /* \"#utility.yul\":3399:3400   */\n      0x00\n        /* \"#utility.yul\":3425:3426   */\n      dup3\n        /* \"#utility.yul\":3415:3547   */\n      tag_269\n      jumpi\n        /* \"#utility.yul\":3469:3479   */\n      0x4e487b71\n        /* \"#utility.yul\":3464:3467   */\n      0xe0\n        /* \"#utility.yul\":3460:3480   */\n      shl\n        /* \"#utility.yul\":3457:3458   */\n      0x00\n        /* \"#utility.yul\":3450:3481   */\n      mstore\n        /* \"#utility.yul\":3504:3508   */\n      0x12\n        /* \"#utility.yul\":3501:3502   */\n      0x04\n        /* \"#utility.yul\":3494:3509   */\n      mstore\n        /* \"#utility.yul\":3532:3536   */\n      0x24\n        /* \"#utility.yul\":3529:3530   */\n      0x00\n        /* \"#utility.yul\":3522:3537   */\n      revert\n        /* \"#utility.yul\":3415:3547   */\n    tag_269:\n      pop\n        /* \"#utility.yul\":3561:3570   */\n      div\n      swap1\n        /* \"#utility.yul\":3359:3576   */\n      jump\t// out\n        /* \"#utility.yul\":3581:3709   */\n    tag_127:\n        /* \"#utility.yul\":3648:3657   */\n      dup2\n      dup2\n      sub\n        /* \"#utility.yul\":3669:3680   */\n      dup2\n      dup2\n      gt\n        /* \"#utility.yul\":3666:3703   */\n      iszero\n      tag_262\n      jumpi\n        /* \"#utility.yul\":3683:3701   */\n      tag_262\n      tag_242\n      jump\t// in\n        /* \"#utility.yul\":4090:4335   */\n    tag_133:\n        /* \"#utility.yul\":4157:4163   */\n      0x00\n        /* \"#utility.yul\":4210:4212   */\n      0x20\n        /* \"#utility.yul\":4198:4207   */\n      dup3\n        /* \"#utility.yul\":4189:4196   */\n      dup5\n        /* \"#utility.yul\":4185:4208   */\n      sub\n        /* \"#utility.yul\":4181:4213   */\n      slt\n        /* \"#utility.yul\":4178:4230   */\n      iszero\n      tag_275\n      jumpi\n        /* \"#utility.yul\":4226:4227   */\n      0x00\n        /* \"#utility.yul\":4223:4224   */\n      dup1\n        /* \"#utility.yul\":4216:4228   */\n      revert\n        /* \"#utility.yul\":4178:4230   */\n    tag_275:\n        /* \"#utility.yul\":4258:4267   */\n      dup2\n        /* \"#utility.yul\":4252:4268   */\n      mload\n        /* \"#utility.yul\":4277:4305   */\n      tag_252\n        /* \"#utility.yul\":4299:4304   */\n      dup2\n        /* \"#utility.yul\":4277:4305   */\n      tag_241\n      jump\t// in\n        /* \"#utility.yul\":5179:5363   */\n    tag_180:\n        /* \"#utility.yul\":5249:5255   */\n      0x00\n        /* \"#utility.yul\":5302:5304   */\n      0x20\n        /* \"#utility.yul\":5290:5299   */\n      dup3\n        /* \"#utility.yul\":5281:5288   */\n      dup5\n        /* \"#utility.yul\":5277:5300   */\n      sub\n        /* \"#utility.yul\":5273:5305   */\n      slt\n        /* \"#utility.yul\":5270:5322   */\n      iszero\n      tag_281\n      jumpi\n        /* \"#utility.yul\":5318:5319   */\n      0x00\n        /* \"#utility.yul\":5315:5316   */\n      dup1\n        /* \"#utility.yul\":5308:5320   */\n      revert\n        /* \"#utility.yul\":5270:5322   */\n    tag_281:\n      pop\n        /* \"#utility.yul\":5341:5357   */\n      mload\n      swap2\n        /* \"#utility.yul\":5179:5363   */\n      swap1\n      pop\n      jump\t// out\n\n    auxdata: 0xa26469706673582212204e76a95c89dce39850e6626dfb579857ccb6e6f17d9e7e37ba0e638b7aa0a28b64736f6c634300081a0033\n}\n",
				"bytecode": {
					"linkReferences": {},
					"object": "60806040526000600555600a60065560c86008556009805460ff1916905534801561002957600080fd5b506040516110df3803806110df83398101604081905261004891610170565b60016000556001600160a01b0382166100b95760405162461bcd60e51b815260206004820152602860248201527f446576656c6f70657220616464726573732063616e6e6f74206265207a65726f604482015267206164647265737360c01b60648201526084015b60405180910390fd5b6001600160a01b0381166101235760405162461bcd60e51b815260206004820152602b60248201527f546f6b656e466163746f727920616464726573732063616e6e6f74206265207a60448201526a65726f206164647265737360a81b60648201526084016100b0565b600780546001600160a01b039384166001600160a01b031991821617909155600280549290931691161790556101a3565b80516001600160a01b038116811461016b57600080fd5b919050565b6000806040838503121561018357600080fd5b61018c83610154565b915061019a60208401610154565b90509250929050565b610f2d806101b26000396000f3fe6080604052600436106101095760003560e01c80634f7041a511610095578063aac8e6a411610064578063aac8e6a4146102c4578063c91e5149146102e4578063cc1776d3146102fa578063cd6dc68714610310578063e77772fe1461032357600080fd5b80634f7041a5146102665780635a76f25e1461027c57806388e22f7f14610292578063a4821719146102bc57600080fd5b80633ad10ef6116100dc5780633ad10ef6146101bb578063436d3340146101db578063443cb4bc146101fb578063465fa408146102115780634ecce4511461023157600080fd5b80630dfe16811461010e57806312185a391461014b5780632397e4d71461016d57806323e18ddd1461019b575b600080fd5b34801561011a57600080fd5b5060015461012e906001600160a01b031681565b6040516001600160a01b0390911681526020015b60405180910390f35b34801561015757600080fd5b5061016b610166366004610d89565b610343565b005b34801561017957600080fd5b5061018d610188366004610d89565b610410565b604051908152602001610142565b3480156101a757600080fd5b5061016b6101b6366004610db3565b6106bc565b3480156101c757600080fd5b5060075461012e906001600160a01b031681565b3480156101e757600080fd5b5061016b6101f6366004610d89565b610727565b34801561020757600080fd5b5061018d60035481565b34801561021d57600080fd5b5061018d61022c366004610d89565b6107e4565b34801561023d57600080fd5b5061025161024c366004610d89565b610850565b60408051928352602083019190915201610142565b34801561027257600080fd5b5061018d60055481565b34801561028857600080fd5b5061018d60045481565b34801561029e57600080fd5b506009546102ac9060ff1681565b6040519015158152602001610142565b61018d61093f565b3480156102d057600080fd5b5061018d6102df366004610d89565b610b92565b3480156102f057600080fd5b5061018d60085481565b34801561030657600080fd5b5061018d60065481565b61016b61031e366004610dd7565b610bf6565b34801561032f57600080fd5b5060025461012e906001600160a01b031681565b6002546001600160a01b031633146103765760405162461bcd60e51b815260040161036d90610e0f565b60405180910390fd5b6032816005546103869190610e5c565b11156103d45760405162461bcd60e51b815260206004820152601a60248201527f546f74616c207461782063616e6e6f7420657863656564203525000000000000604482015260640161036d565b60068190556040518181527fa6255338a5f732d64ceba7f4c18182567f9d1067eb984b46d478b37d72a52d11906020015b60405180910390a150565b600061041a610d5f565b600082116104625760405162461bcd60e51b81526020600482015260156024820152744d7573742073656c6c20736f6d6520746f6b656e7360581b604482015260640161036d565b60006103e8600654846104759190610e75565b61047f9190610e8c565b9050600061048d8285610eae565b6001546040516323b872dd60e01b8152336004820152306024820152604481018790529192506001600160a01b0316906323b872dd906064016020604051808303816000875af11580156104e5573d6000803e3d6000fd5b505050506040513d601f19601f820116820180604052508101906105099190610ec1565b5060015460075460405163a9059cbb60e01b81526001600160a01b0391821660048201526024810185905291169063a9059cbb906044016020604051808303816000875af115801561055f573d6000803e3d6000fd5b505050506040513d601f19601f820116820180604052508101906105839190610ec1565b506000816003546105949190610e5c565b9050806004546003546105a79190610e75565b6105b19190610e8c565b6004546105be9190610eae565b93508060038190555083600460008282546105d99190610eae565b9091555050604051600090339086908381818185875af1925050503d8060008114610620576040519150601f19603f3d011682016040523d82523d6000602084013e610625565b606091505b505090508061066e5760405162461bcd60e51b8152602060048201526015602482015274115d1a195c881d1c985b9cd9995c8819985a5b1959605a1b604482015260640161036d565b604080518781526020810187905233917fa8ff15eb642b39da3ab82bb74a87b76cc3e1aef2b82b70bc2a35458386db29aa910160405180910390a2505050506106b76001600055565b919050565b6002546001600160a01b031633146106e65760405162461bcd60e51b815260040161036d90610e0f565b6009805460ff19168215159081179091556040519081527fec615c5e0f8d777f63be66955c04b8f91b4a878f984f8e1b9afa7255e83f0ef390602001610405565b6002546001600160a01b031633146107515760405162461bcd60e51b815260040161036d90610e0f565b6032600654826107619190610e5c565b11156107af5760405162461bcd60e51b815260206004820152601a60248201527f546f74616c207461782063616e6e6f7420657863656564203525000000000000604482015260640161036d565b60058190556040518181527f7a758dc8e99047b028278b3e2ff1416d8493a7aacee7a5dc30b6bf93270eccce90602001610405565b6000806103e8600554846107f89190610e75565b6108029190610e8c565b61080c9084610eae565b905060008160045461081e9190610e5c565b9050806004546003546108319190610e75565b61083b9190610e8c565b6003546108489190610eae565b949350505050565b6000806000600160009054906101000a90046001600160a01b03166001600160a01b03166318160ddd6040518163ffffffff1660e01b8152600401602060405180830381865afa1580156108a8573d6000803e3d6000fd5b505050506040513d601f19601f820116820180604052508101906108cc9190610ede565b90506000816108dd866103e8610e75565b6108e79190610e8c565b60095490915060ff1680156108fd575060085481115b1561092f5760085461090f9082610eae565b92506103e861091e8685610e75565b6109289190610e8c565b9350610938565b60009350600092505b5050915091565b6000610949610d5f565b600034116109995760405162461bcd60e51b815260206004820152601d60248201527f4d7573742073656e6420457468657220746f2062757920746f6b656e73000000604482015260640161036d565b60006103e8600554346109ac9190610e75565b6109b69190610e8c565b905060006109c48234610eae565b6007546040519192506000916001600160a01b039091169084908381818185875af1925050503d8060008114610a16576040519150601f19603f3d011682016040523d82523d6000602084013e610a1b565b606091505b5050905080610a765760405162461bcd60e51b815260206004820152602160248201527f4661696c656420746f2073656e642074617820746f20646576206164647265736044820152607360f81b606482015260840161036d565b600082600454610a869190610e5c565b905080600454600354610a999190610e75565b610aa39190610e8c565b600354610ab09190610eae565b9450806004819055508460036000828254610acb9190610eae565b909155505060015460405163a9059cbb60e01b8152336004820152602481018790526001600160a01b039091169063a9059cbb906044016020604051808303816000875af1158015610b21573d6000803e3d6000fd5b505050506040513d601f19601f82011682018060405250810190610b459190610ec1565b50604080513481526020810187905233917ff6f342132c7de5e5a1e99c8efae544c94731f3ff093f5c3c97c6973d9415cdfb910160405180910390a250505050610b8f6001600055565b90565b6000806103e860065484610ba69190610e75565b610bb09190610e8c565b610bba9084610eae565b9050600081600354610bcc9190610e5c565b905080600454600354610bdf9190610e75565b610be99190610e8c565b6004546108489190610eae565b610bfe610d5f565b6002546001600160a01b03163314610c285760405162461bcd60e51b815260040161036d90610e0f565b6001546001600160a01b031615610c815760405162461bcd60e51b815260206004820152601860248201527f506f6f6c20616c726561647920696e697469616c697a65640000000000000000604482015260640161036d565b60003411610cef5760405162461bcd60e51b815260206004820152603560248201527f496e697469616c206e617469766520746f6b656e20616d6f756e74206d7573746044820152742062652067726561746572207468616e207a65726f60581b606482015260840161036d565b600180546001600160a01b0319166001600160a01b038416179055600381905534600481905560408051838152602081019290925233917fac1d76749e5447b7b16f5ab61447e1bd502f3bb4807af3b28e620d1700a6ee45910160405180910390a2610d5b6001600055565b5050565b600260005403610d8257604051633ee5aeb560e01b815260040160405180910390fd5b6002600055565b600060208284031215610d9b57600080fd5b5035919050565b8015158114610db057600080fd5b50565b600060208284031215610dc557600080fd5b8135610dd081610da2565b9392505050565b60008060408385031215610dea57600080fd5b82356001600160a01b0381168114610e0157600080fd5b946020939093013593505050565b6020808252601e908201527f43616c6c6572206973206e6f742074686520546f6b656e466163746f72790000604082015260600190565b634e487b7160e01b600052601160045260246000fd5b80820180821115610e6f57610e6f610e46565b92915050565b8082028115828204841417610e6f57610e6f610e46565b600082610ea957634e487b7160e01b600052601260045260246000fd5b500490565b81810381811115610e6f57610e6f610e46565b600060208284031215610ed357600080fd5b8151610dd081610da2565b600060208284031215610ef057600080fd5b505191905056fea26469706673582212204e76a95c89dce39850e6626dfb579857ccb6e6f17d9e7e37ba0e638b7aa0a28b64736f6c634300081a0033",
					"opcodes": "PUSH1 0x80 PUSH1 0x40 MSTORE PUSH1 0x0 PUSH1 0x5 SSTORE PUSH1 0xA PUSH1 0x6 SSTORE PUSH1 0xC8 PUSH1 0x8 SSTORE PUSH1 0x9 DUP1 SLOAD PUSH1 0xFF NOT AND SWAP1 SSTORE CALLVALUE DUP1 ISZERO PUSH2 0x29 JUMPI PUSH1 0x0 DUP1 REVERT JUMPDEST POP PUSH1 0x40 MLOAD PUSH2 0x10DF CODESIZE SUB DUP1 PUSH2 0x10DF DUP4 CODECOPY DUP2 ADD PUSH1 0x40 DUP2 SWAP1 MSTORE PUSH2 0x48 SWAP2 PUSH2 0x170 JUMP JUMPDEST PUSH1 0x1 PUSH1 0x0 SSTORE PUSH1 0x1 PUSH1 0x1 PUSH1 0xA0 SHL SUB DUP3 AND PUSH2 0xB9 JUMPI PUSH1 0x40 MLOAD PUSH3 0x461BCD PUSH1 0xE5 SHL DUP2 MSTORE PUSH1 0x20 PUSH1 0x4 DUP3 ADD MSTORE PUSH1 0x28 PUSH1 0x24 DUP3 ADD MSTORE PUSH32 0x446576656C6F70657220616464726573732063616E6E6F74206265207A65726F PUSH1 0x44 DUP3 ADD MSTORE PUSH8 0x2061646472657373 PUSH1 0xC0 SHL PUSH1 0x64 DUP3 ADD MSTORE PUSH1 0x84 ADD JUMPDEST PUSH1 0x40 MLOAD DUP1 SWAP2 SUB SWAP1 REVERT JUMPDEST PUSH1 0x1 PUSH1 0x1 PUSH1 0xA0 SHL SUB DUP2 AND PUSH2 0x123 JUMPI PUSH1 0x40 MLOAD PUSH3 0x461BCD PUSH1 0xE5 SHL DUP2 MSTORE PUSH1 0x20 PUSH1 0x4 DUP3 ADD MSTORE PUSH1 0x2B PUSH1 0x24 DUP3 ADD MSTORE PUSH32 0x546F6B656E466163746F727920616464726573732063616E6E6F74206265207A PUSH1 0x44 DUP3 ADD MSTORE PUSH11 0x65726F2061646472657373 PUSH1 0xA8 SHL PUSH1 0x64 DUP3 ADD MSTORE PUSH1 0x84 ADD PUSH2 0xB0 JUMP JUMPDEST PUSH1 0x7 DUP1 SLOAD PUSH1 0x1 PUSH1 0x1 PUSH1 0xA0 SHL SUB SWAP4 DUP5 AND PUSH1 0x1 PUSH1 0x1 PUSH1 0xA0 SHL SUB NOT SWAP2 DUP3 AND OR SWAP1 SWAP2 SSTORE PUSH1 0x2 DUP1 SLOAD SWAP3 SWAP1 SWAP4 AND SWAP2 AND OR SWAP1 SSTORE PUSH2 0x1A3 JUMP JUMPDEST DUP1 MLOAD PUSH1 0x1 PUSH1 0x1 PUSH1 0xA0 SHL SUB DUP2 AND DUP2 EQ PUSH2 0x16B JUMPI PUSH1 0x0 DUP1 REVERT JUMPDEST SWAP2 SWAP1 POP JUMP JUMPDEST PUSH1 0x0 DUP1 PUSH1 0x40 DUP4 DUP6 SUB SLT ISZERO PUSH2 0x183 JUMPI PUSH1 0x0 DUP1 REVERT JUMPDEST PUSH2 0x18C DUP4 PUSH2 0x154 JUMP JUMPDEST SWAP2 POP PUSH2 0x19A PUSH1 0x20 DUP5 ADD PUSH2 0x154 JUMP JUMPDEST SWAP1 POP SWAP3 POP SWAP3 SWAP1 POP JUMP JUMPDEST PUSH2 0xF2D DUP1 PUSH2 0x1B2 PUSH1 0x0 CODECOPY PUSH1 0x0 RETURN INVALID PUSH1 0x80 PUSH1 0x40 MSTORE PUSH1 0x4 CALLDATASIZE LT PUSH2 0x109 JUMPI PUSH1 0x0 CALLDATALOAD PUSH1 0xE0 SHR DUP1 PUSH4 0x4F7041A5 GT PUSH2 0x95 JUMPI DUP1 PUSH4 0xAAC8E6A4 GT PUSH2 0x64 JUMPI DUP1 PUSH4 0xAAC8E6A4 EQ PUSH2 0x2C4 JUMPI DUP1 PUSH4 0xC91E5149 EQ PUSH2 0x2E4 JUMPI DUP1 PUSH4 0xCC1776D3 EQ PUSH2 0x2FA JUMPI DUP1 PUSH4 0xCD6DC687 EQ PUSH2 0x310 JUMPI DUP1 PUSH4 0xE77772FE EQ PUSH2 0x323 JUMPI PUSH1 0x0 DUP1 REVERT JUMPDEST DUP1 PUSH4 0x4F7041A5 EQ PUSH2 0x266 JUMPI DUP1 PUSH4 0x5A76F25E EQ PUSH2 0x27C JUMPI DUP1 PUSH4 0x88E22F7F EQ PUSH2 0x292 JUMPI DUP1 PUSH4 0xA4821719 EQ PUSH2 0x2BC JUMPI PUSH1 0x0 DUP1 REVERT JUMPDEST DUP1 PUSH4 0x3AD10EF6 GT PUSH2 0xDC JUMPI DUP1 PUSH4 0x3AD10EF6 EQ PUSH2 0x1BB JUMPI DUP1 PUSH4 0x436D3340 EQ PUSH2 0x1DB JUMPI DUP1 PUSH4 0x443CB4BC EQ PUSH2 0x1FB JUMPI DUP1 PUSH4 0x465FA408 EQ PUSH2 0x211 JUMPI DUP1 PUSH4 0x4ECCE451 EQ PUSH2 0x231 JUMPI PUSH1 0x0 DUP1 REVERT JUMPDEST DUP1 PUSH4 0xDFE1681 EQ PUSH2 0x10E JUMPI DUP1 PUSH4 0x12185A39 EQ PUSH2 0x14B JUMPI DUP1 PUSH4 0x2397E4D7 EQ PUSH2 0x16D JUMPI DUP1 PUSH4 0x23E18DDD EQ PUSH2 0x19B JUMPI JUMPDEST PUSH1 0x0 DUP1 REVERT JUMPDEST CALLVALUE DUP1 ISZERO PUSH2 0x11A JUMPI PUSH1 0x0 DUP1 REVERT JUMPDEST POP PUSH1 0x1 SLOAD PUSH2 0x12E SWAP1 PUSH1 0x1 PUSH1 0x1 PUSH1 0xA0 SHL SUB AND DUP2 JUMP JUMPDEST PUSH1 0x40 MLOAD PUSH1 0x1 PUSH1 0x1 PUSH1 0xA0 SHL SUB SWAP1 SWAP2 AND DUP2 MSTORE PUSH1 0x20 ADD JUMPDEST PUSH1 0x40 MLOAD DUP1 SWAP2 SUB SWAP1 RETURN JUMPDEST CALLVALUE DUP1 ISZERO PUSH2 0x157 JUMPI PUSH1 0x0 DUP1 REVERT JUMPDEST POP PUSH2 0x16B PUSH2 0x166 CALLDATASIZE PUSH1 0x4 PUSH2 0xD89 JUMP JUMPDEST PUSH2 0x343 JUMP JUMPDEST STOP JUMPDEST CALLVALUE DUP1 ISZERO PUSH2 0x179 JUMPI PUSH1 0x0 DUP1 REVERT JUMPDEST POP PUSH2 0x18D PUSH2 0x188 CALLDATASIZE PUSH1 0x4 PUSH2 0xD89 JUMP JUMPDEST PUSH2 0x410 JUMP JUMPDEST PUSH1 0x40 MLOAD SWAP1 DUP2 MSTORE PUSH1 0x20 ADD PUSH2 0x142 JUMP JUMPDEST CALLVALUE DUP1 ISZERO PUSH2 0x1A7 JUMPI PUSH1 0x0 DUP1 REVERT JUMPDEST POP PUSH2 0x16B PUSH2 0x1B6 CALLDATASIZE PUSH1 0x4 PUSH2 0xDB3 JUMP JUMPDEST PUSH2 0x6BC JUMP JUMPDEST CALLVALUE DUP1 ISZERO PUSH2 0x1C7 JUMPI PUSH1 0x0 DUP1 REVERT JUMPDEST POP PUSH1 0x7 SLOAD PUSH2 0x12E SWAP1 PUSH1 0x1 PUSH1 0x1 PUSH1 0xA0 SHL SUB AND DUP2 JUMP JUMPDEST CALLVALUE DUP1 ISZERO PUSH2 0x1E7 JUMPI PUSH1 0x0 DUP1 REVERT JUMPDEST POP PUSH2 0x16B PUSH2 0x1F6 CALLDATASIZE PUSH1 0x4 PUSH2 0xD89 JUMP JUMPDEST PUSH2 0x727 JUMP JUMPDEST CALLVALUE DUP1 ISZERO PUSH2 0x207 JUMPI PUSH1 0x0 DUP1 REVERT JUMPDEST POP PUSH2 0x18D PUSH1 0x3 SLOAD DUP2 JUMP JUMPDEST CALLVALUE DUP1 ISZERO PUSH2 0x21D JUMPI PUSH1 0x0 DUP1 REVERT JUMPDEST POP PUSH2 0x18D PUSH2 0x22C CALLDATASIZE PUSH1 0x4 PUSH2 0xD89 JUMP JUMPDEST PUSH2 0x7E4 JUMP JUMPDEST CALLVALUE DUP1 ISZERO PUSH2 0x23D JUMPI PUSH1 0x0 DUP1 REVERT JUMPDEST POP PUSH2 0x251 PUSH2 0x24C CALLDATASIZE PUSH1 0x4 PUSH2 0xD89 JUMP JUMPDEST PUSH2 0x850 JUMP JUMPDEST PUSH1 0x40 DUP1 MLOAD SWAP3 DUP4 MSTORE PUSH1 0x20 DUP4 ADD SWAP2 SWAP1 SWAP2 MSTORE ADD PUSH2 0x142 JUMP JUMPDEST CALLVALUE DUP1 ISZERO PUSH2 0x272 JUMPI PUSH1 0x0 DUP1 REVERT JUMPDEST POP PUSH2 0x18D PUSH1 0x5 SLOAD DUP2 JUMP JUMPDEST CALLVALUE DUP1 ISZERO PUSH2 0x288 JUMPI PUSH1 0x0 DUP1 REVERT JUMPDEST POP PUSH2 0x18D PUSH1 0x4 SLOAD DUP2 JUMP JUMPDEST CALLVALUE DUP1 ISZERO PUSH2 0x29E JUMPI PUSH1 0x0 DUP1 REVERT JUMPDEST POP PUSH1 0x9 SLOAD PUSH2 0x2AC SWAP1 PUSH1 0xFF AND DUP2 JUMP JUMPDEST PUSH1 0x40 MLOAD SWAP1 ISZERO ISZERO DUP2 MSTORE PUSH1 0x20 ADD PUSH2 0x142 JUMP JUMPDEST PUSH2 0x18D PUSH2 0x93F JUMP JUMPDEST CALLVALUE DUP1 ISZERO PUSH2 0x2D0 JUMPI PUSH1 0x0 DUP1 REVERT JUMPDEST POP PUSH2 0x18D PUSH2 0x2DF CALLDATASIZE PUSH1 0x4 PUSH2 0xD89 JUMP JUMPDEST PUSH2 0xB92 JUMP JUMPDEST CALLVALUE DUP1 ISZERO PUSH2 0x2F0 JUMPI PUSH1 0x0 DUP1 REVERT JUMPDEST POP PUSH2 0x18D PUSH1 0x8 SLOAD DUP2 JUMP JUMPDEST CALLVALUE DUP1 ISZERO PUSH2 0x306 JUMPI PUSH1 0x0 DUP1 REVERT JUMPDEST POP PUSH2 0x18D PUSH1 0x6 SLOAD DUP2 JUMP JUMPDEST PUSH2 0x16B PUSH2 0x31E CALLDATASIZE PUSH1 0x4 PUSH2 0xDD7 JUMP JUMPDEST PUSH2 0xBF6 JUMP JUMPDEST CALLVALUE DUP1 ISZERO PUSH2 0x32F JUMPI PUSH1 0x0 DUP1 REVERT JUMPDEST POP PUSH1 0x2 SLOAD PUSH2 0x12E SWAP1 PUSH1 0x1 PUSH1 0x1 PUSH1 0xA0 SHL SUB AND DUP2 JUMP JUMPDEST PUSH1 0x2 SLOAD PUSH1 0x1 PUSH1 0x1 PUSH1 0xA0 SHL SUB AND CALLER EQ PUSH2 0x376 JUMPI PUSH1 0x40 MLOAD PUSH3 0x461BCD PUSH1 0xE5 SHL DUP2 MSTORE PUSH1 0x4 ADD PUSH2 0x36D SWAP1 PUSH2 0xE0F JUMP JUMPDEST PUSH1 0x40 MLOAD DUP1 SWAP2 SUB SWAP1 REVERT JUMPDEST PUSH1 0x32 DUP2 PUSH1 0x5 SLOAD PUSH2 0x386 SWAP2 SWAP1 PUSH2 0xE5C JUMP JUMPDEST GT ISZERO PUSH2 0x3D4 JUMPI PUSH1 0x40 MLOAD PUSH3 0x461BCD PUSH1 0xE5 SHL DUP2 MSTORE PUSH1 0x20 PUSH1 0x4 DUP3 ADD MSTORE PUSH1 0x1A PUSH1 0x24 DUP3 ADD MSTORE PUSH32 0x546F74616C207461782063616E6E6F7420657863656564203525000000000000 PUSH1 0x44 DUP3 ADD MSTORE PUSH1 0x64 ADD PUSH2 0x36D JUMP JUMPDEST PUSH1 0x6 DUP2 SWAP1 SSTORE PUSH1 0x40 MLOAD DUP2 DUP2 MSTORE PUSH32 0xA6255338A5F732D64CEBA7F4C18182567F9D1067EB984B46D478B37D72A52D11 SWAP1 PUSH1 0x20 ADD JUMPDEST PUSH1 0x40 MLOAD DUP1 SWAP2 SUB SWAP1 LOG1 POP JUMP JUMPDEST PUSH1 0x0 PUSH2 0x41A PUSH2 0xD5F JUMP JUMPDEST PUSH1 0x0 DUP3 GT PUSH2 0x462 JUMPI PUSH1 0x40 MLOAD PUSH3 0x461BCD PUSH1 0xE5 SHL DUP2 MSTORE PUSH1 0x20 PUSH1 0x4 DUP3 ADD MSTORE PUSH1 0x15 PUSH1 0x24 DUP3 ADD MSTORE PUSH21 0x4D7573742073656C6C20736F6D6520746F6B656E73 PUSH1 0x58 SHL PUSH1 0x44 DUP3 ADD MSTORE PUSH1 0x64 ADD PUSH2 0x36D JUMP JUMPDEST PUSH1 0x0 PUSH2 0x3E8 PUSH1 0x6 SLOAD DUP5 PUSH2 0x475 SWAP2 SWAP1 PUSH2 0xE75 JUMP JUMPDEST PUSH2 0x47F SWAP2 SWAP1 PUSH2 0xE8C JUMP JUMPDEST SWAP1 POP PUSH1 0x0 PUSH2 0x48D DUP3 DUP6 PUSH2 0xEAE JUMP JUMPDEST PUSH1 0x1 SLOAD PUSH1 0x40 MLOAD PUSH4 0x23B872DD PUSH1 0xE0 SHL DUP2 MSTORE CALLER PUSH1 0x4 DUP3 ADD MSTORE ADDRESS PUSH1 0x24 DUP3 ADD MSTORE PUSH1 0x44 DUP2 ADD DUP8 SWAP1 MSTORE SWAP2 SWAP3 POP PUSH1 0x1 PUSH1 0x1 PUSH1 0xA0 SHL SUB AND SWAP1 PUSH4 0x23B872DD SWAP1 PUSH1 0x64 ADD PUSH1 0x20 PUSH1 0x40 MLOAD DUP1 DUP4 SUB DUP2 PUSH1 0x0 DUP8 GAS CALL ISZERO DUP1 ISZERO PUSH2 0x4E5 JUMPI RETURNDATASIZE PUSH1 0x0 DUP1 RETURNDATACOPY RETURNDATASIZE PUSH1 0x0 REVERT JUMPDEST POP POP POP POP PUSH1 0x40 MLOAD RETURNDATASIZE PUSH1 0x1F NOT PUSH1 0x1F DUP3 ADD AND DUP3 ADD DUP1 PUSH1 0x40 MSTORE POP DUP2 ADD SWAP1 PUSH2 0x509 SWAP2 SWAP1 PUSH2 0xEC1 JUMP JUMPDEST POP PUSH1 0x1 SLOAD PUSH1 0x7 SLOAD PUSH1 0x40 MLOAD PUSH4 0xA9059CBB PUSH1 0xE0 SHL DUP2 MSTORE PUSH1 0x1 PUSH1 0x1 PUSH1 0xA0 SHL SUB SWAP2 DUP3 AND PUSH1 0x4 DUP3 ADD MSTORE PUSH1 0x24 DUP2 ADD DUP6 SWAP1 MSTORE SWAP2 AND SWAP1 PUSH4 0xA9059CBB SWAP1 PUSH1 0x44 ADD PUSH1 0x20 PUSH1 0x40 MLOAD DUP1 DUP4 SUB DUP2 PUSH1 0x0 DUP8 GAS CALL ISZERO DUP1 ISZERO PUSH2 0x55F JUMPI RETURNDATASIZE PUSH1 0x0 DUP1 RETURNDATACOPY RETURNDATASIZE PUSH1 0x0 REVERT JUMPDEST POP POP POP POP PUSH1 0x40 MLOAD RETURNDATASIZE PUSH1 0x1F NOT PUSH1 0x1F DUP3 ADD AND DUP3 ADD DUP1 PUSH1 0x40 MSTORE POP DUP2 ADD SWAP1 PUSH2 0x583 SWAP2 SWAP1 PUSH2 0xEC1 JUMP JUMPDEST POP PUSH1 0x0 DUP2 PUSH1 0x3 SLOAD PUSH2 0x594 SWAP2 SWAP1 PUSH2 0xE5C JUMP JUMPDEST SWAP1 POP DUP1 PUSH1 0x4 SLOAD PUSH1 0x3 SLOAD PUSH2 0x5A7 SWAP2 SWAP1 PUSH2 0xE75 JUMP JUMPDEST PUSH2 0x5B1 SWAP2 SWAP1 PUSH2 0xE8C JUMP JUMPDEST PUSH1 0x4 SLOAD PUSH2 0x5BE SWAP2 SWAP1 PUSH2 0xEAE JUMP JUMPDEST SWAP4 POP DUP1 PUSH1 0x3 DUP2 SWAP1 SSTORE POP DUP4 PUSH1 0x4 PUSH1 0x0 DUP3 DUP3 SLOAD PUSH2 0x5D9 SWAP2 SWAP1 PUSH2 0xEAE JUMP JUMPDEST SWAP1 SWAP2 SSTORE POP POP PUSH1 0x40 MLOAD PUSH1 0x0 SWAP1 CALLER SWAP1 DUP7 SWAP1 DUP4 DUP2 DUP2 DUP2 DUP6 DUP8 GAS CALL SWAP3 POP POP POP RETURNDATASIZE DUP1 PUSH1 0x0 DUP2 EQ PUSH2 0x620 JUMPI PUSH1 0x40 MLOAD SWAP2 POP PUSH1 0x1F NOT PUSH1 0x3F RETURNDATASIZE ADD AND DUP3 ADD PUSH1 0x40 MSTORE RETURNDATASIZE DUP3 MSTORE RETURNDATASIZE PUSH1 0x0 PUSH1 0x20 DUP5 ADD RETURNDATACOPY PUSH2 0x625 JUMP JUMPDEST PUSH1 0x60 SWAP2 POP JUMPDEST POP POP SWAP1 POP DUP1 PUSH2 0x66E JUMPI PUSH1 0x40 MLOAD PUSH3 0x461BCD PUSH1 0xE5 SHL DUP2 MSTORE PUSH1 0x20 PUSH1 0x4 DUP3 ADD MSTORE PUSH1 0x15 PUSH1 0x24 DUP3 ADD MSTORE PUSH21 0x115D1A195C881D1C985B9CD9995C8819985A5B1959 PUSH1 0x5A SHL PUSH1 0x44 DUP3 ADD MSTORE PUSH1 0x64 ADD PUSH2 0x36D JUMP JUMPDEST PUSH1 0x40 DUP1 MLOAD DUP8 DUP2 MSTORE PUSH1 0x20 DUP2 ADD DUP8 SWAP1 MSTORE CALLER SWAP2 PUSH32 0xA8FF15EB642B39DA3AB82BB74A87B76CC3E1AEF2B82B70BC2A35458386DB29AA SWAP2 ADD PUSH1 0x40 MLOAD DUP1 SWAP2 SUB SWAP1 LOG2 POP POP POP POP PUSH2 0x6B7 PUSH1 0x1 PUSH1 0x0 SSTORE JUMP JUMPDEST SWAP2 SWAP1 POP JUMP JUMPDEST PUSH1 0x2 SLOAD PUSH1 0x1 PUSH1 0x1 PUSH1 0xA0 SHL SUB AND CALLER EQ PUSH2 0x6E6 JUMPI PUSH1 0x40 MLOAD PUSH3 0x461BCD PUSH1 0xE5 SHL DUP2 MSTORE PUSH1 0x4 ADD PUSH2 0x36D SWAP1 PUSH2 0xE0F JUMP JUMPDEST PUSH1 0x9 DUP1 SLOAD PUSH1 0xFF NOT AND DUP3 ISZERO ISZERO SWAP1 DUP2 OR SWAP1 SWAP2 SSTORE PUSH1 0x40 MLOAD SWAP1 DUP2 MSTORE PUSH32 0xEC615C5E0F8D777F63BE66955C04B8F91B4A878F984F8E1B9AFA7255E83F0EF3 SWAP1 PUSH1 0x20 ADD PUSH2 0x405 JUMP JUMPDEST PUSH1 0x2 SLOAD PUSH1 0x1 PUSH1 0x1 PUSH1 0xA0 SHL SUB AND CALLER EQ PUSH2 0x751 JUMPI PUSH1 0x40 MLOAD PUSH3 0x461BCD PUSH1 0xE5 SHL DUP2 MSTORE PUSH1 0x4 ADD PUSH2 0x36D SWAP1 PUSH2 0xE0F JUMP JUMPDEST PUSH1 0x32 PUSH1 0x6 SLOAD DUP3 PUSH2 0x761 SWAP2 SWAP1 PUSH2 0xE5C JUMP JUMPDEST GT ISZERO PUSH2 0x7AF JUMPI PUSH1 0x40 MLOAD PUSH3 0x461BCD PUSH1 0xE5 SHL DUP2 MSTORE PUSH1 0x20 PUSH1 0x4 DUP3 ADD MSTORE PUSH1 0x1A PUSH1 0x24 DUP3 ADD MSTORE PUSH32 0x546F74616C207461782063616E6E6F7420657863656564203525000000000000 PUSH1 0x44 DUP3 ADD MSTORE PUSH1 0x64 ADD PUSH2 0x36D JUMP JUMPDEST PUSH1 0x5 DUP2 SWAP1 SSTORE PUSH1 0x40 MLOAD DUP2 DUP2 MSTORE PUSH32 0x7A758DC8E99047B028278B3E2FF1416D8493A7AACEE7A5DC30B6BF93270ECCCE SWAP1 PUSH1 0x20 ADD PUSH2 0x405 JUMP JUMPDEST PUSH1 0x0 DUP1 PUSH2 0x3E8 PUSH1 0x5 SLOAD DUP5 PUSH2 0x7F8 SWAP2 SWAP1 PUSH2 0xE75 JUMP JUMPDEST PUSH2 0x802 SWAP2 SWAP1 PUSH2 0xE8C JUMP JUMPDEST PUSH2 0x80C SWAP1 DUP5 PUSH2 0xEAE JUMP JUMPDEST SWAP1 POP PUSH1 0x0 DUP2 PUSH1 0x4 SLOAD PUSH2 0x81E SWAP2 SWAP1 PUSH2 0xE5C JUMP JUMPDEST SWAP1 POP DUP1 PUSH1 0x4 SLOAD PUSH1 0x3 SLOAD PUSH2 0x831 SWAP2 SWAP1 PUSH2 0xE75 JUMP JUMPDEST PUSH2 0x83B SWAP2 SWAP1 PUSH2 0xE8C JUMP JUMPDEST PUSH1 0x3 SLOAD PUSH2 0x848 SWAP2 SWAP1 PUSH2 0xEAE JUMP JUMPDEST SWAP5 SWAP4 POP POP POP POP JUMP JUMPDEST PUSH1 0x0 DUP1 PUSH1 0x0 PUSH1 0x1 PUSH1 0x0 SWAP1 SLOAD SWAP1 PUSH2 0x100 EXP SWAP1 DIV PUSH1 0x1 PUSH1 0x1 PUSH1 0xA0 SHL SUB AND PUSH1 0x1 PUSH1 0x1 PUSH1 0xA0 SHL SUB AND PUSH4 0x18160DDD PUSH1 0x40 MLOAD DUP2 PUSH4 0xFFFFFFFF AND PUSH1 0xE0 SHL DUP2 MSTORE PUSH1 0x4 ADD PUSH1 0x20 PUSH1 0x40 MLOAD DUP1 DUP4 SUB DUP2 DUP7 GAS STATICCALL ISZERO DUP1 ISZERO PUSH2 0x8A8 JUMPI RETURNDATASIZE PUSH1 0x0 DUP1 RETURNDATACOPY RETURNDATASIZE PUSH1 0x0 REVERT JUMPDEST POP POP POP POP PUSH1 0x40 MLOAD RETURNDATASIZE PUSH1 0x1F NOT PUSH1 0x1F DUP3 ADD AND DUP3 ADD DUP1 PUSH1 0x40 MSTORE POP DUP2 ADD SWAP1 PUSH2 0x8CC SWAP2 SWAP1 PUSH2 0xEDE JUMP JUMPDEST SWAP1 POP PUSH1 0x0 DUP2 PUSH2 0x8DD DUP7 PUSH2 0x3E8 PUSH2 0xE75 JUMP JUMPDEST PUSH2 0x8E7 SWAP2 SWAP1 PUSH2 0xE8C JUMP JUMPDEST PUSH1 0x9 SLOAD SWAP1 SWAP2 POP PUSH1 0xFF AND DUP1 ISZERO PUSH2 0x8FD JUMPI POP PUSH1 0x8 SLOAD DUP2 GT JUMPDEST ISZERO PUSH2 0x92F JUMPI PUSH1 0x8 SLOAD PUSH2 0x90F SWAP1 DUP3 PUSH2 0xEAE JUMP JUMPDEST SWAP3 POP PUSH2 0x3E8 PUSH2 0x91E DUP7 DUP6 PUSH2 0xE75 JUMP JUMPDEST PUSH2 0x928 SWAP2 SWAP1 PUSH2 0xE8C JUMP JUMPDEST SWAP4 POP PUSH2 0x938 JUMP JUMPDEST PUSH1 0x0 SWAP4 POP PUSH1 0x0 SWAP3 POP JUMPDEST POP POP SWAP2 POP SWAP2 JUMP JUMPDEST PUSH1 0x0 PUSH2 0x949 PUSH2 0xD5F JUMP JUMPDEST PUSH1 0x0 CALLVALUE GT PUSH2 0x999 JUMPI PUSH1 0x40 MLOAD PUSH3 0x461BCD PUSH1 0xE5 SHL DUP2 MSTORE PUSH1 0x20 PUSH1 0x4 DUP3 ADD MSTORE PUSH1 0x1D PUSH1 0x24 DUP3 ADD MSTORE PUSH32 0x4D7573742073656E6420457468657220746F2062757920746F6B656E73000000 PUSH1 0x44 DUP3 ADD MSTORE PUSH1 0x64 ADD PUSH2 0x36D JUMP JUMPDEST PUSH1 0x0 PUSH2 0x3E8 PUSH1 0x5 SLOAD CALLVALUE PUSH2 0x9AC SWAP2 SWAP1 PUSH2 0xE75 JUMP JUMPDEST PUSH2 0x9B6 SWAP2 SWAP1 PUSH2 0xE8C JUMP JUMPDEST SWAP1 POP PUSH1 0x0 PUSH2 0x9C4 DUP3 CALLVALUE PUSH2 0xEAE JUMP JUMPDEST PUSH1 0x7 SLOAD PUSH1 0x40 MLOAD SWAP2 SWAP3 POP PUSH1 0x0 SWAP2 PUSH1 0x1 PUSH1 0x1 PUSH1 0xA0 SHL SUB SWAP1 SWAP2 AND SWAP1 DUP5 SWAP1 DUP4 DUP2 DUP2 DUP2 DUP6 DUP8 GAS CALL SWAP3 POP POP POP RETURNDATASIZE DUP1 PUSH1 0x0 DUP2 EQ PUSH2 0xA16 JUMPI PUSH1 0x40 MLOAD SWAP2 POP PUSH1 0x1F NOT PUSH1 0x3F RETURNDATASIZE ADD AND DUP3 ADD PUSH1 0x40 MSTORE RETURNDATASIZE DUP3 MSTORE RETURNDATASIZE PUSH1 0x0 PUSH1 0x20 DUP5 ADD RETURNDATACOPY PUSH2 0xA1B JUMP JUMPDEST PUSH1 0x60 SWAP2 POP JUMPDEST POP POP SWAP1 POP DUP1 PUSH2 0xA76 JUMPI PUSH1 0x40 MLOAD PUSH3 0x461BCD PUSH1 0xE5 SHL DUP2 MSTORE PUSH1 0x20 PUSH1 0x4 DUP3 ADD MSTORE PUSH1 0x21 PUSH1 0x24 DUP3 ADD MSTORE PUSH32 0x4661696C656420746F2073656E642074617820746F2064657620616464726573 PUSH1 0x44 DUP3 ADD MSTORE PUSH1 0x73 PUSH1 0xF8 SHL PUSH1 0x64 DUP3 ADD MSTORE PUSH1 0x84 ADD PUSH2 0x36D JUMP JUMPDEST PUSH1 0x0 DUP3 PUSH1 0x4 SLOAD PUSH2 0xA86 SWAP2 SWAP1 PUSH2 0xE5C JUMP JUMPDEST SWAP1 POP DUP1 PUSH1 0x4 SLOAD PUSH1 0x3 SLOAD PUSH2 0xA99 SWAP2 SWAP1 PUSH2 0xE75 JUMP JUMPDEST PUSH2 0xAA3 SWAP2 SWAP1 PUSH2 0xE8C JUMP JUMPDEST PUSH1 0x3 SLOAD PUSH2 0xAB0 SWAP2 SWAP1 PUSH2 0xEAE JUMP JUMPDEST SWAP5 POP DUP1 PUSH1 0x4 DUP2 SWAP1 SSTORE POP DUP5 PUSH1 0x3 PUSH1 0x0 DUP3 DUP3 SLOAD PUSH2 0xACB SWAP2 SWAP1 PUSH2 0xEAE JUMP JUMPDEST SWAP1 SWAP2 SSTORE POP POP PUSH1 0x1 SLOAD PUSH1 0x40 MLOAD PUSH4 0xA9059CBB PUSH1 0xE0 SHL DUP2 MSTORE CALLER PUSH1 0x4 DUP3 ADD MSTORE PUSH1 0x24 DUP2 ADD DUP8 SWAP1 MSTORE PUSH1 0x1 PUSH1 0x1 PUSH1 0xA0 SHL SUB SWAP1 SWAP2 AND SWAP1 PUSH4 0xA9059CBB SWAP1 PUSH1 0x44 ADD PUSH1 0x20 PUSH1 0x40 MLOAD DUP1 DUP4 SUB DUP2 PUSH1 0x0 DUP8 GAS CALL ISZERO DUP1 ISZERO PUSH2 0xB21 JUMPI RETURNDATASIZE PUSH1 0x0 DUP1 RETURNDATACOPY RETURNDATASIZE PUSH1 0x0 REVERT JUMPDEST POP POP POP POP PUSH1 0x40 MLOAD RETURNDATASIZE PUSH1 0x1F NOT PUSH1 0x1F DUP3 ADD AND DUP3 ADD DUP1 PUSH1 0x40 MSTORE POP DUP2 ADD SWAP1 PUSH2 0xB45 SWAP2 SWAP1 PUSH2 0xEC1 JUMP JUMPDEST POP PUSH1 0x40 DUP1 MLOAD CALLVALUE DUP2 MSTORE PUSH1 0x20 DUP2 ADD DUP8 SWAP1 MSTORE CALLER SWAP2 PUSH32 0xF6F342132C7DE5E5A1E99C8EFAE544C94731F3FF093F5C3C97C6973D9415CDFB SWAP2 ADD PUSH1 0x40 MLOAD DUP1 SWAP2 SUB SWAP1 LOG2 POP POP POP POP PUSH2 0xB8F PUSH1 0x1 PUSH1 0x0 SSTORE JUMP JUMPDEST SWAP1 JUMP JUMPDEST PUSH1 0x0 DUP1 PUSH2 0x3E8 PUSH1 0x6 SLOAD DUP5 PUSH2 0xBA6 SWAP2 SWAP1 PUSH2 0xE75 JUMP JUMPDEST PUSH2 0xBB0 SWAP2 SWAP1 PUSH2 0xE8C JUMP JUMPDEST PUSH2 0xBBA SWAP1 DUP5 PUSH2 0xEAE JUMP JUMPDEST SWAP1 POP PUSH1 0x0 DUP2 PUSH1 0x3 SLOAD PUSH2 0xBCC SWAP2 SWAP1 PUSH2 0xE5C JUMP JUMPDEST SWAP1 POP DUP1 PUSH1 0x4 SLOAD PUSH1 0x3 SLOAD PUSH2 0xBDF SWAP2 SWAP1 PUSH2 0xE75 JUMP JUMPDEST PUSH2 0xBE9 SWAP2 SWAP1 PUSH2 0xE8C JUMP JUMPDEST PUSH1 0x4 SLOAD PUSH2 0x848 SWAP2 SWAP1 PUSH2 0xEAE JUMP JUMPDEST PUSH2 0xBFE PUSH2 0xD5F JUMP JUMPDEST PUSH1 0x2 SLOAD PUSH1 0x1 PUSH1 0x1 PUSH1 0xA0 SHL SUB AND CALLER EQ PUSH2 0xC28 JUMPI PUSH1 0x40 MLOAD PUSH3 0x461BCD PUSH1 0xE5 SHL DUP2 MSTORE PUSH1 0x4 ADD PUSH2 0x36D SWAP1 PUSH2 0xE0F JUMP JUMPDEST PUSH1 0x1 SLOAD PUSH1 0x1 PUSH1 0x1 PUSH1 0xA0 SHL SUB AND ISZERO PUSH2 0xC81 JUMPI PUSH1 0x40 MLOAD PUSH3 0x461BCD PUSH1 0xE5 SHL DUP2 MSTORE PUSH1 0x20 PUSH1 0x4 DUP3 ADD MSTORE PUSH1 0x18 PUSH1 0x24 DUP3 ADD MSTORE PUSH32 0x506F6F6C20616C726561647920696E697469616C697A65640000000000000000 PUSH1 0x44 DUP3 ADD MSTORE PUSH1 0x64 ADD PUSH2 0x36D JUMP JUMPDEST PUSH1 0x0 CALLVALUE GT PUSH2 0xCEF JUMPI PUSH1 0x40 MLOAD PUSH3 0x461BCD PUSH1 0xE5 SHL DUP2 MSTORE PUSH1 0x20 PUSH1 0x4 DUP3 ADD MSTORE PUSH1 0x35 PUSH1 0x24 DUP3 ADD MSTORE PUSH32 0x496E697469616C206E617469766520746F6B656E20616D6F756E74206D757374 PUSH1 0x44 DUP3 ADD MSTORE PUSH21 0x2062652067726561746572207468616E207A65726F PUSH1 0x58 SHL PUSH1 0x64 DUP3 ADD MSTORE PUSH1 0x84 ADD PUSH2 0x36D JUMP JUMPDEST PUSH1 0x1 DUP1 SLOAD PUSH1 0x1 PUSH1 0x1 PUSH1 0xA0 SHL SUB NOT AND PUSH1 0x1 PUSH1 0x1 PUSH1 0xA0 SHL SUB DUP5 AND OR SWAP1 SSTORE PUSH1 0x3 DUP2 SWAP1 SSTORE CALLVALUE PUSH1 0x4 DUP2 SWAP1 SSTORE PUSH1 0x40 DUP1 MLOAD DUP4 DUP2 MSTORE PUSH1 0x20 DUP2 ADD SWAP3 SWAP1 SWAP3 MSTORE CALLER SWAP2 PUSH32 0xAC1D76749E5447B7B16F5AB61447E1BD502F3BB4807AF3B28E620D1700A6EE45 SWAP2 ADD PUSH1 0x40 MLOAD DUP1 SWAP2 SUB SWAP1 LOG2 PUSH2 0xD5B PUSH1 0x1 PUSH1 0x0 SSTORE JUMP JUMPDEST POP POP JUMP JUMPDEST PUSH1 0x2 PUSH1 0x0 SLOAD SUB PUSH2 0xD82 JUMPI PUSH1 0x40 MLOAD PUSH4 0x3EE5AEB5 PUSH1 0xE0 SHL DUP2 MSTORE PUSH1 0x4 ADD PUSH1 0x40 MLOAD DUP1 SWAP2 SUB SWAP1 REVERT JUMPDEST PUSH1 0x2 PUSH1 0x0 SSTORE JUMP JUMPDEST PUSH1 0x0 PUSH1 0x20 DUP3 DUP5 SUB SLT ISZERO PUSH2 0xD9B JUMPI PUSH1 0x0 DUP1 REVERT JUMPDEST POP CALLDATALOAD SWAP2 SWAP1 POP JUMP JUMPDEST DUP1 ISZERO ISZERO DUP2 EQ PUSH2 0xDB0 JUMPI PUSH1 0x0 DUP1 REVERT JUMPDEST POP JUMP JUMPDEST PUSH1 0x0 PUSH1 0x20 DUP3 DUP5 SUB SLT ISZERO PUSH2 0xDC5 JUMPI PUSH1 0x0 DUP1 REVERT JUMPDEST DUP2 CALLDATALOAD PUSH2 0xDD0 DUP2 PUSH2 0xDA2 JUMP JUMPDEST SWAP4 SWAP3 POP POP POP JUMP JUMPDEST PUSH1 0x0 DUP1 PUSH1 0x40 DUP4 DUP6 SUB SLT ISZERO PUSH2 0xDEA JUMPI PUSH1 0x0 DUP1 REVERT JUMPDEST DUP3 CALLDATALOAD PUSH1 0x1 PUSH1 0x1 PUSH1 0xA0 SHL SUB DUP2 AND DUP2 EQ PUSH2 0xE01 JUMPI PUSH1 0x0 DUP1 REVERT JUMPDEST SWAP5 PUSH1 0x20 SWAP4 SWAP1 SWAP4 ADD CALLDATALOAD SWAP4 POP POP POP JUMP JUMPDEST PUSH1 0x20 DUP1 DUP3 MSTORE PUSH1 0x1E SWAP1 DUP3 ADD MSTORE PUSH32 0x43616C6C6572206973206E6F742074686520546F6B656E466163746F72790000 PUSH1 0x40 DUP3 ADD MSTORE PUSH1 0x60 ADD SWAP1 JUMP JUMPDEST PUSH4 0x4E487B71 PUSH1 0xE0 SHL PUSH1 0x0 MSTORE PUSH1 0x11 PUSH1 0x4 MSTORE PUSH1 0x24 PUSH1 0x0 REVERT JUMPDEST DUP1 DUP3 ADD DUP1 DUP3 GT ISZERO PUSH2 0xE6F JUMPI PUSH2 0xE6F PUSH2 0xE46 JUMP JUMPDEST SWAP3 SWAP2 POP POP JUMP JUMPDEST DUP1 DUP3 MUL DUP2 ISZERO DUP3 DUP3 DIV DUP5 EQ OR PUSH2 0xE6F JUMPI PUSH2 0xE6F PUSH2 0xE46 JUMP JUMPDEST PUSH1 0x0 DUP3 PUSH2 0xEA9 JUMPI PUSH4 0x4E487B71 PUSH1 0xE0 SHL PUSH1 0x0 MSTORE PUSH1 0x12 PUSH1 0x4 MSTORE PUSH1 0x24 PUSH1 0x0 REVERT JUMPDEST POP DIV SWAP1 JUMP JUMPDEST DUP2 DUP2 SUB DUP2 DUP2 GT ISZERO PUSH2 0xE6F JUMPI PUSH2 0xE6F PUSH2 0xE46 JUMP JUMPDEST PUSH1 0x0 PUSH1 0x20 DUP3 DUP5 SUB SLT ISZERO PUSH2 0xED3 JUMPI PUSH1 0x0 DUP1 REVERT JUMPDEST DUP2 MLOAD PUSH2 0xDD0 DUP2 PUSH2 0xDA2 JUMP JUMPDEST PUSH1 0x0 PUSH1 0x20 DUP3 DUP5 SUB SLT ISZERO PUSH2 0xEF0 JUMPI PUSH1 0x0 DUP1 REVERT JUMPDEST POP MLOAD SWAP2 SWAP1 POP JUMP INVALID LOG2 PUSH5 0x6970667358 0x22 SLT KECCAK256 0x4E PUSH23 0xA95C89DCE39850E6626DFB579857CCB6E6F17D9E7E37BA 0xE PUSH4 0x8B7AA0A2 DUP12 PUSH5 0x736F6C6343 STOP ADDMOD BYTE STOP CALLER "
				},
				"gasEstimates": {
					"creation": {
						"codeDepositCost": "777000",
						"executionCost": "infinite",
						"totalCost": "infinite"
					},
					"external": {
						"buyTax()": "2318",
						"buyToken()": "infinite",
						"calculatePenalty(uint256)": "infinite",
						"calculatePriceForEther(uint256)": "infinite",
						"calculatePriceForTokens(uint256)": "infinite",
						"devAddress()": "2349",
						"initialize(address,uint256)": "104118",
						"penaltiesEnabled()": "2377",
						"penaltyThreshold()": "2339",
						"reserve0()": "2362",
						"reserve1()": "2340",
						"sellTax()": "2361",
						"sellToken(uint256)": "infinite",
						"togglePenalties(bool)": "27824",
						"token0()": "2350",
						"tokenFactory()": "2436",
						"updateBuyTax(uint256)": "27790",
						"updateSellTax(uint256)": "27780"
					}
				},
				"methodIdentifiers": {
					"buyTax()": "4f7041a5",
					"buyToken()": "a4821719",
					"calculatePenalty(uint256)": "4ecce451",
					"calculatePriceForEther(uint256)": "aac8e6a4",
					"calculatePriceForTokens(uint256)": "465fa408",
					"devAddress()": "3ad10ef6",
					"initialize(address,uint256)": "cd6dc687",
					"penaltiesEnabled()": "88e22f7f",
					"penaltyThreshold()": "c91e5149",
					"reserve0()": "443cb4bc",
					"reserve1()": "5a76f25e",
					"sellTax()": "cc1776d3",
					"sellToken(uint256)": "2397e4d7",
					"togglePenalties(bool)": "23e18ddd",
					"token0()": "0dfe1681",
					"tokenFactory()": "e77772fe",
					"updateBuyTax(uint256)": "436d3340",
					"updateSellTax(uint256)": "12185a39"
				}
			},
			"storageLayout": {
				"storage": [
					{
						"astId": 88,
						"contract": "contracts/token factory/LiquidityPool.sol:LiquidityPool",
						"label": "_status",
						"offset": 0,
						"slot": "0",
						"type": "t_uint256"
					},
					{
						"astId": 154,
						"contract": "contracts/token factory/LiquidityPool.sol:LiquidityPool",
						"label": "token0",
						"offset": 0,
						"slot": "1",
						"type": "t_address"
					},
					{
						"astId": 156,
						"contract": "contracts/token factory/LiquidityPool.sol:LiquidityPool",
						"label": "tokenFactory",
						"offset": 0,
						"slot": "2",
						"type": "t_address"
					},
					{
						"astId": 158,
						"contract": "contracts/token factory/LiquidityPool.sol:LiquidityPool",
						"label": "reserve0",
						"offset": 0,
						"slot": "3",
						"type": "t_uint256"
					},
					{
						"astId": 160,
						"contract": "contracts/token factory/LiquidityPool.sol:LiquidityPool",
						"label": "reserve1",
						"offset": 0,
						"slot": "4",
						"type": "t_uint256"
					},
					{
						"astId": 163,
						"contract": "contracts/token factory/LiquidityPool.sol:LiquidityPool",
						"label": "buyTax",
						"offset": 0,
						"slot": "5",
						"type": "t_uint256"
					},
					{
						"astId": 166,
						"contract": "contracts/token factory/LiquidityPool.sol:LiquidityPool",
						"label": "sellTax",
						"offset": 0,
						"slot": "6",
						"type": "t_uint256"
					},
					{
						"astId": 168,
						"contract": "contracts/token factory/LiquidityPool.sol:LiquidityPool",
						"label": "devAddress",
						"offset": 0,
						"slot": "7",
						"type": "t_address"
					},
					{
						"astId": 171,
						"contract": "contracts/token factory/LiquidityPool.sol:LiquidityPool",
						"label": "penaltyThreshold",
						"offset": 0,
						"slot": "8",
						"type": "t_uint256"
					},
					{
						"astId": 174,
						"contract": "contracts/token factory/LiquidityPool.sol:LiquidityPool",
						"label": "penaltiesEnabled",
						"offset": 0,
						"slot": "9",
						"type": "t_bool"
					}
				],
				"types": {
					"t_address": {
						"encoding": "inplace",
						"label": "address",
						"numberOfBytes": "20"
					},
					"t_bool": {
						"encoding": "inplace",
						"label": "bool",
						"numberOfBytes": "1"
					},
					"t_uint256": {
						"encoding": "inplace",
						"label": "uint256",
						"numberOfBytes": "32"
					}
				}
			},
			"userdoc": {
				"kind": "user",
				"methods": {
					"buyToken()": {
						"notice": "Achat de tokens avec de l'Ether"
					},
					"calculatePenalty(uint256)": {
						"notice": "Calcule la pénalité pour une vente importante"
					},
					"calculatePriceForEther(uint256)": {
						"notice": "Calcule le prix de l'Ether pour un nombre donné de tokens"
					},
					"calculatePriceForTokens(uint256)": {
						"notice": "Calcule le prix des tokens pour un montant donné en Ether"
					},
					"initialize(address,uint256)": {
						"notice": "Initialise la pool avec des réserves et les taxes par défaut"
					},
					"sellToken(uint256)": {
						"notice": "Vente de tokens pour de l'Ether"
					},
					"togglePenalties(bool)": {
						"notice": "Active ou désactive les pénalités"
					},
					"updateBuyTax(uint256)": {
						"notice": "Mise à jour de la taxe d'achat"
					},
					"updateSellTax(uint256)": {
						"notice": "Mise à jour de la taxe de vente"
					}
				},
				"version": 1
			}
		}
	}
}