{
	"contracts/token factory/LiquidityPool.sol": {
		"LiquidityPool": {
			"abi": [
				{
					"anonymous": false,
					"inputs": [
						{
							"indexed": false,
							"internalType": "address",
							"name": "tokenAddress",
							"type": "address"
						},
						{
							"indexed": false,
							"internalType": "uint256",
							"name": "initialTaxRate",
							"type": "uint256"
						}
					],
					"name": "Initialized",
					"type": "event"
				},
				{
					"anonymous": false,
					"inputs": [
						{
							"indexed": true,
							"internalType": "address",
							"name": "provider",
							"type": "address"
						},
						{
							"indexed": false,
							"internalType": "uint256",
							"name": "tokenAmount",
							"type": "uint256"
						},
						{
							"indexed": false,
							"internalType": "uint256",
							"name": "etherAmount",
							"type": "uint256"
						}
					],
					"name": "LiquidityAdded",
					"type": "event"
				},
				{
					"anonymous": false,
					"inputs": [
						{
							"indexed": true,
							"internalType": "address",
							"name": "user",
							"type": "address"
						},
						{
							"indexed": false,
							"internalType": "uint256",
							"name": "inputAmount",
							"type": "uint256"
						},
						{
							"indexed": false,
							"internalType": "uint256",
							"name": "outputAmount",
							"type": "uint256"
						},
						{
							"indexed": false,
							"internalType": "string",
							"name": "direction",
							"type": "string"
						}
					],
					"name": "Swap",
					"type": "event"
				},
				{
					"anonymous": false,
					"inputs": [
						{
							"indexed": false,
							"internalType": "uint256",
							"name": "oldRate",
							"type": "uint256"
						},
						{
							"indexed": false,
							"internalType": "uint256",
							"name": "newRate",
							"type": "uint256"
						}
					],
					"name": "TaxRateUpdated",
					"type": "event"
				},
				{
					"inputs": [],
					"name": "factory",
					"outputs": [
						{
							"internalType": "address",
							"name": "",
							"type": "address"
						}
					],
					"stateMutability": "view",
					"type": "function"
				},
				{
					"inputs": [
						{
							"internalType": "address",
							"name": "_tokenAddress",
							"type": "address"
						},
						{
							"internalType": "address",
							"name": "_factory",
							"type": "address"
						},
						{
							"internalType": "uint256",
							"name": "initialSupply",
							"type": "uint256"
						},
						{
							"internalType": "uint256",
							"name": "initialTaxRate",
							"type": "uint256"
						}
					],
					"name": "initialize",
					"outputs": [],
					"stateMutability": "payable",
					"type": "function"
				},
				{
					"inputs": [],
					"name": "reserveEther",
					"outputs": [
						{
							"internalType": "uint256",
							"name": "",
							"type": "uint256"
						}
					],
					"stateMutability": "view",
					"type": "function"
				},
				{
					"inputs": [],
					"name": "reserveToken",
					"outputs": [
						{
							"internalType": "uint256",
							"name": "",
							"type": "uint256"
						}
					],
					"stateMutability": "view",
					"type": "function"
				},
				{
					"inputs": [
						{
							"internalType": "uint256",
							"name": "newTaxRate",
							"type": "uint256"
						}
					],
					"name": "setTaxRate",
					"outputs": [],
					"stateMutability": "nonpayable",
					"type": "function"
				},
				{
					"inputs": [],
					"name": "swapEtherForTokens",
					"outputs": [
						{
							"internalType": "uint256",
							"name": "tokenOut",
							"type": "uint256"
						}
					],
					"stateMutability": "payable",
					"type": "function"
				},
				{
					"inputs": [
						{
							"internalType": "uint256",
							"name": "tokenAmount",
							"type": "uint256"
						}
					],
					"name": "swapTokensForEther",
					"outputs": [
						{
							"internalType": "uint256",
							"name": "etherOut",
							"type": "uint256"
						}
					],
					"stateMutability": "nonpayable",
					"type": "function"
				},
				{
					"inputs": [],
					"name": "taxRate",
					"outputs": [
						{
							"internalType": "uint256",
							"name": "",
							"type": "uint256"
						}
					],
					"stateMutability": "view",
					"type": "function"
				},
				{
					"inputs": [],
					"name": "tokenAddress",
					"outputs": [
						{
							"internalType": "address",
							"name": "",
							"type": "address"
						}
					],
					"stateMutability": "view",
					"type": "function"
				}
			],
			"devdoc": {
				"kind": "dev",
				"methods": {},
				"version": 1
			},
			"evm": {
				"assembly": "    /* \"contracts/token factory/LiquidityPool.sol\":122:2566  contract LiquidityPool is ReentrancyGuard {... */\n  mstore(0x40, 0x80)\n  callvalue\n  dup1\n  iszero\n  tag_1\n  jumpi\n  0x00\n  dup1\n  revert\ntag_1:\n  pop\n    /* \"@openzeppelin/contracts/security/ReentrancyGuard.sol\":1716:1717  1 */\n  0x01\n    /* \"@openzeppelin/contracts/security/ReentrancyGuard.sol\":1821:1828  _status */\n  0x00\n    /* \"@openzeppelin/contracts/security/ReentrancyGuard.sol\":1821:1843  _status = _NOT_ENTERED */\n  sstore\n    /* \"contracts/token factory/LiquidityPool.sol\":122:2566  contract LiquidityPool is ReentrancyGuard {... */\n  dataSize(sub_0)\n  dup1\n  dataOffset(sub_0)\n  0x00\n  codecopy\n  0x00\n  return\nstop\n\nsub_0: assembly {\n        /* \"contracts/token factory/LiquidityPool.sol\":122:2566  contract LiquidityPool is ReentrancyGuard {... */\n      mstore(0x40, 0x80)\n      jumpi(tag_1, lt(calldatasize, 0x04))\n      shr(0xe0, calldataload(0x00))\n      dup1\n      0xc45a0155\n      gt\n      tag_11\n      jumpi\n      dup1\n      0xc45a0155\n      eq\n      tag_6\n      jumpi\n      dup1\n      0xc6d69a30\n      eq\n      tag_7\n      jumpi\n      dup1\n      0xeb990c59\n      eq\n      tag_8\n      jumpi\n      dup1\n      0xf4325d67\n      eq\n      tag_9\n      jumpi\n      dup1\n      0xfd04ae05\n      eq\n      tag_10\n      jumpi\n      0x00\n      dup1\n      revert\n    tag_11:\n      dup1\n      0x13684187\n      eq\n      tag_2\n      jumpi\n      dup1\n      0x668492d1\n      eq\n      tag_3\n      jumpi\n      dup1\n      0x771a3a1d\n      eq\n      tag_4\n      jumpi\n      dup1\n      0x9d76ea58\n      eq\n      tag_5\n      jumpi\n    tag_1:\n      0x00\n      dup1\n      revert\n        /* \"contracts/token factory/LiquidityPool.sol\":2089:2564  function swapEtherForTokens() external payable nonReentrant returns (uint256 tokenOut) {... */\n    tag_2:\n      tag_12\n      tag_13\n      jump\t// in\n    tag_12:\n      mload(0x40)\n        /* \"#utility.yul\":160:185   */\n      swap1\n      dup2\n      mstore\n        /* \"#utility.yul\":148:150   */\n      0x20\n        /* \"#utility.yul\":133:151   */\n      add\n        /* \"contracts/token factory/LiquidityPool.sol\":2089:2564  function swapEtherForTokens() external payable nonReentrant returns (uint256 tokenOut) {... */\n    tag_14:\n      mload(0x40)\n      dup1\n      swap2\n      sub\n      swap1\n      return\n        /* \"contracts/token factory/LiquidityPool.sol\":310:337  uint256 public reserveEther */\n    tag_3:\n      callvalue\n      dup1\n      iszero\n      tag_16\n      jumpi\n      0x00\n      dup1\n      revert\n    tag_16:\n      pop\n      tag_12\n      sload(0x05)\n      dup2\n      jump\n        /* \"contracts/token factory/LiquidityPool.sol\":231:253  uint256 public taxRate */\n    tag_4:\n      callvalue\n      dup1\n      iszero\n      tag_20\n      jumpi\n      0x00\n      dup1\n      revert\n    tag_20:\n      pop\n      tag_12\n      sload(0x03)\n      dup2\n      jump\n        /* \"contracts/token factory/LiquidityPool.sol\":170:197  address public tokenAddress */\n    tag_5:\n      callvalue\n      dup1\n      iszero\n      tag_24\n      jumpi\n      0x00\n      dup1\n      revert\n    tag_24:\n      pop\n      sload(0x01)\n      tag_25\n      swap1\n      sub(shl(0xa0, 0x01), 0x01)\n      and\n      dup2\n      jump\n    tag_25:\n      mload(0x40)\n      sub(shl(0xa0, 0x01), 0x01)\n        /* \"#utility.yul\":360:392   */\n      swap1\n      swap2\n      and\n        /* \"#utility.yul\":342:393   */\n      dup2\n      mstore\n        /* \"#utility.yul\":330:332   */\n      0x20\n        /* \"#utility.yul\":315:333   */\n      add\n        /* \"contracts/token factory/LiquidityPool.sol\":170:197  address public tokenAddress */\n      tag_14\n        /* \"#utility.yul\":196:399   */\n      jump\n        /* \"contracts/token factory/LiquidityPool.sol\":203:225  address public factory */\n    tag_6:\n      callvalue\n      dup1\n      iszero\n      tag_29\n      jumpi\n      0x00\n      dup1\n      revert\n    tag_29:\n      pop\n      sload(0x02)\n      tag_25\n      swap1\n      sub(shl(0xa0, 0x01), 0x01)\n      and\n      dup2\n      jump\n        /* \"contracts/token factory/LiquidityPool.sol\":1331:1581  function setTaxRate(uint256 newTaxRate) external onlyFactory {... */\n    tag_7:\n      callvalue\n      dup1\n      iszero\n      tag_33\n      jumpi\n      0x00\n      dup1\n      revert\n    tag_33:\n      pop\n      tag_34\n      tag_35\n      calldatasize\n      0x04\n      tag_36\n      jump\t// in\n    tag_35:\n      tag_37\n      jump\t// in\n    tag_34:\n      stop\n        /* \"contracts/token factory/LiquidityPool.sol\":793:1325  function initialize(... */\n    tag_8:\n      tag_34\n      tag_39\n      calldatasize\n      0x04\n      tag_40\n      jump\t// in\n    tag_39:\n      tag_41\n      jump\t// in\n        /* \"contracts/token factory/LiquidityPool.sol\":277:304  uint256 public reserveToken */\n    tag_9:\n      callvalue\n      dup1\n      iszero\n      tag_42\n      jumpi\n      0x00\n      dup1\n      revert\n    tag_42:\n      pop\n      tag_12\n      sload(0x04)\n      dup2\n      jump\n        /* \"contracts/token factory/LiquidityPool.sol\":1587:2083  function swapTokensForEther(uint256 tokenAmount) external nonReentrant returns (uint256 etherOut) {... */\n    tag_10:\n      callvalue\n      dup1\n      iszero\n      tag_46\n      jumpi\n      0x00\n      dup1\n      revert\n    tag_46:\n      pop\n      tag_12\n      tag_48\n      calldatasize\n      0x04\n      tag_36\n      jump\t// in\n    tag_48:\n      tag_49\n      jump\t// in\n        /* \"contracts/token factory/LiquidityPool.sol\":2089:2564  function swapEtherForTokens() external payable nonReentrant returns (uint256 tokenOut) {... */\n    tag_13:\n        /* \"contracts/token factory/LiquidityPool.sol\":2158:2174  uint256 tokenOut */\n      0x00\n        /* \"@openzeppelin/contracts/security/ReentrancyGuard.sol\":2261:2282  _nonReentrantBefore() */\n      tag_52\n        /* \"@openzeppelin/contracts/security/ReentrancyGuard.sol\":2261:2280  _nonReentrantBefore */\n      tag_53\n        /* \"@openzeppelin/contracts/security/ReentrancyGuard.sol\":2261:2282  _nonReentrantBefore() */\n      jump\t// in\n    tag_52:\n        /* \"contracts/token factory/LiquidityPool.sol\":2206:2207  0 */\n      0x00\n        /* \"contracts/token factory/LiquidityPool.sol\":2194:2203  msg.value */\n      callvalue\n        /* \"contracts/token factory/LiquidityPool.sol\":2194:2207  msg.value > 0 */\n      gt\n        /* \"contracts/token factory/LiquidityPool.sol\":2186:2250  require(msg.value > 0, \"Ether amount must be greater than zero\") */\n      tag_55\n      jumpi\n      mload(0x40)\n      shl(0xe5, 0x461bcd)\n      dup2\n      mstore\n        /* \"#utility.yul\":1515:1517   */\n      0x20\n        /* \"contracts/token factory/LiquidityPool.sol\":2186:2250  require(msg.value > 0, \"Ether amount must be greater than zero\") */\n      0x04\n      dup3\n      add\n        /* \"#utility.yul\":1497:1518   */\n      mstore\n        /* \"#utility.yul\":1554:1556   */\n      0x26\n        /* \"#utility.yul\":1534:1552   */\n      0x24\n      dup3\n      add\n        /* \"#utility.yul\":1527:1557   */\n      mstore\n        /* \"#utility.yul\":1593:1627   */\n      0x457468657220616d6f756e74206d757374206265206772656174657220746861\n        /* \"#utility.yul\":1573:1591   */\n      0x44\n      dup3\n      add\n        /* \"#utility.yul\":1566:1628   */\n      mstore\n      shl(0xd0, 0x6e207a65726f)\n        /* \"#utility.yul\":1644:1662   */\n      0x64\n      dup3\n      add\n        /* \"#utility.yul\":1637:1673   */\n      mstore\n        /* \"#utility.yul\":1690:1709   */\n      0x84\n      add\n        /* \"contracts/token factory/LiquidityPool.sol\":2186:2250  require(msg.value > 0, \"Ether amount must be greater than zero\") */\n    tag_56:\n      mload(0x40)\n      dup1\n      swap2\n      sub\n      swap1\n      revert\n    tag_55:\n        /* \"contracts/token factory/LiquidityPool.sol\":2260:2271  uint256 tax */\n      0x00\n        /* \"contracts/token factory/LiquidityPool.sol\":2298:2301  100 */\n      0x64\n        /* \"contracts/token factory/LiquidityPool.sol\":2287:2294  taxRate */\n      sload(0x03)\n        /* \"contracts/token factory/LiquidityPool.sol\":2275:2284  msg.value */\n      callvalue\n        /* \"contracts/token factory/LiquidityPool.sol\":2275:2294  msg.value * taxRate */\n      tag_58\n      swap2\n      swap1\n      tag_59\n      jump\t// in\n    tag_58:\n        /* \"contracts/token factory/LiquidityPool.sol\":2274:2301  (msg.value * taxRate) / 100 */\n      tag_60\n      swap2\n      swap1\n      tag_61\n      jump\t// in\n    tag_60:\n        /* \"contracts/token factory/LiquidityPool.sol\":2260:2301  uint256 tax = (msg.value * taxRate) / 100 */\n      swap1\n      pop\n        /* \"contracts/token factory/LiquidityPool.sol\":2311:2332  uint256 etherAfterTax */\n      0x00\n        /* \"contracts/token factory/LiquidityPool.sol\":2335:2350  msg.value - tax */\n      tag_62\n        /* \"contracts/token factory/LiquidityPool.sol\":2260:2301  uint256 tax = (msg.value * taxRate) / 100 */\n      dup3\n        /* \"contracts/token factory/LiquidityPool.sol\":2335:2344  msg.value */\n      callvalue\n        /* \"contracts/token factory/LiquidityPool.sol\":2335:2350  msg.value - tax */\n      tag_63\n      jump\t// in\n    tag_62:\n        /* \"contracts/token factory/LiquidityPool.sol\":2311:2350  uint256 etherAfterTax = msg.value - tax */\n      swap1\n      pop\n        /* \"contracts/token factory/LiquidityPool.sol\":2404:2416  reserveEther */\n      sload(0x05)\n        /* \"contracts/token factory/LiquidityPool.sol\":2388:2400  reserveToken */\n      sload(0x04)\n        /* \"contracts/token factory/LiquidityPool.sol\":2372:2385  etherAfterTax */\n      dup3\n        /* \"contracts/token factory/LiquidityPool.sol\":2372:2400  etherAfterTax * reserveToken */\n      tag_64\n      swap2\n      swap1\n      tag_59\n      jump\t// in\n    tag_64:\n        /* \"contracts/token factory/LiquidityPool.sol\":2371:2416  (etherAfterTax * reserveToken) / reserveEther */\n      tag_65\n      swap2\n      swap1\n      tag_61\n      jump\t// in\n    tag_65:\n        /* \"contracts/token factory/LiquidityPool.sol\":2360:2416  tokenOut = (etherAfterTax * reserveToken) / reserveEther */\n      swap3\n      pop\n        /* \"contracts/token factory/LiquidityPool.sol\":2443:2452  msg.value */\n      callvalue\n        /* \"contracts/token factory/LiquidityPool.sol\":2427:2439  reserveEther */\n      0x05\n      0x00\n        /* \"contracts/token factory/LiquidityPool.sol\":2427:2452  reserveEther += msg.value */\n      dup3\n      dup3\n      sload\n      tag_66\n      swap2\n      swap1\n      tag_67\n      jump\t// in\n    tag_66:\n      swap3\n      pop\n      pop\n      dup2\n      swap1\n      sstore\n      pop\n        /* \"contracts/token factory/LiquidityPool.sol\":2478:2486  tokenOut */\n      dup3\n        /* \"contracts/token factory/LiquidityPool.sol\":2462:2474  reserveToken */\n      0x04\n      0x00\n        /* \"contracts/token factory/LiquidityPool.sol\":2462:2486  reserveToken -= tokenOut */\n      dup3\n      dup3\n      sload\n      tag_68\n      swap2\n      swap1\n      tag_63\n      jump\t// in\n    tag_68:\n      swap1\n      swap2\n      sstore\n      pop\n      pop\n        /* \"contracts/token factory/LiquidityPool.sol\":2502:2557  Swap(msg.sender, msg.value, tokenOut, \"Ether to Token\") */\n      mload(0x40)\n        /* \"contracts/token factory/LiquidityPool.sol\":2507:2517  msg.sender */\n      caller\n      swap1\n        /* \"contracts/token factory/LiquidityPool.sol\":2502:2557  Swap(msg.sender, msg.value, tokenOut, \"Ether to Token\") */\n      0xc961ebd701a280a9816017f346bd0efbf4b1c2c7f0e207eb0a9234a123ae7a3e\n      swap1\n      tag_69\n      swap1\n        /* \"contracts/token factory/LiquidityPool.sol\":2519:2528  msg.value */\n      callvalue\n      swap1\n        /* \"contracts/token factory/LiquidityPool.sol\":2530:2538  tokenOut */\n      dup8\n      swap1\n        /* \"#utility.yul\":2750:2775   */\n      swap2\n      dup3\n      mstore\n        /* \"#utility.yul\":2806:2808   */\n      0x20\n        /* \"#utility.yul\":2791:2809   */\n      dup3\n      add\n        /* \"#utility.yul\":2784:2818   */\n      mstore\n        /* \"#utility.yul\":2854:2856   */\n      0x60\n        /* \"#utility.yul\":2849:2851   */\n      0x40\n        /* \"#utility.yul\":2834:2852   */\n      dup3\n      add\n        /* \"#utility.yul\":2827:2857   */\n      dup2\n      swap1\n      mstore\n        /* \"#utility.yul\":2893:2895   */\n      0x0e\n        /* \"#utility.yul\":2873:2891   */\n      swap1\n      dup3\n      add\n        /* \"#utility.yul\":2866:2896   */\n      mstore\n      shl(0x91, 0x22ba3432b9103a37902a37b5b2b7)\n        /* \"#utility.yul\":2927:2930   */\n      0x80\n        /* \"#utility.yul\":2912:2931   */\n      dup3\n      add\n        /* \"#utility.yul\":2905:2950   */\n      mstore\n        /* \"#utility.yul\":2982:2985   */\n      0xa0\n        /* \"#utility.yul\":2967:2986   */\n      add\n      swap1\n        /* \"#utility.yul\":2510:2992   */\n      jump\n        /* \"contracts/token factory/LiquidityPool.sol\":2502:2557  Swap(msg.sender, msg.value, tokenOut, \"Ether to Token\") */\n    tag_69:\n      mload(0x40)\n      dup1\n      swap2\n      sub\n      swap1\n      log2\n        /* \"contracts/token factory/LiquidityPool.sol\":2176:2564  {... */\n      pop\n      pop\n        /* \"@openzeppelin/contracts/security/ReentrancyGuard.sol\":2303:2323  _nonReentrantAfter() */\n      tag_71\n        /* \"@openzeppelin/contracts/security/ReentrancyGuard.sol\":1716:1717  1 */\n      0x01\n        /* \"@openzeppelin/contracts/security/ReentrancyGuard.sol\":2809:2816  _status */\n      0x00\n        /* \"@openzeppelin/contracts/security/ReentrancyGuard.sol\":2809:2831  _status = _NOT_ENTERED */\n      sstore\n        /* \"@openzeppelin/contracts/security/ReentrancyGuard.sol\":2629:2838  function _nonReentrantAfter() private {... */\n      jump\n        /* \"@openzeppelin/contracts/security/ReentrancyGuard.sol\":2303:2323  _nonReentrantAfter() */\n    tag_71:\n        /* \"contracts/token factory/LiquidityPool.sol\":2089:2564  function swapEtherForTokens() external payable nonReentrant returns (uint256 tokenOut) {... */\n      swap1\n      jump\t// out\n        /* \"contracts/token factory/LiquidityPool.sol\":1331:1581  function setTaxRate(uint256 newTaxRate) external onlyFactory {... */\n    tag_37:\n        /* \"contracts/token factory/LiquidityPool.sol\":722:729  factory */\n      and(sub(shl(0xa0, 0x01), 0x01), sload(0x02))\n        /* \"contracts/token factory/LiquidityPool.sol\":708:718  msg.sender */\n      caller\n        /* \"contracts/token factory/LiquidityPool.sol\":708:729  msg.sender == factory */\n      eq\n        /* \"contracts/token factory/LiquidityPool.sol\":700:769  require(msg.sender == factory, \"Only factory can call this function\") */\n      tag_74\n      jumpi\n      mload(0x40)\n      shl(0xe5, 0x461bcd)\n      dup2\n      mstore\n        /* \"#utility.yul\":3199:3201   */\n      0x20\n        /* \"contracts/token factory/LiquidityPool.sol\":700:769  require(msg.sender == factory, \"Only factory can call this function\") */\n      0x04\n      dup3\n      add\n        /* \"#utility.yul\":3181:3202   */\n      mstore\n        /* \"#utility.yul\":3238:3240   */\n      0x23\n        /* \"#utility.yul\":3218:3236   */\n      0x24\n      dup3\n      add\n        /* \"#utility.yul\":3211:3241   */\n      mstore\n        /* \"#utility.yul\":3277:3311   */\n      0x4f6e6c7920666163746f72792063616e2063616c6c20746869732066756e6374\n        /* \"#utility.yul\":3257:3275   */\n      0x44\n      dup3\n      add\n        /* \"#utility.yul\":3250:3312   */\n      mstore\n      shl(0xe9, 0x34b7b7)\n        /* \"#utility.yul\":3328:3346   */\n      0x64\n      dup3\n      add\n        /* \"#utility.yul\":3321:3354   */\n      mstore\n        /* \"#utility.yul\":3371:3390   */\n      0x84\n      add\n        /* \"contracts/token factory/LiquidityPool.sol\":700:769  require(msg.sender == factory, \"Only factory can call this function\") */\n      tag_56\n        /* \"#utility.yul\":2997:3396   */\n      jump\n        /* \"contracts/token factory/LiquidityPool.sol\":700:769  require(msg.sender == factory, \"Only factory can call this function\") */\n    tag_74:\n        /* \"contracts/token factory/LiquidityPool.sol\":1424:1427  100 */\n      0x64\n        /* \"contracts/token factory/LiquidityPool.sol\":1410:1420  newTaxRate */\n      dup2\n        /* \"contracts/token factory/LiquidityPool.sol\":1410:1427  newTaxRate <= 100 */\n      gt\n      iszero\n        /* \"contracts/token factory/LiquidityPool.sol\":1402:1459  require(newTaxRate <= 100, \"Tax rate cannot exceed 100%\") */\n      tag_78\n      jumpi\n      mload(0x40)\n      shl(0xe5, 0x461bcd)\n      dup2\n      mstore\n        /* \"#utility.yul\":3603:3605   */\n      0x20\n        /* \"contracts/token factory/LiquidityPool.sol\":1402:1459  require(newTaxRate <= 100, \"Tax rate cannot exceed 100%\") */\n      0x04\n      dup3\n      add\n        /* \"#utility.yul\":3585:3606   */\n      mstore\n        /* \"#utility.yul\":3642:3644   */\n      0x1b\n        /* \"#utility.yul\":3622:3640   */\n      0x24\n      dup3\n      add\n        /* \"#utility.yul\":3615:3645   */\n      mstore\n        /* \"#utility.yul\":3681:3710   */\n      0x54617820726174652063616e6e6f742065786365656420313030250000000000\n        /* \"#utility.yul\":3661:3679   */\n      0x44\n      dup3\n      add\n        /* \"#utility.yul\":3654:3711   */\n      mstore\n        /* \"#utility.yul\":3728:3746   */\n      0x64\n      add\n        /* \"contracts/token factory/LiquidityPool.sol\":1402:1459  require(newTaxRate <= 100, \"Tax rate cannot exceed 100%\") */\n      tag_56\n        /* \"#utility.yul\":3401:3752   */\n      jump\n        /* \"contracts/token factory/LiquidityPool.sol\":1402:1459  require(newTaxRate <= 100, \"Tax rate cannot exceed 100%\") */\n    tag_78:\n        /* \"contracts/token factory/LiquidityPool.sol\":1487:1494  taxRate */\n      0x03\n      dup1\n      sload\n        /* \"contracts/token factory/LiquidityPool.sol\":1504:1524  taxRate = newTaxRate */\n      swap1\n      dup3\n      swap1\n      sstore\n        /* \"contracts/token factory/LiquidityPool.sol\":1539:1574  TaxRateUpdated(oldRate, newTaxRate) */\n      0x40\n      dup1\n      mload\n        /* \"#utility.yul\":3931:3956   */\n      dup3\n      dup2\n      mstore\n        /* \"#utility.yul\":3987:3989   */\n      0x20\n        /* \"#utility.yul\":3972:3990   */\n      dup2\n      add\n        /* \"#utility.yul\":3965:3999   */\n      dup5\n      swap1\n      mstore\n        /* \"contracts/token factory/LiquidityPool.sol\":1539:1574  TaxRateUpdated(oldRate, newTaxRate) */\n      0xa8ee157eb2a9aa895d74df4d2d3bc0ad165ff3162f8ec46a4ecf602dd5c48fda\n      swap2\n        /* \"#utility.yul\":3904:3922   */\n      add\n        /* \"contracts/token factory/LiquidityPool.sol\":1539:1574  TaxRateUpdated(oldRate, newTaxRate) */\n      mload(0x40)\n      dup1\n      swap2\n      sub\n      swap1\n      log1\n        /* \"contracts/token factory/LiquidityPool.sol\":1392:1581  {... */\n      pop\n        /* \"contracts/token factory/LiquidityPool.sol\":1331:1581  function setTaxRate(uint256 newTaxRate) external onlyFactory {... */\n      pop\n      jump\t// out\n        /* \"contracts/token factory/LiquidityPool.sol\":793:1325  function initialize(... */\n    tag_41:\n        /* \"contracts/token factory/LiquidityPool.sol\":974:981  factory */\n      and(sub(shl(0xa0, 0x01), 0x01), sload(0x02))\n        /* \"contracts/token factory/LiquidityPool.sol\":974:995  factory == address(0) */\n      iszero\n        /* \"contracts/token factory/LiquidityPool.sol\":966:1019  require(factory == address(0), \"Already initialized\") */\n      tag_84\n      jumpi\n      mload(0x40)\n      shl(0xe5, 0x461bcd)\n      dup2\n      mstore\n        /* \"#utility.yul\":4212:4214   */\n      0x20\n        /* \"contracts/token factory/LiquidityPool.sol\":966:1019  require(factory == address(0), \"Already initialized\") */\n      0x04\n      dup3\n      add\n        /* \"#utility.yul\":4194:4215   */\n      mstore\n        /* \"#utility.yul\":4251:4253   */\n      0x13\n        /* \"#utility.yul\":4231:4249   */\n      0x24\n      dup3\n      add\n        /* \"#utility.yul\":4224:4254   */\n      mstore\n      shl(0x6a, 0x105b1c9958591e481a5b9a5d1a585b1a5e9959)\n        /* \"#utility.yul\":4270:4288   */\n      0x44\n      dup3\n      add\n        /* \"#utility.yul\":4263:4312   */\n      mstore\n        /* \"#utility.yul\":4329:4347   */\n      0x64\n      add\n        /* \"contracts/token factory/LiquidityPool.sol\":966:1019  require(factory == address(0), \"Already initialized\") */\n      tag_56\n        /* \"#utility.yul\":4010:4353   */\n      jump\n        /* \"contracts/token factory/LiquidityPool.sol\":966:1019  require(factory == address(0), \"Already initialized\") */\n    tag_84:\n        /* \"contracts/token factory/LiquidityPool.sol\":1049:1050  0 */\n      0x00\n        /* \"contracts/token factory/LiquidityPool.sol\":1037:1046  msg.value */\n      callvalue\n        /* \"contracts/token factory/LiquidityPool.sol\":1037:1050  msg.value > 0 */\n      gt\n        /* \"contracts/token factory/LiquidityPool.sol\":1029:1088  require(msg.value > 0, \"Ether required for initialization\") */\n      tag_87\n      jumpi\n      mload(0x40)\n      shl(0xe5, 0x461bcd)\n      dup2\n      mstore\n        /* \"#utility.yul\":4560:4562   */\n      0x20\n        /* \"contracts/token factory/LiquidityPool.sol\":1029:1088  require(msg.value > 0, \"Ether required for initialization\") */\n      0x04\n      dup3\n      add\n        /* \"#utility.yul\":4542:4563   */\n      mstore\n        /* \"#utility.yul\":4599:4601   */\n      0x21\n        /* \"#utility.yul\":4579:4597   */\n      0x24\n      dup3\n      add\n        /* \"#utility.yul\":4572:4602   */\n      mstore\n        /* \"#utility.yul\":4638:4672   */\n      0x457468657220726571756972656420666f7220696e697469616c697a6174696f\n        /* \"#utility.yul\":4618:4636   */\n      0x44\n      dup3\n      add\n        /* \"#utility.yul\":4611:4673   */\n      mstore\n      shl(0xf9, 0x37)\n        /* \"#utility.yul\":4689:4707   */\n      0x64\n      dup3\n      add\n        /* \"#utility.yul\":4682:4713   */\n      mstore\n        /* \"#utility.yul\":4730:4749   */\n      0x84\n      add\n        /* \"contracts/token factory/LiquidityPool.sol\":1029:1088  require(msg.value > 0, \"Ether required for initialization\") */\n      tag_56\n        /* \"#utility.yul\":4358:4755   */\n      jump\n        /* \"contracts/token factory/LiquidityPool.sol\":1029:1088  require(msg.value > 0, \"Ether required for initialization\") */\n    tag_87:\n        /* \"contracts/token factory/LiquidityPool.sol\":1099:1111  tokenAddress */\n      0x01\n        /* \"contracts/token factory/LiquidityPool.sol\":1099:1127  tokenAddress = _tokenAddress */\n      dup1\n      sload\n      sub(shl(0xa0, 0x01), 0x01)\n      dup7\n      dup2\n      and\n      not(sub(shl(0xa0, 0x01), 0x01))\n      swap3\n      dup4\n      and\n      dup2\n      or\n      swap1\n      swap4\n      sstore\n        /* \"contracts/token factory/LiquidityPool.sol\":1137:1144  factory */\n      0x02\n        /* \"contracts/token factory/LiquidityPool.sol\":1137:1155  factory = _factory */\n      dup1\n      sload\n      swap2\n      dup8\n      and\n      swap2\n      swap1\n      swap3\n      and\n      or\n      swap1\n      sstore\n        /* \"contracts/token factory/LiquidityPool.sol\":1165:1177  reserveToken */\n      0x04\n        /* \"contracts/token factory/LiquidityPool.sol\":1165:1193  reserveToken = initialSupply */\n      dup4\n      swap1\n      sstore\n        /* \"contracts/token factory/LiquidityPool.sol\":1218:1227  msg.value */\n      callvalue\n        /* \"contracts/token factory/LiquidityPool.sol\":1203:1215  reserveEther */\n      0x05\n        /* \"contracts/token factory/LiquidityPool.sol\":1203:1227  reserveEther = msg.value */\n      sstore\n        /* \"contracts/token factory/LiquidityPool.sol\":1237:1244  taxRate */\n      0x03\n        /* \"contracts/token factory/LiquidityPool.sol\":1237:1261  taxRate = initialTaxRate */\n      dup3\n      swap1\n      sstore\n        /* \"contracts/token factory/LiquidityPool.sol\":1277:1318  Initialized(tokenAddress, initialTaxRate) */\n      0x40\n      dup1\n      mload\n        /* \"#utility.yul\":4934:4985   */\n      swap2\n      dup3\n      mstore\n        /* \"#utility.yul\":5016:5018   */\n      0x20\n        /* \"#utility.yul\":5001:5019   */\n      dup3\n      add\n        /* \"#utility.yul\":4994:5028   */\n      dup4\n      swap1\n      mstore\n        /* \"contracts/token factory/LiquidityPool.sol\":1277:1318  Initialized(tokenAddress, initialTaxRate) */\n      0x25ff68dd81b34665b5ba7e553ee5511bf6812e12adb4a7e2c0d9e26b3099ce79\n      swap2\n        /* \"#utility.yul\":4907:4925   */\n      add\n        /* \"contracts/token factory/LiquidityPool.sol\":1277:1318  Initialized(tokenAddress, initialTaxRate) */\n      mload(0x40)\n      dup1\n      swap2\n      sub\n      swap1\n      log1\n        /* \"contracts/token factory/LiquidityPool.sol\":793:1325  function initialize(... */\n      pop\n      pop\n      pop\n      pop\n      jump\t// out\n        /* \"contracts/token factory/LiquidityPool.sol\":1587:2083  function swapTokensForEther(uint256 tokenAmount) external nonReentrant returns (uint256 etherOut) {... */\n    tag_49:\n        /* \"contracts/token factory/LiquidityPool.sol\":1667:1683  uint256 etherOut */\n      0x00\n        /* \"@openzeppelin/contracts/security/ReentrancyGuard.sol\":2261:2282  _nonReentrantBefore() */\n      tag_93\n        /* \"@openzeppelin/contracts/security/ReentrancyGuard.sol\":2261:2280  _nonReentrantBefore */\n      tag_53\n        /* \"@openzeppelin/contracts/security/ReentrancyGuard.sol\":2261:2282  _nonReentrantBefore() */\n      jump\t// in\n    tag_93:\n        /* \"contracts/token factory/LiquidityPool.sol\":1717:1718  0 */\n      0x00\n        /* \"contracts/token factory/LiquidityPool.sol\":1703:1714  tokenAmount */\n      dup3\n        /* \"contracts/token factory/LiquidityPool.sol\":1703:1718  tokenAmount > 0 */\n      gt\n        /* \"contracts/token factory/LiquidityPool.sol\":1695:1761  require(tokenAmount > 0, \"Token amount must be greater than zero\") */\n      tag_95\n      jumpi\n      mload(0x40)\n      shl(0xe5, 0x461bcd)\n      dup2\n      mstore\n        /* \"#utility.yul\":5241:5243   */\n      0x20\n        /* \"contracts/token factory/LiquidityPool.sol\":1695:1761  require(tokenAmount > 0, \"Token amount must be greater than zero\") */\n      0x04\n      dup3\n      add\n        /* \"#utility.yul\":5223:5244   */\n      mstore\n        /* \"#utility.yul\":5280:5282   */\n      0x26\n        /* \"#utility.yul\":5260:5278   */\n      0x24\n      dup3\n      add\n        /* \"#utility.yul\":5253:5283   */\n      mstore\n        /* \"#utility.yul\":5319:5353   */\n      0x546f6b656e20616d6f756e74206d757374206265206772656174657220746861\n        /* \"#utility.yul\":5299:5317   */\n      0x44\n      dup3\n      add\n        /* \"#utility.yul\":5292:5354   */\n      mstore\n      shl(0xd0, 0x6e207a65726f)\n        /* \"#utility.yul\":5370:5388   */\n      0x64\n      dup3\n      add\n        /* \"#utility.yul\":5363:5399   */\n      mstore\n        /* \"#utility.yul\":5416:5435   */\n      0x84\n      add\n        /* \"contracts/token factory/LiquidityPool.sol\":1695:1761  require(tokenAmount > 0, \"Token amount must be greater than zero\") */\n      tag_56\n        /* \"#utility.yul\":5039:5441   */\n      jump\n        /* \"contracts/token factory/LiquidityPool.sol\":1695:1761  require(tokenAmount > 0, \"Token amount must be greater than zero\") */\n    tag_95:\n        /* \"contracts/token factory/LiquidityPool.sol\":1771:1782  uint256 tax */\n      0x00\n        /* \"contracts/token factory/LiquidityPool.sol\":1811:1814  100 */\n      0x64\n        /* \"contracts/token factory/LiquidityPool.sol\":1800:1807  taxRate */\n      sload(0x03)\n        /* \"contracts/token factory/LiquidityPool.sol\":1786:1797  tokenAmount */\n      dup5\n        /* \"contracts/token factory/LiquidityPool.sol\":1786:1807  tokenAmount * taxRate */\n      tag_98\n      swap2\n      swap1\n      tag_59\n      jump\t// in\n    tag_98:\n        /* \"contracts/token factory/LiquidityPool.sol\":1785:1814  (tokenAmount * taxRate) / 100 */\n      tag_99\n      swap2\n      swap1\n      tag_61\n      jump\t// in\n    tag_99:\n        /* \"contracts/token factory/LiquidityPool.sol\":1771:1814  uint256 tax = (tokenAmount * taxRate) / 100 */\n      swap1\n      pop\n        /* \"contracts/token factory/LiquidityPool.sol\":1824:1845  uint256 tokenAfterTax */\n      0x00\n        /* \"contracts/token factory/LiquidityPool.sol\":1848:1865  tokenAmount - tax */\n      tag_100\n        /* \"contracts/token factory/LiquidityPool.sol\":1771:1814  uint256 tax = (tokenAmount * taxRate) / 100 */\n      dup3\n        /* \"contracts/token factory/LiquidityPool.sol\":1848:1859  tokenAmount */\n      dup6\n        /* \"contracts/token factory/LiquidityPool.sol\":1848:1865  tokenAmount - tax */\n      tag_63\n      jump\t// in\n    tag_100:\n        /* \"contracts/token factory/LiquidityPool.sol\":1824:1865  uint256 tokenAfterTax = tokenAmount - tax */\n      swap1\n      pop\n        /* \"contracts/token factory/LiquidityPool.sol\":1919:1931  reserveToken */\n      sload(0x04)\n        /* \"contracts/token factory/LiquidityPool.sol\":1903:1915  reserveEther */\n      sload(0x05)\n        /* \"contracts/token factory/LiquidityPool.sol\":1887:1900  tokenAfterTax */\n      dup3\n        /* \"contracts/token factory/LiquidityPool.sol\":1887:1915  tokenAfterTax * reserveEther */\n      tag_101\n      swap2\n      swap1\n      tag_59\n      jump\t// in\n    tag_101:\n        /* \"contracts/token factory/LiquidityPool.sol\":1886:1931  (tokenAfterTax * reserveEther) / reserveToken */\n      tag_102\n      swap2\n      swap1\n      tag_61\n      jump\t// in\n    tag_102:\n        /* \"contracts/token factory/LiquidityPool.sol\":1875:1931  etherOut = (tokenAfterTax * reserveEther) / reserveToken */\n      swap3\n      pop\n        /* \"contracts/token factory/LiquidityPool.sol\":1958:1969  tokenAmount */\n      dup4\n        /* \"contracts/token factory/LiquidityPool.sol\":1942:1954  reserveToken */\n      0x04\n      0x00\n        /* \"contracts/token factory/LiquidityPool.sol\":1942:1969  reserveToken += tokenAmount */\n      dup3\n      dup3\n      sload\n      tag_103\n      swap2\n      swap1\n      tag_67\n      jump\t// in\n    tag_103:\n      swap3\n      pop\n      pop\n      dup2\n      swap1\n      sstore\n      pop\n        /* \"contracts/token factory/LiquidityPool.sol\":1995:2003  etherOut */\n      dup3\n        /* \"contracts/token factory/LiquidityPool.sol\":1979:1991  reserveEther */\n      0x05\n      0x00\n        /* \"contracts/token factory/LiquidityPool.sol\":1979:2003  reserveEther -= etherOut */\n      dup3\n      dup3\n      sload\n      tag_104\n      swap2\n      swap1\n      tag_63\n      jump\t// in\n    tag_104:\n      swap1\n      swap2\n      sstore\n      pop\n      pop\n        /* \"contracts/token factory/LiquidityPool.sol\":2019:2076  Swap(msg.sender, tokenAmount, etherOut, \"Token to Ether\") */\n      mload(0x40)\n        /* \"contracts/token factory/LiquidityPool.sol\":2024:2034  msg.sender */\n      caller\n      swap1\n        /* \"contracts/token factory/LiquidityPool.sol\":2019:2076  Swap(msg.sender, tokenAmount, etherOut, \"Token to Ether\") */\n      0xc961ebd701a280a9816017f346bd0efbf4b1c2c7f0e207eb0a9234a123ae7a3e\n      swap1\n      tag_105\n      swap1\n        /* \"contracts/token factory/LiquidityPool.sol\":2036:2047  tokenAmount */\n      dup8\n      swap1\n        /* \"contracts/token factory/LiquidityPool.sol\":2049:2057  etherOut */\n      dup8\n      swap1\n        /* \"#utility.yul\":5686:5711   */\n      swap2\n      dup3\n      mstore\n        /* \"#utility.yul\":5742:5744   */\n      0x20\n        /* \"#utility.yul\":5727:5745   */\n      dup3\n      add\n        /* \"#utility.yul\":5720:5754   */\n      mstore\n        /* \"#utility.yul\":5790:5792   */\n      0x60\n        /* \"#utility.yul\":5785:5787   */\n      0x40\n        /* \"#utility.yul\":5770:5788   */\n      dup3\n      add\n        /* \"#utility.yul\":5763:5793   */\n      dup2\n      swap1\n      mstore\n        /* \"#utility.yul\":5829:5831   */\n      0x0e\n        /* \"#utility.yul\":5809:5827   */\n      swap1\n      dup3\n      add\n        /* \"#utility.yul\":5802:5832   */\n      mstore\n      shl(0x91, 0x2a37b5b2b7103a379022ba3432b9)\n        /* \"#utility.yul\":5863:5866   */\n      0x80\n        /* \"#utility.yul\":5848:5867   */\n      dup3\n      add\n        /* \"#utility.yul\":5841:5886   */\n      mstore\n        /* \"#utility.yul\":5918:5921   */\n      0xa0\n        /* \"#utility.yul\":5903:5922   */\n      add\n      swap1\n        /* \"#utility.yul\":5446:5928   */\n      jump\n        /* \"contracts/token factory/LiquidityPool.sol\":2019:2076  Swap(msg.sender, tokenAmount, etherOut, \"Token to Ether\") */\n    tag_105:\n      mload(0x40)\n      dup1\n      swap2\n      sub\n      swap1\n      log2\n        /* \"contracts/token factory/LiquidityPool.sol\":1685:2083  {... */\n      pop\n      pop\n        /* \"@openzeppelin/contracts/security/ReentrancyGuard.sol\":2303:2323  _nonReentrantAfter() */\n      tag_107\n        /* \"@openzeppelin/contracts/security/ReentrancyGuard.sol\":1716:1717  1 */\n      0x01\n        /* \"@openzeppelin/contracts/security/ReentrancyGuard.sol\":2809:2816  _status */\n      0x00\n        /* \"@openzeppelin/contracts/security/ReentrancyGuard.sol\":2809:2831  _status = _NOT_ENTERED */\n      sstore\n        /* \"@openzeppelin/contracts/security/ReentrancyGuard.sol\":2629:2838  function _nonReentrantAfter() private {... */\n      jump\n        /* \"@openzeppelin/contracts/security/ReentrancyGuard.sol\":2303:2323  _nonReentrantAfter() */\n    tag_107:\n        /* \"contracts/token factory/LiquidityPool.sol\":1587:2083  function swapTokensForEther(uint256 tokenAmount) external nonReentrant returns (uint256 etherOut) {... */\n      swap2\n      swap1\n      pop\n      jump\t// out\n        /* \"@openzeppelin/contracts/security/ReentrancyGuard.sol\":2336:2623  function _nonReentrantBefore() private {... */\n    tag_53:\n        /* \"@openzeppelin/contracts/security/ReentrancyGuard.sol\":1759:1760  2 */\n      0x02\n        /* \"@openzeppelin/contracts/security/ReentrancyGuard.sol\":2468:2475  _status */\n      sload(0x00)\n        /* \"@openzeppelin/contracts/security/ReentrancyGuard.sol\":2468:2487  _status != _ENTERED */\n      sub\n        /* \"@openzeppelin/contracts/security/ReentrancyGuard.sol\":2460:2523  require(_status != _ENTERED, \"ReentrancyGuard: reentrant call\") */\n      tag_109\n      jumpi\n      mload(0x40)\n      shl(0xe5, 0x461bcd)\n      dup2\n      mstore\n        /* \"#utility.yul\":6135:6137   */\n      0x20\n        /* \"@openzeppelin/contracts/security/ReentrancyGuard.sol\":2460:2523  require(_status != _ENTERED, \"ReentrancyGuard: reentrant call\") */\n      0x04\n      dup3\n      add\n        /* \"#utility.yul\":6117:6138   */\n      mstore\n        /* \"#utility.yul\":6174:6176   */\n      0x1f\n        /* \"#utility.yul\":6154:6172   */\n      0x24\n      dup3\n      add\n        /* \"#utility.yul\":6147:6177   */\n      mstore\n        /* \"#utility.yul\":6213:6246   */\n      0x5265656e7472616e637947756172643a207265656e7472616e742063616c6c00\n        /* \"#utility.yul\":6193:6211   */\n      0x44\n      dup3\n      add\n        /* \"#utility.yul\":6186:6247   */\n      mstore\n        /* \"#utility.yul\":6264:6282   */\n      0x64\n      add\n        /* \"@openzeppelin/contracts/security/ReentrancyGuard.sol\":2460:2523  require(_status != _ENTERED, \"ReentrancyGuard: reentrant call\") */\n      tag_56\n        /* \"#utility.yul\":5933:6288   */\n      jump\n        /* \"@openzeppelin/contracts/security/ReentrancyGuard.sol\":2460:2523  require(_status != _ENTERED, \"ReentrancyGuard: reentrant call\") */\n    tag_109:\n        /* \"@openzeppelin/contracts/security/ReentrancyGuard.sol\":1759:1760  2 */\n      0x02\n        /* \"@openzeppelin/contracts/security/ReentrancyGuard.sol\":2598:2605  _status */\n      0x00\n        /* \"@openzeppelin/contracts/security/ReentrancyGuard.sol\":2598:2616  _status = _ENTERED */\n      sstore\n        /* \"@openzeppelin/contracts/security/ReentrancyGuard.sol\":2336:2623  function _nonReentrantBefore() private {... */\n      jump\t// out\n        /* \"#utility.yul\":404:630   */\n    tag_36:\n        /* \"#utility.yul\":463:469   */\n      0x00\n        /* \"#utility.yul\":516:518   */\n      0x20\n        /* \"#utility.yul\":504:513   */\n      dup3\n        /* \"#utility.yul\":495:502   */\n      dup5\n        /* \"#utility.yul\":491:514   */\n      sub\n        /* \"#utility.yul\":487:519   */\n      slt\n        /* \"#utility.yul\":484:536   */\n      iszero\n      tag_119\n      jumpi\n        /* \"#utility.yul\":532:533   */\n      0x00\n        /* \"#utility.yul\":529:530   */\n      dup1\n        /* \"#utility.yul\":522:534   */\n      revert\n        /* \"#utility.yul\":484:536   */\n    tag_119:\n      pop\n        /* \"#utility.yul\":577:600   */\n      calldataload\n      swap2\n        /* \"#utility.yul\":404:630   */\n      swap1\n      pop\n      jump\t// out\n        /* \"#utility.yul\":635:808   */\n    tag_113:\n        /* \"#utility.yul\":703:723   */\n      dup1\n      calldataload\n      sub(shl(0xa0, 0x01), 0x01)\n        /* \"#utility.yul\":752:783   */\n      dup2\n      and\n        /* \"#utility.yul\":742:784   */\n      dup2\n      eq\n        /* \"#utility.yul\":732:802   */\n      tag_107\n      jumpi\n        /* \"#utility.yul\":798:799   */\n      0x00\n        /* \"#utility.yul\":795:796   */\n      dup1\n        /* \"#utility.yul\":788:800   */\n      revert\n        /* \"#utility.yul\":813:1308   */\n    tag_40:\n        /* \"#utility.yul\":899:905   */\n      0x00\n        /* \"#utility.yul\":907:913   */\n      dup1\n        /* \"#utility.yul\":915:921   */\n      0x00\n        /* \"#utility.yul\":923:929   */\n      dup1\n        /* \"#utility.yul\":976:979   */\n      0x80\n        /* \"#utility.yul\":964:973   */\n      dup6\n        /* \"#utility.yul\":955:962   */\n      dup8\n        /* \"#utility.yul\":951:974   */\n      sub\n        /* \"#utility.yul\":947:980   */\n      slt\n        /* \"#utility.yul\":944:997   */\n      iszero\n      tag_123\n      jumpi\n        /* \"#utility.yul\":993:994   */\n      0x00\n        /* \"#utility.yul\":990:991   */\n      dup1\n        /* \"#utility.yul\":983:995   */\n      revert\n        /* \"#utility.yul\":944:997   */\n    tag_123:\n        /* \"#utility.yul\":1016:1045   */\n      tag_124\n        /* \"#utility.yul\":1035:1044   */\n      dup6\n        /* \"#utility.yul\":1016:1045   */\n      tag_113\n      jump\t// in\n    tag_124:\n        /* \"#utility.yul\":1006:1045   */\n      swap4\n      pop\n        /* \"#utility.yul\":1064:1102   */\n      tag_125\n        /* \"#utility.yul\":1098:1100   */\n      0x20\n        /* \"#utility.yul\":1087:1096   */\n      dup7\n        /* \"#utility.yul\":1083:1101   */\n      add\n        /* \"#utility.yul\":1064:1102   */\n      tag_113\n      jump\t// in\n    tag_125:\n        /* \"#utility.yul\":813:1308   */\n      swap4\n      swap7\n        /* \"#utility.yul\":1054:1102   */\n      swap4\n      swap6\n      pop\n      pop\n      pop\n      pop\n        /* \"#utility.yul\":1171:1173   */\n      0x40\n        /* \"#utility.yul\":1156:1174   */\n      dup3\n      add\n        /* \"#utility.yul\":1143:1175   */\n      calldataload\n      swap2\n        /* \"#utility.yul\":1272:1274   */\n      0x60\n        /* \"#utility.yul\":1257:1275   */\n      add\n        /* \"#utility.yul\":1244:1276   */\n      calldataload\n      swap1\n        /* \"#utility.yul\":813:1308   */\n      jump\t// out\n        /* \"#utility.yul\":1720:1847   */\n    tag_114:\n        /* \"#utility.yul\":1781:1791   */\n      0x4e487b71\n        /* \"#utility.yul\":1776:1779   */\n      0xe0\n        /* \"#utility.yul\":1772:1792   */\n      shl\n        /* \"#utility.yul\":1769:1770   */\n      0x00\n        /* \"#utility.yul\":1762:1793   */\n      mstore\n        /* \"#utility.yul\":1812:1816   */\n      0x11\n        /* \"#utility.yul\":1809:1810   */\n      0x04\n        /* \"#utility.yul\":1802:1817   */\n      mstore\n        /* \"#utility.yul\":1836:1840   */\n      0x24\n        /* \"#utility.yul\":1833:1834   */\n      0x00\n        /* \"#utility.yul\":1826:1841   */\n      revert\n        /* \"#utility.yul\":1852:2020   */\n    tag_59:\n        /* \"#utility.yul\":1925:1934   */\n      dup1\n      dup3\n      mul\n        /* \"#utility.yul\":1956:1965   */\n      dup2\n      iszero\n        /* \"#utility.yul\":1973:1988   */\n      dup3\n      dup3\n      div\n        /* \"#utility.yul\":1967:1989   */\n      dup5\n      eq\n        /* \"#utility.yul\":1953:1990   */\n      or\n        /* \"#utility.yul\":1943:2014   */\n      tag_130\n      jumpi\n        /* \"#utility.yul\":1994:2012   */\n      tag_130\n      tag_114\n      jump\t// in\n    tag_130:\n        /* \"#utility.yul\":1852:2020   */\n      swap3\n      swap2\n      pop\n      pop\n      jump\t// out\n        /* \"#utility.yul\":2025:2242   */\n    tag_61:\n        /* \"#utility.yul\":2065:2066   */\n      0x00\n        /* \"#utility.yul\":2091:2092   */\n      dup3\n        /* \"#utility.yul\":2081:2213   */\n      tag_132\n      jumpi\n        /* \"#utility.yul\":2135:2145   */\n      0x4e487b71\n        /* \"#utility.yul\":2130:2133   */\n      0xe0\n        /* \"#utility.yul\":2126:2146   */\n      shl\n        /* \"#utility.yul\":2123:2124   */\n      0x00\n        /* \"#utility.yul\":2116:2147   */\n      mstore\n        /* \"#utility.yul\":2170:2174   */\n      0x12\n        /* \"#utility.yul\":2167:2168   */\n      0x04\n        /* \"#utility.yul\":2160:2175   */\n      mstore\n        /* \"#utility.yul\":2198:2202   */\n      0x24\n        /* \"#utility.yul\":2195:2196   */\n      0x00\n        /* \"#utility.yul\":2188:2203   */\n      revert\n        /* \"#utility.yul\":2081:2213   */\n    tag_132:\n      pop\n        /* \"#utility.yul\":2227:2236   */\n      div\n      swap1\n        /* \"#utility.yul\":2025:2242   */\n      jump\t// out\n        /* \"#utility.yul\":2247:2375   */\n    tag_63:\n        /* \"#utility.yul\":2314:2323   */\n      dup2\n      dup2\n      sub\n        /* \"#utility.yul\":2335:2346   */\n      dup2\n      dup2\n      gt\n        /* \"#utility.yul\":2332:2369   */\n      iszero\n      tag_130\n      jumpi\n        /* \"#utility.yul\":2349:2367   */\n      tag_130\n      tag_114\n      jump\t// in\n        /* \"#utility.yul\":2380:2505   */\n    tag_67:\n        /* \"#utility.yul\":2445:2454   */\n      dup1\n      dup3\n      add\n        /* \"#utility.yul\":2466:2476   */\n      dup1\n      dup3\n      gt\n        /* \"#utility.yul\":2463:2499   */\n      iszero\n      tag_130\n      jumpi\n        /* \"#utility.yul\":2479:2497   */\n      tag_130\n      tag_114\n      jump\t// in\n\n    auxdata: 0xa2646970667358221220bba8cd46a5d57f6f11ad8c6a08fed3679f224e836bb138480b4d0e42238bba8d64736f6c634300081a0033\n}\n",
				"bytecode": {
					"linkReferences": {},
					"object": "6080604052348015600f57600080fd5b5060016000556107f0806100246000396000f3fe6080604052600436106100865760003560e01c8063c45a015511610059578063c45a01551461010a578063c6d69a301461012a578063eb990c591461014c578063f4325d671461015f578063fd04ae051461017557600080fd5b8063136841871461008b578063668492d1146100a6578063771a3a1d146100bc5780639d76ea58146100d2575b600080fd5b610093610195565b6040519081526020015b60405180910390f35b3480156100b257600080fd5b5061009360055481565b3480156100c857600080fd5b5061009360035481565b3480156100de57600080fd5b506001546100f2906001600160a01b031681565b6040516001600160a01b03909116815260200161009d565b34801561011657600080fd5b506002546100f2906001600160a01b031681565b34801561013657600080fd5b5061014a6101453660046106cd565b6102f6565b005b61014a61015a3660046106fd565b6103f2565b34801561016b57600080fd5b5061009360045481565b34801561018157600080fd5b506100936101903660046106cd565b610516565b600061019f610674565b600034116102035760405162461bcd60e51b815260206004820152602660248201527f457468657220616d6f756e74206d7573742062652067726561746572207468616044820152656e207a65726f60d01b60648201526084015b60405180910390fd5b60006064600354346102159190610755565b61021f9190610772565b9050600061022d8234610794565b9050600554600454826102409190610755565b61024a9190610772565b9250346005600082825461025e91906107a7565b9250508190555082600460008282546102779190610794565b909155505060405133907fc961ebd701a280a9816017f346bd0efbf4b1c2c7f0e207eb0a9234a123ae7a3e906102df90349087909182526020820152606060408201819052600e908201526d22ba3432b9103a37902a37b5b2b760911b608082015260a00190565b60405180910390a250506102f36001600055565b90565b6002546001600160a01b0316331461035c5760405162461bcd60e51b815260206004820152602360248201527f4f6e6c7920666163746f72792063616e2063616c6c20746869732066756e637460448201526234b7b760e91b60648201526084016101fa565b60648111156103ad5760405162461bcd60e51b815260206004820152601b60248201527f54617820726174652063616e6e6f74206578636565642031303025000000000060448201526064016101fa565b600380549082905560408051828152602081018490527fa8ee157eb2a9aa895d74df4d2d3bc0ad165ff3162f8ec46a4ecf602dd5c48fda910160405180910390a15050565b6002546001600160a01b0316156104415760405162461bcd60e51b8152602060048201526013602482015272105b1c9958591e481a5b9a5d1a585b1a5e9959606a1b60448201526064016101fa565b6000341161049b5760405162461bcd60e51b815260206004820152602160248201527f457468657220726571756972656420666f7220696e697469616c697a6174696f6044820152603760f91b60648201526084016101fa565b600180546001600160a01b038681166001600160a01b031992831681179093556002805491871691909216179055600483905534600555600382905560408051918252602082018390527f25ff68dd81b34665b5ba7e553ee5511bf6812e12adb4a7e2c0d9e26b3099ce79910160405180910390a150505050565b6000610520610674565b6000821161057f5760405162461bcd60e51b815260206004820152602660248201527f546f6b656e20616d6f756e74206d7573742062652067726561746572207468616044820152656e207a65726f60d01b60648201526084016101fa565b60006064600354846105919190610755565b61059b9190610772565b905060006105a98285610794565b9050600454600554826105bc9190610755565b6105c69190610772565b925083600460008282546105da91906107a7565b9250508190555082600560008282546105f39190610794565b909155505060405133907fc961ebd701a280a9816017f346bd0efbf4b1c2c7f0e207eb0a9234a123ae7a3e9061065b90879087909182526020820152606060408201819052600e908201526d2a37b5b2b7103a379022ba3432b960911b608082015260a00190565b60405180910390a2505061066f6001600055565b919050565b6002600054036106c65760405162461bcd60e51b815260206004820152601f60248201527f5265656e7472616e637947756172643a207265656e7472616e742063616c6c0060448201526064016101fa565b6002600055565b6000602082840312156106df57600080fd5b5035919050565b80356001600160a01b038116811461066f57600080fd5b6000806000806080858703121561071357600080fd5b61071c856106e6565b935061072a602086016106e6565b93969395505050506040820135916060013590565b634e487b7160e01b600052601160045260246000fd5b808202811582820484141761076c5761076c61073f565b92915050565b60008261078f57634e487b7160e01b600052601260045260246000fd5b500490565b8181038181111561076c5761076c61073f565b8082018082111561076c5761076c61073f56fea2646970667358221220bba8cd46a5d57f6f11ad8c6a08fed3679f224e836bb138480b4d0e42238bba8d64736f6c634300081a0033",
					"opcodes": "PUSH1 0x80 PUSH1 0x40 MSTORE CALLVALUE DUP1 ISZERO PUSH1 0xF JUMPI PUSH1 0x0 DUP1 REVERT JUMPDEST POP PUSH1 0x1 PUSH1 0x0 SSTORE PUSH2 0x7F0 DUP1 PUSH2 0x24 PUSH1 0x0 CODECOPY PUSH1 0x0 RETURN INVALID PUSH1 0x80 PUSH1 0x40 MSTORE PUSH1 0x4 CALLDATASIZE LT PUSH2 0x86 JUMPI PUSH1 0x0 CALLDATALOAD PUSH1 0xE0 SHR DUP1 PUSH4 0xC45A0155 GT PUSH2 0x59 JUMPI DUP1 PUSH4 0xC45A0155 EQ PUSH2 0x10A JUMPI DUP1 PUSH4 0xC6D69A30 EQ PUSH2 0x12A JUMPI DUP1 PUSH4 0xEB990C59 EQ PUSH2 0x14C JUMPI DUP1 PUSH4 0xF4325D67 EQ PUSH2 0x15F JUMPI DUP1 PUSH4 0xFD04AE05 EQ PUSH2 0x175 JUMPI PUSH1 0x0 DUP1 REVERT JUMPDEST DUP1 PUSH4 0x13684187 EQ PUSH2 0x8B JUMPI DUP1 PUSH4 0x668492D1 EQ PUSH2 0xA6 JUMPI DUP1 PUSH4 0x771A3A1D EQ PUSH2 0xBC JUMPI DUP1 PUSH4 0x9D76EA58 EQ PUSH2 0xD2 JUMPI JUMPDEST PUSH1 0x0 DUP1 REVERT JUMPDEST PUSH2 0x93 PUSH2 0x195 JUMP JUMPDEST PUSH1 0x40 MLOAD SWAP1 DUP2 MSTORE PUSH1 0x20 ADD JUMPDEST PUSH1 0x40 MLOAD DUP1 SWAP2 SUB SWAP1 RETURN JUMPDEST CALLVALUE DUP1 ISZERO PUSH2 0xB2 JUMPI PUSH1 0x0 DUP1 REVERT JUMPDEST POP PUSH2 0x93 PUSH1 0x5 SLOAD DUP2 JUMP JUMPDEST CALLVALUE DUP1 ISZERO PUSH2 0xC8 JUMPI PUSH1 0x0 DUP1 REVERT JUMPDEST POP PUSH2 0x93 PUSH1 0x3 SLOAD DUP2 JUMP JUMPDEST CALLVALUE DUP1 ISZERO PUSH2 0xDE JUMPI PUSH1 0x0 DUP1 REVERT JUMPDEST POP PUSH1 0x1 SLOAD PUSH2 0xF2 SWAP1 PUSH1 0x1 PUSH1 0x1 PUSH1 0xA0 SHL SUB AND DUP2 JUMP JUMPDEST PUSH1 0x40 MLOAD PUSH1 0x1 PUSH1 0x1 PUSH1 0xA0 SHL SUB SWAP1 SWAP2 AND DUP2 MSTORE PUSH1 0x20 ADD PUSH2 0x9D JUMP JUMPDEST CALLVALUE DUP1 ISZERO PUSH2 0x116 JUMPI PUSH1 0x0 DUP1 REVERT JUMPDEST POP PUSH1 0x2 SLOAD PUSH2 0xF2 SWAP1 PUSH1 0x1 PUSH1 0x1 PUSH1 0xA0 SHL SUB AND DUP2 JUMP JUMPDEST CALLVALUE DUP1 ISZERO PUSH2 0x136 JUMPI PUSH1 0x0 DUP1 REVERT JUMPDEST POP PUSH2 0x14A PUSH2 0x145 CALLDATASIZE PUSH1 0x4 PUSH2 0x6CD JUMP JUMPDEST PUSH2 0x2F6 JUMP JUMPDEST STOP JUMPDEST PUSH2 0x14A PUSH2 0x15A CALLDATASIZE PUSH1 0x4 PUSH2 0x6FD JUMP JUMPDEST PUSH2 0x3F2 JUMP JUMPDEST CALLVALUE DUP1 ISZERO PUSH2 0x16B JUMPI PUSH1 0x0 DUP1 REVERT JUMPDEST POP PUSH2 0x93 PUSH1 0x4 SLOAD DUP2 JUMP JUMPDEST CALLVALUE DUP1 ISZERO PUSH2 0x181 JUMPI PUSH1 0x0 DUP1 REVERT JUMPDEST POP PUSH2 0x93 PUSH2 0x190 CALLDATASIZE PUSH1 0x4 PUSH2 0x6CD JUMP JUMPDEST PUSH2 0x516 JUMP JUMPDEST PUSH1 0x0 PUSH2 0x19F PUSH2 0x674 JUMP JUMPDEST PUSH1 0x0 CALLVALUE GT PUSH2 0x203 JUMPI PUSH1 0x40 MLOAD PUSH3 0x461BCD PUSH1 0xE5 SHL DUP2 MSTORE PUSH1 0x20 PUSH1 0x4 DUP3 ADD MSTORE PUSH1 0x26 PUSH1 0x24 DUP3 ADD MSTORE PUSH32 0x457468657220616D6F756E74206D757374206265206772656174657220746861 PUSH1 0x44 DUP3 ADD MSTORE PUSH6 0x6E207A65726F PUSH1 0xD0 SHL PUSH1 0x64 DUP3 ADD MSTORE PUSH1 0x84 ADD JUMPDEST PUSH1 0x40 MLOAD DUP1 SWAP2 SUB SWAP1 REVERT JUMPDEST PUSH1 0x0 PUSH1 0x64 PUSH1 0x3 SLOAD CALLVALUE PUSH2 0x215 SWAP2 SWAP1 PUSH2 0x755 JUMP JUMPDEST PUSH2 0x21F SWAP2 SWAP1 PUSH2 0x772 JUMP JUMPDEST SWAP1 POP PUSH1 0x0 PUSH2 0x22D DUP3 CALLVALUE PUSH2 0x794 JUMP JUMPDEST SWAP1 POP PUSH1 0x5 SLOAD PUSH1 0x4 SLOAD DUP3 PUSH2 0x240 SWAP2 SWAP1 PUSH2 0x755 JUMP JUMPDEST PUSH2 0x24A SWAP2 SWAP1 PUSH2 0x772 JUMP JUMPDEST SWAP3 POP CALLVALUE PUSH1 0x5 PUSH1 0x0 DUP3 DUP3 SLOAD PUSH2 0x25E SWAP2 SWAP1 PUSH2 0x7A7 JUMP JUMPDEST SWAP3 POP POP DUP2 SWAP1 SSTORE POP DUP3 PUSH1 0x4 PUSH1 0x0 DUP3 DUP3 SLOAD PUSH2 0x277 SWAP2 SWAP1 PUSH2 0x794 JUMP JUMPDEST SWAP1 SWAP2 SSTORE POP POP PUSH1 0x40 MLOAD CALLER SWAP1 PUSH32 0xC961EBD701A280A9816017F346BD0EFBF4B1C2C7F0E207EB0A9234A123AE7A3E SWAP1 PUSH2 0x2DF SWAP1 CALLVALUE SWAP1 DUP8 SWAP1 SWAP2 DUP3 MSTORE PUSH1 0x20 DUP3 ADD MSTORE PUSH1 0x60 PUSH1 0x40 DUP3 ADD DUP2 SWAP1 MSTORE PUSH1 0xE SWAP1 DUP3 ADD MSTORE PUSH14 0x22BA3432B9103A37902A37B5B2B7 PUSH1 0x91 SHL PUSH1 0x80 DUP3 ADD MSTORE PUSH1 0xA0 ADD SWAP1 JUMP JUMPDEST PUSH1 0x40 MLOAD DUP1 SWAP2 SUB SWAP1 LOG2 POP POP PUSH2 0x2F3 PUSH1 0x1 PUSH1 0x0 SSTORE JUMP JUMPDEST SWAP1 JUMP JUMPDEST PUSH1 0x2 SLOAD PUSH1 0x1 PUSH1 0x1 PUSH1 0xA0 SHL SUB AND CALLER EQ PUSH2 0x35C JUMPI PUSH1 0x40 MLOAD PUSH3 0x461BCD PUSH1 0xE5 SHL DUP2 MSTORE PUSH1 0x20 PUSH1 0x4 DUP3 ADD MSTORE PUSH1 0x23 PUSH1 0x24 DUP3 ADD MSTORE PUSH32 0x4F6E6C7920666163746F72792063616E2063616C6C20746869732066756E6374 PUSH1 0x44 DUP3 ADD MSTORE PUSH3 0x34B7B7 PUSH1 0xE9 SHL PUSH1 0x64 DUP3 ADD MSTORE PUSH1 0x84 ADD PUSH2 0x1FA JUMP JUMPDEST PUSH1 0x64 DUP2 GT ISZERO PUSH2 0x3AD JUMPI PUSH1 0x40 MLOAD PUSH3 0x461BCD PUSH1 0xE5 SHL DUP2 MSTORE PUSH1 0x20 PUSH1 0x4 DUP3 ADD MSTORE PUSH1 0x1B PUSH1 0x24 DUP3 ADD MSTORE PUSH32 0x54617820726174652063616E6E6F742065786365656420313030250000000000 PUSH1 0x44 DUP3 ADD MSTORE PUSH1 0x64 ADD PUSH2 0x1FA JUMP JUMPDEST PUSH1 0x3 DUP1 SLOAD SWAP1 DUP3 SWAP1 SSTORE PUSH1 0x40 DUP1 MLOAD DUP3 DUP2 MSTORE PUSH1 0x20 DUP2 ADD DUP5 SWAP1 MSTORE PUSH32 0xA8EE157EB2A9AA895D74DF4D2D3BC0AD165FF3162F8EC46A4ECF602DD5C48FDA SWAP2 ADD PUSH1 0x40 MLOAD DUP1 SWAP2 SUB SWAP1 LOG1 POP POP JUMP JUMPDEST PUSH1 0x2 SLOAD PUSH1 0x1 PUSH1 0x1 PUSH1 0xA0 SHL SUB AND ISZERO PUSH2 0x441 JUMPI PUSH1 0x40 MLOAD PUSH3 0x461BCD PUSH1 0xE5 SHL DUP2 MSTORE PUSH1 0x20 PUSH1 0x4 DUP3 ADD MSTORE PUSH1 0x13 PUSH1 0x24 DUP3 ADD MSTORE PUSH19 0x105B1C9958591E481A5B9A5D1A585B1A5E9959 PUSH1 0x6A SHL PUSH1 0x44 DUP3 ADD MSTORE PUSH1 0x64 ADD PUSH2 0x1FA JUMP JUMPDEST PUSH1 0x0 CALLVALUE GT PUSH2 0x49B JUMPI PUSH1 0x40 MLOAD PUSH3 0x461BCD PUSH1 0xE5 SHL DUP2 MSTORE PUSH1 0x20 PUSH1 0x4 DUP3 ADD MSTORE PUSH1 0x21 PUSH1 0x24 DUP3 ADD MSTORE PUSH32 0x457468657220726571756972656420666F7220696E697469616C697A6174696F PUSH1 0x44 DUP3 ADD MSTORE PUSH1 0x37 PUSH1 0xF9 SHL PUSH1 0x64 DUP3 ADD MSTORE PUSH1 0x84 ADD PUSH2 0x1FA JUMP JUMPDEST PUSH1 0x1 DUP1 SLOAD PUSH1 0x1 PUSH1 0x1 PUSH1 0xA0 SHL SUB DUP7 DUP2 AND PUSH1 0x1 PUSH1 0x1 PUSH1 0xA0 SHL SUB NOT SWAP3 DUP4 AND DUP2 OR SWAP1 SWAP4 SSTORE PUSH1 0x2 DUP1 SLOAD SWAP2 DUP8 AND SWAP2 SWAP1 SWAP3 AND OR SWAP1 SSTORE PUSH1 0x4 DUP4 SWAP1 SSTORE CALLVALUE PUSH1 0x5 SSTORE PUSH1 0x3 DUP3 SWAP1 SSTORE PUSH1 0x40 DUP1 MLOAD SWAP2 DUP3 MSTORE PUSH1 0x20 DUP3 ADD DUP4 SWAP1 MSTORE PUSH32 0x25FF68DD81B34665B5BA7E553EE5511BF6812E12ADB4A7E2C0D9E26B3099CE79 SWAP2 ADD PUSH1 0x40 MLOAD DUP1 SWAP2 SUB SWAP1 LOG1 POP POP POP POP JUMP JUMPDEST PUSH1 0x0 PUSH2 0x520 PUSH2 0x674 JUMP JUMPDEST PUSH1 0x0 DUP3 GT PUSH2 0x57F JUMPI PUSH1 0x40 MLOAD PUSH3 0x461BCD PUSH1 0xE5 SHL DUP2 MSTORE PUSH1 0x20 PUSH1 0x4 DUP3 ADD MSTORE PUSH1 0x26 PUSH1 0x24 DUP3 ADD MSTORE PUSH32 0x546F6B656E20616D6F756E74206D757374206265206772656174657220746861 PUSH1 0x44 DUP3 ADD MSTORE PUSH6 0x6E207A65726F PUSH1 0xD0 SHL PUSH1 0x64 DUP3 ADD MSTORE PUSH1 0x84 ADD PUSH2 0x1FA JUMP JUMPDEST PUSH1 0x0 PUSH1 0x64 PUSH1 0x3 SLOAD DUP5 PUSH2 0x591 SWAP2 SWAP1 PUSH2 0x755 JUMP JUMPDEST PUSH2 0x59B SWAP2 SWAP1 PUSH2 0x772 JUMP JUMPDEST SWAP1 POP PUSH1 0x0 PUSH2 0x5A9 DUP3 DUP6 PUSH2 0x794 JUMP JUMPDEST SWAP1 POP PUSH1 0x4 SLOAD PUSH1 0x5 SLOAD DUP3 PUSH2 0x5BC SWAP2 SWAP1 PUSH2 0x755 JUMP JUMPDEST PUSH2 0x5C6 SWAP2 SWAP1 PUSH2 0x772 JUMP JUMPDEST SWAP3 POP DUP4 PUSH1 0x4 PUSH1 0x0 DUP3 DUP3 SLOAD PUSH2 0x5DA SWAP2 SWAP1 PUSH2 0x7A7 JUMP JUMPDEST SWAP3 POP POP DUP2 SWAP1 SSTORE POP DUP3 PUSH1 0x5 PUSH1 0x0 DUP3 DUP3 SLOAD PUSH2 0x5F3 SWAP2 SWAP1 PUSH2 0x794 JUMP JUMPDEST SWAP1 SWAP2 SSTORE POP POP PUSH1 0x40 MLOAD CALLER SWAP1 PUSH32 0xC961EBD701A280A9816017F346BD0EFBF4B1C2C7F0E207EB0A9234A123AE7A3E SWAP1 PUSH2 0x65B SWAP1 DUP8 SWAP1 DUP8 SWAP1 SWAP2 DUP3 MSTORE PUSH1 0x20 DUP3 ADD MSTORE PUSH1 0x60 PUSH1 0x40 DUP3 ADD DUP2 SWAP1 MSTORE PUSH1 0xE SWAP1 DUP3 ADD MSTORE PUSH14 0x2A37B5B2B7103A379022BA3432B9 PUSH1 0x91 SHL PUSH1 0x80 DUP3 ADD MSTORE PUSH1 0xA0 ADD SWAP1 JUMP JUMPDEST PUSH1 0x40 MLOAD DUP1 SWAP2 SUB SWAP1 LOG2 POP POP PUSH2 0x66F PUSH1 0x1 PUSH1 0x0 SSTORE JUMP JUMPDEST SWAP2 SWAP1 POP JUMP JUMPDEST PUSH1 0x2 PUSH1 0x0 SLOAD SUB PUSH2 0x6C6 JUMPI PUSH1 0x40 MLOAD PUSH3 0x461BCD PUSH1 0xE5 SHL DUP2 MSTORE PUSH1 0x20 PUSH1 0x4 DUP3 ADD MSTORE PUSH1 0x1F PUSH1 0x24 DUP3 ADD MSTORE PUSH32 0x5265656E7472616E637947756172643A207265656E7472616E742063616C6C00 PUSH1 0x44 DUP3 ADD MSTORE PUSH1 0x64 ADD PUSH2 0x1FA JUMP JUMPDEST PUSH1 0x2 PUSH1 0x0 SSTORE JUMP JUMPDEST PUSH1 0x0 PUSH1 0x20 DUP3 DUP5 SUB SLT ISZERO PUSH2 0x6DF JUMPI PUSH1 0x0 DUP1 REVERT JUMPDEST POP CALLDATALOAD SWAP2 SWAP1 POP JUMP JUMPDEST DUP1 CALLDATALOAD PUSH1 0x1 PUSH1 0x1 PUSH1 0xA0 SHL SUB DUP2 AND DUP2 EQ PUSH2 0x66F JUMPI PUSH1 0x0 DUP1 REVERT JUMPDEST PUSH1 0x0 DUP1 PUSH1 0x0 DUP1 PUSH1 0x80 DUP6 DUP8 SUB SLT ISZERO PUSH2 0x713 JUMPI PUSH1 0x0 DUP1 REVERT JUMPDEST PUSH2 0x71C DUP6 PUSH2 0x6E6 JUMP JUMPDEST SWAP4 POP PUSH2 0x72A PUSH1 0x20 DUP7 ADD PUSH2 0x6E6 JUMP JUMPDEST SWAP4 SWAP7 SWAP4 SWAP6 POP POP POP POP PUSH1 0x40 DUP3 ADD CALLDATALOAD SWAP2 PUSH1 0x60 ADD CALLDATALOAD SWAP1 JUMP JUMPDEST PUSH4 0x4E487B71 PUSH1 0xE0 SHL PUSH1 0x0 MSTORE PUSH1 0x11 PUSH1 0x4 MSTORE PUSH1 0x24 PUSH1 0x0 REVERT JUMPDEST DUP1 DUP3 MUL DUP2 ISZERO DUP3 DUP3 DIV DUP5 EQ OR PUSH2 0x76C JUMPI PUSH2 0x76C PUSH2 0x73F JUMP JUMPDEST SWAP3 SWAP2 POP POP JUMP JUMPDEST PUSH1 0x0 DUP3 PUSH2 0x78F JUMPI PUSH4 0x4E487B71 PUSH1 0xE0 SHL PUSH1 0x0 MSTORE PUSH1 0x12 PUSH1 0x4 MSTORE PUSH1 0x24 PUSH1 0x0 REVERT JUMPDEST POP DIV SWAP1 JUMP JUMPDEST DUP2 DUP2 SUB DUP2 DUP2 GT ISZERO PUSH2 0x76C JUMPI PUSH2 0x76C PUSH2 0x73F JUMP JUMPDEST DUP1 DUP3 ADD DUP1 DUP3 GT ISZERO PUSH2 0x76C JUMPI PUSH2 0x76C PUSH2 0x73F JUMP INVALID LOG2 PUSH5 0x6970667358 0x22 SLT KECCAK256 0xBB 0xA8 0xCD CHAINID 0xA5 0xD5 PUSH32 0x6F11AD8C6A08FED3679F224E836BB138480B4D0E42238BBA8D64736F6C634300 ADDMOD BYTE STOP CALLER "
				},
				"gasEstimates": {
					"creation": {
						"codeDepositCost": "406400",
						"executionCost": "22549",
						"totalCost": "428949"
					},
					"external": {
						"factory()": "2337",
						"initialize(address,address,uint256,uint256)": "infinite",
						"reserveEther()": "2307",
						"reserveToken()": "2350",
						"setTaxRate(uint256)": "27962",
						"swapEtherForTokens()": "infinite",
						"swapTokensForEther(uint256)": "infinite",
						"taxRate()": "2329",
						"tokenAddress()": "2404"
					}
				},
				"methodIdentifiers": {
					"factory()": "c45a0155",
					"initialize(address,address,uint256,uint256)": "eb990c59",
					"reserveEther()": "668492d1",
					"reserveToken()": "f4325d67",
					"setTaxRate(uint256)": "c6d69a30",
					"swapEtherForTokens()": "13684187",
					"swapTokensForEther(uint256)": "fd04ae05",
					"taxRate()": "771a3a1d",
					"tokenAddress()": "9d76ea58"
				}
			},
			"storageLayout": {
				"storage": [
					{
						"astId": 10,
						"contract": "contracts/token factory/LiquidityPool.sol:LiquidityPool",
						"label": "_status",
						"offset": 0,
						"slot": "0",
						"type": "t_uint256"
					},
					{
						"astId": 71,
						"contract": "contracts/token factory/LiquidityPool.sol:LiquidityPool",
						"label": "tokenAddress",
						"offset": 0,
						"slot": "1",
						"type": "t_address"
					},
					{
						"astId": 73,
						"contract": "contracts/token factory/LiquidityPool.sol:LiquidityPool",
						"label": "factory",
						"offset": 0,
						"slot": "2",
						"type": "t_address"
					},
					{
						"astId": 75,
						"contract": "contracts/token factory/LiquidityPool.sol:LiquidityPool",
						"label": "taxRate",
						"offset": 0,
						"slot": "3",
						"type": "t_uint256"
					},
					{
						"astId": 77,
						"contract": "contracts/token factory/LiquidityPool.sol:LiquidityPool",
						"label": "reserveToken",
						"offset": 0,
						"slot": "4",
						"type": "t_uint256"
					},
					{
						"astId": 79,
						"contract": "contracts/token factory/LiquidityPool.sol:LiquidityPool",
						"label": "reserveEther",
						"offset": 0,
						"slot": "5",
						"type": "t_uint256"
					}
				],
				"types": {
					"t_address": {
						"encoding": "inplace",
						"label": "address",
						"numberOfBytes": "20"
					},
					"t_uint256": {
						"encoding": "inplace",
						"label": "uint256",
						"numberOfBytes": "32"
					}
				}
			},
			"userdoc": {
				"kind": "user",
				"methods": {},
				"version": 1
			}
		}
	}
}