{
	"contracts/token factory/Migrator.sol": {
		"Migrator": {
			"abi": [
				{
					"inputs": [
						{
							"internalType": "address",
							"name": "_algebraUnified",
							"type": "address"
						},
						{
							"internalType": "address",
							"name": "_WETH",
							"type": "address"
						},
						{
							"internalType": "address",
							"name": "_rootstockAddress",
							"type": "address"
						},
						{
							"internalType": "address",
							"name": "_monarkTeamAddress",
							"type": "address"
						}
					],
					"stateMutability": "nonpayable",
					"type": "constructor"
				},
				{
					"inputs": [],
					"name": "SA",
					"type": "error"
				},
				{
					"inputs": [],
					"name": "STF",
					"type": "error"
				},
				{
					"anonymous": false,
					"inputs": [
						{
							"indexed": true,
							"internalType": "address",
							"name": "account",
							"type": "address"
						}
					],
					"name": "AddressAddedToWhitelist",
					"type": "event"
				},
				{
					"anonymous": false,
					"inputs": [
						{
							"indexed": true,
							"internalType": "address",
							"name": "account",
							"type": "address"
						}
					],
					"name": "AddressRemovedFromWhitelist",
					"type": "event"
				},
				{
					"anonymous": false,
					"inputs": [
						{
							"indexed": true,
							"internalType": "address",
							"name": "sender",
							"type": "address"
						},
						{
							"indexed": false,
							"internalType": "uint256",
							"name": "amount",
							"type": "uint256"
						},
						{
							"indexed": false,
							"internalType": "uint256",
							"name": "newTotal",
							"type": "uint256"
						}
					],
					"name": "EtherReceived",
					"type": "event"
				},
				{
					"anonymous": false,
					"inputs": [
						{
							"indexed": true,
							"internalType": "address",
							"name": "poolAddress",
							"type": "address"
						},
						{
							"indexed": false,
							"internalType": "uint256",
							"name": "tokenId",
							"type": "uint256"
						},
						{
							"indexed": false,
							"internalType": "uint128",
							"name": "liquidity",
							"type": "uint128"
						},
						{
							"indexed": false,
							"internalType": "uint256",
							"name": "amount0",
							"type": "uint256"
						},
						{
							"indexed": false,
							"internalType": "uint256",
							"name": "amount1",
							"type": "uint256"
						}
					],
					"name": "LiquidityAdded",
					"type": "event"
				},
				{
					"anonymous": false,
					"inputs": [
						{
							"indexed": true,
							"internalType": "address",
							"name": "poolAddress",
							"type": "address"
						},
						{
							"indexed": true,
							"internalType": "address",
							"name": "token",
							"type": "address"
						},
						{
							"indexed": false,
							"internalType": "uint256",
							"name": "tokenAmount",
							"type": "uint256"
						},
						{
							"indexed": false,
							"internalType": "uint256",
							"name": "ethAmount",
							"type": "uint256"
						}
					],
					"name": "MigrationInitialized",
					"type": "event"
				},
				{
					"inputs": [],
					"name": "DAO",
					"outputs": [
						{
							"internalType": "address",
							"name": "",
							"type": "address"
						}
					],
					"stateMutability": "view",
					"type": "function"
				},
				{
					"inputs": [],
					"name": "MAX_ETH_LIMIT",
					"outputs": [
						{
							"internalType": "uint256",
							"name": "",
							"type": "uint256"
						}
					],
					"stateMutability": "view",
					"type": "function"
				},
				{
					"inputs": [],
					"name": "MAX_TICK",
					"outputs": [
						{
							"internalType": "int24",
							"name": "",
							"type": "int24"
						}
					],
					"stateMutability": "view",
					"type": "function"
				},
				{
					"inputs": [],
					"name": "MAX_TOKEN_LIMIT",
					"outputs": [
						{
							"internalType": "uint256",
							"name": "",
							"type": "uint256"
						}
					],
					"stateMutability": "view",
					"type": "function"
				},
				{
					"inputs": [],
					"name": "MIN_TICK",
					"outputs": [
						{
							"internalType": "int24",
							"name": "",
							"type": "int24"
						}
					],
					"stateMutability": "view",
					"type": "function"
				},
				{
					"inputs": [],
					"name": "WETH",
					"outputs": [
						{
							"internalType": "address",
							"name": "",
							"type": "address"
						}
					],
					"stateMutability": "view",
					"type": "function"
				},
				{
					"inputs": [
						{
							"internalType": "address",
							"name": "account",
							"type": "address"
						}
					],
					"name": "addToWhitelist",
					"outputs": [],
					"stateMutability": "nonpayable",
					"type": "function"
				},
				{
					"inputs": [],
					"name": "algebraUnified",
					"outputs": [
						{
							"internalType": "address",
							"name": "",
							"type": "address"
						}
					],
					"stateMutability": "view",
					"type": "function"
				},
				{
					"inputs": [
						{
							"internalType": "uint256",
							"name": "tokenAmount",
							"type": "uint256"
						},
						{
							"internalType": "uint256",
							"name": "ethAmount",
							"type": "uint256"
						}
					],
					"name": "calculateSqrtPriceX96",
					"outputs": [
						{
							"internalType": "uint160",
							"name": "",
							"type": "uint160"
						}
					],
					"stateMutability": "pure",
					"type": "function"
				},
				{
					"inputs": [],
					"name": "emergencyWithdraw",
					"outputs": [],
					"stateMutability": "nonpayable",
					"type": "function"
				},
				{
					"inputs": [
						{
							"internalType": "address",
							"name": "token",
							"type": "address"
						}
					],
					"name": "emergencyWithdrawTokens",
					"outputs": [],
					"stateMutability": "nonpayable",
					"type": "function"
				},
				{
					"inputs": [],
					"name": "etherToRedistribute",
					"outputs": [
						{
							"internalType": "uint256",
							"name": "",
							"type": "uint256"
						}
					],
					"stateMutability": "view",
					"type": "function"
				},
				{
					"inputs": [],
					"name": "getFeesCreation",
					"outputs": [],
					"stateMutability": "payable",
					"type": "function"
				},
				{
					"inputs": [
						{
							"internalType": "address",
							"name": "token",
							"type": "address"
						},
						{
							"internalType": "uint256",
							"name": "tokenAmount",
							"type": "uint256"
						}
					],
					"name": "initiateMigration",
					"outputs": [
						{
							"internalType": "address",
							"name": "pool",
							"type": "address"
						}
					],
					"stateMutability": "payable",
					"type": "function"
				},
				{
					"inputs": [
						{
							"internalType": "address",
							"name": "account",
							"type": "address"
						}
					],
					"name": "isWhitelisted",
					"outputs": [
						{
							"internalType": "bool",
							"name": "",
							"type": "bool"
						}
					],
					"stateMutability": "view",
					"type": "function"
				},
				{
					"inputs": [
						{
							"internalType": "uint256",
							"name": "",
							"type": "uint256"
						}
					],
					"name": "listOfWinningTokens",
					"outputs": [
						{
							"internalType": "address",
							"name": "",
							"type": "address"
						}
					],
					"stateMutability": "view",
					"type": "function"
				},
				{
					"inputs": [],
					"name": "monarkTeamAddress",
					"outputs": [
						{
							"internalType": "address",
							"name": "",
							"type": "address"
						}
					],
					"stateMutability": "view",
					"type": "function"
				},
				{
					"inputs": [],
					"name": "owner",
					"outputs": [
						{
							"internalType": "address",
							"name": "",
							"type": "address"
						}
					],
					"stateMutability": "view",
					"type": "function"
				},
				{
					"inputs": [],
					"name": "percentageToDistributeETH",
					"outputs": [
						{
							"internalType": "uint256",
							"name": "",
							"type": "uint256"
						}
					],
					"stateMutability": "view",
					"type": "function"
				},
				{
					"inputs": [
						{
							"internalType": "address",
							"name": "account",
							"type": "address"
						}
					],
					"name": "removeFromWhitelist",
					"outputs": [],
					"stateMutability": "nonpayable",
					"type": "function"
				},
				{
					"inputs": [],
					"name": "rootstockAddress",
					"outputs": [
						{
							"internalType": "address",
							"name": "",
							"type": "address"
						}
					],
					"stateMutability": "view",
					"type": "function"
				},
				{
					"inputs": [],
					"name": "timestampForLimit",
					"outputs": [
						{
							"internalType": "uint256",
							"name": "",
							"type": "uint256"
						}
					],
					"stateMutability": "view",
					"type": "function"
				},
				{
					"inputs": [
						{
							"internalType": "address",
							"name": "_algebraUnified",
							"type": "address"
						}
					],
					"name": "updateAlgebraUnified",
					"outputs": [],
					"stateMutability": "nonpayable",
					"type": "function"
				},
				{
					"inputs": [
						{
							"internalType": "address",
							"name": "_WETH",
							"type": "address"
						}
					],
					"name": "updateWETH",
					"outputs": [],
					"stateMutability": "nonpayable",
					"type": "function"
				},
				{
					"inputs": [],
					"name": "withdrawRewards",
					"outputs": [],
					"stateMutability": "nonpayable",
					"type": "function"
				},
				{
					"stateMutability": "payable",
					"type": "receive"
				}
			],
			"devdoc": {
				"kind": "dev",
				"methods": {
					"isWhitelisted(address)": {
						"details": "Vérifier si une adresse est dans la whitelist",
						"params": {
							"account": "Adresse à vérifier"
						},
						"returns": {
							"_0": "bool Retourne vrai si l'adresse est whitelistée"
						}
					},
					"removeFromWhitelist(address)": {
						"details": "Retirer une adresse de la whitelist",
						"params": {
							"account": "Adresse à retirer"
						}
					}
				},
				"version": 1
			},
			"evm": {
				"assembly": "    /* \"contracts/token factory/Migrator.sol\":3127:11439  contract Migrator {... */\n  mstore(0x40, 0x80)\n    /* \"contracts/token factory/Migrator.sol\":3976:3979  130 */\n  0x82\n    /* \"contracts/token factory/Migrator.sol\":3933:3979  uint256 public percentageToDistributeETH = 130 */\n  0x08\n  sstore\n    /* \"contracts/token factory/Migrator.sol\":5002:5600  constructor(address _algebraUnified, address _WETH, address _rootstockAddress, address _monarkTeamAddress) {... */\n  callvalue\n  dup1\n  iszero\n  tag_1\n  jumpi\n  0x00\n  dup1\n  revert\ntag_1:\n  pop\n  mload(0x40)\n  sub(codesize, bytecodeSize)\n  dup1\n  bytecodeSize\n  dup4\n  codecopy\n  dup2\n  add\n  0x40\n  dup2\n  swap1\n  mstore\n  tag_2\n  swap2\n  tag_3\n  jump\t// in\ntag_2:\n  sub(shl(0xa0, 0x01), 0x01)\n    /* \"contracts/token factory/Migrator.sol\":5127:5156  _algebraUnified != address(0) */\n  dup5\n  and\n    /* \"contracts/token factory/Migrator.sol\":5119:5184  require(_algebraUnified != address(0), \"Invalid Algebra address\") */\n  tag_6\n  jumpi\n  mload(0x40)\n  shl(0xe5, 0x461bcd)\n  dup2\n  mstore\n    /* \"#utility.yul\":867:869   */\n  0x20\n    /* \"contracts/token factory/Migrator.sol\":5119:5184  require(_algebraUnified != address(0), \"Invalid Algebra address\") */\n  0x04\n  dup3\n  add\n    /* \"#utility.yul\":849:870   */\n  mstore\n    /* \"#utility.yul\":906:908   */\n  0x17\n    /* \"#utility.yul\":886:904   */\n  0x24\n  dup3\n  add\n    /* \"#utility.yul\":879:909   */\n  mstore\n    /* \"#utility.yul\":945:970   */\n  0x496e76616c696420416c67656272612061646472657373000000000000000000\n    /* \"#utility.yul\":925:943   */\n  0x44\n  dup3\n  add\n    /* \"#utility.yul\":918:971   */\n  mstore\n    /* \"#utility.yul\":988:1006   */\n  0x64\n  add\n    /* \"contracts/token factory/Migrator.sol\":5119:5184  require(_algebraUnified != address(0), \"Invalid Algebra address\") */\ntag_7:\n  mload(0x40)\n  dup1\n  swap2\n  sub\n  swap1\n  revert\ntag_6:\n  sub(shl(0xa0, 0x01), 0x01)\n    /* \"contracts/token factory/Migrator.sol\":5202:5221  _WETH != address(0) */\n  dup4\n  and\n    /* \"contracts/token factory/Migrator.sol\":5194:5246  require(_WETH != address(0), \"Invalid WETH address\") */\n  tag_9\n  jumpi\n  mload(0x40)\n  shl(0xe5, 0x461bcd)\n  dup2\n  mstore\n    /* \"#utility.yul\":1219:1221   */\n  0x20\n    /* \"contracts/token factory/Migrator.sol\":5194:5246  require(_WETH != address(0), \"Invalid WETH address\") */\n  0x04\n  dup3\n  add\n    /* \"#utility.yul\":1201:1222   */\n  mstore\n    /* \"#utility.yul\":1258:1260   */\n  0x14\n    /* \"#utility.yul\":1238:1256   */\n  0x24\n  dup3\n  add\n    /* \"#utility.yul\":1231:1261   */\n  mstore\n    /* \"#utility.yul\":1297:1319   */\n  0x496e76616c696420574554482061646472657373000000000000000000000000\n    /* \"#utility.yul\":1277:1295   */\n  0x44\n  dup3\n  add\n    /* \"#utility.yul\":1270:1320   */\n  mstore\n    /* \"#utility.yul\":1337:1355   */\n  0x64\n  add\n    /* \"contracts/token factory/Migrator.sol\":5194:5246  require(_WETH != address(0), \"Invalid WETH address\") */\n  tag_7\n    /* \"#utility.yul\":1017:1361   */\n  jump\n    /* \"contracts/token factory/Migrator.sol\":5194:5246  require(_WETH != address(0), \"Invalid WETH address\") */\ntag_9:\n  sub(shl(0xa0, 0x01), 0x01)\n    /* \"contracts/token factory/Migrator.sol\":5264:5295  _rootstockAddress != address(0) */\n  dup3\n  and\n    /* \"contracts/token factory/Migrator.sol\":5256:5325  require(_rootstockAddress != address(0), \"Invalid rootstock address\") */\n  tag_12\n  jumpi\n  mload(0x40)\n  shl(0xe5, 0x461bcd)\n  dup2\n  mstore\n    /* \"#utility.yul\":1568:1570   */\n  0x20\n    /* \"contracts/token factory/Migrator.sol\":5256:5325  require(_rootstockAddress != address(0), \"Invalid rootstock address\") */\n  0x04\n  dup3\n  add\n    /* \"#utility.yul\":1550:1571   */\n  mstore\n    /* \"#utility.yul\":1607:1609   */\n  0x19\n    /* \"#utility.yul\":1587:1605   */\n  0x24\n  dup3\n  add\n    /* \"#utility.yul\":1580:1610   */\n  mstore\n    /* \"#utility.yul\":1646:1673   */\n  0x496e76616c696420726f6f7473746f636b206164647265737300000000000000\n    /* \"#utility.yul\":1626:1644   */\n  0x44\n  dup3\n  add\n    /* \"#utility.yul\":1619:1674   */\n  mstore\n    /* \"#utility.yul\":1691:1709   */\n  0x64\n  add\n    /* \"contracts/token factory/Migrator.sol\":5256:5325  require(_rootstockAddress != address(0), \"Invalid rootstock address\") */\n  tag_7\n    /* \"#utility.yul\":1366:1715   */\n  jump\n    /* \"contracts/token factory/Migrator.sol\":5256:5325  require(_rootstockAddress != address(0), \"Invalid rootstock address\") */\ntag_12:\n  sub(shl(0xa0, 0x01), 0x01)\n    /* \"contracts/token factory/Migrator.sol\":5343:5375  _monarkTeamAddress != address(0) */\n  dup2\n  and\n    /* \"contracts/token factory/Migrator.sol\":5335:5406  require(_monarkTeamAddress != address(0), \"Invalid monarkTeam address\") */\n  tag_15\n  jumpi\n  mload(0x40)\n  shl(0xe5, 0x461bcd)\n  dup2\n  mstore\n    /* \"#utility.yul\":1922:1924   */\n  0x20\n    /* \"contracts/token factory/Migrator.sol\":5335:5406  require(_monarkTeamAddress != address(0), \"Invalid monarkTeam address\") */\n  0x04\n  dup3\n  add\n    /* \"#utility.yul\":1904:1925   */\n  mstore\n    /* \"#utility.yul\":1961:1963   */\n  0x1a\n    /* \"#utility.yul\":1941:1959   */\n  0x24\n  dup3\n  add\n    /* \"#utility.yul\":1934:1964   */\n  mstore\n    /* \"#utility.yul\":2000:2028   */\n  0x496e76616c6964206d6f6e61726b5465616d2061646472657373000000000000\n    /* \"#utility.yul\":1980:1998   */\n  0x44\n  dup3\n  add\n    /* \"#utility.yul\":1973:2029   */\n  mstore\n    /* \"#utility.yul\":2046:2064   */\n  0x64\n  add\n    /* \"contracts/token factory/Migrator.sol\":5335:5406  require(_monarkTeamAddress != address(0), \"Invalid monarkTeam address\") */\n  tag_7\n    /* \"#utility.yul\":1720:2070   */\n  jump\n    /* \"contracts/token factory/Migrator.sol\":5335:5406  require(_monarkTeamAddress != address(0), \"Invalid monarkTeam address\") */\ntag_15:\n    /* \"contracts/token factory/Migrator.sol\":5416:5421  owner */\n  0x00\n    /* \"contracts/token factory/Migrator.sol\":5416:5434  owner = msg.sender */\n  dup1\n  sload\n    /* \"contracts/token factory/Migrator.sol\":5424:5434  msg.sender */\n  caller\n  not(sub(shl(0xa0, 0x01), 0x01))\n    /* \"contracts/token factory/Migrator.sol\":5416:5434  owner = msg.sender */\n  swap2\n  dup3\n  and\n  or\n  swap1\n  swap2\n  sstore\n  0x01\n    /* \"contracts/token factory/Migrator.sol\":5444:5476  algebraUnified = _algebraUnified */\n  dup1\n  sload\n  dup3\n  and\n  sub(shl(0xa0, 0x01), 0x01)\n  swap7\n  dup8\n  and\n  or\n  swap1\n  sstore\n    /* \"contracts/token factory/Migrator.sol\":5486:5490  WETH */\n  0x02\n    /* \"contracts/token factory/Migrator.sol\":5486:5498  WETH = _WETH */\n  dup1\n  sload\n  dup3\n  and\n  swap5\n  dup7\n  and\n  swap5\n  swap1\n  swap5\n  or\n  swap1\n  swap4\n  sstore\n    /* \"contracts/token factory/Migrator.sol\":5508:5524  rootstockAddress */\n  0x03\n    /* \"contracts/token factory/Migrator.sol\":5508:5544  rootstockAddress = _rootstockAddress */\n  dup1\n  sload\n  dup5\n  and\n  swap3\n  dup6\n  and\n  swap3\n  swap1\n  swap3\n  or\n  swap1\n  swap2\n  sstore\n    /* \"contracts/token factory/Migrator.sol\":5554:5571  monarkTeamAddress */\n  0x04\n    /* \"contracts/token factory/Migrator.sol\":5554:5592  monarkTeamAddress = _monarkTeamAddress */\n  dup1\n  sload\n  swap1\n  swap3\n  and\n  swap3\n  and\n  swap2\n  swap1\n  swap2\n  or\n  swap1\n  sstore\n    /* \"contracts/token factory/Migrator.sol\":3127:11439  contract Migrator {... */\n  jump(tag_20)\n    /* \"#utility.yul\":14:191   */\ntag_19:\n    /* \"#utility.yul\":93:106   */\n  dup1\n  mload\n  sub(shl(0xa0, 0x01), 0x01)\n    /* \"#utility.yul\":135:166   */\n  dup2\n  and\n    /* \"#utility.yul\":125:167   */\n  dup2\n  eq\n    /* \"#utility.yul\":115:185   */\n  tag_22\n  jumpi\n    /* \"#utility.yul\":181:182   */\n  0x00\n    /* \"#utility.yul\":178:179   */\n  dup1\n    /* \"#utility.yul\":171:183   */\n  revert\n    /* \"#utility.yul\":115:185   */\ntag_22:\n    /* \"#utility.yul\":14:191   */\n  swap2\n  swap1\n  pop\n  jump\t// out\n    /* \"#utility.yul\":196:660   */\ntag_3:\n    /* \"#utility.yul\":293:299   */\n  0x00\n    /* \"#utility.yul\":301:307   */\n  dup1\n    /* \"#utility.yul\":309:315   */\n  0x00\n    /* \"#utility.yul\":317:323   */\n  dup1\n    /* \"#utility.yul\":370:373   */\n  0x80\n    /* \"#utility.yul\":358:367   */\n  dup6\n    /* \"#utility.yul\":349:356   */\n  dup8\n    /* \"#utility.yul\":345:368   */\n  sub\n    /* \"#utility.yul\":341:374   */\n  slt\n    /* \"#utility.yul\":338:391   */\n  iszero\n  tag_24\n  jumpi\n    /* \"#utility.yul\":387:388   */\n  0x00\n    /* \"#utility.yul\":384:385   */\n  dup1\n    /* \"#utility.yul\":377:389   */\n  revert\n    /* \"#utility.yul\":338:391   */\ntag_24:\n    /* \"#utility.yul\":410:450   */\n  tag_25\n    /* \"#utility.yul\":440:449   */\n  dup6\n    /* \"#utility.yul\":410:450   */\n  tag_19\n  jump\t// in\ntag_25:\n    /* \"#utility.yul\":400:450   */\n  swap4\n  pop\n    /* \"#utility.yul\":469:518   */\n  tag_26\n    /* \"#utility.yul\":514:516   */\n  0x20\n    /* \"#utility.yul\":503:512   */\n  dup7\n    /* \"#utility.yul\":499:517   */\n  add\n    /* \"#utility.yul\":469:518   */\n  tag_19\n  jump\t// in\ntag_26:\n    /* \"#utility.yul\":459:518   */\n  swap3\n  pop\n    /* \"#utility.yul\":537:586   */\n  tag_27\n    /* \"#utility.yul\":582:584   */\n  0x40\n    /* \"#utility.yul\":571:580   */\n  dup7\n    /* \"#utility.yul\":567:585   */\n  add\n    /* \"#utility.yul\":537:586   */\n  tag_19\n  jump\t// in\ntag_27:\n    /* \"#utility.yul\":527:586   */\n  swap2\n  pop\n    /* \"#utility.yul\":605:654   */\n  tag_28\n    /* \"#utility.yul\":650:652   */\n  0x60\n    /* \"#utility.yul\":639:648   */\n  dup7\n    /* \"#utility.yul\":635:653   */\n  add\n    /* \"#utility.yul\":605:654   */\n  tag_19\n  jump\t// in\ntag_28:\n    /* \"#utility.yul\":595:654   */\n  swap1\n  pop\n    /* \"#utility.yul\":196:660   */\n  swap3\n  swap6\n  swap2\n  swap5\n  pop\n  swap3\n  pop\n  jump\t// out\n    /* \"#utility.yul\":1720:2070   */\ntag_20:\n    /* \"contracts/token factory/Migrator.sol\":3127:11439  contract Migrator {... */\n  dataSize(sub_0)\n  dup1\n  dataOffset(sub_0)\n  0x00\n  codecopy\n  0x00\n  return\nstop\n\nsub_0: assembly {\n        /* \"contracts/token factory/Migrator.sol\":3127:11439  contract Migrator {... */\n      mstore(0x40, 0x80)\n      jumpi(tag_1, lt(calldatasize, 0x04))\n      shr(0xe0, calldataload(0x00))\n      dup1\n      0x8ab1d681\n      gt\n      tag_28\n      jumpi\n      dup1\n      0xad5c4648\n      gt\n      tag_29\n      jumpi\n      dup1\n      0xdb2e21bc\n      gt\n      tag_30\n      jumpi\n      dup1\n      0xdb2e21bc\n      eq\n      tag_24\n      jumpi\n      dup1\n      0xe42bbbd5\n      eq\n      tag_25\n      jumpi\n      dup1\n      0xe43252d7\n      eq\n      tag_26\n      jumpi\n      dup1\n      0xfe9440d7\n      eq\n      tag_27\n      jumpi\n      0x00\n      dup1\n      revert\n    tag_30:\n      dup1\n      0xad5c4648\n      eq\n      tag_21\n      jumpi\n      dup1\n      0xb2af127c\n      eq\n      tag_22\n      jumpi\n      dup1\n      0xc7b8981c\n      eq\n      tag_23\n      jumpi\n      0x00\n      dup1\n      revert\n    tag_29:\n      dup1\n      0x8ab1d681\n      eq\n      tag_15\n      jumpi\n      dup1\n      0x8da5cb5b\n      eq\n      tag_16\n      jumpi\n      dup1\n      0x98fabd3a\n      eq\n      tag_17\n      jumpi\n      dup1\n      0xa000bf4f\n      eq\n      tag_18\n      jumpi\n      dup1\n      0xa1634b14\n      eq\n      tag_19\n      jumpi\n      dup1\n      0xa8bd9dde\n      eq\n      tag_20\n      jumpi\n      0x00\n      dup1\n      revert\n    tag_28:\n      dup1\n      0x3b7ab5b3\n      gt\n      tag_31\n      jumpi\n      dup1\n      0x3b7ab5b3\n      eq\n      tag_9\n      jumpi\n      dup1\n      0x5a2f0ae7\n      eq\n      tag_10\n      jumpi\n      dup1\n      0x6484bbaa\n      eq\n      tag_11\n      jumpi\n      dup1\n      0x6882a888\n      eq\n      tag_12\n      jumpi\n      dup1\n      0x6fb3ea56\n      eq\n      tag_13\n      jumpi\n      dup1\n      0x703dc75c\n      eq\n      tag_14\n      jumpi\n      0x00\n      dup1\n      revert\n    tag_31:\n      dup1\n      0x09fe2d34\n      eq\n      tag_3\n      jumpi\n      dup1\n      0x18fd7858\n      eq\n      tag_4\n      jumpi\n      dup1\n      0x24f8eca7\n      eq\n      tag_5\n      jumpi\n      dup1\n      0x288b0b5a\n      eq\n      tag_6\n      jumpi\n      dup1\n      0x30bff625\n      eq\n      tag_7\n      jumpi\n      dup1\n      0x3af32abf\n      eq\n      tag_8\n      jumpi\n      0x00\n      dup1\n      revert\n    tag_1:\n      jumpi(tag_2, calldatasize)\n      stop\n    tag_2:\n      0x00\n      dup1\n      revert\n        /* \"contracts/token factory/Migrator.sol\":9166:9356  function updateAlgebraUnified(address _algebraUnified) external onlyOwner {... */\n    tag_3:\n      callvalue\n      dup1\n      iszero\n      tag_34\n      jumpi\n      0x00\n      dup1\n      revert\n    tag_34:\n      pop\n      tag_35\n      tag_36\n      calldatasize\n      0x04\n      tag_37\n      jump\t// in\n    tag_36:\n      tag_38\n      jump\t// in\n    tag_35:\n      stop\n        /* \"contracts/token factory/Migrator.sol\":5606:8158  function initiateMigration(address token, uint256 tokenAmount) external payable returns (address pool) {... */\n    tag_4:\n      tag_39\n      tag_40\n      calldatasize\n      0x04\n      tag_41\n      jump\t// in\n    tag_40:\n      tag_42\n      jump\t// in\n    tag_39:\n      mload(0x40)\n      sub(shl(0xa0, 0x01), 0x01)\n        /* \"#utility.yul\":1047:1079   */\n      swap1\n      swap2\n      and\n        /* \"#utility.yul\":1029:1080   */\n      dup2\n      mstore\n        /* \"#utility.yul\":1017:1019   */\n      0x20\n        /* \"#utility.yul\":1002:1020   */\n      add\n        /* \"contracts/token factory/Migrator.sol\":5606:8158  function initiateMigration(address token, uint256 tokenAmount) external payable returns (address pool) {... */\n    tag_43:\n      mload(0x40)\n      dup1\n      swap2\n      sub\n      swap1\n      return\n        /* \"contracts/token factory/Migrator.sol\":3216:3245  address public algebraUnified */\n    tag_5:\n      callvalue\n      dup1\n      iszero\n      tag_45\n      jumpi\n      0x00\n      dup1\n      revert\n    tag_45:\n      pop\n      sload(0x01)\n      tag_39\n      swap1\n      sub(shl(0xa0, 0x01), 0x01)\n      and\n      dup2\n      jump\n        /* \"contracts/token factory/Migrator.sol\":3343:3375  address public monarkTeamAddress */\n    tag_6:\n      callvalue\n      dup1\n      iszero\n      tag_49\n      jumpi\n      0x00\n      dup1\n      revert\n    tag_49:\n      pop\n      sload(0x04)\n      tag_39\n      swap1\n      sub(shl(0xa0, 0x01), 0x01)\n      and\n      dup2\n      jump\n        /* \"contracts/token factory/Migrator.sol\":3933:3979  uint256 public percentageToDistributeETH = 130 */\n    tag_7:\n      callvalue\n      dup1\n      iszero\n      tag_53\n      jumpi\n      0x00\n      dup1\n      revert\n    tag_53:\n      pop\n      tag_54\n      sload(0x08)\n      dup2\n      jump\n    tag_54:\n      mload(0x40)\n        /* \"#utility.yul\":1237:1262   */\n      swap1\n      dup2\n      mstore\n        /* \"#utility.yul\":1225:1227   */\n      0x20\n        /* \"#utility.yul\":1210:1228   */\n      add\n        /* \"contracts/token factory/Migrator.sol\":3933:3979  uint256 public percentageToDistributeETH = 130 */\n      tag_43\n        /* \"#utility.yul\":1091:1268   */\n      jump\n        /* \"contracts/token factory/Migrator.sol\":10745:10856  function isWhitelisted(address account) external view returns (bool) {... */\n    tag_8:\n      callvalue\n      dup1\n      iszero\n      tag_58\n      jumpi\n      0x00\n      dup1\n      revert\n    tag_58:\n      pop\n      tag_59\n      tag_60\n      calldatasize\n      0x04\n      tag_37\n      jump\t// in\n    tag_60:\n      sub(shl(0xa0, 0x01), 0x01)\n        /* \"contracts/token factory/Migrator.sol\":10831:10849  whitelist[account] */\n      and\n        /* \"contracts/token factory/Migrator.sol\":10808:10812  bool */\n      0x00\n        /* \"contracts/token factory/Migrator.sol\":10831:10849  whitelist[account] */\n      swap1\n      dup2\n      mstore\n        /* \"contracts/token factory/Migrator.sol\":10831:10840  whitelist */\n      0x0a\n        /* \"contracts/token factory/Migrator.sol\":10831:10849  whitelist[account] */\n      0x20\n      mstore\n      0x40\n      swap1\n      keccak256\n      sload\n      0xff\n      and\n      swap1\n        /* \"contracts/token factory/Migrator.sol\":10745:10856  function isWhitelisted(address account) external view returns (bool) {... */\n      jump\n    tag_59:\n      mload(0x40)\n        /* \"#utility.yul\":1438:1452   */\n      swap1\n      iszero\n        /* \"#utility.yul\":1431:1453   */\n      iszero\n        /* \"#utility.yul\":1413:1454   */\n      dup2\n      mstore\n        /* \"#utility.yul\":1401:1403   */\n      0x20\n        /* \"#utility.yul\":1386:1404   */\n      add\n        /* \"contracts/token factory/Migrator.sol\":10745:10856  function isWhitelisted(address account) external view returns (bool) {... */\n      tag_43\n        /* \"#utility.yul\":1273:1460   */\n      jump\n        /* \"contracts/token factory/Migrator.sol\":3652:3715  uint256 public constant MAX_TOKEN_LIMIT = 21_000_000_000 * 1e18 */\n    tag_9:\n      callvalue\n      dup1\n      iszero\n      tag_64\n      jumpi\n      0x00\n      dup1\n      revert\n    tag_64:\n      pop\n      tag_54\n        /* \"contracts/token factory/Migrator.sol\":3694:3715  21_000_000_000 * 1e18 */\n      0x43dacaf91c1a84ff08000000\n        /* \"contracts/token factory/Migrator.sol\":3652:3715  uint256 public constant MAX_TOKEN_LIMIT = 21_000_000_000 * 1e18 */\n      dup2\n      jump\n        /* \"contracts/token factory/Migrator.sol\":3570:3618  uint256 public constant MAX_ETH_LIMIT = 10 ether */\n    tag_10:\n      callvalue\n      dup1\n      iszero\n      tag_68\n      jumpi\n      0x00\n      dup1\n      revert\n    tag_68:\n      pop\n      tag_54\n        /* \"contracts/token factory/Migrator.sol\":3610:3618  10 ether */\n      0x8ac7230489e80000\n        /* \"contracts/token factory/Migrator.sol\":3570:3618  uint256 public constant MAX_ETH_LIMIT = 10 ether */\n      dup2\n      jump\n        /* \"contracts/token factory/Migrator.sol\":3752:3786  uint256 public etherToRedistribute */\n    tag_11:\n      callvalue\n      dup1\n      iszero\n      tag_72\n      jumpi\n      0x00\n      dup1\n      revert\n    tag_72:\n      pop\n      tag_54\n      sload(0x06)\n      dup2\n      jump\n        /* \"contracts/token factory/Migrator.sol\":3524:3563  int24 public constant MAX_TICK = 887220 */\n    tag_12:\n      callvalue\n      dup1\n      iszero\n      tag_76\n      jumpi\n      0x00\n      dup1\n      revert\n    tag_76:\n      pop\n      tag_77\n        /* \"contracts/token factory/Migrator.sol\":3557:3563  887220 */\n      0x0d89b4\n        /* \"contracts/token factory/Migrator.sol\":3524:3563  int24 public constant MAX_TICK = 887220 */\n      dup2\n      jump\n    tag_77:\n      mload(0x40)\n        /* \"#utility.yul\":1732:1733   */\n      0x02\n        /* \"#utility.yul\":1721:1742   */\n      swap2\n      swap1\n      swap2\n      signextend\n        /* \"#utility.yul\":1703:1743   */\n      dup2\n      mstore\n        /* \"#utility.yul\":1691:1693   */\n      0x20\n        /* \"#utility.yul\":1676:1694   */\n      add\n        /* \"contracts/token factory/Migrator.sol\":3524:3563  int24 public constant MAX_TICK = 887220 */\n      tag_43\n        /* \"#utility.yul\":1561:1749   */\n      jump\n        /* \"contracts/token factory/Migrator.sol\":3276:3307  address public rootstockAddress */\n    tag_13:\n      callvalue\n      dup1\n      iszero\n      tag_81\n      jumpi\n      0x00\n      dup1\n      revert\n    tag_81:\n      pop\n      sload(0x03)\n      tag_39\n      swap1\n      sub(shl(0xa0, 0x01), 0x01)\n      and\n      dup2\n      jump\n        /* \"contracts/token factory/Migrator.sol\":3857:3889  uint256 public timestampForLimit */\n    tag_14:\n      callvalue\n      dup1\n      iszero\n      tag_85\n      jumpi\n      0x00\n      dup1\n      revert\n    tag_85:\n      pop\n      tag_54\n      sload(0x07)\n      dup2\n      jump\n        /* \"contracts/token factory/Migrator.sol\":10333:10557  function removeFromWhitelist(address account) external onlyOwner {... */\n    tag_15:\n      callvalue\n      dup1\n      iszero\n      tag_89\n      jumpi\n      0x00\n      dup1\n      revert\n    tag_89:\n      pop\n      tag_35\n      tag_91\n      calldatasize\n      0x04\n      tag_37\n      jump\t// in\n    tag_91:\n      tag_92\n      jump\t// in\n        /* \"contracts/token factory/Migrator.sol\":3190:3210  address public owner */\n    tag_16:\n      callvalue\n      dup1\n      iszero\n      tag_93\n      jumpi\n      0x00\n      dup1\n      revert\n    tag_93:\n      pop\n      sload(0x00)\n      tag_39\n      swap1\n      sub(shl(0xa0, 0x01), 0x01)\n      and\n      dup2\n      jump\n        /* \"contracts/token factory/Migrator.sol\":3408:3426  address public DAO */\n    tag_17:\n      callvalue\n      dup1\n      iszero\n      tag_97\n      jumpi\n      0x00\n      dup1\n      revert\n    tag_97:\n      pop\n      sload(0x05)\n      tag_39\n      swap1\n      sub(shl(0xa0, 0x01), 0x01)\n      and\n      dup2\n      jump\n        /* \"contracts/token factory/Migrator.sol\":8513:8930  function calculateSqrtPriceX96(uint256 tokenAmount, uint256 ethAmount) public pure returns (uint160) {... */\n    tag_18:\n      callvalue\n      dup1\n      iszero\n      tag_101\n      jumpi\n      0x00\n      dup1\n      revert\n    tag_101:\n      pop\n      tag_39\n      tag_103\n      calldatasize\n      0x04\n      tag_104\n      jump\t// in\n    tag_103:\n      tag_105\n      jump\t// in\n        /* \"contracts/token factory/Migrator.sol\":3478:3518  int24 public constant MIN_TICK = -887220 */\n    tag_19:\n      callvalue\n      dup1\n      iszero\n      tag_108\n      jumpi\n      0x00\n      dup1\n      revert\n    tag_108:\n      pop\n      tag_77\n      not(0x0d89b3)\n      dup2\n      jump\n        /* \"contracts/token factory/Migrator.sol\":3987:4023  address[] public listOfWinningTokens */\n    tag_20:\n      callvalue\n      dup1\n      iszero\n      tag_112\n      jumpi\n      0x00\n      dup1\n      revert\n    tag_112:\n      pop\n      tag_39\n      tag_114\n      calldatasize\n      0x04\n      tag_115\n      jump\t// in\n    tag_114:\n      tag_116\n      jump\t// in\n        /* \"contracts/token factory/Migrator.sol\":3251:3270  address public WETH */\n    tag_21:\n      callvalue\n      dup1\n      iszero\n      tag_118\n      jumpi\n      0x00\n      dup1\n      revert\n    tag_118:\n      pop\n      sload(0x02)\n      tag_39\n      swap1\n      sub(shl(0xa0, 0x01), 0x01)\n      and\n      dup2\n      jump\n        /* \"contracts/token factory/Migrator.sol\":9759:10001  function emergencyWithdrawTokens(address token) external onlyOwner {... */\n    tag_22:\n      callvalue\n      dup1\n      iszero\n      tag_122\n      jumpi\n      0x00\n      dup1\n      revert\n    tag_122:\n      pop\n      tag_35\n      tag_124\n      calldatasize\n      0x04\n      tag_37\n      jump\t// in\n    tag_124:\n      tag_125\n      jump\t// in\n        /* \"contracts/token factory/Migrator.sol\":10863:11399  function withdrawRewards() external onlyWhitelisted() {... */\n    tag_23:\n      callvalue\n      dup1\n      iszero\n      tag_126\n      jumpi\n      0x00\n      dup1\n      revert\n    tag_126:\n      pop\n      tag_35\n      tag_128\n      jump\t// in\n        /* \"contracts/token factory/Migrator.sol\":9507:9757  function emergencyWithdraw() external onlyOwner {... */\n    tag_24:\n      callvalue\n      dup1\n      iszero\n      tag_129\n      jumpi\n      0x00\n      dup1\n      revert\n    tag_129:\n      pop\n      tag_35\n      tag_131\n      jump\t// in\n        /* \"contracts/token factory/Migrator.sol\":8164:8506  function getFeesCreation() external payable {... */\n    tag_25:\n      tag_35\n      tag_133\n      jump\t// in\n        /* \"contracts/token factory/Migrator.sol\":10004:10222  function addToWhitelist(address account) external onlyOwner {... */\n    tag_26:\n      callvalue\n      dup1\n      iszero\n      tag_134\n      jumpi\n      0x00\n      dup1\n      revert\n    tag_134:\n      pop\n      tag_35\n      tag_136\n      calldatasize\n      0x04\n      tag_37\n      jump\t// in\n    tag_136:\n      tag_137\n      jump\t// in\n        /* \"contracts/token factory/Migrator.sol\":9362:9502  function updateWETH(address _WETH) external onlyOwner {... */\n    tag_27:\n      callvalue\n      dup1\n      iszero\n      tag_138\n      jumpi\n      0x00\n      dup1\n      revert\n    tag_138:\n      pop\n      tag_35\n      tag_140\n      calldatasize\n      0x04\n      tag_37\n      jump\t// in\n    tag_140:\n      tag_141\n      jump\t// in\n        /* \"contracts/token factory/Migrator.sol\":9166:9356  function updateAlgebraUnified(address _algebraUnified) external onlyOwner {... */\n    tag_38:\n        /* \"contracts/token factory/Migrator.sol\":4806:4811  owner */\n      and(sub(shl(0xa0, 0x01), 0x01), sload(0x00))\n        /* \"contracts/token factory/Migrator.sol\":4792:4802  msg.sender */\n      caller\n        /* \"contracts/token factory/Migrator.sol\":4792:4811  msg.sender == owner */\n      eq\n        /* \"contracts/token factory/Migrator.sol\":4784:4840  require(msg.sender == owner, \"Only owner can call this\") */\n      tag_143\n      jumpi\n      mload(0x40)\n      shl(0xe5, 0x461bcd)\n      dup2\n      mstore\n      0x04\n      add\n      tag_144\n      swap1\n      tag_145\n      jump\t// in\n    tag_144:\n      mload(0x40)\n      dup1\n      swap2\n      sub\n      swap1\n      revert\n    tag_143:\n      sub(shl(0xa0, 0x01), 0x01)\n        /* \"contracts/token factory/Migrator.sol\":9258:9287  _algebraUnified != address(0) */\n      dup2\n      and\n        /* \"contracts/token factory/Migrator.sol\":9250:9307  require(_algebraUnified != address(0), \"Invalid address\") */\n      tag_147\n      jumpi\n      mload(0x40)\n      shl(0xe5, 0x461bcd)\n      dup2\n      mstore\n        /* \"#utility.yul\":3099:3101   */\n      0x20\n        /* \"contracts/token factory/Migrator.sol\":9250:9307  require(_algebraUnified != address(0), \"Invalid address\") */\n      0x04\n      dup3\n      add\n        /* \"#utility.yul\":3081:3102   */\n      mstore\n        /* \"#utility.yul\":3138:3140   */\n      0x0f\n        /* \"#utility.yul\":3118:3136   */\n      0x24\n      dup3\n      add\n        /* \"#utility.yul\":3111:3141   */\n      mstore\n      shl(0x88, 0x496e76616c69642061646472657373)\n        /* \"#utility.yul\":3157:3175   */\n      0x44\n      dup3\n      add\n        /* \"#utility.yul\":3150:3195   */\n      mstore\n        /* \"#utility.yul\":3212:3230   */\n      0x64\n      add\n        /* \"contracts/token factory/Migrator.sol\":9250:9307  require(_algebraUnified != address(0), \"Invalid address\") */\n      tag_144\n        /* \"#utility.yul\":2897:3236   */\n      jump\n        /* \"contracts/token factory/Migrator.sol\":9250:9307  require(_algebraUnified != address(0), \"Invalid address\") */\n    tag_147:\n        /* \"contracts/token factory/Migrator.sol\":9317:9331  algebraUnified */\n      0x01\n        /* \"contracts/token factory/Migrator.sol\":9317:9349  algebraUnified = _algebraUnified */\n      dup1\n      sload\n      not(sub(shl(0xa0, 0x01), 0x01))\n      and\n      sub(shl(0xa0, 0x01), 0x01)\n      swap3\n      swap1\n      swap3\n      and\n      swap2\n      swap1\n      swap2\n      or\n      swap1\n      sstore\n        /* \"contracts/token factory/Migrator.sol\":9166:9356  function updateAlgebraUnified(address _algebraUnified) external onlyOwner {... */\n      jump\t// out\n        /* \"contracts/token factory/Migrator.sol\":5606:8158  function initiateMigration(address token, uint256 tokenAmount) external payable returns (address pool) {... */\n    tag_42:\n        /* \"contracts/token factory/Migrator.sol\":5695:5707  address pool */\n      0x00\n        /* \"contracts/token factory/Migrator.sol\":5735:5736  0 */\n      dup1\n        /* \"contracts/token factory/Migrator.sol\":5723:5732  msg.value */\n      callvalue\n        /* \"contracts/token factory/Migrator.sol\":5723:5736  msg.value > 0 */\n      gt\n        /* \"contracts/token factory/Migrator.sol\":5715:5779  require(msg.value > 0, \"Ether amount must be greater than zero\") */\n      tag_151\n      jumpi\n      mload(0x40)\n      shl(0xe5, 0x461bcd)\n      dup2\n      mstore\n        /* \"#utility.yul\":3443:3445   */\n      0x20\n        /* \"contracts/token factory/Migrator.sol\":5715:5779  require(msg.value > 0, \"Ether amount must be greater than zero\") */\n      0x04\n      dup3\n      add\n        /* \"#utility.yul\":3425:3446   */\n      mstore\n        /* \"#utility.yul\":3482:3484   */\n      0x26\n        /* \"#utility.yul\":3462:3480   */\n      0x24\n      dup3\n      add\n        /* \"#utility.yul\":3455:3485   */\n      mstore\n        /* \"#utility.yul\":3521:3555   */\n      0x457468657220616d6f756e74206d757374206265206772656174657220746861\n        /* \"#utility.yul\":3501:3519   */\n      0x44\n      dup3\n      add\n        /* \"#utility.yul\":3494:3556   */\n      mstore\n      shl(0xd0, 0x6e207a65726f)\n        /* \"#utility.yul\":3572:3590   */\n      0x64\n      dup3\n      add\n        /* \"#utility.yul\":3565:3601   */\n      mstore\n        /* \"#utility.yul\":3618:3637   */\n      0x84\n      add\n        /* \"contracts/token factory/Migrator.sol\":5715:5779  require(msg.value > 0, \"Ether amount must be greater than zero\") */\n      tag_144\n        /* \"#utility.yul\":3241:3643   */\n      jump\n        /* \"contracts/token factory/Migrator.sol\":5715:5779  require(msg.value > 0, \"Ether amount must be greater than zero\") */\n    tag_151:\n        /* \"contracts/token factory/Migrator.sol\":5807:5808  0 */\n      0x00\n        /* \"contracts/token factory/Migrator.sol\":5793:5804  tokenAmount */\n      dup3\n        /* \"contracts/token factory/Migrator.sol\":5793:5808  tokenAmount > 0 */\n      gt\n        /* \"contracts/token factory/Migrator.sol\":5785:5851  require(tokenAmount > 0, \"Token amount must be greater than zero\") */\n      tag_154\n      jumpi\n      mload(0x40)\n      shl(0xe5, 0x461bcd)\n      dup2\n      mstore\n        /* \"#utility.yul\":3850:3852   */\n      0x20\n        /* \"contracts/token factory/Migrator.sol\":5785:5851  require(tokenAmount > 0, \"Token amount must be greater than zero\") */\n      0x04\n      dup3\n      add\n        /* \"#utility.yul\":3832:3853   */\n      mstore\n        /* \"#utility.yul\":3889:3891   */\n      0x26\n        /* \"#utility.yul\":3869:3887   */\n      0x24\n      dup3\n      add\n        /* \"#utility.yul\":3862:3892   */\n      mstore\n        /* \"#utility.yul\":3928:3962   */\n      0x546f6b656e20616d6f756e74206d757374206265206772656174657220746861\n        /* \"#utility.yul\":3908:3926   */\n      0x44\n      dup3\n      add\n        /* \"#utility.yul\":3901:3963   */\n      mstore\n      shl(0xd0, 0x6e207a65726f)\n        /* \"#utility.yul\":3979:3997   */\n      0x64\n      dup3\n      add\n        /* \"#utility.yul\":3972:4008   */\n      mstore\n        /* \"#utility.yul\":4025:4044   */\n      0x84\n      add\n        /* \"contracts/token factory/Migrator.sol\":5785:5851  require(tokenAmount > 0, \"Token amount must be greater than zero\") */\n      tag_144\n        /* \"#utility.yul\":3648:4050   */\n      jump\n        /* \"contracts/token factory/Migrator.sol\":5785:5851  require(tokenAmount > 0, \"Token amount must be greater than zero\") */\n    tag_154:\n        /* \"contracts/token factory/Migrator.sol\":5857:5882  uint256 tokenAmountDAOTax */\n      0x00\n        /* \"contracts/token factory/Migrator.sol\":5905:5907  30 */\n      0x1e\n        /* \"contracts/token factory/Migrator.sol\":5886:5902  tokenAmount*1000 */\n      tag_157\n        /* \"contracts/token factory/Migrator.sol\":5886:5897  tokenAmount */\n      dup5\n        /* \"contracts/token factory/Migrator.sol\":5898:5902  1000 */\n      0x03e8\n        /* \"contracts/token factory/Migrator.sol\":5886:5902  tokenAmount*1000 */\n      tag_158\n      jump\t// in\n    tag_157:\n        /* \"contracts/token factory/Migrator.sol\":5885:5907  (tokenAmount*1000) /30 */\n      tag_159\n      swap2\n      swap1\n      tag_160\n      jump\t// in\n    tag_159:\n        /* \"contracts/token factory/Migrator.sol\":5857:5907  uint256 tokenAmountDAOTax = (tokenAmount*1000) /30 */\n      swap1\n      pop\n        /* \"contracts/token factory/Migrator.sol\":5914:5941  uint256 tokenAmountAfterTax */\n      0x00\n        /* \"contracts/token factory/Migrator.sol\":5944:5975  tokenAmount - tokenAmountDAOTax */\n      tag_161\n        /* \"contracts/token factory/Migrator.sol\":5857:5907  uint256 tokenAmountDAOTax = (tokenAmount*1000) /30 */\n      dup3\n        /* \"contracts/token factory/Migrator.sol\":5944:5955  tokenAmount */\n      dup6\n        /* \"contracts/token factory/Migrator.sol\":5944:5975  tokenAmount - tokenAmountDAOTax */\n      tag_162\n      jump\t// in\n    tag_161:\n        /* \"contracts/token factory/Migrator.sol\":5983:6002  listOfWinningTokens */\n      0x09\n        /* \"contracts/token factory/Migrator.sol\":5983:6014  listOfWinningTokens.push(token) */\n      dup1\n      sload\n      0x01\n      dup2\n      add\n      swap1\n      swap2\n      sstore\n      0x6e1540171b6c0c960b71a7020d9f60077f6af931a8bbf590da0223dacf75c7af\n      add\n      dup1\n      sload\n      not(sub(shl(0xa0, 0x01), 0x01))\n      and\n      sub(shl(0xa0, 0x01), 0x01)\n      dup9\n      and\n      swap1\n      dup2\n      or\n      swap1\n      swap2\n      sstore\n      0x00\n        /* \"contracts/token factory/Migrator.sol\":6021:6047  winningTokensAmount[token] */\n      swap1\n      dup2\n      mstore\n        /* \"contracts/token factory/Migrator.sol\":6021:6040  winningTokensAmount */\n      0x0b\n        /* \"contracts/token factory/Migrator.sol\":5983:6014  listOfWinningTokens.push(token) */\n      0x20\n        /* \"contracts/token factory/Migrator.sol\":6021:6047  winningTokensAmount[token] */\n      mstore\n      0x40\n      dup2\n      keccak256\n        /* \"contracts/token factory/Migrator.sol\":6021:6067  winningTokensAmount[token] = tokenAmountDAOTax */\n      dup5\n      swap1\n      sstore\n        /* \"contracts/token factory/Migrator.sol\":5914:5975  uint256 tokenAmountAfterTax = tokenAmount - tokenAmountDAOTax */\n      swap1\n      swap2\n      pop\n        /* \"contracts/token factory/Migrator.sol\":3694:3715  21_000_000_000 * 1e18 */\n      0x43dacaf91c1a84ff08000000\n        /* \"contracts/token factory/Migrator.sol\":6140:6177  tokenAmountAfterTax > MAX_TOKEN_LIMIT */\n      dup3\n      gt\n        /* \"contracts/token factory/Migrator.sol\":6140:6217  tokenAmountAfterTax > MAX_TOKEN_LIMIT ? MAX_TOKEN_LIMIT : tokenAmountAfterTax */\n      tag_164\n      jumpi\n        /* \"contracts/token factory/Migrator.sol\":6198:6217  tokenAmountAfterTax */\n      dup2\n        /* \"contracts/token factory/Migrator.sol\":6140:6217  tokenAmountAfterTax > MAX_TOKEN_LIMIT ? MAX_TOKEN_LIMIT : tokenAmountAfterTax */\n      jump(tag_165)\n    tag_164:\n        /* \"contracts/token factory/Migrator.sol\":3694:3715  21_000_000_000 * 1e18 */\n      0x43dacaf91c1a84ff08000000\n        /* \"contracts/token factory/Migrator.sol\":6140:6217  tokenAmountAfterTax > MAX_TOKEN_LIMIT ? MAX_TOKEN_LIMIT : tokenAmountAfterTax */\n    tag_165:\n        /* \"contracts/token factory/Migrator.sol\":6110:6217  uint256 adjustedTokenAmount = tokenAmountAfterTax > MAX_TOKEN_LIMIT ? MAX_TOKEN_LIMIT : tokenAmountAfterTax */\n      swap1\n      pop\n        /* \"contracts/token factory/Migrator.sol\":6223:6246  uint256 amountToCollect */\n      0x00\n        /* \"contracts/token factory/Migrator.sol\":6269:6294  percentageToDistributeETH */\n      sload(0x08)\n        /* \"contracts/token factory/Migrator.sol\":6250:6259  msg.value */\n      callvalue\n        /* \"contracts/token factory/Migrator.sol\":6262:6266  1000 */\n      0x03e8\n        /* \"contracts/token factory/Migrator.sol\":6250:6266  msg.value * 1000 */\n      tag_166\n      swap2\n      swap1\n      tag_158\n      jump\t// in\n    tag_166:\n        /* \"contracts/token factory/Migrator.sol\":6249:6294  (msg.value * 1000) /percentageToDistributeETH */\n      tag_167\n      swap2\n      swap1\n      tag_160\n      jump\t// in\n    tag_167:\n        /* \"contracts/token factory/Migrator.sol\":6223:6294  uint256 amountToCollect = (msg.value * 1000) /percentageToDistributeETH */\n      swap1\n      pop\n        /* \"contracts/token factory/Migrator.sol\":6324:6339  amountToCollect */\n      dup1\n        /* \"contracts/token factory/Migrator.sol\":6301:6320  etherToRedistribute */\n      0x06\n      0x00\n        /* \"contracts/token factory/Migrator.sol\":6301:6339  etherToRedistribute += amountToCollect */\n      dup3\n      dup3\n      sload\n      tag_168\n      swap2\n      swap1\n      tag_169\n      jump\t// in\n    tag_168:\n      swap1\n      swap2\n      sstore\n      pop\n        /* \"contracts/token factory/Migrator.sol\":6346:6371  uint256 adjustedEthAmount */\n      0x00\n      swap1\n      pop\n        /* \"contracts/token factory/Migrator.sol\":3610:3618  10 ether */\n      0x8ac7230489e80000\n        /* \"contracts/token factory/Migrator.sol\":6374:6383  msg.value */\n      callvalue\n        /* \"contracts/token factory/Migrator.sol\":6374:6399  msg.value > MAX_ETH_LIMIT */\n      gt\n        /* \"contracts/token factory/Migrator.sol\":6374:6446  msg.value > MAX_ETH_LIMIT ? MAX_ETH_LIMIT : msg.value  - amountToCollect */\n      tag_170\n      jumpi\n        /* \"contracts/token factory/Migrator.sol\":6418:6446  msg.value  - amountToCollect */\n      tag_171\n        /* \"contracts/token factory/Migrator.sol\":6431:6446  amountToCollect */\n      dup3\n        /* \"contracts/token factory/Migrator.sol\":6418:6427  msg.value */\n      callvalue\n        /* \"contracts/token factory/Migrator.sol\":6418:6446  msg.value  - amountToCollect */\n      tag_162\n      jump\t// in\n    tag_171:\n        /* \"contracts/token factory/Migrator.sol\":6374:6446  msg.value > MAX_ETH_LIMIT ? MAX_ETH_LIMIT : msg.value  - amountToCollect */\n      jump(tag_172)\n    tag_170:\n        /* \"contracts/token factory/Migrator.sol\":3610:3618  10 ether */\n      0x8ac7230489e80000\n        /* \"contracts/token factory/Migrator.sol\":6374:6446  msg.value > MAX_ETH_LIMIT ? MAX_ETH_LIMIT : msg.value  - amountToCollect */\n    tag_172:\n        /* \"contracts/token factory/Migrator.sol\":6346:6446  uint256 adjustedEthAmount = msg.value > MAX_ETH_LIMIT ? MAX_ETH_LIMIT : msg.value  - amountToCollect */\n      swap1\n      pop\n        /* \"contracts/token factory/Migrator.sol\":6461:6465  WETH */\n      0x02\n      0x00\n      swap1\n      sload\n      swap1\n      0x0100\n      exp\n      swap1\n      div\n      sub(shl(0xa0, 0x01), 0x01)\n      and\n      sub(shl(0xa0, 0x01), 0x01)\n        /* \"contracts/token factory/Migrator.sol\":6455:6474  IWETH(WETH).deposit */\n      and\n      0xd0e30db0\n        /* \"contracts/token factory/Migrator.sol\":6482:6499  adjustedEthAmount */\n      dup3\n        /* \"contracts/token factory/Migrator.sol\":6455:6502  IWETH(WETH).deposit{value: adjustedEthAmount}() */\n      mload(0x40)\n      dup3\n      0xffffffff\n      and\n      0xe0\n      shl\n      dup2\n      mstore\n      0x04\n      add\n      0x00\n      mload(0x40)\n      dup1\n      dup4\n      sub\n      dup2\n      dup6\n      dup9\n      dup1\n      extcodesize\n      iszero\n      dup1\n      iszero\n      tag_173\n      jumpi\n      0x00\n      dup1\n      revert\n    tag_173:\n      pop\n      gas\n      call\n      iszero\n      dup1\n      iszero\n      tag_175\n      jumpi\n      returndatasize\n      0x00\n      dup1\n      returndatacopy\n      revert(0x00, returndatasize)\n    tag_175:\n      pop\n      pop\n        /* \"contracts/token factory/Migrator.sol\":6536:6540  WETH */\n      sload(0x02)\n        /* \"contracts/token factory/Migrator.sol\":6530:6566  IWETH(WETH).balanceOf(address(this)) */\n      mload(0x40)\n      shl(0xe0, 0x70a08231)\n      dup2\n      mstore\n        /* \"contracts/token factory/Migrator.sol\":6560:6564  this */\n      address\n        /* \"contracts/token factory/Migrator.sol\":6530:6566  IWETH(WETH).balanceOf(address(this)) */\n      0x04\n      dup3\n      add\n        /* \"#utility.yul\":1029:1080   */\n      mstore\n        /* \"contracts/token factory/Migrator.sol\":6508:6527  uint256 wethBalance */\n      0x00\n      swap5\n      pop\n      sub(shl(0xa0, 0x01), 0x01)\n        /* \"contracts/token factory/Migrator.sol\":6536:6540  WETH */\n      swap1\n      swap2\n      and\n      swap3\n      pop\n        /* \"contracts/token factory/Migrator.sol\":6530:6551  IWETH(WETH).balanceOf */\n      0x70a08231\n      swap2\n      pop\n        /* \"#utility.yul\":1002:1020   */\n      0x24\n      add\n        /* \"contracts/token factory/Migrator.sol\":6530:6566  IWETH(WETH).balanceOf(address(this)) */\n      0x20\n      mload(0x40)\n      dup1\n      dup4\n      sub\n      dup2\n      dup7\n      gas\n      staticcall\n      iszero\n      dup1\n      iszero\n      tag_178\n      jumpi\n      returndatasize\n      0x00\n      dup1\n      returndatacopy\n      revert(0x00, returndatasize)\n    tag_178:\n      pop\n      pop\n      pop\n      pop\n      mload(0x40)\n      returndatasize\n      not(0x1f)\n      0x1f\n      dup3\n      add\n      and\n      dup3\n      add\n      dup1\n      0x40\n      mstore\n      pop\n      dup2\n      add\n      swap1\n      tag_179\n      swap2\n      swap1\n      tag_180\n      jump\t// in\n    tag_179:\n        /* \"contracts/token factory/Migrator.sol\":6508:6566  uint256 wethBalance = IWETH(WETH).balanceOf(address(this)) */\n      swap1\n      pop\n        /* \"contracts/token factory/Migrator.sol\":6595:6612  adjustedEthAmount */\n      dup2\n        /* \"contracts/token factory/Migrator.sol\":6580:6591  wethBalance */\n      dup2\n        /* \"contracts/token factory/Migrator.sol\":6580:6612  wethBalance >= adjustedEthAmount */\n      lt\n      iszero\n        /* \"contracts/token factory/Migrator.sol\":6572:6647  require(wethBalance >= adjustedEthAmount, \"Failed to wrap Ether into WETH\") */\n      tag_181\n      jumpi\n      mload(0x40)\n      shl(0xe5, 0x461bcd)\n      dup2\n      mstore\n        /* \"#utility.yul\":5282:5284   */\n      0x20\n        /* \"contracts/token factory/Migrator.sol\":6572:6647  require(wethBalance >= adjustedEthAmount, \"Failed to wrap Ether into WETH\") */\n      0x04\n      dup3\n      add\n        /* \"#utility.yul\":5264:5285   */\n      mstore\n        /* \"#utility.yul\":5321:5323   */\n      0x1e\n        /* \"#utility.yul\":5301:5319   */\n      0x24\n      dup3\n      add\n        /* \"#utility.yul\":5294:5324   */\n      mstore\n        /* \"#utility.yul\":5360:5392   */\n      0x4661696c656420746f207772617020457468657220696e746f20574554480000\n        /* \"#utility.yul\":5340:5358   */\n      0x44\n      dup3\n      add\n        /* \"#utility.yul\":5333:5393   */\n      mstore\n        /* \"#utility.yul\":5410:5428   */\n      0x64\n      add\n        /* \"contracts/token factory/Migrator.sol\":6572:6647  require(wethBalance >= adjustedEthAmount, \"Failed to wrap Ether into WETH\") */\n      tag_144\n        /* \"#utility.yul\":5080:5434   */\n      jump\n        /* \"contracts/token factory/Migrator.sol\":6572:6647  require(wethBalance >= adjustedEthAmount, \"Failed to wrap Ether into WETH\") */\n    tag_181:\n        /* \"contracts/token factory/Migrator.sol\":6654:6724  token.safeTransferFrom(msg.sender, address(this), adjustedTokenAmount) */\n      tag_184\n      sub(shl(0xa0, 0x01), 0x01)\n        /* \"contracts/token factory/Migrator.sol\":6654:6676  token.safeTransferFrom */\n      dup11\n      and\n        /* \"contracts/token factory/Migrator.sol\":6677:6687  msg.sender */\n      caller\n        /* \"contracts/token factory/Migrator.sol\":6697:6701  this */\n      address\n        /* \"contracts/token factory/Migrator.sol\":6704:6723  adjustedTokenAmount */\n      dup8\n        /* \"contracts/token factory/Migrator.sol\":6654:6676  token.safeTransferFrom */\n      tag_185\n        /* \"contracts/token factory/Migrator.sol\":6654:6724  token.safeTransferFrom(msg.sender, address(this), adjustedTokenAmount) */\n      jump\t// in\n    tag_184:\n        /* \"contracts/token factory/Migrator.sol\":6757:6761  WETH */\n      sload(0x02)\n        /* \"contracts/token factory/Migrator.sol\":6731:6745  address token0 */\n      0x00\n      swap1\n      sub(shl(0xa0, 0x01), 0x01)\n        /* \"contracts/token factory/Migrator.sol\":6757:6761  WETH */\n      swap1\n      dup2\n      and\n        /* \"contracts/token factory/Migrator.sol\":6749:6761  token < WETH */\n      swap1\n      dup12\n      and\n      lt\n        /* \"contracts/token factory/Migrator.sol\":6748:6777  (token < WETH) ? token : WETH */\n      tag_186\n      jumpi\n        /* \"contracts/token factory/Migrator.sol\":6773:6777  WETH */\n      and(sub(shl(0xa0, 0x01), 0x01), sload(0x02))\n        /* \"contracts/token factory/Migrator.sol\":6748:6777  (token < WETH) ? token : WETH */\n      jump(tag_187)\n    tag_186:\n        /* \"contracts/token factory/Migrator.sol\":6765:6770  token */\n      dup10\n        /* \"contracts/token factory/Migrator.sol\":6748:6777  (token < WETH) ? token : WETH */\n    tag_187:\n        /* \"contracts/token factory/Migrator.sol\":6809:6813  WETH */\n      sload(0x02)\n        /* \"contracts/token factory/Migrator.sol\":6731:6777  address token0 = (token < WETH) ? token : WETH */\n      swap1\n      swap2\n      pop\n        /* \"contracts/token factory/Migrator.sol\":6783:6797  address token1 */\n      0x00\n      swap1\n      sub(shl(0xa0, 0x01), 0x01)\n        /* \"contracts/token factory/Migrator.sol\":6809:6813  WETH */\n      swap1\n      dup2\n      and\n        /* \"contracts/token factory/Migrator.sol\":6801:6813  token < WETH */\n      swap1\n      dup13\n      and\n      lt\n        /* \"contracts/token factory/Migrator.sol\":6800:6829  (token < WETH) ? WETH : token */\n      tag_188\n      jumpi\n        /* \"contracts/token factory/Migrator.sol\":6824:6829  token */\n      dup11\n        /* \"contracts/token factory/Migrator.sol\":6800:6829  (token < WETH) ? WETH : token */\n      jump(tag_189)\n    tag_188:\n        /* \"contracts/token factory/Migrator.sol\":6817:6821  WETH */\n      and(sub(shl(0xa0, 0x01), 0x01), sload(0x02))\n        /* \"contracts/token factory/Migrator.sol\":6800:6829  (token < WETH) ? WETH : token */\n    tag_189:\n        /* \"contracts/token factory/Migrator.sol\":6783:6829  address token1 = (token < WETH) ? WETH : token */\n      swap1\n      pop\n        /* \"contracts/token factory/Migrator.sol\":6836:6856  uint160 sqrtPriceX96 */\n      0x00\n        /* \"contracts/token factory/Migrator.sol\":6859:6920  calculateSqrtPriceX96(adjustedTokenAmount, adjustedEthAmount) */\n      tag_190\n        /* \"contracts/token factory/Migrator.sol\":6881:6900  adjustedTokenAmount */\n      dup8\n        /* \"contracts/token factory/Migrator.sol\":6902:6919  adjustedEthAmount */\n      dup7\n        /* \"contracts/token factory/Migrator.sol\":6859:6880  calculateSqrtPriceX96 */\n      tag_105\n        /* \"contracts/token factory/Migrator.sol\":6859:6920  calculateSqrtPriceX96(adjustedTokenAmount, adjustedEthAmount) */\n      jump\t// in\n    tag_190:\n        /* \"contracts/token factory/Migrator.sol\":6973:6987  algebraUnified */\n      sload(0x01)\n        /* \"contracts/token factory/Migrator.sol\":6957:7103  IAlgebraUnified(algebraUnified).createAndInitializePoolIfNecessary(... */\n      mload(0x40)\n      shl(0xe1, 0x43a9d0cd)\n      dup2\n      mstore\n      sub(shl(0xa0, 0x01), 0x01)\n        /* \"#utility.yul\":5688:5720   */\n      dup7\n      dup2\n      and\n        /* \"contracts/token factory/Migrator.sol\":6957:7103  IAlgebraUnified(algebraUnified).createAndInitializePoolIfNecessary(... */\n      0x04\n      dup4\n      add\n        /* \"#utility.yul\":5670:5721   */\n      mstore\n        /* \"#utility.yul\":5757:5789   */\n      dup6\n      dup2\n      and\n        /* \"#utility.yul\":5737:5755   */\n      0x24\n      dup4\n      add\n        /* \"#utility.yul\":5730:5790   */\n      mstore\n        /* \"contracts/token factory/Migrator.sol\":6973:6987  algebraUnified */\n      0x00\n        /* \"#utility.yul\":5806:5824   */\n      0x44\n      dup4\n      add\n        /* \"#utility.yul\":5799:5859   */\n      mstore\n        /* \"#utility.yul\":5895:5927   */\n      dup1\n      dup5\n      and\n        /* \"#utility.yul\":5875:5893   */\n      0x64\n      dup4\n      add\n        /* \"#utility.yul\":5868:5928   */\n      mstore\n        /* \"contracts/token factory/Migrator.sol\":6836:6920  uint160 sqrtPriceX96 = calculateSqrtPriceX96(adjustedTokenAmount, adjustedEthAmount) */\n      swap3\n      swap4\n      pop\n        /* \"contracts/token factory/Migrator.sol\":6973:6987  algebraUnified */\n      swap2\n      and\n      swap1\n        /* \"contracts/token factory/Migrator.sol\":6957:7023  IAlgebraUnified(algebraUnified).createAndInitializePoolIfNecessary */\n      0x8753a19a\n      swap1\n        /* \"#utility.yul\":5642:5661   */\n      0x84\n      add\n        /* \"contracts/token factory/Migrator.sol\":6957:7103  IAlgebraUnified(algebraUnified).createAndInitializePoolIfNecessary(... */\n      0x20\n      mload(0x40)\n      dup1\n      dup4\n      sub\n      dup2\n      0x00\n      dup8\n      gas\n      call\n      iszero\n      dup1\n      iszero\n      tag_194\n      jumpi\n      returndatasize\n      0x00\n      dup1\n      returndatacopy\n      revert(0x00, returndatasize)\n    tag_194:\n      pop\n      pop\n      pop\n      pop\n      mload(0x40)\n      returndatasize\n      not(0x1f)\n      0x1f\n      dup3\n      add\n      and\n      dup3\n      add\n      dup1\n      0x40\n      mstore\n      pop\n      dup2\n      add\n      swap1\n      tag_195\n      swap2\n      swap1\n      tag_196\n      jump\t// in\n    tag_195:\n        /* \"contracts/token factory/Migrator.sol\":6950:7103  pool = IAlgebraUnified(algebraUnified).createAndInitializePoolIfNecessary(... */\n      swap10\n      pop\n      sub(shl(0xa0, 0x01), 0x01)\n        /* \"contracts/token factory/Migrator.sol\":7118:7136  pool != address(0) */\n      dup11\n      and\n        /* \"contracts/token factory/Migrator.sol\":7110:7170  require(pool != address(0), \"Failed to create Algebra pool\") */\n      tag_197\n      jumpi\n      mload(0x40)\n      shl(0xe5, 0x461bcd)\n      dup2\n      mstore\n        /* \"#utility.yul\":6397:6399   */\n      0x20\n        /* \"contracts/token factory/Migrator.sol\":7110:7170  require(pool != address(0), \"Failed to create Algebra pool\") */\n      0x04\n      dup3\n      add\n        /* \"#utility.yul\":6379:6400   */\n      mstore\n        /* \"#utility.yul\":6436:6438   */\n      0x1d\n        /* \"#utility.yul\":6416:6434   */\n      0x24\n      dup3\n      add\n        /* \"#utility.yul\":6409:6439   */\n      mstore\n        /* \"#utility.yul\":6475:6506   */\n      0x4661696c656420746f2063726561746520416c676562726120706f6f6c000000\n        /* \"#utility.yul\":6455:6473   */\n      0x44\n      dup3\n      add\n        /* \"#utility.yul\":6448:6507   */\n      mstore\n        /* \"#utility.yul\":6524:6542   */\n      0x64\n      add\n        /* \"contracts/token factory/Migrator.sol\":7110:7170  require(pool != address(0), \"Failed to create Algebra pool\") */\n      tag_144\n        /* \"#utility.yul\":6195:6548   */\n      jump\n        /* \"contracts/token factory/Migrator.sol\":7110:7170  require(pool != address(0), \"Failed to create Algebra pool\") */\n    tag_197:\n        /* \"contracts/token factory/Migrator.sol\":7208:7213  token */\n      dup12\n      sub(shl(0xa0, 0x01), 0x01)\n        /* \"contracts/token factory/Migrator.sol\":7181:7254  MigrationInitialized(pool, token, adjustedTokenAmount, adjustedEthAmount) */\n      and\n        /* \"contracts/token factory/Migrator.sol\":7202:7206  pool */\n      dup11\n      sub(shl(0xa0, 0x01), 0x01)\n        /* \"contracts/token factory/Migrator.sol\":7181:7254  MigrationInitialized(pool, token, adjustedTokenAmount, adjustedEthAmount) */\n      and\n      0x0bc269b08661fa7948aabbb2ac773747166492e0ac63735b66898001e237a1bc\n        /* \"contracts/token factory/Migrator.sol\":7215:7234  adjustedTokenAmount */\n      dup10\n        /* \"contracts/token factory/Migrator.sol\":7236:7253  adjustedEthAmount */\n      dup9\n        /* \"contracts/token factory/Migrator.sol\":7181:7254  MigrationInitialized(pool, token, adjustedTokenAmount, adjustedEthAmount) */\n      mload(0x40)\n      tag_200\n      swap3\n      swap2\n      swap1\n        /* \"#utility.yul\":6727:6752   */\n      swap2\n      dup3\n      mstore\n        /* \"#utility.yul\":6783:6785   */\n      0x20\n        /* \"#utility.yul\":6768:6786   */\n      dup3\n      add\n        /* \"#utility.yul\":6761:6795   */\n      mstore\n        /* \"#utility.yul\":6715:6717   */\n      0x40\n        /* \"#utility.yul\":6700:6718   */\n      add\n      swap1\n        /* \"#utility.yul\":6553:6801   */\n      jump\n        /* \"contracts/token factory/Migrator.sol\":7181:7254  MigrationInitialized(pool, token, adjustedTokenAmount, adjustedEthAmount) */\n    tag_200:\n      mload(0x40)\n      dup1\n      swap2\n      sub\n      swap1\n      log3\n        /* \"contracts/token factory/Migrator.sol\":7279:7293  algebraUnified */\n      sload(0x01)\n        /* \"contracts/token factory/Migrator.sol\":7261:7315  token.safeApprove(algebraUnified, adjustedTokenAmount) */\n      tag_202\n      swap1\n      sub(shl(0xa0, 0x01), 0x01)\n        /* \"contracts/token factory/Migrator.sol\":7261:7278  token.safeApprove */\n      dup15\n      dup2\n      and\n      swap2\n        /* \"contracts/token factory/Migrator.sol\":7279:7293  algebraUnified */\n      and\n        /* \"contracts/token factory/Migrator.sol\":7295:7314  adjustedTokenAmount */\n      dup10\n        /* \"contracts/token factory/Migrator.sol\":7261:7278  token.safeApprove */\n      tag_203\n        /* \"contracts/token factory/Migrator.sol\":7261:7315  token.safeApprove(algebraUnified, adjustedTokenAmount) */\n      jump\t// in\n    tag_202:\n        /* \"contracts/token factory/Migrator.sol\":7338:7352  algebraUnified */\n      sload(0x01)\n        /* \"contracts/token factory/Migrator.sol\":7321:7325  WETH */\n      sload(0x02)\n        /* \"contracts/token factory/Migrator.sol\":7321:7366  WETH.safeApprove(algebraUnified, wethBalance) */\n      tag_204\n      swap2\n      sub(shl(0xa0, 0x01), 0x01)\n        /* \"contracts/token factory/Migrator.sol\":7321:7325  WETH */\n      swap2\n      dup3\n      and\n      swap2\n        /* \"contracts/token factory/Migrator.sol\":7338:7352  algebraUnified */\n      and\n        /* \"contracts/token factory/Migrator.sol\":7354:7365  wethBalance */\n      dup7\n        /* \"contracts/token factory/Migrator.sol\":7321:7337  WETH.safeApprove */\n      tag_203\n        /* \"contracts/token factory/Migrator.sol\":7321:7366  WETH.safeApprove(algebraUnified, wethBalance) */\n      jump\t// in\n    tag_204:\n        /* \"contracts/token factory/Migrator.sol\":7373:7413  IAlgebraUnified.MintParams memory params */\n      0x00\n        /* \"contracts/token factory/Migrator.sol\":7416:7866  IAlgebraUnified.MintParams({... */\n      mload(0x40)\n      dup1\n      0x0160\n      add\n      0x40\n      mstore\n      dup1\n        /* \"contracts/token factory/Migrator.sol\":7461:7467  token0 */\n      dup6\n      sub(shl(0xa0, 0x01), 0x01)\n        /* \"contracts/token factory/Migrator.sol\":7416:7866  IAlgebraUnified.MintParams({... */\n      and\n      dup2\n      mstore\n      0x20\n      add\n        /* \"contracts/token factory/Migrator.sol\":7485:7491  token1 */\n      dup5\n      sub(shl(0xa0, 0x01), 0x01)\n        /* \"contracts/token factory/Migrator.sol\":7416:7866  IAlgebraUnified.MintParams({... */\n      and\n      dup2\n      mstore\n      0x20\n      add\n        /* \"contracts/token factory/Migrator.sol\":7519:7520  0 */\n      0x00\n      sub(shl(0xa0, 0x01), 0x01)\n        /* \"contracts/token factory/Migrator.sol\":7416:7866  IAlgebraUnified.MintParams({... */\n      and\n      dup2\n      mstore\n      0x20\n      add\n      signextend(0x02, not(0x0d89b3))\n      dup2\n      mstore\n      0x20\n      add\n        /* \"contracts/token factory/Migrator.sol\":3557:3563  887220 */\n      0x0d89b4\n        /* \"contracts/token factory/Migrator.sol\":7416:7866  IAlgebraUnified.MintParams({... */\n      0x02\n      signextend\n      dup2\n      mstore\n      0x20\n      add\n        /* \"contracts/token factory/Migrator.sol\":7616:7621  token */\n      dup15\n      sub(shl(0xa0, 0x01), 0x01)\n        /* \"contracts/token factory/Migrator.sol\":7606:7621  token0 == token */\n      and\n        /* \"contracts/token factory/Migrator.sol\":7606:7612  token0 */\n      dup7\n      sub(shl(0xa0, 0x01), 0x01)\n        /* \"contracts/token factory/Migrator.sol\":7606:7621  token0 == token */\n      and\n      eq\n        /* \"contracts/token factory/Migrator.sol\":7605:7658  (token0 == token) ? adjustedTokenAmount : wethBalance */\n      tag_205\n      jumpi\n        /* \"contracts/token factory/Migrator.sol\":7647:7658  wethBalance */\n      dup7\n        /* \"contracts/token factory/Migrator.sol\":7605:7658  (token0 == token) ? adjustedTokenAmount : wethBalance */\n      jump(tag_206)\n    tag_205:\n        /* \"contracts/token factory/Migrator.sol\":7625:7644  adjustedTokenAmount */\n      dup10\n        /* \"contracts/token factory/Migrator.sol\":7605:7658  (token0 == token) ? adjustedTokenAmount : wethBalance */\n    tag_206:\n        /* \"contracts/token factory/Migrator.sol\":7416:7866  IAlgebraUnified.MintParams({... */\n      dup2\n      mstore\n      0x20\n      add\n        /* \"contracts/token factory/Migrator.sol\":7695:7700  token */\n      dup15\n      sub(shl(0xa0, 0x01), 0x01)\n        /* \"contracts/token factory/Migrator.sol\":7685:7700  token1 == token */\n      and\n        /* \"contracts/token factory/Migrator.sol\":7685:7691  token1 */\n      dup6\n      sub(shl(0xa0, 0x01), 0x01)\n        /* \"contracts/token factory/Migrator.sol\":7685:7700  token1 == token */\n      and\n      eq\n        /* \"contracts/token factory/Migrator.sol\":7684:7737  (token1 == token) ? wethBalance : adjustedTokenAmount */\n      tag_207\n      jumpi\n        /* \"contracts/token factory/Migrator.sol\":7718:7737  adjustedTokenAmount */\n      dup10\n        /* \"contracts/token factory/Migrator.sol\":7684:7737  (token1 == token) ? wethBalance : adjustedTokenAmount */\n      jump(tag_208)\n    tag_207:\n        /* \"contracts/token factory/Migrator.sol\":7704:7715  wethBalance */\n      dup7\n        /* \"contracts/token factory/Migrator.sol\":7684:7737  (token1 == token) ? wethBalance : adjustedTokenAmount */\n    tag_208:\n        /* \"contracts/token factory/Migrator.sol\":7416:7866  IAlgebraUnified.MintParams({... */\n      dup2\n      mstore\n        /* \"contracts/token factory/Migrator.sol\":7759:7760  0 */\n      0x00\n        /* \"contracts/token factory/Migrator.sol\":7416:7866  IAlgebraUnified.MintParams({... */\n      0x20\n      dup3\n      add\n      dup2\n      swap1\n      mstore\n      0x40\n      dup3\n      add\n      mstore\n        /* \"contracts/token factory/Migrator.sol\":7812:7816  this */\n      address\n        /* \"contracts/token factory/Migrator.sol\":7416:7866  IAlgebraUnified.MintParams({... */\n      0x60\n      dup3\n      add\n      mstore\n      0x80\n      add\n        /* \"contracts/token factory/Migrator.sol\":7837:7859  block.timestamp + 3600 */\n      tag_209\n        /* \"contracts/token factory/Migrator.sol\":7837:7852  block.timestamp */\n      timestamp\n        /* \"contracts/token factory/Migrator.sol\":7855:7859  3600 */\n      0x0e10\n        /* \"contracts/token factory/Migrator.sol\":7837:7859  block.timestamp + 3600 */\n      tag_169\n      jump\t// in\n    tag_209:\n        /* \"contracts/token factory/Migrator.sol\":7416:7866  IAlgebraUnified.MintParams({... */\n      swap1\n      mstore\n        /* \"contracts/token factory/Migrator.sol\":7947:7961  algebraUnified */\n      sload(0x01)\n        /* \"contracts/token factory/Migrator.sol\":7931:7975  IAlgebraUnified(algebraUnified).mint(params) */\n      mload(0x40)\n      shl(0xe0, 0xfe3f3be7)\n      dup2\n      mstore\n        /* \"contracts/token factory/Migrator.sol\":7373:7866  IAlgebraUnified.MintParams memory params = IAlgebraUnified.MintParams({... */\n      swap2\n      swap3\n      pop\n        /* \"contracts/token factory/Migrator.sol\":7876:7893  uint128 liquidity */\n      0x00\n      swap2\n      dup3\n      swap2\n      dup3\n      swap2\n      sub(shl(0xa0, 0x01), 0x01)\n        /* \"contracts/token factory/Migrator.sol\":7947:7961  algebraUnified */\n      swap1\n      swap2\n      and\n      swap1\n        /* \"contracts/token factory/Migrator.sol\":7931:7967  IAlgebraUnified(algebraUnified).mint */\n      0xfe3f3be7\n      swap1\n        /* \"contracts/token factory/Migrator.sol\":7931:7975  IAlgebraUnified(algebraUnified).mint(params) */\n      tag_210\n      swap1\n        /* \"contracts/token factory/Migrator.sol\":7373:7866  IAlgebraUnified.MintParams memory params = IAlgebraUnified.MintParams({... */\n      dup8\n      swap1\n        /* \"contracts/token factory/Migrator.sol\":7931:7975  IAlgebraUnified(algebraUnified).mint(params) */\n      0x04\n      add\n      tag_211\n      jump\t// in\n    tag_210:\n      0x80\n      mload(0x40)\n      dup1\n      dup4\n      sub\n      dup2\n      0x00\n      dup8\n      gas\n      call\n      iszero\n      dup1\n      iszero\n      tag_213\n      jumpi\n      returndatasize\n      0x00\n      dup1\n      returndatacopy\n      revert(0x00, returndatasize)\n    tag_213:\n      pop\n      pop\n      pop\n      pop\n      mload(0x40)\n      returndatasize\n      not(0x1f)\n      0x1f\n      dup3\n      add\n      and\n      dup3\n      add\n      dup1\n      0x40\n      mstore\n      pop\n      dup2\n      add\n      swap1\n      tag_214\n      swap2\n      swap1\n      tag_215\n      jump\t// in\n    tag_214:\n        /* \"contracts/token factory/Migrator.sol\":7873:7975  (, uint128 liquidity, uint256 amount0, uint256 amount1) = IAlgebraUnified(algebraUnified).mint(params) */\n      swap4\n      pop\n      swap4\n      pop\n      swap4\n      pop\n      pop\n        /* \"contracts/token factory/Migrator.sol\":8002:8003  0 */\n      0x00\n        /* \"contracts/token factory/Migrator.sol\":7990:7999  liquidity */\n      dup4\n      sub(shl(0x80, 0x01), 0x01)\n        /* \"contracts/token factory/Migrator.sol\":7990:8003  liquidity > 0 */\n      and\n      gt\n        /* \"contracts/token factory/Migrator.sol\":7982:8032  require(liquidity > 0, \"Failed to mint liquidity\") */\n      tag_216\n      jumpi\n      mload(0x40)\n      shl(0xe5, 0x461bcd)\n      dup2\n      mstore\n        /* \"#utility.yul\":8833:8835   */\n      0x20\n        /* \"contracts/token factory/Migrator.sol\":7982:8032  require(liquidity > 0, \"Failed to mint liquidity\") */\n      0x04\n      dup3\n      add\n        /* \"#utility.yul\":8815:8836   */\n      mstore\n        /* \"#utility.yul\":8872:8874   */\n      0x18\n        /* \"#utility.yul\":8852:8870   */\n      0x24\n      dup3\n      add\n        /* \"#utility.yul\":8845:8875   */\n      mstore\n        /* \"#utility.yul\":8911:8937   */\n      0x4661696c656420746f206d696e74206c69717569646974790000000000000000\n        /* \"#utility.yul\":8891:8909   */\n      0x44\n      dup3\n      add\n        /* \"#utility.yul\":8884:8938   */\n      mstore\n        /* \"#utility.yul\":8955:8973   */\n      0x64\n      add\n        /* \"contracts/token factory/Migrator.sol\":7982:8032  require(liquidity > 0, \"Failed to mint liquidity\") */\n      tag_144\n        /* \"#utility.yul\":8631:8979   */\n      jump\n        /* \"contracts/token factory/Migrator.sol\":7982:8032  require(liquidity > 0, \"Failed to mint liquidity\") */\n    tag_216:\n        /* \"contracts/token factory/Migrator.sol\":8043:8095  LiquidityAdded(pool, 0, liquidity, amount0, amount1) */\n      0x40\n      dup1\n      mload\n        /* \"contracts/token factory/Migrator.sol\":8064:8065  0 */\n      0x00\n        /* \"#utility.yul\":9223:9248   */\n      dup2\n      mstore\n      sub(shl(0x80, 0x01), 0x01)\n        /* \"#utility.yul\":9284:9331   */\n      dup6\n      and\n        /* \"#utility.yul\":9279:9281   */\n      0x20\n        /* \"#utility.yul\":9264:9282   */\n      dup3\n      add\n        /* \"#utility.yul\":9257:9332   */\n      mstore\n        /* \"#utility.yul\":9348:9366   */\n      swap1\n      dup2\n      add\n        /* \"#utility.yul\":9341:9375   */\n      dup4\n      swap1\n      mstore\n        /* \"#utility.yul\":9406:9408   */\n      0x60\n        /* \"#utility.yul\":9391:9409   */\n      dup2\n      add\n        /* \"#utility.yul\":9384:9418   */\n      dup3\n      swap1\n      mstore\n      sub(shl(0xa0, 0x01), 0x01)\n        /* \"contracts/token factory/Migrator.sol\":8043:8095  LiquidityAdded(pool, 0, liquidity, amount0, amount1) */\n      dup16\n      and\n      swap1\n      0x936f1605239d50a44520651cb0698a8f77eea34a13f43a4eac22872b1baf48cc\n      swap1\n        /* \"#utility.yul\":9210:9213   */\n      0x80\n        /* \"#utility.yul\":9195:9214   */\n      add\n        /* \"contracts/token factory/Migrator.sol\":8043:8095  LiquidityAdded(pool, 0, liquidity, amount0, amount1) */\n      mload(0x40)\n      dup1\n      swap2\n      sub\n      swap1\n      log2\n        /* \"contracts/token factory/Migrator.sol\":8102:8113  return pool */\n      pop\n      pop\n      pop\n      pop\n      pop\n      pop\n      pop\n      pop\n      pop\n      pop\n      pop\n      pop\n      pop\n        /* \"contracts/token factory/Migrator.sol\":5606:8158  function initiateMigration(address token, uint256 tokenAmount) external payable returns (address pool) {... */\n    tag_150:\n      swap3\n      swap2\n      pop\n      pop\n      jump\t// out\n        /* \"contracts/token factory/Migrator.sol\":10333:10557  function removeFromWhitelist(address account) external onlyOwner {... */\n    tag_92:\n        /* \"contracts/token factory/Migrator.sol\":4806:4811  owner */\n      and(sub(shl(0xa0, 0x01), 0x01), sload(0x00))\n        /* \"contracts/token factory/Migrator.sol\":4792:4802  msg.sender */\n      caller\n        /* \"contracts/token factory/Migrator.sol\":4792:4811  msg.sender == owner */\n      eq\n        /* \"contracts/token factory/Migrator.sol\":4784:4840  require(msg.sender == owner, \"Only owner can call this\") */\n      tag_223\n      jumpi\n      mload(0x40)\n      shl(0xe5, 0x461bcd)\n      dup2\n      mstore\n      0x04\n      add\n      tag_144\n      swap1\n      tag_145\n      jump\t// in\n    tag_223:\n      sub(shl(0xa0, 0x01), 0x01)\n        /* \"contracts/token factory/Migrator.sol\":10416:10434  whitelist[account] */\n      dup2\n      and\n      0x00\n      swap1\n      dup2\n      mstore\n        /* \"contracts/token factory/Migrator.sol\":10416:10425  whitelist */\n      0x0a\n        /* \"contracts/token factory/Migrator.sol\":10416:10434  whitelist[account] */\n      0x20\n      mstore\n      0x40\n      swap1\n      keccak256\n      sload\n      0xff\n      and\n        /* \"contracts/token factory/Migrator.sol\":10408:10463  require(whitelist[account], \"Address not in whitelist\") */\n      tag_226\n      jumpi\n      mload(0x40)\n      shl(0xe5, 0x461bcd)\n      dup2\n      mstore\n        /* \"#utility.yul\":9631:9633   */\n      0x20\n        /* \"contracts/token factory/Migrator.sol\":10408:10463  require(whitelist[account], \"Address not in whitelist\") */\n      0x04\n      dup3\n      add\n        /* \"#utility.yul\":9613:9634   */\n      mstore\n        /* \"#utility.yul\":9670:9672   */\n      0x18\n        /* \"#utility.yul\":9650:9668   */\n      0x24\n      dup3\n      add\n        /* \"#utility.yul\":9643:9673   */\n      mstore\n        /* \"#utility.yul\":9709:9735   */\n      0x41646472657373206e6f7420696e2077686974656c6973740000000000000000\n        /* \"#utility.yul\":9689:9707   */\n      0x44\n      dup3\n      add\n        /* \"#utility.yul\":9682:9736   */\n      mstore\n        /* \"#utility.yul\":9753:9771   */\n      0x64\n      add\n        /* \"contracts/token factory/Migrator.sol\":10408:10463  require(whitelist[account], \"Address not in whitelist\") */\n      tag_144\n        /* \"#utility.yul\":9429:9777   */\n      jump\n        /* \"contracts/token factory/Migrator.sol\":10408:10463  require(whitelist[account], \"Address not in whitelist\") */\n    tag_226:\n      sub(shl(0xa0, 0x01), 0x01)\n        /* \"contracts/token factory/Migrator.sol\":10473:10491  whitelist[account] */\n      dup2\n      and\n        /* \"contracts/token factory/Migrator.sol\":10494:10499  false */\n      0x00\n        /* \"contracts/token factory/Migrator.sol\":10473:10491  whitelist[account] */\n      dup2\n      dup2\n      mstore\n        /* \"contracts/token factory/Migrator.sol\":10473:10482  whitelist */\n      0x0a\n        /* \"contracts/token factory/Migrator.sol\":10473:10491  whitelist[account] */\n      0x20\n      mstore\n      0x40\n      dup1\n      dup3\n      keccak256\n        /* \"contracts/token factory/Migrator.sol\":10473:10499  whitelist[account] = false */\n      dup1\n      sload\n      not(0xff)\n      and\n      swap1\n      sstore\n        /* \"contracts/token factory/Migrator.sol\":10514:10550  AddressRemovedFromWhitelist(account) */\n      mload\n      0x535611fb62fa2a833988f283b779e417e996813e44046f521d76c17b5943b08c\n      swap2\n        /* \"contracts/token factory/Migrator.sol\":10494:10499  false */\n      swap1\n        /* \"contracts/token factory/Migrator.sol\":10514:10550  AddressRemovedFromWhitelist(account) */\n      log2\n        /* \"contracts/token factory/Migrator.sol\":10333:10557  function removeFromWhitelist(address account) external onlyOwner {... */\n      pop\n      jump\t// out\n        /* \"contracts/token factory/Migrator.sol\":8513:8930  function calculateSqrtPriceX96(uint256 tokenAmount, uint256 ethAmount) public pure returns (uint160) {... */\n    tag_105:\n        /* \"contracts/token factory/Migrator.sol\":8605:8612  uint160 */\n      0x00\n        /* \"contracts/token factory/Migrator.sol\":8624:8651  uint256 adjustedTokenAmount */\n      dup1\n        /* \"contracts/token factory/Migrator.sol\":3694:3715  21_000_000_000 * 1e18 */\n      0x43dacaf91c1a84ff08000000\n        /* \"contracts/token factory/Migrator.sol\":8654:8665  tokenAmount */\n      dup5\n        /* \"contracts/token factory/Migrator.sol\":8654:8683  tokenAmount > MAX_TOKEN_LIMIT */\n      gt\n        /* \"contracts/token factory/Migrator.sol\":8654:8715  tokenAmount > MAX_TOKEN_LIMIT ? MAX_TOKEN_LIMIT : tokenAmount */\n      tag_230\n      jumpi\n        /* \"contracts/token factory/Migrator.sol\":8704:8715  tokenAmount */\n      dup4\n        /* \"contracts/token factory/Migrator.sol\":8654:8715  tokenAmount > MAX_TOKEN_LIMIT ? MAX_TOKEN_LIMIT : tokenAmount */\n      jump(tag_231)\n    tag_230:\n        /* \"contracts/token factory/Migrator.sol\":3694:3715  21_000_000_000 * 1e18 */\n      0x43dacaf91c1a84ff08000000\n        /* \"contracts/token factory/Migrator.sol\":8654:8715  tokenAmount > MAX_TOKEN_LIMIT ? MAX_TOKEN_LIMIT : tokenAmount */\n    tag_231:\n        /* \"contracts/token factory/Migrator.sol\":8624:8715  uint256 adjustedTokenAmount = tokenAmount > MAX_TOKEN_LIMIT ? MAX_TOKEN_LIMIT : tokenAmount */\n      swap1\n      pop\n        /* \"contracts/token factory/Migrator.sol\":8725:8750  uint256 adjustedEthAmount */\n      0x00\n        /* \"contracts/token factory/Migrator.sol\":3610:3618  10 ether */\n      0x8ac7230489e80000\n        /* \"contracts/token factory/Migrator.sol\":8753:8762  ethAmount */\n      dup5\n        /* \"contracts/token factory/Migrator.sol\":8753:8778  ethAmount > MAX_ETH_LIMIT */\n      gt\n        /* \"contracts/token factory/Migrator.sol\":8753:8806  ethAmount > MAX_ETH_LIMIT ? MAX_ETH_LIMIT : ethAmount */\n      tag_232\n      jumpi\n        /* \"contracts/token factory/Migrator.sol\":8797:8806  ethAmount */\n      dup4\n        /* \"contracts/token factory/Migrator.sol\":8753:8806  ethAmount > MAX_ETH_LIMIT ? MAX_ETH_LIMIT : ethAmount */\n      jump(tag_233)\n    tag_232:\n        /* \"contracts/token factory/Migrator.sol\":3610:3618  10 ether */\n      0x8ac7230489e80000\n        /* \"contracts/token factory/Migrator.sol\":8753:8806  ethAmount > MAX_ETH_LIMIT ? MAX_ETH_LIMIT : ethAmount */\n    tag_233:\n        /* \"contracts/token factory/Migrator.sol\":8725:8806  uint256 adjustedEthAmount = ethAmount > MAX_ETH_LIMIT ? MAX_ETH_LIMIT : ethAmount */\n      swap1\n      pop\n        /* \"contracts/token factory/Migrator.sol\":8817:8830  uint256 ratio */\n      0x00\n        /* \"contracts/token factory/Migrator.sol\":8833:8880  (adjustedEthAmount << 96) / adjustedTokenAmount */\n      tag_234\n        /* \"contracts/token factory/Migrator.sol\":8861:8880  adjustedTokenAmount */\n      dup4\n        /* \"contracts/token factory/Migrator.sol\":8855:8857  96 */\n      0x60\n        /* \"contracts/token factory/Migrator.sol\":8834:8857  adjustedEthAmount << 96 */\n      dup5\n      swap1\n      shl\n        /* \"contracts/token factory/Migrator.sol\":8833:8880  (adjustedEthAmount << 96) / adjustedTokenAmount */\n      tag_160\n      jump\t// in\n    tag_234:\n        /* \"contracts/token factory/Migrator.sol\":8817:8880  uint256 ratio = (adjustedEthAmount << 96) / adjustedTokenAmount */\n      swap1\n      pop\n        /* \"contracts/token factory/Migrator.sol\":8920:8922  48 */\n      0x30\n        /* \"contracts/token factory/Migrator.sol\":8905:8916  sqrt(ratio) */\n      tag_235\n        /* \"contracts/token factory/Migrator.sol\":8910:8915  ratio */\n      dup3\n        /* \"contracts/token factory/Migrator.sol\":8905:8909  sqrt */\n      tag_236\n        /* \"contracts/token factory/Migrator.sol\":8905:8916  sqrt(ratio) */\n      jump\t// in\n    tag_235:\n        /* \"contracts/token factory/Migrator.sol\":8905:8922  sqrt(ratio) << 48 */\n      swap1\n      shl\n      swap7\n        /* \"contracts/token factory/Migrator.sol\":8513:8930  function calculateSqrtPriceX96(uint256 tokenAmount, uint256 ethAmount) public pure returns (uint160) {... */\n      swap6\n      pop\n      pop\n      pop\n      pop\n      pop\n      pop\n      jump\t// out\n        /* \"contracts/token factory/Migrator.sol\":3987:4023  address[] public listOfWinningTokens */\n    tag_116:\n      0x09\n      dup2\n      dup2\n      sload\n      dup2\n      lt\n      tag_237\n      jumpi\n      0x00\n      dup1\n      revert\n    tag_237:\n      0x00\n      swap2\n      dup3\n      mstore\n      0x20\n      swap1\n      swap2\n      keccak256\n      add\n      sload\n      sub(shl(0xa0, 0x01), 0x01)\n      and\n      swap1\n      pop\n      dup2\n      jump\t// out\n        /* \"contracts/token factory/Migrator.sol\":9759:10001  function emergencyWithdrawTokens(address token) external onlyOwner {... */\n    tag_125:\n        /* \"contracts/token factory/Migrator.sol\":4806:4811  owner */\n      and(sub(shl(0xa0, 0x01), 0x01), sload(0x00))\n        /* \"contracts/token factory/Migrator.sol\":4792:4802  msg.sender */\n      caller\n        /* \"contracts/token factory/Migrator.sol\":4792:4811  msg.sender == owner */\n      eq\n        /* \"contracts/token factory/Migrator.sol\":4784:4840  require(msg.sender == owner, \"Only owner can call this\") */\n      tag_240\n      jumpi\n      mload(0x40)\n      shl(0xe5, 0x461bcd)\n      dup2\n      mstore\n      0x04\n      add\n      tag_144\n      swap1\n      tag_145\n      jump\t// in\n    tag_240:\n        /* \"contracts/token factory/Migrator.sol\":9855:9893  IERC20(token).balanceOf(address(this)) */\n      mload(0x40)\n      shl(0xe0, 0x70a08231)\n      dup2\n      mstore\n        /* \"contracts/token factory/Migrator.sol\":9887:9891  this */\n      address\n        /* \"contracts/token factory/Migrator.sol\":9855:9893  IERC20(token).balanceOf(address(this)) */\n      0x04\n      dup3\n      add\n        /* \"#utility.yul\":1029:1080   */\n      mstore\n        /* \"contracts/token factory/Migrator.sol\":9832:9852  uint256 tokenBalance */\n      0x00\n      swap1\n      sub(shl(0xa0, 0x01), 0x01)\n        /* \"contracts/token factory/Migrator.sol\":9855:9878  IERC20(token).balanceOf */\n      dup4\n      and\n      swap1\n      0x70a08231\n      swap1\n        /* \"#utility.yul\":1002:1020   */\n      0x24\n      add\n        /* \"contracts/token factory/Migrator.sol\":9855:9893  IERC20(token).balanceOf(address(this)) */\n      0x20\n      mload(0x40)\n      dup1\n      dup4\n      sub\n      dup2\n      dup7\n      gas\n      staticcall\n      iszero\n      dup1\n      iszero\n      tag_245\n      jumpi\n      returndatasize\n      0x00\n      dup1\n      returndatacopy\n      revert(0x00, returndatasize)\n    tag_245:\n      pop\n      pop\n      pop\n      pop\n      mload(0x40)\n      returndatasize\n      not(0x1f)\n      0x1f\n      dup3\n      add\n      and\n      dup3\n      add\n      dup1\n      0x40\n      mstore\n      pop\n      dup2\n      add\n      swap1\n      tag_246\n      swap2\n      swap1\n      tag_180\n      jump\t// in\n    tag_246:\n        /* \"contracts/token factory/Migrator.sol\":9832:9893  uint256 tokenBalance = IERC20(token).balanceOf(address(this)) */\n      swap1\n      pop\n        /* \"contracts/token factory/Migrator.sol\":9922:9923  0 */\n      0x00\n        /* \"contracts/token factory/Migrator.sol\":9907:9919  tokenBalance */\n      dup2\n        /* \"contracts/token factory/Migrator.sol\":9907:9923  tokenBalance > 0 */\n      gt\n        /* \"contracts/token factory/Migrator.sol\":9899:9949  require(tokenBalance > 0, \"No tokens to withdraw\") */\n      tag_247\n      jumpi\n      mload(0x40)\n      shl(0xe5, 0x461bcd)\n      dup2\n      mstore\n        /* \"#utility.yul\":9984:9986   */\n      0x20\n        /* \"contracts/token factory/Migrator.sol\":9899:9949  require(tokenBalance > 0, \"No tokens to withdraw\") */\n      0x04\n      dup3\n      add\n        /* \"#utility.yul\":9966:9987   */\n      mstore\n        /* \"#utility.yul\":10023:10025   */\n      0x15\n        /* \"#utility.yul\":10003:10021   */\n      0x24\n      dup3\n      add\n        /* \"#utility.yul\":9996:10026   */\n      mstore\n      shl(0x58, 0x4e6f20746f6b656e7320746f207769746864726177)\n        /* \"#utility.yul\":10042:10060   */\n      0x44\n      dup3\n      add\n        /* \"#utility.yul\":10035:10086   */\n      mstore\n        /* \"#utility.yul\":10103:10121   */\n      0x64\n      add\n        /* \"contracts/token factory/Migrator.sol\":9899:9949  require(tokenBalance > 0, \"No tokens to withdraw\") */\n      tag_144\n        /* \"#utility.yul\":9782:10127   */\n      jump\n        /* \"contracts/token factory/Migrator.sol\":9899:9949  require(tokenBalance > 0, \"No tokens to withdraw\") */\n    tag_247:\n        /* \"contracts/token factory/Migrator.sol\":9978:9983  owner */\n      sload(0x00)\n        /* \"contracts/token factory/Migrator.sol\":9955:9998  IERC20(token).transfer(owner, tokenBalance) */\n      mload(0x40)\n      shl(0xe0, 0xa9059cbb)\n      dup2\n      mstore\n      sub(shl(0xa0, 0x01), 0x01)\n        /* \"contracts/token factory/Migrator.sol\":9978:9983  owner */\n      swap2\n      dup3\n      and\n        /* \"contracts/token factory/Migrator.sol\":9955:9998  IERC20(token).transfer(owner, tokenBalance) */\n      0x04\n      dup3\n      add\n        /* \"#utility.yul\":10306:10357   */\n      mstore\n        /* \"#utility.yul\":10373:10391   */\n      0x24\n      dup2\n      add\n        /* \"#utility.yul\":10366:10400   */\n      dup4\n      swap1\n      mstore\n        /* \"contracts/token factory/Migrator.sol\":9955:9977  IERC20(token).transfer */\n      swap1\n      dup4\n      and\n      swap1\n      0xa9059cbb\n      swap1\n        /* \"#utility.yul\":10279:10297   */\n      0x44\n      add\n        /* \"contracts/token factory/Migrator.sol\":9955:9998  IERC20(token).transfer(owner, tokenBalance) */\n      0x20\n      mload(0x40)\n      dup1\n      dup4\n      sub\n      dup2\n      0x00\n      dup8\n      gas\n      call\n      iszero\n      dup1\n      iszero\n      tag_253\n      jumpi\n      returndatasize\n      0x00\n      dup1\n      returndatacopy\n      revert(0x00, returndatasize)\n    tag_253:\n      pop\n      pop\n      pop\n      pop\n      mload(0x40)\n      returndatasize\n      not(0x1f)\n      0x1f\n      dup3\n      add\n      and\n      dup3\n      add\n      dup1\n      0x40\n      mstore\n      pop\n      dup2\n      add\n      swap1\n      tag_254\n      swap2\n      swap1\n      tag_255\n      jump\t// in\n    tag_254:\n      pop\n        /* \"contracts/token factory/Migrator.sol\":9826:10001  {... */\n      pop\n        /* \"contracts/token factory/Migrator.sol\":9759:10001  function emergencyWithdrawTokens(address token) external onlyOwner {... */\n      pop\n      jump\t// out\n        /* \"contracts/token factory/Migrator.sol\":10863:11399  function withdrawRewards() external onlyWhitelisted() {... */\n    tag_128:\n        /* \"contracts/token factory/Migrator.sol\":4921:4931  msg.sender */\n      caller\n        /* \"contracts/token factory/Migrator.sol\":4911:4932  whitelist[msg.sender] */\n      0x00\n      swap1\n      dup2\n      mstore\n        /* \"contracts/token factory/Migrator.sol\":4911:4920  whitelist */\n      0x0a\n        /* \"contracts/token factory/Migrator.sol\":4911:4932  whitelist[msg.sender] */\n      0x20\n      mstore\n      0x40\n      swap1\n      keccak256\n      sload\n      0xff\n      and\n        /* \"contracts/token factory/Migrator.sol\":4903:4978  require(whitelist[msg.sender], \"Not authorized: caller is not whitelisted\") */\n      tag_257\n      jumpi\n      mload(0x40)\n      shl(0xe5, 0x461bcd)\n      dup2\n      mstore\n        /* \"#utility.yul\":10895:10897   */\n      0x20\n        /* \"contracts/token factory/Migrator.sol\":4903:4978  require(whitelist[msg.sender], \"Not authorized: caller is not whitelisted\") */\n      0x04\n      dup3\n      add\n        /* \"#utility.yul\":10877:10898   */\n      mstore\n        /* \"#utility.yul\":10934:10936   */\n      0x29\n        /* \"#utility.yul\":10914:10932   */\n      0x24\n      dup3\n      add\n        /* \"#utility.yul\":10907:10937   */\n      mstore\n        /* \"#utility.yul\":10973:11007   */\n      0x4e6f7420617574686f72697a65643a2063616c6c6572206973206e6f74207768\n        /* \"#utility.yul\":10953:10971   */\n      0x44\n      dup3\n      add\n        /* \"#utility.yul\":10946:11008   */\n      mstore\n      shl(0xba, 0x1a5d195b1a5cdd1959)\n        /* \"#utility.yul\":11024:11042   */\n      0x64\n      dup3\n      add\n        /* \"#utility.yul\":11017:11056   */\n      mstore\n        /* \"#utility.yul\":11073:11092   */\n      0x84\n      add\n        /* \"contracts/token factory/Migrator.sol\":4903:4978  require(whitelist[msg.sender], \"Not authorized: caller is not whitelisted\") */\n      tag_144\n        /* \"#utility.yul\":10693:11098   */\n      jump\n        /* \"contracts/token factory/Migrator.sol\":4903:4978  require(whitelist[msg.sender], \"Not authorized: caller is not whitelisted\") */\n    tag_257:\n        /* \"contracts/token factory/Migrator.sol\":10966:10967  0 */\n      0x00\n        /* \"contracts/token factory/Migrator.sol\":10944:10963  etherToRedistribute */\n      sload(0x06)\n        /* \"contracts/token factory/Migrator.sol\":10944:10967  etherToRedistribute > 0 */\n      gt\n        /* \"contracts/token factory/Migrator.sol\":10936:10992  require(etherToRedistribute > 0, \"No Ether to withdraw\") */\n      tag_261\n      jumpi\n      mload(0x40)\n      shl(0xe5, 0x461bcd)\n      dup2\n      mstore\n        /* \"#utility.yul\":11305:11307   */\n      0x20\n        /* \"contracts/token factory/Migrator.sol\":10936:10992  require(etherToRedistribute > 0, \"No Ether to withdraw\") */\n      0x04\n      dup3\n      add\n        /* \"#utility.yul\":11287:11308   */\n      mstore\n        /* \"#utility.yul\":11344:11346   */\n      0x14\n        /* \"#utility.yul\":11324:11342   */\n      0x24\n      dup3\n      add\n        /* \"#utility.yul\":11317:11347   */\n      mstore\n      shl(0x60, 0x4e6f20457468657220746f207769746864726177)\n        /* \"#utility.yul\":11363:11381   */\n      0x44\n      dup3\n      add\n        /* \"#utility.yul\":11356:11406   */\n      mstore\n        /* \"#utility.yul\":11423:11441   */\n      0x64\n      add\n        /* \"contracts/token factory/Migrator.sol\":10936:10992  require(etherToRedistribute > 0, \"No Ether to withdraw\") */\n      tag_144\n        /* \"#utility.yul\":11103:11447   */\n      jump\n        /* \"contracts/token factory/Migrator.sol\":10936:10992  require(etherToRedistribute > 0, \"No Ether to withdraw\") */\n    tag_261:\n        /* \"contracts/token factory/Migrator.sol\":11002:11021  uint256 toRootStock */\n      0x00\n        /* \"contracts/token factory/Migrator.sol\":11054:11057  200 */\n      0xc8\n        /* \"contracts/token factory/Migrator.sol\":11025:11044  etherToRedistribute */\n      sload(0x06)\n        /* \"contracts/token factory/Migrator.sol\":11047:11051  1000 */\n      0x03e8\n        /* \"contracts/token factory/Migrator.sol\":11025:11051  etherToRedistribute * 1000 */\n      tag_264\n      swap2\n      swap1\n      tag_158\n      jump\t// in\n    tag_264:\n        /* \"contracts/token factory/Migrator.sol\":11024:11057  (etherToRedistribute * 1000) /200 */\n      tag_265\n      swap2\n      swap1\n      tag_160\n      jump\t// in\n    tag_265:\n        /* \"contracts/token factory/Migrator.sol\":11002:11057  uint256 toRootStock = (etherToRedistribute * 1000) /200 */\n      swap1\n      pop\n        /* \"contracts/token factory/Migrator.sol\":11068:11084  uint256 toMonark */\n      0x00\n        /* \"contracts/token factory/Migrator.sol\":11109:11120  toRootStock */\n      dup2\n        /* \"contracts/token factory/Migrator.sol\":11087:11106  etherToRedistribute */\n      sload(0x06)\n        /* \"contracts/token factory/Migrator.sol\":11087:11120  etherToRedistribute - toRootStock */\n      tag_266\n      swap2\n      swap1\n      tag_162\n      jump\t// in\n    tag_266:\n        /* \"contracts/token factory/Migrator.sol\":11159:11175  rootstockAddress */\n      sload(0x03)\n        /* \"contracts/token factory/Migrator.sol\":11159:11204  rootstockAddress.call{value: toRootStock}(\"\") */\n      mload(0x40)\n        /* \"contracts/token factory/Migrator.sol\":11068:11120  uint256 toMonark = etherToRedistribute - toRootStock */\n      swap2\n      swap3\n      pop\n        /* \"contracts/token factory/Migrator.sol\":11132:11153  bool successRootstock */\n      0x00\n      swap2\n      sub(shl(0xa0, 0x01), 0x01)\n        /* \"contracts/token factory/Migrator.sol\":11159:11175  rootstockAddress */\n      swap1\n      swap2\n      and\n      swap1\n        /* \"contracts/token factory/Migrator.sol\":11188:11199  toRootStock */\n      dup5\n      swap1\n        /* \"contracts/token factory/Migrator.sol\":11132:11153  bool successRootstock */\n      dup4\n        /* \"contracts/token factory/Migrator.sol\":11159:11204  rootstockAddress.call{value: toRootStock}(\"\") */\n      dup2\n        /* \"contracts/token factory/Migrator.sol\":11132:11153  bool successRootstock */\n      dup2\n        /* \"contracts/token factory/Migrator.sol\":11159:11204  rootstockAddress.call{value: toRootStock}(\"\") */\n      dup2\n        /* \"contracts/token factory/Migrator.sol\":11188:11199  toRootStock */\n      dup6\n        /* \"contracts/token factory/Migrator.sol\":11159:11175  rootstockAddress */\n      dup8\n        /* \"contracts/token factory/Migrator.sol\":11159:11204  rootstockAddress.call{value: toRootStock}(\"\") */\n      gas\n      call\n      swap3\n      pop\n      pop\n      pop\n      returndatasize\n      dup1\n      0x00\n      dup2\n      eq\n      tag_271\n      jumpi\n      mload(0x40)\n      swap2\n      pop\n      and(add(returndatasize, 0x3f), not(0x1f))\n      dup3\n      add\n      0x40\n      mstore\n      returndatasize\n      dup3\n      mstore\n      returndatasize\n      0x00\n      0x20\n      dup5\n      add\n      returndatacopy\n      jump(tag_270)\n    tag_271:\n      0x60\n      swap2\n      pop\n    tag_270:\n      pop\n        /* \"contracts/token factory/Migrator.sol\":11131:11204  (bool successRootstock, ) = rootstockAddress.call{value: toRootStock}(\"\") */\n      pop\n      swap1\n      pop\n        /* \"contracts/token factory/Migrator.sol\":11223:11239  successRootstock */\n      dup1\n        /* \"contracts/token factory/Migrator.sol\":11215:11261  require(successRootstock, \"Withdrawal failed\") */\n      tag_272\n      jumpi\n      mload(0x40)\n      shl(0xe5, 0x461bcd)\n      dup2\n      mstore\n        /* \"#utility.yul\":11864:11866   */\n      0x20\n        /* \"contracts/token factory/Migrator.sol\":11215:11261  require(successRootstock, \"Withdrawal failed\") */\n      0x04\n      dup3\n      add\n        /* \"#utility.yul\":11846:11867   */\n      mstore\n        /* \"#utility.yul\":11903:11905   */\n      0x11\n        /* \"#utility.yul\":11883:11901   */\n      0x24\n      dup3\n      add\n        /* \"#utility.yul\":11876:11906   */\n      mstore\n      shl(0x7a, 0x15da5d1a191c985dd85b0819985a5b1959)\n        /* \"#utility.yul\":11922:11940   */\n      0x44\n      dup3\n      add\n        /* \"#utility.yul\":11915:11962   */\n      mstore\n        /* \"#utility.yul\":11979:11997   */\n      0x64\n      add\n        /* \"contracts/token factory/Migrator.sol\":11215:11261  require(successRootstock, \"Withdrawal failed\") */\n      tag_144\n        /* \"#utility.yul\":11662:12003   */\n      jump\n        /* \"contracts/token factory/Migrator.sol\":11215:11261  require(successRootstock, \"Withdrawal failed\") */\n    tag_272:\n        /* \"contracts/token factory/Migrator.sol\":11296:11313  monarkTeamAddress */\n      sload(0x04)\n        /* \"contracts/token factory/Migrator.sol\":11296:11339  monarkTeamAddress.call{value: toMonark}(\"\") */\n      mload(0x40)\n        /* \"contracts/token factory/Migrator.sol\":11272:11290  bool successMonark */\n      0x00\n      swap2\n      sub(shl(0xa0, 0x01), 0x01)\n        /* \"contracts/token factory/Migrator.sol\":11296:11313  monarkTeamAddress */\n      and\n      swap1\n        /* \"contracts/token factory/Migrator.sol\":11326:11334  toMonark */\n      dup5\n      swap1\n        /* \"contracts/token factory/Migrator.sol\":11272:11290  bool successMonark */\n      dup4\n        /* \"contracts/token factory/Migrator.sol\":11296:11339  monarkTeamAddress.call{value: toMonark}(\"\") */\n      dup2\n        /* \"contracts/token factory/Migrator.sol\":11272:11290  bool successMonark */\n      dup2\n        /* \"contracts/token factory/Migrator.sol\":11296:11339  monarkTeamAddress.call{value: toMonark}(\"\") */\n      dup2\n        /* \"contracts/token factory/Migrator.sol\":11326:11334  toMonark */\n      dup6\n        /* \"contracts/token factory/Migrator.sol\":11296:11313  monarkTeamAddress */\n      dup8\n        /* \"contracts/token factory/Migrator.sol\":11296:11339  monarkTeamAddress.call{value: toMonark}(\"\") */\n      gas\n      call\n      swap3\n      pop\n      pop\n      pop\n      returndatasize\n      dup1\n      0x00\n      dup2\n      eq\n      tag_278\n      jumpi\n      mload(0x40)\n      swap2\n      pop\n      and(add(returndatasize, 0x3f), not(0x1f))\n      dup3\n      add\n      0x40\n      mstore\n      returndatasize\n      dup3\n      mstore\n      returndatasize\n      0x00\n      0x20\n      dup5\n      add\n      returndatacopy\n      jump(tag_277)\n    tag_278:\n      0x60\n      swap2\n      pop\n    tag_277:\n      pop\n        /* \"contracts/token factory/Migrator.sol\":11271:11339  (bool successMonark, ) = monarkTeamAddress.call{value: toMonark}(\"\") */\n      pop\n      swap1\n      pop\n        /* \"contracts/token factory/Migrator.sol\":11357:11370  successMonark */\n      dup1\n        /* \"contracts/token factory/Migrator.sol\":11349:11392  require(successMonark, \"Withdrawal failed\") */\n      tag_279\n      jumpi\n      mload(0x40)\n      shl(0xe5, 0x461bcd)\n      dup2\n      mstore\n        /* \"#utility.yul\":11864:11866   */\n      0x20\n        /* \"contracts/token factory/Migrator.sol\":11349:11392  require(successMonark, \"Withdrawal failed\") */\n      0x04\n      dup3\n      add\n        /* \"#utility.yul\":11846:11867   */\n      mstore\n        /* \"#utility.yul\":11903:11905   */\n      0x11\n        /* \"#utility.yul\":11883:11901   */\n      0x24\n      dup3\n      add\n        /* \"#utility.yul\":11876:11906   */\n      mstore\n      shl(0x7a, 0x15da5d1a191c985dd85b0819985a5b1959)\n        /* \"#utility.yul\":11922:11940   */\n      0x44\n      dup3\n      add\n        /* \"#utility.yul\":11915:11962   */\n      mstore\n        /* \"#utility.yul\":11979:11997   */\n      0x64\n      add\n        /* \"contracts/token factory/Migrator.sol\":11349:11392  require(successMonark, \"Withdrawal failed\") */\n      tag_144\n        /* \"#utility.yul\":11662:12003   */\n      jump\n        /* \"contracts/token factory/Migrator.sol\":11349:11392  require(successMonark, \"Withdrawal failed\") */\n    tag_279:\n        /* \"contracts/token factory/Migrator.sol\":10917:11399  {... */\n      pop\n      pop\n      pop\n      pop\n        /* \"contracts/token factory/Migrator.sol\":10863:11399  function withdrawRewards() external onlyWhitelisted() {... */\n      jump\t// out\n        /* \"contracts/token factory/Migrator.sol\":9507:9757  function emergencyWithdraw() external onlyOwner {... */\n    tag_131:\n        /* \"contracts/token factory/Migrator.sol\":4806:4811  owner */\n      and(sub(shl(0xa0, 0x01), 0x01), sload(0x00))\n        /* \"contracts/token factory/Migrator.sol\":4792:4802  msg.sender */\n      caller\n        /* \"contracts/token factory/Migrator.sol\":4792:4811  msg.sender == owner */\n      eq\n        /* \"contracts/token factory/Migrator.sol\":4784:4840  require(msg.sender == owner, \"Only owner can call this\") */\n      tag_282\n      jumpi\n      mload(0x40)\n      shl(0xe5, 0x461bcd)\n      dup2\n      mstore\n      0x04\n      add\n      tag_144\n      swap1\n      tag_145\n      jump\t// in\n    tag_282:\n        /* \"contracts/token factory/Migrator.sol\":9584:9605  address(this).balance */\n      selfbalance\n        /* \"contracts/token factory/Migrator.sol\":9615:9631  etherBalance > 0 */\n      dup1\n      iszero\n        /* \"contracts/token factory/Migrator.sol\":9611:9755  if (etherBalance > 0) {... */\n      tag_285\n      jumpi\n        /* \"contracts/token factory/Migrator.sol\":9644:9656  bool success */\n      0x00\n        /* \"contracts/token factory/Migrator.sol\":9662:9667  owner */\n      dup1\n      sload\n        /* \"contracts/token factory/Migrator.sol\":9662:9697  owner.call{value: etherBalance}(\"\") */\n      mload(0x40)\n      sub(shl(0xa0, 0x01), 0x01)\n        /* \"contracts/token factory/Migrator.sol\":9662:9667  owner */\n      swap1\n      swap2\n      and\n      swap1\n        /* \"contracts/token factory/Migrator.sol\":9680:9692  etherBalance */\n      dup4\n      swap1\n        /* \"contracts/token factory/Migrator.sol\":9644:9656  bool success */\n      dup4\n        /* \"contracts/token factory/Migrator.sol\":9662:9697  owner.call{value: etherBalance}(\"\") */\n      dup2\n        /* \"contracts/token factory/Migrator.sol\":9644:9656  bool success */\n      dup2\n        /* \"contracts/token factory/Migrator.sol\":9662:9697  owner.call{value: etherBalance}(\"\") */\n      dup2\n        /* \"contracts/token factory/Migrator.sol\":9680:9692  etherBalance */\n      dup6\n        /* \"contracts/token factory/Migrator.sol\":9662:9667  owner */\n      dup8\n        /* \"contracts/token factory/Migrator.sol\":9662:9697  owner.call{value: etherBalance}(\"\") */\n      gas\n      call\n      swap3\n      pop\n      pop\n      pop\n      returndatasize\n      dup1\n      0x00\n      dup2\n      eq\n      tag_289\n      jumpi\n      mload(0x40)\n      swap2\n      pop\n      and(add(returndatasize, 0x3f), not(0x1f))\n      dup3\n      add\n      0x40\n      mstore\n      returndatasize\n      dup3\n      mstore\n      returndatasize\n      0x00\n      0x20\n      dup5\n      add\n      returndatacopy\n      jump(tag_288)\n    tag_289:\n      0x60\n      swap2\n      pop\n    tag_288:\n      pop\n        /* \"contracts/token factory/Migrator.sol\":9643:9697  (bool success, ) = owner.call{value: etherBalance}(\"\") */\n      pop\n      swap1\n      pop\n        /* \"contracts/token factory/Migrator.sol\":9715:9722  success */\n      dup1\n        /* \"contracts/token factory/Migrator.sol\":9707:9748  require(success, \"Ether withdraw failed\") */\n      tag_290\n      jumpi\n      mload(0x40)\n      shl(0xe5, 0x461bcd)\n      dup2\n      mstore\n        /* \"#utility.yul\":12210:12212   */\n      0x20\n        /* \"contracts/token factory/Migrator.sol\":9707:9748  require(success, \"Ether withdraw failed\") */\n      0x04\n      dup3\n      add\n        /* \"#utility.yul\":12192:12213   */\n      mstore\n        /* \"#utility.yul\":12249:12251   */\n      0x15\n        /* \"#utility.yul\":12229:12247   */\n      0x24\n      dup3\n      add\n        /* \"#utility.yul\":12222:12252   */\n      mstore\n      shl(0x5a, 0x115d1a195c881dda5d1a191c985dc819985a5b1959)\n        /* \"#utility.yul\":12268:12286   */\n      0x44\n      dup3\n      add\n        /* \"#utility.yul\":12261:12312   */\n      mstore\n        /* \"#utility.yul\":12329:12347   */\n      0x64\n      add\n        /* \"contracts/token factory/Migrator.sol\":9707:9748  require(success, \"Ether withdraw failed\") */\n      tag_144\n        /* \"#utility.yul\":12008:12353   */\n      jump\n        /* \"contracts/token factory/Migrator.sol\":9707:9748  require(success, \"Ether withdraw failed\") */\n    tag_290:\n        /* \"contracts/token factory/Migrator.sol\":9633:9755  {... */\n      pop\n        /* \"contracts/token factory/Migrator.sol\":9611:9755  if (etherBalance > 0) {... */\n    tag_285:\n        /* \"contracts/token factory/Migrator.sol\":9555:9757  {... */\n      pop\n        /* \"contracts/token factory/Migrator.sol\":9507:9757  function emergencyWithdraw() external onlyOwner {... */\n      jump\t// out\n        /* \"contracts/token factory/Migrator.sol\":8164:8506  function getFeesCreation() external payable {... */\n    tag_133:\n        /* \"contracts/token factory/Migrator.sol\":8238:8239  0 */\n      0x00\n        /* \"contracts/token factory/Migrator.sol\":8226:8235  msg.value */\n      callvalue\n        /* \"contracts/token factory/Migrator.sol\":8226:8239  msg.value > 0 */\n      gt\n        /* \"contracts/token factory/Migrator.sol\":8218:8264  require(msg.value > 0, \"Must send some Ether\") */\n      tag_294\n      jumpi\n      mload(0x40)\n      shl(0xe5, 0x461bcd)\n      dup2\n      mstore\n        /* \"#utility.yul\":12560:12562   */\n      0x20\n        /* \"contracts/token factory/Migrator.sol\":8218:8264  require(msg.value > 0, \"Must send some Ether\") */\n      0x04\n      dup3\n      add\n        /* \"#utility.yul\":12542:12563   */\n      mstore\n        /* \"#utility.yul\":12599:12601   */\n      0x14\n        /* \"#utility.yul\":12579:12597   */\n      0x24\n      dup3\n      add\n        /* \"#utility.yul\":12572:12602   */\n      mstore\n      shl(0x61, 0x26bab9ba1039b2b7321039b7b6b29022ba3432b9)\n        /* \"#utility.yul\":12618:12636   */\n      0x44\n      dup3\n      add\n        /* \"#utility.yul\":12611:12661   */\n      mstore\n        /* \"#utility.yul\":12678:12696   */\n      0x64\n      add\n        /* \"contracts/token factory/Migrator.sol\":8218:8264  require(msg.value > 0, \"Must send some Ether\") */\n      tag_144\n        /* \"#utility.yul\":12358:12702   */\n      jump\n        /* \"contracts/token factory/Migrator.sol\":8218:8264  require(msg.value > 0, \"Must send some Ether\") */\n    tag_294:\n        /* \"contracts/token factory/Migrator.sol\":8363:8372  msg.value */\n      callvalue\n        /* \"contracts/token factory/Migrator.sol\":8340:8359  etherToRedistribute */\n      0x06\n      0x00\n        /* \"contracts/token factory/Migrator.sol\":8340:8372  etherToRedistribute += msg.value */\n      dup3\n      dup3\n      sload\n      tag_297\n      swap2\n      swap1\n      tag_169\n      jump\t// in\n    tag_297:\n      swap1\n      swap2\n      sstore\n      pop\n      pop\n        /* \"contracts/token factory/Migrator.sol\":8479:8498  etherToRedistribute */\n      sload(0x06)\n        /* \"contracts/token factory/Migrator.sol\":8442:8499  EtherReceived(msg.sender, msg.value, etherToRedistribute) */\n      mload(0x40)\n        /* \"contracts/token factory/Migrator.sol\":8456:8466  msg.sender */\n      caller\n      swap2\n        /* \"contracts/token factory/Migrator.sol\":8442:8499  EtherReceived(msg.sender, msg.value, etherToRedistribute) */\n      0x1d57945c1033a96907a78f6e0ebf6a03815725dac25f33cc806558670344ac88\n      swap2\n      tag_298\n      swap2\n        /* \"contracts/token factory/Migrator.sol\":8468:8477  msg.value */\n      callvalue\n        /* \"#utility.yul\":6727:6752   */\n      dup3\n      mstore\n        /* \"#utility.yul\":6783:6785   */\n      0x20\n        /* \"#utility.yul\":6768:6786   */\n      dup3\n      add\n        /* \"#utility.yul\":6761:6795   */\n      mstore\n        /* \"#utility.yul\":6715:6717   */\n      0x40\n        /* \"#utility.yul\":6700:6718   */\n      add\n      swap1\n        /* \"#utility.yul\":6553:6801   */\n      jump\n        /* \"contracts/token factory/Migrator.sol\":8442:8499  EtherReceived(msg.sender, msg.value, etherToRedistribute) */\n    tag_298:\n      mload(0x40)\n      dup1\n      swap2\n      sub\n      swap1\n      log2\n        /* \"contracts/token factory/Migrator.sol\":8164:8506  function getFeesCreation() external payable {... */\n      jump\t// out\n        /* \"contracts/token factory/Migrator.sol\":10004:10222  function addToWhitelist(address account) external onlyOwner {... */\n    tag_137:\n        /* \"contracts/token factory/Migrator.sol\":4806:4811  owner */\n      and(sub(shl(0xa0, 0x01), 0x01), sload(0x00))\n        /* \"contracts/token factory/Migrator.sol\":4792:4802  msg.sender */\n      caller\n        /* \"contracts/token factory/Migrator.sol\":4792:4811  msg.sender == owner */\n      eq\n        /* \"contracts/token factory/Migrator.sol\":4784:4840  require(msg.sender == owner, \"Only owner can call this\") */\n      tag_300\n      jumpi\n      mload(0x40)\n      shl(0xe5, 0x461bcd)\n      dup2\n      mstore\n      0x04\n      add\n      tag_144\n      swap1\n      tag_145\n      jump\t// in\n    tag_300:\n      sub(shl(0xa0, 0x01), 0x01)\n        /* \"contracts/token factory/Migrator.sol\":10083:10101  whitelist[account] */\n      dup2\n      and\n      0x00\n      swap1\n      dup2\n      mstore\n        /* \"contracts/token factory/Migrator.sol\":10083:10092  whitelist */\n      0x0a\n        /* \"contracts/token factory/Migrator.sol\":10083:10101  whitelist[account] */\n      0x20\n      mstore\n      0x40\n      swap1\n      keccak256\n      sload\n      0xff\n      and\n        /* \"contracts/token factory/Migrator.sol\":10082:10101  !whitelist[account] */\n      iszero\n        /* \"contracts/token factory/Migrator.sol\":10074:10133  require(!whitelist[account], \"Address already whitelisted\") */\n      tag_303\n      jumpi\n      mload(0x40)\n      shl(0xe5, 0x461bcd)\n      dup2\n      mstore\n        /* \"#utility.yul\":12909:12911   */\n      0x20\n        /* \"contracts/token factory/Migrator.sol\":10074:10133  require(!whitelist[account], \"Address already whitelisted\") */\n      0x04\n      dup3\n      add\n        /* \"#utility.yul\":12891:12912   */\n      mstore\n        /* \"#utility.yul\":12948:12950   */\n      0x1b\n        /* \"#utility.yul\":12928:12946   */\n      0x24\n      dup3\n      add\n        /* \"#utility.yul\":12921:12951   */\n      mstore\n        /* \"#utility.yul\":12987:13016   */\n      0x4164647265737320616c72656164792077686974656c69737465640000000000\n        /* \"#utility.yul\":12967:12985   */\n      0x44\n      dup3\n      add\n        /* \"#utility.yul\":12960:13017   */\n      mstore\n        /* \"#utility.yul\":13034:13052   */\n      0x64\n      add\n        /* \"contracts/token factory/Migrator.sol\":10074:10133  require(!whitelist[account], \"Address already whitelisted\") */\n      tag_144\n        /* \"#utility.yul\":12707:13058   */\n      jump\n        /* \"contracts/token factory/Migrator.sol\":10074:10133  require(!whitelist[account], \"Address already whitelisted\") */\n    tag_303:\n      sub(shl(0xa0, 0x01), 0x01)\n        /* \"contracts/token factory/Migrator.sol\":10143:10161  whitelist[account] */\n      dup2\n      and\n      0x00\n      dup2\n      dup2\n      mstore\n        /* \"contracts/token factory/Migrator.sol\":10143:10152  whitelist */\n      0x0a\n        /* \"contracts/token factory/Migrator.sol\":10143:10161  whitelist[account] */\n      0x20\n      mstore\n      0x40\n      dup1\n      dup3\n      keccak256\n        /* \"contracts/token factory/Migrator.sol\":10143:10168  whitelist[account] = true */\n      dup1\n      sload\n      not(0xff)\n      and\n        /* \"contracts/token factory/Migrator.sol\":10164:10168  true */\n      0x01\n        /* \"contracts/token factory/Migrator.sol\":10143:10168  whitelist[account] = true */\n      or\n      swap1\n      sstore\n        /* \"contracts/token factory/Migrator.sol\":10183:10215  AddressAddedToWhitelist(account) */\n      mload\n      0x534d18c8ff24ba5980906d732f3075704749427353734fbbf05d50485643b124\n      swap2\n        /* \"contracts/token factory/Migrator.sol\":10143:10161  whitelist[account] */\n      swap1\n        /* \"contracts/token factory/Migrator.sol\":10183:10215  AddressAddedToWhitelist(account) */\n      log2\n        /* \"contracts/token factory/Migrator.sol\":10004:10222  function addToWhitelist(address account) external onlyOwner {... */\n      pop\n      jump\t// out\n        /* \"contracts/token factory/Migrator.sol\":9362:9502  function updateWETH(address _WETH) external onlyOwner {... */\n    tag_141:\n        /* \"contracts/token factory/Migrator.sol\":4806:4811  owner */\n      and(sub(shl(0xa0, 0x01), 0x01), sload(0x00))\n        /* \"contracts/token factory/Migrator.sol\":4792:4802  msg.sender */\n      caller\n        /* \"contracts/token factory/Migrator.sol\":4792:4811  msg.sender == owner */\n      eq\n        /* \"contracts/token factory/Migrator.sol\":4784:4840  require(msg.sender == owner, \"Only owner can call this\") */\n      tag_307\n      jumpi\n      mload(0x40)\n      shl(0xe5, 0x461bcd)\n      dup2\n      mstore\n      0x04\n      add\n      tag_144\n      swap1\n      tag_145\n      jump\t// in\n    tag_307:\n      sub(shl(0xa0, 0x01), 0x01)\n        /* \"contracts/token factory/Migrator.sol\":9434:9453  _WETH != address(0) */\n      dup2\n      and\n        /* \"contracts/token factory/Migrator.sol\":9426:9473  require(_WETH != address(0), \"Invalid address\") */\n      tag_310\n      jumpi\n      mload(0x40)\n      shl(0xe5, 0x461bcd)\n      dup2\n      mstore\n        /* \"#utility.yul\":3099:3101   */\n      0x20\n        /* \"contracts/token factory/Migrator.sol\":9426:9473  require(_WETH != address(0), \"Invalid address\") */\n      0x04\n      dup3\n      add\n        /* \"#utility.yul\":3081:3102   */\n      mstore\n        /* \"#utility.yul\":3138:3140   */\n      0x0f\n        /* \"#utility.yul\":3118:3136   */\n      0x24\n      dup3\n      add\n        /* \"#utility.yul\":3111:3141   */\n      mstore\n      shl(0x88, 0x496e76616c69642061646472657373)\n        /* \"#utility.yul\":3157:3175   */\n      0x44\n      dup3\n      add\n        /* \"#utility.yul\":3150:3195   */\n      mstore\n        /* \"#utility.yul\":3212:3230   */\n      0x64\n      add\n        /* \"contracts/token factory/Migrator.sol\":9426:9473  require(_WETH != address(0), \"Invalid address\") */\n      tag_144\n        /* \"#utility.yul\":2897:3236   */\n      jump\n        /* \"contracts/token factory/Migrator.sol\":9426:9473  require(_WETH != address(0), \"Invalid address\") */\n    tag_310:\n        /* \"contracts/token factory/Migrator.sol\":9483:9487  WETH */\n      0x02\n        /* \"contracts/token factory/Migrator.sol\":9483:9495  WETH = _WETH */\n      dup1\n      sload\n      not(sub(shl(0xa0, 0x01), 0x01))\n      and\n      sub(shl(0xa0, 0x01), 0x01)\n      swap3\n      swap1\n      swap3\n      and\n      swap2\n      swap1\n      swap2\n      or\n      swap1\n      sstore\n        /* \"contracts/token factory/Migrator.sol\":9362:9502  function updateWETH(address _WETH) external onlyOwner {... */\n      jump\t// out\n        /* \"contracts/token factory/Migrator.sol\":1601:2082  function safeTransferFrom(... */\n    tag_185:\n        /* \"contracts/token factory/Migrator.sol\":1800:1954  abi.encodeWithSelector(... */\n      0x40\n      dup1\n      mload\n      sub(shl(0xa0, 0x01), 0x01)\n        /* \"#utility.yul\":13283:13315   */\n      dup6\n      dup2\n      and\n        /* \"contracts/token factory/Migrator.sol\":1800:1954  abi.encodeWithSelector(... */\n      0x24\n      dup4\n      add\n        /* \"#utility.yul\":13265:13316   */\n      mstore\n        /* \"#utility.yul\":13352:13384   */\n      dup5\n      dup2\n      and\n        /* \"#utility.yul\":13332:13350   */\n      0x44\n      dup4\n      add\n        /* \"#utility.yul\":13325:13385   */\n      mstore\n        /* \"#utility.yul\":13401:13419   */\n      0x64\n      dup1\n      dup4\n      add\n        /* \"#utility.yul\":13394:13428   */\n      dup6\n      swap1\n      mstore\n        /* \"contracts/token factory/Migrator.sol\":1800:1954  abi.encodeWithSelector(... */\n      dup4\n      mload\n      dup1\n      dup5\n      sub\n      swap1\n      swap2\n      add\n      dup2\n      mstore\n        /* \"#utility.yul\":13238:13256   */\n      0x84\n      swap1\n      swap3\n      add\n        /* \"contracts/token factory/Migrator.sol\":1800:1954  abi.encodeWithSelector(... */\n      dup4\n      mstore\n      0x20\n      dup3\n      add\n      dup1\n      mload\n      sub(shl(0xe0, 0x01), 0x01)\n      and\n      shl(0xe0, 0x23b872dd)\n      or\n      swap1\n      mstore\n        /* \"contracts/token factory/Migrator.sol\":1776:1964  token.call(... */\n      swap2\n      mload\n      0x00\n      swap3\n      dup4\n      swap3\n        /* \"contracts/token factory/Migrator.sol\":1776:1786  token.call */\n      swap1\n      dup9\n      and\n      swap2\n        /* \"contracts/token factory/Migrator.sol\":1776:1964  token.call(... */\n      tag_315\n      swap2\n        /* \"contracts/token factory/Migrator.sol\":1800:1954  abi.encodeWithSelector(... */\n      swap1\n        /* \"contracts/token factory/Migrator.sol\":1776:1964  token.call(... */\n      tag_316\n      jump\t// in\n    tag_315:\n      0x00\n      mload(0x40)\n      dup1\n      dup4\n      sub\n      dup2\n      0x00\n      dup7\n      gas\n      call\n      swap2\n      pop\n      pop\n      returndatasize\n      dup1\n      0x00\n      dup2\n      eq\n      tag_319\n      jumpi\n      mload(0x40)\n      swap2\n      pop\n      and(add(returndatasize, 0x3f), not(0x1f))\n      dup3\n      add\n      0x40\n      mstore\n      returndatasize\n      dup3\n      mstore\n      returndatasize\n      0x00\n      0x20\n      dup5\n      add\n      returndatacopy\n      jump(tag_318)\n    tag_319:\n      0x60\n      swap2\n      pop\n    tag_318:\n      pop\n        /* \"contracts/token factory/Migrator.sol\":1740:1964  (bool success, bytes memory data) = token.call(... */\n      swap2\n      pop\n      swap2\n      pop\n        /* \"contracts/token factory/Migrator.sol\":1979:1986  success */\n      dup2\n        /* \"contracts/token factory/Migrator.sol\":1978:1986  !success */\n      iszero\n        /* \"contracts/token factory/Migrator.sol\":1978:2037  !success || (data.length != 0 && !abi.decode(data, (bool))) */\n      dup1\n      tag_321\n      jumpi\n      pop\n        /* \"contracts/token factory/Migrator.sol\":1991:2002  data.length */\n      dup1\n      mload\n        /* \"contracts/token factory/Migrator.sol\":1991:2007  data.length != 0 */\n      iszero\n      dup1\n      iszero\n      swap1\n        /* \"contracts/token factory/Migrator.sol\":1991:2036  data.length != 0 && !abi.decode(data, (bool)) */\n      tag_321\n      jumpi\n      pop\n        /* \"contracts/token factory/Migrator.sol\":2023:2027  data */\n      dup1\n        /* \"contracts/token factory/Migrator.sol\":2012:2036  abi.decode(data, (bool)) */\n      dup1\n      0x20\n      add\n      swap1\n      mload\n      dup2\n      add\n      swap1\n      tag_322\n      swap2\n      swap1\n      tag_255\n      jump\t// in\n    tag_322:\n        /* \"contracts/token factory/Migrator.sol\":2011:2036  !abi.decode(data, (bool)) */\n      iszero\n        /* \"contracts/token factory/Migrator.sol\":1991:2036  data.length != 0 && !abi.decode(data, (bool)) */\n    tag_321:\n        /* \"contracts/token factory/Migrator.sol\":1974:2076  if (!success || (data.length != 0 && !abi.decode(data, (bool)))) {... */\n      iszero\n      tag_323\n      jumpi\n        /* \"contracts/token factory/Migrator.sol\":2060:2065  STF() */\n      mload(0x40)\n      shl(0xe0, 0x817275ab)\n      dup2\n      mstore\n      0x04\n      add\n      mload(0x40)\n      dup1\n      swap2\n      sub\n      swap1\n      revert\n        /* \"contracts/token factory/Migrator.sol\":1974:2076  if (!success || (data.length != 0 && !abi.decode(data, (bool)))) {... */\n    tag_323:\n        /* \"contracts/token factory/Migrator.sol\":1730:2082  {... */\n      pop\n      pop\n        /* \"contracts/token factory/Migrator.sol\":1601:2082  function safeTransferFrom(... */\n      pop\n      pop\n      pop\n      pop\n      jump\t// out\n        /* \"contracts/token factory/Migrator.sol\":2506:2932  function safeApprove(... */\n    tag_203:\n        /* \"contracts/token factory/Migrator.sol\":2678:2805  abi.encodeWithSelector(... */\n      0x40\n      dup1\n      mload\n      sub(shl(0xa0, 0x01), 0x01)\n        /* \"#utility.yul\":10324:10356   */\n      dup5\n      dup2\n      and\n        /* \"contracts/token factory/Migrator.sol\":2678:2805  abi.encodeWithSelector(... */\n      0x24\n      dup4\n      add\n        /* \"#utility.yul\":10306:10357   */\n      mstore\n        /* \"#utility.yul\":10373:10391   */\n      0x44\n      dup1\n      dup4\n      add\n        /* \"#utility.yul\":10366:10400   */\n      dup6\n      swap1\n      mstore\n        /* \"contracts/token factory/Migrator.sol\":2678:2805  abi.encodeWithSelector(... */\n      dup4\n      mload\n      dup1\n      dup5\n      sub\n      swap1\n      swap2\n      add\n      dup2\n      mstore\n        /* \"#utility.yul\":10279:10297   */\n      0x64\n      swap1\n      swap3\n      add\n        /* \"contracts/token factory/Migrator.sol\":2678:2805  abi.encodeWithSelector(... */\n      dup4\n      mstore\n      0x20\n      dup3\n      add\n      dup1\n      mload\n      sub(shl(0xe0, 0x01), 0x01)\n      and\n      shl(0xe0, 0x095ea7b3)\n      or\n      swap1\n      mstore\n        /* \"contracts/token factory/Migrator.sol\":2654:2815  token.call(... */\n      swap2\n      mload\n      0x00\n      swap3\n      dup4\n      swap3\n        /* \"contracts/token factory/Migrator.sol\":2654:2664  token.call */\n      swap1\n      dup8\n      and\n      swap2\n        /* \"contracts/token factory/Migrator.sol\":2654:2815  token.call(... */\n      tag_326\n      swap2\n        /* \"contracts/token factory/Migrator.sol\":2678:2805  abi.encodeWithSelector(... */\n      swap1\n        /* \"contracts/token factory/Migrator.sol\":2654:2815  token.call(... */\n      tag_316\n      jump\t// in\n    tag_326:\n      0x00\n      mload(0x40)\n      dup1\n      dup4\n      sub\n      dup2\n      0x00\n      dup7\n      gas\n      call\n      swap2\n      pop\n      pop\n      returndatasize\n      dup1\n      0x00\n      dup2\n      eq\n      tag_329\n      jumpi\n      mload(0x40)\n      swap2\n      pop\n      and(add(returndatasize, 0x3f), not(0x1f))\n      dup3\n      add\n      0x40\n      mstore\n      returndatasize\n      dup3\n      mstore\n      returndatasize\n      0x00\n      0x20\n      dup5\n      add\n      returndatacopy\n      jump(tag_328)\n    tag_329:\n      0x60\n      swap2\n      pop\n    tag_328:\n      pop\n        /* \"contracts/token factory/Migrator.sol\":2618:2815  (bool success, bytes memory data) = token.call(... */\n      swap2\n      pop\n      swap2\n      pop\n        /* \"contracts/token factory/Migrator.sol\":2830:2837  success */\n      dup2\n        /* \"contracts/token factory/Migrator.sol\":2829:2837  !success */\n      iszero\n        /* \"contracts/token factory/Migrator.sol\":2829:2888  !success || (data.length != 0 && !abi.decode(data, (bool))) */\n      dup1\n      tag_331\n      jumpi\n      pop\n        /* \"contracts/token factory/Migrator.sol\":2842:2853  data.length */\n      dup1\n      mload\n        /* \"contracts/token factory/Migrator.sol\":2842:2858  data.length != 0 */\n      iszero\n      dup1\n      iszero\n      swap1\n        /* \"contracts/token factory/Migrator.sol\":2842:2887  data.length != 0 && !abi.decode(data, (bool)) */\n      tag_331\n      jumpi\n      pop\n        /* \"contracts/token factory/Migrator.sol\":2874:2878  data */\n      dup1\n        /* \"contracts/token factory/Migrator.sol\":2863:2887  abi.decode(data, (bool)) */\n      dup1\n      0x20\n      add\n      swap1\n      mload\n      dup2\n      add\n      swap1\n      tag_332\n      swap2\n      swap1\n      tag_255\n      jump\t// in\n    tag_332:\n        /* \"contracts/token factory/Migrator.sol\":2862:2887  !abi.decode(data, (bool)) */\n      iszero\n        /* \"contracts/token factory/Migrator.sol\":2842:2887  data.length != 0 && !abi.decode(data, (bool)) */\n    tag_331:\n        /* \"contracts/token factory/Migrator.sol\":2825:2926  if (!success || (data.length != 0 && !abi.decode(data, (bool)))) {... */\n      iszero\n      tag_333\n      jumpi\n        /* \"contracts/token factory/Migrator.sol\":2911:2915  SA() */\n      mload(0x40)\n      shl(0xe1, 0x7cd36c65)\n      dup2\n      mstore\n      0x04\n      add\n      mload(0x40)\n      dup1\n      swap2\n      sub\n      swap1\n      revert\n        /* \"contracts/token factory/Migrator.sol\":2825:2926  if (!success || (data.length != 0 && !abi.decode(data, (bool)))) {... */\n    tag_333:\n        /* \"contracts/token factory/Migrator.sol\":2608:2932  {... */\n      pop\n      pop\n        /* \"contracts/token factory/Migrator.sol\":2506:2932  function safeApprove(... */\n      pop\n      pop\n      pop\n      jump\t// out\n        /* \"contracts/token factory/Migrator.sol\":8936:9160  function sqrt(uint256 x) internal pure returns (uint256) {... */\n    tag_236:\n        /* \"contracts/token factory/Migrator.sol\":8984:8991  uint256 */\n      0x00\n      dup1\n        /* \"contracts/token factory/Migrator.sol\":9025:9026  2 */\n      0x02\n        /* \"contracts/token factory/Migrator.sol\":9016:9021  x + 1 */\n      tag_335\n        /* \"contracts/token factory/Migrator.sol\":9016:9017  x */\n      dup5\n        /* \"contracts/token factory/Migrator.sol\":9020:9021  1 */\n      0x01\n        /* \"contracts/token factory/Migrator.sol\":9016:9021  x + 1 */\n      tag_169\n      jump\t// in\n    tag_335:\n        /* \"contracts/token factory/Migrator.sol\":9015:9026  (x + 1) / 2 */\n      tag_336\n      swap2\n      swap1\n      tag_160\n      jump\t// in\n    tag_336:\n        /* \"contracts/token factory/Migrator.sol\":9003:9026  uint256 z = (x + 1) / 2 */\n      swap1\n      pop\n        /* \"contracts/token factory/Migrator.sol\":9048:9049  x */\n      dup3\n        /* \"contracts/token factory/Migrator.sol\":9059:9136  while (z < y) {... */\n    tag_337:\n        /* \"contracts/token factory/Migrator.sol\":9070:9071  y */\n      dup1\n        /* \"contracts/token factory/Migrator.sol\":9066:9067  z */\n      dup3\n        /* \"contracts/token factory/Migrator.sol\":9066:9071  z < y */\n      lt\n        /* \"contracts/token factory/Migrator.sol\":9059:9136  while (z < y) {... */\n      iszero\n      tag_338\n      jumpi\n      pop\n        /* \"contracts/token factory/Migrator.sol\":9091:9092  z */\n      dup1\n        /* \"contracts/token factory/Migrator.sol\":9124:9125  2 */\n      0x02\n        /* \"contracts/token factory/Migrator.sol\":9091:9092  z */\n      dup2\n        /* \"contracts/token factory/Migrator.sol\":9111:9116  x / z */\n      tag_339\n        /* \"contracts/token factory/Migrator.sol\":9091:9092  z */\n      dup2\n        /* \"contracts/token factory/Migrator.sol\":9111:9112  x */\n      dup8\n        /* \"contracts/token factory/Migrator.sol\":9111:9116  x / z */\n      tag_160\n      jump\t// in\n    tag_339:\n        /* \"contracts/token factory/Migrator.sol\":9111:9120  x / z + z */\n      tag_340\n      swap2\n      swap1\n      tag_169\n      jump\t// in\n    tag_340:\n        /* \"contracts/token factory/Migrator.sol\":9110:9125  (x / z + z) / 2 */\n      tag_341\n      swap2\n      swap1\n      tag_160\n      jump\t// in\n    tag_341:\n        /* \"contracts/token factory/Migrator.sol\":9106:9125  z = (x / z + z) / 2 */\n      swap2\n      pop\n        /* \"contracts/token factory/Migrator.sol\":9059:9136  while (z < y) {... */\n      jump(tag_337)\n    tag_338:\n        /* \"contracts/token factory/Migrator.sol\":9152:9153  y */\n      swap4\n        /* \"contracts/token factory/Migrator.sol\":8936:9160  function sqrt(uint256 x) internal pure returns (uint256) {... */\n      swap3\n      pop\n      pop\n      pop\n      jump\t// out\n        /* \"#utility.yul\":14:145   */\n    tag_342:\n      sub(shl(0xa0, 0x01), 0x01)\n        /* \"#utility.yul\":89:120   */\n      dup2\n      and\n        /* \"#utility.yul\":79:121   */\n      dup2\n      eq\n        /* \"#utility.yul\":69:139   */\n      tag_285\n      jumpi\n        /* \"#utility.yul\":135:136   */\n      0x00\n        /* \"#utility.yul\":132:133   */\n      dup1\n        /* \"#utility.yul\":125:137   */\n      revert\n        /* \"#utility.yul\":150:397   */\n    tag_37:\n        /* \"#utility.yul\":209:215   */\n      0x00\n        /* \"#utility.yul\":262:264   */\n      0x20\n        /* \"#utility.yul\":250:259   */\n      dup3\n        /* \"#utility.yul\":241:248   */\n      dup5\n        /* \"#utility.yul\":237:260   */\n      sub\n        /* \"#utility.yul\":233:265   */\n      slt\n        /* \"#utility.yul\":230:282   */\n      iszero\n      tag_350\n      jumpi\n        /* \"#utility.yul\":278:279   */\n      0x00\n        /* \"#utility.yul\":275:276   */\n      dup1\n        /* \"#utility.yul\":268:280   */\n      revert\n        /* \"#utility.yul\":230:282   */\n    tag_350:\n        /* \"#utility.yul\":317:326   */\n      dup2\n        /* \"#utility.yul\":304:327   */\n      calldataload\n        /* \"#utility.yul\":336:367   */\n      tag_338\n        /* \"#utility.yul\":361:366   */\n      dup2\n        /* \"#utility.yul\":336:367   */\n      tag_342\n      jump\t// in\n        /* \"#utility.yul\":402:769   */\n    tag_41:\n        /* \"#utility.yul\":470:476   */\n      0x00\n        /* \"#utility.yul\":478:484   */\n      dup1\n        /* \"#utility.yul\":531:533   */\n      0x40\n        /* \"#utility.yul\":519:528   */\n      dup4\n        /* \"#utility.yul\":510:517   */\n      dup6\n        /* \"#utility.yul\":506:529   */\n      sub\n        /* \"#utility.yul\":502:534   */\n      slt\n        /* \"#utility.yul\":499:551   */\n      iszero\n      tag_353\n      jumpi\n        /* \"#utility.yul\":547:548   */\n      0x00\n        /* \"#utility.yul\":544:545   */\n      dup1\n        /* \"#utility.yul\":537:549   */\n      revert\n        /* \"#utility.yul\":499:551   */\n    tag_353:\n        /* \"#utility.yul\":586:595   */\n      dup3\n        /* \"#utility.yul\":573:596   */\n      calldataload\n        /* \"#utility.yul\":605:636   */\n      tag_354\n        /* \"#utility.yul\":630:635   */\n      dup2\n        /* \"#utility.yul\":605:636   */\n      tag_342\n      jump\t// in\n    tag_354:\n        /* \"#utility.yul\":655:660   */\n      swap5\n        /* \"#utility.yul\":733:735   */\n      0x20\n        /* \"#utility.yul\":718:736   */\n      swap4\n      swap1\n      swap4\n      add\n        /* \"#utility.yul\":705:737   */\n      calldataload\n      swap4\n      pop\n      pop\n      pop\n        /* \"#utility.yul\":402:769   */\n      jump\t// out\n        /* \"#utility.yul\":1754:2100   */\n    tag_104:\n        /* \"#utility.yul\":1822:1828   */\n      0x00\n        /* \"#utility.yul\":1830:1836   */\n      dup1\n        /* \"#utility.yul\":1883:1885   */\n      0x40\n        /* \"#utility.yul\":1871:1880   */\n      dup4\n        /* \"#utility.yul\":1862:1869   */\n      dup6\n        /* \"#utility.yul\":1858:1881   */\n      sub\n        /* \"#utility.yul\":1854:1886   */\n      slt\n        /* \"#utility.yul\":1851:1903   */\n      iszero\n      tag_362\n      jumpi\n        /* \"#utility.yul\":1899:1900   */\n      0x00\n        /* \"#utility.yul\":1896:1897   */\n      dup1\n        /* \"#utility.yul\":1889:1901   */\n      revert\n        /* \"#utility.yul\":1851:1903   */\n    tag_362:\n      pop\n      pop\n        /* \"#utility.yul\":1944:1967   */\n      dup1\n      calldataload\n      swap3\n        /* \"#utility.yul\":2064:2066   */\n      0x20\n        /* \"#utility.yul\":2049:2067   */\n      swap1\n      swap2\n      add\n        /* \"#utility.yul\":2036:2068   */\n      calldataload\n      swap2\n      pop\n        /* \"#utility.yul\":1754:2100   */\n      jump\t// out\n        /* \"#utility.yul\":2313:2539   */\n    tag_115:\n        /* \"#utility.yul\":2372:2378   */\n      0x00\n        /* \"#utility.yul\":2425:2427   */\n      0x20\n        /* \"#utility.yul\":2413:2422   */\n      dup3\n        /* \"#utility.yul\":2404:2411   */\n      dup5\n        /* \"#utility.yul\":2400:2423   */\n      sub\n        /* \"#utility.yul\":2396:2428   */\n      slt\n        /* \"#utility.yul\":2393:2445   */\n      iszero\n      tag_365\n      jumpi\n        /* \"#utility.yul\":2441:2442   */\n      0x00\n        /* \"#utility.yul\":2438:2439   */\n      dup1\n        /* \"#utility.yul\":2431:2443   */\n      revert\n        /* \"#utility.yul\":2393:2445   */\n    tag_365:\n      pop\n        /* \"#utility.yul\":2486:2509   */\n      calldataload\n      swap2\n        /* \"#utility.yul\":2313:2539   */\n      swap1\n      pop\n      jump\t// out\n        /* \"#utility.yul\":2544:2892   */\n    tag_145:\n        /* \"#utility.yul\":2746:2748   */\n      0x20\n        /* \"#utility.yul\":2728:2749   */\n      dup1\n      dup3\n      mstore\n        /* \"#utility.yul\":2785:2787   */\n      0x18\n        /* \"#utility.yul\":2765:2783   */\n      swap1\n      dup3\n      add\n        /* \"#utility.yul\":2758:2788   */\n      mstore\n        /* \"#utility.yul\":2824:2850   */\n      0x4f6e6c79206f776e65722063616e2063616c6c20746869730000000000000000\n        /* \"#utility.yul\":2819:2821   */\n      0x40\n        /* \"#utility.yul\":2804:2822   */\n      dup3\n      add\n        /* \"#utility.yul\":2797:2851   */\n      mstore\n        /* \"#utility.yul\":2883:2885   */\n      0x60\n        /* \"#utility.yul\":2868:2886   */\n      add\n      swap1\n        /* \"#utility.yul\":2544:2892   */\n      jump\t// out\n        /* \"#utility.yul\":4055:4182   */\n    tag_345:\n        /* \"#utility.yul\":4116:4126   */\n      0x4e487b71\n        /* \"#utility.yul\":4111:4114   */\n      0xe0\n        /* \"#utility.yul\":4107:4127   */\n      shl\n        /* \"#utility.yul\":4104:4105   */\n      0x00\n        /* \"#utility.yul\":4097:4128   */\n      mstore\n        /* \"#utility.yul\":4147:4151   */\n      0x11\n        /* \"#utility.yul\":4144:4145   */\n      0x04\n        /* \"#utility.yul\":4137:4152   */\n      mstore\n        /* \"#utility.yul\":4171:4175   */\n      0x24\n        /* \"#utility.yul\":4168:4169   */\n      0x00\n        /* \"#utility.yul\":4161:4176   */\n      revert\n        /* \"#utility.yul\":4187:4355   */\n    tag_158:\n        /* \"#utility.yul\":4260:4269   */\n      dup1\n      dup3\n      mul\n        /* \"#utility.yul\":4291:4300   */\n      dup2\n      iszero\n        /* \"#utility.yul\":4308:4323   */\n      dup3\n      dup3\n      div\n        /* \"#utility.yul\":4302:4324   */\n      dup5\n      eq\n        /* \"#utility.yul\":4288:4325   */\n      or\n        /* \"#utility.yul\":4278:4349   */\n      tag_150\n      jumpi\n        /* \"#utility.yul\":4329:4347   */\n      tag_150\n      tag_345\n      jump\t// in\n        /* \"#utility.yul\":4360:4577   */\n    tag_160:\n        /* \"#utility.yul\":4400:4401   */\n      0x00\n        /* \"#utility.yul\":4426:4427   */\n      dup3\n        /* \"#utility.yul\":4416:4548   */\n      tag_375\n      jumpi\n        /* \"#utility.yul\":4470:4480   */\n      0x4e487b71\n        /* \"#utility.yul\":4465:4468   */\n      0xe0\n        /* \"#utility.yul\":4461:4481   */\n      shl\n        /* \"#utility.yul\":4458:4459   */\n      0x00\n        /* \"#utility.yul\":4451:4482   */\n      mstore\n        /* \"#utility.yul\":4505:4509   */\n      0x12\n        /* \"#utility.yul\":4502:4503   */\n      0x04\n        /* \"#utility.yul\":4495:4510   */\n      mstore\n        /* \"#utility.yul\":4533:4537   */\n      0x24\n        /* \"#utility.yul\":4530:4531   */\n      0x00\n        /* \"#utility.yul\":4523:4538   */\n      revert\n        /* \"#utility.yul\":4416:4548   */\n    tag_375:\n      pop\n        /* \"#utility.yul\":4562:4571   */\n      div\n      swap1\n        /* \"#utility.yul\":4360:4577   */\n      jump\t// out\n        /* \"#utility.yul\":4582:4710   */\n    tag_162:\n        /* \"#utility.yul\":4649:4658   */\n      dup2\n      dup2\n      sub\n        /* \"#utility.yul\":4670:4681   */\n      dup2\n      dup2\n      gt\n        /* \"#utility.yul\":4667:4704   */\n      iszero\n      tag_150\n      jumpi\n        /* \"#utility.yul\":4684:4702   */\n      tag_150\n      tag_345\n      jump\t// in\n        /* \"#utility.yul\":4715:4840   */\n    tag_169:\n        /* \"#utility.yul\":4780:4789   */\n      dup1\n      dup3\n      add\n        /* \"#utility.yul\":4801:4811   */\n      dup1\n      dup3\n      gt\n        /* \"#utility.yul\":4798:4834   */\n      iszero\n      tag_150\n      jumpi\n        /* \"#utility.yul\":4814:4832   */\n      tag_150\n      tag_345\n      jump\t// in\n        /* \"#utility.yul\":4845:5075   */\n    tag_180:\n        /* \"#utility.yul\":4915:4921   */\n      0x00\n        /* \"#utility.yul\":4968:4970   */\n      0x20\n        /* \"#utility.yul\":4956:4965   */\n      dup3\n        /* \"#utility.yul\":4947:4954   */\n      dup5\n        /* \"#utility.yul\":4943:4966   */\n      sub\n        /* \"#utility.yul\":4939:4971   */\n      slt\n        /* \"#utility.yul\":4936:4988   */\n      iszero\n      tag_383\n      jumpi\n        /* \"#utility.yul\":4984:4985   */\n      0x00\n        /* \"#utility.yul\":4981:4982   */\n      dup1\n        /* \"#utility.yul\":4974:4986   */\n      revert\n        /* \"#utility.yul\":4936:4988   */\n    tag_383:\n      pop\n        /* \"#utility.yul\":5029:5045   */\n      mload\n      swap2\n        /* \"#utility.yul\":4845:5075   */\n      swap1\n      pop\n      jump\t// out\n        /* \"#utility.yul\":5939:6190   */\n    tag_196:\n        /* \"#utility.yul\":6009:6015   */\n      0x00\n        /* \"#utility.yul\":6062:6064   */\n      0x20\n        /* \"#utility.yul\":6050:6059   */\n      dup3\n        /* \"#utility.yul\":6041:6048   */\n      dup5\n        /* \"#utility.yul\":6037:6060   */\n      sub\n        /* \"#utility.yul\":6033:6065   */\n      slt\n        /* \"#utility.yul\":6030:6082   */\n      iszero\n      tag_387\n      jumpi\n        /* \"#utility.yul\":6078:6079   */\n      0x00\n        /* \"#utility.yul\":6075:6076   */\n      dup1\n        /* \"#utility.yul\":6068:6080   */\n      revert\n        /* \"#utility.yul\":6030:6082   */\n    tag_387:\n        /* \"#utility.yul\":6110:6119   */\n      dup2\n        /* \"#utility.yul\":6104:6120   */\n      mload\n        /* \"#utility.yul\":6129:6160   */\n      tag_338\n        /* \"#utility.yul\":6154:6159   */\n      dup2\n        /* \"#utility.yul\":6129:6160   */\n      tag_342\n      jump\t// in\n        /* \"#utility.yul\":6806:7974   */\n    tag_211:\n        /* \"#utility.yul\":7024:7037   */\n      dup2\n      mload\n      sub(shl(0xa0, 0x01), 0x01)\n        /* \"#utility.yul\":840:871   */\n      and\n        /* \"#utility.yul\":828:872   */\n      dup2\n      mstore\n        /* \"#utility.yul\":6992:6995   */\n      0x0160\n        /* \"#utility.yul\":6977:6996   */\n      dup2\n      add\n        /* \"#utility.yul\":7096:7100   */\n      0x20\n        /* \"#utility.yul\":7088:7094   */\n      dup4\n        /* \"#utility.yul\":7084:7101   */\n      add\n        /* \"#utility.yul\":7078:7102   */\n      mload\n        /* \"#utility.yul\":7111:7165   */\n      tag_393\n        /* \"#utility.yul\":7159:7163   */\n      0x20\n        /* \"#utility.yul\":7148:7157   */\n      dup5\n        /* \"#utility.yul\":7144:7164   */\n      add\n        /* \"#utility.yul\":7130:7142   */\n      dup3\n      sub(shl(0xa0, 0x01), 0x01)\n        /* \"#utility.yul\":840:871   */\n      and\n        /* \"#utility.yul\":828:872   */\n      swap1\n      mstore\n        /* \"#utility.yul\":774:878   */\n      jump\n        /* \"#utility.yul\":7111:7165   */\n    tag_393:\n      pop\n        /* \"#utility.yul\":7214:7218   */\n      0x40\n        /* \"#utility.yul\":7206:7212   */\n      dup4\n        /* \"#utility.yul\":7202:7219   */\n      add\n        /* \"#utility.yul\":7196:7220   */\n      mload\n        /* \"#utility.yul\":7229:7285   */\n      tag_394\n        /* \"#utility.yul\":7279:7283   */\n      0x40\n        /* \"#utility.yul\":7268:7277   */\n      dup5\n        /* \"#utility.yul\":7264:7284   */\n      add\n        /* \"#utility.yul\":7248:7262   */\n      dup3\n      sub(shl(0xa0, 0x01), 0x01)\n        /* \"#utility.yul\":840:871   */\n      and\n        /* \"#utility.yul\":828:872   */\n      swap1\n      mstore\n        /* \"#utility.yul\":774:878   */\n      jump\n        /* \"#utility.yul\":7229:7285   */\n    tag_394:\n      pop\n        /* \"#utility.yul\":7334:7338   */\n      0x60\n        /* \"#utility.yul\":7326:7332   */\n      dup4\n        /* \"#utility.yul\":7322:7339   */\n      add\n        /* \"#utility.yul\":7316:7340   */\n      mload\n        /* \"#utility.yul\":7349:7403   */\n      tag_395\n        /* \"#utility.yul\":7397:7401   */\n      0x60\n        /* \"#utility.yul\":7386:7395   */\n      dup5\n        /* \"#utility.yul\":7382:7402   */\n      add\n        /* \"#utility.yul\":7366:7380   */\n      dup3\n        /* \"#utility.yul\":1540:1541   */\n      0x02\n        /* \"#utility.yul\":1529:1549   */\n      signextend\n        /* \"#utility.yul\":1517:1550   */\n      swap1\n      mstore\n        /* \"#utility.yul\":1465:1556   */\n      jump\n        /* \"#utility.yul\":7349:7403   */\n    tag_395:\n      pop\n        /* \"#utility.yul\":7452:7456   */\n      0x80\n        /* \"#utility.yul\":7444:7450   */\n      dup4\n        /* \"#utility.yul\":7440:7457   */\n      add\n        /* \"#utility.yul\":7434:7458   */\n      mload\n        /* \"#utility.yul\":7467:7521   */\n      tag_396\n        /* \"#utility.yul\":7515:7519   */\n      0x80\n        /* \"#utility.yul\":7504:7513   */\n      dup5\n        /* \"#utility.yul\":7500:7520   */\n      add\n        /* \"#utility.yul\":7484:7498   */\n      dup3\n        /* \"#utility.yul\":1540:1541   */\n      0x02\n        /* \"#utility.yul\":1529:1549   */\n      signextend\n        /* \"#utility.yul\":1517:1550   */\n      swap1\n      mstore\n        /* \"#utility.yul\":1465:1556   */\n      jump\n        /* \"#utility.yul\":7467:7521   */\n    tag_396:\n      pop\n        /* \"#utility.yul\":7577:7581   */\n      0xa0\n        /* \"#utility.yul\":7569:7575   */\n      dup4\n        /* \"#utility.yul\":7565:7582   */\n      add\n        /* \"#utility.yul\":7559:7583   */\n      mload\n        /* \"#utility.yul\":7552:7556   */\n      0xa0\n        /* \"#utility.yul\":7541:7550   */\n      dup4\n        /* \"#utility.yul\":7537:7557   */\n      add\n        /* \"#utility.yul\":7530:7584   */\n      mstore\n        /* \"#utility.yul\":7640:7644   */\n      0xc0\n        /* \"#utility.yul\":7632:7638   */\n      dup4\n        /* \"#utility.yul\":7628:7645   */\n      add\n        /* \"#utility.yul\":7622:7646   */\n      mload\n        /* \"#utility.yul\":7615:7619   */\n      0xc0\n        /* \"#utility.yul\":7604:7613   */\n      dup4\n        /* \"#utility.yul\":7600:7620   */\n      add\n        /* \"#utility.yul\":7593:7647   */\n      mstore\n        /* \"#utility.yul\":7703:7707   */\n      0xe0\n        /* \"#utility.yul\":7695:7701   */\n      dup4\n        /* \"#utility.yul\":7691:7708   */\n      add\n        /* \"#utility.yul\":7685:7709   */\n      mload\n        /* \"#utility.yul\":7678:7682   */\n      0xe0\n        /* \"#utility.yul\":7667:7676   */\n      dup4\n        /* \"#utility.yul\":7663:7683   */\n      add\n        /* \"#utility.yul\":7656:7710   */\n      mstore\n        /* \"#utility.yul\":7768:7774   */\n      0x0100\n        /* \"#utility.yul\":7760:7766   */\n      dup4\n        /* \"#utility.yul\":7756:7775   */\n      add\n        /* \"#utility.yul\":7750:7776   */\n      mload\n        /* \"#utility.yul\":7741:7747   */\n      0x0100\n        /* \"#utility.yul\":7730:7739   */\n      dup4\n        /* \"#utility.yul\":7726:7748   */\n      add\n        /* \"#utility.yul\":7719:7777   */\n      mstore\n        /* \"#utility.yul\":7826:7832   */\n      0x0120\n        /* \"#utility.yul\":7818:7824   */\n      dup4\n        /* \"#utility.yul\":7814:7833   */\n      add\n        /* \"#utility.yul\":7808:7834   */\n      mload\n        /* \"#utility.yul\":7843:7901   */\n      tag_397\n        /* \"#utility.yul\":7893:7899   */\n      0x0120\n        /* \"#utility.yul\":7882:7891   */\n      dup5\n        /* \"#utility.yul\":7878:7900   */\n      add\n        /* \"#utility.yul\":7862:7876   */\n      dup3\n      sub(shl(0xa0, 0x01), 0x01)\n        /* \"#utility.yul\":840:871   */\n      and\n        /* \"#utility.yul\":828:872   */\n      swap1\n      mstore\n        /* \"#utility.yul\":774:878   */\n      jump\n        /* \"#utility.yul\":7843:7901   */\n    tag_397:\n      pop\n        /* \"#utility.yul\":7959:7965   */\n      0x0140\n        /* \"#utility.yul\":7947:7966   */\n      swap3\n      dup4\n      add\n        /* \"#utility.yul\":7941:7967   */\n      mload\n        /* \"#utility.yul\":7917:7939   */\n      swap2\n      swap1\n      swap3\n      add\n        /* \"#utility.yul\":7910:7968   */\n      mstore\n        /* \"#utility.yul\":6806:7974   */\n      swap1\n      jump\t// out\n        /* \"#utility.yul\":7979:8626   */\n    tag_215:\n        /* \"#utility.yul\":8076:8082   */\n      0x00\n        /* \"#utility.yul\":8084:8090   */\n      dup1\n        /* \"#utility.yul\":8092:8098   */\n      0x00\n        /* \"#utility.yul\":8100:8106   */\n      dup1\n        /* \"#utility.yul\":8153:8156   */\n      0x80\n        /* \"#utility.yul\":8141:8150   */\n      dup6\n        /* \"#utility.yul\":8132:8139   */\n      dup8\n        /* \"#utility.yul\":8128:8151   */\n      sub\n        /* \"#utility.yul\":8124:8157   */\n      slt\n        /* \"#utility.yul\":8121:8174   */\n      iszero\n      tag_399\n      jumpi\n        /* \"#utility.yul\":8170:8171   */\n      0x00\n        /* \"#utility.yul\":8167:8168   */\n      dup1\n        /* \"#utility.yul\":8160:8172   */\n      revert\n        /* \"#utility.yul\":8121:8174   */\n    tag_399:\n        /* \"#utility.yul\":8215:8231   */\n      dup5\n      mload\n        /* \"#utility.yul\":8300:8302   */\n      0x20\n        /* \"#utility.yul\":8285:8303   */\n      dup7\n      add\n        /* \"#utility.yul\":8279:8304   */\n      mload\n        /* \"#utility.yul\":8215:8231   */\n      swap1\n      swap5\n      pop\n      sub(shl(0x80, 0x01), 0x01)\n        /* \"#utility.yul\":8335:8383   */\n      dup2\n      and\n        /* \"#utility.yul\":8323:8384   */\n      dup2\n      eq\n        /* \"#utility.yul\":8313:8402   */\n      tag_400\n      jumpi\n        /* \"#utility.yul\":8398:8399   */\n      0x00\n        /* \"#utility.yul\":8395:8396   */\n      dup1\n        /* \"#utility.yul\":8388:8400   */\n      revert\n        /* \"#utility.yul\":8313:8402   */\n    tag_400:\n        /* \"#utility.yul\":8494:8496   */\n      0x40\n        /* \"#utility.yul\":8479:8497   */\n      dup7\n      add\n        /* \"#utility.yul\":8473:8498   */\n      mload\n        /* \"#utility.yul\":8590:8592   */\n      0x60\n        /* \"#utility.yul\":8575:8593   */\n      swap1\n      swap7\n      add\n        /* \"#utility.yul\":8569:8594   */\n      mload\n        /* \"#utility.yul\":7979:8626   */\n      swap5\n      swap8\n        /* \"#utility.yul\":8421:8428   */\n      swap1\n      swap7\n      pop\n        /* \"#utility.yul\":7979:8626   */\n      swap3\n      pop\n      pop\n      pop\n      jump\t// out\n        /* \"#utility.yul\":10411:10688   */\n    tag_255:\n        /* \"#utility.yul\":10478:10484   */\n      0x00\n        /* \"#utility.yul\":10531:10533   */\n      0x20\n        /* \"#utility.yul\":10519:10528   */\n      dup3\n        /* \"#utility.yul\":10510:10517   */\n      dup5\n        /* \"#utility.yul\":10506:10529   */\n      sub\n        /* \"#utility.yul\":10502:10534   */\n      slt\n        /* \"#utility.yul\":10499:10551   */\n      iszero\n      tag_407\n      jumpi\n        /* \"#utility.yul\":10547:10548   */\n      0x00\n        /* \"#utility.yul\":10544:10545   */\n      dup1\n        /* \"#utility.yul\":10537:10549   */\n      revert\n        /* \"#utility.yul\":10499:10551   */\n    tag_407:\n        /* \"#utility.yul\":10579:10588   */\n      dup2\n        /* \"#utility.yul\":10573:10589   */\n      mload\n        /* \"#utility.yul\":10632:10637   */\n      dup1\n        /* \"#utility.yul\":10625:10638   */\n      iszero\n        /* \"#utility.yul\":10618:10639   */\n      iszero\n        /* \"#utility.yul\":10611:10616   */\n      dup2\n        /* \"#utility.yul\":10608:10640   */\n      eq\n        /* \"#utility.yul\":10598:10658   */\n      tag_338\n      jumpi\n        /* \"#utility.yul\":10654:10655   */\n      0x00\n        /* \"#utility.yul\":10651:10652   */\n      dup1\n        /* \"#utility.yul\":10644:10656   */\n      revert\n        /* \"#utility.yul\":13439:13851   */\n    tag_316:\n        /* \"#utility.yul\":13568:13571   */\n      0x00\n        /* \"#utility.yul\":13606:13612   */\n      dup3\n        /* \"#utility.yul\":13600:13613   */\n      mload\n        /* \"#utility.yul\":13631:13632   */\n      0x00\n        /* \"#utility.yul\":13641:13770   */\n    tag_418:\n        /* \"#utility.yul\":13655:13661   */\n      dup2\n        /* \"#utility.yul\":13652:13653   */\n      dup2\n        /* \"#utility.yul\":13649:13662   */\n      lt\n        /* \"#utility.yul\":13641:13770   */\n      iszero\n      tag_420\n      jumpi\n        /* \"#utility.yul\":13753:13757   */\n      0x20\n        /* \"#utility.yul\":13737:13751   */\n      dup2\n      dup7\n      add\n        /* \"#utility.yul\":13733:13758   */\n      dup2\n      add\n        /* \"#utility.yul\":13727:13759   */\n      mload\n        /* \"#utility.yul\":13714:13725   */\n      dup6\n      dup4\n      add\n        /* \"#utility.yul\":13707:13760   */\n      mstore\n        /* \"#utility.yul\":13670:13682   */\n      add\n        /* \"#utility.yul\":13641:13770   */\n      jump(tag_418)\n    tag_420:\n      pop\n        /* \"#utility.yul\":13825:13826   */\n      0x00\n        /* \"#utility.yul\":13789:13805   */\n      swap3\n      add\n        /* \"#utility.yul\":13814:13827   */\n      swap2\n      dup3\n      mstore\n      pop\n        /* \"#utility.yul\":13789:13805   */\n      swap2\n        /* \"#utility.yul\":13439:13851   */\n      swap1\n      pop\n      jump\t// out\n\n    auxdata: 0xa2646970667358221220184deddf1680ffef05c522a67c9df7f155d0a7774ef6dc9cb5ad46d221e1ee0c64736f6c634300081a0033\n}\n",
				"bytecode": {
					"linkReferences": {},
					"object": "6080604052608260085534801561001557600080fd5b50604051611bcb380380611bcb8339810160408190526100349161020a565b6001600160a01b03841661008f5760405162461bcd60e51b815260206004820152601760248201527f496e76616c696420416c6765627261206164647265737300000000000000000060448201526064015b60405180910390fd5b6001600160a01b0383166100e55760405162461bcd60e51b815260206004820152601460248201527f496e76616c6964205745544820616464726573730000000000000000000000006044820152606401610086565b6001600160a01b03821661013b5760405162461bcd60e51b815260206004820152601960248201527f496e76616c696420726f6f7473746f636b2061646472657373000000000000006044820152606401610086565b6001600160a01b0381166101915760405162461bcd60e51b815260206004820152601a60248201527f496e76616c6964206d6f6e61726b5465616d20616464726573730000000000006044820152606401610086565b60008054336001600160a01b0319918216179091556001805482166001600160a01b03968716179055600280548216948616949094179093556003805484169285169290921790915560048054909216921691909117905561025e565b80516001600160a01b038116811461020557600080fd5b919050565b6000806000806080858703121561022057600080fd5b610229856101ee565b9350610237602086016101ee565b9250610245604086016101ee565b9150610253606086016101ee565b905092959194509250565b61195e8061026d6000396000f3fe60806040526004361061016a5760003560e01c80638ab1d681116100d1578063ad5c46481161008a578063db2e21bc11610064578063db2e21bc14610434578063e42bbbd514610449578063e43252d714610451578063fe9440d71461047157600080fd5b8063ad5c4648146103df578063b2af127c146103ff578063c7b8981c1461041f57600080fd5b80638ab1d681146103275780638da5cb5b1461034757806398fabd3a14610367578063a000bf4f14610387578063a1634b14146103a7578063a8bd9dde146103bf57600080fd5b80633b7ab5b3116101235780633b7ab5b3146102755780635a2f0ae7146102955780636484bbaa146102b15780636882a888146102c75780636fb3ea56146102f1578063703dc75c1461031157600080fd5b806309fe2d341461017657806318fd78581461019857806324f8eca7146101c8578063288b0b5a146101e857806330bff625146102085780633af32abf1461022c57600080fd5b3661017157005b600080fd5b34801561018257600080fd5b5061019661019136600461165e565b610491565b005b6101ab6101a636600461167b565b61052e565b6040516001600160a01b0390911681526020015b60405180910390f35b3480156101d457600080fd5b506001546101ab906001600160a01b031681565b3480156101f457600080fd5b506004546101ab906001600160a01b031681565b34801561021457600080fd5b5061021e60085481565b6040519081526020016101bf565b34801561023857600080fd5b5061026561024736600461165e565b6001600160a01b03166000908152600a602052604090205460ff1690565b60405190151581526020016101bf565b34801561028157600080fd5b5061021e6b43dacaf91c1a84ff0800000081565b3480156102a157600080fd5b5061021e678ac7230489e8000081565b3480156102bd57600080fd5b5061021e60065481565b3480156102d357600080fd5b506102de620d89b481565b60405160029190910b81526020016101bf565b3480156102fd57600080fd5b506003546101ab906001600160a01b031681565b34801561031d57600080fd5b5061021e60075481565b34801561033357600080fd5b5061019661034236600461165e565b610c24565b34801561035357600080fd5b506000546101ab906001600160a01b031681565b34801561037357600080fd5b506005546101ab906001600160a01b031681565b34801561039357600080fd5b506101ab6103a23660046116a7565b610cff565b3480156103b357600080fd5b506102de620d89b31981565b3480156103cb57600080fd5b506101ab6103da3660046116c9565b610d77565b3480156103eb57600080fd5b506002546101ab906001600160a01b031681565b34801561040b57600080fd5b5061019661041a36600461165e565b610da1565b34801561042b57600080fd5b50610196610efc565b34801561044057600080fd5b5061019661111f565b6101966111f0565b34801561045d57600080fd5b5061019661046c36600461165e565b611294565b34801561047d57600080fd5b5061019661048c36600461165e565b611373565b6000546001600160a01b031633146104c45760405162461bcd60e51b81526004016104bb906116e2565b60405180910390fd5b6001600160a01b03811661050c5760405162461bcd60e51b815260206004820152600f60248201526e496e76616c6964206164647265737360881b60448201526064016104bb565b600180546001600160a01b0319166001600160a01b0392909216919091179055565b600080341161058e5760405162461bcd60e51b815260206004820152602660248201527f457468657220616d6f756e74206d7573742062652067726561746572207468616044820152656e207a65726f60d01b60648201526084016104bb565b600082116105ed5760405162461bcd60e51b815260206004820152602660248201527f546f6b656e20616d6f756e74206d7573742062652067726561746572207468616044820152656e207a65726f60d01b60648201526084016104bb565b6000601e6105fd846103e861172f565b6106079190611746565b905060006106158285611768565b60098054600181019091557f6e1540171b6c0c960b71a7020d9f60077f6af931a8bbf590da0223dacf75c7af0180546001600160a01b0319166001600160a01b0388169081179091556000908152600b602052604081208490559091506b43dacaf91c1a84ff08000000821161068b5781610699565b6b43dacaf91c1a84ff080000005b90506000600854346103e86106ae919061172f565b6106b89190611746565b905080600660008282546106cc919061177b565b9091555060009050678ac7230489e8000034116106f2576106ed8234611768565b6106fc565b678ac7230489e800005b9050600260009054906101000a90046001600160a01b03166001600160a01b031663d0e30db0826040518263ffffffff1660e01b81526004016000604051808303818588803b15801561074e57600080fd5b505af1158015610762573d6000803e3d6000fd5b50506002546040516370a0823160e01b8152306004820152600094506001600160a01b0390911692506370a082319150602401602060405180830381865afa1580156107b2573d6000803e3d6000fd5b505050506040513d601f19601f820116820180604052508101906107d6919061178e565b9050818110156108285760405162461bcd60e51b815260206004820152601e60248201527f4661696c656420746f207772617020457468657220696e746f2057455448000060448201526064016104bb565b61083d6001600160a01b038a16333087611407565b6002546000906001600160a01b03908116908b1610610867576002546001600160a01b0316610869565b895b6002549091506000906001600160a01b03908116908c161061088b578a610898565b6002546001600160a01b03165b905060006108a68786610cff565b6001546040516343a9d0cd60e11b81526001600160a01b0386811660048301528581166024830152600060448301528084166064830152929350911690638753a19a906084016020604051808303816000875af115801561090b573d6000803e3d6000fd5b505050506040513d601f19601f8201168201806040525081019061092f91906117a7565b99506001600160a01b038a166109875760405162461bcd60e51b815260206004820152601d60248201527f4661696c656420746f2063726561746520416c676562726120706f6f6c00000060448201526064016104bb565b8b6001600160a01b03168a6001600160a01b03167f0bc269b08661fa7948aabbb2ac773747166492e0ac63735b66898001e237a1bc89886040516109d5929190918252602082015260400190565b60405180910390a36001546109f7906001600160a01b038e8116911689611501565b600154600254610a14916001600160a01b03918216911686611501565b6000604051806101600160405280856001600160a01b03168152602001846001600160a01b0316815260200160006001600160a01b03168152602001620d89b31960020b8152602001620d89b460020b81526020018e6001600160a01b0316866001600160a01b031614610a885786610a8a565b895b81526020018e6001600160a01b0316856001600160a01b031614610aae5789610ab0565b865b81526000602082018190526040820152306060820152608001610ad542610e1061177b565b905260015460405163fe3f3be760e01b8152919250600091829182916001600160a01b039091169063fe3f3be790610b119087906004016117c4565b6080604051808303816000875af1158015610b30573d6000803e3d6000fd5b505050506040513d601f19601f82011682018060405250810190610b54919061188c565b935093509350506000836001600160801b031611610bb45760405162461bcd60e51b815260206004820152601860248201527f4661696c656420746f206d696e74206c6971756964697479000000000000000060448201526064016104bb565b60408051600081526001600160801b0385166020820152908101839052606081018290526001600160a01b038f16907f936f1605239d50a44520651cb0698a8f77eea34a13f43a4eac22872b1baf48cc9060800160405180910390a2505050505050505050505050505b92915050565b6000546001600160a01b03163314610c4e5760405162461bcd60e51b81526004016104bb906116e2565b6001600160a01b0381166000908152600a602052604090205460ff16610cb65760405162461bcd60e51b815260206004820152601860248201527f41646472657373206e6f7420696e2077686974656c697374000000000000000060448201526064016104bb565b6001600160a01b0381166000818152600a6020526040808220805460ff19169055517f535611fb62fa2a833988f283b779e417e996813e44046f521d76c17b5943b08c9190a250565b6000806b43dacaf91c1a84ff080000008411610d1b5783610d29565b6b43dacaf91c1a84ff080000005b90506000678ac7230489e800008411610d425783610d4c565b678ac7230489e800005b90506000610d5e83606084901b611746565b90506030610d6b826115f2565b901b9695505050505050565b60098181548110610d8757600080fd5b6000918252602090912001546001600160a01b0316905081565b6000546001600160a01b03163314610dcb5760405162461bcd60e51b81526004016104bb906116e2565b6040516370a0823160e01b81523060048201526000906001600160a01b038316906370a0823190602401602060405180830381865afa158015610e12573d6000803e3d6000fd5b505050506040513d601f19601f82011682018060405250810190610e36919061178e565b905060008111610e805760405162461bcd60e51b81526020600482015260156024820152744e6f20746f6b656e7320746f20776974686472617760581b60448201526064016104bb565b60005460405163a9059cbb60e01b81526001600160a01b039182166004820152602481018390529083169063a9059cbb906044016020604051808303816000875af1158015610ed3573d6000803e3d6000fd5b505050506040513d601f19601f82011682018060405250810190610ef791906118d7565b505050565b336000908152600a602052604090205460ff16610f6d5760405162461bcd60e51b815260206004820152602960248201527f4e6f7420617574686f72697a65643a2063616c6c6572206973206e6f742077686044820152681a5d195b1a5cdd195960ba1b60648201526084016104bb565b600060065411610fb65760405162461bcd60e51b81526020600482015260146024820152734e6f20457468657220746f20776974686472617760601b60448201526064016104bb565b600060c86006546103e8610fca919061172f565b610fd49190611746565b9050600081600654610fe69190611768565b6003546040519192506000916001600160a01b039091169084908381818185875af1925050503d8060008114611038576040519150601f19603f3d011682016040523d82523d6000602084013e61103d565b606091505b50509050806110825760405162461bcd60e51b815260206004820152601160248201527015da5d1a191c985dd85b0819985a5b1959607a1b60448201526064016104bb565b6004546040516000916001600160a01b03169084908381818185875af1925050503d80600081146110cf576040519150601f19603f3d011682016040523d82523d6000602084013e6110d4565b606091505b50509050806111195760405162461bcd60e51b815260206004820152601160248201527015da5d1a191c985dd85b0819985a5b1959607a1b60448201526064016104bb565b50505050565b6000546001600160a01b031633146111495760405162461bcd60e51b81526004016104bb906116e2565b4780156111ed57600080546040516001600160a01b039091169083908381818185875af1925050503d806000811461119d576040519150601f19603f3d011682016040523d82523d6000602084013e6111a2565b606091505b50509050806111eb5760405162461bcd60e51b8152602060048201526015602482015274115d1a195c881dda5d1a191c985dc819985a5b1959605a1b60448201526064016104bb565b505b50565b600034116112375760405162461bcd60e51b815260206004820152601460248201527326bab9ba1039b2b7321039b7b6b29022ba3432b960611b60448201526064016104bb565b3460066000828254611249919061177b565b909155505060065460405133917f1d57945c1033a96907a78f6e0ebf6a03815725dac25f33cc806558670344ac889161128a91348252602082015260400190565b60405180910390a2565b6000546001600160a01b031633146112be5760405162461bcd60e51b81526004016104bb906116e2565b6001600160a01b0381166000908152600a602052604090205460ff16156113275760405162461bcd60e51b815260206004820152601b60248201527f4164647265737320616c72656164792077686974656c6973746564000000000060448201526064016104bb565b6001600160a01b0381166000818152600a6020526040808220805460ff19166001179055517f534d18c8ff24ba5980906d732f3075704749427353734fbbf05d50485643b1249190a250565b6000546001600160a01b0316331461139d5760405162461bcd60e51b81526004016104bb906116e2565b6001600160a01b0381166113e55760405162461bcd60e51b815260206004820152600f60248201526e496e76616c6964206164647265737360881b60448201526064016104bb565b600280546001600160a01b0319166001600160a01b0392909216919091179055565b604080516001600160a01b0385811660248301528481166044830152606480830185905283518084039091018152608490920183526020820180516001600160e01b03166323b872dd60e01b179052915160009283929088169161146b91906118f9565b6000604051808303816000865af19150503d80600081146114a8576040519150601f19603f3d011682016040523d82523d6000602084013e6114ad565b606091505b50915091508115806114db57508051158015906114db5750808060200190518101906114d991906118d7565b155b156114f95760405163817275ab60e01b815260040160405180910390fd5b505050505050565b604080516001600160a01b038481166024830152604480830185905283518084039091018152606490920183526020820180516001600160e01b031663095ea7b360e01b179052915160009283929087169161155d91906118f9565b6000604051808303816000865af19150503d806000811461159a576040519150601f19603f3d011682016040523d82523d6000602084013e61159f565b606091505b50915091508115806115cd57508051158015906115cd5750808060200190518101906115cb91906118d7565b155b156115eb57604051637cd36c6560e11b815260040160405180910390fd5b5050505050565b600080600261160284600161177b565b61160c9190611746565b9050825b808210156116425750806002816116278187611746565b611631919061177b565b61163b9190611746565b9150611610565b9392505050565b6001600160a01b03811681146111ed57600080fd5b60006020828403121561167057600080fd5b813561164281611649565b6000806040838503121561168e57600080fd5b823561169981611649565b946020939093013593505050565b600080604083850312156116ba57600080fd5b50508035926020909101359150565b6000602082840312156116db57600080fd5b5035919050565b60208082526018908201527f4f6e6c79206f776e65722063616e2063616c6c20746869730000000000000000604082015260600190565b634e487b7160e01b600052601160045260246000fd5b8082028115828204841417610c1e57610c1e611719565b60008261176357634e487b7160e01b600052601260045260246000fd5b500490565b81810381811115610c1e57610c1e611719565b80820180821115610c1e57610c1e611719565b6000602082840312156117a057600080fd5b5051919050565b6000602082840312156117b957600080fd5b815161164281611649565b81516001600160a01b03168152610160810160208301516117f060208401826001600160a01b03169052565b50604083015161180b60408401826001600160a01b03169052565b506060830151611820606084018260020b9052565b506080830151611835608084018260020b9052565b5060a083015160a083015260c083015160c083015260e083015160e083015261010083015161010083015261012083015161187c6101208401826001600160a01b03169052565b5061014092830151919092015290565b600080600080608085870312156118a257600080fd5b845160208601519094506001600160801b03811681146118c157600080fd5b6040860151606090960151949790965092505050565b6000602082840312156118e957600080fd5b8151801515811461164257600080fd5b6000825160005b8181101561191a5760208186018101518583015201611900565b50600092019182525091905056fea2646970667358221220184deddf1680ffef05c522a67c9df7f155d0a7774ef6dc9cb5ad46d221e1ee0c64736f6c634300081a0033",
					"opcodes": "PUSH1 0x80 PUSH1 0x40 MSTORE PUSH1 0x82 PUSH1 0x8 SSTORE CALLVALUE DUP1 ISZERO PUSH2 0x15 JUMPI PUSH1 0x0 DUP1 REVERT JUMPDEST POP PUSH1 0x40 MLOAD PUSH2 0x1BCB CODESIZE SUB DUP1 PUSH2 0x1BCB DUP4 CODECOPY DUP2 ADD PUSH1 0x40 DUP2 SWAP1 MSTORE PUSH2 0x34 SWAP2 PUSH2 0x20A JUMP JUMPDEST PUSH1 0x1 PUSH1 0x1 PUSH1 0xA0 SHL SUB DUP5 AND PUSH2 0x8F JUMPI PUSH1 0x40 MLOAD PUSH3 0x461BCD PUSH1 0xE5 SHL DUP2 MSTORE PUSH1 0x20 PUSH1 0x4 DUP3 ADD MSTORE PUSH1 0x17 PUSH1 0x24 DUP3 ADD MSTORE PUSH32 0x496E76616C696420416C67656272612061646472657373000000000000000000 PUSH1 0x44 DUP3 ADD MSTORE PUSH1 0x64 ADD JUMPDEST PUSH1 0x40 MLOAD DUP1 SWAP2 SUB SWAP1 REVERT JUMPDEST PUSH1 0x1 PUSH1 0x1 PUSH1 0xA0 SHL SUB DUP4 AND PUSH2 0xE5 JUMPI PUSH1 0x40 MLOAD PUSH3 0x461BCD PUSH1 0xE5 SHL DUP2 MSTORE PUSH1 0x20 PUSH1 0x4 DUP3 ADD MSTORE PUSH1 0x14 PUSH1 0x24 DUP3 ADD MSTORE PUSH32 0x496E76616C696420574554482061646472657373000000000000000000000000 PUSH1 0x44 DUP3 ADD MSTORE PUSH1 0x64 ADD PUSH2 0x86 JUMP JUMPDEST PUSH1 0x1 PUSH1 0x1 PUSH1 0xA0 SHL SUB DUP3 AND PUSH2 0x13B JUMPI PUSH1 0x40 MLOAD PUSH3 0x461BCD PUSH1 0xE5 SHL DUP2 MSTORE PUSH1 0x20 PUSH1 0x4 DUP3 ADD MSTORE PUSH1 0x19 PUSH1 0x24 DUP3 ADD MSTORE PUSH32 0x496E76616C696420726F6F7473746F636B206164647265737300000000000000 PUSH1 0x44 DUP3 ADD MSTORE PUSH1 0x64 ADD PUSH2 0x86 JUMP JUMPDEST PUSH1 0x1 PUSH1 0x1 PUSH1 0xA0 SHL SUB DUP2 AND PUSH2 0x191 JUMPI PUSH1 0x40 MLOAD PUSH3 0x461BCD PUSH1 0xE5 SHL DUP2 MSTORE PUSH1 0x20 PUSH1 0x4 DUP3 ADD MSTORE PUSH1 0x1A PUSH1 0x24 DUP3 ADD MSTORE PUSH32 0x496E76616C6964206D6F6E61726B5465616D2061646472657373000000000000 PUSH1 0x44 DUP3 ADD MSTORE PUSH1 0x64 ADD PUSH2 0x86 JUMP JUMPDEST PUSH1 0x0 DUP1 SLOAD CALLER PUSH1 0x1 PUSH1 0x1 PUSH1 0xA0 SHL SUB NOT SWAP2 DUP3 AND OR SWAP1 SWAP2 SSTORE PUSH1 0x1 DUP1 SLOAD DUP3 AND PUSH1 0x1 PUSH1 0x1 PUSH1 0xA0 SHL SUB SWAP7 DUP8 AND OR SWAP1 SSTORE PUSH1 0x2 DUP1 SLOAD DUP3 AND SWAP5 DUP7 AND SWAP5 SWAP1 SWAP5 OR SWAP1 SWAP4 SSTORE PUSH1 0x3 DUP1 SLOAD DUP5 AND SWAP3 DUP6 AND SWAP3 SWAP1 SWAP3 OR SWAP1 SWAP2 SSTORE PUSH1 0x4 DUP1 SLOAD SWAP1 SWAP3 AND SWAP3 AND SWAP2 SWAP1 SWAP2 OR SWAP1 SSTORE PUSH2 0x25E JUMP JUMPDEST DUP1 MLOAD PUSH1 0x1 PUSH1 0x1 PUSH1 0xA0 SHL SUB DUP2 AND DUP2 EQ PUSH2 0x205 JUMPI PUSH1 0x0 DUP1 REVERT JUMPDEST SWAP2 SWAP1 POP JUMP JUMPDEST PUSH1 0x0 DUP1 PUSH1 0x0 DUP1 PUSH1 0x80 DUP6 DUP8 SUB SLT ISZERO PUSH2 0x220 JUMPI PUSH1 0x0 DUP1 REVERT JUMPDEST PUSH2 0x229 DUP6 PUSH2 0x1EE JUMP JUMPDEST SWAP4 POP PUSH2 0x237 PUSH1 0x20 DUP7 ADD PUSH2 0x1EE JUMP JUMPDEST SWAP3 POP PUSH2 0x245 PUSH1 0x40 DUP7 ADD PUSH2 0x1EE JUMP JUMPDEST SWAP2 POP PUSH2 0x253 PUSH1 0x60 DUP7 ADD PUSH2 0x1EE JUMP JUMPDEST SWAP1 POP SWAP3 SWAP6 SWAP2 SWAP5 POP SWAP3 POP JUMP JUMPDEST PUSH2 0x195E DUP1 PUSH2 0x26D PUSH1 0x0 CODECOPY PUSH1 0x0 RETURN INVALID PUSH1 0x80 PUSH1 0x40 MSTORE PUSH1 0x4 CALLDATASIZE LT PUSH2 0x16A JUMPI PUSH1 0x0 CALLDATALOAD PUSH1 0xE0 SHR DUP1 PUSH4 0x8AB1D681 GT PUSH2 0xD1 JUMPI DUP1 PUSH4 0xAD5C4648 GT PUSH2 0x8A JUMPI DUP1 PUSH4 0xDB2E21BC GT PUSH2 0x64 JUMPI DUP1 PUSH4 0xDB2E21BC EQ PUSH2 0x434 JUMPI DUP1 PUSH4 0xE42BBBD5 EQ PUSH2 0x449 JUMPI DUP1 PUSH4 0xE43252D7 EQ PUSH2 0x451 JUMPI DUP1 PUSH4 0xFE9440D7 EQ PUSH2 0x471 JUMPI PUSH1 0x0 DUP1 REVERT JUMPDEST DUP1 PUSH4 0xAD5C4648 EQ PUSH2 0x3DF JUMPI DUP1 PUSH4 0xB2AF127C EQ PUSH2 0x3FF JUMPI DUP1 PUSH4 0xC7B8981C EQ PUSH2 0x41F JUMPI PUSH1 0x0 DUP1 REVERT JUMPDEST DUP1 PUSH4 0x8AB1D681 EQ PUSH2 0x327 JUMPI DUP1 PUSH4 0x8DA5CB5B EQ PUSH2 0x347 JUMPI DUP1 PUSH4 0x98FABD3A EQ PUSH2 0x367 JUMPI DUP1 PUSH4 0xA000BF4F EQ PUSH2 0x387 JUMPI DUP1 PUSH4 0xA1634B14 EQ PUSH2 0x3A7 JUMPI DUP1 PUSH4 0xA8BD9DDE EQ PUSH2 0x3BF JUMPI PUSH1 0x0 DUP1 REVERT JUMPDEST DUP1 PUSH4 0x3B7AB5B3 GT PUSH2 0x123 JUMPI DUP1 PUSH4 0x3B7AB5B3 EQ PUSH2 0x275 JUMPI DUP1 PUSH4 0x5A2F0AE7 EQ PUSH2 0x295 JUMPI DUP1 PUSH4 0x6484BBAA EQ PUSH2 0x2B1 JUMPI DUP1 PUSH4 0x6882A888 EQ PUSH2 0x2C7 JUMPI DUP1 PUSH4 0x6FB3EA56 EQ PUSH2 0x2F1 JUMPI DUP1 PUSH4 0x703DC75C EQ PUSH2 0x311 JUMPI PUSH1 0x0 DUP1 REVERT JUMPDEST DUP1 PUSH4 0x9FE2D34 EQ PUSH2 0x176 JUMPI DUP1 PUSH4 0x18FD7858 EQ PUSH2 0x198 JUMPI DUP1 PUSH4 0x24F8ECA7 EQ PUSH2 0x1C8 JUMPI DUP1 PUSH4 0x288B0B5A EQ PUSH2 0x1E8 JUMPI DUP1 PUSH4 0x30BFF625 EQ PUSH2 0x208 JUMPI DUP1 PUSH4 0x3AF32ABF EQ PUSH2 0x22C JUMPI PUSH1 0x0 DUP1 REVERT JUMPDEST CALLDATASIZE PUSH2 0x171 JUMPI STOP JUMPDEST PUSH1 0x0 DUP1 REVERT JUMPDEST CALLVALUE DUP1 ISZERO PUSH2 0x182 JUMPI PUSH1 0x0 DUP1 REVERT JUMPDEST POP PUSH2 0x196 PUSH2 0x191 CALLDATASIZE PUSH1 0x4 PUSH2 0x165E JUMP JUMPDEST PUSH2 0x491 JUMP JUMPDEST STOP JUMPDEST PUSH2 0x1AB PUSH2 0x1A6 CALLDATASIZE PUSH1 0x4 PUSH2 0x167B JUMP JUMPDEST PUSH2 0x52E JUMP JUMPDEST PUSH1 0x40 MLOAD PUSH1 0x1 PUSH1 0x1 PUSH1 0xA0 SHL SUB SWAP1 SWAP2 AND DUP2 MSTORE PUSH1 0x20 ADD JUMPDEST PUSH1 0x40 MLOAD DUP1 SWAP2 SUB SWAP1 RETURN JUMPDEST CALLVALUE DUP1 ISZERO PUSH2 0x1D4 JUMPI PUSH1 0x0 DUP1 REVERT JUMPDEST POP PUSH1 0x1 SLOAD PUSH2 0x1AB SWAP1 PUSH1 0x1 PUSH1 0x1 PUSH1 0xA0 SHL SUB AND DUP2 JUMP JUMPDEST CALLVALUE DUP1 ISZERO PUSH2 0x1F4 JUMPI PUSH1 0x0 DUP1 REVERT JUMPDEST POP PUSH1 0x4 SLOAD PUSH2 0x1AB SWAP1 PUSH1 0x1 PUSH1 0x1 PUSH1 0xA0 SHL SUB AND DUP2 JUMP JUMPDEST CALLVALUE DUP1 ISZERO PUSH2 0x214 JUMPI PUSH1 0x0 DUP1 REVERT JUMPDEST POP PUSH2 0x21E PUSH1 0x8 SLOAD DUP2 JUMP JUMPDEST PUSH1 0x40 MLOAD SWAP1 DUP2 MSTORE PUSH1 0x20 ADD PUSH2 0x1BF JUMP JUMPDEST CALLVALUE DUP1 ISZERO PUSH2 0x238 JUMPI PUSH1 0x0 DUP1 REVERT JUMPDEST POP PUSH2 0x265 PUSH2 0x247 CALLDATASIZE PUSH1 0x4 PUSH2 0x165E JUMP JUMPDEST PUSH1 0x1 PUSH1 0x1 PUSH1 0xA0 SHL SUB AND PUSH1 0x0 SWAP1 DUP2 MSTORE PUSH1 0xA PUSH1 0x20 MSTORE PUSH1 0x40 SWAP1 KECCAK256 SLOAD PUSH1 0xFF AND SWAP1 JUMP JUMPDEST PUSH1 0x40 MLOAD SWAP1 ISZERO ISZERO DUP2 MSTORE PUSH1 0x20 ADD PUSH2 0x1BF JUMP JUMPDEST CALLVALUE DUP1 ISZERO PUSH2 0x281 JUMPI PUSH1 0x0 DUP1 REVERT JUMPDEST POP PUSH2 0x21E PUSH12 0x43DACAF91C1A84FF08000000 DUP2 JUMP JUMPDEST CALLVALUE DUP1 ISZERO PUSH2 0x2A1 JUMPI PUSH1 0x0 DUP1 REVERT JUMPDEST POP PUSH2 0x21E PUSH8 0x8AC7230489E80000 DUP2 JUMP JUMPDEST CALLVALUE DUP1 ISZERO PUSH2 0x2BD JUMPI PUSH1 0x0 DUP1 REVERT JUMPDEST POP PUSH2 0x21E PUSH1 0x6 SLOAD DUP2 JUMP JUMPDEST CALLVALUE DUP1 ISZERO PUSH2 0x2D3 JUMPI PUSH1 0x0 DUP1 REVERT JUMPDEST POP PUSH2 0x2DE PUSH3 0xD89B4 DUP2 JUMP JUMPDEST PUSH1 0x40 MLOAD PUSH1 0x2 SWAP2 SWAP1 SWAP2 SIGNEXTEND DUP2 MSTORE PUSH1 0x20 ADD PUSH2 0x1BF JUMP JUMPDEST CALLVALUE DUP1 ISZERO PUSH2 0x2FD JUMPI PUSH1 0x0 DUP1 REVERT JUMPDEST POP PUSH1 0x3 SLOAD PUSH2 0x1AB SWAP1 PUSH1 0x1 PUSH1 0x1 PUSH1 0xA0 SHL SUB AND DUP2 JUMP JUMPDEST CALLVALUE DUP1 ISZERO PUSH2 0x31D JUMPI PUSH1 0x0 DUP1 REVERT JUMPDEST POP PUSH2 0x21E PUSH1 0x7 SLOAD DUP2 JUMP JUMPDEST CALLVALUE DUP1 ISZERO PUSH2 0x333 JUMPI PUSH1 0x0 DUP1 REVERT JUMPDEST POP PUSH2 0x196 PUSH2 0x342 CALLDATASIZE PUSH1 0x4 PUSH2 0x165E JUMP JUMPDEST PUSH2 0xC24 JUMP JUMPDEST CALLVALUE DUP1 ISZERO PUSH2 0x353 JUMPI PUSH1 0x0 DUP1 REVERT JUMPDEST POP PUSH1 0x0 SLOAD PUSH2 0x1AB SWAP1 PUSH1 0x1 PUSH1 0x1 PUSH1 0xA0 SHL SUB AND DUP2 JUMP JUMPDEST CALLVALUE DUP1 ISZERO PUSH2 0x373 JUMPI PUSH1 0x0 DUP1 REVERT JUMPDEST POP PUSH1 0x5 SLOAD PUSH2 0x1AB SWAP1 PUSH1 0x1 PUSH1 0x1 PUSH1 0xA0 SHL SUB AND DUP2 JUMP JUMPDEST CALLVALUE DUP1 ISZERO PUSH2 0x393 JUMPI PUSH1 0x0 DUP1 REVERT JUMPDEST POP PUSH2 0x1AB PUSH2 0x3A2 CALLDATASIZE PUSH1 0x4 PUSH2 0x16A7 JUMP JUMPDEST PUSH2 0xCFF JUMP JUMPDEST CALLVALUE DUP1 ISZERO PUSH2 0x3B3 JUMPI PUSH1 0x0 DUP1 REVERT JUMPDEST POP PUSH2 0x2DE PUSH3 0xD89B3 NOT DUP2 JUMP JUMPDEST CALLVALUE DUP1 ISZERO PUSH2 0x3CB JUMPI PUSH1 0x0 DUP1 REVERT JUMPDEST POP PUSH2 0x1AB PUSH2 0x3DA CALLDATASIZE PUSH1 0x4 PUSH2 0x16C9 JUMP JUMPDEST PUSH2 0xD77 JUMP JUMPDEST CALLVALUE DUP1 ISZERO PUSH2 0x3EB JUMPI PUSH1 0x0 DUP1 REVERT JUMPDEST POP PUSH1 0x2 SLOAD PUSH2 0x1AB SWAP1 PUSH1 0x1 PUSH1 0x1 PUSH1 0xA0 SHL SUB AND DUP2 JUMP JUMPDEST CALLVALUE DUP1 ISZERO PUSH2 0x40B JUMPI PUSH1 0x0 DUP1 REVERT JUMPDEST POP PUSH2 0x196 PUSH2 0x41A CALLDATASIZE PUSH1 0x4 PUSH2 0x165E JUMP JUMPDEST PUSH2 0xDA1 JUMP JUMPDEST CALLVALUE DUP1 ISZERO PUSH2 0x42B JUMPI PUSH1 0x0 DUP1 REVERT JUMPDEST POP PUSH2 0x196 PUSH2 0xEFC JUMP JUMPDEST CALLVALUE DUP1 ISZERO PUSH2 0x440 JUMPI PUSH1 0x0 DUP1 REVERT JUMPDEST POP PUSH2 0x196 PUSH2 0x111F JUMP JUMPDEST PUSH2 0x196 PUSH2 0x11F0 JUMP JUMPDEST CALLVALUE DUP1 ISZERO PUSH2 0x45D JUMPI PUSH1 0x0 DUP1 REVERT JUMPDEST POP PUSH2 0x196 PUSH2 0x46C CALLDATASIZE PUSH1 0x4 PUSH2 0x165E JUMP JUMPDEST PUSH2 0x1294 JUMP JUMPDEST CALLVALUE DUP1 ISZERO PUSH2 0x47D JUMPI PUSH1 0x0 DUP1 REVERT JUMPDEST POP PUSH2 0x196 PUSH2 0x48C CALLDATASIZE PUSH1 0x4 PUSH2 0x165E JUMP JUMPDEST PUSH2 0x1373 JUMP JUMPDEST PUSH1 0x0 SLOAD PUSH1 0x1 PUSH1 0x1 PUSH1 0xA0 SHL SUB AND CALLER EQ PUSH2 0x4C4 JUMPI PUSH1 0x40 MLOAD PUSH3 0x461BCD PUSH1 0xE5 SHL DUP2 MSTORE PUSH1 0x4 ADD PUSH2 0x4BB SWAP1 PUSH2 0x16E2 JUMP JUMPDEST PUSH1 0x40 MLOAD DUP1 SWAP2 SUB SWAP1 REVERT JUMPDEST PUSH1 0x1 PUSH1 0x1 PUSH1 0xA0 SHL SUB DUP2 AND PUSH2 0x50C JUMPI PUSH1 0x40 MLOAD PUSH3 0x461BCD PUSH1 0xE5 SHL DUP2 MSTORE PUSH1 0x20 PUSH1 0x4 DUP3 ADD MSTORE PUSH1 0xF PUSH1 0x24 DUP3 ADD MSTORE PUSH15 0x496E76616C69642061646472657373 PUSH1 0x88 SHL PUSH1 0x44 DUP3 ADD MSTORE PUSH1 0x64 ADD PUSH2 0x4BB JUMP JUMPDEST PUSH1 0x1 DUP1 SLOAD PUSH1 0x1 PUSH1 0x1 PUSH1 0xA0 SHL SUB NOT AND PUSH1 0x1 PUSH1 0x1 PUSH1 0xA0 SHL SUB SWAP3 SWAP1 SWAP3 AND SWAP2 SWAP1 SWAP2 OR SWAP1 SSTORE JUMP JUMPDEST PUSH1 0x0 DUP1 CALLVALUE GT PUSH2 0x58E JUMPI PUSH1 0x40 MLOAD PUSH3 0x461BCD PUSH1 0xE5 SHL DUP2 MSTORE PUSH1 0x20 PUSH1 0x4 DUP3 ADD MSTORE PUSH1 0x26 PUSH1 0x24 DUP3 ADD MSTORE PUSH32 0x457468657220616D6F756E74206D757374206265206772656174657220746861 PUSH1 0x44 DUP3 ADD MSTORE PUSH6 0x6E207A65726F PUSH1 0xD0 SHL PUSH1 0x64 DUP3 ADD MSTORE PUSH1 0x84 ADD PUSH2 0x4BB JUMP JUMPDEST PUSH1 0x0 DUP3 GT PUSH2 0x5ED JUMPI PUSH1 0x40 MLOAD PUSH3 0x461BCD PUSH1 0xE5 SHL DUP2 MSTORE PUSH1 0x20 PUSH1 0x4 DUP3 ADD MSTORE PUSH1 0x26 PUSH1 0x24 DUP3 ADD MSTORE PUSH32 0x546F6B656E20616D6F756E74206D757374206265206772656174657220746861 PUSH1 0x44 DUP3 ADD MSTORE PUSH6 0x6E207A65726F PUSH1 0xD0 SHL PUSH1 0x64 DUP3 ADD MSTORE PUSH1 0x84 ADD PUSH2 0x4BB JUMP JUMPDEST PUSH1 0x0 PUSH1 0x1E PUSH2 0x5FD DUP5 PUSH2 0x3E8 PUSH2 0x172F JUMP JUMPDEST PUSH2 0x607 SWAP2 SWAP1 PUSH2 0x1746 JUMP JUMPDEST SWAP1 POP PUSH1 0x0 PUSH2 0x615 DUP3 DUP6 PUSH2 0x1768 JUMP JUMPDEST PUSH1 0x9 DUP1 SLOAD PUSH1 0x1 DUP2 ADD SWAP1 SWAP2 SSTORE PUSH32 0x6E1540171B6C0C960B71A7020D9F60077F6AF931A8BBF590DA0223DACF75C7AF ADD DUP1 SLOAD PUSH1 0x1 PUSH1 0x1 PUSH1 0xA0 SHL SUB NOT AND PUSH1 0x1 PUSH1 0x1 PUSH1 0xA0 SHL SUB DUP9 AND SWAP1 DUP2 OR SWAP1 SWAP2 SSTORE PUSH1 0x0 SWAP1 DUP2 MSTORE PUSH1 0xB PUSH1 0x20 MSTORE PUSH1 0x40 DUP2 KECCAK256 DUP5 SWAP1 SSTORE SWAP1 SWAP2 POP PUSH12 0x43DACAF91C1A84FF08000000 DUP3 GT PUSH2 0x68B JUMPI DUP2 PUSH2 0x699 JUMP JUMPDEST PUSH12 0x43DACAF91C1A84FF08000000 JUMPDEST SWAP1 POP PUSH1 0x0 PUSH1 0x8 SLOAD CALLVALUE PUSH2 0x3E8 PUSH2 0x6AE SWAP2 SWAP1 PUSH2 0x172F JUMP JUMPDEST PUSH2 0x6B8 SWAP2 SWAP1 PUSH2 0x1746 JUMP JUMPDEST SWAP1 POP DUP1 PUSH1 0x6 PUSH1 0x0 DUP3 DUP3 SLOAD PUSH2 0x6CC SWAP2 SWAP1 PUSH2 0x177B JUMP JUMPDEST SWAP1 SWAP2 SSTORE POP PUSH1 0x0 SWAP1 POP PUSH8 0x8AC7230489E80000 CALLVALUE GT PUSH2 0x6F2 JUMPI PUSH2 0x6ED DUP3 CALLVALUE PUSH2 0x1768 JUMP JUMPDEST PUSH2 0x6FC JUMP JUMPDEST PUSH8 0x8AC7230489E80000 JUMPDEST SWAP1 POP PUSH1 0x2 PUSH1 0x0 SWAP1 SLOAD SWAP1 PUSH2 0x100 EXP SWAP1 DIV PUSH1 0x1 PUSH1 0x1 PUSH1 0xA0 SHL SUB AND PUSH1 0x1 PUSH1 0x1 PUSH1 0xA0 SHL SUB AND PUSH4 0xD0E30DB0 DUP3 PUSH1 0x40 MLOAD DUP3 PUSH4 0xFFFFFFFF AND PUSH1 0xE0 SHL DUP2 MSTORE PUSH1 0x4 ADD PUSH1 0x0 PUSH1 0x40 MLOAD DUP1 DUP4 SUB DUP2 DUP6 DUP9 DUP1 EXTCODESIZE ISZERO DUP1 ISZERO PUSH2 0x74E JUMPI PUSH1 0x0 DUP1 REVERT JUMPDEST POP GAS CALL ISZERO DUP1 ISZERO PUSH2 0x762 JUMPI RETURNDATASIZE PUSH1 0x0 DUP1 RETURNDATACOPY RETURNDATASIZE PUSH1 0x0 REVERT JUMPDEST POP POP PUSH1 0x2 SLOAD PUSH1 0x40 MLOAD PUSH4 0x70A08231 PUSH1 0xE0 SHL DUP2 MSTORE ADDRESS PUSH1 0x4 DUP3 ADD MSTORE PUSH1 0x0 SWAP5 POP PUSH1 0x1 PUSH1 0x1 PUSH1 0xA0 SHL SUB SWAP1 SWAP2 AND SWAP3 POP PUSH4 0x70A08231 SWAP2 POP PUSH1 0x24 ADD PUSH1 0x20 PUSH1 0x40 MLOAD DUP1 DUP4 SUB DUP2 DUP7 GAS STATICCALL ISZERO DUP1 ISZERO PUSH2 0x7B2 JUMPI RETURNDATASIZE PUSH1 0x0 DUP1 RETURNDATACOPY RETURNDATASIZE PUSH1 0x0 REVERT JUMPDEST POP POP POP POP PUSH1 0x40 MLOAD RETURNDATASIZE PUSH1 0x1F NOT PUSH1 0x1F DUP3 ADD AND DUP3 ADD DUP1 PUSH1 0x40 MSTORE POP DUP2 ADD SWAP1 PUSH2 0x7D6 SWAP2 SWAP1 PUSH2 0x178E JUMP JUMPDEST SWAP1 POP DUP2 DUP2 LT ISZERO PUSH2 0x828 JUMPI PUSH1 0x40 MLOAD PUSH3 0x461BCD PUSH1 0xE5 SHL DUP2 MSTORE PUSH1 0x20 PUSH1 0x4 DUP3 ADD MSTORE PUSH1 0x1E PUSH1 0x24 DUP3 ADD MSTORE PUSH32 0x4661696C656420746F207772617020457468657220696E746F20574554480000 PUSH1 0x44 DUP3 ADD MSTORE PUSH1 0x64 ADD PUSH2 0x4BB JUMP JUMPDEST PUSH2 0x83D PUSH1 0x1 PUSH1 0x1 PUSH1 0xA0 SHL SUB DUP11 AND CALLER ADDRESS DUP8 PUSH2 0x1407 JUMP JUMPDEST PUSH1 0x2 SLOAD PUSH1 0x0 SWAP1 PUSH1 0x1 PUSH1 0x1 PUSH1 0xA0 SHL SUB SWAP1 DUP2 AND SWAP1 DUP12 AND LT PUSH2 0x867 JUMPI PUSH1 0x2 SLOAD PUSH1 0x1 PUSH1 0x1 PUSH1 0xA0 SHL SUB AND PUSH2 0x869 JUMP JUMPDEST DUP10 JUMPDEST PUSH1 0x2 SLOAD SWAP1 SWAP2 POP PUSH1 0x0 SWAP1 PUSH1 0x1 PUSH1 0x1 PUSH1 0xA0 SHL SUB SWAP1 DUP2 AND SWAP1 DUP13 AND LT PUSH2 0x88B JUMPI DUP11 PUSH2 0x898 JUMP JUMPDEST PUSH1 0x2 SLOAD PUSH1 0x1 PUSH1 0x1 PUSH1 0xA0 SHL SUB AND JUMPDEST SWAP1 POP PUSH1 0x0 PUSH2 0x8A6 DUP8 DUP7 PUSH2 0xCFF JUMP JUMPDEST PUSH1 0x1 SLOAD PUSH1 0x40 MLOAD PUSH4 0x43A9D0CD PUSH1 0xE1 SHL DUP2 MSTORE PUSH1 0x1 PUSH1 0x1 PUSH1 0xA0 SHL SUB DUP7 DUP2 AND PUSH1 0x4 DUP4 ADD MSTORE DUP6 DUP2 AND PUSH1 0x24 DUP4 ADD MSTORE PUSH1 0x0 PUSH1 0x44 DUP4 ADD MSTORE DUP1 DUP5 AND PUSH1 0x64 DUP4 ADD MSTORE SWAP3 SWAP4 POP SWAP2 AND SWAP1 PUSH4 0x8753A19A SWAP1 PUSH1 0x84 ADD PUSH1 0x20 PUSH1 0x40 MLOAD DUP1 DUP4 SUB DUP2 PUSH1 0x0 DUP8 GAS CALL ISZERO DUP1 ISZERO PUSH2 0x90B JUMPI RETURNDATASIZE PUSH1 0x0 DUP1 RETURNDATACOPY RETURNDATASIZE PUSH1 0x0 REVERT JUMPDEST POP POP POP POP PUSH1 0x40 MLOAD RETURNDATASIZE PUSH1 0x1F NOT PUSH1 0x1F DUP3 ADD AND DUP3 ADD DUP1 PUSH1 0x40 MSTORE POP DUP2 ADD SWAP1 PUSH2 0x92F SWAP2 SWAP1 PUSH2 0x17A7 JUMP JUMPDEST SWAP10 POP PUSH1 0x1 PUSH1 0x1 PUSH1 0xA0 SHL SUB DUP11 AND PUSH2 0x987 JUMPI PUSH1 0x40 MLOAD PUSH3 0x461BCD PUSH1 0xE5 SHL DUP2 MSTORE PUSH1 0x20 PUSH1 0x4 DUP3 ADD MSTORE PUSH1 0x1D PUSH1 0x24 DUP3 ADD MSTORE PUSH32 0x4661696C656420746F2063726561746520416C676562726120706F6F6C000000 PUSH1 0x44 DUP3 ADD MSTORE PUSH1 0x64 ADD PUSH2 0x4BB JUMP JUMPDEST DUP12 PUSH1 0x1 PUSH1 0x1 PUSH1 0xA0 SHL SUB AND DUP11 PUSH1 0x1 PUSH1 0x1 PUSH1 0xA0 SHL SUB AND PUSH32 0xBC269B08661FA7948AABBB2AC773747166492E0AC63735B66898001E237A1BC DUP10 DUP9 PUSH1 0x40 MLOAD PUSH2 0x9D5 SWAP3 SWAP2 SWAP1 SWAP2 DUP3 MSTORE PUSH1 0x20 DUP3 ADD MSTORE PUSH1 0x40 ADD SWAP1 JUMP JUMPDEST PUSH1 0x40 MLOAD DUP1 SWAP2 SUB SWAP1 LOG3 PUSH1 0x1 SLOAD PUSH2 0x9F7 SWAP1 PUSH1 0x1 PUSH1 0x1 PUSH1 0xA0 SHL SUB DUP15 DUP2 AND SWAP2 AND DUP10 PUSH2 0x1501 JUMP JUMPDEST PUSH1 0x1 SLOAD PUSH1 0x2 SLOAD PUSH2 0xA14 SWAP2 PUSH1 0x1 PUSH1 0x1 PUSH1 0xA0 SHL SUB SWAP2 DUP3 AND SWAP2 AND DUP7 PUSH2 0x1501 JUMP JUMPDEST PUSH1 0x0 PUSH1 0x40 MLOAD DUP1 PUSH2 0x160 ADD PUSH1 0x40 MSTORE DUP1 DUP6 PUSH1 0x1 PUSH1 0x1 PUSH1 0xA0 SHL SUB AND DUP2 MSTORE PUSH1 0x20 ADD DUP5 PUSH1 0x1 PUSH1 0x1 PUSH1 0xA0 SHL SUB AND DUP2 MSTORE PUSH1 0x20 ADD PUSH1 0x0 PUSH1 0x1 PUSH1 0x1 PUSH1 0xA0 SHL SUB AND DUP2 MSTORE PUSH1 0x20 ADD PUSH3 0xD89B3 NOT PUSH1 0x2 SIGNEXTEND DUP2 MSTORE PUSH1 0x20 ADD PUSH3 0xD89B4 PUSH1 0x2 SIGNEXTEND DUP2 MSTORE PUSH1 0x20 ADD DUP15 PUSH1 0x1 PUSH1 0x1 PUSH1 0xA0 SHL SUB AND DUP7 PUSH1 0x1 PUSH1 0x1 PUSH1 0xA0 SHL SUB AND EQ PUSH2 0xA88 JUMPI DUP7 PUSH2 0xA8A JUMP JUMPDEST DUP10 JUMPDEST DUP2 MSTORE PUSH1 0x20 ADD DUP15 PUSH1 0x1 PUSH1 0x1 PUSH1 0xA0 SHL SUB AND DUP6 PUSH1 0x1 PUSH1 0x1 PUSH1 0xA0 SHL SUB AND EQ PUSH2 0xAAE JUMPI DUP10 PUSH2 0xAB0 JUMP JUMPDEST DUP7 JUMPDEST DUP2 MSTORE PUSH1 0x0 PUSH1 0x20 DUP3 ADD DUP2 SWAP1 MSTORE PUSH1 0x40 DUP3 ADD MSTORE ADDRESS PUSH1 0x60 DUP3 ADD MSTORE PUSH1 0x80 ADD PUSH2 0xAD5 TIMESTAMP PUSH2 0xE10 PUSH2 0x177B JUMP JUMPDEST SWAP1 MSTORE PUSH1 0x1 SLOAD PUSH1 0x40 MLOAD PUSH4 0xFE3F3BE7 PUSH1 0xE0 SHL DUP2 MSTORE SWAP2 SWAP3 POP PUSH1 0x0 SWAP2 DUP3 SWAP2 DUP3 SWAP2 PUSH1 0x1 PUSH1 0x1 PUSH1 0xA0 SHL SUB SWAP1 SWAP2 AND SWAP1 PUSH4 0xFE3F3BE7 SWAP1 PUSH2 0xB11 SWAP1 DUP8 SWAP1 PUSH1 0x4 ADD PUSH2 0x17C4 JUMP JUMPDEST PUSH1 0x80 PUSH1 0x40 MLOAD DUP1 DUP4 SUB DUP2 PUSH1 0x0 DUP8 GAS CALL ISZERO DUP1 ISZERO PUSH2 0xB30 JUMPI RETURNDATASIZE PUSH1 0x0 DUP1 RETURNDATACOPY RETURNDATASIZE PUSH1 0x0 REVERT JUMPDEST POP POP POP POP PUSH1 0x40 MLOAD RETURNDATASIZE PUSH1 0x1F NOT PUSH1 0x1F DUP3 ADD AND DUP3 ADD DUP1 PUSH1 0x40 MSTORE POP DUP2 ADD SWAP1 PUSH2 0xB54 SWAP2 SWAP1 PUSH2 0x188C JUMP JUMPDEST SWAP4 POP SWAP4 POP SWAP4 POP POP PUSH1 0x0 DUP4 PUSH1 0x1 PUSH1 0x1 PUSH1 0x80 SHL SUB AND GT PUSH2 0xBB4 JUMPI PUSH1 0x40 MLOAD PUSH3 0x461BCD PUSH1 0xE5 SHL DUP2 MSTORE PUSH1 0x20 PUSH1 0x4 DUP3 ADD MSTORE PUSH1 0x18 PUSH1 0x24 DUP3 ADD MSTORE PUSH32 0x4661696C656420746F206D696E74206C69717569646974790000000000000000 PUSH1 0x44 DUP3 ADD MSTORE PUSH1 0x64 ADD PUSH2 0x4BB JUMP JUMPDEST PUSH1 0x40 DUP1 MLOAD PUSH1 0x0 DUP2 MSTORE PUSH1 0x1 PUSH1 0x1 PUSH1 0x80 SHL SUB DUP6 AND PUSH1 0x20 DUP3 ADD MSTORE SWAP1 DUP2 ADD DUP4 SWAP1 MSTORE PUSH1 0x60 DUP2 ADD DUP3 SWAP1 MSTORE PUSH1 0x1 PUSH1 0x1 PUSH1 0xA0 SHL SUB DUP16 AND SWAP1 PUSH32 0x936F1605239D50A44520651CB0698A8F77EEA34A13F43A4EAC22872B1BAF48CC SWAP1 PUSH1 0x80 ADD PUSH1 0x40 MLOAD DUP1 SWAP2 SUB SWAP1 LOG2 POP POP POP POP POP POP POP POP POP POP POP POP POP JUMPDEST SWAP3 SWAP2 POP POP JUMP JUMPDEST PUSH1 0x0 SLOAD PUSH1 0x1 PUSH1 0x1 PUSH1 0xA0 SHL SUB AND CALLER EQ PUSH2 0xC4E JUMPI PUSH1 0x40 MLOAD PUSH3 0x461BCD PUSH1 0xE5 SHL DUP2 MSTORE PUSH1 0x4 ADD PUSH2 0x4BB SWAP1 PUSH2 0x16E2 JUMP JUMPDEST PUSH1 0x1 PUSH1 0x1 PUSH1 0xA0 SHL SUB DUP2 AND PUSH1 0x0 SWAP1 DUP2 MSTORE PUSH1 0xA PUSH1 0x20 MSTORE PUSH1 0x40 SWAP1 KECCAK256 SLOAD PUSH1 0xFF AND PUSH2 0xCB6 JUMPI PUSH1 0x40 MLOAD PUSH3 0x461BCD PUSH1 0xE5 SHL DUP2 MSTORE PUSH1 0x20 PUSH1 0x4 DUP3 ADD MSTORE PUSH1 0x18 PUSH1 0x24 DUP3 ADD MSTORE PUSH32 0x41646472657373206E6F7420696E2077686974656C6973740000000000000000 PUSH1 0x44 DUP3 ADD MSTORE PUSH1 0x64 ADD PUSH2 0x4BB JUMP JUMPDEST PUSH1 0x1 PUSH1 0x1 PUSH1 0xA0 SHL SUB DUP2 AND PUSH1 0x0 DUP2 DUP2 MSTORE PUSH1 0xA PUSH1 0x20 MSTORE PUSH1 0x40 DUP1 DUP3 KECCAK256 DUP1 SLOAD PUSH1 0xFF NOT AND SWAP1 SSTORE MLOAD PUSH32 0x535611FB62FA2A833988F283B779E417E996813E44046F521D76C17B5943B08C SWAP2 SWAP1 LOG2 POP JUMP JUMPDEST PUSH1 0x0 DUP1 PUSH12 0x43DACAF91C1A84FF08000000 DUP5 GT PUSH2 0xD1B JUMPI DUP4 PUSH2 0xD29 JUMP JUMPDEST PUSH12 0x43DACAF91C1A84FF08000000 JUMPDEST SWAP1 POP PUSH1 0x0 PUSH8 0x8AC7230489E80000 DUP5 GT PUSH2 0xD42 JUMPI DUP4 PUSH2 0xD4C JUMP JUMPDEST PUSH8 0x8AC7230489E80000 JUMPDEST SWAP1 POP PUSH1 0x0 PUSH2 0xD5E DUP4 PUSH1 0x60 DUP5 SWAP1 SHL PUSH2 0x1746 JUMP JUMPDEST SWAP1 POP PUSH1 0x30 PUSH2 0xD6B DUP3 PUSH2 0x15F2 JUMP JUMPDEST SWAP1 SHL SWAP7 SWAP6 POP POP POP POP POP POP JUMP JUMPDEST PUSH1 0x9 DUP2 DUP2 SLOAD DUP2 LT PUSH2 0xD87 JUMPI PUSH1 0x0 DUP1 REVERT JUMPDEST PUSH1 0x0 SWAP2 DUP3 MSTORE PUSH1 0x20 SWAP1 SWAP2 KECCAK256 ADD SLOAD PUSH1 0x1 PUSH1 0x1 PUSH1 0xA0 SHL SUB AND SWAP1 POP DUP2 JUMP JUMPDEST PUSH1 0x0 SLOAD PUSH1 0x1 PUSH1 0x1 PUSH1 0xA0 SHL SUB AND CALLER EQ PUSH2 0xDCB JUMPI PUSH1 0x40 MLOAD PUSH3 0x461BCD PUSH1 0xE5 SHL DUP2 MSTORE PUSH1 0x4 ADD PUSH2 0x4BB SWAP1 PUSH2 0x16E2 JUMP JUMPDEST PUSH1 0x40 MLOAD PUSH4 0x70A08231 PUSH1 0xE0 SHL DUP2 MSTORE ADDRESS PUSH1 0x4 DUP3 ADD MSTORE PUSH1 0x0 SWAP1 PUSH1 0x1 PUSH1 0x1 PUSH1 0xA0 SHL SUB DUP4 AND SWAP1 PUSH4 0x70A08231 SWAP1 PUSH1 0x24 ADD PUSH1 0x20 PUSH1 0x40 MLOAD DUP1 DUP4 SUB DUP2 DUP7 GAS STATICCALL ISZERO DUP1 ISZERO PUSH2 0xE12 JUMPI RETURNDATASIZE PUSH1 0x0 DUP1 RETURNDATACOPY RETURNDATASIZE PUSH1 0x0 REVERT JUMPDEST POP POP POP POP PUSH1 0x40 MLOAD RETURNDATASIZE PUSH1 0x1F NOT PUSH1 0x1F DUP3 ADD AND DUP3 ADD DUP1 PUSH1 0x40 MSTORE POP DUP2 ADD SWAP1 PUSH2 0xE36 SWAP2 SWAP1 PUSH2 0x178E JUMP JUMPDEST SWAP1 POP PUSH1 0x0 DUP2 GT PUSH2 0xE80 JUMPI PUSH1 0x40 MLOAD PUSH3 0x461BCD PUSH1 0xE5 SHL DUP2 MSTORE PUSH1 0x20 PUSH1 0x4 DUP3 ADD MSTORE PUSH1 0x15 PUSH1 0x24 DUP3 ADD MSTORE PUSH21 0x4E6F20746F6B656E7320746F207769746864726177 PUSH1 0x58 SHL PUSH1 0x44 DUP3 ADD MSTORE PUSH1 0x64 ADD PUSH2 0x4BB JUMP JUMPDEST PUSH1 0x0 SLOAD PUSH1 0x40 MLOAD PUSH4 0xA9059CBB PUSH1 0xE0 SHL DUP2 MSTORE PUSH1 0x1 PUSH1 0x1 PUSH1 0xA0 SHL SUB SWAP2 DUP3 AND PUSH1 0x4 DUP3 ADD MSTORE PUSH1 0x24 DUP2 ADD DUP4 SWAP1 MSTORE SWAP1 DUP4 AND SWAP1 PUSH4 0xA9059CBB SWAP1 PUSH1 0x44 ADD PUSH1 0x20 PUSH1 0x40 MLOAD DUP1 DUP4 SUB DUP2 PUSH1 0x0 DUP8 GAS CALL ISZERO DUP1 ISZERO PUSH2 0xED3 JUMPI RETURNDATASIZE PUSH1 0x0 DUP1 RETURNDATACOPY RETURNDATASIZE PUSH1 0x0 REVERT JUMPDEST POP POP POP POP PUSH1 0x40 MLOAD RETURNDATASIZE PUSH1 0x1F NOT PUSH1 0x1F DUP3 ADD AND DUP3 ADD DUP1 PUSH1 0x40 MSTORE POP DUP2 ADD SWAP1 PUSH2 0xEF7 SWAP2 SWAP1 PUSH2 0x18D7 JUMP JUMPDEST POP POP POP JUMP JUMPDEST CALLER PUSH1 0x0 SWAP1 DUP2 MSTORE PUSH1 0xA PUSH1 0x20 MSTORE PUSH1 0x40 SWAP1 KECCAK256 SLOAD PUSH1 0xFF AND PUSH2 0xF6D JUMPI PUSH1 0x40 MLOAD PUSH3 0x461BCD PUSH1 0xE5 SHL DUP2 MSTORE PUSH1 0x20 PUSH1 0x4 DUP3 ADD MSTORE PUSH1 0x29 PUSH1 0x24 DUP3 ADD MSTORE PUSH32 0x4E6F7420617574686F72697A65643A2063616C6C6572206973206E6F74207768 PUSH1 0x44 DUP3 ADD MSTORE PUSH9 0x1A5D195B1A5CDD1959 PUSH1 0xBA SHL PUSH1 0x64 DUP3 ADD MSTORE PUSH1 0x84 ADD PUSH2 0x4BB JUMP JUMPDEST PUSH1 0x0 PUSH1 0x6 SLOAD GT PUSH2 0xFB6 JUMPI PUSH1 0x40 MLOAD PUSH3 0x461BCD PUSH1 0xE5 SHL DUP2 MSTORE PUSH1 0x20 PUSH1 0x4 DUP3 ADD MSTORE PUSH1 0x14 PUSH1 0x24 DUP3 ADD MSTORE PUSH20 0x4E6F20457468657220746F207769746864726177 PUSH1 0x60 SHL PUSH1 0x44 DUP3 ADD MSTORE PUSH1 0x64 ADD PUSH2 0x4BB JUMP JUMPDEST PUSH1 0x0 PUSH1 0xC8 PUSH1 0x6 SLOAD PUSH2 0x3E8 PUSH2 0xFCA SWAP2 SWAP1 PUSH2 0x172F JUMP JUMPDEST PUSH2 0xFD4 SWAP2 SWAP1 PUSH2 0x1746 JUMP JUMPDEST SWAP1 POP PUSH1 0x0 DUP2 PUSH1 0x6 SLOAD PUSH2 0xFE6 SWAP2 SWAP1 PUSH2 0x1768 JUMP JUMPDEST PUSH1 0x3 SLOAD PUSH1 0x40 MLOAD SWAP2 SWAP3 POP PUSH1 0x0 SWAP2 PUSH1 0x1 PUSH1 0x1 PUSH1 0xA0 SHL SUB SWAP1 SWAP2 AND SWAP1 DUP5 SWAP1 DUP4 DUP2 DUP2 DUP2 DUP6 DUP8 GAS CALL SWAP3 POP POP POP RETURNDATASIZE DUP1 PUSH1 0x0 DUP2 EQ PUSH2 0x1038 JUMPI PUSH1 0x40 MLOAD SWAP2 POP PUSH1 0x1F NOT PUSH1 0x3F RETURNDATASIZE ADD AND DUP3 ADD PUSH1 0x40 MSTORE RETURNDATASIZE DUP3 MSTORE RETURNDATASIZE PUSH1 0x0 PUSH1 0x20 DUP5 ADD RETURNDATACOPY PUSH2 0x103D JUMP JUMPDEST PUSH1 0x60 SWAP2 POP JUMPDEST POP POP SWAP1 POP DUP1 PUSH2 0x1082 JUMPI PUSH1 0x40 MLOAD PUSH3 0x461BCD PUSH1 0xE5 SHL DUP2 MSTORE PUSH1 0x20 PUSH1 0x4 DUP3 ADD MSTORE PUSH1 0x11 PUSH1 0x24 DUP3 ADD MSTORE PUSH17 0x15DA5D1A191C985DD85B0819985A5B1959 PUSH1 0x7A SHL PUSH1 0x44 DUP3 ADD MSTORE PUSH1 0x64 ADD PUSH2 0x4BB JUMP JUMPDEST PUSH1 0x4 SLOAD PUSH1 0x40 MLOAD PUSH1 0x0 SWAP2 PUSH1 0x1 PUSH1 0x1 PUSH1 0xA0 SHL SUB AND SWAP1 DUP5 SWAP1 DUP4 DUP2 DUP2 DUP2 DUP6 DUP8 GAS CALL SWAP3 POP POP POP RETURNDATASIZE DUP1 PUSH1 0x0 DUP2 EQ PUSH2 0x10CF JUMPI PUSH1 0x40 MLOAD SWAP2 POP PUSH1 0x1F NOT PUSH1 0x3F RETURNDATASIZE ADD AND DUP3 ADD PUSH1 0x40 MSTORE RETURNDATASIZE DUP3 MSTORE RETURNDATASIZE PUSH1 0x0 PUSH1 0x20 DUP5 ADD RETURNDATACOPY PUSH2 0x10D4 JUMP JUMPDEST PUSH1 0x60 SWAP2 POP JUMPDEST POP POP SWAP1 POP DUP1 PUSH2 0x1119 JUMPI PUSH1 0x40 MLOAD PUSH3 0x461BCD PUSH1 0xE5 SHL DUP2 MSTORE PUSH1 0x20 PUSH1 0x4 DUP3 ADD MSTORE PUSH1 0x11 PUSH1 0x24 DUP3 ADD MSTORE PUSH17 0x15DA5D1A191C985DD85B0819985A5B1959 PUSH1 0x7A SHL PUSH1 0x44 DUP3 ADD MSTORE PUSH1 0x64 ADD PUSH2 0x4BB JUMP JUMPDEST POP POP POP POP JUMP JUMPDEST PUSH1 0x0 SLOAD PUSH1 0x1 PUSH1 0x1 PUSH1 0xA0 SHL SUB AND CALLER EQ PUSH2 0x1149 JUMPI PUSH1 0x40 MLOAD PUSH3 0x461BCD PUSH1 0xE5 SHL DUP2 MSTORE PUSH1 0x4 ADD PUSH2 0x4BB SWAP1 PUSH2 0x16E2 JUMP JUMPDEST SELFBALANCE DUP1 ISZERO PUSH2 0x11ED JUMPI PUSH1 0x0 DUP1 SLOAD PUSH1 0x40 MLOAD PUSH1 0x1 PUSH1 0x1 PUSH1 0xA0 SHL SUB SWAP1 SWAP2 AND SWAP1 DUP4 SWAP1 DUP4 DUP2 DUP2 DUP2 DUP6 DUP8 GAS CALL SWAP3 POP POP POP RETURNDATASIZE DUP1 PUSH1 0x0 DUP2 EQ PUSH2 0x119D JUMPI PUSH1 0x40 MLOAD SWAP2 POP PUSH1 0x1F NOT PUSH1 0x3F RETURNDATASIZE ADD AND DUP3 ADD PUSH1 0x40 MSTORE RETURNDATASIZE DUP3 MSTORE RETURNDATASIZE PUSH1 0x0 PUSH1 0x20 DUP5 ADD RETURNDATACOPY PUSH2 0x11A2 JUMP JUMPDEST PUSH1 0x60 SWAP2 POP JUMPDEST POP POP SWAP1 POP DUP1 PUSH2 0x11EB JUMPI PUSH1 0x40 MLOAD PUSH3 0x461BCD PUSH1 0xE5 SHL DUP2 MSTORE PUSH1 0x20 PUSH1 0x4 DUP3 ADD MSTORE PUSH1 0x15 PUSH1 0x24 DUP3 ADD MSTORE PUSH21 0x115D1A195C881DDA5D1A191C985DC819985A5B1959 PUSH1 0x5A SHL PUSH1 0x44 DUP3 ADD MSTORE PUSH1 0x64 ADD PUSH2 0x4BB JUMP JUMPDEST POP JUMPDEST POP JUMP JUMPDEST PUSH1 0x0 CALLVALUE GT PUSH2 0x1237 JUMPI PUSH1 0x40 MLOAD PUSH3 0x461BCD PUSH1 0xE5 SHL DUP2 MSTORE PUSH1 0x20 PUSH1 0x4 DUP3 ADD MSTORE PUSH1 0x14 PUSH1 0x24 DUP3 ADD MSTORE PUSH20 0x26BAB9BA1039B2B7321039B7B6B29022BA3432B9 PUSH1 0x61 SHL PUSH1 0x44 DUP3 ADD MSTORE PUSH1 0x64 ADD PUSH2 0x4BB JUMP JUMPDEST CALLVALUE PUSH1 0x6 PUSH1 0x0 DUP3 DUP3 SLOAD PUSH2 0x1249 SWAP2 SWAP1 PUSH2 0x177B JUMP JUMPDEST SWAP1 SWAP2 SSTORE POP POP PUSH1 0x6 SLOAD PUSH1 0x40 MLOAD CALLER SWAP2 PUSH32 0x1D57945C1033A96907A78F6E0EBF6A03815725DAC25F33CC806558670344AC88 SWAP2 PUSH2 0x128A SWAP2 CALLVALUE DUP3 MSTORE PUSH1 0x20 DUP3 ADD MSTORE PUSH1 0x40 ADD SWAP1 JUMP JUMPDEST PUSH1 0x40 MLOAD DUP1 SWAP2 SUB SWAP1 LOG2 JUMP JUMPDEST PUSH1 0x0 SLOAD PUSH1 0x1 PUSH1 0x1 PUSH1 0xA0 SHL SUB AND CALLER EQ PUSH2 0x12BE JUMPI PUSH1 0x40 MLOAD PUSH3 0x461BCD PUSH1 0xE5 SHL DUP2 MSTORE PUSH1 0x4 ADD PUSH2 0x4BB SWAP1 PUSH2 0x16E2 JUMP JUMPDEST PUSH1 0x1 PUSH1 0x1 PUSH1 0xA0 SHL SUB DUP2 AND PUSH1 0x0 SWAP1 DUP2 MSTORE PUSH1 0xA PUSH1 0x20 MSTORE PUSH1 0x40 SWAP1 KECCAK256 SLOAD PUSH1 0xFF AND ISZERO PUSH2 0x1327 JUMPI PUSH1 0x40 MLOAD PUSH3 0x461BCD PUSH1 0xE5 SHL DUP2 MSTORE PUSH1 0x20 PUSH1 0x4 DUP3 ADD MSTORE PUSH1 0x1B PUSH1 0x24 DUP3 ADD MSTORE PUSH32 0x4164647265737320616C72656164792077686974656C69737465640000000000 PUSH1 0x44 DUP3 ADD MSTORE PUSH1 0x64 ADD PUSH2 0x4BB JUMP JUMPDEST PUSH1 0x1 PUSH1 0x1 PUSH1 0xA0 SHL SUB DUP2 AND PUSH1 0x0 DUP2 DUP2 MSTORE PUSH1 0xA PUSH1 0x20 MSTORE PUSH1 0x40 DUP1 DUP3 KECCAK256 DUP1 SLOAD PUSH1 0xFF NOT AND PUSH1 0x1 OR SWAP1 SSTORE MLOAD PUSH32 0x534D18C8FF24BA5980906D732F3075704749427353734FBBF05D50485643B124 SWAP2 SWAP1 LOG2 POP JUMP JUMPDEST PUSH1 0x0 SLOAD PUSH1 0x1 PUSH1 0x1 PUSH1 0xA0 SHL SUB AND CALLER EQ PUSH2 0x139D JUMPI PUSH1 0x40 MLOAD PUSH3 0x461BCD PUSH1 0xE5 SHL DUP2 MSTORE PUSH1 0x4 ADD PUSH2 0x4BB SWAP1 PUSH2 0x16E2 JUMP JUMPDEST PUSH1 0x1 PUSH1 0x1 PUSH1 0xA0 SHL SUB DUP2 AND PUSH2 0x13E5 JUMPI PUSH1 0x40 MLOAD PUSH3 0x461BCD PUSH1 0xE5 SHL DUP2 MSTORE PUSH1 0x20 PUSH1 0x4 DUP3 ADD MSTORE PUSH1 0xF PUSH1 0x24 DUP3 ADD MSTORE PUSH15 0x496E76616C69642061646472657373 PUSH1 0x88 SHL PUSH1 0x44 DUP3 ADD MSTORE PUSH1 0x64 ADD PUSH2 0x4BB JUMP JUMPDEST PUSH1 0x2 DUP1 SLOAD PUSH1 0x1 PUSH1 0x1 PUSH1 0xA0 SHL SUB NOT AND PUSH1 0x1 PUSH1 0x1 PUSH1 0xA0 SHL SUB SWAP3 SWAP1 SWAP3 AND SWAP2 SWAP1 SWAP2 OR SWAP1 SSTORE JUMP JUMPDEST PUSH1 0x40 DUP1 MLOAD PUSH1 0x1 PUSH1 0x1 PUSH1 0xA0 SHL SUB DUP6 DUP2 AND PUSH1 0x24 DUP4 ADD MSTORE DUP5 DUP2 AND PUSH1 0x44 DUP4 ADD MSTORE PUSH1 0x64 DUP1 DUP4 ADD DUP6 SWAP1 MSTORE DUP4 MLOAD DUP1 DUP5 SUB SWAP1 SWAP2 ADD DUP2 MSTORE PUSH1 0x84 SWAP1 SWAP3 ADD DUP4 MSTORE PUSH1 0x20 DUP3 ADD DUP1 MLOAD PUSH1 0x1 PUSH1 0x1 PUSH1 0xE0 SHL SUB AND PUSH4 0x23B872DD PUSH1 0xE0 SHL OR SWAP1 MSTORE SWAP2 MLOAD PUSH1 0x0 SWAP3 DUP4 SWAP3 SWAP1 DUP9 AND SWAP2 PUSH2 0x146B SWAP2 SWAP1 PUSH2 0x18F9 JUMP JUMPDEST PUSH1 0x0 PUSH1 0x40 MLOAD DUP1 DUP4 SUB DUP2 PUSH1 0x0 DUP7 GAS CALL SWAP2 POP POP RETURNDATASIZE DUP1 PUSH1 0x0 DUP2 EQ PUSH2 0x14A8 JUMPI PUSH1 0x40 MLOAD SWAP2 POP PUSH1 0x1F NOT PUSH1 0x3F RETURNDATASIZE ADD AND DUP3 ADD PUSH1 0x40 MSTORE RETURNDATASIZE DUP3 MSTORE RETURNDATASIZE PUSH1 0x0 PUSH1 0x20 DUP5 ADD RETURNDATACOPY PUSH2 0x14AD JUMP JUMPDEST PUSH1 0x60 SWAP2 POP JUMPDEST POP SWAP2 POP SWAP2 POP DUP2 ISZERO DUP1 PUSH2 0x14DB JUMPI POP DUP1 MLOAD ISZERO DUP1 ISZERO SWAP1 PUSH2 0x14DB JUMPI POP DUP1 DUP1 PUSH1 0x20 ADD SWAP1 MLOAD DUP2 ADD SWAP1 PUSH2 0x14D9 SWAP2 SWAP1 PUSH2 0x18D7 JUMP JUMPDEST ISZERO JUMPDEST ISZERO PUSH2 0x14F9 JUMPI PUSH1 0x40 MLOAD PUSH4 0x817275AB PUSH1 0xE0 SHL DUP2 MSTORE PUSH1 0x4 ADD PUSH1 0x40 MLOAD DUP1 SWAP2 SUB SWAP1 REVERT JUMPDEST POP POP POP POP POP POP JUMP JUMPDEST PUSH1 0x40 DUP1 MLOAD PUSH1 0x1 PUSH1 0x1 PUSH1 0xA0 SHL SUB DUP5 DUP2 AND PUSH1 0x24 DUP4 ADD MSTORE PUSH1 0x44 DUP1 DUP4 ADD DUP6 SWAP1 MSTORE DUP4 MLOAD DUP1 DUP5 SUB SWAP1 SWAP2 ADD DUP2 MSTORE PUSH1 0x64 SWAP1 SWAP3 ADD DUP4 MSTORE PUSH1 0x20 DUP3 ADD DUP1 MLOAD PUSH1 0x1 PUSH1 0x1 PUSH1 0xE0 SHL SUB AND PUSH4 0x95EA7B3 PUSH1 0xE0 SHL OR SWAP1 MSTORE SWAP2 MLOAD PUSH1 0x0 SWAP3 DUP4 SWAP3 SWAP1 DUP8 AND SWAP2 PUSH2 0x155D SWAP2 SWAP1 PUSH2 0x18F9 JUMP JUMPDEST PUSH1 0x0 PUSH1 0x40 MLOAD DUP1 DUP4 SUB DUP2 PUSH1 0x0 DUP7 GAS CALL SWAP2 POP POP RETURNDATASIZE DUP1 PUSH1 0x0 DUP2 EQ PUSH2 0x159A JUMPI PUSH1 0x40 MLOAD SWAP2 POP PUSH1 0x1F NOT PUSH1 0x3F RETURNDATASIZE ADD AND DUP3 ADD PUSH1 0x40 MSTORE RETURNDATASIZE DUP3 MSTORE RETURNDATASIZE PUSH1 0x0 PUSH1 0x20 DUP5 ADD RETURNDATACOPY PUSH2 0x159F JUMP JUMPDEST PUSH1 0x60 SWAP2 POP JUMPDEST POP SWAP2 POP SWAP2 POP DUP2 ISZERO DUP1 PUSH2 0x15CD JUMPI POP DUP1 MLOAD ISZERO DUP1 ISZERO SWAP1 PUSH2 0x15CD JUMPI POP DUP1 DUP1 PUSH1 0x20 ADD SWAP1 MLOAD DUP2 ADD SWAP1 PUSH2 0x15CB SWAP2 SWAP1 PUSH2 0x18D7 JUMP JUMPDEST ISZERO JUMPDEST ISZERO PUSH2 0x15EB JUMPI PUSH1 0x40 MLOAD PUSH4 0x7CD36C65 PUSH1 0xE1 SHL DUP2 MSTORE PUSH1 0x4 ADD PUSH1 0x40 MLOAD DUP1 SWAP2 SUB SWAP1 REVERT JUMPDEST POP POP POP POP POP JUMP JUMPDEST PUSH1 0x0 DUP1 PUSH1 0x2 PUSH2 0x1602 DUP5 PUSH1 0x1 PUSH2 0x177B JUMP JUMPDEST PUSH2 0x160C SWAP2 SWAP1 PUSH2 0x1746 JUMP JUMPDEST SWAP1 POP DUP3 JUMPDEST DUP1 DUP3 LT ISZERO PUSH2 0x1642 JUMPI POP DUP1 PUSH1 0x2 DUP2 PUSH2 0x1627 DUP2 DUP8 PUSH2 0x1746 JUMP JUMPDEST PUSH2 0x1631 SWAP2 SWAP1 PUSH2 0x177B JUMP JUMPDEST PUSH2 0x163B SWAP2 SWAP1 PUSH2 0x1746 JUMP JUMPDEST SWAP2 POP PUSH2 0x1610 JUMP JUMPDEST SWAP4 SWAP3 POP POP POP JUMP JUMPDEST PUSH1 0x1 PUSH1 0x1 PUSH1 0xA0 SHL SUB DUP2 AND DUP2 EQ PUSH2 0x11ED JUMPI PUSH1 0x0 DUP1 REVERT JUMPDEST PUSH1 0x0 PUSH1 0x20 DUP3 DUP5 SUB SLT ISZERO PUSH2 0x1670 JUMPI PUSH1 0x0 DUP1 REVERT JUMPDEST DUP2 CALLDATALOAD PUSH2 0x1642 DUP2 PUSH2 0x1649 JUMP JUMPDEST PUSH1 0x0 DUP1 PUSH1 0x40 DUP4 DUP6 SUB SLT ISZERO PUSH2 0x168E JUMPI PUSH1 0x0 DUP1 REVERT JUMPDEST DUP3 CALLDATALOAD PUSH2 0x1699 DUP2 PUSH2 0x1649 JUMP JUMPDEST SWAP5 PUSH1 0x20 SWAP4 SWAP1 SWAP4 ADD CALLDATALOAD SWAP4 POP POP POP JUMP JUMPDEST PUSH1 0x0 DUP1 PUSH1 0x40 DUP4 DUP6 SUB SLT ISZERO PUSH2 0x16BA JUMPI PUSH1 0x0 DUP1 REVERT JUMPDEST POP POP DUP1 CALLDATALOAD SWAP3 PUSH1 0x20 SWAP1 SWAP2 ADD CALLDATALOAD SWAP2 POP JUMP JUMPDEST PUSH1 0x0 PUSH1 0x20 DUP3 DUP5 SUB SLT ISZERO PUSH2 0x16DB JUMPI PUSH1 0x0 DUP1 REVERT JUMPDEST POP CALLDATALOAD SWAP2 SWAP1 POP JUMP JUMPDEST PUSH1 0x20 DUP1 DUP3 MSTORE PUSH1 0x18 SWAP1 DUP3 ADD MSTORE PUSH32 0x4F6E6C79206F776E65722063616E2063616C6C20746869730000000000000000 PUSH1 0x40 DUP3 ADD MSTORE PUSH1 0x60 ADD SWAP1 JUMP JUMPDEST PUSH4 0x4E487B71 PUSH1 0xE0 SHL PUSH1 0x0 MSTORE PUSH1 0x11 PUSH1 0x4 MSTORE PUSH1 0x24 PUSH1 0x0 REVERT JUMPDEST DUP1 DUP3 MUL DUP2 ISZERO DUP3 DUP3 DIV DUP5 EQ OR PUSH2 0xC1E JUMPI PUSH2 0xC1E PUSH2 0x1719 JUMP JUMPDEST PUSH1 0x0 DUP3 PUSH2 0x1763 JUMPI PUSH4 0x4E487B71 PUSH1 0xE0 SHL PUSH1 0x0 MSTORE PUSH1 0x12 PUSH1 0x4 MSTORE PUSH1 0x24 PUSH1 0x0 REVERT JUMPDEST POP DIV SWAP1 JUMP JUMPDEST DUP2 DUP2 SUB DUP2 DUP2 GT ISZERO PUSH2 0xC1E JUMPI PUSH2 0xC1E PUSH2 0x1719 JUMP JUMPDEST DUP1 DUP3 ADD DUP1 DUP3 GT ISZERO PUSH2 0xC1E JUMPI PUSH2 0xC1E PUSH2 0x1719 JUMP JUMPDEST PUSH1 0x0 PUSH1 0x20 DUP3 DUP5 SUB SLT ISZERO PUSH2 0x17A0 JUMPI PUSH1 0x0 DUP1 REVERT JUMPDEST POP MLOAD SWAP2 SWAP1 POP JUMP JUMPDEST PUSH1 0x0 PUSH1 0x20 DUP3 DUP5 SUB SLT ISZERO PUSH2 0x17B9 JUMPI PUSH1 0x0 DUP1 REVERT JUMPDEST DUP2 MLOAD PUSH2 0x1642 DUP2 PUSH2 0x1649 JUMP JUMPDEST DUP2 MLOAD PUSH1 0x1 PUSH1 0x1 PUSH1 0xA0 SHL SUB AND DUP2 MSTORE PUSH2 0x160 DUP2 ADD PUSH1 0x20 DUP4 ADD MLOAD PUSH2 0x17F0 PUSH1 0x20 DUP5 ADD DUP3 PUSH1 0x1 PUSH1 0x1 PUSH1 0xA0 SHL SUB AND SWAP1 MSTORE JUMP JUMPDEST POP PUSH1 0x40 DUP4 ADD MLOAD PUSH2 0x180B PUSH1 0x40 DUP5 ADD DUP3 PUSH1 0x1 PUSH1 0x1 PUSH1 0xA0 SHL SUB AND SWAP1 MSTORE JUMP JUMPDEST POP PUSH1 0x60 DUP4 ADD MLOAD PUSH2 0x1820 PUSH1 0x60 DUP5 ADD DUP3 PUSH1 0x2 SIGNEXTEND SWAP1 MSTORE JUMP JUMPDEST POP PUSH1 0x80 DUP4 ADD MLOAD PUSH2 0x1835 PUSH1 0x80 DUP5 ADD DUP3 PUSH1 0x2 SIGNEXTEND SWAP1 MSTORE JUMP JUMPDEST POP PUSH1 0xA0 DUP4 ADD MLOAD PUSH1 0xA0 DUP4 ADD MSTORE PUSH1 0xC0 DUP4 ADD MLOAD PUSH1 0xC0 DUP4 ADD MSTORE PUSH1 0xE0 DUP4 ADD MLOAD PUSH1 0xE0 DUP4 ADD MSTORE PUSH2 0x100 DUP4 ADD MLOAD PUSH2 0x100 DUP4 ADD MSTORE PUSH2 0x120 DUP4 ADD MLOAD PUSH2 0x187C PUSH2 0x120 DUP5 ADD DUP3 PUSH1 0x1 PUSH1 0x1 PUSH1 0xA0 SHL SUB AND SWAP1 MSTORE JUMP JUMPDEST POP PUSH2 0x140 SWAP3 DUP4 ADD MLOAD SWAP2 SWAP1 SWAP3 ADD MSTORE SWAP1 JUMP JUMPDEST PUSH1 0x0 DUP1 PUSH1 0x0 DUP1 PUSH1 0x80 DUP6 DUP8 SUB SLT ISZERO PUSH2 0x18A2 JUMPI PUSH1 0x0 DUP1 REVERT JUMPDEST DUP5 MLOAD PUSH1 0x20 DUP7 ADD MLOAD SWAP1 SWAP5 POP PUSH1 0x1 PUSH1 0x1 PUSH1 0x80 SHL SUB DUP2 AND DUP2 EQ PUSH2 0x18C1 JUMPI PUSH1 0x0 DUP1 REVERT JUMPDEST PUSH1 0x40 DUP7 ADD MLOAD PUSH1 0x60 SWAP1 SWAP7 ADD MLOAD SWAP5 SWAP8 SWAP1 SWAP7 POP SWAP3 POP POP POP JUMP JUMPDEST PUSH1 0x0 PUSH1 0x20 DUP3 DUP5 SUB SLT ISZERO PUSH2 0x18E9 JUMPI PUSH1 0x0 DUP1 REVERT JUMPDEST DUP2 MLOAD DUP1 ISZERO ISZERO DUP2 EQ PUSH2 0x1642 JUMPI PUSH1 0x0 DUP1 REVERT JUMPDEST PUSH1 0x0 DUP3 MLOAD PUSH1 0x0 JUMPDEST DUP2 DUP2 LT ISZERO PUSH2 0x191A JUMPI PUSH1 0x20 DUP2 DUP7 ADD DUP2 ADD MLOAD DUP6 DUP4 ADD MSTORE ADD PUSH2 0x1900 JUMP JUMPDEST POP PUSH1 0x0 SWAP3 ADD SWAP2 DUP3 MSTORE POP SWAP2 SWAP1 POP JUMP INVALID LOG2 PUSH5 0x6970667358 0x22 SLT KECCAK256 XOR 0x4D 0xED 0xDF AND DUP1 SELFDESTRUCT 0xEF SDIV 0xC5 0x22 0xA6 PUSH29 0x9DF7F155D0A7774EF6DC9CB5AD46D221E1EE0C64736F6C634300081A00 CALLER "
				},
				"gasEstimates": {
					"creation": {
						"codeDepositCost": "1298800",
						"executionCost": "infinite",
						"totalCost": "infinite"
					},
					"external": {
						"DAO()": "2393",
						"MAX_ETH_LIMIT()": "240",
						"MAX_TICK()": "298",
						"MAX_TOKEN_LIMIT()": "218",
						"MIN_TICK()": "323",
						"WETH()": "2371",
						"addToWhitelist(address)": "30190",
						"algebraUnified()": "2394",
						"calculateSqrtPriceX96(uint256,uint256)": "infinite",
						"emergencyWithdraw()": "infinite",
						"emergencyWithdrawTokens(address)": "infinite",
						"etherToRedistribute()": "2362",
						"getFeesCreation()": "28335",
						"initiateMigration(address,uint256)": "infinite",
						"isWhitelisted(address)": "2677",
						"listOfWinningTokens(uint256)": "4736",
						"monarkTeamAddress()": "2416",
						"owner()": "2371",
						"percentageToDistributeETH()": "2407",
						"removeFromWhitelist(address)": "30116",
						"rootstockAddress()": "2437",
						"timestampForLimit()": "2428",
						"updateAlgebraUnified(address)": "26764",
						"updateWETH(address)": "26850",
						"withdrawRewards()": "infinite"
					},
					"internal": {
						"sqrt(uint256)": "infinite"
					}
				},
				"methodIdentifiers": {
					"DAO()": "98fabd3a",
					"MAX_ETH_LIMIT()": "5a2f0ae7",
					"MAX_TICK()": "6882a888",
					"MAX_TOKEN_LIMIT()": "3b7ab5b3",
					"MIN_TICK()": "a1634b14",
					"WETH()": "ad5c4648",
					"addToWhitelist(address)": "e43252d7",
					"algebraUnified()": "24f8eca7",
					"calculateSqrtPriceX96(uint256,uint256)": "a000bf4f",
					"emergencyWithdraw()": "db2e21bc",
					"emergencyWithdrawTokens(address)": "b2af127c",
					"etherToRedistribute()": "6484bbaa",
					"getFeesCreation()": "e42bbbd5",
					"initiateMigration(address,uint256)": "18fd7858",
					"isWhitelisted(address)": "3af32abf",
					"listOfWinningTokens(uint256)": "a8bd9dde",
					"monarkTeamAddress()": "288b0b5a",
					"owner()": "8da5cb5b",
					"percentageToDistributeETH()": "30bff625",
					"removeFromWhitelist(address)": "8ab1d681",
					"rootstockAddress()": "6fb3ea56",
					"timestampForLimit()": "703dc75c",
					"updateAlgebraUnified(address)": "09fe2d34",
					"updateWETH(address)": "fe9440d7",
					"withdrawRewards()": "c7b8981c"
				}
			},
			"storageLayout": {
				"storage": [
					{
						"astId": 292,
						"contract": "contracts/token factory/Migrator.sol:Migrator",
						"label": "owner",
						"offset": 0,
						"slot": "0",
						"type": "t_address"
					},
					{
						"astId": 294,
						"contract": "contracts/token factory/Migrator.sol:Migrator",
						"label": "algebraUnified",
						"offset": 0,
						"slot": "1",
						"type": "t_address"
					},
					{
						"astId": 296,
						"contract": "contracts/token factory/Migrator.sol:Migrator",
						"label": "WETH",
						"offset": 0,
						"slot": "2",
						"type": "t_address"
					},
					{
						"astId": 298,
						"contract": "contracts/token factory/Migrator.sol:Migrator",
						"label": "rootstockAddress",
						"offset": 0,
						"slot": "3",
						"type": "t_address"
					},
					{
						"astId": 300,
						"contract": "contracts/token factory/Migrator.sol:Migrator",
						"label": "monarkTeamAddress",
						"offset": 0,
						"slot": "4",
						"type": "t_address"
					},
					{
						"astId": 302,
						"contract": "contracts/token factory/Migrator.sol:Migrator",
						"label": "DAO",
						"offset": 0,
						"slot": "5",
						"type": "t_address"
					},
					{
						"astId": 319,
						"contract": "contracts/token factory/Migrator.sol:Migrator",
						"label": "etherToRedistribute",
						"offset": 0,
						"slot": "6",
						"type": "t_uint256"
					},
					{
						"astId": 321,
						"contract": "contracts/token factory/Migrator.sol:Migrator",
						"label": "timestampForLimit",
						"offset": 0,
						"slot": "7",
						"type": "t_uint256"
					},
					{
						"astId": 324,
						"contract": "contracts/token factory/Migrator.sol:Migrator",
						"label": "percentageToDistributeETH",
						"offset": 0,
						"slot": "8",
						"type": "t_uint256"
					},
					{
						"astId": 327,
						"contract": "contracts/token factory/Migrator.sol:Migrator",
						"label": "listOfWinningTokens",
						"offset": 0,
						"slot": "9",
						"type": "t_array(t_address)dyn_storage"
					},
					{
						"astId": 331,
						"contract": "contracts/token factory/Migrator.sol:Migrator",
						"label": "whitelist",
						"offset": 0,
						"slot": "10",
						"type": "t_mapping(t_address,t_bool)"
					},
					{
						"astId": 335,
						"contract": "contracts/token factory/Migrator.sol:Migrator",
						"label": "winningTokensAmount",
						"offset": 0,
						"slot": "11",
						"type": "t_mapping(t_address,t_uint256)"
					}
				],
				"types": {
					"t_address": {
						"encoding": "inplace",
						"label": "address",
						"numberOfBytes": "20"
					},
					"t_array(t_address)dyn_storage": {
						"base": "t_address",
						"encoding": "dynamic_array",
						"label": "address[]",
						"numberOfBytes": "32"
					},
					"t_bool": {
						"encoding": "inplace",
						"label": "bool",
						"numberOfBytes": "1"
					},
					"t_mapping(t_address,t_bool)": {
						"encoding": "mapping",
						"key": "t_address",
						"label": "mapping(address => bool)",
						"numberOfBytes": "32",
						"value": "t_bool"
					},
					"t_mapping(t_address,t_uint256)": {
						"encoding": "mapping",
						"key": "t_address",
						"label": "mapping(address => uint256)",
						"numberOfBytes": "32",
						"value": "t_uint256"
					},
					"t_uint256": {
						"encoding": "inplace",
						"label": "uint256",
						"numberOfBytes": "32"
					}
				}
			},
			"userdoc": {
				"kind": "user",
				"methods": {},
				"version": 1
			}
		}
	}
}