{
	"contracts/token factory/LiquidityPool.sol": {
		"LiquidityPool": {
			"abi": [
				{
					"inputs": [
						{
							"internalType": "address",
							"name": "_devAddress",
							"type": "address"
						}
					],
					"stateMutability": "nonpayable",
					"type": "constructor"
				},
				{
					"anonymous": false,
					"inputs": [
						{
							"indexed": true,
							"internalType": "address",
							"name": "provider",
							"type": "address"
						},
						{
							"indexed": false,
							"internalType": "uint256",
							"name": "amountToken",
							"type": "uint256"
						},
						{
							"indexed": false,
							"internalType": "uint256",
							"name": "amountNative",
							"type": "uint256"
						}
					],
					"name": "LiquidityAdded",
					"type": "event"
				},
				{
					"anonymous": false,
					"inputs": [
						{
							"indexed": true,
							"internalType": "address",
							"name": "trader",
							"type": "address"
						},
						{
							"indexed": false,
							"internalType": "uint256",
							"name": "penaltyAmount",
							"type": "uint256"
						},
						{
							"indexed": false,
							"internalType": "uint256",
							"name": "newAmountOut",
							"type": "uint256"
						}
					],
					"name": "PenaltyApplied",
					"type": "event"
				},
				{
					"anonymous": false,
					"inputs": [
						{
							"indexed": true,
							"internalType": "address",
							"name": "fromToken",
							"type": "address"
						},
						{
							"indexed": true,
							"internalType": "address",
							"name": "toToken",
							"type": "address"
						},
						{
							"indexed": false,
							"internalType": "uint256",
							"name": "amountIn",
							"type": "uint256"
						},
						{
							"indexed": false,
							"internalType": "uint256",
							"name": "amountOut",
							"type": "uint256"
						}
					],
					"name": "Swap",
					"type": "event"
				},
				{
					"anonymous": false,
					"inputs": [
						{
							"indexed": false,
							"internalType": "uint256",
							"name": "newTaxPercentage",
							"type": "uint256"
						}
					],
					"name": "TaxPercentageUpdated",
					"type": "event"
				},
				{
					"inputs": [],
					"name": "buyToken",
					"outputs": [
						{
							"internalType": "uint256",
							"name": "amountOut",
							"type": "uint256"
						}
					],
					"stateMutability": "payable",
					"type": "function"
				},
				{
					"inputs": [
						{
							"internalType": "uint256",
							"name": "amountIn",
							"type": "uint256"
						}
					],
					"name": "calculatePenalty",
					"outputs": [
						{
							"internalType": "uint256",
							"name": "penaltyAmount",
							"type": "uint256"
						},
						{
							"internalType": "uint256",
							"name": "penaltyPercentage",
							"type": "uint256"
						}
					],
					"stateMutability": "view",
					"type": "function"
				},
				{
					"inputs": [],
					"name": "devAddress",
					"outputs": [
						{
							"internalType": "address",
							"name": "",
							"type": "address"
						}
					],
					"stateMutability": "view",
					"type": "function"
				},
				{
					"inputs": [
						{
							"internalType": "address",
							"name": "_token0",
							"type": "address"
						},
						{
							"internalType": "address",
							"name": "_tokenFactory",
							"type": "address"
						},
						{
							"internalType": "uint256",
							"name": "_initialTokenReserve",
							"type": "uint256"
						},
						{
							"internalType": "uint256",
							"name": "_taxPercentage",
							"type": "uint256"
						}
					],
					"name": "initialize",
					"outputs": [],
					"stateMutability": "payable",
					"type": "function"
				},
				{
					"inputs": [],
					"name": "penaltyThreshold",
					"outputs": [
						{
							"internalType": "uint256",
							"name": "",
							"type": "uint256"
						}
					],
					"stateMutability": "view",
					"type": "function"
				},
				{
					"inputs": [],
					"name": "reserve0",
					"outputs": [
						{
							"internalType": "uint256",
							"name": "",
							"type": "uint256"
						}
					],
					"stateMutability": "view",
					"type": "function"
				},
				{
					"inputs": [],
					"name": "reserve1",
					"outputs": [
						{
							"internalType": "uint256",
							"name": "",
							"type": "uint256"
						}
					],
					"stateMutability": "view",
					"type": "function"
				},
				{
					"inputs": [
						{
							"internalType": "uint256",
							"name": "amountIn",
							"type": "uint256"
						}
					],
					"name": "sellToken",
					"outputs": [
						{
							"internalType": "uint256",
							"name": "amountOut",
							"type": "uint256"
						}
					],
					"stateMutability": "nonpayable",
					"type": "function"
				},
				{
					"inputs": [],
					"name": "taxPercentage",
					"outputs": [
						{
							"internalType": "uint256",
							"name": "",
							"type": "uint256"
						}
					],
					"stateMutability": "view",
					"type": "function"
				},
				{
					"inputs": [],
					"name": "token0",
					"outputs": [
						{
							"internalType": "address",
							"name": "",
							"type": "address"
						}
					],
					"stateMutability": "view",
					"type": "function"
				},
				{
					"inputs": [],
					"name": "tokenFactory",
					"outputs": [
						{
							"internalType": "address",
							"name": "",
							"type": "address"
						}
					],
					"stateMutability": "view",
					"type": "function"
				},
				{
					"inputs": [
						{
							"internalType": "uint256",
							"name": "newTaxPercentage",
							"type": "uint256"
						}
					],
					"name": "updateTaxPercentage",
					"outputs": [],
					"stateMutability": "nonpayable",
					"type": "function"
				}
			],
			"devdoc": {
				"kind": "dev",
				"methods": {},
				"version": 1
			},
			"evm": {
				"assembly": "    /* \"contracts/token factory/LiquidityPool.sol\":116:5571  contract LiquidityPool {... */\n  mstore(0x40, 0x80)\n    /* \"contracts/token factory/LiquidityPool.sol\":606:608  20 */\n  0x14\n    /* \"contracts/token factory/LiquidityPool.sol\":572:608  uint256 public penaltyThreshold = 20 */\n  0x06\n  sstore\n    /* \"contracts/token factory/LiquidityPool.sol\":1140:1302  constructor(address _devAddress) {... */\n  callvalue\n  dup1\n  iszero\n  tag_1\n  jumpi\n  0x00\n  dup1\n  revert\ntag_1:\n  pop\n  mload(0x40)\n  sub(codesize, bytecodeSize)\n  dup1\n  bytecodeSize\n  dup4\n  codecopy\n  dup2\n  dup2\n  add\n  0x40\n  mstore\n  dup2\n  add\n  swap1\n  tag_2\n  swap2\n  swap1\n  tag_3\n  jump\t// in\ntag_2:\n    /* \"contracts/token factory/LiquidityPool.sol\":1214:1215  0 */\n  0x00\n    /* \"contracts/token factory/LiquidityPool.sol\":1191:1216  _devAddress != address(0) */\n  0xffffffffffffffffffffffffffffffffffffffff\n  and\n    /* \"contracts/token factory/LiquidityPool.sol\":1191:1202  _devAddress */\n  dup2\n    /* \"contracts/token factory/LiquidityPool.sol\":1191:1216  _devAddress != address(0) */\n  0xffffffffffffffffffffffffffffffffffffffff\n  and\n  sub\n    /* \"contracts/token factory/LiquidityPool.sol\":1183:1261  require(_devAddress != address(0), \"Developer address cannot be zero address\") */\n  tag_6\n  jumpi\n  mload(0x40)\n  0x08c379a000000000000000000000000000000000000000000000000000000000\n  dup2\n  mstore\n  0x04\n  add\n  tag_7\n  swap1\n  tag_8\n  jump\t// in\ntag_7:\n  mload(0x40)\n  dup1\n  swap2\n  sub\n  swap1\n  revert\ntag_6:\n    /* \"contracts/token factory/LiquidityPool.sol\":1284:1295  _devAddress */\n  dup1\n    /* \"contracts/token factory/LiquidityPool.sol\":1271:1281  devAddress */\n  0x05\n  0x00\n    /* \"contracts/token factory/LiquidityPool.sol\":1271:1295  devAddress = _devAddress */\n  0x0100\n  exp\n  dup2\n  sload\n  dup2\n  0xffffffffffffffffffffffffffffffffffffffff\n  mul\n  not\n  and\n  swap1\n  dup4\n  0xffffffffffffffffffffffffffffffffffffffff\n  and\n  mul\n  or\n  swap1\n  sstore\n  pop\n    /* \"contracts/token factory/LiquidityPool.sol\":1140:1302  constructor(address _devAddress) {... */\n  pop\n    /* \"contracts/token factory/LiquidityPool.sol\":116:5571  contract LiquidityPool {... */\n  jump(tag_9)\n    /* \"#utility.yul\":88:205   */\ntag_11:\n    /* \"#utility.yul\":197:198   */\n  0x00\n    /* \"#utility.yul\":194:195   */\n  dup1\n    /* \"#utility.yul\":187:199   */\n  revert\n    /* \"#utility.yul\":334:460   */\ntag_13:\n    /* \"#utility.yul\":371:378   */\n  0x00\n    /* \"#utility.yul\":411:453   */\n  0xffffffffffffffffffffffffffffffffffffffff\n    /* \"#utility.yul\":404:409   */\n  dup3\n    /* \"#utility.yul\":400:454   */\n  and\n    /* \"#utility.yul\":389:454   */\n  swap1\n  pop\n    /* \"#utility.yul\":334:460   */\n  swap2\n  swap1\n  pop\n  jump\t// out\n    /* \"#utility.yul\":466:562   */\ntag_14:\n    /* \"#utility.yul\":503:510   */\n  0x00\n    /* \"#utility.yul\":532:556   */\n  tag_26\n    /* \"#utility.yul\":550:555   */\n  dup3\n    /* \"#utility.yul\":532:556   */\n  tag_13\n  jump\t// in\ntag_26:\n    /* \"#utility.yul\":521:556   */\n  swap1\n  pop\n    /* \"#utility.yul\":466:562   */\n  swap2\n  swap1\n  pop\n  jump\t// out\n    /* \"#utility.yul\":568:690   */\ntag_15:\n    /* \"#utility.yul\":641:665   */\n  tag_28\n    /* \"#utility.yul\":659:664   */\n  dup2\n    /* \"#utility.yul\":641:665   */\n  tag_14\n  jump\t// in\ntag_28:\n    /* \"#utility.yul\":634:639   */\n  dup2\n    /* \"#utility.yul\":631:666   */\n  eq\n    /* \"#utility.yul\":621:684   */\n  tag_29\n  jumpi\n    /* \"#utility.yul\":680:681   */\n  0x00\n    /* \"#utility.yul\":677:678   */\n  dup1\n    /* \"#utility.yul\":670:682   */\n  revert\n    /* \"#utility.yul\":621:684   */\ntag_29:\n    /* \"#utility.yul\":568:690   */\n  pop\n  jump\t// out\n    /* \"#utility.yul\":696:839   */\ntag_16:\n    /* \"#utility.yul\":753:758   */\n  0x00\n    /* \"#utility.yul\":784:790   */\n  dup2\n    /* \"#utility.yul\":778:791   */\n  mload\n    /* \"#utility.yul\":769:791   */\n  swap1\n  pop\n    /* \"#utility.yul\":800:833   */\n  tag_31\n    /* \"#utility.yul\":827:832   */\n  dup2\n    /* \"#utility.yul\":800:833   */\n  tag_15\n  jump\t// in\ntag_31:\n    /* \"#utility.yul\":696:839   */\n  swap3\n  swap2\n  pop\n  pop\n  jump\t// out\n    /* \"#utility.yul\":845:1196   */\ntag_3:\n    /* \"#utility.yul\":915:921   */\n  0x00\n    /* \"#utility.yul\":964:966   */\n  0x20\n    /* \"#utility.yul\":952:961   */\n  dup3\n    /* \"#utility.yul\":943:950   */\n  dup5\n    /* \"#utility.yul\":939:962   */\n  sub\n    /* \"#utility.yul\":935:967   */\n  slt\n    /* \"#utility.yul\":932:1051   */\n  iszero\n  tag_33\n  jumpi\n    /* \"#utility.yul\":970:1049   */\n  tag_34\n  tag_11\n  jump\t// in\ntag_34:\n    /* \"#utility.yul\":932:1051   */\ntag_33:\n    /* \"#utility.yul\":1090:1091   */\n  0x00\n    /* \"#utility.yul\":1115:1179   */\n  tag_35\n    /* \"#utility.yul\":1171:1178   */\n  dup5\n    /* \"#utility.yul\":1162:1168   */\n  dup3\n    /* \"#utility.yul\":1151:1160   */\n  dup6\n    /* \"#utility.yul\":1147:1169   */\n  add\n    /* \"#utility.yul\":1115:1179   */\n  tag_16\n  jump\t// in\ntag_35:\n    /* \"#utility.yul\":1105:1179   */\n  swap2\n  pop\n    /* \"#utility.yul\":1061:1189   */\n  pop\n    /* \"#utility.yul\":845:1196   */\n  swap3\n  swap2\n  pop\n  pop\n  jump\t// out\n    /* \"#utility.yul\":1202:1371   */\ntag_17:\n    /* \"#utility.yul\":1286:1297   */\n  0x00\n    /* \"#utility.yul\":1320:1326   */\n  dup3\n    /* \"#utility.yul\":1315:1318   */\n  dup3\n    /* \"#utility.yul\":1308:1327   */\n  mstore\n    /* \"#utility.yul\":1360:1364   */\n  0x20\n    /* \"#utility.yul\":1355:1358   */\n  dup3\n    /* \"#utility.yul\":1351:1365   */\n  add\n    /* \"#utility.yul\":1336:1365   */\n  swap1\n  pop\n    /* \"#utility.yul\":1202:1371   */\n  swap3\n  swap2\n  pop\n  pop\n  jump\t// out\n    /* \"#utility.yul\":1377:1604   */\ntag_18:\n    /* \"#utility.yul\":1517:1551   */\n  0x446576656c6f70657220616464726573732063616e6e6f74206265207a65726f\n    /* \"#utility.yul\":1513:1514   */\n  0x00\n    /* \"#utility.yul\":1505:1511   */\n  dup3\n    /* \"#utility.yul\":1501:1515   */\n  add\n    /* \"#utility.yul\":1494:1552   */\n  mstore\n    /* \"#utility.yul\":1586:1596   */\n  0x2061646472657373000000000000000000000000000000000000000000000000\n    /* \"#utility.yul\":1581:1583   */\n  0x20\n    /* \"#utility.yul\":1573:1579   */\n  dup3\n    /* \"#utility.yul\":1569:1584   */\n  add\n    /* \"#utility.yul\":1562:1597   */\n  mstore\n    /* \"#utility.yul\":1377:1604   */\n  pop\n  jump\t// out\n    /* \"#utility.yul\":1610:1976   */\ntag_19:\n    /* \"#utility.yul\":1752:1755   */\n  0x00\n    /* \"#utility.yul\":1773:1840   */\n  tag_39\n    /* \"#utility.yul\":1837:1839   */\n  0x28\n    /* \"#utility.yul\":1832:1835   */\n  dup4\n    /* \"#utility.yul\":1773:1840   */\n  tag_17\n  jump\t// in\ntag_39:\n    /* \"#utility.yul\":1766:1840   */\n  swap2\n  pop\n    /* \"#utility.yul\":1849:1942   */\n  tag_40\n    /* \"#utility.yul\":1938:1941   */\n  dup3\n    /* \"#utility.yul\":1849:1942   */\n  tag_18\n  jump\t// in\ntag_40:\n    /* \"#utility.yul\":1967:1969   */\n  0x40\n    /* \"#utility.yul\":1962:1965   */\n  dup3\n    /* \"#utility.yul\":1958:1970   */\n  add\n    /* \"#utility.yul\":1951:1970   */\n  swap1\n  pop\n    /* \"#utility.yul\":1610:1976   */\n  swap2\n  swap1\n  pop\n  jump\t// out\n    /* \"#utility.yul\":1982:2401   */\ntag_8:\n    /* \"#utility.yul\":2148:2152   */\n  0x00\n    /* \"#utility.yul\":2186:2188   */\n  0x20\n    /* \"#utility.yul\":2175:2184   */\n  dup3\n    /* \"#utility.yul\":2171:2189   */\n  add\n    /* \"#utility.yul\":2163:2189   */\n  swap1\n  pop\n    /* \"#utility.yul\":2235:2244   */\n  dup2\n    /* \"#utility.yul\":2229:2233   */\n  dup2\n    /* \"#utility.yul\":2225:2245   */\n  sub\n    /* \"#utility.yul\":2221:2222   */\n  0x00\n    /* \"#utility.yul\":2210:2219   */\n  dup4\n    /* \"#utility.yul\":2206:2223   */\n  add\n    /* \"#utility.yul\":2199:2246   */\n  mstore\n    /* \"#utility.yul\":2263:2394   */\n  tag_42\n    /* \"#utility.yul\":2389:2393   */\n  dup2\n    /* \"#utility.yul\":2263:2394   */\n  tag_19\n  jump\t// in\ntag_42:\n    /* \"#utility.yul\":2255:2394   */\n  swap1\n  pop\n    /* \"#utility.yul\":1982:2401   */\n  swap2\n  swap1\n  pop\n  jump\t// out\n    /* \"contracts/token factory/LiquidityPool.sol\":116:5571  contract LiquidityPool {... */\ntag_9:\n  dataSize(sub_0)\n  dup1\n  dataOffset(sub_0)\n  0x00\n  codecopy\n  0x00\n  return\nstop\n\nsub_0: assembly {\n        /* \"contracts/token factory/LiquidityPool.sol\":116:5571  contract LiquidityPool {... */\n      mstore(0x40, 0x80)\n      jumpi(tag_1, lt(calldatasize, 0x04))\n      shr(0xe0, calldataload(0x00))\n      dup1\n      0x5a76f25e\n      gt\n      tag_14\n      jumpi\n      dup1\n      0x5a76f25e\n      eq\n      tag_8\n      jumpi\n      dup1\n      0xa4821719\n      eq\n      tag_9\n      jumpi\n      dup1\n      0xae7b6d16\n      eq\n      tag_10\n      jumpi\n      dup1\n      0xc91e5149\n      eq\n      tag_11\n      jumpi\n      dup1\n      0xe77772fe\n      eq\n      tag_12\n      jumpi\n      dup1\n      0xeb990c59\n      eq\n      tag_13\n      jumpi\n      jump(tag_1)\n    tag_14:\n      dup1\n      0x0dfe1681\n      eq\n      tag_2\n      jumpi\n      dup1\n      0x2397e4d7\n      eq\n      tag_3\n      jumpi\n      dup1\n      0x3ad10ef6\n      eq\n      tag_4\n      jumpi\n      dup1\n      0x3f131c6a\n      eq\n      tag_5\n      jumpi\n      dup1\n      0x443cb4bc\n      eq\n      tag_6\n      jumpi\n      dup1\n      0x4ecce451\n      eq\n      tag_7\n      jumpi\n    tag_1:\n      0x00\n      dup1\n      revert\n        /* \"contracts/token factory/LiquidityPool.sol\":145:166  address public token0 */\n    tag_2:\n      callvalue\n      dup1\n      iszero\n      tag_15\n      jumpi\n      0x00\n      dup1\n      revert\n    tag_15:\n      pop\n      tag_16\n      tag_17\n      jump\t// in\n    tag_16:\n      mload(0x40)\n      tag_18\n      swap2\n      swap1\n      tag_19\n      jump\t// in\n    tag_18:\n      mload(0x40)\n      dup1\n      swap2\n      sub\n      swap1\n      return\n        /* \"contracts/token factory/LiquidityPool.sol\":3227:4904  function sellToken(uint256 amountIn) external returns (uint256 amountOut) {... */\n    tag_3:\n      callvalue\n      dup1\n      iszero\n      tag_20\n      jumpi\n      0x00\n      dup1\n      revert\n    tag_20:\n      pop\n      tag_21\n      0x04\n      dup1\n      calldatasize\n      sub\n      dup2\n      add\n      swap1\n      tag_22\n      swap2\n      swap1\n      tag_23\n      jump\t// in\n    tag_22:\n      tag_24\n      jump\t// in\n    tag_21:\n      mload(0x40)\n      tag_25\n      swap2\n      swap1\n      tag_26\n      jump\t// in\n    tag_25:\n      mload(0x40)\n      dup1\n      swap2\n      sub\n      swap1\n      return\n        /* \"contracts/token factory/LiquidityPool.sol\":497:522  address public devAddress */\n    tag_4:\n      callvalue\n      dup1\n      iszero\n      tag_27\n      jumpi\n      0x00\n      dup1\n      revert\n    tag_27:\n      pop\n      tag_28\n      tag_29\n      jump\t// in\n    tag_28:\n      mload(0x40)\n      tag_30\n      swap2\n      swap1\n      tag_19\n      jump\t// in\n    tag_30:\n      mload(0x40)\n      dup1\n      swap2\n      sub\n      swap1\n      return\n        /* \"contracts/token factory/LiquidityPool.sol\":1934:2112  function updateTaxPercentage(uint256 newTaxPercentage) external onlyFactory {... */\n    tag_5:\n      callvalue\n      dup1\n      iszero\n      tag_31\n      jumpi\n      0x00\n      dup1\n      revert\n    tag_31:\n      pop\n      tag_32\n      0x04\n      dup1\n      calldatasize\n      sub\n      dup2\n      add\n      swap1\n      tag_33\n      swap2\n      swap1\n      tag_23\n      jump\t// in\n    tag_33:\n      tag_34\n      jump\t// in\n    tag_32:\n      stop\n        /* \"contracts/token factory/LiquidityPool.sol\":266:289  uint256 public reserve0 */\n    tag_6:\n      callvalue\n      dup1\n      iszero\n      tag_35\n      jumpi\n      0x00\n      dup1\n      revert\n    tag_35:\n      pop\n      tag_36\n      tag_37\n      jump\t// in\n    tag_36:\n      mload(0x40)\n      tag_38\n      swap2\n      swap1\n      tag_26\n      jump\t// in\n    tag_38:\n      mload(0x40)\n      dup1\n      swap2\n      sub\n      swap1\n      return\n        /* \"contracts/token factory/LiquidityPool.sol\":4982:5569  function calculatePenalty(uint256 amountIn) public view returns (uint256 penaltyAmount, uint256 penaltyPercentage) {... */\n    tag_7:\n      callvalue\n      dup1\n      iszero\n      tag_39\n      jumpi\n      0x00\n      dup1\n      revert\n    tag_39:\n      pop\n      tag_40\n      0x04\n      dup1\n      calldatasize\n      sub\n      dup2\n      add\n      swap1\n      tag_41\n      swap2\n      swap1\n      tag_23\n      jump\t// in\n    tag_41:\n      tag_42\n      jump\t// in\n    tag_40:\n      mload(0x40)\n      tag_43\n      swap3\n      swap2\n      swap1\n      tag_44\n      jump\t// in\n    tag_43:\n      mload(0x40)\n      dup1\n      swap2\n      sub\n      swap1\n      return\n        /* \"contracts/token factory/LiquidityPool.sol\":323:346  uint256 public reserve1 */\n    tag_8:\n      callvalue\n      dup1\n      iszero\n      tag_45\n      jumpi\n      0x00\n      dup1\n      revert\n    tag_45:\n      pop\n      tag_46\n      tag_47\n      jump\t// in\n    tag_46:\n      mload(0x40)\n      tag_48\n      swap2\n      swap1\n      tag_26\n      jump\t// in\n    tag_48:\n      mload(0x40)\n      dup1\n      swap2\n      sub\n      swap1\n      return\n        /* \"contracts/token factory/LiquidityPool.sol\":2174:3132  function buyToken() external payable returns (uint256 amountOut) {... */\n    tag_9:\n      tag_49\n      tag_50\n      jump\t// in\n    tag_49:\n      mload(0x40)\n      tag_51\n      swap2\n      swap1\n      tag_26\n      jump\t// in\n    tag_51:\n      mload(0x40)\n      dup1\n      swap2\n      sub\n      swap1\n      return\n        /* \"contracts/token factory/LiquidityPool.sol\":412:440  uint256 public taxPercentage */\n    tag_10:\n      callvalue\n      dup1\n      iszero\n      tag_52\n      jumpi\n      0x00\n      dup1\n      revert\n    tag_52:\n      pop\n      tag_53\n      tag_54\n      jump\t// in\n    tag_53:\n      mload(0x40)\n      tag_55\n      swap2\n      swap1\n      tag_26\n      jump\t// in\n    tag_55:\n      mload(0x40)\n      dup1\n      swap2\n      sub\n      swap1\n      return\n        /* \"contracts/token factory/LiquidityPool.sol\":572:608  uint256 public penaltyThreshold = 20 */\n    tag_11:\n      callvalue\n      dup1\n      iszero\n      tag_56\n      jumpi\n      0x00\n      dup1\n      revert\n    tag_56:\n      pop\n      tag_57\n      tag_58\n      jump\t// in\n    tag_57:\n      mload(0x40)\n      tag_59\n      swap2\n      swap1\n      tag_26\n      jump\t// in\n    tag_59:\n      mload(0x40)\n      dup1\n      swap2\n      sub\n      swap1\n      return\n        /* \"contracts/token factory/LiquidityPool.sol\":198:225  address public tokenFactory */\n    tag_12:\n      callvalue\n      dup1\n      iszero\n      tag_60\n      jumpi\n      0x00\n      dup1\n      revert\n    tag_60:\n      pop\n      tag_61\n      tag_62\n      jump\t// in\n    tag_61:\n      mload(0x40)\n      tag_63\n      swap2\n      swap1\n      tag_19\n      jump\t// in\n    tag_63:\n      mload(0x40)\n      dup1\n      swap2\n      sub\n      swap1\n      return\n        /* \"contracts/token factory/LiquidityPool.sol\":1308:1928  function initialize(... */\n    tag_13:\n      tag_64\n      0x04\n      dup1\n      calldatasize\n      sub\n      dup2\n      add\n      swap1\n      tag_65\n      swap2\n      swap1\n      tag_66\n      jump\t// in\n    tag_65:\n      tag_67\n      jump\t// in\n    tag_64:\n      stop\n        /* \"contracts/token factory/LiquidityPool.sol\":145:166  address public token0 */\n    tag_17:\n      0x00\n      dup1\n      sload\n      swap1\n      0x0100\n      exp\n      swap1\n      div\n      0xffffffffffffffffffffffffffffffffffffffff\n      and\n      dup2\n      jump\t// out\n        /* \"contracts/token factory/LiquidityPool.sol\":3227:4904  function sellToken(uint256 amountIn) external returns (uint256 amountOut) {... */\n    tag_24:\n        /* \"contracts/token factory/LiquidityPool.sol\":3282:3299  uint256 amountOut */\n      0x00\n        /* \"contracts/token factory/LiquidityPool.sol\":3330:3331  0 */\n      dup1\n        /* \"contracts/token factory/LiquidityPool.sol\":3319:3327  amountIn */\n      dup3\n        /* \"contracts/token factory/LiquidityPool.sol\":3319:3331  amountIn > 0 */\n      gt\n        /* \"contracts/token factory/LiquidityPool.sol\":3311:3357  require(amountIn > 0, \"Must sell some tokens\") */\n      tag_69\n      jumpi\n      mload(0x40)\n      0x08c379a000000000000000000000000000000000000000000000000000000000\n      dup2\n      mstore\n      0x04\n      add\n      tag_70\n      swap1\n      tag_71\n      jump\t// in\n    tag_70:\n      mload(0x40)\n      dup1\n      swap2\n      sub\n      swap1\n      revert\n    tag_69:\n        /* \"contracts/token factory/LiquidityPool.sol\":3368:3393  uint256 circulatingSupply */\n      0x00\n        /* \"contracts/token factory/LiquidityPool.sol\":3403:3409  token0 */\n      dup1\n      0x00\n      swap1\n      sload\n      swap1\n      0x0100\n      exp\n      swap1\n      div\n      0xffffffffffffffffffffffffffffffffffffffff\n      and\n        /* \"contracts/token factory/LiquidityPool.sol\":3396:3422  IERC20(token0).totalSupply */\n      0xffffffffffffffffffffffffffffffffffffffff\n      and\n      0x18160ddd\n        /* \"contracts/token factory/LiquidityPool.sol\":3396:3424  IERC20(token0).totalSupply() */\n      mload(0x40)\n      dup2\n      0xffffffff\n      and\n      0xe0\n      shl\n      dup2\n      mstore\n      0x04\n      add\n      0x20\n      mload(0x40)\n      dup1\n      dup4\n      sub\n      dup2\n      dup7\n      gas\n      staticcall\n      iszero\n      dup1\n      iszero\n      tag_73\n      jumpi\n      returndatasize\n      0x00\n      dup1\n      returndatacopy\n      revert(0x00, returndatasize)\n    tag_73:\n      pop\n      pop\n      pop\n      pop\n      mload(0x40)\n      returndatasize\n      not(0x1f)\n      0x1f\n      dup3\n      add\n      and\n      dup3\n      add\n      dup1\n      0x40\n      mstore\n      pop\n      dup2\n      add\n      swap1\n      tag_74\n      swap2\n      swap1\n      tag_75\n      jump\t// in\n    tag_74:\n        /* \"contracts/token factory/LiquidityPool.sol\":3368:3424  uint256 circulatingSupply = IERC20(token0).totalSupply() */\n      swap1\n      pop\n        /* \"contracts/token factory/LiquidityPool.sol\":3434:3456  uint256 sellPercentage */\n      0x00\n        /* \"contracts/token factory/LiquidityPool.sol\":3478:3495  circulatingSupply */\n      dup2\n        /* \"contracts/token factory/LiquidityPool.sol\":3471:3474  100 */\n      0x64\n        /* \"contracts/token factory/LiquidityPool.sol\":3460:3468  amountIn */\n      dup6\n        /* \"contracts/token factory/LiquidityPool.sol\":3460:3474  amountIn * 100 */\n      tag_76\n      swap2\n      swap1\n      tag_77\n      jump\t// in\n    tag_76:\n        /* \"contracts/token factory/LiquidityPool.sol\":3459:3495  (amountIn * 100) / circulatingSupply */\n      tag_78\n      swap2\n      swap1\n      tag_79\n      jump\t// in\n    tag_78:\n        /* \"contracts/token factory/LiquidityPool.sol\":3434:3495  uint256 sellPercentage = (amountIn * 100) / circulatingSupply */\n      swap1\n      pop\n        /* \"contracts/token factory/LiquidityPool.sol\":3543:3554  uint256 tax */\n      0x00\n        /* \"contracts/token factory/LiquidityPool.sol\":3586:3589  100 */\n      0x64\n        /* \"contracts/token factory/LiquidityPool.sol\":3569:3582  taxPercentage */\n      sload(0x04)\n        /* \"contracts/token factory/LiquidityPool.sol\":3558:3566  amountIn */\n      dup7\n        /* \"contracts/token factory/LiquidityPool.sol\":3558:3582  amountIn * taxPercentage */\n      tag_80\n      swap2\n      swap1\n      tag_77\n      jump\t// in\n    tag_80:\n        /* \"contracts/token factory/LiquidityPool.sol\":3557:3589  (amountIn * taxPercentage) / 100 */\n      tag_81\n      swap2\n      swap1\n      tag_79\n      jump\t// in\n    tag_81:\n        /* \"contracts/token factory/LiquidityPool.sol\":3543:3589  uint256 tax = (amountIn * taxPercentage) / 100 */\n      swap1\n      pop\n        /* \"contracts/token factory/LiquidityPool.sol\":3599:3623  uint256 amountInAfterTax */\n      0x00\n        /* \"contracts/token factory/LiquidityPool.sol\":3637:3640  tax */\n      dup2\n        /* \"contracts/token factory/LiquidityPool.sol\":3626:3634  amountIn */\n      dup7\n        /* \"contracts/token factory/LiquidityPool.sol\":3626:3640  amountIn - tax */\n      tag_82\n      swap2\n      swap1\n      tag_83\n      jump\t// in\n    tag_82:\n        /* \"contracts/token factory/LiquidityPool.sol\":3599:3640  uint256 amountInAfterTax = amountIn - tax */\n      swap1\n      pop\n        /* \"contracts/token factory/LiquidityPool.sol\":3736:3751  uint256 penalty */\n      0x00\n        /* \"contracts/token factory/LiquidityPool.sol\":3786:3802  penaltyThreshold */\n      sload(0x06)\n        /* \"contracts/token factory/LiquidityPool.sol\":3769:3783  sellPercentage */\n      dup5\n        /* \"contracts/token factory/LiquidityPool.sol\":3769:3802  sellPercentage > penaltyThreshold */\n      gt\n        /* \"contracts/token factory/LiquidityPool.sol\":3765:4101  if (sellPercentage > penaltyThreshold) {... */\n      iszero\n      tag_84\n      jumpi\n        /* \"contracts/token factory/LiquidityPool.sol\":3887:3890  100 */\n      0x64\n        /* \"contracts/token factory/LiquidityPool.sol\":3867:3883  amountInAfterTax */\n      dup3\n        /* \"contracts/token factory/LiquidityPool.sol\":3847:3863  penaltyThreshold */\n      sload(0x06)\n        /* \"contracts/token factory/LiquidityPool.sol\":3830:3844  sellPercentage */\n      dup7\n        /* \"contracts/token factory/LiquidityPool.sol\":3830:3863  sellPercentage - penaltyThreshold */\n      tag_85\n      swap2\n      swap1\n      tag_83\n      jump\t// in\n    tag_85:\n        /* \"contracts/token factory/LiquidityPool.sol\":3829:3883  (sellPercentage - penaltyThreshold) * amountInAfterTax */\n      tag_86\n      swap2\n      swap1\n      tag_77\n      jump\t// in\n    tag_86:\n        /* \"contracts/token factory/LiquidityPool.sol\":3828:3890  ((sellPercentage - penaltyThreshold) * amountInAfterTax) / 100 */\n      tag_87\n      swap2\n      swap1\n      tag_79\n      jump\t// in\n    tag_87:\n        /* \"contracts/token factory/LiquidityPool.sol\":3818:3890  penalty = ((sellPercentage - penaltyThreshold) * amountInAfterTax) / 100 */\n      swap1\n      pop\n        /* \"contracts/token factory/LiquidityPool.sol\":3924:3931  penalty */\n      dup1\n        /* \"contracts/token factory/LiquidityPool.sol\":3904:3931  amountInAfterTax -= penalty */\n      dup3\n      tag_88\n      swap2\n      swap1\n      tag_83\n      jump\t// in\n    tag_88:\n      swap2\n      pop\n        /* \"contracts/token factory/LiquidityPool.sol\":4011:4018  penalty */\n      dup1\n        /* \"contracts/token factory/LiquidityPool.sol\":3999:4007  reserve1 */\n      0x03\n      0x00\n        /* \"contracts/token factory/LiquidityPool.sol\":3999:4018  reserve1 += penalty */\n      dup3\n      dup3\n      sload\n      tag_89\n      swap2\n      swap1\n      tag_90\n      jump\t// in\n    tag_89:\n      swap3\n      pop\n      pop\n      dup2\n      swap1\n      sstore\n      pop\n        /* \"contracts/token factory/LiquidityPool.sol\":4052:4062  msg.sender */\n      caller\n        /* \"contracts/token factory/LiquidityPool.sol\":4037:4090  PenaltyApplied(msg.sender, penalty, amountInAfterTax) */\n      0xffffffffffffffffffffffffffffffffffffffff\n      and\n      0xcf40cadcd86c14cb7e696a86578255719f67bc54bf991d45d267ee6e01467c19\n        /* \"contracts/token factory/LiquidityPool.sol\":4064:4071  penalty */\n      dup3\n        /* \"contracts/token factory/LiquidityPool.sol\":4073:4089  amountInAfterTax */\n      dup5\n        /* \"contracts/token factory/LiquidityPool.sol\":4037:4090  PenaltyApplied(msg.sender, penalty, amountInAfterTax) */\n      mload(0x40)\n      tag_91\n      swap3\n      swap2\n      swap1\n      tag_44\n      jump\t// in\n    tag_91:\n      mload(0x40)\n      dup1\n      swap2\n      sub\n      swap1\n      log2\n        /* \"contracts/token factory/LiquidityPool.sol\":3765:4101  if (sellPercentage > penaltyThreshold) {... */\n    tag_84:\n        /* \"contracts/token factory/LiquidityPool.sol\":4193:4199  token0 */\n      0x00\n      dup1\n      sload\n      swap1\n      0x0100\n      exp\n      swap1\n      div\n      0xffffffffffffffffffffffffffffffffffffffff\n      and\n        /* \"contracts/token factory/LiquidityPool.sol\":4186:4209  IERC20(token0).transfer */\n      0xffffffffffffffffffffffffffffffffffffffff\n      and\n      0xa9059cbb\n        /* \"contracts/token factory/LiquidityPool.sol\":4210:4220  devAddress */\n      0x05\n      0x00\n      swap1\n      sload\n      swap1\n      0x0100\n      exp\n      swap1\n      div\n      0xffffffffffffffffffffffffffffffffffffffff\n      and\n        /* \"contracts/token factory/LiquidityPool.sol\":4222:4225  tax */\n      dup6\n        /* \"contracts/token factory/LiquidityPool.sol\":4186:4226  IERC20(token0).transfer(devAddress, tax) */\n      mload(0x40)\n      dup4\n      0xffffffff\n      and\n      0xe0\n      shl\n      dup2\n      mstore\n      0x04\n      add\n      tag_92\n      swap3\n      swap2\n      swap1\n      tag_93\n      jump\t// in\n    tag_92:\n      0x20\n      mload(0x40)\n      dup1\n      dup4\n      sub\n      dup2\n      0x00\n      dup8\n      gas\n      call\n      iszero\n      dup1\n      iszero\n      tag_95\n      jumpi\n      returndatasize\n      0x00\n      dup1\n      returndatacopy\n      revert(0x00, returndatasize)\n    tag_95:\n      pop\n      pop\n      pop\n      pop\n      mload(0x40)\n      returndatasize\n      not(0x1f)\n      0x1f\n      dup3\n      add\n      and\n      dup3\n      add\n      dup1\n      0x40\n      mstore\n      pop\n      dup2\n      add\n      swap1\n      tag_96\n      swap2\n      swap1\n      tag_97\n      jump\t// in\n    tag_96:\n      pop\n        /* \"contracts/token factory/LiquidityPool.sol\":4312:4331  uint256 newReserve0 */\n      0x00\n        /* \"contracts/token factory/LiquidityPool.sol\":4345:4361  amountInAfterTax */\n      dup3\n        /* \"contracts/token factory/LiquidityPool.sol\":4334:4342  reserve0 */\n      sload(0x02)\n        /* \"contracts/token factory/LiquidityPool.sol\":4334:4361  reserve0 + amountInAfterTax */\n      tag_98\n      swap2\n      swap1\n      tag_90\n      jump\t// in\n    tag_98:\n        /* \"contracts/token factory/LiquidityPool.sol\":4312:4361  uint256 newReserve0 = reserve0 + amountInAfterTax */\n      swap1\n      pop\n        /* \"contracts/token factory/LiquidityPool.sol\":4418:4429  newReserve0 */\n      dup1\n        /* \"contracts/token factory/LiquidityPool.sol\":4406:4414  reserve1 */\n      sload(0x03)\n        /* \"contracts/token factory/LiquidityPool.sol\":4395:4403  reserve0 */\n      sload(0x02)\n        /* \"contracts/token factory/LiquidityPool.sol\":4395:4414  reserve0 * reserve1 */\n      tag_99\n      swap2\n      swap1\n      tag_77\n      jump\t// in\n    tag_99:\n        /* \"contracts/token factory/LiquidityPool.sol\":4394:4429  (reserve0 * reserve1) / newReserve0 */\n      tag_100\n      swap2\n      swap1\n      tag_79\n      jump\t// in\n    tag_100:\n        /* \"contracts/token factory/LiquidityPool.sol\":4383:4391  reserve1 */\n      sload(0x03)\n        /* \"contracts/token factory/LiquidityPool.sol\":4383:4429  reserve1 - (reserve0 * reserve1) / newReserve0 */\n      tag_101\n      swap2\n      swap1\n      tag_83\n      jump\t// in\n    tag_101:\n        /* \"contracts/token factory/LiquidityPool.sol\":4371:4429  amountOut = reserve1 - (reserve0 * reserve1) / newReserve0 */\n      swap7\n      pop\n        /* \"contracts/token factory/LiquidityPool.sol\":4489:4500  newReserve0 */\n      dup1\n        /* \"contracts/token factory/LiquidityPool.sol\":4478:4486  reserve0 */\n      0x02\n        /* \"contracts/token factory/LiquidityPool.sol\":4478:4500  reserve0 = newReserve0 */\n      dup2\n      swap1\n      sstore\n      pop\n        /* \"contracts/token factory/LiquidityPool.sol\":4522:4531  amountOut */\n      dup7\n        /* \"contracts/token factory/LiquidityPool.sol\":4510:4518  reserve1 */\n      0x03\n      0x00\n        /* \"contracts/token factory/LiquidityPool.sol\":4510:4531  reserve1 -= amountOut */\n      dup3\n      dup3\n      sload\n      tag_102\n      swap2\n      swap1\n      tag_83\n      jump\t// in\n    tag_102:\n      swap3\n      pop\n      pop\n      dup2\n      swap1\n      sstore\n      pop\n        /* \"contracts/token factory/LiquidityPool.sol\":4605:4611  token0 */\n      0x00\n      dup1\n      sload\n      swap1\n      0x0100\n      exp\n      swap1\n      div\n      0xffffffffffffffffffffffffffffffffffffffff\n      and\n        /* \"contracts/token factory/LiquidityPool.sol\":4598:4625  IERC20(token0).transferFrom */\n      0xffffffffffffffffffffffffffffffffffffffff\n      and\n      0x23b872dd\n        /* \"contracts/token factory/LiquidityPool.sol\":4626:4636  msg.sender */\n      caller\n        /* \"contracts/token factory/LiquidityPool.sol\":4646:4650  this */\n      address\n        /* \"contracts/token factory/LiquidityPool.sol\":4653:4661  amountIn */\n      dup12\n        /* \"contracts/token factory/LiquidityPool.sol\":4598:4662  IERC20(token0).transferFrom(msg.sender, address(this), amountIn) */\n      mload(0x40)\n      dup5\n      0xffffffff\n      and\n      0xe0\n      shl\n      dup2\n      mstore\n      0x04\n      add\n      tag_103\n      swap4\n      swap3\n      swap2\n      swap1\n      tag_104\n      jump\t// in\n    tag_103:\n      0x20\n      mload(0x40)\n      dup1\n      dup4\n      sub\n      dup2\n      0x00\n      dup8\n      gas\n      call\n      iszero\n      dup1\n      iszero\n      tag_106\n      jumpi\n      returndatasize\n      0x00\n      dup1\n      returndatacopy\n      revert(0x00, returndatasize)\n    tag_106:\n      pop\n      pop\n      pop\n      pop\n      mload(0x40)\n      returndatasize\n      not(0x1f)\n      0x1f\n      dup3\n      add\n      and\n      dup3\n      add\n      dup1\n      0x40\n      mstore\n      pop\n      dup2\n      add\n      swap1\n      tag_107\n      swap2\n      swap1\n      tag_97\n      jump\t// in\n    tag_107:\n      pop\n        /* \"contracts/token factory/LiquidityPool.sol\":4730:4742  bool success */\n      0x00\n        /* \"contracts/token factory/LiquidityPool.sol\":4748:4758  msg.sender */\n      caller\n        /* \"contracts/token factory/LiquidityPool.sol\":4748:4763  msg.sender.call */\n      0xffffffffffffffffffffffffffffffffffffffff\n      and\n        /* \"contracts/token factory/LiquidityPool.sol\":4771:4780  amountOut */\n      dup9\n        /* \"contracts/token factory/LiquidityPool.sol\":4748:4785  msg.sender.call{value: amountOut}(\"\") */\n      mload(0x40)\n      tag_108\n      swap1\n      tag_109\n      jump\t// in\n    tag_108:\n      0x00\n      mload(0x40)\n      dup1\n      dup4\n      sub\n      dup2\n      dup6\n      dup8\n      gas\n      call\n      swap3\n      pop\n      pop\n      pop\n      returndatasize\n      dup1\n      0x00\n      dup2\n      eq\n      tag_112\n      jumpi\n      mload(0x40)\n      swap2\n      pop\n      and(add(returndatasize, 0x3f), not(0x1f))\n      dup3\n      add\n      0x40\n      mstore\n      returndatasize\n      dup3\n      mstore\n      returndatasize\n      0x00\n      0x20\n      dup5\n      add\n      returndatacopy\n      jump(tag_111)\n    tag_112:\n      0x60\n      swap2\n      pop\n    tag_111:\n      pop\n        /* \"contracts/token factory/LiquidityPool.sol\":4729:4785  (bool success, ) = msg.sender.call{value: amountOut}(\"\") */\n      pop\n      swap1\n      pop\n        /* \"contracts/token factory/LiquidityPool.sol\":4803:4810  success */\n      dup1\n        /* \"contracts/token factory/LiquidityPool.sol\":4795:4836  require(success, \"Ether transfer failed\") */\n      tag_113\n      jumpi\n      mload(0x40)\n      0x08c379a000000000000000000000000000000000000000000000000000000000\n      dup2\n      mstore\n      0x04\n      add\n      tag_114\n      swap1\n      tag_115\n      jump\t// in\n    tag_114:\n      mload(0x40)\n      dup1\n      swap2\n      sub\n      swap1\n      revert\n    tag_113:\n        /* \"contracts/token factory/LiquidityPool.sol\":4873:4874  0 */\n      0x00\n        /* \"contracts/token factory/LiquidityPool.sol\":4852:4897  Swap(token0, address(0), amountIn, amountOut) */\n      0xffffffffffffffffffffffffffffffffffffffff\n      and\n        /* \"contracts/token factory/LiquidityPool.sol\":4857:4863  token0 */\n      0x00\n      dup1\n      sload\n      swap1\n      0x0100\n      exp\n      swap1\n      div\n      0xffffffffffffffffffffffffffffffffffffffff\n      and\n        /* \"contracts/token factory/LiquidityPool.sol\":4852:4897  Swap(token0, address(0), amountIn, amountOut) */\n      0xffffffffffffffffffffffffffffffffffffffff\n      and\n      0xfa2dda1cc1b86e41239702756b13effbc1a092b5c57e3ad320fbe4f3b13fe235\n        /* \"contracts/token factory/LiquidityPool.sol\":4877:4885  amountIn */\n      dup12\n        /* \"contracts/token factory/LiquidityPool.sol\":4887:4896  amountOut */\n      dup12\n        /* \"contracts/token factory/LiquidityPool.sol\":4852:4897  Swap(token0, address(0), amountIn, amountOut) */\n      mload(0x40)\n      tag_116\n      swap3\n      swap2\n      swap1\n      tag_44\n      jump\t// in\n    tag_116:\n      mload(0x40)\n      dup1\n      swap2\n      sub\n      swap1\n      log3\n        /* \"contracts/token factory/LiquidityPool.sol\":3301:4904  {... */\n      pop\n      pop\n      pop\n      pop\n      pop\n      pop\n      pop\n        /* \"contracts/token factory/LiquidityPool.sol\":3227:4904  function sellToken(uint256 amountIn) external returns (uint256 amountOut) {... */\n      swap2\n      swap1\n      pop\n      jump\t// out\n        /* \"contracts/token factory/LiquidityPool.sol\":497:522  address public devAddress */\n    tag_29:\n      0x05\n      0x00\n      swap1\n      sload\n      swap1\n      0x0100\n      exp\n      swap1\n      div\n      0xffffffffffffffffffffffffffffffffffffffff\n      and\n      dup2\n      jump\t// out\n        /* \"contracts/token factory/LiquidityPool.sol\":1934:2112  function updateTaxPercentage(uint256 newTaxPercentage) external onlyFactory {... */\n    tag_34:\n        /* \"contracts/token factory/LiquidityPool.sol\":715:727  tokenFactory */\n      0x01\n      0x00\n      swap1\n      sload\n      swap1\n      0x0100\n      exp\n      swap1\n      div\n      0xffffffffffffffffffffffffffffffffffffffff\n      and\n        /* \"contracts/token factory/LiquidityPool.sol\":701:727  msg.sender == tokenFactory */\n      0xffffffffffffffffffffffffffffffffffffffff\n      and\n        /* \"contracts/token factory/LiquidityPool.sol\":701:711  msg.sender */\n      caller\n        /* \"contracts/token factory/LiquidityPool.sol\":701:727  msg.sender == tokenFactory */\n      0xffffffffffffffffffffffffffffffffffffffff\n      and\n      eq\n        /* \"contracts/token factory/LiquidityPool.sol\":693:762  require(msg.sender == tokenFactory, \"Caller is not the TokenFactory\") */\n      tag_118\n      jumpi\n      mload(0x40)\n      0x08c379a000000000000000000000000000000000000000000000000000000000\n      dup2\n      mstore\n      0x04\n      add\n      tag_119\n      swap1\n      tag_120\n      jump\t// in\n    tag_119:\n      mload(0x40)\n      dup1\n      swap2\n      sub\n      swap1\n      revert\n    tag_118:\n        /* \"contracts/token factory/LiquidityPool.sol\":2036:2052  newTaxPercentage */\n      dup1\n        /* \"contracts/token factory/LiquidityPool.sol\":2020:2033  taxPercentage */\n      0x04\n        /* \"contracts/token factory/LiquidityPool.sol\":2020:2052  taxPercentage = newTaxPercentage */\n      dup2\n      swap1\n      sstore\n      pop\n        /* \"contracts/token factory/LiquidityPool.sol\":2067:2105  TaxPercentageUpdated(newTaxPercentage) */\n      0x7f54b0f873d8150d0613da0f8db3a0935c36fb63d4d2d75fa8cd08b4b1f33be1\n        /* \"contracts/token factory/LiquidityPool.sol\":2088:2104  newTaxPercentage */\n      dup2\n        /* \"contracts/token factory/LiquidityPool.sol\":2067:2105  TaxPercentageUpdated(newTaxPercentage) */\n      mload(0x40)\n      tag_122\n      swap2\n      swap1\n      tag_26\n      jump\t// in\n    tag_122:\n      mload(0x40)\n      dup1\n      swap2\n      sub\n      swap1\n      log1\n        /* \"contracts/token factory/LiquidityPool.sol\":1934:2112  function updateTaxPercentage(uint256 newTaxPercentage) external onlyFactory {... */\n      pop\n      jump\t// out\n        /* \"contracts/token factory/LiquidityPool.sol\":266:289  uint256 public reserve0 */\n    tag_37:\n      sload(0x02)\n      dup2\n      jump\t// out\n        /* \"contracts/token factory/LiquidityPool.sol\":4982:5569  function calculatePenalty(uint256 amountIn) public view returns (uint256 penaltyAmount, uint256 penaltyPercentage) {... */\n    tag_42:\n        /* \"contracts/token factory/LiquidityPool.sol\":5047:5068  uint256 penaltyAmount */\n      0x00\n        /* \"contracts/token factory/LiquidityPool.sol\":5070:5095  uint256 penaltyPercentage */\n      dup1\n        /* \"contracts/token factory/LiquidityPool.sol\":5107:5132  uint256 circulatingSupply */\n      0x00\n        /* \"contracts/token factory/LiquidityPool.sol\":5142:5148  token0 */\n      dup1\n      0x00\n      swap1\n      sload\n      swap1\n      0x0100\n      exp\n      swap1\n      div\n      0xffffffffffffffffffffffffffffffffffffffff\n      and\n        /* \"contracts/token factory/LiquidityPool.sol\":5135:5161  IERC20(token0).totalSupply */\n      0xffffffffffffffffffffffffffffffffffffffff\n      and\n      0x18160ddd\n        /* \"contracts/token factory/LiquidityPool.sol\":5135:5163  IERC20(token0).totalSupply() */\n      mload(0x40)\n      dup2\n      0xffffffff\n      and\n      0xe0\n      shl\n      dup2\n      mstore\n      0x04\n      add\n      0x20\n      mload(0x40)\n      dup1\n      dup4\n      sub\n      dup2\n      dup7\n      gas\n      staticcall\n      iszero\n      dup1\n      iszero\n      tag_125\n      jumpi\n      returndatasize\n      0x00\n      dup1\n      returndatacopy\n      revert(0x00, returndatasize)\n    tag_125:\n      pop\n      pop\n      pop\n      pop\n      mload(0x40)\n      returndatasize\n      not(0x1f)\n      0x1f\n      dup3\n      add\n      and\n      dup3\n      add\n      dup1\n      0x40\n      mstore\n      pop\n      dup2\n      add\n      swap1\n      tag_126\n      swap2\n      swap1\n      tag_75\n      jump\t// in\n    tag_126:\n        /* \"contracts/token factory/LiquidityPool.sol\":5107:5163  uint256 circulatingSupply = IERC20(token0).totalSupply() */\n      swap1\n      pop\n        /* \"contracts/token factory/LiquidityPool.sol\":5173:5195  uint256 sellPercentage */\n      0x00\n        /* \"contracts/token factory/LiquidityPool.sol\":5217:5234  circulatingSupply */\n      dup2\n        /* \"contracts/token factory/LiquidityPool.sol\":5210:5213  100 */\n      0x64\n        /* \"contracts/token factory/LiquidityPool.sol\":5199:5207  amountIn */\n      dup7\n        /* \"contracts/token factory/LiquidityPool.sol\":5199:5213  amountIn * 100 */\n      tag_127\n      swap2\n      swap1\n      tag_77\n      jump\t// in\n    tag_127:\n        /* \"contracts/token factory/LiquidityPool.sol\":5198:5234  (amountIn * 100) / circulatingSupply */\n      tag_128\n      swap2\n      swap1\n      tag_79\n      jump\t// in\n    tag_128:\n        /* \"contracts/token factory/LiquidityPool.sol\":5173:5234  uint256 sellPercentage = (amountIn * 100) / circulatingSupply */\n      swap1\n      pop\n        /* \"contracts/token factory/LiquidityPool.sol\":5266:5282  penaltyThreshold */\n      sload(0x06)\n        /* \"contracts/token factory/LiquidityPool.sol\":5249:5263  sellPercentage */\n      dup2\n        /* \"contracts/token factory/LiquidityPool.sol\":5249:5282  sellPercentage > penaltyThreshold */\n      gt\n        /* \"contracts/token factory/LiquidityPool.sol\":5245:5511  if (sellPercentage > penaltyThreshold) {... */\n      iszero\n      tag_129\n      jumpi\n        /* \"contracts/token factory/LiquidityPool.sol\":5335:5351  penaltyThreshold */\n      sload(0x06)\n        /* \"contracts/token factory/LiquidityPool.sol\":5318:5332  sellPercentage */\n      dup2\n        /* \"contracts/token factory/LiquidityPool.sol\":5318:5351  sellPercentage - penaltyThreshold */\n      tag_130\n      swap2\n      swap1\n      tag_83\n      jump\t// in\n    tag_130:\n        /* \"contracts/token factory/LiquidityPool.sol\":5298:5351  penaltyPercentage = sellPercentage - penaltyThreshold */\n      swap3\n      pop\n        /* \"contracts/token factory/LiquidityPool.sol\":5414:5417  100 */\n      0x64\n        /* \"contracts/token factory/LiquidityPool.sol\":5402:5410  amountIn */\n      dup6\n        /* \"contracts/token factory/LiquidityPool.sol\":5382:5399  penaltyPercentage */\n      dup5\n        /* \"contracts/token factory/LiquidityPool.sol\":5382:5410  penaltyPercentage * amountIn */\n      tag_131\n      swap2\n      swap1\n      tag_77\n      jump\t// in\n    tag_131:\n        /* \"contracts/token factory/LiquidityPool.sol\":5381:5417  (penaltyPercentage * amountIn) / 100 */\n      tag_132\n      swap2\n      swap1\n      tag_79\n      jump\t// in\n    tag_132:\n        /* \"contracts/token factory/LiquidityPool.sol\":5365:5417  penaltyAmount = (penaltyPercentage * amountIn) / 100 */\n      swap4\n      pop\n        /* \"contracts/token factory/LiquidityPool.sol\":5245:5511  if (sellPercentage > penaltyThreshold) {... */\n      jump(tag_133)\n    tag_129:\n        /* \"contracts/token factory/LiquidityPool.sol\":5464:5465  0 */\n      0x00\n        /* \"contracts/token factory/LiquidityPool.sol\":5448:5465  penaltyAmount = 0 */\n      swap4\n      pop\n        /* \"contracts/token factory/LiquidityPool.sol\":5499:5500  0 */\n      0x00\n        /* \"contracts/token factory/LiquidityPool.sol\":5479:5500  penaltyPercentage = 0 */\n      swap3\n      pop\n        /* \"contracts/token factory/LiquidityPool.sol\":5245:5511  if (sellPercentage > penaltyThreshold) {... */\n    tag_133:\n        /* \"contracts/token factory/LiquidityPool.sol\":5521:5562  return (penaltyAmount, penaltyPercentage) */\n      pop\n      pop\n        /* \"contracts/token factory/LiquidityPool.sol\":4982:5569  function calculatePenalty(uint256 amountIn) public view returns (uint256 penaltyAmount, uint256 penaltyPercentage) {... */\n      swap2\n      pop\n      swap2\n      jump\t// out\n        /* \"contracts/token factory/LiquidityPool.sol\":323:346  uint256 public reserve1 */\n    tag_47:\n      sload(0x03)\n      dup2\n      jump\t// out\n        /* \"contracts/token factory/LiquidityPool.sol\":2174:3132  function buyToken() external payable returns (uint256 amountOut) {... */\n    tag_50:\n        /* \"contracts/token factory/LiquidityPool.sol\":2220:2237  uint256 amountOut */\n      0x00\n        /* \"contracts/token factory/LiquidityPool.sol\":2269:2270  0 */\n      dup1\n        /* \"contracts/token factory/LiquidityPool.sol\":2257:2266  msg.value */\n      callvalue\n        /* \"contracts/token factory/LiquidityPool.sol\":2257:2270  msg.value > 0 */\n      gt\n        /* \"contracts/token factory/LiquidityPool.sol\":2249:2304  require(msg.value > 0, \"Must send Ether to buy tokens\") */\n      tag_135\n      jumpi\n      mload(0x40)\n      0x08c379a000000000000000000000000000000000000000000000000000000000\n      dup2\n      mstore\n      0x04\n      add\n      tag_136\n      swap1\n      tag_137\n      jump\t// in\n    tag_136:\n      mload(0x40)\n      dup1\n      swap2\n      sub\n      swap1\n      revert\n    tag_135:\n        /* \"contracts/token factory/LiquidityPool.sol\":2370:2381  uint256 tax */\n      0x00\n        /* \"contracts/token factory/LiquidityPool.sol\":2414:2417  100 */\n      0x64\n        /* \"contracts/token factory/LiquidityPool.sol\":2397:2410  taxPercentage */\n      sload(0x04)\n        /* \"contracts/token factory/LiquidityPool.sol\":2385:2394  msg.value */\n      callvalue\n        /* \"contracts/token factory/LiquidityPool.sol\":2385:2410  msg.value * taxPercentage */\n      tag_138\n      swap2\n      swap1\n      tag_77\n      jump\t// in\n    tag_138:\n        /* \"contracts/token factory/LiquidityPool.sol\":2384:2417  (msg.value * taxPercentage) / 100 */\n      tag_139\n      swap2\n      swap1\n      tag_79\n      jump\t// in\n    tag_139:\n        /* \"contracts/token factory/LiquidityPool.sol\":2370:2417  uint256 tax = (msg.value * taxPercentage) / 100 */\n      swap1\n      pop\n        /* \"contracts/token factory/LiquidityPool.sol\":2427:2451  uint256 amountInAfterTax */\n      0x00\n        /* \"contracts/token factory/LiquidityPool.sol\":2466:2469  tax */\n      dup2\n        /* \"contracts/token factory/LiquidityPool.sol\":2454:2463  msg.value */\n      callvalue\n        /* \"contracts/token factory/LiquidityPool.sol\":2454:2469  msg.value - tax */\n      tag_140\n      swap2\n      swap1\n      tag_83\n      jump\t// in\n    tag_140:\n        /* \"contracts/token factory/LiquidityPool.sol\":2427:2469  uint256 amountInAfterTax = msg.value - tax */\n      swap1\n      pop\n        /* \"contracts/token factory/LiquidityPool.sol\":2539:2551  bool taxSent */\n      0x00\n        /* \"contracts/token factory/LiquidityPool.sol\":2557:2567  devAddress */\n      0x05\n      0x00\n      swap1\n      sload\n      swap1\n      0x0100\n      exp\n      swap1\n      div\n      0xffffffffffffffffffffffffffffffffffffffff\n      and\n        /* \"contracts/token factory/LiquidityPool.sol\":2557:2572  devAddress.call */\n      0xffffffffffffffffffffffffffffffffffffffff\n      and\n        /* \"contracts/token factory/LiquidityPool.sol\":2580:2583  tax */\n      dup4\n        /* \"contracts/token factory/LiquidityPool.sol\":2557:2588  devAddress.call{value: tax}(\"\") */\n      mload(0x40)\n      tag_141\n      swap1\n      tag_109\n      jump\t// in\n    tag_141:\n      0x00\n      mload(0x40)\n      dup1\n      dup4\n      sub\n      dup2\n      dup6\n      dup8\n      gas\n      call\n      swap3\n      pop\n      pop\n      pop\n      returndatasize\n      dup1\n      0x00\n      dup2\n      eq\n      tag_144\n      jumpi\n      mload(0x40)\n      swap2\n      pop\n      and(add(returndatasize, 0x3f), not(0x1f))\n      dup3\n      add\n      0x40\n      mstore\n      returndatasize\n      dup3\n      mstore\n      returndatasize\n      0x00\n      0x20\n      dup5\n      add\n      returndatacopy\n      jump(tag_143)\n    tag_144:\n      0x60\n      swap2\n      pop\n    tag_143:\n      pop\n        /* \"contracts/token factory/LiquidityPool.sol\":2538:2588  (bool taxSent, ) = devAddress.call{value: tax}(\"\") */\n      pop\n      swap1\n      pop\n        /* \"contracts/token factory/LiquidityPool.sol\":2606:2613  taxSent */\n      dup1\n        /* \"contracts/token factory/LiquidityPool.sol\":2598:2651  require(taxSent, \"Failed to send tax to dev address\") */\n      tag_145\n      jumpi\n      mload(0x40)\n      0x08c379a000000000000000000000000000000000000000000000000000000000\n      dup2\n      mstore\n      0x04\n      add\n      tag_146\n      swap1\n      tag_147\n      jump\t// in\n    tag_146:\n      mload(0x40)\n      dup1\n      swap2\n      sub\n      swap1\n      revert\n    tag_145:\n        /* \"contracts/token factory/LiquidityPool.sol\":2739:2758  uint256 newReserve1 */\n      0x00\n        /* \"contracts/token factory/LiquidityPool.sol\":2772:2788  amountInAfterTax */\n      dup3\n        /* \"contracts/token factory/LiquidityPool.sol\":2761:2769  reserve1 */\n      sload(0x03)\n        /* \"contracts/token factory/LiquidityPool.sol\":2761:2788  reserve1 + amountInAfterTax */\n      tag_148\n      swap2\n      swap1\n      tag_90\n      jump\t// in\n    tag_148:\n        /* \"contracts/token factory/LiquidityPool.sol\":2739:2788  uint256 newReserve1 = reserve1 + amountInAfterTax */\n      swap1\n      pop\n        /* \"contracts/token factory/LiquidityPool.sol\":2845:2856  newReserve1 */\n      dup1\n        /* \"contracts/token factory/LiquidityPool.sol\":2833:2841  reserve1 */\n      sload(0x03)\n        /* \"contracts/token factory/LiquidityPool.sol\":2822:2830  reserve0 */\n      sload(0x02)\n        /* \"contracts/token factory/LiquidityPool.sol\":2822:2841  reserve0 * reserve1 */\n      tag_149\n      swap2\n      swap1\n      tag_77\n      jump\t// in\n    tag_149:\n        /* \"contracts/token factory/LiquidityPool.sol\":2821:2856  (reserve0 * reserve1) / newReserve1 */\n      tag_150\n      swap2\n      swap1\n      tag_79\n      jump\t// in\n    tag_150:\n        /* \"contracts/token factory/LiquidityPool.sol\":2810:2818  reserve0 */\n      sload(0x02)\n        /* \"contracts/token factory/LiquidityPool.sol\":2810:2856  reserve0 - (reserve0 * reserve1) / newReserve1 */\n      tag_151\n      swap2\n      swap1\n      tag_83\n      jump\t// in\n    tag_151:\n        /* \"contracts/token factory/LiquidityPool.sol\":2798:2856  amountOut = reserve0 - (reserve0 * reserve1) / newReserve1 */\n      swap5\n      pop\n        /* \"contracts/token factory/LiquidityPool.sol\":2916:2927  newReserve1 */\n      dup1\n        /* \"contracts/token factory/LiquidityPool.sol\":2905:2913  reserve1 */\n      0x03\n        /* \"contracts/token factory/LiquidityPool.sol\":2905:2927  reserve1 = newReserve1 */\n      dup2\n      swap1\n      sstore\n      pop\n        /* \"contracts/token factory/LiquidityPool.sol\":2949:2958  amountOut */\n      dup5\n        /* \"contracts/token factory/LiquidityPool.sol\":2937:2945  reserve0 */\n      0x02\n      0x00\n        /* \"contracts/token factory/LiquidityPool.sol\":2937:2958  reserve0 -= amountOut */\n      dup3\n      dup3\n      sload\n      tag_152\n      swap2\n      swap1\n      tag_83\n      jump\t// in\n    tag_152:\n      swap3\n      pop\n      pop\n      dup2\n      swap1\n      sstore\n      pop\n        /* \"contracts/token factory/LiquidityPool.sol\":3024:3030  token0 */\n      0x00\n      dup1\n      sload\n      swap1\n      0x0100\n      exp\n      swap1\n      div\n      0xffffffffffffffffffffffffffffffffffffffff\n      and\n        /* \"contracts/token factory/LiquidityPool.sol\":3017:3040  IERC20(token0).transfer */\n      0xffffffffffffffffffffffffffffffffffffffff\n      and\n      0xa9059cbb\n        /* \"contracts/token factory/LiquidityPool.sol\":3041:3051  msg.sender */\n      caller\n        /* \"contracts/token factory/LiquidityPool.sol\":3053:3062  amountOut */\n      dup8\n        /* \"contracts/token factory/LiquidityPool.sol\":3017:3063  IERC20(token0).transfer(msg.sender, amountOut) */\n      mload(0x40)\n      dup4\n      0xffffffff\n      and\n      0xe0\n      shl\n      dup2\n      mstore\n      0x04\n      add\n      tag_153\n      swap3\n      swap2\n      swap1\n      tag_93\n      jump\t// in\n    tag_153:\n      0x20\n      mload(0x40)\n      dup1\n      dup4\n      sub\n      dup2\n      0x00\n      dup8\n      gas\n      call\n      iszero\n      dup1\n      iszero\n      tag_155\n      jumpi\n      returndatasize\n      0x00\n      dup1\n      returndatacopy\n      revert(0x00, returndatasize)\n    tag_155:\n      pop\n      pop\n      pop\n      pop\n      mload(0x40)\n      returndatasize\n      not(0x1f)\n      0x1f\n      dup3\n      add\n      and\n      dup3\n      add\n      dup1\n      0x40\n      mstore\n      pop\n      dup2\n      add\n      swap1\n      tag_156\n      swap2\n      swap1\n      tag_97\n      jump\t// in\n    tag_156:\n      pop\n        /* \"contracts/token factory/LiquidityPool.sol\":3096:3102  token0 */\n      0x00\n      dup1\n      sload\n      swap1\n      0x0100\n      exp\n      swap1\n      div\n      0xffffffffffffffffffffffffffffffffffffffff\n      and\n        /* \"contracts/token factory/LiquidityPool.sol\":3079:3125  Swap(address(0), token0, msg.value, amountOut) */\n      0xffffffffffffffffffffffffffffffffffffffff\n      and\n        /* \"contracts/token factory/LiquidityPool.sol\":3092:3093  0 */\n      0x00\n        /* \"contracts/token factory/LiquidityPool.sol\":3079:3125  Swap(address(0), token0, msg.value, amountOut) */\n      0xffffffffffffffffffffffffffffffffffffffff\n      and\n      0xfa2dda1cc1b86e41239702756b13effbc1a092b5c57e3ad320fbe4f3b13fe235\n        /* \"contracts/token factory/LiquidityPool.sol\":3104:3113  msg.value */\n      callvalue\n        /* \"contracts/token factory/LiquidityPool.sol\":3115:3124  amountOut */\n      dup9\n        /* \"contracts/token factory/LiquidityPool.sol\":3079:3125  Swap(address(0), token0, msg.value, amountOut) */\n      mload(0x40)\n      tag_157\n      swap3\n      swap2\n      swap1\n      tag_44\n      jump\t// in\n    tag_157:\n      mload(0x40)\n      dup1\n      swap2\n      sub\n      swap1\n      log3\n        /* \"contracts/token factory/LiquidityPool.sol\":2239:3132  {... */\n      pop\n      pop\n      pop\n      pop\n        /* \"contracts/token factory/LiquidityPool.sol\":2174:3132  function buyToken() external payable returns (uint256 amountOut) {... */\n      swap1\n      jump\t// out\n        /* \"contracts/token factory/LiquidityPool.sol\":412:440  uint256 public taxPercentage */\n    tag_54:\n      sload(0x04)\n      dup2\n      jump\t// out\n        /* \"contracts/token factory/LiquidityPool.sol\":572:608  uint256 public penaltyThreshold = 20 */\n    tag_58:\n      sload(0x06)\n      dup2\n      jump\t// out\n        /* \"contracts/token factory/LiquidityPool.sol\":198:225  address public tokenFactory */\n    tag_62:\n      0x01\n      0x00\n      swap1\n      sload\n      swap1\n      0x0100\n      exp\n      swap1\n      div\n      0xffffffffffffffffffffffffffffffffffffffff\n      and\n      dup2\n      jump\t// out\n        /* \"contracts/token factory/LiquidityPool.sol\":1308:1928  function initialize(... */\n    tag_67:\n        /* \"contracts/token factory/LiquidityPool.sol\":1513:1514  0 */\n      0x00\n        /* \"contracts/token factory/LiquidityPool.sol\":1495:1515  token0 == address(0) */\n      0xffffffffffffffffffffffffffffffffffffffff\n      and\n        /* \"contracts/token factory/LiquidityPool.sol\":1495:1501  token0 */\n      0x00\n      dup1\n      sload\n      swap1\n      0x0100\n      exp\n      swap1\n      div\n      0xffffffffffffffffffffffffffffffffffffffff\n      and\n        /* \"contracts/token factory/LiquidityPool.sol\":1495:1515  token0 == address(0) */\n      0xffffffffffffffffffffffffffffffffffffffff\n      and\n      eq\n        /* \"contracts/token factory/LiquidityPool.sol\":1487:1544  require(token0 == address(0), \"Pool already initialized\") */\n      tag_159\n      jumpi\n      mload(0x40)\n      0x08c379a000000000000000000000000000000000000000000000000000000000\n      dup2\n      mstore\n      0x04\n      add\n      tag_160\n      swap1\n      tag_161\n      jump\t// in\n    tag_160:\n      mload(0x40)\n      dup1\n      swap2\n      sub\n      swap1\n      revert\n    tag_159:\n        /* \"contracts/token factory/LiquidityPool.sol\":1610:1611  0 */\n      0x00\n        /* \"contracts/token factory/LiquidityPool.sol\":1598:1607  msg.value */\n      callvalue\n        /* \"contracts/token factory/LiquidityPool.sol\":1598:1611  msg.value > 0 */\n      gt\n        /* \"contracts/token factory/LiquidityPool.sol\":1590:1669  require(msg.value > 0, \"Initial native token amount must be greater than zero\") */\n      tag_162\n      jumpi\n      mload(0x40)\n      0x08c379a000000000000000000000000000000000000000000000000000000000\n      dup2\n      mstore\n      0x04\n      add\n      tag_163\n      swap1\n      tag_164\n      jump\t// in\n    tag_163:\n      mload(0x40)\n      dup1\n      swap2\n      sub\n      swap1\n      revert\n    tag_162:\n        /* \"contracts/token factory/LiquidityPool.sol\":1689:1696  _token0 */\n      dup4\n        /* \"contracts/token factory/LiquidityPool.sol\":1680:1686  token0 */\n      0x00\n      dup1\n        /* \"contracts/token factory/LiquidityPool.sol\":1680:1696  token0 = _token0 */\n      0x0100\n      exp\n      dup2\n      sload\n      dup2\n      0xffffffffffffffffffffffffffffffffffffffff\n      mul\n      not\n      and\n      swap1\n      dup4\n      0xffffffffffffffffffffffffffffffffffffffff\n      and\n      mul\n      or\n      swap1\n      sstore\n      pop\n        /* \"contracts/token factory/LiquidityPool.sol\":1721:1734  _tokenFactory */\n      dup3\n        /* \"contracts/token factory/LiquidityPool.sol\":1706:1718  tokenFactory */\n      0x01\n      0x00\n        /* \"contracts/token factory/LiquidityPool.sol\":1706:1734  tokenFactory = _tokenFactory */\n      0x0100\n      exp\n      dup2\n      sload\n      dup2\n      0xffffffffffffffffffffffffffffffffffffffff\n      mul\n      not\n      and\n      swap1\n      dup4\n      0xffffffffffffffffffffffffffffffffffffffff\n      and\n      mul\n      or\n      swap1\n      sstore\n      pop\n        /* \"contracts/token factory/LiquidityPool.sol\":1760:1774  _taxPercentage */\n      dup1\n        /* \"contracts/token factory/LiquidityPool.sol\":1744:1757  taxPercentage */\n      0x04\n        /* \"contracts/token factory/LiquidityPool.sol\":1744:1774  taxPercentage = _taxPercentage */\n      dup2\n      swap1\n      sstore\n      pop\n        /* \"contracts/token factory/LiquidityPool.sol\":1796:1816  _initialTokenReserve */\n      dup2\n        /* \"contracts/token factory/LiquidityPool.sol\":1785:1793  reserve0 */\n      0x02\n        /* \"contracts/token factory/LiquidityPool.sol\":1785:1816  reserve0 = _initialTokenReserve */\n      dup2\n      swap1\n      sstore\n      pop\n        /* \"contracts/token factory/LiquidityPool.sol\":1837:1846  msg.value */\n      callvalue\n        /* \"contracts/token factory/LiquidityPool.sol\":1826:1834  reserve1 */\n      0x03\n        /* \"contracts/token factory/LiquidityPool.sol\":1826:1846  reserve1 = msg.value */\n      dup2\n      swap1\n      sstore\n      pop\n        /* \"contracts/token factory/LiquidityPool.sol\":1877:1887  msg.sender */\n      caller\n        /* \"contracts/token factory/LiquidityPool.sol\":1862:1921  LiquidityAdded(msg.sender, _initialTokenReserve, msg.value) */\n      0xffffffffffffffffffffffffffffffffffffffff\n      and\n      0xac1d76749e5447b7b16f5ab61447e1bd502f3bb4807af3b28e620d1700a6ee45\n        /* \"contracts/token factory/LiquidityPool.sol\":1889:1909  _initialTokenReserve */\n      dup4\n        /* \"contracts/token factory/LiquidityPool.sol\":1911:1920  msg.value */\n      callvalue\n        /* \"contracts/token factory/LiquidityPool.sol\":1862:1921  LiquidityAdded(msg.sender, _initialTokenReserve, msg.value) */\n      mload(0x40)\n      tag_165\n      swap3\n      swap2\n      swap1\n      tag_44\n      jump\t// in\n    tag_165:\n      mload(0x40)\n      dup1\n      swap2\n      sub\n      swap1\n      log2\n        /* \"contracts/token factory/LiquidityPool.sol\":1308:1928  function initialize(... */\n      pop\n      pop\n      pop\n      pop\n      jump\t// out\n        /* \"#utility.yul\":7:133   */\n    tag_166:\n        /* \"#utility.yul\":44:51   */\n      0x00\n        /* \"#utility.yul\":84:126   */\n      0xffffffffffffffffffffffffffffffffffffffff\n        /* \"#utility.yul\":77:82   */\n      dup3\n        /* \"#utility.yul\":73:127   */\n      and\n        /* \"#utility.yul\":62:127   */\n      swap1\n      pop\n        /* \"#utility.yul\":7:133   */\n      swap2\n      swap1\n      pop\n      jump\t// out\n        /* \"#utility.yul\":139:235   */\n    tag_167:\n        /* \"#utility.yul\":176:183   */\n      0x00\n        /* \"#utility.yul\":205:229   */\n      tag_205\n        /* \"#utility.yul\":223:228   */\n      dup3\n        /* \"#utility.yul\":205:229   */\n      tag_166\n      jump\t// in\n    tag_205:\n        /* \"#utility.yul\":194:229   */\n      swap1\n      pop\n        /* \"#utility.yul\":139:235   */\n      swap2\n      swap1\n      pop\n      jump\t// out\n        /* \"#utility.yul\":241:359   */\n    tag_168:\n        /* \"#utility.yul\":328:352   */\n      tag_207\n        /* \"#utility.yul\":346:351   */\n      dup2\n        /* \"#utility.yul\":328:352   */\n      tag_167\n      jump\t// in\n    tag_207:\n        /* \"#utility.yul\":323:326   */\n      dup3\n        /* \"#utility.yul\":316:353   */\n      mstore\n        /* \"#utility.yul\":241:359   */\n      pop\n      pop\n      jump\t// out\n        /* \"#utility.yul\":365:587   */\n    tag_19:\n        /* \"#utility.yul\":458:462   */\n      0x00\n        /* \"#utility.yul\":496:498   */\n      0x20\n        /* \"#utility.yul\":485:494   */\n      dup3\n        /* \"#utility.yul\":481:499   */\n      add\n        /* \"#utility.yul\":473:499   */\n      swap1\n      pop\n        /* \"#utility.yul\":509:580   */\n      tag_209\n        /* \"#utility.yul\":577:578   */\n      0x00\n        /* \"#utility.yul\":566:575   */\n      dup4\n        /* \"#utility.yul\":562:579   */\n      add\n        /* \"#utility.yul\":553:559   */\n      dup5\n        /* \"#utility.yul\":509:580   */\n      tag_168\n      jump\t// in\n    tag_209:\n        /* \"#utility.yul\":365:587   */\n      swap3\n      swap2\n      pop\n      pop\n      jump\t// out\n        /* \"#utility.yul\":674:791   */\n    tag_170:\n        /* \"#utility.yul\":783:784   */\n      0x00\n        /* \"#utility.yul\":780:781   */\n      dup1\n        /* \"#utility.yul\":773:785   */\n      revert\n        /* \"#utility.yul\":920:997   */\n    tag_172:\n        /* \"#utility.yul\":957:964   */\n      0x00\n        /* \"#utility.yul\":986:991   */\n      dup2\n        /* \"#utility.yul\":975:991   */\n      swap1\n      pop\n        /* \"#utility.yul\":920:997   */\n      swap2\n      swap1\n      pop\n      jump\t// out\n        /* \"#utility.yul\":1003:1125   */\n    tag_173:\n        /* \"#utility.yul\":1076:1100   */\n      tag_215\n        /* \"#utility.yul\":1094:1099   */\n      dup2\n        /* \"#utility.yul\":1076:1100   */\n      tag_172\n      jump\t// in\n    tag_215:\n        /* \"#utility.yul\":1069:1074   */\n      dup2\n        /* \"#utility.yul\":1066:1101   */\n      eq\n        /* \"#utility.yul\":1056:1119   */\n      tag_216\n      jumpi\n        /* \"#utility.yul\":1115:1116   */\n      0x00\n        /* \"#utility.yul\":1112:1113   */\n      dup1\n        /* \"#utility.yul\":1105:1117   */\n      revert\n        /* \"#utility.yul\":1056:1119   */\n    tag_216:\n        /* \"#utility.yul\":1003:1125   */\n      pop\n      jump\t// out\n        /* \"#utility.yul\":1131:1270   */\n    tag_174:\n        /* \"#utility.yul\":1177:1182   */\n      0x00\n        /* \"#utility.yul\":1215:1221   */\n      dup2\n        /* \"#utility.yul\":1202:1222   */\n      calldataload\n        /* \"#utility.yul\":1193:1222   */\n      swap1\n      pop\n        /* \"#utility.yul\":1231:1264   */\n      tag_218\n        /* \"#utility.yul\":1258:1263   */\n      dup2\n        /* \"#utility.yul\":1231:1264   */\n      tag_173\n      jump\t// in\n    tag_218:\n        /* \"#utility.yul\":1131:1270   */\n      swap3\n      swap2\n      pop\n      pop\n      jump\t// out\n        /* \"#utility.yul\":1276:1605   */\n    tag_23:\n        /* \"#utility.yul\":1335:1341   */\n      0x00\n        /* \"#utility.yul\":1384:1386   */\n      0x20\n        /* \"#utility.yul\":1372:1381   */\n      dup3\n        /* \"#utility.yul\":1363:1370   */\n      dup5\n        /* \"#utility.yul\":1359:1382   */\n      sub\n        /* \"#utility.yul\":1355:1387   */\n      slt\n        /* \"#utility.yul\":1352:1471   */\n      iszero\n      tag_220\n      jumpi\n        /* \"#utility.yul\":1390:1469   */\n      tag_221\n      tag_170\n      jump\t// in\n    tag_221:\n        /* \"#utility.yul\":1352:1471   */\n    tag_220:\n        /* \"#utility.yul\":1510:1511   */\n      0x00\n        /* \"#utility.yul\":1535:1588   */\n      tag_222\n        /* \"#utility.yul\":1580:1587   */\n      dup5\n        /* \"#utility.yul\":1571:1577   */\n      dup3\n        /* \"#utility.yul\":1560:1569   */\n      dup6\n        /* \"#utility.yul\":1556:1578   */\n      add\n        /* \"#utility.yul\":1535:1588   */\n      tag_174\n      jump\t// in\n    tag_222:\n        /* \"#utility.yul\":1525:1588   */\n      swap2\n      pop\n        /* \"#utility.yul\":1481:1598   */\n      pop\n        /* \"#utility.yul\":1276:1605   */\n      swap3\n      swap2\n      pop\n      pop\n      jump\t// out\n        /* \"#utility.yul\":1611:1729   */\n    tag_175:\n        /* \"#utility.yul\":1698:1722   */\n      tag_224\n        /* \"#utility.yul\":1716:1721   */\n      dup2\n        /* \"#utility.yul\":1698:1722   */\n      tag_172\n      jump\t// in\n    tag_224:\n        /* \"#utility.yul\":1693:1696   */\n      dup3\n        /* \"#utility.yul\":1686:1723   */\n      mstore\n        /* \"#utility.yul\":1611:1729   */\n      pop\n      pop\n      jump\t// out\n        /* \"#utility.yul\":1735:1957   */\n    tag_26:\n        /* \"#utility.yul\":1828:1832   */\n      0x00\n        /* \"#utility.yul\":1866:1868   */\n      0x20\n        /* \"#utility.yul\":1855:1864   */\n      dup3\n        /* \"#utility.yul\":1851:1869   */\n      add\n        /* \"#utility.yul\":1843:1869   */\n      swap1\n      pop\n        /* \"#utility.yul\":1879:1950   */\n      tag_226\n        /* \"#utility.yul\":1947:1948   */\n      0x00\n        /* \"#utility.yul\":1936:1945   */\n      dup4\n        /* \"#utility.yul\":1932:1949   */\n      add\n        /* \"#utility.yul\":1923:1929   */\n      dup5\n        /* \"#utility.yul\":1879:1950   */\n      tag_175\n      jump\t// in\n    tag_226:\n        /* \"#utility.yul\":1735:1957   */\n      swap3\n      swap2\n      pop\n      pop\n      jump\t// out\n        /* \"#utility.yul\":1963:2295   */\n    tag_44:\n        /* \"#utility.yul\":2084:2088   */\n      0x00\n        /* \"#utility.yul\":2122:2124   */\n      0x40\n        /* \"#utility.yul\":2111:2120   */\n      dup3\n        /* \"#utility.yul\":2107:2125   */\n      add\n        /* \"#utility.yul\":2099:2125   */\n      swap1\n      pop\n        /* \"#utility.yul\":2135:2206   */\n      tag_228\n        /* \"#utility.yul\":2203:2204   */\n      0x00\n        /* \"#utility.yul\":2192:2201   */\n      dup4\n        /* \"#utility.yul\":2188:2205   */\n      add\n        /* \"#utility.yul\":2179:2185   */\n      dup6\n        /* \"#utility.yul\":2135:2206   */\n      tag_175\n      jump\t// in\n    tag_228:\n        /* \"#utility.yul\":2216:2288   */\n      tag_229\n        /* \"#utility.yul\":2284:2286   */\n      0x20\n        /* \"#utility.yul\":2273:2282   */\n      dup4\n        /* \"#utility.yul\":2269:2287   */\n      add\n        /* \"#utility.yul\":2260:2266   */\n      dup5\n        /* \"#utility.yul\":2216:2288   */\n      tag_175\n      jump\t// in\n    tag_229:\n        /* \"#utility.yul\":1963:2295   */\n      swap4\n      swap3\n      pop\n      pop\n      pop\n      jump\t// out\n        /* \"#utility.yul\":2301:2423   */\n    tag_176:\n        /* \"#utility.yul\":2374:2398   */\n      tag_231\n        /* \"#utility.yul\":2392:2397   */\n      dup2\n        /* \"#utility.yul\":2374:2398   */\n      tag_167\n      jump\t// in\n    tag_231:\n        /* \"#utility.yul\":2367:2372   */\n      dup2\n        /* \"#utility.yul\":2364:2399   */\n      eq\n        /* \"#utility.yul\":2354:2417   */\n      tag_232\n      jumpi\n        /* \"#utility.yul\":2413:2414   */\n      0x00\n        /* \"#utility.yul\":2410:2411   */\n      dup1\n        /* \"#utility.yul\":2403:2415   */\n      revert\n        /* \"#utility.yul\":2354:2417   */\n    tag_232:\n        /* \"#utility.yul\":2301:2423   */\n      pop\n      jump\t// out\n        /* \"#utility.yul\":2429:2568   */\n    tag_177:\n        /* \"#utility.yul\":2475:2480   */\n      0x00\n        /* \"#utility.yul\":2513:2519   */\n      dup2\n        /* \"#utility.yul\":2500:2520   */\n      calldataload\n        /* \"#utility.yul\":2491:2520   */\n      swap1\n      pop\n        /* \"#utility.yul\":2529:2562   */\n      tag_234\n        /* \"#utility.yul\":2556:2561   */\n      dup2\n        /* \"#utility.yul\":2529:2562   */\n      tag_176\n      jump\t// in\n    tag_234:\n        /* \"#utility.yul\":2429:2568   */\n      swap3\n      swap2\n      pop\n      pop\n      jump\t// out\n        /* \"#utility.yul\":2574:3339   */\n    tag_66:\n        /* \"#utility.yul\":2660:2666   */\n      0x00\n        /* \"#utility.yul\":2668:2674   */\n      dup1\n        /* \"#utility.yul\":2676:2682   */\n      0x00\n        /* \"#utility.yul\":2684:2690   */\n      dup1\n        /* \"#utility.yul\":2733:2736   */\n      0x80\n        /* \"#utility.yul\":2721:2730   */\n      dup6\n        /* \"#utility.yul\":2712:2719   */\n      dup8\n        /* \"#utility.yul\":2708:2731   */\n      sub\n        /* \"#utility.yul\":2704:2737   */\n      slt\n        /* \"#utility.yul\":2701:2821   */\n      iszero\n      tag_236\n      jumpi\n        /* \"#utility.yul\":2740:2819   */\n      tag_237\n      tag_170\n      jump\t// in\n    tag_237:\n        /* \"#utility.yul\":2701:2821   */\n    tag_236:\n        /* \"#utility.yul\":2860:2861   */\n      0x00\n        /* \"#utility.yul\":2885:2938   */\n      tag_238\n        /* \"#utility.yul\":2930:2937   */\n      dup8\n        /* \"#utility.yul\":2921:2927   */\n      dup3\n        /* \"#utility.yul\":2910:2919   */\n      dup9\n        /* \"#utility.yul\":2906:2928   */\n      add\n        /* \"#utility.yul\":2885:2938   */\n      tag_177\n      jump\t// in\n    tag_238:\n        /* \"#utility.yul\":2875:2938   */\n      swap5\n      pop\n        /* \"#utility.yul\":2831:2948   */\n      pop\n        /* \"#utility.yul\":2987:2989   */\n      0x20\n        /* \"#utility.yul\":3013:3066   */\n      tag_239\n        /* \"#utility.yul\":3058:3065   */\n      dup8\n        /* \"#utility.yul\":3049:3055   */\n      dup3\n        /* \"#utility.yul\":3038:3047   */\n      dup9\n        /* \"#utility.yul\":3034:3056   */\n      add\n        /* \"#utility.yul\":3013:3066   */\n      tag_177\n      jump\t// in\n    tag_239:\n        /* \"#utility.yul\":3003:3066   */\n      swap4\n      pop\n        /* \"#utility.yul\":2958:3076   */\n      pop\n        /* \"#utility.yul\":3115:3117   */\n      0x40\n        /* \"#utility.yul\":3141:3194   */\n      tag_240\n        /* \"#utility.yul\":3186:3193   */\n      dup8\n        /* \"#utility.yul\":3177:3183   */\n      dup3\n        /* \"#utility.yul\":3166:3175   */\n      dup9\n        /* \"#utility.yul\":3162:3184   */\n      add\n        /* \"#utility.yul\":3141:3194   */\n      tag_174\n      jump\t// in\n    tag_240:\n        /* \"#utility.yul\":3131:3194   */\n      swap3\n      pop\n        /* \"#utility.yul\":3086:3204   */\n      pop\n        /* \"#utility.yul\":3243:3245   */\n      0x60\n        /* \"#utility.yul\":3269:3322   */\n      tag_241\n        /* \"#utility.yul\":3314:3321   */\n      dup8\n        /* \"#utility.yul\":3305:3311   */\n      dup3\n        /* \"#utility.yul\":3294:3303   */\n      dup9\n        /* \"#utility.yul\":3290:3312   */\n      add\n        /* \"#utility.yul\":3269:3322   */\n      tag_174\n      jump\t// in\n    tag_241:\n        /* \"#utility.yul\":3259:3322   */\n      swap2\n      pop\n        /* \"#utility.yul\":3214:3332   */\n      pop\n        /* \"#utility.yul\":2574:3339   */\n      swap3\n      swap6\n      swap2\n      swap5\n      pop\n      swap3\n      pop\n      jump\t// out\n        /* \"#utility.yul\":3345:3514   */\n    tag_178:\n        /* \"#utility.yul\":3429:3440   */\n      0x00\n        /* \"#utility.yul\":3463:3469   */\n      dup3\n        /* \"#utility.yul\":3458:3461   */\n      dup3\n        /* \"#utility.yul\":3451:3470   */\n      mstore\n        /* \"#utility.yul\":3503:3507   */\n      0x20\n        /* \"#utility.yul\":3498:3501   */\n      dup3\n        /* \"#utility.yul\":3494:3508   */\n      add\n        /* \"#utility.yul\":3479:3508   */\n      swap1\n      pop\n        /* \"#utility.yul\":3345:3514   */\n      swap3\n      swap2\n      pop\n      pop\n      jump\t// out\n        /* \"#utility.yul\":3520:3691   */\n    tag_179:\n        /* \"#utility.yul\":3660:3683   */\n      0x4d7573742073656c6c20736f6d6520746f6b656e730000000000000000000000\n        /* \"#utility.yul\":3656:3657   */\n      0x00\n        /* \"#utility.yul\":3648:3654   */\n      dup3\n        /* \"#utility.yul\":3644:3658   */\n      add\n        /* \"#utility.yul\":3637:3684   */\n      mstore\n        /* \"#utility.yul\":3520:3691   */\n      pop\n      jump\t// out\n        /* \"#utility.yul\":3697:4063   */\n    tag_180:\n        /* \"#utility.yul\":3839:3842   */\n      0x00\n        /* \"#utility.yul\":3860:3927   */\n      tag_245\n        /* \"#utility.yul\":3924:3926   */\n      0x15\n        /* \"#utility.yul\":3919:3922   */\n      dup4\n        /* \"#utility.yul\":3860:3927   */\n      tag_178\n      jump\t// in\n    tag_245:\n        /* \"#utility.yul\":3853:3927   */\n      swap2\n      pop\n        /* \"#utility.yul\":3936:4029   */\n      tag_246\n        /* \"#utility.yul\":4025:4028   */\n      dup3\n        /* \"#utility.yul\":3936:4029   */\n      tag_179\n      jump\t// in\n    tag_246:\n        /* \"#utility.yul\":4054:4056   */\n      0x20\n        /* \"#utility.yul\":4049:4052   */\n      dup3\n        /* \"#utility.yul\":4045:4057   */\n      add\n        /* \"#utility.yul\":4038:4057   */\n      swap1\n      pop\n        /* \"#utility.yul\":3697:4063   */\n      swap2\n      swap1\n      pop\n      jump\t// out\n        /* \"#utility.yul\":4069:4488   */\n    tag_71:\n        /* \"#utility.yul\":4235:4239   */\n      0x00\n        /* \"#utility.yul\":4273:4275   */\n      0x20\n        /* \"#utility.yul\":4262:4271   */\n      dup3\n        /* \"#utility.yul\":4258:4276   */\n      add\n        /* \"#utility.yul\":4250:4276   */\n      swap1\n      pop\n        /* \"#utility.yul\":4322:4331   */\n      dup2\n        /* \"#utility.yul\":4316:4320   */\n      dup2\n        /* \"#utility.yul\":4312:4332   */\n      sub\n        /* \"#utility.yul\":4308:4309   */\n      0x00\n        /* \"#utility.yul\":4297:4306   */\n      dup4\n        /* \"#utility.yul\":4293:4310   */\n      add\n        /* \"#utility.yul\":4286:4333   */\n      mstore\n        /* \"#utility.yul\":4350:4481   */\n      tag_248\n        /* \"#utility.yul\":4476:4480   */\n      dup2\n        /* \"#utility.yul\":4350:4481   */\n      tag_180\n      jump\t// in\n    tag_248:\n        /* \"#utility.yul\":4342:4481   */\n      swap1\n      pop\n        /* \"#utility.yul\":4069:4488   */\n      swap2\n      swap1\n      pop\n      jump\t// out\n        /* \"#utility.yul\":4494:4637   */\n    tag_181:\n        /* \"#utility.yul\":4551:4556   */\n      0x00\n        /* \"#utility.yul\":4582:4588   */\n      dup2\n        /* \"#utility.yul\":4576:4589   */\n      mload\n        /* \"#utility.yul\":4567:4589   */\n      swap1\n      pop\n        /* \"#utility.yul\":4598:4631   */\n      tag_250\n        /* \"#utility.yul\":4625:4630   */\n      dup2\n        /* \"#utility.yul\":4598:4631   */\n      tag_173\n      jump\t// in\n    tag_250:\n        /* \"#utility.yul\":4494:4637   */\n      swap3\n      swap2\n      pop\n      pop\n      jump\t// out\n        /* \"#utility.yul\":4643:4994   */\n    tag_75:\n        /* \"#utility.yul\":4713:4719   */\n      0x00\n        /* \"#utility.yul\":4762:4764   */\n      0x20\n        /* \"#utility.yul\":4750:4759   */\n      dup3\n        /* \"#utility.yul\":4741:4748   */\n      dup5\n        /* \"#utility.yul\":4737:4760   */\n      sub\n        /* \"#utility.yul\":4733:4765   */\n      slt\n        /* \"#utility.yul\":4730:4849   */\n      iszero\n      tag_252\n      jumpi\n        /* \"#utility.yul\":4768:4847   */\n      tag_253\n      tag_170\n      jump\t// in\n    tag_253:\n        /* \"#utility.yul\":4730:4849   */\n    tag_252:\n        /* \"#utility.yul\":4888:4889   */\n      0x00\n        /* \"#utility.yul\":4913:4977   */\n      tag_254\n        /* \"#utility.yul\":4969:4976   */\n      dup5\n        /* \"#utility.yul\":4960:4966   */\n      dup3\n        /* \"#utility.yul\":4949:4958   */\n      dup6\n        /* \"#utility.yul\":4945:4967   */\n      add\n        /* \"#utility.yul\":4913:4977   */\n      tag_181\n      jump\t// in\n    tag_254:\n        /* \"#utility.yul\":4903:4977   */\n      swap2\n      pop\n        /* \"#utility.yul\":4859:4987   */\n      pop\n        /* \"#utility.yul\":4643:4994   */\n      swap3\n      swap2\n      pop\n      pop\n      jump\t// out\n        /* \"#utility.yul\":5000:5180   */\n    tag_182:\n        /* \"#utility.yul\":5048:5125   */\n      0x4e487b7100000000000000000000000000000000000000000000000000000000\n        /* \"#utility.yul\":5045:5046   */\n      0x00\n        /* \"#utility.yul\":5038:5126   */\n      mstore\n        /* \"#utility.yul\":5145:5149   */\n      0x11\n        /* \"#utility.yul\":5142:5143   */\n      0x04\n        /* \"#utility.yul\":5135:5150   */\n      mstore\n        /* \"#utility.yul\":5169:5173   */\n      0x24\n        /* \"#utility.yul\":5166:5167   */\n      0x00\n        /* \"#utility.yul\":5159:5174   */\n      revert\n        /* \"#utility.yul\":5186:5596   */\n    tag_77:\n        /* \"#utility.yul\":5226:5233   */\n      0x00\n        /* \"#utility.yul\":5249:5269   */\n      tag_257\n        /* \"#utility.yul\":5267:5268   */\n      dup3\n        /* \"#utility.yul\":5249:5269   */\n      tag_172\n      jump\t// in\n    tag_257:\n        /* \"#utility.yul\":5244:5269   */\n      swap2\n      pop\n        /* \"#utility.yul\":5283:5303   */\n      tag_258\n        /* \"#utility.yul\":5301:5302   */\n      dup4\n        /* \"#utility.yul\":5283:5303   */\n      tag_172\n      jump\t// in\n    tag_258:\n        /* \"#utility.yul\":5278:5303   */\n      swap3\n      pop\n        /* \"#utility.yul\":5338:5339   */\n      dup3\n        /* \"#utility.yul\":5335:5336   */\n      dup3\n        /* \"#utility.yul\":5331:5340   */\n      mul\n        /* \"#utility.yul\":5360:5390   */\n      tag_259\n        /* \"#utility.yul\":5378:5389   */\n      dup2\n        /* \"#utility.yul\":5360:5390   */\n      tag_172\n      jump\t// in\n    tag_259:\n        /* \"#utility.yul\":5349:5390   */\n      swap2\n      pop\n        /* \"#utility.yul\":5539:5540   */\n      dup3\n        /* \"#utility.yul\":5530:5537   */\n      dup3\n        /* \"#utility.yul\":5526:5541   */\n      div\n        /* \"#utility.yul\":5523:5524   */\n      dup5\n        /* \"#utility.yul\":5520:5542   */\n      eq\n        /* \"#utility.yul\":5500:5501   */\n      dup4\n        /* \"#utility.yul\":5493:5502   */\n      iszero\n        /* \"#utility.yul\":5473:5556   */\n      or\n        /* \"#utility.yul\":5450:5589   */\n      tag_260\n      jumpi\n        /* \"#utility.yul\":5569:5587   */\n      tag_261\n      tag_182\n      jump\t// in\n    tag_261:\n        /* \"#utility.yul\":5450:5589   */\n    tag_260:\n        /* \"#utility.yul\":5234:5596   */\n      pop\n        /* \"#utility.yul\":5186:5596   */\n      swap3\n      swap2\n      pop\n      pop\n      jump\t// out\n        /* \"#utility.yul\":5602:5782   */\n    tag_183:\n        /* \"#utility.yul\":5650:5727   */\n      0x4e487b7100000000000000000000000000000000000000000000000000000000\n        /* \"#utility.yul\":5647:5648   */\n      0x00\n        /* \"#utility.yul\":5640:5728   */\n      mstore\n        /* \"#utility.yul\":5747:5751   */\n      0x12\n        /* \"#utility.yul\":5744:5745   */\n      0x04\n        /* \"#utility.yul\":5737:5752   */\n      mstore\n        /* \"#utility.yul\":5771:5775   */\n      0x24\n        /* \"#utility.yul\":5768:5769   */\n      0x00\n        /* \"#utility.yul\":5761:5776   */\n      revert\n        /* \"#utility.yul\":5788:5973   */\n    tag_79:\n        /* \"#utility.yul\":5828:5829   */\n      0x00\n        /* \"#utility.yul\":5845:5865   */\n      tag_264\n        /* \"#utility.yul\":5863:5864   */\n      dup3\n        /* \"#utility.yul\":5845:5865   */\n      tag_172\n      jump\t// in\n    tag_264:\n        /* \"#utility.yul\":5840:5865   */\n      swap2\n      pop\n        /* \"#utility.yul\":5879:5899   */\n      tag_265\n        /* \"#utility.yul\":5897:5898   */\n      dup4\n        /* \"#utility.yul\":5879:5899   */\n      tag_172\n      jump\t// in\n    tag_265:\n        /* \"#utility.yul\":5874:5899   */\n      swap3\n      pop\n        /* \"#utility.yul\":5918:5919   */\n      dup3\n        /* \"#utility.yul\":5908:5943   */\n      tag_266\n      jumpi\n        /* \"#utility.yul\":5923:5941   */\n      tag_267\n      tag_183\n      jump\t// in\n    tag_267:\n        /* \"#utility.yul\":5908:5943   */\n    tag_266:\n        /* \"#utility.yul\":5965:5966   */\n      dup3\n        /* \"#utility.yul\":5962:5963   */\n      dup3\n        /* \"#utility.yul\":5958:5967   */\n      div\n        /* \"#utility.yul\":5953:5967   */\n      swap1\n      pop\n        /* \"#utility.yul\":5788:5973   */\n      swap3\n      swap2\n      pop\n      pop\n      jump\t// out\n        /* \"#utility.yul\":5979:6173   */\n    tag_83:\n        /* \"#utility.yul\":6019:6023   */\n      0x00\n        /* \"#utility.yul\":6039:6059   */\n      tag_269\n        /* \"#utility.yul\":6057:6058   */\n      dup3\n        /* \"#utility.yul\":6039:6059   */\n      tag_172\n      jump\t// in\n    tag_269:\n        /* \"#utility.yul\":6034:6059   */\n      swap2\n      pop\n        /* \"#utility.yul\":6073:6093   */\n      tag_270\n        /* \"#utility.yul\":6091:6092   */\n      dup4\n        /* \"#utility.yul\":6073:6093   */\n      tag_172\n      jump\t// in\n    tag_270:\n        /* \"#utility.yul\":6068:6093   */\n      swap3\n      pop\n        /* \"#utility.yul\":6117:6118   */\n      dup3\n        /* \"#utility.yul\":6114:6115   */\n      dup3\n        /* \"#utility.yul\":6110:6119   */\n      sub\n        /* \"#utility.yul\":6102:6119   */\n      swap1\n      pop\n        /* \"#utility.yul\":6141:6142   */\n      dup2\n        /* \"#utility.yul\":6135:6139   */\n      dup2\n        /* \"#utility.yul\":6132:6143   */\n      gt\n        /* \"#utility.yul\":6129:6166   */\n      iszero\n      tag_271\n      jumpi\n        /* \"#utility.yul\":6146:6164   */\n      tag_272\n      tag_182\n      jump\t// in\n    tag_272:\n        /* \"#utility.yul\":6129:6166   */\n    tag_271:\n        /* \"#utility.yul\":5979:6173   */\n      swap3\n      swap2\n      pop\n      pop\n      jump\t// out\n        /* \"#utility.yul\":6179:6370   */\n    tag_90:\n        /* \"#utility.yul\":6219:6222   */\n      0x00\n        /* \"#utility.yul\":6238:6258   */\n      tag_274\n        /* \"#utility.yul\":6256:6257   */\n      dup3\n        /* \"#utility.yul\":6238:6258   */\n      tag_172\n      jump\t// in\n    tag_274:\n        /* \"#utility.yul\":6233:6258   */\n      swap2\n      pop\n        /* \"#utility.yul\":6272:6292   */\n      tag_275\n        /* \"#utility.yul\":6290:6291   */\n      dup4\n        /* \"#utility.yul\":6272:6292   */\n      tag_172\n      jump\t// in\n    tag_275:\n        /* \"#utility.yul\":6267:6292   */\n      swap3\n      pop\n        /* \"#utility.yul\":6315:6316   */\n      dup3\n        /* \"#utility.yul\":6312:6313   */\n      dup3\n        /* \"#utility.yul\":6308:6317   */\n      add\n        /* \"#utility.yul\":6301:6317   */\n      swap1\n      pop\n        /* \"#utility.yul\":6336:6339   */\n      dup1\n        /* \"#utility.yul\":6333:6334   */\n      dup3\n        /* \"#utility.yul\":6330:6340   */\n      gt\n        /* \"#utility.yul\":6327:6363   */\n      iszero\n      tag_276\n      jumpi\n        /* \"#utility.yul\":6343:6361   */\n      tag_277\n      tag_182\n      jump\t// in\n    tag_277:\n        /* \"#utility.yul\":6327:6363   */\n    tag_276:\n        /* \"#utility.yul\":6179:6370   */\n      swap3\n      swap2\n      pop\n      pop\n      jump\t// out\n        /* \"#utility.yul\":6376:6708   */\n    tag_93:\n        /* \"#utility.yul\":6497:6501   */\n      0x00\n        /* \"#utility.yul\":6535:6537   */\n      0x40\n        /* \"#utility.yul\":6524:6533   */\n      dup3\n        /* \"#utility.yul\":6520:6538   */\n      add\n        /* \"#utility.yul\":6512:6538   */\n      swap1\n      pop\n        /* \"#utility.yul\":6548:6619   */\n      tag_279\n        /* \"#utility.yul\":6616:6617   */\n      0x00\n        /* \"#utility.yul\":6605:6614   */\n      dup4\n        /* \"#utility.yul\":6601:6618   */\n      add\n        /* \"#utility.yul\":6592:6598   */\n      dup6\n        /* \"#utility.yul\":6548:6619   */\n      tag_168\n      jump\t// in\n    tag_279:\n        /* \"#utility.yul\":6629:6701   */\n      tag_280\n        /* \"#utility.yul\":6697:6699   */\n      0x20\n        /* \"#utility.yul\":6686:6695   */\n      dup4\n        /* \"#utility.yul\":6682:6700   */\n      add\n        /* \"#utility.yul\":6673:6679   */\n      dup5\n        /* \"#utility.yul\":6629:6701   */\n      tag_175\n      jump\t// in\n    tag_280:\n        /* \"#utility.yul\":6376:6708   */\n      swap4\n      swap3\n      pop\n      pop\n      pop\n      jump\t// out\n        /* \"#utility.yul\":6714:6804   */\n    tag_184:\n        /* \"#utility.yul\":6748:6755   */\n      0x00\n        /* \"#utility.yul\":6791:6796   */\n      dup2\n        /* \"#utility.yul\":6784:6797   */\n      iszero\n        /* \"#utility.yul\":6777:6798   */\n      iszero\n        /* \"#utility.yul\":6766:6798   */\n      swap1\n      pop\n        /* \"#utility.yul\":6714:6804   */\n      swap2\n      swap1\n      pop\n      jump\t// out\n        /* \"#utility.yul\":6810:6926   */\n    tag_185:\n        /* \"#utility.yul\":6880:6901   */\n      tag_283\n        /* \"#utility.yul\":6895:6900   */\n      dup2\n        /* \"#utility.yul\":6880:6901   */\n      tag_184\n      jump\t// in\n    tag_283:\n        /* \"#utility.yul\":6873:6878   */\n      dup2\n        /* \"#utility.yul\":6870:6902   */\n      eq\n        /* \"#utility.yul\":6860:6920   */\n      tag_284\n      jumpi\n        /* \"#utility.yul\":6916:6917   */\n      0x00\n        /* \"#utility.yul\":6913:6914   */\n      dup1\n        /* \"#utility.yul\":6906:6918   */\n      revert\n        /* \"#utility.yul\":6860:6920   */\n    tag_284:\n        /* \"#utility.yul\":6810:6926   */\n      pop\n      jump\t// out\n        /* \"#utility.yul\":6932:7069   */\n    tag_186:\n        /* \"#utility.yul\":6986:6991   */\n      0x00\n        /* \"#utility.yul\":7017:7023   */\n      dup2\n        /* \"#utility.yul\":7011:7024   */\n      mload\n        /* \"#utility.yul\":7002:7024   */\n      swap1\n      pop\n        /* \"#utility.yul\":7033:7063   */\n      tag_286\n        /* \"#utility.yul\":7057:7062   */\n      dup2\n        /* \"#utility.yul\":7033:7063   */\n      tag_185\n      jump\t// in\n    tag_286:\n        /* \"#utility.yul\":6932:7069   */\n      swap3\n      swap2\n      pop\n      pop\n      jump\t// out\n        /* \"#utility.yul\":7075:7420   */\n    tag_97:\n        /* \"#utility.yul\":7142:7148   */\n      0x00\n        /* \"#utility.yul\":7191:7193   */\n      0x20\n        /* \"#utility.yul\":7179:7188   */\n      dup3\n        /* \"#utility.yul\":7170:7177   */\n      dup5\n        /* \"#utility.yul\":7166:7189   */\n      sub\n        /* \"#utility.yul\":7162:7194   */\n      slt\n        /* \"#utility.yul\":7159:7278   */\n      iszero\n      tag_288\n      jumpi\n        /* \"#utility.yul\":7197:7276   */\n      tag_289\n      tag_170\n      jump\t// in\n    tag_289:\n        /* \"#utility.yul\":7159:7278   */\n    tag_288:\n        /* \"#utility.yul\":7317:7318   */\n      0x00\n        /* \"#utility.yul\":7342:7403   */\n      tag_290\n        /* \"#utility.yul\":7395:7402   */\n      dup5\n        /* \"#utility.yul\":7386:7392   */\n      dup3\n        /* \"#utility.yul\":7375:7384   */\n      dup6\n        /* \"#utility.yul\":7371:7393   */\n      add\n        /* \"#utility.yul\":7342:7403   */\n      tag_186\n      jump\t// in\n    tag_290:\n        /* \"#utility.yul\":7332:7403   */\n      swap2\n      pop\n        /* \"#utility.yul\":7288:7413   */\n      pop\n        /* \"#utility.yul\":7075:7420   */\n      swap3\n      swap2\n      pop\n      pop\n      jump\t// out\n        /* \"#utility.yul\":7426:7868   */\n    tag_104:\n        /* \"#utility.yul\":7575:7579   */\n      0x00\n        /* \"#utility.yul\":7613:7615   */\n      0x60\n        /* \"#utility.yul\":7602:7611   */\n      dup3\n        /* \"#utility.yul\":7598:7616   */\n      add\n        /* \"#utility.yul\":7590:7616   */\n      swap1\n      pop\n        /* \"#utility.yul\":7626:7697   */\n      tag_292\n        /* \"#utility.yul\":7694:7695   */\n      0x00\n        /* \"#utility.yul\":7683:7692   */\n      dup4\n        /* \"#utility.yul\":7679:7696   */\n      add\n        /* \"#utility.yul\":7670:7676   */\n      dup7\n        /* \"#utility.yul\":7626:7697   */\n      tag_168\n      jump\t// in\n    tag_292:\n        /* \"#utility.yul\":7707:7779   */\n      tag_293\n        /* \"#utility.yul\":7775:7777   */\n      0x20\n        /* \"#utility.yul\":7764:7773   */\n      dup4\n        /* \"#utility.yul\":7760:7778   */\n      add\n        /* \"#utility.yul\":7751:7757   */\n      dup6\n        /* \"#utility.yul\":7707:7779   */\n      tag_168\n      jump\t// in\n    tag_293:\n        /* \"#utility.yul\":7789:7861   */\n      tag_294\n        /* \"#utility.yul\":7857:7859   */\n      0x40\n        /* \"#utility.yul\":7846:7855   */\n      dup4\n        /* \"#utility.yul\":7842:7860   */\n      add\n        /* \"#utility.yul\":7833:7839   */\n      dup5\n        /* \"#utility.yul\":7789:7861   */\n      tag_175\n      jump\t// in\n    tag_294:\n        /* \"#utility.yul\":7426:7868   */\n      swap5\n      swap4\n      pop\n      pop\n      pop\n      pop\n      jump\t// out\n        /* \"#utility.yul\":7874:8021   */\n    tag_187:\n        /* \"#utility.yul\":7975:7986   */\n      0x00\n        /* \"#utility.yul\":8012:8015   */\n      dup2\n        /* \"#utility.yul\":7997:8015   */\n      swap1\n      pop\n        /* \"#utility.yul\":7874:8021   */\n      swap3\n      swap2\n      pop\n      pop\n      jump\t// out\n        /* \"#utility.yul\":8027:8141   */\n    tag_188:\n      pop\n      jump\t// out\n        /* \"#utility.yul\":8147:8545   */\n    tag_189:\n        /* \"#utility.yul\":8306:8309   */\n      0x00\n        /* \"#utility.yul\":8327:8410   */\n      tag_298\n        /* \"#utility.yul\":8408:8409   */\n      0x00\n        /* \"#utility.yul\":8403:8406   */\n      dup4\n        /* \"#utility.yul\":8327:8410   */\n      tag_187\n      jump\t// in\n    tag_298:\n        /* \"#utility.yul\":8320:8410   */\n      swap2\n      pop\n        /* \"#utility.yul\":8419:8512   */\n      tag_299\n        /* \"#utility.yul\":8508:8511   */\n      dup3\n        /* \"#utility.yul\":8419:8512   */\n      tag_188\n      jump\t// in\n    tag_299:\n        /* \"#utility.yul\":8537:8538   */\n      0x00\n        /* \"#utility.yul\":8532:8535   */\n      dup3\n        /* \"#utility.yul\":8528:8539   */\n      add\n        /* \"#utility.yul\":8521:8539   */\n      swap1\n      pop\n        /* \"#utility.yul\":8147:8545   */\n      swap2\n      swap1\n      pop\n      jump\t// out\n        /* \"#utility.yul\":8551:8930   */\n    tag_109:\n        /* \"#utility.yul\":8735:8738   */\n      0x00\n        /* \"#utility.yul\":8757:8904   */\n      tag_301\n        /* \"#utility.yul\":8900:8903   */\n      dup3\n        /* \"#utility.yul\":8757:8904   */\n      tag_189\n      jump\t// in\n    tag_301:\n        /* \"#utility.yul\":8750:8904   */\n      swap2\n      pop\n        /* \"#utility.yul\":8921:8924   */\n      dup2\n        /* \"#utility.yul\":8914:8924   */\n      swap1\n      pop\n        /* \"#utility.yul\":8551:8930   */\n      swap2\n      swap1\n      pop\n      jump\t// out\n        /* \"#utility.yul\":8936:9107   */\n    tag_190:\n        /* \"#utility.yul\":9076:9099   */\n      0x4574686572207472616e73666572206661696c65640000000000000000000000\n        /* \"#utility.yul\":9072:9073   */\n      0x00\n        /* \"#utility.yul\":9064:9070   */\n      dup3\n        /* \"#utility.yul\":9060:9074   */\n      add\n        /* \"#utility.yul\":9053:9100   */\n      mstore\n        /* \"#utility.yul\":8936:9107   */\n      pop\n      jump\t// out\n        /* \"#utility.yul\":9113:9479   */\n    tag_191:\n        /* \"#utility.yul\":9255:9258   */\n      0x00\n        /* \"#utility.yul\":9276:9343   */\n      tag_304\n        /* \"#utility.yul\":9340:9342   */\n      0x15\n        /* \"#utility.yul\":9335:9338   */\n      dup4\n        /* \"#utility.yul\":9276:9343   */\n      tag_178\n      jump\t// in\n    tag_304:\n        /* \"#utility.yul\":9269:9343   */\n      swap2\n      pop\n        /* \"#utility.yul\":9352:9445   */\n      tag_305\n        /* \"#utility.yul\":9441:9444   */\n      dup3\n        /* \"#utility.yul\":9352:9445   */\n      tag_190\n      jump\t// in\n    tag_305:\n        /* \"#utility.yul\":9470:9472   */\n      0x20\n        /* \"#utility.yul\":9465:9468   */\n      dup3\n        /* \"#utility.yul\":9461:9473   */\n      add\n        /* \"#utility.yul\":9454:9473   */\n      swap1\n      pop\n        /* \"#utility.yul\":9113:9479   */\n      swap2\n      swap1\n      pop\n      jump\t// out\n        /* \"#utility.yul\":9485:9904   */\n    tag_115:\n        /* \"#utility.yul\":9651:9655   */\n      0x00\n        /* \"#utility.yul\":9689:9691   */\n      0x20\n        /* \"#utility.yul\":9678:9687   */\n      dup3\n        /* \"#utility.yul\":9674:9692   */\n      add\n        /* \"#utility.yul\":9666:9692   */\n      swap1\n      pop\n        /* \"#utility.yul\":9738:9747   */\n      dup2\n        /* \"#utility.yul\":9732:9736   */\n      dup2\n        /* \"#utility.yul\":9728:9748   */\n      sub\n        /* \"#utility.yul\":9724:9725   */\n      0x00\n        /* \"#utility.yul\":9713:9722   */\n      dup4\n        /* \"#utility.yul\":9709:9726   */\n      add\n        /* \"#utility.yul\":9702:9749   */\n      mstore\n        /* \"#utility.yul\":9766:9897   */\n      tag_307\n        /* \"#utility.yul\":9892:9896   */\n      dup2\n        /* \"#utility.yul\":9766:9897   */\n      tag_191\n      jump\t// in\n    tag_307:\n        /* \"#utility.yul\":9758:9897   */\n      swap1\n      pop\n        /* \"#utility.yul\":9485:9904   */\n      swap2\n      swap1\n      pop\n      jump\t// out\n        /* \"#utility.yul\":9910:10090   */\n    tag_192:\n        /* \"#utility.yul\":10050:10082   */\n      0x43616c6c6572206973206e6f742074686520546f6b656e466163746f72790000\n        /* \"#utility.yul\":10046:10047   */\n      0x00\n        /* \"#utility.yul\":10038:10044   */\n      dup3\n        /* \"#utility.yul\":10034:10048   */\n      add\n        /* \"#utility.yul\":10027:10083   */\n      mstore\n        /* \"#utility.yul\":9910:10090   */\n      pop\n      jump\t// out\n        /* \"#utility.yul\":10096:10462   */\n    tag_193:\n        /* \"#utility.yul\":10238:10241   */\n      0x00\n        /* \"#utility.yul\":10259:10326   */\n      tag_310\n        /* \"#utility.yul\":10323:10325   */\n      0x1e\n        /* \"#utility.yul\":10318:10321   */\n      dup4\n        /* \"#utility.yul\":10259:10326   */\n      tag_178\n      jump\t// in\n    tag_310:\n        /* \"#utility.yul\":10252:10326   */\n      swap2\n      pop\n        /* \"#utility.yul\":10335:10428   */\n      tag_311\n        /* \"#utility.yul\":10424:10427   */\n      dup3\n        /* \"#utility.yul\":10335:10428   */\n      tag_192\n      jump\t// in\n    tag_311:\n        /* \"#utility.yul\":10453:10455   */\n      0x20\n        /* \"#utility.yul\":10448:10451   */\n      dup3\n        /* \"#utility.yul\":10444:10456   */\n      add\n        /* \"#utility.yul\":10437:10456   */\n      swap1\n      pop\n        /* \"#utility.yul\":10096:10462   */\n      swap2\n      swap1\n      pop\n      jump\t// out\n        /* \"#utility.yul\":10468:10887   */\n    tag_120:\n        /* \"#utility.yul\":10634:10638   */\n      0x00\n        /* \"#utility.yul\":10672:10674   */\n      0x20\n        /* \"#utility.yul\":10661:10670   */\n      dup3\n        /* \"#utility.yul\":10657:10675   */\n      add\n        /* \"#utility.yul\":10649:10675   */\n      swap1\n      pop\n        /* \"#utility.yul\":10721:10730   */\n      dup2\n        /* \"#utility.yul\":10715:10719   */\n      dup2\n        /* \"#utility.yul\":10711:10731   */\n      sub\n        /* \"#utility.yul\":10707:10708   */\n      0x00\n        /* \"#utility.yul\":10696:10705   */\n      dup4\n        /* \"#utility.yul\":10692:10709   */\n      add\n        /* \"#utility.yul\":10685:10732   */\n      mstore\n        /* \"#utility.yul\":10749:10880   */\n      tag_313\n        /* \"#utility.yul\":10875:10879   */\n      dup2\n        /* \"#utility.yul\":10749:10880   */\n      tag_193\n      jump\t// in\n    tag_313:\n        /* \"#utility.yul\":10741:10880   */\n      swap1\n      pop\n        /* \"#utility.yul\":10468:10887   */\n      swap2\n      swap1\n      pop\n      jump\t// out\n        /* \"#utility.yul\":10893:11072   */\n    tag_194:\n        /* \"#utility.yul\":11033:11064   */\n      0x4d7573742073656e6420457468657220746f2062757920746f6b656e73000000\n        /* \"#utility.yul\":11029:11030   */\n      0x00\n        /* \"#utility.yul\":11021:11027   */\n      dup3\n        /* \"#utility.yul\":11017:11031   */\n      add\n        /* \"#utility.yul\":11010:11065   */\n      mstore\n        /* \"#utility.yul\":10893:11072   */\n      pop\n      jump\t// out\n        /* \"#utility.yul\":11078:11444   */\n    tag_195:\n        /* \"#utility.yul\":11220:11223   */\n      0x00\n        /* \"#utility.yul\":11241:11308   */\n      tag_316\n        /* \"#utility.yul\":11305:11307   */\n      0x1d\n        /* \"#utility.yul\":11300:11303   */\n      dup4\n        /* \"#utility.yul\":11241:11308   */\n      tag_178\n      jump\t// in\n    tag_316:\n        /* \"#utility.yul\":11234:11308   */\n      swap2\n      pop\n        /* \"#utility.yul\":11317:11410   */\n      tag_317\n        /* \"#utility.yul\":11406:11409   */\n      dup3\n        /* \"#utility.yul\":11317:11410   */\n      tag_194\n      jump\t// in\n    tag_317:\n        /* \"#utility.yul\":11435:11437   */\n      0x20\n        /* \"#utility.yul\":11430:11433   */\n      dup3\n        /* \"#utility.yul\":11426:11438   */\n      add\n        /* \"#utility.yul\":11419:11438   */\n      swap1\n      pop\n        /* \"#utility.yul\":11078:11444   */\n      swap2\n      swap1\n      pop\n      jump\t// out\n        /* \"#utility.yul\":11450:11869   */\n    tag_137:\n        /* \"#utility.yul\":11616:11620   */\n      0x00\n        /* \"#utility.yul\":11654:11656   */\n      0x20\n        /* \"#utility.yul\":11643:11652   */\n      dup3\n        /* \"#utility.yul\":11639:11657   */\n      add\n        /* \"#utility.yul\":11631:11657   */\n      swap1\n      pop\n        /* \"#utility.yul\":11703:11712   */\n      dup2\n        /* \"#utility.yul\":11697:11701   */\n      dup2\n        /* \"#utility.yul\":11693:11713   */\n      sub\n        /* \"#utility.yul\":11689:11690   */\n      0x00\n        /* \"#utility.yul\":11678:11687   */\n      dup4\n        /* \"#utility.yul\":11674:11691   */\n      add\n        /* \"#utility.yul\":11667:11714   */\n      mstore\n        /* \"#utility.yul\":11731:11862   */\n      tag_319\n        /* \"#utility.yul\":11857:11861   */\n      dup2\n        /* \"#utility.yul\":11731:11862   */\n      tag_195\n      jump\t// in\n    tag_319:\n        /* \"#utility.yul\":11723:11862   */\n      swap1\n      pop\n        /* \"#utility.yul\":11450:11869   */\n      swap2\n      swap1\n      pop\n      jump\t// out\n        /* \"#utility.yul\":11875:12095   */\n    tag_196:\n        /* \"#utility.yul\":12015:12049   */\n      0x4661696c656420746f2073656e642074617820746f2064657620616464726573\n        /* \"#utility.yul\":12011:12012   */\n      0x00\n        /* \"#utility.yul\":12003:12009   */\n      dup3\n        /* \"#utility.yul\":11999:12013   */\n      add\n        /* \"#utility.yul\":11992:12050   */\n      mstore\n        /* \"#utility.yul\":12084:12087   */\n      0x7300000000000000000000000000000000000000000000000000000000000000\n        /* \"#utility.yul\":12079:12081   */\n      0x20\n        /* \"#utility.yul\":12071:12077   */\n      dup3\n        /* \"#utility.yul\":12067:12082   */\n      add\n        /* \"#utility.yul\":12060:12088   */\n      mstore\n        /* \"#utility.yul\":11875:12095   */\n      pop\n      jump\t// out\n        /* \"#utility.yul\":12101:12467   */\n    tag_197:\n        /* \"#utility.yul\":12243:12246   */\n      0x00\n        /* \"#utility.yul\":12264:12331   */\n      tag_322\n        /* \"#utility.yul\":12328:12330   */\n      0x21\n        /* \"#utility.yul\":12323:12326   */\n      dup4\n        /* \"#utility.yul\":12264:12331   */\n      tag_178\n      jump\t// in\n    tag_322:\n        /* \"#utility.yul\":12257:12331   */\n      swap2\n      pop\n        /* \"#utility.yul\":12340:12433   */\n      tag_323\n        /* \"#utility.yul\":12429:12432   */\n      dup3\n        /* \"#utility.yul\":12340:12433   */\n      tag_196\n      jump\t// in\n    tag_323:\n        /* \"#utility.yul\":12458:12460   */\n      0x40\n        /* \"#utility.yul\":12453:12456   */\n      dup3\n        /* \"#utility.yul\":12449:12461   */\n      add\n        /* \"#utility.yul\":12442:12461   */\n      swap1\n      pop\n        /* \"#utility.yul\":12101:12467   */\n      swap2\n      swap1\n      pop\n      jump\t// out\n        /* \"#utility.yul\":12473:12892   */\n    tag_147:\n        /* \"#utility.yul\":12639:12643   */\n      0x00\n        /* \"#utility.yul\":12677:12679   */\n      0x20\n        /* \"#utility.yul\":12666:12675   */\n      dup3\n        /* \"#utility.yul\":12662:12680   */\n      add\n        /* \"#utility.yul\":12654:12680   */\n      swap1\n      pop\n        /* \"#utility.yul\":12726:12735   */\n      dup2\n        /* \"#utility.yul\":12720:12724   */\n      dup2\n        /* \"#utility.yul\":12716:12736   */\n      sub\n        /* \"#utility.yul\":12712:12713   */\n      0x00\n        /* \"#utility.yul\":12701:12710   */\n      dup4\n        /* \"#utility.yul\":12697:12714   */\n      add\n        /* \"#utility.yul\":12690:12737   */\n      mstore\n        /* \"#utility.yul\":12754:12885   */\n      tag_325\n        /* \"#utility.yul\":12880:12884   */\n      dup2\n        /* \"#utility.yul\":12754:12885   */\n      tag_197\n      jump\t// in\n    tag_325:\n        /* \"#utility.yul\":12746:12885   */\n      swap1\n      pop\n        /* \"#utility.yul\":12473:12892   */\n      swap2\n      swap1\n      pop\n      jump\t// out\n        /* \"#utility.yul\":12898:13072   */\n    tag_198:\n        /* \"#utility.yul\":13038:13064   */\n      0x506f6f6c20616c726561647920696e697469616c697a65640000000000000000\n        /* \"#utility.yul\":13034:13035   */\n      0x00\n        /* \"#utility.yul\":13026:13032   */\n      dup3\n        /* \"#utility.yul\":13022:13036   */\n      add\n        /* \"#utility.yul\":13015:13065   */\n      mstore\n        /* \"#utility.yul\":12898:13072   */\n      pop\n      jump\t// out\n        /* \"#utility.yul\":13078:13444   */\n    tag_199:\n        /* \"#utility.yul\":13220:13223   */\n      0x00\n        /* \"#utility.yul\":13241:13308   */\n      tag_328\n        /* \"#utility.yul\":13305:13307   */\n      0x18\n        /* \"#utility.yul\":13300:13303   */\n      dup4\n        /* \"#utility.yul\":13241:13308   */\n      tag_178\n      jump\t// in\n    tag_328:\n        /* \"#utility.yul\":13234:13308   */\n      swap2\n      pop\n        /* \"#utility.yul\":13317:13410   */\n      tag_329\n        /* \"#utility.yul\":13406:13409   */\n      dup3\n        /* \"#utility.yul\":13317:13410   */\n      tag_198\n      jump\t// in\n    tag_329:\n        /* \"#utility.yul\":13435:13437   */\n      0x20\n        /* \"#utility.yul\":13430:13433   */\n      dup3\n        /* \"#utility.yul\":13426:13438   */\n      add\n        /* \"#utility.yul\":13419:13438   */\n      swap1\n      pop\n        /* \"#utility.yul\":13078:13444   */\n      swap2\n      swap1\n      pop\n      jump\t// out\n        /* \"#utility.yul\":13450:13869   */\n    tag_161:\n        /* \"#utility.yul\":13616:13620   */\n      0x00\n        /* \"#utility.yul\":13654:13656   */\n      0x20\n        /* \"#utility.yul\":13643:13652   */\n      dup3\n        /* \"#utility.yul\":13639:13657   */\n      add\n        /* \"#utility.yul\":13631:13657   */\n      swap1\n      pop\n        /* \"#utility.yul\":13703:13712   */\n      dup2\n        /* \"#utility.yul\":13697:13701   */\n      dup2\n        /* \"#utility.yul\":13693:13713   */\n      sub\n        /* \"#utility.yul\":13689:13690   */\n      0x00\n        /* \"#utility.yul\":13678:13687   */\n      dup4\n        /* \"#utility.yul\":13674:13691   */\n      add\n        /* \"#utility.yul\":13667:13714   */\n      mstore\n        /* \"#utility.yul\":13731:13862   */\n      tag_331\n        /* \"#utility.yul\":13857:13861   */\n      dup2\n        /* \"#utility.yul\":13731:13862   */\n      tag_199\n      jump\t// in\n    tag_331:\n        /* \"#utility.yul\":13723:13862   */\n      swap1\n      pop\n        /* \"#utility.yul\":13450:13869   */\n      swap2\n      swap1\n      pop\n      jump\t// out\n        /* \"#utility.yul\":13875:14115   */\n    tag_200:\n        /* \"#utility.yul\":14015:14049   */\n      0x496e697469616c206e617469766520746f6b656e20616d6f756e74206d757374\n        /* \"#utility.yul\":14011:14012   */\n      0x00\n        /* \"#utility.yul\":14003:14009   */\n      dup3\n        /* \"#utility.yul\":13999:14013   */\n      add\n        /* \"#utility.yul\":13992:14050   */\n      mstore\n        /* \"#utility.yul\":14084:14107   */\n      0x2062652067726561746572207468616e207a65726f0000000000000000000000\n        /* \"#utility.yul\":14079:14081   */\n      0x20\n        /* \"#utility.yul\":14071:14077   */\n      dup3\n        /* \"#utility.yul\":14067:14082   */\n      add\n        /* \"#utility.yul\":14060:14108   */\n      mstore\n        /* \"#utility.yul\":13875:14115   */\n      pop\n      jump\t// out\n        /* \"#utility.yul\":14121:14487   */\n    tag_201:\n        /* \"#utility.yul\":14263:14266   */\n      0x00\n        /* \"#utility.yul\":14284:14351   */\n      tag_334\n        /* \"#utility.yul\":14348:14350   */\n      0x35\n        /* \"#utility.yul\":14343:14346   */\n      dup4\n        /* \"#utility.yul\":14284:14351   */\n      tag_178\n      jump\t// in\n    tag_334:\n        /* \"#utility.yul\":14277:14351   */\n      swap2\n      pop\n        /* \"#utility.yul\":14360:14453   */\n      tag_335\n        /* \"#utility.yul\":14449:14452   */\n      dup3\n        /* \"#utility.yul\":14360:14453   */\n      tag_200\n      jump\t// in\n    tag_335:\n        /* \"#utility.yul\":14478:14480   */\n      0x40\n        /* \"#utility.yul\":14473:14476   */\n      dup3\n        /* \"#utility.yul\":14469:14481   */\n      add\n        /* \"#utility.yul\":14462:14481   */\n      swap1\n      pop\n        /* \"#utility.yul\":14121:14487   */\n      swap2\n      swap1\n      pop\n      jump\t// out\n        /* \"#utility.yul\":14493:14912   */\n    tag_164:\n        /* \"#utility.yul\":14659:14663   */\n      0x00\n        /* \"#utility.yul\":14697:14699   */\n      0x20\n        /* \"#utility.yul\":14686:14695   */\n      dup3\n        /* \"#utility.yul\":14682:14700   */\n      add\n        /* \"#utility.yul\":14674:14700   */\n      swap1\n      pop\n        /* \"#utility.yul\":14746:14755   */\n      dup2\n        /* \"#utility.yul\":14740:14744   */\n      dup2\n        /* \"#utility.yul\":14736:14756   */\n      sub\n        /* \"#utility.yul\":14732:14733   */\n      0x00\n        /* \"#utility.yul\":14721:14730   */\n      dup4\n        /* \"#utility.yul\":14717:14734   */\n      add\n        /* \"#utility.yul\":14710:14757   */\n      mstore\n        /* \"#utility.yul\":14774:14905   */\n      tag_337\n        /* \"#utility.yul\":14900:14904   */\n      dup2\n        /* \"#utility.yul\":14774:14905   */\n      tag_201\n      jump\t// in\n    tag_337:\n        /* \"#utility.yul\":14766:14905   */\n      swap1\n      pop\n        /* \"#utility.yul\":14493:14912   */\n      swap2\n      swap1\n      pop\n      jump\t// out\n\n    auxdata: 0xa26469706673582212200b8b4782ec1c5019ff5de48f9738dbc3bef922927199a38d0206b90b5e993b9064736f6c634300081a0033\n}\n",
				"bytecode": {
					"linkReferences": {},
					"object": "6080604052601460065534801561001557600080fd5b5060405161184538038061184583398181016040528101906100379190610150565b600073ffffffffffffffffffffffffffffffffffffffff168173ffffffffffffffffffffffffffffffffffffffff16036100a6576040517f08c379a000000000000000000000000000000000000000000000000000000000815260040161009d90610200565b60405180910390fd5b80600560006101000a81548173ffffffffffffffffffffffffffffffffffffffff021916908373ffffffffffffffffffffffffffffffffffffffff16021790555050610220565b600080fd5b600073ffffffffffffffffffffffffffffffffffffffff82169050919050565b600061011d826100f2565b9050919050565b61012d81610112565b811461013857600080fd5b50565b60008151905061014a81610124565b92915050565b600060208284031215610166576101656100ed565b5b60006101748482850161013b565b91505092915050565b600082825260208201905092915050565b7f446576656c6f70657220616464726573732063616e6e6f74206265207a65726f60008201527f2061646472657373000000000000000000000000000000000000000000000000602082015250565b60006101ea60288361017d565b91506101f58261018e565b604082019050919050565b60006020820190508181036000830152610219816101dd565b9050919050565b6116168061022f6000396000f3fe6080604052600436106100a75760003560e01c80635a76f25e116100645780635a76f25e146101d1578063a4821719146101fc578063ae7b6d161461021a578063c91e514914610245578063e77772fe14610270578063eb990c591461029b576100a7565b80630dfe1681146100ac5780632397e4d7146100d75780633ad10ef6146101145780633f131c6a1461013f578063443cb4bc146101685780634ecce45114610193575b600080fd5b3480156100b857600080fd5b506100c16102b7565b6040516100ce9190610ea0565b60405180910390f35b3480156100e357600080fd5b506100fe60048036038101906100f99190610ef6565b6102db565b60405161010b9190610f32565b60405180910390f35b34801561012057600080fd5b506101296107a6565b6040516101369190610ea0565b60405180910390f35b34801561014b57600080fd5b5061016660048036038101906101619190610ef6565b6107cc565b005b34801561017457600080fd5b5061017d61089d565b60405161018a9190610f32565b60405180910390f35b34801561019f57600080fd5b506101ba60048036038101906101b59190610ef6565b6108a3565b6040516101c8929190610f4d565b60405180910390f35b3480156101dd57600080fd5b506101e661099f565b6040516101f39190610f32565b60405180910390f35b6102046109a5565b6040516102119190610f32565b60405180910390f35b34801561022657600080fd5b5061022f610c6f565b60405161023c9190610f32565b60405180910390f35b34801561025157600080fd5b5061025a610c75565b6040516102679190610f32565b60405180910390f35b34801561027c57600080fd5b50610285610c7b565b6040516102929190610ea0565b60405180910390f35b6102b560048036038101906102b09190610fa2565b610ca1565b005b60008054906101000a900473ffffffffffffffffffffffffffffffffffffffff1681565b600080821161031f576040517f08c379a000000000000000000000000000000000000000000000000000000000815260040161031690611066565b60405180910390fd5b60008060009054906101000a900473ffffffffffffffffffffffffffffffffffffffff1673ffffffffffffffffffffffffffffffffffffffff166318160ddd6040518163ffffffff1660e01b8152600401602060405180830381865afa15801561038d573d6000803e3d6000fd5b505050506040513d601f19601f820116820180604052508101906103b1919061109b565b90506000816064856103c391906110f7565b6103cd9190611168565b905060006064600454866103e191906110f7565b6103eb9190611168565b9050600081866103fb9190611199565b905060006006548411156104a8576064826006548661041a9190611199565b61042491906110f7565b61042e9190611168565b9050808261043c9190611199565b9150806003600082825461045091906111cd565b925050819055503373ffffffffffffffffffffffffffffffffffffffff167fcf40cadcd86c14cb7e696a86578255719f67bc54bf991d45d267ee6e01467c19828460405161049f929190610f4d565b60405180910390a25b60008054906101000a900473ffffffffffffffffffffffffffffffffffffffff1673ffffffffffffffffffffffffffffffffffffffff1663a9059cbb600560009054906101000a900473ffffffffffffffffffffffffffffffffffffffff16856040518363ffffffff1660e01b8152600401610525929190611201565b6020604051808303816000875af1158015610544573d6000803e3d6000fd5b505050506040513d601f19601f820116820180604052508101906105689190611262565b5060008260025461057991906111cd565b90508060035460025461058c91906110f7565b6105969190611168565b6003546105a39190611199565b96508060028190555086600360008282546105be9190611199565b9250508190555060008054906101000a900473ffffffffffffffffffffffffffffffffffffffff1673ffffffffffffffffffffffffffffffffffffffff166323b872dd33308b6040518463ffffffff1660e01b81526004016106229392919061128f565b6020604051808303816000875af1158015610641573d6000803e3d6000fd5b505050506040513d601f19601f820116820180604052508101906106659190611262565b5060003373ffffffffffffffffffffffffffffffffffffffff168860405161068c906112f7565b60006040518083038185875af1925050503d80600081146106c9576040519150601f19603f3d011682016040523d82523d6000602084013e6106ce565b606091505b5050905080610712576040517f08c379a000000000000000000000000000000000000000000000000000000000815260040161070990611358565b60405180910390fd5b600073ffffffffffffffffffffffffffffffffffffffff1660008054906101000a900473ffffffffffffffffffffffffffffffffffffffff1673ffffffffffffffffffffffffffffffffffffffff167ffa2dda1cc1b86e41239702756b13effbc1a092b5c57e3ad320fbe4f3b13fe2358b8b604051610792929190610f4d565b60405180910390a350505050505050919050565b600560009054906101000a900473ffffffffffffffffffffffffffffffffffffffff1681565b600160009054906101000a900473ffffffffffffffffffffffffffffffffffffffff1673ffffffffffffffffffffffffffffffffffffffff163373ffffffffffffffffffffffffffffffffffffffff161461085c576040517f08c379a0000000000000000000000000000000000000000000000000000000008152600401610853906113c4565b60405180910390fd5b806004819055507f7f54b0f873d8150d0613da0f8db3a0935c36fb63d4d2d75fa8cd08b4b1f33be1816040516108929190610f32565b60405180910390a150565b60025481565b60008060008060009054906101000a900473ffffffffffffffffffffffffffffffffffffffff1673ffffffffffffffffffffffffffffffffffffffff166318160ddd6040518163ffffffff1660e01b8152600401602060405180830381865afa158015610914573d6000803e3d6000fd5b505050506040513d601f19601f82011682018060405250810190610938919061109b565b905060008160648661094a91906110f7565b6109549190611168565b905060065481111561098f576006548161096e9190611199565b92506064858461097e91906110f7565b6109889190611168565b9350610998565b60009350600092505b5050915091565b60035481565b60008034116109e9576040517f08c379a00000000000000000000000000000000000000000000000000000000081526004016109e090611430565b60405180910390fd5b60006064600454346109fb91906110f7565b610a059190611168565b905060008134610a159190611199565b90506000600560009054906101000a900473ffffffffffffffffffffffffffffffffffffffff1673ffffffffffffffffffffffffffffffffffffffff1683604051610a5f906112f7565b60006040518083038185875af1925050503d8060008114610a9c576040519150601f19603f3d011682016040523d82523d6000602084013e610aa1565b606091505b5050905080610ae5576040517f08c379a0000000000000000000000000000000000000000000000000000000008152600401610adc906114c2565b60405180910390fd5b600082600354610af591906111cd565b905080600354600254610b0891906110f7565b610b129190611168565b600254610b1f9190611199565b9450806003819055508460026000828254610b3a9190611199565b9250508190555060008054906101000a900473ffffffffffffffffffffffffffffffffffffffff1673ffffffffffffffffffffffffffffffffffffffff1663a9059cbb33876040518363ffffffff1660e01b8152600401610b9c929190611201565b6020604051808303816000875af1158015610bbb573d6000803e3d6000fd5b505050506040513d601f19601f82011682018060405250810190610bdf9190611262565b5060008054906101000a900473ffffffffffffffffffffffffffffffffffffffff1673ffffffffffffffffffffffffffffffffffffffff16600073ffffffffffffffffffffffffffffffffffffffff167ffa2dda1cc1b86e41239702756b13effbc1a092b5c57e3ad320fbe4f3b13fe2353488604051610c60929190610f4d565b60405180910390a35050505090565b60045481565b60065481565b600160009054906101000a900473ffffffffffffffffffffffffffffffffffffffff1681565b600073ffffffffffffffffffffffffffffffffffffffff1660008054906101000a900473ffffffffffffffffffffffffffffffffffffffff1673ffffffffffffffffffffffffffffffffffffffff1614610d30576040517f08c379a0000000000000000000000000000000000000000000000000000000008152600401610d279061152e565b60405180910390fd5b60003411610d73576040517f08c379a0000000000000000000000000000000000000000000000000000000008152600401610d6a906115c0565b60405180910390fd5b836000806101000a81548173ffffffffffffffffffffffffffffffffffffffff021916908373ffffffffffffffffffffffffffffffffffffffff16021790555082600160006101000a81548173ffffffffffffffffffffffffffffffffffffffff021916908373ffffffffffffffffffffffffffffffffffffffff1602179055508060048190555081600281905550346003819055503373ffffffffffffffffffffffffffffffffffffffff167fac1d76749e5447b7b16f5ab61447e1bd502f3bb4807af3b28e620d1700a6ee458334604051610e51929190610f4d565b60405180910390a250505050565b600073ffffffffffffffffffffffffffffffffffffffff82169050919050565b6000610e8a82610e5f565b9050919050565b610e9a81610e7f565b82525050565b6000602082019050610eb56000830184610e91565b92915050565b600080fd5b6000819050919050565b610ed381610ec0565b8114610ede57600080fd5b50565b600081359050610ef081610eca565b92915050565b600060208284031215610f0c57610f0b610ebb565b5b6000610f1a84828501610ee1565b91505092915050565b610f2c81610ec0565b82525050565b6000602082019050610f476000830184610f23565b92915050565b6000604082019050610f626000830185610f23565b610f6f6020830184610f23565b9392505050565b610f7f81610e7f565b8114610f8a57600080fd5b50565b600081359050610f9c81610f76565b92915050565b60008060008060808587031215610fbc57610fbb610ebb565b5b6000610fca87828801610f8d565b9450506020610fdb87828801610f8d565b9350506040610fec87828801610ee1565b9250506060610ffd87828801610ee1565b91505092959194509250565b600082825260208201905092915050565b7f4d7573742073656c6c20736f6d6520746f6b656e730000000000000000000000600082015250565b6000611050601583611009565b915061105b8261101a565b602082019050919050565b6000602082019050818103600083015261107f81611043565b9050919050565b60008151905061109581610eca565b92915050565b6000602082840312156110b1576110b0610ebb565b5b60006110bf84828501611086565b91505092915050565b7f4e487b7100000000000000000000000000000000000000000000000000000000600052601160045260246000fd5b600061110282610ec0565b915061110d83610ec0565b925082820261111b81610ec0565b91508282048414831517611132576111316110c8565b5b5092915050565b7f4e487b7100000000000000000000000000000000000000000000000000000000600052601260045260246000fd5b600061117382610ec0565b915061117e83610ec0565b92508261118e5761118d611139565b5b828204905092915050565b60006111a482610ec0565b91506111af83610ec0565b92508282039050818111156111c7576111c66110c8565b5b92915050565b60006111d882610ec0565b91506111e383610ec0565b92508282019050808211156111fb576111fa6110c8565b5b92915050565b60006040820190506112166000830185610e91565b6112236020830184610f23565b9392505050565b60008115159050919050565b61123f8161122a565b811461124a57600080fd5b50565b60008151905061125c81611236565b92915050565b60006020828403121561127857611277610ebb565b5b60006112868482850161124d565b91505092915050565b60006060820190506112a46000830186610e91565b6112b16020830185610e91565b6112be6040830184610f23565b949350505050565b600081905092915050565b50565b60006112e16000836112c6565b91506112ec826112d1565b600082019050919050565b6000611302826112d4565b9150819050919050565b7f4574686572207472616e73666572206661696c65640000000000000000000000600082015250565b6000611342601583611009565b915061134d8261130c565b602082019050919050565b6000602082019050818103600083015261137181611335565b9050919050565b7f43616c6c6572206973206e6f742074686520546f6b656e466163746f72790000600082015250565b60006113ae601e83611009565b91506113b982611378565b602082019050919050565b600060208201905081810360008301526113dd816113a1565b9050919050565b7f4d7573742073656e6420457468657220746f2062757920746f6b656e73000000600082015250565b600061141a601d83611009565b9150611425826113e4565b602082019050919050565b600060208201905081810360008301526114498161140d565b9050919050565b7f4661696c656420746f2073656e642074617820746f206465762061646472657360008201527f7300000000000000000000000000000000000000000000000000000000000000602082015250565b60006114ac602183611009565b91506114b782611450565b604082019050919050565b600060208201905081810360008301526114db8161149f565b9050919050565b7f506f6f6c20616c726561647920696e697469616c697a65640000000000000000600082015250565b6000611518601883611009565b9150611523826114e2565b602082019050919050565b600060208201905081810360008301526115478161150b565b9050919050565b7f496e697469616c206e617469766520746f6b656e20616d6f756e74206d75737460008201527f2062652067726561746572207468616e207a65726f0000000000000000000000602082015250565b60006115aa603583611009565b91506115b58261154e565b604082019050919050565b600060208201905081810360008301526115d98161159d565b905091905056fea26469706673582212200b8b4782ec1c5019ff5de48f9738dbc3bef922927199a38d0206b90b5e993b9064736f6c634300081a0033",
					"opcodes": "PUSH1 0x80 PUSH1 0x40 MSTORE PUSH1 0x14 PUSH1 0x6 SSTORE CALLVALUE DUP1 ISZERO PUSH2 0x15 JUMPI PUSH1 0x0 DUP1 REVERT JUMPDEST POP PUSH1 0x40 MLOAD PUSH2 0x1845 CODESIZE SUB DUP1 PUSH2 0x1845 DUP4 CODECOPY DUP2 DUP2 ADD PUSH1 0x40 MSTORE DUP2 ADD SWAP1 PUSH2 0x37 SWAP2 SWAP1 PUSH2 0x150 JUMP JUMPDEST PUSH1 0x0 PUSH20 0xFFFFFFFFFFFFFFFFFFFFFFFFFFFFFFFFFFFFFFFF AND DUP2 PUSH20 0xFFFFFFFFFFFFFFFFFFFFFFFFFFFFFFFFFFFFFFFF AND SUB PUSH2 0xA6 JUMPI PUSH1 0x40 MLOAD PUSH32 0x8C379A000000000000000000000000000000000000000000000000000000000 DUP2 MSTORE PUSH1 0x4 ADD PUSH2 0x9D SWAP1 PUSH2 0x200 JUMP JUMPDEST PUSH1 0x40 MLOAD DUP1 SWAP2 SUB SWAP1 REVERT JUMPDEST DUP1 PUSH1 0x5 PUSH1 0x0 PUSH2 0x100 EXP DUP2 SLOAD DUP2 PUSH20 0xFFFFFFFFFFFFFFFFFFFFFFFFFFFFFFFFFFFFFFFF MUL NOT AND SWAP1 DUP4 PUSH20 0xFFFFFFFFFFFFFFFFFFFFFFFFFFFFFFFFFFFFFFFF AND MUL OR SWAP1 SSTORE POP POP PUSH2 0x220 JUMP JUMPDEST PUSH1 0x0 DUP1 REVERT JUMPDEST PUSH1 0x0 PUSH20 0xFFFFFFFFFFFFFFFFFFFFFFFFFFFFFFFFFFFFFFFF DUP3 AND SWAP1 POP SWAP2 SWAP1 POP JUMP JUMPDEST PUSH1 0x0 PUSH2 0x11D DUP3 PUSH2 0xF2 JUMP JUMPDEST SWAP1 POP SWAP2 SWAP1 POP JUMP JUMPDEST PUSH2 0x12D DUP2 PUSH2 0x112 JUMP JUMPDEST DUP2 EQ PUSH2 0x138 JUMPI PUSH1 0x0 DUP1 REVERT JUMPDEST POP JUMP JUMPDEST PUSH1 0x0 DUP2 MLOAD SWAP1 POP PUSH2 0x14A DUP2 PUSH2 0x124 JUMP JUMPDEST SWAP3 SWAP2 POP POP JUMP JUMPDEST PUSH1 0x0 PUSH1 0x20 DUP3 DUP5 SUB SLT ISZERO PUSH2 0x166 JUMPI PUSH2 0x165 PUSH2 0xED JUMP JUMPDEST JUMPDEST PUSH1 0x0 PUSH2 0x174 DUP5 DUP3 DUP6 ADD PUSH2 0x13B JUMP JUMPDEST SWAP2 POP POP SWAP3 SWAP2 POP POP JUMP JUMPDEST PUSH1 0x0 DUP3 DUP3 MSTORE PUSH1 0x20 DUP3 ADD SWAP1 POP SWAP3 SWAP2 POP POP JUMP JUMPDEST PUSH32 0x446576656C6F70657220616464726573732063616E6E6F74206265207A65726F PUSH1 0x0 DUP3 ADD MSTORE PUSH32 0x2061646472657373000000000000000000000000000000000000000000000000 PUSH1 0x20 DUP3 ADD MSTORE POP JUMP JUMPDEST PUSH1 0x0 PUSH2 0x1EA PUSH1 0x28 DUP4 PUSH2 0x17D JUMP JUMPDEST SWAP2 POP PUSH2 0x1F5 DUP3 PUSH2 0x18E JUMP JUMPDEST PUSH1 0x40 DUP3 ADD SWAP1 POP SWAP2 SWAP1 POP JUMP JUMPDEST PUSH1 0x0 PUSH1 0x20 DUP3 ADD SWAP1 POP DUP2 DUP2 SUB PUSH1 0x0 DUP4 ADD MSTORE PUSH2 0x219 DUP2 PUSH2 0x1DD JUMP JUMPDEST SWAP1 POP SWAP2 SWAP1 POP JUMP JUMPDEST PUSH2 0x1616 DUP1 PUSH2 0x22F PUSH1 0x0 CODECOPY PUSH1 0x0 RETURN INVALID PUSH1 0x80 PUSH1 0x40 MSTORE PUSH1 0x4 CALLDATASIZE LT PUSH2 0xA7 JUMPI PUSH1 0x0 CALLDATALOAD PUSH1 0xE0 SHR DUP1 PUSH4 0x5A76F25E GT PUSH2 0x64 JUMPI DUP1 PUSH4 0x5A76F25E EQ PUSH2 0x1D1 JUMPI DUP1 PUSH4 0xA4821719 EQ PUSH2 0x1FC JUMPI DUP1 PUSH4 0xAE7B6D16 EQ PUSH2 0x21A JUMPI DUP1 PUSH4 0xC91E5149 EQ PUSH2 0x245 JUMPI DUP1 PUSH4 0xE77772FE EQ PUSH2 0x270 JUMPI DUP1 PUSH4 0xEB990C59 EQ PUSH2 0x29B JUMPI PUSH2 0xA7 JUMP JUMPDEST DUP1 PUSH4 0xDFE1681 EQ PUSH2 0xAC JUMPI DUP1 PUSH4 0x2397E4D7 EQ PUSH2 0xD7 JUMPI DUP1 PUSH4 0x3AD10EF6 EQ PUSH2 0x114 JUMPI DUP1 PUSH4 0x3F131C6A EQ PUSH2 0x13F JUMPI DUP1 PUSH4 0x443CB4BC EQ PUSH2 0x168 JUMPI DUP1 PUSH4 0x4ECCE451 EQ PUSH2 0x193 JUMPI JUMPDEST PUSH1 0x0 DUP1 REVERT JUMPDEST CALLVALUE DUP1 ISZERO PUSH2 0xB8 JUMPI PUSH1 0x0 DUP1 REVERT JUMPDEST POP PUSH2 0xC1 PUSH2 0x2B7 JUMP JUMPDEST PUSH1 0x40 MLOAD PUSH2 0xCE SWAP2 SWAP1 PUSH2 0xEA0 JUMP JUMPDEST PUSH1 0x40 MLOAD DUP1 SWAP2 SUB SWAP1 RETURN JUMPDEST CALLVALUE DUP1 ISZERO PUSH2 0xE3 JUMPI PUSH1 0x0 DUP1 REVERT JUMPDEST POP PUSH2 0xFE PUSH1 0x4 DUP1 CALLDATASIZE SUB DUP2 ADD SWAP1 PUSH2 0xF9 SWAP2 SWAP1 PUSH2 0xEF6 JUMP JUMPDEST PUSH2 0x2DB JUMP JUMPDEST PUSH1 0x40 MLOAD PUSH2 0x10B SWAP2 SWAP1 PUSH2 0xF32 JUMP JUMPDEST PUSH1 0x40 MLOAD DUP1 SWAP2 SUB SWAP1 RETURN JUMPDEST CALLVALUE DUP1 ISZERO PUSH2 0x120 JUMPI PUSH1 0x0 DUP1 REVERT JUMPDEST POP PUSH2 0x129 PUSH2 0x7A6 JUMP JUMPDEST PUSH1 0x40 MLOAD PUSH2 0x136 SWAP2 SWAP1 PUSH2 0xEA0 JUMP JUMPDEST PUSH1 0x40 MLOAD DUP1 SWAP2 SUB SWAP1 RETURN JUMPDEST CALLVALUE DUP1 ISZERO PUSH2 0x14B JUMPI PUSH1 0x0 DUP1 REVERT JUMPDEST POP PUSH2 0x166 PUSH1 0x4 DUP1 CALLDATASIZE SUB DUP2 ADD SWAP1 PUSH2 0x161 SWAP2 SWAP1 PUSH2 0xEF6 JUMP JUMPDEST PUSH2 0x7CC JUMP JUMPDEST STOP JUMPDEST CALLVALUE DUP1 ISZERO PUSH2 0x174 JUMPI PUSH1 0x0 DUP1 REVERT JUMPDEST POP PUSH2 0x17D PUSH2 0x89D JUMP JUMPDEST PUSH1 0x40 MLOAD PUSH2 0x18A SWAP2 SWAP1 PUSH2 0xF32 JUMP JUMPDEST PUSH1 0x40 MLOAD DUP1 SWAP2 SUB SWAP1 RETURN JUMPDEST CALLVALUE DUP1 ISZERO PUSH2 0x19F JUMPI PUSH1 0x0 DUP1 REVERT JUMPDEST POP PUSH2 0x1BA PUSH1 0x4 DUP1 CALLDATASIZE SUB DUP2 ADD SWAP1 PUSH2 0x1B5 SWAP2 SWAP1 PUSH2 0xEF6 JUMP JUMPDEST PUSH2 0x8A3 JUMP JUMPDEST PUSH1 0x40 MLOAD PUSH2 0x1C8 SWAP3 SWAP2 SWAP1 PUSH2 0xF4D JUMP JUMPDEST PUSH1 0x40 MLOAD DUP1 SWAP2 SUB SWAP1 RETURN JUMPDEST CALLVALUE DUP1 ISZERO PUSH2 0x1DD JUMPI PUSH1 0x0 DUP1 REVERT JUMPDEST POP PUSH2 0x1E6 PUSH2 0x99F JUMP JUMPDEST PUSH1 0x40 MLOAD PUSH2 0x1F3 SWAP2 SWAP1 PUSH2 0xF32 JUMP JUMPDEST PUSH1 0x40 MLOAD DUP1 SWAP2 SUB SWAP1 RETURN JUMPDEST PUSH2 0x204 PUSH2 0x9A5 JUMP JUMPDEST PUSH1 0x40 MLOAD PUSH2 0x211 SWAP2 SWAP1 PUSH2 0xF32 JUMP JUMPDEST PUSH1 0x40 MLOAD DUP1 SWAP2 SUB SWAP1 RETURN JUMPDEST CALLVALUE DUP1 ISZERO PUSH2 0x226 JUMPI PUSH1 0x0 DUP1 REVERT JUMPDEST POP PUSH2 0x22F PUSH2 0xC6F JUMP JUMPDEST PUSH1 0x40 MLOAD PUSH2 0x23C SWAP2 SWAP1 PUSH2 0xF32 JUMP JUMPDEST PUSH1 0x40 MLOAD DUP1 SWAP2 SUB SWAP1 RETURN JUMPDEST CALLVALUE DUP1 ISZERO PUSH2 0x251 JUMPI PUSH1 0x0 DUP1 REVERT JUMPDEST POP PUSH2 0x25A PUSH2 0xC75 JUMP JUMPDEST PUSH1 0x40 MLOAD PUSH2 0x267 SWAP2 SWAP1 PUSH2 0xF32 JUMP JUMPDEST PUSH1 0x40 MLOAD DUP1 SWAP2 SUB SWAP1 RETURN JUMPDEST CALLVALUE DUP1 ISZERO PUSH2 0x27C JUMPI PUSH1 0x0 DUP1 REVERT JUMPDEST POP PUSH2 0x285 PUSH2 0xC7B JUMP JUMPDEST PUSH1 0x40 MLOAD PUSH2 0x292 SWAP2 SWAP1 PUSH2 0xEA0 JUMP JUMPDEST PUSH1 0x40 MLOAD DUP1 SWAP2 SUB SWAP1 RETURN JUMPDEST PUSH2 0x2B5 PUSH1 0x4 DUP1 CALLDATASIZE SUB DUP2 ADD SWAP1 PUSH2 0x2B0 SWAP2 SWAP1 PUSH2 0xFA2 JUMP JUMPDEST PUSH2 0xCA1 JUMP JUMPDEST STOP JUMPDEST PUSH1 0x0 DUP1 SLOAD SWAP1 PUSH2 0x100 EXP SWAP1 DIV PUSH20 0xFFFFFFFFFFFFFFFFFFFFFFFFFFFFFFFFFFFFFFFF AND DUP2 JUMP JUMPDEST PUSH1 0x0 DUP1 DUP3 GT PUSH2 0x31F JUMPI PUSH1 0x40 MLOAD PUSH32 0x8C379A000000000000000000000000000000000000000000000000000000000 DUP2 MSTORE PUSH1 0x4 ADD PUSH2 0x316 SWAP1 PUSH2 0x1066 JUMP JUMPDEST PUSH1 0x40 MLOAD DUP1 SWAP2 SUB SWAP1 REVERT JUMPDEST PUSH1 0x0 DUP1 PUSH1 0x0 SWAP1 SLOAD SWAP1 PUSH2 0x100 EXP SWAP1 DIV PUSH20 0xFFFFFFFFFFFFFFFFFFFFFFFFFFFFFFFFFFFFFFFF AND PUSH20 0xFFFFFFFFFFFFFFFFFFFFFFFFFFFFFFFFFFFFFFFF AND PUSH4 0x18160DDD PUSH1 0x40 MLOAD DUP2 PUSH4 0xFFFFFFFF AND PUSH1 0xE0 SHL DUP2 MSTORE PUSH1 0x4 ADD PUSH1 0x20 PUSH1 0x40 MLOAD DUP1 DUP4 SUB DUP2 DUP7 GAS STATICCALL ISZERO DUP1 ISZERO PUSH2 0x38D JUMPI RETURNDATASIZE PUSH1 0x0 DUP1 RETURNDATACOPY RETURNDATASIZE PUSH1 0x0 REVERT JUMPDEST POP POP POP POP PUSH1 0x40 MLOAD RETURNDATASIZE PUSH1 0x1F NOT PUSH1 0x1F DUP3 ADD AND DUP3 ADD DUP1 PUSH1 0x40 MSTORE POP DUP2 ADD SWAP1 PUSH2 0x3B1 SWAP2 SWAP1 PUSH2 0x109B JUMP JUMPDEST SWAP1 POP PUSH1 0x0 DUP2 PUSH1 0x64 DUP6 PUSH2 0x3C3 SWAP2 SWAP1 PUSH2 0x10F7 JUMP JUMPDEST PUSH2 0x3CD SWAP2 SWAP1 PUSH2 0x1168 JUMP JUMPDEST SWAP1 POP PUSH1 0x0 PUSH1 0x64 PUSH1 0x4 SLOAD DUP7 PUSH2 0x3E1 SWAP2 SWAP1 PUSH2 0x10F7 JUMP JUMPDEST PUSH2 0x3EB SWAP2 SWAP1 PUSH2 0x1168 JUMP JUMPDEST SWAP1 POP PUSH1 0x0 DUP2 DUP7 PUSH2 0x3FB SWAP2 SWAP1 PUSH2 0x1199 JUMP JUMPDEST SWAP1 POP PUSH1 0x0 PUSH1 0x6 SLOAD DUP5 GT ISZERO PUSH2 0x4A8 JUMPI PUSH1 0x64 DUP3 PUSH1 0x6 SLOAD DUP7 PUSH2 0x41A SWAP2 SWAP1 PUSH2 0x1199 JUMP JUMPDEST PUSH2 0x424 SWAP2 SWAP1 PUSH2 0x10F7 JUMP JUMPDEST PUSH2 0x42E SWAP2 SWAP1 PUSH2 0x1168 JUMP JUMPDEST SWAP1 POP DUP1 DUP3 PUSH2 0x43C SWAP2 SWAP1 PUSH2 0x1199 JUMP JUMPDEST SWAP2 POP DUP1 PUSH1 0x3 PUSH1 0x0 DUP3 DUP3 SLOAD PUSH2 0x450 SWAP2 SWAP1 PUSH2 0x11CD JUMP JUMPDEST SWAP3 POP POP DUP2 SWAP1 SSTORE POP CALLER PUSH20 0xFFFFFFFFFFFFFFFFFFFFFFFFFFFFFFFFFFFFFFFF AND PUSH32 0xCF40CADCD86C14CB7E696A86578255719F67BC54BF991D45D267EE6E01467C19 DUP3 DUP5 PUSH1 0x40 MLOAD PUSH2 0x49F SWAP3 SWAP2 SWAP1 PUSH2 0xF4D JUMP JUMPDEST PUSH1 0x40 MLOAD DUP1 SWAP2 SUB SWAP1 LOG2 JUMPDEST PUSH1 0x0 DUP1 SLOAD SWAP1 PUSH2 0x100 EXP SWAP1 DIV PUSH20 0xFFFFFFFFFFFFFFFFFFFFFFFFFFFFFFFFFFFFFFFF AND PUSH20 0xFFFFFFFFFFFFFFFFFFFFFFFFFFFFFFFFFFFFFFFF AND PUSH4 0xA9059CBB PUSH1 0x5 PUSH1 0x0 SWAP1 SLOAD SWAP1 PUSH2 0x100 EXP SWAP1 DIV PUSH20 0xFFFFFFFFFFFFFFFFFFFFFFFFFFFFFFFFFFFFFFFF AND DUP6 PUSH1 0x40 MLOAD DUP4 PUSH4 0xFFFFFFFF AND PUSH1 0xE0 SHL DUP2 MSTORE PUSH1 0x4 ADD PUSH2 0x525 SWAP3 SWAP2 SWAP1 PUSH2 0x1201 JUMP JUMPDEST PUSH1 0x20 PUSH1 0x40 MLOAD DUP1 DUP4 SUB DUP2 PUSH1 0x0 DUP8 GAS CALL ISZERO DUP1 ISZERO PUSH2 0x544 JUMPI RETURNDATASIZE PUSH1 0x0 DUP1 RETURNDATACOPY RETURNDATASIZE PUSH1 0x0 REVERT JUMPDEST POP POP POP POP PUSH1 0x40 MLOAD RETURNDATASIZE PUSH1 0x1F NOT PUSH1 0x1F DUP3 ADD AND DUP3 ADD DUP1 PUSH1 0x40 MSTORE POP DUP2 ADD SWAP1 PUSH2 0x568 SWAP2 SWAP1 PUSH2 0x1262 JUMP JUMPDEST POP PUSH1 0x0 DUP3 PUSH1 0x2 SLOAD PUSH2 0x579 SWAP2 SWAP1 PUSH2 0x11CD JUMP JUMPDEST SWAP1 POP DUP1 PUSH1 0x3 SLOAD PUSH1 0x2 SLOAD PUSH2 0x58C SWAP2 SWAP1 PUSH2 0x10F7 JUMP JUMPDEST PUSH2 0x596 SWAP2 SWAP1 PUSH2 0x1168 JUMP JUMPDEST PUSH1 0x3 SLOAD PUSH2 0x5A3 SWAP2 SWAP1 PUSH2 0x1199 JUMP JUMPDEST SWAP7 POP DUP1 PUSH1 0x2 DUP2 SWAP1 SSTORE POP DUP7 PUSH1 0x3 PUSH1 0x0 DUP3 DUP3 SLOAD PUSH2 0x5BE SWAP2 SWAP1 PUSH2 0x1199 JUMP JUMPDEST SWAP3 POP POP DUP2 SWAP1 SSTORE POP PUSH1 0x0 DUP1 SLOAD SWAP1 PUSH2 0x100 EXP SWAP1 DIV PUSH20 0xFFFFFFFFFFFFFFFFFFFFFFFFFFFFFFFFFFFFFFFF AND PUSH20 0xFFFFFFFFFFFFFFFFFFFFFFFFFFFFFFFFFFFFFFFF AND PUSH4 0x23B872DD CALLER ADDRESS DUP12 PUSH1 0x40 MLOAD DUP5 PUSH4 0xFFFFFFFF AND PUSH1 0xE0 SHL DUP2 MSTORE PUSH1 0x4 ADD PUSH2 0x622 SWAP4 SWAP3 SWAP2 SWAP1 PUSH2 0x128F JUMP JUMPDEST PUSH1 0x20 PUSH1 0x40 MLOAD DUP1 DUP4 SUB DUP2 PUSH1 0x0 DUP8 GAS CALL ISZERO DUP1 ISZERO PUSH2 0x641 JUMPI RETURNDATASIZE PUSH1 0x0 DUP1 RETURNDATACOPY RETURNDATASIZE PUSH1 0x0 REVERT JUMPDEST POP POP POP POP PUSH1 0x40 MLOAD RETURNDATASIZE PUSH1 0x1F NOT PUSH1 0x1F DUP3 ADD AND DUP3 ADD DUP1 PUSH1 0x40 MSTORE POP DUP2 ADD SWAP1 PUSH2 0x665 SWAP2 SWAP1 PUSH2 0x1262 JUMP JUMPDEST POP PUSH1 0x0 CALLER PUSH20 0xFFFFFFFFFFFFFFFFFFFFFFFFFFFFFFFFFFFFFFFF AND DUP9 PUSH1 0x40 MLOAD PUSH2 0x68C SWAP1 PUSH2 0x12F7 JUMP JUMPDEST PUSH1 0x0 PUSH1 0x40 MLOAD DUP1 DUP4 SUB DUP2 DUP6 DUP8 GAS CALL SWAP3 POP POP POP RETURNDATASIZE DUP1 PUSH1 0x0 DUP2 EQ PUSH2 0x6C9 JUMPI PUSH1 0x40 MLOAD SWAP2 POP PUSH1 0x1F NOT PUSH1 0x3F RETURNDATASIZE ADD AND DUP3 ADD PUSH1 0x40 MSTORE RETURNDATASIZE DUP3 MSTORE RETURNDATASIZE PUSH1 0x0 PUSH1 0x20 DUP5 ADD RETURNDATACOPY PUSH2 0x6CE JUMP JUMPDEST PUSH1 0x60 SWAP2 POP JUMPDEST POP POP SWAP1 POP DUP1 PUSH2 0x712 JUMPI PUSH1 0x40 MLOAD PUSH32 0x8C379A000000000000000000000000000000000000000000000000000000000 DUP2 MSTORE PUSH1 0x4 ADD PUSH2 0x709 SWAP1 PUSH2 0x1358 JUMP JUMPDEST PUSH1 0x40 MLOAD DUP1 SWAP2 SUB SWAP1 REVERT JUMPDEST PUSH1 0x0 PUSH20 0xFFFFFFFFFFFFFFFFFFFFFFFFFFFFFFFFFFFFFFFF AND PUSH1 0x0 DUP1 SLOAD SWAP1 PUSH2 0x100 EXP SWAP1 DIV PUSH20 0xFFFFFFFFFFFFFFFFFFFFFFFFFFFFFFFFFFFFFFFF AND PUSH20 0xFFFFFFFFFFFFFFFFFFFFFFFFFFFFFFFFFFFFFFFF AND PUSH32 0xFA2DDA1CC1B86E41239702756B13EFFBC1A092B5C57E3AD320FBE4F3B13FE235 DUP12 DUP12 PUSH1 0x40 MLOAD PUSH2 0x792 SWAP3 SWAP2 SWAP1 PUSH2 0xF4D JUMP JUMPDEST PUSH1 0x40 MLOAD DUP1 SWAP2 SUB SWAP1 LOG3 POP POP POP POP POP POP POP SWAP2 SWAP1 POP JUMP JUMPDEST PUSH1 0x5 PUSH1 0x0 SWAP1 SLOAD SWAP1 PUSH2 0x100 EXP SWAP1 DIV PUSH20 0xFFFFFFFFFFFFFFFFFFFFFFFFFFFFFFFFFFFFFFFF AND DUP2 JUMP JUMPDEST PUSH1 0x1 PUSH1 0x0 SWAP1 SLOAD SWAP1 PUSH2 0x100 EXP SWAP1 DIV PUSH20 0xFFFFFFFFFFFFFFFFFFFFFFFFFFFFFFFFFFFFFFFF AND PUSH20 0xFFFFFFFFFFFFFFFFFFFFFFFFFFFFFFFFFFFFFFFF AND CALLER PUSH20 0xFFFFFFFFFFFFFFFFFFFFFFFFFFFFFFFFFFFFFFFF AND EQ PUSH2 0x85C JUMPI PUSH1 0x40 MLOAD PUSH32 0x8C379A000000000000000000000000000000000000000000000000000000000 DUP2 MSTORE PUSH1 0x4 ADD PUSH2 0x853 SWAP1 PUSH2 0x13C4 JUMP JUMPDEST PUSH1 0x40 MLOAD DUP1 SWAP2 SUB SWAP1 REVERT JUMPDEST DUP1 PUSH1 0x4 DUP2 SWAP1 SSTORE POP PUSH32 0x7F54B0F873D8150D0613DA0F8DB3A0935C36FB63D4D2D75FA8CD08B4B1F33BE1 DUP2 PUSH1 0x40 MLOAD PUSH2 0x892 SWAP2 SWAP1 PUSH2 0xF32 JUMP JUMPDEST PUSH1 0x40 MLOAD DUP1 SWAP2 SUB SWAP1 LOG1 POP JUMP JUMPDEST PUSH1 0x2 SLOAD DUP2 JUMP JUMPDEST PUSH1 0x0 DUP1 PUSH1 0x0 DUP1 PUSH1 0x0 SWAP1 SLOAD SWAP1 PUSH2 0x100 EXP SWAP1 DIV PUSH20 0xFFFFFFFFFFFFFFFFFFFFFFFFFFFFFFFFFFFFFFFF AND PUSH20 0xFFFFFFFFFFFFFFFFFFFFFFFFFFFFFFFFFFFFFFFF AND PUSH4 0x18160DDD PUSH1 0x40 MLOAD DUP2 PUSH4 0xFFFFFFFF AND PUSH1 0xE0 SHL DUP2 MSTORE PUSH1 0x4 ADD PUSH1 0x20 PUSH1 0x40 MLOAD DUP1 DUP4 SUB DUP2 DUP7 GAS STATICCALL ISZERO DUP1 ISZERO PUSH2 0x914 JUMPI RETURNDATASIZE PUSH1 0x0 DUP1 RETURNDATACOPY RETURNDATASIZE PUSH1 0x0 REVERT JUMPDEST POP POP POP POP PUSH1 0x40 MLOAD RETURNDATASIZE PUSH1 0x1F NOT PUSH1 0x1F DUP3 ADD AND DUP3 ADD DUP1 PUSH1 0x40 MSTORE POP DUP2 ADD SWAP1 PUSH2 0x938 SWAP2 SWAP1 PUSH2 0x109B JUMP JUMPDEST SWAP1 POP PUSH1 0x0 DUP2 PUSH1 0x64 DUP7 PUSH2 0x94A SWAP2 SWAP1 PUSH2 0x10F7 JUMP JUMPDEST PUSH2 0x954 SWAP2 SWAP1 PUSH2 0x1168 JUMP JUMPDEST SWAP1 POP PUSH1 0x6 SLOAD DUP2 GT ISZERO PUSH2 0x98F JUMPI PUSH1 0x6 SLOAD DUP2 PUSH2 0x96E SWAP2 SWAP1 PUSH2 0x1199 JUMP JUMPDEST SWAP3 POP PUSH1 0x64 DUP6 DUP5 PUSH2 0x97E SWAP2 SWAP1 PUSH2 0x10F7 JUMP JUMPDEST PUSH2 0x988 SWAP2 SWAP1 PUSH2 0x1168 JUMP JUMPDEST SWAP4 POP PUSH2 0x998 JUMP JUMPDEST PUSH1 0x0 SWAP4 POP PUSH1 0x0 SWAP3 POP JUMPDEST POP POP SWAP2 POP SWAP2 JUMP JUMPDEST PUSH1 0x3 SLOAD DUP2 JUMP JUMPDEST PUSH1 0x0 DUP1 CALLVALUE GT PUSH2 0x9E9 JUMPI PUSH1 0x40 MLOAD PUSH32 0x8C379A000000000000000000000000000000000000000000000000000000000 DUP2 MSTORE PUSH1 0x4 ADD PUSH2 0x9E0 SWAP1 PUSH2 0x1430 JUMP JUMPDEST PUSH1 0x40 MLOAD DUP1 SWAP2 SUB SWAP1 REVERT JUMPDEST PUSH1 0x0 PUSH1 0x64 PUSH1 0x4 SLOAD CALLVALUE PUSH2 0x9FB SWAP2 SWAP1 PUSH2 0x10F7 JUMP JUMPDEST PUSH2 0xA05 SWAP2 SWAP1 PUSH2 0x1168 JUMP JUMPDEST SWAP1 POP PUSH1 0x0 DUP2 CALLVALUE PUSH2 0xA15 SWAP2 SWAP1 PUSH2 0x1199 JUMP JUMPDEST SWAP1 POP PUSH1 0x0 PUSH1 0x5 PUSH1 0x0 SWAP1 SLOAD SWAP1 PUSH2 0x100 EXP SWAP1 DIV PUSH20 0xFFFFFFFFFFFFFFFFFFFFFFFFFFFFFFFFFFFFFFFF AND PUSH20 0xFFFFFFFFFFFFFFFFFFFFFFFFFFFFFFFFFFFFFFFF AND DUP4 PUSH1 0x40 MLOAD PUSH2 0xA5F SWAP1 PUSH2 0x12F7 JUMP JUMPDEST PUSH1 0x0 PUSH1 0x40 MLOAD DUP1 DUP4 SUB DUP2 DUP6 DUP8 GAS CALL SWAP3 POP POP POP RETURNDATASIZE DUP1 PUSH1 0x0 DUP2 EQ PUSH2 0xA9C JUMPI PUSH1 0x40 MLOAD SWAP2 POP PUSH1 0x1F NOT PUSH1 0x3F RETURNDATASIZE ADD AND DUP3 ADD PUSH1 0x40 MSTORE RETURNDATASIZE DUP3 MSTORE RETURNDATASIZE PUSH1 0x0 PUSH1 0x20 DUP5 ADD RETURNDATACOPY PUSH2 0xAA1 JUMP JUMPDEST PUSH1 0x60 SWAP2 POP JUMPDEST POP POP SWAP1 POP DUP1 PUSH2 0xAE5 JUMPI PUSH1 0x40 MLOAD PUSH32 0x8C379A000000000000000000000000000000000000000000000000000000000 DUP2 MSTORE PUSH1 0x4 ADD PUSH2 0xADC SWAP1 PUSH2 0x14C2 JUMP JUMPDEST PUSH1 0x40 MLOAD DUP1 SWAP2 SUB SWAP1 REVERT JUMPDEST PUSH1 0x0 DUP3 PUSH1 0x3 SLOAD PUSH2 0xAF5 SWAP2 SWAP1 PUSH2 0x11CD JUMP JUMPDEST SWAP1 POP DUP1 PUSH1 0x3 SLOAD PUSH1 0x2 SLOAD PUSH2 0xB08 SWAP2 SWAP1 PUSH2 0x10F7 JUMP JUMPDEST PUSH2 0xB12 SWAP2 SWAP1 PUSH2 0x1168 JUMP JUMPDEST PUSH1 0x2 SLOAD PUSH2 0xB1F SWAP2 SWAP1 PUSH2 0x1199 JUMP JUMPDEST SWAP5 POP DUP1 PUSH1 0x3 DUP2 SWAP1 SSTORE POP DUP5 PUSH1 0x2 PUSH1 0x0 DUP3 DUP3 SLOAD PUSH2 0xB3A SWAP2 SWAP1 PUSH2 0x1199 JUMP JUMPDEST SWAP3 POP POP DUP2 SWAP1 SSTORE POP PUSH1 0x0 DUP1 SLOAD SWAP1 PUSH2 0x100 EXP SWAP1 DIV PUSH20 0xFFFFFFFFFFFFFFFFFFFFFFFFFFFFFFFFFFFFFFFF AND PUSH20 0xFFFFFFFFFFFFFFFFFFFFFFFFFFFFFFFFFFFFFFFF AND PUSH4 0xA9059CBB CALLER DUP8 PUSH1 0x40 MLOAD DUP4 PUSH4 0xFFFFFFFF AND PUSH1 0xE0 SHL DUP2 MSTORE PUSH1 0x4 ADD PUSH2 0xB9C SWAP3 SWAP2 SWAP1 PUSH2 0x1201 JUMP JUMPDEST PUSH1 0x20 PUSH1 0x40 MLOAD DUP1 DUP4 SUB DUP2 PUSH1 0x0 DUP8 GAS CALL ISZERO DUP1 ISZERO PUSH2 0xBBB JUMPI RETURNDATASIZE PUSH1 0x0 DUP1 RETURNDATACOPY RETURNDATASIZE PUSH1 0x0 REVERT JUMPDEST POP POP POP POP PUSH1 0x40 MLOAD RETURNDATASIZE PUSH1 0x1F NOT PUSH1 0x1F DUP3 ADD AND DUP3 ADD DUP1 PUSH1 0x40 MSTORE POP DUP2 ADD SWAP1 PUSH2 0xBDF SWAP2 SWAP1 PUSH2 0x1262 JUMP JUMPDEST POP PUSH1 0x0 DUP1 SLOAD SWAP1 PUSH2 0x100 EXP SWAP1 DIV PUSH20 0xFFFFFFFFFFFFFFFFFFFFFFFFFFFFFFFFFFFFFFFF AND PUSH20 0xFFFFFFFFFFFFFFFFFFFFFFFFFFFFFFFFFFFFFFFF AND PUSH1 0x0 PUSH20 0xFFFFFFFFFFFFFFFFFFFFFFFFFFFFFFFFFFFFFFFF AND PUSH32 0xFA2DDA1CC1B86E41239702756B13EFFBC1A092B5C57E3AD320FBE4F3B13FE235 CALLVALUE DUP9 PUSH1 0x40 MLOAD PUSH2 0xC60 SWAP3 SWAP2 SWAP1 PUSH2 0xF4D JUMP JUMPDEST PUSH1 0x40 MLOAD DUP1 SWAP2 SUB SWAP1 LOG3 POP POP POP POP SWAP1 JUMP JUMPDEST PUSH1 0x4 SLOAD DUP2 JUMP JUMPDEST PUSH1 0x6 SLOAD DUP2 JUMP JUMPDEST PUSH1 0x1 PUSH1 0x0 SWAP1 SLOAD SWAP1 PUSH2 0x100 EXP SWAP1 DIV PUSH20 0xFFFFFFFFFFFFFFFFFFFFFFFFFFFFFFFFFFFFFFFF AND DUP2 JUMP JUMPDEST PUSH1 0x0 PUSH20 0xFFFFFFFFFFFFFFFFFFFFFFFFFFFFFFFFFFFFFFFF AND PUSH1 0x0 DUP1 SLOAD SWAP1 PUSH2 0x100 EXP SWAP1 DIV PUSH20 0xFFFFFFFFFFFFFFFFFFFFFFFFFFFFFFFFFFFFFFFF AND PUSH20 0xFFFFFFFFFFFFFFFFFFFFFFFFFFFFFFFFFFFFFFFF AND EQ PUSH2 0xD30 JUMPI PUSH1 0x40 MLOAD PUSH32 0x8C379A000000000000000000000000000000000000000000000000000000000 DUP2 MSTORE PUSH1 0x4 ADD PUSH2 0xD27 SWAP1 PUSH2 0x152E JUMP JUMPDEST PUSH1 0x40 MLOAD DUP1 SWAP2 SUB SWAP1 REVERT JUMPDEST PUSH1 0x0 CALLVALUE GT PUSH2 0xD73 JUMPI PUSH1 0x40 MLOAD PUSH32 0x8C379A000000000000000000000000000000000000000000000000000000000 DUP2 MSTORE PUSH1 0x4 ADD PUSH2 0xD6A SWAP1 PUSH2 0x15C0 JUMP JUMPDEST PUSH1 0x40 MLOAD DUP1 SWAP2 SUB SWAP1 REVERT JUMPDEST DUP4 PUSH1 0x0 DUP1 PUSH2 0x100 EXP DUP2 SLOAD DUP2 PUSH20 0xFFFFFFFFFFFFFFFFFFFFFFFFFFFFFFFFFFFFFFFF MUL NOT AND SWAP1 DUP4 PUSH20 0xFFFFFFFFFFFFFFFFFFFFFFFFFFFFFFFFFFFFFFFF AND MUL OR SWAP1 SSTORE POP DUP3 PUSH1 0x1 PUSH1 0x0 PUSH2 0x100 EXP DUP2 SLOAD DUP2 PUSH20 0xFFFFFFFFFFFFFFFFFFFFFFFFFFFFFFFFFFFFFFFF MUL NOT AND SWAP1 DUP4 PUSH20 0xFFFFFFFFFFFFFFFFFFFFFFFFFFFFFFFFFFFFFFFF AND MUL OR SWAP1 SSTORE POP DUP1 PUSH1 0x4 DUP2 SWAP1 SSTORE POP DUP2 PUSH1 0x2 DUP2 SWAP1 SSTORE POP CALLVALUE PUSH1 0x3 DUP2 SWAP1 SSTORE POP CALLER PUSH20 0xFFFFFFFFFFFFFFFFFFFFFFFFFFFFFFFFFFFFFFFF AND PUSH32 0xAC1D76749E5447B7B16F5AB61447E1BD502F3BB4807AF3B28E620D1700A6EE45 DUP4 CALLVALUE PUSH1 0x40 MLOAD PUSH2 0xE51 SWAP3 SWAP2 SWAP1 PUSH2 0xF4D JUMP JUMPDEST PUSH1 0x40 MLOAD DUP1 SWAP2 SUB SWAP1 LOG2 POP POP POP POP JUMP JUMPDEST PUSH1 0x0 PUSH20 0xFFFFFFFFFFFFFFFFFFFFFFFFFFFFFFFFFFFFFFFF DUP3 AND SWAP1 POP SWAP2 SWAP1 POP JUMP JUMPDEST PUSH1 0x0 PUSH2 0xE8A DUP3 PUSH2 0xE5F JUMP JUMPDEST SWAP1 POP SWAP2 SWAP1 POP JUMP JUMPDEST PUSH2 0xE9A DUP2 PUSH2 0xE7F JUMP JUMPDEST DUP3 MSTORE POP POP JUMP JUMPDEST PUSH1 0x0 PUSH1 0x20 DUP3 ADD SWAP1 POP PUSH2 0xEB5 PUSH1 0x0 DUP4 ADD DUP5 PUSH2 0xE91 JUMP JUMPDEST SWAP3 SWAP2 POP POP JUMP JUMPDEST PUSH1 0x0 DUP1 REVERT JUMPDEST PUSH1 0x0 DUP2 SWAP1 POP SWAP2 SWAP1 POP JUMP JUMPDEST PUSH2 0xED3 DUP2 PUSH2 0xEC0 JUMP JUMPDEST DUP2 EQ PUSH2 0xEDE JUMPI PUSH1 0x0 DUP1 REVERT JUMPDEST POP JUMP JUMPDEST PUSH1 0x0 DUP2 CALLDATALOAD SWAP1 POP PUSH2 0xEF0 DUP2 PUSH2 0xECA JUMP JUMPDEST SWAP3 SWAP2 POP POP JUMP JUMPDEST PUSH1 0x0 PUSH1 0x20 DUP3 DUP5 SUB SLT ISZERO PUSH2 0xF0C JUMPI PUSH2 0xF0B PUSH2 0xEBB JUMP JUMPDEST JUMPDEST PUSH1 0x0 PUSH2 0xF1A DUP5 DUP3 DUP6 ADD PUSH2 0xEE1 JUMP JUMPDEST SWAP2 POP POP SWAP3 SWAP2 POP POP JUMP JUMPDEST PUSH2 0xF2C DUP2 PUSH2 0xEC0 JUMP JUMPDEST DUP3 MSTORE POP POP JUMP JUMPDEST PUSH1 0x0 PUSH1 0x20 DUP3 ADD SWAP1 POP PUSH2 0xF47 PUSH1 0x0 DUP4 ADD DUP5 PUSH2 0xF23 JUMP JUMPDEST SWAP3 SWAP2 POP POP JUMP JUMPDEST PUSH1 0x0 PUSH1 0x40 DUP3 ADD SWAP1 POP PUSH2 0xF62 PUSH1 0x0 DUP4 ADD DUP6 PUSH2 0xF23 JUMP JUMPDEST PUSH2 0xF6F PUSH1 0x20 DUP4 ADD DUP5 PUSH2 0xF23 JUMP JUMPDEST SWAP4 SWAP3 POP POP POP JUMP JUMPDEST PUSH2 0xF7F DUP2 PUSH2 0xE7F JUMP JUMPDEST DUP2 EQ PUSH2 0xF8A JUMPI PUSH1 0x0 DUP1 REVERT JUMPDEST POP JUMP JUMPDEST PUSH1 0x0 DUP2 CALLDATALOAD SWAP1 POP PUSH2 0xF9C DUP2 PUSH2 0xF76 JUMP JUMPDEST SWAP3 SWAP2 POP POP JUMP JUMPDEST PUSH1 0x0 DUP1 PUSH1 0x0 DUP1 PUSH1 0x80 DUP6 DUP8 SUB SLT ISZERO PUSH2 0xFBC JUMPI PUSH2 0xFBB PUSH2 0xEBB JUMP JUMPDEST JUMPDEST PUSH1 0x0 PUSH2 0xFCA DUP8 DUP3 DUP9 ADD PUSH2 0xF8D JUMP JUMPDEST SWAP5 POP POP PUSH1 0x20 PUSH2 0xFDB DUP8 DUP3 DUP9 ADD PUSH2 0xF8D JUMP JUMPDEST SWAP4 POP POP PUSH1 0x40 PUSH2 0xFEC DUP8 DUP3 DUP9 ADD PUSH2 0xEE1 JUMP JUMPDEST SWAP3 POP POP PUSH1 0x60 PUSH2 0xFFD DUP8 DUP3 DUP9 ADD PUSH2 0xEE1 JUMP JUMPDEST SWAP2 POP POP SWAP3 SWAP6 SWAP2 SWAP5 POP SWAP3 POP JUMP JUMPDEST PUSH1 0x0 DUP3 DUP3 MSTORE PUSH1 0x20 DUP3 ADD SWAP1 POP SWAP3 SWAP2 POP POP JUMP JUMPDEST PUSH32 0x4D7573742073656C6C20736F6D6520746F6B656E730000000000000000000000 PUSH1 0x0 DUP3 ADD MSTORE POP JUMP JUMPDEST PUSH1 0x0 PUSH2 0x1050 PUSH1 0x15 DUP4 PUSH2 0x1009 JUMP JUMPDEST SWAP2 POP PUSH2 0x105B DUP3 PUSH2 0x101A JUMP JUMPDEST PUSH1 0x20 DUP3 ADD SWAP1 POP SWAP2 SWAP1 POP JUMP JUMPDEST PUSH1 0x0 PUSH1 0x20 DUP3 ADD SWAP1 POP DUP2 DUP2 SUB PUSH1 0x0 DUP4 ADD MSTORE PUSH2 0x107F DUP2 PUSH2 0x1043 JUMP JUMPDEST SWAP1 POP SWAP2 SWAP1 POP JUMP JUMPDEST PUSH1 0x0 DUP2 MLOAD SWAP1 POP PUSH2 0x1095 DUP2 PUSH2 0xECA JUMP JUMPDEST SWAP3 SWAP2 POP POP JUMP JUMPDEST PUSH1 0x0 PUSH1 0x20 DUP3 DUP5 SUB SLT ISZERO PUSH2 0x10B1 JUMPI PUSH2 0x10B0 PUSH2 0xEBB JUMP JUMPDEST JUMPDEST PUSH1 0x0 PUSH2 0x10BF DUP5 DUP3 DUP6 ADD PUSH2 0x1086 JUMP JUMPDEST SWAP2 POP POP SWAP3 SWAP2 POP POP JUMP JUMPDEST PUSH32 0x4E487B7100000000000000000000000000000000000000000000000000000000 PUSH1 0x0 MSTORE PUSH1 0x11 PUSH1 0x4 MSTORE PUSH1 0x24 PUSH1 0x0 REVERT JUMPDEST PUSH1 0x0 PUSH2 0x1102 DUP3 PUSH2 0xEC0 JUMP JUMPDEST SWAP2 POP PUSH2 0x110D DUP4 PUSH2 0xEC0 JUMP JUMPDEST SWAP3 POP DUP3 DUP3 MUL PUSH2 0x111B DUP2 PUSH2 0xEC0 JUMP JUMPDEST SWAP2 POP DUP3 DUP3 DIV DUP5 EQ DUP4 ISZERO OR PUSH2 0x1132 JUMPI PUSH2 0x1131 PUSH2 0x10C8 JUMP JUMPDEST JUMPDEST POP SWAP3 SWAP2 POP POP JUMP JUMPDEST PUSH32 0x4E487B7100000000000000000000000000000000000000000000000000000000 PUSH1 0x0 MSTORE PUSH1 0x12 PUSH1 0x4 MSTORE PUSH1 0x24 PUSH1 0x0 REVERT JUMPDEST PUSH1 0x0 PUSH2 0x1173 DUP3 PUSH2 0xEC0 JUMP JUMPDEST SWAP2 POP PUSH2 0x117E DUP4 PUSH2 0xEC0 JUMP JUMPDEST SWAP3 POP DUP3 PUSH2 0x118E JUMPI PUSH2 0x118D PUSH2 0x1139 JUMP JUMPDEST JUMPDEST DUP3 DUP3 DIV SWAP1 POP SWAP3 SWAP2 POP POP JUMP JUMPDEST PUSH1 0x0 PUSH2 0x11A4 DUP3 PUSH2 0xEC0 JUMP JUMPDEST SWAP2 POP PUSH2 0x11AF DUP4 PUSH2 0xEC0 JUMP JUMPDEST SWAP3 POP DUP3 DUP3 SUB SWAP1 POP DUP2 DUP2 GT ISZERO PUSH2 0x11C7 JUMPI PUSH2 0x11C6 PUSH2 0x10C8 JUMP JUMPDEST JUMPDEST SWAP3 SWAP2 POP POP JUMP JUMPDEST PUSH1 0x0 PUSH2 0x11D8 DUP3 PUSH2 0xEC0 JUMP JUMPDEST SWAP2 POP PUSH2 0x11E3 DUP4 PUSH2 0xEC0 JUMP JUMPDEST SWAP3 POP DUP3 DUP3 ADD SWAP1 POP DUP1 DUP3 GT ISZERO PUSH2 0x11FB JUMPI PUSH2 0x11FA PUSH2 0x10C8 JUMP JUMPDEST JUMPDEST SWAP3 SWAP2 POP POP JUMP JUMPDEST PUSH1 0x0 PUSH1 0x40 DUP3 ADD SWAP1 POP PUSH2 0x1216 PUSH1 0x0 DUP4 ADD DUP6 PUSH2 0xE91 JUMP JUMPDEST PUSH2 0x1223 PUSH1 0x20 DUP4 ADD DUP5 PUSH2 0xF23 JUMP JUMPDEST SWAP4 SWAP3 POP POP POP JUMP JUMPDEST PUSH1 0x0 DUP2 ISZERO ISZERO SWAP1 POP SWAP2 SWAP1 POP JUMP JUMPDEST PUSH2 0x123F DUP2 PUSH2 0x122A JUMP JUMPDEST DUP2 EQ PUSH2 0x124A JUMPI PUSH1 0x0 DUP1 REVERT JUMPDEST POP JUMP JUMPDEST PUSH1 0x0 DUP2 MLOAD SWAP1 POP PUSH2 0x125C DUP2 PUSH2 0x1236 JUMP JUMPDEST SWAP3 SWAP2 POP POP JUMP JUMPDEST PUSH1 0x0 PUSH1 0x20 DUP3 DUP5 SUB SLT ISZERO PUSH2 0x1278 JUMPI PUSH2 0x1277 PUSH2 0xEBB JUMP JUMPDEST JUMPDEST PUSH1 0x0 PUSH2 0x1286 DUP5 DUP3 DUP6 ADD PUSH2 0x124D JUMP JUMPDEST SWAP2 POP POP SWAP3 SWAP2 POP POP JUMP JUMPDEST PUSH1 0x0 PUSH1 0x60 DUP3 ADD SWAP1 POP PUSH2 0x12A4 PUSH1 0x0 DUP4 ADD DUP7 PUSH2 0xE91 JUMP JUMPDEST PUSH2 0x12B1 PUSH1 0x20 DUP4 ADD DUP6 PUSH2 0xE91 JUMP JUMPDEST PUSH2 0x12BE PUSH1 0x40 DUP4 ADD DUP5 PUSH2 0xF23 JUMP JUMPDEST SWAP5 SWAP4 POP POP POP POP JUMP JUMPDEST PUSH1 0x0 DUP2 SWAP1 POP SWAP3 SWAP2 POP POP JUMP JUMPDEST POP JUMP JUMPDEST PUSH1 0x0 PUSH2 0x12E1 PUSH1 0x0 DUP4 PUSH2 0x12C6 JUMP JUMPDEST SWAP2 POP PUSH2 0x12EC DUP3 PUSH2 0x12D1 JUMP JUMPDEST PUSH1 0x0 DUP3 ADD SWAP1 POP SWAP2 SWAP1 POP JUMP JUMPDEST PUSH1 0x0 PUSH2 0x1302 DUP3 PUSH2 0x12D4 JUMP JUMPDEST SWAP2 POP DUP2 SWAP1 POP SWAP2 SWAP1 POP JUMP JUMPDEST PUSH32 0x4574686572207472616E73666572206661696C65640000000000000000000000 PUSH1 0x0 DUP3 ADD MSTORE POP JUMP JUMPDEST PUSH1 0x0 PUSH2 0x1342 PUSH1 0x15 DUP4 PUSH2 0x1009 JUMP JUMPDEST SWAP2 POP PUSH2 0x134D DUP3 PUSH2 0x130C JUMP JUMPDEST PUSH1 0x20 DUP3 ADD SWAP1 POP SWAP2 SWAP1 POP JUMP JUMPDEST PUSH1 0x0 PUSH1 0x20 DUP3 ADD SWAP1 POP DUP2 DUP2 SUB PUSH1 0x0 DUP4 ADD MSTORE PUSH2 0x1371 DUP2 PUSH2 0x1335 JUMP JUMPDEST SWAP1 POP SWAP2 SWAP1 POP JUMP JUMPDEST PUSH32 0x43616C6C6572206973206E6F742074686520546F6B656E466163746F72790000 PUSH1 0x0 DUP3 ADD MSTORE POP JUMP JUMPDEST PUSH1 0x0 PUSH2 0x13AE PUSH1 0x1E DUP4 PUSH2 0x1009 JUMP JUMPDEST SWAP2 POP PUSH2 0x13B9 DUP3 PUSH2 0x1378 JUMP JUMPDEST PUSH1 0x20 DUP3 ADD SWAP1 POP SWAP2 SWAP1 POP JUMP JUMPDEST PUSH1 0x0 PUSH1 0x20 DUP3 ADD SWAP1 POP DUP2 DUP2 SUB PUSH1 0x0 DUP4 ADD MSTORE PUSH2 0x13DD DUP2 PUSH2 0x13A1 JUMP JUMPDEST SWAP1 POP SWAP2 SWAP1 POP JUMP JUMPDEST PUSH32 0x4D7573742073656E6420457468657220746F2062757920746F6B656E73000000 PUSH1 0x0 DUP3 ADD MSTORE POP JUMP JUMPDEST PUSH1 0x0 PUSH2 0x141A PUSH1 0x1D DUP4 PUSH2 0x1009 JUMP JUMPDEST SWAP2 POP PUSH2 0x1425 DUP3 PUSH2 0x13E4 JUMP JUMPDEST PUSH1 0x20 DUP3 ADD SWAP1 POP SWAP2 SWAP1 POP JUMP JUMPDEST PUSH1 0x0 PUSH1 0x20 DUP3 ADD SWAP1 POP DUP2 DUP2 SUB PUSH1 0x0 DUP4 ADD MSTORE PUSH2 0x1449 DUP2 PUSH2 0x140D JUMP JUMPDEST SWAP1 POP SWAP2 SWAP1 POP JUMP JUMPDEST PUSH32 0x4661696C656420746F2073656E642074617820746F2064657620616464726573 PUSH1 0x0 DUP3 ADD MSTORE PUSH32 0x7300000000000000000000000000000000000000000000000000000000000000 PUSH1 0x20 DUP3 ADD MSTORE POP JUMP JUMPDEST PUSH1 0x0 PUSH2 0x14AC PUSH1 0x21 DUP4 PUSH2 0x1009 JUMP JUMPDEST SWAP2 POP PUSH2 0x14B7 DUP3 PUSH2 0x1450 JUMP JUMPDEST PUSH1 0x40 DUP3 ADD SWAP1 POP SWAP2 SWAP1 POP JUMP JUMPDEST PUSH1 0x0 PUSH1 0x20 DUP3 ADD SWAP1 POP DUP2 DUP2 SUB PUSH1 0x0 DUP4 ADD MSTORE PUSH2 0x14DB DUP2 PUSH2 0x149F JUMP JUMPDEST SWAP1 POP SWAP2 SWAP1 POP JUMP JUMPDEST PUSH32 0x506F6F6C20616C726561647920696E697469616C697A65640000000000000000 PUSH1 0x0 DUP3 ADD MSTORE POP JUMP JUMPDEST PUSH1 0x0 PUSH2 0x1518 PUSH1 0x18 DUP4 PUSH2 0x1009 JUMP JUMPDEST SWAP2 POP PUSH2 0x1523 DUP3 PUSH2 0x14E2 JUMP JUMPDEST PUSH1 0x20 DUP3 ADD SWAP1 POP SWAP2 SWAP1 POP JUMP JUMPDEST PUSH1 0x0 PUSH1 0x20 DUP3 ADD SWAP1 POP DUP2 DUP2 SUB PUSH1 0x0 DUP4 ADD MSTORE PUSH2 0x1547 DUP2 PUSH2 0x150B JUMP JUMPDEST SWAP1 POP SWAP2 SWAP1 POP JUMP JUMPDEST PUSH32 0x496E697469616C206E617469766520746F6B656E20616D6F756E74206D757374 PUSH1 0x0 DUP3 ADD MSTORE PUSH32 0x2062652067726561746572207468616E207A65726F0000000000000000000000 PUSH1 0x20 DUP3 ADD MSTORE POP JUMP JUMPDEST PUSH1 0x0 PUSH2 0x15AA PUSH1 0x35 DUP4 PUSH2 0x1009 JUMP JUMPDEST SWAP2 POP PUSH2 0x15B5 DUP3 PUSH2 0x154E JUMP JUMPDEST PUSH1 0x40 DUP3 ADD SWAP1 POP SWAP2 SWAP1 POP JUMP JUMPDEST PUSH1 0x0 PUSH1 0x20 DUP3 ADD SWAP1 POP DUP2 DUP2 SUB PUSH1 0x0 DUP4 ADD MSTORE PUSH2 0x15D9 DUP2 PUSH2 0x159D JUMP JUMPDEST SWAP1 POP SWAP2 SWAP1 POP JUMP INVALID LOG2 PUSH5 0x6970667358 0x22 SLT KECCAK256 SIGNEXTEND DUP12 SELFBALANCE DUP3 0xEC SHR POP NOT SELFDESTRUCT TSTORE 0xE4 DUP16 SWAP8 CODESIZE 0xDB 0xC3 0xBE 0xF9 0x22 SWAP3 PUSH18 0x99A38D0206B90B5E993B9064736F6C634300 ADDMOD BYTE STOP CALLER "
				},
				"gasEstimates": {
					"creation": {
						"codeDepositCost": "1130800",
						"executionCost": "infinite",
						"totalCost": "infinite"
					},
					"external": {
						"buyToken()": "infinite",
						"calculatePenalty(uint256)": "infinite",
						"devAddress()": "2559",
						"initialize(address,address,uint256,uint256)": "infinite",
						"penaltyThreshold()": "2495",
						"reserve0()": "2518",
						"reserve1()": "2429",
						"sellToken(uint256)": "infinite",
						"taxPercentage()": "2473",
						"token0()": "2512",
						"tokenFactory()": "2602",
						"updateTaxPercentage(uint256)": "infinite"
					}
				},
				"methodIdentifiers": {
					"buyToken()": "a4821719",
					"calculatePenalty(uint256)": "4ecce451",
					"devAddress()": "3ad10ef6",
					"initialize(address,address,uint256,uint256)": "eb990c59",
					"penaltyThreshold()": "c91e5149",
					"reserve0()": "443cb4bc",
					"reserve1()": "5a76f25e",
					"sellToken(uint256)": "2397e4d7",
					"taxPercentage()": "ae7b6d16",
					"token0()": "0dfe1681",
					"tokenFactory()": "e77772fe",
					"updateTaxPercentage(uint256)": "3f131c6a"
				}
			},
			"storageLayout": {
				"storage": [
					{
						"astId": 82,
						"contract": "contracts/token factory/LiquidityPool.sol:LiquidityPool",
						"label": "token0",
						"offset": 0,
						"slot": "0",
						"type": "t_address"
					},
					{
						"astId": 84,
						"contract": "contracts/token factory/LiquidityPool.sol:LiquidityPool",
						"label": "tokenFactory",
						"offset": 0,
						"slot": "1",
						"type": "t_address"
					},
					{
						"astId": 86,
						"contract": "contracts/token factory/LiquidityPool.sol:LiquidityPool",
						"label": "reserve0",
						"offset": 0,
						"slot": "2",
						"type": "t_uint256"
					},
					{
						"astId": 88,
						"contract": "contracts/token factory/LiquidityPool.sol:LiquidityPool",
						"label": "reserve1",
						"offset": 0,
						"slot": "3",
						"type": "t_uint256"
					},
					{
						"astId": 90,
						"contract": "contracts/token factory/LiquidityPool.sol:LiquidityPool",
						"label": "taxPercentage",
						"offset": 0,
						"slot": "4",
						"type": "t_uint256"
					},
					{
						"astId": 92,
						"contract": "contracts/token factory/LiquidityPool.sol:LiquidityPool",
						"label": "devAddress",
						"offset": 0,
						"slot": "5",
						"type": "t_address"
					},
					{
						"astId": 95,
						"contract": "contracts/token factory/LiquidityPool.sol:LiquidityPool",
						"label": "penaltyThreshold",
						"offset": 0,
						"slot": "6",
						"type": "t_uint256"
					}
				],
				"types": {
					"t_address": {
						"encoding": "inplace",
						"label": "address",
						"numberOfBytes": "20"
					},
					"t_uint256": {
						"encoding": "inplace",
						"label": "uint256",
						"numberOfBytes": "32"
					}
				}
			},
			"userdoc": {
				"kind": "user",
				"methods": {},
				"version": 1
			}
		}
	}
}