{
	"contracts/token factory/LiquidityPool.sol": {
		"LiquidityPool": {
			"abi": [
				{
					"inputs": [
						{
							"internalType": "address",
							"name": "_devAddress",
							"type": "address"
						},
						{
							"internalType": "address",
							"name": "_tokenFactory",
							"type": "address"
						},
						{
							"internalType": "uint256",
							"name": "_initialMigrationThreshold",
							"type": "uint256"
						}
					],
					"stateMutability": "nonpayable",
					"type": "constructor"
				},
				{
					"inputs": [],
					"name": "ReentrancyGuardReentrantCall",
					"type": "error"
				},
				{
					"anonymous": false,
					"inputs": [
						{
							"indexed": true,
							"internalType": "address",
							"name": "newInitializer",
							"type": "address"
						}
					],
					"name": "AlgebraPoolInitializerUpdated",
					"type": "event"
				},
				{
					"anonymous": false,
					"inputs": [
						{
							"indexed": false,
							"internalType": "bool",
							"name": "enabled",
							"type": "bool"
						}
					],
					"name": "AutoMigrationToggled",
					"type": "event"
				},
				{
					"anonymous": false,
					"inputs": [
						{
							"indexed": true,
							"internalType": "address",
							"name": "provider",
							"type": "address"
						},
						{
							"indexed": false,
							"internalType": "uint256",
							"name": "tokenAmount",
							"type": "uint256"
						}
					],
					"name": "LiquidityAdded",
					"type": "event"
				},
				{
					"anonymous": false,
					"inputs": [
						{
							"indexed": true,
							"internalType": "address",
							"name": "token",
							"type": "address"
						},
						{
							"indexed": false,
							"internalType": "uint256",
							"name": "tokenAmount",
							"type": "uint256"
						},
						{
							"indexed": false,
							"internalType": "uint256",
							"name": "ethAmount",
							"type": "uint256"
						}
					],
					"name": "MigrationExecuted",
					"type": "event"
				},
				{
					"anonymous": false,
					"inputs": [
						{
							"indexed": true,
							"internalType": "address",
							"name": "poolAddress",
							"type": "address"
						},
						{
							"indexed": false,
							"internalType": "uint256",
							"name": "timestamp",
							"type": "uint256"
						}
					],
					"name": "MigrationStarted",
					"type": "event"
				},
				{
					"anonymous": false,
					"inputs": [
						{
							"indexed": false,
							"internalType": "uint256",
							"name": "newThreshold",
							"type": "uint256"
						}
					],
					"name": "MigrationThresholdUpdated",
					"type": "event"
				},
				{
					"anonymous": false,
					"inputs": [
						{
							"indexed": true,
							"internalType": "address",
							"name": "newPoolAddress",
							"type": "address"
						},
						{
							"indexed": false,
							"internalType": "uint256",
							"name": "tokenTransferred",
							"type": "uint256"
						},
						{
							"indexed": false,
							"internalType": "uint256",
							"name": "etherTransferred",
							"type": "uint256"
						}
					],
					"name": "MigrationToAlgebra",
					"type": "event"
				},
				{
					"anonymous": false,
					"inputs": [
						{
							"indexed": false,
							"internalType": "string",
							"name": "step",
							"type": "string"
						},
						{
							"indexed": true,
							"internalType": "address",
							"name": "dataAddress",
							"type": "address"
						},
						{
							"indexed": true,
							"internalType": "uint256",
							"name": "value",
							"type": "uint256"
						}
					],
					"name": "Step",
					"type": "event"
				},
				{
					"anonymous": false,
					"inputs": [
						{
							"indexed": false,
							"internalType": "uint256",
							"name": "newBuyTax",
							"type": "uint256"
						},
						{
							"indexed": false,
							"internalType": "uint256",
							"name": "newSellTax",
							"type": "uint256"
						}
					],
					"name": "TaxUpdated",
					"type": "event"
				},
				{
					"anonymous": false,
					"inputs": [
						{
							"indexed": true,
							"internalType": "address",
							"name": "buyer",
							"type": "address"
						},
						{
							"indexed": false,
							"internalType": "uint256",
							"name": "amountIn",
							"type": "uint256"
						},
						{
							"indexed": false,
							"internalType": "uint256",
							"name": "amountOut",
							"type": "uint256"
						},
						{
							"indexed": false,
							"internalType": "uint256",
							"name": "tax",
							"type": "uint256"
						}
					],
					"name": "TokensPurchased",
					"type": "event"
				},
				{
					"anonymous": false,
					"inputs": [
						{
							"indexed": true,
							"internalType": "address",
							"name": "seller",
							"type": "address"
						},
						{
							"indexed": false,
							"internalType": "uint256",
							"name": "amountIn",
							"type": "uint256"
						},
						{
							"indexed": false,
							"internalType": "uint256",
							"name": "amountOut",
							"type": "uint256"
						},
						{
							"indexed": false,
							"internalType": "uint256",
							"name": "tax",
							"type": "uint256"
						}
					],
					"name": "TokensSold",
					"type": "event"
				},
				{
					"inputs": [],
					"name": "X_DELTA_LOWER",
					"outputs": [
						{
							"internalType": "uint256",
							"name": "",
							"type": "uint256"
						}
					],
					"stateMutability": "view",
					"type": "function"
				},
				{
					"inputs": [],
					"name": "X_DELTA_UPPER",
					"outputs": [
						{
							"internalType": "uint256",
							"name": "",
							"type": "uint256"
						}
					],
					"stateMutability": "view",
					"type": "function"
				},
				{
					"inputs": [],
					"name": "Y_DELTA_LOWER",
					"outputs": [
						{
							"internalType": "uint256",
							"name": "",
							"type": "uint256"
						}
					],
					"stateMutability": "view",
					"type": "function"
				},
				{
					"inputs": [],
					"name": "Y_DELTA_UPPER",
					"outputs": [
						{
							"internalType": "uint256",
							"name": "",
							"type": "uint256"
						}
					],
					"stateMutability": "view",
					"type": "function"
				},
				{
					"inputs": [],
					"name": "algebraPoolInitializer",
					"outputs": [
						{
							"internalType": "address",
							"name": "",
							"type": "address"
						}
					],
					"stateMutability": "view",
					"type": "function"
				},
				{
					"inputs": [],
					"name": "autoMigrationEnabled",
					"outputs": [
						{
							"internalType": "bool",
							"name": "",
							"type": "bool"
						}
					],
					"stateMutability": "view",
					"type": "function"
				},
				{
					"inputs": [],
					"name": "buyTax",
					"outputs": [
						{
							"internalType": "uint256",
							"name": "",
							"type": "uint256"
						}
					],
					"stateMutability": "view",
					"type": "function"
				},
				{
					"inputs": [],
					"name": "buyToken",
					"outputs": [
						{
							"internalType": "uint256",
							"name": "amountOut",
							"type": "uint256"
						}
					],
					"stateMutability": "payable",
					"type": "function"
				},
				{
					"inputs": [
						{
							"internalType": "uint256",
							"name": "amount0",
							"type": "uint256"
						},
						{
							"internalType": "uint256",
							"name": "amount1",
							"type": "uint256"
						}
					],
					"name": "calculateSqrtPriceX96",
					"outputs": [
						{
							"internalType": "uint160",
							"name": "",
							"type": "uint160"
						}
					],
					"stateMutability": "pure",
					"type": "function"
				},
				{
					"inputs": [],
					"name": "devAddress",
					"outputs": [
						{
							"internalType": "address",
							"name": "",
							"type": "address"
						}
					],
					"stateMutability": "view",
					"type": "function"
				},
				{
					"inputs": [],
					"name": "forceMigration",
					"outputs": [],
					"stateMutability": "nonpayable",
					"type": "function"
				},
				{
					"inputs": [],
					"name": "getReserves",
					"outputs": [
						{
							"internalType": "uint256",
							"name": "",
							"type": "uint256"
						},
						{
							"internalType": "uint256",
							"name": "",
							"type": "uint256"
						}
					],
					"stateMutability": "view",
					"type": "function"
				},
				{
					"inputs": [
						{
							"internalType": "address",
							"name": "_token0",
							"type": "address"
						},
						{
							"internalType": "uint256",
							"name": "_initialTokenReserve",
							"type": "uint256"
						},
						{
							"internalType": "uint256",
							"name": "_buyTax",
							"type": "uint256"
						},
						{
							"internalType": "uint256",
							"name": "_sellTax",
							"type": "uint256"
						},
						{
							"internalType": "address",
							"name": "_algebraPoolInitializer",
							"type": "address"
						},
						{
							"internalType": "bool",
							"name": "_automigration",
							"type": "bool"
						}
					],
					"name": "initialize",
					"outputs": [],
					"stateMutability": "payable",
					"type": "function"
				},
				{
					"inputs": [],
					"name": "migratedToAlgebra",
					"outputs": [
						{
							"internalType": "bool",
							"name": "",
							"type": "bool"
						}
					],
					"stateMutability": "view",
					"type": "function"
				},
				{
					"inputs": [],
					"name": "migrationThreshold",
					"outputs": [
						{
							"internalType": "uint256",
							"name": "",
							"type": "uint256"
						}
					],
					"stateMutability": "view",
					"type": "function"
				},
				{
					"inputs": [],
					"name": "migrator",
					"outputs": [
						{
							"internalType": "address",
							"name": "",
							"type": "address"
						}
					],
					"stateMutability": "view",
					"type": "function"
				},
				{
					"inputs": [],
					"name": "reserve0",
					"outputs": [
						{
							"internalType": "uint256",
							"name": "",
							"type": "uint256"
						}
					],
					"stateMutability": "view",
					"type": "function"
				},
				{
					"inputs": [],
					"name": "reserve1",
					"outputs": [
						{
							"internalType": "uint256",
							"name": "",
							"type": "uint256"
						}
					],
					"stateMutability": "view",
					"type": "function"
				},
				{
					"inputs": [],
					"name": "sellTax",
					"outputs": [
						{
							"internalType": "uint256",
							"name": "",
							"type": "uint256"
						}
					],
					"stateMutability": "view",
					"type": "function"
				},
				{
					"inputs": [
						{
							"internalType": "uint256",
							"name": "amountIn",
							"type": "uint256"
						}
					],
					"name": "sellToken",
					"outputs": [
						{
							"internalType": "uint256",
							"name": "amountOut",
							"type": "uint256"
						}
					],
					"stateMutability": "nonpayable",
					"type": "function"
				},
				{
					"inputs": [
						{
							"internalType": "address",
							"name": "_initializer",
							"type": "address"
						}
					],
					"name": "setAlgebraPoolInitializer",
					"outputs": [],
					"stateMutability": "nonpayable",
					"type": "function"
				},
				{
					"inputs": [
						{
							"internalType": "bool",
							"name": "enable",
							"type": "bool"
						}
					],
					"name": "toggleAutoMigration",
					"outputs": [],
					"stateMutability": "nonpayable",
					"type": "function"
				},
				{
					"inputs": [],
					"name": "token0",
					"outputs": [
						{
							"internalType": "address",
							"name": "",
							"type": "address"
						}
					],
					"stateMutability": "view",
					"type": "function"
				},
				{
					"inputs": [],
					"name": "tokenFactory",
					"outputs": [
						{
							"internalType": "address",
							"name": "",
							"type": "address"
						}
					],
					"stateMutability": "view",
					"type": "function"
				},
				{
					"inputs": [
						{
							"internalType": "uint256",
							"name": "newBuyTax",
							"type": "uint256"
						}
					],
					"name": "updateBuyTax",
					"outputs": [],
					"stateMutability": "nonpayable",
					"type": "function"
				},
				{
					"inputs": [
						{
							"internalType": "uint256",
							"name": "newThreshold",
							"type": "uint256"
						}
					],
					"name": "updateMigrationThreshold",
					"outputs": [],
					"stateMutability": "nonpayable",
					"type": "function"
				},
				{
					"inputs": [
						{
							"internalType": "uint256",
							"name": "newSellTax",
							"type": "uint256"
						}
					],
					"name": "updateSellTax",
					"outputs": [],
					"stateMutability": "nonpayable",
					"type": "function"
				}
			],
			"devdoc": {
				"errors": {
					"ReentrancyGuardReentrantCall()": [
						{
							"details": "Unauthorized reentrant call."
						}
					]
				},
				"kind": "dev",
				"methods": {},
				"version": 1
			},
			"evm": {
				"assembly": "    /* \"contracts/token factory/LiquidityPool.sol\":599:11222  contract LiquidityPool is ReentrancyGuard {... */\n  mstore(0x40, 0x80)\n    /* \"contracts/token factory/LiquidityPool.sol\":1499:1538  bool public autoMigrationEnabled = true */\n  0x0a\n  dup1\n  sload\n  not(0xff00)\n  and\n  0x0100\n  or\n  swap1\n  sstore\n    /* \"contracts/token factory/LiquidityPool.sol\":2662:3116  constructor(address _devAddress, address _tokenFactory, uint256 _initialMigrationThreshold) {... */\n  callvalue\n  dup1\n  iszero\n  tag_1\n  jumpi\n  0x00\n  dup1\n  revert\ntag_1:\n  pop\n  mload(0x40)\n  sub(codesize, bytecodeSize)\n  dup1\n  bytecodeSize\n  dup4\n  codecopy\n  dup2\n  add\n  0x40\n  dup2\n  swap1\n  mstore\n  tag_2\n  swap2\n  tag_3\n  jump\t// in\ntag_2:\n    /* \"@openzeppelin/contracts/utils/ReentrancyGuard.sol\":1857:1858  1 */\n  0x01\n    /* \"@openzeppelin/contracts/utils/ReentrancyGuard.sol\":2061:2068  _status */\n  0x00\n    /* \"@openzeppelin/contracts/utils/ReentrancyGuard.sol\":2061:2082  _status = NOT_ENTERED */\n  sstore\n  sub(shl(0xa0, 0x01), 0x01)\n    /* \"contracts/token factory/LiquidityPool.sol\":2772:2797  _devAddress != address(0) */\n  dup4\n  and\n    /* \"contracts/token factory/LiquidityPool.sol\":2764:2834  require(_devAddress != address(0), \"Developer address cannot be zero\") */\n  tag_8\n  jumpi\n  mload(0x40)\n  shl(0xe5, 0x461bcd)\n  dup2\n  mstore\n    /* \"#utility.yul\":757:759   */\n  0x20\n    /* \"contracts/token factory/LiquidityPool.sol\":2764:2834  require(_devAddress != address(0), \"Developer address cannot be zero\") */\n  0x04\n  dup3\n  add\n    /* \"#utility.yul\":739:760   */\n  dup2\n  swap1\n  mstore\n    /* \"#utility.yul\":776:794   */\n  0x24\n  dup3\n  add\n    /* \"#utility.yul\":769:799   */\n  mstore\n    /* \"#utility.yul\":835:869   */\n  0x446576656c6f70657220616464726573732063616e6e6f74206265207a65726f\n    /* \"#utility.yul\":815:833   */\n  0x44\n  dup3\n  add\n    /* \"#utility.yul\":808:870   */\n  mstore\n    /* \"#utility.yul\":887:905   */\n  0x64\n  add\n    /* \"contracts/token factory/LiquidityPool.sol\":2764:2834  require(_devAddress != address(0), \"Developer address cannot be zero\") */\ntag_9:\n  mload(0x40)\n  dup1\n  swap2\n  sub\n  swap1\n  revert\ntag_8:\n  sub(shl(0xa0, 0x01), 0x01)\n    /* \"contracts/token factory/LiquidityPool.sol\":2852:2879  _tokenFactory != address(0) */\n  dup3\n  and\n    /* \"contracts/token factory/LiquidityPool.sol\":2844:2919  require(_tokenFactory != address(0), \"TokenFactory address cannot be zero\") */\n  tag_11\n  jumpi\n  mload(0x40)\n  shl(0xe5, 0x461bcd)\n  dup2\n  mstore\n    /* \"#utility.yul\":1118:1120   */\n  0x20\n    /* \"contracts/token factory/LiquidityPool.sol\":2844:2919  require(_tokenFactory != address(0), \"TokenFactory address cannot be zero\") */\n  0x04\n  dup3\n  add\n    /* \"#utility.yul\":1100:1121   */\n  mstore\n    /* \"#utility.yul\":1157:1159   */\n  0x23\n    /* \"#utility.yul\":1137:1155   */\n  0x24\n  dup3\n  add\n    /* \"#utility.yul\":1130:1160   */\n  mstore\n    /* \"#utility.yul\":1196:1230   */\n  0x546f6b656e466163746f727920616464726573732063616e6e6f74206265207a\n    /* \"#utility.yul\":1176:1194   */\n  0x44\n  dup3\n  add\n    /* \"#utility.yul\":1169:1231   */\n  mstore\n  shl(0xe8, 0x65726f)\n    /* \"#utility.yul\":1247:1265   */\n  0x64\n  dup3\n  add\n    /* \"#utility.yul\":1240:1273   */\n  mstore\n    /* \"#utility.yul\":1290:1309   */\n  0x84\n  add\n    /* \"contracts/token factory/LiquidityPool.sol\":2844:2919  require(_tokenFactory != address(0), \"TokenFactory address cannot be zero\") */\n  tag_9\n    /* \"#utility.yul\":916:1315   */\n  jump\n    /* \"contracts/token factory/LiquidityPool.sol\":2844:2919  require(_tokenFactory != address(0), \"TokenFactory address cannot be zero\") */\ntag_11:\n    /* \"contracts/token factory/LiquidityPool.sol\":2929:2939  devAddress */\n  0x03\n    /* \"contracts/token factory/LiquidityPool.sol\":2929:2953  devAddress = _devAddress */\n  dup1\n  sload\n  sub(shl(0xa0, 0x01), 0x01)\n  swap5\n  dup6\n  and\n  not(sub(shl(0xa0, 0x01), 0x01))\n  swap2\n  dup3\n  and\n  or\n  swap1\n  swap2\n  sstore\n    /* \"contracts/token factory/LiquidityPool.sol\":2963:2975  tokenFactory */\n  0x02\n    /* \"contracts/token factory/LiquidityPool.sol\":2963:2991  tokenFactory = _tokenFactory */\n  dup1\n  sload\n  swap4\n  swap1\n  swap5\n  and\n  swap3\n  and\n  swap2\n  swap1\n  swap2\n  or\n  swap1\n  swap2\n  sstore\n    /* \"contracts/token factory/LiquidityPool.sol\":3001:3019  migrationThreshold */\n  0x0b\n    /* \"contracts/token factory/LiquidityPool.sol\":3001:3048  migrationThreshold = _initialMigrationThreshold */\n  sstore\n    /* \"contracts/token factory/LiquidityPool.sol\":3058:3078  autoMigrationEnabled */\n  0x0a\n    /* \"contracts/token factory/LiquidityPool.sol\":3058:3086  autoMigrationEnabled = false */\n  dup1\n  sload\n  not(0xff00)\n  and\n  swap1\n  sstore\n    /* \"contracts/token factory/LiquidityPool.sol\":599:11222  contract LiquidityPool is ReentrancyGuard {... */\n  jump(tag_16)\n    /* \"#utility.yul\":14:191   */\ntag_15:\n    /* \"#utility.yul\":93:106   */\n  dup1\n  mload\n  sub(shl(0xa0, 0x01), 0x01)\n    /* \"#utility.yul\":135:166   */\n  dup2\n  and\n    /* \"#utility.yul\":125:167   */\n  dup2\n  eq\n    /* \"#utility.yul\":115:185   */\n  tag_18\n  jumpi\n    /* \"#utility.yul\":181:182   */\n  0x00\n    /* \"#utility.yul\":178:179   */\n  dup1\n    /* \"#utility.yul\":171:183   */\n  revert\n    /* \"#utility.yul\":115:185   */\ntag_18:\n    /* \"#utility.yul\":14:191   */\n  swap2\n  swap1\n  pop\n  jump\t// out\n    /* \"#utility.yul\":196:550   */\ntag_3:\n    /* \"#utility.yul\":284:290   */\n  0x00\n    /* \"#utility.yul\":292:298   */\n  dup1\n    /* \"#utility.yul\":300:306   */\n  0x00\n    /* \"#utility.yul\":353:355   */\n  0x60\n    /* \"#utility.yul\":341:350   */\n  dup5\n    /* \"#utility.yul\":332:339   */\n  dup7\n    /* \"#utility.yul\":328:351   */\n  sub\n    /* \"#utility.yul\":324:356   */\n  slt\n    /* \"#utility.yul\":321:373   */\n  iszero\n  tag_20\n  jumpi\n    /* \"#utility.yul\":369:370   */\n  0x00\n    /* \"#utility.yul\":366:367   */\n  dup1\n    /* \"#utility.yul\":359:371   */\n  revert\n    /* \"#utility.yul\":321:373   */\ntag_20:\n    /* \"#utility.yul\":392:432   */\n  tag_21\n    /* \"#utility.yul\":422:431   */\n  dup5\n    /* \"#utility.yul\":392:432   */\n  tag_15\n  jump\t// in\ntag_21:\n    /* \"#utility.yul\":382:432   */\n  swap3\n  pop\n    /* \"#utility.yul\":451:500   */\n  tag_22\n    /* \"#utility.yul\":496:498   */\n  0x20\n    /* \"#utility.yul\":485:494   */\n  dup6\n    /* \"#utility.yul\":481:499   */\n  add\n    /* \"#utility.yul\":451:500   */\n  tag_15\n  jump\t// in\ntag_22:\n    /* \"#utility.yul\":441:500   */\n  swap2\n  pop\n    /* \"#utility.yul\":540:542   */\n  0x40\n    /* \"#utility.yul\":529:538   */\n  dup5\n    /* \"#utility.yul\":525:543   */\n  add\n    /* \"#utility.yul\":519:544   */\n  mload\n    /* \"#utility.yul\":509:544   */\n  swap1\n  pop\n    /* \"#utility.yul\":196:550   */\n  swap3\n  pop\n  swap3\n  pop\n  swap3\n  jump\t// out\n    /* \"#utility.yul\":916:1315   */\ntag_16:\n    /* \"contracts/token factory/LiquidityPool.sol\":599:11222  contract LiquidityPool is ReentrancyGuard {... */\n  dataSize(sub_0)\n  dup1\n  dataOffset(sub_0)\n  0x00\n  codecopy\n  0x00\n  return\nstop\n\nsub_0: assembly {\n        /* \"contracts/token factory/LiquidityPool.sol\":599:11222  contract LiquidityPool is ReentrancyGuard {... */\n      mstore(0x40, 0x80)\n      jumpi(tag_1, lt(calldatasize, 0x04))\n      shr(0xe0, calldataload(0x00))\n      dup1\n      0x5a76f25e\n      gt\n      tag_29\n      jumpi\n      dup1\n      0xa000bf4f\n      gt\n      tag_30\n      jumpi\n      dup1\n      0xc98a0aa8\n      gt\n      tag_31\n      jumpi\n      dup1\n      0xc98a0aa8\n      eq\n      tag_25\n      jumpi\n      dup1\n      0xc98b7fd2\n      eq\n      tag_26\n      jumpi\n      dup1\n      0xcc1776d3\n      eq\n      tag_27\n      jumpi\n      dup1\n      0xe77772fe\n      eq\n      tag_28\n      jumpi\n      0x00\n      dup1\n      revert\n    tag_31:\n      dup1\n      0xa000bf4f\n      eq\n      tag_22\n      jumpi\n      dup1\n      0xa4821719\n      eq\n      tag_23\n      jumpi\n      dup1\n      0xafd6b3c1\n      eq\n      tag_24\n      jumpi\n      0x00\n      dup1\n      revert\n    tag_30:\n      dup1\n      0x8d5f17aa\n      gt\n      tag_32\n      jumpi\n      dup1\n      0x8d5f17aa\n      eq\n      tag_18\n      jumpi\n      dup1\n      0x90bc1e85\n      eq\n      tag_19\n      jumpi\n      dup1\n      0x96343fd5\n      eq\n      tag_20\n      jumpi\n      dup1\n      0x9ed7ef4e\n      eq\n      tag_21\n      jumpi\n      0x00\n      dup1\n      revert\n    tag_32:\n      dup1\n      0x5a76f25e\n      eq\n      tag_15\n      jumpi\n      dup1\n      0x60c72883\n      eq\n      tag_16\n      jumpi\n      dup1\n      0x7cd07e47\n      eq\n      tag_17\n      jumpi\n      0x00\n      dup1\n      revert\n    tag_29:\n      dup1\n      0x2182ad88\n      gt\n      tag_33\n      jumpi\n      dup1\n      0x3ad10ef6\n      gt\n      tag_34\n      jumpi\n      dup1\n      0x3ad10ef6\n      eq\n      tag_11\n      jumpi\n      dup1\n      0x436d3340\n      eq\n      tag_12\n      jumpi\n      dup1\n      0x443cb4bc\n      eq\n      tag_13\n      jumpi\n      dup1\n      0x4f7041a5\n      eq\n      tag_14\n      jumpi\n      0x00\n      dup1\n      revert\n    tag_34:\n      dup1\n      0x2182ad88\n      eq\n      tag_8\n      jumpi\n      dup1\n      0x2397e4d7\n      eq\n      tag_9\n      jumpi\n      dup1\n      0x299ce7b2\n      eq\n      tag_10\n      jumpi\n      0x00\n      dup1\n      revert\n    tag_33:\n      dup1\n      0x04c80c82\n      eq\n      tag_2\n      jumpi\n      dup1\n      0x04ccde37\n      eq\n      tag_3\n      jumpi\n      dup1\n      0x0902f1ac\n      eq\n      tag_4\n      jumpi\n      dup1\n      0x0dfe1681\n      eq\n      tag_5\n      jumpi\n      dup1\n      0x0f0e7c8a\n      eq\n      tag_6\n      jumpi\n      dup1\n      0x12185a39\n      eq\n      tag_7\n      jumpi\n    tag_1:\n      0x00\n      dup1\n      revert\n        /* \"contracts/token factory/LiquidityPool.sol\":720:787  uint256 public constant X_DELTA_UPPER = 257627658726993462773682809 */\n    tag_2:\n      callvalue\n      dup1\n      iszero\n      tag_35\n      jumpi\n      0x00\n      dup1\n      revert\n    tag_35:\n      pop\n      tag_36\n        /* \"contracts/token factory/LiquidityPool.sol\":760:787  257627658726993462773682809 */\n      0xd51ac75d3cbca700901279\n        /* \"contracts/token factory/LiquidityPool.sol\":720:787  uint256 public constant X_DELTA_UPPER = 257627658726993462773682809 */\n      dup2\n      jump\n    tag_36:\n      mload(0x40)\n        /* \"#utility.yul\":160:185   */\n      swap1\n      dup2\n      mstore\n        /* \"#utility.yul\":148:150   */\n      0x20\n        /* \"#utility.yul\":133:151   */\n      add\n        /* \"contracts/token factory/LiquidityPool.sol\":720:787  uint256 public constant X_DELTA_UPPER = 257627658726993462773682809 */\n    tag_38:\n      mload(0x40)\n      dup1\n      swap2\n      sub\n      swap1\n      return\n        /* \"contracts/token factory/LiquidityPool.sol\":3745:4018  function setAlgebraPoolInitializer(address _initializer) external onlyFactory {... */\n    tag_3:\n      callvalue\n      dup1\n      iszero\n      tag_40\n      jumpi\n      0x00\n      dup1\n      revert\n    tag_40:\n      pop\n      tag_41\n      tag_42\n      calldatasize\n      0x04\n      tag_43\n      jump\t// in\n    tag_42:\n      tag_44\n      jump\t// in\n    tag_41:\n      stop\n        /* \"contracts/token factory/LiquidityPool.sol\":10080:10188  function getReserves() external view returns (uint256, uint256) {... */\n    tag_4:\n      callvalue\n      dup1\n      iszero\n      tag_45\n      jumpi\n      0x00\n      dup1\n      revert\n    tag_45:\n      pop\n        /* \"contracts/token factory/LiquidityPool.sol\":10162:10170  reserve0 */\n      sload(0x06)\n        /* \"contracts/token factory/LiquidityPool.sol\":10172:10180  reserve1 */\n      sload(0x07)\n        /* \"contracts/token factory/LiquidityPool.sol\":10080:10188  function getReserves() external view returns (uint256, uint256) {... */\n      0x40\n      dup1\n      mload\n        /* \"#utility.yul\":739:764   */\n      swap3\n      dup4\n      mstore\n        /* \"#utility.yul\":795:797   */\n      0x20\n        /* \"#utility.yul\":780:798   */\n      dup4\n      add\n        /* \"#utility.yul\":773:807   */\n      swap2\n      swap1\n      swap2\n      mstore\n        /* \"#utility.yul\":712:730   */\n      add\n        /* \"contracts/token factory/LiquidityPool.sol\":10080:10188  function getReserves() external view returns (uint256, uint256) {... */\n      tag_38\n        /* \"#utility.yul\":565:813   */\n      jump\n        /* \"contracts/token factory/LiquidityPool.sol\":920:941  address public token0 */\n    tag_5:\n      callvalue\n      dup1\n      iszero\n      tag_50\n      jumpi\n      0x00\n      dup1\n      revert\n    tag_50:\n      pop\n      sload(0x01)\n      tag_51\n      swap1\n      sub(shl(0xa0, 0x01), 0x01)\n      and\n      dup2\n      jump\n    tag_51:\n      mload(0x40)\n      sub(shl(0xa0, 0x01), 0x01)\n        /* \"#utility.yul\":982:1014   */\n      swap1\n      swap2\n      and\n        /* \"#utility.yul\":964:1015   */\n      dup2\n      mstore\n        /* \"#utility.yul\":952:954   */\n      0x20\n        /* \"#utility.yul\":937:955   */\n      add\n        /* \"contracts/token factory/LiquidityPool.sol\":920:941  address public token0 */\n      tag_38\n        /* \"#utility.yul\":818:1021   */\n      jump\n        /* \"contracts/token factory/LiquidityPool.sol\":647:714  uint256 public constant X_DELTA_LOWER = 257627658726967931872702964 */\n    tag_6:\n      callvalue\n      dup1\n      iszero\n      tag_55\n      jumpi\n      0x00\n      dup1\n      revert\n    tag_55:\n      pop\n      tag_36\n        /* \"contracts/token factory/LiquidityPool.sol\":687:714  257627658726967931872702964 */\n      0xd51ac75d3ca56ea04771f4\n        /* \"contracts/token factory/LiquidityPool.sol\":647:714  uint256 public constant X_DELTA_LOWER = 257627658726967931872702964 */\n      dup2\n      jump\n        /* \"contracts/token factory/LiquidityPool.sol\":10342:10488  function updateSellTax(uint256 newSellTax) external onlyFactory {... */\n    tag_7:\n      callvalue\n      dup1\n      iszero\n      tag_59\n      jumpi\n      0x00\n      dup1\n      revert\n    tag_59:\n      pop\n      tag_41\n      tag_61\n      calldatasize\n      0x04\n      tag_62\n      jump\t// in\n    tag_61:\n      tag_63\n      jump\t// in\n        /* \"contracts/token factory/LiquidityPool.sol\":856:913  uint256 public constant Y_DELTA_UPPER = 31864892854294116 */\n    tag_8:\n      callvalue\n      dup1\n      iszero\n      tag_64\n      jumpi\n      0x00\n      dup1\n      revert\n    tag_64:\n      pop\n      tag_36\n        /* \"contracts/token factory/LiquidityPool.sol\":896:913  31864892854294116 */\n      0x7134f38362d664\n        /* \"contracts/token factory/LiquidityPool.sol\":856:913  uint256 public constant Y_DELTA_UPPER = 31864892854294116 */\n      dup2\n      jump\n        /* \"contracts/token factory/LiquidityPool.sol\":8872:10074  function sellToken(... */\n    tag_9:\n      callvalue\n      dup1\n      iszero\n      tag_68\n      jumpi\n      0x00\n      dup1\n      revert\n    tag_68:\n      pop\n      tag_36\n      tag_70\n      calldatasize\n      0x04\n      tag_62\n      jump\t// in\n    tag_70:\n      tag_71\n      jump\t// in\n        /* \"contracts/token factory/LiquidityPool.sol\":1420:1449  bool public migratedToAlgebra */\n    tag_10:\n      callvalue\n      dup1\n      iszero\n      tag_73\n      jumpi\n      0x00\n      dup1\n      revert\n    tag_73:\n      pop\n      sload(0x0a)\n      tag_74\n      swap1\n      0xff\n      and\n      dup2\n      jump\n    tag_74:\n      mload(0x40)\n        /* \"#utility.yul\":1422:1436   */\n      swap1\n      iszero\n        /* \"#utility.yul\":1415:1437   */\n      iszero\n        /* \"#utility.yul\":1397:1438   */\n      dup2\n      mstore\n        /* \"#utility.yul\":1385:1387   */\n      0x20\n        /* \"#utility.yul\":1370:1388   */\n      add\n        /* \"contracts/token factory/LiquidityPool.sol\":1420:1449  bool public migratedToAlgebra */\n      tag_38\n        /* \"#utility.yul\":1257:1444   */\n      jump\n        /* \"contracts/token factory/LiquidityPool.sol\":1027:1052  address public devAddress */\n    tag_11:\n      callvalue\n      dup1\n      iszero\n      tag_78\n      jumpi\n      0x00\n      dup1\n      revert\n    tag_78:\n      pop\n      sload(0x03)\n      tag_51\n      swap1\n      sub(shl(0xa0, 0x01), 0x01)\n      and\n      dup2\n      jump\n        /* \"contracts/token factory/LiquidityPool.sol\":10194:10336  function updateBuyTax(uint256 newBuyTax) external onlyFactory {... */\n    tag_12:\n      callvalue\n      dup1\n      iszero\n      tag_82\n      jumpi\n      0x00\n      dup1\n      revert\n    tag_82:\n      pop\n      tag_41\n      tag_84\n      calldatasize\n      0x04\n      tag_62\n      jump\t// in\n    tag_84:\n      tag_85\n      jump\t// in\n        /* \"contracts/token factory/LiquidityPool.sol\":1196:1219  uint256 public reserve0 */\n    tag_13:\n      callvalue\n      dup1\n      iszero\n      tag_86\n      jumpi\n      0x00\n      dup1\n      revert\n    tag_86:\n      pop\n      tag_36\n      sload(0x06)\n      dup2\n      jump\n        /* \"contracts/token factory/LiquidityPool.sol\":1312:1333  uint256 public buyTax */\n    tag_14:\n      callvalue\n      dup1\n      iszero\n      tag_90\n      jumpi\n      0x00\n      dup1\n      revert\n    tag_90:\n      pop\n      tag_36\n      sload(0x08)\n      dup2\n      jump\n        /* \"contracts/token factory/LiquidityPool.sol\":1242:1265  uint256 public reserve1 */\n    tag_15:\n      callvalue\n      dup1\n      iszero\n      tag_94\n      jumpi\n      0x00\n      dup1\n      revert\n    tag_94:\n      pop\n      tag_36\n      sload(0x07)\n      dup2\n      jump\n        /* \"contracts/token factory/LiquidityPool.sol\":793:850  uint256 public constant Y_DELTA_LOWER = 31864892854290958 */\n    tag_16:\n      callvalue\n      dup1\n      iszero\n      tag_98\n      jumpi\n      0x00\n      dup1\n      revert\n    tag_98:\n      pop\n      tag_36\n        /* \"contracts/token factory/LiquidityPool.sol\":833:850  31864892854290958 */\n      0x7134f38362ca0e\n        /* \"contracts/token factory/LiquidityPool.sol\":793:850  uint256 public constant Y_DELTA_LOWER = 31864892854290958 */\n      dup2\n      jump\n        /* \"contracts/token factory/LiquidityPool.sol\":1166:1189  address public migrator */\n    tag_17:\n      callvalue\n      dup1\n      iszero\n      tag_102\n      jumpi\n      0x00\n      dup1\n      revert\n    tag_102:\n      pop\n      sload(0x05)\n      tag_51\n      swap1\n      sub(shl(0xa0, 0x01), 0x01)\n      and\n      dup2\n      jump\n        /* \"contracts/token factory/LiquidityPool.sol\":1499:1538  bool public autoMigrationEnabled = true */\n    tag_18:\n      callvalue\n      dup1\n      iszero\n      tag_106\n      jumpi\n      0x00\n      dup1\n      revert\n    tag_106:\n      pop\n      sload(0x0a)\n      tag_74\n      swap1\n      0x0100\n      swap1\n      div\n      0xff\n      and\n      dup2\n      jump\n        /* \"contracts/token factory/LiquidityPool.sol\":1581:1614  uint256 public migrationThreshold */\n    tag_19:\n      callvalue\n      dup1\n      iszero\n      tag_110\n      jumpi\n      0x00\n      dup1\n      revert\n    tag_110:\n      pop\n      tag_36\n      sload(0x0b)\n      dup2\n      jump\n        /* \"contracts/token factory/LiquidityPool.sol\":4182:4437  function updateMigrationThreshold(uint256 newThreshold) external onlyFactory {... */\n    tag_20:\n      callvalue\n      dup1\n      iszero\n      tag_114\n      jumpi\n      0x00\n      dup1\n      revert\n    tag_114:\n      pop\n      tag_41\n      tag_116\n      calldatasize\n      0x04\n      tag_62\n      jump\t// in\n    tag_116:\n      tag_117\n      jump\t// in\n        /* \"contracts/token factory/LiquidityPool.sol\":3122:3739  function initialize(... */\n    tag_21:\n      tag_41\n      tag_119\n      calldatasize\n      0x04\n      tag_120\n      jump\t// in\n    tag_119:\n      tag_121\n      jump\t// in\n        /* \"contracts/token factory/LiquidityPool.sol\":10548:10970  function calculateSqrtPriceX96(uint256 amount0, uint256 amount1) public pure returns (uint160) {... */\n    tag_22:\n      callvalue\n      dup1\n      iszero\n      tag_122\n      jumpi\n      0x00\n      dup1\n      revert\n    tag_122:\n      pop\n      tag_51\n      tag_124\n      calldatasize\n      0x04\n      tag_125\n      jump\t// in\n    tag_124:\n      tag_126\n      jump\t// in\n        /* \"contracts/token factory/LiquidityPool.sol\":7121:8866  function buyToken()... */\n    tag_23:\n      tag_36\n      tag_130\n      jump\t// in\n        /* \"contracts/token factory/LiquidityPool.sol\":10493:10547  function forceMigration() external  {... */\n    tag_24:\n      callvalue\n      dup1\n      iszero\n      tag_132\n      jumpi\n      0x00\n      dup1\n      revert\n    tag_132:\n      pop\n      tag_41\n      tag_134\n      jump\t// in\n        /* \"contracts/token factory/LiquidityPool.sol\":4024:4176  function toggleAutoMigration(bool enable) external onlyFactory {... */\n    tag_25:\n      callvalue\n      dup1\n      iszero\n      tag_135\n      jumpi\n      0x00\n      dup1\n      revert\n    tag_135:\n      pop\n      tag_41\n      tag_137\n      calldatasize\n      0x04\n      tag_138\n      jump\t// in\n    tag_137:\n      tag_139\n      jump\t// in\n        /* \"contracts/token factory/LiquidityPool.sol\":1079:1116  address public algebraPoolInitializer */\n    tag_26:\n      callvalue\n      dup1\n      iszero\n      tag_140\n      jumpi\n      0x00\n      dup1\n      revert\n    tag_140:\n      pop\n      sload(0x04)\n      tag_51\n      swap1\n      sub(shl(0xa0, 0x01), 0x01)\n      and\n      dup2\n      jump\n        /* \"contracts/token factory/LiquidityPool.sol\":1365:1387  uint256 public sellTax */\n    tag_27:\n      callvalue\n      dup1\n      iszero\n      tag_144\n      jumpi\n      0x00\n      dup1\n      revert\n    tag_144:\n      pop\n      tag_36\n      sload(0x09)\n      dup2\n      jump\n        /* \"contracts/token factory/LiquidityPool.sol\":970:997  address public tokenFactory */\n    tag_28:\n      callvalue\n      dup1\n      iszero\n      tag_148\n      jumpi\n      0x00\n      dup1\n      revert\n    tag_148:\n      pop\n      sload(0x02)\n      tag_51\n      swap1\n      sub(shl(0xa0, 0x01), 0x01)\n      and\n      dup2\n      jump\n        /* \"contracts/token factory/LiquidityPool.sol\":3745:4018  function setAlgebraPoolInitializer(address _initializer) external onlyFactory {... */\n    tag_44:\n        /* \"contracts/token factory/LiquidityPool.sol\":2591:2603  tokenFactory */\n      and(sub(shl(0xa0, 0x01), 0x01), sload(0x02))\n        /* \"contracts/token factory/LiquidityPool.sol\":2577:2587  msg.sender */\n      caller\n        /* \"contracts/token factory/LiquidityPool.sol\":2577:2603  msg.sender == tokenFactory */\n      eq\n        /* \"contracts/token factory/LiquidityPool.sol\":2569:2638  require(msg.sender == tokenFactory, \"Caller is not the TokenFactory\") */\n      tag_153\n      jumpi\n      mload(0x40)\n      shl(0xe5, 0x461bcd)\n      dup2\n      mstore\n      0x04\n      add\n      tag_154\n      swap1\n      tag_155\n      jump\t// in\n    tag_154:\n      mload(0x40)\n      dup1\n      swap2\n      sub\n      swap1\n      revert\n    tag_153:\n      sub(shl(0xa0, 0x01), 0x01)\n        /* \"contracts/token factory/LiquidityPool.sol\":3841:3867  _initializer != address(0) */\n      dup2\n      and\n        /* \"contracts/token factory/LiquidityPool.sol\":3833:3906  require(_initializer != address(0), \"Initializer address cannot be zero\") */\n      tag_157\n      jumpi\n      mload(0x40)\n      shl(0xe5, 0x461bcd)\n      dup2\n      mstore\n        /* \"#utility.yul\":3695:3697   */\n      0x20\n        /* \"contracts/token factory/LiquidityPool.sol\":3833:3906  require(_initializer != address(0), \"Initializer address cannot be zero\") */\n      0x04\n      dup3\n      add\n        /* \"#utility.yul\":3677:3698   */\n      mstore\n        /* \"#utility.yul\":3734:3736   */\n      0x22\n        /* \"#utility.yul\":3714:3732   */\n      0x24\n      dup3\n      add\n        /* \"#utility.yul\":3707:3737   */\n      mstore\n        /* \"#utility.yul\":3773:3807   */\n      0x496e697469616c697a657220616464726573732063616e6e6f74206265207a65\n        /* \"#utility.yul\":3753:3771   */\n      0x44\n      dup3\n      add\n        /* \"#utility.yul\":3746:3808   */\n      mstore\n      shl(0xf0, 0x726f)\n        /* \"#utility.yul\":3824:3842   */\n      0x64\n      dup3\n      add\n        /* \"#utility.yul\":3817:3849   */\n      mstore\n        /* \"#utility.yul\":3866:3885   */\n      0x84\n      add\n        /* \"contracts/token factory/LiquidityPool.sol\":3833:3906  require(_initializer != address(0), \"Initializer address cannot be zero\") */\n      tag_154\n        /* \"#utility.yul\":3493:3891   */\n      jump\n        /* \"contracts/token factory/LiquidityPool.sol\":3833:3906  require(_initializer != address(0), \"Initializer address cannot be zero\") */\n    tag_157:\n        /* \"contracts/token factory/LiquidityPool.sol\":3916:3938  algebraPoolInitializer */\n      0x04\n        /* \"contracts/token factory/LiquidityPool.sol\":3916:3953  algebraPoolInitializer = _initializer */\n      dup1\n      sload\n      not(sub(shl(0xa0, 0x01), 0x01))\n      and\n      sub(shl(0xa0, 0x01), 0x01)\n      dup4\n      and\n      swap1\n      dup2\n      or\n      swap1\n      swap2\n      sstore\n        /* \"contracts/token factory/LiquidityPool.sol\":3968:4011  AlgebraPoolInitializerUpdated(_initializer) */\n      mload(0x40)\n      0xe6223ef4a6cc26f11671126040eb90609754df785e229f9fc28e9612ca3380bc\n      swap1\n      0x00\n      swap1\n      log2\n        /* \"contracts/token factory/LiquidityPool.sol\":3745:4018  function setAlgebraPoolInitializer(address _initializer) external onlyFactory {... */\n      pop\n      jump\t// out\n        /* \"contracts/token factory/LiquidityPool.sol\":10342:10488  function updateSellTax(uint256 newSellTax) external onlyFactory {... */\n    tag_63:\n        /* \"contracts/token factory/LiquidityPool.sol\":2591:2603  tokenFactory */\n      and(sub(shl(0xa0, 0x01), 0x01), sload(0x02))\n        /* \"contracts/token factory/LiquidityPool.sol\":2577:2587  msg.sender */\n      caller\n        /* \"contracts/token factory/LiquidityPool.sol\":2577:2603  msg.sender == tokenFactory */\n      eq\n        /* \"contracts/token factory/LiquidityPool.sol\":2569:2638  require(msg.sender == tokenFactory, \"Caller is not the TokenFactory\") */\n      tag_162\n      jumpi\n      mload(0x40)\n      shl(0xe5, 0x461bcd)\n      dup2\n      mstore\n      0x04\n      add\n      tag_154\n      swap1\n      tag_155\n      jump\t// in\n    tag_162:\n        /* \"contracts/token factory/LiquidityPool.sol\":10416:10423  sellTax */\n      0x09\n        /* \"contracts/token factory/LiquidityPool.sol\":10416:10436  sellTax = newSellTax */\n      dup2\n      swap1\n      sstore\n        /* \"contracts/token factory/LiquidityPool.sol\":10462:10468  buyTax */\n      sload(0x08)\n        /* \"contracts/token factory/LiquidityPool.sol\":10451:10481  TaxUpdated(buyTax, newSellTax) */\n      0x40\n      dup1\n      mload\n        /* \"#utility.yul\":739:764   */\n      swap2\n      dup3\n      mstore\n        /* \"#utility.yul\":795:797   */\n      0x20\n        /* \"#utility.yul\":780:798   */\n      dup3\n      add\n        /* \"#utility.yul\":773:807   */\n      dup4\n      swap1\n      mstore\n        /* \"contracts/token factory/LiquidityPool.sol\":10451:10481  TaxUpdated(buyTax, newSellTax) */\n      0xb841faf0d1b32571f4ef966a2f35e3ae51f3cdda45318c3da5570a5b2ad85605\n      swap2\n        /* \"#utility.yul\":712:730   */\n      add\n        /* \"contracts/token factory/LiquidityPool.sol\":10451:10481  TaxUpdated(buyTax, newSellTax) */\n    tag_165:\n      mload(0x40)\n      dup1\n      swap2\n      sub\n      swap1\n      log1\n        /* \"contracts/token factory/LiquidityPool.sol\":10342:10488  function updateSellTax(uint256 newSellTax) external onlyFactory {... */\n      pop\n      jump\t// out\n        /* \"contracts/token factory/LiquidityPool.sol\":8872:10074  function sellToken(... */\n    tag_71:\n        /* \"contracts/token factory/LiquidityPool.sol\":8954:8971  uint256 amountOut */\n      0x00\n        /* \"@openzeppelin/contracts/utils/ReentrancyGuard.sol\":2500:2521  _nonReentrantBefore() */\n      tag_167\n        /* \"@openzeppelin/contracts/utils/ReentrancyGuard.sol\":2500:2519  _nonReentrantBefore */\n      tag_168\n        /* \"@openzeppelin/contracts/utils/ReentrancyGuard.sol\":2500:2521  _nonReentrantBefore() */\n      jump\t// in\n    tag_167:\n        /* \"contracts/token factory/LiquidityPool.sol\":9002:9003  0 */\n      0x00\n        /* \"contracts/token factory/LiquidityPool.sol\":8991:8999  amountIn */\n      dup3\n        /* \"contracts/token factory/LiquidityPool.sol\":8991:9003  amountIn > 0 */\n      gt\n        /* \"contracts/token factory/LiquidityPool.sol\":8983:9029  require(amountIn > 0, \"Must sell some tokens\") */\n      tag_170\n      jumpi\n      mload(0x40)\n      shl(0xe5, 0x461bcd)\n      dup2\n      mstore\n        /* \"#utility.yul\":4098:4100   */\n      0x20\n        /* \"contracts/token factory/LiquidityPool.sol\":8983:9029  require(amountIn > 0, \"Must sell some tokens\") */\n      0x04\n      dup3\n      add\n        /* \"#utility.yul\":4080:4101   */\n      mstore\n        /* \"#utility.yul\":4137:4139   */\n      0x15\n        /* \"#utility.yul\":4117:4135   */\n      0x24\n      dup3\n      add\n        /* \"#utility.yul\":4110:4140   */\n      mstore\n      shl(0x58, 0x4d7573742073656c6c20736f6d6520746f6b656e73)\n        /* \"#utility.yul\":4156:4174   */\n      0x44\n      dup3\n      add\n        /* \"#utility.yul\":4149:4200   */\n      mstore\n        /* \"#utility.yul\":4217:4235   */\n      0x64\n      add\n        /* \"contracts/token factory/LiquidityPool.sol\":8983:9029  require(amountIn > 0, \"Must sell some tokens\") */\n      tag_154\n        /* \"#utility.yul\":3896:4241   */\n      jump\n        /* \"contracts/token factory/LiquidityPool.sol\":8983:9029  require(amountIn > 0, \"Must sell some tokens\") */\n    tag_170:\n        /* \"contracts/token factory/LiquidityPool.sol\":9040:9059  uint256 newReserve0 */\n      0x00\n        /* \"contracts/token factory/LiquidityPool.sol\":9073:9081  amountIn */\n      dup3\n        /* \"contracts/token factory/LiquidityPool.sol\":9062:9070  reserve0 */\n      sload(0x06)\n        /* \"contracts/token factory/LiquidityPool.sol\":9062:9081  reserve0 + amountIn */\n      tag_173\n      swap2\n      swap1\n      tag_174\n      jump\t// in\n    tag_173:\n        /* \"contracts/token factory/LiquidityPool.sol\":9040:9081  uint256 newReserve0 = reserve0 + amountIn */\n      swap1\n      pop\n        /* \"contracts/token factory/LiquidityPool.sol\":9091:9107  uint256 quotient */\n      0x00\n        /* \"contracts/token factory/LiquidityPool.sol\":9184:9211  newReserve0 + X_DELTA_UPPER */\n      tag_175\n        /* \"contracts/token factory/LiquidityPool.sol\":760:787  257627658726993462773682809 */\n      0xd51ac75d3cbca700901279\n        /* \"contracts/token factory/LiquidityPool.sol\":9040:9081  uint256 newReserve0 = reserve0 + amountIn */\n      dup4\n        /* \"contracts/token factory/LiquidityPool.sol\":9184:9211  newReserve0 + X_DELTA_UPPER */\n      tag_174\n      jump\t// in\n    tag_175:\n        /* \"contracts/token factory/LiquidityPool.sol\":896:913  31864892854294116 */\n      0x7134f38362d664\n        /* \"contracts/token factory/LiquidityPool.sol\":9141:9149  reserve1 */\n      sload(0x07)\n        /* \"contracts/token factory/LiquidityPool.sol\":9141:9165  reserve1 + Y_DELTA_UPPER */\n      tag_176\n      swap2\n      swap1\n      tag_174\n      jump\t// in\n    tag_176:\n        /* \"contracts/token factory/LiquidityPool.sol\":760:787  257627658726993462773682809 */\n      0xd51ac75d3cbca700901279\n        /* \"contracts/token factory/LiquidityPool.sol\":9112:9120  reserve0 */\n      sload(0x06)\n        /* \"contracts/token factory/LiquidityPool.sol\":9112:9136  reserve0 + X_DELTA_UPPER */\n      tag_177\n      swap2\n      swap1\n      tag_174\n      jump\t// in\n    tag_177:\n        /* \"contracts/token factory/LiquidityPool.sol\":9111:9166  (reserve0 + X_DELTA_UPPER) * (reserve1 + Y_DELTA_UPPER) */\n      tag_178\n      swap2\n      swap1\n      tag_179\n      jump\t// in\n    tag_178:\n        /* \"contracts/token factory/LiquidityPool.sol\":9110:9212  ((reserve0 + X_DELTA_UPPER) * (reserve1 + Y_DELTA_UPPER)) / ... */\n      tag_180\n      swap2\n      swap1\n      tag_181\n      jump\t// in\n    tag_180:\n        /* \"contracts/token factory/LiquidityPool.sol\":9091:9212  uint256 quotient = ((reserve0 + X_DELTA_UPPER) * (reserve1 + Y_DELTA_UPPER)) / ... */\n      swap1\n      pop\n        /* \"contracts/token factory/LiquidityPool.sol\":896:913  31864892854294116 */\n      0x7134f38362d664\n        /* \"contracts/token factory/LiquidityPool.sol\":9226:9234  quotient */\n      dup2\n        /* \"contracts/token factory/LiquidityPool.sol\":9226:9250  quotient < Y_DELTA_UPPER */\n      lt\n        /* \"contracts/token factory/LiquidityPool.sol\":9222:9301  if (quotient < Y_DELTA_UPPER) {... */\n      iszero\n      tag_182\n      jumpi\n      pop\n        /* \"contracts/token factory/LiquidityPool.sol\":896:913  31864892854294116 */\n      0x7134f38362d664\n        /* \"contracts/token factory/LiquidityPool.sol\":9222:9301  if (quotient < Y_DELTA_UPPER) {... */\n    tag_182:\n        /* \"contracts/token factory/LiquidityPool.sol\":9310:9329  uint256 newReserve1 */\n      0x00\n        /* \"contracts/token factory/LiquidityPool.sol\":9332:9356  quotient - Y_DELTA_UPPER */\n      tag_183\n        /* \"contracts/token factory/LiquidityPool.sol\":896:913  31864892854294116 */\n      0x7134f38362d664\n        /* \"contracts/token factory/LiquidityPool.sol\":9332:9340  quotient */\n      dup4\n        /* \"contracts/token factory/LiquidityPool.sol\":9332:9356  quotient - Y_DELTA_UPPER */\n      tag_184\n      jump\t// in\n    tag_183:\n        /* \"contracts/token factory/LiquidityPool.sol\":9310:9356  uint256 newReserve1 = quotient - Y_DELTA_UPPER */\n      swap1\n      pop\n        /* \"contracts/token factory/LiquidityPool.sol\":9392:9400  reserve1 */\n      sload(0x07)\n        /* \"contracts/token factory/LiquidityPool.sol\":9378:9389  newReserve1 */\n      dup2\n        /* \"contracts/token factory/LiquidityPool.sol\":9378:9400  newReserve1 > reserve1 */\n      gt\n        /* \"contracts/token factory/LiquidityPool.sol\":9378:9436  newReserve1 > reserve1 ? reserve1 : reserve1 - newReserve1 */\n      tag_185\n      jumpi\n        /* \"contracts/token factory/LiquidityPool.sol\":9425:9436  newReserve1 */\n      dup1\n        /* \"contracts/token factory/LiquidityPool.sol\":9414:9422  reserve1 */\n      sload(0x07)\n        /* \"contracts/token factory/LiquidityPool.sol\":9414:9436  reserve1 - newReserve1 */\n      tag_186\n      swap2\n      swap1\n      tag_184\n      jump\t// in\n    tag_186:\n        /* \"contracts/token factory/LiquidityPool.sol\":9378:9436  newReserve1 > reserve1 ? reserve1 : reserve1 - newReserve1 */\n      jump(tag_187)\n    tag_185:\n        /* \"contracts/token factory/LiquidityPool.sol\":9403:9411  reserve1 */\n      sload(0x07)\n        /* \"contracts/token factory/LiquidityPool.sol\":9378:9436  newReserve1 > reserve1 ? reserve1 : reserve1 - newReserve1 */\n    tag_187:\n        /* \"contracts/token factory/LiquidityPool.sol\":9366:9436  amountOut = newReserve1 > reserve1 ? reserve1 : reserve1 - newReserve1 */\n      swap4\n      pop\n        /* \"contracts/token factory/LiquidityPool.sol\":9458:9469  newReserve0 */\n      dup3\n        /* \"contracts/token factory/LiquidityPool.sol\":9447:9455  reserve0 */\n      0x06\n        /* \"contracts/token factory/LiquidityPool.sol\":9447:9469  reserve0 = newReserve0 */\n      dup2\n      swap1\n      sstore\n      pop\n        /* \"contracts/token factory/LiquidityPool.sol\":9491:9500  amountOut */\n      dup4\n        /* \"contracts/token factory/LiquidityPool.sol\":9479:9487  reserve1 */\n      0x07\n      0x00\n        /* \"contracts/token factory/LiquidityPool.sol\":9479:9500  reserve1 -= amountOut */\n      dup3\n      dup3\n      sload\n      tag_188\n      swap2\n      swap1\n      tag_184\n      jump\t// in\n    tag_188:\n      swap1\n      swap2\n      sstore\n      pop\n      pop\n        /* \"contracts/token factory/LiquidityPool.sol\":9601:9608  sellTax */\n      sload(0x09)\n        /* \"contracts/token factory/LiquidityPool.sol\":9569:9585  uint256 etherTax */\n      0x00\n      swap1\n        /* \"contracts/token factory/LiquidityPool.sol\":9612:9616  1000 */\n      0x03e8\n      swap1\n        /* \"contracts/token factory/LiquidityPool.sol\":9589:9608  amountOut * sellTax */\n      tag_189\n      swap1\n        /* \"contracts/token factory/LiquidityPool.sol\":9589:9598  amountOut */\n      dup8\n        /* \"contracts/token factory/LiquidityPool.sol\":9589:9608  amountOut * sellTax */\n      tag_179\n      jump\t// in\n    tag_189:\n        /* \"contracts/token factory/LiquidityPool.sol\":9588:9616  (amountOut * sellTax) / 1000 */\n      tag_190\n      swap2\n      swap1\n      tag_181\n      jump\t// in\n    tag_190:\n        /* \"contracts/token factory/LiquidityPool.sol\":9569:9616  uint256 etherTax = (amountOut * sellTax) / 1000 */\n      swap1\n      pop\n        /* \"contracts/token factory/LiquidityPool.sol\":9626:9647  amountOut -= etherTax */\n      tag_191\n        /* \"contracts/token factory/LiquidityPool.sol\":9569:9616  uint256 etherTax = (amountOut * sellTax) / 1000 */\n      dup2\n        /* \"contracts/token factory/LiquidityPool.sol\":9626:9647  amountOut -= etherTax */\n      dup7\n      tag_184\n      jump\t// in\n    tag_191:\n        /* \"contracts/token factory/LiquidityPool.sol\":9677:9687  devAddress */\n      sload(0x03)\n        /* \"contracts/token factory/LiquidityPool.sol\":9677:9713  devAddress.call{value: etherTax}(\"\") */\n      mload(0x40)\n        /* \"contracts/token factory/LiquidityPool.sol\":9626:9647  amountOut -= etherTax */\n      swap2\n      swap7\n      pop\n        /* \"contracts/token factory/LiquidityPool.sol\":9659:9671  bool taxSent */\n      0x00\n      swap2\n      sub(shl(0xa0, 0x01), 0x01)\n        /* \"contracts/token factory/LiquidityPool.sol\":9677:9687  devAddress */\n      swap1\n      swap2\n      and\n      swap1\n        /* \"contracts/token factory/LiquidityPool.sol\":9700:9708  etherTax */\n      dup4\n      swap1\n        /* \"contracts/token factory/LiquidityPool.sol\":9659:9671  bool taxSent */\n      dup4\n        /* \"contracts/token factory/LiquidityPool.sol\":9677:9713  devAddress.call{value: etherTax}(\"\") */\n      dup2\n        /* \"contracts/token factory/LiquidityPool.sol\":9659:9671  bool taxSent */\n      dup2\n        /* \"contracts/token factory/LiquidityPool.sol\":9677:9713  devAddress.call{value: etherTax}(\"\") */\n      dup2\n        /* \"contracts/token factory/LiquidityPool.sol\":9700:9708  etherTax */\n      dup6\n        /* \"contracts/token factory/LiquidityPool.sol\":9677:9687  devAddress */\n      dup8\n        /* \"contracts/token factory/LiquidityPool.sol\":9677:9713  devAddress.call{value: etherTax}(\"\") */\n      gas\n      call\n      swap3\n      pop\n      pop\n      pop\n      returndatasize\n      dup1\n      0x00\n      dup2\n      eq\n      tag_196\n      jumpi\n      mload(0x40)\n      swap2\n      pop\n      and(add(returndatasize, 0x3f), not(0x1f))\n      dup3\n      add\n      0x40\n      mstore\n      returndatasize\n      dup3\n      mstore\n      returndatasize\n      0x00\n      0x20\n      dup5\n      add\n      returndatacopy\n      jump(tag_195)\n    tag_196:\n      0x60\n      swap2\n      pop\n    tag_195:\n      pop\n        /* \"contracts/token factory/LiquidityPool.sol\":9658:9713  (bool taxSent, ) = devAddress.call{value: etherTax}(\"\") */\n      pop\n      swap1\n      pop\n        /* \"contracts/token factory/LiquidityPool.sol\":9731:9738  taxSent */\n      dup1\n        /* \"contracts/token factory/LiquidityPool.sol\":9723:9766  require(taxSent, \"Failed to send sell tax\") */\n      tag_197\n      jumpi\n      mload(0x40)\n      shl(0xe5, 0x461bcd)\n      dup2\n      mstore\n        /* \"#utility.yul\":5448:5450   */\n      0x20\n        /* \"contracts/token factory/LiquidityPool.sol\":9723:9766  require(taxSent, \"Failed to send sell tax\") */\n      0x04\n      dup3\n      add\n        /* \"#utility.yul\":5430:5451   */\n      mstore\n        /* \"#utility.yul\":5487:5489   */\n      0x17\n        /* \"#utility.yul\":5467:5485   */\n      0x24\n      dup3\n      add\n        /* \"#utility.yul\":5460:5490   */\n      mstore\n        /* \"#utility.yul\":5526:5551   */\n      0x4661696c656420746f2073656e642073656c6c20746178000000000000000000\n        /* \"#utility.yul\":5506:5524   */\n      0x44\n      dup3\n      add\n        /* \"#utility.yul\":5499:5552   */\n      mstore\n        /* \"#utility.yul\":5569:5587   */\n      0x64\n      add\n        /* \"contracts/token factory/LiquidityPool.sol\":9723:9766  require(taxSent, \"Failed to send sell tax\") */\n      tag_154\n        /* \"#utility.yul\":5246:5593   */\n      jump\n        /* \"contracts/token factory/LiquidityPool.sol\":9723:9766  require(taxSent, \"Failed to send sell tax\") */\n    tag_197:\n        /* \"contracts/token factory/LiquidityPool.sol\":9793:9799  token0 */\n      sload(0x01)\n        /* \"contracts/token factory/LiquidityPool.sol\":9786:9850  IERC20(token0).transferFrom(msg.sender, address(this), amountIn) */\n      mload(0x40)\n      shl(0xe0, 0x23b872dd)\n      dup2\n      mstore\n        /* \"contracts/token factory/LiquidityPool.sol\":9814:9824  msg.sender */\n      caller\n        /* \"contracts/token factory/LiquidityPool.sol\":9786:9850  IERC20(token0).transferFrom(msg.sender, address(this), amountIn) */\n      0x04\n      dup3\n      add\n        /* \"#utility.yul\":5800:5851   */\n      mstore\n        /* \"contracts/token factory/LiquidityPool.sol\":9834:9838  this */\n      address\n        /* \"#utility.yul\":5867:5885   */\n      0x24\n      dup3\n      add\n        /* \"#utility.yul\":5860:5920   */\n      mstore\n        /* \"#utility.yul\":5936:5954   */\n      0x44\n      dup2\n      add\n        /* \"#utility.yul\":5929:5963   */\n      dup10\n      swap1\n      mstore\n      sub(shl(0xa0, 0x01), 0x01)\n        /* \"contracts/token factory/LiquidityPool.sol\":9793:9799  token0 */\n      swap1\n      swap2\n      and\n      swap1\n        /* \"contracts/token factory/LiquidityPool.sol\":9786:9813  IERC20(token0).transferFrom */\n      0x23b872dd\n      swap1\n        /* \"#utility.yul\":5773:5791   */\n      0x64\n      add\n        /* \"contracts/token factory/LiquidityPool.sol\":9786:9850  IERC20(token0).transferFrom(msg.sender, address(this), amountIn) */\n      0x20\n      mload(0x40)\n      dup1\n      dup4\n      sub\n      dup2\n      0x00\n      dup8\n      gas\n      call\n      iszero\n      dup1\n      iszero\n      tag_203\n      jumpi\n      returndatasize\n      0x00\n      dup1\n      returndatacopy\n      revert(0x00, returndatasize)\n    tag_203:\n      pop\n      pop\n      pop\n      pop\n      mload(0x40)\n      returndatasize\n      not(0x1f)\n      0x1f\n      dup3\n      add\n      and\n      dup3\n      add\n      dup1\n      0x40\n      mstore\n      pop\n      dup2\n      add\n      swap1\n      tag_204\n      swap2\n      swap1\n      tag_205\n      jump\t// in\n    tag_204:\n        /* \"contracts/token factory/LiquidityPool.sol\":9778:9883  require(IERC20(token0).transferFrom(msg.sender, address(this), amountIn), \"Failed to transfer tokens\"   ) */\n      tag_206\n      jumpi\n      mload(0x40)\n      shl(0xe5, 0x461bcd)\n      dup2\n      mstore\n        /* \"#utility.yul\":6426:6428   */\n      0x20\n        /* \"contracts/token factory/LiquidityPool.sol\":9778:9883  require(IERC20(token0).transferFrom(msg.sender, address(this), amountIn), \"Failed to transfer tokens\"   ) */\n      0x04\n      dup3\n      add\n        /* \"#utility.yul\":6408:6429   */\n      mstore\n        /* \"#utility.yul\":6465:6467   */\n      0x19\n        /* \"#utility.yul\":6445:6463   */\n      0x24\n      dup3\n      add\n        /* \"#utility.yul\":6438:6468   */\n      mstore\n      shl(0x38, 0x4661696c656420746f207472616e7366657220746f6b656e73)\n        /* \"#utility.yul\":6484:6502   */\n      0x44\n      dup3\n      add\n        /* \"#utility.yul\":6477:6532   */\n      mstore\n        /* \"#utility.yul\":6549:6567   */\n      0x64\n      add\n        /* \"contracts/token factory/LiquidityPool.sol\":9778:9883  require(IERC20(token0).transferFrom(msg.sender, address(this), amountIn), \"Failed to transfer tokens\"   ) */\n      tag_154\n        /* \"#utility.yul\":6224:6573   */\n      jump\n        /* \"contracts/token factory/LiquidityPool.sol\":9778:9883  require(IERC20(token0).transferFrom(msg.sender, address(this), amountIn), \"Failed to transfer tokens\"   ) */\n    tag_206:\n        /* \"contracts/token factory/LiquidityPool.sol\":9912:9949  msg.sender.call{value: amountOut}(\"\") */\n      mload(0x40)\n        /* \"contracts/token factory/LiquidityPool.sol\":9894:9906  bool success */\n      0x00\n      swap1\n        /* \"contracts/token factory/LiquidityPool.sol\":9912:9922  msg.sender */\n      caller\n      swap1\n        /* \"contracts/token factory/LiquidityPool.sol\":9935:9944  amountOut */\n      dup9\n      swap1\n        /* \"contracts/token factory/LiquidityPool.sol\":9894:9906  bool success */\n      dup4\n        /* \"contracts/token factory/LiquidityPool.sol\":9912:9949  msg.sender.call{value: amountOut}(\"\") */\n      dup2\n        /* \"contracts/token factory/LiquidityPool.sol\":9894:9906  bool success */\n      dup2\n        /* \"contracts/token factory/LiquidityPool.sol\":9912:9949  msg.sender.call{value: amountOut}(\"\") */\n      dup2\n        /* \"contracts/token factory/LiquidityPool.sol\":9935:9944  amountOut */\n      dup6\n        /* \"contracts/token factory/LiquidityPool.sol\":9912:9922  msg.sender */\n      dup8\n        /* \"contracts/token factory/LiquidityPool.sol\":9912:9949  msg.sender.call{value: amountOut}(\"\") */\n      gas\n      call\n      swap3\n      pop\n      pop\n      pop\n      returndatasize\n      dup1\n      0x00\n      dup2\n      eq\n      tag_212\n      jumpi\n      mload(0x40)\n      swap2\n      pop\n      and(add(returndatasize, 0x3f), not(0x1f))\n      dup3\n      add\n      0x40\n      mstore\n      returndatasize\n      dup3\n      mstore\n      returndatasize\n      0x00\n      0x20\n      dup5\n      add\n      returndatacopy\n      jump(tag_211)\n    tag_212:\n      0x60\n      swap2\n      pop\n    tag_211:\n      pop\n        /* \"contracts/token factory/LiquidityPool.sol\":9893:9949  (bool success, ) = msg.sender.call{value: amountOut}(\"\") */\n      pop\n      swap1\n      pop\n        /* \"contracts/token factory/LiquidityPool.sol\":9967:9974  success */\n      dup1\n        /* \"contracts/token factory/LiquidityPool.sol\":9959:9999  require(success, \"Failed to send ether\") */\n      tag_213\n      jumpi\n      mload(0x40)\n      shl(0xe5, 0x461bcd)\n      dup2\n      mstore\n        /* \"#utility.yul\":6780:6782   */\n      0x20\n        /* \"contracts/token factory/LiquidityPool.sol\":9959:9999  require(success, \"Failed to send ether\") */\n      0x04\n      dup3\n      add\n        /* \"#utility.yul\":6762:6783   */\n      mstore\n        /* \"#utility.yul\":6819:6821   */\n      0x14\n        /* \"#utility.yul\":6799:6817   */\n      0x24\n      dup3\n      add\n        /* \"#utility.yul\":6792:6822   */\n      mstore\n      shl(0x61, 0x2330b4b632b2103a379039b2b7321032ba3432b9)\n        /* \"#utility.yul\":6838:6856   */\n      0x44\n      dup3\n      add\n        /* \"#utility.yul\":6831:6881   */\n      mstore\n        /* \"#utility.yul\":6898:6916   */\n      0x64\n      add\n        /* \"contracts/token factory/LiquidityPool.sol\":9959:9999  require(success, \"Failed to send ether\") */\n      tag_154\n        /* \"#utility.yul\":6578:6922   */\n      jump\n        /* \"contracts/token factory/LiquidityPool.sol\":9959:9999  require(success, \"Failed to send ether\") */\n    tag_213:\n        /* \"contracts/token factory/LiquidityPool.sol\":10059:10066  sellTax */\n      sload(0x09)\n        /* \"contracts/token factory/LiquidityPool.sol\":10015:10067  TokensSold(msg.sender, amountIn, amountOut, sellTax) */\n      0x40\n      dup1\n      mload\n        /* \"#utility.yul\":7129:7154   */\n      dup11\n      dup2\n      mstore\n        /* \"#utility.yul\":7185:7187   */\n      0x20\n        /* \"#utility.yul\":7170:7188   */\n      dup2\n      add\n        /* \"#utility.yul\":7163:7197   */\n      dup11\n      swap1\n      mstore\n        /* \"#utility.yul\":7213:7231   */\n      swap1\n      dup2\n      add\n        /* \"#utility.yul\":7206:7240   */\n      swap2\n      swap1\n      swap2\n      mstore\n        /* \"contracts/token factory/LiquidityPool.sol\":10026:10036  msg.sender */\n      caller\n      swap1\n        /* \"contracts/token factory/LiquidityPool.sol\":10015:10067  TokensSold(msg.sender, amountIn, amountOut, sellTax) */\n      0x6db63bebf1e6540277744df32846ebdb98385b1a73f2d5de49b28348add63f50\n      swap1\n        /* \"#utility.yul\":7117:7119   */\n      0x60\n        /* \"#utility.yul\":7102:7120   */\n      add\n        /* \"contracts/token factory/LiquidityPool.sol\":10015:10067  TokensSold(msg.sender, amountIn, amountOut, sellTax) */\n      mload(0x40)\n      dup1\n      swap2\n      sub\n      swap1\n      log2\n        /* \"contracts/token factory/LiquidityPool.sol\":8973:10074  {... */\n      pop\n      pop\n      pop\n      pop\n      pop\n      pop\n        /* \"@openzeppelin/contracts/utils/ReentrancyGuard.sol\":2542:2562  _nonReentrantAfter() */\n      tag_218\n        /* \"@openzeppelin/contracts/utils/ReentrancyGuard.sol\":1857:1858  1 */\n      0x01\n        /* \"@openzeppelin/contracts/utils/ReentrancyGuard.sol\":3068:3075  _status */\n      0x00\n        /* \"@openzeppelin/contracts/utils/ReentrancyGuard.sol\":3068:3089  _status = NOT_ENTERED */\n      sstore\n        /* \"@openzeppelin/contracts/utils/ReentrancyGuard.sol\":2888:3096  function _nonReentrantAfter() private {... */\n      jump\n        /* \"@openzeppelin/contracts/utils/ReentrancyGuard.sol\":2542:2562  _nonReentrantAfter() */\n    tag_218:\n        /* \"contracts/token factory/LiquidityPool.sol\":8872:10074  function sellToken(... */\n      swap2\n      swap1\n      pop\n      jump\t// out\n        /* \"contracts/token factory/LiquidityPool.sol\":10194:10336  function updateBuyTax(uint256 newBuyTax) external onlyFactory {... */\n    tag_85:\n        /* \"contracts/token factory/LiquidityPool.sol\":2591:2603  tokenFactory */\n      and(sub(shl(0xa0, 0x01), 0x01), sload(0x02))\n        /* \"contracts/token factory/LiquidityPool.sol\":2577:2587  msg.sender */\n      caller\n        /* \"contracts/token factory/LiquidityPool.sol\":2577:2603  msg.sender == tokenFactory */\n      eq\n        /* \"contracts/token factory/LiquidityPool.sol\":2569:2638  require(msg.sender == tokenFactory, \"Caller is not the TokenFactory\") */\n      tag_221\n      jumpi\n      mload(0x40)\n      shl(0xe5, 0x461bcd)\n      dup2\n      mstore\n      0x04\n      add\n      tag_154\n      swap1\n      tag_155\n      jump\t// in\n    tag_221:\n        /* \"contracts/token factory/LiquidityPool.sol\":10266:10272  buyTax */\n      0x08\n        /* \"contracts/token factory/LiquidityPool.sol\":10266:10284  buyTax = newBuyTax */\n      dup2\n      swap1\n      sstore\n        /* \"contracts/token factory/LiquidityPool.sol\":10321:10328  sellTax */\n      sload(0x09)\n        /* \"contracts/token factory/LiquidityPool.sol\":10299:10329  TaxUpdated(newBuyTax, sellTax) */\n      0x40\n      dup1\n      mload\n        /* \"#utility.yul\":739:764   */\n      dup4\n      dup2\n      mstore\n        /* \"#utility.yul\":795:797   */\n      0x20\n        /* \"#utility.yul\":780:798   */\n      dup2\n      add\n        /* \"#utility.yul\":773:807   */\n      swap3\n      swap1\n      swap3\n      mstore\n        /* \"contracts/token factory/LiquidityPool.sol\":10299:10329  TaxUpdated(newBuyTax, sellTax) */\n      0xb841faf0d1b32571f4ef966a2f35e3ae51f3cdda45318c3da5570a5b2ad85605\n      swap2\n        /* \"#utility.yul\":712:730   */\n      add\n        /* \"contracts/token factory/LiquidityPool.sol\":10299:10329  TaxUpdated(newBuyTax, sellTax) */\n      tag_165\n        /* \"#utility.yul\":565:813   */\n      jump\n        /* \"contracts/token factory/LiquidityPool.sol\":4182:4437  function updateMigrationThreshold(uint256 newThreshold) external onlyFactory {... */\n    tag_117:\n        /* \"contracts/token factory/LiquidityPool.sol\":2591:2603  tokenFactory */\n      and(sub(shl(0xa0, 0x01), 0x01), sload(0x02))\n        /* \"contracts/token factory/LiquidityPool.sol\":2577:2587  msg.sender */\n      caller\n        /* \"contracts/token factory/LiquidityPool.sol\":2577:2603  msg.sender == tokenFactory */\n      eq\n        /* \"contracts/token factory/LiquidityPool.sol\":2569:2638  require(msg.sender == tokenFactory, \"Caller is not the TokenFactory\") */\n      tag_226\n      jumpi\n      mload(0x40)\n      shl(0xe5, 0x461bcd)\n      dup2\n      mstore\n      0x04\n      add\n      tag_154\n      swap1\n      tag_155\n      jump\t// in\n    tag_226:\n        /* \"contracts/token factory/LiquidityPool.sol\":4292:4293  0 */\n      0x00\n        /* \"contracts/token factory/LiquidityPool.sol\":4277:4289  newThreshold */\n      dup2\n        /* \"contracts/token factory/LiquidityPool.sol\":4277:4293  newThreshold > 0 */\n      gt\n        /* \"contracts/token factory/LiquidityPool.sol\":4269:4333  require(newThreshold > 0, \"Threshold must be greater than zero\") */\n      tag_229\n      jumpi\n      mload(0x40)\n      shl(0xe5, 0x461bcd)\n      dup2\n      mstore\n        /* \"#utility.yul\":7453:7455   */\n      0x20\n        /* \"contracts/token factory/LiquidityPool.sol\":4269:4333  require(newThreshold > 0, \"Threshold must be greater than zero\") */\n      0x04\n      dup3\n      add\n        /* \"#utility.yul\":7435:7456   */\n      mstore\n        /* \"#utility.yul\":7492:7494   */\n      0x23\n        /* \"#utility.yul\":7472:7490   */\n      0x24\n      dup3\n      add\n        /* \"#utility.yul\":7465:7495   */\n      mstore\n        /* \"#utility.yul\":7531:7565   */\n      0x5468726573686f6c64206d7573742062652067726561746572207468616e207a\n        /* \"#utility.yul\":7511:7529   */\n      0x44\n      dup3\n      add\n        /* \"#utility.yul\":7504:7566   */\n      mstore\n      shl(0xe8, 0x65726f)\n        /* \"#utility.yul\":7582:7600   */\n      0x64\n      dup3\n      add\n        /* \"#utility.yul\":7575:7608   */\n      mstore\n        /* \"#utility.yul\":7625:7644   */\n      0x84\n      add\n        /* \"contracts/token factory/LiquidityPool.sol\":4269:4333  require(newThreshold > 0, \"Threshold must be greater than zero\") */\n      tag_154\n        /* \"#utility.yul\":7251:7650   */\n      jump\n        /* \"contracts/token factory/LiquidityPool.sol\":4269:4333  require(newThreshold > 0, \"Threshold must be greater than zero\") */\n    tag_229:\n        /* \"contracts/token factory/LiquidityPool.sol\":4343:4361  migrationThreshold */\n      0x0b\n        /* \"contracts/token factory/LiquidityPool.sol\":4343:4376  migrationThreshold = newThreshold */\n      dup2\n      swap1\n      sstore\n        /* \"contracts/token factory/LiquidityPool.sol\":4391:4430  MigrationThresholdUpdated(newThreshold) */\n      mload(0x40)\n        /* \"#utility.yul\":160:185   */\n      dup2\n      dup2\n      mstore\n        /* \"contracts/token factory/LiquidityPool.sol\":4391:4430  MigrationThresholdUpdated(newThreshold) */\n      0x4ad9ae9229776f627d7d2be995964376397890e11bbfa94e8826810419a6ef6b\n      swap1\n        /* \"#utility.yul\":148:150   */\n      0x20\n        /* \"#utility.yul\":133:151   */\n      add\n        /* \"contracts/token factory/LiquidityPool.sol\":4391:4430  MigrationThresholdUpdated(newThreshold) */\n      tag_165\n        /* \"#utility.yul\":14:191   */\n      jump\n        /* \"contracts/token factory/LiquidityPool.sol\":3122:3739  function initialize(... */\n    tag_121:\n        /* \"contracts/token factory/LiquidityPool.sol\":2591:2603  tokenFactory */\n      and(sub(shl(0xa0, 0x01), 0x01), sload(0x02))\n        /* \"contracts/token factory/LiquidityPool.sol\":2577:2587  msg.sender */\n      caller\n        /* \"contracts/token factory/LiquidityPool.sol\":2577:2603  msg.sender == tokenFactory */\n      eq\n        /* \"contracts/token factory/LiquidityPool.sol\":2569:2638  require(msg.sender == tokenFactory, \"Caller is not the TokenFactory\") */\n      tag_234\n      jumpi\n      mload(0x40)\n      shl(0xe5, 0x461bcd)\n      dup2\n      mstore\n      0x04\n      add\n      tag_154\n      swap1\n      tag_155\n      jump\t// in\n    tag_234:\n        /* \"@openzeppelin/contracts/utils/ReentrancyGuard.sol\":2500:2521  _nonReentrantBefore() */\n      tag_237\n        /* \"@openzeppelin/contracts/utils/ReentrancyGuard.sol\":2500:2519  _nonReentrantBefore */\n      tag_168\n        /* \"@openzeppelin/contracts/utils/ReentrancyGuard.sol\":2500:2521  _nonReentrantBefore() */\n      jump\t// in\n    tag_237:\n        /* \"contracts/token factory/LiquidityPool.sol\":3392:3398  token0 */\n      and(sub(shl(0xa0, 0x01), 0x01), sload(0x01))\n        /* \"contracts/token factory/LiquidityPool.sol\":3392:3412  token0 == address(0) */\n      iszero\n        /* \"contracts/token factory/LiquidityPool.sol\":3384:3441  require(token0 == address(0), \"Pool already initialized\") */\n      tag_239\n      jumpi\n      mload(0x40)\n      shl(0xe5, 0x461bcd)\n      dup2\n      mstore\n        /* \"#utility.yul\":7857:7859   */\n      0x20\n        /* \"contracts/token factory/LiquidityPool.sol\":3384:3441  require(token0 == address(0), \"Pool already initialized\") */\n      0x04\n      dup3\n      add\n        /* \"#utility.yul\":7839:7860   */\n      mstore\n        /* \"#utility.yul\":7896:7898   */\n      0x18\n        /* \"#utility.yul\":7876:7894   */\n      0x24\n      dup3\n      add\n        /* \"#utility.yul\":7869:7899   */\n      mstore\n        /* \"#utility.yul\":7935:7961   */\n      0x506f6f6c20616c726561647920696e697469616c697a65640000000000000000\n        /* \"#utility.yul\":7915:7933   */\n      0x44\n      dup3\n      add\n        /* \"#utility.yul\":7908:7962   */\n      mstore\n        /* \"#utility.yul\":7979:7997   */\n      0x64\n      add\n        /* \"contracts/token factory/LiquidityPool.sol\":3384:3441  require(token0 == address(0), \"Pool already initialized\") */\n      tag_154\n        /* \"#utility.yul\":7655:8003   */\n      jump\n        /* \"contracts/token factory/LiquidityPool.sol\":3384:3441  require(token0 == address(0), \"Pool already initialized\") */\n    tag_239:\n        /* \"contracts/token factory/LiquidityPool.sol\":3452:3458  token0 */\n      0x01\n        /* \"contracts/token factory/LiquidityPool.sol\":3452:3468  token0 = _token0 */\n      dup1\n      sload\n      not(sub(shl(0xa0, 0x01), 0x01))\n      swap1\n      dup2\n      and\n      sub(shl(0xa0, 0x01), 0x01)\n      dup10\n      dup2\n      and\n      swap2\n      swap1\n      swap2\n      or\n      swap1\n      swap3\n      sstore\n        /* \"contracts/token factory/LiquidityPool.sol\":3478:3486  reserve0 */\n      0x06\n        /* \"contracts/token factory/LiquidityPool.sol\":3478:3509  reserve0 = _initialTokenReserve */\n      dup8\n      swap1\n      sstore\n        /* \"contracts/token factory/LiquidityPool.sol\":3519:3525  buyTax */\n      0x08\n        /* \"contracts/token factory/LiquidityPool.sol\":3519:3535  buyTax = _buyTax */\n      dup7\n      swap1\n      sstore\n        /* \"contracts/token factory/LiquidityPool.sol\":3545:3552  sellTax */\n      0x09\n        /* \"contracts/token factory/LiquidityPool.sol\":3545:3563  sellTax = _sellTax */\n      dup6\n      swap1\n      sstore\n        /* \"contracts/token factory/LiquidityPool.sol\":3573:3595  algebraPoolInitializer */\n      0x04\n        /* \"contracts/token factory/LiquidityPool.sol\":3573:3621  algebraPoolInitializer = _algebraPoolInitializer */\n      dup1\n      sload\n      swap1\n      swap2\n      and\n      swap2\n      dup5\n      and\n      swap2\n      swap1\n      swap2\n      or\n      swap1\n      sstore\n        /* \"contracts/token factory/LiquidityPool.sol\":3631:3651  autoMigrationEnabled */\n      0x0a\n        /* \"contracts/token factory/LiquidityPool.sol\":3631:3668  autoMigrationEnabled = _automigration */\n      dup1\n      sload\n      not(0xff00)\n      and\n        /* \"contracts/token factory/LiquidityPool.sol\":3452:3468  token0 = _token0 */\n      0x0100\n        /* \"contracts/token factory/LiquidityPool.sol\":3631:3668  autoMigrationEnabled = _automigration */\n      dup4\n      iszero\n      iszero\n      mul\n      or\n      swap1\n      sstore\n        /* \"contracts/token factory/LiquidityPool.sol\":3684:3732  LiquidityAdded(msg.sender, _initialTokenReserve) */\n      mload(0x40)\n        /* \"#utility.yul\":160:185   */\n      dup6\n      dup2\n      mstore\n        /* \"contracts/token factory/LiquidityPool.sol\":3699:3709  msg.sender */\n      caller\n      swap1\n        /* \"contracts/token factory/LiquidityPool.sol\":3684:3732  LiquidityAdded(msg.sender, _initialTokenReserve) */\n      0xc17cea59c2955cb181b03393209566960365771dbba9dc3d510180e7cb312088\n      swap1\n        /* \"#utility.yul\":148:150   */\n      0x20\n        /* \"#utility.yul\":133:151   */\n      add\n        /* \"contracts/token factory/LiquidityPool.sol\":3684:3732  LiquidityAdded(msg.sender, _initialTokenReserve) */\n      mload(0x40)\n      dup1\n      swap2\n      sub\n      swap1\n      log2\n        /* \"@openzeppelin/contracts/utils/ReentrancyGuard.sol\":2542:2562  _nonReentrantAfter() */\n      tag_243\n        /* \"@openzeppelin/contracts/utils/ReentrancyGuard.sol\":1857:1858  1 */\n      0x01\n        /* \"@openzeppelin/contracts/utils/ReentrancyGuard.sol\":3068:3075  _status */\n      0x00\n        /* \"@openzeppelin/contracts/utils/ReentrancyGuard.sol\":3068:3089  _status = NOT_ENTERED */\n      sstore\n        /* \"@openzeppelin/contracts/utils/ReentrancyGuard.sol\":2888:3096  function _nonReentrantAfter() private {... */\n      jump\n        /* \"@openzeppelin/contracts/utils/ReentrancyGuard.sol\":2542:2562  _nonReentrantAfter() */\n    tag_243:\n        /* \"contracts/token factory/LiquidityPool.sol\":3122:3739  function initialize(... */\n      pop\n      pop\n      pop\n      pop\n      pop\n      pop\n      jump\t// out\n        /* \"contracts/token factory/LiquidityPool.sol\":10548:10970  function calculateSqrtPriceX96(uint256 amount0, uint256 amount1) public pure returns (uint160) {... */\n    tag_126:\n        /* \"contracts/token factory/LiquidityPool.sol\":10634:10641  uint160 */\n      0x00\n        /* \"contracts/token factory/LiquidityPool.sol\":10667:10668  0 */\n      dup1\n        /* \"contracts/token factory/LiquidityPool.sol\":10657:10664  amount0 */\n      dup4\n        /* \"contracts/token factory/LiquidityPool.sol\":10657:10668  amount0 > 0 */\n      gt\n        /* \"contracts/token factory/LiquidityPool.sol\":10657:10683  amount0 > 0 && amount1 > 0 */\n      dup1\n      iszero\n      tag_245\n      jumpi\n      pop\n        /* \"contracts/token factory/LiquidityPool.sol\":10682:10683  0 */\n      0x00\n        /* \"contracts/token factory/LiquidityPool.sol\":10672:10679  amount1 */\n      dup3\n        /* \"contracts/token factory/LiquidityPool.sol\":10672:10683  amount1 > 0 */\n      gt\n        /* \"contracts/token factory/LiquidityPool.sol\":10657:10683  amount0 > 0 && amount1 > 0 */\n    tag_245:\n        /* \"contracts/token factory/LiquidityPool.sol\":10649:10721  require(amount0 > 0 && amount1 > 0, \"Amounts must be greater than zero\") */\n      tag_246\n      jumpi\n      mload(0x40)\n      shl(0xe5, 0x461bcd)\n      dup2\n      mstore\n        /* \"#utility.yul\":8210:8212   */\n      0x20\n        /* \"contracts/token factory/LiquidityPool.sol\":10649:10721  require(amount0 > 0 && amount1 > 0, \"Amounts must be greater than zero\") */\n      0x04\n      dup3\n      add\n        /* \"#utility.yul\":8192:8213   */\n      mstore\n        /* \"#utility.yul\":8249:8251   */\n      0x21\n        /* \"#utility.yul\":8229:8247   */\n      0x24\n      dup3\n      add\n        /* \"#utility.yul\":8222:8252   */\n      mstore\n        /* \"#utility.yul\":8288:8322   */\n      0x416d6f756e7473206d7573742062652067726561746572207468616e207a6572\n        /* \"#utility.yul\":8268:8286   */\n      0x44\n      dup3\n      add\n        /* \"#utility.yul\":8261:8323   */\n      mstore\n      shl(0xf8, 0x6f)\n        /* \"#utility.yul\":8339:8357   */\n      0x64\n      dup3\n      add\n        /* \"#utility.yul\":8332:8363   */\n      mstore\n        /* \"#utility.yul\":8380:8399   */\n      0x84\n      add\n        /* \"contracts/token factory/LiquidityPool.sol\":10649:10721  require(amount0 > 0 && amount1 > 0, \"Amounts must be greater than zero\") */\n      tag_154\n        /* \"#utility.yul\":8008:8405   */\n      jump\n        /* \"contracts/token factory/LiquidityPool.sol\":10649:10721  require(amount0 > 0 && amount1 > 0, \"Amounts must be greater than zero\") */\n    tag_246:\n        /* \"contracts/token factory/LiquidityPool.sol\":10727:10740  uint256 ratio */\n      0x00\n        /* \"contracts/token factory/LiquidityPool.sol\":10743:10768  (amount1 << 96) / amount0 */\n      tag_249\n        /* \"contracts/token factory/LiquidityPool.sol\":10761:10768  amount0 */\n      dup5\n        /* \"contracts/token factory/LiquidityPool.sol\":10755:10757  96 */\n      0x60\n        /* \"contracts/token factory/LiquidityPool.sol\":10744:10757  amount1 << 96 */\n      dup6\n      swap1\n      shl\n        /* \"contracts/token factory/LiquidityPool.sol\":10743:10768  (amount1 << 96) / amount0 */\n      tag_181\n      jump\t// in\n    tag_249:\n        /* \"contracts/token factory/LiquidityPool.sol\":10727:10768  uint256 ratio = (amount1 << 96) / amount0 */\n      swap1\n      pop\n        /* \"contracts/token factory/LiquidityPool.sol\":10842:10862  uint160 sqrtPriceX96 */\n      0x00\n        /* \"contracts/token factory/LiquidityPool.sol\":10888:10890  48 */\n      0x30\n        /* \"contracts/token factory/LiquidityPool.sol\":10873:10884  sqrt(ratio) */\n      tag_250\n        /* \"contracts/token factory/LiquidityPool.sol\":10878:10883  ratio */\n      dup4\n        /* \"contracts/token factory/LiquidityPool.sol\":10873:10877  sqrt */\n      tag_251\n        /* \"contracts/token factory/LiquidityPool.sol\":10873:10884  sqrt(ratio) */\n      jump\t// in\n    tag_250:\n        /* \"contracts/token factory/LiquidityPool.sol\":10873:10890  sqrt(ratio) << 48 */\n      swap1\n      shl\n      swap3\n      pop\n      pop\n      pop\n        /* \"contracts/token factory/LiquidityPool.sol\":10548:10970  function calculateSqrtPriceX96(uint256 amount0, uint256 amount1) public pure returns (uint160) {... */\n    tag_244:\n      swap3\n      swap2\n      pop\n      pop\n      jump\t// out\n        /* \"contracts/token factory/LiquidityPool.sol\":7121:8866  function buyToken()... */\n    tag_130:\n        /* \"contracts/token factory/LiquidityPool.sol\":7212:7229  uint256 amountOut */\n      0x00\n        /* \"@openzeppelin/contracts/utils/ReentrancyGuard.sol\":2500:2521  _nonReentrantBefore() */\n      tag_253\n        /* \"@openzeppelin/contracts/utils/ReentrancyGuard.sol\":2500:2519  _nonReentrantBefore */\n      tag_168\n        /* \"@openzeppelin/contracts/utils/ReentrancyGuard.sol\":2500:2521  _nonReentrantBefore() */\n      jump\t// in\n    tag_253:\n        /* \"contracts/token factory/LiquidityPool.sol\":7254:7271  migratedToAlgebra */\n      and(0xff, sload(0x0a))\n        /* \"contracts/token factory/LiquidityPool.sol\":7253:7271  !migratedToAlgebra */\n      iszero\n        /* \"contracts/token factory/LiquidityPool.sol\":7245:7300  require(!migratedToAlgebra, \"Pool migrated to Algebra\") */\n      tag_255\n      jumpi\n      mload(0x40)\n      shl(0xe5, 0x461bcd)\n      dup2\n      mstore\n        /* \"#utility.yul\":8612:8614   */\n      0x20\n        /* \"contracts/token factory/LiquidityPool.sol\":7245:7300  require(!migratedToAlgebra, \"Pool migrated to Algebra\") */\n      0x04\n      dup3\n      add\n        /* \"#utility.yul\":8594:8615   */\n      mstore\n        /* \"#utility.yul\":8651:8653   */\n      0x18\n        /* \"#utility.yul\":8631:8649   */\n      0x24\n      dup3\n      add\n        /* \"#utility.yul\":8624:8654   */\n      mstore\n        /* \"#utility.yul\":8690:8716   */\n      0x506f6f6c206d6967726174656420746f20416c67656272610000000000000000\n        /* \"#utility.yul\":8670:8688   */\n      0x44\n      dup3\n      add\n        /* \"#utility.yul\":8663:8717   */\n      mstore\n        /* \"#utility.yul\":8734:8752   */\n      0x64\n      add\n        /* \"contracts/token factory/LiquidityPool.sol\":7245:7300  require(!migratedToAlgebra, \"Pool migrated to Algebra\") */\n      tag_154\n        /* \"#utility.yul\":8410:8758   */\n      jump\n        /* \"contracts/token factory/LiquidityPool.sol\":7245:7300  require(!migratedToAlgebra, \"Pool migrated to Algebra\") */\n    tag_255:\n        /* \"contracts/token factory/LiquidityPool.sol\":7330:7331  0 */\n      0x00\n        /* \"contracts/token factory/LiquidityPool.sol\":7318:7327  msg.value */\n      callvalue\n        /* \"contracts/token factory/LiquidityPool.sol\":7318:7331  msg.value > 0 */\n      gt\n        /* \"contracts/token factory/LiquidityPool.sol\":7310:7365  require(msg.value > 0, \"Must send Ether to buy tokens\") */\n      tag_258\n      jumpi\n      mload(0x40)\n      shl(0xe5, 0x461bcd)\n      dup2\n      mstore\n        /* \"#utility.yul\":8965:8967   */\n      0x20\n        /* \"contracts/token factory/LiquidityPool.sol\":7310:7365  require(msg.value > 0, \"Must send Ether to buy tokens\") */\n      0x04\n      dup3\n      add\n        /* \"#utility.yul\":8947:8968   */\n      mstore\n        /* \"#utility.yul\":9004:9006   */\n      0x1d\n        /* \"#utility.yul\":8984:9002   */\n      0x24\n      dup3\n      add\n        /* \"#utility.yul\":8977:9007   */\n      mstore\n        /* \"#utility.yul\":9043:9074   */\n      0x4d7573742073656e6420457468657220746f2062757920746f6b656e73000000\n        /* \"#utility.yul\":9023:9041   */\n      0x44\n      dup3\n      add\n        /* \"#utility.yul\":9016:9075   */\n      mstore\n        /* \"#utility.yul\":9092:9110   */\n      0x64\n      add\n        /* \"contracts/token factory/LiquidityPool.sol\":7310:7365  require(msg.value > 0, \"Must send Ether to buy tokens\") */\n      tag_154\n        /* \"#utility.yul\":8763:9116   */\n      jump\n        /* \"contracts/token factory/LiquidityPool.sol\":7310:7365  require(msg.value > 0, \"Must send Ether to buy tokens\") */\n    tag_258:\n        /* \"contracts/token factory/LiquidityPool.sol\":7394:7403  0.2 ether */\n      0x02c68af0bb140000\n        /* \"contracts/token factory/LiquidityPool.sol\":7383:7391  reserve1 */\n      sload(0x07)\n        /* \"contracts/token factory/LiquidityPool.sol\":7383:7403  reserve1 < 0.2 ether */\n      lt\n        /* \"contracts/token factory/LiquidityPool.sol\":7375:7420  require(reserve1 < 0.2 ether, \"Pool is full\") */\n      tag_261\n      jumpi\n      mload(0x40)\n      shl(0xe5, 0x461bcd)\n      dup2\n      mstore\n        /* \"#utility.yul\":9323:9325   */\n      0x20\n        /* \"contracts/token factory/LiquidityPool.sol\":7375:7420  require(reserve1 < 0.2 ether, \"Pool is full\") */\n      0x04\n      dup3\n      add\n        /* \"#utility.yul\":9305:9326   */\n      mstore\n        /* \"#utility.yul\":9362:9364   */\n      0x0c\n        /* \"#utility.yul\":9342:9360   */\n      0x24\n      dup3\n      add\n        /* \"#utility.yul\":9335:9365   */\n      mstore\n      shl(0xa2, 0x141bdbdb081a5cc8199d5b1b)\n        /* \"#utility.yul\":9381:9399   */\n      0x44\n      dup3\n      add\n        /* \"#utility.yul\":9374:9416   */\n      mstore\n        /* \"#utility.yul\":9433:9451   */\n      0x64\n      add\n        /* \"contracts/token factory/LiquidityPool.sol\":7375:7420  require(reserve1 < 0.2 ether, \"Pool is full\") */\n      tag_154\n        /* \"#utility.yul\":9121:9457   */\n      jump\n        /* \"contracts/token factory/LiquidityPool.sol\":7375:7420  require(reserve1 < 0.2 ether, \"Pool is full\") */\n    tag_261:\n        /* \"contracts/token factory/LiquidityPool.sol\":7449:7450  0 */\n      0x00\n        /* \"contracts/token factory/LiquidityPool.sol\":7438:7446  reserve0 */\n      sload(0x06)\n        /* \"contracts/token factory/LiquidityPool.sol\":7438:7450  reserve0 > 0 */\n      gt\n        /* \"contracts/token factory/LiquidityPool.sol\":7430:7476  require(reserve0 > 0, \"No tokens in the pool\") */\n      tag_264\n      jumpi\n      mload(0x40)\n      shl(0xe5, 0x461bcd)\n      dup2\n      mstore\n        /* \"#utility.yul\":9664:9666   */\n      0x20\n        /* \"contracts/token factory/LiquidityPool.sol\":7430:7476  require(reserve0 > 0, \"No tokens in the pool\") */\n      0x04\n      dup3\n      add\n        /* \"#utility.yul\":9646:9667   */\n      mstore\n        /* \"#utility.yul\":9703:9705   */\n      0x15\n        /* \"#utility.yul\":9683:9701   */\n      0x24\n      dup3\n      add\n        /* \"#utility.yul\":9676:9706   */\n      mstore\n      shl(0x5a, 0x139bc81d1bdad95b9cc81a5b881d1a19481c1bdbdb)\n        /* \"#utility.yul\":9722:9740   */\n      0x44\n      dup3\n      add\n        /* \"#utility.yul\":9715:9766   */\n      mstore\n        /* \"#utility.yul\":9783:9801   */\n      0x64\n      add\n        /* \"contracts/token factory/LiquidityPool.sol\":7430:7476  require(reserve0 > 0, \"No tokens in the pool\") */\n      tag_154\n        /* \"#utility.yul\":9462:9807   */\n      jump\n        /* \"contracts/token factory/LiquidityPool.sol\":7430:7476  require(reserve0 > 0, \"No tokens in the pool\") */\n    tag_264:\n        /* \"contracts/token factory/LiquidityPool.sol\":7487:7498  uint256 tax */\n      0x00\n        /* \"contracts/token factory/LiquidityPool.sol\":7524:7528  1000 */\n      0x03e8\n        /* \"contracts/token factory/LiquidityPool.sol\":7514:7520  buyTax */\n      sload(0x08)\n        /* \"contracts/token factory/LiquidityPool.sol\":7502:7511  msg.value */\n      callvalue\n        /* \"contracts/token factory/LiquidityPool.sol\":7502:7520  msg.value * buyTax */\n      tag_267\n      swap2\n      swap1\n      tag_179\n      jump\t// in\n    tag_267:\n        /* \"contracts/token factory/LiquidityPool.sol\":7501:7528  (msg.value * buyTax) / 1000 */\n      tag_268\n      swap2\n      swap1\n      tag_181\n      jump\t// in\n    tag_268:\n        /* \"contracts/token factory/LiquidityPool.sol\":7487:7528  uint256 tax = (msg.value * buyTax) / 1000 */\n      swap1\n      pop\n        /* \"contracts/token factory/LiquidityPool.sol\":7538:7562  uint256 amountInAfterTax */\n      0x00\n        /* \"contracts/token factory/LiquidityPool.sol\":7565:7580  msg.value - tax */\n      tag_269\n        /* \"contracts/token factory/LiquidityPool.sol\":7487:7528  uint256 tax = (msg.value * buyTax) / 1000 */\n      dup3\n        /* \"contracts/token factory/LiquidityPool.sol\":7565:7574  msg.value */\n      callvalue\n        /* \"contracts/token factory/LiquidityPool.sol\":7565:7580  msg.value - tax */\n      tag_184\n      jump\t// in\n    tag_269:\n        /* \"contracts/token factory/LiquidityPool.sol\":7538:7580  uint256 amountInAfterTax = msg.value - tax */\n      swap1\n      pop\n        /* \"contracts/token factory/LiquidityPool.sol\":7626:7635  0.2 ether */\n      0x02c68af0bb140000\n        /* \"contracts/token factory/LiquidityPool.sol\":7606:7622  amountInAfterTax */\n      dup2\n        /* \"contracts/token factory/LiquidityPool.sol\":7595:7603  reserve1 */\n      sload(0x07)\n        /* \"contracts/token factory/LiquidityPool.sol\":7595:7622  reserve1 + amountInAfterTax */\n      tag_270\n      swap2\n      swap1\n      tag_174\n      jump\t// in\n    tag_270:\n        /* \"contracts/token factory/LiquidityPool.sol\":7595:7635  reserve1 + amountInAfterTax >= 0.2 ether */\n      lt\n        /* \"contracts/token factory/LiquidityPool.sol\":7591:8583  if (reserve1 + amountInAfterTax >= 0.2 ether) {... */\n      tag_271\n      jumpi\n        /* \"contracts/token factory/LiquidityPool.sol\":7651:7669  uint256 etherToUse */\n      0x00\n        /* \"contracts/token factory/LiquidityPool.sol\":7684:7692  reserve1 */\n      sload(0x07)\n        /* \"contracts/token factory/LiquidityPool.sol\":7672:7681  0.2 ether */\n      0x02c68af0bb140000\n        /* \"contracts/token factory/LiquidityPool.sol\":7672:7692  0.2 ether - reserve1 */\n      tag_272\n      swap2\n      swap1\n      tag_184\n      jump\t// in\n    tag_272:\n        /* \"contracts/token factory/LiquidityPool.sol\":7651:7692  uint256 etherToUse = 0.2 ether - reserve1 */\n      swap1\n      pop\n        /* \"contracts/token factory/LiquidityPool.sol\":7706:7720  uint256 refund */\n      0x00\n        /* \"contracts/token factory/LiquidityPool.sol\":7723:7752  amountInAfterTax - etherToUse */\n      tag_273\n        /* \"contracts/token factory/LiquidityPool.sol\":7651:7692  uint256 etherToUse = 0.2 ether - reserve1 */\n      dup3\n        /* \"contracts/token factory/LiquidityPool.sol\":7723:7739  amountInAfterTax */\n      dup5\n        /* \"contracts/token factory/LiquidityPool.sol\":7723:7752  amountInAfterTax - etherToUse */\n      tag_184\n      jump\t// in\n    tag_273:\n        /* \"contracts/token factory/LiquidityPool.sol\":7706:7752  uint256 refund = amountInAfterTax - etherToUse */\n      swap1\n      pop\n        /* \"contracts/token factory/LiquidityPool.sol\":7779:7789  etherToUse */\n      dup2\n        /* \"contracts/token factory/LiquidityPool.sol\":7767:7775  reserve1 */\n      0x07\n      0x00\n        /* \"contracts/token factory/LiquidityPool.sol\":7767:7789  reserve1 += etherToUse */\n      dup3\n      dup3\n      sload\n      tag_274\n      swap2\n      swap1\n      tag_174\n      jump\t// in\n    tag_274:\n      swap1\n      swap2\n      sstore\n      pop\n      pop\n        /* \"contracts/token factory/LiquidityPool.sol\":7815:7823  reserve0 */\n      0x06\n      dup1\n      sload\n        /* \"contracts/token factory/LiquidityPool.sol\":7848:7849  0 */\n      0x00\n        /* \"contracts/token factory/LiquidityPool.sol\":7837:7849  reserve0 = 0 */\n      swap1\n      swap2\n      sstore\n        /* \"contracts/token factory/LiquidityPool.sol\":7815:7823  reserve0 */\n      swap5\n      pop\n        /* \"contracts/token factory/LiquidityPool.sol\":7868:7878  refund > 0 */\n      dup1\n      iszero\n        /* \"contracts/token factory/LiquidityPool.sol\":7864:8039  if (refund > 0) {... */\n      tag_275\n      jumpi\n        /* \"contracts/token factory/LiquidityPool.sol\":7920:7954  msg.sender.call{value: refund}(\"\") */\n      mload(0x40)\n        /* \"contracts/token factory/LiquidityPool.sol\":7899:7914  bool refundSent */\n      0x00\n      swap1\n        /* \"contracts/token factory/LiquidityPool.sol\":7920:7930  msg.sender */\n      caller\n      swap1\n        /* \"contracts/token factory/LiquidityPool.sol\":7943:7949  refund */\n      dup4\n      swap1\n        /* \"contracts/token factory/LiquidityPool.sol\":7899:7914  bool refundSent */\n      dup4\n        /* \"contracts/token factory/LiquidityPool.sol\":7920:7954  msg.sender.call{value: refund}(\"\") */\n      dup2\n        /* \"contracts/token factory/LiquidityPool.sol\":7899:7914  bool refundSent */\n      dup2\n        /* \"contracts/token factory/LiquidityPool.sol\":7920:7954  msg.sender.call{value: refund}(\"\") */\n      dup2\n        /* \"contracts/token factory/LiquidityPool.sol\":7943:7949  refund */\n      dup6\n        /* \"contracts/token factory/LiquidityPool.sol\":7920:7930  msg.sender */\n      dup8\n        /* \"contracts/token factory/LiquidityPool.sol\":7920:7954  msg.sender.call{value: refund}(\"\") */\n      gas\n      call\n      swap3\n      pop\n      pop\n      pop\n      returndatasize\n      dup1\n      0x00\n      dup2\n      eq\n      tag_279\n      jumpi\n      mload(0x40)\n      swap2\n      pop\n      and(add(returndatasize, 0x3f), not(0x1f))\n      dup3\n      add\n      0x40\n      mstore\n      returndatasize\n      dup3\n      mstore\n      returndatasize\n      0x00\n      0x20\n      dup5\n      add\n      returndatacopy\n      jump(tag_278)\n    tag_279:\n      0x60\n      swap2\n      pop\n    tag_278:\n      pop\n        /* \"contracts/token factory/LiquidityPool.sol\":7898:7954  (bool refundSent, ) = msg.sender.call{value: refund}(\"\") */\n      pop\n      swap1\n      pop\n        /* \"contracts/token factory/LiquidityPool.sol\":7980:7990  refundSent */\n      dup1\n        /* \"contracts/token factory/LiquidityPool.sol\":7972:8024  require(refundSent, \"Failed to refund excess ether\") */\n      tag_280\n      jumpi\n      mload(0x40)\n      shl(0xe5, 0x461bcd)\n      dup2\n      mstore\n        /* \"#utility.yul\":10014:10016   */\n      0x20\n        /* \"contracts/token factory/LiquidityPool.sol\":7972:8024  require(refundSent, \"Failed to refund excess ether\") */\n      0x04\n      dup3\n      add\n        /* \"#utility.yul\":9996:10017   */\n      mstore\n        /* \"#utility.yul\":10053:10055   */\n      0x1d\n        /* \"#utility.yul\":10033:10051   */\n      0x24\n      dup3\n      add\n        /* \"#utility.yul\":10026:10056   */\n      mstore\n        /* \"#utility.yul\":10092:10123   */\n      0x4661696c656420746f20726566756e6420657863657373206574686572000000\n        /* \"#utility.yul\":10072:10090   */\n      0x44\n      dup3\n      add\n        /* \"#utility.yul\":10065:10124   */\n      mstore\n        /* \"#utility.yul\":10141:10159   */\n      0x64\n      add\n        /* \"contracts/token factory/LiquidityPool.sol\":7972:8024  require(refundSent, \"Failed to refund excess ether\") */\n      tag_154\n        /* \"#utility.yul\":9812:10165   */\n      jump\n        /* \"contracts/token factory/LiquidityPool.sol\":7972:8024  require(refundSent, \"Failed to refund excess ether\") */\n    tag_280:\n        /* \"contracts/token factory/LiquidityPool.sol\":7880:8039  {... */\n      pop\n        /* \"contracts/token factory/LiquidityPool.sol\":7864:8039  if (refund > 0) {... */\n    tag_275:\n        /* \"contracts/token factory/LiquidityPool.sol\":7637:8049  {... */\n      pop\n      pop\n        /* \"contracts/token factory/LiquidityPool.sol\":7591:8583  if (reserve1 + amountInAfterTax >= 0.2 ether) {... */\n      jump(tag_283)\n    tag_271:\n        /* \"contracts/token factory/LiquidityPool.sol\":8069:8088  uint256 newReserve1 */\n      0x00\n        /* \"contracts/token factory/LiquidityPool.sol\":8102:8118  amountInAfterTax */\n      dup2\n        /* \"contracts/token factory/LiquidityPool.sol\":8091:8099  reserve1 */\n      sload(0x07)\n        /* \"contracts/token factory/LiquidityPool.sol\":8091:8118  reserve1 + amountInAfterTax */\n      tag_284\n      swap2\n      swap1\n      tag_174\n      jump\t// in\n    tag_284:\n        /* \"contracts/token factory/LiquidityPool.sol\":8069:8118  uint256 newReserve1 = reserve1 + amountInAfterTax */\n      swap1\n      pop\n        /* \"contracts/token factory/LiquidityPool.sol\":8132:8148  uint256 quotient */\n      0x00\n        /* \"contracts/token factory/LiquidityPool.sol\":8228:8255  newReserve1 + Y_DELTA_LOWER */\n      tag_285\n        /* \"contracts/token factory/LiquidityPool.sol\":833:850  31864892854290958 */\n      0x7134f38362ca0e\n        /* \"contracts/token factory/LiquidityPool.sol\":8069:8118  uint256 newReserve1 = reserve1 + amountInAfterTax */\n      dup4\n        /* \"contracts/token factory/LiquidityPool.sol\":8228:8255  newReserve1 + Y_DELTA_LOWER */\n      tag_174\n      jump\t// in\n    tag_285:\n        /* \"contracts/token factory/LiquidityPool.sol\":896:913  31864892854294116 */\n      0x7134f38362d664\n        /* \"contracts/token factory/LiquidityPool.sol\":8198:8206  reserve1 */\n      sload(0x07)\n        /* \"contracts/token factory/LiquidityPool.sol\":8198:8222  reserve1 + Y_DELTA_UPPER */\n      tag_286\n      swap2\n      swap1\n      tag_174\n      jump\t// in\n    tag_286:\n        /* \"contracts/token factory/LiquidityPool.sol\":760:787  257627658726993462773682809 */\n      0xd51ac75d3cbca700901279\n        /* \"contracts/token factory/LiquidityPool.sol\":8153:8161  reserve0 */\n      sload(0x06)\n        /* \"contracts/token factory/LiquidityPool.sol\":8153:8177  reserve0 + X_DELTA_UPPER */\n      tag_287\n      swap2\n      swap1\n      tag_174\n      jump\t// in\n    tag_287:\n        /* \"contracts/token factory/LiquidityPool.sol\":8152:8223  (reserve0 + X_DELTA_UPPER) *... */\n      tag_288\n      swap2\n      swap1\n      tag_179\n      jump\t// in\n    tag_288:\n        /* \"contracts/token factory/LiquidityPool.sol\":8151:8256  ((reserve0 + X_DELTA_UPPER) *... */\n      tag_289\n      swap2\n      swap1\n      tag_181\n      jump\t// in\n    tag_289:\n        /* \"contracts/token factory/LiquidityPool.sol\":8132:8256  uint256 quotient = ((reserve0 + X_DELTA_UPPER) *... */\n      swap1\n      pop\n        /* \"contracts/token factory/LiquidityPool.sol\":687:714  257627658726967931872702964 */\n      0xd51ac75d3ca56ea04771f4\n        /* \"contracts/token factory/LiquidityPool.sol\":8274:8282  quotient */\n      dup2\n        /* \"contracts/token factory/LiquidityPool.sol\":8274:8298  quotient < X_DELTA_LOWER */\n      lt\n        /* \"contracts/token factory/LiquidityPool.sol\":8270:8357  if (quotient < X_DELTA_LOWER) {... */\n      iszero\n      tag_290\n      jumpi\n      pop\n        /* \"contracts/token factory/LiquidityPool.sol\":687:714  257627658726967931872702964 */\n      0xd51ac75d3ca56ea04771f4\n        /* \"contracts/token factory/LiquidityPool.sol\":8270:8357  if (quotient < X_DELTA_LOWER) {... */\n    tag_290:\n        /* \"contracts/token factory/LiquidityPool.sol\":8370:8389  uint256 newReserve0 */\n      0x00\n        /* \"contracts/token factory/LiquidityPool.sol\":8392:8416  quotient - X_DELTA_LOWER */\n      tag_291\n        /* \"contracts/token factory/LiquidityPool.sol\":687:714  257627658726967931872702964 */\n      0xd51ac75d3ca56ea04771f4\n        /* \"contracts/token factory/LiquidityPool.sol\":8392:8400  quotient */\n      dup4\n        /* \"contracts/token factory/LiquidityPool.sol\":8392:8416  quotient - X_DELTA_LOWER */\n      tag_184\n      jump\t// in\n    tag_291:\n        /* \"contracts/token factory/LiquidityPool.sol\":8370:8416  uint256 newReserve0 = quotient - X_DELTA_LOWER */\n      swap1\n      pop\n        /* \"contracts/token factory/LiquidityPool.sol\":8456:8464  reserve0 */\n      sload(0x06)\n        /* \"contracts/token factory/LiquidityPool.sol\":8442:8453  newReserve0 */\n      dup2\n        /* \"contracts/token factory/LiquidityPool.sol\":8442:8464  newReserve0 > reserve0 */\n      gt\n        /* \"contracts/token factory/LiquidityPool.sol\":8442:8500  newReserve0 > reserve0 ? reserve0 : reserve0 - newReserve0 */\n      tag_292\n      jumpi\n        /* \"contracts/token factory/LiquidityPool.sol\":8489:8500  newReserve0 */\n      dup1\n        /* \"contracts/token factory/LiquidityPool.sol\":8478:8486  reserve0 */\n      sload(0x06)\n        /* \"contracts/token factory/LiquidityPool.sol\":8478:8500  reserve0 - newReserve0 */\n      tag_293\n      swap2\n      swap1\n      tag_184\n      jump\t// in\n    tag_293:\n        /* \"contracts/token factory/LiquidityPool.sol\":8442:8500  newReserve0 > reserve0 ? reserve0 : reserve0 - newReserve0 */\n      jump(tag_294)\n    tag_292:\n        /* \"contracts/token factory/LiquidityPool.sol\":8467:8475  reserve0 */\n      sload(0x06)\n        /* \"contracts/token factory/LiquidityPool.sol\":8442:8500  newReserve0 > reserve0 ? reserve0 : reserve0 - newReserve0 */\n    tag_294:\n        /* \"contracts/token factory/LiquidityPool.sol\":8430:8500  amountOut = newReserve0 > reserve0 ? reserve0 : reserve0 - newReserve0 */\n      swap6\n      pop\n        /* \"contracts/token factory/LiquidityPool.sol\":8526:8537  newReserve1 */\n      dup3\n        /* \"contracts/token factory/LiquidityPool.sol\":8515:8523  reserve1 */\n      0x07\n        /* \"contracts/token factory/LiquidityPool.sol\":8515:8537  reserve1 = newReserve1 */\n      dup2\n      swap1\n      sstore\n      pop\n        /* \"contracts/token factory/LiquidityPool.sol\":8563:8572  amountOut */\n      dup6\n        /* \"contracts/token factory/LiquidityPool.sol\":8551:8559  reserve0 */\n      0x06\n      0x00\n        /* \"contracts/token factory/LiquidityPool.sol\":8551:8572  reserve0 -= amountOut */\n      dup3\n      dup3\n      sload\n      tag_295\n      swap2\n      swap1\n      tag_184\n      jump\t// in\n    tag_295:\n      swap1\n      swap2\n      sstore\n      pop\n      pop\n      pop\n      pop\n      pop\n        /* \"contracts/token factory/LiquidityPool.sol\":7591:8583  if (reserve1 + amountInAfterTax >= 0.2 ether) {... */\n    tag_283:\n        /* \"contracts/token factory/LiquidityPool.sol\":8608:8614  token0 */\n      sload(0x01)\n        /* \"contracts/token factory/LiquidityPool.sol\":8601:8647  IERC20(token0).transfer(msg.sender, amountOut) */\n      mload(0x40)\n      shl(0xe0, 0xa9059cbb)\n      dup2\n      mstore\n        /* \"contracts/token factory/LiquidityPool.sol\":8625:8635  msg.sender */\n      caller\n        /* \"contracts/token factory/LiquidityPool.sol\":8601:8647  IERC20(token0).transfer(msg.sender, amountOut) */\n      0x04\n      dup3\n      add\n        /* \"#utility.yul\":10344:10395   */\n      mstore\n        /* \"#utility.yul\":10411:10429   */\n      0x24\n      dup2\n      add\n        /* \"#utility.yul\":10404:10438   */\n      dup6\n      swap1\n      mstore\n      sub(shl(0xa0, 0x01), 0x01)\n        /* \"contracts/token factory/LiquidityPool.sol\":8608:8614  token0 */\n      swap1\n      swap2\n      and\n      swap1\n        /* \"contracts/token factory/LiquidityPool.sol\":8601:8624  IERC20(token0).transfer */\n      0xa9059cbb\n      swap1\n        /* \"#utility.yul\":10317:10335   */\n      0x44\n      add\n        /* \"contracts/token factory/LiquidityPool.sol\":8601:8647  IERC20(token0).transfer(msg.sender, amountOut) */\n      0x20\n      mload(0x40)\n      dup1\n      dup4\n      sub\n      dup2\n      0x00\n      dup8\n      gas\n      call\n      iszero\n      dup1\n      iszero\n      tag_299\n      jumpi\n      returndatasize\n      0x00\n      dup1\n      returndatacopy\n      revert(0x00, returndatasize)\n    tag_299:\n      pop\n      pop\n      pop\n      pop\n      mload(0x40)\n      returndatasize\n      not(0x1f)\n      0x1f\n      dup3\n      add\n      and\n      dup3\n      add\n      dup1\n      0x40\n      mstore\n      pop\n      dup2\n      add\n      swap1\n      tag_300\n      swap2\n      swap1\n      tag_205\n      jump\t// in\n    tag_300:\n        /* \"contracts/token factory/LiquidityPool.sol\":8593:8677  require(IERC20(token0).transfer(msg.sender, amountOut), \"Failed to transfer tokens\") */\n      tag_301\n      jumpi\n      mload(0x40)\n      shl(0xe5, 0x461bcd)\n      dup2\n      mstore\n        /* \"#utility.yul\":6426:6428   */\n      0x20\n        /* \"contracts/token factory/LiquidityPool.sol\":8593:8677  require(IERC20(token0).transfer(msg.sender, amountOut), \"Failed to transfer tokens\") */\n      0x04\n      dup3\n      add\n        /* \"#utility.yul\":6408:6429   */\n      mstore\n        /* \"#utility.yul\":6465:6467   */\n      0x19\n        /* \"#utility.yul\":6445:6463   */\n      0x24\n      dup3\n      add\n        /* \"#utility.yul\":6438:6468   */\n      mstore\n      shl(0x38, 0x4661696c656420746f207472616e7366657220746f6b656e73)\n        /* \"#utility.yul\":6484:6502   */\n      0x44\n      dup3\n      add\n        /* \"#utility.yul\":6477:6532   */\n      mstore\n        /* \"#utility.yul\":6549:6567   */\n      0x64\n      add\n        /* \"contracts/token factory/LiquidityPool.sol\":8593:8677  require(IERC20(token0).transfer(msg.sender, amountOut), \"Failed to transfer tokens\") */\n      tag_154\n        /* \"#utility.yul\":6224:6573   */\n      jump\n        /* \"contracts/token factory/LiquidityPool.sol\":8593:8677  require(IERC20(token0).transfer(msg.sender, amountOut), \"Failed to transfer tokens\") */\n    tag_301:\n        /* \"contracts/token factory/LiquidityPool.sol\":8707:8717  devAddress */\n      sload(0x03)\n        /* \"contracts/token factory/LiquidityPool.sol\":8707:8738  devAddress.call{value: tax}(\"\") */\n      mload(0x40)\n        /* \"contracts/token factory/LiquidityPool.sol\":8689:8701  bool taxSent */\n      0x00\n      swap2\n      sub(shl(0xa0, 0x01), 0x01)\n        /* \"contracts/token factory/LiquidityPool.sol\":8707:8717  devAddress */\n      and\n      swap1\n        /* \"contracts/token factory/LiquidityPool.sol\":8730:8733  tax */\n      dup5\n      swap1\n        /* \"contracts/token factory/LiquidityPool.sol\":8689:8701  bool taxSent */\n      dup4\n        /* \"contracts/token factory/LiquidityPool.sol\":8707:8738  devAddress.call{value: tax}(\"\") */\n      dup2\n        /* \"contracts/token factory/LiquidityPool.sol\":8689:8701  bool taxSent */\n      dup2\n        /* \"contracts/token factory/LiquidityPool.sol\":8707:8738  devAddress.call{value: tax}(\"\") */\n      dup2\n        /* \"contracts/token factory/LiquidityPool.sol\":8730:8733  tax */\n      dup6\n        /* \"contracts/token factory/LiquidityPool.sol\":8707:8717  devAddress */\n      dup8\n        /* \"contracts/token factory/LiquidityPool.sol\":8707:8738  devAddress.call{value: tax}(\"\") */\n      gas\n      call\n      swap3\n      pop\n      pop\n      pop\n      returndatasize\n      dup1\n      0x00\n      dup2\n      eq\n      tag_306\n      jumpi\n      mload(0x40)\n      swap2\n      pop\n      and(add(returndatasize, 0x3f), not(0x1f))\n      dup3\n      add\n      0x40\n      mstore\n      returndatasize\n      dup3\n      mstore\n      returndatasize\n      0x00\n      0x20\n      dup5\n      add\n      returndatacopy\n      jump(tag_305)\n    tag_306:\n      0x60\n      swap2\n      pop\n    tag_305:\n      pop\n        /* \"contracts/token factory/LiquidityPool.sol\":8688:8738  (bool taxSent, ) = devAddress.call{value: tax}(\"\") */\n      pop\n      swap1\n      pop\n        /* \"contracts/token factory/LiquidityPool.sol\":8756:8763  taxSent */\n      dup1\n        /* \"contracts/token factory/LiquidityPool.sol\":8748:8790  require(taxSent, \"Failed to send buy tax\") */\n      tag_307\n      jumpi\n      mload(0x40)\n      shl(0xe5, 0x461bcd)\n      dup2\n      mstore\n        /* \"#utility.yul\":10651:10653   */\n      0x20\n        /* \"contracts/token factory/LiquidityPool.sol\":8748:8790  require(taxSent, \"Failed to send buy tax\") */\n      0x04\n      dup3\n      add\n        /* \"#utility.yul\":10633:10654   */\n      mstore\n        /* \"#utility.yul\":10690:10692   */\n      0x16\n        /* \"#utility.yul\":10670:10688   */\n      0x24\n      dup3\n      add\n        /* \"#utility.yul\":10663:10693   */\n      mstore\n      shl(0x53, 0x08cc2d2d8cac840e8de40e6cadcc840c4eaf240e8c2f)\n        /* \"#utility.yul\":10709:10727   */\n      0x44\n      dup3\n      add\n        /* \"#utility.yul\":10702:10754   */\n      mstore\n        /* \"#utility.yul\":10771:10789   */\n      0x64\n      add\n        /* \"contracts/token factory/LiquidityPool.sol\":8748:8790  require(taxSent, \"Failed to send buy tax\") */\n      tag_154\n        /* \"#utility.yul\":10449:10795   */\n      jump\n        /* \"contracts/token factory/LiquidityPool.sol\":8748:8790  require(taxSent, \"Failed to send buy tax\") */\n    tag_307:\n        /* \"contracts/token factory/LiquidityPool.sol\":8805:8859  TokensPurchased(msg.sender, msg.value, amountOut, tax) */\n      0x40\n      dup1\n      mload\n        /* \"contracts/token factory/LiquidityPool.sol\":8833:8842  msg.value */\n      callvalue\n        /* \"#utility.yul\":7129:7154   */\n      dup2\n      mstore\n        /* \"#utility.yul\":7185:7187   */\n      0x20\n        /* \"#utility.yul\":7170:7188   */\n      dup2\n      add\n        /* \"#utility.yul\":7163:7197   */\n      dup7\n      swap1\n      mstore\n        /* \"#utility.yul\":7213:7231   */\n      swap1\n      dup2\n      add\n        /* \"#utility.yul\":7206:7240   */\n      dup5\n      swap1\n      mstore\n        /* \"contracts/token factory/LiquidityPool.sol\":8821:8831  msg.sender */\n      caller\n      swap1\n        /* \"contracts/token factory/LiquidityPool.sol\":8805:8859  TokensPurchased(msg.sender, msg.value, amountOut, tax) */\n      0x0d1a0d5e3d583a0e92588799dd06e50fd78c07daf05f0cc06d7b848b1ca445f1\n      swap1\n        /* \"#utility.yul\":7117:7119   */\n      0x60\n        /* \"#utility.yul\":7102:7120   */\n      add\n        /* \"contracts/token factory/LiquidityPool.sol\":8805:8859  TokensPurchased(msg.sender, msg.value, amountOut, tax) */\n      mload(0x40)\n      dup1\n      swap2\n      sub\n      swap1\n      log2\n        /* \"contracts/token factory/LiquidityPool.sol\":7235:8866  {... */\n      pop\n      pop\n      pop\n        /* \"@openzeppelin/contracts/utils/ReentrancyGuard.sol\":2542:2562  _nonReentrantAfter() */\n      tag_311\n        /* \"@openzeppelin/contracts/utils/ReentrancyGuard.sol\":1857:1858  1 */\n      0x01\n        /* \"@openzeppelin/contracts/utils/ReentrancyGuard.sol\":3068:3075  _status */\n      0x00\n        /* \"@openzeppelin/contracts/utils/ReentrancyGuard.sol\":3068:3089  _status = NOT_ENTERED */\n      sstore\n        /* \"@openzeppelin/contracts/utils/ReentrancyGuard.sol\":2888:3096  function _nonReentrantAfter() private {... */\n      jump\n        /* \"@openzeppelin/contracts/utils/ReentrancyGuard.sol\":2542:2562  _nonReentrantAfter() */\n    tag_311:\n        /* \"contracts/token factory/LiquidityPool.sol\":7121:8866  function buyToken()... */\n      swap1\n      jump\t// out\n        /* \"contracts/token factory/LiquidityPool.sol\":10493:10547  function forceMigration() external  {... */\n    tag_134:\n        /* \"contracts/token factory/LiquidityPool.sol\":10535:10544  migrate() */\n      tag_313\n        /* \"contracts/token factory/LiquidityPool.sol\":10535:10542  migrate */\n      tag_314\n        /* \"contracts/token factory/LiquidityPool.sol\":10535:10544  migrate() */\n      jump\t// in\n    tag_313:\n        /* \"contracts/token factory/LiquidityPool.sol\":10493:10547  function forceMigration() external  {... */\n      jump\t// out\n        /* \"contracts/token factory/LiquidityPool.sol\":4024:4176  function toggleAutoMigration(bool enable) external onlyFactory {... */\n    tag_139:\n        /* \"contracts/token factory/LiquidityPool.sol\":2591:2603  tokenFactory */\n      and(sub(shl(0xa0, 0x01), 0x01), sload(0x02))\n        /* \"contracts/token factory/LiquidityPool.sol\":2577:2587  msg.sender */\n      caller\n        /* \"contracts/token factory/LiquidityPool.sol\":2577:2603  msg.sender == tokenFactory */\n      eq\n        /* \"contracts/token factory/LiquidityPool.sol\":2569:2638  require(msg.sender == tokenFactory, \"Caller is not the TokenFactory\") */\n      tag_316\n      jumpi\n      mload(0x40)\n      shl(0xe5, 0x461bcd)\n      dup2\n      mstore\n      0x04\n      add\n      tag_154\n      swap1\n      tag_155\n      jump\t// in\n    tag_316:\n        /* \"contracts/token factory/LiquidityPool.sol\":4097:4117  autoMigrationEnabled */\n      0x0a\n        /* \"contracts/token factory/LiquidityPool.sol\":4097:4126  autoMigrationEnabled = enable */\n      dup1\n      sload\n      dup3\n      iszero\n      iszero\n      0x0100\n      mul\n      not(0xff00)\n      swap1\n      swap2\n      and\n      or\n      swap1\n      sstore\n        /* \"contracts/token factory/LiquidityPool.sol\":4141:4169  AutoMigrationToggled(enable) */\n      mload(0x40)\n      0xe7e0bd136ab3b57e3e925774a811e2482df79072fa45d011a4f088abfcc209d2\n      swap1\n      tag_165\n      swap1\n        /* \"contracts/token factory/LiquidityPool.sol\":4120:4126  enable */\n      dup4\n        /* \"#utility.yul\":1422:1436   */\n      iszero\n        /* \"#utility.yul\":1415:1437   */\n      iszero\n        /* \"#utility.yul\":1397:1438   */\n      dup2\n      mstore\n        /* \"#utility.yul\":1385:1387   */\n      0x20\n        /* \"#utility.yul\":1370:1388   */\n      add\n      swap1\n        /* \"#utility.yul\":1257:1444   */\n      jump\n        /* \"@openzeppelin/contracts/utils/ReentrancyGuard.sol\":2575:2882  function _nonReentrantBefore() private {... */\n    tag_168:\n        /* \"@openzeppelin/contracts/utils/ReentrancyGuard.sol\":1899:1900  2 */\n      0x02\n        /* \"@openzeppelin/contracts/utils/ReentrancyGuard.sol\":2702:2709  _status */\n      sload(0x00)\n        /* \"@openzeppelin/contracts/utils/ReentrancyGuard.sol\":2702:2720  _status == ENTERED */\n      sub\n        /* \"@openzeppelin/contracts/utils/ReentrancyGuard.sol\":2698:2784  if (_status == ENTERED) {... */\n      tag_321\n      jumpi\n        /* \"@openzeppelin/contracts/utils/ReentrancyGuard.sol\":2743:2773  ReentrancyGuardReentrantCall() */\n      mload(0x40)\n      shl(0xe0, 0x3ee5aeb5)\n      dup2\n      mstore\n      0x04\n      add\n      mload(0x40)\n      dup1\n      swap2\n      sub\n      swap1\n      revert\n        /* \"@openzeppelin/contracts/utils/ReentrancyGuard.sol\":2698:2784  if (_status == ENTERED) {... */\n    tag_321:\n        /* \"@openzeppelin/contracts/utils/ReentrancyGuard.sol\":1899:1900  2 */\n      0x02\n        /* \"@openzeppelin/contracts/utils/ReentrancyGuard.sol\":2858:2865  _status */\n      0x00\n        /* \"@openzeppelin/contracts/utils/ReentrancyGuard.sol\":2858:2875  _status = ENTERED */\n      sstore\n        /* \"@openzeppelin/contracts/utils/ReentrancyGuard.sol\":2575:2882  function _nonReentrantBefore() private {... */\n      jump\t// out\n        /* \"contracts/token factory/LiquidityPool.sol\":11027:11219  function sqrt(uint256 x) internal pure returns (uint256) {... */\n    tag_251:\n        /* \"contracts/token factory/LiquidityPool.sol\":11075:11082  uint256 */\n      0x00\n      dup1\n        /* \"contracts/token factory/LiquidityPool.sol\":11112:11113  2 */\n      0x02\n        /* \"contracts/token factory/LiquidityPool.sol\":11103:11108  x + 1 */\n      tag_324\n        /* \"contracts/token factory/LiquidityPool.sol\":11103:11104  x */\n      dup5\n        /* \"contracts/token factory/LiquidityPool.sol\":11107:11108  1 */\n      0x01\n        /* \"contracts/token factory/LiquidityPool.sol\":11103:11108  x + 1 */\n      tag_174\n      jump\t// in\n    tag_324:\n        /* \"contracts/token factory/LiquidityPool.sol\":11102:11113  (x + 1) / 2 */\n      tag_325\n      swap2\n      swap1\n      tag_181\n      jump\t// in\n    tag_325:\n        /* \"contracts/token factory/LiquidityPool.sol\":11090:11113  uint256 z = (x + 1) / 2 */\n      swap1\n      pop\n        /* \"contracts/token factory/LiquidityPool.sol\":11131:11132  x */\n      dup3\n        /* \"contracts/token factory/LiquidityPool.sol\":11138:11203  while (z < y) {... */\n    tag_326:\n        /* \"contracts/token factory/LiquidityPool.sol\":11149:11150  y */\n      dup1\n        /* \"contracts/token factory/LiquidityPool.sol\":11145:11146  z */\n      dup3\n        /* \"contracts/token factory/LiquidityPool.sol\":11145:11150  z < y */\n      lt\n        /* \"contracts/token factory/LiquidityPool.sol\":11138:11203  while (z < y) {... */\n      iszero\n      tag_327\n      jumpi\n      pop\n        /* \"contracts/token factory/LiquidityPool.sol\":11166:11167  z */\n      dup1\n        /* \"contracts/token factory/LiquidityPool.sol\":11195:11196  2 */\n      0x02\n        /* \"contracts/token factory/LiquidityPool.sol\":11166:11167  z */\n      dup2\n        /* \"contracts/token factory/LiquidityPool.sol\":11182:11187  x / z */\n      tag_328\n        /* \"contracts/token factory/LiquidityPool.sol\":11166:11167  z */\n      dup2\n        /* \"contracts/token factory/LiquidityPool.sol\":11182:11183  x */\n      dup8\n        /* \"contracts/token factory/LiquidityPool.sol\":11182:11187  x / z */\n      tag_181\n      jump\t// in\n    tag_328:\n        /* \"contracts/token factory/LiquidityPool.sol\":11182:11191  x / z + z */\n      tag_329\n      swap2\n      swap1\n      tag_174\n      jump\t// in\n    tag_329:\n        /* \"contracts/token factory/LiquidityPool.sol\":11181:11196  (x / z + z) / 2 */\n      tag_330\n      swap2\n      swap1\n      tag_181\n      jump\t// in\n    tag_330:\n        /* \"contracts/token factory/LiquidityPool.sol\":11177:11196  z = (x / z + z) / 2 */\n      swap2\n      pop\n        /* \"contracts/token factory/LiquidityPool.sol\":11138:11203  while (z < y) {... */\n      jump(tag_326)\n    tag_327:\n        /* \"contracts/token factory/LiquidityPool.sol\":11215:11216  y */\n      swap4\n        /* \"contracts/token factory/LiquidityPool.sol\":11027:11219  function sqrt(uint256 x) internal pure returns (uint256) {... */\n      swap3\n      pop\n      pop\n      pop\n      jump\t// out\n        /* \"contracts/token factory/LiquidityPool.sol\":6146:7116  function migrate() internal nonReentrant {... */\n    tag_314:\n        /* \"@openzeppelin/contracts/utils/ReentrancyGuard.sol\":2500:2521  _nonReentrantBefore() */\n      tag_332\n        /* \"@openzeppelin/contracts/utils/ReentrancyGuard.sol\":2500:2519  _nonReentrantBefore */\n      tag_168\n        /* \"@openzeppelin/contracts/utils/ReentrancyGuard.sol\":2500:2521  _nonReentrantBefore() */\n      jump\t// in\n    tag_332:\n        /* \"contracts/token factory/LiquidityPool.sol\":6202:6219  migratedToAlgebra */\n      and(0xff, sload(0x0a))\n        /* \"contracts/token factory/LiquidityPool.sol\":6201:6219  !migratedToAlgebra */\n      iszero\n        /* \"contracts/token factory/LiquidityPool.sol\":6193:6251  require(!migratedToAlgebra, \"Already migrated to Algebra\") */\n      tag_334\n      jumpi\n      mload(0x40)\n      shl(0xe5, 0x461bcd)\n      dup2\n      mstore\n        /* \"#utility.yul\":11002:11004   */\n      0x20\n        /* \"contracts/token factory/LiquidityPool.sol\":6193:6251  require(!migratedToAlgebra, \"Already migrated to Algebra\") */\n      0x04\n      dup3\n      add\n        /* \"#utility.yul\":10984:11005   */\n      mstore\n        /* \"#utility.yul\":11041:11043   */\n      0x1b\n        /* \"#utility.yul\":11021:11039   */\n      0x24\n      dup3\n      add\n        /* \"#utility.yul\":11014:11044   */\n      mstore\n        /* \"#utility.yul\":11080:11109   */\n      0x416c7265616479206d6967726174656420746f20416c67656272610000000000\n        /* \"#utility.yul\":11060:11078   */\n      0x44\n      dup3\n      add\n        /* \"#utility.yul\":11053:11110   */\n      mstore\n        /* \"#utility.yul\":11127:11145   */\n      0x64\n      add\n        /* \"contracts/token factory/LiquidityPool.sol\":6193:6251  require(!migratedToAlgebra, \"Already migrated to Algebra\") */\n      tag_154\n        /* \"#utility.yul\":10800:11151   */\n      jump\n        /* \"contracts/token factory/LiquidityPool.sol\":6193:6251  require(!migratedToAlgebra, \"Already migrated to Algebra\") */\n    tag_334:\n        /* \"contracts/token factory/LiquidityPool.sol\":6273:6281  migrator */\n      and(sub(shl(0xa0, 0x01), 0x01), sload(0x05))\n        /* \"contracts/token factory/LiquidityPool.sol\":6257:6325  require(address(migrator) != address(0), \"Migrator address not set\") */\n      tag_337\n      jumpi\n      mload(0x40)\n      shl(0xe5, 0x461bcd)\n      dup2\n      mstore\n        /* \"#utility.yul\":11358:11360   */\n      0x20\n        /* \"contracts/token factory/LiquidityPool.sol\":6257:6325  require(address(migrator) != address(0), \"Migrator address not set\") */\n      0x04\n      dup3\n      add\n        /* \"#utility.yul\":11340:11361   */\n      mstore\n        /* \"#utility.yul\":11397:11399   */\n      0x18\n        /* \"#utility.yul\":11377:11395   */\n      0x24\n      dup3\n      add\n        /* \"#utility.yul\":11370:11400   */\n      mstore\n        /* \"#utility.yul\":11436:11462   */\n      0x4d69677261746f722061646472657373206e6f74207365740000000000000000\n        /* \"#utility.yul\":11416:11434   */\n      0x44\n      dup3\n      add\n        /* \"#utility.yul\":11409:11463   */\n      mstore\n        /* \"#utility.yul\":11480:11498   */\n      0x64\n      add\n        /* \"contracts/token factory/LiquidityPool.sol\":6257:6325  require(address(migrator) != address(0), \"Migrator address not set\") */\n      tag_154\n        /* \"#utility.yul\":11156:11504   */\n      jump\n        /* \"contracts/token factory/LiquidityPool.sol\":6257:6325  require(address(migrator) != address(0), \"Migrator address not set\") */\n    tag_337:\n        /* \"contracts/token factory/LiquidityPool.sol\":6347:6353  token0 */\n      and(sub(shl(0xa0, 0x01), 0x01), sload(0x01))\n        /* \"contracts/token factory/LiquidityPool.sol\":6331:6386  require(address(token0) != address(0), \"Token not set\") */\n      tag_340\n      jumpi\n      mload(0x40)\n      shl(0xe5, 0x461bcd)\n      dup2\n      mstore\n        /* \"#utility.yul\":11711:11713   */\n      0x20\n        /* \"contracts/token factory/LiquidityPool.sol\":6331:6386  require(address(token0) != address(0), \"Token not set\") */\n      0x04\n      dup3\n      add\n        /* \"#utility.yul\":11693:11714   */\n      mstore\n        /* \"#utility.yul\":11750:11752   */\n      0x0d\n        /* \"#utility.yul\":11730:11748   */\n      0x24\n      dup3\n      add\n        /* \"#utility.yul\":11723:11753   */\n      mstore\n      shl(0x9a, 0x151bdad95b881b9bdd081cd95d)\n        /* \"#utility.yul\":11769:11787   */\n      0x44\n      dup3\n      add\n        /* \"#utility.yul\":11762:11805   */\n      mstore\n        /* \"#utility.yul\":11822:11840   */\n      0x64\n      add\n        /* \"contracts/token factory/LiquidityPool.sol\":6331:6386  require(address(token0) != address(0), \"Token not set\") */\n      tag_154\n        /* \"#utility.yul\":11509:11846   */\n      jump\n        /* \"contracts/token factory/LiquidityPool.sol\":6331:6386  require(address(token0) != address(0), \"Token not set\") */\n    tag_340:\n        /* \"contracts/token factory/LiquidityPool.sol\":6412:6430  migrationThreshold */\n      sload(0x0b)\n        /* \"contracts/token factory/LiquidityPool.sol\":6400:6408  reserve1 */\n      sload(0x07)\n        /* \"contracts/token factory/LiquidityPool.sol\":6400:6430  reserve1 >= migrationThreshold */\n      lt\n      iszero\n        /* \"contracts/token factory/LiquidityPool.sol\":6392:6466  require(reserve1 >= migrationThreshold, \"Threshold not met for migration\") */\n      tag_343\n      jumpi\n      mload(0x40)\n      shl(0xe5, 0x461bcd)\n      dup2\n      mstore\n        /* \"#utility.yul\":12053:12055   */\n      0x20\n        /* \"contracts/token factory/LiquidityPool.sol\":6392:6466  require(reserve1 >= migrationThreshold, \"Threshold not met for migration\") */\n      0x04\n      dup3\n      add\n        /* \"#utility.yul\":12035:12056   */\n      mstore\n        /* \"#utility.yul\":12092:12094   */\n      0x1f\n        /* \"#utility.yul\":12072:12090   */\n      0x24\n      dup3\n      add\n        /* \"#utility.yul\":12065:12095   */\n      mstore\n        /* \"#utility.yul\":12131:12164   */\n      0x5468726573686f6c64206e6f74206d657420666f72206d6967726174696f6e00\n        /* \"#utility.yul\":12111:12129   */\n      0x44\n      dup3\n      add\n        /* \"#utility.yul\":12104:12165   */\n      mstore\n        /* \"#utility.yul\":12182:12200   */\n      0x64\n      add\n        /* \"contracts/token factory/LiquidityPool.sol\":6392:6466  require(reserve1 >= migrationThreshold, \"Threshold not met for migration\") */\n      tag_154\n        /* \"#utility.yul\":11851:12206   */\n      jump\n        /* \"contracts/token factory/LiquidityPool.sol\":6392:6466  require(reserve1 >= migrationThreshold, \"Threshold not met for migration\") */\n    tag_343:\n        /* \"contracts/token factory/LiquidityPool.sol\":6478:6526  MigrationStarted(address(this), block.timestamp) */\n      mload(0x40)\n        /* \"contracts/token factory/LiquidityPool.sol\":6510:6525  block.timestamp */\n      timestamp\n        /* \"#utility.yul\":160:185   */\n      dup2\n      mstore\n        /* \"contracts/token factory/LiquidityPool.sol\":6503:6507  this */\n      address\n      swap1\n        /* \"contracts/token factory/LiquidityPool.sol\":6478:6526  MigrationStarted(address(this), block.timestamp) */\n      0x06fe31fe06376e41620b746f0ae12f6a52c0f80e8204ff068cd22417e94af545\n      swap1\n        /* \"#utility.yul\":148:150   */\n      0x20\n        /* \"#utility.yul\":133:151   */\n      add\n        /* \"contracts/token factory/LiquidityPool.sol\":6478:6526  MigrationStarted(address(this), block.timestamp) */\n      mload(0x40)\n      dup1\n      swap2\n      sub\n      swap1\n      log2\n        /* \"contracts/token factory/LiquidityPool.sol\":6597:6603  token0 */\n      sload(0x01)\n        /* \"contracts/token factory/LiquidityPool.sol\":6613:6621  migrator */\n      sload(0x05)\n        /* \"contracts/token factory/LiquidityPool.sol\":6623:6631  reserve0 */\n      sload(0x06)\n        /* \"contracts/token factory/LiquidityPool.sol\":6590:6632  IERC20(token0).approve(migrator, reserve0) */\n      mload(0x40)\n      shl(0xe0, 0x095ea7b3)\n      dup2\n      mstore\n      sub(shl(0xa0, 0x01), 0x01)\n        /* \"contracts/token factory/LiquidityPool.sol\":6613:6621  migrator */\n      swap3\n      dup4\n      and\n        /* \"contracts/token factory/LiquidityPool.sol\":6590:6632  IERC20(token0).approve(migrator, reserve0) */\n      0x04\n      dup3\n      add\n        /* \"#utility.yul\":10344:10395   */\n      mstore\n        /* \"#utility.yul\":10411:10429   */\n      0x24\n      dup2\n      add\n        /* \"#utility.yul\":10404:10438   */\n      swap2\n      swap1\n      swap2\n      mstore\n        /* \"contracts/token factory/LiquidityPool.sol\":6597:6603  token0 */\n      swap2\n      and\n      swap1\n        /* \"contracts/token factory/LiquidityPool.sol\":6590:6612  IERC20(token0).approve */\n      0x095ea7b3\n      swap1\n        /* \"#utility.yul\":10317:10335   */\n      0x44\n      add\n        /* \"contracts/token factory/LiquidityPool.sol\":6590:6632  IERC20(token0).approve(migrator, reserve0) */\n      0x20\n      mload(0x40)\n      dup1\n      dup4\n      sub\n      dup2\n      0x00\n      dup8\n      gas\n      call\n      iszero\n      dup1\n      iszero\n      tag_349\n      jumpi\n      returndatasize\n      0x00\n      dup1\n      returndatacopy\n      revert(0x00, returndatasize)\n    tag_349:\n      pop\n      pop\n      pop\n      pop\n      mload(0x40)\n      returndatasize\n      not(0x1f)\n      0x1f\n      dup3\n      add\n      and\n      dup3\n      add\n      dup1\n      0x40\n      mstore\n      pop\n      dup2\n      add\n      swap1\n      tag_350\n      swap2\n      swap1\n      tag_205\n      jump\t// in\n    tag_350:\n      pop\n        /* \"contracts/token factory/LiquidityPool.sol\":6867:6875  migrator */\n      sload(0x05)\n        /* \"contracts/token factory/LiquidityPool.sol\":6902:6910  reserve1 */\n      sload(0x07)\n        /* \"contracts/token factory/LiquidityPool.sol\":6867:6875  migrator */\n      0x01\n        /* \"contracts/token factory/LiquidityPool.sol\":6920:6926  token0 */\n      sload\n        /* \"contracts/token factory/LiquidityPool.sol\":6929:6937  reserve0 */\n      sload(0x06)\n        /* \"contracts/token factory/LiquidityPool.sol\":6857:6938  IMigrator(migrator).initiateMigration{value: reserve1}(address(token0), reserve0) */\n      mload(0x40)\n      shl(0xe3, 0x031faf0b)\n      dup2\n      mstore\n      sub(shl(0xa0, 0x01), 0x01)\n        /* \"contracts/token factory/LiquidityPool.sol\":6920:6926  token0 */\n      swap3\n      dup4\n      and\n        /* \"contracts/token factory/LiquidityPool.sol\":6857:6938  IMigrator(migrator).initiateMigration{value: reserve1}(address(token0), reserve0) */\n      0x04\n      dup3\n      add\n        /* \"#utility.yul\":10344:10395   */\n      mstore\n        /* \"#utility.yul\":10411:10429   */\n      0x24\n      dup2\n      add\n        /* \"#utility.yul\":10404:10438   */\n      swap2\n      swap1\n      swap2\n      mstore\n        /* \"contracts/token factory/LiquidityPool.sol\":6867:6875  migrator */\n      swap3\n      and\n      swap2\n        /* \"contracts/token factory/LiquidityPool.sol\":6857:6894  IMigrator(migrator).initiateMigration */\n      0x18fd7858\n      swap2\n        /* \"contracts/token factory/LiquidityPool.sol\":6902:6910  reserve1 */\n      swap1\n        /* \"#utility.yul\":10317:10335   */\n      0x44\n      add\n        /* \"contracts/token factory/LiquidityPool.sol\":6857:6938  IMigrator(migrator).initiateMigration{value: reserve1}(address(token0), reserve0) */\n      0x00\n      mload(0x40)\n      dup1\n      dup4\n      sub\n      dup2\n      dup6\n      dup9\n      dup1\n      extcodesize\n      iszero\n      dup1\n      iszero\n      tag_352\n      jumpi\n      0x00\n      dup1\n      revert\n    tag_352:\n      pop\n      gas\n      call\n      iszero\n      dup1\n      iszero\n      tag_354\n      jumpi\n      returndatasize\n      0x00\n      dup1\n      returndatacopy\n      revert(0x00, returndatasize)\n    tag_354:\n      pop\n      pop\n        /* \"contracts/token factory/LiquidityPool.sol\":6980:6986  token0 */\n      sload(0x01)\n        /* \"contracts/token factory/LiquidityPool.sol\":6989:6997  reserve0 */\n      sload(0x06)\n        /* \"contracts/token factory/LiquidityPool.sol\":6954:7009  MigrationExecuted(address(token0), reserve0, msg.value) */\n      0x40\n      dup1\n      mload\n        /* \"#utility.yul\":739:764   */\n      swap2\n      dup3\n      mstore\n        /* \"contracts/token factory/LiquidityPool.sol\":6999:7008  msg.value */\n      callvalue\n        /* \"#utility.yul\":795:797   */\n      0x20\n        /* \"#utility.yul\":780:798   */\n      dup4\n      add\n        /* \"#utility.yul\":773:807   */\n      mstore\n      sub(shl(0xa0, 0x01), 0x01)\n        /* \"contracts/token factory/LiquidityPool.sol\":6980:6986  token0 */\n      swap1\n      swap3\n      and\n      swap5\n      pop\n        /* \"contracts/token factory/LiquidityPool.sol\":6954:7009  MigrationExecuted(address(token0), reserve0, msg.value) */\n      0x0aac5cbf3f9e799b277c2edd8eba370b5af3b31550f27cea98df0b1b07c039c8\n      swap4\n      pop\n        /* \"#utility.yul\":712:730   */\n      add\n      swap1\n      pop\n        /* \"contracts/token factory/LiquidityPool.sol\":6954:7009  MigrationExecuted(address(token0), reserve0, msg.value) */\n      mload(0x40)\n      dup1\n      swap2\n      sub\n      swap1\n      log2\n        /* \"contracts/token factory/LiquidityPool.sol\":7084:7101  migratedToAlgebra */\n      0x0a\n        /* \"contracts/token factory/LiquidityPool.sol\":7084:7108  migratedToAlgebra = true */\n      dup1\n      sload\n      not(0xff)\n      and\n        /* \"contracts/token factory/LiquidityPool.sol\":7104:7108  true */\n      0x01\n        /* \"contracts/token factory/LiquidityPool.sol\":7084:7108  migratedToAlgebra = true */\n      or\n      swap1\n      sstore\n        /* \"@openzeppelin/contracts/utils/ReentrancyGuard.sol\":2542:2562  _nonReentrantAfter() */\n      tag_313\n        /* \"@openzeppelin/contracts/utils/ReentrancyGuard.sol\":1857:1858  1 */\n      0x01\n        /* \"@openzeppelin/contracts/utils/ReentrancyGuard.sol\":3068:3075  _status */\n      0x00\n        /* \"@openzeppelin/contracts/utils/ReentrancyGuard.sol\":3068:3089  _status = NOT_ENTERED */\n      sstore\n        /* \"@openzeppelin/contracts/utils/ReentrancyGuard.sol\":2888:3096  function _nonReentrantAfter() private {... */\n      jump\n        /* \"#utility.yul\":196:369   */\n    tag_357:\n        /* \"#utility.yul\":264:284   */\n      dup1\n      calldataload\n      sub(shl(0xa0, 0x01), 0x01)\n        /* \"#utility.yul\":313:344   */\n      dup2\n      and\n        /* \"#utility.yul\":303:345   */\n      dup2\n      eq\n        /* \"#utility.yul\":293:363   */\n      tag_218\n      jumpi\n        /* \"#utility.yul\":359:360   */\n      0x00\n        /* \"#utility.yul\":356:357   */\n      dup1\n        /* \"#utility.yul\":349:361   */\n      revert\n        /* \"#utility.yul\":374:560   */\n    tag_43:\n        /* \"#utility.yul\":433:439   */\n      0x00\n        /* \"#utility.yul\":486:488   */\n      0x20\n        /* \"#utility.yul\":474:483   */\n      dup3\n        /* \"#utility.yul\":465:472   */\n      dup5\n        /* \"#utility.yul\":461:484   */\n      sub\n        /* \"#utility.yul\":457:489   */\n      slt\n        /* \"#utility.yul\":454:506   */\n      iszero\n      tag_365\n      jumpi\n        /* \"#utility.yul\":502:503   */\n      0x00\n        /* \"#utility.yul\":499:500   */\n      dup1\n        /* \"#utility.yul\":492:504   */\n      revert\n        /* \"#utility.yul\":454:506   */\n    tag_365:\n        /* \"#utility.yul\":525:554   */\n      tag_327\n        /* \"#utility.yul\":544:553   */\n      dup3\n        /* \"#utility.yul\":525:554   */\n      tag_357\n      jump\t// in\n        /* \"#utility.yul\":1026:1252   */\n    tag_62:\n        /* \"#utility.yul\":1085:1091   */\n      0x00\n        /* \"#utility.yul\":1138:1140   */\n      0x20\n        /* \"#utility.yul\":1126:1135   */\n      dup3\n        /* \"#utility.yul\":1117:1124   */\n      dup5\n        /* \"#utility.yul\":1113:1136   */\n      sub\n        /* \"#utility.yul\":1109:1141   */\n      slt\n        /* \"#utility.yul\":1106:1158   */\n      iszero\n      tag_370\n      jumpi\n        /* \"#utility.yul\":1154:1155   */\n      0x00\n        /* \"#utility.yul\":1151:1152   */\n      dup1\n        /* \"#utility.yul\":1144:1156   */\n      revert\n        /* \"#utility.yul\":1106:1158   */\n    tag_370:\n      pop\n        /* \"#utility.yul\":1199:1222   */\n      calldataload\n      swap2\n        /* \"#utility.yul\":1026:1252   */\n      swap1\n      pop\n      jump\t// out\n        /* \"#utility.yul\":1449:1567   */\n    tag_358:\n        /* \"#utility.yul\":1535:1540   */\n      dup1\n        /* \"#utility.yul\":1528:1541   */\n      iszero\n        /* \"#utility.yul\":1521:1542   */\n      iszero\n        /* \"#utility.yul\":1514:1519   */\n      dup2\n        /* \"#utility.yul\":1511:1543   */\n      eq\n        /* \"#utility.yul\":1501:1561   */\n      tag_373\n      jumpi\n        /* \"#utility.yul\":1557:1558   */\n      0x00\n        /* \"#utility.yul\":1554:1555   */\n      dup1\n        /* \"#utility.yul\":1547:1559   */\n      revert\n        /* \"#utility.yul\":1501:1561   */\n    tag_373:\n        /* \"#utility.yul\":1449:1567   */\n      pop\n      jump\t// out\n        /* \"#utility.yul\":1572:2324   */\n    tag_120:\n        /* \"#utility.yul\":1673:1679   */\n      0x00\n        /* \"#utility.yul\":1681:1687   */\n      dup1\n        /* \"#utility.yul\":1689:1695   */\n      0x00\n        /* \"#utility.yul\":1697:1703   */\n      dup1\n        /* \"#utility.yul\":1705:1711   */\n      0x00\n        /* \"#utility.yul\":1713:1719   */\n      dup1\n        /* \"#utility.yul\":1766:1769   */\n      0xc0\n        /* \"#utility.yul\":1754:1763   */\n      dup8\n        /* \"#utility.yul\":1745:1752   */\n      dup10\n        /* \"#utility.yul\":1741:1764   */\n      sub\n        /* \"#utility.yul\":1737:1770   */\n      slt\n        /* \"#utility.yul\":1734:1787   */\n      iszero\n      tag_375\n      jumpi\n        /* \"#utility.yul\":1783:1784   */\n      0x00\n        /* \"#utility.yul\":1780:1781   */\n      dup1\n        /* \"#utility.yul\":1773:1785   */\n      revert\n        /* \"#utility.yul\":1734:1787   */\n    tag_375:\n        /* \"#utility.yul\":1806:1835   */\n      tag_376\n        /* \"#utility.yul\":1825:1834   */\n      dup8\n        /* \"#utility.yul\":1806:1835   */\n      tag_357\n      jump\t// in\n    tag_376:\n        /* \"#utility.yul\":1796:1835   */\n      swap6\n      pop\n        /* \"#utility.yul\":1904:1906   */\n      0x20\n        /* \"#utility.yul\":1889:1907   */\n      dup8\n      add\n        /* \"#utility.yul\":1876:1908   */\n      calldataload\n      swap5\n      pop\n        /* \"#utility.yul\":2005:2007   */\n      0x40\n        /* \"#utility.yul\":1990:2008   */\n      dup8\n      add\n        /* \"#utility.yul\":1977:2009   */\n      calldataload\n      swap4\n      pop\n        /* \"#utility.yul\":2108:2110   */\n      0x60\n        /* \"#utility.yul\":2093:2111   */\n      dup8\n      add\n        /* \"#utility.yul\":2080:2112   */\n      calldataload\n      swap3\n      pop\n        /* \"#utility.yul\":2157:2196   */\n      tag_377\n        /* \"#utility.yul\":2191:2194   */\n      0x80\n        /* \"#utility.yul\":2176:2195   */\n      dup9\n      add\n        /* \"#utility.yul\":2157:2196   */\n      tag_357\n      jump\t// in\n    tag_377:\n        /* \"#utility.yul\":2147:2196   */\n      swap2\n      pop\n        /* \"#utility.yul\":2248:2251   */\n      0xa0\n        /* \"#utility.yul\":2237:2246   */\n      dup8\n        /* \"#utility.yul\":2233:2252   */\n      add\n        /* \"#utility.yul\":2220:2253   */\n      calldataload\n        /* \"#utility.yul\":2262:2292   */\n      tag_378\n        /* \"#utility.yul\":2284:2291   */\n      dup2\n        /* \"#utility.yul\":2262:2292   */\n      tag_358\n      jump\t// in\n    tag_378:\n        /* \"#utility.yul\":2311:2318   */\n      dup1\n        /* \"#utility.yul\":2301:2318   */\n      swap2\n      pop\n      pop\n        /* \"#utility.yul\":1572:2324   */\n      swap3\n      swap6\n      pop\n      swap3\n      swap6\n      pop\n      swap3\n      swap6\n      jump\t// out\n        /* \"#utility.yul\":2329:2675   */\n    tag_125:\n        /* \"#utility.yul\":2397:2403   */\n      0x00\n        /* \"#utility.yul\":2405:2411   */\n      dup1\n        /* \"#utility.yul\":2458:2460   */\n      0x40\n        /* \"#utility.yul\":2446:2455   */\n      dup4\n        /* \"#utility.yul\":2437:2444   */\n      dup6\n        /* \"#utility.yul\":2433:2456   */\n      sub\n        /* \"#utility.yul\":2429:2461   */\n      slt\n        /* \"#utility.yul\":2426:2478   */\n      iszero\n      tag_380\n      jumpi\n        /* \"#utility.yul\":2474:2475   */\n      0x00\n        /* \"#utility.yul\":2471:2472   */\n      dup1\n        /* \"#utility.yul\":2464:2476   */\n      revert\n        /* \"#utility.yul\":2426:2478   */\n    tag_380:\n      pop\n      pop\n        /* \"#utility.yul\":2519:2542   */\n      dup1\n      calldataload\n      swap3\n        /* \"#utility.yul\":2639:2641   */\n      0x20\n        /* \"#utility.yul\":2624:2642   */\n      swap1\n      swap2\n      add\n        /* \"#utility.yul\":2611:2643   */\n      calldataload\n      swap2\n      pop\n        /* \"#utility.yul\":2329:2675   */\n      jump\t// out\n        /* \"#utility.yul\":2888:3129   */\n    tag_138:\n        /* \"#utility.yul\":2944:2950   */\n      0x00\n        /* \"#utility.yul\":2997:2999   */\n      0x20\n        /* \"#utility.yul\":2985:2994   */\n      dup3\n        /* \"#utility.yul\":2976:2983   */\n      dup5\n        /* \"#utility.yul\":2972:2995   */\n      sub\n        /* \"#utility.yul\":2968:3000   */\n      slt\n        /* \"#utility.yul\":2965:3017   */\n      iszero\n      tag_383\n      jumpi\n        /* \"#utility.yul\":3013:3014   */\n      0x00\n        /* \"#utility.yul\":3010:3011   */\n      dup1\n        /* \"#utility.yul\":3003:3015   */\n      revert\n        /* \"#utility.yul\":2965:3017   */\n    tag_383:\n        /* \"#utility.yul\":3052:3061   */\n      dup2\n        /* \"#utility.yul\":3039:3062   */\n      calldataload\n        /* \"#utility.yul\":3071:3099   */\n      tag_327\n        /* \"#utility.yul\":3093:3098   */\n      dup2\n        /* \"#utility.yul\":3071:3099   */\n      tag_358\n      jump\t// in\n        /* \"#utility.yul\":3134:3488   */\n    tag_155:\n        /* \"#utility.yul\":3336:3338   */\n      0x20\n        /* \"#utility.yul\":3318:3339   */\n      dup1\n      dup3\n      mstore\n        /* \"#utility.yul\":3375:3377   */\n      0x1e\n        /* \"#utility.yul\":3355:3373   */\n      swap1\n      dup3\n      add\n        /* \"#utility.yul\":3348:3378   */\n      mstore\n        /* \"#utility.yul\":3414:3446   */\n      0x43616c6c6572206973206e6f742074686520546f6b656e466163746f72790000\n        /* \"#utility.yul\":3409:3411   */\n      0x40\n        /* \"#utility.yul\":3394:3412   */\n      dup3\n      add\n        /* \"#utility.yul\":3387:3447   */\n      mstore\n        /* \"#utility.yul\":3479:3481   */\n      0x60\n        /* \"#utility.yul\":3464:3482   */\n      add\n      swap1\n        /* \"#utility.yul\":3134:3488   */\n      jump\t// out\n        /* \"#utility.yul\":4246:4373   */\n    tag_359:\n        /* \"#utility.yul\":4307:4317   */\n      0x4e487b71\n        /* \"#utility.yul\":4302:4305   */\n      0xe0\n        /* \"#utility.yul\":4298:4318   */\n      shl\n        /* \"#utility.yul\":4295:4296   */\n      0x00\n        /* \"#utility.yul\":4288:4319   */\n      mstore\n        /* \"#utility.yul\":4338:4342   */\n      0x11\n        /* \"#utility.yul\":4335:4336   */\n      0x04\n        /* \"#utility.yul\":4328:4343   */\n      mstore\n        /* \"#utility.yul\":4362:4366   */\n      0x24\n        /* \"#utility.yul\":4359:4360   */\n      0x00\n        /* \"#utility.yul\":4352:4367   */\n      revert\n        /* \"#utility.yul\":4378:4503   */\n    tag_174:\n        /* \"#utility.yul\":4443:4452   */\n      dup1\n      dup3\n      add\n        /* \"#utility.yul\":4464:4474   */\n      dup1\n      dup3\n      gt\n        /* \"#utility.yul\":4461:4497   */\n      iszero\n      tag_244\n      jumpi\n        /* \"#utility.yul\":4477:4495   */\n      tag_244\n      tag_359\n      jump\t// in\n        /* \"#utility.yul\":4508:4676   */\n    tag_179:\n        /* \"#utility.yul\":4581:4590   */\n      dup1\n      dup3\n      mul\n        /* \"#utility.yul\":4612:4621   */\n      dup2\n      iszero\n        /* \"#utility.yul\":4629:4644   */\n      dup3\n      dup3\n      div\n        /* \"#utility.yul\":4623:4645   */\n      dup5\n      eq\n        /* \"#utility.yul\":4609:4646   */\n      or\n        /* \"#utility.yul\":4599:4670   */\n      tag_244\n      jumpi\n        /* \"#utility.yul\":4650:4668   */\n      tag_244\n      tag_359\n      jump\t// in\n        /* \"#utility.yul\":4681:4898   */\n    tag_181:\n        /* \"#utility.yul\":4721:4722   */\n      0x00\n        /* \"#utility.yul\":4747:4748   */\n      dup3\n        /* \"#utility.yul\":4737:4869   */\n      tag_396\n      jumpi\n        /* \"#utility.yul\":4791:4801   */\n      0x4e487b71\n        /* \"#utility.yul\":4786:4789   */\n      0xe0\n        /* \"#utility.yul\":4782:4802   */\n      shl\n        /* \"#utility.yul\":4779:4780   */\n      0x00\n        /* \"#utility.yul\":4772:4803   */\n      mstore\n        /* \"#utility.yul\":4826:4830   */\n      0x12\n        /* \"#utility.yul\":4823:4824   */\n      0x04\n        /* \"#utility.yul\":4816:4831   */\n      mstore\n        /* \"#utility.yul\":4854:4858   */\n      0x24\n        /* \"#utility.yul\":4851:4852   */\n      0x00\n        /* \"#utility.yul\":4844:4859   */\n      revert\n        /* \"#utility.yul\":4737:4869   */\n    tag_396:\n      pop\n        /* \"#utility.yul\":4883:4892   */\n      div\n      swap1\n        /* \"#utility.yul\":4681:4898   */\n      jump\t// out\n        /* \"#utility.yul\":4903:5031   */\n    tag_184:\n        /* \"#utility.yul\":4970:4979   */\n      dup2\n      dup2\n      sub\n        /* \"#utility.yul\":4991:5002   */\n      dup2\n      dup2\n      gt\n        /* \"#utility.yul\":4988:5025   */\n      iszero\n      tag_244\n      jumpi\n        /* \"#utility.yul\":5005:5023   */\n      tag_244\n      tag_359\n      jump\t// in\n        /* \"#utility.yul\":5974:6219   */\n    tag_205:\n        /* \"#utility.yul\":6041:6047   */\n      0x00\n        /* \"#utility.yul\":6094:6096   */\n      0x20\n        /* \"#utility.yul\":6082:6091   */\n      dup3\n        /* \"#utility.yul\":6073:6080   */\n      dup5\n        /* \"#utility.yul\":6069:6092   */\n      sub\n        /* \"#utility.yul\":6065:6097   */\n      slt\n        /* \"#utility.yul\":6062:6114   */\n      iszero\n      tag_404\n      jumpi\n        /* \"#utility.yul\":6110:6111   */\n      0x00\n        /* \"#utility.yul\":6107:6108   */\n      dup1\n        /* \"#utility.yul\":6100:6112   */\n      revert\n        /* \"#utility.yul\":6062:6114   */\n    tag_404:\n        /* \"#utility.yul\":6142:6151   */\n      dup2\n        /* \"#utility.yul\":6136:6152   */\n      mload\n        /* \"#utility.yul\":6161:6189   */\n      tag_327\n        /* \"#utility.yul\":6183:6188   */\n      dup2\n        /* \"#utility.yul\":6161:6189   */\n      tag_358\n      jump\t// in\n\n    auxdata: 0xa2646970667358221220ac334f66beaa49159109257888c5ac1e6d0158ac898174d9889a92c760b9401164736f6c634300081a0033\n}\n",
				"bytecode": {
					"linkReferences": {},
					"object": "6080604052600a805461ff00191661010017905534801561001f57600080fd5b5060405161192d38038061192d83398101604081905261003e9161015f565b60016000556001600160a01b03831661009e5760405162461bcd60e51b815260206004820181905260248201527f446576656c6f70657220616464726573732063616e6e6f74206265207a65726f60448201526064015b60405180910390fd5b6001600160a01b0382166101005760405162461bcd60e51b815260206004820152602360248201527f546f6b656e466163746f727920616464726573732063616e6e6f74206265207a60448201526265726f60e81b6064820152608401610095565b600380546001600160a01b039485166001600160a01b0319918216179091556002805493909416921691909117909155600b55600a805461ff001916905561019b565b80516001600160a01b038116811461015a57600080fd5b919050565b60008060006060848603121561017457600080fd5b61017d84610143565b925061018b60208501610143565b9150604084015190509250925092565b611783806101aa6000396000f3fe60806040526004361061019c5760003560e01c80635a76f25e116100ec578063a000bf4f1161008a578063c98a0aa811610064578063c98a0aa81461045b578063c98b7fd21461047b578063cc1776d31461049b578063e77772fe146104b157600080fd5b8063a000bf4f1461041e578063a48217191461043e578063afd6b3c11461044657600080fd5b80638d5f17aa116100c65780638d5f17aa146103b657806390bc1e85146103d557806396343fd5146103eb5780639ed7ef4e1461040b57600080fd5b80635a76f25e1461036557806360c728831461037b5780637cd07e471461039657600080fd5b80632182ad88116101595780633ad10ef6116101335780633ad10ef6146102f9578063436d334014610319578063443cb4bc146103395780634f7041a51461034f57600080fd5b80632182ad88146102945780632397e4d7146102af578063299ce7b2146102cf57600080fd5b806304c80c82146101a157806304ccde37146101d35780630902f1ac146101f55780630dfe16811461021d5780630f0e7c8a1461025557806312185a3914610274575b600080fd5b3480156101ad57600080fd5b506101c06ad51ac75d3cbca70090127981565b6040519081526020015b60405180910390f35b3480156101df57600080fd5b506101f36101ee36600461159d565b6104d1565b005b34801561020157600080fd5b50600654600754604080519283526020830191909152016101ca565b34801561022957600080fd5b5060015461023d906001600160a01b031681565b6040516001600160a01b0390911681526020016101ca565b34801561026157600080fd5b506101c06ad51ac75d3ca56ea04771f481565b34801561028057600080fd5b506101f361028f3660046115b8565b6105af565b3480156102a057600080fd5b506101c0667134f38362d66481565b3480156102bb57600080fd5b506101c06102ca3660046115b8565b61061e565b3480156102db57600080fd5b50600a546102e99060ff1681565b60405190151581526020016101ca565b34801561030557600080fd5b5060035461023d906001600160a01b031681565b34801561032557600080fd5b506101f36103343660046115b8565b6109cb565b34801561034557600080fd5b506101c060065481565b34801561035b57600080fd5b506101c060085481565b34801561037157600080fd5b506101c060075481565b34801561038757600080fd5b506101c0667134f38362ca0e81565b3480156103a257600080fd5b5060055461023d906001600160a01b031681565b3480156103c257600080fd5b50600a546102e990610100900460ff1681565b3480156103e157600080fd5b506101c0600b5481565b3480156103f757600080fd5b506101f36104063660046115b8565b610a34565b6101f36104193660046115e2565b610aef565b34801561042a57600080fd5b5061023d610439366004611645565b610c15565b6101c0610ca8565b34801561045257600080fd5b506101f36111b4565b34801561046757600080fd5b506101f3610476366004611667565b6111be565b34801561048757600080fd5b5060045461023d906001600160a01b031681565b3480156104a757600080fd5b506101c060095481565b3480156104bd57600080fd5b5060025461023d906001600160a01b031681565b6002546001600160a01b031633146105045760405162461bcd60e51b81526004016104fb90611684565b60405180910390fd5b6001600160a01b0381166105655760405162461bcd60e51b815260206004820152602260248201527f496e697469616c697a657220616464726573732063616e6e6f74206265207a65604482015261726f60f01b60648201526084016104fb565b600480546001600160a01b0319166001600160a01b0383169081179091556040517fe6223ef4a6cc26f11671126040eb90609754df785e229f9fc28e9612ca3380bc90600090a250565b6002546001600160a01b031633146105d95760405162461bcd60e51b81526004016104fb90611684565b600981905560085460408051918252602082018390527fb841faf0d1b32571f4ef966a2f35e3ae51f3cdda45318c3da5570a5b2ad8560591015b60405180910390a150565b6000610628611231565b600082116106705760405162461bcd60e51b81526020600482015260156024820152744d7573742073656c6c20736f6d6520746f6b656e7360581b60448201526064016104fb565b60008260065461068091906116d1565b905060006106996ad51ac75d3cbca700901279836116d1565b667134f38362d6646007546106ae91906116d1565b6ad51ac75d3cbca7009012796006546106c791906116d1565b6106d191906116e4565b6106db91906116fb565b9050667134f38362d6648110156106f65750667134f38362d6645b6000610709667134f38362d6648361171d565b905060075481116107275780600754610722919061171d565b61072b565b6007545b9350826006819055508360076000828254610746919061171d565b90915550506009546000906103e89061075f90876116e4565b61076991906116fb565b9050610775818661171d565b6003546040519196506000916001600160a01b039091169083908381818185875af1925050503d80600081146107c7576040519150601f19603f3d011682016040523d82523d6000602084013e6107cc565b606091505b505090508061081d5760405162461bcd60e51b815260206004820152601760248201527f4661696c656420746f2073656e642073656c6c2074617800000000000000000060448201526064016104fb565b6001546040516323b872dd60e01b8152336004820152306024820152604481018990526001600160a01b03909116906323b872dd906064016020604051808303816000875af1158015610874573d6000803e3d6000fd5b505050506040513d601f19601f820116820180604052508101906108989190611730565b6108e05760405162461bcd60e51b81526020600482015260196024820152784661696c656420746f207472616e7366657220746f6b656e7360381b60448201526064016104fb565b604051600090339088908381818185875af1925050503d8060008114610922576040519150601f19603f3d011682016040523d82523d6000602084013e610927565b606091505b505090508061096f5760405162461bcd60e51b81526020600482015260146024820152732330b4b632b2103a379039b2b7321032ba3432b960611b60448201526064016104fb565b600954604080518a8152602081018a90529081019190915233907f6db63bebf1e6540277744df32846ebdb98385b1a73f2d5de49b28348add63f509060600160405180910390a25050505050506109c66001600055565b919050565b6002546001600160a01b031633146109f55760405162461bcd60e51b81526004016104fb90611684565b60088190556009546040805183815260208101929092527fb841faf0d1b32571f4ef966a2f35e3ae51f3cdda45318c3da5570a5b2ad856059101610613565b6002546001600160a01b03163314610a5e5760405162461bcd60e51b81526004016104fb90611684565b60008111610aba5760405162461bcd60e51b815260206004820152602360248201527f5468726573686f6c64206d7573742062652067726561746572207468616e207a60448201526265726f60e81b60648201526084016104fb565b600b8190556040518181527f4ad9ae9229776f627d7d2be995964376397890e11bbfa94e8826810419a6ef6b90602001610613565b6002546001600160a01b03163314610b195760405162461bcd60e51b81526004016104fb90611684565b610b21611231565b6001546001600160a01b031615610b7a5760405162461bcd60e51b815260206004820152601860248201527f506f6f6c20616c726561647920696e697469616c697a6564000000000000000060448201526064016104fb565b600180546001600160a01b03199081166001600160a01b038981169190911790925560068790556008869055600985905560048054909116918416919091179055600a805461ff0019166101008315150217905560405185815233907fc17cea59c2955cb181b03393209566960365771dbba9dc3d510180e7cb3120889060200160405180910390a2610c0d6001600055565b505050505050565b60008083118015610c265750600082115b610c7c5760405162461bcd60e51b815260206004820152602160248201527f416d6f756e7473206d7573742062652067726561746572207468616e207a65726044820152606f60f81b60648201526084016104fb565b6000610c8c84606085901b6116fb565b905060006030610c9b8361125b565b901b925050505b92915050565b6000610cb2611231565b600a5460ff1615610d055760405162461bcd60e51b815260206004820152601860248201527f506f6f6c206d6967726174656420746f20416c6765627261000000000000000060448201526064016104fb565b60003411610d555760405162461bcd60e51b815260206004820152601d60248201527f4d7573742073656e6420457468657220746f2062757920746f6b656e7300000060448201526064016104fb565b6702c68af0bb14000060075410610d9d5760405162461bcd60e51b815260206004820152600c60248201526b141bdbdb081a5cc8199d5b1b60a21b60448201526064016104fb565b600060065411610de75760405162461bcd60e51b8152602060048201526015602482015274139bc81d1bdad95b9cc81a5b881d1a19481c1bdbdb605a1b60448201526064016104fb565b60006103e860085434610dfa91906116e4565b610e0491906116fb565b90506000610e12823461171d565b90506702c68af0bb14000081600754610e2b91906116d1565b10610f215760006007546702c68af0bb140000610e48919061171d565b90506000610e56828461171d565b90508160076000828254610e6a91906116d1565b909155505060068054600090915594508015610f1a57604051600090339083908381818185875af1925050503d8060008114610ec2576040519150601f19603f3d011682016040523d82523d6000602084013e610ec7565b606091505b5050905080610f185760405162461bcd60e51b815260206004820152601d60248201527f4661696c656420746f20726566756e642065786365737320657468657200000060448201526064016104fb565b505b5050611008565b600081600754610f3191906116d1565b90506000610f46667134f38362ca0e836116d1565b667134f38362d664600754610f5b91906116d1565b6ad51ac75d3cbca700901279600654610f7491906116d1565b610f7e91906116e4565b610f8891906116fb565b90506ad51ac75d3ca56ea04771f4811015610fab57506ad51ac75d3ca56ea04771f45b6000610fc26ad51ac75d3ca56ea04771f48361171d565b90506006548111610fe05780600654610fdb919061171d565b610fe4565b6006545b9550826007819055508560066000828254610fff919061171d565b90915550505050505b60015460405163a9059cbb60e01b8152336004820152602481018590526001600160a01b039091169063a9059cbb906044016020604051808303816000875af1158015611059573d6000803e3d6000fd5b505050506040513d601f19601f8201168201806040525081019061107d9190611730565b6110c55760405162461bcd60e51b81526020600482015260196024820152784661696c656420746f207472616e7366657220746f6b656e7360381b60448201526064016104fb565b6003546040516000916001600160a01b03169084908381818185875af1925050503d8060008114611112576040519150601f19603f3d011682016040523d82523d6000602084013e611117565b606091505b50509050806111615760405162461bcd60e51b815260206004820152601660248201527508cc2d2d8cac840e8de40e6cadcc840c4eaf240e8c2f60531b60448201526064016104fb565b604080513481526020810186905290810184905233907f0d1a0d5e3d583a0e92588799dd06e50fd78c07daf05f0cc06d7b848b1ca445f19060600160405180910390a25050506111b16001600055565b90565b6111bc6112b2565b565b6002546001600160a01b031633146111e85760405162461bcd60e51b81526004016104fb90611684565b600a80548215156101000261ff00199091161790556040517fe7e0bd136ab3b57e3e925774a811e2482df79072fa45d011a4f088abfcc209d29061061390831515815260200190565b60026000540361125457604051633ee5aeb560e01b815260040160405180910390fd5b6002600055565b600080600261126b8460016116d1565b61127591906116fb565b9050825b808210156112ab57508060028161129081876116fb565b61129a91906116d1565b6112a491906116fb565b9150611279565b9392505050565b6112ba611231565b600a5460ff161561130d5760405162461bcd60e51b815260206004820152601b60248201527f416c7265616479206d6967726174656420746f20416c6765627261000000000060448201526064016104fb565b6005546001600160a01b03166113655760405162461bcd60e51b815260206004820152601860248201527f4d69677261746f722061646472657373206e6f7420736574000000000000000060448201526064016104fb565b6001546001600160a01b03166113ad5760405162461bcd60e51b815260206004820152600d60248201526c151bdad95b881b9bdd081cd95d609a1b60448201526064016104fb565b600b5460075410156114015760405162461bcd60e51b815260206004820152601f60248201527f5468726573686f6c64206e6f74206d657420666f72206d6967726174696f6e0060448201526064016104fb565b60405142815230907f06fe31fe06376e41620b746f0ae12f6a52c0f80e8204ff068cd22417e94af5459060200160405180910390a260015460055460065460405163095ea7b360e01b81526001600160a01b039283166004820152602481019190915291169063095ea7b3906044016020604051808303816000875af115801561148f573d6000803e3d6000fd5b505050506040513d601f19601f820116820180604052508101906114b39190611730565b5060055460075460015460065460405163031faf0b60e31b81526001600160a01b03928316600482015260248101919091529216916318fd785891906044016000604051808303818588803b15801561150b57600080fd5b505af115801561151f573d6000803e3d6000fd5b5050600154600654604080519182523460208301526001600160a01b0390921694507f0aac5cbf3f9e799b277c2edd8eba370b5af3b31550f27cea98df0b1b07c039c8935001905060405180910390a2600a805460ff191660011790556111bc6001600055565b80356001600160a01b03811681146109c657600080fd5b6000602082840312156115af57600080fd5b6112ab82611586565b6000602082840312156115ca57600080fd5b5035919050565b80151581146115df57600080fd5b50565b60008060008060008060c087890312156115fb57600080fd5b61160487611586565b955060208701359450604087013593506060870135925061162760808801611586565b915060a0870135611637816115d1565b809150509295509295509295565b6000806040838503121561165857600080fd5b50508035926020909101359150565b60006020828403121561167957600080fd5b81356112ab816115d1565b6020808252601e908201527f43616c6c6572206973206e6f742074686520546f6b656e466163746f72790000604082015260600190565b634e487b7160e01b600052601160045260246000fd5b80820180821115610ca257610ca26116bb565b8082028115828204841417610ca257610ca26116bb565b60008261171857634e487b7160e01b600052601260045260246000fd5b500490565b81810381811115610ca257610ca26116bb565b60006020828403121561174257600080fd5b81516112ab816115d156fea2646970667358221220ac334f66beaa49159109257888c5ac1e6d0158ac898174d9889a92c760b9401164736f6c634300081a0033",
					"opcodes": "PUSH1 0x80 PUSH1 0x40 MSTORE PUSH1 0xA DUP1 SLOAD PUSH2 0xFF00 NOT AND PUSH2 0x100 OR SWAP1 SSTORE CALLVALUE DUP1 ISZERO PUSH2 0x1F JUMPI PUSH1 0x0 DUP1 REVERT JUMPDEST POP PUSH1 0x40 MLOAD PUSH2 0x192D CODESIZE SUB DUP1 PUSH2 0x192D DUP4 CODECOPY DUP2 ADD PUSH1 0x40 DUP2 SWAP1 MSTORE PUSH2 0x3E SWAP2 PUSH2 0x15F JUMP JUMPDEST PUSH1 0x1 PUSH1 0x0 SSTORE PUSH1 0x1 PUSH1 0x1 PUSH1 0xA0 SHL SUB DUP4 AND PUSH2 0x9E JUMPI PUSH1 0x40 MLOAD PUSH3 0x461BCD PUSH1 0xE5 SHL DUP2 MSTORE PUSH1 0x20 PUSH1 0x4 DUP3 ADD DUP2 SWAP1 MSTORE PUSH1 0x24 DUP3 ADD MSTORE PUSH32 0x446576656C6F70657220616464726573732063616E6E6F74206265207A65726F PUSH1 0x44 DUP3 ADD MSTORE PUSH1 0x64 ADD JUMPDEST PUSH1 0x40 MLOAD DUP1 SWAP2 SUB SWAP1 REVERT JUMPDEST PUSH1 0x1 PUSH1 0x1 PUSH1 0xA0 SHL SUB DUP3 AND PUSH2 0x100 JUMPI PUSH1 0x40 MLOAD PUSH3 0x461BCD PUSH1 0xE5 SHL DUP2 MSTORE PUSH1 0x20 PUSH1 0x4 DUP3 ADD MSTORE PUSH1 0x23 PUSH1 0x24 DUP3 ADD MSTORE PUSH32 0x546F6B656E466163746F727920616464726573732063616E6E6F74206265207A PUSH1 0x44 DUP3 ADD MSTORE PUSH3 0x65726F PUSH1 0xE8 SHL PUSH1 0x64 DUP3 ADD MSTORE PUSH1 0x84 ADD PUSH2 0x95 JUMP JUMPDEST PUSH1 0x3 DUP1 SLOAD PUSH1 0x1 PUSH1 0x1 PUSH1 0xA0 SHL SUB SWAP5 DUP6 AND PUSH1 0x1 PUSH1 0x1 PUSH1 0xA0 SHL SUB NOT SWAP2 DUP3 AND OR SWAP1 SWAP2 SSTORE PUSH1 0x2 DUP1 SLOAD SWAP4 SWAP1 SWAP5 AND SWAP3 AND SWAP2 SWAP1 SWAP2 OR SWAP1 SWAP2 SSTORE PUSH1 0xB SSTORE PUSH1 0xA DUP1 SLOAD PUSH2 0xFF00 NOT AND SWAP1 SSTORE PUSH2 0x19B JUMP JUMPDEST DUP1 MLOAD PUSH1 0x1 PUSH1 0x1 PUSH1 0xA0 SHL SUB DUP2 AND DUP2 EQ PUSH2 0x15A JUMPI PUSH1 0x0 DUP1 REVERT JUMPDEST SWAP2 SWAP1 POP JUMP JUMPDEST PUSH1 0x0 DUP1 PUSH1 0x0 PUSH1 0x60 DUP5 DUP7 SUB SLT ISZERO PUSH2 0x174 JUMPI PUSH1 0x0 DUP1 REVERT JUMPDEST PUSH2 0x17D DUP5 PUSH2 0x143 JUMP JUMPDEST SWAP3 POP PUSH2 0x18B PUSH1 0x20 DUP6 ADD PUSH2 0x143 JUMP JUMPDEST SWAP2 POP PUSH1 0x40 DUP5 ADD MLOAD SWAP1 POP SWAP3 POP SWAP3 POP SWAP3 JUMP JUMPDEST PUSH2 0x1783 DUP1 PUSH2 0x1AA PUSH1 0x0 CODECOPY PUSH1 0x0 RETURN INVALID PUSH1 0x80 PUSH1 0x40 MSTORE PUSH1 0x4 CALLDATASIZE LT PUSH2 0x19C JUMPI PUSH1 0x0 CALLDATALOAD PUSH1 0xE0 SHR DUP1 PUSH4 0x5A76F25E GT PUSH2 0xEC JUMPI DUP1 PUSH4 0xA000BF4F GT PUSH2 0x8A JUMPI DUP1 PUSH4 0xC98A0AA8 GT PUSH2 0x64 JUMPI DUP1 PUSH4 0xC98A0AA8 EQ PUSH2 0x45B JUMPI DUP1 PUSH4 0xC98B7FD2 EQ PUSH2 0x47B JUMPI DUP1 PUSH4 0xCC1776D3 EQ PUSH2 0x49B JUMPI DUP1 PUSH4 0xE77772FE EQ PUSH2 0x4B1 JUMPI PUSH1 0x0 DUP1 REVERT JUMPDEST DUP1 PUSH4 0xA000BF4F EQ PUSH2 0x41E JUMPI DUP1 PUSH4 0xA4821719 EQ PUSH2 0x43E JUMPI DUP1 PUSH4 0xAFD6B3C1 EQ PUSH2 0x446 JUMPI PUSH1 0x0 DUP1 REVERT JUMPDEST DUP1 PUSH4 0x8D5F17AA GT PUSH2 0xC6 JUMPI DUP1 PUSH4 0x8D5F17AA EQ PUSH2 0x3B6 JUMPI DUP1 PUSH4 0x90BC1E85 EQ PUSH2 0x3D5 JUMPI DUP1 PUSH4 0x96343FD5 EQ PUSH2 0x3EB JUMPI DUP1 PUSH4 0x9ED7EF4E EQ PUSH2 0x40B JUMPI PUSH1 0x0 DUP1 REVERT JUMPDEST DUP1 PUSH4 0x5A76F25E EQ PUSH2 0x365 JUMPI DUP1 PUSH4 0x60C72883 EQ PUSH2 0x37B JUMPI DUP1 PUSH4 0x7CD07E47 EQ PUSH2 0x396 JUMPI PUSH1 0x0 DUP1 REVERT JUMPDEST DUP1 PUSH4 0x2182AD88 GT PUSH2 0x159 JUMPI DUP1 PUSH4 0x3AD10EF6 GT PUSH2 0x133 JUMPI DUP1 PUSH4 0x3AD10EF6 EQ PUSH2 0x2F9 JUMPI DUP1 PUSH4 0x436D3340 EQ PUSH2 0x319 JUMPI DUP1 PUSH4 0x443CB4BC EQ PUSH2 0x339 JUMPI DUP1 PUSH4 0x4F7041A5 EQ PUSH2 0x34F JUMPI PUSH1 0x0 DUP1 REVERT JUMPDEST DUP1 PUSH4 0x2182AD88 EQ PUSH2 0x294 JUMPI DUP1 PUSH4 0x2397E4D7 EQ PUSH2 0x2AF JUMPI DUP1 PUSH4 0x299CE7B2 EQ PUSH2 0x2CF JUMPI PUSH1 0x0 DUP1 REVERT JUMPDEST DUP1 PUSH4 0x4C80C82 EQ PUSH2 0x1A1 JUMPI DUP1 PUSH4 0x4CCDE37 EQ PUSH2 0x1D3 JUMPI DUP1 PUSH4 0x902F1AC EQ PUSH2 0x1F5 JUMPI DUP1 PUSH4 0xDFE1681 EQ PUSH2 0x21D JUMPI DUP1 PUSH4 0xF0E7C8A EQ PUSH2 0x255 JUMPI DUP1 PUSH4 0x12185A39 EQ PUSH2 0x274 JUMPI JUMPDEST PUSH1 0x0 DUP1 REVERT JUMPDEST CALLVALUE DUP1 ISZERO PUSH2 0x1AD JUMPI PUSH1 0x0 DUP1 REVERT JUMPDEST POP PUSH2 0x1C0 PUSH11 0xD51AC75D3CBCA700901279 DUP2 JUMP JUMPDEST PUSH1 0x40 MLOAD SWAP1 DUP2 MSTORE PUSH1 0x20 ADD JUMPDEST PUSH1 0x40 MLOAD DUP1 SWAP2 SUB SWAP1 RETURN JUMPDEST CALLVALUE DUP1 ISZERO PUSH2 0x1DF JUMPI PUSH1 0x0 DUP1 REVERT JUMPDEST POP PUSH2 0x1F3 PUSH2 0x1EE CALLDATASIZE PUSH1 0x4 PUSH2 0x159D JUMP JUMPDEST PUSH2 0x4D1 JUMP JUMPDEST STOP JUMPDEST CALLVALUE DUP1 ISZERO PUSH2 0x201 JUMPI PUSH1 0x0 DUP1 REVERT JUMPDEST POP PUSH1 0x6 SLOAD PUSH1 0x7 SLOAD PUSH1 0x40 DUP1 MLOAD SWAP3 DUP4 MSTORE PUSH1 0x20 DUP4 ADD SWAP2 SWAP1 SWAP2 MSTORE ADD PUSH2 0x1CA JUMP JUMPDEST CALLVALUE DUP1 ISZERO PUSH2 0x229 JUMPI PUSH1 0x0 DUP1 REVERT JUMPDEST POP PUSH1 0x1 SLOAD PUSH2 0x23D SWAP1 PUSH1 0x1 PUSH1 0x1 PUSH1 0xA0 SHL SUB AND DUP2 JUMP JUMPDEST PUSH1 0x40 MLOAD PUSH1 0x1 PUSH1 0x1 PUSH1 0xA0 SHL SUB SWAP1 SWAP2 AND DUP2 MSTORE PUSH1 0x20 ADD PUSH2 0x1CA JUMP JUMPDEST CALLVALUE DUP1 ISZERO PUSH2 0x261 JUMPI PUSH1 0x0 DUP1 REVERT JUMPDEST POP PUSH2 0x1C0 PUSH11 0xD51AC75D3CA56EA04771F4 DUP2 JUMP JUMPDEST CALLVALUE DUP1 ISZERO PUSH2 0x280 JUMPI PUSH1 0x0 DUP1 REVERT JUMPDEST POP PUSH2 0x1F3 PUSH2 0x28F CALLDATASIZE PUSH1 0x4 PUSH2 0x15B8 JUMP JUMPDEST PUSH2 0x5AF JUMP JUMPDEST CALLVALUE DUP1 ISZERO PUSH2 0x2A0 JUMPI PUSH1 0x0 DUP1 REVERT JUMPDEST POP PUSH2 0x1C0 PUSH7 0x7134F38362D664 DUP2 JUMP JUMPDEST CALLVALUE DUP1 ISZERO PUSH2 0x2BB JUMPI PUSH1 0x0 DUP1 REVERT JUMPDEST POP PUSH2 0x1C0 PUSH2 0x2CA CALLDATASIZE PUSH1 0x4 PUSH2 0x15B8 JUMP JUMPDEST PUSH2 0x61E JUMP JUMPDEST CALLVALUE DUP1 ISZERO PUSH2 0x2DB JUMPI PUSH1 0x0 DUP1 REVERT JUMPDEST POP PUSH1 0xA SLOAD PUSH2 0x2E9 SWAP1 PUSH1 0xFF AND DUP2 JUMP JUMPDEST PUSH1 0x40 MLOAD SWAP1 ISZERO ISZERO DUP2 MSTORE PUSH1 0x20 ADD PUSH2 0x1CA JUMP JUMPDEST CALLVALUE DUP1 ISZERO PUSH2 0x305 JUMPI PUSH1 0x0 DUP1 REVERT JUMPDEST POP PUSH1 0x3 SLOAD PUSH2 0x23D SWAP1 PUSH1 0x1 PUSH1 0x1 PUSH1 0xA0 SHL SUB AND DUP2 JUMP JUMPDEST CALLVALUE DUP1 ISZERO PUSH2 0x325 JUMPI PUSH1 0x0 DUP1 REVERT JUMPDEST POP PUSH2 0x1F3 PUSH2 0x334 CALLDATASIZE PUSH1 0x4 PUSH2 0x15B8 JUMP JUMPDEST PUSH2 0x9CB JUMP JUMPDEST CALLVALUE DUP1 ISZERO PUSH2 0x345 JUMPI PUSH1 0x0 DUP1 REVERT JUMPDEST POP PUSH2 0x1C0 PUSH1 0x6 SLOAD DUP2 JUMP JUMPDEST CALLVALUE DUP1 ISZERO PUSH2 0x35B JUMPI PUSH1 0x0 DUP1 REVERT JUMPDEST POP PUSH2 0x1C0 PUSH1 0x8 SLOAD DUP2 JUMP JUMPDEST CALLVALUE DUP1 ISZERO PUSH2 0x371 JUMPI PUSH1 0x0 DUP1 REVERT JUMPDEST POP PUSH2 0x1C0 PUSH1 0x7 SLOAD DUP2 JUMP JUMPDEST CALLVALUE DUP1 ISZERO PUSH2 0x387 JUMPI PUSH1 0x0 DUP1 REVERT JUMPDEST POP PUSH2 0x1C0 PUSH7 0x7134F38362CA0E DUP2 JUMP JUMPDEST CALLVALUE DUP1 ISZERO PUSH2 0x3A2 JUMPI PUSH1 0x0 DUP1 REVERT JUMPDEST POP PUSH1 0x5 SLOAD PUSH2 0x23D SWAP1 PUSH1 0x1 PUSH1 0x1 PUSH1 0xA0 SHL SUB AND DUP2 JUMP JUMPDEST CALLVALUE DUP1 ISZERO PUSH2 0x3C2 JUMPI PUSH1 0x0 DUP1 REVERT JUMPDEST POP PUSH1 0xA SLOAD PUSH2 0x2E9 SWAP1 PUSH2 0x100 SWAP1 DIV PUSH1 0xFF AND DUP2 JUMP JUMPDEST CALLVALUE DUP1 ISZERO PUSH2 0x3E1 JUMPI PUSH1 0x0 DUP1 REVERT JUMPDEST POP PUSH2 0x1C0 PUSH1 0xB SLOAD DUP2 JUMP JUMPDEST CALLVALUE DUP1 ISZERO PUSH2 0x3F7 JUMPI PUSH1 0x0 DUP1 REVERT JUMPDEST POP PUSH2 0x1F3 PUSH2 0x406 CALLDATASIZE PUSH1 0x4 PUSH2 0x15B8 JUMP JUMPDEST PUSH2 0xA34 JUMP JUMPDEST PUSH2 0x1F3 PUSH2 0x419 CALLDATASIZE PUSH1 0x4 PUSH2 0x15E2 JUMP JUMPDEST PUSH2 0xAEF JUMP JUMPDEST CALLVALUE DUP1 ISZERO PUSH2 0x42A JUMPI PUSH1 0x0 DUP1 REVERT JUMPDEST POP PUSH2 0x23D PUSH2 0x439 CALLDATASIZE PUSH1 0x4 PUSH2 0x1645 JUMP JUMPDEST PUSH2 0xC15 JUMP JUMPDEST PUSH2 0x1C0 PUSH2 0xCA8 JUMP JUMPDEST CALLVALUE DUP1 ISZERO PUSH2 0x452 JUMPI PUSH1 0x0 DUP1 REVERT JUMPDEST POP PUSH2 0x1F3 PUSH2 0x11B4 JUMP JUMPDEST CALLVALUE DUP1 ISZERO PUSH2 0x467 JUMPI PUSH1 0x0 DUP1 REVERT JUMPDEST POP PUSH2 0x1F3 PUSH2 0x476 CALLDATASIZE PUSH1 0x4 PUSH2 0x1667 JUMP JUMPDEST PUSH2 0x11BE JUMP JUMPDEST CALLVALUE DUP1 ISZERO PUSH2 0x487 JUMPI PUSH1 0x0 DUP1 REVERT JUMPDEST POP PUSH1 0x4 SLOAD PUSH2 0x23D SWAP1 PUSH1 0x1 PUSH1 0x1 PUSH1 0xA0 SHL SUB AND DUP2 JUMP JUMPDEST CALLVALUE DUP1 ISZERO PUSH2 0x4A7 JUMPI PUSH1 0x0 DUP1 REVERT JUMPDEST POP PUSH2 0x1C0 PUSH1 0x9 SLOAD DUP2 JUMP JUMPDEST CALLVALUE DUP1 ISZERO PUSH2 0x4BD JUMPI PUSH1 0x0 DUP1 REVERT JUMPDEST POP PUSH1 0x2 SLOAD PUSH2 0x23D SWAP1 PUSH1 0x1 PUSH1 0x1 PUSH1 0xA0 SHL SUB AND DUP2 JUMP JUMPDEST PUSH1 0x2 SLOAD PUSH1 0x1 PUSH1 0x1 PUSH1 0xA0 SHL SUB AND CALLER EQ PUSH2 0x504 JUMPI PUSH1 0x40 MLOAD PUSH3 0x461BCD PUSH1 0xE5 SHL DUP2 MSTORE PUSH1 0x4 ADD PUSH2 0x4FB SWAP1 PUSH2 0x1684 JUMP JUMPDEST PUSH1 0x40 MLOAD DUP1 SWAP2 SUB SWAP1 REVERT JUMPDEST PUSH1 0x1 PUSH1 0x1 PUSH1 0xA0 SHL SUB DUP2 AND PUSH2 0x565 JUMPI PUSH1 0x40 MLOAD PUSH3 0x461BCD PUSH1 0xE5 SHL DUP2 MSTORE PUSH1 0x20 PUSH1 0x4 DUP3 ADD MSTORE PUSH1 0x22 PUSH1 0x24 DUP3 ADD MSTORE PUSH32 0x496E697469616C697A657220616464726573732063616E6E6F74206265207A65 PUSH1 0x44 DUP3 ADD MSTORE PUSH2 0x726F PUSH1 0xF0 SHL PUSH1 0x64 DUP3 ADD MSTORE PUSH1 0x84 ADD PUSH2 0x4FB JUMP JUMPDEST PUSH1 0x4 DUP1 SLOAD PUSH1 0x1 PUSH1 0x1 PUSH1 0xA0 SHL SUB NOT AND PUSH1 0x1 PUSH1 0x1 PUSH1 0xA0 SHL SUB DUP4 AND SWAP1 DUP2 OR SWAP1 SWAP2 SSTORE PUSH1 0x40 MLOAD PUSH32 0xE6223EF4A6CC26F11671126040EB90609754DF785E229F9FC28E9612CA3380BC SWAP1 PUSH1 0x0 SWAP1 LOG2 POP JUMP JUMPDEST PUSH1 0x2 SLOAD PUSH1 0x1 PUSH1 0x1 PUSH1 0xA0 SHL SUB AND CALLER EQ PUSH2 0x5D9 JUMPI PUSH1 0x40 MLOAD PUSH3 0x461BCD PUSH1 0xE5 SHL DUP2 MSTORE PUSH1 0x4 ADD PUSH2 0x4FB SWAP1 PUSH2 0x1684 JUMP JUMPDEST PUSH1 0x9 DUP2 SWAP1 SSTORE PUSH1 0x8 SLOAD PUSH1 0x40 DUP1 MLOAD SWAP2 DUP3 MSTORE PUSH1 0x20 DUP3 ADD DUP4 SWAP1 MSTORE PUSH32 0xB841FAF0D1B32571F4EF966A2F35E3AE51F3CDDA45318C3DA5570A5B2AD85605 SWAP2 ADD JUMPDEST PUSH1 0x40 MLOAD DUP1 SWAP2 SUB SWAP1 LOG1 POP JUMP JUMPDEST PUSH1 0x0 PUSH2 0x628 PUSH2 0x1231 JUMP JUMPDEST PUSH1 0x0 DUP3 GT PUSH2 0x670 JUMPI PUSH1 0x40 MLOAD PUSH3 0x461BCD PUSH1 0xE5 SHL DUP2 MSTORE PUSH1 0x20 PUSH1 0x4 DUP3 ADD MSTORE PUSH1 0x15 PUSH1 0x24 DUP3 ADD MSTORE PUSH21 0x4D7573742073656C6C20736F6D6520746F6B656E73 PUSH1 0x58 SHL PUSH1 0x44 DUP3 ADD MSTORE PUSH1 0x64 ADD PUSH2 0x4FB JUMP JUMPDEST PUSH1 0x0 DUP3 PUSH1 0x6 SLOAD PUSH2 0x680 SWAP2 SWAP1 PUSH2 0x16D1 JUMP JUMPDEST SWAP1 POP PUSH1 0x0 PUSH2 0x699 PUSH11 0xD51AC75D3CBCA700901279 DUP4 PUSH2 0x16D1 JUMP JUMPDEST PUSH7 0x7134F38362D664 PUSH1 0x7 SLOAD PUSH2 0x6AE SWAP2 SWAP1 PUSH2 0x16D1 JUMP JUMPDEST PUSH11 0xD51AC75D3CBCA700901279 PUSH1 0x6 SLOAD PUSH2 0x6C7 SWAP2 SWAP1 PUSH2 0x16D1 JUMP JUMPDEST PUSH2 0x6D1 SWAP2 SWAP1 PUSH2 0x16E4 JUMP JUMPDEST PUSH2 0x6DB SWAP2 SWAP1 PUSH2 0x16FB JUMP JUMPDEST SWAP1 POP PUSH7 0x7134F38362D664 DUP2 LT ISZERO PUSH2 0x6F6 JUMPI POP PUSH7 0x7134F38362D664 JUMPDEST PUSH1 0x0 PUSH2 0x709 PUSH7 0x7134F38362D664 DUP4 PUSH2 0x171D JUMP JUMPDEST SWAP1 POP PUSH1 0x7 SLOAD DUP2 GT PUSH2 0x727 JUMPI DUP1 PUSH1 0x7 SLOAD PUSH2 0x722 SWAP2 SWAP1 PUSH2 0x171D JUMP JUMPDEST PUSH2 0x72B JUMP JUMPDEST PUSH1 0x7 SLOAD JUMPDEST SWAP4 POP DUP3 PUSH1 0x6 DUP2 SWAP1 SSTORE POP DUP4 PUSH1 0x7 PUSH1 0x0 DUP3 DUP3 SLOAD PUSH2 0x746 SWAP2 SWAP1 PUSH2 0x171D JUMP JUMPDEST SWAP1 SWAP2 SSTORE POP POP PUSH1 0x9 SLOAD PUSH1 0x0 SWAP1 PUSH2 0x3E8 SWAP1 PUSH2 0x75F SWAP1 DUP8 PUSH2 0x16E4 JUMP JUMPDEST PUSH2 0x769 SWAP2 SWAP1 PUSH2 0x16FB JUMP JUMPDEST SWAP1 POP PUSH2 0x775 DUP2 DUP7 PUSH2 0x171D JUMP JUMPDEST PUSH1 0x3 SLOAD PUSH1 0x40 MLOAD SWAP2 SWAP7 POP PUSH1 0x0 SWAP2 PUSH1 0x1 PUSH1 0x1 PUSH1 0xA0 SHL SUB SWAP1 SWAP2 AND SWAP1 DUP4 SWAP1 DUP4 DUP2 DUP2 DUP2 DUP6 DUP8 GAS CALL SWAP3 POP POP POP RETURNDATASIZE DUP1 PUSH1 0x0 DUP2 EQ PUSH2 0x7C7 JUMPI PUSH1 0x40 MLOAD SWAP2 POP PUSH1 0x1F NOT PUSH1 0x3F RETURNDATASIZE ADD AND DUP3 ADD PUSH1 0x40 MSTORE RETURNDATASIZE DUP3 MSTORE RETURNDATASIZE PUSH1 0x0 PUSH1 0x20 DUP5 ADD RETURNDATACOPY PUSH2 0x7CC JUMP JUMPDEST PUSH1 0x60 SWAP2 POP JUMPDEST POP POP SWAP1 POP DUP1 PUSH2 0x81D JUMPI PUSH1 0x40 MLOAD PUSH3 0x461BCD PUSH1 0xE5 SHL DUP2 MSTORE PUSH1 0x20 PUSH1 0x4 DUP3 ADD MSTORE PUSH1 0x17 PUSH1 0x24 DUP3 ADD MSTORE PUSH32 0x4661696C656420746F2073656E642073656C6C20746178000000000000000000 PUSH1 0x44 DUP3 ADD MSTORE PUSH1 0x64 ADD PUSH2 0x4FB JUMP JUMPDEST PUSH1 0x1 SLOAD PUSH1 0x40 MLOAD PUSH4 0x23B872DD PUSH1 0xE0 SHL DUP2 MSTORE CALLER PUSH1 0x4 DUP3 ADD MSTORE ADDRESS PUSH1 0x24 DUP3 ADD MSTORE PUSH1 0x44 DUP2 ADD DUP10 SWAP1 MSTORE PUSH1 0x1 PUSH1 0x1 PUSH1 0xA0 SHL SUB SWAP1 SWAP2 AND SWAP1 PUSH4 0x23B872DD SWAP1 PUSH1 0x64 ADD PUSH1 0x20 PUSH1 0x40 MLOAD DUP1 DUP4 SUB DUP2 PUSH1 0x0 DUP8 GAS CALL ISZERO DUP1 ISZERO PUSH2 0x874 JUMPI RETURNDATASIZE PUSH1 0x0 DUP1 RETURNDATACOPY RETURNDATASIZE PUSH1 0x0 REVERT JUMPDEST POP POP POP POP PUSH1 0x40 MLOAD RETURNDATASIZE PUSH1 0x1F NOT PUSH1 0x1F DUP3 ADD AND DUP3 ADD DUP1 PUSH1 0x40 MSTORE POP DUP2 ADD SWAP1 PUSH2 0x898 SWAP2 SWAP1 PUSH2 0x1730 JUMP JUMPDEST PUSH2 0x8E0 JUMPI PUSH1 0x40 MLOAD PUSH3 0x461BCD PUSH1 0xE5 SHL DUP2 MSTORE PUSH1 0x20 PUSH1 0x4 DUP3 ADD MSTORE PUSH1 0x19 PUSH1 0x24 DUP3 ADD MSTORE PUSH25 0x4661696C656420746F207472616E7366657220746F6B656E73 PUSH1 0x38 SHL PUSH1 0x44 DUP3 ADD MSTORE PUSH1 0x64 ADD PUSH2 0x4FB JUMP JUMPDEST PUSH1 0x40 MLOAD PUSH1 0x0 SWAP1 CALLER SWAP1 DUP9 SWAP1 DUP4 DUP2 DUP2 DUP2 DUP6 DUP8 GAS CALL SWAP3 POP POP POP RETURNDATASIZE DUP1 PUSH1 0x0 DUP2 EQ PUSH2 0x922 JUMPI PUSH1 0x40 MLOAD SWAP2 POP PUSH1 0x1F NOT PUSH1 0x3F RETURNDATASIZE ADD AND DUP3 ADD PUSH1 0x40 MSTORE RETURNDATASIZE DUP3 MSTORE RETURNDATASIZE PUSH1 0x0 PUSH1 0x20 DUP5 ADD RETURNDATACOPY PUSH2 0x927 JUMP JUMPDEST PUSH1 0x60 SWAP2 POP JUMPDEST POP POP SWAP1 POP DUP1 PUSH2 0x96F JUMPI PUSH1 0x40 MLOAD PUSH3 0x461BCD PUSH1 0xE5 SHL DUP2 MSTORE PUSH1 0x20 PUSH1 0x4 DUP3 ADD MSTORE PUSH1 0x14 PUSH1 0x24 DUP3 ADD MSTORE PUSH20 0x2330B4B632B2103A379039B2B7321032BA3432B9 PUSH1 0x61 SHL PUSH1 0x44 DUP3 ADD MSTORE PUSH1 0x64 ADD PUSH2 0x4FB JUMP JUMPDEST PUSH1 0x9 SLOAD PUSH1 0x40 DUP1 MLOAD DUP11 DUP2 MSTORE PUSH1 0x20 DUP2 ADD DUP11 SWAP1 MSTORE SWAP1 DUP2 ADD SWAP2 SWAP1 SWAP2 MSTORE CALLER SWAP1 PUSH32 0x6DB63BEBF1E6540277744DF32846EBDB98385B1A73F2D5DE49B28348ADD63F50 SWAP1 PUSH1 0x60 ADD PUSH1 0x40 MLOAD DUP1 SWAP2 SUB SWAP1 LOG2 POP POP POP POP POP POP PUSH2 0x9C6 PUSH1 0x1 PUSH1 0x0 SSTORE JUMP JUMPDEST SWAP2 SWAP1 POP JUMP JUMPDEST PUSH1 0x2 SLOAD PUSH1 0x1 PUSH1 0x1 PUSH1 0xA0 SHL SUB AND CALLER EQ PUSH2 0x9F5 JUMPI PUSH1 0x40 MLOAD PUSH3 0x461BCD PUSH1 0xE5 SHL DUP2 MSTORE PUSH1 0x4 ADD PUSH2 0x4FB SWAP1 PUSH2 0x1684 JUMP JUMPDEST PUSH1 0x8 DUP2 SWAP1 SSTORE PUSH1 0x9 SLOAD PUSH1 0x40 DUP1 MLOAD DUP4 DUP2 MSTORE PUSH1 0x20 DUP2 ADD SWAP3 SWAP1 SWAP3 MSTORE PUSH32 0xB841FAF0D1B32571F4EF966A2F35E3AE51F3CDDA45318C3DA5570A5B2AD85605 SWAP2 ADD PUSH2 0x613 JUMP JUMPDEST PUSH1 0x2 SLOAD PUSH1 0x1 PUSH1 0x1 PUSH1 0xA0 SHL SUB AND CALLER EQ PUSH2 0xA5E JUMPI PUSH1 0x40 MLOAD PUSH3 0x461BCD PUSH1 0xE5 SHL DUP2 MSTORE PUSH1 0x4 ADD PUSH2 0x4FB SWAP1 PUSH2 0x1684 JUMP JUMPDEST PUSH1 0x0 DUP2 GT PUSH2 0xABA JUMPI PUSH1 0x40 MLOAD PUSH3 0x461BCD PUSH1 0xE5 SHL DUP2 MSTORE PUSH1 0x20 PUSH1 0x4 DUP3 ADD MSTORE PUSH1 0x23 PUSH1 0x24 DUP3 ADD MSTORE PUSH32 0x5468726573686F6C64206D7573742062652067726561746572207468616E207A PUSH1 0x44 DUP3 ADD MSTORE PUSH3 0x65726F PUSH1 0xE8 SHL PUSH1 0x64 DUP3 ADD MSTORE PUSH1 0x84 ADD PUSH2 0x4FB JUMP JUMPDEST PUSH1 0xB DUP2 SWAP1 SSTORE PUSH1 0x40 MLOAD DUP2 DUP2 MSTORE PUSH32 0x4AD9AE9229776F627D7D2BE995964376397890E11BBFA94E8826810419A6EF6B SWAP1 PUSH1 0x20 ADD PUSH2 0x613 JUMP JUMPDEST PUSH1 0x2 SLOAD PUSH1 0x1 PUSH1 0x1 PUSH1 0xA0 SHL SUB AND CALLER EQ PUSH2 0xB19 JUMPI PUSH1 0x40 MLOAD PUSH3 0x461BCD PUSH1 0xE5 SHL DUP2 MSTORE PUSH1 0x4 ADD PUSH2 0x4FB SWAP1 PUSH2 0x1684 JUMP JUMPDEST PUSH2 0xB21 PUSH2 0x1231 JUMP JUMPDEST PUSH1 0x1 SLOAD PUSH1 0x1 PUSH1 0x1 PUSH1 0xA0 SHL SUB AND ISZERO PUSH2 0xB7A JUMPI PUSH1 0x40 MLOAD PUSH3 0x461BCD PUSH1 0xE5 SHL DUP2 MSTORE PUSH1 0x20 PUSH1 0x4 DUP3 ADD MSTORE PUSH1 0x18 PUSH1 0x24 DUP3 ADD MSTORE PUSH32 0x506F6F6C20616C726561647920696E697469616C697A65640000000000000000 PUSH1 0x44 DUP3 ADD MSTORE PUSH1 0x64 ADD PUSH2 0x4FB JUMP JUMPDEST PUSH1 0x1 DUP1 SLOAD PUSH1 0x1 PUSH1 0x1 PUSH1 0xA0 SHL SUB NOT SWAP1 DUP2 AND PUSH1 0x1 PUSH1 0x1 PUSH1 0xA0 SHL SUB DUP10 DUP2 AND SWAP2 SWAP1 SWAP2 OR SWAP1 SWAP3 SSTORE PUSH1 0x6 DUP8 SWAP1 SSTORE PUSH1 0x8 DUP7 SWAP1 SSTORE PUSH1 0x9 DUP6 SWAP1 SSTORE PUSH1 0x4 DUP1 SLOAD SWAP1 SWAP2 AND SWAP2 DUP5 AND SWAP2 SWAP1 SWAP2 OR SWAP1 SSTORE PUSH1 0xA DUP1 SLOAD PUSH2 0xFF00 NOT AND PUSH2 0x100 DUP4 ISZERO ISZERO MUL OR SWAP1 SSTORE PUSH1 0x40 MLOAD DUP6 DUP2 MSTORE CALLER SWAP1 PUSH32 0xC17CEA59C2955CB181B03393209566960365771DBBA9DC3D510180E7CB312088 SWAP1 PUSH1 0x20 ADD PUSH1 0x40 MLOAD DUP1 SWAP2 SUB SWAP1 LOG2 PUSH2 0xC0D PUSH1 0x1 PUSH1 0x0 SSTORE JUMP JUMPDEST POP POP POP POP POP POP JUMP JUMPDEST PUSH1 0x0 DUP1 DUP4 GT DUP1 ISZERO PUSH2 0xC26 JUMPI POP PUSH1 0x0 DUP3 GT JUMPDEST PUSH2 0xC7C JUMPI PUSH1 0x40 MLOAD PUSH3 0x461BCD PUSH1 0xE5 SHL DUP2 MSTORE PUSH1 0x20 PUSH1 0x4 DUP3 ADD MSTORE PUSH1 0x21 PUSH1 0x24 DUP3 ADD MSTORE PUSH32 0x416D6F756E7473206D7573742062652067726561746572207468616E207A6572 PUSH1 0x44 DUP3 ADD MSTORE PUSH1 0x6F PUSH1 0xF8 SHL PUSH1 0x64 DUP3 ADD MSTORE PUSH1 0x84 ADD PUSH2 0x4FB JUMP JUMPDEST PUSH1 0x0 PUSH2 0xC8C DUP5 PUSH1 0x60 DUP6 SWAP1 SHL PUSH2 0x16FB JUMP JUMPDEST SWAP1 POP PUSH1 0x0 PUSH1 0x30 PUSH2 0xC9B DUP4 PUSH2 0x125B JUMP JUMPDEST SWAP1 SHL SWAP3 POP POP POP JUMPDEST SWAP3 SWAP2 POP POP JUMP JUMPDEST PUSH1 0x0 PUSH2 0xCB2 PUSH2 0x1231 JUMP JUMPDEST PUSH1 0xA SLOAD PUSH1 0xFF AND ISZERO PUSH2 0xD05 JUMPI PUSH1 0x40 MLOAD PUSH3 0x461BCD PUSH1 0xE5 SHL DUP2 MSTORE PUSH1 0x20 PUSH1 0x4 DUP3 ADD MSTORE PUSH1 0x18 PUSH1 0x24 DUP3 ADD MSTORE PUSH32 0x506F6F6C206D6967726174656420746F20416C67656272610000000000000000 PUSH1 0x44 DUP3 ADD MSTORE PUSH1 0x64 ADD PUSH2 0x4FB JUMP JUMPDEST PUSH1 0x0 CALLVALUE GT PUSH2 0xD55 JUMPI PUSH1 0x40 MLOAD PUSH3 0x461BCD PUSH1 0xE5 SHL DUP2 MSTORE PUSH1 0x20 PUSH1 0x4 DUP3 ADD MSTORE PUSH1 0x1D PUSH1 0x24 DUP3 ADD MSTORE PUSH32 0x4D7573742073656E6420457468657220746F2062757920746F6B656E73000000 PUSH1 0x44 DUP3 ADD MSTORE PUSH1 0x64 ADD PUSH2 0x4FB JUMP JUMPDEST PUSH8 0x2C68AF0BB140000 PUSH1 0x7 SLOAD LT PUSH2 0xD9D JUMPI PUSH1 0x40 MLOAD PUSH3 0x461BCD PUSH1 0xE5 SHL DUP2 MSTORE PUSH1 0x20 PUSH1 0x4 DUP3 ADD MSTORE PUSH1 0xC PUSH1 0x24 DUP3 ADD MSTORE PUSH12 0x141BDBDB081A5CC8199D5B1B PUSH1 0xA2 SHL PUSH1 0x44 DUP3 ADD MSTORE PUSH1 0x64 ADD PUSH2 0x4FB JUMP JUMPDEST PUSH1 0x0 PUSH1 0x6 SLOAD GT PUSH2 0xDE7 JUMPI PUSH1 0x40 MLOAD PUSH3 0x461BCD PUSH1 0xE5 SHL DUP2 MSTORE PUSH1 0x20 PUSH1 0x4 DUP3 ADD MSTORE PUSH1 0x15 PUSH1 0x24 DUP3 ADD MSTORE PUSH21 0x139BC81D1BDAD95B9CC81A5B881D1A19481C1BDBDB PUSH1 0x5A SHL PUSH1 0x44 DUP3 ADD MSTORE PUSH1 0x64 ADD PUSH2 0x4FB JUMP JUMPDEST PUSH1 0x0 PUSH2 0x3E8 PUSH1 0x8 SLOAD CALLVALUE PUSH2 0xDFA SWAP2 SWAP1 PUSH2 0x16E4 JUMP JUMPDEST PUSH2 0xE04 SWAP2 SWAP1 PUSH2 0x16FB JUMP JUMPDEST SWAP1 POP PUSH1 0x0 PUSH2 0xE12 DUP3 CALLVALUE PUSH2 0x171D JUMP JUMPDEST SWAP1 POP PUSH8 0x2C68AF0BB140000 DUP2 PUSH1 0x7 SLOAD PUSH2 0xE2B SWAP2 SWAP1 PUSH2 0x16D1 JUMP JUMPDEST LT PUSH2 0xF21 JUMPI PUSH1 0x0 PUSH1 0x7 SLOAD PUSH8 0x2C68AF0BB140000 PUSH2 0xE48 SWAP2 SWAP1 PUSH2 0x171D JUMP JUMPDEST SWAP1 POP PUSH1 0x0 PUSH2 0xE56 DUP3 DUP5 PUSH2 0x171D JUMP JUMPDEST SWAP1 POP DUP2 PUSH1 0x7 PUSH1 0x0 DUP3 DUP3 SLOAD PUSH2 0xE6A SWAP2 SWAP1 PUSH2 0x16D1 JUMP JUMPDEST SWAP1 SWAP2 SSTORE POP POP PUSH1 0x6 DUP1 SLOAD PUSH1 0x0 SWAP1 SWAP2 SSTORE SWAP5 POP DUP1 ISZERO PUSH2 0xF1A JUMPI PUSH1 0x40 MLOAD PUSH1 0x0 SWAP1 CALLER SWAP1 DUP4 SWAP1 DUP4 DUP2 DUP2 DUP2 DUP6 DUP8 GAS CALL SWAP3 POP POP POP RETURNDATASIZE DUP1 PUSH1 0x0 DUP2 EQ PUSH2 0xEC2 JUMPI PUSH1 0x40 MLOAD SWAP2 POP PUSH1 0x1F NOT PUSH1 0x3F RETURNDATASIZE ADD AND DUP3 ADD PUSH1 0x40 MSTORE RETURNDATASIZE DUP3 MSTORE RETURNDATASIZE PUSH1 0x0 PUSH1 0x20 DUP5 ADD RETURNDATACOPY PUSH2 0xEC7 JUMP JUMPDEST PUSH1 0x60 SWAP2 POP JUMPDEST POP POP SWAP1 POP DUP1 PUSH2 0xF18 JUMPI PUSH1 0x40 MLOAD PUSH3 0x461BCD PUSH1 0xE5 SHL DUP2 MSTORE PUSH1 0x20 PUSH1 0x4 DUP3 ADD MSTORE PUSH1 0x1D PUSH1 0x24 DUP3 ADD MSTORE PUSH32 0x4661696C656420746F20726566756E6420657863657373206574686572000000 PUSH1 0x44 DUP3 ADD MSTORE PUSH1 0x64 ADD PUSH2 0x4FB JUMP JUMPDEST POP JUMPDEST POP POP PUSH2 0x1008 JUMP JUMPDEST PUSH1 0x0 DUP2 PUSH1 0x7 SLOAD PUSH2 0xF31 SWAP2 SWAP1 PUSH2 0x16D1 JUMP JUMPDEST SWAP1 POP PUSH1 0x0 PUSH2 0xF46 PUSH7 0x7134F38362CA0E DUP4 PUSH2 0x16D1 JUMP JUMPDEST PUSH7 0x7134F38362D664 PUSH1 0x7 SLOAD PUSH2 0xF5B SWAP2 SWAP1 PUSH2 0x16D1 JUMP JUMPDEST PUSH11 0xD51AC75D3CBCA700901279 PUSH1 0x6 SLOAD PUSH2 0xF74 SWAP2 SWAP1 PUSH2 0x16D1 JUMP JUMPDEST PUSH2 0xF7E SWAP2 SWAP1 PUSH2 0x16E4 JUMP JUMPDEST PUSH2 0xF88 SWAP2 SWAP1 PUSH2 0x16FB JUMP JUMPDEST SWAP1 POP PUSH11 0xD51AC75D3CA56EA04771F4 DUP2 LT ISZERO PUSH2 0xFAB JUMPI POP PUSH11 0xD51AC75D3CA56EA04771F4 JUMPDEST PUSH1 0x0 PUSH2 0xFC2 PUSH11 0xD51AC75D3CA56EA04771F4 DUP4 PUSH2 0x171D JUMP JUMPDEST SWAP1 POP PUSH1 0x6 SLOAD DUP2 GT PUSH2 0xFE0 JUMPI DUP1 PUSH1 0x6 SLOAD PUSH2 0xFDB SWAP2 SWAP1 PUSH2 0x171D JUMP JUMPDEST PUSH2 0xFE4 JUMP JUMPDEST PUSH1 0x6 SLOAD JUMPDEST SWAP6 POP DUP3 PUSH1 0x7 DUP2 SWAP1 SSTORE POP DUP6 PUSH1 0x6 PUSH1 0x0 DUP3 DUP3 SLOAD PUSH2 0xFFF SWAP2 SWAP1 PUSH2 0x171D JUMP JUMPDEST SWAP1 SWAP2 SSTORE POP POP POP POP POP JUMPDEST PUSH1 0x1 SLOAD PUSH1 0x40 MLOAD PUSH4 0xA9059CBB PUSH1 0xE0 SHL DUP2 MSTORE CALLER PUSH1 0x4 DUP3 ADD MSTORE PUSH1 0x24 DUP2 ADD DUP6 SWAP1 MSTORE PUSH1 0x1 PUSH1 0x1 PUSH1 0xA0 SHL SUB SWAP1 SWAP2 AND SWAP1 PUSH4 0xA9059CBB SWAP1 PUSH1 0x44 ADD PUSH1 0x20 PUSH1 0x40 MLOAD DUP1 DUP4 SUB DUP2 PUSH1 0x0 DUP8 GAS CALL ISZERO DUP1 ISZERO PUSH2 0x1059 JUMPI RETURNDATASIZE PUSH1 0x0 DUP1 RETURNDATACOPY RETURNDATASIZE PUSH1 0x0 REVERT JUMPDEST POP POP POP POP PUSH1 0x40 MLOAD RETURNDATASIZE PUSH1 0x1F NOT PUSH1 0x1F DUP3 ADD AND DUP3 ADD DUP1 PUSH1 0x40 MSTORE POP DUP2 ADD SWAP1 PUSH2 0x107D SWAP2 SWAP1 PUSH2 0x1730 JUMP JUMPDEST PUSH2 0x10C5 JUMPI PUSH1 0x40 MLOAD PUSH3 0x461BCD PUSH1 0xE5 SHL DUP2 MSTORE PUSH1 0x20 PUSH1 0x4 DUP3 ADD MSTORE PUSH1 0x19 PUSH1 0x24 DUP3 ADD MSTORE PUSH25 0x4661696C656420746F207472616E7366657220746F6B656E73 PUSH1 0x38 SHL PUSH1 0x44 DUP3 ADD MSTORE PUSH1 0x64 ADD PUSH2 0x4FB JUMP JUMPDEST PUSH1 0x3 SLOAD PUSH1 0x40 MLOAD PUSH1 0x0 SWAP2 PUSH1 0x1 PUSH1 0x1 PUSH1 0xA0 SHL SUB AND SWAP1 DUP5 SWAP1 DUP4 DUP2 DUP2 DUP2 DUP6 DUP8 GAS CALL SWAP3 POP POP POP RETURNDATASIZE DUP1 PUSH1 0x0 DUP2 EQ PUSH2 0x1112 JUMPI PUSH1 0x40 MLOAD SWAP2 POP PUSH1 0x1F NOT PUSH1 0x3F RETURNDATASIZE ADD AND DUP3 ADD PUSH1 0x40 MSTORE RETURNDATASIZE DUP3 MSTORE RETURNDATASIZE PUSH1 0x0 PUSH1 0x20 DUP5 ADD RETURNDATACOPY PUSH2 0x1117 JUMP JUMPDEST PUSH1 0x60 SWAP2 POP JUMPDEST POP POP SWAP1 POP DUP1 PUSH2 0x1161 JUMPI PUSH1 0x40 MLOAD PUSH3 0x461BCD PUSH1 0xE5 SHL DUP2 MSTORE PUSH1 0x20 PUSH1 0x4 DUP3 ADD MSTORE PUSH1 0x16 PUSH1 0x24 DUP3 ADD MSTORE PUSH22 0x8CC2D2D8CAC840E8DE40E6CADCC840C4EAF240E8C2F PUSH1 0x53 SHL PUSH1 0x44 DUP3 ADD MSTORE PUSH1 0x64 ADD PUSH2 0x4FB JUMP JUMPDEST PUSH1 0x40 DUP1 MLOAD CALLVALUE DUP2 MSTORE PUSH1 0x20 DUP2 ADD DUP7 SWAP1 MSTORE SWAP1 DUP2 ADD DUP5 SWAP1 MSTORE CALLER SWAP1 PUSH32 0xD1A0D5E3D583A0E92588799DD06E50FD78C07DAF05F0CC06D7B848B1CA445F1 SWAP1 PUSH1 0x60 ADD PUSH1 0x40 MLOAD DUP1 SWAP2 SUB SWAP1 LOG2 POP POP POP PUSH2 0x11B1 PUSH1 0x1 PUSH1 0x0 SSTORE JUMP JUMPDEST SWAP1 JUMP JUMPDEST PUSH2 0x11BC PUSH2 0x12B2 JUMP JUMPDEST JUMP JUMPDEST PUSH1 0x2 SLOAD PUSH1 0x1 PUSH1 0x1 PUSH1 0xA0 SHL SUB AND CALLER EQ PUSH2 0x11E8 JUMPI PUSH1 0x40 MLOAD PUSH3 0x461BCD PUSH1 0xE5 SHL DUP2 MSTORE PUSH1 0x4 ADD PUSH2 0x4FB SWAP1 PUSH2 0x1684 JUMP JUMPDEST PUSH1 0xA DUP1 SLOAD DUP3 ISZERO ISZERO PUSH2 0x100 MUL PUSH2 0xFF00 NOT SWAP1 SWAP2 AND OR SWAP1 SSTORE PUSH1 0x40 MLOAD PUSH32 0xE7E0BD136AB3B57E3E925774A811E2482DF79072FA45D011A4F088ABFCC209D2 SWAP1 PUSH2 0x613 SWAP1 DUP4 ISZERO ISZERO DUP2 MSTORE PUSH1 0x20 ADD SWAP1 JUMP JUMPDEST PUSH1 0x2 PUSH1 0x0 SLOAD SUB PUSH2 0x1254 JUMPI PUSH1 0x40 MLOAD PUSH4 0x3EE5AEB5 PUSH1 0xE0 SHL DUP2 MSTORE PUSH1 0x4 ADD PUSH1 0x40 MLOAD DUP1 SWAP2 SUB SWAP1 REVERT JUMPDEST PUSH1 0x2 PUSH1 0x0 SSTORE JUMP JUMPDEST PUSH1 0x0 DUP1 PUSH1 0x2 PUSH2 0x126B DUP5 PUSH1 0x1 PUSH2 0x16D1 JUMP JUMPDEST PUSH2 0x1275 SWAP2 SWAP1 PUSH2 0x16FB JUMP JUMPDEST SWAP1 POP DUP3 JUMPDEST DUP1 DUP3 LT ISZERO PUSH2 0x12AB JUMPI POP DUP1 PUSH1 0x2 DUP2 PUSH2 0x1290 DUP2 DUP8 PUSH2 0x16FB JUMP JUMPDEST PUSH2 0x129A SWAP2 SWAP1 PUSH2 0x16D1 JUMP JUMPDEST PUSH2 0x12A4 SWAP2 SWAP1 PUSH2 0x16FB JUMP JUMPDEST SWAP2 POP PUSH2 0x1279 JUMP JUMPDEST SWAP4 SWAP3 POP POP POP JUMP JUMPDEST PUSH2 0x12BA PUSH2 0x1231 JUMP JUMPDEST PUSH1 0xA SLOAD PUSH1 0xFF AND ISZERO PUSH2 0x130D JUMPI PUSH1 0x40 MLOAD PUSH3 0x461BCD PUSH1 0xE5 SHL DUP2 MSTORE PUSH1 0x20 PUSH1 0x4 DUP3 ADD MSTORE PUSH1 0x1B PUSH1 0x24 DUP3 ADD MSTORE PUSH32 0x416C7265616479206D6967726174656420746F20416C67656272610000000000 PUSH1 0x44 DUP3 ADD MSTORE PUSH1 0x64 ADD PUSH2 0x4FB JUMP JUMPDEST PUSH1 0x5 SLOAD PUSH1 0x1 PUSH1 0x1 PUSH1 0xA0 SHL SUB AND PUSH2 0x1365 JUMPI PUSH1 0x40 MLOAD PUSH3 0x461BCD PUSH1 0xE5 SHL DUP2 MSTORE PUSH1 0x20 PUSH1 0x4 DUP3 ADD MSTORE PUSH1 0x18 PUSH1 0x24 DUP3 ADD MSTORE PUSH32 0x4D69677261746F722061646472657373206E6F74207365740000000000000000 PUSH1 0x44 DUP3 ADD MSTORE PUSH1 0x64 ADD PUSH2 0x4FB JUMP JUMPDEST PUSH1 0x1 SLOAD PUSH1 0x1 PUSH1 0x1 PUSH1 0xA0 SHL SUB AND PUSH2 0x13AD JUMPI PUSH1 0x40 MLOAD PUSH3 0x461BCD PUSH1 0xE5 SHL DUP2 MSTORE PUSH1 0x20 PUSH1 0x4 DUP3 ADD MSTORE PUSH1 0xD PUSH1 0x24 DUP3 ADD MSTORE PUSH13 0x151BDAD95B881B9BDD081CD95D PUSH1 0x9A SHL PUSH1 0x44 DUP3 ADD MSTORE PUSH1 0x64 ADD PUSH2 0x4FB JUMP JUMPDEST PUSH1 0xB SLOAD PUSH1 0x7 SLOAD LT ISZERO PUSH2 0x1401 JUMPI PUSH1 0x40 MLOAD PUSH3 0x461BCD PUSH1 0xE5 SHL DUP2 MSTORE PUSH1 0x20 PUSH1 0x4 DUP3 ADD MSTORE PUSH1 0x1F PUSH1 0x24 DUP3 ADD MSTORE PUSH32 0x5468726573686F6C64206E6F74206D657420666F72206D6967726174696F6E00 PUSH1 0x44 DUP3 ADD MSTORE PUSH1 0x64 ADD PUSH2 0x4FB JUMP JUMPDEST PUSH1 0x40 MLOAD TIMESTAMP DUP2 MSTORE ADDRESS SWAP1 PUSH32 0x6FE31FE06376E41620B746F0AE12F6A52C0F80E8204FF068CD22417E94AF545 SWAP1 PUSH1 0x20 ADD PUSH1 0x40 MLOAD DUP1 SWAP2 SUB SWAP1 LOG2 PUSH1 0x1 SLOAD PUSH1 0x5 SLOAD PUSH1 0x6 SLOAD PUSH1 0x40 MLOAD PUSH4 0x95EA7B3 PUSH1 0xE0 SHL DUP2 MSTORE PUSH1 0x1 PUSH1 0x1 PUSH1 0xA0 SHL SUB SWAP3 DUP4 AND PUSH1 0x4 DUP3 ADD MSTORE PUSH1 0x24 DUP2 ADD SWAP2 SWAP1 SWAP2 MSTORE SWAP2 AND SWAP1 PUSH4 0x95EA7B3 SWAP1 PUSH1 0x44 ADD PUSH1 0x20 PUSH1 0x40 MLOAD DUP1 DUP4 SUB DUP2 PUSH1 0x0 DUP8 GAS CALL ISZERO DUP1 ISZERO PUSH2 0x148F JUMPI RETURNDATASIZE PUSH1 0x0 DUP1 RETURNDATACOPY RETURNDATASIZE PUSH1 0x0 REVERT JUMPDEST POP POP POP POP PUSH1 0x40 MLOAD RETURNDATASIZE PUSH1 0x1F NOT PUSH1 0x1F DUP3 ADD AND DUP3 ADD DUP1 PUSH1 0x40 MSTORE POP DUP2 ADD SWAP1 PUSH2 0x14B3 SWAP2 SWAP1 PUSH2 0x1730 JUMP JUMPDEST POP PUSH1 0x5 SLOAD PUSH1 0x7 SLOAD PUSH1 0x1 SLOAD PUSH1 0x6 SLOAD PUSH1 0x40 MLOAD PUSH4 0x31FAF0B PUSH1 0xE3 SHL DUP2 MSTORE PUSH1 0x1 PUSH1 0x1 PUSH1 0xA0 SHL SUB SWAP3 DUP4 AND PUSH1 0x4 DUP3 ADD MSTORE PUSH1 0x24 DUP2 ADD SWAP2 SWAP1 SWAP2 MSTORE SWAP3 AND SWAP2 PUSH4 0x18FD7858 SWAP2 SWAP1 PUSH1 0x44 ADD PUSH1 0x0 PUSH1 0x40 MLOAD DUP1 DUP4 SUB DUP2 DUP6 DUP9 DUP1 EXTCODESIZE ISZERO DUP1 ISZERO PUSH2 0x150B JUMPI PUSH1 0x0 DUP1 REVERT JUMPDEST POP GAS CALL ISZERO DUP1 ISZERO PUSH2 0x151F JUMPI RETURNDATASIZE PUSH1 0x0 DUP1 RETURNDATACOPY RETURNDATASIZE PUSH1 0x0 REVERT JUMPDEST POP POP PUSH1 0x1 SLOAD PUSH1 0x6 SLOAD PUSH1 0x40 DUP1 MLOAD SWAP2 DUP3 MSTORE CALLVALUE PUSH1 0x20 DUP4 ADD MSTORE PUSH1 0x1 PUSH1 0x1 PUSH1 0xA0 SHL SUB SWAP1 SWAP3 AND SWAP5 POP PUSH32 0xAAC5CBF3F9E799B277C2EDD8EBA370B5AF3B31550F27CEA98DF0B1B07C039C8 SWAP4 POP ADD SWAP1 POP PUSH1 0x40 MLOAD DUP1 SWAP2 SUB SWAP1 LOG2 PUSH1 0xA DUP1 SLOAD PUSH1 0xFF NOT AND PUSH1 0x1 OR SWAP1 SSTORE PUSH2 0x11BC PUSH1 0x1 PUSH1 0x0 SSTORE JUMP JUMPDEST DUP1 CALLDATALOAD PUSH1 0x1 PUSH1 0x1 PUSH1 0xA0 SHL SUB DUP2 AND DUP2 EQ PUSH2 0x9C6 JUMPI PUSH1 0x0 DUP1 REVERT JUMPDEST PUSH1 0x0 PUSH1 0x20 DUP3 DUP5 SUB SLT ISZERO PUSH2 0x15AF JUMPI PUSH1 0x0 DUP1 REVERT JUMPDEST PUSH2 0x12AB DUP3 PUSH2 0x1586 JUMP JUMPDEST PUSH1 0x0 PUSH1 0x20 DUP3 DUP5 SUB SLT ISZERO PUSH2 0x15CA JUMPI PUSH1 0x0 DUP1 REVERT JUMPDEST POP CALLDATALOAD SWAP2 SWAP1 POP JUMP JUMPDEST DUP1 ISZERO ISZERO DUP2 EQ PUSH2 0x15DF JUMPI PUSH1 0x0 DUP1 REVERT JUMPDEST POP JUMP JUMPDEST PUSH1 0x0 DUP1 PUSH1 0x0 DUP1 PUSH1 0x0 DUP1 PUSH1 0xC0 DUP8 DUP10 SUB SLT ISZERO PUSH2 0x15FB JUMPI PUSH1 0x0 DUP1 REVERT JUMPDEST PUSH2 0x1604 DUP8 PUSH2 0x1586 JUMP JUMPDEST SWAP6 POP PUSH1 0x20 DUP8 ADD CALLDATALOAD SWAP5 POP PUSH1 0x40 DUP8 ADD CALLDATALOAD SWAP4 POP PUSH1 0x60 DUP8 ADD CALLDATALOAD SWAP3 POP PUSH2 0x1627 PUSH1 0x80 DUP9 ADD PUSH2 0x1586 JUMP JUMPDEST SWAP2 POP PUSH1 0xA0 DUP8 ADD CALLDATALOAD PUSH2 0x1637 DUP2 PUSH2 0x15D1 JUMP JUMPDEST DUP1 SWAP2 POP POP SWAP3 SWAP6 POP SWAP3 SWAP6 POP SWAP3 SWAP6 JUMP JUMPDEST PUSH1 0x0 DUP1 PUSH1 0x40 DUP4 DUP6 SUB SLT ISZERO PUSH2 0x1658 JUMPI PUSH1 0x0 DUP1 REVERT JUMPDEST POP POP DUP1 CALLDATALOAD SWAP3 PUSH1 0x20 SWAP1 SWAP2 ADD CALLDATALOAD SWAP2 POP JUMP JUMPDEST PUSH1 0x0 PUSH1 0x20 DUP3 DUP5 SUB SLT ISZERO PUSH2 0x1679 JUMPI PUSH1 0x0 DUP1 REVERT JUMPDEST DUP2 CALLDATALOAD PUSH2 0x12AB DUP2 PUSH2 0x15D1 JUMP JUMPDEST PUSH1 0x20 DUP1 DUP3 MSTORE PUSH1 0x1E SWAP1 DUP3 ADD MSTORE PUSH32 0x43616C6C6572206973206E6F742074686520546F6B656E466163746F72790000 PUSH1 0x40 DUP3 ADD MSTORE PUSH1 0x60 ADD SWAP1 JUMP JUMPDEST PUSH4 0x4E487B71 PUSH1 0xE0 SHL PUSH1 0x0 MSTORE PUSH1 0x11 PUSH1 0x4 MSTORE PUSH1 0x24 PUSH1 0x0 REVERT JUMPDEST DUP1 DUP3 ADD DUP1 DUP3 GT ISZERO PUSH2 0xCA2 JUMPI PUSH2 0xCA2 PUSH2 0x16BB JUMP JUMPDEST DUP1 DUP3 MUL DUP2 ISZERO DUP3 DUP3 DIV DUP5 EQ OR PUSH2 0xCA2 JUMPI PUSH2 0xCA2 PUSH2 0x16BB JUMP JUMPDEST PUSH1 0x0 DUP3 PUSH2 0x1718 JUMPI PUSH4 0x4E487B71 PUSH1 0xE0 SHL PUSH1 0x0 MSTORE PUSH1 0x12 PUSH1 0x4 MSTORE PUSH1 0x24 PUSH1 0x0 REVERT JUMPDEST POP DIV SWAP1 JUMP JUMPDEST DUP2 DUP2 SUB DUP2 DUP2 GT ISZERO PUSH2 0xCA2 JUMPI PUSH2 0xCA2 PUSH2 0x16BB JUMP JUMPDEST PUSH1 0x0 PUSH1 0x20 DUP3 DUP5 SUB SLT ISZERO PUSH2 0x1742 JUMPI PUSH1 0x0 DUP1 REVERT JUMPDEST DUP2 MLOAD PUSH2 0x12AB DUP2 PUSH2 0x15D1 JUMP INVALID LOG2 PUSH5 0x6970667358 0x22 SLT KECCAK256 0xAC CALLER 0x4F PUSH7 0xBEAA4915910925 PUSH25 0x88C5AC1E6D0158AC898174D9889A92C760B9401164736F6C63 NUMBER STOP ADDMOD BYTE STOP CALLER "
				},
				"gasEstimates": {
					"creation": {
						"codeDepositCost": "1203800",
						"executionCost": "infinite",
						"totalCost": "infinite"
					},
					"external": {
						"X_DELTA_LOWER()": "296",
						"X_DELTA_UPPER()": "208",
						"Y_DELTA_LOWER()": "252",
						"Y_DELTA_UPPER()": "230",
						"algebraPoolInitializer()": "2403",
						"autoMigrationEnabled()": "2366",
						"buyTax()": "2395",
						"buyToken()": "infinite",
						"calculateSqrtPriceX96(uint256,uint256)": "infinite",
						"devAddress()": "2382",
						"forceMigration()": "infinite",
						"getReserves()": "4475",
						"initialize(address,uint256,uint256,uint256,address,bool)": "infinite",
						"migratedToAlgebra()": "2400",
						"migrationThreshold()": "2351",
						"migrator()": "2427",
						"reserve0()": "2373",
						"reserve1()": "2330",
						"sellTax()": "2372",
						"sellToken(uint256)": "infinite",
						"setAlgebraPoolInitializer(address)": "27931",
						"toggleAutoMigration(bool)": "27795",
						"token0()": "2427",
						"tokenFactory()": "2447",
						"updateBuyTax(uint256)": "27991",
						"updateMigrationThreshold(uint256)": "25653",
						"updateSellTax(uint256)": "28044"
					},
					"internal": {
						"migrate()": "infinite",
						"sqrt(uint256)": "infinite"
					}
				},
				"methodIdentifiers": {
					"X_DELTA_LOWER()": "0f0e7c8a",
					"X_DELTA_UPPER()": "04c80c82",
					"Y_DELTA_LOWER()": "60c72883",
					"Y_DELTA_UPPER()": "2182ad88",
					"algebraPoolInitializer()": "c98b7fd2",
					"autoMigrationEnabled()": "8d5f17aa",
					"buyTax()": "4f7041a5",
					"buyToken()": "a4821719",
					"calculateSqrtPriceX96(uint256,uint256)": "a000bf4f",
					"devAddress()": "3ad10ef6",
					"forceMigration()": "afd6b3c1",
					"getReserves()": "0902f1ac",
					"initialize(address,uint256,uint256,uint256,address,bool)": "9ed7ef4e",
					"migratedToAlgebra()": "299ce7b2",
					"migrationThreshold()": "90bc1e85",
					"migrator()": "7cd07e47",
					"reserve0()": "443cb4bc",
					"reserve1()": "5a76f25e",
					"sellTax()": "cc1776d3",
					"sellToken(uint256)": "2397e4d7",
					"setAlgebraPoolInitializer(address)": "04ccde37",
					"toggleAutoMigration(bool)": "c98a0aa8",
					"token0()": "0dfe1681",
					"tokenFactory()": "e77772fe",
					"updateBuyTax(uint256)": "436d3340",
					"updateMigrationThreshold(uint256)": "96343fd5",
					"updateSellTax(uint256)": "12185a39"
				}
			},
			"storageLayout": {
				"storage": [
					{
						"astId": 88,
						"contract": "contracts/token factory/LiquidityPool.sol:LiquidityPool",
						"label": "_status",
						"offset": 0,
						"slot": "0",
						"type": "t_uint256"
					},
					{
						"astId": 197,
						"contract": "contracts/token factory/LiquidityPool.sol:LiquidityPool",
						"label": "token0",
						"offset": 0,
						"slot": "1",
						"type": "t_address"
					},
					{
						"astId": 199,
						"contract": "contracts/token factory/LiquidityPool.sol:LiquidityPool",
						"label": "tokenFactory",
						"offset": 0,
						"slot": "2",
						"type": "t_address"
					},
					{
						"astId": 201,
						"contract": "contracts/token factory/LiquidityPool.sol:LiquidityPool",
						"label": "devAddress",
						"offset": 0,
						"slot": "3",
						"type": "t_address"
					},
					{
						"astId": 203,
						"contract": "contracts/token factory/LiquidityPool.sol:LiquidityPool",
						"label": "algebraPoolInitializer",
						"offset": 0,
						"slot": "4",
						"type": "t_address"
					},
					{
						"astId": 205,
						"contract": "contracts/token factory/LiquidityPool.sol:LiquidityPool",
						"label": "migrator",
						"offset": 0,
						"slot": "5",
						"type": "t_address"
					},
					{
						"astId": 207,
						"contract": "contracts/token factory/LiquidityPool.sol:LiquidityPool",
						"label": "reserve0",
						"offset": 0,
						"slot": "6",
						"type": "t_uint256"
					},
					{
						"astId": 209,
						"contract": "contracts/token factory/LiquidityPool.sol:LiquidityPool",
						"label": "reserve1",
						"offset": 0,
						"slot": "7",
						"type": "t_uint256"
					},
					{
						"astId": 211,
						"contract": "contracts/token factory/LiquidityPool.sol:LiquidityPool",
						"label": "buyTax",
						"offset": 0,
						"slot": "8",
						"type": "t_uint256"
					},
					{
						"astId": 213,
						"contract": "contracts/token factory/LiquidityPool.sol:LiquidityPool",
						"label": "sellTax",
						"offset": 0,
						"slot": "9",
						"type": "t_uint256"
					},
					{
						"astId": 215,
						"contract": "contracts/token factory/LiquidityPool.sol:LiquidityPool",
						"label": "migratedToAlgebra",
						"offset": 0,
						"slot": "10",
						"type": "t_bool"
					},
					{
						"astId": 218,
						"contract": "contracts/token factory/LiquidityPool.sol:LiquidityPool",
						"label": "autoMigrationEnabled",
						"offset": 1,
						"slot": "10",
						"type": "t_bool"
					},
					{
						"astId": 220,
						"contract": "contracts/token factory/LiquidityPool.sol:LiquidityPool",
						"label": "migrationThreshold",
						"offset": 0,
						"slot": "11",
						"type": "t_uint256"
					}
				],
				"types": {
					"t_address": {
						"encoding": "inplace",
						"label": "address",
						"numberOfBytes": "20"
					},
					"t_bool": {
						"encoding": "inplace",
						"label": "bool",
						"numberOfBytes": "1"
					},
					"t_uint256": {
						"encoding": "inplace",
						"label": "uint256",
						"numberOfBytes": "32"
					}
				}
			},
			"userdoc": {
				"kind": "user",
				"methods": {},
				"version": 1
			}
		}
	}
}