{
	"contracts/token factory/LiquidityPool.sol": {
		"LiquidityPool": {
			"abi": [
				{
					"inputs": [
						{
							"internalType": "address",
							"name": "_devAddress",
							"type": "address"
						},
						{
							"internalType": "address",
							"name": "_tokenFactory",
							"type": "address"
						},
						{
							"internalType": "uint256",
							"name": "_initialMigrationThreshold",
							"type": "uint256"
						}
					],
					"stateMutability": "nonpayable",
					"type": "constructor"
				},
				{
					"inputs": [],
					"name": "ReentrancyGuardReentrantCall",
					"type": "error"
				},
				{
					"anonymous": false,
					"inputs": [
						{
							"indexed": true,
							"internalType": "address",
							"name": "newInitializer",
							"type": "address"
						}
					],
					"name": "AlgebraPoolInitializerUpdated",
					"type": "event"
				},
				{
					"anonymous": false,
					"inputs": [
						{
							"indexed": false,
							"internalType": "bool",
							"name": "enabled",
							"type": "bool"
						}
					],
					"name": "AutoMigrationToggled",
					"type": "event"
				},
				{
					"anonymous": false,
					"inputs": [
						{
							"indexed": true,
							"internalType": "address",
							"name": "provider",
							"type": "address"
						},
						{
							"indexed": false,
							"internalType": "uint256",
							"name": "tokenAmount",
							"type": "uint256"
						},
						{
							"indexed": false,
							"internalType": "uint256",
							"name": "nativeAmount",
							"type": "uint256"
						}
					],
					"name": "LiquidityAdded",
					"type": "event"
				},
				{
					"anonymous": false,
					"inputs": [
						{
							"indexed": false,
							"internalType": "uint256",
							"name": "newThreshold",
							"type": "uint256"
						}
					],
					"name": "MigrationThresholdUpdated",
					"type": "event"
				},
				{
					"anonymous": false,
					"inputs": [
						{
							"indexed": true,
							"internalType": "address",
							"name": "newPoolAddress",
							"type": "address"
						},
						{
							"indexed": false,
							"internalType": "uint256",
							"name": "tokenTransferred",
							"type": "uint256"
						},
						{
							"indexed": false,
							"internalType": "uint256",
							"name": "etherTransferred",
							"type": "uint256"
						}
					],
					"name": "MigrationToAlgebra",
					"type": "event"
				},
				{
					"anonymous": false,
					"inputs": [
						{
							"indexed": true,
							"internalType": "address",
							"name": "fromToken",
							"type": "address"
						},
						{
							"indexed": true,
							"internalType": "address",
							"name": "toToken",
							"type": "address"
						},
						{
							"indexed": false,
							"internalType": "uint256",
							"name": "amountIn",
							"type": "uint256"
						},
						{
							"indexed": false,
							"internalType": "uint256",
							"name": "amountOut",
							"type": "uint256"
						}
					],
					"name": "Swap",
					"type": "event"
				},
				{
					"anonymous": false,
					"inputs": [
						{
							"indexed": false,
							"internalType": "uint256",
							"name": "newBuyTax",
							"type": "uint256"
						},
						{
							"indexed": false,
							"internalType": "uint256",
							"name": "newSellTax",
							"type": "uint256"
						}
					],
					"name": "TaxUpdated",
					"type": "event"
				},
				{
					"inputs": [],
					"name": "algebraPoolInitializer",
					"outputs": [
						{
							"internalType": "address",
							"name": "",
							"type": "address"
						}
					],
					"stateMutability": "view",
					"type": "function"
				},
				{
					"inputs": [],
					"name": "autoMigrationEnabled",
					"outputs": [
						{
							"internalType": "bool",
							"name": "",
							"type": "bool"
						}
					],
					"stateMutability": "view",
					"type": "function"
				},
				{
					"inputs": [],
					"name": "buyTax",
					"outputs": [
						{
							"internalType": "uint256",
							"name": "",
							"type": "uint256"
						}
					],
					"stateMutability": "view",
					"type": "function"
				},
				{
					"inputs": [],
					"name": "buyToken",
					"outputs": [
						{
							"internalType": "uint256",
							"name": "amountOut",
							"type": "uint256"
						}
					],
					"stateMutability": "payable",
					"type": "function"
				},
				{
					"inputs": [],
					"name": "devAddress",
					"outputs": [
						{
							"internalType": "address",
							"name": "",
							"type": "address"
						}
					],
					"stateMutability": "view",
					"type": "function"
				},
				{
					"inputs": [],
					"name": "getReserves",
					"outputs": [
						{
							"internalType": "uint256",
							"name": "",
							"type": "uint256"
						},
						{
							"internalType": "uint256",
							"name": "",
							"type": "uint256"
						}
					],
					"stateMutability": "view",
					"type": "function"
				},
				{
					"inputs": [
						{
							"internalType": "address",
							"name": "_token0",
							"type": "address"
						},
						{
							"internalType": "uint256",
							"name": "_initialTokenReserve",
							"type": "uint256"
						},
						{
							"internalType": "uint256",
							"name": "_buyTax",
							"type": "uint256"
						},
						{
							"internalType": "uint256",
							"name": "_sellTax",
							"type": "uint256"
						}
					],
					"name": "initialize",
					"outputs": [],
					"stateMutability": "payable",
					"type": "function"
				},
				{
					"inputs": [],
					"name": "migratedToAlgebra",
					"outputs": [
						{
							"internalType": "bool",
							"name": "",
							"type": "bool"
						}
					],
					"stateMutability": "view",
					"type": "function"
				},
				{
					"inputs": [],
					"name": "migrationThreshold",
					"outputs": [
						{
							"internalType": "uint256",
							"name": "",
							"type": "uint256"
						}
					],
					"stateMutability": "view",
					"type": "function"
				},
				{
					"inputs": [],
					"name": "reserve0",
					"outputs": [
						{
							"internalType": "uint256",
							"name": "",
							"type": "uint256"
						}
					],
					"stateMutability": "view",
					"type": "function"
				},
				{
					"inputs": [],
					"name": "reserve1",
					"outputs": [
						{
							"internalType": "uint256",
							"name": "",
							"type": "uint256"
						}
					],
					"stateMutability": "view",
					"type": "function"
				},
				{
					"inputs": [],
					"name": "sellTax",
					"outputs": [
						{
							"internalType": "uint256",
							"name": "",
							"type": "uint256"
						}
					],
					"stateMutability": "view",
					"type": "function"
				},
				{
					"inputs": [
						{
							"internalType": "uint256",
							"name": "amountIn",
							"type": "uint256"
						}
					],
					"name": "sellToken",
					"outputs": [
						{
							"internalType": "uint256",
							"name": "amountOut",
							"type": "uint256"
						}
					],
					"stateMutability": "nonpayable",
					"type": "function"
				},
				{
					"inputs": [
						{
							"internalType": "address",
							"name": "_initializer",
							"type": "address"
						}
					],
					"name": "setAlgebraPoolInitializer",
					"outputs": [],
					"stateMutability": "nonpayable",
					"type": "function"
				},
				{
					"inputs": [
						{
							"internalType": "bool",
							"name": "enable",
							"type": "bool"
						}
					],
					"name": "toggleAutoMigration",
					"outputs": [],
					"stateMutability": "nonpayable",
					"type": "function"
				},
				{
					"inputs": [],
					"name": "token0",
					"outputs": [
						{
							"internalType": "address",
							"name": "",
							"type": "address"
						}
					],
					"stateMutability": "view",
					"type": "function"
				},
				{
					"inputs": [],
					"name": "tokenFactory",
					"outputs": [
						{
							"internalType": "address",
							"name": "",
							"type": "address"
						}
					],
					"stateMutability": "view",
					"type": "function"
				},
				{
					"inputs": [
						{
							"internalType": "uint256",
							"name": "newBuyTax",
							"type": "uint256"
						}
					],
					"name": "updateBuyTax",
					"outputs": [],
					"stateMutability": "nonpayable",
					"type": "function"
				},
				{
					"inputs": [
						{
							"internalType": "uint256",
							"name": "newThreshold",
							"type": "uint256"
						}
					],
					"name": "updateMigrationThreshold",
					"outputs": [],
					"stateMutability": "nonpayable",
					"type": "function"
				},
				{
					"inputs": [
						{
							"internalType": "uint256",
							"name": "newSellTax",
							"type": "uint256"
						}
					],
					"name": "updateSellTax",
					"outputs": [],
					"stateMutability": "nonpayable",
					"type": "function"
				}
			],
			"devdoc": {
				"errors": {
					"ReentrancyGuardReentrantCall()": [
						{
							"details": "Unauthorized reentrant call."
						}
					]
				},
				"kind": "dev",
				"methods": {},
				"version": 1
			},
			"evm": {
				"assembly": "    /* \"contracts/token factory/LiquidityPool.sol\":176:6566  contract LiquidityPool is ReentrancyGuard {... */\n  mstore(0x40, 0x80)\n    /* \"contracts/token factory/LiquidityPool.sol\":1602:2056  constructor(address _devAddress, address _tokenFactory, uint256 _initialMigrationThreshold) {... */\n  callvalue\n  dup1\n  iszero\n  tag_1\n  jumpi\n  0x00\n  dup1\n  revert\ntag_1:\n  pop\n  mload(0x40)\n  sub(codesize, bytecodeSize)\n  dup1\n  bytecodeSize\n  dup4\n  codecopy\n  dup2\n  dup2\n  add\n  0x40\n  mstore\n  dup2\n  add\n  swap1\n  tag_2\n  swap2\n  swap1\n  tag_3\n  jump\t// in\ntag_2:\n    /* \"@openzeppelin/contracts/utils/ReentrancyGuard.sol\":1857:1858  1 */\n  0x01\n    /* \"@openzeppelin/contracts/utils/ReentrancyGuard.sol\":2061:2068  _status */\n  0x00\n    /* \"@openzeppelin/contracts/utils/ReentrancyGuard.sol\":2061:2082  _status = NOT_ENTERED */\n  dup2\n  swap1\n  sstore\n  pop\n    /* \"contracts/token factory/LiquidityPool.sol\":1735:1736  0 */\n  0x00\n    /* \"contracts/token factory/LiquidityPool.sol\":1712:1737  _devAddress != address(0) */\n  0xffffffffffffffffffffffffffffffffffffffff\n  and\n    /* \"contracts/token factory/LiquidityPool.sol\":1712:1723  _devAddress */\n  dup4\n    /* \"contracts/token factory/LiquidityPool.sol\":1712:1737  _devAddress != address(0) */\n  0xffffffffffffffffffffffffffffffffffffffff\n  and\n  sub\n    /* \"contracts/token factory/LiquidityPool.sol\":1704:1774  require(_devAddress != address(0), \"Developer address cannot be zero\") */\n  tag_8\n  jumpi\n  mload(0x40)\n  0x08c379a000000000000000000000000000000000000000000000000000000000\n  dup2\n  mstore\n  0x04\n  add\n  tag_9\n  swap1\n  tag_10\n  jump\t// in\ntag_9:\n  mload(0x40)\n  dup1\n  swap2\n  sub\n  swap1\n  revert\ntag_8:\n    /* \"contracts/token factory/LiquidityPool.sol\":1817:1818  0 */\n  0x00\n    /* \"contracts/token factory/LiquidityPool.sol\":1792:1819  _tokenFactory != address(0) */\n  0xffffffffffffffffffffffffffffffffffffffff\n  and\n    /* \"contracts/token factory/LiquidityPool.sol\":1792:1805  _tokenFactory */\n  dup3\n    /* \"contracts/token factory/LiquidityPool.sol\":1792:1819  _tokenFactory != address(0) */\n  0xffffffffffffffffffffffffffffffffffffffff\n  and\n  sub\n    /* \"contracts/token factory/LiquidityPool.sol\":1784:1859  require(_tokenFactory != address(0), \"TokenFactory address cannot be zero\") */\n  tag_11\n  jumpi\n  mload(0x40)\n  0x08c379a000000000000000000000000000000000000000000000000000000000\n  dup2\n  mstore\n  0x04\n  add\n  tag_12\n  swap1\n  tag_13\n  jump\t// in\ntag_12:\n  mload(0x40)\n  dup1\n  swap2\n  sub\n  swap1\n  revert\ntag_11:\n    /* \"contracts/token factory/LiquidityPool.sol\":1882:1893  _devAddress */\n  dup3\n    /* \"contracts/token factory/LiquidityPool.sol\":1869:1879  devAddress */\n  0x03\n  0x00\n    /* \"contracts/token factory/LiquidityPool.sol\":1869:1893  devAddress = _devAddress */\n  0x0100\n  exp\n  dup2\n  sload\n  dup2\n  0xffffffffffffffffffffffffffffffffffffffff\n  mul\n  not\n  and\n  swap1\n  dup4\n  0xffffffffffffffffffffffffffffffffffffffff\n  and\n  mul\n  or\n  swap1\n  sstore\n  pop\n    /* \"contracts/token factory/LiquidityPool.sol\":1918:1931  _tokenFactory */\n  dup2\n    /* \"contracts/token factory/LiquidityPool.sol\":1903:1915  tokenFactory */\n  0x02\n  0x00\n    /* \"contracts/token factory/LiquidityPool.sol\":1903:1931  tokenFactory = _tokenFactory */\n  0x0100\n  exp\n  dup2\n  sload\n  dup2\n  0xffffffffffffffffffffffffffffffffffffffff\n  mul\n  not\n  and\n  swap1\n  dup4\n  0xffffffffffffffffffffffffffffffffffffffff\n  and\n  mul\n  or\n  swap1\n  sstore\n  pop\n    /* \"contracts/token factory/LiquidityPool.sol\":1962:1988  _initialMigrationThreshold */\n  dup1\n    /* \"contracts/token factory/LiquidityPool.sol\":1941:1959  migrationThreshold */\n  0x0a\n    /* \"contracts/token factory/LiquidityPool.sol\":1941:1988  migrationThreshold = _initialMigrationThreshold */\n  dup2\n  swap1\n  sstore\n  pop\n    /* \"contracts/token factory/LiquidityPool.sol\":2021:2026  false */\n  0x00\n    /* \"contracts/token factory/LiquidityPool.sol\":1998:2018  autoMigrationEnabled */\n  0x09\n  0x01\n    /* \"contracts/token factory/LiquidityPool.sol\":1998:2026  autoMigrationEnabled = false */\n  0x0100\n  exp\n  dup2\n  sload\n  dup2\n  0xff\n  mul\n  not\n  and\n  swap1\n  dup4\n  iszero\n  iszero\n  mul\n  or\n  swap1\n  sstore\n  pop\n    /* \"contracts/token factory/LiquidityPool.sol\":1602:2056  constructor(address _devAddress, address _tokenFactory, uint256 _initialMigrationThreshold) {... */\n  pop\n  pop\n  pop\n    /* \"contracts/token factory/LiquidityPool.sol\":176:6566  contract LiquidityPool is ReentrancyGuard {... */\n  jump(tag_14)\n    /* \"#utility.yul\":88:205   */\ntag_16:\n    /* \"#utility.yul\":197:198   */\n  0x00\n    /* \"#utility.yul\":194:195   */\n  dup1\n    /* \"#utility.yul\":187:199   */\n  revert\n    /* \"#utility.yul\":334:460   */\ntag_18:\n    /* \"#utility.yul\":371:378   */\n  0x00\n    /* \"#utility.yul\":411:453   */\n  0xffffffffffffffffffffffffffffffffffffffff\n    /* \"#utility.yul\":404:409   */\n  dup3\n    /* \"#utility.yul\":400:454   */\n  and\n    /* \"#utility.yul\":389:454   */\n  swap1\n  pop\n    /* \"#utility.yul\":334:460   */\n  swap2\n  swap1\n  pop\n  jump\t// out\n    /* \"#utility.yul\":466:562   */\ntag_19:\n    /* \"#utility.yul\":503:510   */\n  0x00\n    /* \"#utility.yul\":532:556   */\n  tag_36\n    /* \"#utility.yul\":550:555   */\n  dup3\n    /* \"#utility.yul\":532:556   */\n  tag_18\n  jump\t// in\ntag_36:\n    /* \"#utility.yul\":521:556   */\n  swap1\n  pop\n    /* \"#utility.yul\":466:562   */\n  swap2\n  swap1\n  pop\n  jump\t// out\n    /* \"#utility.yul\":568:690   */\ntag_20:\n    /* \"#utility.yul\":641:665   */\n  tag_38\n    /* \"#utility.yul\":659:664   */\n  dup2\n    /* \"#utility.yul\":641:665   */\n  tag_19\n  jump\t// in\ntag_38:\n    /* \"#utility.yul\":634:639   */\n  dup2\n    /* \"#utility.yul\":631:666   */\n  eq\n    /* \"#utility.yul\":621:684   */\n  tag_39\n  jumpi\n    /* \"#utility.yul\":680:681   */\n  0x00\n    /* \"#utility.yul\":677:678   */\n  dup1\n    /* \"#utility.yul\":670:682   */\n  revert\n    /* \"#utility.yul\":621:684   */\ntag_39:\n    /* \"#utility.yul\":568:690   */\n  pop\n  jump\t// out\n    /* \"#utility.yul\":696:839   */\ntag_21:\n    /* \"#utility.yul\":753:758   */\n  0x00\n    /* \"#utility.yul\":784:790   */\n  dup2\n    /* \"#utility.yul\":778:791   */\n  mload\n    /* \"#utility.yul\":769:791   */\n  swap1\n  pop\n    /* \"#utility.yul\":800:833   */\n  tag_41\n    /* \"#utility.yul\":827:832   */\n  dup2\n    /* \"#utility.yul\":800:833   */\n  tag_20\n  jump\t// in\ntag_41:\n    /* \"#utility.yul\":696:839   */\n  swap3\n  swap2\n  pop\n  pop\n  jump\t// out\n    /* \"#utility.yul\":845:922   */\ntag_22:\n    /* \"#utility.yul\":882:889   */\n  0x00\n    /* \"#utility.yul\":911:916   */\n  dup2\n    /* \"#utility.yul\":900:916   */\n  swap1\n  pop\n    /* \"#utility.yul\":845:922   */\n  swap2\n  swap1\n  pop\n  jump\t// out\n    /* \"#utility.yul\":928:1050   */\ntag_23:\n    /* \"#utility.yul\":1001:1025   */\n  tag_44\n    /* \"#utility.yul\":1019:1024   */\n  dup2\n    /* \"#utility.yul\":1001:1025   */\n  tag_22\n  jump\t// in\ntag_44:\n    /* \"#utility.yul\":994:999   */\n  dup2\n    /* \"#utility.yul\":991:1026   */\n  eq\n    /* \"#utility.yul\":981:1044   */\n  tag_45\n  jumpi\n    /* \"#utility.yul\":1040:1041   */\n  0x00\n    /* \"#utility.yul\":1037:1038   */\n  dup1\n    /* \"#utility.yul\":1030:1042   */\n  revert\n    /* \"#utility.yul\":981:1044   */\ntag_45:\n    /* \"#utility.yul\":928:1050   */\n  pop\n  jump\t// out\n    /* \"#utility.yul\":1056:1199   */\ntag_24:\n    /* \"#utility.yul\":1113:1118   */\n  0x00\n    /* \"#utility.yul\":1144:1150   */\n  dup2\n    /* \"#utility.yul\":1138:1151   */\n  mload\n    /* \"#utility.yul\":1129:1151   */\n  swap1\n  pop\n    /* \"#utility.yul\":1160:1193   */\n  tag_47\n    /* \"#utility.yul\":1187:1192   */\n  dup2\n    /* \"#utility.yul\":1160:1193   */\n  tag_23\n  jump\t// in\ntag_47:\n    /* \"#utility.yul\":1056:1199   */\n  swap3\n  swap2\n  pop\n  pop\n  jump\t// out\n    /* \"#utility.yul\":1205:1868   */\ntag_3:\n    /* \"#utility.yul\":1293:1299   */\n  0x00\n    /* \"#utility.yul\":1301:1307   */\n  dup1\n    /* \"#utility.yul\":1309:1315   */\n  0x00\n    /* \"#utility.yul\":1358:1360   */\n  0x60\n    /* \"#utility.yul\":1346:1355   */\n  dup5\n    /* \"#utility.yul\":1337:1344   */\n  dup7\n    /* \"#utility.yul\":1333:1356   */\n  sub\n    /* \"#utility.yul\":1329:1361   */\n  slt\n    /* \"#utility.yul\":1326:1445   */\n  iszero\n  tag_49\n  jumpi\n    /* \"#utility.yul\":1364:1443   */\n  tag_50\n  tag_16\n  jump\t// in\ntag_50:\n    /* \"#utility.yul\":1326:1445   */\ntag_49:\n    /* \"#utility.yul\":1484:1485   */\n  0x00\n    /* \"#utility.yul\":1509:1573   */\n  tag_51\n    /* \"#utility.yul\":1565:1572   */\n  dup7\n    /* \"#utility.yul\":1556:1562   */\n  dup3\n    /* \"#utility.yul\":1545:1554   */\n  dup8\n    /* \"#utility.yul\":1541:1563   */\n  add\n    /* \"#utility.yul\":1509:1573   */\n  tag_21\n  jump\t// in\ntag_51:\n    /* \"#utility.yul\":1499:1573   */\n  swap4\n  pop\n    /* \"#utility.yul\":1455:1583   */\n  pop\n    /* \"#utility.yul\":1622:1624   */\n  0x20\n    /* \"#utility.yul\":1648:1712   */\n  tag_52\n    /* \"#utility.yul\":1704:1711   */\n  dup7\n    /* \"#utility.yul\":1695:1701   */\n  dup3\n    /* \"#utility.yul\":1684:1693   */\n  dup8\n    /* \"#utility.yul\":1680:1702   */\n  add\n    /* \"#utility.yul\":1648:1712   */\n  tag_21\n  jump\t// in\ntag_52:\n    /* \"#utility.yul\":1638:1712   */\n  swap3\n  pop\n    /* \"#utility.yul\":1593:1722   */\n  pop\n    /* \"#utility.yul\":1761:1763   */\n  0x40\n    /* \"#utility.yul\":1787:1851   */\n  tag_53\n    /* \"#utility.yul\":1843:1850   */\n  dup7\n    /* \"#utility.yul\":1834:1840   */\n  dup3\n    /* \"#utility.yul\":1823:1832   */\n  dup8\n    /* \"#utility.yul\":1819:1841   */\n  add\n    /* \"#utility.yul\":1787:1851   */\n  tag_24\n  jump\t// in\ntag_53:\n    /* \"#utility.yul\":1777:1851   */\n  swap2\n  pop\n    /* \"#utility.yul\":1732:1861   */\n  pop\n    /* \"#utility.yul\":1205:1868   */\n  swap3\n  pop\n  swap3\n  pop\n  swap3\n  jump\t// out\n    /* \"#utility.yul\":1874:2043   */\ntag_25:\n    /* \"#utility.yul\":1958:1969   */\n  0x00\n    /* \"#utility.yul\":1992:1998   */\n  dup3\n    /* \"#utility.yul\":1987:1990   */\n  dup3\n    /* \"#utility.yul\":1980:1999   */\n  mstore\n    /* \"#utility.yul\":2032:2036   */\n  0x20\n    /* \"#utility.yul\":2027:2030   */\n  dup3\n    /* \"#utility.yul\":2023:2037   */\n  add\n    /* \"#utility.yul\":2008:2037   */\n  swap1\n  pop\n    /* \"#utility.yul\":1874:2043   */\n  swap3\n  swap2\n  pop\n  pop\n  jump\t// out\n    /* \"#utility.yul\":2049:2231   */\ntag_26:\n    /* \"#utility.yul\":2189:2223   */\n  0x446576656c6f70657220616464726573732063616e6e6f74206265207a65726f\n    /* \"#utility.yul\":2185:2186   */\n  0x00\n    /* \"#utility.yul\":2177:2183   */\n  dup3\n    /* \"#utility.yul\":2173:2187   */\n  add\n    /* \"#utility.yul\":2166:2224   */\n  mstore\n    /* \"#utility.yul\":2049:2231   */\n  pop\n  jump\t// out\n    /* \"#utility.yul\":2237:2603   */\ntag_27:\n    /* \"#utility.yul\":2379:2382   */\n  0x00\n    /* \"#utility.yul\":2400:2467   */\n  tag_57\n    /* \"#utility.yul\":2464:2466   */\n  0x20\n    /* \"#utility.yul\":2459:2462   */\n  dup4\n    /* \"#utility.yul\":2400:2467   */\n  tag_25\n  jump\t// in\ntag_57:\n    /* \"#utility.yul\":2393:2467   */\n  swap2\n  pop\n    /* \"#utility.yul\":2476:2569   */\n  tag_58\n    /* \"#utility.yul\":2565:2568   */\n  dup3\n    /* \"#utility.yul\":2476:2569   */\n  tag_26\n  jump\t// in\ntag_58:\n    /* \"#utility.yul\":2594:2596   */\n  0x20\n    /* \"#utility.yul\":2589:2592   */\n  dup3\n    /* \"#utility.yul\":2585:2597   */\n  add\n    /* \"#utility.yul\":2578:2597   */\n  swap1\n  pop\n    /* \"#utility.yul\":2237:2603   */\n  swap2\n  swap1\n  pop\n  jump\t// out\n    /* \"#utility.yul\":2609:3028   */\ntag_10:\n    /* \"#utility.yul\":2775:2779   */\n  0x00\n    /* \"#utility.yul\":2813:2815   */\n  0x20\n    /* \"#utility.yul\":2802:2811   */\n  dup3\n    /* \"#utility.yul\":2798:2816   */\n  add\n    /* \"#utility.yul\":2790:2816   */\n  swap1\n  pop\n    /* \"#utility.yul\":2862:2871   */\n  dup2\n    /* \"#utility.yul\":2856:2860   */\n  dup2\n    /* \"#utility.yul\":2852:2872   */\n  sub\n    /* \"#utility.yul\":2848:2849   */\n  0x00\n    /* \"#utility.yul\":2837:2846   */\n  dup4\n    /* \"#utility.yul\":2833:2850   */\n  add\n    /* \"#utility.yul\":2826:2873   */\n  mstore\n    /* \"#utility.yul\":2890:3021   */\n  tag_60\n    /* \"#utility.yul\":3016:3020   */\n  dup2\n    /* \"#utility.yul\":2890:3021   */\n  tag_27\n  jump\t// in\ntag_60:\n    /* \"#utility.yul\":2882:3021   */\n  swap1\n  pop\n    /* \"#utility.yul\":2609:3028   */\n  swap2\n  swap1\n  pop\n  jump\t// out\n    /* \"#utility.yul\":3034:3256   */\ntag_28:\n    /* \"#utility.yul\":3174:3208   */\n  0x546f6b656e466163746f727920616464726573732063616e6e6f74206265207a\n    /* \"#utility.yul\":3170:3171   */\n  0x00\n    /* \"#utility.yul\":3162:3168   */\n  dup3\n    /* \"#utility.yul\":3158:3172   */\n  add\n    /* \"#utility.yul\":3151:3209   */\n  mstore\n    /* \"#utility.yul\":3243:3248   */\n  0x65726f0000000000000000000000000000000000000000000000000000000000\n    /* \"#utility.yul\":3238:3240   */\n  0x20\n    /* \"#utility.yul\":3230:3236   */\n  dup3\n    /* \"#utility.yul\":3226:3241   */\n  add\n    /* \"#utility.yul\":3219:3249   */\n  mstore\n    /* \"#utility.yul\":3034:3256   */\n  pop\n  jump\t// out\n    /* \"#utility.yul\":3262:3628   */\ntag_29:\n    /* \"#utility.yul\":3404:3407   */\n  0x00\n    /* \"#utility.yul\":3425:3492   */\n  tag_63\n    /* \"#utility.yul\":3489:3491   */\n  0x23\n    /* \"#utility.yul\":3484:3487   */\n  dup4\n    /* \"#utility.yul\":3425:3492   */\n  tag_25\n  jump\t// in\ntag_63:\n    /* \"#utility.yul\":3418:3492   */\n  swap2\n  pop\n    /* \"#utility.yul\":3501:3594   */\n  tag_64\n    /* \"#utility.yul\":3590:3593   */\n  dup3\n    /* \"#utility.yul\":3501:3594   */\n  tag_28\n  jump\t// in\ntag_64:\n    /* \"#utility.yul\":3619:3621   */\n  0x40\n    /* \"#utility.yul\":3614:3617   */\n  dup3\n    /* \"#utility.yul\":3610:3622   */\n  add\n    /* \"#utility.yul\":3603:3622   */\n  swap1\n  pop\n    /* \"#utility.yul\":3262:3628   */\n  swap2\n  swap1\n  pop\n  jump\t// out\n    /* \"#utility.yul\":3634:4053   */\ntag_13:\n    /* \"#utility.yul\":3800:3804   */\n  0x00\n    /* \"#utility.yul\":3838:3840   */\n  0x20\n    /* \"#utility.yul\":3827:3836   */\n  dup3\n    /* \"#utility.yul\":3823:3841   */\n  add\n    /* \"#utility.yul\":3815:3841   */\n  swap1\n  pop\n    /* \"#utility.yul\":3887:3896   */\n  dup2\n    /* \"#utility.yul\":3881:3885   */\n  dup2\n    /* \"#utility.yul\":3877:3897   */\n  sub\n    /* \"#utility.yul\":3873:3874   */\n  0x00\n    /* \"#utility.yul\":3862:3871   */\n  dup4\n    /* \"#utility.yul\":3858:3875   */\n  add\n    /* \"#utility.yul\":3851:3898   */\n  mstore\n    /* \"#utility.yul\":3915:4046   */\n  tag_66\n    /* \"#utility.yul\":4041:4045   */\n  dup2\n    /* \"#utility.yul\":3915:4046   */\n  tag_29\n  jump\t// in\ntag_66:\n    /* \"#utility.yul\":3907:4046   */\n  swap1\n  pop\n    /* \"#utility.yul\":3634:4053   */\n  swap2\n  swap1\n  pop\n  jump\t// out\n    /* \"contracts/token factory/LiquidityPool.sol\":176:6566  contract LiquidityPool is ReentrancyGuard {... */\ntag_14:\n  dataSize(sub_0)\n  dup1\n  dataOffset(sub_0)\n  0x00\n  codecopy\n  0x00\n  return\nstop\n\nsub_0: assembly {\n        /* \"contracts/token factory/LiquidityPool.sol\":176:6566  contract LiquidityPool is ReentrancyGuard {... */\n      mstore(0x40, 0x80)\n      jumpi(tag_1, lt(calldatasize, 0x04))\n      shr(0xe0, calldataload(0x00))\n      dup1\n      0x4f7041a5\n      gt\n      tag_22\n      jumpi\n      dup1\n      0xa4821719\n      gt\n      tag_23\n      jumpi\n      dup1\n      0xa4821719\n      eq\n      tag_17\n      jumpi\n      dup1\n      0xc98a0aa8\n      eq\n      tag_18\n      jumpi\n      dup1\n      0xc98b7fd2\n      eq\n      tag_19\n      jumpi\n      dup1\n      0xcc1776d3\n      eq\n      tag_20\n      jumpi\n      dup1\n      0xe77772fe\n      eq\n      tag_21\n      jumpi\n      jump(tag_1)\n    tag_23:\n      dup1\n      0x4f7041a5\n      eq\n      tag_12\n      jumpi\n      dup1\n      0x5a76f25e\n      eq\n      tag_13\n      jumpi\n      dup1\n      0x8d5f17aa\n      eq\n      tag_14\n      jumpi\n      dup1\n      0x90bc1e85\n      eq\n      tag_15\n      jumpi\n      dup1\n      0x96343fd5\n      eq\n      tag_16\n      jumpi\n      jump(tag_1)\n    tag_22:\n      dup1\n      0x299ce7b2\n      gt\n      tag_24\n      jumpi\n      dup1\n      0x299ce7b2\n      eq\n      tag_7\n      jumpi\n      dup1\n      0x3ad10ef6\n      eq\n      tag_8\n      jumpi\n      dup1\n      0x436d3340\n      eq\n      tag_9\n      jumpi\n      dup1\n      0x443cb4bc\n      eq\n      tag_10\n      jumpi\n      dup1\n      0x4ec81af1\n      eq\n      tag_11\n      jumpi\n      jump(tag_1)\n    tag_24:\n      dup1\n      0x04ccde37\n      eq\n      tag_2\n      jumpi\n      dup1\n      0x0902f1ac\n      eq\n      tag_3\n      jumpi\n      dup1\n      0x0dfe1681\n      eq\n      tag_4\n      jumpi\n      dup1\n      0x12185a39\n      eq\n      tag_5\n      jumpi\n      dup1\n      0x2397e4d7\n      eq\n      tag_6\n      jumpi\n    tag_1:\n      0x00\n      dup1\n      revert\n        /* \"contracts/token factory/LiquidityPool.sol\":2627:2900  function setAlgebraPoolInitializer(address _initializer) external onlyFactory {... */\n    tag_2:\n      callvalue\n      dup1\n      iszero\n      tag_25\n      jumpi\n      0x00\n      dup1\n      revert\n    tag_25:\n      pop\n      tag_26\n      0x04\n      dup1\n      calldatasize\n      sub\n      dup2\n      add\n      swap1\n      tag_27\n      swap2\n      swap1\n      tag_28\n      jump\t// in\n    tag_27:\n      tag_29\n      jump\t// in\n    tag_26:\n      stop\n        /* \"contracts/token factory/LiquidityPool.sol\":6156:6264  function getReserves() external view returns (uint256, uint256) {... */\n    tag_3:\n      callvalue\n      dup1\n      iszero\n      tag_30\n      jumpi\n      0x00\n      dup1\n      revert\n    tag_30:\n      pop\n      tag_31\n      tag_32\n      jump\t// in\n    tag_31:\n      mload(0x40)\n      tag_33\n      swap3\n      swap2\n      swap1\n      tag_34\n      jump\t// in\n    tag_33:\n      mload(0x40)\n      dup1\n      swap2\n      sub\n      swap1\n      return\n        /* \"contracts/token factory/LiquidityPool.sol\":224:245  address public token0 */\n    tag_4:\n      callvalue\n      dup1\n      iszero\n      tag_35\n      jumpi\n      0x00\n      dup1\n      revert\n    tag_35:\n      pop\n      tag_36\n      tag_37\n      jump\t// in\n    tag_36:\n      mload(0x40)\n      tag_38\n      swap2\n      swap1\n      tag_39\n      jump\t// in\n    tag_38:\n      mload(0x40)\n      dup1\n      swap2\n      sub\n      swap1\n      return\n        /* \"contracts/token factory/LiquidityPool.sol\":6418:6564  function updateSellTax(uint256 newSellTax) external onlyFactory {... */\n    tag_5:\n      callvalue\n      dup1\n      iszero\n      tag_40\n      jumpi\n      0x00\n      dup1\n      revert\n    tag_40:\n      pop\n      tag_41\n      0x04\n      dup1\n      calldatasize\n      sub\n      dup2\n      add\n      swap1\n      tag_42\n      swap2\n      swap1\n      tag_43\n      jump\t// in\n    tag_42:\n      tag_44\n      jump\t// in\n    tag_41:\n      stop\n        /* \"contracts/token factory/LiquidityPool.sol\":5223:6150  function sellToken(uint256 amountIn) external nonReentrant returns (uint256 amountOut) {... */\n    tag_6:\n      callvalue\n      dup1\n      iszero\n      tag_45\n      jumpi\n      0x00\n      dup1\n      revert\n    tag_45:\n      pop\n      tag_46\n      0x04\n      dup1\n      calldatasize\n      sub\n      dup2\n      add\n      swap1\n      tag_47\n      swap2\n      swap1\n      tag_43\n      jump\t// in\n    tag_47:\n      tag_48\n      jump\t// in\n    tag_46:\n      mload(0x40)\n      tag_49\n      swap2\n      swap1\n      tag_50\n      jump\t// in\n    tag_49:\n      mload(0x40)\n      dup1\n      swap2\n      sub\n      swap1\n      return\n        /* \"contracts/token factory/LiquidityPool.sol\":694:723  bool public migratedToAlgebra */\n    tag_7:\n      callvalue\n      dup1\n      iszero\n      tag_51\n      jumpi\n      0x00\n      dup1\n      revert\n    tag_51:\n      pop\n      tag_52\n      tag_53\n      jump\t// in\n    tag_52:\n      mload(0x40)\n      tag_54\n      swap2\n      swap1\n      tag_55\n      jump\t// in\n    tag_54:\n      mload(0x40)\n      dup1\n      swap2\n      sub\n      swap1\n      return\n        /* \"contracts/token factory/LiquidityPool.sol\":331:356  address public devAddress */\n    tag_8:\n      callvalue\n      dup1\n      iszero\n      tag_56\n      jumpi\n      0x00\n      dup1\n      revert\n    tag_56:\n      pop\n      tag_57\n      tag_58\n      jump\t// in\n    tag_57:\n      mload(0x40)\n      tag_59\n      swap2\n      swap1\n      tag_39\n      jump\t// in\n    tag_59:\n      mload(0x40)\n      dup1\n      swap2\n      sub\n      swap1\n      return\n        /* \"contracts/token factory/LiquidityPool.sol\":6270:6412  function updateBuyTax(uint256 newBuyTax) external onlyFactory {... */\n    tag_9:\n      callvalue\n      dup1\n      iszero\n      tag_60\n      jumpi\n      0x00\n      dup1\n      revert\n    tag_60:\n      pop\n      tag_61\n      0x04\n      dup1\n      calldatasize\n      sub\n      dup2\n      add\n      swap1\n      tag_62\n      swap2\n      swap1\n      tag_43\n      jump\t// in\n    tag_62:\n      tag_63\n      jump\t// in\n    tag_61:\n      stop\n        /* \"contracts/token factory/LiquidityPool.sol\":470:493  uint256 public reserve0 */\n    tag_10:\n      callvalue\n      dup1\n      iszero\n      tag_64\n      jumpi\n      0x00\n      dup1\n      revert\n    tag_64:\n      pop\n      tag_65\n      tag_66\n      jump\t// in\n    tag_65:\n      mload(0x40)\n      tag_67\n      swap2\n      swap1\n      tag_50\n      jump\t// in\n    tag_67:\n      mload(0x40)\n      dup1\n      swap2\n      sub\n      swap1\n      return\n        /* \"contracts/token factory/LiquidityPool.sol\":2062:2621  function initialize(... */\n    tag_11:\n      tag_68\n      0x04\n      dup1\n      calldatasize\n      sub\n      dup2\n      add\n      swap1\n      tag_69\n      swap2\n      swap1\n      tag_70\n      jump\t// in\n    tag_69:\n      tag_71\n      jump\t// in\n    tag_68:\n      stop\n        /* \"contracts/token factory/LiquidityPool.sol\":586:607  uint256 public buyTax */\n    tag_12:\n      callvalue\n      dup1\n      iszero\n      tag_72\n      jumpi\n      0x00\n      dup1\n      revert\n    tag_72:\n      pop\n      tag_73\n      tag_74\n      jump\t// in\n    tag_73:\n      mload(0x40)\n      tag_75\n      swap2\n      swap1\n      tag_50\n      jump\t// in\n    tag_75:\n      mload(0x40)\n      dup1\n      swap2\n      sub\n      swap1\n      return\n        /* \"contracts/token factory/LiquidityPool.sol\":516:539  uint256 public reserve1 */\n    tag_13:\n      callvalue\n      dup1\n      iszero\n      tag_76\n      jumpi\n      0x00\n      dup1\n      revert\n    tag_76:\n      pop\n      tag_77\n      tag_78\n      jump\t// in\n    tag_77:\n      mload(0x40)\n      tag_79\n      swap2\n      swap1\n      tag_50\n      jump\t// in\n    tag_79:\n      mload(0x40)\n      dup1\n      swap2\n      sub\n      swap1\n      return\n        /* \"contracts/token factory/LiquidityPool.sol\":773:805  bool public autoMigrationEnabled */\n    tag_14:\n      callvalue\n      dup1\n      iszero\n      tag_80\n      jumpi\n      0x00\n      dup1\n      revert\n    tag_80:\n      pop\n      tag_81\n      tag_82\n      jump\t// in\n    tag_81:\n      mload(0x40)\n      tag_83\n      swap2\n      swap1\n      tag_55\n      jump\t// in\n    tag_83:\n      mload(0x40)\n      dup1\n      swap2\n      sub\n      swap1\n      return\n        /* \"contracts/token factory/LiquidityPool.sol\":848:881  uint256 public migrationThreshold */\n    tag_15:\n      callvalue\n      dup1\n      iszero\n      tag_84\n      jumpi\n      0x00\n      dup1\n      revert\n    tag_84:\n      pop\n      tag_85\n      tag_86\n      jump\t// in\n    tag_85:\n      mload(0x40)\n      tag_87\n      swap2\n      swap1\n      tag_50\n      jump\t// in\n    tag_87:\n      mload(0x40)\n      dup1\n      swap2\n      sub\n      swap1\n      return\n        /* \"contracts/token factory/LiquidityPool.sol\":3064:3319  function updateMigrationThreshold(uint256 newThreshold) external onlyFactory {... */\n    tag_16:\n      callvalue\n      dup1\n      iszero\n      tag_88\n      jumpi\n      0x00\n      dup1\n      revert\n    tag_88:\n      pop\n      tag_89\n      0x04\n      dup1\n      calldatasize\n      sub\n      dup2\n      add\n      swap1\n      tag_90\n      swap2\n      swap1\n      tag_43\n      jump\t// in\n    tag_90:\n      tag_91\n      jump\t// in\n    tag_89:\n      stop\n        /* \"contracts/token factory/LiquidityPool.sol\":4350:5217  function buyToken() external payable nonReentrant returns (uint256 amountOut) {... */\n    tag_17:\n      tag_92\n      tag_93\n      jump\t// in\n    tag_92:\n      mload(0x40)\n      tag_94\n      swap2\n      swap1\n      tag_50\n      jump\t// in\n    tag_94:\n      mload(0x40)\n      dup1\n      swap2\n      sub\n      swap1\n      return\n        /* \"contracts/token factory/LiquidityPool.sol\":2906:3058  function toggleAutoMigration(bool enable) external onlyFactory {... */\n    tag_18:\n      callvalue\n      dup1\n      iszero\n      tag_95\n      jumpi\n      0x00\n      dup1\n      revert\n    tag_95:\n      pop\n      tag_96\n      0x04\n      dup1\n      calldatasize\n      sub\n      dup2\n      add\n      swap1\n      tag_97\n      swap2\n      swap1\n      tag_98\n      jump\t// in\n    tag_97:\n      tag_99\n      jump\t// in\n    tag_96:\n      stop\n        /* \"contracts/token factory/LiquidityPool.sol\":383:420  address public algebraPoolInitializer */\n    tag_19:\n      callvalue\n      dup1\n      iszero\n      tag_100\n      jumpi\n      0x00\n      dup1\n      revert\n    tag_100:\n      pop\n      tag_101\n      tag_102\n      jump\t// in\n    tag_101:\n      mload(0x40)\n      tag_103\n      swap2\n      swap1\n      tag_39\n      jump\t// in\n    tag_103:\n      mload(0x40)\n      dup1\n      swap2\n      sub\n      swap1\n      return\n        /* \"contracts/token factory/LiquidityPool.sol\":639:661  uint256 public sellTax */\n    tag_20:\n      callvalue\n      dup1\n      iszero\n      tag_104\n      jumpi\n      0x00\n      dup1\n      revert\n    tag_104:\n      pop\n      tag_105\n      tag_106\n      jump\t// in\n    tag_105:\n      mload(0x40)\n      tag_107\n      swap2\n      swap1\n      tag_50\n      jump\t// in\n    tag_107:\n      mload(0x40)\n      dup1\n      swap2\n      sub\n      swap1\n      return\n        /* \"contracts/token factory/LiquidityPool.sol\":274:301  address public tokenFactory */\n    tag_21:\n      callvalue\n      dup1\n      iszero\n      tag_108\n      jumpi\n      0x00\n      dup1\n      revert\n    tag_108:\n      pop\n      tag_109\n      tag_110\n      jump\t// in\n    tag_109:\n      mload(0x40)\n      tag_111\n      swap2\n      swap1\n      tag_39\n      jump\t// in\n    tag_111:\n      mload(0x40)\n      dup1\n      swap2\n      sub\n      swap1\n      return\n        /* \"contracts/token factory/LiquidityPool.sol\":2627:2900  function setAlgebraPoolInitializer(address _initializer) external onlyFactory {... */\n    tag_29:\n        /* \"contracts/token factory/LiquidityPool.sol\":1531:1543  tokenFactory */\n      0x02\n      0x00\n      swap1\n      sload\n      swap1\n      0x0100\n      exp\n      swap1\n      div\n      0xffffffffffffffffffffffffffffffffffffffff\n      and\n        /* \"contracts/token factory/LiquidityPool.sol\":1517:1543  msg.sender == tokenFactory */\n      0xffffffffffffffffffffffffffffffffffffffff\n      and\n        /* \"contracts/token factory/LiquidityPool.sol\":1517:1527  msg.sender */\n      caller\n        /* \"contracts/token factory/LiquidityPool.sol\":1517:1543  msg.sender == tokenFactory */\n      0xffffffffffffffffffffffffffffffffffffffff\n      and\n      eq\n        /* \"contracts/token factory/LiquidityPool.sol\":1509:1578  require(msg.sender == tokenFactory, \"Caller is not the TokenFactory\") */\n      tag_113\n      jumpi\n      mload(0x40)\n      0x08c379a000000000000000000000000000000000000000000000000000000000\n      dup2\n      mstore\n      0x04\n      add\n      tag_114\n      swap1\n      tag_115\n      jump\t// in\n    tag_114:\n      mload(0x40)\n      dup1\n      swap2\n      sub\n      swap1\n      revert\n    tag_113:\n        /* \"contracts/token factory/LiquidityPool.sol\":2747:2748  0 */\n      0x00\n        /* \"contracts/token factory/LiquidityPool.sol\":2723:2749  _initializer != address(0) */\n      0xffffffffffffffffffffffffffffffffffffffff\n      and\n        /* \"contracts/token factory/LiquidityPool.sol\":2723:2735  _initializer */\n      dup2\n        /* \"contracts/token factory/LiquidityPool.sol\":2723:2749  _initializer != address(0) */\n      0xffffffffffffffffffffffffffffffffffffffff\n      and\n      sub\n        /* \"contracts/token factory/LiquidityPool.sol\":2715:2788  require(_initializer != address(0), \"Initializer address cannot be zero\") */\n      tag_117\n      jumpi\n      mload(0x40)\n      0x08c379a000000000000000000000000000000000000000000000000000000000\n      dup2\n      mstore\n      0x04\n      add\n      tag_118\n      swap1\n      tag_119\n      jump\t// in\n    tag_118:\n      mload(0x40)\n      dup1\n      swap2\n      sub\n      swap1\n      revert\n    tag_117:\n        /* \"contracts/token factory/LiquidityPool.sol\":2823:2835  _initializer */\n      dup1\n        /* \"contracts/token factory/LiquidityPool.sol\":2798:2820  algebraPoolInitializer */\n      0x04\n      0x00\n        /* \"contracts/token factory/LiquidityPool.sol\":2798:2835  algebraPoolInitializer = _initializer */\n      0x0100\n      exp\n      dup2\n      sload\n      dup2\n      0xffffffffffffffffffffffffffffffffffffffff\n      mul\n      not\n      and\n      swap1\n      dup4\n      0xffffffffffffffffffffffffffffffffffffffff\n      and\n      mul\n      or\n      swap1\n      sstore\n      pop\n        /* \"contracts/token factory/LiquidityPool.sol\":2880:2892  _initializer */\n      dup1\n        /* \"contracts/token factory/LiquidityPool.sol\":2850:2893  AlgebraPoolInitializerUpdated(_initializer) */\n      0xffffffffffffffffffffffffffffffffffffffff\n      and\n      0xe6223ef4a6cc26f11671126040eb90609754df785e229f9fc28e9612ca3380bc\n      mload(0x40)\n      mload(0x40)\n      dup1\n      swap2\n      sub\n      swap1\n      log2\n        /* \"contracts/token factory/LiquidityPool.sol\":2627:2900  function setAlgebraPoolInitializer(address _initializer) external onlyFactory {... */\n      pop\n      jump\t// out\n        /* \"contracts/token factory/LiquidityPool.sol\":6156:6264  function getReserves() external view returns (uint256, uint256) {... */\n    tag_32:\n        /* \"contracts/token factory/LiquidityPool.sol\":6202:6209  uint256 */\n      0x00\n        /* \"contracts/token factory/LiquidityPool.sol\":6211:6218  uint256 */\n      dup1\n        /* \"contracts/token factory/LiquidityPool.sol\":6238:6246  reserve0 */\n      sload(0x05)\n        /* \"contracts/token factory/LiquidityPool.sol\":6248:6256  reserve1 */\n      sload(0x06)\n        /* \"contracts/token factory/LiquidityPool.sol\":6230:6257  return (reserve0, reserve1) */\n      swap2\n      pop\n      swap2\n      pop\n        /* \"contracts/token factory/LiquidityPool.sol\":6156:6264  function getReserves() external view returns (uint256, uint256) {... */\n      swap1\n      swap2\n      jump\t// out\n        /* \"contracts/token factory/LiquidityPool.sol\":224:245  address public token0 */\n    tag_37:\n      0x01\n      0x00\n      swap1\n      sload\n      swap1\n      0x0100\n      exp\n      swap1\n      div\n      0xffffffffffffffffffffffffffffffffffffffff\n      and\n      dup2\n      jump\t// out\n        /* \"contracts/token factory/LiquidityPool.sol\":6418:6564  function updateSellTax(uint256 newSellTax) external onlyFactory {... */\n    tag_44:\n        /* \"contracts/token factory/LiquidityPool.sol\":1531:1543  tokenFactory */\n      0x02\n      0x00\n      swap1\n      sload\n      swap1\n      0x0100\n      exp\n      swap1\n      div\n      0xffffffffffffffffffffffffffffffffffffffff\n      and\n        /* \"contracts/token factory/LiquidityPool.sol\":1517:1543  msg.sender == tokenFactory */\n      0xffffffffffffffffffffffffffffffffffffffff\n      and\n        /* \"contracts/token factory/LiquidityPool.sol\":1517:1527  msg.sender */\n      caller\n        /* \"contracts/token factory/LiquidityPool.sol\":1517:1543  msg.sender == tokenFactory */\n      0xffffffffffffffffffffffffffffffffffffffff\n      and\n      eq\n        /* \"contracts/token factory/LiquidityPool.sol\":1509:1578  require(msg.sender == tokenFactory, \"Caller is not the TokenFactory\") */\n      tag_122\n      jumpi\n      mload(0x40)\n      0x08c379a000000000000000000000000000000000000000000000000000000000\n      dup2\n      mstore\n      0x04\n      add\n      tag_123\n      swap1\n      tag_115\n      jump\t// in\n    tag_123:\n      mload(0x40)\n      dup1\n      swap2\n      sub\n      swap1\n      revert\n    tag_122:\n        /* \"contracts/token factory/LiquidityPool.sol\":6502:6512  newSellTax */\n      dup1\n        /* \"contracts/token factory/LiquidityPool.sol\":6492:6499  sellTax */\n      0x08\n        /* \"contracts/token factory/LiquidityPool.sol\":6492:6512  sellTax = newSellTax */\n      dup2\n      swap1\n      sstore\n      pop\n        /* \"contracts/token factory/LiquidityPool.sol\":6527:6557  TaxUpdated(buyTax, newSellTax) */\n      0xb841faf0d1b32571f4ef966a2f35e3ae51f3cdda45318c3da5570a5b2ad85605\n        /* \"contracts/token factory/LiquidityPool.sol\":6538:6544  buyTax */\n      sload(0x07)\n        /* \"contracts/token factory/LiquidityPool.sol\":6546:6556  newSellTax */\n      dup3\n        /* \"contracts/token factory/LiquidityPool.sol\":6527:6557  TaxUpdated(buyTax, newSellTax) */\n      mload(0x40)\n      tag_125\n      swap3\n      swap2\n      swap1\n      tag_34\n      jump\t// in\n    tag_125:\n      mload(0x40)\n      dup1\n      swap2\n      sub\n      swap1\n      log1\n        /* \"contracts/token factory/LiquidityPool.sol\":6418:6564  function updateSellTax(uint256 newSellTax) external onlyFactory {... */\n      pop\n      jump\t// out\n        /* \"contracts/token factory/LiquidityPool.sol\":5223:6150  function sellToken(uint256 amountIn) external nonReentrant returns (uint256 amountOut) {... */\n    tag_48:\n        /* \"contracts/token factory/LiquidityPool.sol\":5291:5308  uint256 amountOut */\n      0x00\n        /* \"@openzeppelin/contracts/utils/ReentrancyGuard.sol\":2500:2521  _nonReentrantBefore() */\n      tag_127\n        /* \"@openzeppelin/contracts/utils/ReentrancyGuard.sol\":2500:2519  _nonReentrantBefore */\n      tag_128\n        /* \"@openzeppelin/contracts/utils/ReentrancyGuard.sol\":2500:2521  _nonReentrantBefore() */\n      jump\t// in\n    tag_127:\n        /* \"contracts/token factory/LiquidityPool.sol\":5329:5346  migratedToAlgebra */\n      0x09\n      0x00\n      swap1\n      sload\n      swap1\n      0x0100\n      exp\n      swap1\n      div\n      0xff\n      and\n        /* \"contracts/token factory/LiquidityPool.sol\":5328:5346  !migratedToAlgebra */\n      iszero\n        /* \"contracts/token factory/LiquidityPool.sol\":5320:5375  require(!migratedToAlgebra, \"Pool migrated to Algebra\") */\n      tag_130\n      jumpi\n      mload(0x40)\n      0x08c379a000000000000000000000000000000000000000000000000000000000\n      dup2\n      mstore\n      0x04\n      add\n      tag_131\n      swap1\n      tag_132\n      jump\t// in\n    tag_131:\n      mload(0x40)\n      dup1\n      swap2\n      sub\n      swap1\n      revert\n    tag_130:\n        /* \"contracts/token factory/LiquidityPool.sol\":5404:5405  0 */\n      0x00\n        /* \"contracts/token factory/LiquidityPool.sol\":5393:5401  amountIn */\n      dup3\n        /* \"contracts/token factory/LiquidityPool.sol\":5393:5405  amountIn > 0 */\n      gt\n        /* \"contracts/token factory/LiquidityPool.sol\":5385:5431  require(amountIn > 0, \"Must sell some tokens\") */\n      tag_133\n      jumpi\n      mload(0x40)\n      0x08c379a000000000000000000000000000000000000000000000000000000000\n      dup2\n      mstore\n      0x04\n      add\n      tag_134\n      swap1\n      tag_135\n      jump\t// in\n    tag_134:\n      mload(0x40)\n      dup1\n      swap2\n      sub\n      swap1\n      revert\n    tag_133:\n        /* \"contracts/token factory/LiquidityPool.sol\":5442:5453  uint256 tax */\n      0x00\n        /* \"contracts/token factory/LiquidityPool.sol\":5479:5483  1000 */\n      0x03e8\n        /* \"contracts/token factory/LiquidityPool.sol\":5468:5475  sellTax */\n      sload(0x08)\n        /* \"contracts/token factory/LiquidityPool.sol\":5457:5465  amountIn */\n      dup5\n        /* \"contracts/token factory/LiquidityPool.sol\":5457:5475  amountIn * sellTax */\n      tag_136\n      swap2\n      swap1\n      tag_137\n      jump\t// in\n    tag_136:\n        /* \"contracts/token factory/LiquidityPool.sol\":5456:5483  (amountIn * sellTax) / 1000 */\n      tag_138\n      swap2\n      swap1\n      tag_139\n      jump\t// in\n    tag_138:\n        /* \"contracts/token factory/LiquidityPool.sol\":5442:5483  uint256 tax = (amountIn * sellTax) / 1000 */\n      swap1\n      pop\n        /* \"contracts/token factory/LiquidityPool.sol\":5493:5517  uint256 amountInAfterTax */\n      0x00\n        /* \"contracts/token factory/LiquidityPool.sol\":5531:5534  tax */\n      dup2\n        /* \"contracts/token factory/LiquidityPool.sol\":5520:5528  amountIn */\n      dup5\n        /* \"contracts/token factory/LiquidityPool.sol\":5520:5534  amountIn - tax */\n      tag_140\n      swap2\n      swap1\n      tag_141\n      jump\t// in\n    tag_140:\n        /* \"contracts/token factory/LiquidityPool.sol\":5493:5534  uint256 amountInAfterTax = amountIn - tax */\n      swap1\n      pop\n        /* \"contracts/token factory/LiquidityPool.sol\":5552:5558  token0 */\n      0x01\n      0x00\n      swap1\n      sload\n      swap1\n      0x0100\n      exp\n      swap1\n      div\n      0xffffffffffffffffffffffffffffffffffffffff\n      and\n        /* \"contracts/token factory/LiquidityPool.sol\":5545:5572  IERC20(token0).transferFrom */\n      0xffffffffffffffffffffffffffffffffffffffff\n      and\n      0x23b872dd\n        /* \"contracts/token factory/LiquidityPool.sol\":5573:5583  msg.sender */\n      caller\n        /* \"contracts/token factory/LiquidityPool.sol\":5593:5597  this */\n      address\n        /* \"contracts/token factory/LiquidityPool.sol\":5600:5608  amountIn */\n      dup8\n        /* \"contracts/token factory/LiquidityPool.sol\":5545:5609  IERC20(token0).transferFrom(msg.sender, address(this), amountIn) */\n      mload(0x40)\n      dup5\n      0xffffffff\n      and\n      0xe0\n      shl\n      dup2\n      mstore\n      0x04\n      add\n      tag_142\n      swap4\n      swap3\n      swap2\n      swap1\n      tag_143\n      jump\t// in\n    tag_142:\n      0x20\n      mload(0x40)\n      dup1\n      dup4\n      sub\n      dup2\n      0x00\n      dup8\n      gas\n      call\n      iszero\n      dup1\n      iszero\n      tag_145\n      jumpi\n      returndatasize\n      0x00\n      dup1\n      returndatacopy\n      revert(0x00, returndatasize)\n    tag_145:\n      pop\n      pop\n      pop\n      pop\n      mload(0x40)\n      returndatasize\n      not(0x1f)\n      0x1f\n      dup3\n      add\n      and\n      dup3\n      add\n      dup1\n      0x40\n      mstore\n      pop\n      dup2\n      add\n      swap1\n      tag_146\n      swap2\n      swap1\n      tag_147\n      jump\t// in\n    tag_146:\n      pop\n        /* \"contracts/token factory/LiquidityPool.sol\":5626:5632  token0 */\n      0x01\n      0x00\n      swap1\n      sload\n      swap1\n      0x0100\n      exp\n      swap1\n      div\n      0xffffffffffffffffffffffffffffffffffffffff\n      and\n        /* \"contracts/token factory/LiquidityPool.sol\":5619:5642  IERC20(token0).transfer */\n      0xffffffffffffffffffffffffffffffffffffffff\n      and\n      0xa9059cbb\n        /* \"contracts/token factory/LiquidityPool.sol\":5643:5653  devAddress */\n      0x03\n      0x00\n      swap1\n      sload\n      swap1\n      0x0100\n      exp\n      swap1\n      div\n      0xffffffffffffffffffffffffffffffffffffffff\n      and\n        /* \"contracts/token factory/LiquidityPool.sol\":5655:5658  tax */\n      dup5\n        /* \"contracts/token factory/LiquidityPool.sol\":5619:5659  IERC20(token0).transfer(devAddress, tax) */\n      mload(0x40)\n      dup4\n      0xffffffff\n      and\n      0xe0\n      shl\n      dup2\n      mstore\n      0x04\n      add\n      tag_148\n      swap3\n      swap2\n      swap1\n      tag_149\n      jump\t// in\n    tag_148:\n      0x20\n      mload(0x40)\n      dup1\n      dup4\n      sub\n      dup2\n      0x00\n      dup8\n      gas\n      call\n      iszero\n      dup1\n      iszero\n      tag_151\n      jumpi\n      returndatasize\n      0x00\n      dup1\n      returndatacopy\n      revert(0x00, returndatasize)\n    tag_151:\n      pop\n      pop\n      pop\n      pop\n      mload(0x40)\n      returndatasize\n      not(0x1f)\n      0x1f\n      dup3\n      add\n      and\n      dup3\n      add\n      dup1\n      0x40\n      mstore\n      pop\n      dup2\n      add\n      swap1\n      tag_152\n      swap2\n      swap1\n      tag_147\n      jump\t// in\n    tag_152:\n      pop\n        /* \"contracts/token factory/LiquidityPool.sol\":5670:5689  uint256 newReserve0 */\n      0x00\n        /* \"contracts/token factory/LiquidityPool.sol\":5703:5719  amountInAfterTax */\n      dup2\n        /* \"contracts/token factory/LiquidityPool.sol\":5692:5700  reserve0 */\n      sload(0x05)\n        /* \"contracts/token factory/LiquidityPool.sol\":5692:5719  reserve0 + amountInAfterTax */\n      tag_153\n      swap2\n      swap1\n      tag_154\n      jump\t// in\n    tag_153:\n        /* \"contracts/token factory/LiquidityPool.sol\":5670:5719  uint256 newReserve0 = reserve0 + amountInAfterTax */\n      swap1\n      pop\n        /* \"contracts/token factory/LiquidityPool.sol\":5776:5787  newReserve0 */\n      dup1\n        /* \"contracts/token factory/LiquidityPool.sol\":5764:5772  reserve1 */\n      sload(0x06)\n        /* \"contracts/token factory/LiquidityPool.sol\":5753:5761  reserve0 */\n      sload(0x05)\n        /* \"contracts/token factory/LiquidityPool.sol\":5753:5772  reserve0 * reserve1 */\n      tag_155\n      swap2\n      swap1\n      tag_137\n      jump\t// in\n    tag_155:\n        /* \"contracts/token factory/LiquidityPool.sol\":5752:5787  (reserve0 * reserve1) / newReserve0 */\n      tag_156\n      swap2\n      swap1\n      tag_139\n      jump\t// in\n    tag_156:\n        /* \"contracts/token factory/LiquidityPool.sol\":5741:5749  reserve1 */\n      sload(0x06)\n        /* \"contracts/token factory/LiquidityPool.sol\":5741:5787  reserve1 - (reserve0 * reserve1) / newReserve0 */\n      tag_157\n      swap2\n      swap1\n      tag_141\n      jump\t// in\n    tag_157:\n        /* \"contracts/token factory/LiquidityPool.sol\":5729:5787  amountOut = reserve1 - (reserve0 * reserve1) / newReserve0 */\n      swap4\n      pop\n        /* \"contracts/token factory/LiquidityPool.sol\":5809:5820  newReserve0 */\n      dup1\n        /* \"contracts/token factory/LiquidityPool.sol\":5798:5806  reserve0 */\n      0x05\n        /* \"contracts/token factory/LiquidityPool.sol\":5798:5820  reserve0 = newReserve0 */\n      dup2\n      swap1\n      sstore\n      pop\n        /* \"contracts/token factory/LiquidityPool.sol\":5842:5851  amountOut */\n      dup4\n        /* \"contracts/token factory/LiquidityPool.sol\":5830:5838  reserve1 */\n      0x06\n      0x00\n        /* \"contracts/token factory/LiquidityPool.sol\":5830:5851  reserve1 -= amountOut */\n      dup3\n      dup3\n      sload\n      tag_158\n      swap2\n      swap1\n      tag_141\n      jump\t// in\n    tag_158:\n      swap3\n      pop\n      pop\n      dup2\n      swap1\n      sstore\n      pop\n        /* \"contracts/token factory/LiquidityPool.sol\":5863:5875  bool success */\n      0x00\n        /* \"contracts/token factory/LiquidityPool.sol\":5881:5891  msg.sender */\n      caller\n        /* \"contracts/token factory/LiquidityPool.sol\":5881:5896  msg.sender.call */\n      0xffffffffffffffffffffffffffffffffffffffff\n      and\n        /* \"contracts/token factory/LiquidityPool.sol\":5904:5913  amountOut */\n      dup6\n        /* \"contracts/token factory/LiquidityPool.sol\":5881:5918  msg.sender.call{value: amountOut}(\"\") */\n      mload(0x40)\n      tag_159\n      swap1\n      tag_160\n      jump\t// in\n    tag_159:\n      0x00\n      mload(0x40)\n      dup1\n      dup4\n      sub\n      dup2\n      dup6\n      dup8\n      gas\n      call\n      swap3\n      pop\n      pop\n      pop\n      returndatasize\n      dup1\n      0x00\n      dup2\n      eq\n      tag_163\n      jumpi\n      mload(0x40)\n      swap2\n      pop\n      and(add(returndatasize, 0x3f), not(0x1f))\n      dup3\n      add\n      0x40\n      mstore\n      returndatasize\n      dup3\n      mstore\n      returndatasize\n      0x00\n      0x20\n      dup5\n      add\n      returndatacopy\n      jump(tag_162)\n    tag_163:\n      0x60\n      swap2\n      pop\n    tag_162:\n      pop\n        /* \"contracts/token factory/LiquidityPool.sol\":5862:5918  (bool success, ) = msg.sender.call{value: amountOut}(\"\") */\n      pop\n      swap1\n      pop\n        /* \"contracts/token factory/LiquidityPool.sol\":5936:5943  success */\n      dup1\n        /* \"contracts/token factory/LiquidityPool.sol\":5928:5969  require(success, \"Ether transfer failed\") */\n      tag_164\n      jumpi\n      mload(0x40)\n      0x08c379a000000000000000000000000000000000000000000000000000000000\n      dup2\n      mstore\n      0x04\n      add\n      tag_165\n      swap1\n      tag_166\n      jump\t// in\n    tag_165:\n      mload(0x40)\n      dup1\n      swap2\n      sub\n      swap1\n      revert\n    tag_164:\n        /* \"contracts/token factory/LiquidityPool.sol\":6006:6007  0 */\n      0x00\n        /* \"contracts/token factory/LiquidityPool.sol\":5985:6030  Swap(token0, address(0), amountIn, amountOut) */\n      0xffffffffffffffffffffffffffffffffffffffff\n      and\n        /* \"contracts/token factory/LiquidityPool.sol\":5990:5996  token0 */\n      0x01\n      0x00\n      swap1\n      sload\n      swap1\n      0x0100\n      exp\n      swap1\n      div\n      0xffffffffffffffffffffffffffffffffffffffff\n      and\n        /* \"contracts/token factory/LiquidityPool.sol\":5985:6030  Swap(token0, address(0), amountIn, amountOut) */\n      0xffffffffffffffffffffffffffffffffffffffff\n      and\n      0xfa2dda1cc1b86e41239702756b13effbc1a092b5c57e3ad320fbe4f3b13fe235\n        /* \"contracts/token factory/LiquidityPool.sol\":6010:6018  amountIn */\n      dup9\n        /* \"contracts/token factory/LiquidityPool.sol\":6020:6029  amountOut */\n      dup9\n        /* \"contracts/token factory/LiquidityPool.sol\":5985:6030  Swap(token0, address(0), amountIn, amountOut) */\n      mload(0x40)\n      tag_167\n      swap3\n      swap2\n      swap1\n      tag_34\n      jump\t// in\n    tag_167:\n      mload(0x40)\n      dup1\n      swap2\n      sub\n      swap1\n      log3\n        /* \"contracts/token factory/LiquidityPool.sol\":6045:6065  autoMigrationEnabled */\n      0x09\n      0x01\n      swap1\n      sload\n      swap1\n      0x0100\n      exp\n      swap1\n      div\n      0xff\n      and\n        /* \"contracts/token factory/LiquidityPool.sol\":6045:6099  autoMigrationEnabled && reserve1 >= migrationThreshold */\n      dup1\n      iszero\n      tag_168\n      jumpi\n      pop\n        /* \"contracts/token factory/LiquidityPool.sol\":6081:6099  migrationThreshold */\n      sload(0x0a)\n        /* \"contracts/token factory/LiquidityPool.sol\":6069:6077  reserve1 */\n      sload(0x06)\n        /* \"contracts/token factory/LiquidityPool.sol\":6069:6099  reserve1 >= migrationThreshold */\n      lt\n      iszero\n        /* \"contracts/token factory/LiquidityPool.sol\":6045:6099  autoMigrationEnabled && reserve1 >= migrationThreshold */\n    tag_168:\n        /* \"contracts/token factory/LiquidityPool.sol\":6041:6144  if (autoMigrationEnabled && reserve1 >= migrationThreshold) {... */\n      iszero\n      tag_169\n      jumpi\n        /* \"contracts/token factory/LiquidityPool.sol\":6115:6133  migrateToAlgebra() */\n      tag_170\n        /* \"contracts/token factory/LiquidityPool.sol\":6115:6131  migrateToAlgebra */\n      tag_171\n        /* \"contracts/token factory/LiquidityPool.sol\":6115:6133  migrateToAlgebra() */\n      jump\t// in\n    tag_170:\n        /* \"contracts/token factory/LiquidityPool.sol\":6041:6144  if (autoMigrationEnabled && reserve1 >= migrationThreshold) {... */\n    tag_169:\n        /* \"contracts/token factory/LiquidityPool.sol\":5310:6150  {... */\n      pop\n      pop\n      pop\n      pop\n        /* \"@openzeppelin/contracts/utils/ReentrancyGuard.sol\":2542:2562  _nonReentrantAfter() */\n      tag_172\n        /* \"@openzeppelin/contracts/utils/ReentrancyGuard.sol\":2542:2560  _nonReentrantAfter */\n      tag_173\n        /* \"@openzeppelin/contracts/utils/ReentrancyGuard.sol\":2542:2562  _nonReentrantAfter() */\n      jump\t// in\n    tag_172:\n        /* \"contracts/token factory/LiquidityPool.sol\":5223:6150  function sellToken(uint256 amountIn) external nonReentrant returns (uint256 amountOut) {... */\n      swap2\n      swap1\n      pop\n      jump\t// out\n        /* \"contracts/token factory/LiquidityPool.sol\":694:723  bool public migratedToAlgebra */\n    tag_53:\n      0x09\n      0x00\n      swap1\n      sload\n      swap1\n      0x0100\n      exp\n      swap1\n      div\n      0xff\n      and\n      dup2\n      jump\t// out\n        /* \"contracts/token factory/LiquidityPool.sol\":331:356  address public devAddress */\n    tag_58:\n      0x03\n      0x00\n      swap1\n      sload\n      swap1\n      0x0100\n      exp\n      swap1\n      div\n      0xffffffffffffffffffffffffffffffffffffffff\n      and\n      dup2\n      jump\t// out\n        /* \"contracts/token factory/LiquidityPool.sol\":6270:6412  function updateBuyTax(uint256 newBuyTax) external onlyFactory {... */\n    tag_63:\n        /* \"contracts/token factory/LiquidityPool.sol\":1531:1543  tokenFactory */\n      0x02\n      0x00\n      swap1\n      sload\n      swap1\n      0x0100\n      exp\n      swap1\n      div\n      0xffffffffffffffffffffffffffffffffffffffff\n      and\n        /* \"contracts/token factory/LiquidityPool.sol\":1517:1543  msg.sender == tokenFactory */\n      0xffffffffffffffffffffffffffffffffffffffff\n      and\n        /* \"contracts/token factory/LiquidityPool.sol\":1517:1527  msg.sender */\n      caller\n        /* \"contracts/token factory/LiquidityPool.sol\":1517:1543  msg.sender == tokenFactory */\n      0xffffffffffffffffffffffffffffffffffffffff\n      and\n      eq\n        /* \"contracts/token factory/LiquidityPool.sol\":1509:1578  require(msg.sender == tokenFactory, \"Caller is not the TokenFactory\") */\n      tag_175\n      jumpi\n      mload(0x40)\n      0x08c379a000000000000000000000000000000000000000000000000000000000\n      dup2\n      mstore\n      0x04\n      add\n      tag_176\n      swap1\n      tag_115\n      jump\t// in\n    tag_176:\n      mload(0x40)\n      dup1\n      swap2\n      sub\n      swap1\n      revert\n    tag_175:\n        /* \"contracts/token factory/LiquidityPool.sol\":6351:6360  newBuyTax */\n      dup1\n        /* \"contracts/token factory/LiquidityPool.sol\":6342:6348  buyTax */\n      0x07\n        /* \"contracts/token factory/LiquidityPool.sol\":6342:6360  buyTax = newBuyTax */\n      dup2\n      swap1\n      sstore\n      pop\n        /* \"contracts/token factory/LiquidityPool.sol\":6375:6405  TaxUpdated(newBuyTax, sellTax) */\n      0xb841faf0d1b32571f4ef966a2f35e3ae51f3cdda45318c3da5570a5b2ad85605\n        /* \"contracts/token factory/LiquidityPool.sol\":6386:6395  newBuyTax */\n      dup2\n        /* \"contracts/token factory/LiquidityPool.sol\":6397:6404  sellTax */\n      sload(0x08)\n        /* \"contracts/token factory/LiquidityPool.sol\":6375:6405  TaxUpdated(newBuyTax, sellTax) */\n      mload(0x40)\n      tag_178\n      swap3\n      swap2\n      swap1\n      tag_34\n      jump\t// in\n    tag_178:\n      mload(0x40)\n      dup1\n      swap2\n      sub\n      swap1\n      log1\n        /* \"contracts/token factory/LiquidityPool.sol\":6270:6412  function updateBuyTax(uint256 newBuyTax) external onlyFactory {... */\n      pop\n      jump\t// out\n        /* \"contracts/token factory/LiquidityPool.sol\":470:493  uint256 public reserve0 */\n    tag_66:\n      sload(0x05)\n      dup2\n      jump\t// out\n        /* \"contracts/token factory/LiquidityPool.sol\":2062:2621  function initialize(... */\n    tag_71:\n        /* \"contracts/token factory/LiquidityPool.sol\":1531:1543  tokenFactory */\n      0x02\n      0x00\n      swap1\n      sload\n      swap1\n      0x0100\n      exp\n      swap1\n      div\n      0xffffffffffffffffffffffffffffffffffffffff\n      and\n        /* \"contracts/token factory/LiquidityPool.sol\":1517:1543  msg.sender == tokenFactory */\n      0xffffffffffffffffffffffffffffffffffffffff\n      and\n        /* \"contracts/token factory/LiquidityPool.sol\":1517:1527  msg.sender */\n      caller\n        /* \"contracts/token factory/LiquidityPool.sol\":1517:1543  msg.sender == tokenFactory */\n      0xffffffffffffffffffffffffffffffffffffffff\n      and\n      eq\n        /* \"contracts/token factory/LiquidityPool.sol\":1509:1578  require(msg.sender == tokenFactory, \"Caller is not the TokenFactory\") */\n      tag_180\n      jumpi\n      mload(0x40)\n      0x08c379a000000000000000000000000000000000000000000000000000000000\n      dup2\n      mstore\n      0x04\n      add\n      tag_181\n      swap1\n      tag_115\n      jump\t// in\n    tag_181:\n      mload(0x40)\n      dup1\n      swap2\n      sub\n      swap1\n      revert\n    tag_180:\n        /* \"@openzeppelin/contracts/utils/ReentrancyGuard.sol\":2500:2521  _nonReentrantBefore() */\n      tag_183\n        /* \"@openzeppelin/contracts/utils/ReentrancyGuard.sol\":2500:2519  _nonReentrantBefore */\n      tag_128\n        /* \"@openzeppelin/contracts/utils/ReentrancyGuard.sol\":2500:2521  _nonReentrantBefore() */\n      jump\t// in\n    tag_183:\n        /* \"contracts/token factory/LiquidityPool.sol\":2280:2281  0 */\n      0x00\n        /* \"contracts/token factory/LiquidityPool.sol\":2262:2282  token0 == address(0) */\n      0xffffffffffffffffffffffffffffffffffffffff\n      and\n        /* \"contracts/token factory/LiquidityPool.sol\":2262:2268  token0 */\n      0x01\n      0x00\n      swap1\n      sload\n      swap1\n      0x0100\n      exp\n      swap1\n      div\n      0xffffffffffffffffffffffffffffffffffffffff\n      and\n        /* \"contracts/token factory/LiquidityPool.sol\":2262:2282  token0 == address(0) */\n      0xffffffffffffffffffffffffffffffffffffffff\n      and\n      eq\n        /* \"contracts/token factory/LiquidityPool.sol\":2254:2311  require(token0 == address(0), \"Pool already initialized\") */\n      tag_185\n      jumpi\n      mload(0x40)\n      0x08c379a000000000000000000000000000000000000000000000000000000000\n      dup2\n      mstore\n      0x04\n      add\n      tag_186\n      swap1\n      tag_187\n      jump\t// in\n    tag_186:\n      mload(0x40)\n      dup1\n      swap2\n      sub\n      swap1\n      revert\n    tag_185:\n        /* \"contracts/token factory/LiquidityPool.sol\":2341:2342  0 */\n      0x00\n        /* \"contracts/token factory/LiquidityPool.sol\":2329:2338  msg.value */\n      callvalue\n        /* \"contracts/token factory/LiquidityPool.sol\":2329:2342  msg.value > 0 */\n      gt\n        /* \"contracts/token factory/LiquidityPool.sol\":2321:2387  require(msg.value > 0, \"Initial native currency reserve required\") */\n      tag_188\n      jumpi\n      mload(0x40)\n      0x08c379a000000000000000000000000000000000000000000000000000000000\n      dup2\n      mstore\n      0x04\n      add\n      tag_189\n      swap1\n      tag_190\n      jump\t// in\n    tag_189:\n      mload(0x40)\n      dup1\n      swap2\n      sub\n      swap1\n      revert\n    tag_188:\n        /* \"contracts/token factory/LiquidityPool.sol\":2407:2414  _token0 */\n      dup4\n        /* \"contracts/token factory/LiquidityPool.sol\":2398:2404  token0 */\n      0x01\n      0x00\n        /* \"contracts/token factory/LiquidityPool.sol\":2398:2414  token0 = _token0 */\n      0x0100\n      exp\n      dup2\n      sload\n      dup2\n      0xffffffffffffffffffffffffffffffffffffffff\n      mul\n      not\n      and\n      swap1\n      dup4\n      0xffffffffffffffffffffffffffffffffffffffff\n      and\n      mul\n      or\n      swap1\n      sstore\n      pop\n        /* \"contracts/token factory/LiquidityPool.sol\":2435:2455  _initialTokenReserve */\n      dup3\n        /* \"contracts/token factory/LiquidityPool.sol\":2424:2432  reserve0 */\n      0x05\n        /* \"contracts/token factory/LiquidityPool.sol\":2424:2455  reserve0 = _initialTokenReserve */\n      dup2\n      swap1\n      sstore\n      pop\n        /* \"contracts/token factory/LiquidityPool.sol\":2476:2485  msg.value */\n      callvalue\n        /* \"contracts/token factory/LiquidityPool.sol\":2465:2473  reserve1 */\n      0x06\n        /* \"contracts/token factory/LiquidityPool.sol\":2465:2485  reserve1 = msg.value */\n      dup2\n      swap1\n      sstore\n      pop\n        /* \"contracts/token factory/LiquidityPool.sol\":2504:2511  _buyTax */\n      dup2\n        /* \"contracts/token factory/LiquidityPool.sol\":2495:2501  buyTax */\n      0x07\n        /* \"contracts/token factory/LiquidityPool.sol\":2495:2511  buyTax = _buyTax */\n      dup2\n      swap1\n      sstore\n      pop\n        /* \"contracts/token factory/LiquidityPool.sol\":2531:2539  _sellTax */\n      dup1\n        /* \"contracts/token factory/LiquidityPool.sol\":2521:2528  sellTax */\n      0x08\n        /* \"contracts/token factory/LiquidityPool.sol\":2521:2539  sellTax = _sellTax */\n      dup2\n      swap1\n      sstore\n      pop\n        /* \"contracts/token factory/LiquidityPool.sol\":2570:2580  msg.sender */\n      caller\n        /* \"contracts/token factory/LiquidityPool.sol\":2555:2614  LiquidityAdded(msg.sender, _initialTokenReserve, msg.value) */\n      0xffffffffffffffffffffffffffffffffffffffff\n      and\n      0xac1d76749e5447b7b16f5ab61447e1bd502f3bb4807af3b28e620d1700a6ee45\n        /* \"contracts/token factory/LiquidityPool.sol\":2582:2602  _initialTokenReserve */\n      dup5\n        /* \"contracts/token factory/LiquidityPool.sol\":2604:2613  msg.value */\n      callvalue\n        /* \"contracts/token factory/LiquidityPool.sol\":2555:2614  LiquidityAdded(msg.sender, _initialTokenReserve, msg.value) */\n      mload(0x40)\n      tag_191\n      swap3\n      swap2\n      swap1\n      tag_34\n      jump\t// in\n    tag_191:\n      mload(0x40)\n      dup1\n      swap2\n      sub\n      swap1\n      log2\n        /* \"@openzeppelin/contracts/utils/ReentrancyGuard.sol\":2542:2562  _nonReentrantAfter() */\n      tag_192\n        /* \"@openzeppelin/contracts/utils/ReentrancyGuard.sol\":2542:2560  _nonReentrantAfter */\n      tag_173\n        /* \"@openzeppelin/contracts/utils/ReentrancyGuard.sol\":2542:2562  _nonReentrantAfter() */\n      jump\t// in\n    tag_192:\n        /* \"contracts/token factory/LiquidityPool.sol\":2062:2621  function initialize(... */\n      pop\n      pop\n      pop\n      pop\n      jump\t// out\n        /* \"contracts/token factory/LiquidityPool.sol\":586:607  uint256 public buyTax */\n    tag_74:\n      sload(0x07)\n      dup2\n      jump\t// out\n        /* \"contracts/token factory/LiquidityPool.sol\":516:539  uint256 public reserve1 */\n    tag_78:\n      sload(0x06)\n      dup2\n      jump\t// out\n        /* \"contracts/token factory/LiquidityPool.sol\":773:805  bool public autoMigrationEnabled */\n    tag_82:\n      0x09\n      0x01\n      swap1\n      sload\n      swap1\n      0x0100\n      exp\n      swap1\n      div\n      0xff\n      and\n      dup2\n      jump\t// out\n        /* \"contracts/token factory/LiquidityPool.sol\":848:881  uint256 public migrationThreshold */\n    tag_86:\n      sload(0x0a)\n      dup2\n      jump\t// out\n        /* \"contracts/token factory/LiquidityPool.sol\":3064:3319  function updateMigrationThreshold(uint256 newThreshold) external onlyFactory {... */\n    tag_91:\n        /* \"contracts/token factory/LiquidityPool.sol\":1531:1543  tokenFactory */\n      0x02\n      0x00\n      swap1\n      sload\n      swap1\n      0x0100\n      exp\n      swap1\n      div\n      0xffffffffffffffffffffffffffffffffffffffff\n      and\n        /* \"contracts/token factory/LiquidityPool.sol\":1517:1543  msg.sender == tokenFactory */\n      0xffffffffffffffffffffffffffffffffffffffff\n      and\n        /* \"contracts/token factory/LiquidityPool.sol\":1517:1527  msg.sender */\n      caller\n        /* \"contracts/token factory/LiquidityPool.sol\":1517:1543  msg.sender == tokenFactory */\n      0xffffffffffffffffffffffffffffffffffffffff\n      and\n      eq\n        /* \"contracts/token factory/LiquidityPool.sol\":1509:1578  require(msg.sender == tokenFactory, \"Caller is not the TokenFactory\") */\n      tag_194\n      jumpi\n      mload(0x40)\n      0x08c379a000000000000000000000000000000000000000000000000000000000\n      dup2\n      mstore\n      0x04\n      add\n      tag_195\n      swap1\n      tag_115\n      jump\t// in\n    tag_195:\n      mload(0x40)\n      dup1\n      swap2\n      sub\n      swap1\n      revert\n    tag_194:\n        /* \"contracts/token factory/LiquidityPool.sol\":3174:3175  0 */\n      0x00\n        /* \"contracts/token factory/LiquidityPool.sol\":3159:3171  newThreshold */\n      dup2\n        /* \"contracts/token factory/LiquidityPool.sol\":3159:3175  newThreshold > 0 */\n      gt\n        /* \"contracts/token factory/LiquidityPool.sol\":3151:3215  require(newThreshold > 0, \"Threshold must be greater than zero\") */\n      tag_197\n      jumpi\n      mload(0x40)\n      0x08c379a000000000000000000000000000000000000000000000000000000000\n      dup2\n      mstore\n      0x04\n      add\n      tag_198\n      swap1\n      tag_199\n      jump\t// in\n    tag_198:\n      mload(0x40)\n      dup1\n      swap2\n      sub\n      swap1\n      revert\n    tag_197:\n        /* \"contracts/token factory/LiquidityPool.sol\":3246:3258  newThreshold */\n      dup1\n        /* \"contracts/token factory/LiquidityPool.sol\":3225:3243  migrationThreshold */\n      0x0a\n        /* \"contracts/token factory/LiquidityPool.sol\":3225:3258  migrationThreshold = newThreshold */\n      dup2\n      swap1\n      sstore\n      pop\n        /* \"contracts/token factory/LiquidityPool.sol\":3273:3312  MigrationThresholdUpdated(newThreshold) */\n      0x4ad9ae9229776f627d7d2be995964376397890e11bbfa94e8826810419a6ef6b\n        /* \"contracts/token factory/LiquidityPool.sol\":3299:3311  newThreshold */\n      dup2\n        /* \"contracts/token factory/LiquidityPool.sol\":3273:3312  MigrationThresholdUpdated(newThreshold) */\n      mload(0x40)\n      tag_200\n      swap2\n      swap1\n      tag_50\n      jump\t// in\n    tag_200:\n      mload(0x40)\n      dup1\n      swap2\n      sub\n      swap1\n      log1\n        /* \"contracts/token factory/LiquidityPool.sol\":3064:3319  function updateMigrationThreshold(uint256 newThreshold) external onlyFactory {... */\n      pop\n      jump\t// out\n        /* \"contracts/token factory/LiquidityPool.sol\":4350:5217  function buyToken() external payable nonReentrant returns (uint256 amountOut) {... */\n    tag_93:\n        /* \"contracts/token factory/LiquidityPool.sol\":4409:4426  uint256 amountOut */\n      0x00\n        /* \"@openzeppelin/contracts/utils/ReentrancyGuard.sol\":2500:2521  _nonReentrantBefore() */\n      tag_202\n        /* \"@openzeppelin/contracts/utils/ReentrancyGuard.sol\":2500:2519  _nonReentrantBefore */\n      tag_128\n        /* \"@openzeppelin/contracts/utils/ReentrancyGuard.sol\":2500:2521  _nonReentrantBefore() */\n      jump\t// in\n    tag_202:\n        /* \"contracts/token factory/LiquidityPool.sol\":4447:4464  migratedToAlgebra */\n      0x09\n      0x00\n      swap1\n      sload\n      swap1\n      0x0100\n      exp\n      swap1\n      div\n      0xff\n      and\n        /* \"contracts/token factory/LiquidityPool.sol\":4446:4464  !migratedToAlgebra */\n      iszero\n        /* \"contracts/token factory/LiquidityPool.sol\":4438:4493  require(!migratedToAlgebra, \"Pool migrated to Algebra\") */\n      tag_204\n      jumpi\n      mload(0x40)\n      0x08c379a000000000000000000000000000000000000000000000000000000000\n      dup2\n      mstore\n      0x04\n      add\n      tag_205\n      swap1\n      tag_132\n      jump\t// in\n    tag_205:\n      mload(0x40)\n      dup1\n      swap2\n      sub\n      swap1\n      revert\n    tag_204:\n        /* \"contracts/token factory/LiquidityPool.sol\":4523:4524  0 */\n      0x00\n        /* \"contracts/token factory/LiquidityPool.sol\":4511:4520  msg.value */\n      callvalue\n        /* \"contracts/token factory/LiquidityPool.sol\":4511:4524  msg.value > 0 */\n      gt\n        /* \"contracts/token factory/LiquidityPool.sol\":4503:4558  require(msg.value > 0, \"Must send Ether to buy tokens\") */\n      tag_206\n      jumpi\n      mload(0x40)\n      0x08c379a000000000000000000000000000000000000000000000000000000000\n      dup2\n      mstore\n      0x04\n      add\n      tag_207\n      swap1\n      tag_208\n      jump\t// in\n    tag_207:\n      mload(0x40)\n      dup1\n      swap2\n      sub\n      swap1\n      revert\n    tag_206:\n        /* \"contracts/token factory/LiquidityPool.sol\":4569:4580  uint256 tax */\n      0x00\n        /* \"contracts/token factory/LiquidityPool.sol\":4606:4610  1000 */\n      0x03e8\n        /* \"contracts/token factory/LiquidityPool.sol\":4596:4602  buyTax */\n      sload(0x07)\n        /* \"contracts/token factory/LiquidityPool.sol\":4584:4593  msg.value */\n      callvalue\n        /* \"contracts/token factory/LiquidityPool.sol\":4584:4602  msg.value * buyTax */\n      tag_209\n      swap2\n      swap1\n      tag_137\n      jump\t// in\n    tag_209:\n        /* \"contracts/token factory/LiquidityPool.sol\":4583:4610  (msg.value * buyTax) / 1000 */\n      tag_210\n      swap2\n      swap1\n      tag_139\n      jump\t// in\n    tag_210:\n        /* \"contracts/token factory/LiquidityPool.sol\":4569:4610  uint256 tax = (msg.value * buyTax) / 1000 */\n      swap1\n      pop\n        /* \"contracts/token factory/LiquidityPool.sol\":4620:4644  uint256 amountInAfterTax */\n      0x00\n        /* \"contracts/token factory/LiquidityPool.sol\":4659:4662  tax */\n      dup2\n        /* \"contracts/token factory/LiquidityPool.sol\":4647:4656  msg.value */\n      callvalue\n        /* \"contracts/token factory/LiquidityPool.sol\":4647:4662  msg.value - tax */\n      tag_211\n      swap2\n      swap1\n      tag_141\n      jump\t// in\n    tag_211:\n        /* \"contracts/token factory/LiquidityPool.sol\":4620:4662  uint256 amountInAfterTax = msg.value - tax */\n      swap1\n      pop\n        /* \"contracts/token factory/LiquidityPool.sol\":4674:4686  bool taxSent */\n      0x00\n        /* \"contracts/token factory/LiquidityPool.sol\":4692:4702  devAddress */\n      0x03\n      0x00\n      swap1\n      sload\n      swap1\n      0x0100\n      exp\n      swap1\n      div\n      0xffffffffffffffffffffffffffffffffffffffff\n      and\n        /* \"contracts/token factory/LiquidityPool.sol\":4692:4707  devAddress.call */\n      0xffffffffffffffffffffffffffffffffffffffff\n      and\n        /* \"contracts/token factory/LiquidityPool.sol\":4715:4718  tax */\n      dup4\n        /* \"contracts/token factory/LiquidityPool.sol\":4692:4723  devAddress.call{value: tax}(\"\") */\n      mload(0x40)\n      tag_212\n      swap1\n      tag_160\n      jump\t// in\n    tag_212:\n      0x00\n      mload(0x40)\n      dup1\n      dup4\n      sub\n      dup2\n      dup6\n      dup8\n      gas\n      call\n      swap3\n      pop\n      pop\n      pop\n      returndatasize\n      dup1\n      0x00\n      dup2\n      eq\n      tag_215\n      jumpi\n      mload(0x40)\n      swap2\n      pop\n      and(add(returndatasize, 0x3f), not(0x1f))\n      dup3\n      add\n      0x40\n      mstore\n      returndatasize\n      dup3\n      mstore\n      returndatasize\n      0x00\n      0x20\n      dup5\n      add\n      returndatacopy\n      jump(tag_214)\n    tag_215:\n      0x60\n      swap2\n      pop\n    tag_214:\n      pop\n        /* \"contracts/token factory/LiquidityPool.sol\":4673:4723  (bool taxSent, ) = devAddress.call{value: tax}(\"\") */\n      pop\n      swap1\n      pop\n        /* \"contracts/token factory/LiquidityPool.sol\":4741:4748  taxSent */\n      dup1\n        /* \"contracts/token factory/LiquidityPool.sol\":4733:4786  require(taxSent, \"Failed to send tax to dev address\") */\n      tag_216\n      jumpi\n      mload(0x40)\n      0x08c379a000000000000000000000000000000000000000000000000000000000\n      dup2\n      mstore\n      0x04\n      add\n      tag_217\n      swap1\n      tag_218\n      jump\t// in\n    tag_217:\n      mload(0x40)\n      dup1\n      swap2\n      sub\n      swap1\n      revert\n    tag_216:\n        /* \"contracts/token factory/LiquidityPool.sol\":4797:4816  uint256 newReserve1 */\n      0x00\n        /* \"contracts/token factory/LiquidityPool.sol\":4830:4846  amountInAfterTax */\n      dup3\n        /* \"contracts/token factory/LiquidityPool.sol\":4819:4827  reserve1 */\n      sload(0x06)\n        /* \"contracts/token factory/LiquidityPool.sol\":4819:4846  reserve1 + amountInAfterTax */\n      tag_219\n      swap2\n      swap1\n      tag_154\n      jump\t// in\n    tag_219:\n        /* \"contracts/token factory/LiquidityPool.sol\":4797:4846  uint256 newReserve1 = reserve1 + amountInAfterTax */\n      swap1\n      pop\n        /* \"contracts/token factory/LiquidityPool.sol\":4903:4914  newReserve1 */\n      dup1\n        /* \"contracts/token factory/LiquidityPool.sol\":4891:4899  reserve1 */\n      sload(0x06)\n        /* \"contracts/token factory/LiquidityPool.sol\":4880:4888  reserve0 */\n      sload(0x05)\n        /* \"contracts/token factory/LiquidityPool.sol\":4880:4899  reserve0 * reserve1 */\n      tag_220\n      swap2\n      swap1\n      tag_137\n      jump\t// in\n    tag_220:\n        /* \"contracts/token factory/LiquidityPool.sol\":4879:4914  (reserve0 * reserve1) / newReserve1 */\n      tag_221\n      swap2\n      swap1\n      tag_139\n      jump\t// in\n    tag_221:\n        /* \"contracts/token factory/LiquidityPool.sol\":4868:4876  reserve0 */\n      sload(0x05)\n        /* \"contracts/token factory/LiquidityPool.sol\":4868:4914  reserve0 - (reserve0 * reserve1) / newReserve1 */\n      tag_222\n      swap2\n      swap1\n      tag_141\n      jump\t// in\n    tag_222:\n        /* \"contracts/token factory/LiquidityPool.sol\":4856:4914  amountOut = reserve0 - (reserve0 * reserve1) / newReserve1 */\n      swap5\n      pop\n        /* \"contracts/token factory/LiquidityPool.sol\":4936:4947  newReserve1 */\n      dup1\n        /* \"contracts/token factory/LiquidityPool.sol\":4925:4933  reserve1 */\n      0x06\n        /* \"contracts/token factory/LiquidityPool.sol\":4925:4947  reserve1 = newReserve1 */\n      dup2\n      swap1\n      sstore\n      pop\n        /* \"contracts/token factory/LiquidityPool.sol\":4969:4978  amountOut */\n      dup5\n        /* \"contracts/token factory/LiquidityPool.sol\":4957:4965  reserve0 */\n      0x05\n      0x00\n        /* \"contracts/token factory/LiquidityPool.sol\":4957:4978  reserve0 -= amountOut */\n      dup3\n      dup3\n      sload\n      tag_223\n      swap2\n      swap1\n      tag_141\n      jump\t// in\n    tag_223:\n      swap3\n      pop\n      pop\n      dup2\n      swap1\n      sstore\n      pop\n        /* \"contracts/token factory/LiquidityPool.sol\":4996:5002  token0 */\n      0x01\n      0x00\n      swap1\n      sload\n      swap1\n      0x0100\n      exp\n      swap1\n      div\n      0xffffffffffffffffffffffffffffffffffffffff\n      and\n        /* \"contracts/token factory/LiquidityPool.sol\":4989:5012  IERC20(token0).transfer */\n      0xffffffffffffffffffffffffffffffffffffffff\n      and\n      0xa9059cbb\n        /* \"contracts/token factory/LiquidityPool.sol\":5013:5023  msg.sender */\n      caller\n        /* \"contracts/token factory/LiquidityPool.sol\":5025:5034  amountOut */\n      dup8\n        /* \"contracts/token factory/LiquidityPool.sol\":4989:5035  IERC20(token0).transfer(msg.sender, amountOut) */\n      mload(0x40)\n      dup4\n      0xffffffff\n      and\n      0xe0\n      shl\n      dup2\n      mstore\n      0x04\n      add\n      tag_224\n      swap3\n      swap2\n      swap1\n      tag_149\n      jump\t// in\n    tag_224:\n      0x20\n      mload(0x40)\n      dup1\n      dup4\n      sub\n      dup2\n      0x00\n      dup8\n      gas\n      call\n      iszero\n      dup1\n      iszero\n      tag_226\n      jumpi\n      returndatasize\n      0x00\n      dup1\n      returndatacopy\n      revert(0x00, returndatasize)\n    tag_226:\n      pop\n      pop\n      pop\n      pop\n      mload(0x40)\n      returndatasize\n      not(0x1f)\n      0x1f\n      dup3\n      add\n      and\n      dup3\n      add\n      dup1\n      0x40\n      mstore\n      pop\n      dup2\n      add\n      swap1\n      tag_227\n      swap2\n      swap1\n      tag_147\n      jump\t// in\n    tag_227:\n      pop\n        /* \"contracts/token factory/LiquidityPool.sol\":5068:5074  token0 */\n      0x01\n      0x00\n      swap1\n      sload\n      swap1\n      0x0100\n      exp\n      swap1\n      div\n      0xffffffffffffffffffffffffffffffffffffffff\n      and\n        /* \"contracts/token factory/LiquidityPool.sol\":5051:5097  Swap(address(0), token0, msg.value, amountOut) */\n      0xffffffffffffffffffffffffffffffffffffffff\n      and\n        /* \"contracts/token factory/LiquidityPool.sol\":5064:5065  0 */\n      0x00\n        /* \"contracts/token factory/LiquidityPool.sol\":5051:5097  Swap(address(0), token0, msg.value, amountOut) */\n      0xffffffffffffffffffffffffffffffffffffffff\n      and\n      0xfa2dda1cc1b86e41239702756b13effbc1a092b5c57e3ad320fbe4f3b13fe235\n        /* \"contracts/token factory/LiquidityPool.sol\":5076:5085  msg.value */\n      callvalue\n        /* \"contracts/token factory/LiquidityPool.sol\":5087:5096  amountOut */\n      dup9\n        /* \"contracts/token factory/LiquidityPool.sol\":5051:5097  Swap(address(0), token0, msg.value, amountOut) */\n      mload(0x40)\n      tag_228\n      swap3\n      swap2\n      swap1\n      tag_34\n      jump\t// in\n    tag_228:\n      mload(0x40)\n      dup1\n      swap2\n      sub\n      swap1\n      log3\n        /* \"contracts/token factory/LiquidityPool.sol\":5112:5132  autoMigrationEnabled */\n      0x09\n      0x01\n      swap1\n      sload\n      swap1\n      0x0100\n      exp\n      swap1\n      div\n      0xff\n      and\n        /* \"contracts/token factory/LiquidityPool.sol\":5112:5166  autoMigrationEnabled && reserve1 >= migrationThreshold */\n      dup1\n      iszero\n      tag_229\n      jumpi\n      pop\n        /* \"contracts/token factory/LiquidityPool.sol\":5148:5166  migrationThreshold */\n      sload(0x0a)\n        /* \"contracts/token factory/LiquidityPool.sol\":5136:5144  reserve1 */\n      sload(0x06)\n        /* \"contracts/token factory/LiquidityPool.sol\":5136:5166  reserve1 >= migrationThreshold */\n      lt\n      iszero\n        /* \"contracts/token factory/LiquidityPool.sol\":5112:5166  autoMigrationEnabled && reserve1 >= migrationThreshold */\n    tag_229:\n        /* \"contracts/token factory/LiquidityPool.sol\":5108:5211  if (autoMigrationEnabled && reserve1 >= migrationThreshold) {... */\n      iszero\n      tag_230\n      jumpi\n        /* \"contracts/token factory/LiquidityPool.sol\":5182:5200  migrateToAlgebra() */\n      tag_231\n        /* \"contracts/token factory/LiquidityPool.sol\":5182:5198  migrateToAlgebra */\n      tag_171\n        /* \"contracts/token factory/LiquidityPool.sol\":5182:5200  migrateToAlgebra() */\n      jump\t// in\n    tag_231:\n        /* \"contracts/token factory/LiquidityPool.sol\":5108:5211  if (autoMigrationEnabled && reserve1 >= migrationThreshold) {... */\n    tag_230:\n        /* \"contracts/token factory/LiquidityPool.sol\":4428:5217  {... */\n      pop\n      pop\n      pop\n      pop\n        /* \"@openzeppelin/contracts/utils/ReentrancyGuard.sol\":2542:2562  _nonReentrantAfter() */\n      tag_232\n        /* \"@openzeppelin/contracts/utils/ReentrancyGuard.sol\":2542:2560  _nonReentrantAfter */\n      tag_173\n        /* \"@openzeppelin/contracts/utils/ReentrancyGuard.sol\":2542:2562  _nonReentrantAfter() */\n      jump\t// in\n    tag_232:\n        /* \"contracts/token factory/LiquidityPool.sol\":4350:5217  function buyToken() external payable nonReentrant returns (uint256 amountOut) {... */\n      swap1\n      jump\t// out\n        /* \"contracts/token factory/LiquidityPool.sol\":2906:3058  function toggleAutoMigration(bool enable) external onlyFactory {... */\n    tag_99:\n        /* \"contracts/token factory/LiquidityPool.sol\":1531:1543  tokenFactory */\n      0x02\n      0x00\n      swap1\n      sload\n      swap1\n      0x0100\n      exp\n      swap1\n      div\n      0xffffffffffffffffffffffffffffffffffffffff\n      and\n        /* \"contracts/token factory/LiquidityPool.sol\":1517:1543  msg.sender == tokenFactory */\n      0xffffffffffffffffffffffffffffffffffffffff\n      and\n        /* \"contracts/token factory/LiquidityPool.sol\":1517:1527  msg.sender */\n      caller\n        /* \"contracts/token factory/LiquidityPool.sol\":1517:1543  msg.sender == tokenFactory */\n      0xffffffffffffffffffffffffffffffffffffffff\n      and\n      eq\n        /* \"contracts/token factory/LiquidityPool.sol\":1509:1578  require(msg.sender == tokenFactory, \"Caller is not the TokenFactory\") */\n      tag_234\n      jumpi\n      mload(0x40)\n      0x08c379a000000000000000000000000000000000000000000000000000000000\n      dup2\n      mstore\n      0x04\n      add\n      tag_235\n      swap1\n      tag_115\n      jump\t// in\n    tag_235:\n      mload(0x40)\n      dup1\n      swap2\n      sub\n      swap1\n      revert\n    tag_234:\n        /* \"contracts/token factory/LiquidityPool.sol\":3002:3008  enable */\n      dup1\n        /* \"contracts/token factory/LiquidityPool.sol\":2979:2999  autoMigrationEnabled */\n      0x09\n      0x01\n        /* \"contracts/token factory/LiquidityPool.sol\":2979:3008  autoMigrationEnabled = enable */\n      0x0100\n      exp\n      dup2\n      sload\n      dup2\n      0xff\n      mul\n      not\n      and\n      swap1\n      dup4\n      iszero\n      iszero\n      mul\n      or\n      swap1\n      sstore\n      pop\n        /* \"contracts/token factory/LiquidityPool.sol\":3023:3051  AutoMigrationToggled(enable) */\n      0xe7e0bd136ab3b57e3e925774a811e2482df79072fa45d011a4f088abfcc209d2\n        /* \"contracts/token factory/LiquidityPool.sol\":3044:3050  enable */\n      dup2\n        /* \"contracts/token factory/LiquidityPool.sol\":3023:3051  AutoMigrationToggled(enable) */\n      mload(0x40)\n      tag_237\n      swap2\n      swap1\n      tag_55\n      jump\t// in\n    tag_237:\n      mload(0x40)\n      dup1\n      swap2\n      sub\n      swap1\n      log1\n        /* \"contracts/token factory/LiquidityPool.sol\":2906:3058  function toggleAutoMigration(bool enable) external onlyFactory {... */\n      pop\n      jump\t// out\n        /* \"contracts/token factory/LiquidityPool.sol\":383:420  address public algebraPoolInitializer */\n    tag_102:\n      0x04\n      0x00\n      swap1\n      sload\n      swap1\n      0x0100\n      exp\n      swap1\n      div\n      0xffffffffffffffffffffffffffffffffffffffff\n      and\n      dup2\n      jump\t// out\n        /* \"contracts/token factory/LiquidityPool.sol\":639:661  uint256 public sellTax */\n    tag_106:\n      sload(0x08)\n      dup2\n      jump\t// out\n        /* \"contracts/token factory/LiquidityPool.sol\":274:301  address public tokenFactory */\n    tag_110:\n      0x02\n      0x00\n      swap1\n      sload\n      swap1\n      0x0100\n      exp\n      swap1\n      div\n      0xffffffffffffffffffffffffffffffffffffffff\n      and\n      dup2\n      jump\t// out\n        /* \"@openzeppelin/contracts/utils/ReentrancyGuard.sol\":2575:2882  function _nonReentrantBefore() private {... */\n    tag_128:\n        /* \"@openzeppelin/contracts/utils/ReentrancyGuard.sol\":1899:1900  2 */\n      0x02\n        /* \"@openzeppelin/contracts/utils/ReentrancyGuard.sol\":2702:2709  _status */\n      sload(0x00)\n        /* \"@openzeppelin/contracts/utils/ReentrancyGuard.sol\":2702:2720  _status == ENTERED */\n      sub\n        /* \"@openzeppelin/contracts/utils/ReentrancyGuard.sol\":2698:2784  if (_status == ENTERED) {... */\n      tag_239\n      jumpi\n        /* \"@openzeppelin/contracts/utils/ReentrancyGuard.sol\":2743:2773  ReentrancyGuardReentrantCall() */\n      mload(0x40)\n      0x3ee5aeb500000000000000000000000000000000000000000000000000000000\n      dup2\n      mstore\n      0x04\n      add\n      mload(0x40)\n      dup1\n      swap2\n      sub\n      swap1\n      revert\n        /* \"@openzeppelin/contracts/utils/ReentrancyGuard.sol\":2698:2784  if (_status == ENTERED) {... */\n    tag_239:\n        /* \"@openzeppelin/contracts/utils/ReentrancyGuard.sol\":1899:1900  2 */\n      0x02\n        /* \"@openzeppelin/contracts/utils/ReentrancyGuard.sol\":2858:2865  _status */\n      0x00\n        /* \"@openzeppelin/contracts/utils/ReentrancyGuard.sol\":2858:2875  _status = ENTERED */\n      dup2\n      swap1\n      sstore\n      pop\n        /* \"@openzeppelin/contracts/utils/ReentrancyGuard.sol\":2575:2882  function _nonReentrantBefore() private {... */\n      jump\t// out\n        /* \"contracts/token factory/LiquidityPool.sol\":3325:4344  function migrateToAlgebra() internal nonReentrant {... */\n    tag_171:\n        /* \"@openzeppelin/contracts/utils/ReentrancyGuard.sol\":2500:2521  _nonReentrantBefore() */\n      tag_241\n        /* \"@openzeppelin/contracts/utils/ReentrancyGuard.sol\":2500:2519  _nonReentrantBefore */\n      tag_128\n        /* \"@openzeppelin/contracts/utils/ReentrancyGuard.sol\":2500:2521  _nonReentrantBefore() */\n      jump\t// in\n    tag_241:\n        /* \"contracts/token factory/LiquidityPool.sol\":3394:3411  migratedToAlgebra */\n      0x09\n      0x00\n      swap1\n      sload\n      swap1\n      0x0100\n      exp\n      swap1\n      div\n      0xff\n      and\n        /* \"contracts/token factory/LiquidityPool.sol\":3393:3411  !migratedToAlgebra */\n      iszero\n        /* \"contracts/token factory/LiquidityPool.sol\":3385:3443  require(!migratedToAlgebra, \"Already migrated to Algebra\") */\n      tag_243\n      jumpi\n      mload(0x40)\n      0x08c379a000000000000000000000000000000000000000000000000000000000\n      dup2\n      mstore\n      0x04\n      add\n      tag_244\n      swap1\n      tag_245\n      jump\t// in\n    tag_244:\n      mload(0x40)\n      dup1\n      swap2\n      sub\n      swap1\n      revert\n    tag_243:\n        /* \"contracts/token factory/LiquidityPool.sol\":3495:3496  0 */\n      0x00\n        /* \"contracts/token factory/LiquidityPool.sol\":3461:3497  algebraPoolInitializer != address(0) */\n      0xffffffffffffffffffffffffffffffffffffffff\n      and\n        /* \"contracts/token factory/LiquidityPool.sol\":3461:3483  algebraPoolInitializer */\n      0x04\n      0x00\n      swap1\n      sload\n      swap1\n      0x0100\n      exp\n      swap1\n      div\n      0xffffffffffffffffffffffffffffffffffffffff\n      and\n        /* \"contracts/token factory/LiquidityPool.sol\":3461:3497  algebraPoolInitializer != address(0) */\n      0xffffffffffffffffffffffffffffffffffffffff\n      and\n      sub\n        /* \"contracts/token factory/LiquidityPool.sol\":3453:3541  require(algebraPoolInitializer != address(0), \"Algebra PoolInitializer address not set\") */\n      tag_246\n      jumpi\n      mload(0x40)\n      0x08c379a000000000000000000000000000000000000000000000000000000000\n      dup2\n      mstore\n      0x04\n      add\n      tag_247\n      swap1\n      tag_248\n      jump\t// in\n    tag_247:\n      mload(0x40)\n      dup1\n      swap2\n      sub\n      swap1\n      revert\n    tag_246:\n        /* \"contracts/token factory/LiquidityPool.sol\":3587:3607  bytes memory payload */\n      0x00\n        /* \"contracts/token factory/LiquidityPool.sol\":3657:3663  token0 */\n      0x01\n      0x00\n      swap1\n      sload\n      swap1\n      0x0100\n      exp\n      swap1\n      div\n      0xffffffffffffffffffffffffffffffffffffffff\n      and\n        /* \"contracts/token factory/LiquidityPool.sol\":3610:3664  abi.encodeWithSignature(\"createPool(address)\", token0) */\n      add(0x24, mload(0x40))\n      tag_249\n      swap2\n      swap1\n      tag_39\n      jump\t// in\n    tag_249:\n      mload(0x40)\n      0x20\n      dup2\n      dup4\n      sub\n      sub\n      dup2\n      mstore\n      swap1\n      0x40\n      mstore\n      and(not(0xffffffffffffffffffffffffffffffffffffffffffffffffffffffff), 0x9049f9d200000000000000000000000000000000000000000000000000000000)\n      0x20\n      dup3\n      add\n      dup1\n      mload\n      0xffffffffffffffffffffffffffffffffffffffffffffffffffffffff\n      dup4\n      dup2\n      dup4\n      and\n      or\n      dup4\n      mstore\n      pop\n      pop\n      pop\n      pop\n        /* \"contracts/token factory/LiquidityPool.sol\":3587:3664  bytes memory payload = abi.encodeWithSignature(\"createPool(address)\", token0) */\n      swap1\n      pop\n        /* \"contracts/token factory/LiquidityPool.sol\":3675:3687  bool success */\n      0x00\n        /* \"contracts/token factory/LiquidityPool.sol\":3689:3712  bytes memory returnData */\n      dup1\n        /* \"contracts/token factory/LiquidityPool.sol\":3716:3738  algebraPoolInitializer */\n      0x04\n      0x00\n      swap1\n      sload\n      swap1\n      0x0100\n      exp\n      swap1\n      div\n      0xffffffffffffffffffffffffffffffffffffffff\n      and\n        /* \"contracts/token factory/LiquidityPool.sol\":3716:3743  algebraPoolInitializer.call */\n      0xffffffffffffffffffffffffffffffffffffffff\n      and\n        /* \"contracts/token factory/LiquidityPool.sol\":3744:3751  payload */\n      dup4\n        /* \"contracts/token factory/LiquidityPool.sol\":3716:3752  algebraPoolInitializer.call(payload) */\n      mload(0x40)\n      tag_250\n      swap2\n      swap1\n      tag_251\n      jump\t// in\n    tag_250:\n      0x00\n      mload(0x40)\n      dup1\n      dup4\n      sub\n      dup2\n      0x00\n      dup7\n      gas\n      call\n      swap2\n      pop\n      pop\n      returndatasize\n      dup1\n      0x00\n      dup2\n      eq\n      tag_254\n      jumpi\n      mload(0x40)\n      swap2\n      pop\n      and(add(returndatasize, 0x3f), not(0x1f))\n      dup3\n      add\n      0x40\n      mstore\n      returndatasize\n      dup3\n      mstore\n      returndatasize\n      0x00\n      0x20\n      dup5\n      add\n      returndatacopy\n      jump(tag_253)\n    tag_254:\n      0x60\n      swap2\n      pop\n    tag_253:\n      pop\n        /* \"contracts/token factory/LiquidityPool.sol\":3674:3752  (bool success, bytes memory returnData) = algebraPoolInitializer.call(payload) */\n      swap2\n      pop\n      swap2\n      pop\n        /* \"contracts/token factory/LiquidityPool.sol\":3770:3777  success */\n      dup2\n        /* \"contracts/token factory/LiquidityPool.sol\":3762:3810  require(success, \"Algebra pool creation failed\") */\n      tag_255\n      jumpi\n      mload(0x40)\n      0x08c379a000000000000000000000000000000000000000000000000000000000\n      dup2\n      mstore\n      0x04\n      add\n      tag_256\n      swap1\n      tag_257\n      jump\t// in\n    tag_256:\n      mload(0x40)\n      dup1\n      swap2\n      sub\n      swap1\n      revert\n    tag_255:\n        /* \"contracts/token factory/LiquidityPool.sol\":3821:3843  address newPoolAddress */\n      0x00\n        /* \"contracts/token factory/LiquidityPool.sol\":3857:3867  returnData */\n      dup2\n        /* \"contracts/token factory/LiquidityPool.sol\":3846:3879  abi.decode(returnData, (address)) */\n      dup1\n      0x20\n      add\n      swap1\n      mload\n      dup2\n      add\n      swap1\n      tag_258\n      swap2\n      swap1\n      tag_259\n      jump\t// in\n    tag_258:\n        /* \"contracts/token factory/LiquidityPool.sol\":3821:3879  address newPoolAddress = abi.decode(returnData, (address)) */\n      swap1\n      pop\n        /* \"contracts/token factory/LiquidityPool.sol\":3923:3924  0 */\n      0x00\n        /* \"contracts/token factory/LiquidityPool.sol\":3897:3925  newPoolAddress != address(0) */\n      0xffffffffffffffffffffffffffffffffffffffff\n      and\n        /* \"contracts/token factory/LiquidityPool.sol\":3897:3911  newPoolAddress */\n      dup2\n        /* \"contracts/token factory/LiquidityPool.sol\":3897:3925  newPoolAddress != address(0) */\n      0xffffffffffffffffffffffffffffffffffffffff\n      and\n      sub\n        /* \"contracts/token factory/LiquidityPool.sol\":3889:3958  require(newPoolAddress != address(0), \"Invalid Algebra pool address\") */\n      tag_260\n      jumpi\n      mload(0x40)\n      0x08c379a000000000000000000000000000000000000000000000000000000000\n      dup2\n      mstore\n      0x04\n      add\n      tag_261\n      swap1\n      tag_262\n      jump\t// in\n    tag_261:\n      mload(0x40)\n      dup1\n      swap2\n      sub\n      swap1\n      revert\n    tag_260:\n        /* \"contracts/token factory/LiquidityPool.sol\":4025:4031  token0 */\n      0x01\n      0x00\n      swap1\n      sload\n      swap1\n      0x0100\n      exp\n      swap1\n      div\n      0xffffffffffffffffffffffffffffffffffffffff\n      and\n        /* \"contracts/token factory/LiquidityPool.sol\":4018:4041  IERC20(token0).transfer */\n      0xffffffffffffffffffffffffffffffffffffffff\n      and\n      0xa9059cbb\n        /* \"contracts/token factory/LiquidityPool.sol\":4042:4056  newPoolAddress */\n      dup3\n        /* \"contracts/token factory/LiquidityPool.sol\":4058:4066  reserve0 */\n      sload(0x05)\n        /* \"contracts/token factory/LiquidityPool.sol\":4018:4067  IERC20(token0).transfer(newPoolAddress, reserve0) */\n      mload(0x40)\n      dup4\n      0xffffffff\n      and\n      0xe0\n      shl\n      dup2\n      mstore\n      0x04\n      add\n      tag_263\n      swap3\n      swap2\n      swap1\n      tag_149\n      jump\t// in\n    tag_263:\n      0x20\n      mload(0x40)\n      dup1\n      dup4\n      sub\n      dup2\n      0x00\n      dup8\n      gas\n      call\n      iszero\n      dup1\n      iszero\n      tag_265\n      jumpi\n      returndatasize\n      0x00\n      dup1\n      returndatacopy\n      revert(0x00, returndatasize)\n    tag_265:\n      pop\n      pop\n      pop\n      pop\n      mload(0x40)\n      returndatasize\n      not(0x1f)\n      0x1f\n      dup3\n      add\n      and\n      dup3\n      add\n      dup1\n      0x40\n      mstore\n      pop\n      dup2\n      add\n      swap1\n      tag_266\n      swap2\n      swap1\n      tag_147\n      jump\t// in\n    tag_266:\n      pop\n        /* \"contracts/token factory/LiquidityPool.sol\":4078:4103  bool etherTransferSuccess */\n      0x00\n        /* \"contracts/token factory/LiquidityPool.sol\":4109:4123  newPoolAddress */\n      dup2\n        /* \"contracts/token factory/LiquidityPool.sol\":4109:4128  newPoolAddress.call */\n      0xffffffffffffffffffffffffffffffffffffffff\n      and\n        /* \"contracts/token factory/LiquidityPool.sol\":4136:4144  reserve1 */\n      sload(0x06)\n        /* \"contracts/token factory/LiquidityPool.sol\":4109:4149  newPoolAddress.call{value: reserve1}(\"\") */\n      mload(0x40)\n      tag_267\n      swap1\n      tag_160\n      jump\t// in\n    tag_267:\n      0x00\n      mload(0x40)\n      dup1\n      dup4\n      sub\n      dup2\n      dup6\n      dup8\n      gas\n      call\n      swap3\n      pop\n      pop\n      pop\n      returndatasize\n      dup1\n      0x00\n      dup2\n      eq\n      tag_270\n      jumpi\n      mload(0x40)\n      swap2\n      pop\n      and(add(returndatasize, 0x3f), not(0x1f))\n      dup3\n      add\n      0x40\n      mstore\n      returndatasize\n      dup3\n      mstore\n      returndatasize\n      0x00\n      0x20\n      dup5\n      add\n      returndatacopy\n      jump(tag_269)\n    tag_270:\n      0x60\n      swap2\n      pop\n    tag_269:\n      pop\n        /* \"contracts/token factory/LiquidityPool.sol\":4077:4149  (bool etherTransferSuccess, ) = newPoolAddress.call{value: reserve1}(\"\") */\n      pop\n      swap1\n      pop\n        /* \"contracts/token factory/LiquidityPool.sol\":4167:4187  etherTransferSuccess */\n      dup1\n        /* \"contracts/token factory/LiquidityPool.sol\":4159:4232  require(etherTransferSuccess, \"Failed to transfer Ether to Algebra pool\") */\n      tag_271\n      jumpi\n      mload(0x40)\n      0x08c379a000000000000000000000000000000000000000000000000000000000\n      dup2\n      mstore\n      0x04\n      add\n      tag_272\n      swap1\n      tag_273\n      jump\t// in\n    tag_272:\n      mload(0x40)\n      dup1\n      swap2\n      sub\n      swap1\n      revert\n    tag_271:\n        /* \"contracts/token factory/LiquidityPool.sol\":4263:4267  true */\n      0x01\n        /* \"contracts/token factory/LiquidityPool.sol\":4243:4260  migratedToAlgebra */\n      0x09\n      0x00\n        /* \"contracts/token factory/LiquidityPool.sol\":4243:4267  migratedToAlgebra = true */\n      0x0100\n      exp\n      dup2\n      sload\n      dup2\n      0xff\n      mul\n      not\n      and\n      swap1\n      dup4\n      iszero\n      iszero\n      mul\n      or\n      swap1\n      sstore\n      pop\n        /* \"contracts/token factory/LiquidityPool.sol\":4302:4316  newPoolAddress */\n      dup2\n        /* \"contracts/token factory/LiquidityPool.sol\":4283:4337  MigrationToAlgebra(newPoolAddress, reserve0, reserve1) */\n      0xffffffffffffffffffffffffffffffffffffffff\n      and\n      0x681fa2c4629192623c409b90cb2463cea250bd2012f3ac5f34af5cfa45d4822a\n        /* \"contracts/token factory/LiquidityPool.sol\":4318:4326  reserve0 */\n      sload(0x05)\n        /* \"contracts/token factory/LiquidityPool.sol\":4328:4336  reserve1 */\n      sload(0x06)\n        /* \"contracts/token factory/LiquidityPool.sol\":4283:4337  MigrationToAlgebra(newPoolAddress, reserve0, reserve1) */\n      mload(0x40)\n      tag_274\n      swap3\n      swap2\n      swap1\n      tag_34\n      jump\t// in\n    tag_274:\n      mload(0x40)\n      dup1\n      swap2\n      sub\n      swap1\n      log2\n        /* \"contracts/token factory/LiquidityPool.sol\":3375:4344  {... */\n      pop\n      pop\n      pop\n      pop\n      pop\n        /* \"@openzeppelin/contracts/utils/ReentrancyGuard.sol\":2542:2562  _nonReentrantAfter() */\n      tag_275\n        /* \"@openzeppelin/contracts/utils/ReentrancyGuard.sol\":2542:2560  _nonReentrantAfter */\n      tag_173\n        /* \"@openzeppelin/contracts/utils/ReentrancyGuard.sol\":2542:2562  _nonReentrantAfter() */\n      jump\t// in\n    tag_275:\n        /* \"contracts/token factory/LiquidityPool.sol\":3325:4344  function migrateToAlgebra() internal nonReentrant {... */\n      jump\t// out\n        /* \"@openzeppelin/contracts/utils/ReentrancyGuard.sol\":2888:3096  function _nonReentrantAfter() private {... */\n    tag_173:\n        /* \"@openzeppelin/contracts/utils/ReentrancyGuard.sol\":1857:1858  1 */\n      0x01\n        /* \"@openzeppelin/contracts/utils/ReentrancyGuard.sol\":3068:3075  _status */\n      0x00\n        /* \"@openzeppelin/contracts/utils/ReentrancyGuard.sol\":3068:3089  _status = NOT_ENTERED */\n      dup2\n      swap1\n      sstore\n      pop\n        /* \"@openzeppelin/contracts/utils/ReentrancyGuard.sol\":2888:3096  function _nonReentrantAfter() private {... */\n      jump\t// out\n        /* \"#utility.yul\":88:205   */\n    tag_278:\n        /* \"#utility.yul\":197:198   */\n      0x00\n        /* \"#utility.yul\":194:195   */\n      dup1\n        /* \"#utility.yul\":187:199   */\n      revert\n        /* \"#utility.yul\":334:460   */\n    tag_280:\n        /* \"#utility.yul\":371:378   */\n      0x00\n        /* \"#utility.yul\":411:453   */\n      0xffffffffffffffffffffffffffffffffffffffff\n        /* \"#utility.yul\":404:409   */\n      dup3\n        /* \"#utility.yul\":400:454   */\n      and\n        /* \"#utility.yul\":389:454   */\n      swap1\n      pop\n        /* \"#utility.yul\":334:460   */\n      swap2\n      swap1\n      pop\n      jump\t// out\n        /* \"#utility.yul\":466:562   */\n    tag_281:\n        /* \"#utility.yul\":503:510   */\n      0x00\n        /* \"#utility.yul\":532:556   */\n      tag_342\n        /* \"#utility.yul\":550:555   */\n      dup3\n        /* \"#utility.yul\":532:556   */\n      tag_280\n      jump\t// in\n    tag_342:\n        /* \"#utility.yul\":521:556   */\n      swap1\n      pop\n        /* \"#utility.yul\":466:562   */\n      swap2\n      swap1\n      pop\n      jump\t// out\n        /* \"#utility.yul\":568:690   */\n    tag_282:\n        /* \"#utility.yul\":641:665   */\n      tag_344\n        /* \"#utility.yul\":659:664   */\n      dup2\n        /* \"#utility.yul\":641:665   */\n      tag_281\n      jump\t// in\n    tag_344:\n        /* \"#utility.yul\":634:639   */\n      dup2\n        /* \"#utility.yul\":631:666   */\n      eq\n        /* \"#utility.yul\":621:684   */\n      tag_345\n      jumpi\n        /* \"#utility.yul\":680:681   */\n      0x00\n        /* \"#utility.yul\":677:678   */\n      dup1\n        /* \"#utility.yul\":670:682   */\n      revert\n        /* \"#utility.yul\":621:684   */\n    tag_345:\n        /* \"#utility.yul\":568:690   */\n      pop\n      jump\t// out\n        /* \"#utility.yul\":696:835   */\n    tag_283:\n        /* \"#utility.yul\":742:747   */\n      0x00\n        /* \"#utility.yul\":780:786   */\n      dup2\n        /* \"#utility.yul\":767:787   */\n      calldataload\n        /* \"#utility.yul\":758:787   */\n      swap1\n      pop\n        /* \"#utility.yul\":796:829   */\n      tag_347\n        /* \"#utility.yul\":823:828   */\n      dup2\n        /* \"#utility.yul\":796:829   */\n      tag_282\n      jump\t// in\n    tag_347:\n        /* \"#utility.yul\":696:835   */\n      swap3\n      swap2\n      pop\n      pop\n      jump\t// out\n        /* \"#utility.yul\":841:1170   */\n    tag_28:\n        /* \"#utility.yul\":900:906   */\n      0x00\n        /* \"#utility.yul\":949:951   */\n      0x20\n        /* \"#utility.yul\":937:946   */\n      dup3\n        /* \"#utility.yul\":928:935   */\n      dup5\n        /* \"#utility.yul\":924:947   */\n      sub\n        /* \"#utility.yul\":920:952   */\n      slt\n        /* \"#utility.yul\":917:1036   */\n      iszero\n      tag_349\n      jumpi\n        /* \"#utility.yul\":955:1034   */\n      tag_350\n      tag_278\n      jump\t// in\n    tag_350:\n        /* \"#utility.yul\":917:1036   */\n    tag_349:\n        /* \"#utility.yul\":1075:1076   */\n      0x00\n        /* \"#utility.yul\":1100:1153   */\n      tag_351\n        /* \"#utility.yul\":1145:1152   */\n      dup5\n        /* \"#utility.yul\":1136:1142   */\n      dup3\n        /* \"#utility.yul\":1125:1134   */\n      dup6\n        /* \"#utility.yul\":1121:1143   */\n      add\n        /* \"#utility.yul\":1100:1153   */\n      tag_283\n      jump\t// in\n    tag_351:\n        /* \"#utility.yul\":1090:1153   */\n      swap2\n      pop\n        /* \"#utility.yul\":1046:1163   */\n      pop\n        /* \"#utility.yul\":841:1170   */\n      swap3\n      swap2\n      pop\n      pop\n      jump\t// out\n        /* \"#utility.yul\":1176:1253   */\n    tag_284:\n        /* \"#utility.yul\":1213:1220   */\n      0x00\n        /* \"#utility.yul\":1242:1247   */\n      dup2\n        /* \"#utility.yul\":1231:1247   */\n      swap1\n      pop\n        /* \"#utility.yul\":1176:1253   */\n      swap2\n      swap1\n      pop\n      jump\t// out\n        /* \"#utility.yul\":1259:1377   */\n    tag_285:\n        /* \"#utility.yul\":1346:1370   */\n      tag_354\n        /* \"#utility.yul\":1364:1369   */\n      dup2\n        /* \"#utility.yul\":1346:1370   */\n      tag_284\n      jump\t// in\n    tag_354:\n        /* \"#utility.yul\":1341:1344   */\n      dup3\n        /* \"#utility.yul\":1334:1371   */\n      mstore\n        /* \"#utility.yul\":1259:1377   */\n      pop\n      pop\n      jump\t// out\n        /* \"#utility.yul\":1383:1715   */\n    tag_34:\n        /* \"#utility.yul\":1504:1508   */\n      0x00\n        /* \"#utility.yul\":1542:1544   */\n      0x40\n        /* \"#utility.yul\":1531:1540   */\n      dup3\n        /* \"#utility.yul\":1527:1545   */\n      add\n        /* \"#utility.yul\":1519:1545   */\n      swap1\n      pop\n        /* \"#utility.yul\":1555:1626   */\n      tag_356\n        /* \"#utility.yul\":1623:1624   */\n      0x00\n        /* \"#utility.yul\":1612:1621   */\n      dup4\n        /* \"#utility.yul\":1608:1625   */\n      add\n        /* \"#utility.yul\":1599:1605   */\n      dup6\n        /* \"#utility.yul\":1555:1626   */\n      tag_285\n      jump\t// in\n    tag_356:\n        /* \"#utility.yul\":1636:1708   */\n      tag_357\n        /* \"#utility.yul\":1704:1706   */\n      0x20\n        /* \"#utility.yul\":1693:1702   */\n      dup4\n        /* \"#utility.yul\":1689:1707   */\n      add\n        /* \"#utility.yul\":1680:1686   */\n      dup5\n        /* \"#utility.yul\":1636:1708   */\n      tag_285\n      jump\t// in\n    tag_357:\n        /* \"#utility.yul\":1383:1715   */\n      swap4\n      swap3\n      pop\n      pop\n      pop\n      jump\t// out\n        /* \"#utility.yul\":1721:1839   */\n    tag_286:\n        /* \"#utility.yul\":1808:1832   */\n      tag_359\n        /* \"#utility.yul\":1826:1831   */\n      dup2\n        /* \"#utility.yul\":1808:1832   */\n      tag_281\n      jump\t// in\n    tag_359:\n        /* \"#utility.yul\":1803:1806   */\n      dup3\n        /* \"#utility.yul\":1796:1833   */\n      mstore\n        /* \"#utility.yul\":1721:1839   */\n      pop\n      pop\n      jump\t// out\n        /* \"#utility.yul\":1845:2067   */\n    tag_39:\n        /* \"#utility.yul\":1938:1942   */\n      0x00\n        /* \"#utility.yul\":1976:1978   */\n      0x20\n        /* \"#utility.yul\":1965:1974   */\n      dup3\n        /* \"#utility.yul\":1961:1979   */\n      add\n        /* \"#utility.yul\":1953:1979   */\n      swap1\n      pop\n        /* \"#utility.yul\":1989:2060   */\n      tag_361\n        /* \"#utility.yul\":2057:2058   */\n      0x00\n        /* \"#utility.yul\":2046:2055   */\n      dup4\n        /* \"#utility.yul\":2042:2059   */\n      add\n        /* \"#utility.yul\":2033:2039   */\n      dup5\n        /* \"#utility.yul\":1989:2060   */\n      tag_286\n      jump\t// in\n    tag_361:\n        /* \"#utility.yul\":1845:2067   */\n      swap3\n      swap2\n      pop\n      pop\n      jump\t// out\n        /* \"#utility.yul\":2073:2195   */\n    tag_287:\n        /* \"#utility.yul\":2146:2170   */\n      tag_363\n        /* \"#utility.yul\":2164:2169   */\n      dup2\n        /* \"#utility.yul\":2146:2170   */\n      tag_284\n      jump\t// in\n    tag_363:\n        /* \"#utility.yul\":2139:2144   */\n      dup2\n        /* \"#utility.yul\":2136:2171   */\n      eq\n        /* \"#utility.yul\":2126:2189   */\n      tag_364\n      jumpi\n        /* \"#utility.yul\":2185:2186   */\n      0x00\n        /* \"#utility.yul\":2182:2183   */\n      dup1\n        /* \"#utility.yul\":2175:2187   */\n      revert\n        /* \"#utility.yul\":2126:2189   */\n    tag_364:\n        /* \"#utility.yul\":2073:2195   */\n      pop\n      jump\t// out\n        /* \"#utility.yul\":2201:2340   */\n    tag_288:\n        /* \"#utility.yul\":2247:2252   */\n      0x00\n        /* \"#utility.yul\":2285:2291   */\n      dup2\n        /* \"#utility.yul\":2272:2292   */\n      calldataload\n        /* \"#utility.yul\":2263:2292   */\n      swap1\n      pop\n        /* \"#utility.yul\":2301:2334   */\n      tag_366\n        /* \"#utility.yul\":2328:2333   */\n      dup2\n        /* \"#utility.yul\":2301:2334   */\n      tag_287\n      jump\t// in\n    tag_366:\n        /* \"#utility.yul\":2201:2340   */\n      swap3\n      swap2\n      pop\n      pop\n      jump\t// out\n        /* \"#utility.yul\":2346:2675   */\n    tag_43:\n        /* \"#utility.yul\":2405:2411   */\n      0x00\n        /* \"#utility.yul\":2454:2456   */\n      0x20\n        /* \"#utility.yul\":2442:2451   */\n      dup3\n        /* \"#utility.yul\":2433:2440   */\n      dup5\n        /* \"#utility.yul\":2429:2452   */\n      sub\n        /* \"#utility.yul\":2425:2457   */\n      slt\n        /* \"#utility.yul\":2422:2541   */\n      iszero\n      tag_368\n      jumpi\n        /* \"#utility.yul\":2460:2539   */\n      tag_369\n      tag_278\n      jump\t// in\n    tag_369:\n        /* \"#utility.yul\":2422:2541   */\n    tag_368:\n        /* \"#utility.yul\":2580:2581   */\n      0x00\n        /* \"#utility.yul\":2605:2658   */\n      tag_370\n        /* \"#utility.yul\":2650:2657   */\n      dup5\n        /* \"#utility.yul\":2641:2647   */\n      dup3\n        /* \"#utility.yul\":2630:2639   */\n      dup6\n        /* \"#utility.yul\":2626:2648   */\n      add\n        /* \"#utility.yul\":2605:2658   */\n      tag_288\n      jump\t// in\n    tag_370:\n        /* \"#utility.yul\":2595:2658   */\n      swap2\n      pop\n        /* \"#utility.yul\":2551:2668   */\n      pop\n        /* \"#utility.yul\":2346:2675   */\n      swap3\n      swap2\n      pop\n      pop\n      jump\t// out\n        /* \"#utility.yul\":2681:2903   */\n    tag_50:\n        /* \"#utility.yul\":2774:2778   */\n      0x00\n        /* \"#utility.yul\":2812:2814   */\n      0x20\n        /* \"#utility.yul\":2801:2810   */\n      dup3\n        /* \"#utility.yul\":2797:2815   */\n      add\n        /* \"#utility.yul\":2789:2815   */\n      swap1\n      pop\n        /* \"#utility.yul\":2825:2896   */\n      tag_372\n        /* \"#utility.yul\":2893:2894   */\n      0x00\n        /* \"#utility.yul\":2882:2891   */\n      dup4\n        /* \"#utility.yul\":2878:2895   */\n      add\n        /* \"#utility.yul\":2869:2875   */\n      dup5\n        /* \"#utility.yul\":2825:2896   */\n      tag_285\n      jump\t// in\n    tag_372:\n        /* \"#utility.yul\":2681:2903   */\n      swap3\n      swap2\n      pop\n      pop\n      jump\t// out\n        /* \"#utility.yul\":2909:2999   */\n    tag_289:\n        /* \"#utility.yul\":2943:2950   */\n      0x00\n        /* \"#utility.yul\":2986:2991   */\n      dup2\n        /* \"#utility.yul\":2979:2992   */\n      iszero\n        /* \"#utility.yul\":2972:2993   */\n      iszero\n        /* \"#utility.yul\":2961:2993   */\n      swap1\n      pop\n        /* \"#utility.yul\":2909:2999   */\n      swap2\n      swap1\n      pop\n      jump\t// out\n        /* \"#utility.yul\":3005:3114   */\n    tag_290:\n        /* \"#utility.yul\":3086:3107   */\n      tag_375\n        /* \"#utility.yul\":3101:3106   */\n      dup2\n        /* \"#utility.yul\":3086:3107   */\n      tag_289\n      jump\t// in\n    tag_375:\n        /* \"#utility.yul\":3081:3084   */\n      dup3\n        /* \"#utility.yul\":3074:3108   */\n      mstore\n        /* \"#utility.yul\":3005:3114   */\n      pop\n      pop\n      jump\t// out\n        /* \"#utility.yul\":3120:3330   */\n    tag_55:\n        /* \"#utility.yul\":3207:3211   */\n      0x00\n        /* \"#utility.yul\":3245:3247   */\n      0x20\n        /* \"#utility.yul\":3234:3243   */\n      dup3\n        /* \"#utility.yul\":3230:3248   */\n      add\n        /* \"#utility.yul\":3222:3248   */\n      swap1\n      pop\n        /* \"#utility.yul\":3258:3323   */\n      tag_377\n        /* \"#utility.yul\":3320:3321   */\n      0x00\n        /* \"#utility.yul\":3309:3318   */\n      dup4\n        /* \"#utility.yul\":3305:3322   */\n      add\n        /* \"#utility.yul\":3296:3302   */\n      dup5\n        /* \"#utility.yul\":3258:3323   */\n      tag_290\n      jump\t// in\n    tag_377:\n        /* \"#utility.yul\":3120:3330   */\n      swap3\n      swap2\n      pop\n      pop\n      jump\t// out\n        /* \"#utility.yul\":3336:4101   */\n    tag_70:\n        /* \"#utility.yul\":3422:3428   */\n      0x00\n        /* \"#utility.yul\":3430:3436   */\n      dup1\n        /* \"#utility.yul\":3438:3444   */\n      0x00\n        /* \"#utility.yul\":3446:3452   */\n      dup1\n        /* \"#utility.yul\":3495:3498   */\n      0x80\n        /* \"#utility.yul\":3483:3492   */\n      dup6\n        /* \"#utility.yul\":3474:3481   */\n      dup8\n        /* \"#utility.yul\":3470:3493   */\n      sub\n        /* \"#utility.yul\":3466:3499   */\n      slt\n        /* \"#utility.yul\":3463:3583   */\n      iszero\n      tag_379\n      jumpi\n        /* \"#utility.yul\":3502:3581   */\n      tag_380\n      tag_278\n      jump\t// in\n    tag_380:\n        /* \"#utility.yul\":3463:3583   */\n    tag_379:\n        /* \"#utility.yul\":3622:3623   */\n      0x00\n        /* \"#utility.yul\":3647:3700   */\n      tag_381\n        /* \"#utility.yul\":3692:3699   */\n      dup8\n        /* \"#utility.yul\":3683:3689   */\n      dup3\n        /* \"#utility.yul\":3672:3681   */\n      dup9\n        /* \"#utility.yul\":3668:3690   */\n      add\n        /* \"#utility.yul\":3647:3700   */\n      tag_283\n      jump\t// in\n    tag_381:\n        /* \"#utility.yul\":3637:3700   */\n      swap5\n      pop\n        /* \"#utility.yul\":3593:3710   */\n      pop\n        /* \"#utility.yul\":3749:3751   */\n      0x20\n        /* \"#utility.yul\":3775:3828   */\n      tag_382\n        /* \"#utility.yul\":3820:3827   */\n      dup8\n        /* \"#utility.yul\":3811:3817   */\n      dup3\n        /* \"#utility.yul\":3800:3809   */\n      dup9\n        /* \"#utility.yul\":3796:3818   */\n      add\n        /* \"#utility.yul\":3775:3828   */\n      tag_288\n      jump\t// in\n    tag_382:\n        /* \"#utility.yul\":3765:3828   */\n      swap4\n      pop\n        /* \"#utility.yul\":3720:3838   */\n      pop\n        /* \"#utility.yul\":3877:3879   */\n      0x40\n        /* \"#utility.yul\":3903:3956   */\n      tag_383\n        /* \"#utility.yul\":3948:3955   */\n      dup8\n        /* \"#utility.yul\":3939:3945   */\n      dup3\n        /* \"#utility.yul\":3928:3937   */\n      dup9\n        /* \"#utility.yul\":3924:3946   */\n      add\n        /* \"#utility.yul\":3903:3956   */\n      tag_288\n      jump\t// in\n    tag_383:\n        /* \"#utility.yul\":3893:3956   */\n      swap3\n      pop\n        /* \"#utility.yul\":3848:3966   */\n      pop\n        /* \"#utility.yul\":4005:4007   */\n      0x60\n        /* \"#utility.yul\":4031:4084   */\n      tag_384\n        /* \"#utility.yul\":4076:4083   */\n      dup8\n        /* \"#utility.yul\":4067:4073   */\n      dup3\n        /* \"#utility.yul\":4056:4065   */\n      dup9\n        /* \"#utility.yul\":4052:4074   */\n      add\n        /* \"#utility.yul\":4031:4084   */\n      tag_288\n      jump\t// in\n    tag_384:\n        /* \"#utility.yul\":4021:4084   */\n      swap2\n      pop\n        /* \"#utility.yul\":3976:4094   */\n      pop\n        /* \"#utility.yul\":3336:4101   */\n      swap3\n      swap6\n      swap2\n      swap5\n      pop\n      swap3\n      pop\n      jump\t// out\n        /* \"#utility.yul\":4107:4223   */\n    tag_291:\n        /* \"#utility.yul\":4177:4198   */\n      tag_386\n        /* \"#utility.yul\":4192:4197   */\n      dup2\n        /* \"#utility.yul\":4177:4198   */\n      tag_289\n      jump\t// in\n    tag_386:\n        /* \"#utility.yul\":4170:4175   */\n      dup2\n        /* \"#utility.yul\":4167:4199   */\n      eq\n        /* \"#utility.yul\":4157:4217   */\n      tag_387\n      jumpi\n        /* \"#utility.yul\":4213:4214   */\n      0x00\n        /* \"#utility.yul\":4210:4211   */\n      dup1\n        /* \"#utility.yul\":4203:4215   */\n      revert\n        /* \"#utility.yul\":4157:4217   */\n    tag_387:\n        /* \"#utility.yul\":4107:4223   */\n      pop\n      jump\t// out\n        /* \"#utility.yul\":4229:4362   */\n    tag_292:\n        /* \"#utility.yul\":4272:4277   */\n      0x00\n        /* \"#utility.yul\":4310:4316   */\n      dup2\n        /* \"#utility.yul\":4297:4317   */\n      calldataload\n        /* \"#utility.yul\":4288:4317   */\n      swap1\n      pop\n        /* \"#utility.yul\":4326:4356   */\n      tag_389\n        /* \"#utility.yul\":4350:4355   */\n      dup2\n        /* \"#utility.yul\":4326:4356   */\n      tag_291\n      jump\t// in\n    tag_389:\n        /* \"#utility.yul\":4229:4362   */\n      swap3\n      swap2\n      pop\n      pop\n      jump\t// out\n        /* \"#utility.yul\":4368:4691   */\n    tag_98:\n        /* \"#utility.yul\":4424:4430   */\n      0x00\n        /* \"#utility.yul\":4473:4475   */\n      0x20\n        /* \"#utility.yul\":4461:4470   */\n      dup3\n        /* \"#utility.yul\":4452:4459   */\n      dup5\n        /* \"#utility.yul\":4448:4471   */\n      sub\n        /* \"#utility.yul\":4444:4476   */\n      slt\n        /* \"#utility.yul\":4441:4560   */\n      iszero\n      tag_391\n      jumpi\n        /* \"#utility.yul\":4479:4558   */\n      tag_392\n      tag_278\n      jump\t// in\n    tag_392:\n        /* \"#utility.yul\":4441:4560   */\n    tag_391:\n        /* \"#utility.yul\":4599:4600   */\n      0x00\n        /* \"#utility.yul\":4624:4674   */\n      tag_393\n        /* \"#utility.yul\":4666:4673   */\n      dup5\n        /* \"#utility.yul\":4657:4663   */\n      dup3\n        /* \"#utility.yul\":4646:4655   */\n      dup6\n        /* \"#utility.yul\":4642:4664   */\n      add\n        /* \"#utility.yul\":4624:4674   */\n      tag_292\n      jump\t// in\n    tag_393:\n        /* \"#utility.yul\":4614:4674   */\n      swap2\n      pop\n        /* \"#utility.yul\":4570:4684   */\n      pop\n        /* \"#utility.yul\":4368:4691   */\n      swap3\n      swap2\n      pop\n      pop\n      jump\t// out\n        /* \"#utility.yul\":4697:4866   */\n    tag_293:\n        /* \"#utility.yul\":4781:4792   */\n      0x00\n        /* \"#utility.yul\":4815:4821   */\n      dup3\n        /* \"#utility.yul\":4810:4813   */\n      dup3\n        /* \"#utility.yul\":4803:4822   */\n      mstore\n        /* \"#utility.yul\":4855:4859   */\n      0x20\n        /* \"#utility.yul\":4850:4853   */\n      dup3\n        /* \"#utility.yul\":4846:4860   */\n      add\n        /* \"#utility.yul\":4831:4860   */\n      swap1\n      pop\n        /* \"#utility.yul\":4697:4866   */\n      swap3\n      swap2\n      pop\n      pop\n      jump\t// out\n        /* \"#utility.yul\":4872:5052   */\n    tag_294:\n        /* \"#utility.yul\":5012:5044   */\n      0x43616c6c6572206973206e6f742074686520546f6b656e466163746f72790000\n        /* \"#utility.yul\":5008:5009   */\n      0x00\n        /* \"#utility.yul\":5000:5006   */\n      dup3\n        /* \"#utility.yul\":4996:5010   */\n      add\n        /* \"#utility.yul\":4989:5045   */\n      mstore\n        /* \"#utility.yul\":4872:5052   */\n      pop\n      jump\t// out\n        /* \"#utility.yul\":5058:5424   */\n    tag_295:\n        /* \"#utility.yul\":5200:5203   */\n      0x00\n        /* \"#utility.yul\":5221:5288   */\n      tag_397\n        /* \"#utility.yul\":5285:5287   */\n      0x1e\n        /* \"#utility.yul\":5280:5283   */\n      dup4\n        /* \"#utility.yul\":5221:5288   */\n      tag_293\n      jump\t// in\n    tag_397:\n        /* \"#utility.yul\":5214:5288   */\n      swap2\n      pop\n        /* \"#utility.yul\":5297:5390   */\n      tag_398\n        /* \"#utility.yul\":5386:5389   */\n      dup3\n        /* \"#utility.yul\":5297:5390   */\n      tag_294\n      jump\t// in\n    tag_398:\n        /* \"#utility.yul\":5415:5417   */\n      0x20\n        /* \"#utility.yul\":5410:5413   */\n      dup3\n        /* \"#utility.yul\":5406:5418   */\n      add\n        /* \"#utility.yul\":5399:5418   */\n      swap1\n      pop\n        /* \"#utility.yul\":5058:5424   */\n      swap2\n      swap1\n      pop\n      jump\t// out\n        /* \"#utility.yul\":5430:5849   */\n    tag_115:\n        /* \"#utility.yul\":5596:5600   */\n      0x00\n        /* \"#utility.yul\":5634:5636   */\n      0x20\n        /* \"#utility.yul\":5623:5632   */\n      dup3\n        /* \"#utility.yul\":5619:5637   */\n      add\n        /* \"#utility.yul\":5611:5637   */\n      swap1\n      pop\n        /* \"#utility.yul\":5683:5692   */\n      dup2\n        /* \"#utility.yul\":5677:5681   */\n      dup2\n        /* \"#utility.yul\":5673:5693   */\n      sub\n        /* \"#utility.yul\":5669:5670   */\n      0x00\n        /* \"#utility.yul\":5658:5667   */\n      dup4\n        /* \"#utility.yul\":5654:5671   */\n      add\n        /* \"#utility.yul\":5647:5694   */\n      mstore\n        /* \"#utility.yul\":5711:5842   */\n      tag_400\n        /* \"#utility.yul\":5837:5841   */\n      dup2\n        /* \"#utility.yul\":5711:5842   */\n      tag_295\n      jump\t// in\n    tag_400:\n        /* \"#utility.yul\":5703:5842   */\n      swap1\n      pop\n        /* \"#utility.yul\":5430:5849   */\n      swap2\n      swap1\n      pop\n      jump\t// out\n        /* \"#utility.yul\":5855:6076   */\n    tag_296:\n        /* \"#utility.yul\":5995:6029   */\n      0x496e697469616c697a657220616464726573732063616e6e6f74206265207a65\n        /* \"#utility.yul\":5991:5992   */\n      0x00\n        /* \"#utility.yul\":5983:5989   */\n      dup3\n        /* \"#utility.yul\":5979:5993   */\n      add\n        /* \"#utility.yul\":5972:6030   */\n      mstore\n        /* \"#utility.yul\":6064:6068   */\n      0x726f000000000000000000000000000000000000000000000000000000000000\n        /* \"#utility.yul\":6059:6061   */\n      0x20\n        /* \"#utility.yul\":6051:6057   */\n      dup3\n        /* \"#utility.yul\":6047:6062   */\n      add\n        /* \"#utility.yul\":6040:6069   */\n      mstore\n        /* \"#utility.yul\":5855:6076   */\n      pop\n      jump\t// out\n        /* \"#utility.yul\":6082:6448   */\n    tag_297:\n        /* \"#utility.yul\":6224:6227   */\n      0x00\n        /* \"#utility.yul\":6245:6312   */\n      tag_403\n        /* \"#utility.yul\":6309:6311   */\n      0x22\n        /* \"#utility.yul\":6304:6307   */\n      dup4\n        /* \"#utility.yul\":6245:6312   */\n      tag_293\n      jump\t// in\n    tag_403:\n        /* \"#utility.yul\":6238:6312   */\n      swap2\n      pop\n        /* \"#utility.yul\":6321:6414   */\n      tag_404\n        /* \"#utility.yul\":6410:6413   */\n      dup3\n        /* \"#utility.yul\":6321:6414   */\n      tag_296\n      jump\t// in\n    tag_404:\n        /* \"#utility.yul\":6439:6441   */\n      0x40\n        /* \"#utility.yul\":6434:6437   */\n      dup3\n        /* \"#utility.yul\":6430:6442   */\n      add\n        /* \"#utility.yul\":6423:6442   */\n      swap1\n      pop\n        /* \"#utility.yul\":6082:6448   */\n      swap2\n      swap1\n      pop\n      jump\t// out\n        /* \"#utility.yul\":6454:6873   */\n    tag_119:\n        /* \"#utility.yul\":6620:6624   */\n      0x00\n        /* \"#utility.yul\":6658:6660   */\n      0x20\n        /* \"#utility.yul\":6647:6656   */\n      dup3\n        /* \"#utility.yul\":6643:6661   */\n      add\n        /* \"#utility.yul\":6635:6661   */\n      swap1\n      pop\n        /* \"#utility.yul\":6707:6716   */\n      dup2\n        /* \"#utility.yul\":6701:6705   */\n      dup2\n        /* \"#utility.yul\":6697:6717   */\n      sub\n        /* \"#utility.yul\":6693:6694   */\n      0x00\n        /* \"#utility.yul\":6682:6691   */\n      dup4\n        /* \"#utility.yul\":6678:6695   */\n      add\n        /* \"#utility.yul\":6671:6718   */\n      mstore\n        /* \"#utility.yul\":6735:6866   */\n      tag_406\n        /* \"#utility.yul\":6861:6865   */\n      dup2\n        /* \"#utility.yul\":6735:6866   */\n      tag_297\n      jump\t// in\n    tag_406:\n        /* \"#utility.yul\":6727:6866   */\n      swap1\n      pop\n        /* \"#utility.yul\":6454:6873   */\n      swap2\n      swap1\n      pop\n      jump\t// out\n        /* \"#utility.yul\":6879:7053   */\n    tag_298:\n        /* \"#utility.yul\":7019:7045   */\n      0x506f6f6c206d6967726174656420746f20416c67656272610000000000000000\n        /* \"#utility.yul\":7015:7016   */\n      0x00\n        /* \"#utility.yul\":7007:7013   */\n      dup3\n        /* \"#utility.yul\":7003:7017   */\n      add\n        /* \"#utility.yul\":6996:7046   */\n      mstore\n        /* \"#utility.yul\":6879:7053   */\n      pop\n      jump\t// out\n        /* \"#utility.yul\":7059:7425   */\n    tag_299:\n        /* \"#utility.yul\":7201:7204   */\n      0x00\n        /* \"#utility.yul\":7222:7289   */\n      tag_409\n        /* \"#utility.yul\":7286:7288   */\n      0x18\n        /* \"#utility.yul\":7281:7284   */\n      dup4\n        /* \"#utility.yul\":7222:7289   */\n      tag_293\n      jump\t// in\n    tag_409:\n        /* \"#utility.yul\":7215:7289   */\n      swap2\n      pop\n        /* \"#utility.yul\":7298:7391   */\n      tag_410\n        /* \"#utility.yul\":7387:7390   */\n      dup3\n        /* \"#utility.yul\":7298:7391   */\n      tag_298\n      jump\t// in\n    tag_410:\n        /* \"#utility.yul\":7416:7418   */\n      0x20\n        /* \"#utility.yul\":7411:7414   */\n      dup3\n        /* \"#utility.yul\":7407:7419   */\n      add\n        /* \"#utility.yul\":7400:7419   */\n      swap1\n      pop\n        /* \"#utility.yul\":7059:7425   */\n      swap2\n      swap1\n      pop\n      jump\t// out\n        /* \"#utility.yul\":7431:7850   */\n    tag_132:\n        /* \"#utility.yul\":7597:7601   */\n      0x00\n        /* \"#utility.yul\":7635:7637   */\n      0x20\n        /* \"#utility.yul\":7624:7633   */\n      dup3\n        /* \"#utility.yul\":7620:7638   */\n      add\n        /* \"#utility.yul\":7612:7638   */\n      swap1\n      pop\n        /* \"#utility.yul\":7684:7693   */\n      dup2\n        /* \"#utility.yul\":7678:7682   */\n      dup2\n        /* \"#utility.yul\":7674:7694   */\n      sub\n        /* \"#utility.yul\":7670:7671   */\n      0x00\n        /* \"#utility.yul\":7659:7668   */\n      dup4\n        /* \"#utility.yul\":7655:7672   */\n      add\n        /* \"#utility.yul\":7648:7695   */\n      mstore\n        /* \"#utility.yul\":7712:7843   */\n      tag_412\n        /* \"#utility.yul\":7838:7842   */\n      dup2\n        /* \"#utility.yul\":7712:7843   */\n      tag_299\n      jump\t// in\n    tag_412:\n        /* \"#utility.yul\":7704:7843   */\n      swap1\n      pop\n        /* \"#utility.yul\":7431:7850   */\n      swap2\n      swap1\n      pop\n      jump\t// out\n        /* \"#utility.yul\":7856:8027   */\n    tag_300:\n        /* \"#utility.yul\":7996:8019   */\n      0x4d7573742073656c6c20736f6d6520746f6b656e730000000000000000000000\n        /* \"#utility.yul\":7992:7993   */\n      0x00\n        /* \"#utility.yul\":7984:7990   */\n      dup3\n        /* \"#utility.yul\":7980:7994   */\n      add\n        /* \"#utility.yul\":7973:8020   */\n      mstore\n        /* \"#utility.yul\":7856:8027   */\n      pop\n      jump\t// out\n        /* \"#utility.yul\":8033:8399   */\n    tag_301:\n        /* \"#utility.yul\":8175:8178   */\n      0x00\n        /* \"#utility.yul\":8196:8263   */\n      tag_415\n        /* \"#utility.yul\":8260:8262   */\n      0x15\n        /* \"#utility.yul\":8255:8258   */\n      dup4\n        /* \"#utility.yul\":8196:8263   */\n      tag_293\n      jump\t// in\n    tag_415:\n        /* \"#utility.yul\":8189:8263   */\n      swap2\n      pop\n        /* \"#utility.yul\":8272:8365   */\n      tag_416\n        /* \"#utility.yul\":8361:8364   */\n      dup3\n        /* \"#utility.yul\":8272:8365   */\n      tag_300\n      jump\t// in\n    tag_416:\n        /* \"#utility.yul\":8390:8392   */\n      0x20\n        /* \"#utility.yul\":8385:8388   */\n      dup3\n        /* \"#utility.yul\":8381:8393   */\n      add\n        /* \"#utility.yul\":8374:8393   */\n      swap1\n      pop\n        /* \"#utility.yul\":8033:8399   */\n      swap2\n      swap1\n      pop\n      jump\t// out\n        /* \"#utility.yul\":8405:8824   */\n    tag_135:\n        /* \"#utility.yul\":8571:8575   */\n      0x00\n        /* \"#utility.yul\":8609:8611   */\n      0x20\n        /* \"#utility.yul\":8598:8607   */\n      dup3\n        /* \"#utility.yul\":8594:8612   */\n      add\n        /* \"#utility.yul\":8586:8612   */\n      swap1\n      pop\n        /* \"#utility.yul\":8658:8667   */\n      dup2\n        /* \"#utility.yul\":8652:8656   */\n      dup2\n        /* \"#utility.yul\":8648:8668   */\n      sub\n        /* \"#utility.yul\":8644:8645   */\n      0x00\n        /* \"#utility.yul\":8633:8642   */\n      dup4\n        /* \"#utility.yul\":8629:8646   */\n      add\n        /* \"#utility.yul\":8622:8669   */\n      mstore\n        /* \"#utility.yul\":8686:8817   */\n      tag_418\n        /* \"#utility.yul\":8812:8816   */\n      dup2\n        /* \"#utility.yul\":8686:8817   */\n      tag_301\n      jump\t// in\n    tag_418:\n        /* \"#utility.yul\":8678:8817   */\n      swap1\n      pop\n        /* \"#utility.yul\":8405:8824   */\n      swap2\n      swap1\n      pop\n      jump\t// out\n        /* \"#utility.yul\":8830:9010   */\n    tag_302:\n        /* \"#utility.yul\":8878:8955   */\n      0x4e487b7100000000000000000000000000000000000000000000000000000000\n        /* \"#utility.yul\":8875:8876   */\n      0x00\n        /* \"#utility.yul\":8868:8956   */\n      mstore\n        /* \"#utility.yul\":8975:8979   */\n      0x11\n        /* \"#utility.yul\":8972:8973   */\n      0x04\n        /* \"#utility.yul\":8965:8980   */\n      mstore\n        /* \"#utility.yul\":8999:9003   */\n      0x24\n        /* \"#utility.yul\":8996:8997   */\n      0x00\n        /* \"#utility.yul\":8989:9004   */\n      revert\n        /* \"#utility.yul\":9016:9426   */\n    tag_137:\n        /* \"#utility.yul\":9056:9063   */\n      0x00\n        /* \"#utility.yul\":9079:9099   */\n      tag_421\n        /* \"#utility.yul\":9097:9098   */\n      dup3\n        /* \"#utility.yul\":9079:9099   */\n      tag_284\n      jump\t// in\n    tag_421:\n        /* \"#utility.yul\":9074:9099   */\n      swap2\n      pop\n        /* \"#utility.yul\":9113:9133   */\n      tag_422\n        /* \"#utility.yul\":9131:9132   */\n      dup4\n        /* \"#utility.yul\":9113:9133   */\n      tag_284\n      jump\t// in\n    tag_422:\n        /* \"#utility.yul\":9108:9133   */\n      swap3\n      pop\n        /* \"#utility.yul\":9168:9169   */\n      dup3\n        /* \"#utility.yul\":9165:9166   */\n      dup3\n        /* \"#utility.yul\":9161:9170   */\n      mul\n        /* \"#utility.yul\":9190:9220   */\n      tag_423\n        /* \"#utility.yul\":9208:9219   */\n      dup2\n        /* \"#utility.yul\":9190:9220   */\n      tag_284\n      jump\t// in\n    tag_423:\n        /* \"#utility.yul\":9179:9220   */\n      swap2\n      pop\n        /* \"#utility.yul\":9369:9370   */\n      dup3\n        /* \"#utility.yul\":9360:9367   */\n      dup3\n        /* \"#utility.yul\":9356:9371   */\n      div\n        /* \"#utility.yul\":9353:9354   */\n      dup5\n        /* \"#utility.yul\":9350:9372   */\n      eq\n        /* \"#utility.yul\":9330:9331   */\n      dup4\n        /* \"#utility.yul\":9323:9332   */\n      iszero\n        /* \"#utility.yul\":9303:9386   */\n      or\n        /* \"#utility.yul\":9280:9419   */\n      tag_424\n      jumpi\n        /* \"#utility.yul\":9399:9417   */\n      tag_425\n      tag_302\n      jump\t// in\n    tag_425:\n        /* \"#utility.yul\":9280:9419   */\n    tag_424:\n        /* \"#utility.yul\":9064:9426   */\n      pop\n        /* \"#utility.yul\":9016:9426   */\n      swap3\n      swap2\n      pop\n      pop\n      jump\t// out\n        /* \"#utility.yul\":9432:9612   */\n    tag_303:\n        /* \"#utility.yul\":9480:9557   */\n      0x4e487b7100000000000000000000000000000000000000000000000000000000\n        /* \"#utility.yul\":9477:9478   */\n      0x00\n        /* \"#utility.yul\":9470:9558   */\n      mstore\n        /* \"#utility.yul\":9577:9581   */\n      0x12\n        /* \"#utility.yul\":9574:9575   */\n      0x04\n        /* \"#utility.yul\":9567:9582   */\n      mstore\n        /* \"#utility.yul\":9601:9605   */\n      0x24\n        /* \"#utility.yul\":9598:9599   */\n      0x00\n        /* \"#utility.yul\":9591:9606   */\n      revert\n        /* \"#utility.yul\":9618:9803   */\n    tag_139:\n        /* \"#utility.yul\":9658:9659   */\n      0x00\n        /* \"#utility.yul\":9675:9695   */\n      tag_428\n        /* \"#utility.yul\":9693:9694   */\n      dup3\n        /* \"#utility.yul\":9675:9695   */\n      tag_284\n      jump\t// in\n    tag_428:\n        /* \"#utility.yul\":9670:9695   */\n      swap2\n      pop\n        /* \"#utility.yul\":9709:9729   */\n      tag_429\n        /* \"#utility.yul\":9727:9728   */\n      dup4\n        /* \"#utility.yul\":9709:9729   */\n      tag_284\n      jump\t// in\n    tag_429:\n        /* \"#utility.yul\":9704:9729   */\n      swap3\n      pop\n        /* \"#utility.yul\":9748:9749   */\n      dup3\n        /* \"#utility.yul\":9738:9773   */\n      tag_430\n      jumpi\n        /* \"#utility.yul\":9753:9771   */\n      tag_431\n      tag_303\n      jump\t// in\n    tag_431:\n        /* \"#utility.yul\":9738:9773   */\n    tag_430:\n        /* \"#utility.yul\":9795:9796   */\n      dup3\n        /* \"#utility.yul\":9792:9793   */\n      dup3\n        /* \"#utility.yul\":9788:9797   */\n      div\n        /* \"#utility.yul\":9783:9797   */\n      swap1\n      pop\n        /* \"#utility.yul\":9618:9803   */\n      swap3\n      swap2\n      pop\n      pop\n      jump\t// out\n        /* \"#utility.yul\":9809:10003   */\n    tag_141:\n        /* \"#utility.yul\":9849:9853   */\n      0x00\n        /* \"#utility.yul\":9869:9889   */\n      tag_433\n        /* \"#utility.yul\":9887:9888   */\n      dup3\n        /* \"#utility.yul\":9869:9889   */\n      tag_284\n      jump\t// in\n    tag_433:\n        /* \"#utility.yul\":9864:9889   */\n      swap2\n      pop\n        /* \"#utility.yul\":9903:9923   */\n      tag_434\n        /* \"#utility.yul\":9921:9922   */\n      dup4\n        /* \"#utility.yul\":9903:9923   */\n      tag_284\n      jump\t// in\n    tag_434:\n        /* \"#utility.yul\":9898:9923   */\n      swap3\n      pop\n        /* \"#utility.yul\":9947:9948   */\n      dup3\n        /* \"#utility.yul\":9944:9945   */\n      dup3\n        /* \"#utility.yul\":9940:9949   */\n      sub\n        /* \"#utility.yul\":9932:9949   */\n      swap1\n      pop\n        /* \"#utility.yul\":9971:9972   */\n      dup2\n        /* \"#utility.yul\":9965:9969   */\n      dup2\n        /* \"#utility.yul\":9962:9973   */\n      gt\n        /* \"#utility.yul\":9959:9996   */\n      iszero\n      tag_435\n      jumpi\n        /* \"#utility.yul\":9976:9994   */\n      tag_436\n      tag_302\n      jump\t// in\n    tag_436:\n        /* \"#utility.yul\":9959:9996   */\n    tag_435:\n        /* \"#utility.yul\":9809:10003   */\n      swap3\n      swap2\n      pop\n      pop\n      jump\t// out\n        /* \"#utility.yul\":10009:10451   */\n    tag_143:\n        /* \"#utility.yul\":10158:10162   */\n      0x00\n        /* \"#utility.yul\":10196:10198   */\n      0x60\n        /* \"#utility.yul\":10185:10194   */\n      dup3\n        /* \"#utility.yul\":10181:10199   */\n      add\n        /* \"#utility.yul\":10173:10199   */\n      swap1\n      pop\n        /* \"#utility.yul\":10209:10280   */\n      tag_438\n        /* \"#utility.yul\":10277:10278   */\n      0x00\n        /* \"#utility.yul\":10266:10275   */\n      dup4\n        /* \"#utility.yul\":10262:10279   */\n      add\n        /* \"#utility.yul\":10253:10259   */\n      dup7\n        /* \"#utility.yul\":10209:10280   */\n      tag_286\n      jump\t// in\n    tag_438:\n        /* \"#utility.yul\":10290:10362   */\n      tag_439\n        /* \"#utility.yul\":10358:10360   */\n      0x20\n        /* \"#utility.yul\":10347:10356   */\n      dup4\n        /* \"#utility.yul\":10343:10361   */\n      add\n        /* \"#utility.yul\":10334:10340   */\n      dup6\n        /* \"#utility.yul\":10290:10362   */\n      tag_286\n      jump\t// in\n    tag_439:\n        /* \"#utility.yul\":10372:10444   */\n      tag_440\n        /* \"#utility.yul\":10440:10442   */\n      0x40\n        /* \"#utility.yul\":10429:10438   */\n      dup4\n        /* \"#utility.yul\":10425:10443   */\n      add\n        /* \"#utility.yul\":10416:10422   */\n      dup5\n        /* \"#utility.yul\":10372:10444   */\n      tag_285\n      jump\t// in\n    tag_440:\n        /* \"#utility.yul\":10009:10451   */\n      swap5\n      swap4\n      pop\n      pop\n      pop\n      pop\n      jump\t// out\n        /* \"#utility.yul\":10457:10594   */\n    tag_304:\n        /* \"#utility.yul\":10511:10516   */\n      0x00\n        /* \"#utility.yul\":10542:10548   */\n      dup2\n        /* \"#utility.yul\":10536:10549   */\n      mload\n        /* \"#utility.yul\":10527:10549   */\n      swap1\n      pop\n        /* \"#utility.yul\":10558:10588   */\n      tag_442\n        /* \"#utility.yul\":10582:10587   */\n      dup2\n        /* \"#utility.yul\":10558:10588   */\n      tag_291\n      jump\t// in\n    tag_442:\n        /* \"#utility.yul\":10457:10594   */\n      swap3\n      swap2\n      pop\n      pop\n      jump\t// out\n        /* \"#utility.yul\":10600:10945   */\n    tag_147:\n        /* \"#utility.yul\":10667:10673   */\n      0x00\n        /* \"#utility.yul\":10716:10718   */\n      0x20\n        /* \"#utility.yul\":10704:10713   */\n      dup3\n        /* \"#utility.yul\":10695:10702   */\n      dup5\n        /* \"#utility.yul\":10691:10714   */\n      sub\n        /* \"#utility.yul\":10687:10719   */\n      slt\n        /* \"#utility.yul\":10684:10803   */\n      iszero\n      tag_444\n      jumpi\n        /* \"#utility.yul\":10722:10801   */\n      tag_445\n      tag_278\n      jump\t// in\n    tag_445:\n        /* \"#utility.yul\":10684:10803   */\n    tag_444:\n        /* \"#utility.yul\":10842:10843   */\n      0x00\n        /* \"#utility.yul\":10867:10928   */\n      tag_446\n        /* \"#utility.yul\":10920:10927   */\n      dup5\n        /* \"#utility.yul\":10911:10917   */\n      dup3\n        /* \"#utility.yul\":10900:10909   */\n      dup6\n        /* \"#utility.yul\":10896:10918   */\n      add\n        /* \"#utility.yul\":10867:10928   */\n      tag_304\n      jump\t// in\n    tag_446:\n        /* \"#utility.yul\":10857:10928   */\n      swap2\n      pop\n        /* \"#utility.yul\":10813:10938   */\n      pop\n        /* \"#utility.yul\":10600:10945   */\n      swap3\n      swap2\n      pop\n      pop\n      jump\t// out\n        /* \"#utility.yul\":10951:11283   */\n    tag_149:\n        /* \"#utility.yul\":11072:11076   */\n      0x00\n        /* \"#utility.yul\":11110:11112   */\n      0x40\n        /* \"#utility.yul\":11099:11108   */\n      dup3\n        /* \"#utility.yul\":11095:11113   */\n      add\n        /* \"#utility.yul\":11087:11113   */\n      swap1\n      pop\n        /* \"#utility.yul\":11123:11194   */\n      tag_448\n        /* \"#utility.yul\":11191:11192   */\n      0x00\n        /* \"#utility.yul\":11180:11189   */\n      dup4\n        /* \"#utility.yul\":11176:11193   */\n      add\n        /* \"#utility.yul\":11167:11173   */\n      dup6\n        /* \"#utility.yul\":11123:11194   */\n      tag_286\n      jump\t// in\n    tag_448:\n        /* \"#utility.yul\":11204:11276   */\n      tag_449\n        /* \"#utility.yul\":11272:11274   */\n      0x20\n        /* \"#utility.yul\":11261:11270   */\n      dup4\n        /* \"#utility.yul\":11257:11275   */\n      add\n        /* \"#utility.yul\":11248:11254   */\n      dup5\n        /* \"#utility.yul\":11204:11276   */\n      tag_285\n      jump\t// in\n    tag_449:\n        /* \"#utility.yul\":10951:11283   */\n      swap4\n      swap3\n      pop\n      pop\n      pop\n      jump\t// out\n        /* \"#utility.yul\":11289:11480   */\n    tag_154:\n        /* \"#utility.yul\":11329:11332   */\n      0x00\n        /* \"#utility.yul\":11348:11368   */\n      tag_451\n        /* \"#utility.yul\":11366:11367   */\n      dup3\n        /* \"#utility.yul\":11348:11368   */\n      tag_284\n      jump\t// in\n    tag_451:\n        /* \"#utility.yul\":11343:11368   */\n      swap2\n      pop\n        /* \"#utility.yul\":11382:11402   */\n      tag_452\n        /* \"#utility.yul\":11400:11401   */\n      dup4\n        /* \"#utility.yul\":11382:11402   */\n      tag_284\n      jump\t// in\n    tag_452:\n        /* \"#utility.yul\":11377:11402   */\n      swap3\n      pop\n        /* \"#utility.yul\":11425:11426   */\n      dup3\n        /* \"#utility.yul\":11422:11423   */\n      dup3\n        /* \"#utility.yul\":11418:11427   */\n      add\n        /* \"#utility.yul\":11411:11427   */\n      swap1\n      pop\n        /* \"#utility.yul\":11446:11449   */\n      dup1\n        /* \"#utility.yul\":11443:11444   */\n      dup3\n        /* \"#utility.yul\":11440:11450   */\n      gt\n        /* \"#utility.yul\":11437:11473   */\n      iszero\n      tag_453\n      jumpi\n        /* \"#utility.yul\":11453:11471   */\n      tag_454\n      tag_302\n      jump\t// in\n    tag_454:\n        /* \"#utility.yul\":11437:11473   */\n    tag_453:\n        /* \"#utility.yul\":11289:11480   */\n      swap3\n      swap2\n      pop\n      pop\n      jump\t// out\n        /* \"#utility.yul\":11486:11633   */\n    tag_305:\n        /* \"#utility.yul\":11587:11598   */\n      0x00\n        /* \"#utility.yul\":11624:11627   */\n      dup2\n        /* \"#utility.yul\":11609:11627   */\n      swap1\n      pop\n        /* \"#utility.yul\":11486:11633   */\n      swap3\n      swap2\n      pop\n      pop\n      jump\t// out\n        /* \"#utility.yul\":11639:11753   */\n    tag_306:\n      pop\n      jump\t// out\n        /* \"#utility.yul\":11759:12157   */\n    tag_307:\n        /* \"#utility.yul\":11918:11921   */\n      0x00\n        /* \"#utility.yul\":11939:12022   */\n      tag_458\n        /* \"#utility.yul\":12020:12021   */\n      0x00\n        /* \"#utility.yul\":12015:12018   */\n      dup4\n        /* \"#utility.yul\":11939:12022   */\n      tag_305\n      jump\t// in\n    tag_458:\n        /* \"#utility.yul\":11932:12022   */\n      swap2\n      pop\n        /* \"#utility.yul\":12031:12124   */\n      tag_459\n        /* \"#utility.yul\":12120:12123   */\n      dup3\n        /* \"#utility.yul\":12031:12124   */\n      tag_306\n      jump\t// in\n    tag_459:\n        /* \"#utility.yul\":12149:12150   */\n      0x00\n        /* \"#utility.yul\":12144:12147   */\n      dup3\n        /* \"#utility.yul\":12140:12151   */\n      add\n        /* \"#utility.yul\":12133:12151   */\n      swap1\n      pop\n        /* \"#utility.yul\":11759:12157   */\n      swap2\n      swap1\n      pop\n      jump\t// out\n        /* \"#utility.yul\":12163:12542   */\n    tag_160:\n        /* \"#utility.yul\":12347:12350   */\n      0x00\n        /* \"#utility.yul\":12369:12516   */\n      tag_461\n        /* \"#utility.yul\":12512:12515   */\n      dup3\n        /* \"#utility.yul\":12369:12516   */\n      tag_307\n      jump\t// in\n    tag_461:\n        /* \"#utility.yul\":12362:12516   */\n      swap2\n      pop\n        /* \"#utility.yul\":12533:12536   */\n      dup2\n        /* \"#utility.yul\":12526:12536   */\n      swap1\n      pop\n        /* \"#utility.yul\":12163:12542   */\n      swap2\n      swap1\n      pop\n      jump\t// out\n        /* \"#utility.yul\":12548:12719   */\n    tag_308:\n        /* \"#utility.yul\":12688:12711   */\n      0x4574686572207472616e73666572206661696c65640000000000000000000000\n        /* \"#utility.yul\":12684:12685   */\n      0x00\n        /* \"#utility.yul\":12676:12682   */\n      dup3\n        /* \"#utility.yul\":12672:12686   */\n      add\n        /* \"#utility.yul\":12665:12712   */\n      mstore\n        /* \"#utility.yul\":12548:12719   */\n      pop\n      jump\t// out\n        /* \"#utility.yul\":12725:13091   */\n    tag_309:\n        /* \"#utility.yul\":12867:12870   */\n      0x00\n        /* \"#utility.yul\":12888:12955   */\n      tag_464\n        /* \"#utility.yul\":12952:12954   */\n      0x15\n        /* \"#utility.yul\":12947:12950   */\n      dup4\n        /* \"#utility.yul\":12888:12955   */\n      tag_293\n      jump\t// in\n    tag_464:\n        /* \"#utility.yul\":12881:12955   */\n      swap2\n      pop\n        /* \"#utility.yul\":12964:13057   */\n      tag_465\n        /* \"#utility.yul\":13053:13056   */\n      dup3\n        /* \"#utility.yul\":12964:13057   */\n      tag_308\n      jump\t// in\n    tag_465:\n        /* \"#utility.yul\":13082:13084   */\n      0x20\n        /* \"#utility.yul\":13077:13080   */\n      dup3\n        /* \"#utility.yul\":13073:13085   */\n      add\n        /* \"#utility.yul\":13066:13085   */\n      swap1\n      pop\n        /* \"#utility.yul\":12725:13091   */\n      swap2\n      swap1\n      pop\n      jump\t// out\n        /* \"#utility.yul\":13097:13516   */\n    tag_166:\n        /* \"#utility.yul\":13263:13267   */\n      0x00\n        /* \"#utility.yul\":13301:13303   */\n      0x20\n        /* \"#utility.yul\":13290:13299   */\n      dup3\n        /* \"#utility.yul\":13286:13304   */\n      add\n        /* \"#utility.yul\":13278:13304   */\n      swap1\n      pop\n        /* \"#utility.yul\":13350:13359   */\n      dup2\n        /* \"#utility.yul\":13344:13348   */\n      dup2\n        /* \"#utility.yul\":13340:13360   */\n      sub\n        /* \"#utility.yul\":13336:13337   */\n      0x00\n        /* \"#utility.yul\":13325:13334   */\n      dup4\n        /* \"#utility.yul\":13321:13338   */\n      add\n        /* \"#utility.yul\":13314:13361   */\n      mstore\n        /* \"#utility.yul\":13378:13509   */\n      tag_467\n        /* \"#utility.yul\":13504:13508   */\n      dup2\n        /* \"#utility.yul\":13378:13509   */\n      tag_309\n      jump\t// in\n    tag_467:\n        /* \"#utility.yul\":13370:13509   */\n      swap1\n      pop\n        /* \"#utility.yul\":13097:13516   */\n      swap2\n      swap1\n      pop\n      jump\t// out\n        /* \"#utility.yul\":13522:13696   */\n    tag_310:\n        /* \"#utility.yul\":13662:13688   */\n      0x506f6f6c20616c726561647920696e697469616c697a65640000000000000000\n        /* \"#utility.yul\":13658:13659   */\n      0x00\n        /* \"#utility.yul\":13650:13656   */\n      dup3\n        /* \"#utility.yul\":13646:13660   */\n      add\n        /* \"#utility.yul\":13639:13689   */\n      mstore\n        /* \"#utility.yul\":13522:13696   */\n      pop\n      jump\t// out\n        /* \"#utility.yul\":13702:14068   */\n    tag_311:\n        /* \"#utility.yul\":13844:13847   */\n      0x00\n        /* \"#utility.yul\":13865:13932   */\n      tag_470\n        /* \"#utility.yul\":13929:13931   */\n      0x18\n        /* \"#utility.yul\":13924:13927   */\n      dup4\n        /* \"#utility.yul\":13865:13932   */\n      tag_293\n      jump\t// in\n    tag_470:\n        /* \"#utility.yul\":13858:13932   */\n      swap2\n      pop\n        /* \"#utility.yul\":13941:14034   */\n      tag_471\n        /* \"#utility.yul\":14030:14033   */\n      dup3\n        /* \"#utility.yul\":13941:14034   */\n      tag_310\n      jump\t// in\n    tag_471:\n        /* \"#utility.yul\":14059:14061   */\n      0x20\n        /* \"#utility.yul\":14054:14057   */\n      dup3\n        /* \"#utility.yul\":14050:14062   */\n      add\n        /* \"#utility.yul\":14043:14062   */\n      swap1\n      pop\n        /* \"#utility.yul\":13702:14068   */\n      swap2\n      swap1\n      pop\n      jump\t// out\n        /* \"#utility.yul\":14074:14493   */\n    tag_187:\n        /* \"#utility.yul\":14240:14244   */\n      0x00\n        /* \"#utility.yul\":14278:14280   */\n      0x20\n        /* \"#utility.yul\":14267:14276   */\n      dup3\n        /* \"#utility.yul\":14263:14281   */\n      add\n        /* \"#utility.yul\":14255:14281   */\n      swap1\n      pop\n        /* \"#utility.yul\":14327:14336   */\n      dup2\n        /* \"#utility.yul\":14321:14325   */\n      dup2\n        /* \"#utility.yul\":14317:14337   */\n      sub\n        /* \"#utility.yul\":14313:14314   */\n      0x00\n        /* \"#utility.yul\":14302:14311   */\n      dup4\n        /* \"#utility.yul\":14298:14315   */\n      add\n        /* \"#utility.yul\":14291:14338   */\n      mstore\n        /* \"#utility.yul\":14355:14486   */\n      tag_473\n        /* \"#utility.yul\":14481:14485   */\n      dup2\n        /* \"#utility.yul\":14355:14486   */\n      tag_311\n      jump\t// in\n    tag_473:\n        /* \"#utility.yul\":14347:14486   */\n      swap1\n      pop\n        /* \"#utility.yul\":14074:14493   */\n      swap2\n      swap1\n      pop\n      jump\t// out\n        /* \"#utility.yul\":14499:14726   */\n    tag_312:\n        /* \"#utility.yul\":14639:14673   */\n      0x496e697469616c206e61746976652063757272656e6379207265736572766520\n        /* \"#utility.yul\":14635:14636   */\n      0x00\n        /* \"#utility.yul\":14627:14633   */\n      dup3\n        /* \"#utility.yul\":14623:14637   */\n      add\n        /* \"#utility.yul\":14616:14674   */\n      mstore\n        /* \"#utility.yul\":14708:14718   */\n      0x7265717569726564000000000000000000000000000000000000000000000000\n        /* \"#utility.yul\":14703:14705   */\n      0x20\n        /* \"#utility.yul\":14695:14701   */\n      dup3\n        /* \"#utility.yul\":14691:14706   */\n      add\n        /* \"#utility.yul\":14684:14719   */\n      mstore\n        /* \"#utility.yul\":14499:14726   */\n      pop\n      jump\t// out\n        /* \"#utility.yul\":14732:15098   */\n    tag_313:\n        /* \"#utility.yul\":14874:14877   */\n      0x00\n        /* \"#utility.yul\":14895:14962   */\n      tag_476\n        /* \"#utility.yul\":14959:14961   */\n      0x28\n        /* \"#utility.yul\":14954:14957   */\n      dup4\n        /* \"#utility.yul\":14895:14962   */\n      tag_293\n      jump\t// in\n    tag_476:\n        /* \"#utility.yul\":14888:14962   */\n      swap2\n      pop\n        /* \"#utility.yul\":14971:15064   */\n      tag_477\n        /* \"#utility.yul\":15060:15063   */\n      dup3\n        /* \"#utility.yul\":14971:15064   */\n      tag_312\n      jump\t// in\n    tag_477:\n        /* \"#utility.yul\":15089:15091   */\n      0x40\n        /* \"#utility.yul\":15084:15087   */\n      dup3\n        /* \"#utility.yul\":15080:15092   */\n      add\n        /* \"#utility.yul\":15073:15092   */\n      swap1\n      pop\n        /* \"#utility.yul\":14732:15098   */\n      swap2\n      swap1\n      pop\n      jump\t// out\n        /* \"#utility.yul\":15104:15523   */\n    tag_190:\n        /* \"#utility.yul\":15270:15274   */\n      0x00\n        /* \"#utility.yul\":15308:15310   */\n      0x20\n        /* \"#utility.yul\":15297:15306   */\n      dup3\n        /* \"#utility.yul\":15293:15311   */\n      add\n        /* \"#utility.yul\":15285:15311   */\n      swap1\n      pop\n        /* \"#utility.yul\":15357:15366   */\n      dup2\n        /* \"#utility.yul\":15351:15355   */\n      dup2\n        /* \"#utility.yul\":15347:15367   */\n      sub\n        /* \"#utility.yul\":15343:15344   */\n      0x00\n        /* \"#utility.yul\":15332:15341   */\n      dup4\n        /* \"#utility.yul\":15328:15345   */\n      add\n        /* \"#utility.yul\":15321:15368   */\n      mstore\n        /* \"#utility.yul\":15385:15516   */\n      tag_479\n        /* \"#utility.yul\":15511:15515   */\n      dup2\n        /* \"#utility.yul\":15385:15516   */\n      tag_313\n      jump\t// in\n    tag_479:\n        /* \"#utility.yul\":15377:15516   */\n      swap1\n      pop\n        /* \"#utility.yul\":15104:15523   */\n      swap2\n      swap1\n      pop\n      jump\t// out\n        /* \"#utility.yul\":15529:15751   */\n    tag_314:\n        /* \"#utility.yul\":15669:15703   */\n      0x5468726573686f6c64206d7573742062652067726561746572207468616e207a\n        /* \"#utility.yul\":15665:15666   */\n      0x00\n        /* \"#utility.yul\":15657:15663   */\n      dup3\n        /* \"#utility.yul\":15653:15667   */\n      add\n        /* \"#utility.yul\":15646:15704   */\n      mstore\n        /* \"#utility.yul\":15738:15743   */\n      0x65726f0000000000000000000000000000000000000000000000000000000000\n        /* \"#utility.yul\":15733:15735   */\n      0x20\n        /* \"#utility.yul\":15725:15731   */\n      dup3\n        /* \"#utility.yul\":15721:15736   */\n      add\n        /* \"#utility.yul\":15714:15744   */\n      mstore\n        /* \"#utility.yul\":15529:15751   */\n      pop\n      jump\t// out\n        /* \"#utility.yul\":15757:16123   */\n    tag_315:\n        /* \"#utility.yul\":15899:15902   */\n      0x00\n        /* \"#utility.yul\":15920:15987   */\n      tag_482\n        /* \"#utility.yul\":15984:15986   */\n      0x23\n        /* \"#utility.yul\":15979:15982   */\n      dup4\n        /* \"#utility.yul\":15920:15987   */\n      tag_293\n      jump\t// in\n    tag_482:\n        /* \"#utility.yul\":15913:15987   */\n      swap2\n      pop\n        /* \"#utility.yul\":15996:16089   */\n      tag_483\n        /* \"#utility.yul\":16085:16088   */\n      dup3\n        /* \"#utility.yul\":15996:16089   */\n      tag_314\n      jump\t// in\n    tag_483:\n        /* \"#utility.yul\":16114:16116   */\n      0x40\n        /* \"#utility.yul\":16109:16112   */\n      dup3\n        /* \"#utility.yul\":16105:16117   */\n      add\n        /* \"#utility.yul\":16098:16117   */\n      swap1\n      pop\n        /* \"#utility.yul\":15757:16123   */\n      swap2\n      swap1\n      pop\n      jump\t// out\n        /* \"#utility.yul\":16129:16548   */\n    tag_199:\n        /* \"#utility.yul\":16295:16299   */\n      0x00\n        /* \"#utility.yul\":16333:16335   */\n      0x20\n        /* \"#utility.yul\":16322:16331   */\n      dup3\n        /* \"#utility.yul\":16318:16336   */\n      add\n        /* \"#utility.yul\":16310:16336   */\n      swap1\n      pop\n        /* \"#utility.yul\":16382:16391   */\n      dup2\n        /* \"#utility.yul\":16376:16380   */\n      dup2\n        /* \"#utility.yul\":16372:16392   */\n      sub\n        /* \"#utility.yul\":16368:16369   */\n      0x00\n        /* \"#utility.yul\":16357:16366   */\n      dup4\n        /* \"#utility.yul\":16353:16370   */\n      add\n        /* \"#utility.yul\":16346:16393   */\n      mstore\n        /* \"#utility.yul\":16410:16541   */\n      tag_485\n        /* \"#utility.yul\":16536:16540   */\n      dup2\n        /* \"#utility.yul\":16410:16541   */\n      tag_315\n      jump\t// in\n    tag_485:\n        /* \"#utility.yul\":16402:16541   */\n      swap1\n      pop\n        /* \"#utility.yul\":16129:16548   */\n      swap2\n      swap1\n      pop\n      jump\t// out\n        /* \"#utility.yul\":16554:16733   */\n    tag_316:\n        /* \"#utility.yul\":16694:16725   */\n      0x4d7573742073656e6420457468657220746f2062757920746f6b656e73000000\n        /* \"#utility.yul\":16690:16691   */\n      0x00\n        /* \"#utility.yul\":16682:16688   */\n      dup3\n        /* \"#utility.yul\":16678:16692   */\n      add\n        /* \"#utility.yul\":16671:16726   */\n      mstore\n        /* \"#utility.yul\":16554:16733   */\n      pop\n      jump\t// out\n        /* \"#utility.yul\":16739:17105   */\n    tag_317:\n        /* \"#utility.yul\":16881:16884   */\n      0x00\n        /* \"#utility.yul\":16902:16969   */\n      tag_488\n        /* \"#utility.yul\":16966:16968   */\n      0x1d\n        /* \"#utility.yul\":16961:16964   */\n      dup4\n        /* \"#utility.yul\":16902:16969   */\n      tag_293\n      jump\t// in\n    tag_488:\n        /* \"#utility.yul\":16895:16969   */\n      swap2\n      pop\n        /* \"#utility.yul\":16978:17071   */\n      tag_489\n        /* \"#utility.yul\":17067:17070   */\n      dup3\n        /* \"#utility.yul\":16978:17071   */\n      tag_316\n      jump\t// in\n    tag_489:\n        /* \"#utility.yul\":17096:17098   */\n      0x20\n        /* \"#utility.yul\":17091:17094   */\n      dup3\n        /* \"#utility.yul\":17087:17099   */\n      add\n        /* \"#utility.yul\":17080:17099   */\n      swap1\n      pop\n        /* \"#utility.yul\":16739:17105   */\n      swap2\n      swap1\n      pop\n      jump\t// out\n        /* \"#utility.yul\":17111:17530   */\n    tag_208:\n        /* \"#utility.yul\":17277:17281   */\n      0x00\n        /* \"#utility.yul\":17315:17317   */\n      0x20\n        /* \"#utility.yul\":17304:17313   */\n      dup3\n        /* \"#utility.yul\":17300:17318   */\n      add\n        /* \"#utility.yul\":17292:17318   */\n      swap1\n      pop\n        /* \"#utility.yul\":17364:17373   */\n      dup2\n        /* \"#utility.yul\":17358:17362   */\n      dup2\n        /* \"#utility.yul\":17354:17374   */\n      sub\n        /* \"#utility.yul\":17350:17351   */\n      0x00\n        /* \"#utility.yul\":17339:17348   */\n      dup4\n        /* \"#utility.yul\":17335:17352   */\n      add\n        /* \"#utility.yul\":17328:17375   */\n      mstore\n        /* \"#utility.yul\":17392:17523   */\n      tag_491\n        /* \"#utility.yul\":17518:17522   */\n      dup2\n        /* \"#utility.yul\":17392:17523   */\n      tag_317\n      jump\t// in\n    tag_491:\n        /* \"#utility.yul\":17384:17523   */\n      swap1\n      pop\n        /* \"#utility.yul\":17111:17530   */\n      swap2\n      swap1\n      pop\n      jump\t// out\n        /* \"#utility.yul\":17536:17756   */\n    tag_318:\n        /* \"#utility.yul\":17676:17710   */\n      0x4661696c656420746f2073656e642074617820746f2064657620616464726573\n        /* \"#utility.yul\":17672:17673   */\n      0x00\n        /* \"#utility.yul\":17664:17670   */\n      dup3\n        /* \"#utility.yul\":17660:17674   */\n      add\n        /* \"#utility.yul\":17653:17711   */\n      mstore\n        /* \"#utility.yul\":17745:17748   */\n      0x7300000000000000000000000000000000000000000000000000000000000000\n        /* \"#utility.yul\":17740:17742   */\n      0x20\n        /* \"#utility.yul\":17732:17738   */\n      dup3\n        /* \"#utility.yul\":17728:17743   */\n      add\n        /* \"#utility.yul\":17721:17749   */\n      mstore\n        /* \"#utility.yul\":17536:17756   */\n      pop\n      jump\t// out\n        /* \"#utility.yul\":17762:18128   */\n    tag_319:\n        /* \"#utility.yul\":17904:17907   */\n      0x00\n        /* \"#utility.yul\":17925:17992   */\n      tag_494\n        /* \"#utility.yul\":17989:17991   */\n      0x21\n        /* \"#utility.yul\":17984:17987   */\n      dup4\n        /* \"#utility.yul\":17925:17992   */\n      tag_293\n      jump\t// in\n    tag_494:\n        /* \"#utility.yul\":17918:17992   */\n      swap2\n      pop\n        /* \"#utility.yul\":18001:18094   */\n      tag_495\n        /* \"#utility.yul\":18090:18093   */\n      dup3\n        /* \"#utility.yul\":18001:18094   */\n      tag_318\n      jump\t// in\n    tag_495:\n        /* \"#utility.yul\":18119:18121   */\n      0x40\n        /* \"#utility.yul\":18114:18117   */\n      dup3\n        /* \"#utility.yul\":18110:18122   */\n      add\n        /* \"#utility.yul\":18103:18122   */\n      swap1\n      pop\n        /* \"#utility.yul\":17762:18128   */\n      swap2\n      swap1\n      pop\n      jump\t// out\n        /* \"#utility.yul\":18134:18553   */\n    tag_218:\n        /* \"#utility.yul\":18300:18304   */\n      0x00\n        /* \"#utility.yul\":18338:18340   */\n      0x20\n        /* \"#utility.yul\":18327:18336   */\n      dup3\n        /* \"#utility.yul\":18323:18341   */\n      add\n        /* \"#utility.yul\":18315:18341   */\n      swap1\n      pop\n        /* \"#utility.yul\":18387:18396   */\n      dup2\n        /* \"#utility.yul\":18381:18385   */\n      dup2\n        /* \"#utility.yul\":18377:18397   */\n      sub\n        /* \"#utility.yul\":18373:18374   */\n      0x00\n        /* \"#utility.yul\":18362:18371   */\n      dup4\n        /* \"#utility.yul\":18358:18375   */\n      add\n        /* \"#utility.yul\":18351:18398   */\n      mstore\n        /* \"#utility.yul\":18415:18546   */\n      tag_497\n        /* \"#utility.yul\":18541:18545   */\n      dup2\n        /* \"#utility.yul\":18415:18546   */\n      tag_319\n      jump\t// in\n    tag_497:\n        /* \"#utility.yul\":18407:18546   */\n      swap1\n      pop\n        /* \"#utility.yul\":18134:18553   */\n      swap2\n      swap1\n      pop\n      jump\t// out\n        /* \"#utility.yul\":18559:18736   */\n    tag_320:\n        /* \"#utility.yul\":18699:18728   */\n      0x416c7265616479206d6967726174656420746f20416c67656272610000000000\n        /* \"#utility.yul\":18695:18696   */\n      0x00\n        /* \"#utility.yul\":18687:18693   */\n      dup3\n        /* \"#utility.yul\":18683:18697   */\n      add\n        /* \"#utility.yul\":18676:18729   */\n      mstore\n        /* \"#utility.yul\":18559:18736   */\n      pop\n      jump\t// out\n        /* \"#utility.yul\":18742:19108   */\n    tag_321:\n        /* \"#utility.yul\":18884:18887   */\n      0x00\n        /* \"#utility.yul\":18905:18972   */\n      tag_500\n        /* \"#utility.yul\":18969:18971   */\n      0x1b\n        /* \"#utility.yul\":18964:18967   */\n      dup4\n        /* \"#utility.yul\":18905:18972   */\n      tag_293\n      jump\t// in\n    tag_500:\n        /* \"#utility.yul\":18898:18972   */\n      swap2\n      pop\n        /* \"#utility.yul\":18981:19074   */\n      tag_501\n        /* \"#utility.yul\":19070:19073   */\n      dup3\n        /* \"#utility.yul\":18981:19074   */\n      tag_320\n      jump\t// in\n    tag_501:\n        /* \"#utility.yul\":19099:19101   */\n      0x20\n        /* \"#utility.yul\":19094:19097   */\n      dup3\n        /* \"#utility.yul\":19090:19102   */\n      add\n        /* \"#utility.yul\":19083:19102   */\n      swap1\n      pop\n        /* \"#utility.yul\":18742:19108   */\n      swap2\n      swap1\n      pop\n      jump\t// out\n        /* \"#utility.yul\":19114:19533   */\n    tag_245:\n        /* \"#utility.yul\":19280:19284   */\n      0x00\n        /* \"#utility.yul\":19318:19320   */\n      0x20\n        /* \"#utility.yul\":19307:19316   */\n      dup3\n        /* \"#utility.yul\":19303:19321   */\n      add\n        /* \"#utility.yul\":19295:19321   */\n      swap1\n      pop\n        /* \"#utility.yul\":19367:19376   */\n      dup2\n        /* \"#utility.yul\":19361:19365   */\n      dup2\n        /* \"#utility.yul\":19357:19377   */\n      sub\n        /* \"#utility.yul\":19353:19354   */\n      0x00\n        /* \"#utility.yul\":19342:19351   */\n      dup4\n        /* \"#utility.yul\":19338:19355   */\n      add\n        /* \"#utility.yul\":19331:19378   */\n      mstore\n        /* \"#utility.yul\":19395:19526   */\n      tag_503\n        /* \"#utility.yul\":19521:19525   */\n      dup2\n        /* \"#utility.yul\":19395:19526   */\n      tag_321\n      jump\t// in\n    tag_503:\n        /* \"#utility.yul\":19387:19526   */\n      swap1\n      pop\n        /* \"#utility.yul\":19114:19533   */\n      swap2\n      swap1\n      pop\n      jump\t// out\n        /* \"#utility.yul\":19539:19765   */\n    tag_322:\n        /* \"#utility.yul\":19679:19713   */\n      0x416c676562726120506f6f6c496e697469616c697a6572206164647265737320\n        /* \"#utility.yul\":19675:19676   */\n      0x00\n        /* \"#utility.yul\":19667:19673   */\n      dup3\n        /* \"#utility.yul\":19663:19677   */\n      add\n        /* \"#utility.yul\":19656:19714   */\n      mstore\n        /* \"#utility.yul\":19748:19757   */\n      0x6e6f742073657400000000000000000000000000000000000000000000000000\n        /* \"#utility.yul\":19743:19745   */\n      0x20\n        /* \"#utility.yul\":19735:19741   */\n      dup3\n        /* \"#utility.yul\":19731:19746   */\n      add\n        /* \"#utility.yul\":19724:19758   */\n      mstore\n        /* \"#utility.yul\":19539:19765   */\n      pop\n      jump\t// out\n        /* \"#utility.yul\":19771:20137   */\n    tag_323:\n        /* \"#utility.yul\":19913:19916   */\n      0x00\n        /* \"#utility.yul\":19934:20001   */\n      tag_506\n        /* \"#utility.yul\":19998:20000   */\n      0x27\n        /* \"#utility.yul\":19993:19996   */\n      dup4\n        /* \"#utility.yul\":19934:20001   */\n      tag_293\n      jump\t// in\n    tag_506:\n        /* \"#utility.yul\":19927:20001   */\n      swap2\n      pop\n        /* \"#utility.yul\":20010:20103   */\n      tag_507\n        /* \"#utility.yul\":20099:20102   */\n      dup3\n        /* \"#utility.yul\":20010:20103   */\n      tag_322\n      jump\t// in\n    tag_507:\n        /* \"#utility.yul\":20128:20130   */\n      0x40\n        /* \"#utility.yul\":20123:20126   */\n      dup3\n        /* \"#utility.yul\":20119:20131   */\n      add\n        /* \"#utility.yul\":20112:20131   */\n      swap1\n      pop\n        /* \"#utility.yul\":19771:20137   */\n      swap2\n      swap1\n      pop\n      jump\t// out\n        /* \"#utility.yul\":20143:20562   */\n    tag_248:\n        /* \"#utility.yul\":20309:20313   */\n      0x00\n        /* \"#utility.yul\":20347:20349   */\n      0x20\n        /* \"#utility.yul\":20336:20345   */\n      dup3\n        /* \"#utility.yul\":20332:20350   */\n      add\n        /* \"#utility.yul\":20324:20350   */\n      swap1\n      pop\n        /* \"#utility.yul\":20396:20405   */\n      dup2\n        /* \"#utility.yul\":20390:20394   */\n      dup2\n        /* \"#utility.yul\":20386:20406   */\n      sub\n        /* \"#utility.yul\":20382:20383   */\n      0x00\n        /* \"#utility.yul\":20371:20380   */\n      dup4\n        /* \"#utility.yul\":20367:20384   */\n      add\n        /* \"#utility.yul\":20360:20407   */\n      mstore\n        /* \"#utility.yul\":20424:20555   */\n      tag_509\n        /* \"#utility.yul\":20550:20554   */\n      dup2\n        /* \"#utility.yul\":20424:20555   */\n      tag_323\n      jump\t// in\n    tag_509:\n        /* \"#utility.yul\":20416:20555   */\n      swap1\n      pop\n        /* \"#utility.yul\":20143:20562   */\n      swap2\n      swap1\n      pop\n      jump\t// out\n        /* \"#utility.yul\":20568:20666   */\n    tag_324:\n        /* \"#utility.yul\":20619:20625   */\n      0x00\n        /* \"#utility.yul\":20653:20658   */\n      dup2\n        /* \"#utility.yul\":20647:20659   */\n      mload\n        /* \"#utility.yul\":20637:20659   */\n      swap1\n      pop\n        /* \"#utility.yul\":20568:20666   */\n      swap2\n      swap1\n      pop\n      jump\t// out\n        /* \"#utility.yul\":20672:20811   */\n    tag_325:\n        /* \"#utility.yul\":20761:20767   */\n      dup3\n        /* \"#utility.yul\":20756:20759   */\n      dup2\n        /* \"#utility.yul\":20751:20754   */\n      dup4\n        /* \"#utility.yul\":20745:20768   */\n      mcopy\n        /* \"#utility.yul\":20802:20803   */\n      0x00\n        /* \"#utility.yul\":20793:20799   */\n      dup4\n        /* \"#utility.yul\":20788:20791   */\n      dup4\n        /* \"#utility.yul\":20784:20800   */\n      add\n        /* \"#utility.yul\":20777:20804   */\n      mstore\n        /* \"#utility.yul\":20672:20811   */\n      pop\n      pop\n      pop\n      jump\t// out\n        /* \"#utility.yul\":20817:21203   */\n    tag_326:\n        /* \"#utility.yul\":20921:20924   */\n      0x00\n        /* \"#utility.yul\":20949:20987   */\n      tag_513\n        /* \"#utility.yul\":20981:20986   */\n      dup3\n        /* \"#utility.yul\":20949:20987   */\n      tag_324\n      jump\t// in\n    tag_513:\n        /* \"#utility.yul\":21003:21091   */\n      tag_514\n        /* \"#utility.yul\":21084:21090   */\n      dup2\n        /* \"#utility.yul\":21079:21082   */\n      dup6\n        /* \"#utility.yul\":21003:21091   */\n      tag_305\n      jump\t// in\n    tag_514:\n        /* \"#utility.yul\":20996:21091   */\n      swap4\n      pop\n        /* \"#utility.yul\":21100:21165   */\n      tag_515\n        /* \"#utility.yul\":21158:21164   */\n      dup2\n        /* \"#utility.yul\":21153:21156   */\n      dup6\n        /* \"#utility.yul\":21146:21150   */\n      0x20\n        /* \"#utility.yul\":21139:21144   */\n      dup7\n        /* \"#utility.yul\":21135:21151   */\n      add\n        /* \"#utility.yul\":21100:21165   */\n      tag_325\n      jump\t// in\n    tag_515:\n        /* \"#utility.yul\":21190:21196   */\n      dup1\n        /* \"#utility.yul\":21185:21188   */\n      dup5\n        /* \"#utility.yul\":21181:21197   */\n      add\n        /* \"#utility.yul\":21174:21197   */\n      swap2\n      pop\n        /* \"#utility.yul\":20925:21203   */\n      pop\n        /* \"#utility.yul\":20817:21203   */\n      swap3\n      swap2\n      pop\n      pop\n      jump\t// out\n        /* \"#utility.yul\":21209:21480   */\n    tag_251:\n        /* \"#utility.yul\":21339:21342   */\n      0x00\n        /* \"#utility.yul\":21361:21454   */\n      tag_517\n        /* \"#utility.yul\":21450:21453   */\n      dup3\n        /* \"#utility.yul\":21441:21447   */\n      dup5\n        /* \"#utility.yul\":21361:21454   */\n      tag_326\n      jump\t// in\n    tag_517:\n        /* \"#utility.yul\":21354:21454   */\n      swap2\n      pop\n        /* \"#utility.yul\":21471:21474   */\n      dup2\n        /* \"#utility.yul\":21464:21474   */\n      swap1\n      pop\n        /* \"#utility.yul\":21209:21480   */\n      swap3\n      swap2\n      pop\n      pop\n      jump\t// out\n        /* \"#utility.yul\":21486:21664   */\n    tag_327:\n        /* \"#utility.yul\":21626:21656   */\n      0x416c676562726120706f6f6c206372656174696f6e206661696c656400000000\n        /* \"#utility.yul\":21622:21623   */\n      0x00\n        /* \"#utility.yul\":21614:21620   */\n      dup3\n        /* \"#utility.yul\":21610:21624   */\n      add\n        /* \"#utility.yul\":21603:21657   */\n      mstore\n        /* \"#utility.yul\":21486:21664   */\n      pop\n      jump\t// out\n        /* \"#utility.yul\":21670:22036   */\n    tag_328:\n        /* \"#utility.yul\":21812:21815   */\n      0x00\n        /* \"#utility.yul\":21833:21900   */\n      tag_520\n        /* \"#utility.yul\":21897:21899   */\n      0x1c\n        /* \"#utility.yul\":21892:21895   */\n      dup4\n        /* \"#utility.yul\":21833:21900   */\n      tag_293\n      jump\t// in\n    tag_520:\n        /* \"#utility.yul\":21826:21900   */\n      swap2\n      pop\n        /* \"#utility.yul\":21909:22002   */\n      tag_521\n        /* \"#utility.yul\":21998:22001   */\n      dup3\n        /* \"#utility.yul\":21909:22002   */\n      tag_327\n      jump\t// in\n    tag_521:\n        /* \"#utility.yul\":22027:22029   */\n      0x20\n        /* \"#utility.yul\":22022:22025   */\n      dup3\n        /* \"#utility.yul\":22018:22030   */\n      add\n        /* \"#utility.yul\":22011:22030   */\n      swap1\n      pop\n        /* \"#utility.yul\":21670:22036   */\n      swap2\n      swap1\n      pop\n      jump\t// out\n        /* \"#utility.yul\":22042:22461   */\n    tag_257:\n        /* \"#utility.yul\":22208:22212   */\n      0x00\n        /* \"#utility.yul\":22246:22248   */\n      0x20\n        /* \"#utility.yul\":22235:22244   */\n      dup3\n        /* \"#utility.yul\":22231:22249   */\n      add\n        /* \"#utility.yul\":22223:22249   */\n      swap1\n      pop\n        /* \"#utility.yul\":22295:22304   */\n      dup2\n        /* \"#utility.yul\":22289:22293   */\n      dup2\n        /* \"#utility.yul\":22285:22305   */\n      sub\n        /* \"#utility.yul\":22281:22282   */\n      0x00\n        /* \"#utility.yul\":22270:22279   */\n      dup4\n        /* \"#utility.yul\":22266:22283   */\n      add\n        /* \"#utility.yul\":22259:22306   */\n      mstore\n        /* \"#utility.yul\":22323:22454   */\n      tag_523\n        /* \"#utility.yul\":22449:22453   */\n      dup2\n        /* \"#utility.yul\":22323:22454   */\n      tag_328\n      jump\t// in\n    tag_523:\n        /* \"#utility.yul\":22315:22454   */\n      swap1\n      pop\n        /* \"#utility.yul\":22042:22461   */\n      swap2\n      swap1\n      pop\n      jump\t// out\n        /* \"#utility.yul\":22467:22571   */\n    tag_329:\n        /* \"#utility.yul\":22512:22519   */\n      0x00\n        /* \"#utility.yul\":22541:22565   */\n      tag_525\n        /* \"#utility.yul\":22559:22564   */\n      dup3\n        /* \"#utility.yul\":22541:22565   */\n      tag_280\n      jump\t// in\n    tag_525:\n        /* \"#utility.yul\":22530:22565   */\n      swap1\n      pop\n        /* \"#utility.yul\":22467:22571   */\n      swap2\n      swap1\n      pop\n      jump\t// out\n        /* \"#utility.yul\":22577:22715   */\n    tag_330:\n        /* \"#utility.yul\":22658:22690   */\n      tag_527\n        /* \"#utility.yul\":22684:22689   */\n      dup2\n        /* \"#utility.yul\":22658:22690   */\n      tag_329\n      jump\t// in\n    tag_527:\n        /* \"#utility.yul\":22651:22656   */\n      dup2\n        /* \"#utility.yul\":22648:22691   */\n      eq\n        /* \"#utility.yul\":22638:22709   */\n      tag_528\n      jumpi\n        /* \"#utility.yul\":22705:22706   */\n      0x00\n        /* \"#utility.yul\":22702:22703   */\n      dup1\n        /* \"#utility.yul\":22695:22707   */\n      revert\n        /* \"#utility.yul\":22638:22709   */\n    tag_528:\n        /* \"#utility.yul\":22577:22715   */\n      pop\n      jump\t// out\n        /* \"#utility.yul\":22721:22880   */\n    tag_331:\n        /* \"#utility.yul\":22786:22791   */\n      0x00\n        /* \"#utility.yul\":22817:22823   */\n      dup2\n        /* \"#utility.yul\":22811:22824   */\n      mload\n        /* \"#utility.yul\":22802:22824   */\n      swap1\n      pop\n        /* \"#utility.yul\":22833:22874   */\n      tag_530\n        /* \"#utility.yul\":22868:22873   */\n      dup2\n        /* \"#utility.yul\":22833:22874   */\n      tag_330\n      jump\t// in\n    tag_530:\n        /* \"#utility.yul\":22721:22880   */\n      swap3\n      swap2\n      pop\n      pop\n      jump\t// out\n        /* \"#utility.yul\":22886:23253   */\n    tag_259:\n        /* \"#utility.yul\":22964:22970   */\n      0x00\n        /* \"#utility.yul\":23013:23015   */\n      0x20\n        /* \"#utility.yul\":23001:23010   */\n      dup3\n        /* \"#utility.yul\":22992:22999   */\n      dup5\n        /* \"#utility.yul\":22988:23011   */\n      sub\n        /* \"#utility.yul\":22984:23016   */\n      slt\n        /* \"#utility.yul\":22981:23100   */\n      iszero\n      tag_532\n      jumpi\n        /* \"#utility.yul\":23019:23098   */\n      tag_533\n      tag_278\n      jump\t// in\n    tag_533:\n        /* \"#utility.yul\":22981:23100   */\n    tag_532:\n        /* \"#utility.yul\":23139:23140   */\n      0x00\n        /* \"#utility.yul\":23164:23236   */\n      tag_534\n        /* \"#utility.yul\":23228:23235   */\n      dup5\n        /* \"#utility.yul\":23219:23225   */\n      dup3\n        /* \"#utility.yul\":23208:23217   */\n      dup6\n        /* \"#utility.yul\":23204:23226   */\n      add\n        /* \"#utility.yul\":23164:23236   */\n      tag_331\n      jump\t// in\n    tag_534:\n        /* \"#utility.yul\":23154:23236   */\n      swap2\n      pop\n        /* \"#utility.yul\":23110:23246   */\n      pop\n        /* \"#utility.yul\":22886:23253   */\n      swap3\n      swap2\n      pop\n      pop\n      jump\t// out\n        /* \"#utility.yul\":23259:23437   */\n    tag_332:\n        /* \"#utility.yul\":23399:23429   */\n      0x496e76616c696420416c676562726120706f6f6c206164647265737300000000\n        /* \"#utility.yul\":23395:23396   */\n      0x00\n        /* \"#utility.yul\":23387:23393   */\n      dup3\n        /* \"#utility.yul\":23383:23397   */\n      add\n        /* \"#utility.yul\":23376:23430   */\n      mstore\n        /* \"#utility.yul\":23259:23437   */\n      pop\n      jump\t// out\n        /* \"#utility.yul\":23443:23809   */\n    tag_333:\n        /* \"#utility.yul\":23585:23588   */\n      0x00\n        /* \"#utility.yul\":23606:23673   */\n      tag_537\n        /* \"#utility.yul\":23670:23672   */\n      0x1c\n        /* \"#utility.yul\":23665:23668   */\n      dup4\n        /* \"#utility.yul\":23606:23673   */\n      tag_293\n      jump\t// in\n    tag_537:\n        /* \"#utility.yul\":23599:23673   */\n      swap2\n      pop\n        /* \"#utility.yul\":23682:23775   */\n      tag_538\n        /* \"#utility.yul\":23771:23774   */\n      dup3\n        /* \"#utility.yul\":23682:23775   */\n      tag_332\n      jump\t// in\n    tag_538:\n        /* \"#utility.yul\":23800:23802   */\n      0x20\n        /* \"#utility.yul\":23795:23798   */\n      dup3\n        /* \"#utility.yul\":23791:23803   */\n      add\n        /* \"#utility.yul\":23784:23803   */\n      swap1\n      pop\n        /* \"#utility.yul\":23443:23809   */\n      swap2\n      swap1\n      pop\n      jump\t// out\n        /* \"#utility.yul\":23815:24234   */\n    tag_262:\n        /* \"#utility.yul\":23981:23985   */\n      0x00\n        /* \"#utility.yul\":24019:24021   */\n      0x20\n        /* \"#utility.yul\":24008:24017   */\n      dup3\n        /* \"#utility.yul\":24004:24022   */\n      add\n        /* \"#utility.yul\":23996:24022   */\n      swap1\n      pop\n        /* \"#utility.yul\":24068:24077   */\n      dup2\n        /* \"#utility.yul\":24062:24066   */\n      dup2\n        /* \"#utility.yul\":24058:24078   */\n      sub\n        /* \"#utility.yul\":24054:24055   */\n      0x00\n        /* \"#utility.yul\":24043:24052   */\n      dup4\n        /* \"#utility.yul\":24039:24056   */\n      add\n        /* \"#utility.yul\":24032:24079   */\n      mstore\n        /* \"#utility.yul\":24096:24227   */\n      tag_540\n        /* \"#utility.yul\":24222:24226   */\n      dup2\n        /* \"#utility.yul\":24096:24227   */\n      tag_333\n      jump\t// in\n    tag_540:\n        /* \"#utility.yul\":24088:24227   */\n      swap1\n      pop\n        /* \"#utility.yul\":23815:24234   */\n      swap2\n      swap1\n      pop\n      jump\t// out\n        /* \"#utility.yul\":24240:24467   */\n    tag_334:\n        /* \"#utility.yul\":24380:24414   */\n      0x4661696c656420746f207472616e7366657220457468657220746f20416c6765\n        /* \"#utility.yul\":24376:24377   */\n      0x00\n        /* \"#utility.yul\":24368:24374   */\n      dup3\n        /* \"#utility.yul\":24364:24378   */\n      add\n        /* \"#utility.yul\":24357:24415   */\n      mstore\n        /* \"#utility.yul\":24449:24459   */\n      0x62726120706f6f6c000000000000000000000000000000000000000000000000\n        /* \"#utility.yul\":24444:24446   */\n      0x20\n        /* \"#utility.yul\":24436:24442   */\n      dup3\n        /* \"#utility.yul\":24432:24447   */\n      add\n        /* \"#utility.yul\":24425:24460   */\n      mstore\n        /* \"#utility.yul\":24240:24467   */\n      pop\n      jump\t// out\n        /* \"#utility.yul\":24473:24839   */\n    tag_335:\n        /* \"#utility.yul\":24615:24618   */\n      0x00\n        /* \"#utility.yul\":24636:24703   */\n      tag_543\n        /* \"#utility.yul\":24700:24702   */\n      0x28\n        /* \"#utility.yul\":24695:24698   */\n      dup4\n        /* \"#utility.yul\":24636:24703   */\n      tag_293\n      jump\t// in\n    tag_543:\n        /* \"#utility.yul\":24629:24703   */\n      swap2\n      pop\n        /* \"#utility.yul\":24712:24805   */\n      tag_544\n        /* \"#utility.yul\":24801:24804   */\n      dup3\n        /* \"#utility.yul\":24712:24805   */\n      tag_334\n      jump\t// in\n    tag_544:\n        /* \"#utility.yul\":24830:24832   */\n      0x40\n        /* \"#utility.yul\":24825:24828   */\n      dup3\n        /* \"#utility.yul\":24821:24833   */\n      add\n        /* \"#utility.yul\":24814:24833   */\n      swap1\n      pop\n        /* \"#utility.yul\":24473:24839   */\n      swap2\n      swap1\n      pop\n      jump\t// out\n        /* \"#utility.yul\":24845:25264   */\n    tag_273:\n        /* \"#utility.yul\":25011:25015   */\n      0x00\n        /* \"#utility.yul\":25049:25051   */\n      0x20\n        /* \"#utility.yul\":25038:25047   */\n      dup3\n        /* \"#utility.yul\":25034:25052   */\n      add\n        /* \"#utility.yul\":25026:25052   */\n      swap1\n      pop\n        /* \"#utility.yul\":25098:25107   */\n      dup2\n        /* \"#utility.yul\":25092:25096   */\n      dup2\n        /* \"#utility.yul\":25088:25108   */\n      sub\n        /* \"#utility.yul\":25084:25085   */\n      0x00\n        /* \"#utility.yul\":25073:25082   */\n      dup4\n        /* \"#utility.yul\":25069:25086   */\n      add\n        /* \"#utility.yul\":25062:25109   */\n      mstore\n        /* \"#utility.yul\":25126:25257   */\n      tag_546\n        /* \"#utility.yul\":25252:25256   */\n      dup2\n        /* \"#utility.yul\":25126:25257   */\n      tag_335\n      jump\t// in\n    tag_546:\n        /* \"#utility.yul\":25118:25257   */\n      swap1\n      pop\n        /* \"#utility.yul\":24845:25264   */\n      swap2\n      swap1\n      pop\n      jump\t// out\n\n    auxdata: 0xa264697066735822122069db2d6d65cef44d8126fd9e643db02f47aca4864e2a3d279677bf01b6bc8bac64736f6c634300081a0033\n}\n",
				"bytecode": {
					"linkReferences": {},
					"object": "608060405234801561000f575f80fd5b506040516128c43803806128c48339818101604052810190610031919061024e565b60015f819055505f73ffffffffffffffffffffffffffffffffffffffff168373ffffffffffffffffffffffffffffffffffffffff16036100a6576040517f08c379a000000000000000000000000000000000000000000000000000000000815260040161009d906102f8565b60405180910390fd5b5f73ffffffffffffffffffffffffffffffffffffffff168273ffffffffffffffffffffffffffffffffffffffff1603610114576040517f08c379a000000000000000000000000000000000000000000000000000000000815260040161010b90610386565b60405180910390fd5b8260035f6101000a81548173ffffffffffffffffffffffffffffffffffffffff021916908373ffffffffffffffffffffffffffffffffffffffff1602179055508160025f6101000a81548173ffffffffffffffffffffffffffffffffffffffff021916908373ffffffffffffffffffffffffffffffffffffffff16021790555080600a819055505f600960016101000a81548160ff0219169083151502179055505050506103a4565b5f80fd5b5f73ffffffffffffffffffffffffffffffffffffffff82169050919050565b5f6101ea826101c1565b9050919050565b6101fa816101e0565b8114610204575f80fd5b50565b5f81519050610215816101f1565b92915050565b5f819050919050565b61022d8161021b565b8114610237575f80fd5b50565b5f8151905061024881610224565b92915050565b5f805f60608486031215610265576102646101bd565b5b5f61027286828701610207565b935050602061028386828701610207565b92505060406102948682870161023a565b9150509250925092565b5f82825260208201905092915050565b7f446576656c6f70657220616464726573732063616e6e6f74206265207a65726f5f82015250565b5f6102e260208361029e565b91506102ed826102ae565b602082019050919050565b5f6020820190508181035f83015261030f816102d6565b9050919050565b7f546f6b656e466163746f727920616464726573732063616e6e6f74206265207a5f8201527f65726f0000000000000000000000000000000000000000000000000000000000602082015250565b5f61037060238361029e565b915061037b82610316565b604082019050919050565b5f6020820190508181035f83015261039d81610364565b9050919050565b612513806103b15f395ff3fe60806040526004361061011e575f3560e01c80634f7041a51161009f578063a482171911610063578063a482171914610395578063c98a0aa8146103b3578063c98b7fd2146103db578063cc1776d314610405578063e77772fe1461042f5761011e565b80634f7041a5146102c55780635a76f25e146102ef5780638d5f17aa1461031957806390bc1e851461034357806396343fd51461036d5761011e565b8063299ce7b2116100e6578063299ce7b2146102035780633ad10ef61461022d578063436d334014610257578063443cb4bc1461027f5780634ec81af1146102a95761011e565b806304ccde37146101225780630902f1ac1461014a5780630dfe16811461017557806312185a391461019f5780632397e4d7146101c7575b5f80fd5b34801561012d575f80fd5b5061014860048036038101906101439190611914565b610459565b005b348015610155575f80fd5b5061015e6105dc565b60405161016c929190611957565b60405180910390f35b348015610180575f80fd5b506101896105ec565b604051610196919061198d565b60405180910390f35b3480156101aa575f80fd5b506101c560048036038101906101c091906119d0565b610611565b005b3480156101d2575f80fd5b506101ed60048036038101906101e891906119d0565b6106e5565b6040516101fa91906119fb565b60405180910390f35b34801561020e575f80fd5b50610217610ad2565b6040516102249190611a2e565b60405180910390f35b348015610238575f80fd5b50610241610ae4565b60405161024e919061198d565b60405180910390f35b348015610262575f80fd5b5061027d600480360381019061027891906119d0565b610b09565b005b34801561028a575f80fd5b50610293610bdd565b6040516102a091906119fb565b60405180910390f35b6102c360048036038101906102be9190611a47565b610be3565b005b3480156102d0575f80fd5b506102d9610e05565b6040516102e691906119fb565b60405180910390f35b3480156102fa575f80fd5b50610303610e0b565b60405161031091906119fb565b60405180910390f35b348015610324575f80fd5b5061032d610e11565b60405161033a9190611a2e565b60405180910390f35b34801561034e575f80fd5b50610357610e24565b60405161036491906119fb565b60405180910390f35b348015610378575f80fd5b50610393600480360381019061038e91906119d0565b610e2a565b005b61039d610f3c565b6040516103aa91906119fb565b60405180910390f35b3480156103be575f80fd5b506103d960048036038101906103d49190611ad5565b611288565b005b3480156103e6575f80fd5b506103ef61136b565b6040516103fc919061198d565b60405180910390f35b348015610410575f80fd5b50610419611390565b60405161042691906119fb565b60405180910390f35b34801561043a575f80fd5b50610443611396565b604051610450919061198d565b60405180910390f35b60025f9054906101000a900473ffffffffffffffffffffffffffffffffffffffff1673ffffffffffffffffffffffffffffffffffffffff163373ffffffffffffffffffffffffffffffffffffffff16146104e8576040517f08c379a00000000000000000000000000000000000000000000000000000000081526004016104df90611b5a565b60405180910390fd5b5f73ffffffffffffffffffffffffffffffffffffffff168173ffffffffffffffffffffffffffffffffffffffff1603610556576040517f08c379a000000000000000000000000000000000000000000000000000000000815260040161054d90611be8565b60405180910390fd5b8060045f6101000a81548173ffffffffffffffffffffffffffffffffffffffff021916908373ffffffffffffffffffffffffffffffffffffffff1602179055508073ffffffffffffffffffffffffffffffffffffffff167fe6223ef4a6cc26f11671126040eb90609754df785e229f9fc28e9612ca3380bc60405160405180910390a250565b5f80600554600654915091509091565b60015f9054906101000a900473ffffffffffffffffffffffffffffffffffffffff1681565b60025f9054906101000a900473ffffffffffffffffffffffffffffffffffffffff1673ffffffffffffffffffffffffffffffffffffffff163373ffffffffffffffffffffffffffffffffffffffff16146106a0576040517f08c379a000000000000000000000000000000000000000000000000000000000815260040161069790611b5a565b60405180910390fd5b806008819055507fb841faf0d1b32571f4ef966a2f35e3ae51f3cdda45318c3da5570a5b2ad85605600754826040516106da929190611957565b60405180910390a150565b5f6106ee6113bb565b60095f9054906101000a900460ff161561073d576040517f08c379a000000000000000000000000000000000000000000000000000000000815260040161073490611c50565b60405180910390fd5b5f821161077f576040517f08c379a000000000000000000000000000000000000000000000000000000000815260040161077690611cb8565b60405180910390fd5b5f6103e8600854846107919190611d03565b61079b9190611d71565b90505f81846107aa9190611da1565b905060015f9054906101000a900473ffffffffffffffffffffffffffffffffffffffff1673ffffffffffffffffffffffffffffffffffffffff166323b872dd3330876040518463ffffffff1660e01b815260040161080a93929190611dd4565b6020604051808303815f875af1158015610826573d5f803e3d5ffd5b505050506040513d601f19601f8201168201806040525081019061084a9190611e1d565b5060015f9054906101000a900473ffffffffffffffffffffffffffffffffffffffff1673ffffffffffffffffffffffffffffffffffffffff1663a9059cbb60035f9054906101000a900473ffffffffffffffffffffffffffffffffffffffff16846040518363ffffffff1660e01b81526004016108c8929190611e48565b6020604051808303815f875af11580156108e4573d5f803e3d5ffd5b505050506040513d601f19601f820116820180604052508101906109089190611e1d565b505f816005546109189190611e6f565b90508060065460055461092b9190611d03565b6109359190611d71565b6006546109429190611da1565b9350806005819055508360065f82825461095c9190611da1565b925050819055505f3373ffffffffffffffffffffffffffffffffffffffff168560405161098890611ecf565b5f6040518083038185875af1925050503d805f81146109c2576040519150601f19603f3d011682016040523d82523d5f602084013e6109c7565b606091505b5050905080610a0b576040517f08c379a0000000000000000000000000000000000000000000000000000000008152600401610a0290611f2d565b60405180910390fd5b5f73ffffffffffffffffffffffffffffffffffffffff1660015f9054906101000a900473ffffffffffffffffffffffffffffffffffffffff1673ffffffffffffffffffffffffffffffffffffffff167ffa2dda1cc1b86e41239702756b13effbc1a092b5c57e3ad320fbe4f3b13fe2358888604051610a8b929190611957565b60405180910390a3600960019054906101000a900460ff168015610ab35750600a5460065410155b15610ac157610ac06113ff565b5b50505050610acd6118ad565b919050565b60095f9054906101000a900460ff1681565b60035f9054906101000a900473ffffffffffffffffffffffffffffffffffffffff1681565b60025f9054906101000a900473ffffffffffffffffffffffffffffffffffffffff1673ffffffffffffffffffffffffffffffffffffffff163373ffffffffffffffffffffffffffffffffffffffff1614610b98576040517f08c379a0000000000000000000000000000000000000000000000000000000008152600401610b8f90611b5a565b60405180910390fd5b806007819055507fb841faf0d1b32571f4ef966a2f35e3ae51f3cdda45318c3da5570a5b2ad8560581600854604051610bd2929190611957565b60405180910390a150565b60055481565b60025f9054906101000a900473ffffffffffffffffffffffffffffffffffffffff1673ffffffffffffffffffffffffffffffffffffffff163373ffffffffffffffffffffffffffffffffffffffff1614610c72576040517f08c379a0000000000000000000000000000000000000000000000000000000008152600401610c6990611b5a565b60405180910390fd5b610c7a6113bb565b5f73ffffffffffffffffffffffffffffffffffffffff1660015f9054906101000a900473ffffffffffffffffffffffffffffffffffffffff1673ffffffffffffffffffffffffffffffffffffffff1614610d09576040517f08c379a0000000000000000000000000000000000000000000000000000000008152600401610d0090611f95565b60405180910390fd5b5f3411610d4b576040517f08c379a0000000000000000000000000000000000000000000000000000000008152600401610d4290612023565b60405180910390fd5b8360015f6101000a81548173ffffffffffffffffffffffffffffffffffffffff021916908373ffffffffffffffffffffffffffffffffffffffff160217905550826005819055503460068190555081600781905550806008819055503373ffffffffffffffffffffffffffffffffffffffff167fac1d76749e5447b7b16f5ab61447e1bd502f3bb4807af3b28e620d1700a6ee458434604051610def929190611957565b60405180910390a2610dff6118ad565b50505050565b60075481565b60065481565b600960019054906101000a900460ff1681565b600a5481565b60025f9054906101000a900473ffffffffffffffffffffffffffffffffffffffff1673ffffffffffffffffffffffffffffffffffffffff163373ffffffffffffffffffffffffffffffffffffffff1614610eb9576040517f08c379a0000000000000000000000000000000000000000000000000000000008152600401610eb090611b5a565b60405180910390fd5b5f8111610efb576040517f08c379a0000000000000000000000000000000000000000000000000000000008152600401610ef2906120b1565b60405180910390fd5b80600a819055507f4ad9ae9229776f627d7d2be995964376397890e11bbfa94e8826810419a6ef6b81604051610f3191906119fb565b60405180910390a150565b5f610f456113bb565b60095f9054906101000a900460ff1615610f94576040517f08c379a0000000000000000000000000000000000000000000000000000000008152600401610f8b90611c50565b60405180910390fd5b5f3411610fd6576040517f08c379a0000000000000000000000000000000000000000000000000000000008152600401610fcd90612119565b60405180910390fd5b5f6103e860075434610fe89190611d03565b610ff29190611d71565b90505f81346110019190611da1565b90505f60035f9054906101000a900473ffffffffffffffffffffffffffffffffffffffff1673ffffffffffffffffffffffffffffffffffffffff168360405161104990611ecf565b5f6040518083038185875af1925050503d805f8114611083576040519150601f19603f3d011682016040523d82523d5f602084013e611088565b606091505b50509050806110cc576040517f08c379a00000000000000000000000000000000000000000000000000000000081526004016110c3906121a7565b60405180910390fd5b5f826006546110db9190611e6f565b9050806006546005546110ee9190611d03565b6110f89190611d71565b6005546111059190611da1565b9450806006819055508460055f82825461111f9190611da1565b9250508190555060015f9054906101000a900473ffffffffffffffffffffffffffffffffffffffff1673ffffffffffffffffffffffffffffffffffffffff1663a9059cbb33876040518363ffffffff1660e01b8152600401611182929190611e48565b6020604051808303815f875af115801561119e573d5f803e3d5ffd5b505050506040513d601f19601f820116820180604052508101906111c29190611e1d565b5060015f9054906101000a900473ffffffffffffffffffffffffffffffffffffffff1673ffffffffffffffffffffffffffffffffffffffff165f73ffffffffffffffffffffffffffffffffffffffff167ffa2dda1cc1b86e41239702756b13effbc1a092b5c57e3ad320fbe4f3b13fe2353488604051611243929190611957565b60405180910390a3600960019054906101000a900460ff16801561126b5750600a5460065410155b15611279576112786113ff565b5b505050506112856118ad565b90565b60025f9054906101000a900473ffffffffffffffffffffffffffffffffffffffff1673ffffffffffffffffffffffffffffffffffffffff163373ffffffffffffffffffffffffffffffffffffffff1614611317576040517f08c379a000000000000000000000000000000000000000000000000000000000815260040161130e90611b5a565b60405180910390fd5b80600960016101000a81548160ff0219169083151502179055507fe7e0bd136ab3b57e3e925774a811e2482df79072fa45d011a4f088abfcc209d2816040516113609190611a2e565b60405180910390a150565b60045f9054906101000a900473ffffffffffffffffffffffffffffffffffffffff1681565b60085481565b60025f9054906101000a900473ffffffffffffffffffffffffffffffffffffffff1681565b60025f54036113f6576040517f3ee5aeb500000000000000000000000000000000000000000000000000000000815260040160405180910390fd5b60025f81905550565b6114076113bb565b60095f9054906101000a900460ff1615611456576040517f08c379a000000000000000000000000000000000000000000000000000000000815260040161144d9061220f565b60405180910390fd5b5f73ffffffffffffffffffffffffffffffffffffffff1660045f9054906101000a900473ffffffffffffffffffffffffffffffffffffffff1673ffffffffffffffffffffffffffffffffffffffff16036114e5576040517f08c379a00000000000000000000000000000000000000000000000000000000081526004016114dc9061229d565b60405180910390fd5b5f60015f9054906101000a900473ffffffffffffffffffffffffffffffffffffffff16604051602401611518919061198d565b6040516020818303038152906040527f9049f9d2000000000000000000000000000000000000000000000000000000007bffffffffffffffffffffffffffffffffffffffffffffffffffffffff19166020820180517bffffffffffffffffffffffffffffffffffffffffffffffffffffffff838183161783525050505090505f8060045f9054906101000a900473ffffffffffffffffffffffffffffffffffffffff1673ffffffffffffffffffffffffffffffffffffffff16836040516115df9190612303565b5f604051808303815f865af19150503d805f8114611618576040519150601f19603f3d011682016040523d82523d5f602084013e61161d565b606091505b509150915081611662576040517f08c379a000000000000000000000000000000000000000000000000000000000815260040161165990612363565b60405180910390fd5b5f8180602001905181019061167791906123bc565b90505f73ffffffffffffffffffffffffffffffffffffffff168173ffffffffffffffffffffffffffffffffffffffff16036116e7576040517f08c379a00000000000000000000000000000000000000000000000000000000081526004016116de90612431565b60405180910390fd5b60015f9054906101000a900473ffffffffffffffffffffffffffffffffffffffff1673ffffffffffffffffffffffffffffffffffffffff1663a9059cbb826005546040518363ffffffff1660e01b8152600401611745929190611e48565b6020604051808303815f875af1158015611761573d5f803e3d5ffd5b505050506040513d601f19601f820116820180604052508101906117859190611e1d565b505f8173ffffffffffffffffffffffffffffffffffffffff166006546040516117ad90611ecf565b5f6040518083038185875af1925050503d805f81146117e7576040519150601f19603f3d011682016040523d82523d5f602084013e6117ec565b606091505b5050905080611830576040517f08c379a0000000000000000000000000000000000000000000000000000000008152600401611827906124bf565b60405180910390fd5b600160095f6101000a81548160ff0219169083151502179055508173ffffffffffffffffffffffffffffffffffffffff167f681fa2c4629192623c409b90cb2463cea250bd2012f3ac5f34af5cfa45d4822a600554600654604051611896929190611957565b60405180910390a250505050506118ab6118ad565b565b60015f81905550565b5f80fd5b5f73ffffffffffffffffffffffffffffffffffffffff82169050919050565b5f6118e3826118ba565b9050919050565b6118f3816118d9565b81146118fd575f80fd5b50565b5f8135905061190e816118ea565b92915050565b5f60208284031215611929576119286118b6565b5b5f61193684828501611900565b91505092915050565b5f819050919050565b6119518161193f565b82525050565b5f60408201905061196a5f830185611948565b6119776020830184611948565b9392505050565b611987816118d9565b82525050565b5f6020820190506119a05f83018461197e565b92915050565b6119af8161193f565b81146119b9575f80fd5b50565b5f813590506119ca816119a6565b92915050565b5f602082840312156119e5576119e46118b6565b5b5f6119f2848285016119bc565b91505092915050565b5f602082019050611a0e5f830184611948565b92915050565b5f8115159050919050565b611a2881611a14565b82525050565b5f602082019050611a415f830184611a1f565b92915050565b5f805f8060808587031215611a5f57611a5e6118b6565b5b5f611a6c87828801611900565b9450506020611a7d878288016119bc565b9350506040611a8e878288016119bc565b9250506060611a9f878288016119bc565b91505092959194509250565b611ab481611a14565b8114611abe575f80fd5b50565b5f81359050611acf81611aab565b92915050565b5f60208284031215611aea57611ae96118b6565b5b5f611af784828501611ac1565b91505092915050565b5f82825260208201905092915050565b7f43616c6c6572206973206e6f742074686520546f6b656e466163746f727900005f82015250565b5f611b44601e83611b00565b9150611b4f82611b10565b602082019050919050565b5f6020820190508181035f830152611b7181611b38565b9050919050565b7f496e697469616c697a657220616464726573732063616e6e6f74206265207a655f8201527f726f000000000000000000000000000000000000000000000000000000000000602082015250565b5f611bd2602283611b00565b9150611bdd82611b78565b604082019050919050565b5f6020820190508181035f830152611bff81611bc6565b9050919050565b7f506f6f6c206d6967726174656420746f20416c676562726100000000000000005f82015250565b5f611c3a601883611b00565b9150611c4582611c06565b602082019050919050565b5f6020820190508181035f830152611c6781611c2e565b9050919050565b7f4d7573742073656c6c20736f6d6520746f6b656e7300000000000000000000005f82015250565b5f611ca2601583611b00565b9150611cad82611c6e565b602082019050919050565b5f6020820190508181035f830152611ccf81611c96565b9050919050565b7f4e487b71000000000000000000000000000000000000000000000000000000005f52601160045260245ffd5b5f611d0d8261193f565b9150611d188361193f565b9250828202611d268161193f565b91508282048414831517611d3d57611d3c611cd6565b5b5092915050565b7f4e487b71000000000000000000000000000000000000000000000000000000005f52601260045260245ffd5b5f611d7b8261193f565b9150611d868361193f565b925082611d9657611d95611d44565b5b828204905092915050565b5f611dab8261193f565b9150611db68361193f565b9250828203905081811115611dce57611dcd611cd6565b5b92915050565b5f606082019050611de75f83018661197e565b611df4602083018561197e565b611e016040830184611948565b949350505050565b5f81519050611e1781611aab565b92915050565b5f60208284031215611e3257611e316118b6565b5b5f611e3f84828501611e09565b91505092915050565b5f604082019050611e5b5f83018561197e565b611e686020830184611948565b9392505050565b5f611e798261193f565b9150611e848361193f565b9250828201905080821115611e9c57611e9b611cd6565b5b92915050565b5f81905092915050565b50565b5f611eba5f83611ea2565b9150611ec582611eac565b5f82019050919050565b5f611ed982611eaf565b9150819050919050565b7f4574686572207472616e73666572206661696c656400000000000000000000005f82015250565b5f611f17601583611b00565b9150611f2282611ee3565b602082019050919050565b5f6020820190508181035f830152611f4481611f0b565b9050919050565b7f506f6f6c20616c726561647920696e697469616c697a656400000000000000005f82015250565b5f611f7f601883611b00565b9150611f8a82611f4b565b602082019050919050565b5f6020820190508181035f830152611fac81611f73565b9050919050565b7f496e697469616c206e61746976652063757272656e63792072657365727665205f8201527f7265717569726564000000000000000000000000000000000000000000000000602082015250565b5f61200d602883611b00565b915061201882611fb3565b604082019050919050565b5f6020820190508181035f83015261203a81612001565b9050919050565b7f5468726573686f6c64206d7573742062652067726561746572207468616e207a5f8201527f65726f0000000000000000000000000000000000000000000000000000000000602082015250565b5f61209b602383611b00565b91506120a682612041565b604082019050919050565b5f6020820190508181035f8301526120c88161208f565b9050919050565b7f4d7573742073656e6420457468657220746f2062757920746f6b656e730000005f82015250565b5f612103601d83611b00565b915061210e826120cf565b602082019050919050565b5f6020820190508181035f830152612130816120f7565b9050919050565b7f4661696c656420746f2073656e642074617820746f20646576206164647265735f8201527f7300000000000000000000000000000000000000000000000000000000000000602082015250565b5f612191602183611b00565b915061219c82612137565b604082019050919050565b5f6020820190508181035f8301526121be81612185565b9050919050565b7f416c7265616479206d6967726174656420746f20416c676562726100000000005f82015250565b5f6121f9601b83611b00565b9150612204826121c5565b602082019050919050565b5f6020820190508181035f830152612226816121ed565b9050919050565b7f416c676562726120506f6f6c496e697469616c697a65722061646472657373205f8201527f6e6f742073657400000000000000000000000000000000000000000000000000602082015250565b5f612287602783611b00565b91506122928261222d565b604082019050919050565b5f6020820190508181035f8301526122b48161227b565b9050919050565b5f81519050919050565b8281835e5f83830152505050565b5f6122dd826122bb565b6122e78185611ea2565b93506122f78185602086016122c5565b80840191505092915050565b5f61230e82846122d3565b915081905092915050565b7f416c676562726120706f6f6c206372656174696f6e206661696c6564000000005f82015250565b5f61234d601c83611b00565b915061235882612319565b602082019050919050565b5f6020820190508181035f83015261237a81612341565b9050919050565b5f61238b826118ba565b9050919050565b61239b81612381565b81146123a5575f80fd5b50565b5f815190506123b681612392565b92915050565b5f602082840312156123d1576123d06118b6565b5b5f6123de848285016123a8565b91505092915050565b7f496e76616c696420416c676562726120706f6f6c2061646472657373000000005f82015250565b5f61241b601c83611b00565b9150612426826123e7565b602082019050919050565b5f6020820190508181035f8301526124488161240f565b9050919050565b7f4661696c656420746f207472616e7366657220457468657220746f20416c67655f8201527f62726120706f6f6c000000000000000000000000000000000000000000000000602082015250565b5f6124a9602883611b00565b91506124b48261244f565b604082019050919050565b5f6020820190508181035f8301526124d68161249d565b905091905056fea264697066735822122069db2d6d65cef44d8126fd9e643db02f47aca4864e2a3d279677bf01b6bc8bac64736f6c634300081a0033",
					"opcodes": "PUSH1 0x80 PUSH1 0x40 MSTORE CALLVALUE DUP1 ISZERO PUSH2 0xF JUMPI PUSH0 DUP1 REVERT JUMPDEST POP PUSH1 0x40 MLOAD PUSH2 0x28C4 CODESIZE SUB DUP1 PUSH2 0x28C4 DUP4 CODECOPY DUP2 DUP2 ADD PUSH1 0x40 MSTORE DUP2 ADD SWAP1 PUSH2 0x31 SWAP2 SWAP1 PUSH2 0x24E JUMP JUMPDEST PUSH1 0x1 PUSH0 DUP2 SWAP1 SSTORE POP PUSH0 PUSH20 0xFFFFFFFFFFFFFFFFFFFFFFFFFFFFFFFFFFFFFFFF AND DUP4 PUSH20 0xFFFFFFFFFFFFFFFFFFFFFFFFFFFFFFFFFFFFFFFF AND SUB PUSH2 0xA6 JUMPI PUSH1 0x40 MLOAD PUSH32 0x8C379A000000000000000000000000000000000000000000000000000000000 DUP2 MSTORE PUSH1 0x4 ADD PUSH2 0x9D SWAP1 PUSH2 0x2F8 JUMP JUMPDEST PUSH1 0x40 MLOAD DUP1 SWAP2 SUB SWAP1 REVERT JUMPDEST PUSH0 PUSH20 0xFFFFFFFFFFFFFFFFFFFFFFFFFFFFFFFFFFFFFFFF AND DUP3 PUSH20 0xFFFFFFFFFFFFFFFFFFFFFFFFFFFFFFFFFFFFFFFF AND SUB PUSH2 0x114 JUMPI PUSH1 0x40 MLOAD PUSH32 0x8C379A000000000000000000000000000000000000000000000000000000000 DUP2 MSTORE PUSH1 0x4 ADD PUSH2 0x10B SWAP1 PUSH2 0x386 JUMP JUMPDEST PUSH1 0x40 MLOAD DUP1 SWAP2 SUB SWAP1 REVERT JUMPDEST DUP3 PUSH1 0x3 PUSH0 PUSH2 0x100 EXP DUP2 SLOAD DUP2 PUSH20 0xFFFFFFFFFFFFFFFFFFFFFFFFFFFFFFFFFFFFFFFF MUL NOT AND SWAP1 DUP4 PUSH20 0xFFFFFFFFFFFFFFFFFFFFFFFFFFFFFFFFFFFFFFFF AND MUL OR SWAP1 SSTORE POP DUP2 PUSH1 0x2 PUSH0 PUSH2 0x100 EXP DUP2 SLOAD DUP2 PUSH20 0xFFFFFFFFFFFFFFFFFFFFFFFFFFFFFFFFFFFFFFFF MUL NOT AND SWAP1 DUP4 PUSH20 0xFFFFFFFFFFFFFFFFFFFFFFFFFFFFFFFFFFFFFFFF AND MUL OR SWAP1 SSTORE POP DUP1 PUSH1 0xA DUP2 SWAP1 SSTORE POP PUSH0 PUSH1 0x9 PUSH1 0x1 PUSH2 0x100 EXP DUP2 SLOAD DUP2 PUSH1 0xFF MUL NOT AND SWAP1 DUP4 ISZERO ISZERO MUL OR SWAP1 SSTORE POP POP POP POP PUSH2 0x3A4 JUMP JUMPDEST PUSH0 DUP1 REVERT JUMPDEST PUSH0 PUSH20 0xFFFFFFFFFFFFFFFFFFFFFFFFFFFFFFFFFFFFFFFF DUP3 AND SWAP1 POP SWAP2 SWAP1 POP JUMP JUMPDEST PUSH0 PUSH2 0x1EA DUP3 PUSH2 0x1C1 JUMP JUMPDEST SWAP1 POP SWAP2 SWAP1 POP JUMP JUMPDEST PUSH2 0x1FA DUP2 PUSH2 0x1E0 JUMP JUMPDEST DUP2 EQ PUSH2 0x204 JUMPI PUSH0 DUP1 REVERT JUMPDEST POP JUMP JUMPDEST PUSH0 DUP2 MLOAD SWAP1 POP PUSH2 0x215 DUP2 PUSH2 0x1F1 JUMP JUMPDEST SWAP3 SWAP2 POP POP JUMP JUMPDEST PUSH0 DUP2 SWAP1 POP SWAP2 SWAP1 POP JUMP JUMPDEST PUSH2 0x22D DUP2 PUSH2 0x21B JUMP JUMPDEST DUP2 EQ PUSH2 0x237 JUMPI PUSH0 DUP1 REVERT JUMPDEST POP JUMP JUMPDEST PUSH0 DUP2 MLOAD SWAP1 POP PUSH2 0x248 DUP2 PUSH2 0x224 JUMP JUMPDEST SWAP3 SWAP2 POP POP JUMP JUMPDEST PUSH0 DUP1 PUSH0 PUSH1 0x60 DUP5 DUP7 SUB SLT ISZERO PUSH2 0x265 JUMPI PUSH2 0x264 PUSH2 0x1BD JUMP JUMPDEST JUMPDEST PUSH0 PUSH2 0x272 DUP7 DUP3 DUP8 ADD PUSH2 0x207 JUMP JUMPDEST SWAP4 POP POP PUSH1 0x20 PUSH2 0x283 DUP7 DUP3 DUP8 ADD PUSH2 0x207 JUMP JUMPDEST SWAP3 POP POP PUSH1 0x40 PUSH2 0x294 DUP7 DUP3 DUP8 ADD PUSH2 0x23A JUMP JUMPDEST SWAP2 POP POP SWAP3 POP SWAP3 POP SWAP3 JUMP JUMPDEST PUSH0 DUP3 DUP3 MSTORE PUSH1 0x20 DUP3 ADD SWAP1 POP SWAP3 SWAP2 POP POP JUMP JUMPDEST PUSH32 0x446576656C6F70657220616464726573732063616E6E6F74206265207A65726F PUSH0 DUP3 ADD MSTORE POP JUMP JUMPDEST PUSH0 PUSH2 0x2E2 PUSH1 0x20 DUP4 PUSH2 0x29E JUMP JUMPDEST SWAP2 POP PUSH2 0x2ED DUP3 PUSH2 0x2AE JUMP JUMPDEST PUSH1 0x20 DUP3 ADD SWAP1 POP SWAP2 SWAP1 POP JUMP JUMPDEST PUSH0 PUSH1 0x20 DUP3 ADD SWAP1 POP DUP2 DUP2 SUB PUSH0 DUP4 ADD MSTORE PUSH2 0x30F DUP2 PUSH2 0x2D6 JUMP JUMPDEST SWAP1 POP SWAP2 SWAP1 POP JUMP JUMPDEST PUSH32 0x546F6B656E466163746F727920616464726573732063616E6E6F74206265207A PUSH0 DUP3 ADD MSTORE PUSH32 0x65726F0000000000000000000000000000000000000000000000000000000000 PUSH1 0x20 DUP3 ADD MSTORE POP JUMP JUMPDEST PUSH0 PUSH2 0x370 PUSH1 0x23 DUP4 PUSH2 0x29E JUMP JUMPDEST SWAP2 POP PUSH2 0x37B DUP3 PUSH2 0x316 JUMP JUMPDEST PUSH1 0x40 DUP3 ADD SWAP1 POP SWAP2 SWAP1 POP JUMP JUMPDEST PUSH0 PUSH1 0x20 DUP3 ADD SWAP1 POP DUP2 DUP2 SUB PUSH0 DUP4 ADD MSTORE PUSH2 0x39D DUP2 PUSH2 0x364 JUMP JUMPDEST SWAP1 POP SWAP2 SWAP1 POP JUMP JUMPDEST PUSH2 0x2513 DUP1 PUSH2 0x3B1 PUSH0 CODECOPY PUSH0 RETURN INVALID PUSH1 0x80 PUSH1 0x40 MSTORE PUSH1 0x4 CALLDATASIZE LT PUSH2 0x11E JUMPI PUSH0 CALLDATALOAD PUSH1 0xE0 SHR DUP1 PUSH4 0x4F7041A5 GT PUSH2 0x9F JUMPI DUP1 PUSH4 0xA4821719 GT PUSH2 0x63 JUMPI DUP1 PUSH4 0xA4821719 EQ PUSH2 0x395 JUMPI DUP1 PUSH4 0xC98A0AA8 EQ PUSH2 0x3B3 JUMPI DUP1 PUSH4 0xC98B7FD2 EQ PUSH2 0x3DB JUMPI DUP1 PUSH4 0xCC1776D3 EQ PUSH2 0x405 JUMPI DUP1 PUSH4 0xE77772FE EQ PUSH2 0x42F JUMPI PUSH2 0x11E JUMP JUMPDEST DUP1 PUSH4 0x4F7041A5 EQ PUSH2 0x2C5 JUMPI DUP1 PUSH4 0x5A76F25E EQ PUSH2 0x2EF JUMPI DUP1 PUSH4 0x8D5F17AA EQ PUSH2 0x319 JUMPI DUP1 PUSH4 0x90BC1E85 EQ PUSH2 0x343 JUMPI DUP1 PUSH4 0x96343FD5 EQ PUSH2 0x36D JUMPI PUSH2 0x11E JUMP JUMPDEST DUP1 PUSH4 0x299CE7B2 GT PUSH2 0xE6 JUMPI DUP1 PUSH4 0x299CE7B2 EQ PUSH2 0x203 JUMPI DUP1 PUSH4 0x3AD10EF6 EQ PUSH2 0x22D JUMPI DUP1 PUSH4 0x436D3340 EQ PUSH2 0x257 JUMPI DUP1 PUSH4 0x443CB4BC EQ PUSH2 0x27F JUMPI DUP1 PUSH4 0x4EC81AF1 EQ PUSH2 0x2A9 JUMPI PUSH2 0x11E JUMP JUMPDEST DUP1 PUSH4 0x4CCDE37 EQ PUSH2 0x122 JUMPI DUP1 PUSH4 0x902F1AC EQ PUSH2 0x14A JUMPI DUP1 PUSH4 0xDFE1681 EQ PUSH2 0x175 JUMPI DUP1 PUSH4 0x12185A39 EQ PUSH2 0x19F JUMPI DUP1 PUSH4 0x2397E4D7 EQ PUSH2 0x1C7 JUMPI JUMPDEST PUSH0 DUP1 REVERT JUMPDEST CALLVALUE DUP1 ISZERO PUSH2 0x12D JUMPI PUSH0 DUP1 REVERT JUMPDEST POP PUSH2 0x148 PUSH1 0x4 DUP1 CALLDATASIZE SUB DUP2 ADD SWAP1 PUSH2 0x143 SWAP2 SWAP1 PUSH2 0x1914 JUMP JUMPDEST PUSH2 0x459 JUMP JUMPDEST STOP JUMPDEST CALLVALUE DUP1 ISZERO PUSH2 0x155 JUMPI PUSH0 DUP1 REVERT JUMPDEST POP PUSH2 0x15E PUSH2 0x5DC JUMP JUMPDEST PUSH1 0x40 MLOAD PUSH2 0x16C SWAP3 SWAP2 SWAP1 PUSH2 0x1957 JUMP JUMPDEST PUSH1 0x40 MLOAD DUP1 SWAP2 SUB SWAP1 RETURN JUMPDEST CALLVALUE DUP1 ISZERO PUSH2 0x180 JUMPI PUSH0 DUP1 REVERT JUMPDEST POP PUSH2 0x189 PUSH2 0x5EC JUMP JUMPDEST PUSH1 0x40 MLOAD PUSH2 0x196 SWAP2 SWAP1 PUSH2 0x198D JUMP JUMPDEST PUSH1 0x40 MLOAD DUP1 SWAP2 SUB SWAP1 RETURN JUMPDEST CALLVALUE DUP1 ISZERO PUSH2 0x1AA JUMPI PUSH0 DUP1 REVERT JUMPDEST POP PUSH2 0x1C5 PUSH1 0x4 DUP1 CALLDATASIZE SUB DUP2 ADD SWAP1 PUSH2 0x1C0 SWAP2 SWAP1 PUSH2 0x19D0 JUMP JUMPDEST PUSH2 0x611 JUMP JUMPDEST STOP JUMPDEST CALLVALUE DUP1 ISZERO PUSH2 0x1D2 JUMPI PUSH0 DUP1 REVERT JUMPDEST POP PUSH2 0x1ED PUSH1 0x4 DUP1 CALLDATASIZE SUB DUP2 ADD SWAP1 PUSH2 0x1E8 SWAP2 SWAP1 PUSH2 0x19D0 JUMP JUMPDEST PUSH2 0x6E5 JUMP JUMPDEST PUSH1 0x40 MLOAD PUSH2 0x1FA SWAP2 SWAP1 PUSH2 0x19FB JUMP JUMPDEST PUSH1 0x40 MLOAD DUP1 SWAP2 SUB SWAP1 RETURN JUMPDEST CALLVALUE DUP1 ISZERO PUSH2 0x20E JUMPI PUSH0 DUP1 REVERT JUMPDEST POP PUSH2 0x217 PUSH2 0xAD2 JUMP JUMPDEST PUSH1 0x40 MLOAD PUSH2 0x224 SWAP2 SWAP1 PUSH2 0x1A2E JUMP JUMPDEST PUSH1 0x40 MLOAD DUP1 SWAP2 SUB SWAP1 RETURN JUMPDEST CALLVALUE DUP1 ISZERO PUSH2 0x238 JUMPI PUSH0 DUP1 REVERT JUMPDEST POP PUSH2 0x241 PUSH2 0xAE4 JUMP JUMPDEST PUSH1 0x40 MLOAD PUSH2 0x24E SWAP2 SWAP1 PUSH2 0x198D JUMP JUMPDEST PUSH1 0x40 MLOAD DUP1 SWAP2 SUB SWAP1 RETURN JUMPDEST CALLVALUE DUP1 ISZERO PUSH2 0x262 JUMPI PUSH0 DUP1 REVERT JUMPDEST POP PUSH2 0x27D PUSH1 0x4 DUP1 CALLDATASIZE SUB DUP2 ADD SWAP1 PUSH2 0x278 SWAP2 SWAP1 PUSH2 0x19D0 JUMP JUMPDEST PUSH2 0xB09 JUMP JUMPDEST STOP JUMPDEST CALLVALUE DUP1 ISZERO PUSH2 0x28A JUMPI PUSH0 DUP1 REVERT JUMPDEST POP PUSH2 0x293 PUSH2 0xBDD JUMP JUMPDEST PUSH1 0x40 MLOAD PUSH2 0x2A0 SWAP2 SWAP1 PUSH2 0x19FB JUMP JUMPDEST PUSH1 0x40 MLOAD DUP1 SWAP2 SUB SWAP1 RETURN JUMPDEST PUSH2 0x2C3 PUSH1 0x4 DUP1 CALLDATASIZE SUB DUP2 ADD SWAP1 PUSH2 0x2BE SWAP2 SWAP1 PUSH2 0x1A47 JUMP JUMPDEST PUSH2 0xBE3 JUMP JUMPDEST STOP JUMPDEST CALLVALUE DUP1 ISZERO PUSH2 0x2D0 JUMPI PUSH0 DUP1 REVERT JUMPDEST POP PUSH2 0x2D9 PUSH2 0xE05 JUMP JUMPDEST PUSH1 0x40 MLOAD PUSH2 0x2E6 SWAP2 SWAP1 PUSH2 0x19FB JUMP JUMPDEST PUSH1 0x40 MLOAD DUP1 SWAP2 SUB SWAP1 RETURN JUMPDEST CALLVALUE DUP1 ISZERO PUSH2 0x2FA JUMPI PUSH0 DUP1 REVERT JUMPDEST POP PUSH2 0x303 PUSH2 0xE0B JUMP JUMPDEST PUSH1 0x40 MLOAD PUSH2 0x310 SWAP2 SWAP1 PUSH2 0x19FB JUMP JUMPDEST PUSH1 0x40 MLOAD DUP1 SWAP2 SUB SWAP1 RETURN JUMPDEST CALLVALUE DUP1 ISZERO PUSH2 0x324 JUMPI PUSH0 DUP1 REVERT JUMPDEST POP PUSH2 0x32D PUSH2 0xE11 JUMP JUMPDEST PUSH1 0x40 MLOAD PUSH2 0x33A SWAP2 SWAP1 PUSH2 0x1A2E JUMP JUMPDEST PUSH1 0x40 MLOAD DUP1 SWAP2 SUB SWAP1 RETURN JUMPDEST CALLVALUE DUP1 ISZERO PUSH2 0x34E JUMPI PUSH0 DUP1 REVERT JUMPDEST POP PUSH2 0x357 PUSH2 0xE24 JUMP JUMPDEST PUSH1 0x40 MLOAD PUSH2 0x364 SWAP2 SWAP1 PUSH2 0x19FB JUMP JUMPDEST PUSH1 0x40 MLOAD DUP1 SWAP2 SUB SWAP1 RETURN JUMPDEST CALLVALUE DUP1 ISZERO PUSH2 0x378 JUMPI PUSH0 DUP1 REVERT JUMPDEST POP PUSH2 0x393 PUSH1 0x4 DUP1 CALLDATASIZE SUB DUP2 ADD SWAP1 PUSH2 0x38E SWAP2 SWAP1 PUSH2 0x19D0 JUMP JUMPDEST PUSH2 0xE2A JUMP JUMPDEST STOP JUMPDEST PUSH2 0x39D PUSH2 0xF3C JUMP JUMPDEST PUSH1 0x40 MLOAD PUSH2 0x3AA SWAP2 SWAP1 PUSH2 0x19FB JUMP JUMPDEST PUSH1 0x40 MLOAD DUP1 SWAP2 SUB SWAP1 RETURN JUMPDEST CALLVALUE DUP1 ISZERO PUSH2 0x3BE JUMPI PUSH0 DUP1 REVERT JUMPDEST POP PUSH2 0x3D9 PUSH1 0x4 DUP1 CALLDATASIZE SUB DUP2 ADD SWAP1 PUSH2 0x3D4 SWAP2 SWAP1 PUSH2 0x1AD5 JUMP JUMPDEST PUSH2 0x1288 JUMP JUMPDEST STOP JUMPDEST CALLVALUE DUP1 ISZERO PUSH2 0x3E6 JUMPI PUSH0 DUP1 REVERT JUMPDEST POP PUSH2 0x3EF PUSH2 0x136B JUMP JUMPDEST PUSH1 0x40 MLOAD PUSH2 0x3FC SWAP2 SWAP1 PUSH2 0x198D JUMP JUMPDEST PUSH1 0x40 MLOAD DUP1 SWAP2 SUB SWAP1 RETURN JUMPDEST CALLVALUE DUP1 ISZERO PUSH2 0x410 JUMPI PUSH0 DUP1 REVERT JUMPDEST POP PUSH2 0x419 PUSH2 0x1390 JUMP JUMPDEST PUSH1 0x40 MLOAD PUSH2 0x426 SWAP2 SWAP1 PUSH2 0x19FB JUMP JUMPDEST PUSH1 0x40 MLOAD DUP1 SWAP2 SUB SWAP1 RETURN JUMPDEST CALLVALUE DUP1 ISZERO PUSH2 0x43A JUMPI PUSH0 DUP1 REVERT JUMPDEST POP PUSH2 0x443 PUSH2 0x1396 JUMP JUMPDEST PUSH1 0x40 MLOAD PUSH2 0x450 SWAP2 SWAP1 PUSH2 0x198D JUMP JUMPDEST PUSH1 0x40 MLOAD DUP1 SWAP2 SUB SWAP1 RETURN JUMPDEST PUSH1 0x2 PUSH0 SWAP1 SLOAD SWAP1 PUSH2 0x100 EXP SWAP1 DIV PUSH20 0xFFFFFFFFFFFFFFFFFFFFFFFFFFFFFFFFFFFFFFFF AND PUSH20 0xFFFFFFFFFFFFFFFFFFFFFFFFFFFFFFFFFFFFFFFF AND CALLER PUSH20 0xFFFFFFFFFFFFFFFFFFFFFFFFFFFFFFFFFFFFFFFF AND EQ PUSH2 0x4E8 JUMPI PUSH1 0x40 MLOAD PUSH32 0x8C379A000000000000000000000000000000000000000000000000000000000 DUP2 MSTORE PUSH1 0x4 ADD PUSH2 0x4DF SWAP1 PUSH2 0x1B5A JUMP JUMPDEST PUSH1 0x40 MLOAD DUP1 SWAP2 SUB SWAP1 REVERT JUMPDEST PUSH0 PUSH20 0xFFFFFFFFFFFFFFFFFFFFFFFFFFFFFFFFFFFFFFFF AND DUP2 PUSH20 0xFFFFFFFFFFFFFFFFFFFFFFFFFFFFFFFFFFFFFFFF AND SUB PUSH2 0x556 JUMPI PUSH1 0x40 MLOAD PUSH32 0x8C379A000000000000000000000000000000000000000000000000000000000 DUP2 MSTORE PUSH1 0x4 ADD PUSH2 0x54D SWAP1 PUSH2 0x1BE8 JUMP JUMPDEST PUSH1 0x40 MLOAD DUP1 SWAP2 SUB SWAP1 REVERT JUMPDEST DUP1 PUSH1 0x4 PUSH0 PUSH2 0x100 EXP DUP2 SLOAD DUP2 PUSH20 0xFFFFFFFFFFFFFFFFFFFFFFFFFFFFFFFFFFFFFFFF MUL NOT AND SWAP1 DUP4 PUSH20 0xFFFFFFFFFFFFFFFFFFFFFFFFFFFFFFFFFFFFFFFF AND MUL OR SWAP1 SSTORE POP DUP1 PUSH20 0xFFFFFFFFFFFFFFFFFFFFFFFFFFFFFFFFFFFFFFFF AND PUSH32 0xE6223EF4A6CC26F11671126040EB90609754DF785E229F9FC28E9612CA3380BC PUSH1 0x40 MLOAD PUSH1 0x40 MLOAD DUP1 SWAP2 SUB SWAP1 LOG2 POP JUMP JUMPDEST PUSH0 DUP1 PUSH1 0x5 SLOAD PUSH1 0x6 SLOAD SWAP2 POP SWAP2 POP SWAP1 SWAP2 JUMP JUMPDEST PUSH1 0x1 PUSH0 SWAP1 SLOAD SWAP1 PUSH2 0x100 EXP SWAP1 DIV PUSH20 0xFFFFFFFFFFFFFFFFFFFFFFFFFFFFFFFFFFFFFFFF AND DUP2 JUMP JUMPDEST PUSH1 0x2 PUSH0 SWAP1 SLOAD SWAP1 PUSH2 0x100 EXP SWAP1 DIV PUSH20 0xFFFFFFFFFFFFFFFFFFFFFFFFFFFFFFFFFFFFFFFF AND PUSH20 0xFFFFFFFFFFFFFFFFFFFFFFFFFFFFFFFFFFFFFFFF AND CALLER PUSH20 0xFFFFFFFFFFFFFFFFFFFFFFFFFFFFFFFFFFFFFFFF AND EQ PUSH2 0x6A0 JUMPI PUSH1 0x40 MLOAD PUSH32 0x8C379A000000000000000000000000000000000000000000000000000000000 DUP2 MSTORE PUSH1 0x4 ADD PUSH2 0x697 SWAP1 PUSH2 0x1B5A JUMP JUMPDEST PUSH1 0x40 MLOAD DUP1 SWAP2 SUB SWAP1 REVERT JUMPDEST DUP1 PUSH1 0x8 DUP2 SWAP1 SSTORE POP PUSH32 0xB841FAF0D1B32571F4EF966A2F35E3AE51F3CDDA45318C3DA5570A5B2AD85605 PUSH1 0x7 SLOAD DUP3 PUSH1 0x40 MLOAD PUSH2 0x6DA SWAP3 SWAP2 SWAP1 PUSH2 0x1957 JUMP JUMPDEST PUSH1 0x40 MLOAD DUP1 SWAP2 SUB SWAP1 LOG1 POP JUMP JUMPDEST PUSH0 PUSH2 0x6EE PUSH2 0x13BB JUMP JUMPDEST PUSH1 0x9 PUSH0 SWAP1 SLOAD SWAP1 PUSH2 0x100 EXP SWAP1 DIV PUSH1 0xFF AND ISZERO PUSH2 0x73D JUMPI PUSH1 0x40 MLOAD PUSH32 0x8C379A000000000000000000000000000000000000000000000000000000000 DUP2 MSTORE PUSH1 0x4 ADD PUSH2 0x734 SWAP1 PUSH2 0x1C50 JUMP JUMPDEST PUSH1 0x40 MLOAD DUP1 SWAP2 SUB SWAP1 REVERT JUMPDEST PUSH0 DUP3 GT PUSH2 0x77F JUMPI PUSH1 0x40 MLOAD PUSH32 0x8C379A000000000000000000000000000000000000000000000000000000000 DUP2 MSTORE PUSH1 0x4 ADD PUSH2 0x776 SWAP1 PUSH2 0x1CB8 JUMP JUMPDEST PUSH1 0x40 MLOAD DUP1 SWAP2 SUB SWAP1 REVERT JUMPDEST PUSH0 PUSH2 0x3E8 PUSH1 0x8 SLOAD DUP5 PUSH2 0x791 SWAP2 SWAP1 PUSH2 0x1D03 JUMP JUMPDEST PUSH2 0x79B SWAP2 SWAP1 PUSH2 0x1D71 JUMP JUMPDEST SWAP1 POP PUSH0 DUP2 DUP5 PUSH2 0x7AA SWAP2 SWAP1 PUSH2 0x1DA1 JUMP JUMPDEST SWAP1 POP PUSH1 0x1 PUSH0 SWAP1 SLOAD SWAP1 PUSH2 0x100 EXP SWAP1 DIV PUSH20 0xFFFFFFFFFFFFFFFFFFFFFFFFFFFFFFFFFFFFFFFF AND PUSH20 0xFFFFFFFFFFFFFFFFFFFFFFFFFFFFFFFFFFFFFFFF AND PUSH4 0x23B872DD CALLER ADDRESS DUP8 PUSH1 0x40 MLOAD DUP5 PUSH4 0xFFFFFFFF AND PUSH1 0xE0 SHL DUP2 MSTORE PUSH1 0x4 ADD PUSH2 0x80A SWAP4 SWAP3 SWAP2 SWAP1 PUSH2 0x1DD4 JUMP JUMPDEST PUSH1 0x20 PUSH1 0x40 MLOAD DUP1 DUP4 SUB DUP2 PUSH0 DUP8 GAS CALL ISZERO DUP1 ISZERO PUSH2 0x826 JUMPI RETURNDATASIZE PUSH0 DUP1 RETURNDATACOPY RETURNDATASIZE PUSH0 REVERT JUMPDEST POP POP POP POP PUSH1 0x40 MLOAD RETURNDATASIZE PUSH1 0x1F NOT PUSH1 0x1F DUP3 ADD AND DUP3 ADD DUP1 PUSH1 0x40 MSTORE POP DUP2 ADD SWAP1 PUSH2 0x84A SWAP2 SWAP1 PUSH2 0x1E1D JUMP JUMPDEST POP PUSH1 0x1 PUSH0 SWAP1 SLOAD SWAP1 PUSH2 0x100 EXP SWAP1 DIV PUSH20 0xFFFFFFFFFFFFFFFFFFFFFFFFFFFFFFFFFFFFFFFF AND PUSH20 0xFFFFFFFFFFFFFFFFFFFFFFFFFFFFFFFFFFFFFFFF AND PUSH4 0xA9059CBB PUSH1 0x3 PUSH0 SWAP1 SLOAD SWAP1 PUSH2 0x100 EXP SWAP1 DIV PUSH20 0xFFFFFFFFFFFFFFFFFFFFFFFFFFFFFFFFFFFFFFFF AND DUP5 PUSH1 0x40 MLOAD DUP4 PUSH4 0xFFFFFFFF AND PUSH1 0xE0 SHL DUP2 MSTORE PUSH1 0x4 ADD PUSH2 0x8C8 SWAP3 SWAP2 SWAP1 PUSH2 0x1E48 JUMP JUMPDEST PUSH1 0x20 PUSH1 0x40 MLOAD DUP1 DUP4 SUB DUP2 PUSH0 DUP8 GAS CALL ISZERO DUP1 ISZERO PUSH2 0x8E4 JUMPI RETURNDATASIZE PUSH0 DUP1 RETURNDATACOPY RETURNDATASIZE PUSH0 REVERT JUMPDEST POP POP POP POP PUSH1 0x40 MLOAD RETURNDATASIZE PUSH1 0x1F NOT PUSH1 0x1F DUP3 ADD AND DUP3 ADD DUP1 PUSH1 0x40 MSTORE POP DUP2 ADD SWAP1 PUSH2 0x908 SWAP2 SWAP1 PUSH2 0x1E1D JUMP JUMPDEST POP PUSH0 DUP2 PUSH1 0x5 SLOAD PUSH2 0x918 SWAP2 SWAP1 PUSH2 0x1E6F JUMP JUMPDEST SWAP1 POP DUP1 PUSH1 0x6 SLOAD PUSH1 0x5 SLOAD PUSH2 0x92B SWAP2 SWAP1 PUSH2 0x1D03 JUMP JUMPDEST PUSH2 0x935 SWAP2 SWAP1 PUSH2 0x1D71 JUMP JUMPDEST PUSH1 0x6 SLOAD PUSH2 0x942 SWAP2 SWAP1 PUSH2 0x1DA1 JUMP JUMPDEST SWAP4 POP DUP1 PUSH1 0x5 DUP2 SWAP1 SSTORE POP DUP4 PUSH1 0x6 PUSH0 DUP3 DUP3 SLOAD PUSH2 0x95C SWAP2 SWAP1 PUSH2 0x1DA1 JUMP JUMPDEST SWAP3 POP POP DUP2 SWAP1 SSTORE POP PUSH0 CALLER PUSH20 0xFFFFFFFFFFFFFFFFFFFFFFFFFFFFFFFFFFFFFFFF AND DUP6 PUSH1 0x40 MLOAD PUSH2 0x988 SWAP1 PUSH2 0x1ECF JUMP JUMPDEST PUSH0 PUSH1 0x40 MLOAD DUP1 DUP4 SUB DUP2 DUP6 DUP8 GAS CALL SWAP3 POP POP POP RETURNDATASIZE DUP1 PUSH0 DUP2 EQ PUSH2 0x9C2 JUMPI PUSH1 0x40 MLOAD SWAP2 POP PUSH1 0x1F NOT PUSH1 0x3F RETURNDATASIZE ADD AND DUP3 ADD PUSH1 0x40 MSTORE RETURNDATASIZE DUP3 MSTORE RETURNDATASIZE PUSH0 PUSH1 0x20 DUP5 ADD RETURNDATACOPY PUSH2 0x9C7 JUMP JUMPDEST PUSH1 0x60 SWAP2 POP JUMPDEST POP POP SWAP1 POP DUP1 PUSH2 0xA0B JUMPI PUSH1 0x40 MLOAD PUSH32 0x8C379A000000000000000000000000000000000000000000000000000000000 DUP2 MSTORE PUSH1 0x4 ADD PUSH2 0xA02 SWAP1 PUSH2 0x1F2D JUMP JUMPDEST PUSH1 0x40 MLOAD DUP1 SWAP2 SUB SWAP1 REVERT JUMPDEST PUSH0 PUSH20 0xFFFFFFFFFFFFFFFFFFFFFFFFFFFFFFFFFFFFFFFF AND PUSH1 0x1 PUSH0 SWAP1 SLOAD SWAP1 PUSH2 0x100 EXP SWAP1 DIV PUSH20 0xFFFFFFFFFFFFFFFFFFFFFFFFFFFFFFFFFFFFFFFF AND PUSH20 0xFFFFFFFFFFFFFFFFFFFFFFFFFFFFFFFFFFFFFFFF AND PUSH32 0xFA2DDA1CC1B86E41239702756B13EFFBC1A092B5C57E3AD320FBE4F3B13FE235 DUP9 DUP9 PUSH1 0x40 MLOAD PUSH2 0xA8B SWAP3 SWAP2 SWAP1 PUSH2 0x1957 JUMP JUMPDEST PUSH1 0x40 MLOAD DUP1 SWAP2 SUB SWAP1 LOG3 PUSH1 0x9 PUSH1 0x1 SWAP1 SLOAD SWAP1 PUSH2 0x100 EXP SWAP1 DIV PUSH1 0xFF AND DUP1 ISZERO PUSH2 0xAB3 JUMPI POP PUSH1 0xA SLOAD PUSH1 0x6 SLOAD LT ISZERO JUMPDEST ISZERO PUSH2 0xAC1 JUMPI PUSH2 0xAC0 PUSH2 0x13FF JUMP JUMPDEST JUMPDEST POP POP POP POP PUSH2 0xACD PUSH2 0x18AD JUMP JUMPDEST SWAP2 SWAP1 POP JUMP JUMPDEST PUSH1 0x9 PUSH0 SWAP1 SLOAD SWAP1 PUSH2 0x100 EXP SWAP1 DIV PUSH1 0xFF AND DUP2 JUMP JUMPDEST PUSH1 0x3 PUSH0 SWAP1 SLOAD SWAP1 PUSH2 0x100 EXP SWAP1 DIV PUSH20 0xFFFFFFFFFFFFFFFFFFFFFFFFFFFFFFFFFFFFFFFF AND DUP2 JUMP JUMPDEST PUSH1 0x2 PUSH0 SWAP1 SLOAD SWAP1 PUSH2 0x100 EXP SWAP1 DIV PUSH20 0xFFFFFFFFFFFFFFFFFFFFFFFFFFFFFFFFFFFFFFFF AND PUSH20 0xFFFFFFFFFFFFFFFFFFFFFFFFFFFFFFFFFFFFFFFF AND CALLER PUSH20 0xFFFFFFFFFFFFFFFFFFFFFFFFFFFFFFFFFFFFFFFF AND EQ PUSH2 0xB98 JUMPI PUSH1 0x40 MLOAD PUSH32 0x8C379A000000000000000000000000000000000000000000000000000000000 DUP2 MSTORE PUSH1 0x4 ADD PUSH2 0xB8F SWAP1 PUSH2 0x1B5A JUMP JUMPDEST PUSH1 0x40 MLOAD DUP1 SWAP2 SUB SWAP1 REVERT JUMPDEST DUP1 PUSH1 0x7 DUP2 SWAP1 SSTORE POP PUSH32 0xB841FAF0D1B32571F4EF966A2F35E3AE51F3CDDA45318C3DA5570A5B2AD85605 DUP2 PUSH1 0x8 SLOAD PUSH1 0x40 MLOAD PUSH2 0xBD2 SWAP3 SWAP2 SWAP1 PUSH2 0x1957 JUMP JUMPDEST PUSH1 0x40 MLOAD DUP1 SWAP2 SUB SWAP1 LOG1 POP JUMP JUMPDEST PUSH1 0x5 SLOAD DUP2 JUMP JUMPDEST PUSH1 0x2 PUSH0 SWAP1 SLOAD SWAP1 PUSH2 0x100 EXP SWAP1 DIV PUSH20 0xFFFFFFFFFFFFFFFFFFFFFFFFFFFFFFFFFFFFFFFF AND PUSH20 0xFFFFFFFFFFFFFFFFFFFFFFFFFFFFFFFFFFFFFFFF AND CALLER PUSH20 0xFFFFFFFFFFFFFFFFFFFFFFFFFFFFFFFFFFFFFFFF AND EQ PUSH2 0xC72 JUMPI PUSH1 0x40 MLOAD PUSH32 0x8C379A000000000000000000000000000000000000000000000000000000000 DUP2 MSTORE PUSH1 0x4 ADD PUSH2 0xC69 SWAP1 PUSH2 0x1B5A JUMP JUMPDEST PUSH1 0x40 MLOAD DUP1 SWAP2 SUB SWAP1 REVERT JUMPDEST PUSH2 0xC7A PUSH2 0x13BB JUMP JUMPDEST PUSH0 PUSH20 0xFFFFFFFFFFFFFFFFFFFFFFFFFFFFFFFFFFFFFFFF AND PUSH1 0x1 PUSH0 SWAP1 SLOAD SWAP1 PUSH2 0x100 EXP SWAP1 DIV PUSH20 0xFFFFFFFFFFFFFFFFFFFFFFFFFFFFFFFFFFFFFFFF AND PUSH20 0xFFFFFFFFFFFFFFFFFFFFFFFFFFFFFFFFFFFFFFFF AND EQ PUSH2 0xD09 JUMPI PUSH1 0x40 MLOAD PUSH32 0x8C379A000000000000000000000000000000000000000000000000000000000 DUP2 MSTORE PUSH1 0x4 ADD PUSH2 0xD00 SWAP1 PUSH2 0x1F95 JUMP JUMPDEST PUSH1 0x40 MLOAD DUP1 SWAP2 SUB SWAP1 REVERT JUMPDEST PUSH0 CALLVALUE GT PUSH2 0xD4B JUMPI PUSH1 0x40 MLOAD PUSH32 0x8C379A000000000000000000000000000000000000000000000000000000000 DUP2 MSTORE PUSH1 0x4 ADD PUSH2 0xD42 SWAP1 PUSH2 0x2023 JUMP JUMPDEST PUSH1 0x40 MLOAD DUP1 SWAP2 SUB SWAP1 REVERT JUMPDEST DUP4 PUSH1 0x1 PUSH0 PUSH2 0x100 EXP DUP2 SLOAD DUP2 PUSH20 0xFFFFFFFFFFFFFFFFFFFFFFFFFFFFFFFFFFFFFFFF MUL NOT AND SWAP1 DUP4 PUSH20 0xFFFFFFFFFFFFFFFFFFFFFFFFFFFFFFFFFFFFFFFF AND MUL OR SWAP1 SSTORE POP DUP3 PUSH1 0x5 DUP2 SWAP1 SSTORE POP CALLVALUE PUSH1 0x6 DUP2 SWAP1 SSTORE POP DUP2 PUSH1 0x7 DUP2 SWAP1 SSTORE POP DUP1 PUSH1 0x8 DUP2 SWAP1 SSTORE POP CALLER PUSH20 0xFFFFFFFFFFFFFFFFFFFFFFFFFFFFFFFFFFFFFFFF AND PUSH32 0xAC1D76749E5447B7B16F5AB61447E1BD502F3BB4807AF3B28E620D1700A6EE45 DUP5 CALLVALUE PUSH1 0x40 MLOAD PUSH2 0xDEF SWAP3 SWAP2 SWAP1 PUSH2 0x1957 JUMP JUMPDEST PUSH1 0x40 MLOAD DUP1 SWAP2 SUB SWAP1 LOG2 PUSH2 0xDFF PUSH2 0x18AD JUMP JUMPDEST POP POP POP POP JUMP JUMPDEST PUSH1 0x7 SLOAD DUP2 JUMP JUMPDEST PUSH1 0x6 SLOAD DUP2 JUMP JUMPDEST PUSH1 0x9 PUSH1 0x1 SWAP1 SLOAD SWAP1 PUSH2 0x100 EXP SWAP1 DIV PUSH1 0xFF AND DUP2 JUMP JUMPDEST PUSH1 0xA SLOAD DUP2 JUMP JUMPDEST PUSH1 0x2 PUSH0 SWAP1 SLOAD SWAP1 PUSH2 0x100 EXP SWAP1 DIV PUSH20 0xFFFFFFFFFFFFFFFFFFFFFFFFFFFFFFFFFFFFFFFF AND PUSH20 0xFFFFFFFFFFFFFFFFFFFFFFFFFFFFFFFFFFFFFFFF AND CALLER PUSH20 0xFFFFFFFFFFFFFFFFFFFFFFFFFFFFFFFFFFFFFFFF AND EQ PUSH2 0xEB9 JUMPI PUSH1 0x40 MLOAD PUSH32 0x8C379A000000000000000000000000000000000000000000000000000000000 DUP2 MSTORE PUSH1 0x4 ADD PUSH2 0xEB0 SWAP1 PUSH2 0x1B5A JUMP JUMPDEST PUSH1 0x40 MLOAD DUP1 SWAP2 SUB SWAP1 REVERT JUMPDEST PUSH0 DUP2 GT PUSH2 0xEFB JUMPI PUSH1 0x40 MLOAD PUSH32 0x8C379A000000000000000000000000000000000000000000000000000000000 DUP2 MSTORE PUSH1 0x4 ADD PUSH2 0xEF2 SWAP1 PUSH2 0x20B1 JUMP JUMPDEST PUSH1 0x40 MLOAD DUP1 SWAP2 SUB SWAP1 REVERT JUMPDEST DUP1 PUSH1 0xA DUP2 SWAP1 SSTORE POP PUSH32 0x4AD9AE9229776F627D7D2BE995964376397890E11BBFA94E8826810419A6EF6B DUP2 PUSH1 0x40 MLOAD PUSH2 0xF31 SWAP2 SWAP1 PUSH2 0x19FB JUMP JUMPDEST PUSH1 0x40 MLOAD DUP1 SWAP2 SUB SWAP1 LOG1 POP JUMP JUMPDEST PUSH0 PUSH2 0xF45 PUSH2 0x13BB JUMP JUMPDEST PUSH1 0x9 PUSH0 SWAP1 SLOAD SWAP1 PUSH2 0x100 EXP SWAP1 DIV PUSH1 0xFF AND ISZERO PUSH2 0xF94 JUMPI PUSH1 0x40 MLOAD PUSH32 0x8C379A000000000000000000000000000000000000000000000000000000000 DUP2 MSTORE PUSH1 0x4 ADD PUSH2 0xF8B SWAP1 PUSH2 0x1C50 JUMP JUMPDEST PUSH1 0x40 MLOAD DUP1 SWAP2 SUB SWAP1 REVERT JUMPDEST PUSH0 CALLVALUE GT PUSH2 0xFD6 JUMPI PUSH1 0x40 MLOAD PUSH32 0x8C379A000000000000000000000000000000000000000000000000000000000 DUP2 MSTORE PUSH1 0x4 ADD PUSH2 0xFCD SWAP1 PUSH2 0x2119 JUMP JUMPDEST PUSH1 0x40 MLOAD DUP1 SWAP2 SUB SWAP1 REVERT JUMPDEST PUSH0 PUSH2 0x3E8 PUSH1 0x7 SLOAD CALLVALUE PUSH2 0xFE8 SWAP2 SWAP1 PUSH2 0x1D03 JUMP JUMPDEST PUSH2 0xFF2 SWAP2 SWAP1 PUSH2 0x1D71 JUMP JUMPDEST SWAP1 POP PUSH0 DUP2 CALLVALUE PUSH2 0x1001 SWAP2 SWAP1 PUSH2 0x1DA1 JUMP JUMPDEST SWAP1 POP PUSH0 PUSH1 0x3 PUSH0 SWAP1 SLOAD SWAP1 PUSH2 0x100 EXP SWAP1 DIV PUSH20 0xFFFFFFFFFFFFFFFFFFFFFFFFFFFFFFFFFFFFFFFF AND PUSH20 0xFFFFFFFFFFFFFFFFFFFFFFFFFFFFFFFFFFFFFFFF AND DUP4 PUSH1 0x40 MLOAD PUSH2 0x1049 SWAP1 PUSH2 0x1ECF JUMP JUMPDEST PUSH0 PUSH1 0x40 MLOAD DUP1 DUP4 SUB DUP2 DUP6 DUP8 GAS CALL SWAP3 POP POP POP RETURNDATASIZE DUP1 PUSH0 DUP2 EQ PUSH2 0x1083 JUMPI PUSH1 0x40 MLOAD SWAP2 POP PUSH1 0x1F NOT PUSH1 0x3F RETURNDATASIZE ADD AND DUP3 ADD PUSH1 0x40 MSTORE RETURNDATASIZE DUP3 MSTORE RETURNDATASIZE PUSH0 PUSH1 0x20 DUP5 ADD RETURNDATACOPY PUSH2 0x1088 JUMP JUMPDEST PUSH1 0x60 SWAP2 POP JUMPDEST POP POP SWAP1 POP DUP1 PUSH2 0x10CC JUMPI PUSH1 0x40 MLOAD PUSH32 0x8C379A000000000000000000000000000000000000000000000000000000000 DUP2 MSTORE PUSH1 0x4 ADD PUSH2 0x10C3 SWAP1 PUSH2 0x21A7 JUMP JUMPDEST PUSH1 0x40 MLOAD DUP1 SWAP2 SUB SWAP1 REVERT JUMPDEST PUSH0 DUP3 PUSH1 0x6 SLOAD PUSH2 0x10DB SWAP2 SWAP1 PUSH2 0x1E6F JUMP JUMPDEST SWAP1 POP DUP1 PUSH1 0x6 SLOAD PUSH1 0x5 SLOAD PUSH2 0x10EE SWAP2 SWAP1 PUSH2 0x1D03 JUMP JUMPDEST PUSH2 0x10F8 SWAP2 SWAP1 PUSH2 0x1D71 JUMP JUMPDEST PUSH1 0x5 SLOAD PUSH2 0x1105 SWAP2 SWAP1 PUSH2 0x1DA1 JUMP JUMPDEST SWAP5 POP DUP1 PUSH1 0x6 DUP2 SWAP1 SSTORE POP DUP5 PUSH1 0x5 PUSH0 DUP3 DUP3 SLOAD PUSH2 0x111F SWAP2 SWAP1 PUSH2 0x1DA1 JUMP JUMPDEST SWAP3 POP POP DUP2 SWAP1 SSTORE POP PUSH1 0x1 PUSH0 SWAP1 SLOAD SWAP1 PUSH2 0x100 EXP SWAP1 DIV PUSH20 0xFFFFFFFFFFFFFFFFFFFFFFFFFFFFFFFFFFFFFFFF AND PUSH20 0xFFFFFFFFFFFFFFFFFFFFFFFFFFFFFFFFFFFFFFFF AND PUSH4 0xA9059CBB CALLER DUP8 PUSH1 0x40 MLOAD DUP4 PUSH4 0xFFFFFFFF AND PUSH1 0xE0 SHL DUP2 MSTORE PUSH1 0x4 ADD PUSH2 0x1182 SWAP3 SWAP2 SWAP1 PUSH2 0x1E48 JUMP JUMPDEST PUSH1 0x20 PUSH1 0x40 MLOAD DUP1 DUP4 SUB DUP2 PUSH0 DUP8 GAS CALL ISZERO DUP1 ISZERO PUSH2 0x119E JUMPI RETURNDATASIZE PUSH0 DUP1 RETURNDATACOPY RETURNDATASIZE PUSH0 REVERT JUMPDEST POP POP POP POP PUSH1 0x40 MLOAD RETURNDATASIZE PUSH1 0x1F NOT PUSH1 0x1F DUP3 ADD AND DUP3 ADD DUP1 PUSH1 0x40 MSTORE POP DUP2 ADD SWAP1 PUSH2 0x11C2 SWAP2 SWAP1 PUSH2 0x1E1D JUMP JUMPDEST POP PUSH1 0x1 PUSH0 SWAP1 SLOAD SWAP1 PUSH2 0x100 EXP SWAP1 DIV PUSH20 0xFFFFFFFFFFFFFFFFFFFFFFFFFFFFFFFFFFFFFFFF AND PUSH20 0xFFFFFFFFFFFFFFFFFFFFFFFFFFFFFFFFFFFFFFFF AND PUSH0 PUSH20 0xFFFFFFFFFFFFFFFFFFFFFFFFFFFFFFFFFFFFFFFF AND PUSH32 0xFA2DDA1CC1B86E41239702756B13EFFBC1A092B5C57E3AD320FBE4F3B13FE235 CALLVALUE DUP9 PUSH1 0x40 MLOAD PUSH2 0x1243 SWAP3 SWAP2 SWAP1 PUSH2 0x1957 JUMP JUMPDEST PUSH1 0x40 MLOAD DUP1 SWAP2 SUB SWAP1 LOG3 PUSH1 0x9 PUSH1 0x1 SWAP1 SLOAD SWAP1 PUSH2 0x100 EXP SWAP1 DIV PUSH1 0xFF AND DUP1 ISZERO PUSH2 0x126B JUMPI POP PUSH1 0xA SLOAD PUSH1 0x6 SLOAD LT ISZERO JUMPDEST ISZERO PUSH2 0x1279 JUMPI PUSH2 0x1278 PUSH2 0x13FF JUMP JUMPDEST JUMPDEST POP POP POP POP PUSH2 0x1285 PUSH2 0x18AD JUMP JUMPDEST SWAP1 JUMP JUMPDEST PUSH1 0x2 PUSH0 SWAP1 SLOAD SWAP1 PUSH2 0x100 EXP SWAP1 DIV PUSH20 0xFFFFFFFFFFFFFFFFFFFFFFFFFFFFFFFFFFFFFFFF AND PUSH20 0xFFFFFFFFFFFFFFFFFFFFFFFFFFFFFFFFFFFFFFFF AND CALLER PUSH20 0xFFFFFFFFFFFFFFFFFFFFFFFFFFFFFFFFFFFFFFFF AND EQ PUSH2 0x1317 JUMPI PUSH1 0x40 MLOAD PUSH32 0x8C379A000000000000000000000000000000000000000000000000000000000 DUP2 MSTORE PUSH1 0x4 ADD PUSH2 0x130E SWAP1 PUSH2 0x1B5A JUMP JUMPDEST PUSH1 0x40 MLOAD DUP1 SWAP2 SUB SWAP1 REVERT JUMPDEST DUP1 PUSH1 0x9 PUSH1 0x1 PUSH2 0x100 EXP DUP2 SLOAD DUP2 PUSH1 0xFF MUL NOT AND SWAP1 DUP4 ISZERO ISZERO MUL OR SWAP1 SSTORE POP PUSH32 0xE7E0BD136AB3B57E3E925774A811E2482DF79072FA45D011A4F088ABFCC209D2 DUP2 PUSH1 0x40 MLOAD PUSH2 0x1360 SWAP2 SWAP1 PUSH2 0x1A2E JUMP JUMPDEST PUSH1 0x40 MLOAD DUP1 SWAP2 SUB SWAP1 LOG1 POP JUMP JUMPDEST PUSH1 0x4 PUSH0 SWAP1 SLOAD SWAP1 PUSH2 0x100 EXP SWAP1 DIV PUSH20 0xFFFFFFFFFFFFFFFFFFFFFFFFFFFFFFFFFFFFFFFF AND DUP2 JUMP JUMPDEST PUSH1 0x8 SLOAD DUP2 JUMP JUMPDEST PUSH1 0x2 PUSH0 SWAP1 SLOAD SWAP1 PUSH2 0x100 EXP SWAP1 DIV PUSH20 0xFFFFFFFFFFFFFFFFFFFFFFFFFFFFFFFFFFFFFFFF AND DUP2 JUMP JUMPDEST PUSH1 0x2 PUSH0 SLOAD SUB PUSH2 0x13F6 JUMPI PUSH1 0x40 MLOAD PUSH32 0x3EE5AEB500000000000000000000000000000000000000000000000000000000 DUP2 MSTORE PUSH1 0x4 ADD PUSH1 0x40 MLOAD DUP1 SWAP2 SUB SWAP1 REVERT JUMPDEST PUSH1 0x2 PUSH0 DUP2 SWAP1 SSTORE POP JUMP JUMPDEST PUSH2 0x1407 PUSH2 0x13BB JUMP JUMPDEST PUSH1 0x9 PUSH0 SWAP1 SLOAD SWAP1 PUSH2 0x100 EXP SWAP1 DIV PUSH1 0xFF AND ISZERO PUSH2 0x1456 JUMPI PUSH1 0x40 MLOAD PUSH32 0x8C379A000000000000000000000000000000000000000000000000000000000 DUP2 MSTORE PUSH1 0x4 ADD PUSH2 0x144D SWAP1 PUSH2 0x220F JUMP JUMPDEST PUSH1 0x40 MLOAD DUP1 SWAP2 SUB SWAP1 REVERT JUMPDEST PUSH0 PUSH20 0xFFFFFFFFFFFFFFFFFFFFFFFFFFFFFFFFFFFFFFFF AND PUSH1 0x4 PUSH0 SWAP1 SLOAD SWAP1 PUSH2 0x100 EXP SWAP1 DIV PUSH20 0xFFFFFFFFFFFFFFFFFFFFFFFFFFFFFFFFFFFFFFFF AND PUSH20 0xFFFFFFFFFFFFFFFFFFFFFFFFFFFFFFFFFFFFFFFF AND SUB PUSH2 0x14E5 JUMPI PUSH1 0x40 MLOAD PUSH32 0x8C379A000000000000000000000000000000000000000000000000000000000 DUP2 MSTORE PUSH1 0x4 ADD PUSH2 0x14DC SWAP1 PUSH2 0x229D JUMP JUMPDEST PUSH1 0x40 MLOAD DUP1 SWAP2 SUB SWAP1 REVERT JUMPDEST PUSH0 PUSH1 0x1 PUSH0 SWAP1 SLOAD SWAP1 PUSH2 0x100 EXP SWAP1 DIV PUSH20 0xFFFFFFFFFFFFFFFFFFFFFFFFFFFFFFFFFFFFFFFF AND PUSH1 0x40 MLOAD PUSH1 0x24 ADD PUSH2 0x1518 SWAP2 SWAP1 PUSH2 0x198D JUMP JUMPDEST PUSH1 0x40 MLOAD PUSH1 0x20 DUP2 DUP4 SUB SUB DUP2 MSTORE SWAP1 PUSH1 0x40 MSTORE PUSH32 0x9049F9D200000000000000000000000000000000000000000000000000000000 PUSH28 0xFFFFFFFFFFFFFFFFFFFFFFFFFFFFFFFFFFFFFFFFFFFFFFFFFFFFFFFF NOT AND PUSH1 0x20 DUP3 ADD DUP1 MLOAD PUSH28 0xFFFFFFFFFFFFFFFFFFFFFFFFFFFFFFFFFFFFFFFFFFFFFFFFFFFFFFFF DUP4 DUP2 DUP4 AND OR DUP4 MSTORE POP POP POP POP SWAP1 POP PUSH0 DUP1 PUSH1 0x4 PUSH0 SWAP1 SLOAD SWAP1 PUSH2 0x100 EXP SWAP1 DIV PUSH20 0xFFFFFFFFFFFFFFFFFFFFFFFFFFFFFFFFFFFFFFFF AND PUSH20 0xFFFFFFFFFFFFFFFFFFFFFFFFFFFFFFFFFFFFFFFF AND DUP4 PUSH1 0x40 MLOAD PUSH2 0x15DF SWAP2 SWAP1 PUSH2 0x2303 JUMP JUMPDEST PUSH0 PUSH1 0x40 MLOAD DUP1 DUP4 SUB DUP2 PUSH0 DUP7 GAS CALL SWAP2 POP POP RETURNDATASIZE DUP1 PUSH0 DUP2 EQ PUSH2 0x1618 JUMPI PUSH1 0x40 MLOAD SWAP2 POP PUSH1 0x1F NOT PUSH1 0x3F RETURNDATASIZE ADD AND DUP3 ADD PUSH1 0x40 MSTORE RETURNDATASIZE DUP3 MSTORE RETURNDATASIZE PUSH0 PUSH1 0x20 DUP5 ADD RETURNDATACOPY PUSH2 0x161D JUMP JUMPDEST PUSH1 0x60 SWAP2 POP JUMPDEST POP SWAP2 POP SWAP2 POP DUP2 PUSH2 0x1662 JUMPI PUSH1 0x40 MLOAD PUSH32 0x8C379A000000000000000000000000000000000000000000000000000000000 DUP2 MSTORE PUSH1 0x4 ADD PUSH2 0x1659 SWAP1 PUSH2 0x2363 JUMP JUMPDEST PUSH1 0x40 MLOAD DUP1 SWAP2 SUB SWAP1 REVERT JUMPDEST PUSH0 DUP2 DUP1 PUSH1 0x20 ADD SWAP1 MLOAD DUP2 ADD SWAP1 PUSH2 0x1677 SWAP2 SWAP1 PUSH2 0x23BC JUMP JUMPDEST SWAP1 POP PUSH0 PUSH20 0xFFFFFFFFFFFFFFFFFFFFFFFFFFFFFFFFFFFFFFFF AND DUP2 PUSH20 0xFFFFFFFFFFFFFFFFFFFFFFFFFFFFFFFFFFFFFFFF AND SUB PUSH2 0x16E7 JUMPI PUSH1 0x40 MLOAD PUSH32 0x8C379A000000000000000000000000000000000000000000000000000000000 DUP2 MSTORE PUSH1 0x4 ADD PUSH2 0x16DE SWAP1 PUSH2 0x2431 JUMP JUMPDEST PUSH1 0x40 MLOAD DUP1 SWAP2 SUB SWAP1 REVERT JUMPDEST PUSH1 0x1 PUSH0 SWAP1 SLOAD SWAP1 PUSH2 0x100 EXP SWAP1 DIV PUSH20 0xFFFFFFFFFFFFFFFFFFFFFFFFFFFFFFFFFFFFFFFF AND PUSH20 0xFFFFFFFFFFFFFFFFFFFFFFFFFFFFFFFFFFFFFFFF AND PUSH4 0xA9059CBB DUP3 PUSH1 0x5 SLOAD PUSH1 0x40 MLOAD DUP4 PUSH4 0xFFFFFFFF AND PUSH1 0xE0 SHL DUP2 MSTORE PUSH1 0x4 ADD PUSH2 0x1745 SWAP3 SWAP2 SWAP1 PUSH2 0x1E48 JUMP JUMPDEST PUSH1 0x20 PUSH1 0x40 MLOAD DUP1 DUP4 SUB DUP2 PUSH0 DUP8 GAS CALL ISZERO DUP1 ISZERO PUSH2 0x1761 JUMPI RETURNDATASIZE PUSH0 DUP1 RETURNDATACOPY RETURNDATASIZE PUSH0 REVERT JUMPDEST POP POP POP POP PUSH1 0x40 MLOAD RETURNDATASIZE PUSH1 0x1F NOT PUSH1 0x1F DUP3 ADD AND DUP3 ADD DUP1 PUSH1 0x40 MSTORE POP DUP2 ADD SWAP1 PUSH2 0x1785 SWAP2 SWAP1 PUSH2 0x1E1D JUMP JUMPDEST POP PUSH0 DUP2 PUSH20 0xFFFFFFFFFFFFFFFFFFFFFFFFFFFFFFFFFFFFFFFF AND PUSH1 0x6 SLOAD PUSH1 0x40 MLOAD PUSH2 0x17AD SWAP1 PUSH2 0x1ECF JUMP JUMPDEST PUSH0 PUSH1 0x40 MLOAD DUP1 DUP4 SUB DUP2 DUP6 DUP8 GAS CALL SWAP3 POP POP POP RETURNDATASIZE DUP1 PUSH0 DUP2 EQ PUSH2 0x17E7 JUMPI PUSH1 0x40 MLOAD SWAP2 POP PUSH1 0x1F NOT PUSH1 0x3F RETURNDATASIZE ADD AND DUP3 ADD PUSH1 0x40 MSTORE RETURNDATASIZE DUP3 MSTORE RETURNDATASIZE PUSH0 PUSH1 0x20 DUP5 ADD RETURNDATACOPY PUSH2 0x17EC JUMP JUMPDEST PUSH1 0x60 SWAP2 POP JUMPDEST POP POP SWAP1 POP DUP1 PUSH2 0x1830 JUMPI PUSH1 0x40 MLOAD PUSH32 0x8C379A000000000000000000000000000000000000000000000000000000000 DUP2 MSTORE PUSH1 0x4 ADD PUSH2 0x1827 SWAP1 PUSH2 0x24BF JUMP JUMPDEST PUSH1 0x40 MLOAD DUP1 SWAP2 SUB SWAP1 REVERT JUMPDEST PUSH1 0x1 PUSH1 0x9 PUSH0 PUSH2 0x100 EXP DUP2 SLOAD DUP2 PUSH1 0xFF MUL NOT AND SWAP1 DUP4 ISZERO ISZERO MUL OR SWAP1 SSTORE POP DUP2 PUSH20 0xFFFFFFFFFFFFFFFFFFFFFFFFFFFFFFFFFFFFFFFF AND PUSH32 0x681FA2C4629192623C409B90CB2463CEA250BD2012F3AC5F34AF5CFA45D4822A PUSH1 0x5 SLOAD PUSH1 0x6 SLOAD PUSH1 0x40 MLOAD PUSH2 0x1896 SWAP3 SWAP2 SWAP1 PUSH2 0x1957 JUMP JUMPDEST PUSH1 0x40 MLOAD DUP1 SWAP2 SUB SWAP1 LOG2 POP POP POP POP POP PUSH2 0x18AB PUSH2 0x18AD JUMP JUMPDEST JUMP JUMPDEST PUSH1 0x1 PUSH0 DUP2 SWAP1 SSTORE POP JUMP JUMPDEST PUSH0 DUP1 REVERT JUMPDEST PUSH0 PUSH20 0xFFFFFFFFFFFFFFFFFFFFFFFFFFFFFFFFFFFFFFFF DUP3 AND SWAP1 POP SWAP2 SWAP1 POP JUMP JUMPDEST PUSH0 PUSH2 0x18E3 DUP3 PUSH2 0x18BA JUMP JUMPDEST SWAP1 POP SWAP2 SWAP1 POP JUMP JUMPDEST PUSH2 0x18F3 DUP2 PUSH2 0x18D9 JUMP JUMPDEST DUP2 EQ PUSH2 0x18FD JUMPI PUSH0 DUP1 REVERT JUMPDEST POP JUMP JUMPDEST PUSH0 DUP2 CALLDATALOAD SWAP1 POP PUSH2 0x190E DUP2 PUSH2 0x18EA JUMP JUMPDEST SWAP3 SWAP2 POP POP JUMP JUMPDEST PUSH0 PUSH1 0x20 DUP3 DUP5 SUB SLT ISZERO PUSH2 0x1929 JUMPI PUSH2 0x1928 PUSH2 0x18B6 JUMP JUMPDEST JUMPDEST PUSH0 PUSH2 0x1936 DUP5 DUP3 DUP6 ADD PUSH2 0x1900 JUMP JUMPDEST SWAP2 POP POP SWAP3 SWAP2 POP POP JUMP JUMPDEST PUSH0 DUP2 SWAP1 POP SWAP2 SWAP1 POP JUMP JUMPDEST PUSH2 0x1951 DUP2 PUSH2 0x193F JUMP JUMPDEST DUP3 MSTORE POP POP JUMP JUMPDEST PUSH0 PUSH1 0x40 DUP3 ADD SWAP1 POP PUSH2 0x196A PUSH0 DUP4 ADD DUP6 PUSH2 0x1948 JUMP JUMPDEST PUSH2 0x1977 PUSH1 0x20 DUP4 ADD DUP5 PUSH2 0x1948 JUMP JUMPDEST SWAP4 SWAP3 POP POP POP JUMP JUMPDEST PUSH2 0x1987 DUP2 PUSH2 0x18D9 JUMP JUMPDEST DUP3 MSTORE POP POP JUMP JUMPDEST PUSH0 PUSH1 0x20 DUP3 ADD SWAP1 POP PUSH2 0x19A0 PUSH0 DUP4 ADD DUP5 PUSH2 0x197E JUMP JUMPDEST SWAP3 SWAP2 POP POP JUMP JUMPDEST PUSH2 0x19AF DUP2 PUSH2 0x193F JUMP JUMPDEST DUP2 EQ PUSH2 0x19B9 JUMPI PUSH0 DUP1 REVERT JUMPDEST POP JUMP JUMPDEST PUSH0 DUP2 CALLDATALOAD SWAP1 POP PUSH2 0x19CA DUP2 PUSH2 0x19A6 JUMP JUMPDEST SWAP3 SWAP2 POP POP JUMP JUMPDEST PUSH0 PUSH1 0x20 DUP3 DUP5 SUB SLT ISZERO PUSH2 0x19E5 JUMPI PUSH2 0x19E4 PUSH2 0x18B6 JUMP JUMPDEST JUMPDEST PUSH0 PUSH2 0x19F2 DUP5 DUP3 DUP6 ADD PUSH2 0x19BC JUMP JUMPDEST SWAP2 POP POP SWAP3 SWAP2 POP POP JUMP JUMPDEST PUSH0 PUSH1 0x20 DUP3 ADD SWAP1 POP PUSH2 0x1A0E PUSH0 DUP4 ADD DUP5 PUSH2 0x1948 JUMP JUMPDEST SWAP3 SWAP2 POP POP JUMP JUMPDEST PUSH0 DUP2 ISZERO ISZERO SWAP1 POP SWAP2 SWAP1 POP JUMP JUMPDEST PUSH2 0x1A28 DUP2 PUSH2 0x1A14 JUMP JUMPDEST DUP3 MSTORE POP POP JUMP JUMPDEST PUSH0 PUSH1 0x20 DUP3 ADD SWAP1 POP PUSH2 0x1A41 PUSH0 DUP4 ADD DUP5 PUSH2 0x1A1F JUMP JUMPDEST SWAP3 SWAP2 POP POP JUMP JUMPDEST PUSH0 DUP1 PUSH0 DUP1 PUSH1 0x80 DUP6 DUP8 SUB SLT ISZERO PUSH2 0x1A5F JUMPI PUSH2 0x1A5E PUSH2 0x18B6 JUMP JUMPDEST JUMPDEST PUSH0 PUSH2 0x1A6C DUP8 DUP3 DUP9 ADD PUSH2 0x1900 JUMP JUMPDEST SWAP5 POP POP PUSH1 0x20 PUSH2 0x1A7D DUP8 DUP3 DUP9 ADD PUSH2 0x19BC JUMP JUMPDEST SWAP4 POP POP PUSH1 0x40 PUSH2 0x1A8E DUP8 DUP3 DUP9 ADD PUSH2 0x19BC JUMP JUMPDEST SWAP3 POP POP PUSH1 0x60 PUSH2 0x1A9F DUP8 DUP3 DUP9 ADD PUSH2 0x19BC JUMP JUMPDEST SWAP2 POP POP SWAP3 SWAP6 SWAP2 SWAP5 POP SWAP3 POP JUMP JUMPDEST PUSH2 0x1AB4 DUP2 PUSH2 0x1A14 JUMP JUMPDEST DUP2 EQ PUSH2 0x1ABE JUMPI PUSH0 DUP1 REVERT JUMPDEST POP JUMP JUMPDEST PUSH0 DUP2 CALLDATALOAD SWAP1 POP PUSH2 0x1ACF DUP2 PUSH2 0x1AAB JUMP JUMPDEST SWAP3 SWAP2 POP POP JUMP JUMPDEST PUSH0 PUSH1 0x20 DUP3 DUP5 SUB SLT ISZERO PUSH2 0x1AEA JUMPI PUSH2 0x1AE9 PUSH2 0x18B6 JUMP JUMPDEST JUMPDEST PUSH0 PUSH2 0x1AF7 DUP5 DUP3 DUP6 ADD PUSH2 0x1AC1 JUMP JUMPDEST SWAP2 POP POP SWAP3 SWAP2 POP POP JUMP JUMPDEST PUSH0 DUP3 DUP3 MSTORE PUSH1 0x20 DUP3 ADD SWAP1 POP SWAP3 SWAP2 POP POP JUMP JUMPDEST PUSH32 0x43616C6C6572206973206E6F742074686520546F6B656E466163746F72790000 PUSH0 DUP3 ADD MSTORE POP JUMP JUMPDEST PUSH0 PUSH2 0x1B44 PUSH1 0x1E DUP4 PUSH2 0x1B00 JUMP JUMPDEST SWAP2 POP PUSH2 0x1B4F DUP3 PUSH2 0x1B10 JUMP JUMPDEST PUSH1 0x20 DUP3 ADD SWAP1 POP SWAP2 SWAP1 POP JUMP JUMPDEST PUSH0 PUSH1 0x20 DUP3 ADD SWAP1 POP DUP2 DUP2 SUB PUSH0 DUP4 ADD MSTORE PUSH2 0x1B71 DUP2 PUSH2 0x1B38 JUMP JUMPDEST SWAP1 POP SWAP2 SWAP1 POP JUMP JUMPDEST PUSH32 0x496E697469616C697A657220616464726573732063616E6E6F74206265207A65 PUSH0 DUP3 ADD MSTORE PUSH32 0x726F000000000000000000000000000000000000000000000000000000000000 PUSH1 0x20 DUP3 ADD MSTORE POP JUMP JUMPDEST PUSH0 PUSH2 0x1BD2 PUSH1 0x22 DUP4 PUSH2 0x1B00 JUMP JUMPDEST SWAP2 POP PUSH2 0x1BDD DUP3 PUSH2 0x1B78 JUMP JUMPDEST PUSH1 0x40 DUP3 ADD SWAP1 POP SWAP2 SWAP1 POP JUMP JUMPDEST PUSH0 PUSH1 0x20 DUP3 ADD SWAP1 POP DUP2 DUP2 SUB PUSH0 DUP4 ADD MSTORE PUSH2 0x1BFF DUP2 PUSH2 0x1BC6 JUMP JUMPDEST SWAP1 POP SWAP2 SWAP1 POP JUMP JUMPDEST PUSH32 0x506F6F6C206D6967726174656420746F20416C67656272610000000000000000 PUSH0 DUP3 ADD MSTORE POP JUMP JUMPDEST PUSH0 PUSH2 0x1C3A PUSH1 0x18 DUP4 PUSH2 0x1B00 JUMP JUMPDEST SWAP2 POP PUSH2 0x1C45 DUP3 PUSH2 0x1C06 JUMP JUMPDEST PUSH1 0x20 DUP3 ADD SWAP1 POP SWAP2 SWAP1 POP JUMP JUMPDEST PUSH0 PUSH1 0x20 DUP3 ADD SWAP1 POP DUP2 DUP2 SUB PUSH0 DUP4 ADD MSTORE PUSH2 0x1C67 DUP2 PUSH2 0x1C2E JUMP JUMPDEST SWAP1 POP SWAP2 SWAP1 POP JUMP JUMPDEST PUSH32 0x4D7573742073656C6C20736F6D6520746F6B656E730000000000000000000000 PUSH0 DUP3 ADD MSTORE POP JUMP JUMPDEST PUSH0 PUSH2 0x1CA2 PUSH1 0x15 DUP4 PUSH2 0x1B00 JUMP JUMPDEST SWAP2 POP PUSH2 0x1CAD DUP3 PUSH2 0x1C6E JUMP JUMPDEST PUSH1 0x20 DUP3 ADD SWAP1 POP SWAP2 SWAP1 POP JUMP JUMPDEST PUSH0 PUSH1 0x20 DUP3 ADD SWAP1 POP DUP2 DUP2 SUB PUSH0 DUP4 ADD MSTORE PUSH2 0x1CCF DUP2 PUSH2 0x1C96 JUMP JUMPDEST SWAP1 POP SWAP2 SWAP1 POP JUMP JUMPDEST PUSH32 0x4E487B7100000000000000000000000000000000000000000000000000000000 PUSH0 MSTORE PUSH1 0x11 PUSH1 0x4 MSTORE PUSH1 0x24 PUSH0 REVERT JUMPDEST PUSH0 PUSH2 0x1D0D DUP3 PUSH2 0x193F JUMP JUMPDEST SWAP2 POP PUSH2 0x1D18 DUP4 PUSH2 0x193F JUMP JUMPDEST SWAP3 POP DUP3 DUP3 MUL PUSH2 0x1D26 DUP2 PUSH2 0x193F JUMP JUMPDEST SWAP2 POP DUP3 DUP3 DIV DUP5 EQ DUP4 ISZERO OR PUSH2 0x1D3D JUMPI PUSH2 0x1D3C PUSH2 0x1CD6 JUMP JUMPDEST JUMPDEST POP SWAP3 SWAP2 POP POP JUMP JUMPDEST PUSH32 0x4E487B7100000000000000000000000000000000000000000000000000000000 PUSH0 MSTORE PUSH1 0x12 PUSH1 0x4 MSTORE PUSH1 0x24 PUSH0 REVERT JUMPDEST PUSH0 PUSH2 0x1D7B DUP3 PUSH2 0x193F JUMP JUMPDEST SWAP2 POP PUSH2 0x1D86 DUP4 PUSH2 0x193F JUMP JUMPDEST SWAP3 POP DUP3 PUSH2 0x1D96 JUMPI PUSH2 0x1D95 PUSH2 0x1D44 JUMP JUMPDEST JUMPDEST DUP3 DUP3 DIV SWAP1 POP SWAP3 SWAP2 POP POP JUMP JUMPDEST PUSH0 PUSH2 0x1DAB DUP3 PUSH2 0x193F JUMP JUMPDEST SWAP2 POP PUSH2 0x1DB6 DUP4 PUSH2 0x193F JUMP JUMPDEST SWAP3 POP DUP3 DUP3 SUB SWAP1 POP DUP2 DUP2 GT ISZERO PUSH2 0x1DCE JUMPI PUSH2 0x1DCD PUSH2 0x1CD6 JUMP JUMPDEST JUMPDEST SWAP3 SWAP2 POP POP JUMP JUMPDEST PUSH0 PUSH1 0x60 DUP3 ADD SWAP1 POP PUSH2 0x1DE7 PUSH0 DUP4 ADD DUP7 PUSH2 0x197E JUMP JUMPDEST PUSH2 0x1DF4 PUSH1 0x20 DUP4 ADD DUP6 PUSH2 0x197E JUMP JUMPDEST PUSH2 0x1E01 PUSH1 0x40 DUP4 ADD DUP5 PUSH2 0x1948 JUMP JUMPDEST SWAP5 SWAP4 POP POP POP POP JUMP JUMPDEST PUSH0 DUP2 MLOAD SWAP1 POP PUSH2 0x1E17 DUP2 PUSH2 0x1AAB JUMP JUMPDEST SWAP3 SWAP2 POP POP JUMP JUMPDEST PUSH0 PUSH1 0x20 DUP3 DUP5 SUB SLT ISZERO PUSH2 0x1E32 JUMPI PUSH2 0x1E31 PUSH2 0x18B6 JUMP JUMPDEST JUMPDEST PUSH0 PUSH2 0x1E3F DUP5 DUP3 DUP6 ADD PUSH2 0x1E09 JUMP JUMPDEST SWAP2 POP POP SWAP3 SWAP2 POP POP JUMP JUMPDEST PUSH0 PUSH1 0x40 DUP3 ADD SWAP1 POP PUSH2 0x1E5B PUSH0 DUP4 ADD DUP6 PUSH2 0x197E JUMP JUMPDEST PUSH2 0x1E68 PUSH1 0x20 DUP4 ADD DUP5 PUSH2 0x1948 JUMP JUMPDEST SWAP4 SWAP3 POP POP POP JUMP JUMPDEST PUSH0 PUSH2 0x1E79 DUP3 PUSH2 0x193F JUMP JUMPDEST SWAP2 POP PUSH2 0x1E84 DUP4 PUSH2 0x193F JUMP JUMPDEST SWAP3 POP DUP3 DUP3 ADD SWAP1 POP DUP1 DUP3 GT ISZERO PUSH2 0x1E9C JUMPI PUSH2 0x1E9B PUSH2 0x1CD6 JUMP JUMPDEST JUMPDEST SWAP3 SWAP2 POP POP JUMP JUMPDEST PUSH0 DUP2 SWAP1 POP SWAP3 SWAP2 POP POP JUMP JUMPDEST POP JUMP JUMPDEST PUSH0 PUSH2 0x1EBA PUSH0 DUP4 PUSH2 0x1EA2 JUMP JUMPDEST SWAP2 POP PUSH2 0x1EC5 DUP3 PUSH2 0x1EAC JUMP JUMPDEST PUSH0 DUP3 ADD SWAP1 POP SWAP2 SWAP1 POP JUMP JUMPDEST PUSH0 PUSH2 0x1ED9 DUP3 PUSH2 0x1EAF JUMP JUMPDEST SWAP2 POP DUP2 SWAP1 POP SWAP2 SWAP1 POP JUMP JUMPDEST PUSH32 0x4574686572207472616E73666572206661696C65640000000000000000000000 PUSH0 DUP3 ADD MSTORE POP JUMP JUMPDEST PUSH0 PUSH2 0x1F17 PUSH1 0x15 DUP4 PUSH2 0x1B00 JUMP JUMPDEST SWAP2 POP PUSH2 0x1F22 DUP3 PUSH2 0x1EE3 JUMP JUMPDEST PUSH1 0x20 DUP3 ADD SWAP1 POP SWAP2 SWAP1 POP JUMP JUMPDEST PUSH0 PUSH1 0x20 DUP3 ADD SWAP1 POP DUP2 DUP2 SUB PUSH0 DUP4 ADD MSTORE PUSH2 0x1F44 DUP2 PUSH2 0x1F0B JUMP JUMPDEST SWAP1 POP SWAP2 SWAP1 POP JUMP JUMPDEST PUSH32 0x506F6F6C20616C726561647920696E697469616C697A65640000000000000000 PUSH0 DUP3 ADD MSTORE POP JUMP JUMPDEST PUSH0 PUSH2 0x1F7F PUSH1 0x18 DUP4 PUSH2 0x1B00 JUMP JUMPDEST SWAP2 POP PUSH2 0x1F8A DUP3 PUSH2 0x1F4B JUMP JUMPDEST PUSH1 0x20 DUP3 ADD SWAP1 POP SWAP2 SWAP1 POP JUMP JUMPDEST PUSH0 PUSH1 0x20 DUP3 ADD SWAP1 POP DUP2 DUP2 SUB PUSH0 DUP4 ADD MSTORE PUSH2 0x1FAC DUP2 PUSH2 0x1F73 JUMP JUMPDEST SWAP1 POP SWAP2 SWAP1 POP JUMP JUMPDEST PUSH32 0x496E697469616C206E61746976652063757272656E6379207265736572766520 PUSH0 DUP3 ADD MSTORE PUSH32 0x7265717569726564000000000000000000000000000000000000000000000000 PUSH1 0x20 DUP3 ADD MSTORE POP JUMP JUMPDEST PUSH0 PUSH2 0x200D PUSH1 0x28 DUP4 PUSH2 0x1B00 JUMP JUMPDEST SWAP2 POP PUSH2 0x2018 DUP3 PUSH2 0x1FB3 JUMP JUMPDEST PUSH1 0x40 DUP3 ADD SWAP1 POP SWAP2 SWAP1 POP JUMP JUMPDEST PUSH0 PUSH1 0x20 DUP3 ADD SWAP1 POP DUP2 DUP2 SUB PUSH0 DUP4 ADD MSTORE PUSH2 0x203A DUP2 PUSH2 0x2001 JUMP JUMPDEST SWAP1 POP SWAP2 SWAP1 POP JUMP JUMPDEST PUSH32 0x5468726573686F6C64206D7573742062652067726561746572207468616E207A PUSH0 DUP3 ADD MSTORE PUSH32 0x65726F0000000000000000000000000000000000000000000000000000000000 PUSH1 0x20 DUP3 ADD MSTORE POP JUMP JUMPDEST PUSH0 PUSH2 0x209B PUSH1 0x23 DUP4 PUSH2 0x1B00 JUMP JUMPDEST SWAP2 POP PUSH2 0x20A6 DUP3 PUSH2 0x2041 JUMP JUMPDEST PUSH1 0x40 DUP3 ADD SWAP1 POP SWAP2 SWAP1 POP JUMP JUMPDEST PUSH0 PUSH1 0x20 DUP3 ADD SWAP1 POP DUP2 DUP2 SUB PUSH0 DUP4 ADD MSTORE PUSH2 0x20C8 DUP2 PUSH2 0x208F JUMP JUMPDEST SWAP1 POP SWAP2 SWAP1 POP JUMP JUMPDEST PUSH32 0x4D7573742073656E6420457468657220746F2062757920746F6B656E73000000 PUSH0 DUP3 ADD MSTORE POP JUMP JUMPDEST PUSH0 PUSH2 0x2103 PUSH1 0x1D DUP4 PUSH2 0x1B00 JUMP JUMPDEST SWAP2 POP PUSH2 0x210E DUP3 PUSH2 0x20CF JUMP JUMPDEST PUSH1 0x20 DUP3 ADD SWAP1 POP SWAP2 SWAP1 POP JUMP JUMPDEST PUSH0 PUSH1 0x20 DUP3 ADD SWAP1 POP DUP2 DUP2 SUB PUSH0 DUP4 ADD MSTORE PUSH2 0x2130 DUP2 PUSH2 0x20F7 JUMP JUMPDEST SWAP1 POP SWAP2 SWAP1 POP JUMP JUMPDEST PUSH32 0x4661696C656420746F2073656E642074617820746F2064657620616464726573 PUSH0 DUP3 ADD MSTORE PUSH32 0x7300000000000000000000000000000000000000000000000000000000000000 PUSH1 0x20 DUP3 ADD MSTORE POP JUMP JUMPDEST PUSH0 PUSH2 0x2191 PUSH1 0x21 DUP4 PUSH2 0x1B00 JUMP JUMPDEST SWAP2 POP PUSH2 0x219C DUP3 PUSH2 0x2137 JUMP JUMPDEST PUSH1 0x40 DUP3 ADD SWAP1 POP SWAP2 SWAP1 POP JUMP JUMPDEST PUSH0 PUSH1 0x20 DUP3 ADD SWAP1 POP DUP2 DUP2 SUB PUSH0 DUP4 ADD MSTORE PUSH2 0x21BE DUP2 PUSH2 0x2185 JUMP JUMPDEST SWAP1 POP SWAP2 SWAP1 POP JUMP JUMPDEST PUSH32 0x416C7265616479206D6967726174656420746F20416C67656272610000000000 PUSH0 DUP3 ADD MSTORE POP JUMP JUMPDEST PUSH0 PUSH2 0x21F9 PUSH1 0x1B DUP4 PUSH2 0x1B00 JUMP JUMPDEST SWAP2 POP PUSH2 0x2204 DUP3 PUSH2 0x21C5 JUMP JUMPDEST PUSH1 0x20 DUP3 ADD SWAP1 POP SWAP2 SWAP1 POP JUMP JUMPDEST PUSH0 PUSH1 0x20 DUP3 ADD SWAP1 POP DUP2 DUP2 SUB PUSH0 DUP4 ADD MSTORE PUSH2 0x2226 DUP2 PUSH2 0x21ED JUMP JUMPDEST SWAP1 POP SWAP2 SWAP1 POP JUMP JUMPDEST PUSH32 0x416C676562726120506F6F6C496E697469616C697A6572206164647265737320 PUSH0 DUP3 ADD MSTORE PUSH32 0x6E6F742073657400000000000000000000000000000000000000000000000000 PUSH1 0x20 DUP3 ADD MSTORE POP JUMP JUMPDEST PUSH0 PUSH2 0x2287 PUSH1 0x27 DUP4 PUSH2 0x1B00 JUMP JUMPDEST SWAP2 POP PUSH2 0x2292 DUP3 PUSH2 0x222D JUMP JUMPDEST PUSH1 0x40 DUP3 ADD SWAP1 POP SWAP2 SWAP1 POP JUMP JUMPDEST PUSH0 PUSH1 0x20 DUP3 ADD SWAP1 POP DUP2 DUP2 SUB PUSH0 DUP4 ADD MSTORE PUSH2 0x22B4 DUP2 PUSH2 0x227B JUMP JUMPDEST SWAP1 POP SWAP2 SWAP1 POP JUMP JUMPDEST PUSH0 DUP2 MLOAD SWAP1 POP SWAP2 SWAP1 POP JUMP JUMPDEST DUP3 DUP2 DUP4 MCOPY PUSH0 DUP4 DUP4 ADD MSTORE POP POP POP JUMP JUMPDEST PUSH0 PUSH2 0x22DD DUP3 PUSH2 0x22BB JUMP JUMPDEST PUSH2 0x22E7 DUP2 DUP6 PUSH2 0x1EA2 JUMP JUMPDEST SWAP4 POP PUSH2 0x22F7 DUP2 DUP6 PUSH1 0x20 DUP7 ADD PUSH2 0x22C5 JUMP JUMPDEST DUP1 DUP5 ADD SWAP2 POP POP SWAP3 SWAP2 POP POP JUMP JUMPDEST PUSH0 PUSH2 0x230E DUP3 DUP5 PUSH2 0x22D3 JUMP JUMPDEST SWAP2 POP DUP2 SWAP1 POP SWAP3 SWAP2 POP POP JUMP JUMPDEST PUSH32 0x416C676562726120706F6F6C206372656174696F6E206661696C656400000000 PUSH0 DUP3 ADD MSTORE POP JUMP JUMPDEST PUSH0 PUSH2 0x234D PUSH1 0x1C DUP4 PUSH2 0x1B00 JUMP JUMPDEST SWAP2 POP PUSH2 0x2358 DUP3 PUSH2 0x2319 JUMP JUMPDEST PUSH1 0x20 DUP3 ADD SWAP1 POP SWAP2 SWAP1 POP JUMP JUMPDEST PUSH0 PUSH1 0x20 DUP3 ADD SWAP1 POP DUP2 DUP2 SUB PUSH0 DUP4 ADD MSTORE PUSH2 0x237A DUP2 PUSH2 0x2341 JUMP JUMPDEST SWAP1 POP SWAP2 SWAP1 POP JUMP JUMPDEST PUSH0 PUSH2 0x238B DUP3 PUSH2 0x18BA JUMP JUMPDEST SWAP1 POP SWAP2 SWAP1 POP JUMP JUMPDEST PUSH2 0x239B DUP2 PUSH2 0x2381 JUMP JUMPDEST DUP2 EQ PUSH2 0x23A5 JUMPI PUSH0 DUP1 REVERT JUMPDEST POP JUMP JUMPDEST PUSH0 DUP2 MLOAD SWAP1 POP PUSH2 0x23B6 DUP2 PUSH2 0x2392 JUMP JUMPDEST SWAP3 SWAP2 POP POP JUMP JUMPDEST PUSH0 PUSH1 0x20 DUP3 DUP5 SUB SLT ISZERO PUSH2 0x23D1 JUMPI PUSH2 0x23D0 PUSH2 0x18B6 JUMP JUMPDEST JUMPDEST PUSH0 PUSH2 0x23DE DUP5 DUP3 DUP6 ADD PUSH2 0x23A8 JUMP JUMPDEST SWAP2 POP POP SWAP3 SWAP2 POP POP JUMP JUMPDEST PUSH32 0x496E76616C696420416C676562726120706F6F6C206164647265737300000000 PUSH0 DUP3 ADD MSTORE POP JUMP JUMPDEST PUSH0 PUSH2 0x241B PUSH1 0x1C DUP4 PUSH2 0x1B00 JUMP JUMPDEST SWAP2 POP PUSH2 0x2426 DUP3 PUSH2 0x23E7 JUMP JUMPDEST PUSH1 0x20 DUP3 ADD SWAP1 POP SWAP2 SWAP1 POP JUMP JUMPDEST PUSH0 PUSH1 0x20 DUP3 ADD SWAP1 POP DUP2 DUP2 SUB PUSH0 DUP4 ADD MSTORE PUSH2 0x2448 DUP2 PUSH2 0x240F JUMP JUMPDEST SWAP1 POP SWAP2 SWAP1 POP JUMP JUMPDEST PUSH32 0x4661696C656420746F207472616E7366657220457468657220746F20416C6765 PUSH0 DUP3 ADD MSTORE PUSH32 0x62726120706F6F6C000000000000000000000000000000000000000000000000 PUSH1 0x20 DUP3 ADD MSTORE POP JUMP JUMPDEST PUSH0 PUSH2 0x24A9 PUSH1 0x28 DUP4 PUSH2 0x1B00 JUMP JUMPDEST SWAP2 POP PUSH2 0x24B4 DUP3 PUSH2 0x244F JUMP JUMPDEST PUSH1 0x40 DUP3 ADD SWAP1 POP SWAP2 SWAP1 POP JUMP JUMPDEST PUSH0 PUSH1 0x20 DUP3 ADD SWAP1 POP DUP2 DUP2 SUB PUSH0 DUP4 ADD MSTORE PUSH2 0x24D6 DUP2 PUSH2 0x249D JUMP JUMPDEST SWAP1 POP SWAP2 SWAP1 POP JUMP INVALID LOG2 PUSH5 0x6970667358 0x22 SLT KECCAK256 PUSH10 0xDB2D6D65CEF44D8126FD SWAP15 PUSH5 0x3DB02F47AC LOG4 DUP7 0x4E 0x2A RETURNDATASIZE 0x27 SWAP7 PUSH24 0xBF01B6BC8BAC64736F6C634300081A003300000000000000 "
				},
				"gasEstimates": {
					"creation": {
						"codeDepositCost": "1898200",
						"executionCost": "infinite",
						"totalCost": "infinite"
					},
					"external": {
						"algebraPoolInitializer()": "2574",
						"autoMigrationEnabled()": "2584",
						"buyTax()": "2448",
						"buyToken()": "infinite",
						"devAddress()": "2553",
						"getReserves()": "infinite",
						"initialize(address,uint256,uint256,uint256)": "infinite",
						"migratedToAlgebra()": "2489",
						"migrationThreshold()": "2514",
						"reserve0()": "2514",
						"reserve1()": "2470",
						"sellTax()": "2513",
						"sellToken(uint256)": "infinite",
						"setAlgebraPoolInitializer(address)": "28103",
						"toggleAutoMigration(bool)": "infinite",
						"token0()": "2576",
						"tokenFactory()": "2618",
						"updateBuyTax(uint256)": "infinite",
						"updateMigrationThreshold(uint256)": "infinite",
						"updateSellTax(uint256)": "infinite"
					},
					"internal": {
						"migrateToAlgebra()": "infinite"
					}
				},
				"methodIdentifiers": {
					"algebraPoolInitializer()": "c98b7fd2",
					"autoMigrationEnabled()": "8d5f17aa",
					"buyTax()": "4f7041a5",
					"buyToken()": "a4821719",
					"devAddress()": "3ad10ef6",
					"getReserves()": "0902f1ac",
					"initialize(address,uint256,uint256,uint256)": "4ec81af1",
					"migratedToAlgebra()": "299ce7b2",
					"migrationThreshold()": "90bc1e85",
					"reserve0()": "443cb4bc",
					"reserve1()": "5a76f25e",
					"sellTax()": "cc1776d3",
					"sellToken(uint256)": "2397e4d7",
					"setAlgebraPoolInitializer(address)": "04ccde37",
					"toggleAutoMigration(bool)": "c98a0aa8",
					"token0()": "0dfe1681",
					"tokenFactory()": "e77772fe",
					"updateBuyTax(uint256)": "436d3340",
					"updateMigrationThreshold(uint256)": "96343fd5",
					"updateSellTax(uint256)": "12185a39"
				}
			},
			"storageLayout": {
				"storage": [
					{
						"astId": 88,
						"contract": "contracts/token factory/LiquidityPool.sol:LiquidityPool",
						"label": "_status",
						"offset": 0,
						"slot": "0",
						"type": "t_uint256"
					},
					{
						"astId": 154,
						"contract": "contracts/token factory/LiquidityPool.sol:LiquidityPool",
						"label": "token0",
						"offset": 0,
						"slot": "1",
						"type": "t_address"
					},
					{
						"astId": 156,
						"contract": "contracts/token factory/LiquidityPool.sol:LiquidityPool",
						"label": "tokenFactory",
						"offset": 0,
						"slot": "2",
						"type": "t_address"
					},
					{
						"astId": 158,
						"contract": "contracts/token factory/LiquidityPool.sol:LiquidityPool",
						"label": "devAddress",
						"offset": 0,
						"slot": "3",
						"type": "t_address"
					},
					{
						"astId": 160,
						"contract": "contracts/token factory/LiquidityPool.sol:LiquidityPool",
						"label": "algebraPoolInitializer",
						"offset": 0,
						"slot": "4",
						"type": "t_address"
					},
					{
						"astId": 162,
						"contract": "contracts/token factory/LiquidityPool.sol:LiquidityPool",
						"label": "reserve0",
						"offset": 0,
						"slot": "5",
						"type": "t_uint256"
					},
					{
						"astId": 164,
						"contract": "contracts/token factory/LiquidityPool.sol:LiquidityPool",
						"label": "reserve1",
						"offset": 0,
						"slot": "6",
						"type": "t_uint256"
					},
					{
						"astId": 166,
						"contract": "contracts/token factory/LiquidityPool.sol:LiquidityPool",
						"label": "buyTax",
						"offset": 0,
						"slot": "7",
						"type": "t_uint256"
					},
					{
						"astId": 168,
						"contract": "contracts/token factory/LiquidityPool.sol:LiquidityPool",
						"label": "sellTax",
						"offset": 0,
						"slot": "8",
						"type": "t_uint256"
					},
					{
						"astId": 170,
						"contract": "contracts/token factory/LiquidityPool.sol:LiquidityPool",
						"label": "migratedToAlgebra",
						"offset": 0,
						"slot": "9",
						"type": "t_bool"
					},
					{
						"astId": 172,
						"contract": "contracts/token factory/LiquidityPool.sol:LiquidityPool",
						"label": "autoMigrationEnabled",
						"offset": 1,
						"slot": "9",
						"type": "t_bool"
					},
					{
						"astId": 174,
						"contract": "contracts/token factory/LiquidityPool.sol:LiquidityPool",
						"label": "migrationThreshold",
						"offset": 0,
						"slot": "10",
						"type": "t_uint256"
					}
				],
				"types": {
					"t_address": {
						"encoding": "inplace",
						"label": "address",
						"numberOfBytes": "20"
					},
					"t_bool": {
						"encoding": "inplace",
						"label": "bool",
						"numberOfBytes": "1"
					},
					"t_uint256": {
						"encoding": "inplace",
						"label": "uint256",
						"numberOfBytes": "32"
					}
				}
			},
			"userdoc": {
				"kind": "user",
				"methods": {},
				"version": 1
			}
		}
	}
}