{
	"contracts/token factory/LiquidityPool.sol": {
		"LiquidityPool": {
			"abi": [
				{
					"inputs": [
						{
							"internalType": "address",
							"name": "_devAddress",
							"type": "address"
						}
					],
					"stateMutability": "nonpayable",
					"type": "constructor"
				},
				{
					"anonymous": false,
					"inputs": [
						{
							"indexed": true,
							"internalType": "address",
							"name": "provider",
							"type": "address"
						},
						{
							"indexed": false,
							"internalType": "uint256",
							"name": "amountToken",
							"type": "uint256"
						},
						{
							"indexed": false,
							"internalType": "uint256",
							"name": "amountNative",
							"type": "uint256"
						}
					],
					"name": "LiquidityAdded",
					"type": "event"
				},
				{
					"anonymous": false,
					"inputs": [
						{
							"indexed": true,
							"internalType": "address",
							"name": "fromToken",
							"type": "address"
						},
						{
							"indexed": true,
							"internalType": "address",
							"name": "toToken",
							"type": "address"
						},
						{
							"indexed": false,
							"internalType": "uint256",
							"name": "amountIn",
							"type": "uint256"
						},
						{
							"indexed": false,
							"internalType": "uint256",
							"name": "amountOut",
							"type": "uint256"
						}
					],
					"name": "Swap",
					"type": "event"
				},
				{
					"anonymous": false,
					"inputs": [
						{
							"indexed": false,
							"internalType": "uint256",
							"name": "newTaxPercentage",
							"type": "uint256"
						}
					],
					"name": "TaxPercentageUpdated",
					"type": "event"
				},
				{
					"inputs": [],
					"name": "buyToken",
					"outputs": [
						{
							"internalType": "uint256",
							"name": "amountOut",
							"type": "uint256"
						}
					],
					"stateMutability": "payable",
					"type": "function"
				},
				{
					"inputs": [
						{
							"internalType": "uint256",
							"name": "ethAmount",
							"type": "uint256"
						}
					],
					"name": "calculateSlippageOnBuy",
					"outputs": [
						{
							"internalType": "uint256",
							"name": "slippage",
							"type": "uint256"
						}
					],
					"stateMutability": "view",
					"type": "function"
				},
				{
					"inputs": [
						{
							"internalType": "uint256",
							"name": "tokenAmount",
							"type": "uint256"
						}
					],
					"name": "calculateSlippageOnSell",
					"outputs": [
						{
							"internalType": "uint256",
							"name": "slippage",
							"type": "uint256"
						}
					],
					"stateMutability": "view",
					"type": "function"
				},
				{
					"inputs": [],
					"name": "devAddress",
					"outputs": [
						{
							"internalType": "address",
							"name": "",
							"type": "address"
						}
					],
					"stateMutability": "view",
					"type": "function"
				},
				{
					"inputs": [],
					"name": "getPriceInNative",
					"outputs": [
						{
							"internalType": "uint256",
							"name": "",
							"type": "uint256"
						}
					],
					"stateMutability": "view",
					"type": "function"
				},
				{
					"inputs": [],
					"name": "getPriceInToken",
					"outputs": [
						{
							"internalType": "uint256",
							"name": "",
							"type": "uint256"
						}
					],
					"stateMutability": "view",
					"type": "function"
				},
				{
					"inputs": [
						{
							"internalType": "address",
							"name": "_token0",
							"type": "address"
						},
						{
							"internalType": "address",
							"name": "_tokenFactory",
							"type": "address"
						},
						{
							"internalType": "uint256",
							"name": "_initialTokenReserve",
							"type": "uint256"
						},
						{
							"internalType": "uint256",
							"name": "_taxPercentage",
							"type": "uint256"
						}
					],
					"name": "initialize",
					"outputs": [],
					"stateMutability": "payable",
					"type": "function"
				},
				{
					"inputs": [],
					"name": "reserve0",
					"outputs": [
						{
							"internalType": "uint256",
							"name": "",
							"type": "uint256"
						}
					],
					"stateMutability": "view",
					"type": "function"
				},
				{
					"inputs": [],
					"name": "reserve1",
					"outputs": [
						{
							"internalType": "uint256",
							"name": "",
							"type": "uint256"
						}
					],
					"stateMutability": "view",
					"type": "function"
				},
				{
					"inputs": [
						{
							"internalType": "uint256",
							"name": "amountIn",
							"type": "uint256"
						}
					],
					"name": "sellToken",
					"outputs": [
						{
							"internalType": "uint256",
							"name": "amountOut",
							"type": "uint256"
						}
					],
					"stateMutability": "nonpayable",
					"type": "function"
				},
				{
					"inputs": [],
					"name": "taxPercentage",
					"outputs": [
						{
							"internalType": "uint256",
							"name": "",
							"type": "uint256"
						}
					],
					"stateMutability": "view",
					"type": "function"
				},
				{
					"inputs": [],
					"name": "token0",
					"outputs": [
						{
							"internalType": "address",
							"name": "",
							"type": "address"
						}
					],
					"stateMutability": "view",
					"type": "function"
				},
				{
					"inputs": [],
					"name": "tokenFactory",
					"outputs": [
						{
							"internalType": "address",
							"name": "",
							"type": "address"
						}
					],
					"stateMutability": "view",
					"type": "function"
				},
				{
					"inputs": [
						{
							"internalType": "uint256",
							"name": "newTaxPercentage",
							"type": "uint256"
						}
					],
					"name": "updateTaxPercentage",
					"outputs": [],
					"stateMutability": "nonpayable",
					"type": "function"
				}
			],
			"devdoc": {
				"kind": "dev",
				"methods": {},
				"version": 1
			},
			"evm": {
				"assembly": "    /* \"contracts/token factory/LiquidityPool.sol\":116:4534  contract LiquidityPool {... */\n  mstore(0x40, 0x80)\n    /* \"contracts/token factory/LiquidityPool.sol\":958:1120  constructor(address _devAddress) {... */\n  callvalue\n  dup1\n  iszero\n  tag_1\n  jumpi\n  0x00\n  dup1\n  revert\ntag_1:\n  pop\n  mload(0x40)\n  sub(codesize, bytecodeSize)\n  dup1\n  bytecodeSize\n  dup4\n  codecopy\n  dup2\n  dup2\n  add\n  0x40\n  mstore\n  dup2\n  add\n  swap1\n  tag_2\n  swap2\n  swap1\n  tag_3\n  jump\t// in\ntag_2:\n    /* \"contracts/token factory/LiquidityPool.sol\":1032:1033  0 */\n  0x00\n    /* \"contracts/token factory/LiquidityPool.sol\":1009:1034  _devAddress != address(0) */\n  0xffffffffffffffffffffffffffffffffffffffff\n  and\n    /* \"contracts/token factory/LiquidityPool.sol\":1009:1020  _devAddress */\n  dup2\n    /* \"contracts/token factory/LiquidityPool.sol\":1009:1034  _devAddress != address(0) */\n  0xffffffffffffffffffffffffffffffffffffffff\n  and\n  sub\n    /* \"contracts/token factory/LiquidityPool.sol\":1001:1079  require(_devAddress != address(0), \"Developer address cannot be zero address\") */\n  tag_6\n  jumpi\n  mload(0x40)\n  0x08c379a000000000000000000000000000000000000000000000000000000000\n  dup2\n  mstore\n  0x04\n  add\n  tag_7\n  swap1\n  tag_8\n  jump\t// in\ntag_7:\n  mload(0x40)\n  dup1\n  swap2\n  sub\n  swap1\n  revert\ntag_6:\n    /* \"contracts/token factory/LiquidityPool.sol\":1102:1113  _devAddress */\n  dup1\n    /* \"contracts/token factory/LiquidityPool.sol\":1089:1099  devAddress */\n  0x05\n  0x00\n    /* \"contracts/token factory/LiquidityPool.sol\":1089:1113  devAddress = _devAddress */\n  0x0100\n  exp\n  dup2\n  sload\n  dup2\n  0xffffffffffffffffffffffffffffffffffffffff\n  mul\n  not\n  and\n  swap1\n  dup4\n  0xffffffffffffffffffffffffffffffffffffffff\n  and\n  mul\n  or\n  swap1\n  sstore\n  pop\n    /* \"contracts/token factory/LiquidityPool.sol\":958:1120  constructor(address _devAddress) {... */\n  pop\n    /* \"contracts/token factory/LiquidityPool.sol\":116:4534  contract LiquidityPool {... */\n  jump(tag_9)\n    /* \"#utility.yul\":88:205   */\ntag_11:\n    /* \"#utility.yul\":197:198   */\n  0x00\n    /* \"#utility.yul\":194:195   */\n  dup1\n    /* \"#utility.yul\":187:199   */\n  revert\n    /* \"#utility.yul\":334:460   */\ntag_13:\n    /* \"#utility.yul\":371:378   */\n  0x00\n    /* \"#utility.yul\":411:453   */\n  0xffffffffffffffffffffffffffffffffffffffff\n    /* \"#utility.yul\":404:409   */\n  dup3\n    /* \"#utility.yul\":400:454   */\n  and\n    /* \"#utility.yul\":389:454   */\n  swap1\n  pop\n    /* \"#utility.yul\":334:460   */\n  swap2\n  swap1\n  pop\n  jump\t// out\n    /* \"#utility.yul\":466:562   */\ntag_14:\n    /* \"#utility.yul\":503:510   */\n  0x00\n    /* \"#utility.yul\":532:556   */\n  tag_26\n    /* \"#utility.yul\":550:555   */\n  dup3\n    /* \"#utility.yul\":532:556   */\n  tag_13\n  jump\t// in\ntag_26:\n    /* \"#utility.yul\":521:556   */\n  swap1\n  pop\n    /* \"#utility.yul\":466:562   */\n  swap2\n  swap1\n  pop\n  jump\t// out\n    /* \"#utility.yul\":568:690   */\ntag_15:\n    /* \"#utility.yul\":641:665   */\n  tag_28\n    /* \"#utility.yul\":659:664   */\n  dup2\n    /* \"#utility.yul\":641:665   */\n  tag_14\n  jump\t// in\ntag_28:\n    /* \"#utility.yul\":634:639   */\n  dup2\n    /* \"#utility.yul\":631:666   */\n  eq\n    /* \"#utility.yul\":621:684   */\n  tag_29\n  jumpi\n    /* \"#utility.yul\":680:681   */\n  0x00\n    /* \"#utility.yul\":677:678   */\n  dup1\n    /* \"#utility.yul\":670:682   */\n  revert\n    /* \"#utility.yul\":621:684   */\ntag_29:\n    /* \"#utility.yul\":568:690   */\n  pop\n  jump\t// out\n    /* \"#utility.yul\":696:839   */\ntag_16:\n    /* \"#utility.yul\":753:758   */\n  0x00\n    /* \"#utility.yul\":784:790   */\n  dup2\n    /* \"#utility.yul\":778:791   */\n  mload\n    /* \"#utility.yul\":769:791   */\n  swap1\n  pop\n    /* \"#utility.yul\":800:833   */\n  tag_31\n    /* \"#utility.yul\":827:832   */\n  dup2\n    /* \"#utility.yul\":800:833   */\n  tag_15\n  jump\t// in\ntag_31:\n    /* \"#utility.yul\":696:839   */\n  swap3\n  swap2\n  pop\n  pop\n  jump\t// out\n    /* \"#utility.yul\":845:1196   */\ntag_3:\n    /* \"#utility.yul\":915:921   */\n  0x00\n    /* \"#utility.yul\":964:966   */\n  0x20\n    /* \"#utility.yul\":952:961   */\n  dup3\n    /* \"#utility.yul\":943:950   */\n  dup5\n    /* \"#utility.yul\":939:962   */\n  sub\n    /* \"#utility.yul\":935:967   */\n  slt\n    /* \"#utility.yul\":932:1051   */\n  iszero\n  tag_33\n  jumpi\n    /* \"#utility.yul\":970:1049   */\n  tag_34\n  tag_11\n  jump\t// in\ntag_34:\n    /* \"#utility.yul\":932:1051   */\ntag_33:\n    /* \"#utility.yul\":1090:1091   */\n  0x00\n    /* \"#utility.yul\":1115:1179   */\n  tag_35\n    /* \"#utility.yul\":1171:1178   */\n  dup5\n    /* \"#utility.yul\":1162:1168   */\n  dup3\n    /* \"#utility.yul\":1151:1160   */\n  dup6\n    /* \"#utility.yul\":1147:1169   */\n  add\n    /* \"#utility.yul\":1115:1179   */\n  tag_16\n  jump\t// in\ntag_35:\n    /* \"#utility.yul\":1105:1179   */\n  swap2\n  pop\n    /* \"#utility.yul\":1061:1189   */\n  pop\n    /* \"#utility.yul\":845:1196   */\n  swap3\n  swap2\n  pop\n  pop\n  jump\t// out\n    /* \"#utility.yul\":1202:1371   */\ntag_17:\n    /* \"#utility.yul\":1286:1297   */\n  0x00\n    /* \"#utility.yul\":1320:1326   */\n  dup3\n    /* \"#utility.yul\":1315:1318   */\n  dup3\n    /* \"#utility.yul\":1308:1327   */\n  mstore\n    /* \"#utility.yul\":1360:1364   */\n  0x20\n    /* \"#utility.yul\":1355:1358   */\n  dup3\n    /* \"#utility.yul\":1351:1365   */\n  add\n    /* \"#utility.yul\":1336:1365   */\n  swap1\n  pop\n    /* \"#utility.yul\":1202:1371   */\n  swap3\n  swap2\n  pop\n  pop\n  jump\t// out\n    /* \"#utility.yul\":1377:1604   */\ntag_18:\n    /* \"#utility.yul\":1517:1551   */\n  0x446576656c6f70657220616464726573732063616e6e6f74206265207a65726f\n    /* \"#utility.yul\":1513:1514   */\n  0x00\n    /* \"#utility.yul\":1505:1511   */\n  dup3\n    /* \"#utility.yul\":1501:1515   */\n  add\n    /* \"#utility.yul\":1494:1552   */\n  mstore\n    /* \"#utility.yul\":1586:1596   */\n  0x2061646472657373000000000000000000000000000000000000000000000000\n    /* \"#utility.yul\":1581:1583   */\n  0x20\n    /* \"#utility.yul\":1573:1579   */\n  dup3\n    /* \"#utility.yul\":1569:1584   */\n  add\n    /* \"#utility.yul\":1562:1597   */\n  mstore\n    /* \"#utility.yul\":1377:1604   */\n  pop\n  jump\t// out\n    /* \"#utility.yul\":1610:1976   */\ntag_19:\n    /* \"#utility.yul\":1752:1755   */\n  0x00\n    /* \"#utility.yul\":1773:1840   */\n  tag_39\n    /* \"#utility.yul\":1837:1839   */\n  0x28\n    /* \"#utility.yul\":1832:1835   */\n  dup4\n    /* \"#utility.yul\":1773:1840   */\n  tag_17\n  jump\t// in\ntag_39:\n    /* \"#utility.yul\":1766:1840   */\n  swap2\n  pop\n    /* \"#utility.yul\":1849:1942   */\n  tag_40\n    /* \"#utility.yul\":1938:1941   */\n  dup3\n    /* \"#utility.yul\":1849:1942   */\n  tag_18\n  jump\t// in\ntag_40:\n    /* \"#utility.yul\":1967:1969   */\n  0x40\n    /* \"#utility.yul\":1962:1965   */\n  dup3\n    /* \"#utility.yul\":1958:1970   */\n  add\n    /* \"#utility.yul\":1951:1970   */\n  swap1\n  pop\n    /* \"#utility.yul\":1610:1976   */\n  swap2\n  swap1\n  pop\n  jump\t// out\n    /* \"#utility.yul\":1982:2401   */\ntag_8:\n    /* \"#utility.yul\":2148:2152   */\n  0x00\n    /* \"#utility.yul\":2186:2188   */\n  0x20\n    /* \"#utility.yul\":2175:2184   */\n  dup3\n    /* \"#utility.yul\":2171:2189   */\n  add\n    /* \"#utility.yul\":2163:2189   */\n  swap1\n  pop\n    /* \"#utility.yul\":2235:2244   */\n  dup2\n    /* \"#utility.yul\":2229:2233   */\n  dup2\n    /* \"#utility.yul\":2225:2245   */\n  sub\n    /* \"#utility.yul\":2221:2222   */\n  0x00\n    /* \"#utility.yul\":2210:2219   */\n  dup4\n    /* \"#utility.yul\":2206:2223   */\n  add\n    /* \"#utility.yul\":2199:2246   */\n  mstore\n    /* \"#utility.yul\":2263:2394   */\n  tag_42\n    /* \"#utility.yul\":2389:2393   */\n  dup2\n    /* \"#utility.yul\":2263:2394   */\n  tag_19\n  jump\t// in\ntag_42:\n    /* \"#utility.yul\":2255:2394   */\n  swap1\n  pop\n    /* \"#utility.yul\":1982:2401   */\n  swap2\n  swap1\n  pop\n  jump\t// out\n    /* \"contracts/token factory/LiquidityPool.sol\":116:4534  contract LiquidityPool {... */\ntag_9:\n  dataSize(sub_0)\n  dup1\n  dataOffset(sub_0)\n  0x00\n  codecopy\n  0x00\n  return\nstop\n\nsub_0: assembly {\n        /* \"contracts/token factory/LiquidityPool.sol\":116:4534  contract LiquidityPool {... */\n      mstore(0x40, 0x80)\n      jumpi(tag_1, lt(calldatasize, 0x04))\n      shr(0xe0, calldataload(0x00))\n      dup1\n      0x443cb4bc\n      gt\n      tag_16\n      jumpi\n      dup1\n      0xa4f9c914\n      gt\n      tag_17\n      jumpi\n      dup1\n      0xa4f9c914\n      eq\n      tag_12\n      jumpi\n      dup1\n      0xae7b6d16\n      eq\n      tag_13\n      jumpi\n      dup1\n      0xe77772fe\n      eq\n      tag_14\n      jumpi\n      dup1\n      0xeb990c59\n      eq\n      tag_15\n      jumpi\n      jump(tag_1)\n    tag_17:\n      dup1\n      0x443cb4bc\n      eq\n      tag_9\n      jumpi\n      dup1\n      0x5a76f25e\n      eq\n      tag_10\n      jumpi\n      dup1\n      0xa4821719\n      eq\n      tag_11\n      jumpi\n      jump(tag_1)\n    tag_16:\n      dup1\n      0x2397e4d7\n      gt\n      tag_18\n      jumpi\n      dup1\n      0x2397e4d7\n      eq\n      tag_5\n      jumpi\n      dup1\n      0x29cc78ef\n      eq\n      tag_6\n      jumpi\n      dup1\n      0x3ad10ef6\n      eq\n      tag_7\n      jumpi\n      dup1\n      0x3f131c6a\n      eq\n      tag_8\n      jumpi\n      jump(tag_1)\n    tag_18:\n      dup1\n      0x02bbce46\n      eq\n      tag_2\n      jumpi\n      dup1\n      0x09fd2e69\n      eq\n      tag_3\n      jumpi\n      dup1\n      0x0dfe1681\n      eq\n      tag_4\n      jumpi\n    tag_1:\n      0x00\n      dup1\n      revert\n        /* \"contracts/token factory/LiquidityPool.sol\":3730:3839  function getPriceInToken() public view returns (uint256) {... */\n    tag_2:\n      callvalue\n      dup1\n      iszero\n      tag_19\n      jumpi\n      0x00\n      dup1\n      revert\n    tag_19:\n      pop\n      tag_20\n      tag_21\n      jump\t// in\n    tag_20:\n      mload(0x40)\n      tag_22\n      swap2\n      swap1\n      tag_23\n      jump\t// in\n    tag_22:\n      mload(0x40)\n      dup1\n      swap2\n      sub\n      swap1\n      return\n        /* \"contracts/token factory/LiquidityPool.sol\":3614:3724  function getPriceInNative() public view returns (uint256) {... */\n    tag_3:\n      callvalue\n      dup1\n      iszero\n      tag_24\n      jumpi\n      0x00\n      dup1\n      revert\n    tag_24:\n      pop\n      tag_25\n      tag_26\n      jump\t// in\n    tag_25:\n      mload(0x40)\n      tag_27\n      swap2\n      swap1\n      tag_23\n      jump\t// in\n    tag_27:\n      mload(0x40)\n      dup1\n      swap2\n      sub\n      swap1\n      return\n        /* \"contracts/token factory/LiquidityPool.sol\":145:166  address public token0 */\n    tag_4:\n      callvalue\n      dup1\n      iszero\n      tag_28\n      jumpi\n      0x00\n      dup1\n      revert\n    tag_28:\n      pop\n      tag_29\n      tag_30\n      jump\t// in\n    tag_29:\n      mload(0x40)\n      tag_31\n      swap2\n      swap1\n      tag_32\n      jump\t// in\n    tag_31:\n      mload(0x40)\n      dup1\n      swap2\n      sub\n      swap1\n      return\n        /* \"contracts/token factory/LiquidityPool.sol\":2783:3608  function sellToken(uint256 amountIn) external returns (uint256 amountOut) {... */\n    tag_5:\n      callvalue\n      dup1\n      iszero\n      tag_33\n      jumpi\n      0x00\n      dup1\n      revert\n    tag_33:\n      pop\n      tag_34\n      0x04\n      dup1\n      calldatasize\n      sub\n      dup2\n      add\n      swap1\n      tag_35\n      swap2\n      swap1\n      tag_36\n      jump\t// in\n    tag_35:\n      tag_37\n      jump\t// in\n    tag_34:\n      mload(0x40)\n      tag_38\n      swap2\n      swap1\n      tag_23\n      jump\t// in\n    tag_38:\n      mload(0x40)\n      dup1\n      swap2\n      sub\n      swap1\n      return\n        /* \"contracts/token factory/LiquidityPool.sol\":4189:4532  function calculateSlippageOnSell(uint256 tokenAmount) public view returns (uint256 slippage) {... */\n    tag_6:\n      callvalue\n      dup1\n      iszero\n      tag_39\n      jumpi\n      0x00\n      dup1\n      revert\n    tag_39:\n      pop\n      tag_40\n      0x04\n      dup1\n      calldatasize\n      sub\n      dup2\n      add\n      swap1\n      tag_41\n      swap2\n      swap1\n      tag_36\n      jump\t// in\n    tag_41:\n      tag_42\n      jump\t// in\n    tag_40:\n      mload(0x40)\n      tag_43\n      swap2\n      swap1\n      tag_23\n      jump\t// in\n    tag_43:\n      mload(0x40)\n      dup1\n      swap2\n      sub\n      swap1\n      return\n        /* \"contracts/token factory/LiquidityPool.sol\":497:522  address public devAddress */\n    tag_7:\n      callvalue\n      dup1\n      iszero\n      tag_44\n      jumpi\n      0x00\n      dup1\n      revert\n    tag_44:\n      pop\n      tag_45\n      tag_46\n      jump\t// in\n    tag_45:\n      mload(0x40)\n      tag_47\n      swap2\n      swap1\n      tag_32\n      jump\t// in\n    tag_47:\n      mload(0x40)\n      dup1\n      swap2\n      sub\n      swap1\n      return\n        /* \"contracts/token factory/LiquidityPool.sol\":1752:1930  function updateTaxPercentage(uint256 newTaxPercentage) external onlyFactory {... */\n    tag_8:\n      callvalue\n      dup1\n      iszero\n      tag_48\n      jumpi\n      0x00\n      dup1\n      revert\n    tag_48:\n      pop\n      tag_49\n      0x04\n      dup1\n      calldatasize\n      sub\n      dup2\n      add\n      swap1\n      tag_50\n      swap2\n      swap1\n      tag_36\n      jump\t// in\n    tag_50:\n      tag_51\n      jump\t// in\n    tag_49:\n      stop\n        /* \"contracts/token factory/LiquidityPool.sol\":266:289  uint256 public reserve0 */\n    tag_9:\n      callvalue\n      dup1\n      iszero\n      tag_52\n      jumpi\n      0x00\n      dup1\n      revert\n    tag_52:\n      pop\n      tag_53\n      tag_54\n      jump\t// in\n    tag_53:\n      mload(0x40)\n      tag_55\n      swap2\n      swap1\n      tag_23\n      jump\t// in\n    tag_55:\n      mload(0x40)\n      dup1\n      swap2\n      sub\n      swap1\n      return\n        /* \"contracts/token factory/LiquidityPool.sol\":323:346  uint256 public reserve1 */\n    tag_10:\n      callvalue\n      dup1\n      iszero\n      tag_56\n      jumpi\n      0x00\n      dup1\n      revert\n    tag_56:\n      pop\n      tag_57\n      tag_58\n      jump\t// in\n    tag_57:\n      mload(0x40)\n      tag_59\n      swap2\n      swap1\n      tag_23\n      jump\t// in\n    tag_59:\n      mload(0x40)\n      dup1\n      swap2\n      sub\n      swap1\n      return\n        /* \"contracts/token factory/LiquidityPool.sol\":1986:2726  function buyToken() external payable returns (uint256 amountOut) {... */\n    tag_11:\n      tag_60\n      tag_61\n      jump\t// in\n    tag_60:\n      mload(0x40)\n      tag_62\n      swap2\n      swap1\n      tag_23\n      jump\t// in\n    tag_62:\n      mload(0x40)\n      dup1\n      swap2\n      sub\n      swap1\n      return\n        /* \"contracts/token factory/LiquidityPool.sol\":3845:4183  function calculateSlippageOnBuy(uint256 ethAmount) public view returns (uint256 slippage) {... */\n    tag_12:\n      callvalue\n      dup1\n      iszero\n      tag_63\n      jumpi\n      0x00\n      dup1\n      revert\n    tag_63:\n      pop\n      tag_64\n      0x04\n      dup1\n      calldatasize\n      sub\n      dup2\n      add\n      swap1\n      tag_65\n      swap2\n      swap1\n      tag_36\n      jump\t// in\n    tag_65:\n      tag_66\n      jump\t// in\n    tag_64:\n      mload(0x40)\n      tag_67\n      swap2\n      swap1\n      tag_23\n      jump\t// in\n    tag_67:\n      mload(0x40)\n      dup1\n      swap2\n      sub\n      swap1\n      return\n        /* \"contracts/token factory/LiquidityPool.sol\":412:440  uint256 public taxPercentage */\n    tag_13:\n      callvalue\n      dup1\n      iszero\n      tag_68\n      jumpi\n      0x00\n      dup1\n      revert\n    tag_68:\n      pop\n      tag_69\n      tag_70\n      jump\t// in\n    tag_69:\n      mload(0x40)\n      tag_71\n      swap2\n      swap1\n      tag_23\n      jump\t// in\n    tag_71:\n      mload(0x40)\n      dup1\n      swap2\n      sub\n      swap1\n      return\n        /* \"contracts/token factory/LiquidityPool.sol\":198:225  address public tokenFactory */\n    tag_14:\n      callvalue\n      dup1\n      iszero\n      tag_72\n      jumpi\n      0x00\n      dup1\n      revert\n    tag_72:\n      pop\n      tag_73\n      tag_74\n      jump\t// in\n    tag_73:\n      mload(0x40)\n      tag_75\n      swap2\n      swap1\n      tag_32\n      jump\t// in\n    tag_75:\n      mload(0x40)\n      dup1\n      swap2\n      sub\n      swap1\n      return\n        /* \"contracts/token factory/LiquidityPool.sol\":1126:1746  function initialize(... */\n    tag_15:\n      tag_76\n      0x04\n      dup1\n      calldatasize\n      sub\n      dup2\n      add\n      swap1\n      tag_77\n      swap2\n      swap1\n      tag_78\n      jump\t// in\n    tag_77:\n      tag_79\n      jump\t// in\n    tag_76:\n      stop\n        /* \"contracts/token factory/LiquidityPool.sol\":3730:3839  function getPriceInToken() public view returns (uint256) {... */\n    tag_21:\n        /* \"contracts/token factory/LiquidityPool.sol\":3778:3785  uint256 */\n      0x00\n        /* \"contracts/token factory/LiquidityPool.sol\":3824:3832  reserve1 */\n      sload(0x03)\n        /* \"contracts/token factory/LiquidityPool.sol\":3816:3820  1e18 */\n      0x0de0b6b3a7640000\n        /* \"contracts/token factory/LiquidityPool.sol\":3805:3813  reserve0 */\n      sload(0x02)\n        /* \"contracts/token factory/LiquidityPool.sol\":3805:3820  reserve0 * 1e18 */\n      tag_81\n      swap2\n      swap1\n      tag_82\n      jump\t// in\n    tag_81:\n        /* \"contracts/token factory/LiquidityPool.sol\":3804:3832  (reserve0 * 1e18) / reserve1 */\n      tag_83\n      swap2\n      swap1\n      tag_84\n      jump\t// in\n    tag_83:\n        /* \"contracts/token factory/LiquidityPool.sol\":3797:3832  return (reserve0 * 1e18) / reserve1 */\n      swap1\n      pop\n        /* \"contracts/token factory/LiquidityPool.sol\":3730:3839  function getPriceInToken() public view returns (uint256) {... */\n      swap1\n      jump\t// out\n        /* \"contracts/token factory/LiquidityPool.sol\":3614:3724  function getPriceInNative() public view returns (uint256) {... */\n    tag_26:\n        /* \"contracts/token factory/LiquidityPool.sol\":3663:3670  uint256 */\n      0x00\n        /* \"contracts/token factory/LiquidityPool.sol\":3709:3717  reserve0 */\n      sload(0x02)\n        /* \"contracts/token factory/LiquidityPool.sol\":3701:3705  1e18 */\n      0x0de0b6b3a7640000\n        /* \"contracts/token factory/LiquidityPool.sol\":3690:3698  reserve1 */\n      sload(0x03)\n        /* \"contracts/token factory/LiquidityPool.sol\":3690:3705  reserve1 * 1e18 */\n      tag_86\n      swap2\n      swap1\n      tag_82\n      jump\t// in\n    tag_86:\n        /* \"contracts/token factory/LiquidityPool.sol\":3689:3717  (reserve1 * 1e18) / reserve0 */\n      tag_87\n      swap2\n      swap1\n      tag_84\n      jump\t// in\n    tag_87:\n        /* \"contracts/token factory/LiquidityPool.sol\":3682:3717  return (reserve1 * 1e18) / reserve0 */\n      swap1\n      pop\n        /* \"contracts/token factory/LiquidityPool.sol\":3614:3724  function getPriceInNative() public view returns (uint256) {... */\n      swap1\n      jump\t// out\n        /* \"contracts/token factory/LiquidityPool.sol\":145:166  address public token0 */\n    tag_30:\n      0x00\n      dup1\n      sload\n      swap1\n      0x0100\n      exp\n      swap1\n      div\n      0xffffffffffffffffffffffffffffffffffffffff\n      and\n      dup2\n      jump\t// out\n        /* \"contracts/token factory/LiquidityPool.sol\":2783:3608  function sellToken(uint256 amountIn) external returns (uint256 amountOut) {... */\n    tag_37:\n        /* \"contracts/token factory/LiquidityPool.sol\":2838:2855  uint256 amountOut */\n      0x00\n        /* \"contracts/token factory/LiquidityPool.sol\":2886:2887  0 */\n      dup1\n        /* \"contracts/token factory/LiquidityPool.sol\":2875:2883  amountIn */\n      dup3\n        /* \"contracts/token factory/LiquidityPool.sol\":2875:2887  amountIn > 0 */\n      gt\n        /* \"contracts/token factory/LiquidityPool.sol\":2867:2913  require(amountIn > 0, \"Must sell some tokens\") */\n      tag_89\n      jumpi\n      mload(0x40)\n      0x08c379a000000000000000000000000000000000000000000000000000000000\n      dup2\n      mstore\n      0x04\n      add\n      tag_90\n      swap1\n      tag_91\n      jump\t// in\n    tag_90:\n      mload(0x40)\n      dup1\n      swap2\n      sub\n      swap1\n      revert\n    tag_89:\n        /* \"contracts/token factory/LiquidityPool.sol\":2924:2935  uint256 tax */\n      0x00\n        /* \"contracts/token factory/LiquidityPool.sol\":2967:2970  100 */\n      0x64\n        /* \"contracts/token factory/LiquidityPool.sol\":2950:2963  taxPercentage */\n      sload(0x04)\n        /* \"contracts/token factory/LiquidityPool.sol\":2939:2947  amountIn */\n      dup5\n        /* \"contracts/token factory/LiquidityPool.sol\":2939:2963  amountIn * taxPercentage */\n      tag_92\n      swap2\n      swap1\n      tag_82\n      jump\t// in\n    tag_92:\n        /* \"contracts/token factory/LiquidityPool.sol\":2938:2970  (amountIn * taxPercentage) / 100 */\n      tag_93\n      swap2\n      swap1\n      tag_84\n      jump\t// in\n    tag_93:\n        /* \"contracts/token factory/LiquidityPool.sol\":2924:2970  uint256 tax = (amountIn * taxPercentage) / 100 */\n      swap1\n      pop\n        /* \"contracts/token factory/LiquidityPool.sol\":2980:3004  uint256 amountInAfterTax */\n      0x00\n        /* \"contracts/token factory/LiquidityPool.sol\":3018:3021  tax */\n      dup2\n        /* \"contracts/token factory/LiquidityPool.sol\":3007:3015  amountIn */\n      dup5\n        /* \"contracts/token factory/LiquidityPool.sol\":3007:3021  amountIn - tax */\n      tag_94\n      swap2\n      swap1\n      tag_95\n      jump\t// in\n    tag_94:\n        /* \"contracts/token factory/LiquidityPool.sol\":2980:3021  uint256 amountInAfterTax = amountIn - tax */\n      swap1\n      pop\n        /* \"contracts/token factory/LiquidityPool.sol\":3114:3120  token0 */\n      0x00\n      dup1\n      sload\n      swap1\n      0x0100\n      exp\n      swap1\n      div\n      0xffffffffffffffffffffffffffffffffffffffff\n      and\n        /* \"contracts/token factory/LiquidityPool.sol\":3107:3130  IERC20(token0).transfer */\n      0xffffffffffffffffffffffffffffffffffffffff\n      and\n      0xa9059cbb\n        /* \"contracts/token factory/LiquidityPool.sol\":3131:3141  devAddress */\n      0x05\n      0x00\n      swap1\n      sload\n      swap1\n      0x0100\n      exp\n      swap1\n      div\n      0xffffffffffffffffffffffffffffffffffffffff\n      and\n        /* \"contracts/token factory/LiquidityPool.sol\":3143:3146  tax */\n      dup5\n        /* \"contracts/token factory/LiquidityPool.sol\":3107:3147  IERC20(token0).transfer(devAddress, tax) */\n      mload(0x40)\n      dup4\n      0xffffffff\n      and\n      0xe0\n      shl\n      dup2\n      mstore\n      0x04\n      add\n      tag_96\n      swap3\n      swap2\n      swap1\n      tag_97\n      jump\t// in\n    tag_96:\n      0x20\n      mload(0x40)\n      dup1\n      dup4\n      sub\n      dup2\n      0x00\n      dup8\n      gas\n      call\n      iszero\n      dup1\n      iszero\n      tag_99\n      jumpi\n      returndatasize\n      0x00\n      dup1\n      returndatacopy\n      revert(0x00, returndatasize)\n    tag_99:\n      pop\n      pop\n      pop\n      pop\n      mload(0x40)\n      returndatasize\n      not(0x1f)\n      0x1f\n      dup3\n      add\n      and\n      dup3\n      add\n      dup1\n      0x40\n      mstore\n      pop\n      dup2\n      add\n      swap1\n      tag_100\n      swap2\n      swap1\n      tag_101\n      jump\t// in\n    tag_100:\n      pop\n        /* \"contracts/token factory/LiquidityPool.sol\":3158:3177  uint256 newReserve0 */\n      0x00\n        /* \"contracts/token factory/LiquidityPool.sol\":3191:3207  amountInAfterTax */\n      dup2\n        /* \"contracts/token factory/LiquidityPool.sol\":3180:3188  reserve0 */\n      sload(0x02)\n        /* \"contracts/token factory/LiquidityPool.sol\":3180:3207  reserve0 + amountInAfterTax */\n      tag_102\n      swap2\n      swap1\n      tag_103\n      jump\t// in\n    tag_102:\n        /* \"contracts/token factory/LiquidityPool.sol\":3158:3207  uint256 newReserve0 = reserve0 + amountInAfterTax */\n      swap1\n      pop\n        /* \"contracts/token factory/LiquidityPool.sol\":3264:3275  newReserve0 */\n      dup1\n        /* \"contracts/token factory/LiquidityPool.sol\":3252:3260  reserve1 */\n      sload(0x03)\n        /* \"contracts/token factory/LiquidityPool.sol\":3241:3249  reserve0 */\n      sload(0x02)\n        /* \"contracts/token factory/LiquidityPool.sol\":3241:3260  reserve0 * reserve1 */\n      tag_104\n      swap2\n      swap1\n      tag_82\n      jump\t// in\n    tag_104:\n        /* \"contracts/token factory/LiquidityPool.sol\":3240:3275  (reserve0 * reserve1) / newReserve0 */\n      tag_105\n      swap2\n      swap1\n      tag_84\n      jump\t// in\n    tag_105:\n        /* \"contracts/token factory/LiquidityPool.sol\":3229:3237  reserve1 */\n      sload(0x03)\n        /* \"contracts/token factory/LiquidityPool.sol\":3229:3275  reserve1 - (reserve0 * reserve1) / newReserve0 */\n      tag_106\n      swap2\n      swap1\n      tag_95\n      jump\t// in\n    tag_106:\n        /* \"contracts/token factory/LiquidityPool.sol\":3217:3275  amountOut = reserve1 - (reserve0 * reserve1) / newReserve0 */\n      swap4\n      pop\n        /* \"contracts/token factory/LiquidityPool.sol\":3297:3308  newReserve0 */\n      dup1\n        /* \"contracts/token factory/LiquidityPool.sol\":3286:3294  reserve0 */\n      0x02\n        /* \"contracts/token factory/LiquidityPool.sol\":3286:3308  reserve0 = newReserve0 */\n      dup2\n      swap1\n      sstore\n      pop\n        /* \"contracts/token factory/LiquidityPool.sol\":3330:3339  amountOut */\n      dup4\n        /* \"contracts/token factory/LiquidityPool.sol\":3318:3326  reserve1 */\n      0x03\n      0x00\n        /* \"contracts/token factory/LiquidityPool.sol\":3318:3339  reserve1 -= amountOut */\n      dup3\n      dup3\n      sload\n      tag_107\n      swap2\n      swap1\n      tag_95\n      jump\t// in\n    tag_107:\n      swap3\n      pop\n      pop\n      dup2\n      swap1\n      sstore\n      pop\n        /* \"contracts/token factory/LiquidityPool.sol\":3357:3363  token0 */\n      0x00\n      dup1\n      sload\n      swap1\n      0x0100\n      exp\n      swap1\n      div\n      0xffffffffffffffffffffffffffffffffffffffff\n      and\n        /* \"contracts/token factory/LiquidityPool.sol\":3350:3377  IERC20(token0).transferFrom */\n      0xffffffffffffffffffffffffffffffffffffffff\n      and\n      0x23b872dd\n        /* \"contracts/token factory/LiquidityPool.sol\":3378:3388  msg.sender */\n      caller\n        /* \"contracts/token factory/LiquidityPool.sol\":3398:3402  this */\n      address\n        /* \"contracts/token factory/LiquidityPool.sol\":3405:3413  amountIn */\n      dup9\n        /* \"contracts/token factory/LiquidityPool.sol\":3350:3414  IERC20(token0).transferFrom(msg.sender, address(this), amountIn) */\n      mload(0x40)\n      dup5\n      0xffffffff\n      and\n      0xe0\n      shl\n      dup2\n      mstore\n      0x04\n      add\n      tag_108\n      swap4\n      swap3\n      swap2\n      swap1\n      tag_109\n      jump\t// in\n    tag_108:\n      0x20\n      mload(0x40)\n      dup1\n      dup4\n      sub\n      dup2\n      0x00\n      dup8\n      gas\n      call\n      iszero\n      dup1\n      iszero\n      tag_111\n      jumpi\n      returndatasize\n      0x00\n      dup1\n      returndatacopy\n      revert(0x00, returndatasize)\n    tag_111:\n      pop\n      pop\n      pop\n      pop\n      mload(0x40)\n      returndatasize\n      not(0x1f)\n      0x1f\n      dup3\n      add\n      and\n      dup3\n      add\n      dup1\n      0x40\n      mstore\n      pop\n      dup2\n      add\n      swap1\n      tag_112\n      swap2\n      swap1\n      tag_101\n      jump\t// in\n    tag_112:\n      pop\n        /* \"contracts/token factory/LiquidityPool.sol\":3434:3446  bool success */\n      0x00\n        /* \"contracts/token factory/LiquidityPool.sol\":3452:3462  msg.sender */\n      caller\n        /* \"contracts/token factory/LiquidityPool.sol\":3452:3467  msg.sender.call */\n      0xffffffffffffffffffffffffffffffffffffffff\n      and\n        /* \"contracts/token factory/LiquidityPool.sol\":3475:3484  amountOut */\n      dup6\n        /* \"contracts/token factory/LiquidityPool.sol\":3452:3489  msg.sender.call{value: amountOut}(\"\") */\n      mload(0x40)\n      tag_113\n      swap1\n      tag_114\n      jump\t// in\n    tag_113:\n      0x00\n      mload(0x40)\n      dup1\n      dup4\n      sub\n      dup2\n      dup6\n      dup8\n      gas\n      call\n      swap3\n      pop\n      pop\n      pop\n      returndatasize\n      dup1\n      0x00\n      dup2\n      eq\n      tag_117\n      jumpi\n      mload(0x40)\n      swap2\n      pop\n      and(add(returndatasize, 0x3f), not(0x1f))\n      dup3\n      add\n      0x40\n      mstore\n      returndatasize\n      dup3\n      mstore\n      returndatasize\n      0x00\n      0x20\n      dup5\n      add\n      returndatacopy\n      jump(tag_116)\n    tag_117:\n      0x60\n      swap2\n      pop\n    tag_116:\n      pop\n        /* \"contracts/token factory/LiquidityPool.sol\":3433:3489  (bool success, ) = msg.sender.call{value: amountOut}(\"\") */\n      pop\n      swap1\n      pop\n        /* \"contracts/token factory/LiquidityPool.sol\":3507:3514  success */\n      dup1\n        /* \"contracts/token factory/LiquidityPool.sol\":3499:3540  require(success, \"Ether transfer failed\") */\n      tag_118\n      jumpi\n      mload(0x40)\n      0x08c379a000000000000000000000000000000000000000000000000000000000\n      dup2\n      mstore\n      0x04\n      add\n      tag_119\n      swap1\n      tag_120\n      jump\t// in\n    tag_119:\n      mload(0x40)\n      dup1\n      swap2\n      sub\n      swap1\n      revert\n    tag_118:\n        /* \"contracts/token factory/LiquidityPool.sol\":3577:3578  0 */\n      0x00\n        /* \"contracts/token factory/LiquidityPool.sol\":3556:3601  Swap(token0, address(0), amountIn, amountOut) */\n      0xffffffffffffffffffffffffffffffffffffffff\n      and\n        /* \"contracts/token factory/LiquidityPool.sol\":3561:3567  token0 */\n      0x00\n      dup1\n      sload\n      swap1\n      0x0100\n      exp\n      swap1\n      div\n      0xffffffffffffffffffffffffffffffffffffffff\n      and\n        /* \"contracts/token factory/LiquidityPool.sol\":3556:3601  Swap(token0, address(0), amountIn, amountOut) */\n      0xffffffffffffffffffffffffffffffffffffffff\n      and\n      0xfa2dda1cc1b86e41239702756b13effbc1a092b5c57e3ad320fbe4f3b13fe235\n        /* \"contracts/token factory/LiquidityPool.sol\":3581:3589  amountIn */\n      dup9\n        /* \"contracts/token factory/LiquidityPool.sol\":3591:3600  amountOut */\n      dup9\n        /* \"contracts/token factory/LiquidityPool.sol\":3556:3601  Swap(token0, address(0), amountIn, amountOut) */\n      mload(0x40)\n      tag_121\n      swap3\n      swap2\n      swap1\n      tag_122\n      jump\t// in\n    tag_121:\n      mload(0x40)\n      dup1\n      swap2\n      sub\n      swap1\n      log3\n        /* \"contracts/token factory/LiquidityPool.sol\":2857:3608  {... */\n      pop\n      pop\n      pop\n      pop\n        /* \"contracts/token factory/LiquidityPool.sol\":2783:3608  function sellToken(uint256 amountIn) external returns (uint256 amountOut) {... */\n      swap2\n      swap1\n      pop\n      jump\t// out\n        /* \"contracts/token factory/LiquidityPool.sol\":4189:4532  function calculateSlippageOnSell(uint256 tokenAmount) public view returns (uint256 slippage) {... */\n    tag_42:\n        /* \"contracts/token factory/LiquidityPool.sol\":4264:4280  uint256 slippage */\n      0x00\n        /* \"contracts/token factory/LiquidityPool.sol\":4292:4311  uint256 newReserve0 */\n      dup1\n        /* \"contracts/token factory/LiquidityPool.sol\":4325:4336  tokenAmount */\n      dup3\n        /* \"contracts/token factory/LiquidityPool.sol\":4314:4322  reserve0 */\n      sload(0x02)\n        /* \"contracts/token factory/LiquidityPool.sol\":4314:4336  reserve0 + tokenAmount */\n      tag_124\n      swap2\n      swap1\n      tag_103\n      jump\t// in\n    tag_124:\n        /* \"contracts/token factory/LiquidityPool.sol\":4292:4336  uint256 newReserve0 = reserve0 + tokenAmount */\n      swap1\n      pop\n        /* \"contracts/token factory/LiquidityPool.sol\":4346:4363  uint256 amountOut */\n      0x00\n        /* \"contracts/token factory/LiquidityPool.sol\":4401:4412  newReserve0 */\n      dup2\n        /* \"contracts/token factory/LiquidityPool.sol\":4389:4397  reserve1 */\n      sload(0x03)\n        /* \"contracts/token factory/LiquidityPool.sol\":4378:4386  reserve0 */\n      sload(0x02)\n        /* \"contracts/token factory/LiquidityPool.sol\":4378:4397  reserve0 * reserve1 */\n      tag_125\n      swap2\n      swap1\n      tag_82\n      jump\t// in\n    tag_125:\n        /* \"contracts/token factory/LiquidityPool.sol\":4377:4412  (reserve0 * reserve1) / newReserve0 */\n      tag_126\n      swap2\n      swap1\n      tag_84\n      jump\t// in\n    tag_126:\n        /* \"contracts/token factory/LiquidityPool.sol\":4366:4374  reserve1 */\n      sload(0x03)\n        /* \"contracts/token factory/LiquidityPool.sol\":4366:4412  reserve1 - (reserve0 * reserve1) / newReserve0 */\n      tag_127\n      swap2\n      swap1\n      tag_95\n      jump\t// in\n    tag_127:\n        /* \"contracts/token factory/LiquidityPool.sol\":4346:4412  uint256 amountOut = reserve1 - (reserve0 * reserve1) / newReserve0 */\n      swap1\n      pop\n        /* \"contracts/token factory/LiquidityPool.sol\":4422:4441  uint256 priceImpact */\n      0x00\n        /* \"contracts/token factory/LiquidityPool.sol\":4478:4486  reserve1 */\n      sload(0x03)\n        /* \"contracts/token factory/LiquidityPool.sol\":4470:4474  1e18 */\n      0x0de0b6b3a7640000\n        /* \"contracts/token factory/LiquidityPool.sol\":4457:4466  amountOut */\n      dup4\n        /* \"contracts/token factory/LiquidityPool.sol\":4446:4454  reserve1 */\n      sload(0x03)\n        /* \"contracts/token factory/LiquidityPool.sol\":4446:4466  reserve1 - amountOut */\n      tag_128\n      swap2\n      swap1\n      tag_95\n      jump\t// in\n    tag_128:\n        /* \"contracts/token factory/LiquidityPool.sol\":4445:4474  (reserve1 - amountOut) * 1e18 */\n      tag_129\n      swap2\n      swap1\n      tag_82\n      jump\t// in\n    tag_129:\n        /* \"contracts/token factory/LiquidityPool.sol\":4444:4486  ((reserve1 - amountOut) * 1e18) / reserve1 */\n      tag_130\n      swap2\n      swap1\n      tag_84\n      jump\t// in\n    tag_130:\n        /* \"contracts/token factory/LiquidityPool.sol\":4422:4486  uint256 priceImpact = ((reserve1 - amountOut) * 1e18) / reserve1 */\n      swap1\n      pop\n        /* \"contracts/token factory/LiquidityPool.sol\":4514:4525  priceImpact */\n      dup1\n        /* \"contracts/token factory/LiquidityPool.sol\":4507:4511  1e18 */\n      0x0de0b6b3a7640000\n        /* \"contracts/token factory/LiquidityPool.sol\":4507:4525  1e18 - priceImpact */\n      tag_131\n      swap2\n      swap1\n      tag_95\n      jump\t// in\n    tag_131:\n        /* \"contracts/token factory/LiquidityPool.sol\":4496:4525  slippage = 1e18 - priceImpact */\n      swap4\n      pop\n        /* \"contracts/token factory/LiquidityPool.sol\":4282:4532  {... */\n      pop\n      pop\n      pop\n        /* \"contracts/token factory/LiquidityPool.sol\":4189:4532  function calculateSlippageOnSell(uint256 tokenAmount) public view returns (uint256 slippage) {... */\n      swap2\n      swap1\n      pop\n      jump\t// out\n        /* \"contracts/token factory/LiquidityPool.sol\":497:522  address public devAddress */\n    tag_46:\n      0x05\n      0x00\n      swap1\n      sload\n      swap1\n      0x0100\n      exp\n      swap1\n      div\n      0xffffffffffffffffffffffffffffffffffffffff\n      and\n      dup2\n      jump\t// out\n        /* \"contracts/token factory/LiquidityPool.sol\":1752:1930  function updateTaxPercentage(uint256 newTaxPercentage) external onlyFactory {... */\n    tag_51:\n        /* \"contracts/token factory/LiquidityPool.sol\":628:640  tokenFactory */\n      0x01\n      0x00\n      swap1\n      sload\n      swap1\n      0x0100\n      exp\n      swap1\n      div\n      0xffffffffffffffffffffffffffffffffffffffff\n      and\n        /* \"contracts/token factory/LiquidityPool.sol\":614:640  msg.sender == tokenFactory */\n      0xffffffffffffffffffffffffffffffffffffffff\n      and\n        /* \"contracts/token factory/LiquidityPool.sol\":614:624  msg.sender */\n      caller\n        /* \"contracts/token factory/LiquidityPool.sol\":614:640  msg.sender == tokenFactory */\n      0xffffffffffffffffffffffffffffffffffffffff\n      and\n      eq\n        /* \"contracts/token factory/LiquidityPool.sol\":606:675  require(msg.sender == tokenFactory, \"Caller is not the TokenFactory\") */\n      tag_133\n      jumpi\n      mload(0x40)\n      0x08c379a000000000000000000000000000000000000000000000000000000000\n      dup2\n      mstore\n      0x04\n      add\n      tag_134\n      swap1\n      tag_135\n      jump\t// in\n    tag_134:\n      mload(0x40)\n      dup1\n      swap2\n      sub\n      swap1\n      revert\n    tag_133:\n        /* \"contracts/token factory/LiquidityPool.sol\":1854:1870  newTaxPercentage */\n      dup1\n        /* \"contracts/token factory/LiquidityPool.sol\":1838:1851  taxPercentage */\n      0x04\n        /* \"contracts/token factory/LiquidityPool.sol\":1838:1870  taxPercentage = newTaxPercentage */\n      dup2\n      swap1\n      sstore\n      pop\n        /* \"contracts/token factory/LiquidityPool.sol\":1885:1923  TaxPercentageUpdated(newTaxPercentage) */\n      0x7f54b0f873d8150d0613da0f8db3a0935c36fb63d4d2d75fa8cd08b4b1f33be1\n        /* \"contracts/token factory/LiquidityPool.sol\":1906:1922  newTaxPercentage */\n      dup2\n        /* \"contracts/token factory/LiquidityPool.sol\":1885:1923  TaxPercentageUpdated(newTaxPercentage) */\n      mload(0x40)\n      tag_137\n      swap2\n      swap1\n      tag_23\n      jump\t// in\n    tag_137:\n      mload(0x40)\n      dup1\n      swap2\n      sub\n      swap1\n      log1\n        /* \"contracts/token factory/LiquidityPool.sol\":1752:1930  function updateTaxPercentage(uint256 newTaxPercentage) external onlyFactory {... */\n      pop\n      jump\t// out\n        /* \"contracts/token factory/LiquidityPool.sol\":266:289  uint256 public reserve0 */\n    tag_54:\n      sload(0x02)\n      dup2\n      jump\t// out\n        /* \"contracts/token factory/LiquidityPool.sol\":323:346  uint256 public reserve1 */\n    tag_58:\n      sload(0x03)\n      dup2\n      jump\t// out\n        /* \"contracts/token factory/LiquidityPool.sol\":1986:2726  function buyToken() external payable returns (uint256 amountOut) {... */\n    tag_61:\n        /* \"contracts/token factory/LiquidityPool.sol\":2032:2049  uint256 amountOut */\n      0x00\n        /* \"contracts/token factory/LiquidityPool.sol\":2081:2082  0 */\n      dup1\n        /* \"contracts/token factory/LiquidityPool.sol\":2069:2078  msg.value */\n      callvalue\n        /* \"contracts/token factory/LiquidityPool.sol\":2069:2082  msg.value > 0 */\n      gt\n        /* \"contracts/token factory/LiquidityPool.sol\":2061:2116  require(msg.value > 0, \"Must send Ether to buy tokens\") */\n      tag_139\n      jumpi\n      mload(0x40)\n      0x08c379a000000000000000000000000000000000000000000000000000000000\n      dup2\n      mstore\n      0x04\n      add\n      tag_140\n      swap1\n      tag_141\n      jump\t// in\n    tag_140:\n      mload(0x40)\n      dup1\n      swap2\n      sub\n      swap1\n      revert\n    tag_139:\n        /* \"contracts/token factory/LiquidityPool.sol\":2127:2138  uint256 tax */\n      0x00\n        /* \"contracts/token factory/LiquidityPool.sol\":2171:2174  100 */\n      0x64\n        /* \"contracts/token factory/LiquidityPool.sol\":2154:2167  taxPercentage */\n      sload(0x04)\n        /* \"contracts/token factory/LiquidityPool.sol\":2142:2151  msg.value */\n      callvalue\n        /* \"contracts/token factory/LiquidityPool.sol\":2142:2167  msg.value * taxPercentage */\n      tag_142\n      swap2\n      swap1\n      tag_82\n      jump\t// in\n    tag_142:\n        /* \"contracts/token factory/LiquidityPool.sol\":2141:2174  (msg.value * taxPercentage) / 100 */\n      tag_143\n      swap2\n      swap1\n      tag_84\n      jump\t// in\n    tag_143:\n        /* \"contracts/token factory/LiquidityPool.sol\":2127:2174  uint256 tax = (msg.value * taxPercentage) / 100 */\n      swap1\n      pop\n        /* \"contracts/token factory/LiquidityPool.sol\":2184:2208  uint256 amountInAfterTax */\n      0x00\n        /* \"contracts/token factory/LiquidityPool.sol\":2223:2226  tax */\n      dup2\n        /* \"contracts/token factory/LiquidityPool.sol\":2211:2220  msg.value */\n      callvalue\n        /* \"contracts/token factory/LiquidityPool.sol\":2211:2226  msg.value - tax */\n      tag_144\n      swap2\n      swap1\n      tag_95\n      jump\t// in\n    tag_144:\n        /* \"contracts/token factory/LiquidityPool.sol\":2184:2226  uint256 amountInAfterTax = msg.value - tax */\n      swap1\n      pop\n        /* \"contracts/token factory/LiquidityPool.sol\":2296:2308  bool taxSent */\n      0x00\n        /* \"contracts/token factory/LiquidityPool.sol\":2314:2324  devAddress */\n      0x05\n      0x00\n      swap1\n      sload\n      swap1\n      0x0100\n      exp\n      swap1\n      div\n      0xffffffffffffffffffffffffffffffffffffffff\n      and\n        /* \"contracts/token factory/LiquidityPool.sol\":2314:2329  devAddress.call */\n      0xffffffffffffffffffffffffffffffffffffffff\n      and\n        /* \"contracts/token factory/LiquidityPool.sol\":2337:2340  tax */\n      dup4\n        /* \"contracts/token factory/LiquidityPool.sol\":2314:2345  devAddress.call{value: tax}(\"\") */\n      mload(0x40)\n      tag_145\n      swap1\n      tag_114\n      jump\t// in\n    tag_145:\n      0x00\n      mload(0x40)\n      dup1\n      dup4\n      sub\n      dup2\n      dup6\n      dup8\n      gas\n      call\n      swap3\n      pop\n      pop\n      pop\n      returndatasize\n      dup1\n      0x00\n      dup2\n      eq\n      tag_148\n      jumpi\n      mload(0x40)\n      swap2\n      pop\n      and(add(returndatasize, 0x3f), not(0x1f))\n      dup3\n      add\n      0x40\n      mstore\n      returndatasize\n      dup3\n      mstore\n      returndatasize\n      0x00\n      0x20\n      dup5\n      add\n      returndatacopy\n      jump(tag_147)\n    tag_148:\n      0x60\n      swap2\n      pop\n    tag_147:\n      pop\n        /* \"contracts/token factory/LiquidityPool.sol\":2295:2345  (bool taxSent, ) = devAddress.call{value: tax}(\"\") */\n      pop\n      swap1\n      pop\n        /* \"contracts/token factory/LiquidityPool.sol\":2363:2370  taxSent */\n      dup1\n        /* \"contracts/token factory/LiquidityPool.sol\":2355:2408  require(taxSent, \"Failed to send tax to dev address\") */\n      tag_149\n      jumpi\n      mload(0x40)\n      0x08c379a000000000000000000000000000000000000000000000000000000000\n      dup2\n      mstore\n      0x04\n      add\n      tag_150\n      swap1\n      tag_151\n      jump\t// in\n    tag_150:\n      mload(0x40)\n      dup1\n      swap2\n      sub\n      swap1\n      revert\n    tag_149:\n        /* \"contracts/token factory/LiquidityPool.sol\":2419:2438  uint256 newReserve1 */\n      0x00\n        /* \"contracts/token factory/LiquidityPool.sol\":2452:2468  amountInAfterTax */\n      dup3\n        /* \"contracts/token factory/LiquidityPool.sol\":2441:2449  reserve1 */\n      sload(0x03)\n        /* \"contracts/token factory/LiquidityPool.sol\":2441:2468  reserve1 + amountInAfterTax */\n      tag_152\n      swap2\n      swap1\n      tag_103\n      jump\t// in\n    tag_152:\n        /* \"contracts/token factory/LiquidityPool.sol\":2419:2468  uint256 newReserve1 = reserve1 + amountInAfterTax */\n      swap1\n      pop\n        /* \"contracts/token factory/LiquidityPool.sol\":2525:2536  newReserve1 */\n      dup1\n        /* \"contracts/token factory/LiquidityPool.sol\":2513:2521  reserve1 */\n      sload(0x03)\n        /* \"contracts/token factory/LiquidityPool.sol\":2502:2510  reserve0 */\n      sload(0x02)\n        /* \"contracts/token factory/LiquidityPool.sol\":2502:2521  reserve0 * reserve1 */\n      tag_153\n      swap2\n      swap1\n      tag_82\n      jump\t// in\n    tag_153:\n        /* \"contracts/token factory/LiquidityPool.sol\":2501:2536  (reserve0 * reserve1) / newReserve1 */\n      tag_154\n      swap2\n      swap1\n      tag_84\n      jump\t// in\n    tag_154:\n        /* \"contracts/token factory/LiquidityPool.sol\":2490:2498  reserve0 */\n      sload(0x02)\n        /* \"contracts/token factory/LiquidityPool.sol\":2490:2536  reserve0 - (reserve0 * reserve1) / newReserve1 */\n      tag_155\n      swap2\n      swap1\n      tag_95\n      jump\t// in\n    tag_155:\n        /* \"contracts/token factory/LiquidityPool.sol\":2478:2536  amountOut = reserve0 - (reserve0 * reserve1) / newReserve1 */\n      swap5\n      pop\n        /* \"contracts/token factory/LiquidityPool.sol\":2558:2569  newReserve1 */\n      dup1\n        /* \"contracts/token factory/LiquidityPool.sol\":2547:2555  reserve1 */\n      0x03\n        /* \"contracts/token factory/LiquidityPool.sol\":2547:2569  reserve1 = newReserve1 */\n      dup2\n      swap1\n      sstore\n      pop\n        /* \"contracts/token factory/LiquidityPool.sol\":2591:2600  amountOut */\n      dup5\n        /* \"contracts/token factory/LiquidityPool.sol\":2579:2587  reserve0 */\n      0x02\n      0x00\n        /* \"contracts/token factory/LiquidityPool.sol\":2579:2600  reserve0 -= amountOut */\n      dup3\n      dup3\n      sload\n      tag_156\n      swap2\n      swap1\n      tag_95\n      jump\t// in\n    tag_156:\n      swap3\n      pop\n      pop\n      dup2\n      swap1\n      sstore\n      pop\n        /* \"contracts/token factory/LiquidityPool.sol\":2618:2624  token0 */\n      0x00\n      dup1\n      sload\n      swap1\n      0x0100\n      exp\n      swap1\n      div\n      0xffffffffffffffffffffffffffffffffffffffff\n      and\n        /* \"contracts/token factory/LiquidityPool.sol\":2611:2634  IERC20(token0).transfer */\n      0xffffffffffffffffffffffffffffffffffffffff\n      and\n      0xa9059cbb\n        /* \"contracts/token factory/LiquidityPool.sol\":2635:2645  msg.sender */\n      caller\n        /* \"contracts/token factory/LiquidityPool.sol\":2647:2656  amountOut */\n      dup8\n        /* \"contracts/token factory/LiquidityPool.sol\":2611:2657  IERC20(token0).transfer(msg.sender, amountOut) */\n      mload(0x40)\n      dup4\n      0xffffffff\n      and\n      0xe0\n      shl\n      dup2\n      mstore\n      0x04\n      add\n      tag_157\n      swap3\n      swap2\n      swap1\n      tag_97\n      jump\t// in\n    tag_157:\n      0x20\n      mload(0x40)\n      dup1\n      dup4\n      sub\n      dup2\n      0x00\n      dup8\n      gas\n      call\n      iszero\n      dup1\n      iszero\n      tag_159\n      jumpi\n      returndatasize\n      0x00\n      dup1\n      returndatacopy\n      revert(0x00, returndatasize)\n    tag_159:\n      pop\n      pop\n      pop\n      pop\n      mload(0x40)\n      returndatasize\n      not(0x1f)\n      0x1f\n      dup3\n      add\n      and\n      dup3\n      add\n      dup1\n      0x40\n      mstore\n      pop\n      dup2\n      add\n      swap1\n      tag_160\n      swap2\n      swap1\n      tag_101\n      jump\t// in\n    tag_160:\n      pop\n        /* \"contracts/token factory/LiquidityPool.sol\":2690:2696  token0 */\n      0x00\n      dup1\n      sload\n      swap1\n      0x0100\n      exp\n      swap1\n      div\n      0xffffffffffffffffffffffffffffffffffffffff\n      and\n        /* \"contracts/token factory/LiquidityPool.sol\":2673:2719  Swap(address(0), token0, msg.value, amountOut) */\n      0xffffffffffffffffffffffffffffffffffffffff\n      and\n        /* \"contracts/token factory/LiquidityPool.sol\":2686:2687  0 */\n      0x00\n        /* \"contracts/token factory/LiquidityPool.sol\":2673:2719  Swap(address(0), token0, msg.value, amountOut) */\n      0xffffffffffffffffffffffffffffffffffffffff\n      and\n      0xfa2dda1cc1b86e41239702756b13effbc1a092b5c57e3ad320fbe4f3b13fe235\n        /* \"contracts/token factory/LiquidityPool.sol\":2698:2707  msg.value */\n      callvalue\n        /* \"contracts/token factory/LiquidityPool.sol\":2709:2718  amountOut */\n      dup9\n        /* \"contracts/token factory/LiquidityPool.sol\":2673:2719  Swap(address(0), token0, msg.value, amountOut) */\n      mload(0x40)\n      tag_161\n      swap3\n      swap2\n      swap1\n      tag_122\n      jump\t// in\n    tag_161:\n      mload(0x40)\n      dup1\n      swap2\n      sub\n      swap1\n      log3\n        /* \"contracts/token factory/LiquidityPool.sol\":2051:2726  {... */\n      pop\n      pop\n      pop\n      pop\n        /* \"contracts/token factory/LiquidityPool.sol\":1986:2726  function buyToken() external payable returns (uint256 amountOut) {... */\n      swap1\n      jump\t// out\n        /* \"contracts/token factory/LiquidityPool.sol\":3845:4183  function calculateSlippageOnBuy(uint256 ethAmount) public view returns (uint256 slippage) {... */\n    tag_66:\n        /* \"contracts/token factory/LiquidityPool.sol\":3917:3933  uint256 slippage */\n      0x00\n        /* \"contracts/token factory/LiquidityPool.sol\":3945:3964  uint256 newReserve1 */\n      dup1\n        /* \"contracts/token factory/LiquidityPool.sol\":3978:3987  ethAmount */\n      dup3\n        /* \"contracts/token factory/LiquidityPool.sol\":3967:3975  reserve1 */\n      sload(0x03)\n        /* \"contracts/token factory/LiquidityPool.sol\":3967:3987  reserve1 + ethAmount */\n      tag_163\n      swap2\n      swap1\n      tag_103\n      jump\t// in\n    tag_163:\n        /* \"contracts/token factory/LiquidityPool.sol\":3945:3987  uint256 newReserve1 = reserve1 + ethAmount */\n      swap1\n      pop\n        /* \"contracts/token factory/LiquidityPool.sol\":3997:4014  uint256 amountOut */\n      0x00\n        /* \"contracts/token factory/LiquidityPool.sol\":4052:4063  newReserve1 */\n      dup2\n        /* \"contracts/token factory/LiquidityPool.sol\":4040:4048  reserve1 */\n      sload(0x03)\n        /* \"contracts/token factory/LiquidityPool.sol\":4029:4037  reserve0 */\n      sload(0x02)\n        /* \"contracts/token factory/LiquidityPool.sol\":4029:4048  reserve0 * reserve1 */\n      tag_164\n      swap2\n      swap1\n      tag_82\n      jump\t// in\n    tag_164:\n        /* \"contracts/token factory/LiquidityPool.sol\":4028:4063  (reserve0 * reserve1) / newReserve1 */\n      tag_165\n      swap2\n      swap1\n      tag_84\n      jump\t// in\n    tag_165:\n        /* \"contracts/token factory/LiquidityPool.sol\":4017:4025  reserve0 */\n      sload(0x02)\n        /* \"contracts/token factory/LiquidityPool.sol\":4017:4063  reserve0 - (reserve0 * reserve1) / newReserve1 */\n      tag_166\n      swap2\n      swap1\n      tag_95\n      jump\t// in\n    tag_166:\n        /* \"contracts/token factory/LiquidityPool.sol\":3997:4063  uint256 amountOut = reserve0 - (reserve0 * reserve1) / newReserve1 */\n      swap1\n      pop\n        /* \"contracts/token factory/LiquidityPool.sol\":4073:4092  uint256 priceImpact */\n      0x00\n        /* \"contracts/token factory/LiquidityPool.sol\":4129:4137  reserve0 */\n      sload(0x02)\n        /* \"contracts/token factory/LiquidityPool.sol\":4121:4125  1e18 */\n      0x0de0b6b3a7640000\n        /* \"contracts/token factory/LiquidityPool.sol\":4108:4117  amountOut */\n      dup4\n        /* \"contracts/token factory/LiquidityPool.sol\":4097:4105  reserve0 */\n      sload(0x02)\n        /* \"contracts/token factory/LiquidityPool.sol\":4097:4117  reserve0 - amountOut */\n      tag_167\n      swap2\n      swap1\n      tag_95\n      jump\t// in\n    tag_167:\n        /* \"contracts/token factory/LiquidityPool.sol\":4096:4125  (reserve0 - amountOut) * 1e18 */\n      tag_168\n      swap2\n      swap1\n      tag_82\n      jump\t// in\n    tag_168:\n        /* \"contracts/token factory/LiquidityPool.sol\":4095:4137  ((reserve0 - amountOut) * 1e18) / reserve0 */\n      tag_169\n      swap2\n      swap1\n      tag_84\n      jump\t// in\n    tag_169:\n        /* \"contracts/token factory/LiquidityPool.sol\":4073:4137  uint256 priceImpact = ((reserve0 - amountOut) * 1e18) / reserve0 */\n      swap1\n      pop\n        /* \"contracts/token factory/LiquidityPool.sol\":4165:4176  priceImpact */\n      dup1\n        /* \"contracts/token factory/LiquidityPool.sol\":4158:4162  1e18 */\n      0x0de0b6b3a7640000\n        /* \"contracts/token factory/LiquidityPool.sol\":4158:4176  1e18 - priceImpact */\n      tag_170\n      swap2\n      swap1\n      tag_95\n      jump\t// in\n    tag_170:\n        /* \"contracts/token factory/LiquidityPool.sol\":4147:4176  slippage = 1e18 - priceImpact */\n      swap4\n      pop\n        /* \"contracts/token factory/LiquidityPool.sol\":3935:4183  {... */\n      pop\n      pop\n      pop\n        /* \"contracts/token factory/LiquidityPool.sol\":3845:4183  function calculateSlippageOnBuy(uint256 ethAmount) public view returns (uint256 slippage) {... */\n      swap2\n      swap1\n      pop\n      jump\t// out\n        /* \"contracts/token factory/LiquidityPool.sol\":412:440  uint256 public taxPercentage */\n    tag_70:\n      sload(0x04)\n      dup2\n      jump\t// out\n        /* \"contracts/token factory/LiquidityPool.sol\":198:225  address public tokenFactory */\n    tag_74:\n      0x01\n      0x00\n      swap1\n      sload\n      swap1\n      0x0100\n      exp\n      swap1\n      div\n      0xffffffffffffffffffffffffffffffffffffffff\n      and\n      dup2\n      jump\t// out\n        /* \"contracts/token factory/LiquidityPool.sol\":1126:1746  function initialize(... */\n    tag_79:\n        /* \"contracts/token factory/LiquidityPool.sol\":1331:1332  0 */\n      0x00\n        /* \"contracts/token factory/LiquidityPool.sol\":1313:1333  token0 == address(0) */\n      0xffffffffffffffffffffffffffffffffffffffff\n      and\n        /* \"contracts/token factory/LiquidityPool.sol\":1313:1319  token0 */\n      0x00\n      dup1\n      sload\n      swap1\n      0x0100\n      exp\n      swap1\n      div\n      0xffffffffffffffffffffffffffffffffffffffff\n      and\n        /* \"contracts/token factory/LiquidityPool.sol\":1313:1333  token0 == address(0) */\n      0xffffffffffffffffffffffffffffffffffffffff\n      and\n      eq\n        /* \"contracts/token factory/LiquidityPool.sol\":1305:1362  require(token0 == address(0), \"Pool already initialized\") */\n      tag_172\n      jumpi\n      mload(0x40)\n      0x08c379a000000000000000000000000000000000000000000000000000000000\n      dup2\n      mstore\n      0x04\n      add\n      tag_173\n      swap1\n      tag_174\n      jump\t// in\n    tag_173:\n      mload(0x40)\n      dup1\n      swap2\n      sub\n      swap1\n      revert\n    tag_172:\n        /* \"contracts/token factory/LiquidityPool.sol\":1428:1429  0 */\n      0x00\n        /* \"contracts/token factory/LiquidityPool.sol\":1416:1425  msg.value */\n      callvalue\n        /* \"contracts/token factory/LiquidityPool.sol\":1416:1429  msg.value > 0 */\n      gt\n        /* \"contracts/token factory/LiquidityPool.sol\":1408:1487  require(msg.value > 0, \"Initial native token amount must be greater than zero\") */\n      tag_175\n      jumpi\n      mload(0x40)\n      0x08c379a000000000000000000000000000000000000000000000000000000000\n      dup2\n      mstore\n      0x04\n      add\n      tag_176\n      swap1\n      tag_177\n      jump\t// in\n    tag_176:\n      mload(0x40)\n      dup1\n      swap2\n      sub\n      swap1\n      revert\n    tag_175:\n        /* \"contracts/token factory/LiquidityPool.sol\":1507:1514  _token0 */\n      dup4\n        /* \"contracts/token factory/LiquidityPool.sol\":1498:1504  token0 */\n      0x00\n      dup1\n        /* \"contracts/token factory/LiquidityPool.sol\":1498:1514  token0 = _token0 */\n      0x0100\n      exp\n      dup2\n      sload\n      dup2\n      0xffffffffffffffffffffffffffffffffffffffff\n      mul\n      not\n      and\n      swap1\n      dup4\n      0xffffffffffffffffffffffffffffffffffffffff\n      and\n      mul\n      or\n      swap1\n      sstore\n      pop\n        /* \"contracts/token factory/LiquidityPool.sol\":1539:1552  _tokenFactory */\n      dup3\n        /* \"contracts/token factory/LiquidityPool.sol\":1524:1536  tokenFactory */\n      0x01\n      0x00\n        /* \"contracts/token factory/LiquidityPool.sol\":1524:1552  tokenFactory = _tokenFactory */\n      0x0100\n      exp\n      dup2\n      sload\n      dup2\n      0xffffffffffffffffffffffffffffffffffffffff\n      mul\n      not\n      and\n      swap1\n      dup4\n      0xffffffffffffffffffffffffffffffffffffffff\n      and\n      mul\n      or\n      swap1\n      sstore\n      pop\n        /* \"contracts/token factory/LiquidityPool.sol\":1578:1592  _taxPercentage */\n      dup1\n        /* \"contracts/token factory/LiquidityPool.sol\":1562:1575  taxPercentage */\n      0x04\n        /* \"contracts/token factory/LiquidityPool.sol\":1562:1592  taxPercentage = _taxPercentage */\n      dup2\n      swap1\n      sstore\n      pop\n        /* \"contracts/token factory/LiquidityPool.sol\":1614:1634  _initialTokenReserve */\n      dup2\n        /* \"contracts/token factory/LiquidityPool.sol\":1603:1611  reserve0 */\n      0x02\n        /* \"contracts/token factory/LiquidityPool.sol\":1603:1634  reserve0 = _initialTokenReserve */\n      dup2\n      swap1\n      sstore\n      pop\n        /* \"contracts/token factory/LiquidityPool.sol\":1655:1664  msg.value */\n      callvalue\n        /* \"contracts/token factory/LiquidityPool.sol\":1644:1652  reserve1 */\n      0x03\n        /* \"contracts/token factory/LiquidityPool.sol\":1644:1664  reserve1 = msg.value */\n      dup2\n      swap1\n      sstore\n      pop\n        /* \"contracts/token factory/LiquidityPool.sol\":1695:1705  msg.sender */\n      caller\n        /* \"contracts/token factory/LiquidityPool.sol\":1680:1739  LiquidityAdded(msg.sender, _initialTokenReserve, msg.value) */\n      0xffffffffffffffffffffffffffffffffffffffff\n      and\n      0xac1d76749e5447b7b16f5ab61447e1bd502f3bb4807af3b28e620d1700a6ee45\n        /* \"contracts/token factory/LiquidityPool.sol\":1707:1727  _initialTokenReserve */\n      dup4\n        /* \"contracts/token factory/LiquidityPool.sol\":1729:1738  msg.value */\n      callvalue\n        /* \"contracts/token factory/LiquidityPool.sol\":1680:1739  LiquidityAdded(msg.sender, _initialTokenReserve, msg.value) */\n      mload(0x40)\n      tag_178\n      swap3\n      swap2\n      swap1\n      tag_122\n      jump\t// in\n    tag_178:\n      mload(0x40)\n      dup1\n      swap2\n      sub\n      swap1\n      log2\n        /* \"contracts/token factory/LiquidityPool.sol\":1126:1746  function initialize(... */\n      pop\n      pop\n      pop\n      pop\n      jump\t// out\n        /* \"#utility.yul\":7:84   */\n    tag_179:\n        /* \"#utility.yul\":44:51   */\n      0x00\n        /* \"#utility.yul\":73:78   */\n      dup2\n        /* \"#utility.yul\":62:78   */\n      swap1\n      pop\n        /* \"#utility.yul\":7:84   */\n      swap2\n      swap1\n      pop\n      jump\t// out\n        /* \"#utility.yul\":90:208   */\n    tag_180:\n        /* \"#utility.yul\":177:201   */\n      tag_217\n        /* \"#utility.yul\":195:200   */\n      dup2\n        /* \"#utility.yul\":177:201   */\n      tag_179\n      jump\t// in\n    tag_217:\n        /* \"#utility.yul\":172:175   */\n      dup3\n        /* \"#utility.yul\":165:202   */\n      mstore\n        /* \"#utility.yul\":90:208   */\n      pop\n      pop\n      jump\t// out\n        /* \"#utility.yul\":214:436   */\n    tag_23:\n        /* \"#utility.yul\":307:311   */\n      0x00\n        /* \"#utility.yul\":345:347   */\n      0x20\n        /* \"#utility.yul\":334:343   */\n      dup3\n        /* \"#utility.yul\":330:348   */\n      add\n        /* \"#utility.yul\":322:348   */\n      swap1\n      pop\n        /* \"#utility.yul\":358:429   */\n      tag_219\n        /* \"#utility.yul\":426:427   */\n      0x00\n        /* \"#utility.yul\":415:424   */\n      dup4\n        /* \"#utility.yul\":411:428   */\n      add\n        /* \"#utility.yul\":402:408   */\n      dup5\n        /* \"#utility.yul\":358:429   */\n      tag_180\n      jump\t// in\n    tag_219:\n        /* \"#utility.yul\":214:436   */\n      swap3\n      swap2\n      pop\n      pop\n      jump\t// out\n        /* \"#utility.yul\":442:568   */\n    tag_181:\n        /* \"#utility.yul\":479:486   */\n      0x00\n        /* \"#utility.yul\":519:561   */\n      0xffffffffffffffffffffffffffffffffffffffff\n        /* \"#utility.yul\":512:517   */\n      dup3\n        /* \"#utility.yul\":508:562   */\n      and\n        /* \"#utility.yul\":497:562   */\n      swap1\n      pop\n        /* \"#utility.yul\":442:568   */\n      swap2\n      swap1\n      pop\n      jump\t// out\n        /* \"#utility.yul\":574:670   */\n    tag_182:\n        /* \"#utility.yul\":611:618   */\n      0x00\n        /* \"#utility.yul\":640:664   */\n      tag_222\n        /* \"#utility.yul\":658:663   */\n      dup3\n        /* \"#utility.yul\":640:664   */\n      tag_181\n      jump\t// in\n    tag_222:\n        /* \"#utility.yul\":629:664   */\n      swap1\n      pop\n        /* \"#utility.yul\":574:670   */\n      swap2\n      swap1\n      pop\n      jump\t// out\n        /* \"#utility.yul\":676:794   */\n    tag_183:\n        /* \"#utility.yul\":763:787   */\n      tag_224\n        /* \"#utility.yul\":781:786   */\n      dup2\n        /* \"#utility.yul\":763:787   */\n      tag_182\n      jump\t// in\n    tag_224:\n        /* \"#utility.yul\":758:761   */\n      dup3\n        /* \"#utility.yul\":751:788   */\n      mstore\n        /* \"#utility.yul\":676:794   */\n      pop\n      pop\n      jump\t// out\n        /* \"#utility.yul\":800:1022   */\n    tag_32:\n        /* \"#utility.yul\":893:897   */\n      0x00\n        /* \"#utility.yul\":931:933   */\n      0x20\n        /* \"#utility.yul\":920:929   */\n      dup3\n        /* \"#utility.yul\":916:934   */\n      add\n        /* \"#utility.yul\":908:934   */\n      swap1\n      pop\n        /* \"#utility.yul\":944:1015   */\n      tag_226\n        /* \"#utility.yul\":1012:1013   */\n      0x00\n        /* \"#utility.yul\":1001:1010   */\n      dup4\n        /* \"#utility.yul\":997:1014   */\n      add\n        /* \"#utility.yul\":988:994   */\n      dup5\n        /* \"#utility.yul\":944:1015   */\n      tag_183\n      jump\t// in\n    tag_226:\n        /* \"#utility.yul\":800:1022   */\n      swap3\n      swap2\n      pop\n      pop\n      jump\t// out\n        /* \"#utility.yul\":1109:1226   */\n    tag_185:\n        /* \"#utility.yul\":1218:1219   */\n      0x00\n        /* \"#utility.yul\":1215:1216   */\n      dup1\n        /* \"#utility.yul\":1208:1220   */\n      revert\n        /* \"#utility.yul\":1355:1477   */\n    tag_187:\n        /* \"#utility.yul\":1428:1452   */\n      tag_231\n        /* \"#utility.yul\":1446:1451   */\n      dup2\n        /* \"#utility.yul\":1428:1452   */\n      tag_179\n      jump\t// in\n    tag_231:\n        /* \"#utility.yul\":1421:1426   */\n      dup2\n        /* \"#utility.yul\":1418:1453   */\n      eq\n        /* \"#utility.yul\":1408:1471   */\n      tag_232\n      jumpi\n        /* \"#utility.yul\":1467:1468   */\n      0x00\n        /* \"#utility.yul\":1464:1465   */\n      dup1\n        /* \"#utility.yul\":1457:1469   */\n      revert\n        /* \"#utility.yul\":1408:1471   */\n    tag_232:\n        /* \"#utility.yul\":1355:1477   */\n      pop\n      jump\t// out\n        /* \"#utility.yul\":1483:1622   */\n    tag_188:\n        /* \"#utility.yul\":1529:1534   */\n      0x00\n        /* \"#utility.yul\":1567:1573   */\n      dup2\n        /* \"#utility.yul\":1554:1574   */\n      calldataload\n        /* \"#utility.yul\":1545:1574   */\n      swap1\n      pop\n        /* \"#utility.yul\":1583:1616   */\n      tag_234\n        /* \"#utility.yul\":1610:1615   */\n      dup2\n        /* \"#utility.yul\":1583:1616   */\n      tag_187\n      jump\t// in\n    tag_234:\n        /* \"#utility.yul\":1483:1622   */\n      swap3\n      swap2\n      pop\n      pop\n      jump\t// out\n        /* \"#utility.yul\":1628:1957   */\n    tag_36:\n        /* \"#utility.yul\":1687:1693   */\n      0x00\n        /* \"#utility.yul\":1736:1738   */\n      0x20\n        /* \"#utility.yul\":1724:1733   */\n      dup3\n        /* \"#utility.yul\":1715:1722   */\n      dup5\n        /* \"#utility.yul\":1711:1734   */\n      sub\n        /* \"#utility.yul\":1707:1739   */\n      slt\n        /* \"#utility.yul\":1704:1823   */\n      iszero\n      tag_236\n      jumpi\n        /* \"#utility.yul\":1742:1821   */\n      tag_237\n      tag_185\n      jump\t// in\n    tag_237:\n        /* \"#utility.yul\":1704:1823   */\n    tag_236:\n        /* \"#utility.yul\":1862:1863   */\n      0x00\n        /* \"#utility.yul\":1887:1940   */\n      tag_238\n        /* \"#utility.yul\":1932:1939   */\n      dup5\n        /* \"#utility.yul\":1923:1929   */\n      dup3\n        /* \"#utility.yul\":1912:1921   */\n      dup6\n        /* \"#utility.yul\":1908:1930   */\n      add\n        /* \"#utility.yul\":1887:1940   */\n      tag_188\n      jump\t// in\n    tag_238:\n        /* \"#utility.yul\":1877:1940   */\n      swap2\n      pop\n        /* \"#utility.yul\":1833:1950   */\n      pop\n        /* \"#utility.yul\":1628:1957   */\n      swap3\n      swap2\n      pop\n      pop\n      jump\t// out\n        /* \"#utility.yul\":1963:2085   */\n    tag_189:\n        /* \"#utility.yul\":2036:2060   */\n      tag_240\n        /* \"#utility.yul\":2054:2059   */\n      dup2\n        /* \"#utility.yul\":2036:2060   */\n      tag_182\n      jump\t// in\n    tag_240:\n        /* \"#utility.yul\":2029:2034   */\n      dup2\n        /* \"#utility.yul\":2026:2061   */\n      eq\n        /* \"#utility.yul\":2016:2079   */\n      tag_241\n      jumpi\n        /* \"#utility.yul\":2075:2076   */\n      0x00\n        /* \"#utility.yul\":2072:2073   */\n      dup1\n        /* \"#utility.yul\":2065:2077   */\n      revert\n        /* \"#utility.yul\":2016:2079   */\n    tag_241:\n        /* \"#utility.yul\":1963:2085   */\n      pop\n      jump\t// out\n        /* \"#utility.yul\":2091:2230   */\n    tag_190:\n        /* \"#utility.yul\":2137:2142   */\n      0x00\n        /* \"#utility.yul\":2175:2181   */\n      dup2\n        /* \"#utility.yul\":2162:2182   */\n      calldataload\n        /* \"#utility.yul\":2153:2182   */\n      swap1\n      pop\n        /* \"#utility.yul\":2191:2224   */\n      tag_243\n        /* \"#utility.yul\":2218:2223   */\n      dup2\n        /* \"#utility.yul\":2191:2224   */\n      tag_189\n      jump\t// in\n    tag_243:\n        /* \"#utility.yul\":2091:2230   */\n      swap3\n      swap2\n      pop\n      pop\n      jump\t// out\n        /* \"#utility.yul\":2236:3001   */\n    tag_78:\n        /* \"#utility.yul\":2322:2328   */\n      0x00\n        /* \"#utility.yul\":2330:2336   */\n      dup1\n        /* \"#utility.yul\":2338:2344   */\n      0x00\n        /* \"#utility.yul\":2346:2352   */\n      dup1\n        /* \"#utility.yul\":2395:2398   */\n      0x80\n        /* \"#utility.yul\":2383:2392   */\n      dup6\n        /* \"#utility.yul\":2374:2381   */\n      dup8\n        /* \"#utility.yul\":2370:2393   */\n      sub\n        /* \"#utility.yul\":2366:2399   */\n      slt\n        /* \"#utility.yul\":2363:2483   */\n      iszero\n      tag_245\n      jumpi\n        /* \"#utility.yul\":2402:2481   */\n      tag_246\n      tag_185\n      jump\t// in\n    tag_246:\n        /* \"#utility.yul\":2363:2483   */\n    tag_245:\n        /* \"#utility.yul\":2522:2523   */\n      0x00\n        /* \"#utility.yul\":2547:2600   */\n      tag_247\n        /* \"#utility.yul\":2592:2599   */\n      dup8\n        /* \"#utility.yul\":2583:2589   */\n      dup3\n        /* \"#utility.yul\":2572:2581   */\n      dup9\n        /* \"#utility.yul\":2568:2590   */\n      add\n        /* \"#utility.yul\":2547:2600   */\n      tag_190\n      jump\t// in\n    tag_247:\n        /* \"#utility.yul\":2537:2600   */\n      swap5\n      pop\n        /* \"#utility.yul\":2493:2610   */\n      pop\n        /* \"#utility.yul\":2649:2651   */\n      0x20\n        /* \"#utility.yul\":2675:2728   */\n      tag_248\n        /* \"#utility.yul\":2720:2727   */\n      dup8\n        /* \"#utility.yul\":2711:2717   */\n      dup3\n        /* \"#utility.yul\":2700:2709   */\n      dup9\n        /* \"#utility.yul\":2696:2718   */\n      add\n        /* \"#utility.yul\":2675:2728   */\n      tag_190\n      jump\t// in\n    tag_248:\n        /* \"#utility.yul\":2665:2728   */\n      swap4\n      pop\n        /* \"#utility.yul\":2620:2738   */\n      pop\n        /* \"#utility.yul\":2777:2779   */\n      0x40\n        /* \"#utility.yul\":2803:2856   */\n      tag_249\n        /* \"#utility.yul\":2848:2855   */\n      dup8\n        /* \"#utility.yul\":2839:2845   */\n      dup3\n        /* \"#utility.yul\":2828:2837   */\n      dup9\n        /* \"#utility.yul\":2824:2846   */\n      add\n        /* \"#utility.yul\":2803:2856   */\n      tag_188\n      jump\t// in\n    tag_249:\n        /* \"#utility.yul\":2793:2856   */\n      swap3\n      pop\n        /* \"#utility.yul\":2748:2866   */\n      pop\n        /* \"#utility.yul\":2905:2907   */\n      0x60\n        /* \"#utility.yul\":2931:2984   */\n      tag_250\n        /* \"#utility.yul\":2976:2983   */\n      dup8\n        /* \"#utility.yul\":2967:2973   */\n      dup3\n        /* \"#utility.yul\":2956:2965   */\n      dup9\n        /* \"#utility.yul\":2952:2974   */\n      add\n        /* \"#utility.yul\":2931:2984   */\n      tag_188\n      jump\t// in\n    tag_250:\n        /* \"#utility.yul\":2921:2984   */\n      swap2\n      pop\n        /* \"#utility.yul\":2876:2994   */\n      pop\n        /* \"#utility.yul\":2236:3001   */\n      swap3\n      swap6\n      swap2\n      swap5\n      pop\n      swap3\n      pop\n      jump\t// out\n        /* \"#utility.yul\":3007:3187   */\n    tag_191:\n        /* \"#utility.yul\":3055:3132   */\n      0x4e487b7100000000000000000000000000000000000000000000000000000000\n        /* \"#utility.yul\":3052:3053   */\n      0x00\n        /* \"#utility.yul\":3045:3133   */\n      mstore\n        /* \"#utility.yul\":3152:3156   */\n      0x11\n        /* \"#utility.yul\":3149:3150   */\n      0x04\n        /* \"#utility.yul\":3142:3157   */\n      mstore\n        /* \"#utility.yul\":3176:3180   */\n      0x24\n        /* \"#utility.yul\":3173:3174   */\n      0x00\n        /* \"#utility.yul\":3166:3181   */\n      revert\n        /* \"#utility.yul\":3193:3603   */\n    tag_82:\n        /* \"#utility.yul\":3233:3240   */\n      0x00\n        /* \"#utility.yul\":3256:3276   */\n      tag_253\n        /* \"#utility.yul\":3274:3275   */\n      dup3\n        /* \"#utility.yul\":3256:3276   */\n      tag_179\n      jump\t// in\n    tag_253:\n        /* \"#utility.yul\":3251:3276   */\n      swap2\n      pop\n        /* \"#utility.yul\":3290:3310   */\n      tag_254\n        /* \"#utility.yul\":3308:3309   */\n      dup4\n        /* \"#utility.yul\":3290:3310   */\n      tag_179\n      jump\t// in\n    tag_254:\n        /* \"#utility.yul\":3285:3310   */\n      swap3\n      pop\n        /* \"#utility.yul\":3345:3346   */\n      dup3\n        /* \"#utility.yul\":3342:3343   */\n      dup3\n        /* \"#utility.yul\":3338:3347   */\n      mul\n        /* \"#utility.yul\":3367:3397   */\n      tag_255\n        /* \"#utility.yul\":3385:3396   */\n      dup2\n        /* \"#utility.yul\":3367:3397   */\n      tag_179\n      jump\t// in\n    tag_255:\n        /* \"#utility.yul\":3356:3397   */\n      swap2\n      pop\n        /* \"#utility.yul\":3546:3547   */\n      dup3\n        /* \"#utility.yul\":3537:3544   */\n      dup3\n        /* \"#utility.yul\":3533:3548   */\n      div\n        /* \"#utility.yul\":3530:3531   */\n      dup5\n        /* \"#utility.yul\":3527:3549   */\n      eq\n        /* \"#utility.yul\":3507:3508   */\n      dup4\n        /* \"#utility.yul\":3500:3509   */\n      iszero\n        /* \"#utility.yul\":3480:3563   */\n      or\n        /* \"#utility.yul\":3457:3596   */\n      tag_256\n      jumpi\n        /* \"#utility.yul\":3576:3594   */\n      tag_257\n      tag_191\n      jump\t// in\n    tag_257:\n        /* \"#utility.yul\":3457:3596   */\n    tag_256:\n        /* \"#utility.yul\":3241:3603   */\n      pop\n        /* \"#utility.yul\":3193:3603   */\n      swap3\n      swap2\n      pop\n      pop\n      jump\t// out\n        /* \"#utility.yul\":3609:3789   */\n    tag_192:\n        /* \"#utility.yul\":3657:3734   */\n      0x4e487b7100000000000000000000000000000000000000000000000000000000\n        /* \"#utility.yul\":3654:3655   */\n      0x00\n        /* \"#utility.yul\":3647:3735   */\n      mstore\n        /* \"#utility.yul\":3754:3758   */\n      0x12\n        /* \"#utility.yul\":3751:3752   */\n      0x04\n        /* \"#utility.yul\":3744:3759   */\n      mstore\n        /* \"#utility.yul\":3778:3782   */\n      0x24\n        /* \"#utility.yul\":3775:3776   */\n      0x00\n        /* \"#utility.yul\":3768:3783   */\n      revert\n        /* \"#utility.yul\":3795:3980   */\n    tag_84:\n        /* \"#utility.yul\":3835:3836   */\n      0x00\n        /* \"#utility.yul\":3852:3872   */\n      tag_260\n        /* \"#utility.yul\":3870:3871   */\n      dup3\n        /* \"#utility.yul\":3852:3872   */\n      tag_179\n      jump\t// in\n    tag_260:\n        /* \"#utility.yul\":3847:3872   */\n      swap2\n      pop\n        /* \"#utility.yul\":3886:3906   */\n      tag_261\n        /* \"#utility.yul\":3904:3905   */\n      dup4\n        /* \"#utility.yul\":3886:3906   */\n      tag_179\n      jump\t// in\n    tag_261:\n        /* \"#utility.yul\":3881:3906   */\n      swap3\n      pop\n        /* \"#utility.yul\":3925:3926   */\n      dup3\n        /* \"#utility.yul\":3915:3950   */\n      tag_262\n      jumpi\n        /* \"#utility.yul\":3930:3948   */\n      tag_263\n      tag_192\n      jump\t// in\n    tag_263:\n        /* \"#utility.yul\":3915:3950   */\n    tag_262:\n        /* \"#utility.yul\":3972:3973   */\n      dup3\n        /* \"#utility.yul\":3969:3970   */\n      dup3\n        /* \"#utility.yul\":3965:3974   */\n      div\n        /* \"#utility.yul\":3960:3974   */\n      swap1\n      pop\n        /* \"#utility.yul\":3795:3980   */\n      swap3\n      swap2\n      pop\n      pop\n      jump\t// out\n        /* \"#utility.yul\":3986:4155   */\n    tag_193:\n        /* \"#utility.yul\":4070:4081   */\n      0x00\n        /* \"#utility.yul\":4104:4110   */\n      dup3\n        /* \"#utility.yul\":4099:4102   */\n      dup3\n        /* \"#utility.yul\":4092:4111   */\n      mstore\n        /* \"#utility.yul\":4144:4148   */\n      0x20\n        /* \"#utility.yul\":4139:4142   */\n      dup3\n        /* \"#utility.yul\":4135:4149   */\n      add\n        /* \"#utility.yul\":4120:4149   */\n      swap1\n      pop\n        /* \"#utility.yul\":3986:4155   */\n      swap3\n      swap2\n      pop\n      pop\n      jump\t// out\n        /* \"#utility.yul\":4161:4332   */\n    tag_194:\n        /* \"#utility.yul\":4301:4324   */\n      0x4d7573742073656c6c20736f6d6520746f6b656e730000000000000000000000\n        /* \"#utility.yul\":4297:4298   */\n      0x00\n        /* \"#utility.yul\":4289:4295   */\n      dup3\n        /* \"#utility.yul\":4285:4299   */\n      add\n        /* \"#utility.yul\":4278:4325   */\n      mstore\n        /* \"#utility.yul\":4161:4332   */\n      pop\n      jump\t// out\n        /* \"#utility.yul\":4338:4704   */\n    tag_195:\n        /* \"#utility.yul\":4480:4483   */\n      0x00\n        /* \"#utility.yul\":4501:4568   */\n      tag_267\n        /* \"#utility.yul\":4565:4567   */\n      0x15\n        /* \"#utility.yul\":4560:4563   */\n      dup4\n        /* \"#utility.yul\":4501:4568   */\n      tag_193\n      jump\t// in\n    tag_267:\n        /* \"#utility.yul\":4494:4568   */\n      swap2\n      pop\n        /* \"#utility.yul\":4577:4670   */\n      tag_268\n        /* \"#utility.yul\":4666:4669   */\n      dup3\n        /* \"#utility.yul\":4577:4670   */\n      tag_194\n      jump\t// in\n    tag_268:\n        /* \"#utility.yul\":4695:4697   */\n      0x20\n        /* \"#utility.yul\":4690:4693   */\n      dup3\n        /* \"#utility.yul\":4686:4698   */\n      add\n        /* \"#utility.yul\":4679:4698   */\n      swap1\n      pop\n        /* \"#utility.yul\":4338:4704   */\n      swap2\n      swap1\n      pop\n      jump\t// out\n        /* \"#utility.yul\":4710:5129   */\n    tag_91:\n        /* \"#utility.yul\":4876:4880   */\n      0x00\n        /* \"#utility.yul\":4914:4916   */\n      0x20\n        /* \"#utility.yul\":4903:4912   */\n      dup3\n        /* \"#utility.yul\":4899:4917   */\n      add\n        /* \"#utility.yul\":4891:4917   */\n      swap1\n      pop\n        /* \"#utility.yul\":4963:4972   */\n      dup2\n        /* \"#utility.yul\":4957:4961   */\n      dup2\n        /* \"#utility.yul\":4953:4973   */\n      sub\n        /* \"#utility.yul\":4949:4950   */\n      0x00\n        /* \"#utility.yul\":4938:4947   */\n      dup4\n        /* \"#utility.yul\":4934:4951   */\n      add\n        /* \"#utility.yul\":4927:4974   */\n      mstore\n        /* \"#utility.yul\":4991:5122   */\n      tag_270\n        /* \"#utility.yul\":5117:5121   */\n      dup2\n        /* \"#utility.yul\":4991:5122   */\n      tag_195\n      jump\t// in\n    tag_270:\n        /* \"#utility.yul\":4983:5122   */\n      swap1\n      pop\n        /* \"#utility.yul\":4710:5129   */\n      swap2\n      swap1\n      pop\n      jump\t// out\n        /* \"#utility.yul\":5135:5329   */\n    tag_95:\n        /* \"#utility.yul\":5175:5179   */\n      0x00\n        /* \"#utility.yul\":5195:5215   */\n      tag_272\n        /* \"#utility.yul\":5213:5214   */\n      dup3\n        /* \"#utility.yul\":5195:5215   */\n      tag_179\n      jump\t// in\n    tag_272:\n        /* \"#utility.yul\":5190:5215   */\n      swap2\n      pop\n        /* \"#utility.yul\":5229:5249   */\n      tag_273\n        /* \"#utility.yul\":5247:5248   */\n      dup4\n        /* \"#utility.yul\":5229:5249   */\n      tag_179\n      jump\t// in\n    tag_273:\n        /* \"#utility.yul\":5224:5249   */\n      swap3\n      pop\n        /* \"#utility.yul\":5273:5274   */\n      dup3\n        /* \"#utility.yul\":5270:5271   */\n      dup3\n        /* \"#utility.yul\":5266:5275   */\n      sub\n        /* \"#utility.yul\":5258:5275   */\n      swap1\n      pop\n        /* \"#utility.yul\":5297:5298   */\n      dup2\n        /* \"#utility.yul\":5291:5295   */\n      dup2\n        /* \"#utility.yul\":5288:5299   */\n      gt\n        /* \"#utility.yul\":5285:5322   */\n      iszero\n      tag_274\n      jumpi\n        /* \"#utility.yul\":5302:5320   */\n      tag_275\n      tag_191\n      jump\t// in\n    tag_275:\n        /* \"#utility.yul\":5285:5322   */\n    tag_274:\n        /* \"#utility.yul\":5135:5329   */\n      swap3\n      swap2\n      pop\n      pop\n      jump\t// out\n        /* \"#utility.yul\":5335:5667   */\n    tag_97:\n        /* \"#utility.yul\":5456:5460   */\n      0x00\n        /* \"#utility.yul\":5494:5496   */\n      0x40\n        /* \"#utility.yul\":5483:5492   */\n      dup3\n        /* \"#utility.yul\":5479:5497   */\n      add\n        /* \"#utility.yul\":5471:5497   */\n      swap1\n      pop\n        /* \"#utility.yul\":5507:5578   */\n      tag_277\n        /* \"#utility.yul\":5575:5576   */\n      0x00\n        /* \"#utility.yul\":5564:5573   */\n      dup4\n        /* \"#utility.yul\":5560:5577   */\n      add\n        /* \"#utility.yul\":5551:5557   */\n      dup6\n        /* \"#utility.yul\":5507:5578   */\n      tag_183\n      jump\t// in\n    tag_277:\n        /* \"#utility.yul\":5588:5660   */\n      tag_278\n        /* \"#utility.yul\":5656:5658   */\n      0x20\n        /* \"#utility.yul\":5645:5654   */\n      dup4\n        /* \"#utility.yul\":5641:5659   */\n      add\n        /* \"#utility.yul\":5632:5638   */\n      dup5\n        /* \"#utility.yul\":5588:5660   */\n      tag_180\n      jump\t// in\n    tag_278:\n        /* \"#utility.yul\":5335:5667   */\n      swap4\n      swap3\n      pop\n      pop\n      pop\n      jump\t// out\n        /* \"#utility.yul\":5673:5763   */\n    tag_196:\n        /* \"#utility.yul\":5707:5714   */\n      0x00\n        /* \"#utility.yul\":5750:5755   */\n      dup2\n        /* \"#utility.yul\":5743:5756   */\n      iszero\n        /* \"#utility.yul\":5736:5757   */\n      iszero\n        /* \"#utility.yul\":5725:5757   */\n      swap1\n      pop\n        /* \"#utility.yul\":5673:5763   */\n      swap2\n      swap1\n      pop\n      jump\t// out\n        /* \"#utility.yul\":5769:5885   */\n    tag_197:\n        /* \"#utility.yul\":5839:5860   */\n      tag_281\n        /* \"#utility.yul\":5854:5859   */\n      dup2\n        /* \"#utility.yul\":5839:5860   */\n      tag_196\n      jump\t// in\n    tag_281:\n        /* \"#utility.yul\":5832:5837   */\n      dup2\n        /* \"#utility.yul\":5829:5861   */\n      eq\n        /* \"#utility.yul\":5819:5879   */\n      tag_282\n      jumpi\n        /* \"#utility.yul\":5875:5876   */\n      0x00\n        /* \"#utility.yul\":5872:5873   */\n      dup1\n        /* \"#utility.yul\":5865:5877   */\n      revert\n        /* \"#utility.yul\":5819:5879   */\n    tag_282:\n        /* \"#utility.yul\":5769:5885   */\n      pop\n      jump\t// out\n        /* \"#utility.yul\":5891:6028   */\n    tag_198:\n        /* \"#utility.yul\":5945:5950   */\n      0x00\n        /* \"#utility.yul\":5976:5982   */\n      dup2\n        /* \"#utility.yul\":5970:5983   */\n      mload\n        /* \"#utility.yul\":5961:5983   */\n      swap1\n      pop\n        /* \"#utility.yul\":5992:6022   */\n      tag_284\n        /* \"#utility.yul\":6016:6021   */\n      dup2\n        /* \"#utility.yul\":5992:6022   */\n      tag_197\n      jump\t// in\n    tag_284:\n        /* \"#utility.yul\":5891:6028   */\n      swap3\n      swap2\n      pop\n      pop\n      jump\t// out\n        /* \"#utility.yul\":6034:6379   */\n    tag_101:\n        /* \"#utility.yul\":6101:6107   */\n      0x00\n        /* \"#utility.yul\":6150:6152   */\n      0x20\n        /* \"#utility.yul\":6138:6147   */\n      dup3\n        /* \"#utility.yul\":6129:6136   */\n      dup5\n        /* \"#utility.yul\":6125:6148   */\n      sub\n        /* \"#utility.yul\":6121:6153   */\n      slt\n        /* \"#utility.yul\":6118:6237   */\n      iszero\n      tag_286\n      jumpi\n        /* \"#utility.yul\":6156:6235   */\n      tag_287\n      tag_185\n      jump\t// in\n    tag_287:\n        /* \"#utility.yul\":6118:6237   */\n    tag_286:\n        /* \"#utility.yul\":6276:6277   */\n      0x00\n        /* \"#utility.yul\":6301:6362   */\n      tag_288\n        /* \"#utility.yul\":6354:6361   */\n      dup5\n        /* \"#utility.yul\":6345:6351   */\n      dup3\n        /* \"#utility.yul\":6334:6343   */\n      dup6\n        /* \"#utility.yul\":6330:6352   */\n      add\n        /* \"#utility.yul\":6301:6362   */\n      tag_198\n      jump\t// in\n    tag_288:\n        /* \"#utility.yul\":6291:6362   */\n      swap2\n      pop\n        /* \"#utility.yul\":6247:6372   */\n      pop\n        /* \"#utility.yul\":6034:6379   */\n      swap3\n      swap2\n      pop\n      pop\n      jump\t// out\n        /* \"#utility.yul\":6385:6576   */\n    tag_103:\n        /* \"#utility.yul\":6425:6428   */\n      0x00\n        /* \"#utility.yul\":6444:6464   */\n      tag_290\n        /* \"#utility.yul\":6462:6463   */\n      dup3\n        /* \"#utility.yul\":6444:6464   */\n      tag_179\n      jump\t// in\n    tag_290:\n        /* \"#utility.yul\":6439:6464   */\n      swap2\n      pop\n        /* \"#utility.yul\":6478:6498   */\n      tag_291\n        /* \"#utility.yul\":6496:6497   */\n      dup4\n        /* \"#utility.yul\":6478:6498   */\n      tag_179\n      jump\t// in\n    tag_291:\n        /* \"#utility.yul\":6473:6498   */\n      swap3\n      pop\n        /* \"#utility.yul\":6521:6522   */\n      dup3\n        /* \"#utility.yul\":6518:6519   */\n      dup3\n        /* \"#utility.yul\":6514:6523   */\n      add\n        /* \"#utility.yul\":6507:6523   */\n      swap1\n      pop\n        /* \"#utility.yul\":6542:6545   */\n      dup1\n        /* \"#utility.yul\":6539:6540   */\n      dup3\n        /* \"#utility.yul\":6536:6546   */\n      gt\n        /* \"#utility.yul\":6533:6569   */\n      iszero\n      tag_292\n      jumpi\n        /* \"#utility.yul\":6549:6567   */\n      tag_293\n      tag_191\n      jump\t// in\n    tag_293:\n        /* \"#utility.yul\":6533:6569   */\n    tag_292:\n        /* \"#utility.yul\":6385:6576   */\n      swap3\n      swap2\n      pop\n      pop\n      jump\t// out\n        /* \"#utility.yul\":6582:7024   */\n    tag_109:\n        /* \"#utility.yul\":6731:6735   */\n      0x00\n        /* \"#utility.yul\":6769:6771   */\n      0x60\n        /* \"#utility.yul\":6758:6767   */\n      dup3\n        /* \"#utility.yul\":6754:6772   */\n      add\n        /* \"#utility.yul\":6746:6772   */\n      swap1\n      pop\n        /* \"#utility.yul\":6782:6853   */\n      tag_295\n        /* \"#utility.yul\":6850:6851   */\n      0x00\n        /* \"#utility.yul\":6839:6848   */\n      dup4\n        /* \"#utility.yul\":6835:6852   */\n      add\n        /* \"#utility.yul\":6826:6832   */\n      dup7\n        /* \"#utility.yul\":6782:6853   */\n      tag_183\n      jump\t// in\n    tag_295:\n        /* \"#utility.yul\":6863:6935   */\n      tag_296\n        /* \"#utility.yul\":6931:6933   */\n      0x20\n        /* \"#utility.yul\":6920:6929   */\n      dup4\n        /* \"#utility.yul\":6916:6934   */\n      add\n        /* \"#utility.yul\":6907:6913   */\n      dup6\n        /* \"#utility.yul\":6863:6935   */\n      tag_183\n      jump\t// in\n    tag_296:\n        /* \"#utility.yul\":6945:7017   */\n      tag_297\n        /* \"#utility.yul\":7013:7015   */\n      0x40\n        /* \"#utility.yul\":7002:7011   */\n      dup4\n        /* \"#utility.yul\":6998:7016   */\n      add\n        /* \"#utility.yul\":6989:6995   */\n      dup5\n        /* \"#utility.yul\":6945:7017   */\n      tag_180\n      jump\t// in\n    tag_297:\n        /* \"#utility.yul\":6582:7024   */\n      swap5\n      swap4\n      pop\n      pop\n      pop\n      pop\n      jump\t// out\n        /* \"#utility.yul\":7030:7177   */\n    tag_199:\n        /* \"#utility.yul\":7131:7142   */\n      0x00\n        /* \"#utility.yul\":7168:7171   */\n      dup2\n        /* \"#utility.yul\":7153:7171   */\n      swap1\n      pop\n        /* \"#utility.yul\":7030:7177   */\n      swap3\n      swap2\n      pop\n      pop\n      jump\t// out\n        /* \"#utility.yul\":7183:7297   */\n    tag_200:\n      pop\n      jump\t// out\n        /* \"#utility.yul\":7303:7701   */\n    tag_201:\n        /* \"#utility.yul\":7462:7465   */\n      0x00\n        /* \"#utility.yul\":7483:7566   */\n      tag_301\n        /* \"#utility.yul\":7564:7565   */\n      0x00\n        /* \"#utility.yul\":7559:7562   */\n      dup4\n        /* \"#utility.yul\":7483:7566   */\n      tag_199\n      jump\t// in\n    tag_301:\n        /* \"#utility.yul\":7476:7566   */\n      swap2\n      pop\n        /* \"#utility.yul\":7575:7668   */\n      tag_302\n        /* \"#utility.yul\":7664:7667   */\n      dup3\n        /* \"#utility.yul\":7575:7668   */\n      tag_200\n      jump\t// in\n    tag_302:\n        /* \"#utility.yul\":7693:7694   */\n      0x00\n        /* \"#utility.yul\":7688:7691   */\n      dup3\n        /* \"#utility.yul\":7684:7695   */\n      add\n        /* \"#utility.yul\":7677:7695   */\n      swap1\n      pop\n        /* \"#utility.yul\":7303:7701   */\n      swap2\n      swap1\n      pop\n      jump\t// out\n        /* \"#utility.yul\":7707:8086   */\n    tag_114:\n        /* \"#utility.yul\":7891:7894   */\n      0x00\n        /* \"#utility.yul\":7913:8060   */\n      tag_304\n        /* \"#utility.yul\":8056:8059   */\n      dup3\n        /* \"#utility.yul\":7913:8060   */\n      tag_201\n      jump\t// in\n    tag_304:\n        /* \"#utility.yul\":7906:8060   */\n      swap2\n      pop\n        /* \"#utility.yul\":8077:8080   */\n      dup2\n        /* \"#utility.yul\":8070:8080   */\n      swap1\n      pop\n        /* \"#utility.yul\":7707:8086   */\n      swap2\n      swap1\n      pop\n      jump\t// out\n        /* \"#utility.yul\":8092:8263   */\n    tag_202:\n        /* \"#utility.yul\":8232:8255   */\n      0x4574686572207472616e73666572206661696c65640000000000000000000000\n        /* \"#utility.yul\":8228:8229   */\n      0x00\n        /* \"#utility.yul\":8220:8226   */\n      dup3\n        /* \"#utility.yul\":8216:8230   */\n      add\n        /* \"#utility.yul\":8209:8256   */\n      mstore\n        /* \"#utility.yul\":8092:8263   */\n      pop\n      jump\t// out\n        /* \"#utility.yul\":8269:8635   */\n    tag_203:\n        /* \"#utility.yul\":8411:8414   */\n      0x00\n        /* \"#utility.yul\":8432:8499   */\n      tag_307\n        /* \"#utility.yul\":8496:8498   */\n      0x15\n        /* \"#utility.yul\":8491:8494   */\n      dup4\n        /* \"#utility.yul\":8432:8499   */\n      tag_193\n      jump\t// in\n    tag_307:\n        /* \"#utility.yul\":8425:8499   */\n      swap2\n      pop\n        /* \"#utility.yul\":8508:8601   */\n      tag_308\n        /* \"#utility.yul\":8597:8600   */\n      dup3\n        /* \"#utility.yul\":8508:8601   */\n      tag_202\n      jump\t// in\n    tag_308:\n        /* \"#utility.yul\":8626:8628   */\n      0x20\n        /* \"#utility.yul\":8621:8624   */\n      dup3\n        /* \"#utility.yul\":8617:8629   */\n      add\n        /* \"#utility.yul\":8610:8629   */\n      swap1\n      pop\n        /* \"#utility.yul\":8269:8635   */\n      swap2\n      swap1\n      pop\n      jump\t// out\n        /* \"#utility.yul\":8641:9060   */\n    tag_120:\n        /* \"#utility.yul\":8807:8811   */\n      0x00\n        /* \"#utility.yul\":8845:8847   */\n      0x20\n        /* \"#utility.yul\":8834:8843   */\n      dup3\n        /* \"#utility.yul\":8830:8848   */\n      add\n        /* \"#utility.yul\":8822:8848   */\n      swap1\n      pop\n        /* \"#utility.yul\":8894:8903   */\n      dup2\n        /* \"#utility.yul\":8888:8892   */\n      dup2\n        /* \"#utility.yul\":8884:8904   */\n      sub\n        /* \"#utility.yul\":8880:8881   */\n      0x00\n        /* \"#utility.yul\":8869:8878   */\n      dup4\n        /* \"#utility.yul\":8865:8882   */\n      add\n        /* \"#utility.yul\":8858:8905   */\n      mstore\n        /* \"#utility.yul\":8922:9053   */\n      tag_310\n        /* \"#utility.yul\":9048:9052   */\n      dup2\n        /* \"#utility.yul\":8922:9053   */\n      tag_203\n      jump\t// in\n    tag_310:\n        /* \"#utility.yul\":8914:9053   */\n      swap1\n      pop\n        /* \"#utility.yul\":8641:9060   */\n      swap2\n      swap1\n      pop\n      jump\t// out\n        /* \"#utility.yul\":9066:9398   */\n    tag_122:\n        /* \"#utility.yul\":9187:9191   */\n      0x00\n        /* \"#utility.yul\":9225:9227   */\n      0x40\n        /* \"#utility.yul\":9214:9223   */\n      dup3\n        /* \"#utility.yul\":9210:9228   */\n      add\n        /* \"#utility.yul\":9202:9228   */\n      swap1\n      pop\n        /* \"#utility.yul\":9238:9309   */\n      tag_312\n        /* \"#utility.yul\":9306:9307   */\n      0x00\n        /* \"#utility.yul\":9295:9304   */\n      dup4\n        /* \"#utility.yul\":9291:9308   */\n      add\n        /* \"#utility.yul\":9282:9288   */\n      dup6\n        /* \"#utility.yul\":9238:9309   */\n      tag_180\n      jump\t// in\n    tag_312:\n        /* \"#utility.yul\":9319:9391   */\n      tag_313\n        /* \"#utility.yul\":9387:9389   */\n      0x20\n        /* \"#utility.yul\":9376:9385   */\n      dup4\n        /* \"#utility.yul\":9372:9390   */\n      add\n        /* \"#utility.yul\":9363:9369   */\n      dup5\n        /* \"#utility.yul\":9319:9391   */\n      tag_180\n      jump\t// in\n    tag_313:\n        /* \"#utility.yul\":9066:9398   */\n      swap4\n      swap3\n      pop\n      pop\n      pop\n      jump\t// out\n        /* \"#utility.yul\":9404:9584   */\n    tag_204:\n        /* \"#utility.yul\":9544:9576   */\n      0x43616c6c6572206973206e6f742074686520546f6b656e466163746f72790000\n        /* \"#utility.yul\":9540:9541   */\n      0x00\n        /* \"#utility.yul\":9532:9538   */\n      dup3\n        /* \"#utility.yul\":9528:9542   */\n      add\n        /* \"#utility.yul\":9521:9577   */\n      mstore\n        /* \"#utility.yul\":9404:9584   */\n      pop\n      jump\t// out\n        /* \"#utility.yul\":9590:9956   */\n    tag_205:\n        /* \"#utility.yul\":9732:9735   */\n      0x00\n        /* \"#utility.yul\":9753:9820   */\n      tag_316\n        /* \"#utility.yul\":9817:9819   */\n      0x1e\n        /* \"#utility.yul\":9812:9815   */\n      dup4\n        /* \"#utility.yul\":9753:9820   */\n      tag_193\n      jump\t// in\n    tag_316:\n        /* \"#utility.yul\":9746:9820   */\n      swap2\n      pop\n        /* \"#utility.yul\":9829:9922   */\n      tag_317\n        /* \"#utility.yul\":9918:9921   */\n      dup3\n        /* \"#utility.yul\":9829:9922   */\n      tag_204\n      jump\t// in\n    tag_317:\n        /* \"#utility.yul\":9947:9949   */\n      0x20\n        /* \"#utility.yul\":9942:9945   */\n      dup3\n        /* \"#utility.yul\":9938:9950   */\n      add\n        /* \"#utility.yul\":9931:9950   */\n      swap1\n      pop\n        /* \"#utility.yul\":9590:9956   */\n      swap2\n      swap1\n      pop\n      jump\t// out\n        /* \"#utility.yul\":9962:10381   */\n    tag_135:\n        /* \"#utility.yul\":10128:10132   */\n      0x00\n        /* \"#utility.yul\":10166:10168   */\n      0x20\n        /* \"#utility.yul\":10155:10164   */\n      dup3\n        /* \"#utility.yul\":10151:10169   */\n      add\n        /* \"#utility.yul\":10143:10169   */\n      swap1\n      pop\n        /* \"#utility.yul\":10215:10224   */\n      dup2\n        /* \"#utility.yul\":10209:10213   */\n      dup2\n        /* \"#utility.yul\":10205:10225   */\n      sub\n        /* \"#utility.yul\":10201:10202   */\n      0x00\n        /* \"#utility.yul\":10190:10199   */\n      dup4\n        /* \"#utility.yul\":10186:10203   */\n      add\n        /* \"#utility.yul\":10179:10226   */\n      mstore\n        /* \"#utility.yul\":10243:10374   */\n      tag_319\n        /* \"#utility.yul\":10369:10373   */\n      dup2\n        /* \"#utility.yul\":10243:10374   */\n      tag_205\n      jump\t// in\n    tag_319:\n        /* \"#utility.yul\":10235:10374   */\n      swap1\n      pop\n        /* \"#utility.yul\":9962:10381   */\n      swap2\n      swap1\n      pop\n      jump\t// out\n        /* \"#utility.yul\":10387:10566   */\n    tag_206:\n        /* \"#utility.yul\":10527:10558   */\n      0x4d7573742073656e6420457468657220746f2062757920746f6b656e73000000\n        /* \"#utility.yul\":10523:10524   */\n      0x00\n        /* \"#utility.yul\":10515:10521   */\n      dup3\n        /* \"#utility.yul\":10511:10525   */\n      add\n        /* \"#utility.yul\":10504:10559   */\n      mstore\n        /* \"#utility.yul\":10387:10566   */\n      pop\n      jump\t// out\n        /* \"#utility.yul\":10572:10938   */\n    tag_207:\n        /* \"#utility.yul\":10714:10717   */\n      0x00\n        /* \"#utility.yul\":10735:10802   */\n      tag_322\n        /* \"#utility.yul\":10799:10801   */\n      0x1d\n        /* \"#utility.yul\":10794:10797   */\n      dup4\n        /* \"#utility.yul\":10735:10802   */\n      tag_193\n      jump\t// in\n    tag_322:\n        /* \"#utility.yul\":10728:10802   */\n      swap2\n      pop\n        /* \"#utility.yul\":10811:10904   */\n      tag_323\n        /* \"#utility.yul\":10900:10903   */\n      dup3\n        /* \"#utility.yul\":10811:10904   */\n      tag_206\n      jump\t// in\n    tag_323:\n        /* \"#utility.yul\":10929:10931   */\n      0x20\n        /* \"#utility.yul\":10924:10927   */\n      dup3\n        /* \"#utility.yul\":10920:10932   */\n      add\n        /* \"#utility.yul\":10913:10932   */\n      swap1\n      pop\n        /* \"#utility.yul\":10572:10938   */\n      swap2\n      swap1\n      pop\n      jump\t// out\n        /* \"#utility.yul\":10944:11363   */\n    tag_141:\n        /* \"#utility.yul\":11110:11114   */\n      0x00\n        /* \"#utility.yul\":11148:11150   */\n      0x20\n        /* \"#utility.yul\":11137:11146   */\n      dup3\n        /* \"#utility.yul\":11133:11151   */\n      add\n        /* \"#utility.yul\":11125:11151   */\n      swap1\n      pop\n        /* \"#utility.yul\":11197:11206   */\n      dup2\n        /* \"#utility.yul\":11191:11195   */\n      dup2\n        /* \"#utility.yul\":11187:11207   */\n      sub\n        /* \"#utility.yul\":11183:11184   */\n      0x00\n        /* \"#utility.yul\":11172:11181   */\n      dup4\n        /* \"#utility.yul\":11168:11185   */\n      add\n        /* \"#utility.yul\":11161:11208   */\n      mstore\n        /* \"#utility.yul\":11225:11356   */\n      tag_325\n        /* \"#utility.yul\":11351:11355   */\n      dup2\n        /* \"#utility.yul\":11225:11356   */\n      tag_207\n      jump\t// in\n    tag_325:\n        /* \"#utility.yul\":11217:11356   */\n      swap1\n      pop\n        /* \"#utility.yul\":10944:11363   */\n      swap2\n      swap1\n      pop\n      jump\t// out\n        /* \"#utility.yul\":11369:11589   */\n    tag_208:\n        /* \"#utility.yul\":11509:11543   */\n      0x4661696c656420746f2073656e642074617820746f2064657620616464726573\n        /* \"#utility.yul\":11505:11506   */\n      0x00\n        /* \"#utility.yul\":11497:11503   */\n      dup3\n        /* \"#utility.yul\":11493:11507   */\n      add\n        /* \"#utility.yul\":11486:11544   */\n      mstore\n        /* \"#utility.yul\":11578:11581   */\n      0x7300000000000000000000000000000000000000000000000000000000000000\n        /* \"#utility.yul\":11573:11575   */\n      0x20\n        /* \"#utility.yul\":11565:11571   */\n      dup3\n        /* \"#utility.yul\":11561:11576   */\n      add\n        /* \"#utility.yul\":11554:11582   */\n      mstore\n        /* \"#utility.yul\":11369:11589   */\n      pop\n      jump\t// out\n        /* \"#utility.yul\":11595:11961   */\n    tag_209:\n        /* \"#utility.yul\":11737:11740   */\n      0x00\n        /* \"#utility.yul\":11758:11825   */\n      tag_328\n        /* \"#utility.yul\":11822:11824   */\n      0x21\n        /* \"#utility.yul\":11817:11820   */\n      dup4\n        /* \"#utility.yul\":11758:11825   */\n      tag_193\n      jump\t// in\n    tag_328:\n        /* \"#utility.yul\":11751:11825   */\n      swap2\n      pop\n        /* \"#utility.yul\":11834:11927   */\n      tag_329\n        /* \"#utility.yul\":11923:11926   */\n      dup3\n        /* \"#utility.yul\":11834:11927   */\n      tag_208\n      jump\t// in\n    tag_329:\n        /* \"#utility.yul\":11952:11954   */\n      0x40\n        /* \"#utility.yul\":11947:11950   */\n      dup3\n        /* \"#utility.yul\":11943:11955   */\n      add\n        /* \"#utility.yul\":11936:11955   */\n      swap1\n      pop\n        /* \"#utility.yul\":11595:11961   */\n      swap2\n      swap1\n      pop\n      jump\t// out\n        /* \"#utility.yul\":11967:12386   */\n    tag_151:\n        /* \"#utility.yul\":12133:12137   */\n      0x00\n        /* \"#utility.yul\":12171:12173   */\n      0x20\n        /* \"#utility.yul\":12160:12169   */\n      dup3\n        /* \"#utility.yul\":12156:12174   */\n      add\n        /* \"#utility.yul\":12148:12174   */\n      swap1\n      pop\n        /* \"#utility.yul\":12220:12229   */\n      dup2\n        /* \"#utility.yul\":12214:12218   */\n      dup2\n        /* \"#utility.yul\":12210:12230   */\n      sub\n        /* \"#utility.yul\":12206:12207   */\n      0x00\n        /* \"#utility.yul\":12195:12204   */\n      dup4\n        /* \"#utility.yul\":12191:12208   */\n      add\n        /* \"#utility.yul\":12184:12231   */\n      mstore\n        /* \"#utility.yul\":12248:12379   */\n      tag_331\n        /* \"#utility.yul\":12374:12378   */\n      dup2\n        /* \"#utility.yul\":12248:12379   */\n      tag_209\n      jump\t// in\n    tag_331:\n        /* \"#utility.yul\":12240:12379   */\n      swap1\n      pop\n        /* \"#utility.yul\":11967:12386   */\n      swap2\n      swap1\n      pop\n      jump\t// out\n        /* \"#utility.yul\":12392:12566   */\n    tag_210:\n        /* \"#utility.yul\":12532:12558   */\n      0x506f6f6c20616c726561647920696e697469616c697a65640000000000000000\n        /* \"#utility.yul\":12528:12529   */\n      0x00\n        /* \"#utility.yul\":12520:12526   */\n      dup3\n        /* \"#utility.yul\":12516:12530   */\n      add\n        /* \"#utility.yul\":12509:12559   */\n      mstore\n        /* \"#utility.yul\":12392:12566   */\n      pop\n      jump\t// out\n        /* \"#utility.yul\":12572:12938   */\n    tag_211:\n        /* \"#utility.yul\":12714:12717   */\n      0x00\n        /* \"#utility.yul\":12735:12802   */\n      tag_334\n        /* \"#utility.yul\":12799:12801   */\n      0x18\n        /* \"#utility.yul\":12794:12797   */\n      dup4\n        /* \"#utility.yul\":12735:12802   */\n      tag_193\n      jump\t// in\n    tag_334:\n        /* \"#utility.yul\":12728:12802   */\n      swap2\n      pop\n        /* \"#utility.yul\":12811:12904   */\n      tag_335\n        /* \"#utility.yul\":12900:12903   */\n      dup3\n        /* \"#utility.yul\":12811:12904   */\n      tag_210\n      jump\t// in\n    tag_335:\n        /* \"#utility.yul\":12929:12931   */\n      0x20\n        /* \"#utility.yul\":12924:12927   */\n      dup3\n        /* \"#utility.yul\":12920:12932   */\n      add\n        /* \"#utility.yul\":12913:12932   */\n      swap1\n      pop\n        /* \"#utility.yul\":12572:12938   */\n      swap2\n      swap1\n      pop\n      jump\t// out\n        /* \"#utility.yul\":12944:13363   */\n    tag_174:\n        /* \"#utility.yul\":13110:13114   */\n      0x00\n        /* \"#utility.yul\":13148:13150   */\n      0x20\n        /* \"#utility.yul\":13137:13146   */\n      dup3\n        /* \"#utility.yul\":13133:13151   */\n      add\n        /* \"#utility.yul\":13125:13151   */\n      swap1\n      pop\n        /* \"#utility.yul\":13197:13206   */\n      dup2\n        /* \"#utility.yul\":13191:13195   */\n      dup2\n        /* \"#utility.yul\":13187:13207   */\n      sub\n        /* \"#utility.yul\":13183:13184   */\n      0x00\n        /* \"#utility.yul\":13172:13181   */\n      dup4\n        /* \"#utility.yul\":13168:13185   */\n      add\n        /* \"#utility.yul\":13161:13208   */\n      mstore\n        /* \"#utility.yul\":13225:13356   */\n      tag_337\n        /* \"#utility.yul\":13351:13355   */\n      dup2\n        /* \"#utility.yul\":13225:13356   */\n      tag_211\n      jump\t// in\n    tag_337:\n        /* \"#utility.yul\":13217:13356   */\n      swap1\n      pop\n        /* \"#utility.yul\":12944:13363   */\n      swap2\n      swap1\n      pop\n      jump\t// out\n        /* \"#utility.yul\":13369:13609   */\n    tag_212:\n        /* \"#utility.yul\":13509:13543   */\n      0x496e697469616c206e617469766520746f6b656e20616d6f756e74206d757374\n        /* \"#utility.yul\":13505:13506   */\n      0x00\n        /* \"#utility.yul\":13497:13503   */\n      dup3\n        /* \"#utility.yul\":13493:13507   */\n      add\n        /* \"#utility.yul\":13486:13544   */\n      mstore\n        /* \"#utility.yul\":13578:13601   */\n      0x2062652067726561746572207468616e207a65726f0000000000000000000000\n        /* \"#utility.yul\":13573:13575   */\n      0x20\n        /* \"#utility.yul\":13565:13571   */\n      dup3\n        /* \"#utility.yul\":13561:13576   */\n      add\n        /* \"#utility.yul\":13554:13602   */\n      mstore\n        /* \"#utility.yul\":13369:13609   */\n      pop\n      jump\t// out\n        /* \"#utility.yul\":13615:13981   */\n    tag_213:\n        /* \"#utility.yul\":13757:13760   */\n      0x00\n        /* \"#utility.yul\":13778:13845   */\n      tag_340\n        /* \"#utility.yul\":13842:13844   */\n      0x35\n        /* \"#utility.yul\":13837:13840   */\n      dup4\n        /* \"#utility.yul\":13778:13845   */\n      tag_193\n      jump\t// in\n    tag_340:\n        /* \"#utility.yul\":13771:13845   */\n      swap2\n      pop\n        /* \"#utility.yul\":13854:13947   */\n      tag_341\n        /* \"#utility.yul\":13943:13946   */\n      dup3\n        /* \"#utility.yul\":13854:13947   */\n      tag_212\n      jump\t// in\n    tag_341:\n        /* \"#utility.yul\":13972:13974   */\n      0x40\n        /* \"#utility.yul\":13967:13970   */\n      dup3\n        /* \"#utility.yul\":13963:13975   */\n      add\n        /* \"#utility.yul\":13956:13975   */\n      swap1\n      pop\n        /* \"#utility.yul\":13615:13981   */\n      swap2\n      swap1\n      pop\n      jump\t// out\n        /* \"#utility.yul\":13987:14406   */\n    tag_177:\n        /* \"#utility.yul\":14153:14157   */\n      0x00\n        /* \"#utility.yul\":14191:14193   */\n      0x20\n        /* \"#utility.yul\":14180:14189   */\n      dup3\n        /* \"#utility.yul\":14176:14194   */\n      add\n        /* \"#utility.yul\":14168:14194   */\n      swap1\n      pop\n        /* \"#utility.yul\":14240:14249   */\n      dup2\n        /* \"#utility.yul\":14234:14238   */\n      dup2\n        /* \"#utility.yul\":14230:14250   */\n      sub\n        /* \"#utility.yul\":14226:14227   */\n      0x00\n        /* \"#utility.yul\":14215:14224   */\n      dup4\n        /* \"#utility.yul\":14211:14228   */\n      add\n        /* \"#utility.yul\":14204:14251   */\n      mstore\n        /* \"#utility.yul\":14268:14399   */\n      tag_343\n        /* \"#utility.yul\":14394:14398   */\n      dup2\n        /* \"#utility.yul\":14268:14399   */\n      tag_213\n      jump\t// in\n    tag_343:\n        /* \"#utility.yul\":14260:14399   */\n      swap1\n      pop\n        /* \"#utility.yul\":13987:14406   */\n      swap2\n      swap1\n      pop\n      jump\t// out\n\n    auxdata: 0xa26469706673582212205ea149c6b1947333280512e17f1558fe876e5a13d357e7f7652edf2d4ef8ab2a64736f6c634300081a0033\n}\n",
				"bytecode": {
					"linkReferences": {},
					"object": "608060405234801561000f575f80fd5b5060405161171338038061171383398181016040528101906100319190610143565b5f73ffffffffffffffffffffffffffffffffffffffff168173ffffffffffffffffffffffffffffffffffffffff160361009f576040517f08c379a0000000000000000000000000000000000000000000000000000000008152600401610096906101ee565b60405180910390fd5b8060055f6101000a81548173ffffffffffffffffffffffffffffffffffffffff021916908373ffffffffffffffffffffffffffffffffffffffff1602179055505061020c565b5f80fd5b5f73ffffffffffffffffffffffffffffffffffffffff82169050919050565b5f610112826100e9565b9050919050565b61012281610108565b811461012c575f80fd5b50565b5f8151905061013d81610119565b92915050565b5f60208284031215610158576101576100e5565b5b5f6101658482850161012f565b91505092915050565b5f82825260208201905092915050565b7f446576656c6f70657220616464726573732063616e6e6f74206265207a65726f5f8201527f2061646472657373000000000000000000000000000000000000000000000000602082015250565b5f6101d860288361016e565b91506101e38261017e565b604082019050919050565b5f6020820190508181035f830152610205816101cc565b9050919050565b6114fa806102195f395ff3fe6080604052600436106100dc575f3560e01c8063443cb4bc1161007e578063a4f9c91411610058578063a4f9c9141461029a578063ae7b6d16146102d6578063e77772fe14610300578063eb990c591461032a576100dc565b8063443cb4bc146102285780635a76f25e14610252578063a48217191461027c576100dc565b80632397e4d7116100ba5780632397e4d71461015e57806329cc78ef1461019a5780633ad10ef6146101d65780633f131c6a14610200576100dc565b806302bbce46146100e057806309fd2e691461010a5780630dfe168114610134575b5f80fd5b3480156100eb575f80fd5b506100f4610346565b6040516101019190610de3565b60405180910390f35b348015610115575f80fd5b5061011e61036f565b60405161012b9190610de3565b60405180910390f35b34801561013f575f80fd5b50610148610398565b6040516101559190610e3b565b60405180910390f35b348015610169575f80fd5b50610184600480360381019061017f9190610e82565b6103bb565b6040516101919190610de3565b60405180910390f35b3480156101a5575f80fd5b506101c060048036038101906101bb9190610e82565b610714565b6040516101cd9190610de3565b60405180910390f35b3480156101e1575f80fd5b506101ea6107a0565b6040516101f79190610e3b565b60405180910390f35b34801561020b575f80fd5b5061022660048036038101906102219190610e82565b6107c5565b005b348015610233575f80fd5b5061023c610895565b6040516102499190610de3565b60405180910390f35b34801561025d575f80fd5b5061026661089b565b6040516102739190610de3565b60405180910390f35b6102846108a1565b6040516102919190610de3565b60405180910390f35b3480156102a5575f80fd5b506102c060048036038101906102bb9190610e82565b610b5b565b6040516102cd9190610de3565b60405180910390f35b3480156102e1575f80fd5b506102ea610be7565b6040516102f79190610de3565b60405180910390f35b34801561030b575f80fd5b50610314610bed565b6040516103219190610e3b565b60405180910390f35b610344600480360381019061033f9190610ed7565b610c12565b005b5f600354670de0b6b3a76400006002546103609190610f68565b61036a9190610fd6565b905090565b5f600254670de0b6b3a76400006003546103899190610f68565b6103939190610fd6565b905090565b5f8054906101000a900473ffffffffffffffffffffffffffffffffffffffff1681565b5f8082116103fe576040517f08c379a00000000000000000000000000000000000000000000000000000000081526004016103f590611060565b60405180910390fd5b5f60646004548461040f9190610f68565b6104199190610fd6565b90505f8184610428919061107e565b90505f8054906101000a900473ffffffffffffffffffffffffffffffffffffffff1673ffffffffffffffffffffffffffffffffffffffff1663a9059cbb60055f9054906101000a900473ffffffffffffffffffffffffffffffffffffffff16846040518363ffffffff1660e01b81526004016104a59291906110b1565b6020604051808303815f875af11580156104c1573d5f803e3d5ffd5b505050506040513d601f19601f820116820180604052508101906104e5919061110d565b505f816002546104f59190611138565b9050806003546002546105089190610f68565b6105129190610fd6565b60035461051f919061107e565b9350806002819055508360035f828254610539919061107e565b925050819055505f8054906101000a900473ffffffffffffffffffffffffffffffffffffffff1673ffffffffffffffffffffffffffffffffffffffff166323b872dd3330886040518463ffffffff1660e01b815260040161059c9392919061116b565b6020604051808303815f875af11580156105b8573d5f803e3d5ffd5b505050506040513d601f19601f820116820180604052508101906105dc919061110d565b505f3373ffffffffffffffffffffffffffffffffffffffff1685604051610602906111cd565b5f6040518083038185875af1925050503d805f811461063c576040519150601f19603f3d011682016040523d82523d5f602084013e610641565b606091505b5050905080610685576040517f08c379a000000000000000000000000000000000000000000000000000000000815260040161067c9061122b565b60405180910390fd5b5f73ffffffffffffffffffffffffffffffffffffffff165f8054906101000a900473ffffffffffffffffffffffffffffffffffffffff1673ffffffffffffffffffffffffffffffffffffffff167ffa2dda1cc1b86e41239702756b13effbc1a092b5c57e3ad320fbe4f3b13fe2358888604051610703929190611249565b60405180910390a350505050919050565b5f80826002546107249190611138565b90505f816003546002546107389190610f68565b6107429190610fd6565b60035461074f919061107e565b90505f600354670de0b6b3a76400008360035461076c919061107e565b6107769190610f68565b6107809190610fd6565b905080670de0b6b3a7640000610796919061107e565b9350505050919050565b60055f9054906101000a900473ffffffffffffffffffffffffffffffffffffffff1681565b60015f9054906101000a900473ffffffffffffffffffffffffffffffffffffffff1673ffffffffffffffffffffffffffffffffffffffff163373ffffffffffffffffffffffffffffffffffffffff1614610854576040517f08c379a000000000000000000000000000000000000000000000000000000000815260040161084b906112ba565b60405180910390fd5b806004819055507f7f54b0f873d8150d0613da0f8db3a0935c36fb63d4d2d75fa8cd08b4b1f33be18160405161088a9190610de3565b60405180910390a150565b60025481565b60035481565b5f8034116108e4576040517f08c379a00000000000000000000000000000000000000000000000000000000081526004016108db90611322565b60405180910390fd5b5f6064600454346108f59190610f68565b6108ff9190610fd6565b90505f813461090e919061107e565b90505f60055f9054906101000a900473ffffffffffffffffffffffffffffffffffffffff1673ffffffffffffffffffffffffffffffffffffffff1683604051610956906111cd565b5f6040518083038185875af1925050503d805f8114610990576040519150601f19603f3d011682016040523d82523d5f602084013e610995565b606091505b50509050806109d9576040517f08c379a00000000000000000000000000000000000000000000000000000000081526004016109d0906113b0565b60405180910390fd5b5f826003546109e89190611138565b9050806003546002546109fb9190610f68565b610a059190610fd6565b600254610a12919061107e565b9450806003819055508460025f828254610a2c919061107e565b925050819055505f8054906101000a900473ffffffffffffffffffffffffffffffffffffffff1673ffffffffffffffffffffffffffffffffffffffff1663a9059cbb33876040518363ffffffff1660e01b8152600401610a8d9291906110b1565b6020604051808303815f875af1158015610aa9573d5f803e3d5ffd5b505050506040513d601f19601f82011682018060405250810190610acd919061110d565b505f8054906101000a900473ffffffffffffffffffffffffffffffffffffffff1673ffffffffffffffffffffffffffffffffffffffff165f73ffffffffffffffffffffffffffffffffffffffff167ffa2dda1cc1b86e41239702756b13effbc1a092b5c57e3ad320fbe4f3b13fe2353488604051610b4c929190611249565b60405180910390a35050505090565b5f8082600354610b6b9190611138565b90505f81600354600254610b7f9190610f68565b610b899190610fd6565b600254610b96919061107e565b90505f600254670de0b6b3a764000083600254610bb3919061107e565b610bbd9190610f68565b610bc79190610fd6565b905080670de0b6b3a7640000610bdd919061107e565b9350505050919050565b60045481565b60015f9054906101000a900473ffffffffffffffffffffffffffffffffffffffff1681565b5f73ffffffffffffffffffffffffffffffffffffffff165f8054906101000a900473ffffffffffffffffffffffffffffffffffffffff1673ffffffffffffffffffffffffffffffffffffffff1614610c9f576040517f08c379a0000000000000000000000000000000000000000000000000000000008152600401610c9690611418565b60405180910390fd5b5f3411610ce1576040517f08c379a0000000000000000000000000000000000000000000000000000000008152600401610cd8906114a6565b60405180910390fd5b835f806101000a81548173ffffffffffffffffffffffffffffffffffffffff021916908373ffffffffffffffffffffffffffffffffffffffff1602179055508260015f6101000a81548173ffffffffffffffffffffffffffffffffffffffff021916908373ffffffffffffffffffffffffffffffffffffffff1602179055508060048190555081600281905550346003819055503373ffffffffffffffffffffffffffffffffffffffff167fac1d76749e5447b7b16f5ab61447e1bd502f3bb4807af3b28e620d1700a6ee458334604051610dbd929190611249565b60405180910390a250505050565b5f819050919050565b610ddd81610dcb565b82525050565b5f602082019050610df65f830184610dd4565b92915050565b5f73ffffffffffffffffffffffffffffffffffffffff82169050919050565b5f610e2582610dfc565b9050919050565b610e3581610e1b565b82525050565b5f602082019050610e4e5f830184610e2c565b92915050565b5f80fd5b610e6181610dcb565b8114610e6b575f80fd5b50565b5f81359050610e7c81610e58565b92915050565b5f60208284031215610e9757610e96610e54565b5b5f610ea484828501610e6e565b91505092915050565b610eb681610e1b565b8114610ec0575f80fd5b50565b5f81359050610ed181610ead565b92915050565b5f805f8060808587031215610eef57610eee610e54565b5b5f610efc87828801610ec3565b9450506020610f0d87828801610ec3565b9350506040610f1e87828801610e6e565b9250506060610f2f87828801610e6e565b91505092959194509250565b7f4e487b71000000000000000000000000000000000000000000000000000000005f52601160045260245ffd5b5f610f7282610dcb565b9150610f7d83610dcb565b9250828202610f8b81610dcb565b91508282048414831517610fa257610fa1610f3b565b5b5092915050565b7f4e487b71000000000000000000000000000000000000000000000000000000005f52601260045260245ffd5b5f610fe082610dcb565b9150610feb83610dcb565b925082610ffb57610ffa610fa9565b5b828204905092915050565b5f82825260208201905092915050565b7f4d7573742073656c6c20736f6d6520746f6b656e7300000000000000000000005f82015250565b5f61104a601583611006565b915061105582611016565b602082019050919050565b5f6020820190508181035f8301526110778161103e565b9050919050565b5f61108882610dcb565b915061109383610dcb565b92508282039050818111156110ab576110aa610f3b565b5b92915050565b5f6040820190506110c45f830185610e2c565b6110d16020830184610dd4565b9392505050565b5f8115159050919050565b6110ec816110d8565b81146110f6575f80fd5b50565b5f81519050611107816110e3565b92915050565b5f6020828403121561112257611121610e54565b5b5f61112f848285016110f9565b91505092915050565b5f61114282610dcb565b915061114d83610dcb565b925082820190508082111561116557611164610f3b565b5b92915050565b5f60608201905061117e5f830186610e2c565b61118b6020830185610e2c565b6111986040830184610dd4565b949350505050565b5f81905092915050565b50565b5f6111b85f836111a0565b91506111c3826111aa565b5f82019050919050565b5f6111d7826111ad565b9150819050919050565b7f4574686572207472616e73666572206661696c656400000000000000000000005f82015250565b5f611215601583611006565b9150611220826111e1565b602082019050919050565b5f6020820190508181035f83015261124281611209565b9050919050565b5f60408201905061125c5f830185610dd4565b6112696020830184610dd4565b9392505050565b7f43616c6c6572206973206e6f742074686520546f6b656e466163746f727900005f82015250565b5f6112a4601e83611006565b91506112af82611270565b602082019050919050565b5f6020820190508181035f8301526112d181611298565b9050919050565b7f4d7573742073656e6420457468657220746f2062757920746f6b656e730000005f82015250565b5f61130c601d83611006565b9150611317826112d8565b602082019050919050565b5f6020820190508181035f83015261133981611300565b9050919050565b7f4661696c656420746f2073656e642074617820746f20646576206164647265735f8201527f7300000000000000000000000000000000000000000000000000000000000000602082015250565b5f61139a602183611006565b91506113a582611340565b604082019050919050565b5f6020820190508181035f8301526113c78161138e565b9050919050565b7f506f6f6c20616c726561647920696e697469616c697a656400000000000000005f82015250565b5f611402601883611006565b915061140d826113ce565b602082019050919050565b5f6020820190508181035f83015261142f816113f6565b9050919050565b7f496e697469616c206e617469766520746f6b656e20616d6f756e74206d7573745f8201527f2062652067726561746572207468616e207a65726f0000000000000000000000602082015250565b5f611490603583611006565b915061149b82611436565b604082019050919050565b5f6020820190508181035f8301526114bd81611484565b905091905056fea26469706673582212205ea149c6b1947333280512e17f1558fe876e5a13d357e7f7652edf2d4ef8ab2a64736f6c634300081a0033",
					"opcodes": "PUSH1 0x80 PUSH1 0x40 MSTORE CALLVALUE DUP1 ISZERO PUSH2 0xF JUMPI PUSH0 DUP1 REVERT JUMPDEST POP PUSH1 0x40 MLOAD PUSH2 0x1713 CODESIZE SUB DUP1 PUSH2 0x1713 DUP4 CODECOPY DUP2 DUP2 ADD PUSH1 0x40 MSTORE DUP2 ADD SWAP1 PUSH2 0x31 SWAP2 SWAP1 PUSH2 0x143 JUMP JUMPDEST PUSH0 PUSH20 0xFFFFFFFFFFFFFFFFFFFFFFFFFFFFFFFFFFFFFFFF AND DUP2 PUSH20 0xFFFFFFFFFFFFFFFFFFFFFFFFFFFFFFFFFFFFFFFF AND SUB PUSH2 0x9F JUMPI PUSH1 0x40 MLOAD PUSH32 0x8C379A000000000000000000000000000000000000000000000000000000000 DUP2 MSTORE PUSH1 0x4 ADD PUSH2 0x96 SWAP1 PUSH2 0x1EE JUMP JUMPDEST PUSH1 0x40 MLOAD DUP1 SWAP2 SUB SWAP1 REVERT JUMPDEST DUP1 PUSH1 0x5 PUSH0 PUSH2 0x100 EXP DUP2 SLOAD DUP2 PUSH20 0xFFFFFFFFFFFFFFFFFFFFFFFFFFFFFFFFFFFFFFFF MUL NOT AND SWAP1 DUP4 PUSH20 0xFFFFFFFFFFFFFFFFFFFFFFFFFFFFFFFFFFFFFFFF AND MUL OR SWAP1 SSTORE POP POP PUSH2 0x20C JUMP JUMPDEST PUSH0 DUP1 REVERT JUMPDEST PUSH0 PUSH20 0xFFFFFFFFFFFFFFFFFFFFFFFFFFFFFFFFFFFFFFFF DUP3 AND SWAP1 POP SWAP2 SWAP1 POP JUMP JUMPDEST PUSH0 PUSH2 0x112 DUP3 PUSH2 0xE9 JUMP JUMPDEST SWAP1 POP SWAP2 SWAP1 POP JUMP JUMPDEST PUSH2 0x122 DUP2 PUSH2 0x108 JUMP JUMPDEST DUP2 EQ PUSH2 0x12C JUMPI PUSH0 DUP1 REVERT JUMPDEST POP JUMP JUMPDEST PUSH0 DUP2 MLOAD SWAP1 POP PUSH2 0x13D DUP2 PUSH2 0x119 JUMP JUMPDEST SWAP3 SWAP2 POP POP JUMP JUMPDEST PUSH0 PUSH1 0x20 DUP3 DUP5 SUB SLT ISZERO PUSH2 0x158 JUMPI PUSH2 0x157 PUSH2 0xE5 JUMP JUMPDEST JUMPDEST PUSH0 PUSH2 0x165 DUP5 DUP3 DUP6 ADD PUSH2 0x12F JUMP JUMPDEST SWAP2 POP POP SWAP3 SWAP2 POP POP JUMP JUMPDEST PUSH0 DUP3 DUP3 MSTORE PUSH1 0x20 DUP3 ADD SWAP1 POP SWAP3 SWAP2 POP POP JUMP JUMPDEST PUSH32 0x446576656C6F70657220616464726573732063616E6E6F74206265207A65726F PUSH0 DUP3 ADD MSTORE PUSH32 0x2061646472657373000000000000000000000000000000000000000000000000 PUSH1 0x20 DUP3 ADD MSTORE POP JUMP JUMPDEST PUSH0 PUSH2 0x1D8 PUSH1 0x28 DUP4 PUSH2 0x16E JUMP JUMPDEST SWAP2 POP PUSH2 0x1E3 DUP3 PUSH2 0x17E JUMP JUMPDEST PUSH1 0x40 DUP3 ADD SWAP1 POP SWAP2 SWAP1 POP JUMP JUMPDEST PUSH0 PUSH1 0x20 DUP3 ADD SWAP1 POP DUP2 DUP2 SUB PUSH0 DUP4 ADD MSTORE PUSH2 0x205 DUP2 PUSH2 0x1CC JUMP JUMPDEST SWAP1 POP SWAP2 SWAP1 POP JUMP JUMPDEST PUSH2 0x14FA DUP1 PUSH2 0x219 PUSH0 CODECOPY PUSH0 RETURN INVALID PUSH1 0x80 PUSH1 0x40 MSTORE PUSH1 0x4 CALLDATASIZE LT PUSH2 0xDC JUMPI PUSH0 CALLDATALOAD PUSH1 0xE0 SHR DUP1 PUSH4 0x443CB4BC GT PUSH2 0x7E JUMPI DUP1 PUSH4 0xA4F9C914 GT PUSH2 0x58 JUMPI DUP1 PUSH4 0xA4F9C914 EQ PUSH2 0x29A JUMPI DUP1 PUSH4 0xAE7B6D16 EQ PUSH2 0x2D6 JUMPI DUP1 PUSH4 0xE77772FE EQ PUSH2 0x300 JUMPI DUP1 PUSH4 0xEB990C59 EQ PUSH2 0x32A JUMPI PUSH2 0xDC JUMP JUMPDEST DUP1 PUSH4 0x443CB4BC EQ PUSH2 0x228 JUMPI DUP1 PUSH4 0x5A76F25E EQ PUSH2 0x252 JUMPI DUP1 PUSH4 0xA4821719 EQ PUSH2 0x27C JUMPI PUSH2 0xDC JUMP JUMPDEST DUP1 PUSH4 0x2397E4D7 GT PUSH2 0xBA JUMPI DUP1 PUSH4 0x2397E4D7 EQ PUSH2 0x15E JUMPI DUP1 PUSH4 0x29CC78EF EQ PUSH2 0x19A JUMPI DUP1 PUSH4 0x3AD10EF6 EQ PUSH2 0x1D6 JUMPI DUP1 PUSH4 0x3F131C6A EQ PUSH2 0x200 JUMPI PUSH2 0xDC JUMP JUMPDEST DUP1 PUSH4 0x2BBCE46 EQ PUSH2 0xE0 JUMPI DUP1 PUSH4 0x9FD2E69 EQ PUSH2 0x10A JUMPI DUP1 PUSH4 0xDFE1681 EQ PUSH2 0x134 JUMPI JUMPDEST PUSH0 DUP1 REVERT JUMPDEST CALLVALUE DUP1 ISZERO PUSH2 0xEB JUMPI PUSH0 DUP1 REVERT JUMPDEST POP PUSH2 0xF4 PUSH2 0x346 JUMP JUMPDEST PUSH1 0x40 MLOAD PUSH2 0x101 SWAP2 SWAP1 PUSH2 0xDE3 JUMP JUMPDEST PUSH1 0x40 MLOAD DUP1 SWAP2 SUB SWAP1 RETURN JUMPDEST CALLVALUE DUP1 ISZERO PUSH2 0x115 JUMPI PUSH0 DUP1 REVERT JUMPDEST POP PUSH2 0x11E PUSH2 0x36F JUMP JUMPDEST PUSH1 0x40 MLOAD PUSH2 0x12B SWAP2 SWAP1 PUSH2 0xDE3 JUMP JUMPDEST PUSH1 0x40 MLOAD DUP1 SWAP2 SUB SWAP1 RETURN JUMPDEST CALLVALUE DUP1 ISZERO PUSH2 0x13F JUMPI PUSH0 DUP1 REVERT JUMPDEST POP PUSH2 0x148 PUSH2 0x398 JUMP JUMPDEST PUSH1 0x40 MLOAD PUSH2 0x155 SWAP2 SWAP1 PUSH2 0xE3B JUMP JUMPDEST PUSH1 0x40 MLOAD DUP1 SWAP2 SUB SWAP1 RETURN JUMPDEST CALLVALUE DUP1 ISZERO PUSH2 0x169 JUMPI PUSH0 DUP1 REVERT JUMPDEST POP PUSH2 0x184 PUSH1 0x4 DUP1 CALLDATASIZE SUB DUP2 ADD SWAP1 PUSH2 0x17F SWAP2 SWAP1 PUSH2 0xE82 JUMP JUMPDEST PUSH2 0x3BB JUMP JUMPDEST PUSH1 0x40 MLOAD PUSH2 0x191 SWAP2 SWAP1 PUSH2 0xDE3 JUMP JUMPDEST PUSH1 0x40 MLOAD DUP1 SWAP2 SUB SWAP1 RETURN JUMPDEST CALLVALUE DUP1 ISZERO PUSH2 0x1A5 JUMPI PUSH0 DUP1 REVERT JUMPDEST POP PUSH2 0x1C0 PUSH1 0x4 DUP1 CALLDATASIZE SUB DUP2 ADD SWAP1 PUSH2 0x1BB SWAP2 SWAP1 PUSH2 0xE82 JUMP JUMPDEST PUSH2 0x714 JUMP JUMPDEST PUSH1 0x40 MLOAD PUSH2 0x1CD SWAP2 SWAP1 PUSH2 0xDE3 JUMP JUMPDEST PUSH1 0x40 MLOAD DUP1 SWAP2 SUB SWAP1 RETURN JUMPDEST CALLVALUE DUP1 ISZERO PUSH2 0x1E1 JUMPI PUSH0 DUP1 REVERT JUMPDEST POP PUSH2 0x1EA PUSH2 0x7A0 JUMP JUMPDEST PUSH1 0x40 MLOAD PUSH2 0x1F7 SWAP2 SWAP1 PUSH2 0xE3B JUMP JUMPDEST PUSH1 0x40 MLOAD DUP1 SWAP2 SUB SWAP1 RETURN JUMPDEST CALLVALUE DUP1 ISZERO PUSH2 0x20B JUMPI PUSH0 DUP1 REVERT JUMPDEST POP PUSH2 0x226 PUSH1 0x4 DUP1 CALLDATASIZE SUB DUP2 ADD SWAP1 PUSH2 0x221 SWAP2 SWAP1 PUSH2 0xE82 JUMP JUMPDEST PUSH2 0x7C5 JUMP JUMPDEST STOP JUMPDEST CALLVALUE DUP1 ISZERO PUSH2 0x233 JUMPI PUSH0 DUP1 REVERT JUMPDEST POP PUSH2 0x23C PUSH2 0x895 JUMP JUMPDEST PUSH1 0x40 MLOAD PUSH2 0x249 SWAP2 SWAP1 PUSH2 0xDE3 JUMP JUMPDEST PUSH1 0x40 MLOAD DUP1 SWAP2 SUB SWAP1 RETURN JUMPDEST CALLVALUE DUP1 ISZERO PUSH2 0x25D JUMPI PUSH0 DUP1 REVERT JUMPDEST POP PUSH2 0x266 PUSH2 0x89B JUMP JUMPDEST PUSH1 0x40 MLOAD PUSH2 0x273 SWAP2 SWAP1 PUSH2 0xDE3 JUMP JUMPDEST PUSH1 0x40 MLOAD DUP1 SWAP2 SUB SWAP1 RETURN JUMPDEST PUSH2 0x284 PUSH2 0x8A1 JUMP JUMPDEST PUSH1 0x40 MLOAD PUSH2 0x291 SWAP2 SWAP1 PUSH2 0xDE3 JUMP JUMPDEST PUSH1 0x40 MLOAD DUP1 SWAP2 SUB SWAP1 RETURN JUMPDEST CALLVALUE DUP1 ISZERO PUSH2 0x2A5 JUMPI PUSH0 DUP1 REVERT JUMPDEST POP PUSH2 0x2C0 PUSH1 0x4 DUP1 CALLDATASIZE SUB DUP2 ADD SWAP1 PUSH2 0x2BB SWAP2 SWAP1 PUSH2 0xE82 JUMP JUMPDEST PUSH2 0xB5B JUMP JUMPDEST PUSH1 0x40 MLOAD PUSH2 0x2CD SWAP2 SWAP1 PUSH2 0xDE3 JUMP JUMPDEST PUSH1 0x40 MLOAD DUP1 SWAP2 SUB SWAP1 RETURN JUMPDEST CALLVALUE DUP1 ISZERO PUSH2 0x2E1 JUMPI PUSH0 DUP1 REVERT JUMPDEST POP PUSH2 0x2EA PUSH2 0xBE7 JUMP JUMPDEST PUSH1 0x40 MLOAD PUSH2 0x2F7 SWAP2 SWAP1 PUSH2 0xDE3 JUMP JUMPDEST PUSH1 0x40 MLOAD DUP1 SWAP2 SUB SWAP1 RETURN JUMPDEST CALLVALUE DUP1 ISZERO PUSH2 0x30B JUMPI PUSH0 DUP1 REVERT JUMPDEST POP PUSH2 0x314 PUSH2 0xBED JUMP JUMPDEST PUSH1 0x40 MLOAD PUSH2 0x321 SWAP2 SWAP1 PUSH2 0xE3B JUMP JUMPDEST PUSH1 0x40 MLOAD DUP1 SWAP2 SUB SWAP1 RETURN JUMPDEST PUSH2 0x344 PUSH1 0x4 DUP1 CALLDATASIZE SUB DUP2 ADD SWAP1 PUSH2 0x33F SWAP2 SWAP1 PUSH2 0xED7 JUMP JUMPDEST PUSH2 0xC12 JUMP JUMPDEST STOP JUMPDEST PUSH0 PUSH1 0x3 SLOAD PUSH8 0xDE0B6B3A7640000 PUSH1 0x2 SLOAD PUSH2 0x360 SWAP2 SWAP1 PUSH2 0xF68 JUMP JUMPDEST PUSH2 0x36A SWAP2 SWAP1 PUSH2 0xFD6 JUMP JUMPDEST SWAP1 POP SWAP1 JUMP JUMPDEST PUSH0 PUSH1 0x2 SLOAD PUSH8 0xDE0B6B3A7640000 PUSH1 0x3 SLOAD PUSH2 0x389 SWAP2 SWAP1 PUSH2 0xF68 JUMP JUMPDEST PUSH2 0x393 SWAP2 SWAP1 PUSH2 0xFD6 JUMP JUMPDEST SWAP1 POP SWAP1 JUMP JUMPDEST PUSH0 DUP1 SLOAD SWAP1 PUSH2 0x100 EXP SWAP1 DIV PUSH20 0xFFFFFFFFFFFFFFFFFFFFFFFFFFFFFFFFFFFFFFFF AND DUP2 JUMP JUMPDEST PUSH0 DUP1 DUP3 GT PUSH2 0x3FE JUMPI PUSH1 0x40 MLOAD PUSH32 0x8C379A000000000000000000000000000000000000000000000000000000000 DUP2 MSTORE PUSH1 0x4 ADD PUSH2 0x3F5 SWAP1 PUSH2 0x1060 JUMP JUMPDEST PUSH1 0x40 MLOAD DUP1 SWAP2 SUB SWAP1 REVERT JUMPDEST PUSH0 PUSH1 0x64 PUSH1 0x4 SLOAD DUP5 PUSH2 0x40F SWAP2 SWAP1 PUSH2 0xF68 JUMP JUMPDEST PUSH2 0x419 SWAP2 SWAP1 PUSH2 0xFD6 JUMP JUMPDEST SWAP1 POP PUSH0 DUP2 DUP5 PUSH2 0x428 SWAP2 SWAP1 PUSH2 0x107E JUMP JUMPDEST SWAP1 POP PUSH0 DUP1 SLOAD SWAP1 PUSH2 0x100 EXP SWAP1 DIV PUSH20 0xFFFFFFFFFFFFFFFFFFFFFFFFFFFFFFFFFFFFFFFF AND PUSH20 0xFFFFFFFFFFFFFFFFFFFFFFFFFFFFFFFFFFFFFFFF AND PUSH4 0xA9059CBB PUSH1 0x5 PUSH0 SWAP1 SLOAD SWAP1 PUSH2 0x100 EXP SWAP1 DIV PUSH20 0xFFFFFFFFFFFFFFFFFFFFFFFFFFFFFFFFFFFFFFFF AND DUP5 PUSH1 0x40 MLOAD DUP4 PUSH4 0xFFFFFFFF AND PUSH1 0xE0 SHL DUP2 MSTORE PUSH1 0x4 ADD PUSH2 0x4A5 SWAP3 SWAP2 SWAP1 PUSH2 0x10B1 JUMP JUMPDEST PUSH1 0x20 PUSH1 0x40 MLOAD DUP1 DUP4 SUB DUP2 PUSH0 DUP8 GAS CALL ISZERO DUP1 ISZERO PUSH2 0x4C1 JUMPI RETURNDATASIZE PUSH0 DUP1 RETURNDATACOPY RETURNDATASIZE PUSH0 REVERT JUMPDEST POP POP POP POP PUSH1 0x40 MLOAD RETURNDATASIZE PUSH1 0x1F NOT PUSH1 0x1F DUP3 ADD AND DUP3 ADD DUP1 PUSH1 0x40 MSTORE POP DUP2 ADD SWAP1 PUSH2 0x4E5 SWAP2 SWAP1 PUSH2 0x110D JUMP JUMPDEST POP PUSH0 DUP2 PUSH1 0x2 SLOAD PUSH2 0x4F5 SWAP2 SWAP1 PUSH2 0x1138 JUMP JUMPDEST SWAP1 POP DUP1 PUSH1 0x3 SLOAD PUSH1 0x2 SLOAD PUSH2 0x508 SWAP2 SWAP1 PUSH2 0xF68 JUMP JUMPDEST PUSH2 0x512 SWAP2 SWAP1 PUSH2 0xFD6 JUMP JUMPDEST PUSH1 0x3 SLOAD PUSH2 0x51F SWAP2 SWAP1 PUSH2 0x107E JUMP JUMPDEST SWAP4 POP DUP1 PUSH1 0x2 DUP2 SWAP1 SSTORE POP DUP4 PUSH1 0x3 PUSH0 DUP3 DUP3 SLOAD PUSH2 0x539 SWAP2 SWAP1 PUSH2 0x107E JUMP JUMPDEST SWAP3 POP POP DUP2 SWAP1 SSTORE POP PUSH0 DUP1 SLOAD SWAP1 PUSH2 0x100 EXP SWAP1 DIV PUSH20 0xFFFFFFFFFFFFFFFFFFFFFFFFFFFFFFFFFFFFFFFF AND PUSH20 0xFFFFFFFFFFFFFFFFFFFFFFFFFFFFFFFFFFFFFFFF AND PUSH4 0x23B872DD CALLER ADDRESS DUP9 PUSH1 0x40 MLOAD DUP5 PUSH4 0xFFFFFFFF AND PUSH1 0xE0 SHL DUP2 MSTORE PUSH1 0x4 ADD PUSH2 0x59C SWAP4 SWAP3 SWAP2 SWAP1 PUSH2 0x116B JUMP JUMPDEST PUSH1 0x20 PUSH1 0x40 MLOAD DUP1 DUP4 SUB DUP2 PUSH0 DUP8 GAS CALL ISZERO DUP1 ISZERO PUSH2 0x5B8 JUMPI RETURNDATASIZE PUSH0 DUP1 RETURNDATACOPY RETURNDATASIZE PUSH0 REVERT JUMPDEST POP POP POP POP PUSH1 0x40 MLOAD RETURNDATASIZE PUSH1 0x1F NOT PUSH1 0x1F DUP3 ADD AND DUP3 ADD DUP1 PUSH1 0x40 MSTORE POP DUP2 ADD SWAP1 PUSH2 0x5DC SWAP2 SWAP1 PUSH2 0x110D JUMP JUMPDEST POP PUSH0 CALLER PUSH20 0xFFFFFFFFFFFFFFFFFFFFFFFFFFFFFFFFFFFFFFFF AND DUP6 PUSH1 0x40 MLOAD PUSH2 0x602 SWAP1 PUSH2 0x11CD JUMP JUMPDEST PUSH0 PUSH1 0x40 MLOAD DUP1 DUP4 SUB DUP2 DUP6 DUP8 GAS CALL SWAP3 POP POP POP RETURNDATASIZE DUP1 PUSH0 DUP2 EQ PUSH2 0x63C JUMPI PUSH1 0x40 MLOAD SWAP2 POP PUSH1 0x1F NOT PUSH1 0x3F RETURNDATASIZE ADD AND DUP3 ADD PUSH1 0x40 MSTORE RETURNDATASIZE DUP3 MSTORE RETURNDATASIZE PUSH0 PUSH1 0x20 DUP5 ADD RETURNDATACOPY PUSH2 0x641 JUMP JUMPDEST PUSH1 0x60 SWAP2 POP JUMPDEST POP POP SWAP1 POP DUP1 PUSH2 0x685 JUMPI PUSH1 0x40 MLOAD PUSH32 0x8C379A000000000000000000000000000000000000000000000000000000000 DUP2 MSTORE PUSH1 0x4 ADD PUSH2 0x67C SWAP1 PUSH2 0x122B JUMP JUMPDEST PUSH1 0x40 MLOAD DUP1 SWAP2 SUB SWAP1 REVERT JUMPDEST PUSH0 PUSH20 0xFFFFFFFFFFFFFFFFFFFFFFFFFFFFFFFFFFFFFFFF AND PUSH0 DUP1 SLOAD SWAP1 PUSH2 0x100 EXP SWAP1 DIV PUSH20 0xFFFFFFFFFFFFFFFFFFFFFFFFFFFFFFFFFFFFFFFF AND PUSH20 0xFFFFFFFFFFFFFFFFFFFFFFFFFFFFFFFFFFFFFFFF AND PUSH32 0xFA2DDA1CC1B86E41239702756B13EFFBC1A092B5C57E3AD320FBE4F3B13FE235 DUP9 DUP9 PUSH1 0x40 MLOAD PUSH2 0x703 SWAP3 SWAP2 SWAP1 PUSH2 0x1249 JUMP JUMPDEST PUSH1 0x40 MLOAD DUP1 SWAP2 SUB SWAP1 LOG3 POP POP POP POP SWAP2 SWAP1 POP JUMP JUMPDEST PUSH0 DUP1 DUP3 PUSH1 0x2 SLOAD PUSH2 0x724 SWAP2 SWAP1 PUSH2 0x1138 JUMP JUMPDEST SWAP1 POP PUSH0 DUP2 PUSH1 0x3 SLOAD PUSH1 0x2 SLOAD PUSH2 0x738 SWAP2 SWAP1 PUSH2 0xF68 JUMP JUMPDEST PUSH2 0x742 SWAP2 SWAP1 PUSH2 0xFD6 JUMP JUMPDEST PUSH1 0x3 SLOAD PUSH2 0x74F SWAP2 SWAP1 PUSH2 0x107E JUMP JUMPDEST SWAP1 POP PUSH0 PUSH1 0x3 SLOAD PUSH8 0xDE0B6B3A7640000 DUP4 PUSH1 0x3 SLOAD PUSH2 0x76C SWAP2 SWAP1 PUSH2 0x107E JUMP JUMPDEST PUSH2 0x776 SWAP2 SWAP1 PUSH2 0xF68 JUMP JUMPDEST PUSH2 0x780 SWAP2 SWAP1 PUSH2 0xFD6 JUMP JUMPDEST SWAP1 POP DUP1 PUSH8 0xDE0B6B3A7640000 PUSH2 0x796 SWAP2 SWAP1 PUSH2 0x107E JUMP JUMPDEST SWAP4 POP POP POP POP SWAP2 SWAP1 POP JUMP JUMPDEST PUSH1 0x5 PUSH0 SWAP1 SLOAD SWAP1 PUSH2 0x100 EXP SWAP1 DIV PUSH20 0xFFFFFFFFFFFFFFFFFFFFFFFFFFFFFFFFFFFFFFFF AND DUP2 JUMP JUMPDEST PUSH1 0x1 PUSH0 SWAP1 SLOAD SWAP1 PUSH2 0x100 EXP SWAP1 DIV PUSH20 0xFFFFFFFFFFFFFFFFFFFFFFFFFFFFFFFFFFFFFFFF AND PUSH20 0xFFFFFFFFFFFFFFFFFFFFFFFFFFFFFFFFFFFFFFFF AND CALLER PUSH20 0xFFFFFFFFFFFFFFFFFFFFFFFFFFFFFFFFFFFFFFFF AND EQ PUSH2 0x854 JUMPI PUSH1 0x40 MLOAD PUSH32 0x8C379A000000000000000000000000000000000000000000000000000000000 DUP2 MSTORE PUSH1 0x4 ADD PUSH2 0x84B SWAP1 PUSH2 0x12BA JUMP JUMPDEST PUSH1 0x40 MLOAD DUP1 SWAP2 SUB SWAP1 REVERT JUMPDEST DUP1 PUSH1 0x4 DUP2 SWAP1 SSTORE POP PUSH32 0x7F54B0F873D8150D0613DA0F8DB3A0935C36FB63D4D2D75FA8CD08B4B1F33BE1 DUP2 PUSH1 0x40 MLOAD PUSH2 0x88A SWAP2 SWAP1 PUSH2 0xDE3 JUMP JUMPDEST PUSH1 0x40 MLOAD DUP1 SWAP2 SUB SWAP1 LOG1 POP JUMP JUMPDEST PUSH1 0x2 SLOAD DUP2 JUMP JUMPDEST PUSH1 0x3 SLOAD DUP2 JUMP JUMPDEST PUSH0 DUP1 CALLVALUE GT PUSH2 0x8E4 JUMPI PUSH1 0x40 MLOAD PUSH32 0x8C379A000000000000000000000000000000000000000000000000000000000 DUP2 MSTORE PUSH1 0x4 ADD PUSH2 0x8DB SWAP1 PUSH2 0x1322 JUMP JUMPDEST PUSH1 0x40 MLOAD DUP1 SWAP2 SUB SWAP1 REVERT JUMPDEST PUSH0 PUSH1 0x64 PUSH1 0x4 SLOAD CALLVALUE PUSH2 0x8F5 SWAP2 SWAP1 PUSH2 0xF68 JUMP JUMPDEST PUSH2 0x8FF SWAP2 SWAP1 PUSH2 0xFD6 JUMP JUMPDEST SWAP1 POP PUSH0 DUP2 CALLVALUE PUSH2 0x90E SWAP2 SWAP1 PUSH2 0x107E JUMP JUMPDEST SWAP1 POP PUSH0 PUSH1 0x5 PUSH0 SWAP1 SLOAD SWAP1 PUSH2 0x100 EXP SWAP1 DIV PUSH20 0xFFFFFFFFFFFFFFFFFFFFFFFFFFFFFFFFFFFFFFFF AND PUSH20 0xFFFFFFFFFFFFFFFFFFFFFFFFFFFFFFFFFFFFFFFF AND DUP4 PUSH1 0x40 MLOAD PUSH2 0x956 SWAP1 PUSH2 0x11CD JUMP JUMPDEST PUSH0 PUSH1 0x40 MLOAD DUP1 DUP4 SUB DUP2 DUP6 DUP8 GAS CALL SWAP3 POP POP POP RETURNDATASIZE DUP1 PUSH0 DUP2 EQ PUSH2 0x990 JUMPI PUSH1 0x40 MLOAD SWAP2 POP PUSH1 0x1F NOT PUSH1 0x3F RETURNDATASIZE ADD AND DUP3 ADD PUSH1 0x40 MSTORE RETURNDATASIZE DUP3 MSTORE RETURNDATASIZE PUSH0 PUSH1 0x20 DUP5 ADD RETURNDATACOPY PUSH2 0x995 JUMP JUMPDEST PUSH1 0x60 SWAP2 POP JUMPDEST POP POP SWAP1 POP DUP1 PUSH2 0x9D9 JUMPI PUSH1 0x40 MLOAD PUSH32 0x8C379A000000000000000000000000000000000000000000000000000000000 DUP2 MSTORE PUSH1 0x4 ADD PUSH2 0x9D0 SWAP1 PUSH2 0x13B0 JUMP JUMPDEST PUSH1 0x40 MLOAD DUP1 SWAP2 SUB SWAP1 REVERT JUMPDEST PUSH0 DUP3 PUSH1 0x3 SLOAD PUSH2 0x9E8 SWAP2 SWAP1 PUSH2 0x1138 JUMP JUMPDEST SWAP1 POP DUP1 PUSH1 0x3 SLOAD PUSH1 0x2 SLOAD PUSH2 0x9FB SWAP2 SWAP1 PUSH2 0xF68 JUMP JUMPDEST PUSH2 0xA05 SWAP2 SWAP1 PUSH2 0xFD6 JUMP JUMPDEST PUSH1 0x2 SLOAD PUSH2 0xA12 SWAP2 SWAP1 PUSH2 0x107E JUMP JUMPDEST SWAP5 POP DUP1 PUSH1 0x3 DUP2 SWAP1 SSTORE POP DUP5 PUSH1 0x2 PUSH0 DUP3 DUP3 SLOAD PUSH2 0xA2C SWAP2 SWAP1 PUSH2 0x107E JUMP JUMPDEST SWAP3 POP POP DUP2 SWAP1 SSTORE POP PUSH0 DUP1 SLOAD SWAP1 PUSH2 0x100 EXP SWAP1 DIV PUSH20 0xFFFFFFFFFFFFFFFFFFFFFFFFFFFFFFFFFFFFFFFF AND PUSH20 0xFFFFFFFFFFFFFFFFFFFFFFFFFFFFFFFFFFFFFFFF AND PUSH4 0xA9059CBB CALLER DUP8 PUSH1 0x40 MLOAD DUP4 PUSH4 0xFFFFFFFF AND PUSH1 0xE0 SHL DUP2 MSTORE PUSH1 0x4 ADD PUSH2 0xA8D SWAP3 SWAP2 SWAP1 PUSH2 0x10B1 JUMP JUMPDEST PUSH1 0x20 PUSH1 0x40 MLOAD DUP1 DUP4 SUB DUP2 PUSH0 DUP8 GAS CALL ISZERO DUP1 ISZERO PUSH2 0xAA9 JUMPI RETURNDATASIZE PUSH0 DUP1 RETURNDATACOPY RETURNDATASIZE PUSH0 REVERT JUMPDEST POP POP POP POP PUSH1 0x40 MLOAD RETURNDATASIZE PUSH1 0x1F NOT PUSH1 0x1F DUP3 ADD AND DUP3 ADD DUP1 PUSH1 0x40 MSTORE POP DUP2 ADD SWAP1 PUSH2 0xACD SWAP2 SWAP1 PUSH2 0x110D JUMP JUMPDEST POP PUSH0 DUP1 SLOAD SWAP1 PUSH2 0x100 EXP SWAP1 DIV PUSH20 0xFFFFFFFFFFFFFFFFFFFFFFFFFFFFFFFFFFFFFFFF AND PUSH20 0xFFFFFFFFFFFFFFFFFFFFFFFFFFFFFFFFFFFFFFFF AND PUSH0 PUSH20 0xFFFFFFFFFFFFFFFFFFFFFFFFFFFFFFFFFFFFFFFF AND PUSH32 0xFA2DDA1CC1B86E41239702756B13EFFBC1A092B5C57E3AD320FBE4F3B13FE235 CALLVALUE DUP9 PUSH1 0x40 MLOAD PUSH2 0xB4C SWAP3 SWAP2 SWAP1 PUSH2 0x1249 JUMP JUMPDEST PUSH1 0x40 MLOAD DUP1 SWAP2 SUB SWAP1 LOG3 POP POP POP POP SWAP1 JUMP JUMPDEST PUSH0 DUP1 DUP3 PUSH1 0x3 SLOAD PUSH2 0xB6B SWAP2 SWAP1 PUSH2 0x1138 JUMP JUMPDEST SWAP1 POP PUSH0 DUP2 PUSH1 0x3 SLOAD PUSH1 0x2 SLOAD PUSH2 0xB7F SWAP2 SWAP1 PUSH2 0xF68 JUMP JUMPDEST PUSH2 0xB89 SWAP2 SWAP1 PUSH2 0xFD6 JUMP JUMPDEST PUSH1 0x2 SLOAD PUSH2 0xB96 SWAP2 SWAP1 PUSH2 0x107E JUMP JUMPDEST SWAP1 POP PUSH0 PUSH1 0x2 SLOAD PUSH8 0xDE0B6B3A7640000 DUP4 PUSH1 0x2 SLOAD PUSH2 0xBB3 SWAP2 SWAP1 PUSH2 0x107E JUMP JUMPDEST PUSH2 0xBBD SWAP2 SWAP1 PUSH2 0xF68 JUMP JUMPDEST PUSH2 0xBC7 SWAP2 SWAP1 PUSH2 0xFD6 JUMP JUMPDEST SWAP1 POP DUP1 PUSH8 0xDE0B6B3A7640000 PUSH2 0xBDD SWAP2 SWAP1 PUSH2 0x107E JUMP JUMPDEST SWAP4 POP POP POP POP SWAP2 SWAP1 POP JUMP JUMPDEST PUSH1 0x4 SLOAD DUP2 JUMP JUMPDEST PUSH1 0x1 PUSH0 SWAP1 SLOAD SWAP1 PUSH2 0x100 EXP SWAP1 DIV PUSH20 0xFFFFFFFFFFFFFFFFFFFFFFFFFFFFFFFFFFFFFFFF AND DUP2 JUMP JUMPDEST PUSH0 PUSH20 0xFFFFFFFFFFFFFFFFFFFFFFFFFFFFFFFFFFFFFFFF AND PUSH0 DUP1 SLOAD SWAP1 PUSH2 0x100 EXP SWAP1 DIV PUSH20 0xFFFFFFFFFFFFFFFFFFFFFFFFFFFFFFFFFFFFFFFF AND PUSH20 0xFFFFFFFFFFFFFFFFFFFFFFFFFFFFFFFFFFFFFFFF AND EQ PUSH2 0xC9F JUMPI PUSH1 0x40 MLOAD PUSH32 0x8C379A000000000000000000000000000000000000000000000000000000000 DUP2 MSTORE PUSH1 0x4 ADD PUSH2 0xC96 SWAP1 PUSH2 0x1418 JUMP JUMPDEST PUSH1 0x40 MLOAD DUP1 SWAP2 SUB SWAP1 REVERT JUMPDEST PUSH0 CALLVALUE GT PUSH2 0xCE1 JUMPI PUSH1 0x40 MLOAD PUSH32 0x8C379A000000000000000000000000000000000000000000000000000000000 DUP2 MSTORE PUSH1 0x4 ADD PUSH2 0xCD8 SWAP1 PUSH2 0x14A6 JUMP JUMPDEST PUSH1 0x40 MLOAD DUP1 SWAP2 SUB SWAP1 REVERT JUMPDEST DUP4 PUSH0 DUP1 PUSH2 0x100 EXP DUP2 SLOAD DUP2 PUSH20 0xFFFFFFFFFFFFFFFFFFFFFFFFFFFFFFFFFFFFFFFF MUL NOT AND SWAP1 DUP4 PUSH20 0xFFFFFFFFFFFFFFFFFFFFFFFFFFFFFFFFFFFFFFFF AND MUL OR SWAP1 SSTORE POP DUP3 PUSH1 0x1 PUSH0 PUSH2 0x100 EXP DUP2 SLOAD DUP2 PUSH20 0xFFFFFFFFFFFFFFFFFFFFFFFFFFFFFFFFFFFFFFFF MUL NOT AND SWAP1 DUP4 PUSH20 0xFFFFFFFFFFFFFFFFFFFFFFFFFFFFFFFFFFFFFFFF AND MUL OR SWAP1 SSTORE POP DUP1 PUSH1 0x4 DUP2 SWAP1 SSTORE POP DUP2 PUSH1 0x2 DUP2 SWAP1 SSTORE POP CALLVALUE PUSH1 0x3 DUP2 SWAP1 SSTORE POP CALLER PUSH20 0xFFFFFFFFFFFFFFFFFFFFFFFFFFFFFFFFFFFFFFFF AND PUSH32 0xAC1D76749E5447B7B16F5AB61447E1BD502F3BB4807AF3B28E620D1700A6EE45 DUP4 CALLVALUE PUSH1 0x40 MLOAD PUSH2 0xDBD SWAP3 SWAP2 SWAP1 PUSH2 0x1249 JUMP JUMPDEST PUSH1 0x40 MLOAD DUP1 SWAP2 SUB SWAP1 LOG2 POP POP POP POP JUMP JUMPDEST PUSH0 DUP2 SWAP1 POP SWAP2 SWAP1 POP JUMP JUMPDEST PUSH2 0xDDD DUP2 PUSH2 0xDCB JUMP JUMPDEST DUP3 MSTORE POP POP JUMP JUMPDEST PUSH0 PUSH1 0x20 DUP3 ADD SWAP1 POP PUSH2 0xDF6 PUSH0 DUP4 ADD DUP5 PUSH2 0xDD4 JUMP JUMPDEST SWAP3 SWAP2 POP POP JUMP JUMPDEST PUSH0 PUSH20 0xFFFFFFFFFFFFFFFFFFFFFFFFFFFFFFFFFFFFFFFF DUP3 AND SWAP1 POP SWAP2 SWAP1 POP JUMP JUMPDEST PUSH0 PUSH2 0xE25 DUP3 PUSH2 0xDFC JUMP JUMPDEST SWAP1 POP SWAP2 SWAP1 POP JUMP JUMPDEST PUSH2 0xE35 DUP2 PUSH2 0xE1B JUMP JUMPDEST DUP3 MSTORE POP POP JUMP JUMPDEST PUSH0 PUSH1 0x20 DUP3 ADD SWAP1 POP PUSH2 0xE4E PUSH0 DUP4 ADD DUP5 PUSH2 0xE2C JUMP JUMPDEST SWAP3 SWAP2 POP POP JUMP JUMPDEST PUSH0 DUP1 REVERT JUMPDEST PUSH2 0xE61 DUP2 PUSH2 0xDCB JUMP JUMPDEST DUP2 EQ PUSH2 0xE6B JUMPI PUSH0 DUP1 REVERT JUMPDEST POP JUMP JUMPDEST PUSH0 DUP2 CALLDATALOAD SWAP1 POP PUSH2 0xE7C DUP2 PUSH2 0xE58 JUMP JUMPDEST SWAP3 SWAP2 POP POP JUMP JUMPDEST PUSH0 PUSH1 0x20 DUP3 DUP5 SUB SLT ISZERO PUSH2 0xE97 JUMPI PUSH2 0xE96 PUSH2 0xE54 JUMP JUMPDEST JUMPDEST PUSH0 PUSH2 0xEA4 DUP5 DUP3 DUP6 ADD PUSH2 0xE6E JUMP JUMPDEST SWAP2 POP POP SWAP3 SWAP2 POP POP JUMP JUMPDEST PUSH2 0xEB6 DUP2 PUSH2 0xE1B JUMP JUMPDEST DUP2 EQ PUSH2 0xEC0 JUMPI PUSH0 DUP1 REVERT JUMPDEST POP JUMP JUMPDEST PUSH0 DUP2 CALLDATALOAD SWAP1 POP PUSH2 0xED1 DUP2 PUSH2 0xEAD JUMP JUMPDEST SWAP3 SWAP2 POP POP JUMP JUMPDEST PUSH0 DUP1 PUSH0 DUP1 PUSH1 0x80 DUP6 DUP8 SUB SLT ISZERO PUSH2 0xEEF JUMPI PUSH2 0xEEE PUSH2 0xE54 JUMP JUMPDEST JUMPDEST PUSH0 PUSH2 0xEFC DUP8 DUP3 DUP9 ADD PUSH2 0xEC3 JUMP JUMPDEST SWAP5 POP POP PUSH1 0x20 PUSH2 0xF0D DUP8 DUP3 DUP9 ADD PUSH2 0xEC3 JUMP JUMPDEST SWAP4 POP POP PUSH1 0x40 PUSH2 0xF1E DUP8 DUP3 DUP9 ADD PUSH2 0xE6E JUMP JUMPDEST SWAP3 POP POP PUSH1 0x60 PUSH2 0xF2F DUP8 DUP3 DUP9 ADD PUSH2 0xE6E JUMP JUMPDEST SWAP2 POP POP SWAP3 SWAP6 SWAP2 SWAP5 POP SWAP3 POP JUMP JUMPDEST PUSH32 0x4E487B7100000000000000000000000000000000000000000000000000000000 PUSH0 MSTORE PUSH1 0x11 PUSH1 0x4 MSTORE PUSH1 0x24 PUSH0 REVERT JUMPDEST PUSH0 PUSH2 0xF72 DUP3 PUSH2 0xDCB JUMP JUMPDEST SWAP2 POP PUSH2 0xF7D DUP4 PUSH2 0xDCB JUMP JUMPDEST SWAP3 POP DUP3 DUP3 MUL PUSH2 0xF8B DUP2 PUSH2 0xDCB JUMP JUMPDEST SWAP2 POP DUP3 DUP3 DIV DUP5 EQ DUP4 ISZERO OR PUSH2 0xFA2 JUMPI PUSH2 0xFA1 PUSH2 0xF3B JUMP JUMPDEST JUMPDEST POP SWAP3 SWAP2 POP POP JUMP JUMPDEST PUSH32 0x4E487B7100000000000000000000000000000000000000000000000000000000 PUSH0 MSTORE PUSH1 0x12 PUSH1 0x4 MSTORE PUSH1 0x24 PUSH0 REVERT JUMPDEST PUSH0 PUSH2 0xFE0 DUP3 PUSH2 0xDCB JUMP JUMPDEST SWAP2 POP PUSH2 0xFEB DUP4 PUSH2 0xDCB JUMP JUMPDEST SWAP3 POP DUP3 PUSH2 0xFFB JUMPI PUSH2 0xFFA PUSH2 0xFA9 JUMP JUMPDEST JUMPDEST DUP3 DUP3 DIV SWAP1 POP SWAP3 SWAP2 POP POP JUMP JUMPDEST PUSH0 DUP3 DUP3 MSTORE PUSH1 0x20 DUP3 ADD SWAP1 POP SWAP3 SWAP2 POP POP JUMP JUMPDEST PUSH32 0x4D7573742073656C6C20736F6D6520746F6B656E730000000000000000000000 PUSH0 DUP3 ADD MSTORE POP JUMP JUMPDEST PUSH0 PUSH2 0x104A PUSH1 0x15 DUP4 PUSH2 0x1006 JUMP JUMPDEST SWAP2 POP PUSH2 0x1055 DUP3 PUSH2 0x1016 JUMP JUMPDEST PUSH1 0x20 DUP3 ADD SWAP1 POP SWAP2 SWAP1 POP JUMP JUMPDEST PUSH0 PUSH1 0x20 DUP3 ADD SWAP1 POP DUP2 DUP2 SUB PUSH0 DUP4 ADD MSTORE PUSH2 0x1077 DUP2 PUSH2 0x103E JUMP JUMPDEST SWAP1 POP SWAP2 SWAP1 POP JUMP JUMPDEST PUSH0 PUSH2 0x1088 DUP3 PUSH2 0xDCB JUMP JUMPDEST SWAP2 POP PUSH2 0x1093 DUP4 PUSH2 0xDCB JUMP JUMPDEST SWAP3 POP DUP3 DUP3 SUB SWAP1 POP DUP2 DUP2 GT ISZERO PUSH2 0x10AB JUMPI PUSH2 0x10AA PUSH2 0xF3B JUMP JUMPDEST JUMPDEST SWAP3 SWAP2 POP POP JUMP JUMPDEST PUSH0 PUSH1 0x40 DUP3 ADD SWAP1 POP PUSH2 0x10C4 PUSH0 DUP4 ADD DUP6 PUSH2 0xE2C JUMP JUMPDEST PUSH2 0x10D1 PUSH1 0x20 DUP4 ADD DUP5 PUSH2 0xDD4 JUMP JUMPDEST SWAP4 SWAP3 POP POP POP JUMP JUMPDEST PUSH0 DUP2 ISZERO ISZERO SWAP1 POP SWAP2 SWAP1 POP JUMP JUMPDEST PUSH2 0x10EC DUP2 PUSH2 0x10D8 JUMP JUMPDEST DUP2 EQ PUSH2 0x10F6 JUMPI PUSH0 DUP1 REVERT JUMPDEST POP JUMP JUMPDEST PUSH0 DUP2 MLOAD SWAP1 POP PUSH2 0x1107 DUP2 PUSH2 0x10E3 JUMP JUMPDEST SWAP3 SWAP2 POP POP JUMP JUMPDEST PUSH0 PUSH1 0x20 DUP3 DUP5 SUB SLT ISZERO PUSH2 0x1122 JUMPI PUSH2 0x1121 PUSH2 0xE54 JUMP JUMPDEST JUMPDEST PUSH0 PUSH2 0x112F DUP5 DUP3 DUP6 ADD PUSH2 0x10F9 JUMP JUMPDEST SWAP2 POP POP SWAP3 SWAP2 POP POP JUMP JUMPDEST PUSH0 PUSH2 0x1142 DUP3 PUSH2 0xDCB JUMP JUMPDEST SWAP2 POP PUSH2 0x114D DUP4 PUSH2 0xDCB JUMP JUMPDEST SWAP3 POP DUP3 DUP3 ADD SWAP1 POP DUP1 DUP3 GT ISZERO PUSH2 0x1165 JUMPI PUSH2 0x1164 PUSH2 0xF3B JUMP JUMPDEST JUMPDEST SWAP3 SWAP2 POP POP JUMP JUMPDEST PUSH0 PUSH1 0x60 DUP3 ADD SWAP1 POP PUSH2 0x117E PUSH0 DUP4 ADD DUP7 PUSH2 0xE2C JUMP JUMPDEST PUSH2 0x118B PUSH1 0x20 DUP4 ADD DUP6 PUSH2 0xE2C JUMP JUMPDEST PUSH2 0x1198 PUSH1 0x40 DUP4 ADD DUP5 PUSH2 0xDD4 JUMP JUMPDEST SWAP5 SWAP4 POP POP POP POP JUMP JUMPDEST PUSH0 DUP2 SWAP1 POP SWAP3 SWAP2 POP POP JUMP JUMPDEST POP JUMP JUMPDEST PUSH0 PUSH2 0x11B8 PUSH0 DUP4 PUSH2 0x11A0 JUMP JUMPDEST SWAP2 POP PUSH2 0x11C3 DUP3 PUSH2 0x11AA JUMP JUMPDEST PUSH0 DUP3 ADD SWAP1 POP SWAP2 SWAP1 POP JUMP JUMPDEST PUSH0 PUSH2 0x11D7 DUP3 PUSH2 0x11AD JUMP JUMPDEST SWAP2 POP DUP2 SWAP1 POP SWAP2 SWAP1 POP JUMP JUMPDEST PUSH32 0x4574686572207472616E73666572206661696C65640000000000000000000000 PUSH0 DUP3 ADD MSTORE POP JUMP JUMPDEST PUSH0 PUSH2 0x1215 PUSH1 0x15 DUP4 PUSH2 0x1006 JUMP JUMPDEST SWAP2 POP PUSH2 0x1220 DUP3 PUSH2 0x11E1 JUMP JUMPDEST PUSH1 0x20 DUP3 ADD SWAP1 POP SWAP2 SWAP1 POP JUMP JUMPDEST PUSH0 PUSH1 0x20 DUP3 ADD SWAP1 POP DUP2 DUP2 SUB PUSH0 DUP4 ADD MSTORE PUSH2 0x1242 DUP2 PUSH2 0x1209 JUMP JUMPDEST SWAP1 POP SWAP2 SWAP1 POP JUMP JUMPDEST PUSH0 PUSH1 0x40 DUP3 ADD SWAP1 POP PUSH2 0x125C PUSH0 DUP4 ADD DUP6 PUSH2 0xDD4 JUMP JUMPDEST PUSH2 0x1269 PUSH1 0x20 DUP4 ADD DUP5 PUSH2 0xDD4 JUMP JUMPDEST SWAP4 SWAP3 POP POP POP JUMP JUMPDEST PUSH32 0x43616C6C6572206973206E6F742074686520546F6B656E466163746F72790000 PUSH0 DUP3 ADD MSTORE POP JUMP JUMPDEST PUSH0 PUSH2 0x12A4 PUSH1 0x1E DUP4 PUSH2 0x1006 JUMP JUMPDEST SWAP2 POP PUSH2 0x12AF DUP3 PUSH2 0x1270 JUMP JUMPDEST PUSH1 0x20 DUP3 ADD SWAP1 POP SWAP2 SWAP1 POP JUMP JUMPDEST PUSH0 PUSH1 0x20 DUP3 ADD SWAP1 POP DUP2 DUP2 SUB PUSH0 DUP4 ADD MSTORE PUSH2 0x12D1 DUP2 PUSH2 0x1298 JUMP JUMPDEST SWAP1 POP SWAP2 SWAP1 POP JUMP JUMPDEST PUSH32 0x4D7573742073656E6420457468657220746F2062757920746F6B656E73000000 PUSH0 DUP3 ADD MSTORE POP JUMP JUMPDEST PUSH0 PUSH2 0x130C PUSH1 0x1D DUP4 PUSH2 0x1006 JUMP JUMPDEST SWAP2 POP PUSH2 0x1317 DUP3 PUSH2 0x12D8 JUMP JUMPDEST PUSH1 0x20 DUP3 ADD SWAP1 POP SWAP2 SWAP1 POP JUMP JUMPDEST PUSH0 PUSH1 0x20 DUP3 ADD SWAP1 POP DUP2 DUP2 SUB PUSH0 DUP4 ADD MSTORE PUSH2 0x1339 DUP2 PUSH2 0x1300 JUMP JUMPDEST SWAP1 POP SWAP2 SWAP1 POP JUMP JUMPDEST PUSH32 0x4661696C656420746F2073656E642074617820746F2064657620616464726573 PUSH0 DUP3 ADD MSTORE PUSH32 0x7300000000000000000000000000000000000000000000000000000000000000 PUSH1 0x20 DUP3 ADD MSTORE POP JUMP JUMPDEST PUSH0 PUSH2 0x139A PUSH1 0x21 DUP4 PUSH2 0x1006 JUMP JUMPDEST SWAP2 POP PUSH2 0x13A5 DUP3 PUSH2 0x1340 JUMP JUMPDEST PUSH1 0x40 DUP3 ADD SWAP1 POP SWAP2 SWAP1 POP JUMP JUMPDEST PUSH0 PUSH1 0x20 DUP3 ADD SWAP1 POP DUP2 DUP2 SUB PUSH0 DUP4 ADD MSTORE PUSH2 0x13C7 DUP2 PUSH2 0x138E JUMP JUMPDEST SWAP1 POP SWAP2 SWAP1 POP JUMP JUMPDEST PUSH32 0x506F6F6C20616C726561647920696E697469616C697A65640000000000000000 PUSH0 DUP3 ADD MSTORE POP JUMP JUMPDEST PUSH0 PUSH2 0x1402 PUSH1 0x18 DUP4 PUSH2 0x1006 JUMP JUMPDEST SWAP2 POP PUSH2 0x140D DUP3 PUSH2 0x13CE JUMP JUMPDEST PUSH1 0x20 DUP3 ADD SWAP1 POP SWAP2 SWAP1 POP JUMP JUMPDEST PUSH0 PUSH1 0x20 DUP3 ADD SWAP1 POP DUP2 DUP2 SUB PUSH0 DUP4 ADD MSTORE PUSH2 0x142F DUP2 PUSH2 0x13F6 JUMP JUMPDEST SWAP1 POP SWAP2 SWAP1 POP JUMP JUMPDEST PUSH32 0x496E697469616C206E617469766520746F6B656E20616D6F756E74206D757374 PUSH0 DUP3 ADD MSTORE PUSH32 0x2062652067726561746572207468616E207A65726F0000000000000000000000 PUSH1 0x20 DUP3 ADD MSTORE POP JUMP JUMPDEST PUSH0 PUSH2 0x1490 PUSH1 0x35 DUP4 PUSH2 0x1006 JUMP JUMPDEST SWAP2 POP PUSH2 0x149B DUP3 PUSH2 0x1436 JUMP JUMPDEST PUSH1 0x40 DUP3 ADD SWAP1 POP SWAP2 SWAP1 POP JUMP JUMPDEST PUSH0 PUSH1 0x20 DUP3 ADD SWAP1 POP DUP2 DUP2 SUB PUSH0 DUP4 ADD MSTORE PUSH2 0x14BD DUP2 PUSH2 0x1484 JUMP JUMPDEST SWAP1 POP SWAP2 SWAP1 POP JUMP INVALID LOG2 PUSH5 0x6970667358 0x22 SLT KECCAK256 MCOPY LOG1 BLOBHASH 0xC6 0xB1 SWAP5 PUSH20 0x33280512E17F1558FE876E5A13D357E7F7652EDF 0x2D 0x4E 0xF8 0xAB 0x2A PUSH5 0x736F6C6343 STOP ADDMOD BYTE STOP CALLER "
				},
				"gasEstimates": {
					"creation": {
						"codeDepositCost": "1074000",
						"executionCost": "infinite",
						"totalCost": "infinite"
					},
					"external": {
						"buyToken()": "infinite",
						"calculateSlippageOnBuy(uint256)": "infinite",
						"calculateSlippageOnSell(uint256)": "infinite",
						"devAddress()": "2575",
						"getPriceInNative()": "infinite",
						"getPriceInToken()": "infinite",
						"initialize(address,address,uint256,uint256)": "infinite",
						"reserve0()": "2448",
						"reserve1()": "2470",
						"sellToken(uint256)": "infinite",
						"taxPercentage()": "2469",
						"token0()": "2573",
						"tokenFactory()": "2574",
						"updateTaxPercentage(uint256)": "infinite"
					}
				},
				"methodIdentifiers": {
					"buyToken()": "a4821719",
					"calculateSlippageOnBuy(uint256)": "a4f9c914",
					"calculateSlippageOnSell(uint256)": "29cc78ef",
					"devAddress()": "3ad10ef6",
					"getPriceInNative()": "09fd2e69",
					"getPriceInToken()": "02bbce46",
					"initialize(address,address,uint256,uint256)": "eb990c59",
					"reserve0()": "443cb4bc",
					"reserve1()": "5a76f25e",
					"sellToken(uint256)": "2397e4d7",
					"taxPercentage()": "ae7b6d16",
					"token0()": "0dfe1681",
					"tokenFactory()": "e77772fe",
					"updateTaxPercentage(uint256)": "3f131c6a"
				}
			},
			"storageLayout": {
				"storage": [
					{
						"astId": 82,
						"contract": "contracts/token factory/LiquidityPool.sol:LiquidityPool",
						"label": "token0",
						"offset": 0,
						"slot": "0",
						"type": "t_address"
					},
					{
						"astId": 84,
						"contract": "contracts/token factory/LiquidityPool.sol:LiquidityPool",
						"label": "tokenFactory",
						"offset": 0,
						"slot": "1",
						"type": "t_address"
					},
					{
						"astId": 86,
						"contract": "contracts/token factory/LiquidityPool.sol:LiquidityPool",
						"label": "reserve0",
						"offset": 0,
						"slot": "2",
						"type": "t_uint256"
					},
					{
						"astId": 88,
						"contract": "contracts/token factory/LiquidityPool.sol:LiquidityPool",
						"label": "reserve1",
						"offset": 0,
						"slot": "3",
						"type": "t_uint256"
					},
					{
						"astId": 90,
						"contract": "contracts/token factory/LiquidityPool.sol:LiquidityPool",
						"label": "taxPercentage",
						"offset": 0,
						"slot": "4",
						"type": "t_uint256"
					},
					{
						"astId": 92,
						"contract": "contracts/token factory/LiquidityPool.sol:LiquidityPool",
						"label": "devAddress",
						"offset": 0,
						"slot": "5",
						"type": "t_address"
					}
				],
				"types": {
					"t_address": {
						"encoding": "inplace",
						"label": "address",
						"numberOfBytes": "20"
					},
					"t_uint256": {
						"encoding": "inplace",
						"label": "uint256",
						"numberOfBytes": "32"
					}
				}
			},
			"userdoc": {
				"kind": "user",
				"methods": {},
				"version": 1
			}
		}
	}
}