{
	"contracts/token factory/testAlgebrav2.sol": {
		"AlgebraPoolCreator": {
			"abi": [
				{
					"inputs": [
						{
							"internalType": "address",
							"name": "_algebraFactory",
							"type": "address"
						}
					],
					"stateMutability": "nonpayable",
					"type": "constructor"
				},
				{
					"inputs": [],
					"name": "algebraFactory",
					"outputs": [
						{
							"internalType": "address",
							"name": "",
							"type": "address"
						}
					],
					"stateMutability": "view",
					"type": "function"
				},
				{
					"inputs": [
						{
							"internalType": "uint160",
							"name": "_sqrtPriceX96",
							"type": "uint160"
						},
						{
							"internalType": "uint256",
							"name": "_sendNativeTRBTC",
							"type": "uint256"
						}
					],
					"name": "createPoolAlgebra",
					"outputs": [],
					"stateMutability": "payable",
					"type": "function"
				},
				{
					"inputs": [],
					"name": "liquidityPool",
					"outputs": [
						{
							"internalType": "address",
							"name": "",
							"type": "address"
						}
					],
					"stateMutability": "view",
					"type": "function"
				},
				{
					"inputs": [],
					"name": "tokenA",
					"outputs": [
						{
							"internalType": "address",
							"name": "",
							"type": "address"
						}
					],
					"stateMutability": "view",
					"type": "function"
				},
				{
					"inputs": [],
					"name": "tokenB",
					"outputs": [
						{
							"internalType": "address",
							"name": "",
							"type": "address"
						}
					],
					"stateMutability": "view",
					"type": "function"
				}
			],
			"devdoc": {
				"kind": "dev",
				"methods": {},
				"version": 1
			},
			"evm": {
				"assembly": "    /* \"contracts/token factory/testAlgebrav2.sol\":2196:3356  contract AlgebraPoolCreator {... */\n  mstore(0x40, 0x80)\n    /* \"contracts/token factory/testAlgebrav2.sol\":2356:2832  constructor(address _algebraFactory) {... */\n  callvalue\n  dup1\n  iszero\n  tag_1\n  jumpi\n  0x00\n  dup1\n  revert\ntag_1:\n  pop\n  mload(0x40)\n  sub(codesize, bytecodeSize)\n  dup1\n  bytecodeSize\n  dup4\n  codecopy\n  dup2\n  add\n  0x40\n  dup2\n  swap1\n  mstore\n  tag_2\n  swap2\n  tag_3\n  jump\t// in\ntag_2:\n    /* \"contracts/token factory/testAlgebrav2.sol\":2403:2417  algebraFactory */\n  0x02\n    /* \"contracts/token factory/testAlgebrav2.sol\":2403:2435  algebraFactory = _algebraFactory */\n  dup1\n  sload\n  not(sub(shl(0xa0, 0x01), 0x01))\n  and\n  sub(shl(0xa0, 0x01), 0x01)\n  dup4\n  and\n  or\n  swap1\n  sstore\n    /* \"contracts/token factory/testAlgebrav2.sol\":2468:2599  new SimpleERC20(... */\n  mload(0x40)\n  0x00\n  swap1\n    /* \"contracts/token factory/testAlgebrav2.sol\":2539:2549  1000 ether */\n  0x3635c9adc5dea00000\n  swap1\n    /* \"contracts/token factory/testAlgebrav2.sol\":2579:2589  msg.sender */\n  caller\n  swap1\n    /* \"contracts/token factory/testAlgebrav2.sol\":2468:2599  new SimpleERC20(... */\n  tag_6\n  swap1\n  tag_7\n  jump\t// in\ntag_6:\n    /* \"#utility.yul\":697:700   */\n  0x80\n    /* \"#utility.yul\":679:701   */\n  dup1\n  dup3\n  mstore\n    /* \"#utility.yul\":738:739   */\n  0x07\n    /* \"#utility.yul\":717:736   */\n  swap1\n  dup3\n  add\n    /* \"#utility.yul\":710:740   */\n  mstore\n  shl(0xc8, 0x546f6b656e2041)\n    /* \"#utility.yul\":771:774   */\n  0xa0\n    /* \"#utility.yul\":756:775   */\n  dup3\n  add\n    /* \"#utility.yul\":749:787   */\n  mstore\n    /* \"#utility.yul\":825:828   */\n  0xc0\n    /* \"#utility.yul\":818:822   */\n  0x20\n    /* \"#utility.yul\":803:823   */\n  dup3\n  add\n    /* \"#utility.yul\":796:829   */\n  dup2\n  swap1\n  mstore\n    /* \"#utility.yul\":866:867   */\n  0x03\n    /* \"#utility.yul\":845:864   */\n  swap1\n  dup3\n  add\n    /* \"#utility.yul\":838:868   */\n  mstore\n  shl(0xe8, 0x544b41)\n    /* \"#utility.yul\":899:902   */\n  0xe0\n    /* \"#utility.yul\":884:903   */\n  dup3\n  add\n    /* \"#utility.yul\":877:911   */\n  mstore\n    /* \"#utility.yul\":978:980   */\n  0x40\n    /* \"#utility.yul\":963:981   */\n  dup2\n  add\n    /* \"#utility.yul\":956:990   */\n  swap3\n  swap1\n  swap3\n  mstore\n  sub(shl(0xa0, 0x01), 0x01)\n    /* \"#utility.yul\":1026:1058   */\n  and\n  0x60\n    /* \"#utility.yul\":1006:1024   */\n  dup3\n  add\n    /* \"#utility.yul\":999:1059   */\n  mstore\n    /* \"#utility.yul\":943:946   */\n  0x0100\n    /* \"#utility.yul\":928:947   */\n  add\n    /* \"contracts/token factory/testAlgebrav2.sol\":2468:2599  new SimpleERC20(... */\n  mload(0x40)\n  dup1\n  swap2\n  sub\n  swap1\n  0x00\n  create\n  dup1\n  iszero\n  dup1\n  iszero\n  tag_10\n  jumpi\n  returndatasize\n  0x00\n  dup1\n  returndatacopy\n  revert(0x00, returndatasize)\ntag_10:\n  pop\n    /* \"contracts/token factory/testAlgebrav2.sol\":2446:2599  SimpleERC20 _tokenA = new SimpleERC20(... */\n  swap1\n  pop\n    /* \"contracts/token factory/testAlgebrav2.sol\":2609:2628  SimpleERC20 _tokenB */\n  0x00\n    /* \"contracts/token factory/testAlgebrav2.sol\":2702:2712  1000 ether */\n  0x3635c9adc5dea00000\n    /* \"contracts/token factory/testAlgebrav2.sol\":2726:2736  msg.sender */\n  caller\n    /* \"contracts/token factory/testAlgebrav2.sol\":2631:2746  new SimpleERC20(... */\n  mload(0x40)\n  tag_11\n  swap1\n  tag_7\n  jump\t// in\ntag_11:\n    /* \"#utility.yul\":1458:1461   */\n  0x80\n    /* \"#utility.yul\":1440:1462   */\n  dup1\n  dup3\n  mstore\n    /* \"#utility.yul\":1499:1500   */\n  0x07\n    /* \"#utility.yul\":1478:1497   */\n  swap1\n  dup3\n  add\n    /* \"#utility.yul\":1471:1501   */\n  mstore\n  shl(0xc9, 0x2a37b5b2b71021)\n    /* \"#utility.yul\":1532:1535   */\n  0xa0\n    /* \"#utility.yul\":1517:1536   */\n  dup3\n  add\n    /* \"#utility.yul\":1510:1548   */\n  mstore\n    /* \"#utility.yul\":1586:1589   */\n  0xc0\n    /* \"#utility.yul\":1579:1583   */\n  0x20\n    /* \"#utility.yul\":1564:1584   */\n  dup3\n  add\n    /* \"#utility.yul\":1557:1590   */\n  dup2\n  swap1\n  mstore\n    /* \"#utility.yul\":1627:1628   */\n  0x03\n    /* \"#utility.yul\":1606:1625   */\n  swap1\n  dup3\n  add\n    /* \"#utility.yul\":1599:1629   */\n  mstore\n  shl(0xe9, 0x2a25a1)\n    /* \"#utility.yul\":1660:1663   */\n  0xe0\n    /* \"#utility.yul\":1645:1664   */\n  dup3\n  add\n    /* \"#utility.yul\":1638:1672   */\n  mstore\n    /* \"#utility.yul\":1739:1741   */\n  0x40\n    /* \"#utility.yul\":1724:1742   */\n  dup2\n  add\n    /* \"#utility.yul\":1717:1751   */\n  swap3\n  swap1\n  swap3\n  mstore\n  sub(shl(0xa0, 0x01), 0x01)\n    /* \"#utility.yul\":1787:1819   */\n  and\n  0x60\n    /* \"#utility.yul\":1767:1785   */\n  dup3\n  add\n    /* \"#utility.yul\":1760:1820   */\n  mstore\n    /* \"#utility.yul\":1704:1707   */\n  0x0100\n    /* \"#utility.yul\":1689:1708   */\n  add\n    /* \"contracts/token factory/testAlgebrav2.sol\":2631:2746  new SimpleERC20(... */\n  mload(0x40)\n  dup1\n  swap2\n  sub\n  swap1\n  0x00\n  create\n  dup1\n  iszero\n  dup1\n  iszero\n  tag_14\n  jumpi\n  returndatasize\n  0x00\n  dup1\n  returndatacopy\n  revert(0x00, returndatasize)\ntag_14:\n  pop\n    /* \"contracts/token factory/testAlgebrav2.sol\":2765:2771  tokenA */\n  0x00\n    /* \"contracts/token factory/testAlgebrav2.sol\":2765:2790  tokenA = address(_tokenA) */\n  dup1\n  sload\n  sub(shl(0xa0, 0x01), 0x01)\n  swap5\n  dup6\n  and\n  not(sub(shl(0xa0, 0x01), 0x01))\n  swap2\n  dup3\n  and\n  or\n  swap1\n  swap2\n  sstore\n  0x01\n    /* \"contracts/token factory/testAlgebrav2.sol\":2800:2825  tokenB = address(_tokenB) */\n  dup1\n  sload\n  swap3\n  swap1\n  swap5\n  and\n  swap2\n  and\n  or\n  swap1\n  swap2\n  sstore\n  pop\n    /* \"contracts/token factory/testAlgebrav2.sol\":2196:3356  contract AlgebraPoolCreator {... */\n  tag_16\n  swap1\n  pop\n  jump\ntag_7:\n  dataSize(sub_1)\n  dup1\n  dataOffset(sub_1)\n  dup4\n  codecopy\n  add\n  swap1\n  jump\t// out\n    /* \"#utility.yul\":14:304   */\ntag_3:\n    /* \"#utility.yul\":84:90   */\n  0x00\n    /* \"#utility.yul\":137:139   */\n  0x20\n    /* \"#utility.yul\":125:134   */\n  dup3\n    /* \"#utility.yul\":116:123   */\n  dup5\n    /* \"#utility.yul\":112:135   */\n  sub\n    /* \"#utility.yul\":108:140   */\n  slt\n    /* \"#utility.yul\":105:157   */\n  iszero\n  tag_18\n  jumpi\n    /* \"#utility.yul\":153:154   */\n  0x00\n    /* \"#utility.yul\":150:151   */\n  dup1\n    /* \"#utility.yul\":143:155   */\n  revert\n    /* \"#utility.yul\":105:157   */\ntag_18:\n    /* \"#utility.yul\":179:195   */\n  dup2\n  mload\n  sub(shl(0xa0, 0x01), 0x01)\n    /* \"#utility.yul\":224:255   */\n  dup2\n  and\n    /* \"#utility.yul\":214:256   */\n  dup2\n  eq\n    /* \"#utility.yul\":204:274   */\n  tag_19\n  jumpi\n    /* \"#utility.yul\":270:271   */\n  0x00\n    /* \"#utility.yul\":267:268   */\n  dup1\n    /* \"#utility.yul\":260:272   */\n  revert\n    /* \"#utility.yul\":204:274   */\ntag_19:\n    /* \"#utility.yul\":293:298   */\n  swap4\n    /* \"#utility.yul\":14:304   */\n  swap3\n  pop\n  pop\n  pop\n  jump\t// out\n    /* \"#utility.yul\":1070:1826   */\ntag_16:\n    /* \"contracts/token factory/testAlgebrav2.sol\":2196:3356  contract AlgebraPoolCreator {... */\n  dataSize(sub_0)\n  dup1\n  dataOffset(sub_0)\n  0x00\n  codecopy\n  0x00\n  return\nstop\n\nsub_0: assembly {\n        /* \"contracts/token factory/testAlgebrav2.sol\":2196:3356  contract AlgebraPoolCreator {... */\n      mstore(0x40, 0x80)\n      jumpi(tag_1, lt(calldatasize, 0x04))\n      shr(0xe0, calldataload(0x00))\n      dup1\n      0x0fc63d10\n      eq\n      tag_2\n      jumpi\n      dup1\n      0x5f64b55b\n      eq\n      tag_3\n      jumpi\n      dup1\n      0x665a11ca\n      eq\n      tag_4\n      jumpi\n      dup1\n      0x983761e3\n      eq\n      tag_5\n      jumpi\n      dup1\n      0xa7b64b04\n      eq\n      tag_6\n      jumpi\n    tag_1:\n      0x00\n      dup1\n      revert\n        /* \"contracts/token factory/testAlgebrav2.sol\":2230:2251  address public tokenA */\n    tag_2:\n      callvalue\n      dup1\n      iszero\n      tag_7\n      jumpi\n      0x00\n      dup1\n      revert\n    tag_7:\n      pop\n      sload(0x00)\n      tag_8\n      swap1\n      sub(shl(0xa0, 0x01), 0x01)\n      and\n      dup2\n      jump\n    tag_8:\n      mload(0x40)\n      sub(shl(0xa0, 0x01), 0x01)\n        /* \"#utility.yul\":178:210   */\n      swap1\n      swap2\n      and\n        /* \"#utility.yul\":160:211   */\n      dup2\n      mstore\n        /* \"#utility.yul\":148:150   */\n      0x20\n        /* \"#utility.yul\":133:151   */\n      add\n        /* \"contracts/token factory/testAlgebrav2.sol\":2230:2251  address public tokenA */\n      mload(0x40)\n      dup1\n      swap2\n      sub\n      swap1\n      return\n        /* \"contracts/token factory/testAlgebrav2.sol\":2257:2278  address public tokenB */\n    tag_3:\n      callvalue\n      dup1\n      iszero\n      tag_12\n      jumpi\n      0x00\n      dup1\n      revert\n    tag_12:\n      pop\n      sload(0x01)\n      tag_8\n      swap1\n      sub(shl(0xa0, 0x01), 0x01)\n      and\n      dup2\n      jump\n        /* \"contracts/token factory/testAlgebrav2.sol\":2321:2349  address public liquidityPool */\n    tag_4:\n      callvalue\n      dup1\n      iszero\n      tag_16\n      jumpi\n      0x00\n      dup1\n      revert\n    tag_16:\n      pop\n      sload(0x03)\n      tag_8\n      swap1\n      sub(shl(0xa0, 0x01), 0x01)\n      and\n      dup2\n      jump\n        /* \"contracts/token factory/testAlgebrav2.sol\":2839:3354  function createPoolAlgebra(uint160 _sqrtPriceX96, uint256 _sendNativeTRBTC) external payable {... */\n    tag_5:\n      tag_20\n      tag_21\n      calldatasize\n      0x04\n      tag_22\n      jump\t// in\n    tag_21:\n      tag_23\n      jump\t// in\n    tag_20:\n      stop\n        /* \"contracts/token factory/testAlgebrav2.sol\":2285:2314  address public algebraFactory */\n    tag_6:\n      callvalue\n      dup1\n      iszero\n      tag_24\n      jumpi\n      0x00\n      dup1\n      revert\n    tag_24:\n      pop\n      sload(0x02)\n      tag_8\n      swap1\n      sub(shl(0xa0, 0x01), 0x01)\n      and\n      dup2\n      jump\n        /* \"contracts/token factory/testAlgebrav2.sol\":2839:3354  function createPoolAlgebra(uint160 _sqrtPriceX96, uint256 _sendNativeTRBTC) external payable {... */\n    tag_23:\n        /* \"contracts/token factory/testAlgebrav2.sol\":2984:2998  algebraFactory */\n      sload(0x02)\n        /* \"contracts/token factory/testAlgebrav2.sol\":2942:2965  IAlgebraFactory factory */\n      0x00\n        /* \"contracts/token factory/testAlgebrav2.sol\":3145:3151  tokenA */\n      dup1\n      sload\n        /* \"contracts/token factory/testAlgebrav2.sol\":2984:2998  algebraFactory */\n      0x01\n        /* \"contracts/token factory/testAlgebrav2.sol\":3165:3171  tokenB */\n      sload\n        /* \"contracts/token factory/testAlgebrav2.sol\":3071:3308  factory.createAndInitializePoolIfNecessary{value: msg.value}(... */\n      mload(0x40)\n      shl(0xe0, 0xc00d4215)\n      dup2\n      mstore\n      sub(shl(0xa0, 0x01), 0x01)\n        /* \"contracts/token factory/testAlgebrav2.sol\":3145:3151  tokenA */\n      swap3\n      dup4\n      and\n        /* \"contracts/token factory/testAlgebrav2.sol\":3071:3308  factory.createAndInitializePoolIfNecessary{value: msg.value}(... */\n      0x04\n      dup3\n      add\n        /* \"#utility.yul\":937:988   */\n      mstore\n        /* \"contracts/token factory/testAlgebrav2.sol\":3165:3171  tokenB */\n      swap1\n      dup3\n      and\n        /* \"#utility.yul\":1004:1022   */\n      0x24\n      dup3\n      add\n        /* \"#utility.yul\":997:1057   */\n      mstore\n        /* \"#utility.yul\":1073:1091   */\n      0x44\n      dup2\n      add\n        /* \"#utility.yul\":1066:1126   */\n      dup4\n      swap1\n      mstore\n        /* \"#utility.yul\":1162:1194   */\n      dup6\n      dup3\n      and\n        /* \"#utility.yul\":1142:1160   */\n      0x64\n      dup3\n      add\n        /* \"#utility.yul\":1135:1195   */\n      mstore\n        /* \"#utility.yul\":1211:1230   */\n      0x84\n      dup2\n      add\n        /* \"#utility.yul\":1204:1239   */\n      dup6\n      swap1\n      mstore\n        /* \"contracts/token factory/testAlgebrav2.sol\":2984:2998  algebraFactory */\n      swap3\n      and\n      swap2\n      dup3\n      swap1\n        /* \"contracts/token factory/testAlgebrav2.sol\":3071:3113  factory.createAndInitializePoolIfNecessary */\n      0xc00d4215\n      swap1\n        /* \"contracts/token factory/testAlgebrav2.sol\":3121:3130  msg.value */\n      callvalue\n      swap1\n        /* \"#utility.yul\":909:928   */\n      0xa4\n      add\n        /* \"contracts/token factory/testAlgebrav2.sol\":3071:3308  factory.createAndInitializePoolIfNecessary{value: msg.value}(... */\n      0x20\n      mload(0x40)\n      dup1\n      dup4\n      sub\n      dup2\n      dup6\n      dup9\n      gas\n      call\n      iszero\n      dup1\n      iszero\n      tag_32\n      jumpi\n      returndatasize\n      0x00\n      dup1\n      returndatacopy\n      revert(0x00, returndatasize)\n    tag_32:\n      pop\n      pop\n      pop\n      pop\n      pop\n      mload(0x40)\n      returndatasize\n      not(0x1f)\n      0x1f\n      dup3\n      add\n      and\n      dup3\n      add\n      dup1\n      0x40\n      mstore\n      pop\n      dup2\n      add\n      swap1\n      tag_33\n      swap2\n      swap1\n      tag_34\n      jump\t// in\n    tag_33:\n        /* \"contracts/token factory/testAlgebrav2.sol\":3327:3340  liquidityPool */\n      0x03\n        /* \"contracts/token factory/testAlgebrav2.sol\":3327:3347  liquidityPool = pool */\n      dup1\n      sload\n      not(sub(shl(0xa0, 0x01), 0x01))\n      and\n      sub(shl(0xa0, 0x01), 0x01)\n      swap3\n      swap1\n      swap3\n      and\n      swap2\n      swap1\n      swap2\n      or\n      swap1\n      sstore\n      pop\n      pop\n      pop\n      pop\n        /* \"contracts/token factory/testAlgebrav2.sol\":2839:3354  function createPoolAlgebra(uint160 _sqrtPriceX96, uint256 _sendNativeTRBTC) external payable {... */\n      jump\t// out\n        /* \"#utility.yul\":222:353   */\n    tag_35:\n      sub(shl(0xa0, 0x01), 0x01)\n        /* \"#utility.yul\":297:328   */\n      dup2\n      and\n        /* \"#utility.yul\":287:329   */\n      dup2\n      eq\n        /* \"#utility.yul\":277:347   */\n      tag_39\n      jumpi\n        /* \"#utility.yul\":343:344   */\n      0x00\n        /* \"#utility.yul\":340:341   */\n      dup1\n        /* \"#utility.yul\":333:345   */\n      revert\n        /* \"#utility.yul\":277:347   */\n    tag_39:\n        /* \"#utility.yul\":222:353   */\n      pop\n      jump\t// out\n        /* \"#utility.yul\":358:673   */\n    tag_22:\n        /* \"#utility.yul\":426:432   */\n      0x00\n        /* \"#utility.yul\":434:440   */\n      dup1\n        /* \"#utility.yul\":487:489   */\n      0x40\n        /* \"#utility.yul\":475:484   */\n      dup4\n        /* \"#utility.yul\":466:473   */\n      dup6\n        /* \"#utility.yul\":462:485   */\n      sub\n        /* \"#utility.yul\":458:490   */\n      slt\n        /* \"#utility.yul\":455:507   */\n      iszero\n      tag_41\n      jumpi\n        /* \"#utility.yul\":503:504   */\n      0x00\n        /* \"#utility.yul\":500:501   */\n      dup1\n        /* \"#utility.yul\":493:505   */\n      revert\n        /* \"#utility.yul\":455:507   */\n    tag_41:\n        /* \"#utility.yul\":542:551   */\n      dup3\n        /* \"#utility.yul\":529:552   */\n      calldataload\n        /* \"#utility.yul\":561:592   */\n      tag_42\n        /* \"#utility.yul\":586:591   */\n      dup2\n        /* \"#utility.yul\":561:592   */\n      tag_35\n      jump\t// in\n    tag_42:\n        /* \"#utility.yul\":611:616   */\n      swap5\n        /* \"#utility.yul\":663:665   */\n      0x20\n        /* \"#utility.yul\":648:666   */\n      swap4\n      swap1\n      swap4\n      add\n        /* \"#utility.yul\":635:667   */\n      calldataload\n      swap4\n      pop\n      pop\n      pop\n        /* \"#utility.yul\":358:673   */\n      jump\t// out\n        /* \"#utility.yul\":1250:1501   */\n    tag_34:\n        /* \"#utility.yul\":1320:1326   */\n      0x00\n        /* \"#utility.yul\":1373:1375   */\n      0x20\n        /* \"#utility.yul\":1361:1370   */\n      dup3\n        /* \"#utility.yul\":1352:1359   */\n      dup5\n        /* \"#utility.yul\":1348:1371   */\n      sub\n        /* \"#utility.yul\":1344:1376   */\n      slt\n        /* \"#utility.yul\":1341:1393   */\n      iszero\n      tag_45\n      jumpi\n        /* \"#utility.yul\":1389:1390   */\n      0x00\n        /* \"#utility.yul\":1386:1387   */\n      dup1\n        /* \"#utility.yul\":1379:1391   */\n      revert\n        /* \"#utility.yul\":1341:1393   */\n    tag_45:\n        /* \"#utility.yul\":1421:1430   */\n      dup2\n        /* \"#utility.yul\":1415:1431   */\n      mload\n        /* \"#utility.yul\":1440:1471   */\n      tag_46\n        /* \"#utility.yul\":1465:1470   */\n      dup2\n        /* \"#utility.yul\":1440:1471   */\n      tag_35\n      jump\t// in\n    tag_46:\n        /* \"#utility.yul\":1490:1495   */\n      swap4\n        /* \"#utility.yul\":1250:1501   */\n      swap3\n      pop\n      pop\n      pop\n      jump\t// out\n\n    auxdata: 0xa2646970667358221220d2e35ac63339dcf61eea3bf033368d57d4c685dd6773436e55e43debb24065cc64736f6c634300081a0033\n}\n\nsub_1: assembly {\n        /* \"contracts/token factory/testAlgebrav2.sol\":405:2193  contract SimpleERC20 {... */\n      mstore(0x40, 0x80)\n        /* \"contracts/token factory/testAlgebrav2.sol\":482:508  uint8 public decimals = 18 */\n      0x02\n      dup1\n      sload\n      not(0xff)\n      and\n        /* \"contracts/token factory/testAlgebrav2.sol\":506:508  18 */\n      0x12\n        /* \"contracts/token factory/testAlgebrav2.sol\":482:508  uint8 public decimals = 18 */\n      or\n      swap1\n      sstore\n        /* \"contracts/token factory/testAlgebrav2.sol\":837:1061  constructor(... */\n      callvalue\n      dup1\n      iszero\n      tag_1\n      jumpi\n      0x00\n      dup1\n      revert\n    tag_1:\n      pop\n      mload(0x40)\n      sub(codesize, bytecodeSize)\n      dup1\n      bytecodeSize\n      dup4\n      codecopy\n      dup2\n      add\n      0x40\n      dup2\n      swap1\n      mstore\n      tag_2\n      swap2\n      tag_3\n      jump\t// in\n    tag_2:\n        /* \"contracts/token factory/testAlgebrav2.sol\":979:983  name */\n      0x00\n        /* \"contracts/token factory/testAlgebrav2.sol\":979:991  name = _name */\n      tag_6\n        /* \"contracts/token factory/testAlgebrav2.sol\":986:991  _name */\n      dup6\n        /* \"contracts/token factory/testAlgebrav2.sol\":979:983  name */\n      dup3\n        /* \"contracts/token factory/testAlgebrav2.sol\":979:991  name = _name */\n      tag_7\n      jump\t// in\n    tag_6:\n      pop\n        /* \"contracts/token factory/testAlgebrav2.sol\":1001:1007  symbol */\n      0x01\n        /* \"contracts/token factory/testAlgebrav2.sol\":1001:1017  symbol = _symbol */\n      tag_8\n        /* \"contracts/token factory/testAlgebrav2.sol\":1010:1017  _symbol */\n      dup5\n        /* \"contracts/token factory/testAlgebrav2.sol\":1001:1007  symbol */\n      dup3\n        /* \"contracts/token factory/testAlgebrav2.sol\":1001:1017  symbol = _symbol */\n      tag_7\n      jump\t// in\n    tag_8:\n      pop\n        /* \"contracts/token factory/testAlgebrav2.sol\":1027:1054  _mint(_owner, _initialMint) */\n      tag_9\n        /* \"contracts/token factory/testAlgebrav2.sol\":1033:1039  _owner */\n      dup2\n        /* \"contracts/token factory/testAlgebrav2.sol\":1041:1053  _initialMint */\n      dup4\n        /* \"contracts/token factory/testAlgebrav2.sol\":1027:1032  _mint */\n      tag_10\n        /* \"contracts/token factory/testAlgebrav2.sol\":1027:1054  _mint(_owner, _initialMint) */\n      jump\t// in\n    tag_9:\n        /* \"contracts/token factory/testAlgebrav2.sol\":837:1061  constructor(... */\n      pop\n      pop\n      pop\n      pop\n        /* \"contracts/token factory/testAlgebrav2.sol\":405:2193  contract SimpleERC20 {... */\n      jump(tag_24)\n        /* \"contracts/token factory/testAlgebrav2.sol\":1071:1241  function _mint(address to, uint256 amount) internal {... */\n    tag_10:\n        /* \"contracts/token factory/testAlgebrav2.sol\":1148:1154  amount */\n      dup1\n        /* \"contracts/token factory/testAlgebrav2.sol\":1133:1144  totalSupply */\n      0x03\n      0x00\n        /* \"contracts/token factory/testAlgebrav2.sol\":1133:1154  totalSupply += amount */\n      dup3\n      dup3\n      sload\n      tag_13\n      swap2\n      swap1\n      tag_14\n      jump\t// in\n    tag_13:\n      swap1\n      swap2\n      sstore\n      pop\n      pop\n      sub(shl(0xa0, 0x01), 0x01)\n        /* \"contracts/token factory/testAlgebrav2.sol\":1164:1177  balanceOf[to] */\n      dup3\n      and\n      0x00\n      swap1\n      dup2\n      mstore\n        /* \"contracts/token factory/testAlgebrav2.sol\":1164:1173  balanceOf */\n      0x04\n        /* \"contracts/token factory/testAlgebrav2.sol\":1164:1177  balanceOf[to] */\n      0x20\n      mstore\n      0x40\n      dup2\n      keccak256\n        /* \"contracts/token factory/testAlgebrav2.sol\":1164:1187  balanceOf[to] += amount */\n      dup1\n      sload\n        /* \"contracts/token factory/testAlgebrav2.sol\":1181:1187  amount */\n      dup4\n      swap3\n        /* \"contracts/token factory/testAlgebrav2.sol\":1164:1177  balanceOf[to] */\n      swap1\n        /* \"contracts/token factory/testAlgebrav2.sol\":1164:1187  balanceOf[to] += amount */\n      tag_15\n      swap1\n        /* \"contracts/token factory/testAlgebrav2.sol\":1181:1187  amount */\n      dup5\n      swap1\n        /* \"contracts/token factory/testAlgebrav2.sol\":1164:1187  balanceOf[to] += amount */\n      tag_14\n      jump\t// in\n    tag_15:\n      swap1\n      swap2\n      sstore\n      pop\n      pop\n        /* \"contracts/token factory/testAlgebrav2.sol\":1202:1234  Transfer(address(0), to, amount) */\n      mload(0x40)\n        /* \"#utility.yul\":4658:4683   */\n      dup2\n      dup2\n      mstore\n      sub(shl(0xa0, 0x01), 0x01)\n        /* \"contracts/token factory/testAlgebrav2.sol\":1202:1234  Transfer(address(0), to, amount) */\n      dup4\n      and\n      swap1\n        /* \"contracts/token factory/testAlgebrav2.sol\":1219:1220  0 */\n      0x00\n      swap1\n        /* \"contracts/token factory/testAlgebrav2.sol\":1202:1234  Transfer(address(0), to, amount) */\n      0xddf252ad1be2c89b69c2b068fc378daa952ba7f163c4a11628f55a4df523b3ef\n      swap1\n        /* \"#utility.yul\":4646:4648   */\n      0x20\n        /* \"#utility.yul\":4631:4649   */\n      add\n        /* \"contracts/token factory/testAlgebrav2.sol\":1202:1234  Transfer(address(0), to, amount) */\n      mload(0x40)\n      dup1\n      swap2\n      sub\n      swap1\n      log3\n        /* \"contracts/token factory/testAlgebrav2.sol\":1071:1241  function _mint(address to, uint256 amount) internal {... */\n      pop\n      pop\n      jump\t// out\n        /* \"#utility.yul\":14:141   */\n    tag_18:\n        /* \"#utility.yul\":75:85   */\n      0x4e487b71\n        /* \"#utility.yul\":70:73   */\n      0xe0\n        /* \"#utility.yul\":66:86   */\n      shl\n        /* \"#utility.yul\":63:64   */\n      0x00\n        /* \"#utility.yul\":56:87   */\n      mstore\n        /* \"#utility.yul\":106:110   */\n      0x41\n        /* \"#utility.yul\":103:104   */\n      0x04\n        /* \"#utility.yul\":96:111   */\n      mstore\n        /* \"#utility.yul\":130:134   */\n      0x24\n        /* \"#utility.yul\":127:128   */\n      0x00\n        /* \"#utility.yul\":120:135   */\n      revert\n        /* \"#utility.yul\":146:980   */\n    tag_19:\n        /* \"#utility.yul\":200:205   */\n      0x00\n        /* \"#utility.yul\":253:256   */\n      dup3\n        /* \"#utility.yul\":246:250   */\n      0x1f\n        /* \"#utility.yul\":238:244   */\n      dup4\n        /* \"#utility.yul\":234:251   */\n      add\n        /* \"#utility.yul\":230:257   */\n      slt\n        /* \"#utility.yul\":220:275   */\n      tag_27\n      jumpi\n        /* \"#utility.yul\":271:272   */\n      0x00\n        /* \"#utility.yul\":268:269   */\n      dup1\n        /* \"#utility.yul\":261:273   */\n      revert\n        /* \"#utility.yul\":220:275   */\n    tag_27:\n        /* \"#utility.yul\":298:311   */\n      dup2\n      mload\n      sub(shl(0x40, 0x01), 0x01)\n        /* \"#utility.yul\":323:353   */\n      dup2\n      gt\n        /* \"#utility.yul\":320:376   */\n      iszero\n      tag_29\n      jumpi\n        /* \"#utility.yul\":356:374   */\n      tag_29\n      tag_18\n      jump\t// in\n    tag_29:\n        /* \"#utility.yul\":405:407   */\n      0x40\n        /* \"#utility.yul\":399:408   */\n      mload\n        /* \"#utility.yul\":497:499   */\n      0x1f\n        /* \"#utility.yul\":459:476   */\n      dup3\n      add\n      not(0x1f)\n        /* \"#utility.yul\":455:486   */\n      swap1\n      dup2\n      and\n        /* \"#utility.yul\":488:490   */\n      0x3f\n        /* \"#utility.yul\":451:491   */\n      add\n        /* \"#utility.yul\":447:501   */\n      and\n        /* \"#utility.yul\":435:502   */\n      dup2\n      add\n      sub(shl(0x40, 0x01), 0x01)\n        /* \"#utility.yul\":517:551   */\n      dup2\n      gt\n        /* \"#utility.yul\":553:575   */\n      dup3\n      dup3\n      lt\n        /* \"#utility.yul\":514:576   */\n      or\n        /* \"#utility.yul\":511:599   */\n      iszero\n      tag_31\n      jumpi\n        /* \"#utility.yul\":579:597   */\n      tag_31\n      tag_18\n      jump\t// in\n    tag_31:\n        /* \"#utility.yul\":615:617   */\n      0x40\n        /* \"#utility.yul\":608:630   */\n      mstore\n        /* \"#utility.yul\":639:661   */\n      dup2\n      dup2\n      mstore\n        /* \"#utility.yul\":680:699   */\n      dup4\n      dup3\n      add\n        /* \"#utility.yul\":701:705   */\n      0x20\n        /* \"#utility.yul\":676:706   */\n      add\n        /* \"#utility.yul\":673:712   */\n      dup6\n      lt\n        /* \"#utility.yul\":670:729   */\n      iszero\n      tag_32\n      jumpi\n        /* \"#utility.yul\":725:726   */\n      0x00\n        /* \"#utility.yul\":722:723   */\n      dup1\n        /* \"#utility.yul\":715:727   */\n      revert\n        /* \"#utility.yul\":670:729   */\n    tag_32:\n        /* \"#utility.yul\":747:748   */\n      0x00\n        /* \"#utility.yul\":757:900   */\n    tag_33:\n        /* \"#utility.yul\":771:777   */\n      dup3\n        /* \"#utility.yul\":768:769   */\n      dup2\n        /* \"#utility.yul\":765:778   */\n      lt\n        /* \"#utility.yul\":757:900   */\n      iszero\n      tag_35\n      jumpi\n        /* \"#utility.yul\":883:887   */\n      0x20\n        /* \"#utility.yul\":867:881   */\n      dup2\n      dup7\n      add\n        /* \"#utility.yul\":863:888   */\n      dup2\n      add\n        /* \"#utility.yul\":857:889   */\n      mload\n        /* \"#utility.yul\":834:848   */\n      dup4\n      dup4\n      add\n        /* \"#utility.yul\":830:855   */\n      dup3\n      add\n        /* \"#utility.yul\":823:890   */\n      mstore\n        /* \"#utility.yul\":786:798   */\n      add\n        /* \"#utility.yul\":757:900   */\n      jump(tag_33)\n    tag_35:\n      pop\n        /* \"#utility.yul\":948:949   */\n      0x00\n        /* \"#utility.yul\":920:939   */\n      swap2\n      dup2\n      add\n        /* \"#utility.yul\":941:945   */\n      0x20\n        /* \"#utility.yul\":916:946   */\n      add\n        /* \"#utility.yul\":909:950   */\n      swap2\n      swap1\n      swap2\n      mstore\n        /* \"#utility.yul\":924:930   */\n      swap4\n        /* \"#utility.yul\":146:980   */\n      swap3\n      pop\n      pop\n      pop\n      jump\t// out\n        /* \"#utility.yul\":985:1771   */\n    tag_3:\n        /* \"#utility.yul\":1102:1108   */\n      0x00\n        /* \"#utility.yul\":1110:1116   */\n      dup1\n        /* \"#utility.yul\":1118:1124   */\n      0x00\n        /* \"#utility.yul\":1126:1132   */\n      dup1\n        /* \"#utility.yul\":1179:1182   */\n      0x80\n        /* \"#utility.yul\":1167:1176   */\n      dup6\n        /* \"#utility.yul\":1158:1165   */\n      dup8\n        /* \"#utility.yul\":1154:1177   */\n      sub\n        /* \"#utility.yul\":1150:1183   */\n      slt\n        /* \"#utility.yul\":1147:1200   */\n      iszero\n      tag_37\n      jumpi\n        /* \"#utility.yul\":1196:1197   */\n      0x00\n        /* \"#utility.yul\":1193:1194   */\n      dup1\n        /* \"#utility.yul\":1186:1198   */\n      revert\n        /* \"#utility.yul\":1147:1200   */\n    tag_37:\n        /* \"#utility.yul\":1223:1239   */\n      dup5\n      mload\n      sub(shl(0x40, 0x01), 0x01)\n        /* \"#utility.yul\":1251:1281   */\n      dup2\n      gt\n        /* \"#utility.yul\":1248:1298   */\n      iszero\n      tag_38\n      jumpi\n        /* \"#utility.yul\":1294:1295   */\n      0x00\n        /* \"#utility.yul\":1291:1292   */\n      dup1\n        /* \"#utility.yul\":1284:1296   */\n      revert\n        /* \"#utility.yul\":1248:1298   */\n    tag_38:\n        /* \"#utility.yul\":1317:1378   */\n      tag_39\n        /* \"#utility.yul\":1370:1377   */\n      dup8\n        /* \"#utility.yul\":1361:1367   */\n      dup3\n        /* \"#utility.yul\":1350:1359   */\n      dup9\n        /* \"#utility.yul\":1346:1368   */\n      add\n        /* \"#utility.yul\":1317:1378   */\n      tag_19\n      jump\t// in\n    tag_39:\n        /* \"#utility.yul\":1424:1426   */\n      0x20\n        /* \"#utility.yul\":1409:1427   */\n      dup8\n      add\n        /* \"#utility.yul\":1403:1428   */\n      mload\n        /* \"#utility.yul\":1307:1378   */\n      swap1\n      swap6\n      pop\n        /* \"#utility.yul\":1403:1428   */\n      swap1\n      pop\n      sub(shl(0x40, 0x01), 0x01)\n        /* \"#utility.yul\":1440:1472   */\n      dup2\n      gt\n        /* \"#utility.yul\":1437:1489   */\n      iszero\n      tag_40\n      jumpi\n        /* \"#utility.yul\":1485:1486   */\n      0x00\n        /* \"#utility.yul\":1482:1483   */\n      dup1\n        /* \"#utility.yul\":1475:1487   */\n      revert\n        /* \"#utility.yul\":1437:1489   */\n    tag_40:\n        /* \"#utility.yul\":1508:1571   */\n      tag_41\n        /* \"#utility.yul\":1563:1570   */\n      dup8\n        /* \"#utility.yul\":1552:1560   */\n      dup3\n        /* \"#utility.yul\":1541:1550   */\n      dup9\n        /* \"#utility.yul\":1537:1561   */\n      add\n        /* \"#utility.yul\":1508:1571   */\n      tag_19\n      jump\t// in\n    tag_41:\n        /* \"#utility.yul\":1611:1613   */\n      0x40\n        /* \"#utility.yul\":1596:1614   */\n      dup8\n      add\n        /* \"#utility.yul\":1590:1615   */\n      mload\n        /* \"#utility.yul\":1658:1660   */\n      0x60\n        /* \"#utility.yul\":1643:1661   */\n      dup9\n      add\n        /* \"#utility.yul\":1637:1662   */\n      mload\n        /* \"#utility.yul\":1498:1571   */\n      swap2\n      swap6\n      pop\n        /* \"#utility.yul\":1590:1615   */\n      swap4\n      pop\n        /* \"#utility.yul\":1637:1662   */\n      swap1\n      pop\n      sub(shl(0xa0, 0x01), 0x01)\n        /* \"#utility.yul\":1691:1722   */\n      dup2\n      and\n        /* \"#utility.yul\":1681:1723   */\n      dup2\n      eq\n        /* \"#utility.yul\":1671:1741   */\n      tag_42\n      jumpi\n        /* \"#utility.yul\":1737:1738   */\n      0x00\n        /* \"#utility.yul\":1734:1735   */\n      dup1\n        /* \"#utility.yul\":1727:1739   */\n      revert\n        /* \"#utility.yul\":1671:1741   */\n    tag_42:\n        /* \"#utility.yul\":985:1771   */\n      swap4\n      swap7\n      swap3\n      swap6\n      pop\n      swap1\n      swap4\n      pop\n      pop\n      jump\t// out\n        /* \"#utility.yul\":1776:2156   */\n    tag_20:\n        /* \"#utility.yul\":1855:1856   */\n      0x01\n        /* \"#utility.yul\":1851:1863   */\n      dup2\n      dup2\n      shr\n      swap1\n        /* \"#utility.yul\":1898:1910   */\n      dup3\n      and\n      dup1\n        /* \"#utility.yul\":1919:1980   */\n      tag_44\n      jumpi\n        /* \"#utility.yul\":1973:1977   */\n      0x7f\n        /* \"#utility.yul\":1965:1971   */\n      dup3\n        /* \"#utility.yul\":1961:1978   */\n      and\n        /* \"#utility.yul\":1951:1978   */\n      swap2\n      pop\n        /* \"#utility.yul\":1919:1980   */\n    tag_44:\n        /* \"#utility.yul\":2026:2028   */\n      0x20\n        /* \"#utility.yul\":2018:2024   */\n      dup3\n        /* \"#utility.yul\":2015:2029   */\n      lt\n        /* \"#utility.yul\":1995:2013   */\n      dup2\n        /* \"#utility.yul\":1992:2030   */\n      sub\n        /* \"#utility.yul\":1989:2150   */\n      tag_45\n      jumpi\n        /* \"#utility.yul\":2072:2082   */\n      0x4e487b71\n        /* \"#utility.yul\":2067:2070   */\n      0xe0\n        /* \"#utility.yul\":2063:2083   */\n      shl\n        /* \"#utility.yul\":2060:2061   */\n      0x00\n        /* \"#utility.yul\":2053:2084   */\n      mstore\n        /* \"#utility.yul\":2107:2111   */\n      0x22\n        /* \"#utility.yul\":2104:2105   */\n      0x04\n        /* \"#utility.yul\":2097:2112   */\n      mstore\n        /* \"#utility.yul\":2135:2139   */\n      0x24\n        /* \"#utility.yul\":2132:2133   */\n      0x00\n        /* \"#utility.yul\":2125:2140   */\n      revert\n        /* \"#utility.yul\":1989:2150   */\n    tag_45:\n      pop\n        /* \"#utility.yul\":1776:2156   */\n      swap2\n      swap1\n      pop\n      jump\t// out\n        /* \"#utility.yul\":2287:2805   */\n    tag_22:\n        /* \"#utility.yul\":2389:2391   */\n      0x1f\n        /* \"#utility.yul\":2384:2387   */\n      dup3\n        /* \"#utility.yul\":2381:2392   */\n      gt\n        /* \"#utility.yul\":2378:2799   */\n      iszero\n      tag_48\n      jumpi\n        /* \"#utility.yul\":2425:2430   */\n      dup1\n        /* \"#utility.yul\":2422:2423   */\n      0x00\n        /* \"#utility.yul\":2415:2431   */\n      mstore\n        /* \"#utility.yul\":2469:2473   */\n      0x20\n        /* \"#utility.yul\":2466:2467   */\n      0x00\n        /* \"#utility.yul\":2456:2474   */\n      keccak256\n        /* \"#utility.yul\":2539:2541   */\n      0x1f\n        /* \"#utility.yul\":2527:2537   */\n      dup5\n        /* \"#utility.yul\":2523:2542   */\n      add\n        /* \"#utility.yul\":2520:2521   */\n      0x05\n        /* \"#utility.yul\":2516:2543   */\n      shr\n        /* \"#utility.yul\":2510:2514   */\n      dup2\n        /* \"#utility.yul\":2506:2544   */\n      add\n        /* \"#utility.yul\":2575:2579   */\n      0x20\n        /* \"#utility.yul\":2563:2573   */\n      dup6\n        /* \"#utility.yul\":2560:2580   */\n      lt\n        /* \"#utility.yul\":2557:2604   */\n      iszero\n      tag_49\n      jumpi\n      pop\n        /* \"#utility.yul\":2598:2602   */\n      dup1\n        /* \"#utility.yul\":2557:2604   */\n    tag_49:\n        /* \"#utility.yul\":2653:2655   */\n      0x1f\n        /* \"#utility.yul\":2648:2651   */\n      dup5\n        /* \"#utility.yul\":2644:2656   */\n      add\n        /* \"#utility.yul\":2641:2642   */\n      0x05\n        /* \"#utility.yul\":2637:2657   */\n      shr\n        /* \"#utility.yul\":2631:2635   */\n      dup3\n        /* \"#utility.yul\":2627:2658   */\n      add\n        /* \"#utility.yul\":2617:2658   */\n      swap2\n      pop\n        /* \"#utility.yul\":2708:2789   */\n    tag_50:\n        /* \"#utility.yul\":2726:2728   */\n      dup2\n        /* \"#utility.yul\":2719:2724   */\n      dup2\n        /* \"#utility.yul\":2716:2729   */\n      lt\n        /* \"#utility.yul\":2708:2789   */\n      iszero\n      tag_52\n      jumpi\n        /* \"#utility.yul\":2785:2786   */\n      0x00\n        /* \"#utility.yul\":2771:2787   */\n      dup2\n      sstore\n        /* \"#utility.yul\":2752:2753   */\n      0x01\n        /* \"#utility.yul\":2741:2754   */\n      add\n        /* \"#utility.yul\":2708:2789   */\n      jump(tag_50)\n    tag_52:\n        /* \"#utility.yul\":2712:2715   */\n      pop\n      pop\n        /* \"#utility.yul\":2378:2799   */\n    tag_48:\n        /* \"#utility.yul\":2287:2805   */\n      pop\n      pop\n      pop\n      jump\t// out\n        /* \"#utility.yul\":2981:4280   */\n    tag_7:\n        /* \"#utility.yul\":3101:3111   */\n      dup2\n      mload\n      sub(shl(0x40, 0x01), 0x01)\n        /* \"#utility.yul\":3123:3153   */\n      dup2\n      gt\n        /* \"#utility.yul\":3120:3176   */\n      iszero\n      tag_56\n      jumpi\n        /* \"#utility.yul\":3156:3174   */\n      tag_56\n      tag_18\n      jump\t// in\n    tag_56:\n        /* \"#utility.yul\":3185:3282   */\n      tag_57\n        /* \"#utility.yul\":3275:3281   */\n      dup2\n        /* \"#utility.yul\":3235:3273   */\n      tag_58\n        /* \"#utility.yul\":3267:3271   */\n      dup5\n        /* \"#utility.yul\":3261:3272   */\n      sload\n        /* \"#utility.yul\":3235:3273   */\n      tag_20\n      jump\t// in\n    tag_58:\n        /* \"#utility.yul\":3229:3233   */\n      dup5\n        /* \"#utility.yul\":3185:3282   */\n      tag_22\n      jump\t// in\n    tag_57:\n        /* \"#utility.yul\":3331:3335   */\n      0x20\n        /* \"#utility.yul\":3362:3364   */\n      0x1f\n        /* \"#utility.yul\":3351:3365   */\n      dup3\n      gt\n        /* \"#utility.yul\":3379:3380   */\n      0x01\n        /* \"#utility.yul\":3374:4023   */\n      dup2\n      eq\n      tag_60\n      jumpi\n        /* \"#utility.yul\":4067:4068   */\n      0x00\n        /* \"#utility.yul\":4084:4090   */\n      dup4\n        /* \"#utility.yul\":4081:4170   */\n      iszero\n      tag_61\n      jumpi\n      pop\n        /* \"#utility.yul\":4136:4155   */\n      dup5\n      dup3\n      add\n        /* \"#utility.yul\":4130:4156   */\n      mload\n        /* \"#utility.yul\":4081:4170   */\n    tag_61:\n      not(0x00)\n        /* \"#utility.yul\":2938:2939   */\n      0x03\n        /* \"#utility.yul\":2934:2945   */\n      dup6\n      swap1\n      shl\n        /* \"#utility.yul\":2930:2954   */\n      shr\n        /* \"#utility.yul\":2926:2955   */\n      not\n        /* \"#utility.yul\":2916:2956   */\n      and\n        /* \"#utility.yul\":2962:2963   */\n      0x01\n        /* \"#utility.yul\":2958:2969   */\n      dup5\n      swap1\n      shl\n        /* \"#utility.yul\":2913:2970   */\n      or\n        /* \"#utility.yul\":4183:4264   */\n      dup5\n      sstore\n        /* \"#utility.yul\":3344:4274   */\n      jump(tag_52)\n        /* \"#utility.yul\":3374:4023   */\n    tag_60:\n        /* \"#utility.yul\":2234:2235   */\n      0x00\n        /* \"#utility.yul\":2227:2241   */\n      dup5\n      dup2\n      mstore\n        /* \"#utility.yul\":2271:2275   */\n      0x20\n        /* \"#utility.yul\":2258:2276   */\n      dup2\n      keccak256\n      not(0x1f)\n        /* \"#utility.yul\":3410:3430   */\n      dup6\n      and\n      swap2\n        /* \"#utility.yul\":3528:3750   */\n    tag_64:\n        /* \"#utility.yul\":3542:3549   */\n      dup3\n        /* \"#utility.yul\":3539:3540   */\n      dup2\n        /* \"#utility.yul\":3536:3550   */\n      lt\n        /* \"#utility.yul\":3528:3750   */\n      iszero\n      tag_66\n      jumpi\n        /* \"#utility.yul\":3624:3643   */\n      dup8\n      dup6\n      add\n        /* \"#utility.yul\":3618:3644   */\n      mload\n        /* \"#utility.yul\":3603:3645   */\n      dup3\n      sstore\n        /* \"#utility.yul\":3731:3735   */\n      0x20\n        /* \"#utility.yul\":3716:3736   */\n      swap5\n      dup6\n      add\n      swap5\n        /* \"#utility.yul\":3684:3685   */\n      0x01\n        /* \"#utility.yul\":3672:3686   */\n      swap1\n      swap3\n      add\n      swap2\n        /* \"#utility.yul\":3558:3570   */\n      add\n        /* \"#utility.yul\":3528:3750   */\n      jump(tag_64)\n    tag_66:\n        /* \"#utility.yul\":3532:3535   */\n      pop\n        /* \"#utility.yul\":3778:3784   */\n      dup5\n        /* \"#utility.yul\":3769:3776   */\n      dup3\n        /* \"#utility.yul\":3766:3785   */\n      lt\n        /* \"#utility.yul\":3763:3964   */\n      iszero\n      tag_67\n      jumpi\n        /* \"#utility.yul\":3839:3858   */\n      dup7\n      dup5\n      add\n        /* \"#utility.yul\":3833:3859   */\n      mload\n      not(0x00)\n        /* \"#utility.yul\":3922:3923   */\n      0x03\n        /* \"#utility.yul\":3918:3932   */\n      dup8\n      swap1\n      shl\n        /* \"#utility.yul\":3934:3937   */\n      0xf8\n        /* \"#utility.yul\":3914:3938   */\n      and\n        /* \"#utility.yul\":3910:3947   */\n      shr\n        /* \"#utility.yul\":3906:3948   */\n      not\n        /* \"#utility.yul\":3891:3949   */\n      and\n        /* \"#utility.yul\":3876:3950   */\n      dup2\n      sstore\n        /* \"#utility.yul\":3763:3964   */\n    tag_67:\n      pop\n      pop\n      pop\n      pop\n        /* \"#utility.yul\":4010:4011   */\n      0x01\n        /* \"#utility.yul\":3994:4008   */\n      swap1\n      dup2\n      shl\n        /* \"#utility.yul\":3990:4012   */\n      add\n        /* \"#utility.yul\":3977:4013   */\n      swap1\n      sstore\n      pop\n        /* \"#utility.yul\":2981:4280   */\n      jump\t// out\n        /* \"#utility.yul\":4285:4507   */\n    tag_14:\n        /* \"#utility.yul\":4350:4359   */\n      dup1\n      dup3\n      add\n        /* \"#utility.yul\":4371:4381   */\n      dup1\n      dup3\n      gt\n        /* \"#utility.yul\":4368:4501   */\n      iszero\n      tag_69\n      jumpi\n        /* \"#utility.yul\":4423:4433   */\n      0x4e487b71\n        /* \"#utility.yul\":4418:4421   */\n      0xe0\n        /* \"#utility.yul\":4414:4434   */\n      shl\n        /* \"#utility.yul\":4411:4412   */\n      0x00\n        /* \"#utility.yul\":4404:4435   */\n      mstore\n        /* \"#utility.yul\":4458:4462   */\n      0x11\n        /* \"#utility.yul\":4455:4456   */\n      0x04\n        /* \"#utility.yul\":4448:4463   */\n      mstore\n        /* \"#utility.yul\":4486:4490   */\n      0x24\n        /* \"#utility.yul\":4483:4484   */\n      0x00\n        /* \"#utility.yul\":4476:4491   */\n      revert\n        /* \"#utility.yul\":4368:4501   */\n    tag_69:\n        /* \"#utility.yul\":4285:4507   */\n      swap3\n      swap2\n      pop\n      pop\n      jump\t// out\n        /* \"#utility.yul\":4512:4689   */\n    tag_24:\n        /* \"contracts/token factory/testAlgebrav2.sol\":405:2193  contract SimpleERC20 {... */\n      dataSize(sub_0)\n      dup1\n      dataOffset(sub_0)\n      0x00\n      codecopy\n      0x00\n      return\n    stop\n\n    sub_0: assembly {\n            /* \"contracts/token factory/testAlgebrav2.sol\":405:2193  contract SimpleERC20 {... */\n          mstore(0x40, 0x80)\n          callvalue\n          dup1\n          iszero\n          tag_1\n          jumpi\n          0x00\n          dup1\n          revert\n        tag_1:\n          pop\n          jumpi(tag_2, lt(calldatasize, 0x04))\n          shr(0xe0, calldataload(0x00))\n          dup1\n          0x313ce567\n          gt\n          tag_12\n          jumpi\n          dup1\n          0x313ce567\n          eq\n          tag_7\n          jumpi\n          dup1\n          0x70a08231\n          eq\n          tag_8\n          jumpi\n          dup1\n          0x95d89b41\n          eq\n          tag_9\n          jumpi\n          dup1\n          0xa9059cbb\n          eq\n          tag_10\n          jumpi\n          dup1\n          0xdd62ed3e\n          eq\n          tag_11\n          jumpi\n          0x00\n          dup1\n          revert\n        tag_12:\n          dup1\n          0x06fdde03\n          eq\n          tag_3\n          jumpi\n          dup1\n          0x095ea7b3\n          eq\n          tag_4\n          jumpi\n          dup1\n          0x18160ddd\n          eq\n          tag_5\n          jumpi\n          dup1\n          0x23b872dd\n          eq\n          tag_6\n          jumpi\n        tag_2:\n          0x00\n          dup1\n          revert\n            /* \"contracts/token factory/testAlgebrav2.sol\":432:450  string public name */\n        tag_3:\n          tag_13\n          tag_14\n          jump\t// in\n        tag_13:\n          mload(0x40)\n          tag_15\n          swap2\n          swap1\n          tag_16\n          jump\t// in\n        tag_15:\n          mload(0x40)\n          dup1\n          swap2\n          sub\n          swap1\n          return\n            /* \"contracts/token factory/testAlgebrav2.sol\":1552:1755  function approve(address spender, uint256 amount) external returns (bool) {... */\n        tag_4:\n          tag_17\n          tag_18\n          calldatasize\n          0x04\n          tag_19\n          jump\t// in\n        tag_18:\n          tag_20\n          jump\t// in\n        tag_17:\n          mload(0x40)\n            /* \"#utility.yul\":1194:1208   */\n          swap1\n          iszero\n            /* \"#utility.yul\":1187:1209   */\n          iszero\n            /* \"#utility.yul\":1169:1210   */\n          dup2\n          mstore\n            /* \"#utility.yul\":1157:1159   */\n          0x20\n            /* \"#utility.yul\":1142:1160   */\n          add\n            /* \"contracts/token factory/testAlgebrav2.sol\":1552:1755  function approve(address spender, uint256 amount) external returns (bool) {... */\n          tag_15\n            /* \"#utility.yul\":1029:1216   */\n          jump\n            /* \"contracts/token factory/testAlgebrav2.sol\":514:540  uint256 public totalSupply */\n        tag_5:\n          tag_23\n          sload(0x03)\n          dup2\n          jump\n        tag_23:\n          mload(0x40)\n            /* \"#utility.yul\":1367:1392   */\n          swap1\n          dup2\n          mstore\n            /* \"#utility.yul\":1355:1357   */\n          0x20\n            /* \"#utility.yul\":1340:1358   */\n          add\n            /* \"contracts/token factory/testAlgebrav2.sol\":514:540  uint256 public totalSupply */\n          tag_15\n            /* \"#utility.yul\":1221:1398   */\n          jump\n            /* \"contracts/token factory/testAlgebrav2.sol\":1765:2191  function transferFrom(address from, address to, uint256 amount) external returns (bool) {... */\n        tag_6:\n          tag_17\n          tag_28\n          calldatasize\n          0x04\n          tag_29\n          jump\t// in\n        tag_28:\n          tag_30\n          jump\t// in\n            /* \"contracts/token factory/testAlgebrav2.sol\":482:508  uint8 public decimals = 18 */\n        tag_7:\n          sload(0x02)\n          tag_32\n          swap1\n          0xff\n          and\n          dup2\n          jump\n        tag_32:\n          mload(0x40)\n            /* \"#utility.yul\":1954:1958   */\n          0xff\n            /* \"#utility.yul\":1942:1959   */\n          swap1\n          swap2\n          and\n            /* \"#utility.yul\":1924:1960   */\n          dup2\n          mstore\n            /* \"#utility.yul\":1912:1914   */\n          0x20\n            /* \"#utility.yul\":1897:1915   */\n          add\n            /* \"contracts/token factory/testAlgebrav2.sol\":482:508  uint8 public decimals = 18 */\n          tag_15\n            /* \"#utility.yul\":1782:1966   */\n          jump\n            /* \"contracts/token factory/testAlgebrav2.sol\":551:595  mapping(address => uint256) public balanceOf */\n        tag_8:\n          tag_23\n          tag_37\n          calldatasize\n          0x04\n          tag_38\n          jump\t// in\n        tag_37:\n          mstore(0x20, 0x04)\n          0x00\n          swap1\n          dup2\n          mstore\n          0x40\n          swap1\n          keccak256\n          sload\n          dup2\n          jump\n            /* \"contracts/token factory/testAlgebrav2.sol\":456:476  string public symbol */\n        tag_9:\n          tag_13\n          tag_42\n          jump\t// in\n            /* \"contracts/token factory/testAlgebrav2.sol\":1247:1542  function transfer(address to, uint256 amount) external returns (bool) {... */\n        tag_10:\n          tag_17\n          tag_45\n          calldatasize\n          0x04\n          tag_19\n          jump\t// in\n        tag_45:\n          tag_46\n          jump\t// in\n            /* \"contracts/token factory/testAlgebrav2.sol\":601:665  mapping(address => mapping(address => uint256)) public allowance */\n        tag_11:\n          tag_23\n          tag_49\n          calldatasize\n          0x04\n          tag_50\n          jump\t// in\n        tag_49:\n          0x05\n          0x20\n          swap1\n          dup2\n          mstore\n          0x00\n          swap3\n          dup4\n          mstore\n          0x40\n          dup1\n          dup5\n          keccak256\n          swap1\n          swap2\n          mstore\n          swap1\n          dup3\n          mstore\n          swap1\n          keccak256\n          sload\n          dup2\n          jump\n            /* \"contracts/token factory/testAlgebrav2.sol\":432:450  string public name */\n        tag_14:\n          0x00\n          dup1\n          sload\n          tag_53\n          swap1\n          tag_54\n          jump\t// in\n        tag_53:\n          dup1\n          0x1f\n          add\n          0x20\n          dup1\n          swap2\n          div\n          mul\n          0x20\n          add\n          mload(0x40)\n          swap1\n          dup2\n          add\n          0x40\n          mstore\n          dup1\n          swap3\n          swap2\n          swap1\n          dup2\n          dup2\n          mstore\n          0x20\n          add\n          dup3\n          dup1\n          sload\n          tag_55\n          swap1\n          tag_54\n          jump\t// in\n        tag_55:\n          dup1\n          iszero\n          tag_56\n          jumpi\n          dup1\n          0x1f\n          lt\n          tag_57\n          jumpi\n          0x0100\n          dup1\n          dup4\n          sload\n          div\n          mul\n          dup4\n          mstore\n          swap2\n          0x20\n          add\n          swap2\n          jump(tag_56)\n        tag_57:\n          dup3\n          add\n          swap2\n          swap1\n          0x00\n          mstore\n          keccak256(0x00, 0x20)\n          swap1\n        tag_58:\n          dup2\n          sload\n          dup2\n          mstore\n          swap1\n          0x01\n          add\n          swap1\n          0x20\n          add\n          dup1\n          dup4\n          gt\n          tag_58\n          jumpi\n          dup3\n          swap1\n          sub\n          0x1f\n          and\n          dup3\n          add\n          swap2\n        tag_56:\n          pop\n          pop\n          pop\n          pop\n          pop\n          dup2\n          jump\t// out\n            /* \"contracts/token factory/testAlgebrav2.sol\":1552:1755  function approve(address spender, uint256 amount) external returns (bool) {... */\n        tag_20:\n            /* \"contracts/token factory/testAlgebrav2.sol\":1646:1656  msg.sender */\n          caller\n            /* \"contracts/token factory/testAlgebrav2.sol\":1620:1624  bool */\n          0x00\n            /* \"contracts/token factory/testAlgebrav2.sol\":1636:1657  allowance[msg.sender] */\n          dup2\n          dup2\n          mstore\n            /* \"contracts/token factory/testAlgebrav2.sol\":1636:1645  allowance */\n          0x05\n            /* \"contracts/token factory/testAlgebrav2.sol\":1636:1657  allowance[msg.sender] */\n          0x20\n          swap1\n          dup2\n          mstore\n          0x40\n          dup1\n          dup4\n          keccak256\n          sub(shl(0xa0, 0x01), 0x01)\n            /* \"contracts/token factory/testAlgebrav2.sol\":1636:1666  allowance[msg.sender][spender] */\n          dup8\n          and\n          dup1\n          dup6\n          mstore\n          swap3\n          mstore\n          dup1\n          dup4\n          keccak256\n            /* \"contracts/token factory/testAlgebrav2.sol\":1636:1675  allowance[msg.sender][spender] = amount */\n          dup6\n          swap1\n          sstore\n            /* \"contracts/token factory/testAlgebrav2.sol\":1690:1727  Approval(msg.sender, spender, amount) */\n          mload\n            /* \"contracts/token factory/testAlgebrav2.sol\":1620:1624  bool */\n          swap2\n          swap3\n            /* \"contracts/token factory/testAlgebrav2.sol\":1636:1666  allowance[msg.sender][spender] */\n          swap1\n          swap2\n            /* \"contracts/token factory/testAlgebrav2.sol\":1690:1727  Approval(msg.sender, spender, amount) */\n          0x8c5be1e5ebec7d5bd14f71427d1e84f3dd0314c0f7b2291e5b200ac8c7c3b925\n          swap1\n          tag_60\n          swap1\n            /* \"contracts/token factory/testAlgebrav2.sol\":1669:1675  amount */\n          dup7\n            /* \"#utility.yul\":1367:1392   */\n          dup2\n          mstore\n            /* \"#utility.yul\":1355:1357   */\n          0x20\n            /* \"#utility.yul\":1340:1358   */\n          add\n          swap1\n            /* \"#utility.yul\":1221:1398   */\n          jump\n            /* \"contracts/token factory/testAlgebrav2.sol\":1690:1727  Approval(msg.sender, spender, amount) */\n        tag_60:\n          mload(0x40)\n          dup1\n          swap2\n          sub\n          swap1\n          log3\n          pop\n            /* \"contracts/token factory/testAlgebrav2.sol\":1744:1748  true */\n          0x01\n            /* \"contracts/token factory/testAlgebrav2.sol\":1552:1755  function approve(address spender, uint256 amount) external returns (bool) {... */\n        tag_59:\n          swap3\n          swap2\n          pop\n          pop\n          jump\t// out\n            /* \"contracts/token factory/testAlgebrav2.sol\":1765:2191  function transferFrom(address from, address to, uint256 amount) external returns (bool) {... */\n        tag_30:\n          sub(shl(0xa0, 0x01), 0x01)\n            /* \"contracts/token factory/testAlgebrav2.sol\":1871:1886  balanceOf[from] */\n          dup4\n          and\n            /* \"contracts/token factory/testAlgebrav2.sol\":1847:1851  bool */\n          0x00\n            /* \"contracts/token factory/testAlgebrav2.sol\":1871:1886  balanceOf[from] */\n          swap1\n          dup2\n          mstore\n            /* \"contracts/token factory/testAlgebrav2.sol\":1871:1880  balanceOf */\n          0x04\n            /* \"contracts/token factory/testAlgebrav2.sol\":1871:1886  balanceOf[from] */\n          0x20\n          mstore\n          0x40\n          dup2\n          keccak256\n          sload\n            /* \"contracts/token factory/testAlgebrav2.sol\":1871:1896  balanceOf[from] >= amount */\n          dup3\n          gt\n          iszero\n            /* \"contracts/token factory/testAlgebrav2.sol\":1863:1923  require(balanceOf[from] >= amount, \"ERC20: balance too low\") */\n          tag_62\n          jumpi\n          mload(0x40)\n          shl(0xe5, 0x461bcd)\n          dup2\n          mstore\n            /* \"#utility.yul\":3014:3016   */\n          0x20\n            /* \"contracts/token factory/testAlgebrav2.sol\":1863:1923  require(balanceOf[from] >= amount, \"ERC20: balance too low\") */\n          0x04\n          dup3\n          add\n            /* \"#utility.yul\":2996:3017   */\n          mstore\n            /* \"#utility.yul\":3053:3055   */\n          0x16\n            /* \"#utility.yul\":3033:3051   */\n          0x24\n          dup3\n          add\n            /* \"#utility.yul\":3026:3056   */\n          mstore\n          shl(0x50, 0x45524332303a2062616c616e636520746f6f206c6f77)\n            /* \"#utility.yul\":3072:3090   */\n          0x44\n          dup3\n          add\n            /* \"#utility.yul\":3065:3117   */\n          mstore\n            /* \"#utility.yul\":3134:3152   */\n          0x64\n          add\n            /* \"contracts/token factory/testAlgebrav2.sol\":1863:1923  require(balanceOf[from] >= amount, \"ERC20: balance too low\") */\n        tag_63:\n          mload(0x40)\n          dup1\n          swap2\n          sub\n          swap1\n          revert\n        tag_62:\n          sub(shl(0xa0, 0x01), 0x01)\n            /* \"contracts/token factory/testAlgebrav2.sol\":1941:1956  allowance[from] */\n          dup5\n          and\n          0x00\n          swap1\n          dup2\n          mstore\n            /* \"contracts/token factory/testAlgebrav2.sol\":1941:1950  allowance */\n          0x05\n            /* \"contracts/token factory/testAlgebrav2.sol\":1941:1956  allowance[from] */\n          0x20\n          swap1\n          dup2\n          mstore\n          0x40\n          dup1\n          dup4\n          keccak256\n            /* \"contracts/token factory/testAlgebrav2.sol\":1957:1967  msg.sender */\n          caller\n            /* \"contracts/token factory/testAlgebrav2.sol\":1941:1968  allowance[from][msg.sender] */\n          dup5\n          mstore\n          swap1\n          swap2\n          mstore\n          swap1\n          keccak256\n          sload\n            /* \"contracts/token factory/testAlgebrav2.sol\":1941:1978  allowance[from][msg.sender] >= amount */\n          dup3\n          gt\n          iszero\n            /* \"contracts/token factory/testAlgebrav2.sol\":1933:2007  require(allowance[from][msg.sender] >= amount, \"ERC20: allowance too low\") */\n          tag_65\n          jumpi\n          mload(0x40)\n          shl(0xe5, 0x461bcd)\n          dup2\n          mstore\n            /* \"#utility.yul\":3365:3367   */\n          0x20\n            /* \"contracts/token factory/testAlgebrav2.sol\":1933:2007  require(allowance[from][msg.sender] >= amount, \"ERC20: allowance too low\") */\n          0x04\n          dup3\n          add\n            /* \"#utility.yul\":3347:3368   */\n          mstore\n            /* \"#utility.yul\":3404:3406   */\n          0x18\n            /* \"#utility.yul\":3384:3402   */\n          0x24\n          dup3\n          add\n            /* \"#utility.yul\":3377:3407   */\n          mstore\n            /* \"#utility.yul\":3443:3469   */\n          0x45524332303a20616c6c6f77616e636520746f6f206c6f770000000000000000\n            /* \"#utility.yul\":3423:3441   */\n          0x44\n          dup3\n          add\n            /* \"#utility.yul\":3416:3470   */\n          mstore\n            /* \"#utility.yul\":3487:3505   */\n          0x64\n          add\n            /* \"contracts/token factory/testAlgebrav2.sol\":1933:2007  require(allowance[from][msg.sender] >= amount, \"ERC20: allowance too low\") */\n          tag_63\n            /* \"#utility.yul\":3163:3511   */\n          jump\n            /* \"contracts/token factory/testAlgebrav2.sol\":1933:2007  require(allowance[from][msg.sender] >= amount, \"ERC20: allowance too low\") */\n        tag_65:\n          sub(shl(0xa0, 0x01), 0x01)\n            /* \"contracts/token factory/testAlgebrav2.sol\":2017:2032  balanceOf[from] */\n          dup5\n          and\n          0x00\n          swap1\n          dup2\n          mstore\n            /* \"contracts/token factory/testAlgebrav2.sol\":2017:2026  balanceOf */\n          0x04\n            /* \"contracts/token factory/testAlgebrav2.sol\":2017:2032  balanceOf[from] */\n          0x20\n          mstore\n          0x40\n          dup2\n          keccak256\n            /* \"contracts/token factory/testAlgebrav2.sol\":2017:2042  balanceOf[from] -= amount */\n          dup1\n          sload\n            /* \"contracts/token factory/testAlgebrav2.sol\":2036:2042  amount */\n          dup5\n          swap3\n            /* \"contracts/token factory/testAlgebrav2.sol\":2017:2032  balanceOf[from] */\n          swap1\n            /* \"contracts/token factory/testAlgebrav2.sol\":2017:2042  balanceOf[from] -= amount */\n          tag_68\n          swap1\n            /* \"contracts/token factory/testAlgebrav2.sol\":2036:2042  amount */\n          dup5\n          swap1\n            /* \"contracts/token factory/testAlgebrav2.sol\":2017:2042  balanceOf[from] -= amount */\n          tag_69\n          jump\t// in\n        tag_68:\n          swap1\n          swap2\n          sstore\n          pop\n          pop\n          sub(shl(0xa0, 0x01), 0x01)\n            /* \"contracts/token factory/testAlgebrav2.sol\":2052:2067  allowance[from] */\n          dup5\n          and\n          0x00\n          swap1\n          dup2\n          mstore\n            /* \"contracts/token factory/testAlgebrav2.sol\":2052:2061  allowance */\n          0x05\n            /* \"contracts/token factory/testAlgebrav2.sol\":2052:2067  allowance[from] */\n          0x20\n          swap1\n          dup2\n          mstore\n          0x40\n          dup1\n          dup4\n          keccak256\n            /* \"contracts/token factory/testAlgebrav2.sol\":2068:2078  msg.sender */\n          caller\n            /* \"contracts/token factory/testAlgebrav2.sol\":2052:2079  allowance[from][msg.sender] */\n          dup5\n          mstore\n          swap1\n          swap2\n          mstore\n          dup2\n          keccak256\n            /* \"contracts/token factory/testAlgebrav2.sol\":2052:2089  allowance[from][msg.sender] -= amount */\n          dup1\n          sload\n            /* \"contracts/token factory/testAlgebrav2.sol\":2083:2089  amount */\n          dup5\n          swap3\n            /* \"contracts/token factory/testAlgebrav2.sol\":2052:2067  allowance[from] */\n          swap1\n            /* \"contracts/token factory/testAlgebrav2.sol\":2052:2089  allowance[from][msg.sender] -= amount */\n          tag_70\n          swap1\n            /* \"contracts/token factory/testAlgebrav2.sol\":2083:2089  amount */\n          dup5\n          swap1\n            /* \"contracts/token factory/testAlgebrav2.sol\":2052:2089  allowance[from][msg.sender] -= amount */\n          tag_69\n          jump\t// in\n        tag_70:\n          swap1\n          swap2\n          sstore\n          pop\n          pop\n          sub(shl(0xa0, 0x01), 0x01)\n            /* \"contracts/token factory/testAlgebrav2.sol\":2099:2112  balanceOf[to] */\n          dup4\n          and\n          0x00\n          swap1\n          dup2\n          mstore\n            /* \"contracts/token factory/testAlgebrav2.sol\":2099:2108  balanceOf */\n          0x04\n            /* \"contracts/token factory/testAlgebrav2.sol\":2099:2112  balanceOf[to] */\n          0x20\n          mstore\n          0x40\n          dup2\n          keccak256\n            /* \"contracts/token factory/testAlgebrav2.sol\":2099:2122  balanceOf[to] += amount */\n          dup1\n          sload\n            /* \"contracts/token factory/testAlgebrav2.sol\":2116:2122  amount */\n          dup5\n          swap3\n            /* \"contracts/token factory/testAlgebrav2.sol\":2099:2112  balanceOf[to] */\n          swap1\n            /* \"contracts/token factory/testAlgebrav2.sol\":2099:2122  balanceOf[to] += amount */\n          tag_71\n          swap1\n            /* \"contracts/token factory/testAlgebrav2.sol\":2116:2122  amount */\n          dup5\n          swap1\n            /* \"contracts/token factory/testAlgebrav2.sol\":2099:2122  balanceOf[to] += amount */\n          tag_72\n          jump\t// in\n        tag_71:\n          swap3\n          pop\n          pop\n          dup2\n          swap1\n          sstore\n          pop\n            /* \"contracts/token factory/testAlgebrav2.sol\":2152:2154  to */\n          dup3\n          sub(shl(0xa0, 0x01), 0x01)\n            /* \"contracts/token factory/testAlgebrav2.sol\":2137:2163  Transfer(from, to, amount) */\n          and\n            /* \"contracts/token factory/testAlgebrav2.sol\":2146:2150  from */\n          dup5\n          sub(shl(0xa0, 0x01), 0x01)\n            /* \"contracts/token factory/testAlgebrav2.sol\":2137:2163  Transfer(from, to, amount) */\n          and\n          0xddf252ad1be2c89b69c2b068fc378daa952ba7f163c4a11628f55a4df523b3ef\n            /* \"contracts/token factory/testAlgebrav2.sol\":2156:2162  amount */\n          dup5\n            /* \"contracts/token factory/testAlgebrav2.sol\":2137:2163  Transfer(from, to, amount) */\n          mload(0x40)\n          tag_73\n          swap2\n            /* \"#utility.yul\":1367:1392   */\n          dup2\n          mstore\n            /* \"#utility.yul\":1355:1357   */\n          0x20\n            /* \"#utility.yul\":1340:1358   */\n          add\n          swap1\n            /* \"#utility.yul\":1221:1398   */\n          jump\n            /* \"contracts/token factory/testAlgebrav2.sol\":2137:2163  Transfer(from, to, amount) */\n        tag_73:\n          mload(0x40)\n          dup1\n          swap2\n          sub\n          swap1\n          log3\n          pop\n            /* \"contracts/token factory/testAlgebrav2.sol\":2180:2184  true */\n          0x01\n            /* \"contracts/token factory/testAlgebrav2.sol\":1765:2191  function transferFrom(address from, address to, uint256 amount) external returns (bool) {... */\n          swap4\n          swap3\n          pop\n          pop\n          pop\n          jump\t// out\n            /* \"contracts/token factory/testAlgebrav2.sol\":456:476  string public symbol */\n        tag_42:\n          0x01\n          dup1\n          sload\n          tag_53\n          swap1\n          tag_54\n          jump\t// in\n            /* \"contracts/token factory/testAlgebrav2.sol\":1247:1542  function transfer(address to, uint256 amount) external returns (bool) {... */\n        tag_46:\n            /* \"contracts/token factory/testAlgebrav2.sol\":1345:1355  msg.sender */\n          caller\n            /* \"contracts/token factory/testAlgebrav2.sol\":1311:1315  bool */\n          0x00\n            /* \"contracts/token factory/testAlgebrav2.sol\":1335:1356  balanceOf[msg.sender] */\n          swap1\n          dup2\n          mstore\n            /* \"contracts/token factory/testAlgebrav2.sol\":1335:1344  balanceOf */\n          0x04\n            /* \"contracts/token factory/testAlgebrav2.sol\":1335:1356  balanceOf[msg.sender] */\n          0x20\n          mstore\n          0x40\n          dup2\n          keccak256\n          sload\n            /* \"contracts/token factory/testAlgebrav2.sol\":1335:1366  balanceOf[msg.sender] >= amount */\n          dup3\n          gt\n          iszero\n            /* \"contracts/token factory/testAlgebrav2.sol\":1327:1393  require(balanceOf[msg.sender] >= amount, \"ERC20: balance too low\") */\n          tag_80\n          jumpi\n          mload(0x40)\n          shl(0xe5, 0x461bcd)\n          dup2\n          mstore\n            /* \"#utility.yul\":3014:3016   */\n          0x20\n            /* \"contracts/token factory/testAlgebrav2.sol\":1327:1393  require(balanceOf[msg.sender] >= amount, \"ERC20: balance too low\") */\n          0x04\n          dup3\n          add\n            /* \"#utility.yul\":2996:3017   */\n          mstore\n            /* \"#utility.yul\":3053:3055   */\n          0x16\n            /* \"#utility.yul\":3033:3051   */\n          0x24\n          dup3\n          add\n            /* \"#utility.yul\":3026:3056   */\n          mstore\n          shl(0x50, 0x45524332303a2062616c616e636520746f6f206c6f77)\n            /* \"#utility.yul\":3072:3090   */\n          0x44\n          dup3\n          add\n            /* \"#utility.yul\":3065:3117   */\n          mstore\n            /* \"#utility.yul\":3134:3152   */\n          0x64\n          add\n            /* \"contracts/token factory/testAlgebrav2.sol\":1327:1393  require(balanceOf[msg.sender] >= amount, \"ERC20: balance too low\") */\n          tag_63\n            /* \"#utility.yul\":2812:3158   */\n          jump\n            /* \"contracts/token factory/testAlgebrav2.sol\":1327:1393  require(balanceOf[msg.sender] >= amount, \"ERC20: balance too low\") */\n        tag_80:\n            /* \"contracts/token factory/testAlgebrav2.sol\":1413:1423  msg.sender */\n          caller\n            /* \"contracts/token factory/testAlgebrav2.sol\":1403:1424  balanceOf[msg.sender] */\n          0x00\n          swap1\n          dup2\n          mstore\n            /* \"contracts/token factory/testAlgebrav2.sol\":1403:1412  balanceOf */\n          0x04\n            /* \"contracts/token factory/testAlgebrav2.sol\":1403:1424  balanceOf[msg.sender] */\n          0x20\n          mstore\n          0x40\n          dup2\n          keccak256\n            /* \"contracts/token factory/testAlgebrav2.sol\":1403:1434  balanceOf[msg.sender] -= amount */\n          dup1\n          sload\n            /* \"contracts/token factory/testAlgebrav2.sol\":1428:1434  amount */\n          dup5\n          swap3\n            /* \"contracts/token factory/testAlgebrav2.sol\":1403:1424  balanceOf[msg.sender] */\n          swap1\n            /* \"contracts/token factory/testAlgebrav2.sol\":1403:1434  balanceOf[msg.sender] -= amount */\n          tag_82\n          swap1\n            /* \"contracts/token factory/testAlgebrav2.sol\":1428:1434  amount */\n          dup5\n          swap1\n            /* \"contracts/token factory/testAlgebrav2.sol\":1403:1434  balanceOf[msg.sender] -= amount */\n          tag_69\n          jump\t// in\n        tag_82:\n          swap1\n          swap2\n          sstore\n          pop\n          pop\n          sub(shl(0xa0, 0x01), 0x01)\n            /* \"contracts/token factory/testAlgebrav2.sol\":1444:1457  balanceOf[to] */\n          dup4\n          and\n          0x00\n          swap1\n          dup2\n          mstore\n            /* \"contracts/token factory/testAlgebrav2.sol\":1444:1453  balanceOf */\n          0x04\n            /* \"contracts/token factory/testAlgebrav2.sol\":1444:1457  balanceOf[to] */\n          0x20\n          mstore\n          0x40\n          dup2\n          keccak256\n            /* \"contracts/token factory/testAlgebrav2.sol\":1444:1467  balanceOf[to] += amount */\n          dup1\n          sload\n            /* \"contracts/token factory/testAlgebrav2.sol\":1461:1467  amount */\n          dup5\n          swap3\n            /* \"contracts/token factory/testAlgebrav2.sol\":1444:1457  balanceOf[to] */\n          swap1\n            /* \"contracts/token factory/testAlgebrav2.sol\":1444:1467  balanceOf[to] += amount */\n          tag_83\n          swap1\n            /* \"contracts/token factory/testAlgebrav2.sol\":1461:1467  amount */\n          dup5\n          swap1\n            /* \"contracts/token factory/testAlgebrav2.sol\":1444:1467  balanceOf[to] += amount */\n          tag_72\n          jump\t// in\n        tag_83:\n          swap1\n          swap2\n          sstore\n          pop\n          pop\n            /* \"contracts/token factory/testAlgebrav2.sol\":1482:1514  Transfer(msg.sender, to, amount) */\n          mload(0x40)\n            /* \"#utility.yul\":1367:1392   */\n          dup3\n          dup2\n          mstore\n          sub(shl(0xa0, 0x01), 0x01)\n            /* \"contracts/token factory/testAlgebrav2.sol\":1482:1514  Transfer(msg.sender, to, amount) */\n          dup5\n          and\n          swap1\n            /* \"contracts/token factory/testAlgebrav2.sol\":1491:1501  msg.sender */\n          caller\n          swap1\n            /* \"contracts/token factory/testAlgebrav2.sol\":1482:1514  Transfer(msg.sender, to, amount) */\n          0xddf252ad1be2c89b69c2b068fc378daa952ba7f163c4a11628f55a4df523b3ef\n          swap1\n            /* \"#utility.yul\":1355:1357   */\n          0x20\n            /* \"#utility.yul\":1340:1358   */\n          add\n            /* \"contracts/token factory/testAlgebrav2.sol\":1482:1514  Transfer(msg.sender, to, amount) */\n          tag_60\n            /* \"#utility.yul\":1221:1398   */\n          jump\n            /* \"#utility.yul\":14:541   */\n        tag_16:\n            /* \"#utility.yul\":163:165   */\n          0x20\n            /* \"#utility.yul\":152:161   */\n          dup2\n            /* \"#utility.yul\":145:166   */\n          mstore\n            /* \"#utility.yul\":126:130   */\n          0x00\n            /* \"#utility.yul\":195:201   */\n          dup3\n            /* \"#utility.yul\":189:202   */\n          mload\n            /* \"#utility.yul\":238:244   */\n          dup1\n            /* \"#utility.yul\":233:235   */\n          0x20\n            /* \"#utility.yul\":222:231   */\n          dup5\n            /* \"#utility.yul\":218:236   */\n          add\n            /* \"#utility.yul\":211:245   */\n          mstore\n            /* \"#utility.yul\":263:264   */\n          0x00\n            /* \"#utility.yul\":273:413   */\n        tag_89:\n            /* \"#utility.yul\":287:293   */\n          dup2\n            /* \"#utility.yul\":284:285   */\n          dup2\n            /* \"#utility.yul\":281:294   */\n          lt\n            /* \"#utility.yul\":273:413   */\n          iszero\n          tag_91\n          jumpi\n            /* \"#utility.yul\":398:400   */\n          0x20\n            /* \"#utility.yul\":382:396   */\n          dup2\n          dup7\n          add\n            /* \"#utility.yul\":378:401   */\n          dup2\n          add\n            /* \"#utility.yul\":372:402   */\n          mload\n            /* \"#utility.yul\":367:369   */\n          0x40\n            /* \"#utility.yul\":348:365   */\n          dup7\n          dup5\n          add\n            /* \"#utility.yul\":344:370   */\n          add\n            /* \"#utility.yul\":337:403   */\n          mstore\n            /* \"#utility.yul\":302:312   */\n          add\n            /* \"#utility.yul\":273:413   */\n          jump(tag_89)\n        tag_91:\n            /* \"#utility.yul\":277:280   */\n          pop\n            /* \"#utility.yul\":462:463   */\n          0x00\n            /* \"#utility.yul\":457:459   */\n          0x40\n            /* \"#utility.yul\":448:454   */\n          dup3\n            /* \"#utility.yul\":437:446   */\n          dup6\n            /* \"#utility.yul\":433:455   */\n          add\n            /* \"#utility.yul\":429:460   */\n          add\n            /* \"#utility.yul\":422:464   */\n          mstore\n            /* \"#utility.yul\":532:534   */\n          0x40\n            /* \"#utility.yul\":525:527   */\n          0x1f\n            /* \"#utility.yul\":521:528   */\n          not\n            /* \"#utility.yul\":516:518   */\n          0x1f\n            /* \"#utility.yul\":508:514   */\n          dup4\n            /* \"#utility.yul\":504:519   */\n          add\n            /* \"#utility.yul\":500:529   */\n          and\n            /* \"#utility.yul\":489:498   */\n          dup5\n            /* \"#utility.yul\":485:530   */\n          add\n            /* \"#utility.yul\":481:535   */\n          add\n            /* \"#utility.yul\":473:535   */\n          swap2\n          pop\n          pop\n            /* \"#utility.yul\":14:541   */\n          swap3\n          swap2\n          pop\n          pop\n          jump\t// out\n            /* \"#utility.yul\":546:719   */\n        tag_85:\n            /* \"#utility.yul\":614:634   */\n          dup1\n          calldataload\n          sub(shl(0xa0, 0x01), 0x01)\n            /* \"#utility.yul\":663:694   */\n          dup2\n          and\n            /* \"#utility.yul\":653:695   */\n          dup2\n          eq\n            /* \"#utility.yul\":643:713   */\n          tag_93\n          jumpi\n            /* \"#utility.yul\":709:710   */\n          0x00\n            /* \"#utility.yul\":706:707   */\n          dup1\n            /* \"#utility.yul\":699:711   */\n          revert\n            /* \"#utility.yul\":643:713   */\n        tag_93:\n            /* \"#utility.yul\":546:719   */\n          swap2\n          swap1\n          pop\n          jump\t// out\n            /* \"#utility.yul\":724:1024   */\n        tag_19:\n            /* \"#utility.yul\":792:798   */\n          0x00\n            /* \"#utility.yul\":800:806   */\n          dup1\n            /* \"#utility.yul\":853:855   */\n          0x40\n            /* \"#utility.yul\":841:850   */\n          dup4\n            /* \"#utility.yul\":832:839   */\n          dup6\n            /* \"#utility.yul\":828:851   */\n          sub\n            /* \"#utility.yul\":824:856   */\n          slt\n            /* \"#utility.yul\":821:873   */\n          iszero\n          tag_95\n          jumpi\n            /* \"#utility.yul\":869:870   */\n          0x00\n            /* \"#utility.yul\":866:867   */\n          dup1\n            /* \"#utility.yul\":859:871   */\n          revert\n            /* \"#utility.yul\":821:873   */\n        tag_95:\n            /* \"#utility.yul\":892:921   */\n          tag_96\n            /* \"#utility.yul\":911:920   */\n          dup4\n            /* \"#utility.yul\":892:921   */\n          tag_85\n          jump\t// in\n        tag_96:\n            /* \"#utility.yul\":882:921   */\n          swap5\n            /* \"#utility.yul\":990:992   */\n          0x20\n            /* \"#utility.yul\":975:993   */\n          swap4\n          swap1\n          swap4\n          add\n            /* \"#utility.yul\":962:994   */\n          calldataload\n          swap4\n          pop\n          pop\n          pop\n            /* \"#utility.yul\":724:1024   */\n          jump\t// out\n            /* \"#utility.yul\":1403:1777   */\n        tag_29:\n            /* \"#utility.yul\":1480:1486   */\n          0x00\n            /* \"#utility.yul\":1488:1494   */\n          dup1\n            /* \"#utility.yul\":1496:1502   */\n          0x00\n            /* \"#utility.yul\":1549:1551   */\n          0x60\n            /* \"#utility.yul\":1537:1546   */\n          dup5\n            /* \"#utility.yul\":1528:1535   */\n          dup7\n            /* \"#utility.yul\":1524:1547   */\n          sub\n            /* \"#utility.yul\":1520:1552   */\n          slt\n            /* \"#utility.yul\":1517:1569   */\n          iszero\n          tag_100\n          jumpi\n            /* \"#utility.yul\":1565:1566   */\n          0x00\n            /* \"#utility.yul\":1562:1563   */\n          dup1\n            /* \"#utility.yul\":1555:1567   */\n          revert\n            /* \"#utility.yul\":1517:1569   */\n        tag_100:\n            /* \"#utility.yul\":1588:1617   */\n          tag_101\n            /* \"#utility.yul\":1607:1616   */\n          dup5\n            /* \"#utility.yul\":1588:1617   */\n          tag_85\n          jump\t// in\n        tag_101:\n            /* \"#utility.yul\":1578:1617   */\n          swap3\n          pop\n            /* \"#utility.yul\":1636:1674   */\n          tag_102\n            /* \"#utility.yul\":1670:1672   */\n          0x20\n            /* \"#utility.yul\":1659:1668   */\n          dup6\n            /* \"#utility.yul\":1655:1673   */\n          add\n            /* \"#utility.yul\":1636:1674   */\n          tag_85\n          jump\t// in\n        tag_102:\n            /* \"#utility.yul\":1403:1777   */\n          swap3\n          swap6\n            /* \"#utility.yul\":1626:1674   */\n          swap3\n          swap5\n          pop\n          pop\n          pop\n            /* \"#utility.yul\":1743:1745   */\n          0x40\n            /* \"#utility.yul\":1728:1746   */\n          swap2\n          swap1\n          swap2\n          add\n            /* \"#utility.yul\":1715:1747   */\n          calldataload\n          swap1\n            /* \"#utility.yul\":1403:1777   */\n          jump\t// out\n            /* \"#utility.yul\":1971:2157   */\n        tag_38:\n            /* \"#utility.yul\":2030:2036   */\n          0x00\n            /* \"#utility.yul\":2083:2085   */\n          0x20\n            /* \"#utility.yul\":2071:2080   */\n          dup3\n            /* \"#utility.yul\":2062:2069   */\n          dup5\n            /* \"#utility.yul\":2058:2081   */\n          sub\n            /* \"#utility.yul\":2054:2086   */\n          slt\n            /* \"#utility.yul\":2051:2103   */\n          iszero\n          tag_105\n          jumpi\n            /* \"#utility.yul\":2099:2100   */\n          0x00\n            /* \"#utility.yul\":2096:2097   */\n          dup1\n            /* \"#utility.yul\":2089:2101   */\n          revert\n            /* \"#utility.yul\":2051:2103   */\n        tag_105:\n            /* \"#utility.yul\":2122:2151   */\n          tag_106\n            /* \"#utility.yul\":2141:2150   */\n          dup3\n            /* \"#utility.yul\":2122:2151   */\n          tag_85\n          jump\t// in\n        tag_106:\n            /* \"#utility.yul\":2112:2151   */\n          swap4\n            /* \"#utility.yul\":1971:2157   */\n          swap3\n          pop\n          pop\n          pop\n          jump\t// out\n            /* \"#utility.yul\":2162:2422   */\n        tag_50:\n            /* \"#utility.yul\":2230:2236   */\n          0x00\n            /* \"#utility.yul\":2238:2244   */\n          dup1\n            /* \"#utility.yul\":2291:2293   */\n          0x40\n            /* \"#utility.yul\":2279:2288   */\n          dup4\n            /* \"#utility.yul\":2270:2277   */\n          dup6\n            /* \"#utility.yul\":2266:2289   */\n          sub\n            /* \"#utility.yul\":2262:2294   */\n          slt\n            /* \"#utility.yul\":2259:2311   */\n          iszero\n          tag_108\n          jumpi\n            /* \"#utility.yul\":2307:2308   */\n          0x00\n            /* \"#utility.yul\":2304:2305   */\n          dup1\n            /* \"#utility.yul\":2297:2309   */\n          revert\n            /* \"#utility.yul\":2259:2311   */\n        tag_108:\n            /* \"#utility.yul\":2330:2359   */\n          tag_109\n            /* \"#utility.yul\":2349:2358   */\n          dup4\n            /* \"#utility.yul\":2330:2359   */\n          tag_85\n          jump\t// in\n        tag_109:\n            /* \"#utility.yul\":2320:2359   */\n          swap2\n          pop\n            /* \"#utility.yul\":2378:2416   */\n          tag_110\n            /* \"#utility.yul\":2412:2414   */\n          0x20\n            /* \"#utility.yul\":2401:2410   */\n          dup5\n            /* \"#utility.yul\":2397:2415   */\n          add\n            /* \"#utility.yul\":2378:2416   */\n          tag_85\n          jump\t// in\n        tag_110:\n            /* \"#utility.yul\":2368:2416   */\n          swap1\n          pop\n            /* \"#utility.yul\":2162:2422   */\n          swap3\n          pop\n          swap3\n          swap1\n          pop\n          jump\t// out\n            /* \"#utility.yul\":2427:2807   */\n        tag_54:\n            /* \"#utility.yul\":2506:2507   */\n          0x01\n            /* \"#utility.yul\":2502:2514   */\n          dup2\n          dup2\n          shr\n          swap1\n            /* \"#utility.yul\":2549:2561   */\n          dup3\n          and\n          dup1\n            /* \"#utility.yul\":2570:2631   */\n          tag_112\n          jumpi\n            /* \"#utility.yul\":2624:2628   */\n          0x7f\n            /* \"#utility.yul\":2616:2622   */\n          dup3\n            /* \"#utility.yul\":2612:2629   */\n          and\n            /* \"#utility.yul\":2602:2629   */\n          swap2\n          pop\n            /* \"#utility.yul\":2570:2631   */\n        tag_112:\n            /* \"#utility.yul\":2677:2679   */\n          0x20\n            /* \"#utility.yul\":2669:2675   */\n          dup3\n            /* \"#utility.yul\":2666:2680   */\n          lt\n            /* \"#utility.yul\":2646:2664   */\n          dup2\n            /* \"#utility.yul\":2643:2681   */\n          sub\n            /* \"#utility.yul\":2640:2801   */\n          tag_113\n          jumpi\n            /* \"#utility.yul\":2723:2733   */\n          0x4e487b71\n            /* \"#utility.yul\":2718:2721   */\n          0xe0\n            /* \"#utility.yul\":2714:2734   */\n          shl\n            /* \"#utility.yul\":2711:2712   */\n          0x00\n            /* \"#utility.yul\":2704:2735   */\n          mstore\n            /* \"#utility.yul\":2758:2762   */\n          0x22\n            /* \"#utility.yul\":2755:2756   */\n          0x04\n            /* \"#utility.yul\":2748:2763   */\n          mstore\n            /* \"#utility.yul\":2786:2790   */\n          0x24\n            /* \"#utility.yul\":2783:2784   */\n          0x00\n            /* \"#utility.yul\":2776:2791   */\n          revert\n            /* \"#utility.yul\":2640:2801   */\n        tag_113:\n          pop\n            /* \"#utility.yul\":2427:2807   */\n          swap2\n          swap1\n          pop\n          jump\t// out\n            /* \"#utility.yul\":3516:3643   */\n        tag_86:\n            /* \"#utility.yul\":3577:3587   */\n          0x4e487b71\n            /* \"#utility.yul\":3572:3575   */\n          0xe0\n            /* \"#utility.yul\":3568:3588   */\n          shl\n            /* \"#utility.yul\":3565:3566   */\n          0x00\n            /* \"#utility.yul\":3558:3589   */\n          mstore\n            /* \"#utility.yul\":3608:3612   */\n          0x11\n            /* \"#utility.yul\":3605:3606   */\n          0x04\n            /* \"#utility.yul\":3598:3613   */\n          mstore\n            /* \"#utility.yul\":3632:3636   */\n          0x24\n            /* \"#utility.yul\":3629:3630   */\n          0x00\n            /* \"#utility.yul\":3622:3637   */\n          revert\n            /* \"#utility.yul\":3648:3776   */\n        tag_69:\n            /* \"#utility.yul\":3715:3724   */\n          dup2\n          dup2\n          sub\n            /* \"#utility.yul\":3736:3747   */\n          dup2\n          dup2\n          gt\n            /* \"#utility.yul\":3733:3770   */\n          iszero\n          tag_59\n          jumpi\n            /* \"#utility.yul\":3750:3768   */\n          tag_59\n          tag_86\n          jump\t// in\n            /* \"#utility.yul\":3781:3906   */\n        tag_72:\n            /* \"#utility.yul\":3846:3855   */\n          dup1\n          dup3\n          add\n            /* \"#utility.yul\":3867:3877   */\n          dup1\n          dup3\n          gt\n            /* \"#utility.yul\":3864:3900   */\n          iszero\n          tag_59\n          jumpi\n            /* \"#utility.yul\":3880:3898   */\n          tag_59\n          tag_86\n          jump\t// in\n\n        auxdata: 0xa2646970667358221220653247fb282a6c2b9c1b486b1882b306022efb41c705f9fdf4e357103e520f2964736f6c634300081a0033\n    }\n}\n",
				"bytecode": {
					"linkReferences": {},
					"object": "608060405234801561001057600080fd5b50604051610eff380380610eff83398101604081905261002f9161019d565b600280546001600160a01b0319166001600160a01b038316179055604051600090683635c9adc5dea0000090339061006690610190565b608080825260079082015266546f6b656e204160c81b60a082015260c06020820181905260039082015262544b4160e81b60e082015260408101929092526001600160a01b0316606082015261010001604051809103906000f0801580156100d2573d6000803e3d6000fd5b5090506000683635c9adc5dea00000336040516100ee90610190565b6080808252600790820152662a37b5b2b7102160c91b60a082015260c060208201819052600390820152622a25a160e91b60e082015260408101929092526001600160a01b0316606082015261010001604051809103906000f08015801561015a573d6000803e3d6000fd5b50600080546001600160a01b039485166001600160a01b0319918216179091556001805492909416911617909155506101cd9050565b610ac78061043883390190565b6000602082840312156101af57600080fd5b81516001600160a01b03811681146101c657600080fd5b9392505050565b61025c806101dc6000396000f3fe60806040526004361061004a5760003560e01c80630fc63d101461004f5780635f64b55b1461008b578063665a11ca146100ab578063983761e3146100cb578063a7b64b04146100e0575b600080fd5b34801561005b57600080fd5b5060005461006f906001600160a01b031681565b6040516001600160a01b03909116815260200160405180910390f35b34801561009757600080fd5b5060015461006f906001600160a01b031681565b3480156100b757600080fd5b5060035461006f906001600160a01b031681565b6100de6100d93660046101d6565b610100565b005b3480156100ec57600080fd5b5060025461006f906001600160a01b031681565b6002546000805460015460405163c00d421560e01b81526001600160a01b039283166004820152908216602482015260448101839052858216606482015260848101859052921691829063c00d421590349060a40160206040518083038185885af1158015610173573d6000803e3d6000fd5b50505050506040513d601f19601f820116820180604052508101906101989190610202565b600380546001600160a01b0319166001600160a01b039290921691909117905550505050565b6001600160a01b03811681146101d357600080fd5b50565b600080604083850312156101e957600080fd5b82356101f4816101be565b946020939093013593505050565b60006020828403121561021457600080fd5b815161021f816101be565b939250505056fea2646970667358221220d2e35ac63339dcf61eea3bf033368d57d4c685dd6773436e55e43debb24065cc64736f6c634300081a003360806040526002805460ff1916601217905534801561001d57600080fd5b50604051610ac7380380610ac783398101604081905261003c916101ab565b600061004885826102c7565b50600161005584826102c7565b506100608183610069565b505050506103ac565b806003600082825461007b9190610385565b90915550506001600160a01b038216600090815260046020526040812080548392906100a8908490610385565b90915550506040518181526001600160a01b038316906000907fddf252ad1be2c89b69c2b068fc378daa952ba7f163c4a11628f55a4df523b3ef9060200160405180910390a35050565b634e487b7160e01b600052604160045260246000fd5b600082601f83011261011957600080fd5b81516001600160401b03811115610132576101326100f2565b604051601f8201601f19908116603f011681016001600160401b0381118282101715610160576101606100f2565b60405281815283820160200185101561017857600080fd5b60005b828110156101975760208186018101518383018201520161017b565b506000918101602001919091529392505050565b600080600080608085870312156101c157600080fd5b84516001600160401b038111156101d757600080fd5b6101e387828801610108565b602087015190955090506001600160401b0381111561020157600080fd5b61020d87828801610108565b60408701516060880151919550935090506001600160a01b038116811461023357600080fd5b939692955090935050565b600181811c9082168061025257607f821691505b60208210810361027257634e487b7160e01b600052602260045260246000fd5b50919050565b601f8211156102c257806000526020600020601f840160051c8101602085101561029f5750805b601f840160051c820191505b818110156102bf57600081556001016102ab565b50505b505050565b81516001600160401b038111156102e0576102e06100f2565b6102f4816102ee845461023e565b84610278565b6020601f82116001811461032857600083156103105750848201515b600019600385901b1c1916600184901b1784556102bf565b600084815260208120601f198516915b828110156103585787850151825560209485019460019092019101610338565b50848210156103765786840151600019600387901b60f8161c191681555b50505050600190811b01905550565b808201808211156103a657634e487b7160e01b600052601160045260246000fd5b92915050565b61070c806103bb6000396000f3fe608060405234801561001057600080fd5b50600436106100935760003560e01c8063313ce56711610066578063313ce5671461010357806370a082311461012257806395d89b4114610142578063a9059cbb1461014a578063dd62ed3e1461015d57600080fd5b806306fdde0314610098578063095ea7b3146100b657806318160ddd146100d957806323b872dd146100f0575b600080fd5b6100a0610188565b6040516100ad919061053a565b60405180910390f35b6100c96100c43660046105a4565b610216565b60405190151581526020016100ad565b6100e260035481565b6040519081526020016100ad565b6100c96100fe3660046105ce565b610283565b6002546101109060ff1681565b60405160ff90911681526020016100ad565b6100e261013036600461060b565b60046020526000908152604090205481565b6100a0610447565b6100c96101583660046105a4565b610454565b6100e261016b36600461062d565b600560209081526000928352604080842090915290825290205481565b6000805461019590610660565b80601f01602080910402602001604051908101604052809291908181526020018280546101c190610660565b801561020e5780601f106101e35761010080835404028352916020019161020e565b820191906000526020600020905b8154815290600101906020018083116101f157829003601f168201915b505050505081565b3360008181526005602090815260408083206001600160a01b038716808552925280832085905551919290917f8c5be1e5ebec7d5bd14f71427d1e84f3dd0314c0f7b2291e5b200ac8c7c3b925906102719086815260200190565b60405180910390a35060015b92915050565b6001600160a01b0383166000908152600460205260408120548211156102e95760405162461bcd60e51b815260206004820152601660248201527545524332303a2062616c616e636520746f6f206c6f7760501b60448201526064015b60405180910390fd5b6001600160a01b038416600090815260056020908152604080832033845290915290205482111561035c5760405162461bcd60e51b815260206004820152601860248201527f45524332303a20616c6c6f77616e636520746f6f206c6f77000000000000000060448201526064016102e0565b6001600160a01b038416600090815260046020526040812080548492906103849084906106b0565b90915550506001600160a01b0384166000908152600560209081526040808320338452909152812080548492906103bc9084906106b0565b90915550506001600160a01b038316600090815260046020526040812080548492906103e99084906106c3565b92505081905550826001600160a01b0316846001600160a01b03167fddf252ad1be2c89b69c2b068fc378daa952ba7f163c4a11628f55a4df523b3ef8460405161043591815260200190565b60405180910390a35060019392505050565b6001805461019590610660565b336000908152600460205260408120548211156104ac5760405162461bcd60e51b815260206004820152601660248201527545524332303a2062616c616e636520746f6f206c6f7760501b60448201526064016102e0565b33600090815260046020526040812080548492906104cb9084906106b0565b90915550506001600160a01b038316600090815260046020526040812080548492906104f89084906106c3565b90915550506040518281526001600160a01b0384169033907fddf252ad1be2c89b69c2b068fc378daa952ba7f163c4a11628f55a4df523b3ef90602001610271565b602081526000825180602084015260005b81811015610568576020818601810151604086840101520161054b565b506000604082850101526040601f19601f83011684010191505092915050565b80356001600160a01b038116811461059f57600080fd5b919050565b600080604083850312156105b757600080fd5b6105c083610588565b946020939093013593505050565b6000806000606084860312156105e357600080fd5b6105ec84610588565b92506105fa60208501610588565b929592945050506040919091013590565b60006020828403121561061d57600080fd5b61062682610588565b9392505050565b6000806040838503121561064057600080fd5b61064983610588565b915061065760208401610588565b90509250929050565b600181811c9082168061067457607f821691505b60208210810361069457634e487b7160e01b600052602260045260246000fd5b50919050565b634e487b7160e01b600052601160045260246000fd5b8181038181111561027d5761027d61069a565b8082018082111561027d5761027d61069a56fea2646970667358221220653247fb282a6c2b9c1b486b1882b306022efb41c705f9fdf4e357103e520f2964736f6c634300081a0033",
					"opcodes": "PUSH1 0x80 PUSH1 0x40 MSTORE CALLVALUE DUP1 ISZERO PUSH2 0x10 JUMPI PUSH1 0x0 DUP1 REVERT JUMPDEST POP PUSH1 0x40 MLOAD PUSH2 0xEFF CODESIZE SUB DUP1 PUSH2 0xEFF DUP4 CODECOPY DUP2 ADD PUSH1 0x40 DUP2 SWAP1 MSTORE PUSH2 0x2F SWAP2 PUSH2 0x19D JUMP JUMPDEST PUSH1 0x2 DUP1 SLOAD PUSH1 0x1 PUSH1 0x1 PUSH1 0xA0 SHL SUB NOT AND PUSH1 0x1 PUSH1 0x1 PUSH1 0xA0 SHL SUB DUP4 AND OR SWAP1 SSTORE PUSH1 0x40 MLOAD PUSH1 0x0 SWAP1 PUSH9 0x3635C9ADC5DEA00000 SWAP1 CALLER SWAP1 PUSH2 0x66 SWAP1 PUSH2 0x190 JUMP JUMPDEST PUSH1 0x80 DUP1 DUP3 MSTORE PUSH1 0x7 SWAP1 DUP3 ADD MSTORE PUSH7 0x546F6B656E2041 PUSH1 0xC8 SHL PUSH1 0xA0 DUP3 ADD MSTORE PUSH1 0xC0 PUSH1 0x20 DUP3 ADD DUP2 SWAP1 MSTORE PUSH1 0x3 SWAP1 DUP3 ADD MSTORE PUSH3 0x544B41 PUSH1 0xE8 SHL PUSH1 0xE0 DUP3 ADD MSTORE PUSH1 0x40 DUP2 ADD SWAP3 SWAP1 SWAP3 MSTORE PUSH1 0x1 PUSH1 0x1 PUSH1 0xA0 SHL SUB AND PUSH1 0x60 DUP3 ADD MSTORE PUSH2 0x100 ADD PUSH1 0x40 MLOAD DUP1 SWAP2 SUB SWAP1 PUSH1 0x0 CREATE DUP1 ISZERO DUP1 ISZERO PUSH2 0xD2 JUMPI RETURNDATASIZE PUSH1 0x0 DUP1 RETURNDATACOPY RETURNDATASIZE PUSH1 0x0 REVERT JUMPDEST POP SWAP1 POP PUSH1 0x0 PUSH9 0x3635C9ADC5DEA00000 CALLER PUSH1 0x40 MLOAD PUSH2 0xEE SWAP1 PUSH2 0x190 JUMP JUMPDEST PUSH1 0x80 DUP1 DUP3 MSTORE PUSH1 0x7 SWAP1 DUP3 ADD MSTORE PUSH7 0x2A37B5B2B71021 PUSH1 0xC9 SHL PUSH1 0xA0 DUP3 ADD MSTORE PUSH1 0xC0 PUSH1 0x20 DUP3 ADD DUP2 SWAP1 MSTORE PUSH1 0x3 SWAP1 DUP3 ADD MSTORE PUSH3 0x2A25A1 PUSH1 0xE9 SHL PUSH1 0xE0 DUP3 ADD MSTORE PUSH1 0x40 DUP2 ADD SWAP3 SWAP1 SWAP3 MSTORE PUSH1 0x1 PUSH1 0x1 PUSH1 0xA0 SHL SUB AND PUSH1 0x60 DUP3 ADD MSTORE PUSH2 0x100 ADD PUSH1 0x40 MLOAD DUP1 SWAP2 SUB SWAP1 PUSH1 0x0 CREATE DUP1 ISZERO DUP1 ISZERO PUSH2 0x15A JUMPI RETURNDATASIZE PUSH1 0x0 DUP1 RETURNDATACOPY RETURNDATASIZE PUSH1 0x0 REVERT JUMPDEST POP PUSH1 0x0 DUP1 SLOAD PUSH1 0x1 PUSH1 0x1 PUSH1 0xA0 SHL SUB SWAP5 DUP6 AND PUSH1 0x1 PUSH1 0x1 PUSH1 0xA0 SHL SUB NOT SWAP2 DUP3 AND OR SWAP1 SWAP2 SSTORE PUSH1 0x1 DUP1 SLOAD SWAP3 SWAP1 SWAP5 AND SWAP2 AND OR SWAP1 SWAP2 SSTORE POP PUSH2 0x1CD SWAP1 POP JUMP JUMPDEST PUSH2 0xAC7 DUP1 PUSH2 0x438 DUP4 CODECOPY ADD SWAP1 JUMP JUMPDEST PUSH1 0x0 PUSH1 0x20 DUP3 DUP5 SUB SLT ISZERO PUSH2 0x1AF JUMPI PUSH1 0x0 DUP1 REVERT JUMPDEST DUP2 MLOAD PUSH1 0x1 PUSH1 0x1 PUSH1 0xA0 SHL SUB DUP2 AND DUP2 EQ PUSH2 0x1C6 JUMPI PUSH1 0x0 DUP1 REVERT JUMPDEST SWAP4 SWAP3 POP POP POP JUMP JUMPDEST PUSH2 0x25C DUP1 PUSH2 0x1DC PUSH1 0x0 CODECOPY PUSH1 0x0 RETURN INVALID PUSH1 0x80 PUSH1 0x40 MSTORE PUSH1 0x4 CALLDATASIZE LT PUSH2 0x4A JUMPI PUSH1 0x0 CALLDATALOAD PUSH1 0xE0 SHR DUP1 PUSH4 0xFC63D10 EQ PUSH2 0x4F JUMPI DUP1 PUSH4 0x5F64B55B EQ PUSH2 0x8B JUMPI DUP1 PUSH4 0x665A11CA EQ PUSH2 0xAB JUMPI DUP1 PUSH4 0x983761E3 EQ PUSH2 0xCB JUMPI DUP1 PUSH4 0xA7B64B04 EQ PUSH2 0xE0 JUMPI JUMPDEST PUSH1 0x0 DUP1 REVERT JUMPDEST CALLVALUE DUP1 ISZERO PUSH2 0x5B JUMPI PUSH1 0x0 DUP1 REVERT JUMPDEST POP PUSH1 0x0 SLOAD PUSH2 0x6F SWAP1 PUSH1 0x1 PUSH1 0x1 PUSH1 0xA0 SHL SUB AND DUP2 JUMP JUMPDEST PUSH1 0x40 MLOAD PUSH1 0x1 PUSH1 0x1 PUSH1 0xA0 SHL SUB SWAP1 SWAP2 AND DUP2 MSTORE PUSH1 0x20 ADD PUSH1 0x40 MLOAD DUP1 SWAP2 SUB SWAP1 RETURN JUMPDEST CALLVALUE DUP1 ISZERO PUSH2 0x97 JUMPI PUSH1 0x0 DUP1 REVERT JUMPDEST POP PUSH1 0x1 SLOAD PUSH2 0x6F SWAP1 PUSH1 0x1 PUSH1 0x1 PUSH1 0xA0 SHL SUB AND DUP2 JUMP JUMPDEST CALLVALUE DUP1 ISZERO PUSH2 0xB7 JUMPI PUSH1 0x0 DUP1 REVERT JUMPDEST POP PUSH1 0x3 SLOAD PUSH2 0x6F SWAP1 PUSH1 0x1 PUSH1 0x1 PUSH1 0xA0 SHL SUB AND DUP2 JUMP JUMPDEST PUSH2 0xDE PUSH2 0xD9 CALLDATASIZE PUSH1 0x4 PUSH2 0x1D6 JUMP JUMPDEST PUSH2 0x100 JUMP JUMPDEST STOP JUMPDEST CALLVALUE DUP1 ISZERO PUSH2 0xEC JUMPI PUSH1 0x0 DUP1 REVERT JUMPDEST POP PUSH1 0x2 SLOAD PUSH2 0x6F SWAP1 PUSH1 0x1 PUSH1 0x1 PUSH1 0xA0 SHL SUB AND DUP2 JUMP JUMPDEST PUSH1 0x2 SLOAD PUSH1 0x0 DUP1 SLOAD PUSH1 0x1 SLOAD PUSH1 0x40 MLOAD PUSH4 0xC00D4215 PUSH1 0xE0 SHL DUP2 MSTORE PUSH1 0x1 PUSH1 0x1 PUSH1 0xA0 SHL SUB SWAP3 DUP4 AND PUSH1 0x4 DUP3 ADD MSTORE SWAP1 DUP3 AND PUSH1 0x24 DUP3 ADD MSTORE PUSH1 0x44 DUP2 ADD DUP4 SWAP1 MSTORE DUP6 DUP3 AND PUSH1 0x64 DUP3 ADD MSTORE PUSH1 0x84 DUP2 ADD DUP6 SWAP1 MSTORE SWAP3 AND SWAP2 DUP3 SWAP1 PUSH4 0xC00D4215 SWAP1 CALLVALUE SWAP1 PUSH1 0xA4 ADD PUSH1 0x20 PUSH1 0x40 MLOAD DUP1 DUP4 SUB DUP2 DUP6 DUP9 GAS CALL ISZERO DUP1 ISZERO PUSH2 0x173 JUMPI RETURNDATASIZE PUSH1 0x0 DUP1 RETURNDATACOPY RETURNDATASIZE PUSH1 0x0 REVERT JUMPDEST POP POP POP POP POP PUSH1 0x40 MLOAD RETURNDATASIZE PUSH1 0x1F NOT PUSH1 0x1F DUP3 ADD AND DUP3 ADD DUP1 PUSH1 0x40 MSTORE POP DUP2 ADD SWAP1 PUSH2 0x198 SWAP2 SWAP1 PUSH2 0x202 JUMP JUMPDEST PUSH1 0x3 DUP1 SLOAD PUSH1 0x1 PUSH1 0x1 PUSH1 0xA0 SHL SUB NOT AND PUSH1 0x1 PUSH1 0x1 PUSH1 0xA0 SHL SUB SWAP3 SWAP1 SWAP3 AND SWAP2 SWAP1 SWAP2 OR SWAP1 SSTORE POP POP POP POP JUMP JUMPDEST PUSH1 0x1 PUSH1 0x1 PUSH1 0xA0 SHL SUB DUP2 AND DUP2 EQ PUSH2 0x1D3 JUMPI PUSH1 0x0 DUP1 REVERT JUMPDEST POP JUMP JUMPDEST PUSH1 0x0 DUP1 PUSH1 0x40 DUP4 DUP6 SUB SLT ISZERO PUSH2 0x1E9 JUMPI PUSH1 0x0 DUP1 REVERT JUMPDEST DUP3 CALLDATALOAD PUSH2 0x1F4 DUP2 PUSH2 0x1BE JUMP JUMPDEST SWAP5 PUSH1 0x20 SWAP4 SWAP1 SWAP4 ADD CALLDATALOAD SWAP4 POP POP POP JUMP JUMPDEST PUSH1 0x0 PUSH1 0x20 DUP3 DUP5 SUB SLT ISZERO PUSH2 0x214 JUMPI PUSH1 0x0 DUP1 REVERT JUMPDEST DUP2 MLOAD PUSH2 0x21F DUP2 PUSH2 0x1BE JUMP JUMPDEST SWAP4 SWAP3 POP POP POP JUMP INVALID LOG2 PUSH5 0x6970667358 0x22 SLT KECCAK256 0xD2 0xE3 GAS 0xC6 CALLER CODECOPY 0xDC 0xF6 0x1E 0xEA EXTCODESIZE CREATE CALLER CALLDATASIZE DUP14 JUMPI 0xD4 0xC6 DUP6 0xDD PUSH8 0x73436E55E43DEBB2 BLOCKHASH PUSH6 0xCC64736F6C63 NUMBER STOP ADDMOD BYTE STOP CALLER PUSH1 0x80 PUSH1 0x40 MSTORE PUSH1 0x2 DUP1 SLOAD PUSH1 0xFF NOT AND PUSH1 0x12 OR SWAP1 SSTORE CALLVALUE DUP1 ISZERO PUSH2 0x1D JUMPI PUSH1 0x0 DUP1 REVERT JUMPDEST POP PUSH1 0x40 MLOAD PUSH2 0xAC7 CODESIZE SUB DUP1 PUSH2 0xAC7 DUP4 CODECOPY DUP2 ADD PUSH1 0x40 DUP2 SWAP1 MSTORE PUSH2 0x3C SWAP2 PUSH2 0x1AB JUMP JUMPDEST PUSH1 0x0 PUSH2 0x48 DUP6 DUP3 PUSH2 0x2C7 JUMP JUMPDEST POP PUSH1 0x1 PUSH2 0x55 DUP5 DUP3 PUSH2 0x2C7 JUMP JUMPDEST POP PUSH2 0x60 DUP2 DUP4 PUSH2 0x69 JUMP JUMPDEST POP POP POP POP PUSH2 0x3AC JUMP JUMPDEST DUP1 PUSH1 0x3 PUSH1 0x0 DUP3 DUP3 SLOAD PUSH2 0x7B SWAP2 SWAP1 PUSH2 0x385 JUMP JUMPDEST SWAP1 SWAP2 SSTORE POP POP PUSH1 0x1 PUSH1 0x1 PUSH1 0xA0 SHL SUB DUP3 AND PUSH1 0x0 SWAP1 DUP2 MSTORE PUSH1 0x4 PUSH1 0x20 MSTORE PUSH1 0x40 DUP2 KECCAK256 DUP1 SLOAD DUP4 SWAP3 SWAP1 PUSH2 0xA8 SWAP1 DUP5 SWAP1 PUSH2 0x385 JUMP JUMPDEST SWAP1 SWAP2 SSTORE POP POP PUSH1 0x40 MLOAD DUP2 DUP2 MSTORE PUSH1 0x1 PUSH1 0x1 PUSH1 0xA0 SHL SUB DUP4 AND SWAP1 PUSH1 0x0 SWAP1 PUSH32 0xDDF252AD1BE2C89B69C2B068FC378DAA952BA7F163C4A11628F55A4DF523B3EF SWAP1 PUSH1 0x20 ADD PUSH1 0x40 MLOAD DUP1 SWAP2 SUB SWAP1 LOG3 POP POP JUMP JUMPDEST PUSH4 0x4E487B71 PUSH1 0xE0 SHL PUSH1 0x0 MSTORE PUSH1 0x41 PUSH1 0x4 MSTORE PUSH1 0x24 PUSH1 0x0 REVERT JUMPDEST PUSH1 0x0 DUP3 PUSH1 0x1F DUP4 ADD SLT PUSH2 0x119 JUMPI PUSH1 0x0 DUP1 REVERT JUMPDEST DUP2 MLOAD PUSH1 0x1 PUSH1 0x1 PUSH1 0x40 SHL SUB DUP2 GT ISZERO PUSH2 0x132 JUMPI PUSH2 0x132 PUSH2 0xF2 JUMP JUMPDEST PUSH1 0x40 MLOAD PUSH1 0x1F DUP3 ADD PUSH1 0x1F NOT SWAP1 DUP2 AND PUSH1 0x3F ADD AND DUP2 ADD PUSH1 0x1 PUSH1 0x1 PUSH1 0x40 SHL SUB DUP2 GT DUP3 DUP3 LT OR ISZERO PUSH2 0x160 JUMPI PUSH2 0x160 PUSH2 0xF2 JUMP JUMPDEST PUSH1 0x40 MSTORE DUP2 DUP2 MSTORE DUP4 DUP3 ADD PUSH1 0x20 ADD DUP6 LT ISZERO PUSH2 0x178 JUMPI PUSH1 0x0 DUP1 REVERT JUMPDEST PUSH1 0x0 JUMPDEST DUP3 DUP2 LT ISZERO PUSH2 0x197 JUMPI PUSH1 0x20 DUP2 DUP7 ADD DUP2 ADD MLOAD DUP4 DUP4 ADD DUP3 ADD MSTORE ADD PUSH2 0x17B JUMP JUMPDEST POP PUSH1 0x0 SWAP2 DUP2 ADD PUSH1 0x20 ADD SWAP2 SWAP1 SWAP2 MSTORE SWAP4 SWAP3 POP POP POP JUMP JUMPDEST PUSH1 0x0 DUP1 PUSH1 0x0 DUP1 PUSH1 0x80 DUP6 DUP8 SUB SLT ISZERO PUSH2 0x1C1 JUMPI PUSH1 0x0 DUP1 REVERT JUMPDEST DUP5 MLOAD PUSH1 0x1 PUSH1 0x1 PUSH1 0x40 SHL SUB DUP2 GT ISZERO PUSH2 0x1D7 JUMPI PUSH1 0x0 DUP1 REVERT JUMPDEST PUSH2 0x1E3 DUP8 DUP3 DUP9 ADD PUSH2 0x108 JUMP JUMPDEST PUSH1 0x20 DUP8 ADD MLOAD SWAP1 SWAP6 POP SWAP1 POP PUSH1 0x1 PUSH1 0x1 PUSH1 0x40 SHL SUB DUP2 GT ISZERO PUSH2 0x201 JUMPI PUSH1 0x0 DUP1 REVERT JUMPDEST PUSH2 0x20D DUP8 DUP3 DUP9 ADD PUSH2 0x108 JUMP JUMPDEST PUSH1 0x40 DUP8 ADD MLOAD PUSH1 0x60 DUP9 ADD MLOAD SWAP2 SWAP6 POP SWAP4 POP SWAP1 POP PUSH1 0x1 PUSH1 0x1 PUSH1 0xA0 SHL SUB DUP2 AND DUP2 EQ PUSH2 0x233 JUMPI PUSH1 0x0 DUP1 REVERT JUMPDEST SWAP4 SWAP7 SWAP3 SWAP6 POP SWAP1 SWAP4 POP POP JUMP JUMPDEST PUSH1 0x1 DUP2 DUP2 SHR SWAP1 DUP3 AND DUP1 PUSH2 0x252 JUMPI PUSH1 0x7F DUP3 AND SWAP2 POP JUMPDEST PUSH1 0x20 DUP3 LT DUP2 SUB PUSH2 0x272 JUMPI PUSH4 0x4E487B71 PUSH1 0xE0 SHL PUSH1 0x0 MSTORE PUSH1 0x22 PUSH1 0x4 MSTORE PUSH1 0x24 PUSH1 0x0 REVERT JUMPDEST POP SWAP2 SWAP1 POP JUMP JUMPDEST PUSH1 0x1F DUP3 GT ISZERO PUSH2 0x2C2 JUMPI DUP1 PUSH1 0x0 MSTORE PUSH1 0x20 PUSH1 0x0 KECCAK256 PUSH1 0x1F DUP5 ADD PUSH1 0x5 SHR DUP2 ADD PUSH1 0x20 DUP6 LT ISZERO PUSH2 0x29F JUMPI POP DUP1 JUMPDEST PUSH1 0x1F DUP5 ADD PUSH1 0x5 SHR DUP3 ADD SWAP2 POP JUMPDEST DUP2 DUP2 LT ISZERO PUSH2 0x2BF JUMPI PUSH1 0x0 DUP2 SSTORE PUSH1 0x1 ADD PUSH2 0x2AB JUMP JUMPDEST POP POP JUMPDEST POP POP POP JUMP JUMPDEST DUP2 MLOAD PUSH1 0x1 PUSH1 0x1 PUSH1 0x40 SHL SUB DUP2 GT ISZERO PUSH2 0x2E0 JUMPI PUSH2 0x2E0 PUSH2 0xF2 JUMP JUMPDEST PUSH2 0x2F4 DUP2 PUSH2 0x2EE DUP5 SLOAD PUSH2 0x23E JUMP JUMPDEST DUP5 PUSH2 0x278 JUMP JUMPDEST PUSH1 0x20 PUSH1 0x1F DUP3 GT PUSH1 0x1 DUP2 EQ PUSH2 0x328 JUMPI PUSH1 0x0 DUP4 ISZERO PUSH2 0x310 JUMPI POP DUP5 DUP3 ADD MLOAD JUMPDEST PUSH1 0x0 NOT PUSH1 0x3 DUP6 SWAP1 SHL SHR NOT AND PUSH1 0x1 DUP5 SWAP1 SHL OR DUP5 SSTORE PUSH2 0x2BF JUMP JUMPDEST PUSH1 0x0 DUP5 DUP2 MSTORE PUSH1 0x20 DUP2 KECCAK256 PUSH1 0x1F NOT DUP6 AND SWAP2 JUMPDEST DUP3 DUP2 LT ISZERO PUSH2 0x358 JUMPI DUP8 DUP6 ADD MLOAD DUP3 SSTORE PUSH1 0x20 SWAP5 DUP6 ADD SWAP5 PUSH1 0x1 SWAP1 SWAP3 ADD SWAP2 ADD PUSH2 0x338 JUMP JUMPDEST POP DUP5 DUP3 LT ISZERO PUSH2 0x376 JUMPI DUP7 DUP5 ADD MLOAD PUSH1 0x0 NOT PUSH1 0x3 DUP8 SWAP1 SHL PUSH1 0xF8 AND SHR NOT AND DUP2 SSTORE JUMPDEST POP POP POP POP PUSH1 0x1 SWAP1 DUP2 SHL ADD SWAP1 SSTORE POP JUMP JUMPDEST DUP1 DUP3 ADD DUP1 DUP3 GT ISZERO PUSH2 0x3A6 JUMPI PUSH4 0x4E487B71 PUSH1 0xE0 SHL PUSH1 0x0 MSTORE PUSH1 0x11 PUSH1 0x4 MSTORE PUSH1 0x24 PUSH1 0x0 REVERT JUMPDEST SWAP3 SWAP2 POP POP JUMP JUMPDEST PUSH2 0x70C DUP1 PUSH2 0x3BB PUSH1 0x0 CODECOPY PUSH1 0x0 RETURN INVALID PUSH1 0x80 PUSH1 0x40 MSTORE CALLVALUE DUP1 ISZERO PUSH2 0x10 JUMPI PUSH1 0x0 DUP1 REVERT JUMPDEST POP PUSH1 0x4 CALLDATASIZE LT PUSH2 0x93 JUMPI PUSH1 0x0 CALLDATALOAD PUSH1 0xE0 SHR DUP1 PUSH4 0x313CE567 GT PUSH2 0x66 JUMPI DUP1 PUSH4 0x313CE567 EQ PUSH2 0x103 JUMPI DUP1 PUSH4 0x70A08231 EQ PUSH2 0x122 JUMPI DUP1 PUSH4 0x95D89B41 EQ PUSH2 0x142 JUMPI DUP1 PUSH4 0xA9059CBB EQ PUSH2 0x14A JUMPI DUP1 PUSH4 0xDD62ED3E EQ PUSH2 0x15D JUMPI PUSH1 0x0 DUP1 REVERT JUMPDEST DUP1 PUSH4 0x6FDDE03 EQ PUSH2 0x98 JUMPI DUP1 PUSH4 0x95EA7B3 EQ PUSH2 0xB6 JUMPI DUP1 PUSH4 0x18160DDD EQ PUSH2 0xD9 JUMPI DUP1 PUSH4 0x23B872DD EQ PUSH2 0xF0 JUMPI JUMPDEST PUSH1 0x0 DUP1 REVERT JUMPDEST PUSH2 0xA0 PUSH2 0x188 JUMP JUMPDEST PUSH1 0x40 MLOAD PUSH2 0xAD SWAP2 SWAP1 PUSH2 0x53A JUMP JUMPDEST PUSH1 0x40 MLOAD DUP1 SWAP2 SUB SWAP1 RETURN JUMPDEST PUSH2 0xC9 PUSH2 0xC4 CALLDATASIZE PUSH1 0x4 PUSH2 0x5A4 JUMP JUMPDEST PUSH2 0x216 JUMP JUMPDEST PUSH1 0x40 MLOAD SWAP1 ISZERO ISZERO DUP2 MSTORE PUSH1 0x20 ADD PUSH2 0xAD JUMP JUMPDEST PUSH2 0xE2 PUSH1 0x3 SLOAD DUP2 JUMP JUMPDEST PUSH1 0x40 MLOAD SWAP1 DUP2 MSTORE PUSH1 0x20 ADD PUSH2 0xAD JUMP JUMPDEST PUSH2 0xC9 PUSH2 0xFE CALLDATASIZE PUSH1 0x4 PUSH2 0x5CE JUMP JUMPDEST PUSH2 0x283 JUMP JUMPDEST PUSH1 0x2 SLOAD PUSH2 0x110 SWAP1 PUSH1 0xFF AND DUP2 JUMP JUMPDEST PUSH1 0x40 MLOAD PUSH1 0xFF SWAP1 SWAP2 AND DUP2 MSTORE PUSH1 0x20 ADD PUSH2 0xAD JUMP JUMPDEST PUSH2 0xE2 PUSH2 0x130 CALLDATASIZE PUSH1 0x4 PUSH2 0x60B JUMP JUMPDEST PUSH1 0x4 PUSH1 0x20 MSTORE PUSH1 0x0 SWAP1 DUP2 MSTORE PUSH1 0x40 SWAP1 KECCAK256 SLOAD DUP2 JUMP JUMPDEST PUSH2 0xA0 PUSH2 0x447 JUMP JUMPDEST PUSH2 0xC9 PUSH2 0x158 CALLDATASIZE PUSH1 0x4 PUSH2 0x5A4 JUMP JUMPDEST PUSH2 0x454 JUMP JUMPDEST PUSH2 0xE2 PUSH2 0x16B CALLDATASIZE PUSH1 0x4 PUSH2 0x62D JUMP JUMPDEST PUSH1 0x5 PUSH1 0x20 SWAP1 DUP2 MSTORE PUSH1 0x0 SWAP3 DUP4 MSTORE PUSH1 0x40 DUP1 DUP5 KECCAK256 SWAP1 SWAP2 MSTORE SWAP1 DUP3 MSTORE SWAP1 KECCAK256 SLOAD DUP2 JUMP JUMPDEST PUSH1 0x0 DUP1 SLOAD PUSH2 0x195 SWAP1 PUSH2 0x660 JUMP JUMPDEST DUP1 PUSH1 0x1F ADD PUSH1 0x20 DUP1 SWAP2 DIV MUL PUSH1 0x20 ADD PUSH1 0x40 MLOAD SWAP1 DUP2 ADD PUSH1 0x40 MSTORE DUP1 SWAP3 SWAP2 SWAP1 DUP2 DUP2 MSTORE PUSH1 0x20 ADD DUP3 DUP1 SLOAD PUSH2 0x1C1 SWAP1 PUSH2 0x660 JUMP JUMPDEST DUP1 ISZERO PUSH2 0x20E JUMPI DUP1 PUSH1 0x1F LT PUSH2 0x1E3 JUMPI PUSH2 0x100 DUP1 DUP4 SLOAD DIV MUL DUP4 MSTORE SWAP2 PUSH1 0x20 ADD SWAP2 PUSH2 0x20E JUMP JUMPDEST DUP3 ADD SWAP2 SWAP1 PUSH1 0x0 MSTORE PUSH1 0x20 PUSH1 0x0 KECCAK256 SWAP1 JUMPDEST DUP2 SLOAD DUP2 MSTORE SWAP1 PUSH1 0x1 ADD SWAP1 PUSH1 0x20 ADD DUP1 DUP4 GT PUSH2 0x1F1 JUMPI DUP3 SWAP1 SUB PUSH1 0x1F AND DUP3 ADD SWAP2 JUMPDEST POP POP POP POP POP DUP2 JUMP JUMPDEST CALLER PUSH1 0x0 DUP2 DUP2 MSTORE PUSH1 0x5 PUSH1 0x20 SWAP1 DUP2 MSTORE PUSH1 0x40 DUP1 DUP4 KECCAK256 PUSH1 0x1 PUSH1 0x1 PUSH1 0xA0 SHL SUB DUP8 AND DUP1 DUP6 MSTORE SWAP3 MSTORE DUP1 DUP4 KECCAK256 DUP6 SWAP1 SSTORE MLOAD SWAP2 SWAP3 SWAP1 SWAP2 PUSH32 0x8C5BE1E5EBEC7D5BD14F71427D1E84F3DD0314C0F7B2291E5B200AC8C7C3B925 SWAP1 PUSH2 0x271 SWAP1 DUP7 DUP2 MSTORE PUSH1 0x20 ADD SWAP1 JUMP JUMPDEST PUSH1 0x40 MLOAD DUP1 SWAP2 SUB SWAP1 LOG3 POP PUSH1 0x1 JUMPDEST SWAP3 SWAP2 POP POP JUMP JUMPDEST PUSH1 0x1 PUSH1 0x1 PUSH1 0xA0 SHL SUB DUP4 AND PUSH1 0x0 SWAP1 DUP2 MSTORE PUSH1 0x4 PUSH1 0x20 MSTORE PUSH1 0x40 DUP2 KECCAK256 SLOAD DUP3 GT ISZERO PUSH2 0x2E9 JUMPI PUSH1 0x40 MLOAD PUSH3 0x461BCD PUSH1 0xE5 SHL DUP2 MSTORE PUSH1 0x20 PUSH1 0x4 DUP3 ADD MSTORE PUSH1 0x16 PUSH1 0x24 DUP3 ADD MSTORE PUSH22 0x45524332303A2062616C616E636520746F6F206C6F77 PUSH1 0x50 SHL PUSH1 0x44 DUP3 ADD MSTORE PUSH1 0x64 ADD JUMPDEST PUSH1 0x40 MLOAD DUP1 SWAP2 SUB SWAP1 REVERT JUMPDEST PUSH1 0x1 PUSH1 0x1 PUSH1 0xA0 SHL SUB DUP5 AND PUSH1 0x0 SWAP1 DUP2 MSTORE PUSH1 0x5 PUSH1 0x20 SWAP1 DUP2 MSTORE PUSH1 0x40 DUP1 DUP4 KECCAK256 CALLER DUP5 MSTORE SWAP1 SWAP2 MSTORE SWAP1 KECCAK256 SLOAD DUP3 GT ISZERO PUSH2 0x35C JUMPI PUSH1 0x40 MLOAD PUSH3 0x461BCD PUSH1 0xE5 SHL DUP2 MSTORE PUSH1 0x20 PUSH1 0x4 DUP3 ADD MSTORE PUSH1 0x18 PUSH1 0x24 DUP3 ADD MSTORE PUSH32 0x45524332303A20616C6C6F77616E636520746F6F206C6F770000000000000000 PUSH1 0x44 DUP3 ADD MSTORE PUSH1 0x64 ADD PUSH2 0x2E0 JUMP JUMPDEST PUSH1 0x1 PUSH1 0x1 PUSH1 0xA0 SHL SUB DUP5 AND PUSH1 0x0 SWAP1 DUP2 MSTORE PUSH1 0x4 PUSH1 0x20 MSTORE PUSH1 0x40 DUP2 KECCAK256 DUP1 SLOAD DUP5 SWAP3 SWAP1 PUSH2 0x384 SWAP1 DUP5 SWAP1 PUSH2 0x6B0 JUMP JUMPDEST SWAP1 SWAP2 SSTORE POP POP PUSH1 0x1 PUSH1 0x1 PUSH1 0xA0 SHL SUB DUP5 AND PUSH1 0x0 SWAP1 DUP2 MSTORE PUSH1 0x5 PUSH1 0x20 SWAP1 DUP2 MSTORE PUSH1 0x40 DUP1 DUP4 KECCAK256 CALLER DUP5 MSTORE SWAP1 SWAP2 MSTORE DUP2 KECCAK256 DUP1 SLOAD DUP5 SWAP3 SWAP1 PUSH2 0x3BC SWAP1 DUP5 SWAP1 PUSH2 0x6B0 JUMP JUMPDEST SWAP1 SWAP2 SSTORE POP POP PUSH1 0x1 PUSH1 0x1 PUSH1 0xA0 SHL SUB DUP4 AND PUSH1 0x0 SWAP1 DUP2 MSTORE PUSH1 0x4 PUSH1 0x20 MSTORE PUSH1 0x40 DUP2 KECCAK256 DUP1 SLOAD DUP5 SWAP3 SWAP1 PUSH2 0x3E9 SWAP1 DUP5 SWAP1 PUSH2 0x6C3 JUMP JUMPDEST SWAP3 POP POP DUP2 SWAP1 SSTORE POP DUP3 PUSH1 0x1 PUSH1 0x1 PUSH1 0xA0 SHL SUB AND DUP5 PUSH1 0x1 PUSH1 0x1 PUSH1 0xA0 SHL SUB AND PUSH32 0xDDF252AD1BE2C89B69C2B068FC378DAA952BA7F163C4A11628F55A4DF523B3EF DUP5 PUSH1 0x40 MLOAD PUSH2 0x435 SWAP2 DUP2 MSTORE PUSH1 0x20 ADD SWAP1 JUMP JUMPDEST PUSH1 0x40 MLOAD DUP1 SWAP2 SUB SWAP1 LOG3 POP PUSH1 0x1 SWAP4 SWAP3 POP POP POP JUMP JUMPDEST PUSH1 0x1 DUP1 SLOAD PUSH2 0x195 SWAP1 PUSH2 0x660 JUMP JUMPDEST CALLER PUSH1 0x0 SWAP1 DUP2 MSTORE PUSH1 0x4 PUSH1 0x20 MSTORE PUSH1 0x40 DUP2 KECCAK256 SLOAD DUP3 GT ISZERO PUSH2 0x4AC JUMPI PUSH1 0x40 MLOAD PUSH3 0x461BCD PUSH1 0xE5 SHL DUP2 MSTORE PUSH1 0x20 PUSH1 0x4 DUP3 ADD MSTORE PUSH1 0x16 PUSH1 0x24 DUP3 ADD MSTORE PUSH22 0x45524332303A2062616C616E636520746F6F206C6F77 PUSH1 0x50 SHL PUSH1 0x44 DUP3 ADD MSTORE PUSH1 0x64 ADD PUSH2 0x2E0 JUMP JUMPDEST CALLER PUSH1 0x0 SWAP1 DUP2 MSTORE PUSH1 0x4 PUSH1 0x20 MSTORE PUSH1 0x40 DUP2 KECCAK256 DUP1 SLOAD DUP5 SWAP3 SWAP1 PUSH2 0x4CB SWAP1 DUP5 SWAP1 PUSH2 0x6B0 JUMP JUMPDEST SWAP1 SWAP2 SSTORE POP POP PUSH1 0x1 PUSH1 0x1 PUSH1 0xA0 SHL SUB DUP4 AND PUSH1 0x0 SWAP1 DUP2 MSTORE PUSH1 0x4 PUSH1 0x20 MSTORE PUSH1 0x40 DUP2 KECCAK256 DUP1 SLOAD DUP5 SWAP3 SWAP1 PUSH2 0x4F8 SWAP1 DUP5 SWAP1 PUSH2 0x6C3 JUMP JUMPDEST SWAP1 SWAP2 SSTORE POP POP PUSH1 0x40 MLOAD DUP3 DUP2 MSTORE PUSH1 0x1 PUSH1 0x1 PUSH1 0xA0 SHL SUB DUP5 AND SWAP1 CALLER SWAP1 PUSH32 0xDDF252AD1BE2C89B69C2B068FC378DAA952BA7F163C4A11628F55A4DF523B3EF SWAP1 PUSH1 0x20 ADD PUSH2 0x271 JUMP JUMPDEST PUSH1 0x20 DUP2 MSTORE PUSH1 0x0 DUP3 MLOAD DUP1 PUSH1 0x20 DUP5 ADD MSTORE PUSH1 0x0 JUMPDEST DUP2 DUP2 LT ISZERO PUSH2 0x568 JUMPI PUSH1 0x20 DUP2 DUP7 ADD DUP2 ADD MLOAD PUSH1 0x40 DUP7 DUP5 ADD ADD MSTORE ADD PUSH2 0x54B JUMP JUMPDEST POP PUSH1 0x0 PUSH1 0x40 DUP3 DUP6 ADD ADD MSTORE PUSH1 0x40 PUSH1 0x1F NOT PUSH1 0x1F DUP4 ADD AND DUP5 ADD ADD SWAP2 POP POP SWAP3 SWAP2 POP POP JUMP JUMPDEST DUP1 CALLDATALOAD PUSH1 0x1 PUSH1 0x1 PUSH1 0xA0 SHL SUB DUP2 AND DUP2 EQ PUSH2 0x59F JUMPI PUSH1 0x0 DUP1 REVERT JUMPDEST SWAP2 SWAP1 POP JUMP JUMPDEST PUSH1 0x0 DUP1 PUSH1 0x40 DUP4 DUP6 SUB SLT ISZERO PUSH2 0x5B7 JUMPI PUSH1 0x0 DUP1 REVERT JUMPDEST PUSH2 0x5C0 DUP4 PUSH2 0x588 JUMP JUMPDEST SWAP5 PUSH1 0x20 SWAP4 SWAP1 SWAP4 ADD CALLDATALOAD SWAP4 POP POP POP JUMP JUMPDEST PUSH1 0x0 DUP1 PUSH1 0x0 PUSH1 0x60 DUP5 DUP7 SUB SLT ISZERO PUSH2 0x5E3 JUMPI PUSH1 0x0 DUP1 REVERT JUMPDEST PUSH2 0x5EC DUP5 PUSH2 0x588 JUMP JUMPDEST SWAP3 POP PUSH2 0x5FA PUSH1 0x20 DUP6 ADD PUSH2 0x588 JUMP JUMPDEST SWAP3 SWAP6 SWAP3 SWAP5 POP POP POP PUSH1 0x40 SWAP2 SWAP1 SWAP2 ADD CALLDATALOAD SWAP1 JUMP JUMPDEST PUSH1 0x0 PUSH1 0x20 DUP3 DUP5 SUB SLT ISZERO PUSH2 0x61D JUMPI PUSH1 0x0 DUP1 REVERT JUMPDEST PUSH2 0x626 DUP3 PUSH2 0x588 JUMP JUMPDEST SWAP4 SWAP3 POP POP POP JUMP JUMPDEST PUSH1 0x0 DUP1 PUSH1 0x40 DUP4 DUP6 SUB SLT ISZERO PUSH2 0x640 JUMPI PUSH1 0x0 DUP1 REVERT JUMPDEST PUSH2 0x649 DUP4 PUSH2 0x588 JUMP JUMPDEST SWAP2 POP PUSH2 0x657 PUSH1 0x20 DUP5 ADD PUSH2 0x588 JUMP JUMPDEST SWAP1 POP SWAP3 POP SWAP3 SWAP1 POP JUMP JUMPDEST PUSH1 0x1 DUP2 DUP2 SHR SWAP1 DUP3 AND DUP1 PUSH2 0x674 JUMPI PUSH1 0x7F DUP3 AND SWAP2 POP JUMPDEST PUSH1 0x20 DUP3 LT DUP2 SUB PUSH2 0x694 JUMPI PUSH4 0x4E487B71 PUSH1 0xE0 SHL PUSH1 0x0 MSTORE PUSH1 0x22 PUSH1 0x4 MSTORE PUSH1 0x24 PUSH1 0x0 REVERT JUMPDEST POP SWAP2 SWAP1 POP JUMP JUMPDEST PUSH4 0x4E487B71 PUSH1 0xE0 SHL PUSH1 0x0 MSTORE PUSH1 0x11 PUSH1 0x4 MSTORE PUSH1 0x24 PUSH1 0x0 REVERT JUMPDEST DUP2 DUP2 SUB DUP2 DUP2 GT ISZERO PUSH2 0x27D JUMPI PUSH2 0x27D PUSH2 0x69A JUMP JUMPDEST DUP1 DUP3 ADD DUP1 DUP3 GT ISZERO PUSH2 0x27D JUMPI PUSH2 0x27D PUSH2 0x69A JUMP INVALID LOG2 PUSH5 0x6970667358 0x22 SLT KECCAK256 PUSH6 0x3247FB282A6C 0x2B SWAP13 SHL BASEFEE PUSH12 0x1882B306022EFB41C705F9FD DELEGATECALL 0xE3 JUMPI LT RETURNDATACOPY MSTORE 0xF 0x29 PUSH5 0x736F6C6343 STOP ADDMOD BYTE STOP CALLER "
				},
				"gasEstimates": {
					"creation": {
						"codeDepositCost": "120800",
						"executionCost": "infinite",
						"totalCost": "infinite"
					},
					"external": {
						"algebraFactory()": "2391",
						"createPoolAlgebra(uint160,uint256)": "infinite",
						"liquidityPool()": "2347",
						"tokenA()": "2303",
						"tokenB()": "2325"
					}
				},
				"methodIdentifiers": {
					"algebraFactory()": "a7b64b04",
					"createPoolAlgebra(uint160,uint256)": "983761e3",
					"liquidityPool()": "665a11ca",
					"tokenA()": "0fc63d10",
					"tokenB()": "5f64b55b"
				}
			},
			"storageLayout": {
				"storage": [
					{
						"astId": 240,
						"contract": "contracts/token factory/testAlgebrav2.sol:AlgebraPoolCreator",
						"label": "tokenA",
						"offset": 0,
						"slot": "0",
						"type": "t_address"
					},
					{
						"astId": 242,
						"contract": "contracts/token factory/testAlgebrav2.sol:AlgebraPoolCreator",
						"label": "tokenB",
						"offset": 0,
						"slot": "1",
						"type": "t_address"
					},
					{
						"astId": 244,
						"contract": "contracts/token factory/testAlgebrav2.sol:AlgebraPoolCreator",
						"label": "algebraFactory",
						"offset": 0,
						"slot": "2",
						"type": "t_address"
					},
					{
						"astId": 246,
						"contract": "contracts/token factory/testAlgebrav2.sol:AlgebraPoolCreator",
						"label": "liquidityPool",
						"offset": 0,
						"slot": "3",
						"type": "t_address"
					}
				],
				"types": {
					"t_address": {
						"encoding": "inplace",
						"label": "address",
						"numberOfBytes": "20"
					}
				}
			},
			"userdoc": {
				"kind": "user",
				"methods": {},
				"version": 1
			}
		}
	}
}