{
	"contracts/token factory/Migrator.sol": {
		"Migrator": {
			"abi": [
				{
					"inputs": [
						{
							"internalType": "address",
							"name": "_algebraUnified",
							"type": "address"
						},
						{
							"internalType": "address",
							"name": "_WETH",
							"type": "address"
						}
					],
					"stateMutability": "nonpayable",
					"type": "constructor"
				},
				{
					"inputs": [],
					"name": "SA",
					"type": "error"
				},
				{
					"inputs": [],
					"name": "STF",
					"type": "error"
				},
				{
					"anonymous": false,
					"inputs": [
						{
							"indexed": true,
							"internalType": "address",
							"name": "poolAddress",
							"type": "address"
						},
						{
							"indexed": false,
							"internalType": "uint256",
							"name": "tokenId",
							"type": "uint256"
						},
						{
							"indexed": false,
							"internalType": "uint128",
							"name": "liquidity",
							"type": "uint128"
						},
						{
							"indexed": false,
							"internalType": "uint256",
							"name": "amount0",
							"type": "uint256"
						},
						{
							"indexed": false,
							"internalType": "uint256",
							"name": "amount1",
							"type": "uint256"
						}
					],
					"name": "LiquidityAdded",
					"type": "event"
				},
				{
					"anonymous": false,
					"inputs": [
						{
							"indexed": true,
							"internalType": "address",
							"name": "poolAddress",
							"type": "address"
						},
						{
							"indexed": true,
							"internalType": "address",
							"name": "token",
							"type": "address"
						},
						{
							"indexed": false,
							"internalType": "uint256",
							"name": "tokenAmount",
							"type": "uint256"
						},
						{
							"indexed": false,
							"internalType": "uint256",
							"name": "ethAmount",
							"type": "uint256"
						}
					],
					"name": "MigrationInitialized",
					"type": "event"
				},
				{
					"inputs": [],
					"name": "MAX_ETH_LIMIT",
					"outputs": [
						{
							"internalType": "uint256",
							"name": "",
							"type": "uint256"
						}
					],
					"stateMutability": "view",
					"type": "function"
				},
				{
					"inputs": [],
					"name": "MAX_TICK",
					"outputs": [
						{
							"internalType": "int24",
							"name": "",
							"type": "int24"
						}
					],
					"stateMutability": "view",
					"type": "function"
				},
				{
					"inputs": [],
					"name": "MAX_TOKEN_LIMIT",
					"outputs": [
						{
							"internalType": "uint256",
							"name": "",
							"type": "uint256"
						}
					],
					"stateMutability": "view",
					"type": "function"
				},
				{
					"inputs": [],
					"name": "MIN_TICK",
					"outputs": [
						{
							"internalType": "int24",
							"name": "",
							"type": "int24"
						}
					],
					"stateMutability": "view",
					"type": "function"
				},
				{
					"inputs": [],
					"name": "WETH",
					"outputs": [
						{
							"internalType": "address",
							"name": "",
							"type": "address"
						}
					],
					"stateMutability": "view",
					"type": "function"
				},
				{
					"inputs": [],
					"name": "algebraUnified",
					"outputs": [
						{
							"internalType": "address",
							"name": "",
							"type": "address"
						}
					],
					"stateMutability": "view",
					"type": "function"
				},
				{
					"inputs": [
						{
							"internalType": "uint256",
							"name": "tokenAmount",
							"type": "uint256"
						},
						{
							"internalType": "uint256",
							"name": "ethAmount",
							"type": "uint256"
						}
					],
					"name": "calculateSqrtPriceX96",
					"outputs": [
						{
							"internalType": "uint160",
							"name": "",
							"type": "uint160"
						}
					],
					"stateMutability": "pure",
					"type": "function"
				},
				{
					"inputs": [],
					"name": "emergencyWithdraw",
					"outputs": [],
					"stateMutability": "nonpayable",
					"type": "function"
				},
				{
					"inputs": [
						{
							"internalType": "address",
							"name": "token",
							"type": "address"
						}
					],
					"name": "emergencyWithdrawTokens",
					"outputs": [],
					"stateMutability": "nonpayable",
					"type": "function"
				},
				{
					"inputs": [
						{
							"internalType": "address",
							"name": "token",
							"type": "address"
						},
						{
							"internalType": "uint256",
							"name": "tokenAmount",
							"type": "uint256"
						}
					],
					"name": "initiateMigration",
					"outputs": [],
					"stateMutability": "payable",
					"type": "function"
				},
				{
					"inputs": [],
					"name": "owner",
					"outputs": [
						{
							"internalType": "address",
							"name": "",
							"type": "address"
						}
					],
					"stateMutability": "view",
					"type": "function"
				},
				{
					"inputs": [
						{
							"internalType": "address",
							"name": "_algebraUnified",
							"type": "address"
						}
					],
					"name": "updateAlgebraUnified",
					"outputs": [],
					"stateMutability": "nonpayable",
					"type": "function"
				},
				{
					"inputs": [
						{
							"internalType": "address",
							"name": "_WETH",
							"type": "address"
						}
					],
					"name": "updateWETH",
					"outputs": [],
					"stateMutability": "nonpayable",
					"type": "function"
				},
				{
					"stateMutability": "payable",
					"type": "receive"
				}
			],
			"devdoc": {
				"kind": "dev",
				"methods": {},
				"version": 1
			},
			"evm": {
				"assembly": "    /* \"contracts/token factory/Migrator.sol\":3127:8035  contract Migrator {... */\n  mstore(0x40, 0x80)\n    /* \"contracts/token factory/Migrator.sol\":3993:4282  constructor(address _algebraUnified, address _WETH) {... */\n  callvalue\n  dup1\n  iszero\n  tag_1\n  jumpi\n  0x00\n  dup1\n  revert\ntag_1:\n  pop\n  mload(0x40)\n  sub(codesize, bytecodeSize)\n  dup1\n  bytecodeSize\n  dup4\n  codecopy\n  dup2\n  add\n  0x40\n  dup2\n  swap1\n  mstore\n  tag_2\n  swap2\n  tag_3\n  jump\t// in\ntag_2:\n  sub(shl(0xa0, 0x01), 0x01)\n    /* \"contracts/token factory/Migrator.sol\":4063:4092  _algebraUnified != address(0) */\n  dup3\n  and\n    /* \"contracts/token factory/Migrator.sol\":4055:4120  require(_algebraUnified != address(0), \"Invalid Algebra address\") */\n  tag_6\n  jumpi\n  mload(0x40)\n  shl(0xe5, 0x461bcd)\n  dup2\n  mstore\n    /* \"#utility.yul\":696:698   */\n  0x20\n    /* \"contracts/token factory/Migrator.sol\":4055:4120  require(_algebraUnified != address(0), \"Invalid Algebra address\") */\n  0x04\n  dup3\n  add\n    /* \"#utility.yul\":678:699   */\n  mstore\n    /* \"#utility.yul\":735:737   */\n  0x17\n    /* \"#utility.yul\":715:733   */\n  0x24\n  dup3\n  add\n    /* \"#utility.yul\":708:738   */\n  mstore\n    /* \"#utility.yul\":774:799   */\n  0x496e76616c696420416c67656272612061646472657373000000000000000000\n    /* \"#utility.yul\":754:772   */\n  0x44\n  dup3\n  add\n    /* \"#utility.yul\":747:800   */\n  mstore\n    /* \"#utility.yul\":817:835   */\n  0x64\n  add\n    /* \"contracts/token factory/Migrator.sol\":4055:4120  require(_algebraUnified != address(0), \"Invalid Algebra address\") */\ntag_7:\n  mload(0x40)\n  dup1\n  swap2\n  sub\n  swap1\n  revert\ntag_6:\n  sub(shl(0xa0, 0x01), 0x01)\n    /* \"contracts/token factory/Migrator.sol\":4138:4157  _WETH != address(0) */\n  dup2\n  and\n    /* \"contracts/token factory/Migrator.sol\":4130:4182  require(_WETH != address(0), \"Invalid WETH address\") */\n  tag_9\n  jumpi\n  mload(0x40)\n  shl(0xe5, 0x461bcd)\n  dup2\n  mstore\n    /* \"#utility.yul\":1048:1050   */\n  0x20\n    /* \"contracts/token factory/Migrator.sol\":4130:4182  require(_WETH != address(0), \"Invalid WETH address\") */\n  0x04\n  dup3\n  add\n    /* \"#utility.yul\":1030:1051   */\n  mstore\n    /* \"#utility.yul\":1087:1089   */\n  0x14\n    /* \"#utility.yul\":1067:1085   */\n  0x24\n  dup3\n  add\n    /* \"#utility.yul\":1060:1090   */\n  mstore\n    /* \"#utility.yul\":1126:1148   */\n  0x496e76616c696420574554482061646472657373000000000000000000000000\n    /* \"#utility.yul\":1106:1124   */\n  0x44\n  dup3\n  add\n    /* \"#utility.yul\":1099:1149   */\n  mstore\n    /* \"#utility.yul\":1166:1184   */\n  0x64\n  add\n    /* \"contracts/token factory/Migrator.sol\":4130:4182  require(_WETH != address(0), \"Invalid WETH address\") */\n  tag_7\n    /* \"#utility.yul\":846:1190   */\n  jump\n    /* \"contracts/token factory/Migrator.sol\":4130:4182  require(_WETH != address(0), \"Invalid WETH address\") */\ntag_9:\n    /* \"contracts/token factory/Migrator.sol\":4193:4198  owner */\n  0x00\n    /* \"contracts/token factory/Migrator.sol\":4193:4211  owner = msg.sender */\n  dup1\n  sload\n  not(sub(shl(0xa0, 0x01), 0x01))\n  swap1\n  dup2\n  and\n    /* \"contracts/token factory/Migrator.sol\":4201:4211  msg.sender */\n  caller\n    /* \"contracts/token factory/Migrator.sol\":4193:4211  owner = msg.sender */\n  or\n  swap1\n  swap2\n  sstore\n  0x01\n    /* \"contracts/token factory/Migrator.sol\":4221:4253  algebraUnified = _algebraUnified */\n  dup1\n  sload\n  sub(shl(0xa0, 0x01), 0x01)\n  swap5\n  dup6\n  and\n  swap1\n  dup4\n  and\n  or\n  swap1\n  sstore\n    /* \"contracts/token factory/Migrator.sol\":4263:4267  WETH */\n  0x02\n    /* \"contracts/token factory/Migrator.sol\":4263:4275  WETH = _WETH */\n  dup1\n  sload\n  swap3\n  swap1\n  swap4\n  and\n  swap2\n  and\n  or\n  swap1\n  sstore\n    /* \"contracts/token factory/Migrator.sol\":3127:8035  contract Migrator {... */\n  jump(tag_14)\n    /* \"#utility.yul\":14:191   */\ntag_13:\n    /* \"#utility.yul\":93:106   */\n  dup1\n  mload\n  sub(shl(0xa0, 0x01), 0x01)\n    /* \"#utility.yul\":135:166   */\n  dup2\n  and\n    /* \"#utility.yul\":125:167   */\n  dup2\n  eq\n    /* \"#utility.yul\":115:185   */\n  tag_16\n  jumpi\n    /* \"#utility.yul\":181:182   */\n  0x00\n    /* \"#utility.yul\":178:179   */\n  dup1\n    /* \"#utility.yul\":171:183   */\n  revert\n    /* \"#utility.yul\":115:185   */\ntag_16:\n    /* \"#utility.yul\":14:191   */\n  swap2\n  swap1\n  pop\n  jump\t// out\n    /* \"#utility.yul\":196:489   */\ntag_3:\n    /* \"#utility.yul\":275:281   */\n  0x00\n    /* \"#utility.yul\":283:289   */\n  dup1\n    /* \"#utility.yul\":336:338   */\n  0x40\n    /* \"#utility.yul\":324:333   */\n  dup4\n    /* \"#utility.yul\":315:322   */\n  dup6\n    /* \"#utility.yul\":311:334   */\n  sub\n    /* \"#utility.yul\":307:339   */\n  slt\n    /* \"#utility.yul\":304:356   */\n  iszero\n  tag_18\n  jumpi\n    /* \"#utility.yul\":352:353   */\n  0x00\n    /* \"#utility.yul\":349:350   */\n  dup1\n    /* \"#utility.yul\":342:354   */\n  revert\n    /* \"#utility.yul\":304:356   */\ntag_18:\n    /* \"#utility.yul\":375:415   */\n  tag_19\n    /* \"#utility.yul\":405:414   */\n  dup4\n    /* \"#utility.yul\":375:415   */\n  tag_13\n  jump\t// in\ntag_19:\n    /* \"#utility.yul\":365:415   */\n  swap2\n  pop\n    /* \"#utility.yul\":434:483   */\n  tag_20\n    /* \"#utility.yul\":479:481   */\n  0x20\n    /* \"#utility.yul\":468:477   */\n  dup5\n    /* \"#utility.yul\":464:482   */\n  add\n    /* \"#utility.yul\":434:483   */\n  tag_13\n  jump\t// in\ntag_20:\n    /* \"#utility.yul\":424:483   */\n  swap1\n  pop\n    /* \"#utility.yul\":196:489   */\n  swap3\n  pop\n  swap3\n  swap1\n  pop\n  jump\t// out\n    /* \"#utility.yul\":846:1190   */\ntag_14:\n    /* \"contracts/token factory/Migrator.sol\":3127:8035  contract Migrator {... */\n  dataSize(sub_0)\n  dup1\n  dataOffset(sub_0)\n  0x00\n  codecopy\n  0x00\n  return\nstop\n\nsub_0: assembly {\n        /* \"contracts/token factory/Migrator.sol\":3127:8035  contract Migrator {... */\n      mstore(0x40, 0x80)\n      jumpi(tag_1, lt(calldatasize, 0x04))\n      shr(0xe0, calldataload(0x00))\n      dup1\n      0x8da5cb5b\n      gt\n      tag_16\n      jumpi\n      dup1\n      0xad5c4648\n      gt\n      tag_17\n      jumpi\n      dup1\n      0xad5c4648\n      eq\n      tag_12\n      jumpi\n      dup1\n      0xb2af127c\n      eq\n      tag_13\n      jumpi\n      dup1\n      0xdb2e21bc\n      eq\n      tag_14\n      jumpi\n      dup1\n      0xfe9440d7\n      eq\n      tag_15\n      jumpi\n      0x00\n      dup1\n      revert\n    tag_17:\n      dup1\n      0x8da5cb5b\n      eq\n      tag_9\n      jumpi\n      dup1\n      0xa000bf4f\n      eq\n      tag_10\n      jumpi\n      dup1\n      0xa1634b14\n      eq\n      tag_11\n      jumpi\n      0x00\n      dup1\n      revert\n    tag_16:\n      dup1\n      0x09fe2d34\n      eq\n      tag_3\n      jumpi\n      dup1\n      0x18fd7858\n      eq\n      tag_4\n      jumpi\n      dup1\n      0x24f8eca7\n      eq\n      tag_5\n      jumpi\n      dup1\n      0x3b7ab5b3\n      eq\n      tag_6\n      jumpi\n      dup1\n      0x5a2f0ae7\n      eq\n      tag_7\n      jumpi\n      dup1\n      0x6882a888\n      eq\n      tag_8\n      jumpi\n      0x00\n      dup1\n      revert\n    tag_1:\n      jumpi(tag_2, calldatasize)\n      stop\n    tag_2:\n      0x00\n      dup1\n      revert\n        /* \"contracts/token factory/Migrator.sol\":7163:7353  function updateAlgebraUnified(address _algebraUnified) external onlyOwner {... */\n    tag_3:\n      callvalue\n      dup1\n      iszero\n      tag_20\n      jumpi\n      0x00\n      dup1\n      revert\n    tag_20:\n      pop\n      tag_21\n      tag_22\n      calldatasize\n      0x04\n      tag_23\n      jump\t// in\n    tag_22:\n      tag_24\n      jump\t// in\n    tag_21:\n      stop\n        /* \"contracts/token factory/Migrator.sol\":4288:6504  function initiateMigration(address token, uint256 tokenAmount) external payable  {... */\n    tag_4:\n      tag_21\n      tag_26\n      calldatasize\n      0x04\n      tag_27\n      jump\t// in\n    tag_26:\n      tag_28\n      jump\t// in\n        /* \"contracts/token factory/Migrator.sol\":3216:3245  address public algebraUnified */\n    tag_5:\n      callvalue\n      dup1\n      iszero\n      tag_29\n      jumpi\n      0x00\n      dup1\n      revert\n    tag_29:\n      pop\n      sload(0x01)\n      tag_30\n      swap1\n      sub(shl(0xa0, 0x01), 0x01)\n      and\n      dup2\n      jump\n    tag_30:\n      mload(0x40)\n      sub(shl(0xa0, 0x01), 0x01)\n        /* \"#utility.yul\":1047:1079   */\n      swap1\n      swap2\n      and\n        /* \"#utility.yul\":1029:1080   */\n      dup2\n      mstore\n        /* \"#utility.yul\":1017:1019   */\n      0x20\n        /* \"#utility.yul\":1002:1020   */\n      add\n        /* \"contracts/token factory/Migrator.sol\":3216:3245  address public algebraUnified */\n    tag_32:\n      mload(0x40)\n      dup1\n      swap2\n      sub\n      swap1\n      return\n        /* \"contracts/token factory/Migrator.sol\":3451:3509  uint256 public constant MAX_TOKEN_LIMIT = 1_000_000 * 1e18 */\n    tag_6:\n      callvalue\n      dup1\n      iszero\n      tag_34\n      jumpi\n      0x00\n      dup1\n      revert\n    tag_34:\n      pop\n      tag_35\n        /* \"contracts/token factory/Migrator.sol\":3493:3509  1_000_000 * 1e18 */\n      0xd3c21bcecceda1000000\n        /* \"contracts/token factory/Migrator.sol\":3451:3509  uint256 public constant MAX_TOKEN_LIMIT = 1_000_000 * 1e18 */\n      dup2\n      jump\n    tag_35:\n      mload(0x40)\n        /* \"#utility.yul\":1237:1262   */\n      swap1\n      dup2\n      mstore\n        /* \"#utility.yul\":1225:1227   */\n      0x20\n        /* \"#utility.yul\":1210:1228   */\n      add\n        /* \"contracts/token factory/Migrator.sol\":3451:3509  uint256 public constant MAX_TOKEN_LIMIT = 1_000_000 * 1e18 */\n      tag_32\n        /* \"#utility.yul\":1091:1268   */\n      jump\n        /* \"contracts/token factory/Migrator.sol\":3369:3417  uint256 public constant MAX_ETH_LIMIT = 10 ether */\n    tag_7:\n      callvalue\n      dup1\n      iszero\n      tag_39\n      jumpi\n      0x00\n      dup1\n      revert\n    tag_39:\n      pop\n      tag_35\n        /* \"contracts/token factory/Migrator.sol\":3409:3417  10 ether */\n      0x8ac7230489e80000\n        /* \"contracts/token factory/Migrator.sol\":3369:3417  uint256 public constant MAX_ETH_LIMIT = 10 ether */\n      dup2\n      jump\n        /* \"contracts/token factory/Migrator.sol\":3323:3362  int24 public constant MAX_TICK = 887220 */\n    tag_8:\n      callvalue\n      dup1\n      iszero\n      tag_43\n      jumpi\n      0x00\n      dup1\n      revert\n    tag_43:\n      pop\n      tag_44\n        /* \"contracts/token factory/Migrator.sol\":3356:3362  887220 */\n      0x0d89b4\n        /* \"contracts/token factory/Migrator.sol\":3323:3362  int24 public constant MAX_TICK = 887220 */\n      dup2\n      jump\n    tag_44:\n      mload(0x40)\n        /* \"#utility.yul\":1540:1541   */\n      0x02\n        /* \"#utility.yul\":1529:1550   */\n      swap2\n      swap1\n      swap2\n      signextend\n        /* \"#utility.yul\":1511:1551   */\n      dup2\n      mstore\n        /* \"#utility.yul\":1499:1501   */\n      0x20\n        /* \"#utility.yul\":1484:1502   */\n      add\n        /* \"contracts/token factory/Migrator.sol\":3323:3362  int24 public constant MAX_TICK = 887220 */\n      tag_32\n        /* \"#utility.yul\":1369:1557   */\n      jump\n        /* \"contracts/token factory/Migrator.sol\":3190:3210  address public owner */\n    tag_9:\n      callvalue\n      dup1\n      iszero\n      tag_48\n      jumpi\n      0x00\n      dup1\n      revert\n    tag_48:\n      pop\n      sload(0x00)\n      tag_30\n      swap1\n      sub(shl(0xa0, 0x01), 0x01)\n      and\n      dup2\n      jump\n        /* \"contracts/token factory/Migrator.sol\":6510:6927  function calculateSqrtPriceX96(uint256 tokenAmount, uint256 ethAmount) public pure returns (uint160) {... */\n    tag_10:\n      callvalue\n      dup1\n      iszero\n      tag_52\n      jumpi\n      0x00\n      dup1\n      revert\n    tag_52:\n      pop\n      tag_30\n      tag_54\n      calldatasize\n      0x04\n      tag_55\n      jump\t// in\n    tag_54:\n      tag_56\n      jump\t// in\n        /* \"contracts/token factory/Migrator.sol\":3277:3317  int24 public constant MIN_TICK = -887220 */\n    tag_11:\n      callvalue\n      dup1\n      iszero\n      tag_59\n      jumpi\n      0x00\n      dup1\n      revert\n    tag_59:\n      pop\n      tag_44\n      not(0x0d89b3)\n      dup2\n      jump\n        /* \"contracts/token factory/Migrator.sol\":3251:3270  address public WETH */\n    tag_12:\n      callvalue\n      dup1\n      iszero\n      tag_63\n      jumpi\n      0x00\n      dup1\n      revert\n    tag_63:\n      pop\n      sload(0x02)\n      tag_30\n      swap1\n      sub(shl(0xa0, 0x01), 0x01)\n      and\n      dup2\n      jump\n        /* \"contracts/token factory/Migrator.sol\":7756:7998  function emergencyWithdrawTokens(address token) external onlyOwner {... */\n    tag_13:\n      callvalue\n      dup1\n      iszero\n      tag_67\n      jumpi\n      0x00\n      dup1\n      revert\n    tag_67:\n      pop\n      tag_21\n      tag_69\n      calldatasize\n      0x04\n      tag_23\n      jump\t// in\n    tag_69:\n      tag_70\n      jump\t// in\n        /* \"contracts/token factory/Migrator.sol\":7504:7754  function emergencyWithdraw() external onlyOwner {... */\n    tag_14:\n      callvalue\n      dup1\n      iszero\n      tag_71\n      jumpi\n      0x00\n      dup1\n      revert\n    tag_71:\n      pop\n      tag_21\n      tag_73\n      jump\t// in\n        /* \"contracts/token factory/Migrator.sol\":7359:7499  function updateWETH(address _WETH) external onlyOwner {... */\n    tag_15:\n      callvalue\n      dup1\n      iszero\n      tag_74\n      jumpi\n      0x00\n      dup1\n      revert\n    tag_74:\n      pop\n      tag_21\n      tag_76\n      calldatasize\n      0x04\n      tag_23\n      jump\t// in\n    tag_76:\n      tag_77\n      jump\t// in\n        /* \"contracts/token factory/Migrator.sol\":7163:7353  function updateAlgebraUnified(address _algebraUnified) external onlyOwner {... */\n    tag_24:\n        /* \"contracts/token factory/Migrator.sol\":3935:3940  owner */\n      and(sub(shl(0xa0, 0x01), 0x01), sload(0x00))\n        /* \"contracts/token factory/Migrator.sol\":3921:3931  msg.sender */\n      caller\n        /* \"contracts/token factory/Migrator.sol\":3921:3940  msg.sender == owner */\n      eq\n        /* \"contracts/token factory/Migrator.sol\":3913:3969  require(msg.sender == owner, \"Only owner can call this\") */\n      tag_79\n      jumpi\n      mload(0x40)\n      shl(0xe5, 0x461bcd)\n      dup2\n      mstore\n      0x04\n      add\n      tag_80\n      swap1\n      tag_81\n      jump\t// in\n    tag_80:\n      mload(0x40)\n      dup1\n      swap2\n      sub\n      swap1\n      revert\n    tag_79:\n      sub(shl(0xa0, 0x01), 0x01)\n        /* \"contracts/token factory/Migrator.sol\":7255:7284  _algebraUnified != address(0) */\n      dup2\n      and\n        /* \"contracts/token factory/Migrator.sol\":7247:7304  require(_algebraUnified != address(0), \"Invalid address\") */\n      tag_83\n      jumpi\n      mload(0x40)\n      shl(0xe5, 0x461bcd)\n      dup2\n      mstore\n        /* \"#utility.yul\":2676:2678   */\n      0x20\n        /* \"contracts/token factory/Migrator.sol\":7247:7304  require(_algebraUnified != address(0), \"Invalid address\") */\n      0x04\n      dup3\n      add\n        /* \"#utility.yul\":2658:2679   */\n      mstore\n        /* \"#utility.yul\":2715:2717   */\n      0x0f\n        /* \"#utility.yul\":2695:2713   */\n      0x24\n      dup3\n      add\n        /* \"#utility.yul\":2688:2718   */\n      mstore\n      shl(0x88, 0x496e76616c69642061646472657373)\n        /* \"#utility.yul\":2734:2752   */\n      0x44\n      dup3\n      add\n        /* \"#utility.yul\":2727:2772   */\n      mstore\n        /* \"#utility.yul\":2789:2807   */\n      0x64\n      add\n        /* \"contracts/token factory/Migrator.sol\":7247:7304  require(_algebraUnified != address(0), \"Invalid address\") */\n      tag_80\n        /* \"#utility.yul\":2474:2813   */\n      jump\n        /* \"contracts/token factory/Migrator.sol\":7247:7304  require(_algebraUnified != address(0), \"Invalid address\") */\n    tag_83:\n        /* \"contracts/token factory/Migrator.sol\":7314:7328  algebraUnified */\n      0x01\n        /* \"contracts/token factory/Migrator.sol\":7314:7346  algebraUnified = _algebraUnified */\n      dup1\n      sload\n      not(sub(shl(0xa0, 0x01), 0x01))\n      and\n      sub(shl(0xa0, 0x01), 0x01)\n      swap3\n      swap1\n      swap3\n      and\n      swap2\n      swap1\n      swap2\n      or\n      swap1\n      sstore\n        /* \"contracts/token factory/Migrator.sol\":7163:7353  function updateAlgebraUnified(address _algebraUnified) external onlyOwner {... */\n      jump\t// out\n        /* \"contracts/token factory/Migrator.sol\":4288:6504  function initiateMigration(address token, uint256 tokenAmount) external payable  {... */\n    tag_28:\n        /* \"contracts/token factory/Migrator.sol\":4399:4400  0 */\n      0x00\n        /* \"contracts/token factory/Migrator.sol\":4387:4396  msg.value */\n      callvalue\n        /* \"contracts/token factory/Migrator.sol\":4387:4400  msg.value > 0 */\n      gt\n        /* \"contracts/token factory/Migrator.sol\":4379:4443  require(msg.value > 0, \"Ether amount must be greater than zero\") */\n      tag_87\n      jumpi\n      mload(0x40)\n      shl(0xe5, 0x461bcd)\n      dup2\n      mstore\n        /* \"#utility.yul\":3020:3022   */\n      0x20\n        /* \"contracts/token factory/Migrator.sol\":4379:4443  require(msg.value > 0, \"Ether amount must be greater than zero\") */\n      0x04\n      dup3\n      add\n        /* \"#utility.yul\":3002:3023   */\n      mstore\n        /* \"#utility.yul\":3059:3061   */\n      0x26\n        /* \"#utility.yul\":3039:3057   */\n      0x24\n      dup3\n      add\n        /* \"#utility.yul\":3032:3062   */\n      mstore\n        /* \"#utility.yul\":3098:3132   */\n      0x457468657220616d6f756e74206d757374206265206772656174657220746861\n        /* \"#utility.yul\":3078:3096   */\n      0x44\n      dup3\n      add\n        /* \"#utility.yul\":3071:3133   */\n      mstore\n      shl(0xd0, 0x6e207a65726f)\n        /* \"#utility.yul\":3149:3167   */\n      0x64\n      dup3\n      add\n        /* \"#utility.yul\":3142:3178   */\n      mstore\n        /* \"#utility.yul\":3195:3214   */\n      0x84\n      add\n        /* \"contracts/token factory/Migrator.sol\":4379:4443  require(msg.value > 0, \"Ether amount must be greater than zero\") */\n      tag_80\n        /* \"#utility.yul\":2818:3220   */\n      jump\n        /* \"contracts/token factory/Migrator.sol\":4379:4443  require(msg.value > 0, \"Ether amount must be greater than zero\") */\n    tag_87:\n        /* \"contracts/token factory/Migrator.sol\":4475:4476  0 */\n      0x00\n        /* \"contracts/token factory/Migrator.sol\":4461:4472  tokenAmount */\n      dup2\n        /* \"contracts/token factory/Migrator.sol\":4461:4476  tokenAmount > 0 */\n      gt\n        /* \"contracts/token factory/Migrator.sol\":4453:4519  require(tokenAmount > 0, \"Token amount must be greater than zero\") */\n      tag_90\n      jumpi\n      mload(0x40)\n      shl(0xe5, 0x461bcd)\n      dup2\n      mstore\n        /* \"#utility.yul\":3427:3429   */\n      0x20\n        /* \"contracts/token factory/Migrator.sol\":4453:4519  require(tokenAmount > 0, \"Token amount must be greater than zero\") */\n      0x04\n      dup3\n      add\n        /* \"#utility.yul\":3409:3430   */\n      mstore\n        /* \"#utility.yul\":3466:3468   */\n      0x26\n        /* \"#utility.yul\":3446:3464   */\n      0x24\n      dup3\n      add\n        /* \"#utility.yul\":3439:3469   */\n      mstore\n        /* \"#utility.yul\":3505:3539   */\n      0x546f6b656e20616d6f756e74206d757374206265206772656174657220746861\n        /* \"#utility.yul\":3485:3503   */\n      0x44\n      dup3\n      add\n        /* \"#utility.yul\":3478:3540   */\n      mstore\n      shl(0xd0, 0x6e207a65726f)\n        /* \"#utility.yul\":3556:3574   */\n      0x64\n      dup3\n      add\n        /* \"#utility.yul\":3549:3585   */\n      mstore\n        /* \"#utility.yul\":3602:3621   */\n      0x84\n      add\n        /* \"contracts/token factory/Migrator.sol\":4453:4519  require(tokenAmount > 0, \"Token amount must be greater than zero\") */\n      tag_80\n        /* \"#utility.yul\":3225:3627   */\n      jump\n        /* \"contracts/token factory/Migrator.sol\":4453:4519  require(tokenAmount > 0, \"Token amount must be greater than zero\") */\n    tag_90:\n        /* \"contracts/token factory/Migrator.sol\":4530:4557  uint256 adjustedTokenAmount */\n      0x00\n        /* \"contracts/token factory/Migrator.sol\":3493:3509  1_000_000 * 1e18 */\n      0xd3c21bcecceda1000000\n        /* \"contracts/token factory/Migrator.sol\":4560:4571  tokenAmount */\n      dup3\n        /* \"contracts/token factory/Migrator.sol\":4560:4589  tokenAmount > MAX_TOKEN_LIMIT */\n      gt\n        /* \"contracts/token factory/Migrator.sol\":4560:4621  tokenAmount > MAX_TOKEN_LIMIT ? MAX_TOKEN_LIMIT : tokenAmount */\n      tag_93\n      jumpi\n        /* \"contracts/token factory/Migrator.sol\":4610:4621  tokenAmount */\n      dup2\n        /* \"contracts/token factory/Migrator.sol\":4560:4621  tokenAmount > MAX_TOKEN_LIMIT ? MAX_TOKEN_LIMIT : tokenAmount */\n      jump(tag_94)\n    tag_93:\n        /* \"contracts/token factory/Migrator.sol\":3493:3509  1_000_000 * 1e18 */\n      0xd3c21bcecceda1000000\n        /* \"contracts/token factory/Migrator.sol\":4560:4621  tokenAmount > MAX_TOKEN_LIMIT ? MAX_TOKEN_LIMIT : tokenAmount */\n    tag_94:\n        /* \"contracts/token factory/Migrator.sol\":4530:4621  uint256 adjustedTokenAmount = tokenAmount > MAX_TOKEN_LIMIT ? MAX_TOKEN_LIMIT : tokenAmount */\n      swap1\n      pop\n        /* \"contracts/token factory/Migrator.sol\":4631:4656  uint256 adjustedEthAmount */\n      0x00\n        /* \"contracts/token factory/Migrator.sol\":3409:3417  10 ether */\n      0x8ac7230489e80000\n        /* \"contracts/token factory/Migrator.sol\":4659:4668  msg.value */\n      callvalue\n        /* \"contracts/token factory/Migrator.sol\":4659:4684  msg.value > MAX_ETH_LIMIT */\n      gt\n        /* \"contracts/token factory/Migrator.sol\":4659:4712  msg.value > MAX_ETH_LIMIT ? MAX_ETH_LIMIT : msg.value */\n      tag_95\n      jumpi\n        /* \"contracts/token factory/Migrator.sol\":4703:4712  msg.value */\n      callvalue\n        /* \"contracts/token factory/Migrator.sol\":4659:4712  msg.value > MAX_ETH_LIMIT ? MAX_ETH_LIMIT : msg.value */\n      jump(tag_96)\n    tag_95:\n        /* \"contracts/token factory/Migrator.sol\":3409:3417  10 ether */\n      0x8ac7230489e80000\n        /* \"contracts/token factory/Migrator.sol\":4659:4712  msg.value > MAX_ETH_LIMIT ? MAX_ETH_LIMIT : msg.value */\n    tag_96:\n        /* \"contracts/token factory/Migrator.sol\":4631:4712  uint256 adjustedEthAmount = msg.value > MAX_ETH_LIMIT ? MAX_ETH_LIMIT : msg.value */\n      swap1\n      pop\n        /* \"contracts/token factory/Migrator.sol\":4729:4733  WETH */\n      0x02\n      0x00\n      swap1\n      sload\n      swap1\n      0x0100\n      exp\n      swap1\n      div\n      sub(shl(0xa0, 0x01), 0x01)\n      and\n      sub(shl(0xa0, 0x01), 0x01)\n        /* \"contracts/token factory/Migrator.sol\":4723:4742  IWETH(WETH).deposit */\n      and\n      0xd0e30db0\n        /* \"contracts/token factory/Migrator.sol\":4750:4767  adjustedEthAmount */\n      dup3\n        /* \"contracts/token factory/Migrator.sol\":4723:4770  IWETH(WETH).deposit{value: adjustedEthAmount}() */\n      mload(0x40)\n      dup3\n      0xffffffff\n      and\n      0xe0\n      shl\n      dup2\n      mstore\n      0x04\n      add\n      0x00\n      mload(0x40)\n      dup1\n      dup4\n      sub\n      dup2\n      dup6\n      dup9\n      dup1\n      extcodesize\n      iszero\n      dup1\n      iszero\n      tag_97\n      jumpi\n      0x00\n      dup1\n      revert\n    tag_97:\n      pop\n      gas\n      call\n      iszero\n      dup1\n      iszero\n      tag_99\n      jumpi\n      returndatasize\n      0x00\n      dup1\n      returndatacopy\n      revert(0x00, returndatasize)\n    tag_99:\n      pop\n      pop\n        /* \"contracts/token factory/Migrator.sol\":4808:4812  WETH */\n      sload(0x02)\n        /* \"contracts/token factory/Migrator.sol\":4802:4838  IWETH(WETH).balanceOf(address(this)) */\n      mload(0x40)\n      shl(0xe0, 0x70a08231)\n      dup2\n      mstore\n        /* \"contracts/token factory/Migrator.sol\":4832:4836  this */\n      address\n        /* \"contracts/token factory/Migrator.sol\":4802:4838  IWETH(WETH).balanceOf(address(this)) */\n      0x04\n      dup3\n      add\n        /* \"#utility.yul\":1029:1080   */\n      mstore\n        /* \"contracts/token factory/Migrator.sol\":4780:4799  uint256 wethBalance */\n      0x00\n      swap5\n      pop\n      sub(shl(0xa0, 0x01), 0x01)\n        /* \"contracts/token factory/Migrator.sol\":4808:4812  WETH */\n      swap1\n      swap2\n      and\n      swap3\n      pop\n        /* \"contracts/token factory/Migrator.sol\":4802:4823  IWETH(WETH).balanceOf */\n      0x70a08231\n      swap2\n      pop\n        /* \"#utility.yul\":1002:1020   */\n      0x24\n      add\n        /* \"contracts/token factory/Migrator.sol\":4802:4838  IWETH(WETH).balanceOf(address(this)) */\n      0x20\n      mload(0x40)\n      dup1\n      dup4\n      sub\n      dup2\n      dup7\n      gas\n      staticcall\n      iszero\n      dup1\n      iszero\n      tag_102\n      jumpi\n      returndatasize\n      0x00\n      dup1\n      returndatacopy\n      revert(0x00, returndatasize)\n    tag_102:\n      pop\n      pop\n      pop\n      pop\n      mload(0x40)\n      returndatasize\n      not(0x1f)\n      0x1f\n      dup3\n      add\n      and\n      dup3\n      add\n      dup1\n      0x40\n      mstore\n      pop\n      dup2\n      add\n      swap1\n      tag_103\n      swap2\n      swap1\n      tag_104\n      jump\t// in\n    tag_103:\n        /* \"contracts/token factory/Migrator.sol\":4780:4838  uint256 wethBalance = IWETH(WETH).balanceOf(address(this)) */\n      swap1\n      pop\n        /* \"contracts/token factory/Migrator.sol\":4871:4888  adjustedEthAmount */\n      dup2\n        /* \"contracts/token factory/Migrator.sol\":4856:4867  wethBalance */\n      dup2\n        /* \"contracts/token factory/Migrator.sol\":4856:4888  wethBalance >= adjustedEthAmount */\n      lt\n      iszero\n        /* \"contracts/token factory/Migrator.sol\":4848:4923  require(wethBalance >= adjustedEthAmount, \"Failed to wrap Ether into WETH\") */\n      tag_105\n      jumpi\n      mload(0x40)\n      shl(0xe5, 0x461bcd)\n      dup2\n      mstore\n        /* \"#utility.yul\":4069:4071   */\n      0x20\n        /* \"contracts/token factory/Migrator.sol\":4848:4923  require(wethBalance >= adjustedEthAmount, \"Failed to wrap Ether into WETH\") */\n      0x04\n      dup3\n      add\n        /* \"#utility.yul\":4051:4072   */\n      mstore\n        /* \"#utility.yul\":4108:4110   */\n      0x1e\n        /* \"#utility.yul\":4088:4106   */\n      0x24\n      dup3\n      add\n        /* \"#utility.yul\":4081:4111   */\n      mstore\n        /* \"#utility.yul\":4147:4179   */\n      0x4661696c656420746f207772617020457468657220696e746f20574554480000\n        /* \"#utility.yul\":4127:4145   */\n      0x44\n      dup3\n      add\n        /* \"#utility.yul\":4120:4180   */\n      mstore\n        /* \"#utility.yul\":4197:4215   */\n      0x64\n      add\n        /* \"contracts/token factory/Migrator.sol\":4848:4923  require(wethBalance >= adjustedEthAmount, \"Failed to wrap Ether into WETH\") */\n      tag_80\n        /* \"#utility.yul\":3867:4221   */\n      jump\n        /* \"contracts/token factory/Migrator.sol\":4848:4923  require(wethBalance >= adjustedEthAmount, \"Failed to wrap Ether into WETH\") */\n    tag_105:\n        /* \"contracts/token factory/Migrator.sol\":4934:5004  token.safeTransferFrom(msg.sender, address(this), adjustedTokenAmount) */\n      tag_108\n      sub(shl(0xa0, 0x01), 0x01)\n        /* \"contracts/token factory/Migrator.sol\":4934:4956  token.safeTransferFrom */\n      dup7\n      and\n        /* \"contracts/token factory/Migrator.sol\":4957:4967  msg.sender */\n      caller\n        /* \"contracts/token factory/Migrator.sol\":4977:4981  this */\n      address\n        /* \"contracts/token factory/Migrator.sol\":4984:5003  adjustedTokenAmount */\n      dup7\n        /* \"contracts/token factory/Migrator.sol\":4934:4956  token.safeTransferFrom */\n      tag_109\n        /* \"contracts/token factory/Migrator.sol\":4934:5004  token.safeTransferFrom(msg.sender, address(this), adjustedTokenAmount) */\n      jump\t// in\n    tag_108:\n        /* \"contracts/token factory/Migrator.sol\":5041:5045  WETH */\n      sload(0x02)\n        /* \"contracts/token factory/Migrator.sol\":5015:5029  address token0 */\n      0x00\n      swap1\n      sub(shl(0xa0, 0x01), 0x01)\n        /* \"contracts/token factory/Migrator.sol\":5041:5045  WETH */\n      swap1\n      dup2\n      and\n        /* \"contracts/token factory/Migrator.sol\":5033:5045  token < WETH */\n      swap1\n      dup8\n      and\n      lt\n        /* \"contracts/token factory/Migrator.sol\":5032:5061  (token < WETH) ? token : WETH */\n      tag_110\n      jumpi\n        /* \"contracts/token factory/Migrator.sol\":5057:5061  WETH */\n      and(sub(shl(0xa0, 0x01), 0x01), sload(0x02))\n        /* \"contracts/token factory/Migrator.sol\":5032:5061  (token < WETH) ? token : WETH */\n      jump(tag_111)\n    tag_110:\n        /* \"contracts/token factory/Migrator.sol\":5049:5054  token */\n      dup6\n        /* \"contracts/token factory/Migrator.sol\":5032:5061  (token < WETH) ? token : WETH */\n    tag_111:\n        /* \"contracts/token factory/Migrator.sol\":5097:5101  WETH */\n      sload(0x02)\n        /* \"contracts/token factory/Migrator.sol\":5015:5061  address token0 = (token < WETH) ? token : WETH */\n      swap1\n      swap2\n      pop\n        /* \"contracts/token factory/Migrator.sol\":5071:5085  address token1 */\n      0x00\n      swap1\n      sub(shl(0xa0, 0x01), 0x01)\n        /* \"contracts/token factory/Migrator.sol\":5097:5101  WETH */\n      swap1\n      dup2\n      and\n        /* \"contracts/token factory/Migrator.sol\":5089:5101  token < WETH */\n      swap1\n      dup9\n      and\n      lt\n        /* \"contracts/token factory/Migrator.sol\":5088:5117  (token < WETH) ? WETH : token */\n      tag_112\n      jumpi\n        /* \"contracts/token factory/Migrator.sol\":5112:5117  token */\n      dup7\n        /* \"contracts/token factory/Migrator.sol\":5088:5117  (token < WETH) ? WETH : token */\n      jump(tag_113)\n    tag_112:\n        /* \"contracts/token factory/Migrator.sol\":5105:5109  WETH */\n      and(sub(shl(0xa0, 0x01), 0x01), sload(0x02))\n        /* \"contracts/token factory/Migrator.sol\":5088:5117  (token < WETH) ? WETH : token */\n    tag_113:\n        /* \"contracts/token factory/Migrator.sol\":5071:5117  address token1 = (token < WETH) ? WETH : token */\n      swap1\n      pop\n        /* \"contracts/token factory/Migrator.sol\":5128:5148  uint160 sqrtPriceX96 */\n      0x00\n        /* \"contracts/token factory/Migrator.sol\":5151:5212  calculateSqrtPriceX96(adjustedTokenAmount, adjustedEthAmount) */\n      tag_114\n        /* \"contracts/token factory/Migrator.sol\":5173:5192  adjustedTokenAmount */\n      dup7\n        /* \"contracts/token factory/Migrator.sol\":5194:5211  adjustedEthAmount */\n      dup7\n        /* \"contracts/token factory/Migrator.sol\":5151:5172  calculateSqrtPriceX96 */\n      tag_56\n        /* \"contracts/token factory/Migrator.sol\":5151:5212  calculateSqrtPriceX96(adjustedTokenAmount, adjustedEthAmount) */\n      jump\t// in\n    tag_114:\n        /* \"contracts/token factory/Migrator.sol\":5254:5268  algebraUnified */\n      sload(0x01)\n        /* \"contracts/token factory/Migrator.sol\":5238:5404  IAlgebraUnified(algebraUnified).createAndInitializePoolIfNecessary(... */\n      mload(0x40)\n      shl(0xe1, 0x43a9d0cd)\n      dup2\n      mstore\n      sub(shl(0xa0, 0x01), 0x01)\n        /* \"#utility.yul\":4475:4507   */\n      dup7\n      dup2\n      and\n        /* \"contracts/token factory/Migrator.sol\":5238:5404  IAlgebraUnified(algebraUnified).createAndInitializePoolIfNecessary(... */\n      0x04\n      dup4\n      add\n        /* \"#utility.yul\":4457:4508   */\n      mstore\n        /* \"#utility.yul\":4544:4576   */\n      dup6\n      dup2\n      and\n        /* \"#utility.yul\":4524:4542   */\n      0x24\n      dup4\n      add\n        /* \"#utility.yul\":4517:4577   */\n      mstore\n        /* \"contracts/token factory/Migrator.sol\":5223:5235  address pool */\n      0x00\n        /* \"#utility.yul\":4593:4611   */\n      0x44\n      dup4\n      add\n        /* \"#utility.yul\":4586:4646   */\n      dup2\n      swap1\n      mstore\n        /* \"#utility.yul\":4682:4714   */\n      dup2\n      dup6\n      and\n        /* \"#utility.yul\":4662:4680   */\n      0x64\n      dup5\n      add\n        /* \"#utility.yul\":4655:4715   */\n      mstore\n        /* \"contracts/token factory/Migrator.sol\":5128:5212  uint160 sqrtPriceX96 = calculateSqrtPriceX96(adjustedTokenAmount, adjustedEthAmount) */\n      swap4\n      swap5\n      pop\n        /* \"contracts/token factory/Migrator.sol\":5254:5268  algebraUnified */\n      swap1\n      swap2\n      and\n      swap1\n        /* \"contracts/token factory/Migrator.sol\":5238:5304  IAlgebraUnified(algebraUnified).createAndInitializePoolIfNecessary */\n      0x8753a19a\n      swap1\n        /* \"#utility.yul\":4429:4448   */\n      0x84\n      add\n        /* \"contracts/token factory/Migrator.sol\":5238:5404  IAlgebraUnified(algebraUnified).createAndInitializePoolIfNecessary(... */\n      0x20\n      mload(0x40)\n      dup1\n      dup4\n      sub\n      dup2\n      0x00\n      dup8\n      gas\n      call\n      iszero\n      dup1\n      iszero\n      tag_118\n      jumpi\n      returndatasize\n      0x00\n      dup1\n      returndatacopy\n      revert(0x00, returndatasize)\n    tag_118:\n      pop\n      pop\n      pop\n      pop\n      mload(0x40)\n      returndatasize\n      not(0x1f)\n      0x1f\n      dup3\n      add\n      and\n      dup3\n      add\n      dup1\n      0x40\n      mstore\n      pop\n      dup2\n      add\n      swap1\n      tag_119\n      swap2\n      swap1\n      tag_120\n      jump\t// in\n    tag_119:\n        /* \"contracts/token factory/Migrator.sol\":5223:5404  address pool = IAlgebraUnified(algebraUnified).createAndInitializePoolIfNecessary(... */\n      swap1\n      pop\n      sub(shl(0xa0, 0x01), 0x01)\n        /* \"contracts/token factory/Migrator.sol\":5423:5441  pool != address(0) */\n      dup2\n      and\n        /* \"contracts/token factory/Migrator.sol\":5415:5475  require(pool != address(0), \"Failed to create Algebra pool\") */\n      tag_121\n      jumpi\n      mload(0x40)\n      shl(0xe5, 0x461bcd)\n      dup2\n      mstore\n        /* \"#utility.yul\":5184:5186   */\n      0x20\n        /* \"contracts/token factory/Migrator.sol\":5415:5475  require(pool != address(0), \"Failed to create Algebra pool\") */\n      0x04\n      dup3\n      add\n        /* \"#utility.yul\":5166:5187   */\n      mstore\n        /* \"#utility.yul\":5223:5225   */\n      0x1d\n        /* \"#utility.yul\":5203:5221   */\n      0x24\n      dup3\n      add\n        /* \"#utility.yul\":5196:5226   */\n      mstore\n        /* \"#utility.yul\":5262:5293   */\n      0x4661696c656420746f2063726561746520416c676562726120706f6f6c000000\n        /* \"#utility.yul\":5242:5260   */\n      0x44\n      dup3\n      add\n        /* \"#utility.yul\":5235:5294   */\n      mstore\n        /* \"#utility.yul\":5311:5329   */\n      0x64\n      add\n        /* \"contracts/token factory/Migrator.sol\":5415:5475  require(pool != address(0), \"Failed to create Algebra pool\") */\n      tag_80\n        /* \"#utility.yul\":4982:5335   */\n      jump\n        /* \"contracts/token factory/Migrator.sol\":5415:5475  require(pool != address(0), \"Failed to create Algebra pool\") */\n    tag_121:\n        /* \"contracts/token factory/Migrator.sol\":5517:5522  token */\n      dup9\n      sub(shl(0xa0, 0x01), 0x01)\n        /* \"contracts/token factory/Migrator.sol\":5490:5563  MigrationInitialized(pool, token, adjustedTokenAmount, adjustedEthAmount) */\n      and\n        /* \"contracts/token factory/Migrator.sol\":5511:5515  pool */\n      dup2\n      sub(shl(0xa0, 0x01), 0x01)\n        /* \"contracts/token factory/Migrator.sol\":5490:5563  MigrationInitialized(pool, token, adjustedTokenAmount, adjustedEthAmount) */\n      and\n      0x0bc269b08661fa7948aabbb2ac773747166492e0ac63735b66898001e237a1bc\n        /* \"contracts/token factory/Migrator.sol\":5524:5543  adjustedTokenAmount */\n      dup10\n        /* \"contracts/token factory/Migrator.sol\":5545:5562  adjustedEthAmount */\n      dup10\n        /* \"contracts/token factory/Migrator.sol\":5490:5563  MigrationInitialized(pool, token, adjustedTokenAmount, adjustedEthAmount) */\n      mload(0x40)\n      tag_124\n      swap3\n      swap2\n      swap1\n        /* \"#utility.yul\":5514:5539   */\n      swap2\n      dup3\n      mstore\n        /* \"#utility.yul\":5570:5572   */\n      0x20\n        /* \"#utility.yul\":5555:5573   */\n      dup3\n      add\n        /* \"#utility.yul\":5548:5582   */\n      mstore\n        /* \"#utility.yul\":5502:5504   */\n      0x40\n        /* \"#utility.yul\":5487:5505   */\n      add\n      swap1\n        /* \"#utility.yul\":5340:5588   */\n      jump\n        /* \"contracts/token factory/Migrator.sol\":5490:5563  MigrationInitialized(pool, token, adjustedTokenAmount, adjustedEthAmount) */\n    tag_124:\n      mload(0x40)\n      dup1\n      swap2\n      sub\n      swap1\n      log3\n        /* \"contracts/token factory/Migrator.sol\":5592:5606  algebraUnified */\n      sload(0x01)\n        /* \"contracts/token factory/Migrator.sol\":5574:5628  token.safeApprove(algebraUnified, adjustedTokenAmount) */\n      tag_126\n      swap1\n      sub(shl(0xa0, 0x01), 0x01)\n        /* \"contracts/token factory/Migrator.sol\":5574:5591  token.safeApprove */\n      dup12\n      dup2\n      and\n      swap2\n        /* \"contracts/token factory/Migrator.sol\":5592:5606  algebraUnified */\n      and\n        /* \"contracts/token factory/Migrator.sol\":5608:5627  adjustedTokenAmount */\n      dup10\n        /* \"contracts/token factory/Migrator.sol\":5574:5591  token.safeApprove */\n      tag_127\n        /* \"contracts/token factory/Migrator.sol\":5574:5628  token.safeApprove(algebraUnified, adjustedTokenAmount) */\n      jump\t// in\n    tag_126:\n        /* \"contracts/token factory/Migrator.sol\":5655:5669  algebraUnified */\n      sload(0x01)\n        /* \"contracts/token factory/Migrator.sol\":5638:5642  WETH */\n      sload(0x02)\n        /* \"contracts/token factory/Migrator.sol\":5638:5683  WETH.safeApprove(algebraUnified, wethBalance) */\n      tag_128\n      swap2\n      sub(shl(0xa0, 0x01), 0x01)\n        /* \"contracts/token factory/Migrator.sol\":5638:5642  WETH */\n      swap2\n      dup3\n      and\n      swap2\n        /* \"contracts/token factory/Migrator.sol\":5655:5669  algebraUnified */\n      and\n        /* \"contracts/token factory/Migrator.sol\":5671:5682  wethBalance */\n      dup8\n        /* \"contracts/token factory/Migrator.sol\":5638:5654  WETH.safeApprove */\n      tag_127\n        /* \"contracts/token factory/Migrator.sol\":5638:5683  WETH.safeApprove(algebraUnified, wethBalance) */\n      jump\t// in\n    tag_128:\n        /* \"contracts/token factory/Migrator.sol\":5737:6235  IAlgebraUnified.MintParams({... */\n      0x40\n      dup1\n      mload\n      0x0160\n      dup2\n      add\n      dup3\n      mstore\n      sub(shl(0xa0, 0x01), 0x01)\n      dup1\n      dup8\n      and\n      dup1\n      dup4\n      mstore\n      dup7\n      dup3\n      and\n      0x20\n      dup5\n      add\n      mstore\n        /* \"contracts/token factory/Migrator.sol\":5694:5734  IAlgebraUnified.MintParams memory params */\n      0x00\n        /* \"contracts/token factory/Migrator.sol\":5737:6235  IAlgebraUnified.MintParams({... */\n      swap4\n      dup4\n      add\n      dup5\n      swap1\n      mstore\n      not(0x0d89b3)\n      0x60\n      dup5\n      add\n      mstore\n        /* \"contracts/token factory/Migrator.sol\":3356:3362  887220 */\n      0x0d89b4\n        /* \"contracts/token factory/Migrator.sol\":5737:6235  IAlgebraUnified.MintParams({... */\n      0x80\n      dup5\n      add\n      mstore\n      0xa0\n      dup4\n      add\n      swap2\n        /* \"contracts/token factory/Migrator.sol\":5951:5966  token0 == token */\n      dup14\n      and\n      eq\n        /* \"contracts/token factory/Migrator.sol\":5950:6003  (token0 == token) ? adjustedTokenAmount : wethBalance */\n      tag_129\n      jumpi\n        /* \"contracts/token factory/Migrator.sol\":5992:6003  wethBalance */\n      dup8\n        /* \"contracts/token factory/Migrator.sol\":5950:6003  (token0 == token) ? adjustedTokenAmount : wethBalance */\n      jump(tag_130)\n    tag_129:\n        /* \"contracts/token factory/Migrator.sol\":5970:5989  adjustedTokenAmount */\n      dup10\n        /* \"contracts/token factory/Migrator.sol\":5950:6003  (token0 == token) ? adjustedTokenAmount : wethBalance */\n    tag_130:\n        /* \"contracts/token factory/Migrator.sol\":5737:6235  IAlgebraUnified.MintParams({... */\n      dup2\n      mstore\n      0x20\n      add\n        /* \"contracts/token factory/Migrator.sol\":6044:6049  token */\n      dup12\n      sub(shl(0xa0, 0x01), 0x01)\n        /* \"contracts/token factory/Migrator.sol\":6034:6049  token0 == token */\n      and\n        /* \"contracts/token factory/Migrator.sol\":6034:6040  token0 */\n      dup8\n      sub(shl(0xa0, 0x01), 0x01)\n        /* \"contracts/token factory/Migrator.sol\":6034:6049  token0 == token */\n      and\n      eq\n        /* \"contracts/token factory/Migrator.sol\":6033:6086  (token0 == token) ? wethBalance : adjustedTokenAmount */\n      tag_131\n      jumpi\n        /* \"contracts/token factory/Migrator.sol\":6067:6086  adjustedTokenAmount */\n      dup10\n        /* \"contracts/token factory/Migrator.sol\":6033:6086  (token0 == token) ? wethBalance : adjustedTokenAmount */\n      jump(tag_132)\n    tag_131:\n        /* \"contracts/token factory/Migrator.sol\":6053:6064  wethBalance */\n      dup8\n        /* \"contracts/token factory/Migrator.sol\":6033:6086  (token0 == token) ? wethBalance : adjustedTokenAmount */\n    tag_132:\n        /* \"contracts/token factory/Migrator.sol\":5737:6235  IAlgebraUnified.MintParams({... */\n      dup2\n      mstore\n        /* \"contracts/token factory/Migrator.sol\":6112:6113  0 */\n      0x00\n        /* \"contracts/token factory/Migrator.sol\":5737:6235  IAlgebraUnified.MintParams({... */\n      0x20\n      dup3\n      add\n      dup2\n      swap1\n      mstore\n      0x40\n      dup3\n      add\n      mstore\n        /* \"contracts/token factory/Migrator.sol\":6173:6177  this */\n      address\n        /* \"contracts/token factory/Migrator.sol\":5737:6235  IAlgebraUnified.MintParams({... */\n      0x60\n      dup3\n      add\n      mstore\n      0x80\n      add\n        /* \"contracts/token factory/Migrator.sol\":6202:6224  block.timestamp + 3600 */\n      tag_133\n        /* \"contracts/token factory/Migrator.sol\":6202:6217  block.timestamp */\n      timestamp\n        /* \"contracts/token factory/Migrator.sol\":6220:6224  3600 */\n      0x0e10\n        /* \"contracts/token factory/Migrator.sol\":6202:6224  block.timestamp + 3600 */\n      tag_134\n      jump\t// in\n    tag_133:\n        /* \"contracts/token factory/Migrator.sol\":5737:6235  IAlgebraUnified.MintParams({... */\n      swap1\n      mstore\n        /* \"contracts/token factory/Migrator.sol\":6335:6349  algebraUnified */\n      sload(0x01)\n        /* \"contracts/token factory/Migrator.sol\":6319:6363  IAlgebraUnified(algebraUnified).mint(params) */\n      mload(0x40)\n      shl(0xe0, 0xfe3f3be7)\n      dup2\n      mstore\n        /* \"contracts/token factory/Migrator.sol\":5694:6235  IAlgebraUnified.MintParams memory params = IAlgebraUnified.MintParams({... */\n      swap2\n      swap3\n      pop\n        /* \"contracts/token factory/Migrator.sol\":6247:6262  uint256 tokenId */\n      0x00\n      swap2\n      dup3\n      swap2\n      dup3\n      swap2\n      dup3\n      swap2\n      sub(shl(0xa0, 0x01), 0x01)\n        /* \"contracts/token factory/Migrator.sol\":6335:6349  algebraUnified */\n      and\n      swap1\n        /* \"contracts/token factory/Migrator.sol\":6319:6355  IAlgebraUnified(algebraUnified).mint */\n      0xfe3f3be7\n      swap1\n        /* \"contracts/token factory/Migrator.sol\":6319:6363  IAlgebraUnified(algebraUnified).mint(params) */\n      tag_135\n      swap1\n        /* \"contracts/token factory/Migrator.sol\":5694:6235  IAlgebraUnified.MintParams memory params = IAlgebraUnified.MintParams({... */\n      dup9\n      swap1\n        /* \"contracts/token factory/Migrator.sol\":6319:6363  IAlgebraUnified(algebraUnified).mint(params) */\n      0x04\n      add\n      tag_136\n      jump\t// in\n    tag_135:\n      0x80\n      mload(0x40)\n      dup1\n      dup4\n      sub\n      dup2\n      0x00\n      dup8\n      gas\n      call\n      iszero\n      dup1\n      iszero\n      tag_138\n      jumpi\n      returndatasize\n      0x00\n      dup1\n      returndatacopy\n      revert(0x00, returndatasize)\n    tag_138:\n      pop\n      pop\n      pop\n      pop\n      mload(0x40)\n      returndatasize\n      not(0x1f)\n      0x1f\n      dup3\n      add\n      and\n      dup3\n      add\n      dup1\n      0x40\n      mstore\n      pop\n      dup2\n      add\n      swap1\n      tag_139\n      swap2\n      swap1\n      tag_140\n      jump\t// in\n    tag_139:\n        /* \"contracts/token factory/Migrator.sol\":6246:6363  (uint256 tokenId, uint128 liquidity, uint256 amount0, uint256 amount1) = IAlgebraUnified(algebraUnified).mint(params) */\n      swap4\n      pop\n      swap4\n      pop\n      swap4\n      pop\n      swap4\n      pop\n        /* \"contracts/token factory/Migrator.sol\":6394:6395  0 */\n      0x00\n        /* \"contracts/token factory/Migrator.sol\":6382:6391  liquidity */\n      dup4\n      sub(shl(0x80, 0x01), 0x01)\n        /* \"contracts/token factory/Migrator.sol\":6382:6395  liquidity > 0 */\n      and\n      gt\n        /* \"contracts/token factory/Migrator.sol\":6374:6424  require(liquidity > 0, \"Failed to mint liquidity\") */\n      tag_141\n      jumpi\n      mload(0x40)\n      shl(0xe5, 0x461bcd)\n      dup2\n      mstore\n        /* \"#utility.yul\":7847:7849   */\n      0x20\n        /* \"contracts/token factory/Migrator.sol\":6374:6424  require(liquidity > 0, \"Failed to mint liquidity\") */\n      0x04\n      dup3\n      add\n        /* \"#utility.yul\":7829:7850   */\n      mstore\n        /* \"#utility.yul\":7886:7888   */\n      0x18\n        /* \"#utility.yul\":7866:7884   */\n      0x24\n      dup3\n      add\n        /* \"#utility.yul\":7859:7889   */\n      mstore\n        /* \"#utility.yul\":7925:7951   */\n      0x4661696c656420746f206d696e74206c69717569646974790000000000000000\n        /* \"#utility.yul\":7905:7923   */\n      0x44\n      dup3\n      add\n        /* \"#utility.yul\":7898:7952   */\n      mstore\n        /* \"#utility.yul\":7969:7987   */\n      0x64\n      add\n        /* \"contracts/token factory/Migrator.sol\":6374:6424  require(liquidity > 0, \"Failed to mint liquidity\") */\n      tag_80\n        /* \"#utility.yul\":7645:7993   */\n      jump\n        /* \"contracts/token factory/Migrator.sol\":6374:6424  require(liquidity > 0, \"Failed to mint liquidity\") */\n    tag_141:\n        /* \"contracts/token factory/Migrator.sol\":6439:6497  LiquidityAdded(pool, tokenId, liquidity, amount0, amount1) */\n      0x40\n      dup1\n      mload\n        /* \"#utility.yul\":8229:8254   */\n      dup6\n      dup2\n      mstore\n      sub(shl(0x80, 0x01), 0x01)\n        /* \"#utility.yul\":8290:8337   */\n      dup6\n      and\n        /* \"#utility.yul\":8285:8287   */\n      0x20\n        /* \"#utility.yul\":8270:8288   */\n      dup3\n      add\n        /* \"#utility.yul\":8263:8338   */\n      mstore\n        /* \"#utility.yul\":8354:8372   */\n      swap1\n      dup2\n      add\n        /* \"#utility.yul\":8347:8381   */\n      dup4\n      swap1\n      mstore\n        /* \"#utility.yul\":8412:8414   */\n      0x60\n        /* \"#utility.yul\":8397:8415   */\n      dup2\n      add\n        /* \"#utility.yul\":8390:8424   */\n      dup3\n      swap1\n      mstore\n      sub(shl(0xa0, 0x01), 0x01)\n        /* \"contracts/token factory/Migrator.sol\":6439:6497  LiquidityAdded(pool, tokenId, liquidity, amount0, amount1) */\n      dup8\n      and\n      swap1\n      0x936f1605239d50a44520651cb0698a8f77eea34a13f43a4eac22872b1baf48cc\n      swap1\n        /* \"#utility.yul\":8216:8219   */\n      0x80\n        /* \"#utility.yul\":8201:8220   */\n      add\n        /* \"contracts/token factory/Migrator.sol\":6439:6497  LiquidityAdded(pool, tokenId, liquidity, amount0, amount1) */\n      mload(0x40)\n      dup1\n      swap2\n      sub\n      swap1\n      log2\n        /* \"contracts/token factory/Migrator.sol\":4369:6504  {... */\n      pop\n      pop\n      pop\n      pop\n      pop\n      pop\n      pop\n      pop\n      pop\n      pop\n      pop\n      pop\n        /* \"contracts/token factory/Migrator.sol\":4288:6504  function initiateMigration(address token, uint256 tokenAmount) external payable  {... */\n      pop\n      pop\n      jump\t// out\n        /* \"contracts/token factory/Migrator.sol\":6510:6927  function calculateSqrtPriceX96(uint256 tokenAmount, uint256 ethAmount) public pure returns (uint160) {... */\n    tag_56:\n        /* \"contracts/token factory/Migrator.sol\":6602:6609  uint160 */\n      0x00\n        /* \"contracts/token factory/Migrator.sol\":6621:6648  uint256 adjustedTokenAmount */\n      dup1\n        /* \"contracts/token factory/Migrator.sol\":3493:3509  1_000_000 * 1e18 */\n      0xd3c21bcecceda1000000\n        /* \"contracts/token factory/Migrator.sol\":6651:6662  tokenAmount */\n      dup5\n        /* \"contracts/token factory/Migrator.sol\":6651:6680  tokenAmount > MAX_TOKEN_LIMIT */\n      gt\n        /* \"contracts/token factory/Migrator.sol\":6651:6712  tokenAmount > MAX_TOKEN_LIMIT ? MAX_TOKEN_LIMIT : tokenAmount */\n      tag_147\n      jumpi\n        /* \"contracts/token factory/Migrator.sol\":6701:6712  tokenAmount */\n      dup4\n        /* \"contracts/token factory/Migrator.sol\":6651:6712  tokenAmount > MAX_TOKEN_LIMIT ? MAX_TOKEN_LIMIT : tokenAmount */\n      jump(tag_148)\n    tag_147:\n        /* \"contracts/token factory/Migrator.sol\":3493:3509  1_000_000 * 1e18 */\n      0xd3c21bcecceda1000000\n        /* \"contracts/token factory/Migrator.sol\":6651:6712  tokenAmount > MAX_TOKEN_LIMIT ? MAX_TOKEN_LIMIT : tokenAmount */\n    tag_148:\n        /* \"contracts/token factory/Migrator.sol\":6621:6712  uint256 adjustedTokenAmount = tokenAmount > MAX_TOKEN_LIMIT ? MAX_TOKEN_LIMIT : tokenAmount */\n      swap1\n      pop\n        /* \"contracts/token factory/Migrator.sol\":6722:6747  uint256 adjustedEthAmount */\n      0x00\n        /* \"contracts/token factory/Migrator.sol\":3409:3417  10 ether */\n      0x8ac7230489e80000\n        /* \"contracts/token factory/Migrator.sol\":6750:6759  ethAmount */\n      dup5\n        /* \"contracts/token factory/Migrator.sol\":6750:6775  ethAmount > MAX_ETH_LIMIT */\n      gt\n        /* \"contracts/token factory/Migrator.sol\":6750:6803  ethAmount > MAX_ETH_LIMIT ? MAX_ETH_LIMIT : ethAmount */\n      tag_149\n      jumpi\n        /* \"contracts/token factory/Migrator.sol\":6794:6803  ethAmount */\n      dup4\n        /* \"contracts/token factory/Migrator.sol\":6750:6803  ethAmount > MAX_ETH_LIMIT ? MAX_ETH_LIMIT : ethAmount */\n      jump(tag_150)\n    tag_149:\n        /* \"contracts/token factory/Migrator.sol\":3409:3417  10 ether */\n      0x8ac7230489e80000\n        /* \"contracts/token factory/Migrator.sol\":6750:6803  ethAmount > MAX_ETH_LIMIT ? MAX_ETH_LIMIT : ethAmount */\n    tag_150:\n        /* \"contracts/token factory/Migrator.sol\":6722:6803  uint256 adjustedEthAmount = ethAmount > MAX_ETH_LIMIT ? MAX_ETH_LIMIT : ethAmount */\n      swap1\n      pop\n        /* \"contracts/token factory/Migrator.sol\":6814:6827  uint256 ratio */\n      0x00\n        /* \"contracts/token factory/Migrator.sol\":6830:6877  (adjustedEthAmount << 96) / adjustedTokenAmount */\n      tag_151\n        /* \"contracts/token factory/Migrator.sol\":6858:6877  adjustedTokenAmount */\n      dup4\n        /* \"contracts/token factory/Migrator.sol\":6852:6854  96 */\n      0x60\n        /* \"contracts/token factory/Migrator.sol\":6831:6854  adjustedEthAmount << 96 */\n      dup5\n      swap1\n      shl\n        /* \"contracts/token factory/Migrator.sol\":6830:6877  (adjustedEthAmount << 96) / adjustedTokenAmount */\n      tag_152\n      jump\t// in\n    tag_151:\n        /* \"contracts/token factory/Migrator.sol\":6814:6877  uint256 ratio = (adjustedEthAmount << 96) / adjustedTokenAmount */\n      swap1\n      pop\n        /* \"contracts/token factory/Migrator.sol\":6917:6919  48 */\n      0x30\n        /* \"contracts/token factory/Migrator.sol\":6902:6913  sqrt(ratio) */\n      tag_153\n        /* \"contracts/token factory/Migrator.sol\":6907:6912  ratio */\n      dup3\n        /* \"contracts/token factory/Migrator.sol\":6902:6906  sqrt */\n      tag_154\n        /* \"contracts/token factory/Migrator.sol\":6902:6913  sqrt(ratio) */\n      jump\t// in\n    tag_153:\n        /* \"contracts/token factory/Migrator.sol\":6902:6919  sqrt(ratio) << 48 */\n      swap1\n      shl\n        /* \"contracts/token factory/Migrator.sol\":6887:6920  return uint160(sqrt(ratio) << 48) */\n      swap4\n      pop\n      pop\n      pop\n      pop\n        /* \"contracts/token factory/Migrator.sol\":6510:6927  function calculateSqrtPriceX96(uint256 tokenAmount, uint256 ethAmount) public pure returns (uint160) {... */\n    tag_146:\n      swap3\n      swap2\n      pop\n      pop\n      jump\t// out\n        /* \"contracts/token factory/Migrator.sol\":7756:7998  function emergencyWithdrawTokens(address token) external onlyOwner {... */\n    tag_70:\n        /* \"contracts/token factory/Migrator.sol\":3935:3940  owner */\n      and(sub(shl(0xa0, 0x01), 0x01), sload(0x00))\n        /* \"contracts/token factory/Migrator.sol\":3921:3931  msg.sender */\n      caller\n        /* \"contracts/token factory/Migrator.sol\":3921:3940  msg.sender == owner */\n      eq\n        /* \"contracts/token factory/Migrator.sol\":3913:3969  require(msg.sender == owner, \"Only owner can call this\") */\n      tag_156\n      jumpi\n      mload(0x40)\n      shl(0xe5, 0x461bcd)\n      dup2\n      mstore\n      0x04\n      add\n      tag_80\n      swap1\n      tag_81\n      jump\t// in\n    tag_156:\n        /* \"contracts/token factory/Migrator.sol\":7852:7890  IERC20(token).balanceOf(address(this)) */\n      mload(0x40)\n      shl(0xe0, 0x70a08231)\n      dup2\n      mstore\n        /* \"contracts/token factory/Migrator.sol\":7884:7888  this */\n      address\n        /* \"contracts/token factory/Migrator.sol\":7852:7890  IERC20(token).balanceOf(address(this)) */\n      0x04\n      dup3\n      add\n        /* \"#utility.yul\":1029:1080   */\n      mstore\n        /* \"contracts/token factory/Migrator.sol\":7829:7849  uint256 tokenBalance */\n      0x00\n      swap1\n      sub(shl(0xa0, 0x01), 0x01)\n        /* \"contracts/token factory/Migrator.sol\":7852:7875  IERC20(token).balanceOf */\n      dup4\n      and\n      swap1\n      0x70a08231\n      swap1\n        /* \"#utility.yul\":1002:1020   */\n      0x24\n      add\n        /* \"contracts/token factory/Migrator.sol\":7852:7890  IERC20(token).balanceOf(address(this)) */\n      0x20\n      mload(0x40)\n      dup1\n      dup4\n      sub\n      dup2\n      dup7\n      gas\n      staticcall\n      iszero\n      dup1\n      iszero\n      tag_161\n      jumpi\n      returndatasize\n      0x00\n      dup1\n      returndatacopy\n      revert(0x00, returndatasize)\n    tag_161:\n      pop\n      pop\n      pop\n      pop\n      mload(0x40)\n      returndatasize\n      not(0x1f)\n      0x1f\n      dup3\n      add\n      and\n      dup3\n      add\n      dup1\n      0x40\n      mstore\n      pop\n      dup2\n      add\n      swap1\n      tag_162\n      swap2\n      swap1\n      tag_104\n      jump\t// in\n    tag_162:\n        /* \"contracts/token factory/Migrator.sol\":7829:7890  uint256 tokenBalance = IERC20(token).balanceOf(address(this)) */\n      swap1\n      pop\n        /* \"contracts/token factory/Migrator.sol\":7919:7920  0 */\n      0x00\n        /* \"contracts/token factory/Migrator.sol\":7904:7916  tokenBalance */\n      dup2\n        /* \"contracts/token factory/Migrator.sol\":7904:7920  tokenBalance > 0 */\n      gt\n        /* \"contracts/token factory/Migrator.sol\":7896:7946  require(tokenBalance > 0, \"No tokens to withdraw\") */\n      tag_163\n      jumpi\n      mload(0x40)\n      shl(0xe5, 0x461bcd)\n      dup2\n      mstore\n        /* \"#utility.yul\":8859:8861   */\n      0x20\n        /* \"contracts/token factory/Migrator.sol\":7896:7946  require(tokenBalance > 0, \"No tokens to withdraw\") */\n      0x04\n      dup3\n      add\n        /* \"#utility.yul\":8841:8862   */\n      mstore\n        /* \"#utility.yul\":8898:8900   */\n      0x15\n        /* \"#utility.yul\":8878:8896   */\n      0x24\n      dup3\n      add\n        /* \"#utility.yul\":8871:8901   */\n      mstore\n      shl(0x58, 0x4e6f20746f6b656e7320746f207769746864726177)\n        /* \"#utility.yul\":8917:8935   */\n      0x44\n      dup3\n      add\n        /* \"#utility.yul\":8910:8961   */\n      mstore\n        /* \"#utility.yul\":8978:8996   */\n      0x64\n      add\n        /* \"contracts/token factory/Migrator.sol\":7896:7946  require(tokenBalance > 0, \"No tokens to withdraw\") */\n      tag_80\n        /* \"#utility.yul\":8657:9002   */\n      jump\n        /* \"contracts/token factory/Migrator.sol\":7896:7946  require(tokenBalance > 0, \"No tokens to withdraw\") */\n    tag_163:\n        /* \"contracts/token factory/Migrator.sol\":7975:7980  owner */\n      sload(0x00)\n        /* \"contracts/token factory/Migrator.sol\":7952:7995  IERC20(token).transfer(owner, tokenBalance) */\n      mload(0x40)\n      shl(0xe0, 0xa9059cbb)\n      dup2\n      mstore\n      sub(shl(0xa0, 0x01), 0x01)\n        /* \"contracts/token factory/Migrator.sol\":7975:7980  owner */\n      swap2\n      dup3\n      and\n        /* \"contracts/token factory/Migrator.sol\":7952:7995  IERC20(token).transfer(owner, tokenBalance) */\n      0x04\n      dup3\n      add\n        /* \"#utility.yul\":9181:9232   */\n      mstore\n        /* \"#utility.yul\":9248:9266   */\n      0x24\n      dup2\n      add\n        /* \"#utility.yul\":9241:9275   */\n      dup4\n      swap1\n      mstore\n        /* \"contracts/token factory/Migrator.sol\":7952:7974  IERC20(token).transfer */\n      swap1\n      dup4\n      and\n      swap1\n      0xa9059cbb\n      swap1\n        /* \"#utility.yul\":9154:9172   */\n      0x44\n      add\n        /* \"contracts/token factory/Migrator.sol\":7952:7995  IERC20(token).transfer(owner, tokenBalance) */\n      0x20\n      mload(0x40)\n      dup1\n      dup4\n      sub\n      dup2\n      0x00\n      dup8\n      gas\n      call\n      iszero\n      dup1\n      iszero\n      tag_169\n      jumpi\n      returndatasize\n      0x00\n      dup1\n      returndatacopy\n      revert(0x00, returndatasize)\n    tag_169:\n      pop\n      pop\n      pop\n      pop\n      mload(0x40)\n      returndatasize\n      not(0x1f)\n      0x1f\n      dup3\n      add\n      and\n      dup3\n      add\n      dup1\n      0x40\n      mstore\n      pop\n      dup2\n      add\n      swap1\n      tag_170\n      swap2\n      swap1\n      tag_171\n      jump\t// in\n    tag_170:\n      pop\n        /* \"contracts/token factory/Migrator.sol\":7823:7998  {... */\n      pop\n        /* \"contracts/token factory/Migrator.sol\":7756:7998  function emergencyWithdrawTokens(address token) external onlyOwner {... */\n      pop\n      jump\t// out\n        /* \"contracts/token factory/Migrator.sol\":7504:7754  function emergencyWithdraw() external onlyOwner {... */\n    tag_73:\n        /* \"contracts/token factory/Migrator.sol\":3935:3940  owner */\n      and(sub(shl(0xa0, 0x01), 0x01), sload(0x00))\n        /* \"contracts/token factory/Migrator.sol\":3921:3931  msg.sender */\n      caller\n        /* \"contracts/token factory/Migrator.sol\":3921:3940  msg.sender == owner */\n      eq\n        /* \"contracts/token factory/Migrator.sol\":3913:3969  require(msg.sender == owner, \"Only owner can call this\") */\n      tag_173\n      jumpi\n      mload(0x40)\n      shl(0xe5, 0x461bcd)\n      dup2\n      mstore\n      0x04\n      add\n      tag_80\n      swap1\n      tag_81\n      jump\t// in\n    tag_173:\n        /* \"contracts/token factory/Migrator.sol\":7581:7602  address(this).balance */\n      selfbalance\n        /* \"contracts/token factory/Migrator.sol\":7612:7628  etherBalance > 0 */\n      dup1\n      iszero\n        /* \"contracts/token factory/Migrator.sol\":7608:7752  if (etherBalance > 0) {... */\n      tag_176\n      jumpi\n        /* \"contracts/token factory/Migrator.sol\":7641:7653  bool success */\n      0x00\n        /* \"contracts/token factory/Migrator.sol\":7659:7664  owner */\n      dup1\n      sload\n        /* \"contracts/token factory/Migrator.sol\":7659:7694  owner.call{value: etherBalance}(\"\") */\n      mload(0x40)\n      sub(shl(0xa0, 0x01), 0x01)\n        /* \"contracts/token factory/Migrator.sol\":7659:7664  owner */\n      swap1\n      swap2\n      and\n      swap1\n        /* \"contracts/token factory/Migrator.sol\":7677:7689  etherBalance */\n      dup4\n      swap1\n        /* \"contracts/token factory/Migrator.sol\":7641:7653  bool success */\n      dup4\n        /* \"contracts/token factory/Migrator.sol\":7659:7694  owner.call{value: etherBalance}(\"\") */\n      dup2\n        /* \"contracts/token factory/Migrator.sol\":7641:7653  bool success */\n      dup2\n        /* \"contracts/token factory/Migrator.sol\":7659:7694  owner.call{value: etherBalance}(\"\") */\n      dup2\n        /* \"contracts/token factory/Migrator.sol\":7677:7689  etherBalance */\n      dup6\n        /* \"contracts/token factory/Migrator.sol\":7659:7664  owner */\n      dup8\n        /* \"contracts/token factory/Migrator.sol\":7659:7694  owner.call{value: etherBalance}(\"\") */\n      gas\n      call\n      swap3\n      pop\n      pop\n      pop\n      returndatasize\n      dup1\n      0x00\n      dup2\n      eq\n      tag_181\n      jumpi\n      mload(0x40)\n      swap2\n      pop\n      and(add(returndatasize, 0x3f), not(0x1f))\n      dup3\n      add\n      0x40\n      mstore\n      returndatasize\n      dup3\n      mstore\n      returndatasize\n      0x00\n      0x20\n      dup5\n      add\n      returndatacopy\n      jump(tag_180)\n    tag_181:\n      0x60\n      swap2\n      pop\n    tag_180:\n      pop\n        /* \"contracts/token factory/Migrator.sol\":7640:7694  (bool success, ) = owner.call{value: etherBalance}(\"\") */\n      pop\n      swap1\n      pop\n        /* \"contracts/token factory/Migrator.sol\":7712:7719  success */\n      dup1\n        /* \"contracts/token factory/Migrator.sol\":7704:7745  require(success, \"Ether withdraw failed\") */\n      tag_182\n      jumpi\n      mload(0x40)\n      shl(0xe5, 0x461bcd)\n      dup2\n      mstore\n        /* \"#utility.yul\":9980:9982   */\n      0x20\n        /* \"contracts/token factory/Migrator.sol\":7704:7745  require(success, \"Ether withdraw failed\") */\n      0x04\n      dup3\n      add\n        /* \"#utility.yul\":9962:9983   */\n      mstore\n        /* \"#utility.yul\":10019:10021   */\n      0x15\n        /* \"#utility.yul\":9999:10017   */\n      0x24\n      dup3\n      add\n        /* \"#utility.yul\":9992:10022   */\n      mstore\n      shl(0x5a, 0x115d1a195c881dda5d1a191c985dc819985a5b1959)\n        /* \"#utility.yul\":10038:10056   */\n      0x44\n      dup3\n      add\n        /* \"#utility.yul\":10031:10082   */\n      mstore\n        /* \"#utility.yul\":10099:10117   */\n      0x64\n      add\n        /* \"contracts/token factory/Migrator.sol\":7704:7745  require(success, \"Ether withdraw failed\") */\n      tag_80\n        /* \"#utility.yul\":9778:10123   */\n      jump\n        /* \"contracts/token factory/Migrator.sol\":7704:7745  require(success, \"Ether withdraw failed\") */\n    tag_182:\n        /* \"contracts/token factory/Migrator.sol\":7630:7752  {... */\n      pop\n        /* \"contracts/token factory/Migrator.sol\":7608:7752  if (etherBalance > 0) {... */\n    tag_176:\n        /* \"contracts/token factory/Migrator.sol\":7552:7754  {... */\n      pop\n        /* \"contracts/token factory/Migrator.sol\":7504:7754  function emergencyWithdraw() external onlyOwner {... */\n      jump\t// out\n        /* \"contracts/token factory/Migrator.sol\":7359:7499  function updateWETH(address _WETH) external onlyOwner {... */\n    tag_77:\n        /* \"contracts/token factory/Migrator.sol\":3935:3940  owner */\n      and(sub(shl(0xa0, 0x01), 0x01), sload(0x00))\n        /* \"contracts/token factory/Migrator.sol\":3921:3931  msg.sender */\n      caller\n        /* \"contracts/token factory/Migrator.sol\":3921:3940  msg.sender == owner */\n      eq\n        /* \"contracts/token factory/Migrator.sol\":3913:3969  require(msg.sender == owner, \"Only owner can call this\") */\n      tag_186\n      jumpi\n      mload(0x40)\n      shl(0xe5, 0x461bcd)\n      dup2\n      mstore\n      0x04\n      add\n      tag_80\n      swap1\n      tag_81\n      jump\t// in\n    tag_186:\n      sub(shl(0xa0, 0x01), 0x01)\n        /* \"contracts/token factory/Migrator.sol\":7431:7450  _WETH != address(0) */\n      dup2\n      and\n        /* \"contracts/token factory/Migrator.sol\":7423:7470  require(_WETH != address(0), \"Invalid address\") */\n      tag_189\n      jumpi\n      mload(0x40)\n      shl(0xe5, 0x461bcd)\n      dup2\n      mstore\n        /* \"#utility.yul\":2676:2678   */\n      0x20\n        /* \"contracts/token factory/Migrator.sol\":7423:7470  require(_WETH != address(0), \"Invalid address\") */\n      0x04\n      dup3\n      add\n        /* \"#utility.yul\":2658:2679   */\n      mstore\n        /* \"#utility.yul\":2715:2717   */\n      0x0f\n        /* \"#utility.yul\":2695:2713   */\n      0x24\n      dup3\n      add\n        /* \"#utility.yul\":2688:2718   */\n      mstore\n      shl(0x88, 0x496e76616c69642061646472657373)\n        /* \"#utility.yul\":2734:2752   */\n      0x44\n      dup3\n      add\n        /* \"#utility.yul\":2727:2772   */\n      mstore\n        /* \"#utility.yul\":2789:2807   */\n      0x64\n      add\n        /* \"contracts/token factory/Migrator.sol\":7423:7470  require(_WETH != address(0), \"Invalid address\") */\n      tag_80\n        /* \"#utility.yul\":2474:2813   */\n      jump\n        /* \"contracts/token factory/Migrator.sol\":7423:7470  require(_WETH != address(0), \"Invalid address\") */\n    tag_189:\n        /* \"contracts/token factory/Migrator.sol\":7480:7484  WETH */\n      0x02\n        /* \"contracts/token factory/Migrator.sol\":7480:7492  WETH = _WETH */\n      dup1\n      sload\n      not(sub(shl(0xa0, 0x01), 0x01))\n      and\n      sub(shl(0xa0, 0x01), 0x01)\n      swap3\n      swap1\n      swap3\n      and\n      swap2\n      swap1\n      swap2\n      or\n      swap1\n      sstore\n        /* \"contracts/token factory/Migrator.sol\":7359:7499  function updateWETH(address _WETH) external onlyOwner {... */\n      jump\t// out\n        /* \"contracts/token factory/Migrator.sol\":1601:2082  function safeTransferFrom(... */\n    tag_109:\n        /* \"contracts/token factory/Migrator.sol\":1800:1954  abi.encodeWithSelector(... */\n      0x40\n      dup1\n      mload\n      sub(shl(0xa0, 0x01), 0x01)\n        /* \"#utility.yul\":10348:10380   */\n      dup6\n      dup2\n      and\n        /* \"contracts/token factory/Migrator.sol\":1800:1954  abi.encodeWithSelector(... */\n      0x24\n      dup4\n      add\n        /* \"#utility.yul\":10330:10381   */\n      mstore\n        /* \"#utility.yul\":10417:10449   */\n      dup5\n      dup2\n      and\n        /* \"#utility.yul\":10397:10415   */\n      0x44\n      dup4\n      add\n        /* \"#utility.yul\":10390:10450   */\n      mstore\n        /* \"#utility.yul\":10466:10484   */\n      0x64\n      dup1\n      dup4\n      add\n        /* \"#utility.yul\":10459:10493   */\n      dup6\n      swap1\n      mstore\n        /* \"contracts/token factory/Migrator.sol\":1800:1954  abi.encodeWithSelector(... */\n      dup4\n      mload\n      dup1\n      dup5\n      sub\n      swap1\n      swap2\n      add\n      dup2\n      mstore\n        /* \"#utility.yul\":10303:10321   */\n      0x84\n      swap1\n      swap3\n      add\n        /* \"contracts/token factory/Migrator.sol\":1800:1954  abi.encodeWithSelector(... */\n      dup4\n      mstore\n      0x20\n      dup3\n      add\n      dup1\n      mload\n      sub(shl(0xe0, 0x01), 0x01)\n      and\n      shl(0xe0, 0x23b872dd)\n      or\n      swap1\n      mstore\n        /* \"contracts/token factory/Migrator.sol\":1776:1964  token.call(... */\n      swap2\n      mload\n      0x00\n      swap3\n      dup4\n      swap3\n        /* \"contracts/token factory/Migrator.sol\":1776:1786  token.call */\n      swap1\n      dup9\n      and\n      swap2\n        /* \"contracts/token factory/Migrator.sol\":1776:1964  token.call(... */\n      tag_194\n      swap2\n        /* \"contracts/token factory/Migrator.sol\":1800:1954  abi.encodeWithSelector(... */\n      swap1\n        /* \"contracts/token factory/Migrator.sol\":1776:1964  token.call(... */\n      tag_195\n      jump\t// in\n    tag_194:\n      0x00\n      mload(0x40)\n      dup1\n      dup4\n      sub\n      dup2\n      0x00\n      dup7\n      gas\n      call\n      swap2\n      pop\n      pop\n      returndatasize\n      dup1\n      0x00\n      dup2\n      eq\n      tag_198\n      jumpi\n      mload(0x40)\n      swap2\n      pop\n      and(add(returndatasize, 0x3f), not(0x1f))\n      dup3\n      add\n      0x40\n      mstore\n      returndatasize\n      dup3\n      mstore\n      returndatasize\n      0x00\n      0x20\n      dup5\n      add\n      returndatacopy\n      jump(tag_197)\n    tag_198:\n      0x60\n      swap2\n      pop\n    tag_197:\n      pop\n        /* \"contracts/token factory/Migrator.sol\":1740:1964  (bool success, bytes memory data) = token.call(... */\n      swap2\n      pop\n      swap2\n      pop\n        /* \"contracts/token factory/Migrator.sol\":1979:1986  success */\n      dup2\n        /* \"contracts/token factory/Migrator.sol\":1978:1986  !success */\n      iszero\n        /* \"contracts/token factory/Migrator.sol\":1978:2037  !success || (data.length != 0 && !abi.decode(data, (bool))) */\n      dup1\n      tag_200\n      jumpi\n      pop\n        /* \"contracts/token factory/Migrator.sol\":1991:2002  data.length */\n      dup1\n      mload\n        /* \"contracts/token factory/Migrator.sol\":1991:2007  data.length != 0 */\n      iszero\n      dup1\n      iszero\n      swap1\n        /* \"contracts/token factory/Migrator.sol\":1991:2036  data.length != 0 && !abi.decode(data, (bool)) */\n      tag_200\n      jumpi\n      pop\n        /* \"contracts/token factory/Migrator.sol\":2023:2027  data */\n      dup1\n        /* \"contracts/token factory/Migrator.sol\":2012:2036  abi.decode(data, (bool)) */\n      dup1\n      0x20\n      add\n      swap1\n      mload\n      dup2\n      add\n      swap1\n      tag_201\n      swap2\n      swap1\n      tag_171\n      jump\t// in\n    tag_201:\n        /* \"contracts/token factory/Migrator.sol\":2011:2036  !abi.decode(data, (bool)) */\n      iszero\n        /* \"contracts/token factory/Migrator.sol\":1991:2036  data.length != 0 && !abi.decode(data, (bool)) */\n    tag_200:\n        /* \"contracts/token factory/Migrator.sol\":1974:2076  if (!success || (data.length != 0 && !abi.decode(data, (bool)))) {... */\n      iszero\n      tag_202\n      jumpi\n        /* \"contracts/token factory/Migrator.sol\":2060:2065  STF() */\n      mload(0x40)\n      shl(0xe0, 0x817275ab)\n      dup2\n      mstore\n      0x04\n      add\n      mload(0x40)\n      dup1\n      swap2\n      sub\n      swap1\n      revert\n        /* \"contracts/token factory/Migrator.sol\":1974:2076  if (!success || (data.length != 0 && !abi.decode(data, (bool)))) {... */\n    tag_202:\n        /* \"contracts/token factory/Migrator.sol\":1730:2082  {... */\n      pop\n      pop\n        /* \"contracts/token factory/Migrator.sol\":1601:2082  function safeTransferFrom(... */\n      pop\n      pop\n      pop\n      pop\n      jump\t// out\n        /* \"contracts/token factory/Migrator.sol\":2506:2932  function safeApprove(... */\n    tag_127:\n        /* \"contracts/token factory/Migrator.sol\":2678:2805  abi.encodeWithSelector(... */\n      0x40\n      dup1\n      mload\n      sub(shl(0xa0, 0x01), 0x01)\n        /* \"#utility.yul\":9199:9231   */\n      dup5\n      dup2\n      and\n        /* \"contracts/token factory/Migrator.sol\":2678:2805  abi.encodeWithSelector(... */\n      0x24\n      dup4\n      add\n        /* \"#utility.yul\":9181:9232   */\n      mstore\n        /* \"#utility.yul\":9248:9266   */\n      0x44\n      dup1\n      dup4\n      add\n        /* \"#utility.yul\":9241:9275   */\n      dup6\n      swap1\n      mstore\n        /* \"contracts/token factory/Migrator.sol\":2678:2805  abi.encodeWithSelector(... */\n      dup4\n      mload\n      dup1\n      dup5\n      sub\n      swap1\n      swap2\n      add\n      dup2\n      mstore\n        /* \"#utility.yul\":9154:9172   */\n      0x64\n      swap1\n      swap3\n      add\n        /* \"contracts/token factory/Migrator.sol\":2678:2805  abi.encodeWithSelector(... */\n      dup4\n      mstore\n      0x20\n      dup3\n      add\n      dup1\n      mload\n      sub(shl(0xe0, 0x01), 0x01)\n      and\n      shl(0xe0, 0x095ea7b3)\n      or\n      swap1\n      mstore\n        /* \"contracts/token factory/Migrator.sol\":2654:2815  token.call(... */\n      swap2\n      mload\n      0x00\n      swap3\n      dup4\n      swap3\n        /* \"contracts/token factory/Migrator.sol\":2654:2664  token.call */\n      swap1\n      dup8\n      and\n      swap2\n        /* \"contracts/token factory/Migrator.sol\":2654:2815  token.call(... */\n      tag_205\n      swap2\n        /* \"contracts/token factory/Migrator.sol\":2678:2805  abi.encodeWithSelector(... */\n      swap1\n        /* \"contracts/token factory/Migrator.sol\":2654:2815  token.call(... */\n      tag_195\n      jump\t// in\n    tag_205:\n      0x00\n      mload(0x40)\n      dup1\n      dup4\n      sub\n      dup2\n      0x00\n      dup7\n      gas\n      call\n      swap2\n      pop\n      pop\n      returndatasize\n      dup1\n      0x00\n      dup2\n      eq\n      tag_208\n      jumpi\n      mload(0x40)\n      swap2\n      pop\n      and(add(returndatasize, 0x3f), not(0x1f))\n      dup3\n      add\n      0x40\n      mstore\n      returndatasize\n      dup3\n      mstore\n      returndatasize\n      0x00\n      0x20\n      dup5\n      add\n      returndatacopy\n      jump(tag_207)\n    tag_208:\n      0x60\n      swap2\n      pop\n    tag_207:\n      pop\n        /* \"contracts/token factory/Migrator.sol\":2618:2815  (bool success, bytes memory data) = token.call(... */\n      swap2\n      pop\n      swap2\n      pop\n        /* \"contracts/token factory/Migrator.sol\":2830:2837  success */\n      dup2\n        /* \"contracts/token factory/Migrator.sol\":2829:2837  !success */\n      iszero\n        /* \"contracts/token factory/Migrator.sol\":2829:2888  !success || (data.length != 0 && !abi.decode(data, (bool))) */\n      dup1\n      tag_210\n      jumpi\n      pop\n        /* \"contracts/token factory/Migrator.sol\":2842:2853  data.length */\n      dup1\n      mload\n        /* \"contracts/token factory/Migrator.sol\":2842:2858  data.length != 0 */\n      iszero\n      dup1\n      iszero\n      swap1\n        /* \"contracts/token factory/Migrator.sol\":2842:2887  data.length != 0 && !abi.decode(data, (bool)) */\n      tag_210\n      jumpi\n      pop\n        /* \"contracts/token factory/Migrator.sol\":2874:2878  data */\n      dup1\n        /* \"contracts/token factory/Migrator.sol\":2863:2887  abi.decode(data, (bool)) */\n      dup1\n      0x20\n      add\n      swap1\n      mload\n      dup2\n      add\n      swap1\n      tag_211\n      swap2\n      swap1\n      tag_171\n      jump\t// in\n    tag_211:\n        /* \"contracts/token factory/Migrator.sol\":2862:2887  !abi.decode(data, (bool)) */\n      iszero\n        /* \"contracts/token factory/Migrator.sol\":2842:2887  data.length != 0 && !abi.decode(data, (bool)) */\n    tag_210:\n        /* \"contracts/token factory/Migrator.sol\":2825:2926  if (!success || (data.length != 0 && !abi.decode(data, (bool)))) {... */\n      iszero\n      tag_212\n      jumpi\n        /* \"contracts/token factory/Migrator.sol\":2911:2915  SA() */\n      mload(0x40)\n      shl(0xe1, 0x7cd36c65)\n      dup2\n      mstore\n      0x04\n      add\n      mload(0x40)\n      dup1\n      swap2\n      sub\n      swap1\n      revert\n        /* \"contracts/token factory/Migrator.sol\":2825:2926  if (!success || (data.length != 0 && !abi.decode(data, (bool)))) {... */\n    tag_212:\n        /* \"contracts/token factory/Migrator.sol\":2608:2932  {... */\n      pop\n      pop\n        /* \"contracts/token factory/Migrator.sol\":2506:2932  function safeApprove(... */\n      pop\n      pop\n      pop\n      jump\t// out\n        /* \"contracts/token factory/Migrator.sol\":6933:7157  function sqrt(uint256 x) internal pure returns (uint256) {... */\n    tag_154:\n        /* \"contracts/token factory/Migrator.sol\":6981:6988  uint256 */\n      0x00\n      dup1\n        /* \"contracts/token factory/Migrator.sol\":7022:7023  2 */\n      0x02\n        /* \"contracts/token factory/Migrator.sol\":7013:7018  x + 1 */\n      tag_214\n        /* \"contracts/token factory/Migrator.sol\":7013:7014  x */\n      dup5\n        /* \"contracts/token factory/Migrator.sol\":7017:7018  1 */\n      0x01\n        /* \"contracts/token factory/Migrator.sol\":7013:7018  x + 1 */\n      tag_134\n      jump\t// in\n    tag_214:\n        /* \"contracts/token factory/Migrator.sol\":7012:7023  (x + 1) / 2 */\n      tag_215\n      swap2\n      swap1\n      tag_152\n      jump\t// in\n    tag_215:\n        /* \"contracts/token factory/Migrator.sol\":7000:7023  uint256 z = (x + 1) / 2 */\n      swap1\n      pop\n        /* \"contracts/token factory/Migrator.sol\":7045:7046  x */\n      dup3\n        /* \"contracts/token factory/Migrator.sol\":7056:7133  while (z < y) {... */\n    tag_216:\n        /* \"contracts/token factory/Migrator.sol\":7067:7068  y */\n      dup1\n        /* \"contracts/token factory/Migrator.sol\":7063:7064  z */\n      dup3\n        /* \"contracts/token factory/Migrator.sol\":7063:7068  z < y */\n      lt\n        /* \"contracts/token factory/Migrator.sol\":7056:7133  while (z < y) {... */\n      iszero\n      tag_217\n      jumpi\n      pop\n        /* \"contracts/token factory/Migrator.sol\":7088:7089  z */\n      dup1\n        /* \"contracts/token factory/Migrator.sol\":7121:7122  2 */\n      0x02\n        /* \"contracts/token factory/Migrator.sol\":7088:7089  z */\n      dup2\n        /* \"contracts/token factory/Migrator.sol\":7108:7113  x / z */\n      tag_218\n        /* \"contracts/token factory/Migrator.sol\":7088:7089  z */\n      dup2\n        /* \"contracts/token factory/Migrator.sol\":7108:7109  x */\n      dup8\n        /* \"contracts/token factory/Migrator.sol\":7108:7113  x / z */\n      tag_152\n      jump\t// in\n    tag_218:\n        /* \"contracts/token factory/Migrator.sol\":7108:7117  x / z + z */\n      tag_219\n      swap2\n      swap1\n      tag_134\n      jump\t// in\n    tag_219:\n        /* \"contracts/token factory/Migrator.sol\":7107:7122  (x / z + z) / 2 */\n      tag_220\n      swap2\n      swap1\n      tag_152\n      jump\t// in\n    tag_220:\n        /* \"contracts/token factory/Migrator.sol\":7103:7122  z = (x / z + z) / 2 */\n      swap2\n      pop\n        /* \"contracts/token factory/Migrator.sol\":7056:7133  while (z < y) {... */\n      jump(tag_216)\n    tag_217:\n        /* \"contracts/token factory/Migrator.sol\":7149:7150  y */\n      swap4\n        /* \"contracts/token factory/Migrator.sol\":6933:7157  function sqrt(uint256 x) internal pure returns (uint256) {... */\n      swap3\n      pop\n      pop\n      pop\n      jump\t// out\n        /* \"#utility.yul\":14:145   */\n    tag_221:\n      sub(shl(0xa0, 0x01), 0x01)\n        /* \"#utility.yul\":89:120   */\n      dup2\n      and\n        /* \"#utility.yul\":79:121   */\n      dup2\n      eq\n        /* \"#utility.yul\":69:139   */\n      tag_176\n      jumpi\n        /* \"#utility.yul\":135:136   */\n      0x00\n        /* \"#utility.yul\":132:133   */\n      dup1\n        /* \"#utility.yul\":125:137   */\n      revert\n        /* \"#utility.yul\":150:397   */\n    tag_23:\n        /* \"#utility.yul\":209:215   */\n      0x00\n        /* \"#utility.yul\":262:264   */\n      0x20\n        /* \"#utility.yul\":250:259   */\n      dup3\n        /* \"#utility.yul\":241:248   */\n      dup5\n        /* \"#utility.yul\":237:260   */\n      sub\n        /* \"#utility.yul\":233:265   */\n      slt\n        /* \"#utility.yul\":230:282   */\n      iszero\n      tag_228\n      jumpi\n        /* \"#utility.yul\":278:279   */\n      0x00\n        /* \"#utility.yul\":275:276   */\n      dup1\n        /* \"#utility.yul\":268:280   */\n      revert\n        /* \"#utility.yul\":230:282   */\n    tag_228:\n        /* \"#utility.yul\":317:326   */\n      dup2\n        /* \"#utility.yul\":304:327   */\n      calldataload\n        /* \"#utility.yul\":336:367   */\n      tag_217\n        /* \"#utility.yul\":361:366   */\n      dup2\n        /* \"#utility.yul\":336:367   */\n      tag_221\n      jump\t// in\n        /* \"#utility.yul\":402:769   */\n    tag_27:\n        /* \"#utility.yul\":470:476   */\n      0x00\n        /* \"#utility.yul\":478:484   */\n      dup1\n        /* \"#utility.yul\":531:533   */\n      0x40\n        /* \"#utility.yul\":519:528   */\n      dup4\n        /* \"#utility.yul\":510:517   */\n      dup6\n        /* \"#utility.yul\":506:529   */\n      sub\n        /* \"#utility.yul\":502:534   */\n      slt\n        /* \"#utility.yul\":499:551   */\n      iszero\n      tag_231\n      jumpi\n        /* \"#utility.yul\":547:548   */\n      0x00\n        /* \"#utility.yul\":544:545   */\n      dup1\n        /* \"#utility.yul\":537:549   */\n      revert\n        /* \"#utility.yul\":499:551   */\n    tag_231:\n        /* \"#utility.yul\":586:595   */\n      dup3\n        /* \"#utility.yul\":573:596   */\n      calldataload\n        /* \"#utility.yul\":605:636   */\n      tag_232\n        /* \"#utility.yul\":630:635   */\n      dup2\n        /* \"#utility.yul\":605:636   */\n      tag_221\n      jump\t// in\n    tag_232:\n        /* \"#utility.yul\":655:660   */\n      swap5\n        /* \"#utility.yul\":733:735   */\n      0x20\n        /* \"#utility.yul\":718:736   */\n      swap4\n      swap1\n      swap4\n      add\n        /* \"#utility.yul\":705:737   */\n      calldataload\n      swap4\n      pop\n      pop\n      pop\n        /* \"#utility.yul\":402:769   */\n      jump\t// out\n        /* \"#utility.yul\":1562:1908   */\n    tag_55:\n        /* \"#utility.yul\":1630:1636   */\n      0x00\n        /* \"#utility.yul\":1638:1644   */\n      dup1\n        /* \"#utility.yul\":1691:1693   */\n      0x40\n        /* \"#utility.yul\":1679:1688   */\n      dup4\n        /* \"#utility.yul\":1670:1677   */\n      dup6\n        /* \"#utility.yul\":1666:1689   */\n      sub\n        /* \"#utility.yul\":1662:1694   */\n      slt\n        /* \"#utility.yul\":1659:1711   */\n      iszero\n      tag_239\n      jumpi\n        /* \"#utility.yul\":1707:1708   */\n      0x00\n        /* \"#utility.yul\":1704:1705   */\n      dup1\n        /* \"#utility.yul\":1697:1709   */\n      revert\n        /* \"#utility.yul\":1659:1711   */\n    tag_239:\n      pop\n      pop\n        /* \"#utility.yul\":1752:1775   */\n      dup1\n      calldataload\n      swap3\n        /* \"#utility.yul\":1872:1874   */\n      0x20\n        /* \"#utility.yul\":1857:1875   */\n      swap1\n      swap2\n      add\n        /* \"#utility.yul\":1844:1876   */\n      calldataload\n      swap2\n      pop\n        /* \"#utility.yul\":1562:1908   */\n      jump\t// out\n        /* \"#utility.yul\":2121:2469   */\n    tag_81:\n        /* \"#utility.yul\":2323:2325   */\n      0x20\n        /* \"#utility.yul\":2305:2326   */\n      dup1\n      dup3\n      mstore\n        /* \"#utility.yul\":2362:2364   */\n      0x18\n        /* \"#utility.yul\":2342:2360   */\n      swap1\n      dup3\n      add\n        /* \"#utility.yul\":2335:2365   */\n      mstore\n        /* \"#utility.yul\":2401:2427   */\n      0x4f6e6c79206f776e65722063616e2063616c6c20746869730000000000000000\n        /* \"#utility.yul\":2396:2398   */\n      0x40\n        /* \"#utility.yul\":2381:2399   */\n      dup3\n      add\n        /* \"#utility.yul\":2374:2428   */\n      mstore\n        /* \"#utility.yul\":2460:2462   */\n      0x60\n        /* \"#utility.yul\":2445:2463   */\n      add\n      swap1\n        /* \"#utility.yul\":2121:2469   */\n      jump\t// out\n        /* \"#utility.yul\":3632:3862   */\n    tag_104:\n        /* \"#utility.yul\":3702:3708   */\n      0x00\n        /* \"#utility.yul\":3755:3757   */\n      0x20\n        /* \"#utility.yul\":3743:3752   */\n      dup3\n        /* \"#utility.yul\":3734:3741   */\n      dup5\n        /* \"#utility.yul\":3730:3753   */\n      sub\n        /* \"#utility.yul\":3726:3758   */\n      slt\n        /* \"#utility.yul\":3723:3775   */\n      iszero\n      tag_246\n      jumpi\n        /* \"#utility.yul\":3771:3772   */\n      0x00\n        /* \"#utility.yul\":3768:3769   */\n      dup1\n        /* \"#utility.yul\":3761:3773   */\n      revert\n        /* \"#utility.yul\":3723:3775   */\n    tag_246:\n      pop\n        /* \"#utility.yul\":3816:3832   */\n      mload\n      swap2\n        /* \"#utility.yul\":3632:3862   */\n      swap1\n      pop\n      jump\t// out\n        /* \"#utility.yul\":4726:4977   */\n    tag_120:\n        /* \"#utility.yul\":4796:4802   */\n      0x00\n        /* \"#utility.yul\":4849:4851   */\n      0x20\n        /* \"#utility.yul\":4837:4846   */\n      dup3\n        /* \"#utility.yul\":4828:4835   */\n      dup5\n        /* \"#utility.yul\":4824:4847   */\n      sub\n        /* \"#utility.yul\":4820:4852   */\n      slt\n        /* \"#utility.yul\":4817:4869   */\n      iszero\n      tag_250\n      jumpi\n        /* \"#utility.yul\":4865:4866   */\n      0x00\n        /* \"#utility.yul\":4862:4863   */\n      dup1\n        /* \"#utility.yul\":4855:4867   */\n      revert\n        /* \"#utility.yul\":4817:4869   */\n    tag_250:\n        /* \"#utility.yul\":4897:4906   */\n      dup2\n        /* \"#utility.yul\":4891:4907   */\n      mload\n        /* \"#utility.yul\":4916:4947   */\n      tag_217\n        /* \"#utility.yul\":4941:4946   */\n      dup2\n        /* \"#utility.yul\":4916:4947   */\n      tag_221\n      jump\t// in\n        /* \"#utility.yul\":5593:5815   */\n    tag_134:\n        /* \"#utility.yul\":5658:5667   */\n      dup1\n      dup3\n      add\n        /* \"#utility.yul\":5679:5689   */\n      dup1\n      dup3\n      gt\n        /* \"#utility.yul\":5676:5809   */\n      iszero\n      tag_146\n      jumpi\n        /* \"#utility.yul\":5731:5741   */\n      0x4e487b71\n        /* \"#utility.yul\":5726:5729   */\n      0xe0\n        /* \"#utility.yul\":5722:5742   */\n      shl\n        /* \"#utility.yul\":5719:5720   */\n      0x00\n        /* \"#utility.yul\":5712:5743   */\n      mstore\n        /* \"#utility.yul\":5766:5770   */\n      0x11\n        /* \"#utility.yul\":5763:5764   */\n      0x04\n        /* \"#utility.yul\":5756:5771   */\n      mstore\n        /* \"#utility.yul\":5794:5798   */\n      0x24\n        /* \"#utility.yul\":5791:5792   */\n      0x00\n        /* \"#utility.yul\":5784:5799   */\n      revert\n        /* \"#utility.yul\":5820:6988   */\n    tag_136:\n        /* \"#utility.yul\":6038:6051   */\n      dup2\n      mload\n      sub(shl(0xa0, 0x01), 0x01)\n        /* \"#utility.yul\":840:871   */\n      and\n        /* \"#utility.yul\":828:872   */\n      dup2\n      mstore\n        /* \"#utility.yul\":6006:6009   */\n      0x0160\n        /* \"#utility.yul\":5991:6010   */\n      dup2\n      add\n        /* \"#utility.yul\":6110:6114   */\n      0x20\n        /* \"#utility.yul\":6102:6108   */\n      dup4\n        /* \"#utility.yul\":6098:6115   */\n      add\n        /* \"#utility.yul\":6092:6116   */\n      mload\n        /* \"#utility.yul\":6125:6179   */\n      tag_258\n        /* \"#utility.yul\":6173:6177   */\n      0x20\n        /* \"#utility.yul\":6162:6171   */\n      dup5\n        /* \"#utility.yul\":6158:6178   */\n      add\n        /* \"#utility.yul\":6144:6156   */\n      dup3\n      sub(shl(0xa0, 0x01), 0x01)\n        /* \"#utility.yul\":840:871   */\n      and\n        /* \"#utility.yul\":828:872   */\n      swap1\n      mstore\n        /* \"#utility.yul\":774:878   */\n      jump\n        /* \"#utility.yul\":6125:6179   */\n    tag_258:\n      pop\n        /* \"#utility.yul\":6228:6232   */\n      0x40\n        /* \"#utility.yul\":6220:6226   */\n      dup4\n        /* \"#utility.yul\":6216:6233   */\n      add\n        /* \"#utility.yul\":6210:6234   */\n      mload\n        /* \"#utility.yul\":6243:6299   */\n      tag_259\n        /* \"#utility.yul\":6293:6297   */\n      0x40\n        /* \"#utility.yul\":6282:6291   */\n      dup5\n        /* \"#utility.yul\":6278:6298   */\n      add\n        /* \"#utility.yul\":6262:6276   */\n      dup3\n      sub(shl(0xa0, 0x01), 0x01)\n        /* \"#utility.yul\":840:871   */\n      and\n        /* \"#utility.yul\":828:872   */\n      swap1\n      mstore\n        /* \"#utility.yul\":774:878   */\n      jump\n        /* \"#utility.yul\":6243:6299   */\n    tag_259:\n      pop\n        /* \"#utility.yul\":6348:6352   */\n      0x60\n        /* \"#utility.yul\":6340:6346   */\n      dup4\n        /* \"#utility.yul\":6336:6353   */\n      add\n        /* \"#utility.yul\":6330:6354   */\n      mload\n        /* \"#utility.yul\":6363:6417   */\n      tag_260\n        /* \"#utility.yul\":6411:6415   */\n      0x60\n        /* \"#utility.yul\":6400:6409   */\n      dup5\n        /* \"#utility.yul\":6396:6416   */\n      add\n        /* \"#utility.yul\":6380:6394   */\n      dup3\n        /* \"#utility.yul\":1348:1349   */\n      0x02\n        /* \"#utility.yul\":1337:1357   */\n      signextend\n        /* \"#utility.yul\":1325:1358   */\n      swap1\n      mstore\n        /* \"#utility.yul\":1273:1364   */\n      jump\n        /* \"#utility.yul\":6363:6417   */\n    tag_260:\n      pop\n        /* \"#utility.yul\":6466:6470   */\n      0x80\n        /* \"#utility.yul\":6458:6464   */\n      dup4\n        /* \"#utility.yul\":6454:6471   */\n      add\n        /* \"#utility.yul\":6448:6472   */\n      mload\n        /* \"#utility.yul\":6481:6535   */\n      tag_261\n        /* \"#utility.yul\":6529:6533   */\n      0x80\n        /* \"#utility.yul\":6518:6527   */\n      dup5\n        /* \"#utility.yul\":6514:6534   */\n      add\n        /* \"#utility.yul\":6498:6512   */\n      dup3\n        /* \"#utility.yul\":1348:1349   */\n      0x02\n        /* \"#utility.yul\":1337:1357   */\n      signextend\n        /* \"#utility.yul\":1325:1358   */\n      swap1\n      mstore\n        /* \"#utility.yul\":1273:1364   */\n      jump\n        /* \"#utility.yul\":6481:6535   */\n    tag_261:\n      pop\n        /* \"#utility.yul\":6591:6595   */\n      0xa0\n        /* \"#utility.yul\":6583:6589   */\n      dup4\n        /* \"#utility.yul\":6579:6596   */\n      add\n        /* \"#utility.yul\":6573:6597   */\n      mload\n        /* \"#utility.yul\":6566:6570   */\n      0xa0\n        /* \"#utility.yul\":6555:6564   */\n      dup4\n        /* \"#utility.yul\":6551:6571   */\n      add\n        /* \"#utility.yul\":6544:6598   */\n      mstore\n        /* \"#utility.yul\":6654:6658   */\n      0xc0\n        /* \"#utility.yul\":6646:6652   */\n      dup4\n        /* \"#utility.yul\":6642:6659   */\n      add\n        /* \"#utility.yul\":6636:6660   */\n      mload\n        /* \"#utility.yul\":6629:6633   */\n      0xc0\n        /* \"#utility.yul\":6618:6627   */\n      dup4\n        /* \"#utility.yul\":6614:6634   */\n      add\n        /* \"#utility.yul\":6607:6661   */\n      mstore\n        /* \"#utility.yul\":6717:6721   */\n      0xe0\n        /* \"#utility.yul\":6709:6715   */\n      dup4\n        /* \"#utility.yul\":6705:6722   */\n      add\n        /* \"#utility.yul\":6699:6723   */\n      mload\n        /* \"#utility.yul\":6692:6696   */\n      0xe0\n        /* \"#utility.yul\":6681:6690   */\n      dup4\n        /* \"#utility.yul\":6677:6697   */\n      add\n        /* \"#utility.yul\":6670:6724   */\n      mstore\n        /* \"#utility.yul\":6782:6788   */\n      0x0100\n        /* \"#utility.yul\":6774:6780   */\n      dup4\n        /* \"#utility.yul\":6770:6789   */\n      add\n        /* \"#utility.yul\":6764:6790   */\n      mload\n        /* \"#utility.yul\":6755:6761   */\n      0x0100\n        /* \"#utility.yul\":6744:6753   */\n      dup4\n        /* \"#utility.yul\":6740:6762   */\n      add\n        /* \"#utility.yul\":6733:6791   */\n      mstore\n        /* \"#utility.yul\":6840:6846   */\n      0x0120\n        /* \"#utility.yul\":6832:6838   */\n      dup4\n        /* \"#utility.yul\":6828:6847   */\n      add\n        /* \"#utility.yul\":6822:6848   */\n      mload\n        /* \"#utility.yul\":6857:6915   */\n      tag_262\n        /* \"#utility.yul\":6907:6913   */\n      0x0120\n        /* \"#utility.yul\":6896:6905   */\n      dup5\n        /* \"#utility.yul\":6892:6914   */\n      add\n        /* \"#utility.yul\":6876:6890   */\n      dup3\n      sub(shl(0xa0, 0x01), 0x01)\n        /* \"#utility.yul\":840:871   */\n      and\n        /* \"#utility.yul\":828:872   */\n      swap1\n      mstore\n        /* \"#utility.yul\":774:878   */\n      jump\n        /* \"#utility.yul\":6857:6915   */\n    tag_262:\n      pop\n        /* \"#utility.yul\":6973:6979   */\n      0x0140\n        /* \"#utility.yul\":6961:6980   */\n      swap3\n      dup4\n      add\n        /* \"#utility.yul\":6955:6981   */\n      mload\n        /* \"#utility.yul\":6931:6953   */\n      swap2\n      swap1\n      swap3\n      add\n        /* \"#utility.yul\":6924:6982   */\n      mstore\n        /* \"#utility.yul\":5820:6988   */\n      swap1\n      jump\t// out\n        /* \"#utility.yul\":6993:7640   */\n    tag_140:\n        /* \"#utility.yul\":7090:7096   */\n      0x00\n        /* \"#utility.yul\":7098:7104   */\n      dup1\n        /* \"#utility.yul\":7106:7112   */\n      0x00\n        /* \"#utility.yul\":7114:7120   */\n      dup1\n        /* \"#utility.yul\":7167:7170   */\n      0x80\n        /* \"#utility.yul\":7155:7164   */\n      dup6\n        /* \"#utility.yul\":7146:7153   */\n      dup8\n        /* \"#utility.yul\":7142:7165   */\n      sub\n        /* \"#utility.yul\":7138:7171   */\n      slt\n        /* \"#utility.yul\":7135:7188   */\n      iszero\n      tag_264\n      jumpi\n        /* \"#utility.yul\":7184:7185   */\n      0x00\n        /* \"#utility.yul\":7181:7182   */\n      dup1\n        /* \"#utility.yul\":7174:7186   */\n      revert\n        /* \"#utility.yul\":7135:7188   */\n    tag_264:\n        /* \"#utility.yul\":7229:7245   */\n      dup5\n      mload\n        /* \"#utility.yul\":7314:7316   */\n      0x20\n        /* \"#utility.yul\":7299:7317   */\n      dup7\n      add\n        /* \"#utility.yul\":7293:7318   */\n      mload\n        /* \"#utility.yul\":7229:7245   */\n      swap1\n      swap5\n      pop\n      sub(shl(0x80, 0x01), 0x01)\n        /* \"#utility.yul\":7349:7397   */\n      dup2\n      and\n        /* \"#utility.yul\":7337:7398   */\n      dup2\n      eq\n        /* \"#utility.yul\":7327:7416   */\n      tag_265\n      jumpi\n        /* \"#utility.yul\":7412:7413   */\n      0x00\n        /* \"#utility.yul\":7409:7410   */\n      dup1\n        /* \"#utility.yul\":7402:7414   */\n      revert\n        /* \"#utility.yul\":7327:7416   */\n    tag_265:\n        /* \"#utility.yul\":7508:7510   */\n      0x40\n        /* \"#utility.yul\":7493:7511   */\n      dup7\n      add\n        /* \"#utility.yul\":7487:7512   */\n      mload\n        /* \"#utility.yul\":7604:7606   */\n      0x60\n        /* \"#utility.yul\":7589:7607   */\n      swap1\n      swap7\n      add\n        /* \"#utility.yul\":7583:7608   */\n      mload\n        /* \"#utility.yul\":6993:7640   */\n      swap5\n      swap8\n        /* \"#utility.yul\":7435:7442   */\n      swap1\n      swap7\n      pop\n        /* \"#utility.yul\":6993:7640   */\n      swap3\n      pop\n      pop\n      pop\n      jump\t// out\n        /* \"#utility.yul\":8435:8652   */\n    tag_152:\n        /* \"#utility.yul\":8475:8476   */\n      0x00\n        /* \"#utility.yul\":8501:8502   */\n      dup3\n        /* \"#utility.yul\":8491:8623   */\n      tag_269\n      jumpi\n        /* \"#utility.yul\":8545:8555   */\n      0x4e487b71\n        /* \"#utility.yul\":8540:8543   */\n      0xe0\n        /* \"#utility.yul\":8536:8556   */\n      shl\n        /* \"#utility.yul\":8533:8534   */\n      0x00\n        /* \"#utility.yul\":8526:8557   */\n      mstore\n        /* \"#utility.yul\":8580:8584   */\n      0x12\n        /* \"#utility.yul\":8577:8578   */\n      0x04\n        /* \"#utility.yul\":8570:8585   */\n      mstore\n        /* \"#utility.yul\":8608:8612   */\n      0x24\n        /* \"#utility.yul\":8605:8606   */\n      0x00\n        /* \"#utility.yul\":8598:8613   */\n      revert\n        /* \"#utility.yul\":8491:8623   */\n    tag_269:\n      pop\n        /* \"#utility.yul\":8637:8646   */\n      div\n      swap1\n        /* \"#utility.yul\":8435:8652   */\n      jump\t// out\n        /* \"#utility.yul\":9286:9563   */\n    tag_171:\n        /* \"#utility.yul\":9353:9359   */\n      0x00\n        /* \"#utility.yul\":9406:9408   */\n      0x20\n        /* \"#utility.yul\":9394:9403   */\n      dup3\n        /* \"#utility.yul\":9385:9392   */\n      dup5\n        /* \"#utility.yul\":9381:9404   */\n      sub\n        /* \"#utility.yul\":9377:9409   */\n      slt\n        /* \"#utility.yul\":9374:9426   */\n      iszero\n      tag_273\n      jumpi\n        /* \"#utility.yul\":9422:9423   */\n      0x00\n        /* \"#utility.yul\":9419:9420   */\n      dup1\n        /* \"#utility.yul\":9412:9424   */\n      revert\n        /* \"#utility.yul\":9374:9426   */\n    tag_273:\n        /* \"#utility.yul\":9454:9463   */\n      dup2\n        /* \"#utility.yul\":9448:9464   */\n      mload\n        /* \"#utility.yul\":9507:9512   */\n      dup1\n        /* \"#utility.yul\":9500:9513   */\n      iszero\n        /* \"#utility.yul\":9493:9514   */\n      iszero\n        /* \"#utility.yul\":9486:9491   */\n      dup2\n        /* \"#utility.yul\":9483:9515   */\n      eq\n        /* \"#utility.yul\":9473:9533   */\n      tag_217\n      jumpi\n        /* \"#utility.yul\":9529:9530   */\n      0x00\n        /* \"#utility.yul\":9526:9527   */\n      dup1\n        /* \"#utility.yul\":9519:9531   */\n      revert\n        /* \"#utility.yul\":10504:10916   */\n    tag_195:\n        /* \"#utility.yul\":10633:10636   */\n      0x00\n        /* \"#utility.yul\":10671:10677   */\n      dup3\n        /* \"#utility.yul\":10665:10678   */\n      mload\n        /* \"#utility.yul\":10696:10697   */\n      0x00\n        /* \"#utility.yul\":10706:10835   */\n    tag_279:\n        /* \"#utility.yul\":10720:10726   */\n      dup2\n        /* \"#utility.yul\":10717:10718   */\n      dup2\n        /* \"#utility.yul\":10714:10727   */\n      lt\n        /* \"#utility.yul\":10706:10835   */\n      iszero\n      tag_281\n      jumpi\n        /* \"#utility.yul\":10818:10822   */\n      0x20\n        /* \"#utility.yul\":10802:10816   */\n      dup2\n      dup7\n      add\n        /* \"#utility.yul\":10798:10823   */\n      dup2\n      add\n        /* \"#utility.yul\":10792:10824   */\n      mload\n        /* \"#utility.yul\":10779:10790   */\n      dup6\n      dup4\n      add\n        /* \"#utility.yul\":10772:10825   */\n      mstore\n        /* \"#utility.yul\":10735:10747   */\n      add\n        /* \"#utility.yul\":10706:10835   */\n      jump(tag_279)\n    tag_281:\n      pop\n        /* \"#utility.yul\":10890:10891   */\n      0x00\n        /* \"#utility.yul\":10854:10870   */\n      swap3\n      add\n        /* \"#utility.yul\":10879:10892   */\n      swap2\n      dup3\n      mstore\n      pop\n        /* \"#utility.yul\":10854:10870   */\n      swap2\n        /* \"#utility.yul\":10504:10916   */\n      swap1\n      pop\n      jump\t// out\n\n    auxdata: 0xa2646970667358221220ddf6fe12bf43cc1116eb40f0a1d06e644c381bd8972d29aa00a1836e6ec3beb464736f6c634300081a0033\n}\n",
				"bytecode": {
					"linkReferences": {},
					"object": "608060405234801561001057600080fd5b506040516112e33803806112e383398101604081905261002f91610138565b6001600160a01b03821661008a5760405162461bcd60e51b815260206004820152601760248201527f496e76616c696420416c6765627261206164647265737300000000000000000060448201526064015b60405180910390fd5b6001600160a01b0381166100e05760405162461bcd60e51b815260206004820152601460248201527f496e76616c6964205745544820616464726573730000000000000000000000006044820152606401610081565b600080546001600160a01b03199081163317909155600180546001600160a01b039485169083161790556002805492909316911617905561016b565b80516001600160a01b038116811461013357600080fd5b919050565b6000806040838503121561014b57600080fd5b6101548361011c565b91506101626020840161011c565b90509250929050565b6111698061017a6000396000f3fe6080604052600436106100c65760003560e01c80638da5cb5b1161007f578063ad5c464811610059578063ad5c46481461020e578063b2af127c1461022e578063db2e21bc1461024e578063fe9440d71461026357600080fd5b80638da5cb5b146101b6578063a000bf4f146101d6578063a1634b14146101f657600080fd5b806309fe2d34146100d257806318fd7858146100f457806324f8eca7146101075780633b7ab5b3146101445780635a2f0ae7146101705780636882a8881461018c57600080fd5b366100cd57005b600080fd5b3480156100de57600080fd5b506100f26100ed366004610eb4565b610283565b005b6100f2610102366004610ed1565b610320565b34801561011357600080fd5b50600154610127906001600160a01b031681565b6040516001600160a01b0390911681526020015b60405180910390f35b34801561015057600080fd5b5061016269d3c21bcecceda100000081565b60405190815260200161013b565b34801561017c57600080fd5b50610162678ac7230489e8000081565b34801561019857600080fd5b506101a3620d89b481565b60405160029190910b815260200161013b565b3480156101c257600080fd5b50600054610127906001600160a01b031681565b3480156101e257600080fd5b506101276101f1366004610efd565b610927565b34801561020257600080fd5b506101a3620d89b31981565b34801561021a57600080fd5b50600254610127906001600160a01b031681565b34801561023a57600080fd5b506100f2610249366004610eb4565b61099d565b34801561025a57600080fd5b506100f2610af8565b34801561026f57600080fd5b506100f261027e366004610eb4565b610bc9565b6000546001600160a01b031633146102b65760405162461bcd60e51b81526004016102ad90610f1f565b60405180910390fd5b6001600160a01b0381166102fe5760405162461bcd60e51b815260206004820152600f60248201526e496e76616c6964206164647265737360881b60448201526064016102ad565b600180546001600160a01b0319166001600160a01b0392909216919091179055565b6000341161037f5760405162461bcd60e51b815260206004820152602660248201527f457468657220616d6f756e74206d7573742062652067726561746572207468616044820152656e207a65726f60d01b60648201526084016102ad565b600081116103de5760405162461bcd60e51b815260206004820152602660248201527f546f6b656e20616d6f756e74206d7573742062652067726561746572207468616044820152656e207a65726f60d01b60648201526084016102ad565b600069d3c21bcecceda100000082116103f75781610403565b69d3c21bcecceda10000005b90506000678ac7230489e80000341161041c5734610426565b678ac7230489e800005b9050600260009054906101000a90046001600160a01b03166001600160a01b031663d0e30db0826040518263ffffffff1660e01b81526004016000604051808303818588803b15801561047857600080fd5b505af115801561048c573d6000803e3d6000fd5b50506002546040516370a0823160e01b8152306004820152600094506001600160a01b0390911692506370a082319150602401602060405180830381865afa1580156104dc573d6000803e3d6000fd5b505050506040513d601f19601f820116820180604052508101906105009190610f56565b9050818110156105525760405162461bcd60e51b815260206004820152601e60248201527f4661696c656420746f207772617020457468657220696e746f2057455448000060448201526064016102ad565b6105676001600160a01b038616333086610c5d565b6002546000906001600160a01b0390811690871610610591576002546001600160a01b0316610593565b855b6002549091506000906001600160a01b03908116908816106105b557866105c2565b6002546001600160a01b03165b905060006105d08686610927565b6001546040516343a9d0cd60e11b81526001600160a01b0386811660048301528581166024830152600060448301819052818516606484015293945090911690638753a19a906084016020604051808303816000875af1158015610638573d6000803e3d6000fd5b505050506040513d601f19601f8201168201806040525081019061065c9190610f6f565b90506001600160a01b0381166106b45760405162461bcd60e51b815260206004820152601d60248201527f4661696c656420746f2063726561746520416c676562726120706f6f6c00000060448201526064016102ad565b886001600160a01b0316816001600160a01b03167f0bc269b08661fa7948aabbb2ac773747166492e0ac63735b66898001e237a1bc8989604051610702929190918252602082015260400190565b60405180910390a3600154610724906001600160a01b038b8116911689610d57565b600154600254610741916001600160a01b03918216911687610d57565b60408051610160810182526001600160a01b0380871680835286821660208401526000938301849052620d89b3196060840152620d89b4608084015260a08301918d161461078f5787610791565b895b81526020018b6001600160a01b0316876001600160a01b0316146107b557896107b7565b875b815260006020820181905260408201523060608201526080016107dc42610e10610f8c565b905260015460405163fe3f3be760e01b81529192506000918291829182916001600160a01b03169063fe3f3be790610818908890600401610fad565b6080604051808303816000875af1158015610837573d6000803e3d6000fd5b505050506040513d601f19601f8201168201806040525081019061085b9190611075565b93509350935093506000836001600160801b0316116108bc5760405162461bcd60e51b815260206004820152601860248201527f4661696c656420746f206d696e74206c6971756964697479000000000000000060448201526064016102ad565b604080518581526001600160801b0385166020820152908101839052606081018290526001600160a01b038716907f936f1605239d50a44520651cb0698a8f77eea34a13f43a4eac22872b1baf48cc9060800160405180910390a25050505050505050505050505050565b60008069d3c21bcecceda10000008411610941578361094d565b69d3c21bcecceda10000005b90506000678ac7230489e8000084116109665783610970565b678ac7230489e800005b9050600061098283606084901b6110c0565b9050603061098f82610e48565b901b93505050505b92915050565b6000546001600160a01b031633146109c75760405162461bcd60e51b81526004016102ad90610f1f565b6040516370a0823160e01b81523060048201526000906001600160a01b038316906370a0823190602401602060405180830381865afa158015610a0e573d6000803e3d6000fd5b505050506040513d601f19601f82011682018060405250810190610a329190610f56565b905060008111610a7c5760405162461bcd60e51b81526020600482015260156024820152744e6f20746f6b656e7320746f20776974686472617760581b60448201526064016102ad565b60005460405163a9059cbb60e01b81526001600160a01b039182166004820152602481018390529083169063a9059cbb906044016020604051808303816000875af1158015610acf573d6000803e3d6000fd5b505050506040513d601f19601f82011682018060405250810190610af391906110e2565b505050565b6000546001600160a01b03163314610b225760405162461bcd60e51b81526004016102ad90610f1f565b478015610bc657600080546040516001600160a01b039091169083908381818185875af1925050503d8060008114610b76576040519150601f19603f3d011682016040523d82523d6000602084013e610b7b565b606091505b5050905080610bc45760405162461bcd60e51b8152602060048201526015602482015274115d1a195c881dda5d1a191c985dc819985a5b1959605a1b60448201526064016102ad565b505b50565b6000546001600160a01b03163314610bf35760405162461bcd60e51b81526004016102ad90610f1f565b6001600160a01b038116610c3b5760405162461bcd60e51b815260206004820152600f60248201526e496e76616c6964206164647265737360881b60448201526064016102ad565b600280546001600160a01b0319166001600160a01b0392909216919091179055565b604080516001600160a01b0385811660248301528481166044830152606480830185905283518084039091018152608490920183526020820180516001600160e01b03166323b872dd60e01b1790529151600092839290881691610cc19190611104565b6000604051808303816000865af19150503d8060008114610cfe576040519150601f19603f3d011682016040523d82523d6000602084013e610d03565b606091505b5091509150811580610d315750805115801590610d31575080806020019051810190610d2f91906110e2565b155b15610d4f5760405163817275ab60e01b815260040160405180910390fd5b505050505050565b604080516001600160a01b038481166024830152604480830185905283518084039091018152606490920183526020820180516001600160e01b031663095ea7b360e01b1790529151600092839290871691610db39190611104565b6000604051808303816000865af19150503d8060008114610df0576040519150601f19603f3d011682016040523d82523d6000602084013e610df5565b606091505b5091509150811580610e235750805115801590610e23575080806020019051810190610e2191906110e2565b155b15610e4157604051637cd36c6560e11b815260040160405180910390fd5b5050505050565b6000806002610e58846001610f8c565b610e6291906110c0565b9050825b80821015610e98575080600281610e7d81876110c0565b610e879190610f8c565b610e9191906110c0565b9150610e66565b9392505050565b6001600160a01b0381168114610bc657600080fd5b600060208284031215610ec657600080fd5b8135610e9881610e9f565b60008060408385031215610ee457600080fd5b8235610eef81610e9f565b946020939093013593505050565b60008060408385031215610f1057600080fd5b50508035926020909101359150565b60208082526018908201527f4f6e6c79206f776e65722063616e2063616c6c20746869730000000000000000604082015260600190565b600060208284031215610f6857600080fd5b5051919050565b600060208284031215610f8157600080fd5b8151610e9881610e9f565b8082018082111561099757634e487b7160e01b600052601160045260246000fd5b81516001600160a01b0316815261016081016020830151610fd960208401826001600160a01b03169052565b506040830151610ff460408401826001600160a01b03169052565b506060830151611009606084018260020b9052565b50608083015161101e608084018260020b9052565b5060a083015160a083015260c083015160c083015260e083015160e08301526101008301516101008301526101208301516110656101208401826001600160a01b03169052565b5061014092830151919092015290565b6000806000806080858703121561108b57600080fd5b845160208601519094506001600160801b03811681146110aa57600080fd5b6040860151606090960151949790965092505050565b6000826110dd57634e487b7160e01b600052601260045260246000fd5b500490565b6000602082840312156110f457600080fd5b81518015158114610e9857600080fd5b6000825160005b81811015611125576020818601810151858301520161110b565b50600092019182525091905056fea2646970667358221220ddf6fe12bf43cc1116eb40f0a1d06e644c381bd8972d29aa00a1836e6ec3beb464736f6c634300081a0033",
					"opcodes": "PUSH1 0x80 PUSH1 0x40 MSTORE CALLVALUE DUP1 ISZERO PUSH2 0x10 JUMPI PUSH1 0x0 DUP1 REVERT JUMPDEST POP PUSH1 0x40 MLOAD PUSH2 0x12E3 CODESIZE SUB DUP1 PUSH2 0x12E3 DUP4 CODECOPY DUP2 ADD PUSH1 0x40 DUP2 SWAP1 MSTORE PUSH2 0x2F SWAP2 PUSH2 0x138 JUMP JUMPDEST PUSH1 0x1 PUSH1 0x1 PUSH1 0xA0 SHL SUB DUP3 AND PUSH2 0x8A JUMPI PUSH1 0x40 MLOAD PUSH3 0x461BCD PUSH1 0xE5 SHL DUP2 MSTORE PUSH1 0x20 PUSH1 0x4 DUP3 ADD MSTORE PUSH1 0x17 PUSH1 0x24 DUP3 ADD MSTORE PUSH32 0x496E76616C696420416C67656272612061646472657373000000000000000000 PUSH1 0x44 DUP3 ADD MSTORE PUSH1 0x64 ADD JUMPDEST PUSH1 0x40 MLOAD DUP1 SWAP2 SUB SWAP1 REVERT JUMPDEST PUSH1 0x1 PUSH1 0x1 PUSH1 0xA0 SHL SUB DUP2 AND PUSH2 0xE0 JUMPI PUSH1 0x40 MLOAD PUSH3 0x461BCD PUSH1 0xE5 SHL DUP2 MSTORE PUSH1 0x20 PUSH1 0x4 DUP3 ADD MSTORE PUSH1 0x14 PUSH1 0x24 DUP3 ADD MSTORE PUSH32 0x496E76616C696420574554482061646472657373000000000000000000000000 PUSH1 0x44 DUP3 ADD MSTORE PUSH1 0x64 ADD PUSH2 0x81 JUMP JUMPDEST PUSH1 0x0 DUP1 SLOAD PUSH1 0x1 PUSH1 0x1 PUSH1 0xA0 SHL SUB NOT SWAP1 DUP2 AND CALLER OR SWAP1 SWAP2 SSTORE PUSH1 0x1 DUP1 SLOAD PUSH1 0x1 PUSH1 0x1 PUSH1 0xA0 SHL SUB SWAP5 DUP6 AND SWAP1 DUP4 AND OR SWAP1 SSTORE PUSH1 0x2 DUP1 SLOAD SWAP3 SWAP1 SWAP4 AND SWAP2 AND OR SWAP1 SSTORE PUSH2 0x16B JUMP JUMPDEST DUP1 MLOAD PUSH1 0x1 PUSH1 0x1 PUSH1 0xA0 SHL SUB DUP2 AND DUP2 EQ PUSH2 0x133 JUMPI PUSH1 0x0 DUP1 REVERT JUMPDEST SWAP2 SWAP1 POP JUMP JUMPDEST PUSH1 0x0 DUP1 PUSH1 0x40 DUP4 DUP6 SUB SLT ISZERO PUSH2 0x14B JUMPI PUSH1 0x0 DUP1 REVERT JUMPDEST PUSH2 0x154 DUP4 PUSH2 0x11C JUMP JUMPDEST SWAP2 POP PUSH2 0x162 PUSH1 0x20 DUP5 ADD PUSH2 0x11C JUMP JUMPDEST SWAP1 POP SWAP3 POP SWAP3 SWAP1 POP JUMP JUMPDEST PUSH2 0x1169 DUP1 PUSH2 0x17A PUSH1 0x0 CODECOPY PUSH1 0x0 RETURN INVALID PUSH1 0x80 PUSH1 0x40 MSTORE PUSH1 0x4 CALLDATASIZE LT PUSH2 0xC6 JUMPI PUSH1 0x0 CALLDATALOAD PUSH1 0xE0 SHR DUP1 PUSH4 0x8DA5CB5B GT PUSH2 0x7F JUMPI DUP1 PUSH4 0xAD5C4648 GT PUSH2 0x59 JUMPI DUP1 PUSH4 0xAD5C4648 EQ PUSH2 0x20E JUMPI DUP1 PUSH4 0xB2AF127C EQ PUSH2 0x22E JUMPI DUP1 PUSH4 0xDB2E21BC EQ PUSH2 0x24E JUMPI DUP1 PUSH4 0xFE9440D7 EQ PUSH2 0x263 JUMPI PUSH1 0x0 DUP1 REVERT JUMPDEST DUP1 PUSH4 0x8DA5CB5B EQ PUSH2 0x1B6 JUMPI DUP1 PUSH4 0xA000BF4F EQ PUSH2 0x1D6 JUMPI DUP1 PUSH4 0xA1634B14 EQ PUSH2 0x1F6 JUMPI PUSH1 0x0 DUP1 REVERT JUMPDEST DUP1 PUSH4 0x9FE2D34 EQ PUSH2 0xD2 JUMPI DUP1 PUSH4 0x18FD7858 EQ PUSH2 0xF4 JUMPI DUP1 PUSH4 0x24F8ECA7 EQ PUSH2 0x107 JUMPI DUP1 PUSH4 0x3B7AB5B3 EQ PUSH2 0x144 JUMPI DUP1 PUSH4 0x5A2F0AE7 EQ PUSH2 0x170 JUMPI DUP1 PUSH4 0x6882A888 EQ PUSH2 0x18C JUMPI PUSH1 0x0 DUP1 REVERT JUMPDEST CALLDATASIZE PUSH2 0xCD JUMPI STOP JUMPDEST PUSH1 0x0 DUP1 REVERT JUMPDEST CALLVALUE DUP1 ISZERO PUSH2 0xDE JUMPI PUSH1 0x0 DUP1 REVERT JUMPDEST POP PUSH2 0xF2 PUSH2 0xED CALLDATASIZE PUSH1 0x4 PUSH2 0xEB4 JUMP JUMPDEST PUSH2 0x283 JUMP JUMPDEST STOP JUMPDEST PUSH2 0xF2 PUSH2 0x102 CALLDATASIZE PUSH1 0x4 PUSH2 0xED1 JUMP JUMPDEST PUSH2 0x320 JUMP JUMPDEST CALLVALUE DUP1 ISZERO PUSH2 0x113 JUMPI PUSH1 0x0 DUP1 REVERT JUMPDEST POP PUSH1 0x1 SLOAD PUSH2 0x127 SWAP1 PUSH1 0x1 PUSH1 0x1 PUSH1 0xA0 SHL SUB AND DUP2 JUMP JUMPDEST PUSH1 0x40 MLOAD PUSH1 0x1 PUSH1 0x1 PUSH1 0xA0 SHL SUB SWAP1 SWAP2 AND DUP2 MSTORE PUSH1 0x20 ADD JUMPDEST PUSH1 0x40 MLOAD DUP1 SWAP2 SUB SWAP1 RETURN JUMPDEST CALLVALUE DUP1 ISZERO PUSH2 0x150 JUMPI PUSH1 0x0 DUP1 REVERT JUMPDEST POP PUSH2 0x162 PUSH10 0xD3C21BCECCEDA1000000 DUP2 JUMP JUMPDEST PUSH1 0x40 MLOAD SWAP1 DUP2 MSTORE PUSH1 0x20 ADD PUSH2 0x13B JUMP JUMPDEST CALLVALUE DUP1 ISZERO PUSH2 0x17C JUMPI PUSH1 0x0 DUP1 REVERT JUMPDEST POP PUSH2 0x162 PUSH8 0x8AC7230489E80000 DUP2 JUMP JUMPDEST CALLVALUE DUP1 ISZERO PUSH2 0x198 JUMPI PUSH1 0x0 DUP1 REVERT JUMPDEST POP PUSH2 0x1A3 PUSH3 0xD89B4 DUP2 JUMP JUMPDEST PUSH1 0x40 MLOAD PUSH1 0x2 SWAP2 SWAP1 SWAP2 SIGNEXTEND DUP2 MSTORE PUSH1 0x20 ADD PUSH2 0x13B JUMP JUMPDEST CALLVALUE DUP1 ISZERO PUSH2 0x1C2 JUMPI PUSH1 0x0 DUP1 REVERT JUMPDEST POP PUSH1 0x0 SLOAD PUSH2 0x127 SWAP1 PUSH1 0x1 PUSH1 0x1 PUSH1 0xA0 SHL SUB AND DUP2 JUMP JUMPDEST CALLVALUE DUP1 ISZERO PUSH2 0x1E2 JUMPI PUSH1 0x0 DUP1 REVERT JUMPDEST POP PUSH2 0x127 PUSH2 0x1F1 CALLDATASIZE PUSH1 0x4 PUSH2 0xEFD JUMP JUMPDEST PUSH2 0x927 JUMP JUMPDEST CALLVALUE DUP1 ISZERO PUSH2 0x202 JUMPI PUSH1 0x0 DUP1 REVERT JUMPDEST POP PUSH2 0x1A3 PUSH3 0xD89B3 NOT DUP2 JUMP JUMPDEST CALLVALUE DUP1 ISZERO PUSH2 0x21A JUMPI PUSH1 0x0 DUP1 REVERT JUMPDEST POP PUSH1 0x2 SLOAD PUSH2 0x127 SWAP1 PUSH1 0x1 PUSH1 0x1 PUSH1 0xA0 SHL SUB AND DUP2 JUMP JUMPDEST CALLVALUE DUP1 ISZERO PUSH2 0x23A JUMPI PUSH1 0x0 DUP1 REVERT JUMPDEST POP PUSH2 0xF2 PUSH2 0x249 CALLDATASIZE PUSH1 0x4 PUSH2 0xEB4 JUMP JUMPDEST PUSH2 0x99D JUMP JUMPDEST CALLVALUE DUP1 ISZERO PUSH2 0x25A JUMPI PUSH1 0x0 DUP1 REVERT JUMPDEST POP PUSH2 0xF2 PUSH2 0xAF8 JUMP JUMPDEST CALLVALUE DUP1 ISZERO PUSH2 0x26F JUMPI PUSH1 0x0 DUP1 REVERT JUMPDEST POP PUSH2 0xF2 PUSH2 0x27E CALLDATASIZE PUSH1 0x4 PUSH2 0xEB4 JUMP JUMPDEST PUSH2 0xBC9 JUMP JUMPDEST PUSH1 0x0 SLOAD PUSH1 0x1 PUSH1 0x1 PUSH1 0xA0 SHL SUB AND CALLER EQ PUSH2 0x2B6 JUMPI PUSH1 0x40 MLOAD PUSH3 0x461BCD PUSH1 0xE5 SHL DUP2 MSTORE PUSH1 0x4 ADD PUSH2 0x2AD SWAP1 PUSH2 0xF1F JUMP JUMPDEST PUSH1 0x40 MLOAD DUP1 SWAP2 SUB SWAP1 REVERT JUMPDEST PUSH1 0x1 PUSH1 0x1 PUSH1 0xA0 SHL SUB DUP2 AND PUSH2 0x2FE JUMPI PUSH1 0x40 MLOAD PUSH3 0x461BCD PUSH1 0xE5 SHL DUP2 MSTORE PUSH1 0x20 PUSH1 0x4 DUP3 ADD MSTORE PUSH1 0xF PUSH1 0x24 DUP3 ADD MSTORE PUSH15 0x496E76616C69642061646472657373 PUSH1 0x88 SHL PUSH1 0x44 DUP3 ADD MSTORE PUSH1 0x64 ADD PUSH2 0x2AD JUMP JUMPDEST PUSH1 0x1 DUP1 SLOAD PUSH1 0x1 PUSH1 0x1 PUSH1 0xA0 SHL SUB NOT AND PUSH1 0x1 PUSH1 0x1 PUSH1 0xA0 SHL SUB SWAP3 SWAP1 SWAP3 AND SWAP2 SWAP1 SWAP2 OR SWAP1 SSTORE JUMP JUMPDEST PUSH1 0x0 CALLVALUE GT PUSH2 0x37F JUMPI PUSH1 0x40 MLOAD PUSH3 0x461BCD PUSH1 0xE5 SHL DUP2 MSTORE PUSH1 0x20 PUSH1 0x4 DUP3 ADD MSTORE PUSH1 0x26 PUSH1 0x24 DUP3 ADD MSTORE PUSH32 0x457468657220616D6F756E74206D757374206265206772656174657220746861 PUSH1 0x44 DUP3 ADD MSTORE PUSH6 0x6E207A65726F PUSH1 0xD0 SHL PUSH1 0x64 DUP3 ADD MSTORE PUSH1 0x84 ADD PUSH2 0x2AD JUMP JUMPDEST PUSH1 0x0 DUP2 GT PUSH2 0x3DE JUMPI PUSH1 0x40 MLOAD PUSH3 0x461BCD PUSH1 0xE5 SHL DUP2 MSTORE PUSH1 0x20 PUSH1 0x4 DUP3 ADD MSTORE PUSH1 0x26 PUSH1 0x24 DUP3 ADD MSTORE PUSH32 0x546F6B656E20616D6F756E74206D757374206265206772656174657220746861 PUSH1 0x44 DUP3 ADD MSTORE PUSH6 0x6E207A65726F PUSH1 0xD0 SHL PUSH1 0x64 DUP3 ADD MSTORE PUSH1 0x84 ADD PUSH2 0x2AD JUMP JUMPDEST PUSH1 0x0 PUSH10 0xD3C21BCECCEDA1000000 DUP3 GT PUSH2 0x3F7 JUMPI DUP2 PUSH2 0x403 JUMP JUMPDEST PUSH10 0xD3C21BCECCEDA1000000 JUMPDEST SWAP1 POP PUSH1 0x0 PUSH8 0x8AC7230489E80000 CALLVALUE GT PUSH2 0x41C JUMPI CALLVALUE PUSH2 0x426 JUMP JUMPDEST PUSH8 0x8AC7230489E80000 JUMPDEST SWAP1 POP PUSH1 0x2 PUSH1 0x0 SWAP1 SLOAD SWAP1 PUSH2 0x100 EXP SWAP1 DIV PUSH1 0x1 PUSH1 0x1 PUSH1 0xA0 SHL SUB AND PUSH1 0x1 PUSH1 0x1 PUSH1 0xA0 SHL SUB AND PUSH4 0xD0E30DB0 DUP3 PUSH1 0x40 MLOAD DUP3 PUSH4 0xFFFFFFFF AND PUSH1 0xE0 SHL DUP2 MSTORE PUSH1 0x4 ADD PUSH1 0x0 PUSH1 0x40 MLOAD DUP1 DUP4 SUB DUP2 DUP6 DUP9 DUP1 EXTCODESIZE ISZERO DUP1 ISZERO PUSH2 0x478 JUMPI PUSH1 0x0 DUP1 REVERT JUMPDEST POP GAS CALL ISZERO DUP1 ISZERO PUSH2 0x48C JUMPI RETURNDATASIZE PUSH1 0x0 DUP1 RETURNDATACOPY RETURNDATASIZE PUSH1 0x0 REVERT JUMPDEST POP POP PUSH1 0x2 SLOAD PUSH1 0x40 MLOAD PUSH4 0x70A08231 PUSH1 0xE0 SHL DUP2 MSTORE ADDRESS PUSH1 0x4 DUP3 ADD MSTORE PUSH1 0x0 SWAP5 POP PUSH1 0x1 PUSH1 0x1 PUSH1 0xA0 SHL SUB SWAP1 SWAP2 AND SWAP3 POP PUSH4 0x70A08231 SWAP2 POP PUSH1 0x24 ADD PUSH1 0x20 PUSH1 0x40 MLOAD DUP1 DUP4 SUB DUP2 DUP7 GAS STATICCALL ISZERO DUP1 ISZERO PUSH2 0x4DC JUMPI RETURNDATASIZE PUSH1 0x0 DUP1 RETURNDATACOPY RETURNDATASIZE PUSH1 0x0 REVERT JUMPDEST POP POP POP POP PUSH1 0x40 MLOAD RETURNDATASIZE PUSH1 0x1F NOT PUSH1 0x1F DUP3 ADD AND DUP3 ADD DUP1 PUSH1 0x40 MSTORE POP DUP2 ADD SWAP1 PUSH2 0x500 SWAP2 SWAP1 PUSH2 0xF56 JUMP JUMPDEST SWAP1 POP DUP2 DUP2 LT ISZERO PUSH2 0x552 JUMPI PUSH1 0x40 MLOAD PUSH3 0x461BCD PUSH1 0xE5 SHL DUP2 MSTORE PUSH1 0x20 PUSH1 0x4 DUP3 ADD MSTORE PUSH1 0x1E PUSH1 0x24 DUP3 ADD MSTORE PUSH32 0x4661696C656420746F207772617020457468657220696E746F20574554480000 PUSH1 0x44 DUP3 ADD MSTORE PUSH1 0x64 ADD PUSH2 0x2AD JUMP JUMPDEST PUSH2 0x567 PUSH1 0x1 PUSH1 0x1 PUSH1 0xA0 SHL SUB DUP7 AND CALLER ADDRESS DUP7 PUSH2 0xC5D JUMP JUMPDEST PUSH1 0x2 SLOAD PUSH1 0x0 SWAP1 PUSH1 0x1 PUSH1 0x1 PUSH1 0xA0 SHL SUB SWAP1 DUP2 AND SWAP1 DUP8 AND LT PUSH2 0x591 JUMPI PUSH1 0x2 SLOAD PUSH1 0x1 PUSH1 0x1 PUSH1 0xA0 SHL SUB AND PUSH2 0x593 JUMP JUMPDEST DUP6 JUMPDEST PUSH1 0x2 SLOAD SWAP1 SWAP2 POP PUSH1 0x0 SWAP1 PUSH1 0x1 PUSH1 0x1 PUSH1 0xA0 SHL SUB SWAP1 DUP2 AND SWAP1 DUP9 AND LT PUSH2 0x5B5 JUMPI DUP7 PUSH2 0x5C2 JUMP JUMPDEST PUSH1 0x2 SLOAD PUSH1 0x1 PUSH1 0x1 PUSH1 0xA0 SHL SUB AND JUMPDEST SWAP1 POP PUSH1 0x0 PUSH2 0x5D0 DUP7 DUP7 PUSH2 0x927 JUMP JUMPDEST PUSH1 0x1 SLOAD PUSH1 0x40 MLOAD PUSH4 0x43A9D0CD PUSH1 0xE1 SHL DUP2 MSTORE PUSH1 0x1 PUSH1 0x1 PUSH1 0xA0 SHL SUB DUP7 DUP2 AND PUSH1 0x4 DUP4 ADD MSTORE DUP6 DUP2 AND PUSH1 0x24 DUP4 ADD MSTORE PUSH1 0x0 PUSH1 0x44 DUP4 ADD DUP2 SWAP1 MSTORE DUP2 DUP6 AND PUSH1 0x64 DUP5 ADD MSTORE SWAP4 SWAP5 POP SWAP1 SWAP2 AND SWAP1 PUSH4 0x8753A19A SWAP1 PUSH1 0x84 ADD PUSH1 0x20 PUSH1 0x40 MLOAD DUP1 DUP4 SUB DUP2 PUSH1 0x0 DUP8 GAS CALL ISZERO DUP1 ISZERO PUSH2 0x638 JUMPI RETURNDATASIZE PUSH1 0x0 DUP1 RETURNDATACOPY RETURNDATASIZE PUSH1 0x0 REVERT JUMPDEST POP POP POP POP PUSH1 0x40 MLOAD RETURNDATASIZE PUSH1 0x1F NOT PUSH1 0x1F DUP3 ADD AND DUP3 ADD DUP1 PUSH1 0x40 MSTORE POP DUP2 ADD SWAP1 PUSH2 0x65C SWAP2 SWAP1 PUSH2 0xF6F JUMP JUMPDEST SWAP1 POP PUSH1 0x1 PUSH1 0x1 PUSH1 0xA0 SHL SUB DUP2 AND PUSH2 0x6B4 JUMPI PUSH1 0x40 MLOAD PUSH3 0x461BCD PUSH1 0xE5 SHL DUP2 MSTORE PUSH1 0x20 PUSH1 0x4 DUP3 ADD MSTORE PUSH1 0x1D PUSH1 0x24 DUP3 ADD MSTORE PUSH32 0x4661696C656420746F2063726561746520416C676562726120706F6F6C000000 PUSH1 0x44 DUP3 ADD MSTORE PUSH1 0x64 ADD PUSH2 0x2AD JUMP JUMPDEST DUP9 PUSH1 0x1 PUSH1 0x1 PUSH1 0xA0 SHL SUB AND DUP2 PUSH1 0x1 PUSH1 0x1 PUSH1 0xA0 SHL SUB AND PUSH32 0xBC269B08661FA7948AABBB2AC773747166492E0AC63735B66898001E237A1BC DUP10 DUP10 PUSH1 0x40 MLOAD PUSH2 0x702 SWAP3 SWAP2 SWAP1 SWAP2 DUP3 MSTORE PUSH1 0x20 DUP3 ADD MSTORE PUSH1 0x40 ADD SWAP1 JUMP JUMPDEST PUSH1 0x40 MLOAD DUP1 SWAP2 SUB SWAP1 LOG3 PUSH1 0x1 SLOAD PUSH2 0x724 SWAP1 PUSH1 0x1 PUSH1 0x1 PUSH1 0xA0 SHL SUB DUP12 DUP2 AND SWAP2 AND DUP10 PUSH2 0xD57 JUMP JUMPDEST PUSH1 0x1 SLOAD PUSH1 0x2 SLOAD PUSH2 0x741 SWAP2 PUSH1 0x1 PUSH1 0x1 PUSH1 0xA0 SHL SUB SWAP2 DUP3 AND SWAP2 AND DUP8 PUSH2 0xD57 JUMP JUMPDEST PUSH1 0x40 DUP1 MLOAD PUSH2 0x160 DUP2 ADD DUP3 MSTORE PUSH1 0x1 PUSH1 0x1 PUSH1 0xA0 SHL SUB DUP1 DUP8 AND DUP1 DUP4 MSTORE DUP7 DUP3 AND PUSH1 0x20 DUP5 ADD MSTORE PUSH1 0x0 SWAP4 DUP4 ADD DUP5 SWAP1 MSTORE PUSH3 0xD89B3 NOT PUSH1 0x60 DUP5 ADD MSTORE PUSH3 0xD89B4 PUSH1 0x80 DUP5 ADD MSTORE PUSH1 0xA0 DUP4 ADD SWAP2 DUP14 AND EQ PUSH2 0x78F JUMPI DUP8 PUSH2 0x791 JUMP JUMPDEST DUP10 JUMPDEST DUP2 MSTORE PUSH1 0x20 ADD DUP12 PUSH1 0x1 PUSH1 0x1 PUSH1 0xA0 SHL SUB AND DUP8 PUSH1 0x1 PUSH1 0x1 PUSH1 0xA0 SHL SUB AND EQ PUSH2 0x7B5 JUMPI DUP10 PUSH2 0x7B7 JUMP JUMPDEST DUP8 JUMPDEST DUP2 MSTORE PUSH1 0x0 PUSH1 0x20 DUP3 ADD DUP2 SWAP1 MSTORE PUSH1 0x40 DUP3 ADD MSTORE ADDRESS PUSH1 0x60 DUP3 ADD MSTORE PUSH1 0x80 ADD PUSH2 0x7DC TIMESTAMP PUSH2 0xE10 PUSH2 0xF8C JUMP JUMPDEST SWAP1 MSTORE PUSH1 0x1 SLOAD PUSH1 0x40 MLOAD PUSH4 0xFE3F3BE7 PUSH1 0xE0 SHL DUP2 MSTORE SWAP2 SWAP3 POP PUSH1 0x0 SWAP2 DUP3 SWAP2 DUP3 SWAP2 DUP3 SWAP2 PUSH1 0x1 PUSH1 0x1 PUSH1 0xA0 SHL SUB AND SWAP1 PUSH4 0xFE3F3BE7 SWAP1 PUSH2 0x818 SWAP1 DUP9 SWAP1 PUSH1 0x4 ADD PUSH2 0xFAD JUMP JUMPDEST PUSH1 0x80 PUSH1 0x40 MLOAD DUP1 DUP4 SUB DUP2 PUSH1 0x0 DUP8 GAS CALL ISZERO DUP1 ISZERO PUSH2 0x837 JUMPI RETURNDATASIZE PUSH1 0x0 DUP1 RETURNDATACOPY RETURNDATASIZE PUSH1 0x0 REVERT JUMPDEST POP POP POP POP PUSH1 0x40 MLOAD RETURNDATASIZE PUSH1 0x1F NOT PUSH1 0x1F DUP3 ADD AND DUP3 ADD DUP1 PUSH1 0x40 MSTORE POP DUP2 ADD SWAP1 PUSH2 0x85B SWAP2 SWAP1 PUSH2 0x1075 JUMP JUMPDEST SWAP4 POP SWAP4 POP SWAP4 POP SWAP4 POP PUSH1 0x0 DUP4 PUSH1 0x1 PUSH1 0x1 PUSH1 0x80 SHL SUB AND GT PUSH2 0x8BC JUMPI PUSH1 0x40 MLOAD PUSH3 0x461BCD PUSH1 0xE5 SHL DUP2 MSTORE PUSH1 0x20 PUSH1 0x4 DUP3 ADD MSTORE PUSH1 0x18 PUSH1 0x24 DUP3 ADD MSTORE PUSH32 0x4661696C656420746F206D696E74206C69717569646974790000000000000000 PUSH1 0x44 DUP3 ADD MSTORE PUSH1 0x64 ADD PUSH2 0x2AD JUMP JUMPDEST PUSH1 0x40 DUP1 MLOAD DUP6 DUP2 MSTORE PUSH1 0x1 PUSH1 0x1 PUSH1 0x80 SHL SUB DUP6 AND PUSH1 0x20 DUP3 ADD MSTORE SWAP1 DUP2 ADD DUP4 SWAP1 MSTORE PUSH1 0x60 DUP2 ADD DUP3 SWAP1 MSTORE PUSH1 0x1 PUSH1 0x1 PUSH1 0xA0 SHL SUB DUP8 AND SWAP1 PUSH32 0x936F1605239D50A44520651CB0698A8F77EEA34A13F43A4EAC22872B1BAF48CC SWAP1 PUSH1 0x80 ADD PUSH1 0x40 MLOAD DUP1 SWAP2 SUB SWAP1 LOG2 POP POP POP POP POP POP POP POP POP POP POP POP POP POP JUMP JUMPDEST PUSH1 0x0 DUP1 PUSH10 0xD3C21BCECCEDA1000000 DUP5 GT PUSH2 0x941 JUMPI DUP4 PUSH2 0x94D JUMP JUMPDEST PUSH10 0xD3C21BCECCEDA1000000 JUMPDEST SWAP1 POP PUSH1 0x0 PUSH8 0x8AC7230489E80000 DUP5 GT PUSH2 0x966 JUMPI DUP4 PUSH2 0x970 JUMP JUMPDEST PUSH8 0x8AC7230489E80000 JUMPDEST SWAP1 POP PUSH1 0x0 PUSH2 0x982 DUP4 PUSH1 0x60 DUP5 SWAP1 SHL PUSH2 0x10C0 JUMP JUMPDEST SWAP1 POP PUSH1 0x30 PUSH2 0x98F DUP3 PUSH2 0xE48 JUMP JUMPDEST SWAP1 SHL SWAP4 POP POP POP POP JUMPDEST SWAP3 SWAP2 POP POP JUMP JUMPDEST PUSH1 0x0 SLOAD PUSH1 0x1 PUSH1 0x1 PUSH1 0xA0 SHL SUB AND CALLER EQ PUSH2 0x9C7 JUMPI PUSH1 0x40 MLOAD PUSH3 0x461BCD PUSH1 0xE5 SHL DUP2 MSTORE PUSH1 0x4 ADD PUSH2 0x2AD SWAP1 PUSH2 0xF1F JUMP JUMPDEST PUSH1 0x40 MLOAD PUSH4 0x70A08231 PUSH1 0xE0 SHL DUP2 MSTORE ADDRESS PUSH1 0x4 DUP3 ADD MSTORE PUSH1 0x0 SWAP1 PUSH1 0x1 PUSH1 0x1 PUSH1 0xA0 SHL SUB DUP4 AND SWAP1 PUSH4 0x70A08231 SWAP1 PUSH1 0x24 ADD PUSH1 0x20 PUSH1 0x40 MLOAD DUP1 DUP4 SUB DUP2 DUP7 GAS STATICCALL ISZERO DUP1 ISZERO PUSH2 0xA0E JUMPI RETURNDATASIZE PUSH1 0x0 DUP1 RETURNDATACOPY RETURNDATASIZE PUSH1 0x0 REVERT JUMPDEST POP POP POP POP PUSH1 0x40 MLOAD RETURNDATASIZE PUSH1 0x1F NOT PUSH1 0x1F DUP3 ADD AND DUP3 ADD DUP1 PUSH1 0x40 MSTORE POP DUP2 ADD SWAP1 PUSH2 0xA32 SWAP2 SWAP1 PUSH2 0xF56 JUMP JUMPDEST SWAP1 POP PUSH1 0x0 DUP2 GT PUSH2 0xA7C JUMPI PUSH1 0x40 MLOAD PUSH3 0x461BCD PUSH1 0xE5 SHL DUP2 MSTORE PUSH1 0x20 PUSH1 0x4 DUP3 ADD MSTORE PUSH1 0x15 PUSH1 0x24 DUP3 ADD MSTORE PUSH21 0x4E6F20746F6B656E7320746F207769746864726177 PUSH1 0x58 SHL PUSH1 0x44 DUP3 ADD MSTORE PUSH1 0x64 ADD PUSH2 0x2AD JUMP JUMPDEST PUSH1 0x0 SLOAD PUSH1 0x40 MLOAD PUSH4 0xA9059CBB PUSH1 0xE0 SHL DUP2 MSTORE PUSH1 0x1 PUSH1 0x1 PUSH1 0xA0 SHL SUB SWAP2 DUP3 AND PUSH1 0x4 DUP3 ADD MSTORE PUSH1 0x24 DUP2 ADD DUP4 SWAP1 MSTORE SWAP1 DUP4 AND SWAP1 PUSH4 0xA9059CBB SWAP1 PUSH1 0x44 ADD PUSH1 0x20 PUSH1 0x40 MLOAD DUP1 DUP4 SUB DUP2 PUSH1 0x0 DUP8 GAS CALL ISZERO DUP1 ISZERO PUSH2 0xACF JUMPI RETURNDATASIZE PUSH1 0x0 DUP1 RETURNDATACOPY RETURNDATASIZE PUSH1 0x0 REVERT JUMPDEST POP POP POP POP PUSH1 0x40 MLOAD RETURNDATASIZE PUSH1 0x1F NOT PUSH1 0x1F DUP3 ADD AND DUP3 ADD DUP1 PUSH1 0x40 MSTORE POP DUP2 ADD SWAP1 PUSH2 0xAF3 SWAP2 SWAP1 PUSH2 0x10E2 JUMP JUMPDEST POP POP POP JUMP JUMPDEST PUSH1 0x0 SLOAD PUSH1 0x1 PUSH1 0x1 PUSH1 0xA0 SHL SUB AND CALLER EQ PUSH2 0xB22 JUMPI PUSH1 0x40 MLOAD PUSH3 0x461BCD PUSH1 0xE5 SHL DUP2 MSTORE PUSH1 0x4 ADD PUSH2 0x2AD SWAP1 PUSH2 0xF1F JUMP JUMPDEST SELFBALANCE DUP1 ISZERO PUSH2 0xBC6 JUMPI PUSH1 0x0 DUP1 SLOAD PUSH1 0x40 MLOAD PUSH1 0x1 PUSH1 0x1 PUSH1 0xA0 SHL SUB SWAP1 SWAP2 AND SWAP1 DUP4 SWAP1 DUP4 DUP2 DUP2 DUP2 DUP6 DUP8 GAS CALL SWAP3 POP POP POP RETURNDATASIZE DUP1 PUSH1 0x0 DUP2 EQ PUSH2 0xB76 JUMPI PUSH1 0x40 MLOAD SWAP2 POP PUSH1 0x1F NOT PUSH1 0x3F RETURNDATASIZE ADD AND DUP3 ADD PUSH1 0x40 MSTORE RETURNDATASIZE DUP3 MSTORE RETURNDATASIZE PUSH1 0x0 PUSH1 0x20 DUP5 ADD RETURNDATACOPY PUSH2 0xB7B JUMP JUMPDEST PUSH1 0x60 SWAP2 POP JUMPDEST POP POP SWAP1 POP DUP1 PUSH2 0xBC4 JUMPI PUSH1 0x40 MLOAD PUSH3 0x461BCD PUSH1 0xE5 SHL DUP2 MSTORE PUSH1 0x20 PUSH1 0x4 DUP3 ADD MSTORE PUSH1 0x15 PUSH1 0x24 DUP3 ADD MSTORE PUSH21 0x115D1A195C881DDA5D1A191C985DC819985A5B1959 PUSH1 0x5A SHL PUSH1 0x44 DUP3 ADD MSTORE PUSH1 0x64 ADD PUSH2 0x2AD JUMP JUMPDEST POP JUMPDEST POP JUMP JUMPDEST PUSH1 0x0 SLOAD PUSH1 0x1 PUSH1 0x1 PUSH1 0xA0 SHL SUB AND CALLER EQ PUSH2 0xBF3 JUMPI PUSH1 0x40 MLOAD PUSH3 0x461BCD PUSH1 0xE5 SHL DUP2 MSTORE PUSH1 0x4 ADD PUSH2 0x2AD SWAP1 PUSH2 0xF1F JUMP JUMPDEST PUSH1 0x1 PUSH1 0x1 PUSH1 0xA0 SHL SUB DUP2 AND PUSH2 0xC3B JUMPI PUSH1 0x40 MLOAD PUSH3 0x461BCD PUSH1 0xE5 SHL DUP2 MSTORE PUSH1 0x20 PUSH1 0x4 DUP3 ADD MSTORE PUSH1 0xF PUSH1 0x24 DUP3 ADD MSTORE PUSH15 0x496E76616C69642061646472657373 PUSH1 0x88 SHL PUSH1 0x44 DUP3 ADD MSTORE PUSH1 0x64 ADD PUSH2 0x2AD JUMP JUMPDEST PUSH1 0x2 DUP1 SLOAD PUSH1 0x1 PUSH1 0x1 PUSH1 0xA0 SHL SUB NOT AND PUSH1 0x1 PUSH1 0x1 PUSH1 0xA0 SHL SUB SWAP3 SWAP1 SWAP3 AND SWAP2 SWAP1 SWAP2 OR SWAP1 SSTORE JUMP JUMPDEST PUSH1 0x40 DUP1 MLOAD PUSH1 0x1 PUSH1 0x1 PUSH1 0xA0 SHL SUB DUP6 DUP2 AND PUSH1 0x24 DUP4 ADD MSTORE DUP5 DUP2 AND PUSH1 0x44 DUP4 ADD MSTORE PUSH1 0x64 DUP1 DUP4 ADD DUP6 SWAP1 MSTORE DUP4 MLOAD DUP1 DUP5 SUB SWAP1 SWAP2 ADD DUP2 MSTORE PUSH1 0x84 SWAP1 SWAP3 ADD DUP4 MSTORE PUSH1 0x20 DUP3 ADD DUP1 MLOAD PUSH1 0x1 PUSH1 0x1 PUSH1 0xE0 SHL SUB AND PUSH4 0x23B872DD PUSH1 0xE0 SHL OR SWAP1 MSTORE SWAP2 MLOAD PUSH1 0x0 SWAP3 DUP4 SWAP3 SWAP1 DUP9 AND SWAP2 PUSH2 0xCC1 SWAP2 SWAP1 PUSH2 0x1104 JUMP JUMPDEST PUSH1 0x0 PUSH1 0x40 MLOAD DUP1 DUP4 SUB DUP2 PUSH1 0x0 DUP7 GAS CALL SWAP2 POP POP RETURNDATASIZE DUP1 PUSH1 0x0 DUP2 EQ PUSH2 0xCFE JUMPI PUSH1 0x40 MLOAD SWAP2 POP PUSH1 0x1F NOT PUSH1 0x3F RETURNDATASIZE ADD AND DUP3 ADD PUSH1 0x40 MSTORE RETURNDATASIZE DUP3 MSTORE RETURNDATASIZE PUSH1 0x0 PUSH1 0x20 DUP5 ADD RETURNDATACOPY PUSH2 0xD03 JUMP JUMPDEST PUSH1 0x60 SWAP2 POP JUMPDEST POP SWAP2 POP SWAP2 POP DUP2 ISZERO DUP1 PUSH2 0xD31 JUMPI POP DUP1 MLOAD ISZERO DUP1 ISZERO SWAP1 PUSH2 0xD31 JUMPI POP DUP1 DUP1 PUSH1 0x20 ADD SWAP1 MLOAD DUP2 ADD SWAP1 PUSH2 0xD2F SWAP2 SWAP1 PUSH2 0x10E2 JUMP JUMPDEST ISZERO JUMPDEST ISZERO PUSH2 0xD4F JUMPI PUSH1 0x40 MLOAD PUSH4 0x817275AB PUSH1 0xE0 SHL DUP2 MSTORE PUSH1 0x4 ADD PUSH1 0x40 MLOAD DUP1 SWAP2 SUB SWAP1 REVERT JUMPDEST POP POP POP POP POP POP JUMP JUMPDEST PUSH1 0x40 DUP1 MLOAD PUSH1 0x1 PUSH1 0x1 PUSH1 0xA0 SHL SUB DUP5 DUP2 AND PUSH1 0x24 DUP4 ADD MSTORE PUSH1 0x44 DUP1 DUP4 ADD DUP6 SWAP1 MSTORE DUP4 MLOAD DUP1 DUP5 SUB SWAP1 SWAP2 ADD DUP2 MSTORE PUSH1 0x64 SWAP1 SWAP3 ADD DUP4 MSTORE PUSH1 0x20 DUP3 ADD DUP1 MLOAD PUSH1 0x1 PUSH1 0x1 PUSH1 0xE0 SHL SUB AND PUSH4 0x95EA7B3 PUSH1 0xE0 SHL OR SWAP1 MSTORE SWAP2 MLOAD PUSH1 0x0 SWAP3 DUP4 SWAP3 SWAP1 DUP8 AND SWAP2 PUSH2 0xDB3 SWAP2 SWAP1 PUSH2 0x1104 JUMP JUMPDEST PUSH1 0x0 PUSH1 0x40 MLOAD DUP1 DUP4 SUB DUP2 PUSH1 0x0 DUP7 GAS CALL SWAP2 POP POP RETURNDATASIZE DUP1 PUSH1 0x0 DUP2 EQ PUSH2 0xDF0 JUMPI PUSH1 0x40 MLOAD SWAP2 POP PUSH1 0x1F NOT PUSH1 0x3F RETURNDATASIZE ADD AND DUP3 ADD PUSH1 0x40 MSTORE RETURNDATASIZE DUP3 MSTORE RETURNDATASIZE PUSH1 0x0 PUSH1 0x20 DUP5 ADD RETURNDATACOPY PUSH2 0xDF5 JUMP JUMPDEST PUSH1 0x60 SWAP2 POP JUMPDEST POP SWAP2 POP SWAP2 POP DUP2 ISZERO DUP1 PUSH2 0xE23 JUMPI POP DUP1 MLOAD ISZERO DUP1 ISZERO SWAP1 PUSH2 0xE23 JUMPI POP DUP1 DUP1 PUSH1 0x20 ADD SWAP1 MLOAD DUP2 ADD SWAP1 PUSH2 0xE21 SWAP2 SWAP1 PUSH2 0x10E2 JUMP JUMPDEST ISZERO JUMPDEST ISZERO PUSH2 0xE41 JUMPI PUSH1 0x40 MLOAD PUSH4 0x7CD36C65 PUSH1 0xE1 SHL DUP2 MSTORE PUSH1 0x4 ADD PUSH1 0x40 MLOAD DUP1 SWAP2 SUB SWAP1 REVERT JUMPDEST POP POP POP POP POP JUMP JUMPDEST PUSH1 0x0 DUP1 PUSH1 0x2 PUSH2 0xE58 DUP5 PUSH1 0x1 PUSH2 0xF8C JUMP JUMPDEST PUSH2 0xE62 SWAP2 SWAP1 PUSH2 0x10C0 JUMP JUMPDEST SWAP1 POP DUP3 JUMPDEST DUP1 DUP3 LT ISZERO PUSH2 0xE98 JUMPI POP DUP1 PUSH1 0x2 DUP2 PUSH2 0xE7D DUP2 DUP8 PUSH2 0x10C0 JUMP JUMPDEST PUSH2 0xE87 SWAP2 SWAP1 PUSH2 0xF8C JUMP JUMPDEST PUSH2 0xE91 SWAP2 SWAP1 PUSH2 0x10C0 JUMP JUMPDEST SWAP2 POP PUSH2 0xE66 JUMP JUMPDEST SWAP4 SWAP3 POP POP POP JUMP JUMPDEST PUSH1 0x1 PUSH1 0x1 PUSH1 0xA0 SHL SUB DUP2 AND DUP2 EQ PUSH2 0xBC6 JUMPI PUSH1 0x0 DUP1 REVERT JUMPDEST PUSH1 0x0 PUSH1 0x20 DUP3 DUP5 SUB SLT ISZERO PUSH2 0xEC6 JUMPI PUSH1 0x0 DUP1 REVERT JUMPDEST DUP2 CALLDATALOAD PUSH2 0xE98 DUP2 PUSH2 0xE9F JUMP JUMPDEST PUSH1 0x0 DUP1 PUSH1 0x40 DUP4 DUP6 SUB SLT ISZERO PUSH2 0xEE4 JUMPI PUSH1 0x0 DUP1 REVERT JUMPDEST DUP3 CALLDATALOAD PUSH2 0xEEF DUP2 PUSH2 0xE9F JUMP JUMPDEST SWAP5 PUSH1 0x20 SWAP4 SWAP1 SWAP4 ADD CALLDATALOAD SWAP4 POP POP POP JUMP JUMPDEST PUSH1 0x0 DUP1 PUSH1 0x40 DUP4 DUP6 SUB SLT ISZERO PUSH2 0xF10 JUMPI PUSH1 0x0 DUP1 REVERT JUMPDEST POP POP DUP1 CALLDATALOAD SWAP3 PUSH1 0x20 SWAP1 SWAP2 ADD CALLDATALOAD SWAP2 POP JUMP JUMPDEST PUSH1 0x20 DUP1 DUP3 MSTORE PUSH1 0x18 SWAP1 DUP3 ADD MSTORE PUSH32 0x4F6E6C79206F776E65722063616E2063616C6C20746869730000000000000000 PUSH1 0x40 DUP3 ADD MSTORE PUSH1 0x60 ADD SWAP1 JUMP JUMPDEST PUSH1 0x0 PUSH1 0x20 DUP3 DUP5 SUB SLT ISZERO PUSH2 0xF68 JUMPI PUSH1 0x0 DUP1 REVERT JUMPDEST POP MLOAD SWAP2 SWAP1 POP JUMP JUMPDEST PUSH1 0x0 PUSH1 0x20 DUP3 DUP5 SUB SLT ISZERO PUSH2 0xF81 JUMPI PUSH1 0x0 DUP1 REVERT JUMPDEST DUP2 MLOAD PUSH2 0xE98 DUP2 PUSH2 0xE9F JUMP JUMPDEST DUP1 DUP3 ADD DUP1 DUP3 GT ISZERO PUSH2 0x997 JUMPI PUSH4 0x4E487B71 PUSH1 0xE0 SHL PUSH1 0x0 MSTORE PUSH1 0x11 PUSH1 0x4 MSTORE PUSH1 0x24 PUSH1 0x0 REVERT JUMPDEST DUP2 MLOAD PUSH1 0x1 PUSH1 0x1 PUSH1 0xA0 SHL SUB AND DUP2 MSTORE PUSH2 0x160 DUP2 ADD PUSH1 0x20 DUP4 ADD MLOAD PUSH2 0xFD9 PUSH1 0x20 DUP5 ADD DUP3 PUSH1 0x1 PUSH1 0x1 PUSH1 0xA0 SHL SUB AND SWAP1 MSTORE JUMP JUMPDEST POP PUSH1 0x40 DUP4 ADD MLOAD PUSH2 0xFF4 PUSH1 0x40 DUP5 ADD DUP3 PUSH1 0x1 PUSH1 0x1 PUSH1 0xA0 SHL SUB AND SWAP1 MSTORE JUMP JUMPDEST POP PUSH1 0x60 DUP4 ADD MLOAD PUSH2 0x1009 PUSH1 0x60 DUP5 ADD DUP3 PUSH1 0x2 SIGNEXTEND SWAP1 MSTORE JUMP JUMPDEST POP PUSH1 0x80 DUP4 ADD MLOAD PUSH2 0x101E PUSH1 0x80 DUP5 ADD DUP3 PUSH1 0x2 SIGNEXTEND SWAP1 MSTORE JUMP JUMPDEST POP PUSH1 0xA0 DUP4 ADD MLOAD PUSH1 0xA0 DUP4 ADD MSTORE PUSH1 0xC0 DUP4 ADD MLOAD PUSH1 0xC0 DUP4 ADD MSTORE PUSH1 0xE0 DUP4 ADD MLOAD PUSH1 0xE0 DUP4 ADD MSTORE PUSH2 0x100 DUP4 ADD MLOAD PUSH2 0x100 DUP4 ADD MSTORE PUSH2 0x120 DUP4 ADD MLOAD PUSH2 0x1065 PUSH2 0x120 DUP5 ADD DUP3 PUSH1 0x1 PUSH1 0x1 PUSH1 0xA0 SHL SUB AND SWAP1 MSTORE JUMP JUMPDEST POP PUSH2 0x140 SWAP3 DUP4 ADD MLOAD SWAP2 SWAP1 SWAP3 ADD MSTORE SWAP1 JUMP JUMPDEST PUSH1 0x0 DUP1 PUSH1 0x0 DUP1 PUSH1 0x80 DUP6 DUP8 SUB SLT ISZERO PUSH2 0x108B JUMPI PUSH1 0x0 DUP1 REVERT JUMPDEST DUP5 MLOAD PUSH1 0x20 DUP7 ADD MLOAD SWAP1 SWAP5 POP PUSH1 0x1 PUSH1 0x1 PUSH1 0x80 SHL SUB DUP2 AND DUP2 EQ PUSH2 0x10AA JUMPI PUSH1 0x0 DUP1 REVERT JUMPDEST PUSH1 0x40 DUP7 ADD MLOAD PUSH1 0x60 SWAP1 SWAP7 ADD MLOAD SWAP5 SWAP8 SWAP1 SWAP7 POP SWAP3 POP POP POP JUMP JUMPDEST PUSH1 0x0 DUP3 PUSH2 0x10DD JUMPI PUSH4 0x4E487B71 PUSH1 0xE0 SHL PUSH1 0x0 MSTORE PUSH1 0x12 PUSH1 0x4 MSTORE PUSH1 0x24 PUSH1 0x0 REVERT JUMPDEST POP DIV SWAP1 JUMP JUMPDEST PUSH1 0x0 PUSH1 0x20 DUP3 DUP5 SUB SLT ISZERO PUSH2 0x10F4 JUMPI PUSH1 0x0 DUP1 REVERT JUMPDEST DUP2 MLOAD DUP1 ISZERO ISZERO DUP2 EQ PUSH2 0xE98 JUMPI PUSH1 0x0 DUP1 REVERT JUMPDEST PUSH1 0x0 DUP3 MLOAD PUSH1 0x0 JUMPDEST DUP2 DUP2 LT ISZERO PUSH2 0x1125 JUMPI PUSH1 0x20 DUP2 DUP7 ADD DUP2 ADD MLOAD DUP6 DUP4 ADD MSTORE ADD PUSH2 0x110B JUMP JUMPDEST POP PUSH1 0x0 SWAP3 ADD SWAP2 DUP3 MSTORE POP SWAP2 SWAP1 POP JUMP INVALID LOG2 PUSH5 0x6970667358 0x22 SLT KECCAK256 0xDD 0xF6 INVALID SLT 0xBF NUMBER 0xCC GT AND 0xEB BLOCKHASH CREATE LOG1 0xD0 PUSH15 0x644C381BD8972D29AA00A1836E6EC3 0xBE 0xB4 PUSH5 0x736F6C6343 STOP ADDMOD BYTE STOP CALLER "
				},
				"gasEstimates": {
					"creation": {
						"codeDepositCost": "891400",
						"executionCost": "infinite",
						"totalCost": "infinite"
					},
					"external": {
						"MAX_ETH_LIMIT()": "284",
						"MAX_TICK()": "320",
						"MAX_TOKEN_LIMIT()": "262",
						"MIN_TICK()": "279",
						"WETH()": "2348",
						"algebraUnified()": "2371",
						"calculateSqrtPriceX96(uint256,uint256)": "infinite",
						"emergencyWithdraw()": "infinite",
						"emergencyWithdrawTokens(address)": "infinite",
						"initiateMigration(address,uint256)": "infinite",
						"owner()": "2349",
						"updateAlgebraUnified(address)": "26741",
						"updateWETH(address)": "26828"
					},
					"internal": {
						"sqrt(uint256)": "infinite"
					}
				},
				"methodIdentifiers": {
					"MAX_ETH_LIMIT()": "5a2f0ae7",
					"MAX_TICK()": "6882a888",
					"MAX_TOKEN_LIMIT()": "3b7ab5b3",
					"MIN_TICK()": "a1634b14",
					"WETH()": "ad5c4648",
					"algebraUnified()": "24f8eca7",
					"calculateSqrtPriceX96(uint256,uint256)": "a000bf4f",
					"emergencyWithdraw()": "db2e21bc",
					"emergencyWithdrawTokens(address)": "b2af127c",
					"initiateMigration(address,uint256)": "18fd7858",
					"owner()": "8da5cb5b",
					"updateAlgebraUnified(address)": "09fe2d34",
					"updateWETH(address)": "fe9440d7"
				}
			},
			"storageLayout": {
				"storage": [
					{
						"astId": 292,
						"contract": "contracts/token factory/Migrator.sol:Migrator",
						"label": "owner",
						"offset": 0,
						"slot": "0",
						"type": "t_address"
					},
					{
						"astId": 294,
						"contract": "contracts/token factory/Migrator.sol:Migrator",
						"label": "algebraUnified",
						"offset": 0,
						"slot": "1",
						"type": "t_address"
					},
					{
						"astId": 296,
						"contract": "contracts/token factory/Migrator.sol:Migrator",
						"label": "WETH",
						"offset": 0,
						"slot": "2",
						"type": "t_address"
					}
				],
				"types": {
					"t_address": {
						"encoding": "inplace",
						"label": "address",
						"numberOfBytes": "20"
					}
				}
			},
			"userdoc": {
				"kind": "user",
				"methods": {},
				"version": 1
			}
		}
	}
}