{
	"contracts/token factory/token.sol": {
		"MyToken": {
			"abi": [
				{
					"inputs": [],
					"stateMutability": "nonpayable",
					"type": "constructor"
				},
				{
					"anonymous": false,
					"inputs": [
						{
							"indexed": true,
							"internalType": "address",
							"name": "owner",
							"type": "address"
						},
						{
							"indexed": true,
							"internalType": "address",
							"name": "spender",
							"type": "address"
						},
						{
							"indexed": false,
							"internalType": "uint256",
							"name": "value",
							"type": "uint256"
						}
					],
					"name": "Approval",
					"type": "event"
				},
				{
					"anonymous": false,
					"inputs": [
						{
							"indexed": true,
							"internalType": "address",
							"name": "previousOwner",
							"type": "address"
						},
						{
							"indexed": true,
							"internalType": "address",
							"name": "newOwner",
							"type": "address"
						}
					],
					"name": "OwnershipTransferred",
					"type": "event"
				},
				{
					"anonymous": false,
					"inputs": [
						{
							"indexed": true,
							"internalType": "address",
							"name": "from",
							"type": "address"
						},
						{
							"indexed": true,
							"internalType": "address",
							"name": "to",
							"type": "address"
						},
						{
							"indexed": false,
							"internalType": "uint256",
							"name": "value",
							"type": "uint256"
						}
					],
					"name": "Transfer",
					"type": "event"
				},
				{
					"inputs": [],
					"name": "DOMAIN_SEPARATOR",
					"outputs": [
						{
							"internalType": "bytes32",
							"name": "",
							"type": "bytes32"
						}
					],
					"stateMutability": "view",
					"type": "function"
				},
				{
					"inputs": [
						{
							"internalType": "address",
							"name": "owner",
							"type": "address"
						},
						{
							"internalType": "address",
							"name": "spender",
							"type": "address"
						}
					],
					"name": "allowance",
					"outputs": [
						{
							"internalType": "uint256",
							"name": "",
							"type": "uint256"
						}
					],
					"stateMutability": "view",
					"type": "function"
				},
				{
					"inputs": [
						{
							"internalType": "address",
							"name": "spender",
							"type": "address"
						},
						{
							"internalType": "uint256",
							"name": "amount",
							"type": "uint256"
						}
					],
					"name": "approve",
					"outputs": [
						{
							"internalType": "bool",
							"name": "",
							"type": "bool"
						}
					],
					"stateMutability": "nonpayable",
					"type": "function"
				},
				{
					"inputs": [
						{
							"internalType": "address",
							"name": "account",
							"type": "address"
						}
					],
					"name": "balanceOf",
					"outputs": [
						{
							"internalType": "uint256",
							"name": "",
							"type": "uint256"
						}
					],
					"stateMutability": "view",
					"type": "function"
				},
				{
					"inputs": [
						{
							"internalType": "uint256",
							"name": "amount",
							"type": "uint256"
						}
					],
					"name": "burn",
					"outputs": [],
					"stateMutability": "nonpayable",
					"type": "function"
				},
				{
					"inputs": [
						{
							"internalType": "address",
							"name": "account",
							"type": "address"
						},
						{
							"internalType": "uint256",
							"name": "amount",
							"type": "uint256"
						}
					],
					"name": "burnFrom",
					"outputs": [],
					"stateMutability": "nonpayable",
					"type": "function"
				},
				{
					"inputs": [],
					"name": "decimals",
					"outputs": [
						{
							"internalType": "uint8",
							"name": "",
							"type": "uint8"
						}
					],
					"stateMutability": "view",
					"type": "function"
				},
				{
					"inputs": [
						{
							"internalType": "address",
							"name": "spender",
							"type": "address"
						},
						{
							"internalType": "uint256",
							"name": "subtractedValue",
							"type": "uint256"
						}
					],
					"name": "decreaseAllowance",
					"outputs": [
						{
							"internalType": "bool",
							"name": "",
							"type": "bool"
						}
					],
					"stateMutability": "nonpayable",
					"type": "function"
				},
				{
					"inputs": [
						{
							"internalType": "address",
							"name": "spender",
							"type": "address"
						},
						{
							"internalType": "uint256",
							"name": "addedValue",
							"type": "uint256"
						}
					],
					"name": "increaseAllowance",
					"outputs": [
						{
							"internalType": "bool",
							"name": "",
							"type": "bool"
						}
					],
					"stateMutability": "nonpayable",
					"type": "function"
				},
				{
					"inputs": [
						{
							"internalType": "address",
							"name": "to",
							"type": "address"
						},
						{
							"internalType": "uint256",
							"name": "amount",
							"type": "uint256"
						}
					],
					"name": "mint",
					"outputs": [],
					"stateMutability": "nonpayable",
					"type": "function"
				},
				{
					"inputs": [],
					"name": "name",
					"outputs": [
						{
							"internalType": "string",
							"name": "",
							"type": "string"
						}
					],
					"stateMutability": "view",
					"type": "function"
				},
				{
					"inputs": [
						{
							"internalType": "address",
							"name": "owner",
							"type": "address"
						}
					],
					"name": "nonces",
					"outputs": [
						{
							"internalType": "uint256",
							"name": "",
							"type": "uint256"
						}
					],
					"stateMutability": "view",
					"type": "function"
				},
				{
					"inputs": [],
					"name": "owner",
					"outputs": [
						{
							"internalType": "address",
							"name": "",
							"type": "address"
						}
					],
					"stateMutability": "view",
					"type": "function"
				},
				{
					"inputs": [
						{
							"internalType": "address",
							"name": "owner",
							"type": "address"
						},
						{
							"internalType": "address",
							"name": "spender",
							"type": "address"
						},
						{
							"internalType": "uint256",
							"name": "value",
							"type": "uint256"
						},
						{
							"internalType": "uint256",
							"name": "deadline",
							"type": "uint256"
						},
						{
							"internalType": "uint8",
							"name": "v",
							"type": "uint8"
						},
						{
							"internalType": "bytes32",
							"name": "r",
							"type": "bytes32"
						},
						{
							"internalType": "bytes32",
							"name": "s",
							"type": "bytes32"
						}
					],
					"name": "permit",
					"outputs": [],
					"stateMutability": "nonpayable",
					"type": "function"
				},
				{
					"inputs": [],
					"name": "renounceOwnership",
					"outputs": [],
					"stateMutability": "nonpayable",
					"type": "function"
				},
				{
					"inputs": [],
					"name": "symbol",
					"outputs": [
						{
							"internalType": "string",
							"name": "",
							"type": "string"
						}
					],
					"stateMutability": "view",
					"type": "function"
				},
				{
					"inputs": [],
					"name": "totalSupply",
					"outputs": [
						{
							"internalType": "uint256",
							"name": "",
							"type": "uint256"
						}
					],
					"stateMutability": "view",
					"type": "function"
				},
				{
					"inputs": [
						{
							"internalType": "address",
							"name": "to",
							"type": "address"
						},
						{
							"internalType": "uint256",
							"name": "amount",
							"type": "uint256"
						}
					],
					"name": "transfer",
					"outputs": [
						{
							"internalType": "bool",
							"name": "",
							"type": "bool"
						}
					],
					"stateMutability": "nonpayable",
					"type": "function"
				},
				{
					"inputs": [
						{
							"internalType": "address",
							"name": "from",
							"type": "address"
						},
						{
							"internalType": "address",
							"name": "to",
							"type": "address"
						},
						{
							"internalType": "uint256",
							"name": "amount",
							"type": "uint256"
						}
					],
					"name": "transferFrom",
					"outputs": [
						{
							"internalType": "bool",
							"name": "",
							"type": "bool"
						}
					],
					"stateMutability": "nonpayable",
					"type": "function"
				},
				{
					"inputs": [
						{
							"internalType": "address",
							"name": "newOwner",
							"type": "address"
						}
					],
					"name": "transferOwnership",
					"outputs": [],
					"stateMutability": "nonpayable",
					"type": "function"
				}
			],
			"devdoc": {
				"events": {
					"Approval(address,address,uint256)": {
						"details": "Emitted when the allowance of a `spender` for an `owner` is set by a call to {approve}. `value` is the new allowance."
					},
					"Transfer(address,address,uint256)": {
						"details": "Emitted when `value` tokens are moved from one account (`from`) to another (`to`). Note that `value` may be zero."
					}
				},
				"kind": "dev",
				"methods": {
					"DOMAIN_SEPARATOR()": {
						"details": "See {IERC20Permit-DOMAIN_SEPARATOR}."
					},
					"allowance(address,address)": {
						"details": "See {IERC20-allowance}."
					},
					"approve(address,uint256)": {
						"details": "See {IERC20-approve}. NOTE: If `amount` is the maximum `uint256`, the allowance is not updated on `transferFrom`. This is semantically equivalent to an infinite approval. Requirements: - `spender` cannot be the zero address."
					},
					"balanceOf(address)": {
						"details": "See {IERC20-balanceOf}."
					},
					"burn(uint256)": {
						"details": "Destroys `amount` tokens from the caller. See {ERC20-_burn}."
					},
					"burnFrom(address,uint256)": {
						"details": "Destroys `amount` tokens from `account`, deducting from the caller's allowance. See {ERC20-_burn} and {ERC20-allowance}. Requirements: - the caller must have allowance for ``accounts``'s tokens of at least `amount`."
					},
					"decimals()": {
						"details": "Returns the number of decimals used to get its user representation. For example, if `decimals` equals `2`, a balance of `505` tokens should be displayed to a user as `5.05` (`505 / 10 ** 2`). Tokens usually opt for a value of 18, imitating the relationship between Ether and Wei. This is the value {ERC20} uses, unless this function is overridden; NOTE: This information is only used for _display_ purposes: it in no way affects any of the arithmetic of the contract, including {IERC20-balanceOf} and {IERC20-transfer}."
					},
					"decreaseAllowance(address,uint256)": {
						"details": "Atomically decreases the allowance granted to `spender` by the caller. This is an alternative to {approve} that can be used as a mitigation for problems described in {IERC20-approve}. Emits an {Approval} event indicating the updated allowance. Requirements: - `spender` cannot be the zero address. - `spender` must have allowance for the caller of at least `subtractedValue`."
					},
					"increaseAllowance(address,uint256)": {
						"details": "Atomically increases the allowance granted to `spender` by the caller. This is an alternative to {approve} that can be used as a mitigation for problems described in {IERC20-approve}. Emits an {Approval} event indicating the updated allowance. Requirements: - `spender` cannot be the zero address."
					},
					"name()": {
						"details": "Returns the name of the token."
					},
					"nonces(address)": {
						"details": "See {IERC20Permit-nonces}."
					},
					"owner()": {
						"details": "Returns the address of the current owner."
					},
					"permit(address,address,uint256,uint256,uint8,bytes32,bytes32)": {
						"details": "See {IERC20Permit-permit}."
					},
					"renounceOwnership()": {
						"details": "Leaves the contract without owner. It will not be possible to call `onlyOwner` functions anymore. Can only be called by the current owner. NOTE: Renouncing ownership will leave the contract without an owner, thereby removing any functionality that is only available to the owner."
					},
					"symbol()": {
						"details": "Returns the symbol of the token, usually a shorter version of the name."
					},
					"totalSupply()": {
						"details": "See {IERC20-totalSupply}."
					},
					"transfer(address,uint256)": {
						"details": "See {IERC20-transfer}. Requirements: - `to` cannot be the zero address. - the caller must have a balance of at least `amount`."
					},
					"transferFrom(address,address,uint256)": {
						"details": "See {IERC20-transferFrom}. Emits an {Approval} event indicating the updated allowance. This is not required by the EIP. See the note at the beginning of {ERC20}. NOTE: Does not update the allowance if the current allowance is the maximum `uint256`. Requirements: - `from` and `to` cannot be the zero address. - `from` must have a balance of at least `amount`. - the caller must have allowance for ``from``'s tokens of at least `amount`."
					},
					"transferOwnership(address)": {
						"details": "Transfers ownership of the contract to a new account (`newOwner`). Can only be called by the current owner."
					}
				},
				"version": 1
			},
			"evm": {
				"assembly": "    /* \"contracts/token factory/token.sol\":607:878  contract MyToken is ERC20, ERC20Burnable, Ownable, ERC20Permit {... */\n  mstore(0x40, 0x0140)\n    /* \"contracts/token factory/token.sol\":676:777  constructor()... */\n  callvalue\n  dup1\n  iszero\n  tag_1\n  jumpi\n  0x00\n  dup1\n  revert\ntag_1:\n  pop\n    /* \"https://github.com/OpenZeppelin/openzeppelin-contracts/blob/release-v4.7/contracts/token/ERC20/extensions/draft-ERC20Permit.sol\":1835:1887  constructor(string memory name) EIP712(name, \"1\") {} */\n  mload(0x40)\n  dup1\n  0x40\n  add\n  0x40\n  mstore\n  dup1\n  0x07\n  dup2\n  mstore\n  0x20\n  add\n  0x4d79546f6b656e00000000000000000000000000000000000000000000000000\n  dup2\n  mstore\n  pop\n    /* \"https://github.com/OpenZeppelin/openzeppelin-contracts/blob/release-v4.7/contracts/token/ERC20/extensions/draft-ERC20Permit.sol\":1874:1878  name */\n  dup1\n    /* \"https://github.com/OpenZeppelin/openzeppelin-contracts/blob/release-v4.7/contracts/utils/cryptography/draft-EIP712.sol\":2455:3057  constructor(string memory name, string memory version) {... */\n  mload(0x40)\n  dup1\n  0x40\n  add\n  0x40\n  mstore\n  dup1\n  0x01\n  dup2\n  mstore\n  0x20\n  add\n  0x3100000000000000000000000000000000000000000000000000000000000000\n  dup2\n  mstore\n  pop\n    /* \"https://github.com/OpenZeppelin/openzeppelin-contracts/blob/release-v4.7/contracts/token/ERC20/ERC20.sol\":1978:2091  constructor(string memory name_, string memory symbol_) {... */\n  mload(0x40)\n  dup1\n  0x40\n  add\n  0x40\n  mstore\n  dup1\n  0x07\n  dup2\n  mstore\n  0x20\n  add\n  0x4d79546f6b656e00000000000000000000000000000000000000000000000000\n  dup2\n  mstore\n  pop\n  mload(0x40)\n  dup1\n  0x40\n  add\n  0x40\n  mstore\n  dup1\n  0x03\n  dup2\n  mstore\n  0x20\n  add\n  0x4d544b0000000000000000000000000000000000000000000000000000000000\n  dup2\n  mstore\n  pop\n    /* \"https://github.com/OpenZeppelin/openzeppelin-contracts/blob/release-v4.7/contracts/token/ERC20/ERC20.sol\":2052:2057  name_ */\n  dup2\n    /* \"https://github.com/OpenZeppelin/openzeppelin-contracts/blob/release-v4.7/contracts/token/ERC20/ERC20.sol\":2044:2049  _name */\n  0x03\n    /* \"https://github.com/OpenZeppelin/openzeppelin-contracts/blob/release-v4.7/contracts/token/ERC20/ERC20.sol\":2044:2057  _name = name_ */\n  swap1\n  dup2\n  tag_8\n  swap2\n  swap1\n  tag_9\n  jump\t// in\ntag_8:\n  pop\n    /* \"https://github.com/OpenZeppelin/openzeppelin-contracts/blob/release-v4.7/contracts/token/ERC20/ERC20.sol\":2077:2084  symbol_ */\n  dup1\n    /* \"https://github.com/OpenZeppelin/openzeppelin-contracts/blob/release-v4.7/contracts/token/ERC20/ERC20.sol\":2067:2074  _symbol */\n  0x04\n    /* \"https://github.com/OpenZeppelin/openzeppelin-contracts/blob/release-v4.7/contracts/token/ERC20/ERC20.sol\":2067:2084  _symbol = symbol_ */\n  swap1\n  dup2\n  tag_10\n  swap2\n  swap1\n  tag_9\n  jump\t// in\ntag_10:\n  pop\n    /* \"https://github.com/OpenZeppelin/openzeppelin-contracts/blob/release-v4.7/contracts/token/ERC20/ERC20.sol\":1978:2091  constructor(string memory name_, string memory symbol_) {... */\n  pop\n  pop\n    /* \"https://github.com/OpenZeppelin/openzeppelin-contracts/blob/release-v4.7/contracts/access/Ownable.sol\":936:968  _transferOwnership(_msgSender()) */\n  tag_12\n    /* \"https://github.com/OpenZeppelin/openzeppelin-contracts/blob/release-v4.7/contracts/access/Ownable.sol\":955:967  _msgSender() */\n  tag_13\n    /* \"https://github.com/OpenZeppelin/openzeppelin-contracts/blob/release-v4.7/contracts/access/Ownable.sol\":955:965  _msgSender */\n  shl(0x20, tag_14)\n    /* \"https://github.com/OpenZeppelin/openzeppelin-contracts/blob/release-v4.7/contracts/access/Ownable.sol\":955:967  _msgSender() */\n  0x20\n  shr\n  jump\t// in\ntag_13:\n    /* \"https://github.com/OpenZeppelin/openzeppelin-contracts/blob/release-v4.7/contracts/access/Ownable.sol\":936:954  _transferOwnership */\n  shl(0x20, tag_15)\n    /* \"https://github.com/OpenZeppelin/openzeppelin-contracts/blob/release-v4.7/contracts/access/Ownable.sol\":936:968  _transferOwnership(_msgSender()) */\n  0x20\n  shr\n  jump\t// in\ntag_12:\n    /* \"https://github.com/OpenZeppelin/openzeppelin-contracts/blob/release-v4.7/contracts/utils/cryptography/draft-EIP712.sol\":2520:2538  bytes32 hashedName */\n  0x00\n    /* \"https://github.com/OpenZeppelin/openzeppelin-contracts/blob/release-v4.7/contracts/utils/cryptography/draft-EIP712.sol\":2557:2561  name */\n  dup3\n    /* \"https://github.com/OpenZeppelin/openzeppelin-contracts/blob/release-v4.7/contracts/utils/cryptography/draft-EIP712.sol\":2541:2563  keccak256(bytes(name)) */\n  dup1\n  mload\n  swap1\n  0x20\n  add\n  keccak256\n    /* \"https://github.com/OpenZeppelin/openzeppelin-contracts/blob/release-v4.7/contracts/utils/cryptography/draft-EIP712.sol\":2520:2563  bytes32 hashedName = keccak256(bytes(name)) */\n  swap1\n  pop\n    /* \"https://github.com/OpenZeppelin/openzeppelin-contracts/blob/release-v4.7/contracts/utils/cryptography/draft-EIP712.sol\":2573:2594  bytes32 hashedVersion */\n  0x00\n    /* \"https://github.com/OpenZeppelin/openzeppelin-contracts/blob/release-v4.7/contracts/utils/cryptography/draft-EIP712.sol\":2613:2620  version */\n  dup3\n    /* \"https://github.com/OpenZeppelin/openzeppelin-contracts/blob/release-v4.7/contracts/utils/cryptography/draft-EIP712.sol\":2597:2622  keccak256(bytes(version)) */\n  dup1\n  mload\n  swap1\n  0x20\n  add\n  keccak256\n    /* \"https://github.com/OpenZeppelin/openzeppelin-contracts/blob/release-v4.7/contracts/utils/cryptography/draft-EIP712.sol\":2573:2622  bytes32 hashedVersion = keccak256(bytes(version)) */\n  swap1\n  pop\n    /* \"https://github.com/OpenZeppelin/openzeppelin-contracts/blob/release-v4.7/contracts/utils/cryptography/draft-EIP712.sol\":2632:2648  bytes32 typeHash */\n  0x00\n    /* \"https://github.com/OpenZeppelin/openzeppelin-contracts/blob/release-v4.7/contracts/utils/cryptography/draft-EIP712.sol\":2651:2768  keccak256(... */\n  0x8b73c3c69bb8fe3d512ecc4cf759cc79239f7b179b0ffacaa9a75d522b39400f\n    /* \"https://github.com/OpenZeppelin/openzeppelin-contracts/blob/release-v4.7/contracts/utils/cryptography/draft-EIP712.sol\":2632:2768  bytes32 typeHash = keccak256(... */\n  swap1\n  pop\n    /* \"https://github.com/OpenZeppelin/openzeppelin-contracts/blob/release-v4.7/contracts/utils/cryptography/draft-EIP712.sol\":2793:2803  hashedName */\n  dup3\n    /* \"https://github.com/OpenZeppelin/openzeppelin-contracts/blob/release-v4.7/contracts/utils/cryptography/draft-EIP712.sol\":2778:2803  _HASHED_NAME = hashedName */\n  0xe0\n  dup2\n  dup2\n  mstore\n  pop\n  pop\n    /* \"https://github.com/OpenZeppelin/openzeppelin-contracts/blob/release-v4.7/contracts/utils/cryptography/draft-EIP712.sol\":2831:2844  hashedVersion */\n  dup2\n    /* \"https://github.com/OpenZeppelin/openzeppelin-contracts/blob/release-v4.7/contracts/utils/cryptography/draft-EIP712.sol\":2813:2844  _HASHED_VERSION = hashedVersion */\n  0x0100\n  dup2\n  dup2\n  mstore\n  pop\n  pop\n    /* \"https://github.com/OpenZeppelin/openzeppelin-contracts/blob/release-v4.7/contracts/utils/cryptography/draft-EIP712.sol\":2873:2886  block.chainid */\n  chainid\n    /* \"https://github.com/OpenZeppelin/openzeppelin-contracts/blob/release-v4.7/contracts/utils/cryptography/draft-EIP712.sol\":2854:2886  _CACHED_CHAIN_ID = block.chainid */\n  0xa0\n  dup2\n  dup2\n  mstore\n  pop\n  pop\n    /* \"https://github.com/OpenZeppelin/openzeppelin-contracts/blob/release-v4.7/contracts/utils/cryptography/draft-EIP712.sol\":2923:2981  _buildDomainSeparator(typeHash, hashedName, hashedVersion) */\n  tag_17\n    /* \"https://github.com/OpenZeppelin/openzeppelin-contracts/blob/release-v4.7/contracts/utils/cryptography/draft-EIP712.sol\":2945:2953  typeHash */\n  dup2\n    /* \"https://github.com/OpenZeppelin/openzeppelin-contracts/blob/release-v4.7/contracts/utils/cryptography/draft-EIP712.sol\":2955:2965  hashedName */\n  dup5\n    /* \"https://github.com/OpenZeppelin/openzeppelin-contracts/blob/release-v4.7/contracts/utils/cryptography/draft-EIP712.sol\":2967:2980  hashedVersion */\n  dup5\n    /* \"https://github.com/OpenZeppelin/openzeppelin-contracts/blob/release-v4.7/contracts/utils/cryptography/draft-EIP712.sol\":2923:2944  _buildDomainSeparator */\n  shl(0x20, tag_18)\n    /* \"https://github.com/OpenZeppelin/openzeppelin-contracts/blob/release-v4.7/contracts/utils/cryptography/draft-EIP712.sol\":2923:2981  _buildDomainSeparator(typeHash, hashedName, hashedVersion) */\n  0x20\n  shr\n  jump\t// in\ntag_17:\n    /* \"https://github.com/OpenZeppelin/openzeppelin-contracts/blob/release-v4.7/contracts/utils/cryptography/draft-EIP712.sol\":2896:2981  _CACHED_DOMAIN_SEPARATOR = _buildDomainSeparator(typeHash, hashedName, hashedVersion) */\n  0x80\n  dup2\n  dup2\n  mstore\n  pop\n  pop\n    /* \"https://github.com/OpenZeppelin/openzeppelin-contracts/blob/release-v4.7/contracts/utils/cryptography/draft-EIP712.sol\":3014:3018  this */\n  address\n    /* \"https://github.com/OpenZeppelin/openzeppelin-contracts/blob/release-v4.7/contracts/utils/cryptography/draft-EIP712.sol\":2991:3019  _CACHED_THIS = address(this) */\n  0xffffffffffffffffffffffffffffffffffffffff\n  and\n  0xc0\n  dup2\n  0xffffffffffffffffffffffffffffffffffffffff\n  and\n  dup2\n  mstore\n  pop\n  pop\n    /* \"https://github.com/OpenZeppelin/openzeppelin-contracts/blob/release-v4.7/contracts/utils/cryptography/draft-EIP712.sol\":3042:3050  typeHash */\n  dup1\n    /* \"https://github.com/OpenZeppelin/openzeppelin-contracts/blob/release-v4.7/contracts/utils/cryptography/draft-EIP712.sol\":3029:3050  _TYPE_HASH = typeHash */\n  0x0120\n  dup2\n  dup2\n  mstore\n  pop\n  pop\n    /* \"https://github.com/OpenZeppelin/openzeppelin-contracts/blob/release-v4.7/contracts/utils/cryptography/draft-EIP712.sol\":2510:3057  {... */\n  pop\n  pop\n  pop\n    /* \"https://github.com/OpenZeppelin/openzeppelin-contracts/blob/release-v4.7/contracts/utils/cryptography/draft-EIP712.sol\":2455:3057  constructor(string memory name, string memory version) {... */\n  pop\n  pop\n    /* \"https://github.com/OpenZeppelin/openzeppelin-contracts/blob/release-v4.7/contracts/token/ERC20/extensions/draft-ERC20Permit.sol\":1835:1887  constructor(string memory name) EIP712(name, \"1\") {} */\n  pop\n    /* \"contracts/token factory/token.sol\":607:878  contract MyToken is ERC20, ERC20Burnable, Ownable, ERC20Permit {... */\n  jump(tag_21)\n    /* \"https://github.com/OpenZeppelin/openzeppelin-contracts/blob/release-v4.7/contracts/utils/Context.sol\":640:736  function _msgSender() internal view virtual returns (address) {... */\ntag_14:\n    /* \"https://github.com/OpenZeppelin/openzeppelin-contracts/blob/release-v4.7/contracts/utils/Context.sol\":693:700  address */\n  0x00\n    /* \"https://github.com/OpenZeppelin/openzeppelin-contracts/blob/release-v4.7/contracts/utils/Context.sol\":719:729  msg.sender */\n  caller\n    /* \"https://github.com/OpenZeppelin/openzeppelin-contracts/blob/release-v4.7/contracts/utils/Context.sol\":712:729  return msg.sender */\n  swap1\n  pop\n    /* \"https://github.com/OpenZeppelin/openzeppelin-contracts/blob/release-v4.7/contracts/utils/Context.sol\":640:736  function _msgSender() internal view virtual returns (address) {... */\n  swap1\n  jump\t// out\n    /* \"https://github.com/OpenZeppelin/openzeppelin-contracts/blob/release-v4.7/contracts/access/Ownable.sol\":2433:2620  function _transferOwnership(address newOwner) internal virtual {... */\ntag_15:\n    /* \"https://github.com/OpenZeppelin/openzeppelin-contracts/blob/release-v4.7/contracts/access/Ownable.sol\":2506:2522  address oldOwner */\n  0x00\n    /* \"https://github.com/OpenZeppelin/openzeppelin-contracts/blob/release-v4.7/contracts/access/Ownable.sol\":2525:2531  _owner */\n  0x05\n  0x00\n  swap1\n  sload\n  swap1\n  0x0100\n  exp\n  swap1\n  div\n  0xffffffffffffffffffffffffffffffffffffffff\n  and\n    /* \"https://github.com/OpenZeppelin/openzeppelin-contracts/blob/release-v4.7/contracts/access/Ownable.sol\":2506:2531  address oldOwner = _owner */\n  swap1\n  pop\n    /* \"https://github.com/OpenZeppelin/openzeppelin-contracts/blob/release-v4.7/contracts/access/Ownable.sol\":2550:2558  newOwner */\n  dup2\n    /* \"https://github.com/OpenZeppelin/openzeppelin-contracts/blob/release-v4.7/contracts/access/Ownable.sol\":2541:2547  _owner */\n  0x05\n  0x00\n    /* \"https://github.com/OpenZeppelin/openzeppelin-contracts/blob/release-v4.7/contracts/access/Ownable.sol\":2541:2558  _owner = newOwner */\n  0x0100\n  exp\n  dup2\n  sload\n  dup2\n  0xffffffffffffffffffffffffffffffffffffffff\n  mul\n  not\n  and\n  swap1\n  dup4\n  0xffffffffffffffffffffffffffffffffffffffff\n  and\n  mul\n  or\n  swap1\n  sstore\n  pop\n    /* \"https://github.com/OpenZeppelin/openzeppelin-contracts/blob/release-v4.7/contracts/access/Ownable.sol\":2604:2612  newOwner */\n  dup2\n    /* \"https://github.com/OpenZeppelin/openzeppelin-contracts/blob/release-v4.7/contracts/access/Ownable.sol\":2573:2613  OwnershipTransferred(oldOwner, newOwner) */\n  0xffffffffffffffffffffffffffffffffffffffff\n  and\n    /* \"https://github.com/OpenZeppelin/openzeppelin-contracts/blob/release-v4.7/contracts/access/Ownable.sol\":2594:2602  oldOwner */\n  dup2\n    /* \"https://github.com/OpenZeppelin/openzeppelin-contracts/blob/release-v4.7/contracts/access/Ownable.sol\":2573:2613  OwnershipTransferred(oldOwner, newOwner) */\n  0xffffffffffffffffffffffffffffffffffffffff\n  and\n  0x8be0079c531659141344cd1fd0a4f28419497f9722a3daafe3b4186f6b6457e0\n  mload(0x40)\n  mload(0x40)\n  dup1\n  swap2\n  sub\n  swap1\n  log3\n    /* \"https://github.com/OpenZeppelin/openzeppelin-contracts/blob/release-v4.7/contracts/access/Ownable.sol\":2496:2620  {... */\n  pop\n    /* \"https://github.com/OpenZeppelin/openzeppelin-contracts/blob/release-v4.7/contracts/access/Ownable.sol\":2433:2620  function _transferOwnership(address newOwner) internal virtual {... */\n  pop\n  jump\t// out\n    /* \"https://github.com/OpenZeppelin/openzeppelin-contracts/blob/release-v4.7/contracts/utils/cryptography/draft-EIP712.sol\":3457:3714  function _buildDomainSeparator(... */\ntag_18:\n    /* \"https://github.com/OpenZeppelin/openzeppelin-contracts/blob/release-v4.7/contracts/utils/cryptography/draft-EIP712.sol\":3597:3604  bytes32 */\n  0x00\n    /* \"https://github.com/OpenZeppelin/openzeppelin-contracts/blob/release-v4.7/contracts/utils/cryptography/draft-EIP712.sol\":3644:3652  typeHash */\n  dup4\n    /* \"https://github.com/OpenZeppelin/openzeppelin-contracts/blob/release-v4.7/contracts/utils/cryptography/draft-EIP712.sol\":3654:3662  nameHash */\n  dup4\n    /* \"https://github.com/OpenZeppelin/openzeppelin-contracts/blob/release-v4.7/contracts/utils/cryptography/draft-EIP712.sol\":3664:3675  versionHash */\n  dup4\n    /* \"https://github.com/OpenZeppelin/openzeppelin-contracts/blob/release-v4.7/contracts/utils/cryptography/draft-EIP712.sol\":3677:3690  block.chainid */\n  chainid\n    /* \"https://github.com/OpenZeppelin/openzeppelin-contracts/blob/release-v4.7/contracts/utils/cryptography/draft-EIP712.sol\":3700:3704  this */\n  address\n    /* \"https://github.com/OpenZeppelin/openzeppelin-contracts/blob/release-v4.7/contracts/utils/cryptography/draft-EIP712.sol\":3633:3706  abi.encode(typeHash, nameHash, versionHash, block.chainid, address(this)) */\n  add(0x20, mload(0x40))\n  tag_25\n  swap6\n  swap5\n  swap4\n  swap3\n  swap2\n  swap1\n  tag_26\n  jump\t// in\ntag_25:\n  mload(0x40)\n  0x20\n  dup2\n  dup4\n  sub\n  sub\n  dup2\n  mstore\n  swap1\n  0x40\n  mstore\n    /* \"https://github.com/OpenZeppelin/openzeppelin-contracts/blob/release-v4.7/contracts/utils/cryptography/draft-EIP712.sol\":3623:3707  keccak256(abi.encode(typeHash, nameHash, versionHash, block.chainid, address(this))) */\n  dup1\n  mload\n  swap1\n  0x20\n  add\n  keccak256\n    /* \"https://github.com/OpenZeppelin/openzeppelin-contracts/blob/release-v4.7/contracts/utils/cryptography/draft-EIP712.sol\":3616:3707  return keccak256(abi.encode(typeHash, nameHash, versionHash, block.chainid, address(this))) */\n  swap1\n  pop\n    /* \"https://github.com/OpenZeppelin/openzeppelin-contracts/blob/release-v4.7/contracts/utils/cryptography/draft-EIP712.sol\":3457:3714  function _buildDomainSeparator(... */\n  swap4\n  swap3\n  pop\n  pop\n  pop\n  jump\t// out\n    /* \"#utility.yul\":7:106   */\ntag_27:\n    /* \"#utility.yul\":59:65   */\n  0x00\n    /* \"#utility.yul\":93:98   */\n  dup2\n    /* \"#utility.yul\":87:99   */\n  mload\n    /* \"#utility.yul\":77:99   */\n  swap1\n  pop\n    /* \"#utility.yul\":7:106   */\n  swap2\n  swap1\n  pop\n  jump\t// out\n    /* \"#utility.yul\":112:292   */\ntag_28:\n    /* \"#utility.yul\":160:237   */\n  0x4e487b7100000000000000000000000000000000000000000000000000000000\n    /* \"#utility.yul\":157:158   */\n  0x00\n    /* \"#utility.yul\":150:238   */\n  mstore\n    /* \"#utility.yul\":257:261   */\n  0x41\n    /* \"#utility.yul\":254:255   */\n  0x04\n    /* \"#utility.yul\":247:262   */\n  mstore\n    /* \"#utility.yul\":281:285   */\n  0x24\n    /* \"#utility.yul\":278:279   */\n  0x00\n    /* \"#utility.yul\":271:286   */\n  revert\n    /* \"#utility.yul\":298:478   */\ntag_29:\n    /* \"#utility.yul\":346:423   */\n  0x4e487b7100000000000000000000000000000000000000000000000000000000\n    /* \"#utility.yul\":343:344   */\n  0x00\n    /* \"#utility.yul\":336:424   */\n  mstore\n    /* \"#utility.yul\":443:447   */\n  0x22\n    /* \"#utility.yul\":440:441   */\n  0x04\n    /* \"#utility.yul\":433:448   */\n  mstore\n    /* \"#utility.yul\":467:471   */\n  0x24\n    /* \"#utility.yul\":464:465   */\n  0x00\n    /* \"#utility.yul\":457:472   */\n  revert\n    /* \"#utility.yul\":484:804   */\ntag_30:\n    /* \"#utility.yul\":528:534   */\n  0x00\n    /* \"#utility.yul\":565:566   */\n  0x02\n    /* \"#utility.yul\":559:563   */\n  dup3\n    /* \"#utility.yul\":555:567   */\n  div\n    /* \"#utility.yul\":545:567   */\n  swap1\n  pop\n    /* \"#utility.yul\":612:613   */\n  0x01\n    /* \"#utility.yul\":606:610   */\n  dup3\n    /* \"#utility.yul\":602:614   */\n  and\n    /* \"#utility.yul\":633:651   */\n  dup1\n    /* \"#utility.yul\":623:704   */\n  tag_58\n  jumpi\n    /* \"#utility.yul\":689:693   */\n  0x7f\n    /* \"#utility.yul\":681:687   */\n  dup3\n    /* \"#utility.yul\":677:694   */\n  and\n    /* \"#utility.yul\":667:694   */\n  swap2\n  pop\n    /* \"#utility.yul\":623:704   */\ntag_58:\n    /* \"#utility.yul\":751:753   */\n  0x20\n    /* \"#utility.yul\":743:749   */\n  dup3\n    /* \"#utility.yul\":740:754   */\n  lt\n    /* \"#utility.yul\":720:738   */\n  dup2\n    /* \"#utility.yul\":717:755   */\n  sub\n    /* \"#utility.yul\":714:798   */\n  tag_59\n  jumpi\n    /* \"#utility.yul\":770:788   */\n  tag_60\n  tag_29\n  jump\t// in\ntag_60:\n    /* \"#utility.yul\":714:798   */\ntag_59:\n    /* \"#utility.yul\":535:804   */\n  pop\n    /* \"#utility.yul\":484:804   */\n  swap2\n  swap1\n  pop\n  jump\t// out\n    /* \"#utility.yul\":810:951   */\ntag_31:\n    /* \"#utility.yul\":859:863   */\n  0x00\n    /* \"#utility.yul\":882:885   */\n  dup2\n    /* \"#utility.yul\":874:885   */\n  swap1\n  pop\n    /* \"#utility.yul\":905:908   */\n  dup2\n    /* \"#utility.yul\":902:903   */\n  0x00\n    /* \"#utility.yul\":895:909   */\n  mstore\n    /* \"#utility.yul\":939:943   */\n  0x20\n    /* \"#utility.yul\":936:937   */\n  0x00\n    /* \"#utility.yul\":926:944   */\n  keccak256\n    /* \"#utility.yul\":918:944   */\n  swap1\n  pop\n    /* \"#utility.yul\":810:951   */\n  swap2\n  swap1\n  pop\n  jump\t// out\n    /* \"#utility.yul\":957:1050   */\ntag_32:\n    /* \"#utility.yul\":994:1000   */\n  0x00\n    /* \"#utility.yul\":1041:1043   */\n  0x20\n    /* \"#utility.yul\":1036:1038   */\n  0x1f\n    /* \"#utility.yul\":1029:1034   */\n  dup4\n    /* \"#utility.yul\":1025:1039   */\n  add\n    /* \"#utility.yul\":1021:1044   */\n  div\n    /* \"#utility.yul\":1011:1044   */\n  swap1\n  pop\n    /* \"#utility.yul\":957:1050   */\n  swap2\n  swap1\n  pop\n  jump\t// out\n    /* \"#utility.yul\":1056:1163   */\ntag_33:\n    /* \"#utility.yul\":1100:1108   */\n  0x00\n    /* \"#utility.yul\":1150:1155   */\n  dup3\n    /* \"#utility.yul\":1144:1148   */\n  dup3\n    /* \"#utility.yul\":1140:1156   */\n  shl\n    /* \"#utility.yul\":1119:1156   */\n  swap1\n  pop\n    /* \"#utility.yul\":1056:1163   */\n  swap3\n  swap2\n  pop\n  pop\n  jump\t// out\n    /* \"#utility.yul\":1169:1562   */\ntag_34:\n    /* \"#utility.yul\":1238:1244   */\n  0x00\n    /* \"#utility.yul\":1288:1289   */\n  0x08\n    /* \"#utility.yul\":1276:1286   */\n  dup4\n    /* \"#utility.yul\":1272:1290   */\n  mul\n    /* \"#utility.yul\":1311:1408   */\n  tag_65\n    /* \"#utility.yul\":1341:1407   */\n  0xffffffffffffffffffffffffffffffffffffffffffffffffffffffffffffffff\n    /* \"#utility.yul\":1330:1339   */\n  dup3\n    /* \"#utility.yul\":1311:1408   */\n  tag_33\n  jump\t// in\ntag_65:\n    /* \"#utility.yul\":1429:1468   */\n  tag_66\n    /* \"#utility.yul\":1459:1467   */\n  dup7\n    /* \"#utility.yul\":1448:1457   */\n  dup4\n    /* \"#utility.yul\":1429:1468   */\n  tag_33\n  jump\t// in\ntag_66:\n    /* \"#utility.yul\":1417:1468   */\n  swap6\n  pop\n    /* \"#utility.yul\":1501:1505   */\n  dup1\n    /* \"#utility.yul\":1497:1506   */\n  not\n    /* \"#utility.yul\":1490:1495   */\n  dup5\n    /* \"#utility.yul\":1486:1507   */\n  and\n    /* \"#utility.yul\":1477:1507   */\n  swap4\n  pop\n    /* \"#utility.yul\":1550:1554   */\n  dup1\n    /* \"#utility.yul\":1540:1548   */\n  dup7\n    /* \"#utility.yul\":1536:1555   */\n  and\n    /* \"#utility.yul\":1529:1534   */\n  dup5\n    /* \"#utility.yul\":1526:1556   */\n  or\n    /* \"#utility.yul\":1516:1556   */\n  swap3\n  pop\n    /* \"#utility.yul\":1245:1562   */\n  pop\n  pop\n    /* \"#utility.yul\":1169:1562   */\n  swap4\n  swap3\n  pop\n  pop\n  pop\n  jump\t// out\n    /* \"#utility.yul\":1568:1645   */\ntag_35:\n    /* \"#utility.yul\":1605:1612   */\n  0x00\n    /* \"#utility.yul\":1634:1639   */\n  dup2\n    /* \"#utility.yul\":1623:1639   */\n  swap1\n  pop\n    /* \"#utility.yul\":1568:1645   */\n  swap2\n  swap1\n  pop\n  jump\t// out\n    /* \"#utility.yul\":1651:1711   */\ntag_36:\n    /* \"#utility.yul\":1679:1682   */\n  0x00\n    /* \"#utility.yul\":1700:1705   */\n  dup2\n    /* \"#utility.yul\":1693:1705   */\n  swap1\n  pop\n    /* \"#utility.yul\":1651:1711   */\n  swap2\n  swap1\n  pop\n  jump\t// out\n    /* \"#utility.yul\":1717:1859   */\ntag_37:\n    /* \"#utility.yul\":1767:1776   */\n  0x00\n    /* \"#utility.yul\":1800:1853   */\n  tag_70\n    /* \"#utility.yul\":1818:1852   */\n  tag_71\n    /* \"#utility.yul\":1827:1851   */\n  tag_72\n    /* \"#utility.yul\":1845:1850   */\n  dup5\n    /* \"#utility.yul\":1827:1851   */\n  tag_35\n  jump\t// in\ntag_72:\n    /* \"#utility.yul\":1818:1852   */\n  tag_36\n  jump\t// in\ntag_71:\n    /* \"#utility.yul\":1800:1853   */\n  tag_35\n  jump\t// in\ntag_70:\n    /* \"#utility.yul\":1787:1853   */\n  swap1\n  pop\n    /* \"#utility.yul\":1717:1859   */\n  swap2\n  swap1\n  pop\n  jump\t// out\n    /* \"#utility.yul\":1865:1940   */\ntag_38:\n    /* \"#utility.yul\":1908:1911   */\n  0x00\n    /* \"#utility.yul\":1929:1934   */\n  dup2\n    /* \"#utility.yul\":1922:1934   */\n  swap1\n  pop\n    /* \"#utility.yul\":1865:1940   */\n  swap2\n  swap1\n  pop\n  jump\t// out\n    /* \"#utility.yul\":1946:2215   */\ntag_39:\n    /* \"#utility.yul\":2056:2095   */\n  tag_75\n    /* \"#utility.yul\":2087:2094   */\n  dup4\n    /* \"#utility.yul\":2056:2095   */\n  tag_37\n  jump\t// in\ntag_75:\n    /* \"#utility.yul\":2117:2208   */\n  tag_76\n    /* \"#utility.yul\":2166:2207   */\n  tag_77\n    /* \"#utility.yul\":2190:2206   */\n  dup3\n    /* \"#utility.yul\":2166:2207   */\n  tag_38\n  jump\t// in\ntag_77:\n    /* \"#utility.yul\":2158:2164   */\n  dup5\n    /* \"#utility.yul\":2151:2155   */\n  dup5\n    /* \"#utility.yul\":2145:2156   */\n  sload\n    /* \"#utility.yul\":2117:2208   */\n  tag_34\n  jump\t// in\ntag_76:\n    /* \"#utility.yul\":2111:2115   */\n  dup3\n    /* \"#utility.yul\":2104:2209   */\n  sstore\n    /* \"#utility.yul\":2022:2215   */\n  pop\n    /* \"#utility.yul\":1946:2215   */\n  pop\n  pop\n  pop\n  jump\t// out\n    /* \"#utility.yul\":2221:2294   */\ntag_40:\n    /* \"#utility.yul\":2266:2269   */\n  0x00\n    /* \"#utility.yul\":2221:2294   */\n  swap1\n  jump\t// out\n    /* \"#utility.yul\":2300:2489   */\ntag_41:\n    /* \"#utility.yul\":2377:2409   */\n  tag_80\n  tag_40\n  jump\t// in\ntag_80:\n    /* \"#utility.yul\":2418:2483   */\n  tag_81\n    /* \"#utility.yul\":2476:2482   */\n  dup2\n    /* \"#utility.yul\":2468:2474   */\n  dup5\n    /* \"#utility.yul\":2462:2466   */\n  dup5\n    /* \"#utility.yul\":2418:2483   */\n  tag_39\n  jump\t// in\ntag_81:\n    /* \"#utility.yul\":2353:2489   */\n  pop\n    /* \"#utility.yul\":2300:2489   */\n  pop\n  pop\n  jump\t// out\n    /* \"#utility.yul\":2495:2681   */\ntag_42:\n    /* \"#utility.yul\":2555:2675   */\ntag_83:\n    /* \"#utility.yul\":2572:2575   */\n  dup2\n    /* \"#utility.yul\":2565:2570   */\n  dup2\n    /* \"#utility.yul\":2562:2576   */\n  lt\n    /* \"#utility.yul\":2555:2675   */\n  iszero\n  tag_85\n  jumpi\n    /* \"#utility.yul\":2626:2665   */\n  tag_86\n    /* \"#utility.yul\":2663:2664   */\n  0x00\n    /* \"#utility.yul\":2656:2661   */\n  dup3\n    /* \"#utility.yul\":2626:2665   */\n  tag_41\n  jump\t// in\ntag_86:\n    /* \"#utility.yul\":2599:2600   */\n  0x01\n    /* \"#utility.yul\":2592:2597   */\n  dup2\n    /* \"#utility.yul\":2588:2601   */\n  add\n    /* \"#utility.yul\":2579:2601   */\n  swap1\n  pop\n    /* \"#utility.yul\":2555:2675   */\n  jump(tag_83)\ntag_85:\n    /* \"#utility.yul\":2495:2681   */\n  pop\n  pop\n  jump\t// out\n    /* \"#utility.yul\":2687:3230   */\ntag_43:\n    /* \"#utility.yul\":2788:2790   */\n  0x1f\n    /* \"#utility.yul\":2783:2786   */\n  dup3\n    /* \"#utility.yul\":2780:2791   */\n  gt\n    /* \"#utility.yul\":2777:3223   */\n  iszero\n  tag_88\n  jumpi\n    /* \"#utility.yul\":2822:2860   */\n  tag_89\n    /* \"#utility.yul\":2854:2859   */\n  dup2\n    /* \"#utility.yul\":2822:2860   */\n  tag_31\n  jump\t// in\ntag_89:\n    /* \"#utility.yul\":2906:2935   */\n  tag_90\n    /* \"#utility.yul\":2924:2934   */\n  dup5\n    /* \"#utility.yul\":2906:2935   */\n  tag_32\n  jump\t// in\ntag_90:\n    /* \"#utility.yul\":2896:2904   */\n  dup2\n    /* \"#utility.yul\":2892:2936   */\n  add\n    /* \"#utility.yul\":3089:3091   */\n  0x20\n    /* \"#utility.yul\":3077:3087   */\n  dup6\n    /* \"#utility.yul\":3074:3092   */\n  lt\n    /* \"#utility.yul\":3071:3120   */\n  iszero\n  tag_91\n  jumpi\n    /* \"#utility.yul\":3110:3118   */\n  dup2\n    /* \"#utility.yul\":3095:3118   */\n  swap1\n  pop\n    /* \"#utility.yul\":3071:3120   */\ntag_91:\n    /* \"#utility.yul\":3133:3213   */\n  tag_92\n    /* \"#utility.yul\":3189:3211   */\n  tag_93\n    /* \"#utility.yul\":3207:3210   */\n  dup6\n    /* \"#utility.yul\":3189:3211   */\n  tag_32\n  jump\t// in\ntag_93:\n    /* \"#utility.yul\":3179:3187   */\n  dup4\n    /* \"#utility.yul\":3175:3212   */\n  add\n    /* \"#utility.yul\":3162:3173   */\n  dup3\n    /* \"#utility.yul\":3133:3213   */\n  tag_42\n  jump\t// in\ntag_92:\n    /* \"#utility.yul\":2792:3223   */\n  pop\n  pop\n    /* \"#utility.yul\":2777:3223   */\ntag_88:\n    /* \"#utility.yul\":2687:3230   */\n  pop\n  pop\n  pop\n  jump\t// out\n    /* \"#utility.yul\":3236:3353   */\ntag_44:\n    /* \"#utility.yul\":3290:3298   */\n  0x00\n    /* \"#utility.yul\":3340:3345   */\n  dup3\n    /* \"#utility.yul\":3334:3338   */\n  dup3\n    /* \"#utility.yul\":3330:3346   */\n  shr\n    /* \"#utility.yul\":3309:3346   */\n  swap1\n  pop\n    /* \"#utility.yul\":3236:3353   */\n  swap3\n  swap2\n  pop\n  pop\n  jump\t// out\n    /* \"#utility.yul\":3359:3528   */\ntag_45:\n    /* \"#utility.yul\":3403:3409   */\n  0x00\n    /* \"#utility.yul\":3436:3487   */\n  tag_96\n    /* \"#utility.yul\":3484:3485   */\n  0x00\n    /* \"#utility.yul\":3480:3486   */\n  not\n    /* \"#utility.yul\":3472:3477   */\n  dup5\n    /* \"#utility.yul\":3469:3470   */\n  0x08\n    /* \"#utility.yul\":3465:3478   */\n  mul\n    /* \"#utility.yul\":3436:3487   */\n  tag_44\n  jump\t// in\ntag_96:\n    /* \"#utility.yul\":3432:3488   */\n  not\n    /* \"#utility.yul\":3517:3521   */\n  dup1\n    /* \"#utility.yul\":3511:3515   */\n  dup4\n    /* \"#utility.yul\":3507:3522   */\n  and\n    /* \"#utility.yul\":3497:3522   */\n  swap2\n  pop\n    /* \"#utility.yul\":3410:3528   */\n  pop\n    /* \"#utility.yul\":3359:3528   */\n  swap3\n  swap2\n  pop\n  pop\n  jump\t// out\n    /* \"#utility.yul\":3533:3828   */\ntag_46:\n    /* \"#utility.yul\":3609:3613   */\n  0x00\n    /* \"#utility.yul\":3755:3784   */\n  tag_98\n    /* \"#utility.yul\":3780:3783   */\n  dup4\n    /* \"#utility.yul\":3774:3778   */\n  dup4\n    /* \"#utility.yul\":3755:3784   */\n  tag_45\n  jump\t// in\ntag_98:\n    /* \"#utility.yul\":3747:3784   */\n  swap2\n  pop\n    /* \"#utility.yul\":3817:3820   */\n  dup3\n    /* \"#utility.yul\":3814:3815   */\n  0x02\n    /* \"#utility.yul\":3810:3821   */\n  mul\n    /* \"#utility.yul\":3804:3808   */\n  dup3\n    /* \"#utility.yul\":3801:3822   */\n  or\n    /* \"#utility.yul\":3793:3822   */\n  swap1\n  pop\n    /* \"#utility.yul\":3533:3828   */\n  swap3\n  swap2\n  pop\n  pop\n  jump\t// out\n    /* \"#utility.yul\":3833:5228   */\ntag_9:\n    /* \"#utility.yul\":3950:3987   */\n  tag_100\n    /* \"#utility.yul\":3983:3986   */\n  dup3\n    /* \"#utility.yul\":3950:3987   */\n  tag_27\n  jump\t// in\ntag_100:\n    /* \"#utility.yul\":4052:4070   */\n  0xffffffffffffffff\n    /* \"#utility.yul\":4044:4050   */\n  dup2\n    /* \"#utility.yul\":4041:4071   */\n  gt\n    /* \"#utility.yul\":4038:4094   */\n  iszero\n  tag_101\n  jumpi\n    /* \"#utility.yul\":4074:4092   */\n  tag_102\n  tag_28\n  jump\t// in\ntag_102:\n    /* \"#utility.yul\":4038:4094   */\ntag_101:\n    /* \"#utility.yul\":4118:4156   */\n  tag_103\n    /* \"#utility.yul\":4150:4154   */\n  dup3\n    /* \"#utility.yul\":4144:4155   */\n  sload\n    /* \"#utility.yul\":4118:4156   */\n  tag_30\n  jump\t// in\ntag_103:\n    /* \"#utility.yul\":4203:4270   */\n  tag_104\n    /* \"#utility.yul\":4263:4269   */\n  dup3\n    /* \"#utility.yul\":4255:4261   */\n  dup3\n    /* \"#utility.yul\":4249:4253   */\n  dup6\n    /* \"#utility.yul\":4203:4270   */\n  tag_43\n  jump\t// in\ntag_104:\n    /* \"#utility.yul\":4297:4298   */\n  0x00\n    /* \"#utility.yul\":4321:4325   */\n  0x20\n    /* \"#utility.yul\":4308:4325   */\n  swap1\n  pop\n    /* \"#utility.yul\":4353:4355   */\n  0x1f\n    /* \"#utility.yul\":4345:4351   */\n  dup4\n    /* \"#utility.yul\":4342:4356   */\n  gt\n    /* \"#utility.yul\":4370:4371   */\n  0x01\n    /* \"#utility.yul\":4365:4983   */\n  dup2\n  eq\n  tag_106\n  jumpi\n    /* \"#utility.yul\":5027:5028   */\n  0x00\n    /* \"#utility.yul\":5044:5050   */\n  dup5\n    /* \"#utility.yul\":5041:5118   */\n  iszero\n  tag_107\n  jumpi\n    /* \"#utility.yul\":5093:5102   */\n  dup3\n    /* \"#utility.yul\":5088:5091   */\n  dup8\n    /* \"#utility.yul\":5084:5103   */\n  add\n    /* \"#utility.yul\":5078:5104   */\n  mload\n    /* \"#utility.yul\":5069:5104   */\n  swap1\n  pop\n    /* \"#utility.yul\":5041:5118   */\ntag_107:\n    /* \"#utility.yul\":5144:5211   */\n  tag_108\n    /* \"#utility.yul\":5204:5210   */\n  dup6\n    /* \"#utility.yul\":5197:5202   */\n  dup3\n    /* \"#utility.yul\":5144:5211   */\n  tag_46\n  jump\t// in\ntag_108:\n    /* \"#utility.yul\":5138:5142   */\n  dup7\n    /* \"#utility.yul\":5131:5212   */\n  sstore\n    /* \"#utility.yul\":5000:5222   */\n  pop\n    /* \"#utility.yul\":4335:5222   */\n  jump(tag_105)\n    /* \"#utility.yul\":4365:4983   */\ntag_106:\n    /* \"#utility.yul\":4417:4421   */\n  0x1f\n    /* \"#utility.yul\":4413:4422   */\n  not\n    /* \"#utility.yul\":4405:4411   */\n  dup5\n    /* \"#utility.yul\":4401:4423   */\n  and\n    /* \"#utility.yul\":4451:4488   */\n  tag_109\n    /* \"#utility.yul\":4483:4487   */\n  dup7\n    /* \"#utility.yul\":4451:4488   */\n  tag_31\n  jump\t// in\ntag_109:\n    /* \"#utility.yul\":4510:4511   */\n  0x00\n    /* \"#utility.yul\":4524:4732   */\ntag_110:\n    /* \"#utility.yul\":4538:4545   */\n  dup3\n    /* \"#utility.yul\":4535:4536   */\n  dup2\n    /* \"#utility.yul\":4532:4546   */\n  lt\n    /* \"#utility.yul\":4524:4732   */\n  iszero\n  tag_112\n  jumpi\n    /* \"#utility.yul\":4617:4626   */\n  dup5\n    /* \"#utility.yul\":4612:4615   */\n  dup10\n    /* \"#utility.yul\":4608:4627   */\n  add\n    /* \"#utility.yul\":4602:4628   */\n  mload\n    /* \"#utility.yul\":4594:4600   */\n  dup3\n    /* \"#utility.yul\":4587:4629   */\n  sstore\n    /* \"#utility.yul\":4668:4669   */\n  0x01\n    /* \"#utility.yul\":4660:4666   */\n  dup3\n    /* \"#utility.yul\":4656:4670   */\n  add\n    /* \"#utility.yul\":4646:4670   */\n  swap2\n  pop\n    /* \"#utility.yul\":4715:4717   */\n  0x20\n    /* \"#utility.yul\":4704:4713   */\n  dup6\n    /* \"#utility.yul\":4700:4718   */\n  add\n    /* \"#utility.yul\":4687:4718   */\n  swap5\n  pop\n    /* \"#utility.yul\":4561:4565   */\n  0x20\n    /* \"#utility.yul\":4558:4559   */\n  dup2\n    /* \"#utility.yul\":4554:4566   */\n  add\n    /* \"#utility.yul\":4549:4566   */\n  swap1\n  pop\n    /* \"#utility.yul\":4524:4732   */\n  jump(tag_110)\ntag_112:\n    /* \"#utility.yul\":4760:4766   */\n  dup7\n    /* \"#utility.yul\":4751:4758   */\n  dup4\n    /* \"#utility.yul\":4748:4767   */\n  lt\n    /* \"#utility.yul\":4745:4924   */\n  iszero\n  tag_113\n  jumpi\n    /* \"#utility.yul\":4818:4827   */\n  dup5\n    /* \"#utility.yul\":4813:4816   */\n  dup10\n    /* \"#utility.yul\":4809:4828   */\n  add\n    /* \"#utility.yul\":4803:4829   */\n  mload\n    /* \"#utility.yul\":4861:4909   */\n  tag_114\n    /* \"#utility.yul\":4903:4907   */\n  0x1f\n    /* \"#utility.yul\":4895:4901   */\n  dup10\n    /* \"#utility.yul\":4891:4908   */\n  and\n    /* \"#utility.yul\":4880:4889   */\n  dup3\n    /* \"#utility.yul\":4861:4909   */\n  tag_45\n  jump\t// in\ntag_114:\n    /* \"#utility.yul\":4853:4859   */\n  dup4\n    /* \"#utility.yul\":4846:4910   */\n  sstore\n    /* \"#utility.yul\":4768:4924   */\n  pop\n    /* \"#utility.yul\":4745:4924   */\ntag_113:\n    /* \"#utility.yul\":4970:4971   */\n  0x01\n    /* \"#utility.yul\":4966:4967   */\n  0x02\n    /* \"#utility.yul\":4958:4964   */\n  dup9\n    /* \"#utility.yul\":4954:4968   */\n  mul\n    /* \"#utility.yul\":4950:4972   */\n  add\n    /* \"#utility.yul\":4944:4948   */\n  dup9\n    /* \"#utility.yul\":4937:4973   */\n  sstore\n    /* \"#utility.yul\":4372:4983   */\n  pop\n  pop\n  pop\n    /* \"#utility.yul\":4335:5222   */\ntag_105:\n  pop\n    /* \"#utility.yul\":3925:5228   */\n  pop\n  pop\n  pop\n    /* \"#utility.yul\":3833:5228   */\n  pop\n  pop\n  jump\t// out\n    /* \"#utility.yul\":5234:5311   */\ntag_47:\n    /* \"#utility.yul\":5271:5278   */\n  0x00\n    /* \"#utility.yul\":5300:5305   */\n  dup2\n    /* \"#utility.yul\":5289:5305   */\n  swap1\n  pop\n    /* \"#utility.yul\":5234:5311   */\n  swap2\n  swap1\n  pop\n  jump\t// out\n    /* \"#utility.yul\":5317:5435   */\ntag_48:\n    /* \"#utility.yul\":5404:5428   */\n  tag_117\n    /* \"#utility.yul\":5422:5427   */\n  dup2\n    /* \"#utility.yul\":5404:5428   */\n  tag_47\n  jump\t// in\ntag_117:\n    /* \"#utility.yul\":5399:5402   */\n  dup3\n    /* \"#utility.yul\":5392:5429   */\n  mstore\n    /* \"#utility.yul\":5317:5435   */\n  pop\n  pop\n  jump\t// out\n    /* \"#utility.yul\":5441:5559   */\ntag_49:\n    /* \"#utility.yul\":5528:5552   */\n  tag_119\n    /* \"#utility.yul\":5546:5551   */\n  dup2\n    /* \"#utility.yul\":5528:5552   */\n  tag_35\n  jump\t// in\ntag_119:\n    /* \"#utility.yul\":5523:5526   */\n  dup3\n    /* \"#utility.yul\":5516:5553   */\n  mstore\n    /* \"#utility.yul\":5441:5559   */\n  pop\n  pop\n  jump\t// out\n    /* \"#utility.yul\":5565:5691   */\ntag_50:\n    /* \"#utility.yul\":5602:5609   */\n  0x00\n    /* \"#utility.yul\":5642:5684   */\n  0xffffffffffffffffffffffffffffffffffffffff\n    /* \"#utility.yul\":5635:5640   */\n  dup3\n    /* \"#utility.yul\":5631:5685   */\n  and\n    /* \"#utility.yul\":5620:5685   */\n  swap1\n  pop\n    /* \"#utility.yul\":5565:5691   */\n  swap2\n  swap1\n  pop\n  jump\t// out\n    /* \"#utility.yul\":5697:5793   */\ntag_51:\n    /* \"#utility.yul\":5734:5741   */\n  0x00\n    /* \"#utility.yul\":5763:5787   */\n  tag_122\n    /* \"#utility.yul\":5781:5786   */\n  dup3\n    /* \"#utility.yul\":5763:5787   */\n  tag_50\n  jump\t// in\ntag_122:\n    /* \"#utility.yul\":5752:5787   */\n  swap1\n  pop\n    /* \"#utility.yul\":5697:5793   */\n  swap2\n  swap1\n  pop\n  jump\t// out\n    /* \"#utility.yul\":5799:5917   */\ntag_52:\n    /* \"#utility.yul\":5886:5910   */\n  tag_124\n    /* \"#utility.yul\":5904:5909   */\n  dup2\n    /* \"#utility.yul\":5886:5910   */\n  tag_51\n  jump\t// in\ntag_124:\n    /* \"#utility.yul\":5881:5884   */\n  dup3\n    /* \"#utility.yul\":5874:5911   */\n  mstore\n    /* \"#utility.yul\":5799:5917   */\n  pop\n  pop\n  jump\t// out\n    /* \"#utility.yul\":5923:6587   */\ntag_26:\n    /* \"#utility.yul\":6128:6132   */\n  0x00\n    /* \"#utility.yul\":6166:6169   */\n  0xa0\n    /* \"#utility.yul\":6155:6164   */\n  dup3\n    /* \"#utility.yul\":6151:6170   */\n  add\n    /* \"#utility.yul\":6143:6170   */\n  swap1\n  pop\n    /* \"#utility.yul\":6180:6251   */\n  tag_126\n    /* \"#utility.yul\":6248:6249   */\n  0x00\n    /* \"#utility.yul\":6237:6246   */\n  dup4\n    /* \"#utility.yul\":6233:6250   */\n  add\n    /* \"#utility.yul\":6224:6230   */\n  dup9\n    /* \"#utility.yul\":6180:6251   */\n  tag_48\n  jump\t// in\ntag_126:\n    /* \"#utility.yul\":6261:6333   */\n  tag_127\n    /* \"#utility.yul\":6329:6331   */\n  0x20\n    /* \"#utility.yul\":6318:6327   */\n  dup4\n    /* \"#utility.yul\":6314:6332   */\n  add\n    /* \"#utility.yul\":6305:6311   */\n  dup8\n    /* \"#utility.yul\":6261:6333   */\n  tag_48\n  jump\t// in\ntag_127:\n    /* \"#utility.yul\":6343:6415   */\n  tag_128\n    /* \"#utility.yul\":6411:6413   */\n  0x40\n    /* \"#utility.yul\":6400:6409   */\n  dup4\n    /* \"#utility.yul\":6396:6414   */\n  add\n    /* \"#utility.yul\":6387:6393   */\n  dup7\n    /* \"#utility.yul\":6343:6415   */\n  tag_48\n  jump\t// in\ntag_128:\n    /* \"#utility.yul\":6425:6497   */\n  tag_129\n    /* \"#utility.yul\":6493:6495   */\n  0x60\n    /* \"#utility.yul\":6482:6491   */\n  dup4\n    /* \"#utility.yul\":6478:6496   */\n  add\n    /* \"#utility.yul\":6469:6475   */\n  dup6\n    /* \"#utility.yul\":6425:6497   */\n  tag_49\n  jump\t// in\ntag_129:\n    /* \"#utility.yul\":6507:6580   */\n  tag_130\n    /* \"#utility.yul\":6575:6578   */\n  0x80\n    /* \"#utility.yul\":6564:6573   */\n  dup4\n    /* \"#utility.yul\":6560:6579   */\n  add\n    /* \"#utility.yul\":6551:6557   */\n  dup5\n    /* \"#utility.yul\":6507:6580   */\n  tag_52\n  jump\t// in\ntag_130:\n    /* \"#utility.yul\":5923:6587   */\n  swap7\n  swap6\n  pop\n  pop\n  pop\n  pop\n  pop\n  pop\n  jump\t// out\n    /* \"contracts/token factory/token.sol\":607:878  contract MyToken is ERC20, ERC20Burnable, Ownable, ERC20Permit {... */\ntag_21:\n  mload(0x80)\n  mload(0xa0)\n  mload(0xc0)\n  mload(0xe0)\n  mload(0x0100)\n  mload(0x0120)\n  codecopy(0x00, dataOffset(sub_0), dataSize(sub_0))\n  0x00\n  assignImmutable(\"0x5068223bf0059dbff685a838be8378267de67db8c0da432de81984f3106284ba\")\n  0x00\n  assignImmutable(\"0x2321737a770ac7c3c2f3272e7c50477ab175011586b4ba3db2040d1f9e9891e0\")\n  0x00\n  assignImmutable(\"0x5a51cac41fe69f71b7795862cc646f7451dfff9d51b9de6ea410fc434c56d513\")\n  0x00\n  assignImmutable(\"0xdd8b51ee9128c681fbd81845dd6426716fdc986a3bb51fedf5af16f35ac2adb3\")\n  0x00\n  assignImmutable(\"0x03bb33715397e0038c873ba02d4426eebb2b65cc3940a0fa71a481a9b37d980d\")\n  0x00\n  assignImmutable(\"0xbe147d0aaf628bab5d3600ba0e8222c4d7f0eec30321d0b98d9f641634fbb471\")\n  return(0x00, dataSize(sub_0))\nstop\n\nsub_0: assembly {\n        /* \"contracts/token factory/token.sol\":607:878  contract MyToken is ERC20, ERC20Burnable, Ownable, ERC20Permit {... */\n      mstore(0x40, 0x80)\n      callvalue\n      dup1\n      iszero\n      tag_1\n      jumpi\n      0x00\n      dup1\n      revert\n    tag_1:\n      pop\n      jumpi(tag_2, lt(calldatasize, 0x04))\n      shr(0xe0, calldataload(0x00))\n      dup1\n      0x715018a6\n      gt\n      tag_23\n      jumpi\n      dup1\n      0xa457c2d7\n      gt\n      tag_24\n      jumpi\n      dup1\n      0xa457c2d7\n      eq\n      tag_18\n      jumpi\n      dup1\n      0xa9059cbb\n      eq\n      tag_19\n      jumpi\n      dup1\n      0xd505accf\n      eq\n      tag_20\n      jumpi\n      dup1\n      0xdd62ed3e\n      eq\n      tag_21\n      jumpi\n      dup1\n      0xf2fde38b\n      eq\n      tag_22\n      jumpi\n      jump(tag_2)\n    tag_24:\n      dup1\n      0x715018a6\n      eq\n      tag_13\n      jumpi\n      dup1\n      0x79cc6790\n      eq\n      tag_14\n      jumpi\n      dup1\n      0x7ecebe00\n      eq\n      tag_15\n      jumpi\n      dup1\n      0x8da5cb5b\n      eq\n      tag_16\n      jumpi\n      dup1\n      0x95d89b41\n      eq\n      tag_17\n      jumpi\n      jump(tag_2)\n    tag_23:\n      dup1\n      0x3644e515\n      gt\n      tag_25\n      jumpi\n      dup1\n      0x3644e515\n      eq\n      tag_8\n      jumpi\n      dup1\n      0x39509351\n      eq\n      tag_9\n      jumpi\n      dup1\n      0x40c10f19\n      eq\n      tag_10\n      jumpi\n      dup1\n      0x42966c68\n      eq\n      tag_11\n      jumpi\n      dup1\n      0x70a08231\n      eq\n      tag_12\n      jumpi\n      jump(tag_2)\n    tag_25:\n      dup1\n      0x06fdde03\n      eq\n      tag_3\n      jumpi\n      dup1\n      0x095ea7b3\n      eq\n      tag_4\n      jumpi\n      dup1\n      0x18160ddd\n      eq\n      tag_5\n      jumpi\n      dup1\n      0x23b872dd\n      eq\n      tag_6\n      jumpi\n      dup1\n      0x313ce567\n      eq\n      tag_7\n      jumpi\n    tag_2:\n      0x00\n      dup1\n      revert\n        /* \"https://github.com/OpenZeppelin/openzeppelin-contracts/blob/release-v4.7/contracts/token/ERC20/ERC20.sol\":2156:2254  function name() public view virtual override returns (string memory) {... */\n    tag_3:\n      tag_26\n      tag_27\n      jump\t// in\n    tag_26:\n      mload(0x40)\n      tag_28\n      swap2\n      swap1\n      tag_29\n      jump\t// in\n    tag_28:\n      mload(0x40)\n      dup1\n      swap2\n      sub\n      swap1\n      return\n        /* \"https://github.com/OpenZeppelin/openzeppelin-contracts/blob/release-v4.7/contracts/token/ERC20/ERC20.sol\":4433:4630  function approve(address spender, uint256 amount) public virtual override returns (bool) {... */\n    tag_4:\n      tag_30\n      0x04\n      dup1\n      calldatasize\n      sub\n      dup2\n      add\n      swap1\n      tag_31\n      swap2\n      swap1\n      tag_32\n      jump\t// in\n    tag_31:\n      tag_33\n      jump\t// in\n    tag_30:\n      mload(0x40)\n      tag_34\n      swap2\n      swap1\n      tag_35\n      jump\t// in\n    tag_34:\n      mload(0x40)\n      dup1\n      swap2\n      sub\n      swap1\n      return\n        /* \"https://github.com/OpenZeppelin/openzeppelin-contracts/blob/release-v4.7/contracts/token/ERC20/ERC20.sol\":3244:3350  function totalSupply() public view virtual override returns (uint256) {... */\n    tag_5:\n      tag_36\n      tag_37\n      jump\t// in\n    tag_36:\n      mload(0x40)\n      tag_38\n      swap2\n      swap1\n      tag_39\n      jump\t// in\n    tag_38:\n      mload(0x40)\n      dup1\n      swap2\n      sub\n      swap1\n      return\n        /* \"https://github.com/OpenZeppelin/openzeppelin-contracts/blob/release-v4.7/contracts/token/ERC20/ERC20.sol\":5192:5478  function transferFrom(... */\n    tag_6:\n      tag_40\n      0x04\n      dup1\n      calldatasize\n      sub\n      dup2\n      add\n      swap1\n      tag_41\n      swap2\n      swap1\n      tag_42\n      jump\t// in\n    tag_41:\n      tag_43\n      jump\t// in\n    tag_40:\n      mload(0x40)\n      tag_44\n      swap2\n      swap1\n      tag_35\n      jump\t// in\n    tag_44:\n      mload(0x40)\n      dup1\n      swap2\n      sub\n      swap1\n      return\n        /* \"https://github.com/OpenZeppelin/openzeppelin-contracts/blob/release-v4.7/contracts/token/ERC20/ERC20.sol\":3093:3184  function decimals() public view virtual override returns (uint8) {... */\n    tag_7:\n      tag_45\n      tag_46\n      jump\t// in\n    tag_45:\n      mload(0x40)\n      tag_47\n      swap2\n      swap1\n      tag_48\n      jump\t// in\n    tag_47:\n      mload(0x40)\n      dup1\n      swap2\n      sub\n      swap1\n      return\n        /* \"https://github.com/OpenZeppelin/openzeppelin-contracts/blob/release-v4.7/contracts/token/ERC20/extensions/draft-ERC20Permit.sol\":2885:2998  function DOMAIN_SEPARATOR() external view override returns (bytes32) {... */\n    tag_8:\n      tag_49\n      tag_50\n      jump\t// in\n    tag_49:\n      mload(0x40)\n      tag_51\n      swap2\n      swap1\n      tag_52\n      jump\t// in\n    tag_51:\n      mload(0x40)\n      dup1\n      swap2\n      sub\n      swap1\n      return\n        /* \"https://github.com/OpenZeppelin/openzeppelin-contracts/blob/release-v4.7/contracts/token/ERC20/ERC20.sol\":5873:6107  function increaseAllowance(address spender, uint256 addedValue) public virtual returns (bool) {... */\n    tag_9:\n      tag_53\n      0x04\n      dup1\n      calldatasize\n      sub\n      dup2\n      add\n      swap1\n      tag_54\n      swap2\n      swap1\n      tag_32\n      jump\t// in\n    tag_54:\n      tag_55\n      jump\t// in\n    tag_53:\n      mload(0x40)\n      tag_56\n      swap2\n      swap1\n      tag_35\n      jump\t// in\n    tag_56:\n      mload(0x40)\n      dup1\n      swap2\n      sub\n      swap1\n      return\n        /* \"contracts/token factory/token.sol\":783:876  function mint(address to, uint256 amount) public onlyOwner {... */\n    tag_10:\n      tag_57\n      0x04\n      dup1\n      calldatasize\n      sub\n      dup2\n      add\n      swap1\n      tag_58\n      swap2\n      swap1\n      tag_32\n      jump\t// in\n    tag_58:\n      tag_59\n      jump\t// in\n    tag_57:\n      stop\n        /* \"https://github.com/OpenZeppelin/openzeppelin-contracts/blob/release-v4.7/contracts/token/ERC20/extensions/ERC20Burnable.sol\":578:667  function burn(uint256 amount) public virtual {... */\n    tag_11:\n      tag_60\n      0x04\n      dup1\n      calldatasize\n      sub\n      dup2\n      add\n      swap1\n      tag_61\n      swap2\n      swap1\n      tag_62\n      jump\t// in\n    tag_61:\n      tag_63\n      jump\t// in\n    tag_60:\n      stop\n        /* \"https://github.com/OpenZeppelin/openzeppelin-contracts/blob/release-v4.7/contracts/token/ERC20/ERC20.sol\":3408:3533  function balanceOf(address account) public view virtual override returns (uint256) {... */\n    tag_12:\n      tag_64\n      0x04\n      dup1\n      calldatasize\n      sub\n      dup2\n      add\n      swap1\n      tag_65\n      swap2\n      swap1\n      tag_66\n      jump\t// in\n    tag_65:\n      tag_67\n      jump\t// in\n    tag_64:\n      mload(0x40)\n      tag_68\n      swap2\n      swap1\n      tag_39\n      jump\t// in\n    tag_68:\n      mload(0x40)\n      dup1\n      swap2\n      sub\n      swap1\n      return\n        /* \"https://github.com/OpenZeppelin/openzeppelin-contracts/blob/release-v4.7/contracts/access/Ownable.sol\":1831:1932  function renounceOwnership() public virtual onlyOwner {... */\n    tag_13:\n      tag_69\n      tag_70\n      jump\t// in\n    tag_69:\n      stop\n        /* \"https://github.com/OpenZeppelin/openzeppelin-contracts/blob/release-v4.7/contracts/token/ERC20/extensions/ERC20Burnable.sol\":973:1134  function burnFrom(address account, uint256 amount) public virtual {... */\n    tag_14:\n      tag_71\n      0x04\n      dup1\n      calldatasize\n      sub\n      dup2\n      add\n      swap1\n      tag_72\n      swap2\n      swap1\n      tag_32\n      jump\t// in\n    tag_72:\n      tag_73\n      jump\t// in\n    tag_71:\n      stop\n        /* \"https://github.com/OpenZeppelin/openzeppelin-contracts/blob/release-v4.7/contracts/token/ERC20/extensions/draft-ERC20Permit.sol\":2635:2761  function nonces(address owner) public view virtual override returns (uint256) {... */\n    tag_15:\n      tag_74\n      0x04\n      dup1\n      calldatasize\n      sub\n      dup2\n      add\n      swap1\n      tag_75\n      swap2\n      swap1\n      tag_66\n      jump\t// in\n    tag_75:\n      tag_76\n      jump\t// in\n    tag_74:\n      mload(0x40)\n      tag_77\n      swap2\n      swap1\n      tag_39\n      jump\t// in\n    tag_77:\n      mload(0x40)\n      dup1\n      swap2\n      sub\n      swap1\n      return\n        /* \"https://github.com/OpenZeppelin/openzeppelin-contracts/blob/release-v4.7/contracts/access/Ownable.sol\":1201:1286  function owner() public view virtual returns (address) {... */\n    tag_16:\n      tag_78\n      tag_79\n      jump\t// in\n    tag_78:\n      mload(0x40)\n      tag_80\n      swap2\n      swap1\n      tag_81\n      jump\t// in\n    tag_80:\n      mload(0x40)\n      dup1\n      swap2\n      sub\n      swap1\n      return\n        /* \"https://github.com/OpenZeppelin/openzeppelin-contracts/blob/release-v4.7/contracts/token/ERC20/ERC20.sol\":2367:2469  function symbol() public view virtual override returns (string memory) {... */\n    tag_17:\n      tag_82\n      tag_83\n      jump\t// in\n    tag_82:\n      mload(0x40)\n      tag_84\n      swap2\n      swap1\n      tag_29\n      jump\t// in\n    tag_84:\n      mload(0x40)\n      dup1\n      swap2\n      sub\n      swap1\n      return\n        /* \"https://github.com/OpenZeppelin/openzeppelin-contracts/blob/release-v4.7/contracts/token/ERC20/ERC20.sol\":6594:7021  function decreaseAllowance(address spender, uint256 subtractedValue) public virtual returns (bool) {... */\n    tag_18:\n      tag_85\n      0x04\n      dup1\n      calldatasize\n      sub\n      dup2\n      add\n      swap1\n      tag_86\n      swap2\n      swap1\n      tag_32\n      jump\t// in\n    tag_86:\n      tag_87\n      jump\t// in\n    tag_85:\n      mload(0x40)\n      tag_88\n      swap2\n      swap1\n      tag_35\n      jump\t// in\n    tag_88:\n      mload(0x40)\n      dup1\n      swap2\n      sub\n      swap1\n      return\n        /* \"https://github.com/OpenZeppelin/openzeppelin-contracts/blob/release-v4.7/contracts/token/ERC20/ERC20.sol\":3729:3918  function transfer(address to, uint256 amount) public virtual override returns (bool) {... */\n    tag_19:\n      tag_89\n      0x04\n      dup1\n      calldatasize\n      sub\n      dup2\n      add\n      swap1\n      tag_90\n      swap2\n      swap1\n      tag_32\n      jump\t// in\n    tag_90:\n      tag_91\n      jump\t// in\n    tag_89:\n      mload(0x40)\n      tag_92\n      swap2\n      swap1\n      tag_35\n      jump\t// in\n    tag_92:\n      mload(0x40)\n      dup1\n      swap2\n      sub\n      swap1\n      return\n        /* \"https://github.com/OpenZeppelin/openzeppelin-contracts/blob/release-v4.7/contracts/token/ERC20/extensions/draft-ERC20Permit.sol\":1948:2574  function permit(... */\n    tag_20:\n      tag_93\n      0x04\n      dup1\n      calldatasize\n      sub\n      dup2\n      add\n      swap1\n      tag_94\n      swap2\n      swap1\n      tag_95\n      jump\t// in\n    tag_94:\n      tag_96\n      jump\t// in\n    tag_93:\n      stop\n        /* \"https://github.com/OpenZeppelin/openzeppelin-contracts/blob/release-v4.7/contracts/token/ERC20/ERC20.sol\":3976:4125  function allowance(address owner, address spender) public view virtual override returns (uint256) {... */\n    tag_21:\n      tag_97\n      0x04\n      dup1\n      calldatasize\n      sub\n      dup2\n      add\n      swap1\n      tag_98\n      swap2\n      swap1\n      tag_99\n      jump\t// in\n    tag_98:\n      tag_100\n      jump\t// in\n    tag_97:\n      mload(0x40)\n      tag_101\n      swap2\n      swap1\n      tag_39\n      jump\t// in\n    tag_101:\n      mload(0x40)\n      dup1\n      swap2\n      sub\n      swap1\n      return\n        /* \"https://github.com/OpenZeppelin/openzeppelin-contracts/blob/release-v4.7/contracts/access/Ownable.sol\":2081:2279  function transferOwnership(address newOwner) public virtual onlyOwner {... */\n    tag_22:\n      tag_102\n      0x04\n      dup1\n      calldatasize\n      sub\n      dup2\n      add\n      swap1\n      tag_103\n      swap2\n      swap1\n      tag_66\n      jump\t// in\n    tag_103:\n      tag_104\n      jump\t// in\n    tag_102:\n      stop\n        /* \"https://github.com/OpenZeppelin/openzeppelin-contracts/blob/release-v4.7/contracts/token/ERC20/ERC20.sol\":2156:2254  function name() public view virtual override returns (string memory) {... */\n    tag_27:\n        /* \"https://github.com/OpenZeppelin/openzeppelin-contracts/blob/release-v4.7/contracts/token/ERC20/ERC20.sol\":2210:2223  string memory */\n      0x60\n        /* \"https://github.com/OpenZeppelin/openzeppelin-contracts/blob/release-v4.7/contracts/token/ERC20/ERC20.sol\":2242:2247  _name */\n      0x03\n        /* \"https://github.com/OpenZeppelin/openzeppelin-contracts/blob/release-v4.7/contracts/token/ERC20/ERC20.sol\":2235:2247  return _name */\n      dup1\n      sload\n      tag_106\n      swap1\n      tag_107\n      jump\t// in\n    tag_106:\n      dup1\n      0x1f\n      add\n      0x20\n      dup1\n      swap2\n      div\n      mul\n      0x20\n      add\n      mload(0x40)\n      swap1\n      dup2\n      add\n      0x40\n      mstore\n      dup1\n      swap3\n      swap2\n      swap1\n      dup2\n      dup2\n      mstore\n      0x20\n      add\n      dup3\n      dup1\n      sload\n      tag_108\n      swap1\n      tag_107\n      jump\t// in\n    tag_108:\n      dup1\n      iszero\n      tag_109\n      jumpi\n      dup1\n      0x1f\n      lt\n      tag_110\n      jumpi\n      0x0100\n      dup1\n      dup4\n      sload\n      div\n      mul\n      dup4\n      mstore\n      swap2\n      0x20\n      add\n      swap2\n      jump(tag_109)\n    tag_110:\n      dup3\n      add\n      swap2\n      swap1\n      0x00\n      mstore\n      keccak256(0x00, 0x20)\n      swap1\n    tag_111:\n      dup2\n      sload\n      dup2\n      mstore\n      swap1\n      0x01\n      add\n      swap1\n      0x20\n      add\n      dup1\n      dup4\n      gt\n      tag_111\n      jumpi\n      dup3\n      swap1\n      sub\n      0x1f\n      and\n      dup3\n      add\n      swap2\n    tag_109:\n      pop\n      pop\n      pop\n      pop\n      pop\n      swap1\n      pop\n        /* \"https://github.com/OpenZeppelin/openzeppelin-contracts/blob/release-v4.7/contracts/token/ERC20/ERC20.sol\":2156:2254  function name() public view virtual override returns (string memory) {... */\n      swap1\n      jump\t// out\n        /* \"https://github.com/OpenZeppelin/openzeppelin-contracts/blob/release-v4.7/contracts/token/ERC20/ERC20.sol\":4433:4630  function approve(address spender, uint256 amount) public virtual override returns (bool) {... */\n    tag_33:\n        /* \"https://github.com/OpenZeppelin/openzeppelin-contracts/blob/release-v4.7/contracts/token/ERC20/ERC20.sol\":4516:4520  bool */\n      0x00\n        /* \"https://github.com/OpenZeppelin/openzeppelin-contracts/blob/release-v4.7/contracts/token/ERC20/ERC20.sol\":4532:4545  address owner */\n      dup1\n        /* \"https://github.com/OpenZeppelin/openzeppelin-contracts/blob/release-v4.7/contracts/token/ERC20/ERC20.sol\":4548:4560  _msgSender() */\n      tag_113\n        /* \"https://github.com/OpenZeppelin/openzeppelin-contracts/blob/release-v4.7/contracts/token/ERC20/ERC20.sol\":4548:4558  _msgSender */\n      tag_114\n        /* \"https://github.com/OpenZeppelin/openzeppelin-contracts/blob/release-v4.7/contracts/token/ERC20/ERC20.sol\":4548:4560  _msgSender() */\n      jump\t// in\n    tag_113:\n        /* \"https://github.com/OpenZeppelin/openzeppelin-contracts/blob/release-v4.7/contracts/token/ERC20/ERC20.sol\":4532:4560  address owner = _msgSender() */\n      swap1\n      pop\n        /* \"https://github.com/OpenZeppelin/openzeppelin-contracts/blob/release-v4.7/contracts/token/ERC20/ERC20.sol\":4570:4602  _approve(owner, spender, amount) */\n      tag_115\n        /* \"https://github.com/OpenZeppelin/openzeppelin-contracts/blob/release-v4.7/contracts/token/ERC20/ERC20.sol\":4579:4584  owner */\n      dup2\n        /* \"https://github.com/OpenZeppelin/openzeppelin-contracts/blob/release-v4.7/contracts/token/ERC20/ERC20.sol\":4586:4593  spender */\n      dup6\n        /* \"https://github.com/OpenZeppelin/openzeppelin-contracts/blob/release-v4.7/contracts/token/ERC20/ERC20.sol\":4595:4601  amount */\n      dup6\n        /* \"https://github.com/OpenZeppelin/openzeppelin-contracts/blob/release-v4.7/contracts/token/ERC20/ERC20.sol\":4570:4578  _approve */\n      tag_116\n        /* \"https://github.com/OpenZeppelin/openzeppelin-contracts/blob/release-v4.7/contracts/token/ERC20/ERC20.sol\":4570:4602  _approve(owner, spender, amount) */\n      jump\t// in\n    tag_115:\n        /* \"https://github.com/OpenZeppelin/openzeppelin-contracts/blob/release-v4.7/contracts/token/ERC20/ERC20.sol\":4619:4623  true */\n      0x01\n        /* \"https://github.com/OpenZeppelin/openzeppelin-contracts/blob/release-v4.7/contracts/token/ERC20/ERC20.sol\":4612:4623  return true */\n      swap2\n      pop\n      pop\n        /* \"https://github.com/OpenZeppelin/openzeppelin-contracts/blob/release-v4.7/contracts/token/ERC20/ERC20.sol\":4433:4630  function approve(address spender, uint256 amount) public virtual override returns (bool) {... */\n      swap3\n      swap2\n      pop\n      pop\n      jump\t// out\n        /* \"https://github.com/OpenZeppelin/openzeppelin-contracts/blob/release-v4.7/contracts/token/ERC20/ERC20.sol\":3244:3350  function totalSupply() public view virtual override returns (uint256) {... */\n    tag_37:\n        /* \"https://github.com/OpenZeppelin/openzeppelin-contracts/blob/release-v4.7/contracts/token/ERC20/ERC20.sol\":3305:3312  uint256 */\n      0x00\n        /* \"https://github.com/OpenZeppelin/openzeppelin-contracts/blob/release-v4.7/contracts/token/ERC20/ERC20.sol\":3331:3343  _totalSupply */\n      sload(0x02)\n        /* \"https://github.com/OpenZeppelin/openzeppelin-contracts/blob/release-v4.7/contracts/token/ERC20/ERC20.sol\":3324:3343  return _totalSupply */\n      swap1\n      pop\n        /* \"https://github.com/OpenZeppelin/openzeppelin-contracts/blob/release-v4.7/contracts/token/ERC20/ERC20.sol\":3244:3350  function totalSupply() public view virtual override returns (uint256) {... */\n      swap1\n      jump\t// out\n        /* \"https://github.com/OpenZeppelin/openzeppelin-contracts/blob/release-v4.7/contracts/token/ERC20/ERC20.sol\":5192:5478  function transferFrom(... */\n    tag_43:\n        /* \"https://github.com/OpenZeppelin/openzeppelin-contracts/blob/release-v4.7/contracts/token/ERC20/ERC20.sol\":5319:5323  bool */\n      0x00\n        /* \"https://github.com/OpenZeppelin/openzeppelin-contracts/blob/release-v4.7/contracts/token/ERC20/ERC20.sol\":5335:5350  address spender */\n      dup1\n        /* \"https://github.com/OpenZeppelin/openzeppelin-contracts/blob/release-v4.7/contracts/token/ERC20/ERC20.sol\":5353:5365  _msgSender() */\n      tag_119\n        /* \"https://github.com/OpenZeppelin/openzeppelin-contracts/blob/release-v4.7/contracts/token/ERC20/ERC20.sol\":5353:5363  _msgSender */\n      tag_114\n        /* \"https://github.com/OpenZeppelin/openzeppelin-contracts/blob/release-v4.7/contracts/token/ERC20/ERC20.sol\":5353:5365  _msgSender() */\n      jump\t// in\n    tag_119:\n        /* \"https://github.com/OpenZeppelin/openzeppelin-contracts/blob/release-v4.7/contracts/token/ERC20/ERC20.sol\":5335:5365  address spender = _msgSender() */\n      swap1\n      pop\n        /* \"https://github.com/OpenZeppelin/openzeppelin-contracts/blob/release-v4.7/contracts/token/ERC20/ERC20.sol\":5375:5413  _spendAllowance(from, spender, amount) */\n      tag_120\n        /* \"https://github.com/OpenZeppelin/openzeppelin-contracts/blob/release-v4.7/contracts/token/ERC20/ERC20.sol\":5391:5395  from */\n      dup6\n        /* \"https://github.com/OpenZeppelin/openzeppelin-contracts/blob/release-v4.7/contracts/token/ERC20/ERC20.sol\":5397:5404  spender */\n      dup3\n        /* \"https://github.com/OpenZeppelin/openzeppelin-contracts/blob/release-v4.7/contracts/token/ERC20/ERC20.sol\":5406:5412  amount */\n      dup6\n        /* \"https://github.com/OpenZeppelin/openzeppelin-contracts/blob/release-v4.7/contracts/token/ERC20/ERC20.sol\":5375:5390  _spendAllowance */\n      tag_121\n        /* \"https://github.com/OpenZeppelin/openzeppelin-contracts/blob/release-v4.7/contracts/token/ERC20/ERC20.sol\":5375:5413  _spendAllowance(from, spender, amount) */\n      jump\t// in\n    tag_120:\n        /* \"https://github.com/OpenZeppelin/openzeppelin-contracts/blob/release-v4.7/contracts/token/ERC20/ERC20.sol\":5423:5450  _transfer(from, to, amount) */\n      tag_122\n        /* \"https://github.com/OpenZeppelin/openzeppelin-contracts/blob/release-v4.7/contracts/token/ERC20/ERC20.sol\":5433:5437  from */\n      dup6\n        /* \"https://github.com/OpenZeppelin/openzeppelin-contracts/blob/release-v4.7/contracts/token/ERC20/ERC20.sol\":5439:5441  to */\n      dup6\n        /* \"https://github.com/OpenZeppelin/openzeppelin-contracts/blob/release-v4.7/contracts/token/ERC20/ERC20.sol\":5443:5449  amount */\n      dup6\n        /* \"https://github.com/OpenZeppelin/openzeppelin-contracts/blob/release-v4.7/contracts/token/ERC20/ERC20.sol\":5423:5432  _transfer */\n      tag_123\n        /* \"https://github.com/OpenZeppelin/openzeppelin-contracts/blob/release-v4.7/contracts/token/ERC20/ERC20.sol\":5423:5450  _transfer(from, to, amount) */\n      jump\t// in\n    tag_122:\n        /* \"https://github.com/OpenZeppelin/openzeppelin-contracts/blob/release-v4.7/contracts/token/ERC20/ERC20.sol\":5467:5471  true */\n      0x01\n        /* \"https://github.com/OpenZeppelin/openzeppelin-contracts/blob/release-v4.7/contracts/token/ERC20/ERC20.sol\":5460:5471  return true */\n      swap2\n      pop\n      pop\n        /* \"https://github.com/OpenZeppelin/openzeppelin-contracts/blob/release-v4.7/contracts/token/ERC20/ERC20.sol\":5192:5478  function transferFrom(... */\n      swap4\n      swap3\n      pop\n      pop\n      pop\n      jump\t// out\n        /* \"https://github.com/OpenZeppelin/openzeppelin-contracts/blob/release-v4.7/contracts/token/ERC20/ERC20.sol\":3093:3184  function decimals() public view virtual override returns (uint8) {... */\n    tag_46:\n        /* \"https://github.com/OpenZeppelin/openzeppelin-contracts/blob/release-v4.7/contracts/token/ERC20/ERC20.sol\":3151:3156  uint8 */\n      0x00\n        /* \"https://github.com/OpenZeppelin/openzeppelin-contracts/blob/release-v4.7/contracts/token/ERC20/ERC20.sol\":3175:3177  18 */\n      0x12\n        /* \"https://github.com/OpenZeppelin/openzeppelin-contracts/blob/release-v4.7/contracts/token/ERC20/ERC20.sol\":3168:3177  return 18 */\n      swap1\n      pop\n        /* \"https://github.com/OpenZeppelin/openzeppelin-contracts/blob/release-v4.7/contracts/token/ERC20/ERC20.sol\":3093:3184  function decimals() public view virtual override returns (uint8) {... */\n      swap1\n      jump\t// out\n        /* \"https://github.com/OpenZeppelin/openzeppelin-contracts/blob/release-v4.7/contracts/token/ERC20/extensions/draft-ERC20Permit.sol\":2885:2998  function DOMAIN_SEPARATOR() external view override returns (bytes32) {... */\n    tag_50:\n        /* \"https://github.com/OpenZeppelin/openzeppelin-contracts/blob/release-v4.7/contracts/token/ERC20/extensions/draft-ERC20Permit.sol\":2945:2952  bytes32 */\n      0x00\n        /* \"https://github.com/OpenZeppelin/openzeppelin-contracts/blob/release-v4.7/contracts/token/ERC20/extensions/draft-ERC20Permit.sol\":2971:2991  _domainSeparatorV4() */\n      tag_126\n        /* \"https://github.com/OpenZeppelin/openzeppelin-contracts/blob/release-v4.7/contracts/token/ERC20/extensions/draft-ERC20Permit.sol\":2971:2989  _domainSeparatorV4 */\n      tag_127\n        /* \"https://github.com/OpenZeppelin/openzeppelin-contracts/blob/release-v4.7/contracts/token/ERC20/extensions/draft-ERC20Permit.sol\":2971:2991  _domainSeparatorV4() */\n      jump\t// in\n    tag_126:\n        /* \"https://github.com/OpenZeppelin/openzeppelin-contracts/blob/release-v4.7/contracts/token/ERC20/extensions/draft-ERC20Permit.sol\":2964:2991  return _domainSeparatorV4() */\n      swap1\n      pop\n        /* \"https://github.com/OpenZeppelin/openzeppelin-contracts/blob/release-v4.7/contracts/token/ERC20/extensions/draft-ERC20Permit.sol\":2885:2998  function DOMAIN_SEPARATOR() external view override returns (bytes32) {... */\n      swap1\n      jump\t// out\n        /* \"https://github.com/OpenZeppelin/openzeppelin-contracts/blob/release-v4.7/contracts/token/ERC20/ERC20.sol\":5873:6107  function increaseAllowance(address spender, uint256 addedValue) public virtual returns (bool) {... */\n    tag_55:\n        /* \"https://github.com/OpenZeppelin/openzeppelin-contracts/blob/release-v4.7/contracts/token/ERC20/ERC20.sol\":5961:5965  bool */\n      0x00\n        /* \"https://github.com/OpenZeppelin/openzeppelin-contracts/blob/release-v4.7/contracts/token/ERC20/ERC20.sol\":5977:5990  address owner */\n      dup1\n        /* \"https://github.com/OpenZeppelin/openzeppelin-contracts/blob/release-v4.7/contracts/token/ERC20/ERC20.sol\":5993:6005  _msgSender() */\n      tag_129\n        /* \"https://github.com/OpenZeppelin/openzeppelin-contracts/blob/release-v4.7/contracts/token/ERC20/ERC20.sol\":5993:6003  _msgSender */\n      tag_114\n        /* \"https://github.com/OpenZeppelin/openzeppelin-contracts/blob/release-v4.7/contracts/token/ERC20/ERC20.sol\":5993:6005  _msgSender() */\n      jump\t// in\n    tag_129:\n        /* \"https://github.com/OpenZeppelin/openzeppelin-contracts/blob/release-v4.7/contracts/token/ERC20/ERC20.sol\":5977:6005  address owner = _msgSender() */\n      swap1\n      pop\n        /* \"https://github.com/OpenZeppelin/openzeppelin-contracts/blob/release-v4.7/contracts/token/ERC20/ERC20.sol\":6015:6079  _approve(owner, spender, allowance(owner, spender) + addedValue) */\n      tag_130\n        /* \"https://github.com/OpenZeppelin/openzeppelin-contracts/blob/release-v4.7/contracts/token/ERC20/ERC20.sol\":6024:6029  owner */\n      dup2\n        /* \"https://github.com/OpenZeppelin/openzeppelin-contracts/blob/release-v4.7/contracts/token/ERC20/ERC20.sol\":6031:6038  spender */\n      dup6\n        /* \"https://github.com/OpenZeppelin/openzeppelin-contracts/blob/release-v4.7/contracts/token/ERC20/ERC20.sol\":6068:6078  addedValue */\n      dup6\n        /* \"https://github.com/OpenZeppelin/openzeppelin-contracts/blob/release-v4.7/contracts/token/ERC20/ERC20.sol\":6040:6065  allowance(owner, spender) */\n      tag_131\n        /* \"https://github.com/OpenZeppelin/openzeppelin-contracts/blob/release-v4.7/contracts/token/ERC20/ERC20.sol\":6050:6055  owner */\n      dup6\n        /* \"https://github.com/OpenZeppelin/openzeppelin-contracts/blob/release-v4.7/contracts/token/ERC20/ERC20.sol\":6057:6064  spender */\n      dup10\n        /* \"https://github.com/OpenZeppelin/openzeppelin-contracts/blob/release-v4.7/contracts/token/ERC20/ERC20.sol\":6040:6049  allowance */\n      tag_100\n        /* \"https://github.com/OpenZeppelin/openzeppelin-contracts/blob/release-v4.7/contracts/token/ERC20/ERC20.sol\":6040:6065  allowance(owner, spender) */\n      jump\t// in\n    tag_131:\n        /* \"https://github.com/OpenZeppelin/openzeppelin-contracts/blob/release-v4.7/contracts/token/ERC20/ERC20.sol\":6040:6078  allowance(owner, spender) + addedValue */\n      tag_132\n      swap2\n      swap1\n      tag_133\n      jump\t// in\n    tag_132:\n        /* \"https://github.com/OpenZeppelin/openzeppelin-contracts/blob/release-v4.7/contracts/token/ERC20/ERC20.sol\":6015:6023  _approve */\n      tag_116\n        /* \"https://github.com/OpenZeppelin/openzeppelin-contracts/blob/release-v4.7/contracts/token/ERC20/ERC20.sol\":6015:6079  _approve(owner, spender, allowance(owner, spender) + addedValue) */\n      jump\t// in\n    tag_130:\n        /* \"https://github.com/OpenZeppelin/openzeppelin-contracts/blob/release-v4.7/contracts/token/ERC20/ERC20.sol\":6096:6100  true */\n      0x01\n        /* \"https://github.com/OpenZeppelin/openzeppelin-contracts/blob/release-v4.7/contracts/token/ERC20/ERC20.sol\":6089:6100  return true */\n      swap2\n      pop\n      pop\n        /* \"https://github.com/OpenZeppelin/openzeppelin-contracts/blob/release-v4.7/contracts/token/ERC20/ERC20.sol\":5873:6107  function increaseAllowance(address spender, uint256 addedValue) public virtual returns (bool) {... */\n      swap3\n      swap2\n      pop\n      pop\n      jump\t// out\n        /* \"contracts/token factory/token.sol\":783:876  function mint(address to, uint256 amount) public onlyOwner {... */\n    tag_59:\n        /* \"https://github.com/OpenZeppelin/openzeppelin-contracts/blob/release-v4.7/contracts/access/Ownable.sol\":1094:1107  _checkOwner() */\n      tag_135\n        /* \"https://github.com/OpenZeppelin/openzeppelin-contracts/blob/release-v4.7/contracts/access/Ownable.sol\":1094:1105  _checkOwner */\n      tag_136\n        /* \"https://github.com/OpenZeppelin/openzeppelin-contracts/blob/release-v4.7/contracts/access/Ownable.sol\":1094:1107  _checkOwner() */\n      jump\t// in\n    tag_135:\n        /* \"contracts/token factory/token.sol\":852:869  _mint(to, amount) */\n      tag_138\n        /* \"contracts/token factory/token.sol\":858:860  to */\n      dup3\n        /* \"contracts/token factory/token.sol\":862:868  amount */\n      dup3\n        /* \"contracts/token factory/token.sol\":852:857  _mint */\n      tag_139\n        /* \"contracts/token factory/token.sol\":852:869  _mint(to, amount) */\n      jump\t// in\n    tag_138:\n        /* \"contracts/token factory/token.sol\":783:876  function mint(address to, uint256 amount) public onlyOwner {... */\n      pop\n      pop\n      jump\t// out\n        /* \"https://github.com/OpenZeppelin/openzeppelin-contracts/blob/release-v4.7/contracts/token/ERC20/extensions/ERC20Burnable.sol\":578:667  function burn(uint256 amount) public virtual {... */\n    tag_63:\n        /* \"https://github.com/OpenZeppelin/openzeppelin-contracts/blob/release-v4.7/contracts/token/ERC20/extensions/ERC20Burnable.sol\":633:660  _burn(_msgSender(), amount) */\n      tag_141\n        /* \"https://github.com/OpenZeppelin/openzeppelin-contracts/blob/release-v4.7/contracts/token/ERC20/extensions/ERC20Burnable.sol\":639:651  _msgSender() */\n      tag_142\n        /* \"https://github.com/OpenZeppelin/openzeppelin-contracts/blob/release-v4.7/contracts/token/ERC20/extensions/ERC20Burnable.sol\":639:649  _msgSender */\n      tag_114\n        /* \"https://github.com/OpenZeppelin/openzeppelin-contracts/blob/release-v4.7/contracts/token/ERC20/extensions/ERC20Burnable.sol\":639:651  _msgSender() */\n      jump\t// in\n    tag_142:\n        /* \"https://github.com/OpenZeppelin/openzeppelin-contracts/blob/release-v4.7/contracts/token/ERC20/extensions/ERC20Burnable.sol\":653:659  amount */\n      dup3\n        /* \"https://github.com/OpenZeppelin/openzeppelin-contracts/blob/release-v4.7/contracts/token/ERC20/extensions/ERC20Burnable.sol\":633:638  _burn */\n      tag_143\n        /* \"https://github.com/OpenZeppelin/openzeppelin-contracts/blob/release-v4.7/contracts/token/ERC20/extensions/ERC20Burnable.sol\":633:660  _burn(_msgSender(), amount) */\n      jump\t// in\n    tag_141:\n        /* \"https://github.com/OpenZeppelin/openzeppelin-contracts/blob/release-v4.7/contracts/token/ERC20/extensions/ERC20Burnable.sol\":578:667  function burn(uint256 amount) public virtual {... */\n      pop\n      jump\t// out\n        /* \"https://github.com/OpenZeppelin/openzeppelin-contracts/blob/release-v4.7/contracts/token/ERC20/ERC20.sol\":3408:3533  function balanceOf(address account) public view virtual override returns (uint256) {... */\n    tag_67:\n        /* \"https://github.com/OpenZeppelin/openzeppelin-contracts/blob/release-v4.7/contracts/token/ERC20/ERC20.sol\":3482:3489  uint256 */\n      0x00\n        /* \"https://github.com/OpenZeppelin/openzeppelin-contracts/blob/release-v4.7/contracts/token/ERC20/ERC20.sol\":3508:3517  _balances */\n      dup1\n        /* \"https://github.com/OpenZeppelin/openzeppelin-contracts/blob/release-v4.7/contracts/token/ERC20/ERC20.sol\":3508:3526  _balances[account] */\n      0x00\n        /* \"https://github.com/OpenZeppelin/openzeppelin-contracts/blob/release-v4.7/contracts/token/ERC20/ERC20.sol\":3518:3525  account */\n      dup4\n        /* \"https://github.com/OpenZeppelin/openzeppelin-contracts/blob/release-v4.7/contracts/token/ERC20/ERC20.sol\":3508:3526  _balances[account] */\n      0xffffffffffffffffffffffffffffffffffffffff\n      and\n      0xffffffffffffffffffffffffffffffffffffffff\n      and\n      dup2\n      mstore\n      0x20\n      add\n      swap1\n      dup2\n      mstore\n      0x20\n      add\n      0x00\n      keccak256\n      sload\n        /* \"https://github.com/OpenZeppelin/openzeppelin-contracts/blob/release-v4.7/contracts/token/ERC20/ERC20.sol\":3501:3526  return _balances[account] */\n      swap1\n      pop\n        /* \"https://github.com/OpenZeppelin/openzeppelin-contracts/blob/release-v4.7/contracts/token/ERC20/ERC20.sol\":3408:3533  function balanceOf(address account) public view virtual override returns (uint256) {... */\n      swap2\n      swap1\n      pop\n      jump\t// out\n        /* \"https://github.com/OpenZeppelin/openzeppelin-contracts/blob/release-v4.7/contracts/access/Ownable.sol\":1831:1932  function renounceOwnership() public virtual onlyOwner {... */\n    tag_70:\n        /* \"https://github.com/OpenZeppelin/openzeppelin-contracts/blob/release-v4.7/contracts/access/Ownable.sol\":1094:1107  _checkOwner() */\n      tag_146\n        /* \"https://github.com/OpenZeppelin/openzeppelin-contracts/blob/release-v4.7/contracts/access/Ownable.sol\":1094:1105  _checkOwner */\n      tag_136\n        /* \"https://github.com/OpenZeppelin/openzeppelin-contracts/blob/release-v4.7/contracts/access/Ownable.sol\":1094:1107  _checkOwner() */\n      jump\t// in\n    tag_146:\n        /* \"https://github.com/OpenZeppelin/openzeppelin-contracts/blob/release-v4.7/contracts/access/Ownable.sol\":1895:1925  _transferOwnership(address(0)) */\n      tag_148\n        /* \"https://github.com/OpenZeppelin/openzeppelin-contracts/blob/release-v4.7/contracts/access/Ownable.sol\":1922:1923  0 */\n      0x00\n        /* \"https://github.com/OpenZeppelin/openzeppelin-contracts/blob/release-v4.7/contracts/access/Ownable.sol\":1895:1913  _transferOwnership */\n      tag_149\n        /* \"https://github.com/OpenZeppelin/openzeppelin-contracts/blob/release-v4.7/contracts/access/Ownable.sol\":1895:1925  _transferOwnership(address(0)) */\n      jump\t// in\n    tag_148:\n        /* \"https://github.com/OpenZeppelin/openzeppelin-contracts/blob/release-v4.7/contracts/access/Ownable.sol\":1831:1932  function renounceOwnership() public virtual onlyOwner {... */\n      jump\t// out\n        /* \"https://github.com/OpenZeppelin/openzeppelin-contracts/blob/release-v4.7/contracts/token/ERC20/extensions/ERC20Burnable.sol\":973:1134  function burnFrom(address account, uint256 amount) public virtual {... */\n    tag_73:\n        /* \"https://github.com/OpenZeppelin/openzeppelin-contracts/blob/release-v4.7/contracts/token/ERC20/extensions/ERC20Burnable.sol\":1049:1095  _spendAllowance(account, _msgSender(), amount) */\n      tag_151\n        /* \"https://github.com/OpenZeppelin/openzeppelin-contracts/blob/release-v4.7/contracts/token/ERC20/extensions/ERC20Burnable.sol\":1065:1072  account */\n      dup3\n        /* \"https://github.com/OpenZeppelin/openzeppelin-contracts/blob/release-v4.7/contracts/token/ERC20/extensions/ERC20Burnable.sol\":1074:1086  _msgSender() */\n      tag_152\n        /* \"https://github.com/OpenZeppelin/openzeppelin-contracts/blob/release-v4.7/contracts/token/ERC20/extensions/ERC20Burnable.sol\":1074:1084  _msgSender */\n      tag_114\n        /* \"https://github.com/OpenZeppelin/openzeppelin-contracts/blob/release-v4.7/contracts/token/ERC20/extensions/ERC20Burnable.sol\":1074:1086  _msgSender() */\n      jump\t// in\n    tag_152:\n        /* \"https://github.com/OpenZeppelin/openzeppelin-contracts/blob/release-v4.7/contracts/token/ERC20/extensions/ERC20Burnable.sol\":1088:1094  amount */\n      dup4\n        /* \"https://github.com/OpenZeppelin/openzeppelin-contracts/blob/release-v4.7/contracts/token/ERC20/extensions/ERC20Burnable.sol\":1049:1064  _spendAllowance */\n      tag_121\n        /* \"https://github.com/OpenZeppelin/openzeppelin-contracts/blob/release-v4.7/contracts/token/ERC20/extensions/ERC20Burnable.sol\":1049:1095  _spendAllowance(account, _msgSender(), amount) */\n      jump\t// in\n    tag_151:\n        /* \"https://github.com/OpenZeppelin/openzeppelin-contracts/blob/release-v4.7/contracts/token/ERC20/extensions/ERC20Burnable.sol\":1105:1127  _burn(account, amount) */\n      tag_153\n        /* \"https://github.com/OpenZeppelin/openzeppelin-contracts/blob/release-v4.7/contracts/token/ERC20/extensions/ERC20Burnable.sol\":1111:1118  account */\n      dup3\n        /* \"https://github.com/OpenZeppelin/openzeppelin-contracts/blob/release-v4.7/contracts/token/ERC20/extensions/ERC20Burnable.sol\":1120:1126  amount */\n      dup3\n        /* \"https://github.com/OpenZeppelin/openzeppelin-contracts/blob/release-v4.7/contracts/token/ERC20/extensions/ERC20Burnable.sol\":1105:1110  _burn */\n      tag_143\n        /* \"https://github.com/OpenZeppelin/openzeppelin-contracts/blob/release-v4.7/contracts/token/ERC20/extensions/ERC20Burnable.sol\":1105:1127  _burn(account, amount) */\n      jump\t// in\n    tag_153:\n        /* \"https://github.com/OpenZeppelin/openzeppelin-contracts/blob/release-v4.7/contracts/token/ERC20/extensions/ERC20Burnable.sol\":973:1134  function burnFrom(address account, uint256 amount) public virtual {... */\n      pop\n      pop\n      jump\t// out\n        /* \"https://github.com/OpenZeppelin/openzeppelin-contracts/blob/release-v4.7/contracts/token/ERC20/extensions/draft-ERC20Permit.sol\":2635:2761  function nonces(address owner) public view virtual override returns (uint256) {... */\n    tag_76:\n        /* \"https://github.com/OpenZeppelin/openzeppelin-contracts/blob/release-v4.7/contracts/token/ERC20/extensions/draft-ERC20Permit.sol\":2704:2711  uint256 */\n      0x00\n        /* \"https://github.com/OpenZeppelin/openzeppelin-contracts/blob/release-v4.7/contracts/token/ERC20/extensions/draft-ERC20Permit.sol\":2730:2754  _nonces[owner].current() */\n      tag_155\n        /* \"https://github.com/OpenZeppelin/openzeppelin-contracts/blob/release-v4.7/contracts/token/ERC20/extensions/draft-ERC20Permit.sol\":2730:2737  _nonces */\n      0x06\n        /* \"https://github.com/OpenZeppelin/openzeppelin-contracts/blob/release-v4.7/contracts/token/ERC20/extensions/draft-ERC20Permit.sol\":2730:2744  _nonces[owner] */\n      0x00\n        /* \"https://github.com/OpenZeppelin/openzeppelin-contracts/blob/release-v4.7/contracts/token/ERC20/extensions/draft-ERC20Permit.sol\":2738:2743  owner */\n      dup5\n        /* \"https://github.com/OpenZeppelin/openzeppelin-contracts/blob/release-v4.7/contracts/token/ERC20/extensions/draft-ERC20Permit.sol\":2730:2744  _nonces[owner] */\n      0xffffffffffffffffffffffffffffffffffffffff\n      and\n      0xffffffffffffffffffffffffffffffffffffffff\n      and\n      dup2\n      mstore\n      0x20\n      add\n      swap1\n      dup2\n      mstore\n      0x20\n      add\n      0x00\n      keccak256\n        /* \"https://github.com/OpenZeppelin/openzeppelin-contracts/blob/release-v4.7/contracts/token/ERC20/extensions/draft-ERC20Permit.sol\":2730:2752  _nonces[owner].current */\n      tag_156\n        /* \"https://github.com/OpenZeppelin/openzeppelin-contracts/blob/release-v4.7/contracts/token/ERC20/extensions/draft-ERC20Permit.sol\":2730:2754  _nonces[owner].current() */\n      jump\t// in\n    tag_155:\n        /* \"https://github.com/OpenZeppelin/openzeppelin-contracts/blob/release-v4.7/contracts/token/ERC20/extensions/draft-ERC20Permit.sol\":2723:2754  return _nonces[owner].current() */\n      swap1\n      pop\n        /* \"https://github.com/OpenZeppelin/openzeppelin-contracts/blob/release-v4.7/contracts/token/ERC20/extensions/draft-ERC20Permit.sol\":2635:2761  function nonces(address owner) public view virtual override returns (uint256) {... */\n      swap2\n      swap1\n      pop\n      jump\t// out\n        /* \"https://github.com/OpenZeppelin/openzeppelin-contracts/blob/release-v4.7/contracts/access/Ownable.sol\":1201:1286  function owner() public view virtual returns (address) {... */\n    tag_79:\n        /* \"https://github.com/OpenZeppelin/openzeppelin-contracts/blob/release-v4.7/contracts/access/Ownable.sol\":1247:1254  address */\n      0x00\n        /* \"https://github.com/OpenZeppelin/openzeppelin-contracts/blob/release-v4.7/contracts/access/Ownable.sol\":1273:1279  _owner */\n      0x05\n      0x00\n      swap1\n      sload\n      swap1\n      0x0100\n      exp\n      swap1\n      div\n      0xffffffffffffffffffffffffffffffffffffffff\n      and\n        /* \"https://github.com/OpenZeppelin/openzeppelin-contracts/blob/release-v4.7/contracts/access/Ownable.sol\":1266:1279  return _owner */\n      swap1\n      pop\n        /* \"https://github.com/OpenZeppelin/openzeppelin-contracts/blob/release-v4.7/contracts/access/Ownable.sol\":1201:1286  function owner() public view virtual returns (address) {... */\n      swap1\n      jump\t// out\n        /* \"https://github.com/OpenZeppelin/openzeppelin-contracts/blob/release-v4.7/contracts/token/ERC20/ERC20.sol\":2367:2469  function symbol() public view virtual override returns (string memory) {... */\n    tag_83:\n        /* \"https://github.com/OpenZeppelin/openzeppelin-contracts/blob/release-v4.7/contracts/token/ERC20/ERC20.sol\":2423:2436  string memory */\n      0x60\n        /* \"https://github.com/OpenZeppelin/openzeppelin-contracts/blob/release-v4.7/contracts/token/ERC20/ERC20.sol\":2455:2462  _symbol */\n      0x04\n        /* \"https://github.com/OpenZeppelin/openzeppelin-contracts/blob/release-v4.7/contracts/token/ERC20/ERC20.sol\":2448:2462  return _symbol */\n      dup1\n      sload\n      tag_159\n      swap1\n      tag_107\n      jump\t// in\n    tag_159:\n      dup1\n      0x1f\n      add\n      0x20\n      dup1\n      swap2\n      div\n      mul\n      0x20\n      add\n      mload(0x40)\n      swap1\n      dup2\n      add\n      0x40\n      mstore\n      dup1\n      swap3\n      swap2\n      swap1\n      dup2\n      dup2\n      mstore\n      0x20\n      add\n      dup3\n      dup1\n      sload\n      tag_160\n      swap1\n      tag_107\n      jump\t// in\n    tag_160:\n      dup1\n      iszero\n      tag_161\n      jumpi\n      dup1\n      0x1f\n      lt\n      tag_162\n      jumpi\n      0x0100\n      dup1\n      dup4\n      sload\n      div\n      mul\n      dup4\n      mstore\n      swap2\n      0x20\n      add\n      swap2\n      jump(tag_161)\n    tag_162:\n      dup3\n      add\n      swap2\n      swap1\n      0x00\n      mstore\n      keccak256(0x00, 0x20)\n      swap1\n    tag_163:\n      dup2\n      sload\n      dup2\n      mstore\n      swap1\n      0x01\n      add\n      swap1\n      0x20\n      add\n      dup1\n      dup4\n      gt\n      tag_163\n      jumpi\n      dup3\n      swap1\n      sub\n      0x1f\n      and\n      dup3\n      add\n      swap2\n    tag_161:\n      pop\n      pop\n      pop\n      pop\n      pop\n      swap1\n      pop\n        /* \"https://github.com/OpenZeppelin/openzeppelin-contracts/blob/release-v4.7/contracts/token/ERC20/ERC20.sol\":2367:2469  function symbol() public view virtual override returns (string memory) {... */\n      swap1\n      jump\t// out\n        /* \"https://github.com/OpenZeppelin/openzeppelin-contracts/blob/release-v4.7/contracts/token/ERC20/ERC20.sol\":6594:7021  function decreaseAllowance(address spender, uint256 subtractedValue) public virtual returns (bool) {... */\n    tag_87:\n        /* \"https://github.com/OpenZeppelin/openzeppelin-contracts/blob/release-v4.7/contracts/token/ERC20/ERC20.sol\":6687:6691  bool */\n      0x00\n        /* \"https://github.com/OpenZeppelin/openzeppelin-contracts/blob/release-v4.7/contracts/token/ERC20/ERC20.sol\":6703:6716  address owner */\n      dup1\n        /* \"https://github.com/OpenZeppelin/openzeppelin-contracts/blob/release-v4.7/contracts/token/ERC20/ERC20.sol\":6719:6731  _msgSender() */\n      tag_165\n        /* \"https://github.com/OpenZeppelin/openzeppelin-contracts/blob/release-v4.7/contracts/token/ERC20/ERC20.sol\":6719:6729  _msgSender */\n      tag_114\n        /* \"https://github.com/OpenZeppelin/openzeppelin-contracts/blob/release-v4.7/contracts/token/ERC20/ERC20.sol\":6719:6731  _msgSender() */\n      jump\t// in\n    tag_165:\n        /* \"https://github.com/OpenZeppelin/openzeppelin-contracts/blob/release-v4.7/contracts/token/ERC20/ERC20.sol\":6703:6731  address owner = _msgSender() */\n      swap1\n      pop\n        /* \"https://github.com/OpenZeppelin/openzeppelin-contracts/blob/release-v4.7/contracts/token/ERC20/ERC20.sol\":6741:6765  uint256 currentAllowance */\n      0x00\n        /* \"https://github.com/OpenZeppelin/openzeppelin-contracts/blob/release-v4.7/contracts/token/ERC20/ERC20.sol\":6768:6793  allowance(owner, spender) */\n      tag_166\n        /* \"https://github.com/OpenZeppelin/openzeppelin-contracts/blob/release-v4.7/contracts/token/ERC20/ERC20.sol\":6778:6783  owner */\n      dup3\n        /* \"https://github.com/OpenZeppelin/openzeppelin-contracts/blob/release-v4.7/contracts/token/ERC20/ERC20.sol\":6785:6792  spender */\n      dup7\n        /* \"https://github.com/OpenZeppelin/openzeppelin-contracts/blob/release-v4.7/contracts/token/ERC20/ERC20.sol\":6768:6777  allowance */\n      tag_100\n        /* \"https://github.com/OpenZeppelin/openzeppelin-contracts/blob/release-v4.7/contracts/token/ERC20/ERC20.sol\":6768:6793  allowance(owner, spender) */\n      jump\t// in\n    tag_166:\n        /* \"https://github.com/OpenZeppelin/openzeppelin-contracts/blob/release-v4.7/contracts/token/ERC20/ERC20.sol\":6741:6793  uint256 currentAllowance = allowance(owner, spender) */\n      swap1\n      pop\n        /* \"https://github.com/OpenZeppelin/openzeppelin-contracts/blob/release-v4.7/contracts/token/ERC20/ERC20.sol\":6831:6846  subtractedValue */\n      dup4\n        /* \"https://github.com/OpenZeppelin/openzeppelin-contracts/blob/release-v4.7/contracts/token/ERC20/ERC20.sol\":6811:6827  currentAllowance */\n      dup2\n        /* \"https://github.com/OpenZeppelin/openzeppelin-contracts/blob/release-v4.7/contracts/token/ERC20/ERC20.sol\":6811:6846  currentAllowance >= subtractedValue */\n      lt\n      iszero\n        /* \"https://github.com/OpenZeppelin/openzeppelin-contracts/blob/release-v4.7/contracts/token/ERC20/ERC20.sol\":6803:6888  require(currentAllowance >= subtractedValue, \"ERC20: decreased allowance below zero\") */\n      tag_167\n      jumpi\n      mload(0x40)\n      0x08c379a000000000000000000000000000000000000000000000000000000000\n      dup2\n      mstore\n      0x04\n      add\n      tag_168\n      swap1\n      tag_169\n      jump\t// in\n    tag_168:\n      mload(0x40)\n      dup1\n      swap2\n      sub\n      swap1\n      revert\n    tag_167:\n        /* \"https://github.com/OpenZeppelin/openzeppelin-contracts/blob/release-v4.7/contracts/token/ERC20/ERC20.sol\":6922:6982  _approve(owner, spender, currentAllowance - subtractedValue) */\n      tag_170\n        /* \"https://github.com/OpenZeppelin/openzeppelin-contracts/blob/release-v4.7/contracts/token/ERC20/ERC20.sol\":6931:6936  owner */\n      dup3\n        /* \"https://github.com/OpenZeppelin/openzeppelin-contracts/blob/release-v4.7/contracts/token/ERC20/ERC20.sol\":6938:6945  spender */\n      dup7\n        /* \"https://github.com/OpenZeppelin/openzeppelin-contracts/blob/release-v4.7/contracts/token/ERC20/ERC20.sol\":6966:6981  subtractedValue */\n      dup7\n        /* \"https://github.com/OpenZeppelin/openzeppelin-contracts/blob/release-v4.7/contracts/token/ERC20/ERC20.sol\":6947:6963  currentAllowance */\n      dup5\n        /* \"https://github.com/OpenZeppelin/openzeppelin-contracts/blob/release-v4.7/contracts/token/ERC20/ERC20.sol\":6947:6981  currentAllowance - subtractedValue */\n      sub\n        /* \"https://github.com/OpenZeppelin/openzeppelin-contracts/blob/release-v4.7/contracts/token/ERC20/ERC20.sol\":6922:6930  _approve */\n      tag_116\n        /* \"https://github.com/OpenZeppelin/openzeppelin-contracts/blob/release-v4.7/contracts/token/ERC20/ERC20.sol\":6922:6982  _approve(owner, spender, currentAllowance - subtractedValue) */\n      jump\t// in\n    tag_170:\n        /* \"https://github.com/OpenZeppelin/openzeppelin-contracts/blob/release-v4.7/contracts/token/ERC20/ERC20.sol\":7010:7014  true */\n      0x01\n        /* \"https://github.com/OpenZeppelin/openzeppelin-contracts/blob/release-v4.7/contracts/token/ERC20/ERC20.sol\":7003:7014  return true */\n      swap3\n      pop\n      pop\n      pop\n        /* \"https://github.com/OpenZeppelin/openzeppelin-contracts/blob/release-v4.7/contracts/token/ERC20/ERC20.sol\":6594:7021  function decreaseAllowance(address spender, uint256 subtractedValue) public virtual returns (bool) {... */\n      swap3\n      swap2\n      pop\n      pop\n      jump\t// out\n        /* \"https://github.com/OpenZeppelin/openzeppelin-contracts/blob/release-v4.7/contracts/token/ERC20/ERC20.sol\":3729:3918  function transfer(address to, uint256 amount) public virtual override returns (bool) {... */\n    tag_91:\n        /* \"https://github.com/OpenZeppelin/openzeppelin-contracts/blob/release-v4.7/contracts/token/ERC20/ERC20.sol\":3808:3812  bool */\n      0x00\n        /* \"https://github.com/OpenZeppelin/openzeppelin-contracts/blob/release-v4.7/contracts/token/ERC20/ERC20.sol\":3824:3837  address owner */\n      dup1\n        /* \"https://github.com/OpenZeppelin/openzeppelin-contracts/blob/release-v4.7/contracts/token/ERC20/ERC20.sol\":3840:3852  _msgSender() */\n      tag_172\n        /* \"https://github.com/OpenZeppelin/openzeppelin-contracts/blob/release-v4.7/contracts/token/ERC20/ERC20.sol\":3840:3850  _msgSender */\n      tag_114\n        /* \"https://github.com/OpenZeppelin/openzeppelin-contracts/blob/release-v4.7/contracts/token/ERC20/ERC20.sol\":3840:3852  _msgSender() */\n      jump\t// in\n    tag_172:\n        /* \"https://github.com/OpenZeppelin/openzeppelin-contracts/blob/release-v4.7/contracts/token/ERC20/ERC20.sol\":3824:3852  address owner = _msgSender() */\n      swap1\n      pop\n        /* \"https://github.com/OpenZeppelin/openzeppelin-contracts/blob/release-v4.7/contracts/token/ERC20/ERC20.sol\":3862:3890  _transfer(owner, to, amount) */\n      tag_173\n        /* \"https://github.com/OpenZeppelin/openzeppelin-contracts/blob/release-v4.7/contracts/token/ERC20/ERC20.sol\":3872:3877  owner */\n      dup2\n        /* \"https://github.com/OpenZeppelin/openzeppelin-contracts/blob/release-v4.7/contracts/token/ERC20/ERC20.sol\":3879:3881  to */\n      dup6\n        /* \"https://github.com/OpenZeppelin/openzeppelin-contracts/blob/release-v4.7/contracts/token/ERC20/ERC20.sol\":3883:3889  amount */\n      dup6\n        /* \"https://github.com/OpenZeppelin/openzeppelin-contracts/blob/release-v4.7/contracts/token/ERC20/ERC20.sol\":3862:3871  _transfer */\n      tag_123\n        /* \"https://github.com/OpenZeppelin/openzeppelin-contracts/blob/release-v4.7/contracts/token/ERC20/ERC20.sol\":3862:3890  _transfer(owner, to, amount) */\n      jump\t// in\n    tag_173:\n        /* \"https://github.com/OpenZeppelin/openzeppelin-contracts/blob/release-v4.7/contracts/token/ERC20/ERC20.sol\":3907:3911  true */\n      0x01\n        /* \"https://github.com/OpenZeppelin/openzeppelin-contracts/blob/release-v4.7/contracts/token/ERC20/ERC20.sol\":3900:3911  return true */\n      swap2\n      pop\n      pop\n        /* \"https://github.com/OpenZeppelin/openzeppelin-contracts/blob/release-v4.7/contracts/token/ERC20/ERC20.sol\":3729:3918  function transfer(address to, uint256 amount) public virtual override returns (bool) {... */\n      swap3\n      swap2\n      pop\n      pop\n      jump\t// out\n        /* \"https://github.com/OpenZeppelin/openzeppelin-contracts/blob/release-v4.7/contracts/token/ERC20/extensions/draft-ERC20Permit.sol\":1948:2574  function permit(... */\n    tag_96:\n        /* \"https://github.com/OpenZeppelin/openzeppelin-contracts/blob/release-v4.7/contracts/token/ERC20/extensions/draft-ERC20Permit.sol\":2183:2191  deadline */\n      dup4\n        /* \"https://github.com/OpenZeppelin/openzeppelin-contracts/blob/release-v4.7/contracts/token/ERC20/extensions/draft-ERC20Permit.sol\":2164:2179  block.timestamp */\n      timestamp\n        /* \"https://github.com/OpenZeppelin/openzeppelin-contracts/blob/release-v4.7/contracts/token/ERC20/extensions/draft-ERC20Permit.sol\":2164:2191  block.timestamp <= deadline */\n      gt\n      iszero\n        /* \"https://github.com/OpenZeppelin/openzeppelin-contracts/blob/release-v4.7/contracts/token/ERC20/extensions/draft-ERC20Permit.sol\":2156:2225  require(block.timestamp <= deadline, \"ERC20Permit: expired deadline\") */\n      tag_175\n      jumpi\n      mload(0x40)\n      0x08c379a000000000000000000000000000000000000000000000000000000000\n      dup2\n      mstore\n      0x04\n      add\n      tag_176\n      swap1\n      tag_177\n      jump\t// in\n    tag_176:\n      mload(0x40)\n      dup1\n      swap2\n      sub\n      swap1\n      revert\n    tag_175:\n        /* \"https://github.com/OpenZeppelin/openzeppelin-contracts/blob/release-v4.7/contracts/token/ERC20/extensions/draft-ERC20Permit.sol\":2236:2254  bytes32 structHash */\n      0x00\n        /* \"https://github.com/OpenZeppelin/openzeppelin-contracts/blob/release-v4.7/contracts/token/ERC20/extensions/draft-ERC20Permit.sol\":1143:1238  keccak256(\"Permit(address owner,address spender,uint256 value,uint256 nonce,uint256 deadline)\") */\n      0x6e71edae12b1b97f4d1f60370fef10105fa2faae0126114a169c64845d6126c9\n        /* \"https://github.com/OpenZeppelin/openzeppelin-contracts/blob/release-v4.7/contracts/token/ERC20/extensions/draft-ERC20Permit.sol\":2296:2301  owner */\n      dup9\n        /* \"https://github.com/OpenZeppelin/openzeppelin-contracts/blob/release-v4.7/contracts/token/ERC20/extensions/draft-ERC20Permit.sol\":2303:2310  spender */\n      dup9\n        /* \"https://github.com/OpenZeppelin/openzeppelin-contracts/blob/release-v4.7/contracts/token/ERC20/extensions/draft-ERC20Permit.sol\":2312:2317  value */\n      dup9\n        /* \"https://github.com/OpenZeppelin/openzeppelin-contracts/blob/release-v4.7/contracts/token/ERC20/extensions/draft-ERC20Permit.sol\":2319:2335  _useNonce(owner) */\n      tag_178\n        /* \"https://github.com/OpenZeppelin/openzeppelin-contracts/blob/release-v4.7/contracts/token/ERC20/extensions/draft-ERC20Permit.sol\":2329:2334  owner */\n      dup13\n        /* \"https://github.com/OpenZeppelin/openzeppelin-contracts/blob/release-v4.7/contracts/token/ERC20/extensions/draft-ERC20Permit.sol\":2319:2328  _useNonce */\n      tag_179\n        /* \"https://github.com/OpenZeppelin/openzeppelin-contracts/blob/release-v4.7/contracts/token/ERC20/extensions/draft-ERC20Permit.sol\":2319:2335  _useNonce(owner) */\n      jump\t// in\n    tag_178:\n        /* \"https://github.com/OpenZeppelin/openzeppelin-contracts/blob/release-v4.7/contracts/token/ERC20/extensions/draft-ERC20Permit.sol\":2337:2345  deadline */\n      dup10\n        /* \"https://github.com/OpenZeppelin/openzeppelin-contracts/blob/release-v4.7/contracts/token/ERC20/extensions/draft-ERC20Permit.sol\":2267:2346  abi.encode(_PERMIT_TYPEHASH, owner, spender, value, _useNonce(owner), deadline) */\n      add(0x20, mload(0x40))\n      tag_180\n      swap7\n      swap6\n      swap5\n      swap4\n      swap3\n      swap2\n      swap1\n      tag_181\n      jump\t// in\n    tag_180:\n      mload(0x40)\n      0x20\n      dup2\n      dup4\n      sub\n      sub\n      dup2\n      mstore\n      swap1\n      0x40\n      mstore\n        /* \"https://github.com/OpenZeppelin/openzeppelin-contracts/blob/release-v4.7/contracts/token/ERC20/extensions/draft-ERC20Permit.sol\":2257:2347  keccak256(abi.encode(_PERMIT_TYPEHASH, owner, spender, value, _useNonce(owner), deadline)) */\n      dup1\n      mload\n      swap1\n      0x20\n      add\n      keccak256\n        /* \"https://github.com/OpenZeppelin/openzeppelin-contracts/blob/release-v4.7/contracts/token/ERC20/extensions/draft-ERC20Permit.sol\":2236:2347  bytes32 structHash = keccak256(abi.encode(_PERMIT_TYPEHASH, owner, spender, value, _useNonce(owner), deadline)) */\n      swap1\n      pop\n        /* \"https://github.com/OpenZeppelin/openzeppelin-contracts/blob/release-v4.7/contracts/token/ERC20/extensions/draft-ERC20Permit.sol\":2358:2370  bytes32 hash */\n      0x00\n        /* \"https://github.com/OpenZeppelin/openzeppelin-contracts/blob/release-v4.7/contracts/token/ERC20/extensions/draft-ERC20Permit.sol\":2373:2401  _hashTypedDataV4(structHash) */\n      tag_182\n        /* \"https://github.com/OpenZeppelin/openzeppelin-contracts/blob/release-v4.7/contracts/token/ERC20/extensions/draft-ERC20Permit.sol\":2390:2400  structHash */\n      dup3\n        /* \"https://github.com/OpenZeppelin/openzeppelin-contracts/blob/release-v4.7/contracts/token/ERC20/extensions/draft-ERC20Permit.sol\":2373:2389  _hashTypedDataV4 */\n      tag_183\n        /* \"https://github.com/OpenZeppelin/openzeppelin-contracts/blob/release-v4.7/contracts/token/ERC20/extensions/draft-ERC20Permit.sol\":2373:2401  _hashTypedDataV4(structHash) */\n      jump\t// in\n    tag_182:\n        /* \"https://github.com/OpenZeppelin/openzeppelin-contracts/blob/release-v4.7/contracts/token/ERC20/extensions/draft-ERC20Permit.sol\":2358:2401  bytes32 hash = _hashTypedDataV4(structHash) */\n      swap1\n      pop\n        /* \"https://github.com/OpenZeppelin/openzeppelin-contracts/blob/release-v4.7/contracts/token/ERC20/extensions/draft-ERC20Permit.sol\":2412:2426  address signer */\n      0x00\n        /* \"https://github.com/OpenZeppelin/openzeppelin-contracts/blob/release-v4.7/contracts/token/ERC20/extensions/draft-ERC20Permit.sol\":2429:2457  ECDSA.recover(hash, v, r, s) */\n      tag_184\n        /* \"https://github.com/OpenZeppelin/openzeppelin-contracts/blob/release-v4.7/contracts/token/ERC20/extensions/draft-ERC20Permit.sol\":2443:2447  hash */\n      dup3\n        /* \"https://github.com/OpenZeppelin/openzeppelin-contracts/blob/release-v4.7/contracts/token/ERC20/extensions/draft-ERC20Permit.sol\":2449:2450  v */\n      dup8\n        /* \"https://github.com/OpenZeppelin/openzeppelin-contracts/blob/release-v4.7/contracts/token/ERC20/extensions/draft-ERC20Permit.sol\":2452:2453  r */\n      dup8\n        /* \"https://github.com/OpenZeppelin/openzeppelin-contracts/blob/release-v4.7/contracts/token/ERC20/extensions/draft-ERC20Permit.sol\":2455:2456  s */\n      dup8\n        /* \"https://github.com/OpenZeppelin/openzeppelin-contracts/blob/release-v4.7/contracts/token/ERC20/extensions/draft-ERC20Permit.sol\":2429:2442  ECDSA.recover */\n      tag_185\n        /* \"https://github.com/OpenZeppelin/openzeppelin-contracts/blob/release-v4.7/contracts/token/ERC20/extensions/draft-ERC20Permit.sol\":2429:2457  ECDSA.recover(hash, v, r, s) */\n      jump\t// in\n    tag_184:\n        /* \"https://github.com/OpenZeppelin/openzeppelin-contracts/blob/release-v4.7/contracts/token/ERC20/extensions/draft-ERC20Permit.sol\":2412:2457  address signer = ECDSA.recover(hash, v, r, s) */\n      swap1\n      pop\n        /* \"https://github.com/OpenZeppelin/openzeppelin-contracts/blob/release-v4.7/contracts/token/ERC20/extensions/draft-ERC20Permit.sol\":2485:2490  owner */\n      dup10\n        /* \"https://github.com/OpenZeppelin/openzeppelin-contracts/blob/release-v4.7/contracts/token/ERC20/extensions/draft-ERC20Permit.sol\":2475:2490  signer == owner */\n      0xffffffffffffffffffffffffffffffffffffffff\n      and\n        /* \"https://github.com/OpenZeppelin/openzeppelin-contracts/blob/release-v4.7/contracts/token/ERC20/extensions/draft-ERC20Permit.sol\":2475:2481  signer */\n      dup2\n        /* \"https://github.com/OpenZeppelin/openzeppelin-contracts/blob/release-v4.7/contracts/token/ERC20/extensions/draft-ERC20Permit.sol\":2475:2490  signer == owner */\n      0xffffffffffffffffffffffffffffffffffffffff\n      and\n      eq\n        /* \"https://github.com/OpenZeppelin/openzeppelin-contracts/blob/release-v4.7/contracts/token/ERC20/extensions/draft-ERC20Permit.sol\":2467:2525  require(signer == owner, \"ERC20Permit: invalid signature\") */\n      tag_186\n      jumpi\n      mload(0x40)\n      0x08c379a000000000000000000000000000000000000000000000000000000000\n      dup2\n      mstore\n      0x04\n      add\n      tag_187\n      swap1\n      tag_188\n      jump\t// in\n    tag_187:\n      mload(0x40)\n      dup1\n      swap2\n      sub\n      swap1\n      revert\n    tag_186:\n        /* \"https://github.com/OpenZeppelin/openzeppelin-contracts/blob/release-v4.7/contracts/token/ERC20/extensions/draft-ERC20Permit.sol\":2536:2567  _approve(owner, spender, value) */\n      tag_189\n        /* \"https://github.com/OpenZeppelin/openzeppelin-contracts/blob/release-v4.7/contracts/token/ERC20/extensions/draft-ERC20Permit.sol\":2545:2550  owner */\n      dup11\n        /* \"https://github.com/OpenZeppelin/openzeppelin-contracts/blob/release-v4.7/contracts/token/ERC20/extensions/draft-ERC20Permit.sol\":2552:2559  spender */\n      dup11\n        /* \"https://github.com/OpenZeppelin/openzeppelin-contracts/blob/release-v4.7/contracts/token/ERC20/extensions/draft-ERC20Permit.sol\":2561:2566  value */\n      dup11\n        /* \"https://github.com/OpenZeppelin/openzeppelin-contracts/blob/release-v4.7/contracts/token/ERC20/extensions/draft-ERC20Permit.sol\":2536:2544  _approve */\n      tag_116\n        /* \"https://github.com/OpenZeppelin/openzeppelin-contracts/blob/release-v4.7/contracts/token/ERC20/extensions/draft-ERC20Permit.sol\":2536:2567  _approve(owner, spender, value) */\n      jump\t// in\n    tag_189:\n        /* \"https://github.com/OpenZeppelin/openzeppelin-contracts/blob/release-v4.7/contracts/token/ERC20/extensions/draft-ERC20Permit.sol\":2146:2574  {... */\n      pop\n      pop\n      pop\n        /* \"https://github.com/OpenZeppelin/openzeppelin-contracts/blob/release-v4.7/contracts/token/ERC20/extensions/draft-ERC20Permit.sol\":1948:2574  function permit(... */\n      pop\n      pop\n      pop\n      pop\n      pop\n      pop\n      pop\n      jump\t// out\n        /* \"https://github.com/OpenZeppelin/openzeppelin-contracts/blob/release-v4.7/contracts/token/ERC20/ERC20.sol\":3976:4125  function allowance(address owner, address spender) public view virtual override returns (uint256) {... */\n    tag_100:\n        /* \"https://github.com/OpenZeppelin/openzeppelin-contracts/blob/release-v4.7/contracts/token/ERC20/ERC20.sol\":4065:4072  uint256 */\n      0x00\n        /* \"https://github.com/OpenZeppelin/openzeppelin-contracts/blob/release-v4.7/contracts/token/ERC20/ERC20.sol\":4091:4102  _allowances */\n      0x01\n        /* \"https://github.com/OpenZeppelin/openzeppelin-contracts/blob/release-v4.7/contracts/token/ERC20/ERC20.sol\":4091:4109  _allowances[owner] */\n      0x00\n        /* \"https://github.com/OpenZeppelin/openzeppelin-contracts/blob/release-v4.7/contracts/token/ERC20/ERC20.sol\":4103:4108  owner */\n      dup5\n        /* \"https://github.com/OpenZeppelin/openzeppelin-contracts/blob/release-v4.7/contracts/token/ERC20/ERC20.sol\":4091:4109  _allowances[owner] */\n      0xffffffffffffffffffffffffffffffffffffffff\n      and\n      0xffffffffffffffffffffffffffffffffffffffff\n      and\n      dup2\n      mstore\n      0x20\n      add\n      swap1\n      dup2\n      mstore\n      0x20\n      add\n      0x00\n      keccak256\n        /* \"https://github.com/OpenZeppelin/openzeppelin-contracts/blob/release-v4.7/contracts/token/ERC20/ERC20.sol\":4091:4118  _allowances[owner][spender] */\n      0x00\n        /* \"https://github.com/OpenZeppelin/openzeppelin-contracts/blob/release-v4.7/contracts/token/ERC20/ERC20.sol\":4110:4117  spender */\n      dup4\n        /* \"https://github.com/OpenZeppelin/openzeppelin-contracts/blob/release-v4.7/contracts/token/ERC20/ERC20.sol\":4091:4118  _allowances[owner][spender] */\n      0xffffffffffffffffffffffffffffffffffffffff\n      and\n      0xffffffffffffffffffffffffffffffffffffffff\n      and\n      dup2\n      mstore\n      0x20\n      add\n      swap1\n      dup2\n      mstore\n      0x20\n      add\n      0x00\n      keccak256\n      sload\n        /* \"https://github.com/OpenZeppelin/openzeppelin-contracts/blob/release-v4.7/contracts/token/ERC20/ERC20.sol\":4084:4118  return _allowances[owner][spender] */\n      swap1\n      pop\n        /* \"https://github.com/OpenZeppelin/openzeppelin-contracts/blob/release-v4.7/contracts/token/ERC20/ERC20.sol\":3976:4125  function allowance(address owner, address spender) public view virtual override returns (uint256) {... */\n      swap3\n      swap2\n      pop\n      pop\n      jump\t// out\n        /* \"https://github.com/OpenZeppelin/openzeppelin-contracts/blob/release-v4.7/contracts/access/Ownable.sol\":2081:2279  function transferOwnership(address newOwner) public virtual onlyOwner {... */\n    tag_104:\n        /* \"https://github.com/OpenZeppelin/openzeppelin-contracts/blob/release-v4.7/contracts/access/Ownable.sol\":1094:1107  _checkOwner() */\n      tag_192\n        /* \"https://github.com/OpenZeppelin/openzeppelin-contracts/blob/release-v4.7/contracts/access/Ownable.sol\":1094:1105  _checkOwner */\n      tag_136\n        /* \"https://github.com/OpenZeppelin/openzeppelin-contracts/blob/release-v4.7/contracts/access/Ownable.sol\":1094:1107  _checkOwner() */\n      jump\t// in\n    tag_192:\n        /* \"https://github.com/OpenZeppelin/openzeppelin-contracts/blob/release-v4.7/contracts/access/Ownable.sol\":2189:2190  0 */\n      0x00\n        /* \"https://github.com/OpenZeppelin/openzeppelin-contracts/blob/release-v4.7/contracts/access/Ownable.sol\":2169:2191  newOwner != address(0) */\n      0xffffffffffffffffffffffffffffffffffffffff\n      and\n        /* \"https://github.com/OpenZeppelin/openzeppelin-contracts/blob/release-v4.7/contracts/access/Ownable.sol\":2169:2177  newOwner */\n      dup2\n        /* \"https://github.com/OpenZeppelin/openzeppelin-contracts/blob/release-v4.7/contracts/access/Ownable.sol\":2169:2191  newOwner != address(0) */\n      0xffffffffffffffffffffffffffffffffffffffff\n      and\n      sub\n        /* \"https://github.com/OpenZeppelin/openzeppelin-contracts/blob/release-v4.7/contracts/access/Ownable.sol\":2161:2234  require(newOwner != address(0), \"Ownable: new owner is the zero address\") */\n      tag_194\n      jumpi\n      mload(0x40)\n      0x08c379a000000000000000000000000000000000000000000000000000000000\n      dup2\n      mstore\n      0x04\n      add\n      tag_195\n      swap1\n      tag_196\n      jump\t// in\n    tag_195:\n      mload(0x40)\n      dup1\n      swap2\n      sub\n      swap1\n      revert\n    tag_194:\n        /* \"https://github.com/OpenZeppelin/openzeppelin-contracts/blob/release-v4.7/contracts/access/Ownable.sol\":2244:2272  _transferOwnership(newOwner) */\n      tag_197\n        /* \"https://github.com/OpenZeppelin/openzeppelin-contracts/blob/release-v4.7/contracts/access/Ownable.sol\":2263:2271  newOwner */\n      dup2\n        /* \"https://github.com/OpenZeppelin/openzeppelin-contracts/blob/release-v4.7/contracts/access/Ownable.sol\":2244:2262  _transferOwnership */\n      tag_149\n        /* \"https://github.com/OpenZeppelin/openzeppelin-contracts/blob/release-v4.7/contracts/access/Ownable.sol\":2244:2272  _transferOwnership(newOwner) */\n      jump\t// in\n    tag_197:\n        /* \"https://github.com/OpenZeppelin/openzeppelin-contracts/blob/release-v4.7/contracts/access/Ownable.sol\":2081:2279  function transferOwnership(address newOwner) public virtual onlyOwner {... */\n      pop\n      jump\t// out\n        /* \"https://github.com/OpenZeppelin/openzeppelin-contracts/blob/release-v4.7/contracts/utils/Context.sol\":640:736  function _msgSender() internal view virtual returns (address) {... */\n    tag_114:\n        /* \"https://github.com/OpenZeppelin/openzeppelin-contracts/blob/release-v4.7/contracts/utils/Context.sol\":693:700  address */\n      0x00\n        /* \"https://github.com/OpenZeppelin/openzeppelin-contracts/blob/release-v4.7/contracts/utils/Context.sol\":719:729  msg.sender */\n      caller\n        /* \"https://github.com/OpenZeppelin/openzeppelin-contracts/blob/release-v4.7/contracts/utils/Context.sol\":712:729  return msg.sender */\n      swap1\n      pop\n        /* \"https://github.com/OpenZeppelin/openzeppelin-contracts/blob/release-v4.7/contracts/utils/Context.sol\":640:736  function _msgSender() internal view virtual returns (address) {... */\n      swap1\n      jump\t// out\n        /* \"https://github.com/OpenZeppelin/openzeppelin-contracts/blob/release-v4.7/contracts/token/ERC20/ERC20.sol\":10110:10480  function _approve(... */\n    tag_116:\n        /* \"https://github.com/OpenZeppelin/openzeppelin-contracts/blob/release-v4.7/contracts/token/ERC20/ERC20.sol\":10258:10259  0 */\n      0x00\n        /* \"https://github.com/OpenZeppelin/openzeppelin-contracts/blob/release-v4.7/contracts/token/ERC20/ERC20.sol\":10241:10260  owner != address(0) */\n      0xffffffffffffffffffffffffffffffffffffffff\n      and\n        /* \"https://github.com/OpenZeppelin/openzeppelin-contracts/blob/release-v4.7/contracts/token/ERC20/ERC20.sol\":10241:10246  owner */\n      dup4\n        /* \"https://github.com/OpenZeppelin/openzeppelin-contracts/blob/release-v4.7/contracts/token/ERC20/ERC20.sol\":10241:10260  owner != address(0) */\n      0xffffffffffffffffffffffffffffffffffffffff\n      and\n      sub\n        /* \"https://github.com/OpenZeppelin/openzeppelin-contracts/blob/release-v4.7/contracts/token/ERC20/ERC20.sol\":10233:10301  require(owner != address(0), \"ERC20: approve from the zero address\") */\n      tag_200\n      jumpi\n      mload(0x40)\n      0x08c379a000000000000000000000000000000000000000000000000000000000\n      dup2\n      mstore\n      0x04\n      add\n      tag_201\n      swap1\n      tag_202\n      jump\t// in\n    tag_201:\n      mload(0x40)\n      dup1\n      swap2\n      sub\n      swap1\n      revert\n    tag_200:\n        /* \"https://github.com/OpenZeppelin/openzeppelin-contracts/blob/release-v4.7/contracts/token/ERC20/ERC20.sol\":10338:10339  0 */\n      0x00\n        /* \"https://github.com/OpenZeppelin/openzeppelin-contracts/blob/release-v4.7/contracts/token/ERC20/ERC20.sol\":10319:10340  spender != address(0) */\n      0xffffffffffffffffffffffffffffffffffffffff\n      and\n        /* \"https://github.com/OpenZeppelin/openzeppelin-contracts/blob/release-v4.7/contracts/token/ERC20/ERC20.sol\":10319:10326  spender */\n      dup3\n        /* \"https://github.com/OpenZeppelin/openzeppelin-contracts/blob/release-v4.7/contracts/token/ERC20/ERC20.sol\":10319:10340  spender != address(0) */\n      0xffffffffffffffffffffffffffffffffffffffff\n      and\n      sub\n        /* \"https://github.com/OpenZeppelin/openzeppelin-contracts/blob/release-v4.7/contracts/token/ERC20/ERC20.sol\":10311:10379  require(spender != address(0), \"ERC20: approve to the zero address\") */\n      tag_203\n      jumpi\n      mload(0x40)\n      0x08c379a000000000000000000000000000000000000000000000000000000000\n      dup2\n      mstore\n      0x04\n      add\n      tag_204\n      swap1\n      tag_205\n      jump\t// in\n    tag_204:\n      mload(0x40)\n      dup1\n      swap2\n      sub\n      swap1\n      revert\n    tag_203:\n        /* \"https://github.com/OpenZeppelin/openzeppelin-contracts/blob/release-v4.7/contracts/token/ERC20/ERC20.sol\":10420:10426  amount */\n      dup1\n        /* \"https://github.com/OpenZeppelin/openzeppelin-contracts/blob/release-v4.7/contracts/token/ERC20/ERC20.sol\":10390:10401  _allowances */\n      0x01\n        /* \"https://github.com/OpenZeppelin/openzeppelin-contracts/blob/release-v4.7/contracts/token/ERC20/ERC20.sol\":10390:10408  _allowances[owner] */\n      0x00\n        /* \"https://github.com/OpenZeppelin/openzeppelin-contracts/blob/release-v4.7/contracts/token/ERC20/ERC20.sol\":10402:10407  owner */\n      dup6\n        /* \"https://github.com/OpenZeppelin/openzeppelin-contracts/blob/release-v4.7/contracts/token/ERC20/ERC20.sol\":10390:10408  _allowances[owner] */\n      0xffffffffffffffffffffffffffffffffffffffff\n      and\n      0xffffffffffffffffffffffffffffffffffffffff\n      and\n      dup2\n      mstore\n      0x20\n      add\n      swap1\n      dup2\n      mstore\n      0x20\n      add\n      0x00\n      keccak256\n        /* \"https://github.com/OpenZeppelin/openzeppelin-contracts/blob/release-v4.7/contracts/token/ERC20/ERC20.sol\":10390:10417  _allowances[owner][spender] */\n      0x00\n        /* \"https://github.com/OpenZeppelin/openzeppelin-contracts/blob/release-v4.7/contracts/token/ERC20/ERC20.sol\":10409:10416  spender */\n      dup5\n        /* \"https://github.com/OpenZeppelin/openzeppelin-contracts/blob/release-v4.7/contracts/token/ERC20/ERC20.sol\":10390:10417  _allowances[owner][spender] */\n      0xffffffffffffffffffffffffffffffffffffffff\n      and\n      0xffffffffffffffffffffffffffffffffffffffff\n      and\n      dup2\n      mstore\n      0x20\n      add\n      swap1\n      dup2\n      mstore\n      0x20\n      add\n      0x00\n      keccak256\n        /* \"https://github.com/OpenZeppelin/openzeppelin-contracts/blob/release-v4.7/contracts/token/ERC20/ERC20.sol\":10390:10426  _allowances[owner][spender] = amount */\n      dup2\n      swap1\n      sstore\n      pop\n        /* \"https://github.com/OpenZeppelin/openzeppelin-contracts/blob/release-v4.7/contracts/token/ERC20/ERC20.sol\":10457:10464  spender */\n      dup2\n        /* \"https://github.com/OpenZeppelin/openzeppelin-contracts/blob/release-v4.7/contracts/token/ERC20/ERC20.sol\":10441:10473  Approval(owner, spender, amount) */\n      0xffffffffffffffffffffffffffffffffffffffff\n      and\n        /* \"https://github.com/OpenZeppelin/openzeppelin-contracts/blob/release-v4.7/contracts/token/ERC20/ERC20.sol\":10450:10455  owner */\n      dup4\n        /* \"https://github.com/OpenZeppelin/openzeppelin-contracts/blob/release-v4.7/contracts/token/ERC20/ERC20.sol\":10441:10473  Approval(owner, spender, amount) */\n      0xffffffffffffffffffffffffffffffffffffffff\n      and\n      0x8c5be1e5ebec7d5bd14f71427d1e84f3dd0314c0f7b2291e5b200ac8c7c3b925\n        /* \"https://github.com/OpenZeppelin/openzeppelin-contracts/blob/release-v4.7/contracts/token/ERC20/ERC20.sol\":10466:10472  amount */\n      dup4\n        /* \"https://github.com/OpenZeppelin/openzeppelin-contracts/blob/release-v4.7/contracts/token/ERC20/ERC20.sol\":10441:10473  Approval(owner, spender, amount) */\n      mload(0x40)\n      tag_206\n      swap2\n      swap1\n      tag_39\n      jump\t// in\n    tag_206:\n      mload(0x40)\n      dup1\n      swap2\n      sub\n      swap1\n      log3\n        /* \"https://github.com/OpenZeppelin/openzeppelin-contracts/blob/release-v4.7/contracts/token/ERC20/ERC20.sol\":10110:10480  function _approve(... */\n      pop\n      pop\n      pop\n      jump\t// out\n        /* \"https://github.com/OpenZeppelin/openzeppelin-contracts/blob/release-v4.7/contracts/token/ERC20/ERC20.sol\":10761:11202  function _spendAllowance(... */\n    tag_121:\n        /* \"https://github.com/OpenZeppelin/openzeppelin-contracts/blob/release-v4.7/contracts/token/ERC20/ERC20.sol\":10891:10915  uint256 currentAllowance */\n      0x00\n        /* \"https://github.com/OpenZeppelin/openzeppelin-contracts/blob/release-v4.7/contracts/token/ERC20/ERC20.sol\":10918:10943  allowance(owner, spender) */\n      tag_208\n        /* \"https://github.com/OpenZeppelin/openzeppelin-contracts/blob/release-v4.7/contracts/token/ERC20/ERC20.sol\":10928:10933  owner */\n      dup5\n        /* \"https://github.com/OpenZeppelin/openzeppelin-contracts/blob/release-v4.7/contracts/token/ERC20/ERC20.sol\":10935:10942  spender */\n      dup5\n        /* \"https://github.com/OpenZeppelin/openzeppelin-contracts/blob/release-v4.7/contracts/token/ERC20/ERC20.sol\":10918:10927  allowance */\n      tag_100\n        /* \"https://github.com/OpenZeppelin/openzeppelin-contracts/blob/release-v4.7/contracts/token/ERC20/ERC20.sol\":10918:10943  allowance(owner, spender) */\n      jump\t// in\n    tag_208:\n        /* \"https://github.com/OpenZeppelin/openzeppelin-contracts/blob/release-v4.7/contracts/token/ERC20/ERC20.sol\":10891:10943  uint256 currentAllowance = allowance(owner, spender) */\n      swap1\n      pop\n        /* \"https://github.com/OpenZeppelin/openzeppelin-contracts/blob/release-v4.7/contracts/token/ERC20/ERC20.sol\":10977:10994  type(uint256).max */\n      0xffffffffffffffffffffffffffffffffffffffffffffffffffffffffffffffff\n        /* \"https://github.com/OpenZeppelin/openzeppelin-contracts/blob/release-v4.7/contracts/token/ERC20/ERC20.sol\":10957:10973  currentAllowance */\n      dup2\n        /* \"https://github.com/OpenZeppelin/openzeppelin-contracts/blob/release-v4.7/contracts/token/ERC20/ERC20.sol\":10957:10994  currentAllowance != type(uint256).max */\n      eq\n        /* \"https://github.com/OpenZeppelin/openzeppelin-contracts/blob/release-v4.7/contracts/token/ERC20/ERC20.sol\":10953:11196  if (currentAllowance != type(uint256).max) {... */\n      tag_209\n      jumpi\n        /* \"https://github.com/OpenZeppelin/openzeppelin-contracts/blob/release-v4.7/contracts/token/ERC20/ERC20.sol\":11038:11044  amount */\n      dup2\n        /* \"https://github.com/OpenZeppelin/openzeppelin-contracts/blob/release-v4.7/contracts/token/ERC20/ERC20.sol\":11018:11034  currentAllowance */\n      dup2\n        /* \"https://github.com/OpenZeppelin/openzeppelin-contracts/blob/release-v4.7/contracts/token/ERC20/ERC20.sol\":11018:11044  currentAllowance >= amount */\n      lt\n      iszero\n        /* \"https://github.com/OpenZeppelin/openzeppelin-contracts/blob/release-v4.7/contracts/token/ERC20/ERC20.sol\":11010:11078  require(currentAllowance >= amount, \"ERC20: insufficient allowance\") */\n      tag_210\n      jumpi\n      mload(0x40)\n      0x08c379a000000000000000000000000000000000000000000000000000000000\n      dup2\n      mstore\n      0x04\n      add\n      tag_211\n      swap1\n      tag_212\n      jump\t// in\n    tag_211:\n      mload(0x40)\n      dup1\n      swap2\n      sub\n      swap1\n      revert\n    tag_210:\n        /* \"https://github.com/OpenZeppelin/openzeppelin-contracts/blob/release-v4.7/contracts/token/ERC20/ERC20.sol\":11120:11171  _approve(owner, spender, currentAllowance - amount) */\n      tag_213\n        /* \"https://github.com/OpenZeppelin/openzeppelin-contracts/blob/release-v4.7/contracts/token/ERC20/ERC20.sol\":11129:11134  owner */\n      dup5\n        /* \"https://github.com/OpenZeppelin/openzeppelin-contracts/blob/release-v4.7/contracts/token/ERC20/ERC20.sol\":11136:11143  spender */\n      dup5\n        /* \"https://github.com/OpenZeppelin/openzeppelin-contracts/blob/release-v4.7/contracts/token/ERC20/ERC20.sol\":11164:11170  amount */\n      dup5\n        /* \"https://github.com/OpenZeppelin/openzeppelin-contracts/blob/release-v4.7/contracts/token/ERC20/ERC20.sol\":11145:11161  currentAllowance */\n      dup5\n        /* \"https://github.com/OpenZeppelin/openzeppelin-contracts/blob/release-v4.7/contracts/token/ERC20/ERC20.sol\":11145:11170  currentAllowance - amount */\n      sub\n        /* \"https://github.com/OpenZeppelin/openzeppelin-contracts/blob/release-v4.7/contracts/token/ERC20/ERC20.sol\":11120:11128  _approve */\n      tag_116\n        /* \"https://github.com/OpenZeppelin/openzeppelin-contracts/blob/release-v4.7/contracts/token/ERC20/ERC20.sol\":11120:11171  _approve(owner, spender, currentAllowance - amount) */\n      jump\t// in\n    tag_213:\n        /* \"https://github.com/OpenZeppelin/openzeppelin-contracts/blob/release-v4.7/contracts/token/ERC20/ERC20.sol\":10953:11196  if (currentAllowance != type(uint256).max) {... */\n    tag_209:\n        /* \"https://github.com/OpenZeppelin/openzeppelin-contracts/blob/release-v4.7/contracts/token/ERC20/ERC20.sol\":10881:11202  {... */\n      pop\n        /* \"https://github.com/OpenZeppelin/openzeppelin-contracts/blob/release-v4.7/contracts/token/ERC20/ERC20.sol\":10761:11202  function _spendAllowance(... */\n      pop\n      pop\n      pop\n      jump\t// out\n        /* \"https://github.com/OpenZeppelin/openzeppelin-contracts/blob/release-v4.7/contracts/token/ERC20/ERC20.sol\":7475:8126  function _transfer(... */\n    tag_123:\n        /* \"https://github.com/OpenZeppelin/openzeppelin-contracts/blob/release-v4.7/contracts/token/ERC20/ERC20.sol\":7617:7618  0 */\n      0x00\n        /* \"https://github.com/OpenZeppelin/openzeppelin-contracts/blob/release-v4.7/contracts/token/ERC20/ERC20.sol\":7601:7619  from != address(0) */\n      0xffffffffffffffffffffffffffffffffffffffff\n      and\n        /* \"https://github.com/OpenZeppelin/openzeppelin-contracts/blob/release-v4.7/contracts/token/ERC20/ERC20.sol\":7601:7605  from */\n      dup4\n        /* \"https://github.com/OpenZeppelin/openzeppelin-contracts/blob/release-v4.7/contracts/token/ERC20/ERC20.sol\":7601:7619  from != address(0) */\n      0xffffffffffffffffffffffffffffffffffffffff\n      and\n      sub\n        /* \"https://github.com/OpenZeppelin/openzeppelin-contracts/blob/release-v4.7/contracts/token/ERC20/ERC20.sol\":7593:7661  require(from != address(0), \"ERC20: transfer from the zero address\") */\n      tag_215\n      jumpi\n      mload(0x40)\n      0x08c379a000000000000000000000000000000000000000000000000000000000\n      dup2\n      mstore\n      0x04\n      add\n      tag_216\n      swap1\n      tag_217\n      jump\t// in\n    tag_216:\n      mload(0x40)\n      dup1\n      swap2\n      sub\n      swap1\n      revert\n    tag_215:\n        /* \"https://github.com/OpenZeppelin/openzeppelin-contracts/blob/release-v4.7/contracts/token/ERC20/ERC20.sol\":7693:7694  0 */\n      0x00\n        /* \"https://github.com/OpenZeppelin/openzeppelin-contracts/blob/release-v4.7/contracts/token/ERC20/ERC20.sol\":7679:7695  to != address(0) */\n      0xffffffffffffffffffffffffffffffffffffffff\n      and\n        /* \"https://github.com/OpenZeppelin/openzeppelin-contracts/blob/release-v4.7/contracts/token/ERC20/ERC20.sol\":7679:7681  to */\n      dup3\n        /* \"https://github.com/OpenZeppelin/openzeppelin-contracts/blob/release-v4.7/contracts/token/ERC20/ERC20.sol\":7679:7695  to != address(0) */\n      0xffffffffffffffffffffffffffffffffffffffff\n      and\n      sub\n        /* \"https://github.com/OpenZeppelin/openzeppelin-contracts/blob/release-v4.7/contracts/token/ERC20/ERC20.sol\":7671:7735  require(to != address(0), \"ERC20: transfer to the zero address\") */\n      tag_218\n      jumpi\n      mload(0x40)\n      0x08c379a000000000000000000000000000000000000000000000000000000000\n      dup2\n      mstore\n      0x04\n      add\n      tag_219\n      swap1\n      tag_220\n      jump\t// in\n    tag_219:\n      mload(0x40)\n      dup1\n      swap2\n      sub\n      swap1\n      revert\n    tag_218:\n        /* \"https://github.com/OpenZeppelin/openzeppelin-contracts/blob/release-v4.7/contracts/token/ERC20/ERC20.sol\":7746:7784  _beforeTokenTransfer(from, to, amount) */\n      tag_221\n        /* \"https://github.com/OpenZeppelin/openzeppelin-contracts/blob/release-v4.7/contracts/token/ERC20/ERC20.sol\":7767:7771  from */\n      dup4\n        /* \"https://github.com/OpenZeppelin/openzeppelin-contracts/blob/release-v4.7/contracts/token/ERC20/ERC20.sol\":7773:7775  to */\n      dup4\n        /* \"https://github.com/OpenZeppelin/openzeppelin-contracts/blob/release-v4.7/contracts/token/ERC20/ERC20.sol\":7777:7783  amount */\n      dup4\n        /* \"https://github.com/OpenZeppelin/openzeppelin-contracts/blob/release-v4.7/contracts/token/ERC20/ERC20.sol\":7746:7766  _beforeTokenTransfer */\n      tag_222\n        /* \"https://github.com/OpenZeppelin/openzeppelin-contracts/blob/release-v4.7/contracts/token/ERC20/ERC20.sol\":7746:7784  _beforeTokenTransfer(from, to, amount) */\n      jump\t// in\n    tag_221:\n        /* \"https://github.com/OpenZeppelin/openzeppelin-contracts/blob/release-v4.7/contracts/token/ERC20/ERC20.sol\":7795:7814  uint256 fromBalance */\n      0x00\n        /* \"https://github.com/OpenZeppelin/openzeppelin-contracts/blob/release-v4.7/contracts/token/ERC20/ERC20.sol\":7817:7826  _balances */\n      dup1\n        /* \"https://github.com/OpenZeppelin/openzeppelin-contracts/blob/release-v4.7/contracts/token/ERC20/ERC20.sol\":7817:7832  _balances[from] */\n      0x00\n        /* \"https://github.com/OpenZeppelin/openzeppelin-contracts/blob/release-v4.7/contracts/token/ERC20/ERC20.sol\":7827:7831  from */\n      dup6\n        /* \"https://github.com/OpenZeppelin/openzeppelin-contracts/blob/release-v4.7/contracts/token/ERC20/ERC20.sol\":7817:7832  _balances[from] */\n      0xffffffffffffffffffffffffffffffffffffffff\n      and\n      0xffffffffffffffffffffffffffffffffffffffff\n      and\n      dup2\n      mstore\n      0x20\n      add\n      swap1\n      dup2\n      mstore\n      0x20\n      add\n      0x00\n      keccak256\n      sload\n        /* \"https://github.com/OpenZeppelin/openzeppelin-contracts/blob/release-v4.7/contracts/token/ERC20/ERC20.sol\":7795:7832  uint256 fromBalance = _balances[from] */\n      swap1\n      pop\n        /* \"https://github.com/OpenZeppelin/openzeppelin-contracts/blob/release-v4.7/contracts/token/ERC20/ERC20.sol\":7865:7871  amount */\n      dup2\n        /* \"https://github.com/OpenZeppelin/openzeppelin-contracts/blob/release-v4.7/contracts/token/ERC20/ERC20.sol\":7850:7861  fromBalance */\n      dup2\n        /* \"https://github.com/OpenZeppelin/openzeppelin-contracts/blob/release-v4.7/contracts/token/ERC20/ERC20.sol\":7850:7871  fromBalance >= amount */\n      lt\n      iszero\n        /* \"https://github.com/OpenZeppelin/openzeppelin-contracts/blob/release-v4.7/contracts/token/ERC20/ERC20.sol\":7842:7914  require(fromBalance >= amount, \"ERC20: transfer amount exceeds balance\") */\n      tag_223\n      jumpi\n      mload(0x40)\n      0x08c379a000000000000000000000000000000000000000000000000000000000\n      dup2\n      mstore\n      0x04\n      add\n      tag_224\n      swap1\n      tag_225\n      jump\t// in\n    tag_224:\n      mload(0x40)\n      dup1\n      swap2\n      sub\n      swap1\n      revert\n    tag_223:\n        /* \"https://github.com/OpenZeppelin/openzeppelin-contracts/blob/release-v4.7/contracts/token/ERC20/ERC20.sol\":7980:7986  amount */\n      dup2\n        /* \"https://github.com/OpenZeppelin/openzeppelin-contracts/blob/release-v4.7/contracts/token/ERC20/ERC20.sol\":7966:7977  fromBalance */\n      dup2\n        /* \"https://github.com/OpenZeppelin/openzeppelin-contracts/blob/release-v4.7/contracts/token/ERC20/ERC20.sol\":7966:7986  fromBalance - amount */\n      sub\n        /* \"https://github.com/OpenZeppelin/openzeppelin-contracts/blob/release-v4.7/contracts/token/ERC20/ERC20.sol\":7948:7957  _balances */\n      0x00\n        /* \"https://github.com/OpenZeppelin/openzeppelin-contracts/blob/release-v4.7/contracts/token/ERC20/ERC20.sol\":7948:7963  _balances[from] */\n      dup1\n        /* \"https://github.com/OpenZeppelin/openzeppelin-contracts/blob/release-v4.7/contracts/token/ERC20/ERC20.sol\":7958:7962  from */\n      dup7\n        /* \"https://github.com/OpenZeppelin/openzeppelin-contracts/blob/release-v4.7/contracts/token/ERC20/ERC20.sol\":7948:7963  _balances[from] */\n      0xffffffffffffffffffffffffffffffffffffffff\n      and\n      0xffffffffffffffffffffffffffffffffffffffff\n      and\n      dup2\n      mstore\n      0x20\n      add\n      swap1\n      dup2\n      mstore\n      0x20\n      add\n      0x00\n      keccak256\n        /* \"https://github.com/OpenZeppelin/openzeppelin-contracts/blob/release-v4.7/contracts/token/ERC20/ERC20.sol\":7948:7986  _balances[from] = fromBalance - amount */\n      dup2\n      swap1\n      sstore\n      pop\n        /* \"https://github.com/OpenZeppelin/openzeppelin-contracts/blob/release-v4.7/contracts/token/ERC20/ERC20.sol\":8023:8029  amount */\n      dup2\n        /* \"https://github.com/OpenZeppelin/openzeppelin-contracts/blob/release-v4.7/contracts/token/ERC20/ERC20.sol\":8006:8015  _balances */\n      0x00\n        /* \"https://github.com/OpenZeppelin/openzeppelin-contracts/blob/release-v4.7/contracts/token/ERC20/ERC20.sol\":8006:8019  _balances[to] */\n      dup1\n        /* \"https://github.com/OpenZeppelin/openzeppelin-contracts/blob/release-v4.7/contracts/token/ERC20/ERC20.sol\":8016:8018  to */\n      dup6\n        /* \"https://github.com/OpenZeppelin/openzeppelin-contracts/blob/release-v4.7/contracts/token/ERC20/ERC20.sol\":8006:8019  _balances[to] */\n      0xffffffffffffffffffffffffffffffffffffffff\n      and\n      0xffffffffffffffffffffffffffffffffffffffff\n      and\n      dup2\n      mstore\n      0x20\n      add\n      swap1\n      dup2\n      mstore\n      0x20\n      add\n      0x00\n      keccak256\n      0x00\n        /* \"https://github.com/OpenZeppelin/openzeppelin-contracts/blob/release-v4.7/contracts/token/ERC20/ERC20.sol\":8006:8029  _balances[to] += amount */\n      dup3\n      dup3\n      sload\n      tag_226\n      swap2\n      swap1\n      tag_133\n      jump\t// in\n    tag_226:\n      swap3\n      pop\n      pop\n      dup2\n      swap1\n      sstore\n      pop\n        /* \"https://github.com/OpenZeppelin/openzeppelin-contracts/blob/release-v4.7/contracts/token/ERC20/ERC20.sol\":8060:8062  to */\n      dup3\n        /* \"https://github.com/OpenZeppelin/openzeppelin-contracts/blob/release-v4.7/contracts/token/ERC20/ERC20.sol\":8045:8071  Transfer(from, to, amount) */\n      0xffffffffffffffffffffffffffffffffffffffff\n      and\n        /* \"https://github.com/OpenZeppelin/openzeppelin-contracts/blob/release-v4.7/contracts/token/ERC20/ERC20.sol\":8054:8058  from */\n      dup5\n        /* \"https://github.com/OpenZeppelin/openzeppelin-contracts/blob/release-v4.7/contracts/token/ERC20/ERC20.sol\":8045:8071  Transfer(from, to, amount) */\n      0xffffffffffffffffffffffffffffffffffffffff\n      and\n      0xddf252ad1be2c89b69c2b068fc378daa952ba7f163c4a11628f55a4df523b3ef\n        /* \"https://github.com/OpenZeppelin/openzeppelin-contracts/blob/release-v4.7/contracts/token/ERC20/ERC20.sol\":8064:8070  amount */\n      dup5\n        /* \"https://github.com/OpenZeppelin/openzeppelin-contracts/blob/release-v4.7/contracts/token/ERC20/ERC20.sol\":8045:8071  Transfer(from, to, amount) */\n      mload(0x40)\n      tag_227\n      swap2\n      swap1\n      tag_39\n      jump\t// in\n    tag_227:\n      mload(0x40)\n      dup1\n      swap2\n      sub\n      swap1\n      log3\n        /* \"https://github.com/OpenZeppelin/openzeppelin-contracts/blob/release-v4.7/contracts/token/ERC20/ERC20.sol\":8082:8119  _afterTokenTransfer(from, to, amount) */\n      tag_228\n        /* \"https://github.com/OpenZeppelin/openzeppelin-contracts/blob/release-v4.7/contracts/token/ERC20/ERC20.sol\":8102:8106  from */\n      dup5\n        /* \"https://github.com/OpenZeppelin/openzeppelin-contracts/blob/release-v4.7/contracts/token/ERC20/ERC20.sol\":8108:8110  to */\n      dup5\n        /* \"https://github.com/OpenZeppelin/openzeppelin-contracts/blob/release-v4.7/contracts/token/ERC20/ERC20.sol\":8112:8118  amount */\n      dup5\n        /* \"https://github.com/OpenZeppelin/openzeppelin-contracts/blob/release-v4.7/contracts/token/ERC20/ERC20.sol\":8082:8101  _afterTokenTransfer */\n      tag_229\n        /* \"https://github.com/OpenZeppelin/openzeppelin-contracts/blob/release-v4.7/contracts/token/ERC20/ERC20.sol\":8082:8119  _afterTokenTransfer(from, to, amount) */\n      jump\t// in\n    tag_228:\n        /* \"https://github.com/OpenZeppelin/openzeppelin-contracts/blob/release-v4.7/contracts/token/ERC20/ERC20.sol\":7583:8126  {... */\n      pop\n        /* \"https://github.com/OpenZeppelin/openzeppelin-contracts/blob/release-v4.7/contracts/token/ERC20/ERC20.sol\":7475:8126  function _transfer(... */\n      pop\n      pop\n      pop\n      jump\t// out\n        /* \"https://github.com/OpenZeppelin/openzeppelin-contracts/blob/release-v4.7/contracts/utils/cryptography/draft-EIP712.sol\":3143:3451  function _domainSeparatorV4() internal view returns (bytes32) {... */\n    tag_127:\n        /* \"https://github.com/OpenZeppelin/openzeppelin-contracts/blob/release-v4.7/contracts/utils/cryptography/draft-EIP712.sol\":3196:3203  bytes32 */\n      0x00\n        /* \"https://github.com/OpenZeppelin/openzeppelin-contracts/blob/release-v4.7/contracts/utils/cryptography/draft-EIP712.sol\":3236:3248  _CACHED_THIS */\n      immutable(\"0xdd8b51ee9128c681fbd81845dd6426716fdc986a3bb51fedf5af16f35ac2adb3\")\n        /* \"https://github.com/OpenZeppelin/openzeppelin-contracts/blob/release-v4.7/contracts/utils/cryptography/draft-EIP712.sol\":3219:3248  address(this) == _CACHED_THIS */\n      0xffffffffffffffffffffffffffffffffffffffff\n      and\n        /* \"https://github.com/OpenZeppelin/openzeppelin-contracts/blob/release-v4.7/contracts/utils/cryptography/draft-EIP712.sol\":3227:3231  this */\n      address\n        /* \"https://github.com/OpenZeppelin/openzeppelin-contracts/blob/release-v4.7/contracts/utils/cryptography/draft-EIP712.sol\":3219:3248  address(this) == _CACHED_THIS */\n      0xffffffffffffffffffffffffffffffffffffffff\n      and\n      eq\n        /* \"https://github.com/OpenZeppelin/openzeppelin-contracts/blob/release-v4.7/contracts/utils/cryptography/draft-EIP712.sol\":3219:3285  address(this) == _CACHED_THIS && block.chainid == _CACHED_CHAIN_ID */\n      dup1\n      iszero\n      tag_231\n      jumpi\n      pop\n        /* \"https://github.com/OpenZeppelin/openzeppelin-contracts/blob/release-v4.7/contracts/utils/cryptography/draft-EIP712.sol\":3269:3285  _CACHED_CHAIN_ID */\n      immutable(\"0x03bb33715397e0038c873ba02d4426eebb2b65cc3940a0fa71a481a9b37d980d\")\n        /* \"https://github.com/OpenZeppelin/openzeppelin-contracts/blob/release-v4.7/contracts/utils/cryptography/draft-EIP712.sol\":3252:3265  block.chainid */\n      chainid\n        /* \"https://github.com/OpenZeppelin/openzeppelin-contracts/blob/release-v4.7/contracts/utils/cryptography/draft-EIP712.sol\":3252:3285  block.chainid == _CACHED_CHAIN_ID */\n      eq\n        /* \"https://github.com/OpenZeppelin/openzeppelin-contracts/blob/release-v4.7/contracts/utils/cryptography/draft-EIP712.sol\":3219:3285  address(this) == _CACHED_THIS && block.chainid == _CACHED_CHAIN_ID */\n    tag_231:\n        /* \"https://github.com/OpenZeppelin/openzeppelin-contracts/blob/release-v4.7/contracts/utils/cryptography/draft-EIP712.sol\":3215:3445  if (address(this) == _CACHED_THIS && block.chainid == _CACHED_CHAIN_ID) {... */\n      iszero\n      tag_232\n      jumpi\n        /* \"https://github.com/OpenZeppelin/openzeppelin-contracts/blob/release-v4.7/contracts/utils/cryptography/draft-EIP712.sol\":3308:3332  _CACHED_DOMAIN_SEPARATOR */\n      immutable(\"0xbe147d0aaf628bab5d3600ba0e8222c4d7f0eec30321d0b98d9f641634fbb471\")\n        /* \"https://github.com/OpenZeppelin/openzeppelin-contracts/blob/release-v4.7/contracts/utils/cryptography/draft-EIP712.sol\":3301:3332  return _CACHED_DOMAIN_SEPARATOR */\n      swap1\n      pop\n      jump(tag_230)\n        /* \"https://github.com/OpenZeppelin/openzeppelin-contracts/blob/release-v4.7/contracts/utils/cryptography/draft-EIP712.sol\":3215:3445  if (address(this) == _CACHED_THIS && block.chainid == _CACHED_CHAIN_ID) {... */\n    tag_232:\n        /* \"https://github.com/OpenZeppelin/openzeppelin-contracts/blob/release-v4.7/contracts/utils/cryptography/draft-EIP712.sol\":3370:3434  _buildDomainSeparator(_TYPE_HASH, _HASHED_NAME, _HASHED_VERSION) */\n      tag_234\n        /* \"https://github.com/OpenZeppelin/openzeppelin-contracts/blob/release-v4.7/contracts/utils/cryptography/draft-EIP712.sol\":3392:3402  _TYPE_HASH */\n      immutable(\"0x5068223bf0059dbff685a838be8378267de67db8c0da432de81984f3106284ba\")\n        /* \"https://github.com/OpenZeppelin/openzeppelin-contracts/blob/release-v4.7/contracts/utils/cryptography/draft-EIP712.sol\":3404:3416  _HASHED_NAME */\n      immutable(\"0x5a51cac41fe69f71b7795862cc646f7451dfff9d51b9de6ea410fc434c56d513\")\n        /* \"https://github.com/OpenZeppelin/openzeppelin-contracts/blob/release-v4.7/contracts/utils/cryptography/draft-EIP712.sol\":3418:3433  _HASHED_VERSION */\n      immutable(\"0x2321737a770ac7c3c2f3272e7c50477ab175011586b4ba3db2040d1f9e9891e0\")\n        /* \"https://github.com/OpenZeppelin/openzeppelin-contracts/blob/release-v4.7/contracts/utils/cryptography/draft-EIP712.sol\":3370:3391  _buildDomainSeparator */\n      tag_235\n        /* \"https://github.com/OpenZeppelin/openzeppelin-contracts/blob/release-v4.7/contracts/utils/cryptography/draft-EIP712.sol\":3370:3434  _buildDomainSeparator(_TYPE_HASH, _HASHED_NAME, _HASHED_VERSION) */\n      jump\t// in\n    tag_234:\n        /* \"https://github.com/OpenZeppelin/openzeppelin-contracts/blob/release-v4.7/contracts/utils/cryptography/draft-EIP712.sol\":3363:3434  return _buildDomainSeparator(_TYPE_HASH, _HASHED_NAME, _HASHED_VERSION) */\n      swap1\n      pop\n        /* \"https://github.com/OpenZeppelin/openzeppelin-contracts/blob/release-v4.7/contracts/utils/cryptography/draft-EIP712.sol\":3143:3451  function _domainSeparatorV4() internal view returns (bytes32) {... */\n    tag_230:\n      swap1\n      jump\t// out\n        /* \"https://github.com/OpenZeppelin/openzeppelin-contracts/blob/release-v4.7/contracts/access/Ownable.sol\":1359:1489  function _checkOwner() internal view virtual {... */\n    tag_136:\n        /* \"https://github.com/OpenZeppelin/openzeppelin-contracts/blob/release-v4.7/contracts/access/Ownable.sol\":1433:1445  _msgSender() */\n      tag_237\n        /* \"https://github.com/OpenZeppelin/openzeppelin-contracts/blob/release-v4.7/contracts/access/Ownable.sol\":1433:1443  _msgSender */\n      tag_114\n        /* \"https://github.com/OpenZeppelin/openzeppelin-contracts/blob/release-v4.7/contracts/access/Ownable.sol\":1433:1445  _msgSender() */\n      jump\t// in\n    tag_237:\n        /* \"https://github.com/OpenZeppelin/openzeppelin-contracts/blob/release-v4.7/contracts/access/Ownable.sol\":1422:1445  owner() == _msgSender() */\n      0xffffffffffffffffffffffffffffffffffffffff\n      and\n        /* \"https://github.com/OpenZeppelin/openzeppelin-contracts/blob/release-v4.7/contracts/access/Ownable.sol\":1422:1429  owner() */\n      tag_238\n        /* \"https://github.com/OpenZeppelin/openzeppelin-contracts/blob/release-v4.7/contracts/access/Ownable.sol\":1422:1427  owner */\n      tag_79\n        /* \"https://github.com/OpenZeppelin/openzeppelin-contracts/blob/release-v4.7/contracts/access/Ownable.sol\":1422:1429  owner() */\n      jump\t// in\n    tag_238:\n        /* \"https://github.com/OpenZeppelin/openzeppelin-contracts/blob/release-v4.7/contracts/access/Ownable.sol\":1422:1445  owner() == _msgSender() */\n      0xffffffffffffffffffffffffffffffffffffffff\n      and\n      eq\n        /* \"https://github.com/OpenZeppelin/openzeppelin-contracts/blob/release-v4.7/contracts/access/Ownable.sol\":1414:1482  require(owner() == _msgSender(), \"Ownable: caller is not the owner\") */\n      tag_239\n      jumpi\n      mload(0x40)\n      0x08c379a000000000000000000000000000000000000000000000000000000000\n      dup2\n      mstore\n      0x04\n      add\n      tag_240\n      swap1\n      tag_241\n      jump\t// in\n    tag_240:\n      mload(0x40)\n      dup1\n      swap2\n      sub\n      swap1\n      revert\n    tag_239:\n        /* \"https://github.com/OpenZeppelin/openzeppelin-contracts/blob/release-v4.7/contracts/access/Ownable.sol\":1359:1489  function _checkOwner() internal view virtual {... */\n      jump\t// out\n        /* \"https://github.com/OpenZeppelin/openzeppelin-contracts/blob/release-v4.7/contracts/token/ERC20/ERC20.sol\":8402:8791  function _mint(address account, uint256 amount) internal virtual {... */\n    tag_139:\n        /* \"https://github.com/OpenZeppelin/openzeppelin-contracts/blob/release-v4.7/contracts/token/ERC20/ERC20.sol\":8504:8505  0 */\n      0x00\n        /* \"https://github.com/OpenZeppelin/openzeppelin-contracts/blob/release-v4.7/contracts/token/ERC20/ERC20.sol\":8485:8506  account != address(0) */\n      0xffffffffffffffffffffffffffffffffffffffff\n      and\n        /* \"https://github.com/OpenZeppelin/openzeppelin-contracts/blob/release-v4.7/contracts/token/ERC20/ERC20.sol\":8485:8492  account */\n      dup3\n        /* \"https://github.com/OpenZeppelin/openzeppelin-contracts/blob/release-v4.7/contracts/token/ERC20/ERC20.sol\":8485:8506  account != address(0) */\n      0xffffffffffffffffffffffffffffffffffffffff\n      and\n      sub\n        /* \"https://github.com/OpenZeppelin/openzeppelin-contracts/blob/release-v4.7/contracts/token/ERC20/ERC20.sol\":8477:8542  require(account != address(0), \"ERC20: mint to the zero address\") */\n      tag_243\n      jumpi\n      mload(0x40)\n      0x08c379a000000000000000000000000000000000000000000000000000000000\n      dup2\n      mstore\n      0x04\n      add\n      tag_244\n      swap1\n      tag_245\n      jump\t// in\n    tag_244:\n      mload(0x40)\n      dup1\n      swap2\n      sub\n      swap1\n      revert\n    tag_243:\n        /* \"https://github.com/OpenZeppelin/openzeppelin-contracts/blob/release-v4.7/contracts/token/ERC20/ERC20.sol\":8553:8602  _beforeTokenTransfer(address(0), account, amount) */\n      tag_246\n        /* \"https://github.com/OpenZeppelin/openzeppelin-contracts/blob/release-v4.7/contracts/token/ERC20/ERC20.sol\":8582:8583  0 */\n      0x00\n        /* \"https://github.com/OpenZeppelin/openzeppelin-contracts/blob/release-v4.7/contracts/token/ERC20/ERC20.sol\":8586:8593  account */\n      dup4\n        /* \"https://github.com/OpenZeppelin/openzeppelin-contracts/blob/release-v4.7/contracts/token/ERC20/ERC20.sol\":8595:8601  amount */\n      dup4\n        /* \"https://github.com/OpenZeppelin/openzeppelin-contracts/blob/release-v4.7/contracts/token/ERC20/ERC20.sol\":8553:8573  _beforeTokenTransfer */\n      tag_222\n        /* \"https://github.com/OpenZeppelin/openzeppelin-contracts/blob/release-v4.7/contracts/token/ERC20/ERC20.sol\":8553:8602  _beforeTokenTransfer(address(0), account, amount) */\n      jump\t// in\n    tag_246:\n        /* \"https://github.com/OpenZeppelin/openzeppelin-contracts/blob/release-v4.7/contracts/token/ERC20/ERC20.sol\":8629:8635  amount */\n      dup1\n        /* \"https://github.com/OpenZeppelin/openzeppelin-contracts/blob/release-v4.7/contracts/token/ERC20/ERC20.sol\":8613:8625  _totalSupply */\n      0x02\n      0x00\n        /* \"https://github.com/OpenZeppelin/openzeppelin-contracts/blob/release-v4.7/contracts/token/ERC20/ERC20.sol\":8613:8635  _totalSupply += amount */\n      dup3\n      dup3\n      sload\n      tag_247\n      swap2\n      swap1\n      tag_133\n      jump\t// in\n    tag_247:\n      swap3\n      pop\n      pop\n      dup2\n      swap1\n      sstore\n      pop\n        /* \"https://github.com/OpenZeppelin/openzeppelin-contracts/blob/release-v4.7/contracts/token/ERC20/ERC20.sol\":8667:8673  amount */\n      dup1\n        /* \"https://github.com/OpenZeppelin/openzeppelin-contracts/blob/release-v4.7/contracts/token/ERC20/ERC20.sol\":8645:8654  _balances */\n      0x00\n        /* \"https://github.com/OpenZeppelin/openzeppelin-contracts/blob/release-v4.7/contracts/token/ERC20/ERC20.sol\":8645:8663  _balances[account] */\n      dup1\n        /* \"https://github.com/OpenZeppelin/openzeppelin-contracts/blob/release-v4.7/contracts/token/ERC20/ERC20.sol\":8655:8662  account */\n      dup5\n        /* \"https://github.com/OpenZeppelin/openzeppelin-contracts/blob/release-v4.7/contracts/token/ERC20/ERC20.sol\":8645:8663  _balances[account] */\n      0xffffffffffffffffffffffffffffffffffffffff\n      and\n      0xffffffffffffffffffffffffffffffffffffffff\n      and\n      dup2\n      mstore\n      0x20\n      add\n      swap1\n      dup2\n      mstore\n      0x20\n      add\n      0x00\n      keccak256\n      0x00\n        /* \"https://github.com/OpenZeppelin/openzeppelin-contracts/blob/release-v4.7/contracts/token/ERC20/ERC20.sol\":8645:8673  _balances[account] += amount */\n      dup3\n      dup3\n      sload\n      tag_248\n      swap2\n      swap1\n      tag_133\n      jump\t// in\n    tag_248:\n      swap3\n      pop\n      pop\n      dup2\n      swap1\n      sstore\n      pop\n        /* \"https://github.com/OpenZeppelin/openzeppelin-contracts/blob/release-v4.7/contracts/token/ERC20/ERC20.sol\":8709:8716  account */\n      dup2\n        /* \"https://github.com/OpenZeppelin/openzeppelin-contracts/blob/release-v4.7/contracts/token/ERC20/ERC20.sol\":8688:8725  Transfer(address(0), account, amount) */\n      0xffffffffffffffffffffffffffffffffffffffff\n      and\n        /* \"https://github.com/OpenZeppelin/openzeppelin-contracts/blob/release-v4.7/contracts/token/ERC20/ERC20.sol\":8705:8706  0 */\n      0x00\n        /* \"https://github.com/OpenZeppelin/openzeppelin-contracts/blob/release-v4.7/contracts/token/ERC20/ERC20.sol\":8688:8725  Transfer(address(0), account, amount) */\n      0xffffffffffffffffffffffffffffffffffffffff\n      and\n      0xddf252ad1be2c89b69c2b068fc378daa952ba7f163c4a11628f55a4df523b3ef\n        /* \"https://github.com/OpenZeppelin/openzeppelin-contracts/blob/release-v4.7/contracts/token/ERC20/ERC20.sol\":8718:8724  amount */\n      dup4\n        /* \"https://github.com/OpenZeppelin/openzeppelin-contracts/blob/release-v4.7/contracts/token/ERC20/ERC20.sol\":8688:8725  Transfer(address(0), account, amount) */\n      mload(0x40)\n      tag_249\n      swap2\n      swap1\n      tag_39\n      jump\t// in\n    tag_249:\n      mload(0x40)\n      dup1\n      swap2\n      sub\n      swap1\n      log3\n        /* \"https://github.com/OpenZeppelin/openzeppelin-contracts/blob/release-v4.7/contracts/token/ERC20/ERC20.sol\":8736:8784  _afterTokenTransfer(address(0), account, amount) */\n      tag_250\n        /* \"https://github.com/OpenZeppelin/openzeppelin-contracts/blob/release-v4.7/contracts/token/ERC20/ERC20.sol\":8764:8765  0 */\n      0x00\n        /* \"https://github.com/OpenZeppelin/openzeppelin-contracts/blob/release-v4.7/contracts/token/ERC20/ERC20.sol\":8768:8775  account */\n      dup4\n        /* \"https://github.com/OpenZeppelin/openzeppelin-contracts/blob/release-v4.7/contracts/token/ERC20/ERC20.sol\":8777:8783  amount */\n      dup4\n        /* \"https://github.com/OpenZeppelin/openzeppelin-contracts/blob/release-v4.7/contracts/token/ERC20/ERC20.sol\":8736:8755  _afterTokenTransfer */\n      tag_229\n        /* \"https://github.com/OpenZeppelin/openzeppelin-contracts/blob/release-v4.7/contracts/token/ERC20/ERC20.sol\":8736:8784  _afterTokenTransfer(address(0), account, amount) */\n      jump\t// in\n    tag_250:\n        /* \"https://github.com/OpenZeppelin/openzeppelin-contracts/blob/release-v4.7/contracts/token/ERC20/ERC20.sol\":8402:8791  function _mint(address account, uint256 amount) internal virtual {... */\n      pop\n      pop\n      jump\t// out\n        /* \"https://github.com/OpenZeppelin/openzeppelin-contracts/blob/release-v4.7/contracts/token/ERC20/ERC20.sol\":9111:9687  function _burn(address account, uint256 amount) internal virtual {... */\n    tag_143:\n        /* \"https://github.com/OpenZeppelin/openzeppelin-contracts/blob/release-v4.7/contracts/token/ERC20/ERC20.sol\":9213:9214  0 */\n      0x00\n        /* \"https://github.com/OpenZeppelin/openzeppelin-contracts/blob/release-v4.7/contracts/token/ERC20/ERC20.sol\":9194:9215  account != address(0) */\n      0xffffffffffffffffffffffffffffffffffffffff\n      and\n        /* \"https://github.com/OpenZeppelin/openzeppelin-contracts/blob/release-v4.7/contracts/token/ERC20/ERC20.sol\":9194:9201  account */\n      dup3\n        /* \"https://github.com/OpenZeppelin/openzeppelin-contracts/blob/release-v4.7/contracts/token/ERC20/ERC20.sol\":9194:9215  account != address(0) */\n      0xffffffffffffffffffffffffffffffffffffffff\n      and\n      sub\n        /* \"https://github.com/OpenZeppelin/openzeppelin-contracts/blob/release-v4.7/contracts/token/ERC20/ERC20.sol\":9186:9253  require(account != address(0), \"ERC20: burn from the zero address\") */\n      tag_252\n      jumpi\n      mload(0x40)\n      0x08c379a000000000000000000000000000000000000000000000000000000000\n      dup2\n      mstore\n      0x04\n      add\n      tag_253\n      swap1\n      tag_254\n      jump\t// in\n    tag_253:\n      mload(0x40)\n      dup1\n      swap2\n      sub\n      swap1\n      revert\n    tag_252:\n        /* \"https://github.com/OpenZeppelin/openzeppelin-contracts/blob/release-v4.7/contracts/token/ERC20/ERC20.sol\":9264:9313  _beforeTokenTransfer(account, address(0), amount) */\n      tag_255\n        /* \"https://github.com/OpenZeppelin/openzeppelin-contracts/blob/release-v4.7/contracts/token/ERC20/ERC20.sol\":9285:9292  account */\n      dup3\n        /* \"https://github.com/OpenZeppelin/openzeppelin-contracts/blob/release-v4.7/contracts/token/ERC20/ERC20.sol\":9302:9303  0 */\n      0x00\n        /* \"https://github.com/OpenZeppelin/openzeppelin-contracts/blob/release-v4.7/contracts/token/ERC20/ERC20.sol\":9306:9312  amount */\n      dup4\n        /* \"https://github.com/OpenZeppelin/openzeppelin-contracts/blob/release-v4.7/contracts/token/ERC20/ERC20.sol\":9264:9284  _beforeTokenTransfer */\n      tag_222\n        /* \"https://github.com/OpenZeppelin/openzeppelin-contracts/blob/release-v4.7/contracts/token/ERC20/ERC20.sol\":9264:9313  _beforeTokenTransfer(account, address(0), amount) */\n      jump\t// in\n    tag_255:\n        /* \"https://github.com/OpenZeppelin/openzeppelin-contracts/blob/release-v4.7/contracts/token/ERC20/ERC20.sol\":9324:9346  uint256 accountBalance */\n      0x00\n        /* \"https://github.com/OpenZeppelin/openzeppelin-contracts/blob/release-v4.7/contracts/token/ERC20/ERC20.sol\":9349:9358  _balances */\n      dup1\n        /* \"https://github.com/OpenZeppelin/openzeppelin-contracts/blob/release-v4.7/contracts/token/ERC20/ERC20.sol\":9349:9367  _balances[account] */\n      0x00\n        /* \"https://github.com/OpenZeppelin/openzeppelin-contracts/blob/release-v4.7/contracts/token/ERC20/ERC20.sol\":9359:9366  account */\n      dup5\n        /* \"https://github.com/OpenZeppelin/openzeppelin-contracts/blob/release-v4.7/contracts/token/ERC20/ERC20.sol\":9349:9367  _balances[account] */\n      0xffffffffffffffffffffffffffffffffffffffff\n      and\n      0xffffffffffffffffffffffffffffffffffffffff\n      and\n      dup2\n      mstore\n      0x20\n      add\n      swap1\n      dup2\n      mstore\n      0x20\n      add\n      0x00\n      keccak256\n      sload\n        /* \"https://github.com/OpenZeppelin/openzeppelin-contracts/blob/release-v4.7/contracts/token/ERC20/ERC20.sol\":9324:9367  uint256 accountBalance = _balances[account] */\n      swap1\n      pop\n        /* \"https://github.com/OpenZeppelin/openzeppelin-contracts/blob/release-v4.7/contracts/token/ERC20/ERC20.sol\":9403:9409  amount */\n      dup2\n        /* \"https://github.com/OpenZeppelin/openzeppelin-contracts/blob/release-v4.7/contracts/token/ERC20/ERC20.sol\":9385:9399  accountBalance */\n      dup2\n        /* \"https://github.com/OpenZeppelin/openzeppelin-contracts/blob/release-v4.7/contracts/token/ERC20/ERC20.sol\":9385:9409  accountBalance >= amount */\n      lt\n      iszero\n        /* \"https://github.com/OpenZeppelin/openzeppelin-contracts/blob/release-v4.7/contracts/token/ERC20/ERC20.sol\":9377:9448  require(accountBalance >= amount, \"ERC20: burn amount exceeds balance\") */\n      tag_256\n      jumpi\n      mload(0x40)\n      0x08c379a000000000000000000000000000000000000000000000000000000000\n      dup2\n      mstore\n      0x04\n      add\n      tag_257\n      swap1\n      tag_258\n      jump\t// in\n    tag_257:\n      mload(0x40)\n      dup1\n      swap2\n      sub\n      swap1\n      revert\n    tag_256:\n        /* \"https://github.com/OpenZeppelin/openzeppelin-contracts/blob/release-v4.7/contracts/token/ERC20/ERC20.sol\":9520:9526  amount */\n      dup2\n        /* \"https://github.com/OpenZeppelin/openzeppelin-contracts/blob/release-v4.7/contracts/token/ERC20/ERC20.sol\":9503:9517  accountBalance */\n      dup2\n        /* \"https://github.com/OpenZeppelin/openzeppelin-contracts/blob/release-v4.7/contracts/token/ERC20/ERC20.sol\":9503:9526  accountBalance - amount */\n      sub\n        /* \"https://github.com/OpenZeppelin/openzeppelin-contracts/blob/release-v4.7/contracts/token/ERC20/ERC20.sol\":9482:9491  _balances */\n      0x00\n        /* \"https://github.com/OpenZeppelin/openzeppelin-contracts/blob/release-v4.7/contracts/token/ERC20/ERC20.sol\":9482:9500  _balances[account] */\n      dup1\n        /* \"https://github.com/OpenZeppelin/openzeppelin-contracts/blob/release-v4.7/contracts/token/ERC20/ERC20.sol\":9492:9499  account */\n      dup6\n        /* \"https://github.com/OpenZeppelin/openzeppelin-contracts/blob/release-v4.7/contracts/token/ERC20/ERC20.sol\":9482:9500  _balances[account] */\n      0xffffffffffffffffffffffffffffffffffffffff\n      and\n      0xffffffffffffffffffffffffffffffffffffffff\n      and\n      dup2\n      mstore\n      0x20\n      add\n      swap1\n      dup2\n      mstore\n      0x20\n      add\n      0x00\n      keccak256\n        /* \"https://github.com/OpenZeppelin/openzeppelin-contracts/blob/release-v4.7/contracts/token/ERC20/ERC20.sol\":9482:9526  _balances[account] = accountBalance - amount */\n      dup2\n      swap1\n      sstore\n      pop\n        /* \"https://github.com/OpenZeppelin/openzeppelin-contracts/blob/release-v4.7/contracts/token/ERC20/ERC20.sol\":9562:9568  amount */\n      dup2\n        /* \"https://github.com/OpenZeppelin/openzeppelin-contracts/blob/release-v4.7/contracts/token/ERC20/ERC20.sol\":9546:9558  _totalSupply */\n      0x02\n      0x00\n        /* \"https://github.com/OpenZeppelin/openzeppelin-contracts/blob/release-v4.7/contracts/token/ERC20/ERC20.sol\":9546:9568  _totalSupply -= amount */\n      dup3\n      dup3\n      sload\n      tag_259\n      swap2\n      swap1\n      tag_260\n      jump\t// in\n    tag_259:\n      swap3\n      pop\n      pop\n      dup2\n      swap1\n      sstore\n      pop\n        /* \"https://github.com/OpenZeppelin/openzeppelin-contracts/blob/release-v4.7/contracts/token/ERC20/ERC20.sol\":9610:9611  0 */\n      0x00\n        /* \"https://github.com/OpenZeppelin/openzeppelin-contracts/blob/release-v4.7/contracts/token/ERC20/ERC20.sol\":9584:9621  Transfer(account, address(0), amount) */\n      0xffffffffffffffffffffffffffffffffffffffff\n      and\n        /* \"https://github.com/OpenZeppelin/openzeppelin-contracts/blob/release-v4.7/contracts/token/ERC20/ERC20.sol\":9593:9600  account */\n      dup4\n        /* \"https://github.com/OpenZeppelin/openzeppelin-contracts/blob/release-v4.7/contracts/token/ERC20/ERC20.sol\":9584:9621  Transfer(account, address(0), amount) */\n      0xffffffffffffffffffffffffffffffffffffffff\n      and\n      0xddf252ad1be2c89b69c2b068fc378daa952ba7f163c4a11628f55a4df523b3ef\n        /* \"https://github.com/OpenZeppelin/openzeppelin-contracts/blob/release-v4.7/contracts/token/ERC20/ERC20.sol\":9614:9620  amount */\n      dup5\n        /* \"https://github.com/OpenZeppelin/openzeppelin-contracts/blob/release-v4.7/contracts/token/ERC20/ERC20.sol\":9584:9621  Transfer(account, address(0), amount) */\n      mload(0x40)\n      tag_261\n      swap2\n      swap1\n      tag_39\n      jump\t// in\n    tag_261:\n      mload(0x40)\n      dup1\n      swap2\n      sub\n      swap1\n      log3\n        /* \"https://github.com/OpenZeppelin/openzeppelin-contracts/blob/release-v4.7/contracts/token/ERC20/ERC20.sol\":9632:9680  _afterTokenTransfer(account, address(0), amount) */\n      tag_262\n        /* \"https://github.com/OpenZeppelin/openzeppelin-contracts/blob/release-v4.7/contracts/token/ERC20/ERC20.sol\":9652:9659  account */\n      dup4\n        /* \"https://github.com/OpenZeppelin/openzeppelin-contracts/blob/release-v4.7/contracts/token/ERC20/ERC20.sol\":9669:9670  0 */\n      0x00\n        /* \"https://github.com/OpenZeppelin/openzeppelin-contracts/blob/release-v4.7/contracts/token/ERC20/ERC20.sol\":9673:9679  amount */\n      dup5\n        /* \"https://github.com/OpenZeppelin/openzeppelin-contracts/blob/release-v4.7/contracts/token/ERC20/ERC20.sol\":9632:9651  _afterTokenTransfer */\n      tag_229\n        /* \"https://github.com/OpenZeppelin/openzeppelin-contracts/blob/release-v4.7/contracts/token/ERC20/ERC20.sol\":9632:9680  _afterTokenTransfer(account, address(0), amount) */\n      jump\t// in\n    tag_262:\n        /* \"https://github.com/OpenZeppelin/openzeppelin-contracts/blob/release-v4.7/contracts/token/ERC20/ERC20.sol\":9176:9687  {... */\n      pop\n        /* \"https://github.com/OpenZeppelin/openzeppelin-contracts/blob/release-v4.7/contracts/token/ERC20/ERC20.sol\":9111:9687  function _burn(address account, uint256 amount) internal virtual {... */\n      pop\n      pop\n      jump\t// out\n        /* \"https://github.com/OpenZeppelin/openzeppelin-contracts/blob/release-v4.7/contracts/access/Ownable.sol\":2433:2620  function _transferOwnership(address newOwner) internal virtual {... */\n    tag_149:\n        /* \"https://github.com/OpenZeppelin/openzeppelin-contracts/blob/release-v4.7/contracts/access/Ownable.sol\":2506:2522  address oldOwner */\n      0x00\n        /* \"https://github.com/OpenZeppelin/openzeppelin-contracts/blob/release-v4.7/contracts/access/Ownable.sol\":2525:2531  _owner */\n      0x05\n      0x00\n      swap1\n      sload\n      swap1\n      0x0100\n      exp\n      swap1\n      div\n      0xffffffffffffffffffffffffffffffffffffffff\n      and\n        /* \"https://github.com/OpenZeppelin/openzeppelin-contracts/blob/release-v4.7/contracts/access/Ownable.sol\":2506:2531  address oldOwner = _owner */\n      swap1\n      pop\n        /* \"https://github.com/OpenZeppelin/openzeppelin-contracts/blob/release-v4.7/contracts/access/Ownable.sol\":2550:2558  newOwner */\n      dup2\n        /* \"https://github.com/OpenZeppelin/openzeppelin-contracts/blob/release-v4.7/contracts/access/Ownable.sol\":2541:2547  _owner */\n      0x05\n      0x00\n        /* \"https://github.com/OpenZeppelin/openzeppelin-contracts/blob/release-v4.7/contracts/access/Ownable.sol\":2541:2558  _owner = newOwner */\n      0x0100\n      exp\n      dup2\n      sload\n      dup2\n      0xffffffffffffffffffffffffffffffffffffffff\n      mul\n      not\n      and\n      swap1\n      dup4\n      0xffffffffffffffffffffffffffffffffffffffff\n      and\n      mul\n      or\n      swap1\n      sstore\n      pop\n        /* \"https://github.com/OpenZeppelin/openzeppelin-contracts/blob/release-v4.7/contracts/access/Ownable.sol\":2604:2612  newOwner */\n      dup2\n        /* \"https://github.com/OpenZeppelin/openzeppelin-contracts/blob/release-v4.7/contracts/access/Ownable.sol\":2573:2613  OwnershipTransferred(oldOwner, newOwner) */\n      0xffffffffffffffffffffffffffffffffffffffff\n      and\n        /* \"https://github.com/OpenZeppelin/openzeppelin-contracts/blob/release-v4.7/contracts/access/Ownable.sol\":2594:2602  oldOwner */\n      dup2\n        /* \"https://github.com/OpenZeppelin/openzeppelin-contracts/blob/release-v4.7/contracts/access/Ownable.sol\":2573:2613  OwnershipTransferred(oldOwner, newOwner) */\n      0xffffffffffffffffffffffffffffffffffffffff\n      and\n      0x8be0079c531659141344cd1fd0a4f28419497f9722a3daafe3b4186f6b6457e0\n      mload(0x40)\n      mload(0x40)\n      dup1\n      swap2\n      sub\n      swap1\n      log3\n        /* \"https://github.com/OpenZeppelin/openzeppelin-contracts/blob/release-v4.7/contracts/access/Ownable.sol\":2496:2620  {... */\n      pop\n        /* \"https://github.com/OpenZeppelin/openzeppelin-contracts/blob/release-v4.7/contracts/access/Ownable.sol\":2433:2620  function _transferOwnership(address newOwner) internal virtual {... */\n      pop\n      jump\t// out\n        /* \"https://github.com/OpenZeppelin/openzeppelin-contracts/blob/release-v4.7/contracts/utils/Counters.sol\":827:939  function current(Counter storage counter) internal view returns (uint256) {... */\n    tag_156:\n        /* \"https://github.com/OpenZeppelin/openzeppelin-contracts/blob/release-v4.7/contracts/utils/Counters.sol\":892:899  uint256 */\n      0x00\n        /* \"https://github.com/OpenZeppelin/openzeppelin-contracts/blob/release-v4.7/contracts/utils/Counters.sol\":918:925  counter */\n      dup2\n        /* \"https://github.com/OpenZeppelin/openzeppelin-contracts/blob/release-v4.7/contracts/utils/Counters.sol\":918:932  counter._value */\n      0x00\n      add\n      sload\n        /* \"https://github.com/OpenZeppelin/openzeppelin-contracts/blob/release-v4.7/contracts/utils/Counters.sol\":911:932  return counter._value */\n      swap1\n      pop\n        /* \"https://github.com/OpenZeppelin/openzeppelin-contracts/blob/release-v4.7/contracts/utils/Counters.sol\":827:939  function current(Counter storage counter) internal view returns (uint256) {... */\n      swap2\n      swap1\n      pop\n      jump\t// out\n        /* \"https://github.com/OpenZeppelin/openzeppelin-contracts/blob/release-v4.7/contracts/token/ERC20/extensions/draft-ERC20Permit.sol\":3129:3332  function _useNonce(address owner) internal virtual returns (uint256 current) {... */\n    tag_179:\n        /* \"https://github.com/OpenZeppelin/openzeppelin-contracts/blob/release-v4.7/contracts/token/ERC20/extensions/draft-ERC20Permit.sol\":3189:3204  uint256 current */\n      0x00\n        /* \"https://github.com/OpenZeppelin/openzeppelin-contracts/blob/release-v4.7/contracts/token/ERC20/extensions/draft-ERC20Permit.sol\":3216:3246  Counters.Counter storage nonce */\n      dup1\n        /* \"https://github.com/OpenZeppelin/openzeppelin-contracts/blob/release-v4.7/contracts/token/ERC20/extensions/draft-ERC20Permit.sol\":3249:3256  _nonces */\n      0x06\n        /* \"https://github.com/OpenZeppelin/openzeppelin-contracts/blob/release-v4.7/contracts/token/ERC20/extensions/draft-ERC20Permit.sol\":3249:3263  _nonces[owner] */\n      0x00\n        /* \"https://github.com/OpenZeppelin/openzeppelin-contracts/blob/release-v4.7/contracts/token/ERC20/extensions/draft-ERC20Permit.sol\":3257:3262  owner */\n      dup5\n        /* \"https://github.com/OpenZeppelin/openzeppelin-contracts/blob/release-v4.7/contracts/token/ERC20/extensions/draft-ERC20Permit.sol\":3249:3263  _nonces[owner] */\n      0xffffffffffffffffffffffffffffffffffffffff\n      and\n      0xffffffffffffffffffffffffffffffffffffffff\n      and\n      dup2\n      mstore\n      0x20\n      add\n      swap1\n      dup2\n      mstore\n      0x20\n      add\n      0x00\n      keccak256\n        /* \"https://github.com/OpenZeppelin/openzeppelin-contracts/blob/release-v4.7/contracts/token/ERC20/extensions/draft-ERC20Permit.sol\":3216:3263  Counters.Counter storage nonce = _nonces[owner] */\n      swap1\n      pop\n        /* \"https://github.com/OpenZeppelin/openzeppelin-contracts/blob/release-v4.7/contracts/token/ERC20/extensions/draft-ERC20Permit.sol\":3283:3298  nonce.current() */\n      tag_266\n        /* \"https://github.com/OpenZeppelin/openzeppelin-contracts/blob/release-v4.7/contracts/token/ERC20/extensions/draft-ERC20Permit.sol\":3283:3288  nonce */\n      dup2\n        /* \"https://github.com/OpenZeppelin/openzeppelin-contracts/blob/release-v4.7/contracts/token/ERC20/extensions/draft-ERC20Permit.sol\":3283:3296  nonce.current */\n      tag_156\n        /* \"https://github.com/OpenZeppelin/openzeppelin-contracts/blob/release-v4.7/contracts/token/ERC20/extensions/draft-ERC20Permit.sol\":3283:3298  nonce.current() */\n      jump\t// in\n    tag_266:\n        /* \"https://github.com/OpenZeppelin/openzeppelin-contracts/blob/release-v4.7/contracts/token/ERC20/extensions/draft-ERC20Permit.sol\":3273:3298  current = nonce.current() */\n      swap2\n      pop\n        /* \"https://github.com/OpenZeppelin/openzeppelin-contracts/blob/release-v4.7/contracts/token/ERC20/extensions/draft-ERC20Permit.sol\":3308:3325  nonce.increment() */\n      tag_267\n        /* \"https://github.com/OpenZeppelin/openzeppelin-contracts/blob/release-v4.7/contracts/token/ERC20/extensions/draft-ERC20Permit.sol\":3308:3313  nonce */\n      dup2\n        /* \"https://github.com/OpenZeppelin/openzeppelin-contracts/blob/release-v4.7/contracts/token/ERC20/extensions/draft-ERC20Permit.sol\":3308:3323  nonce.increment */\n      tag_268\n        /* \"https://github.com/OpenZeppelin/openzeppelin-contracts/blob/release-v4.7/contracts/token/ERC20/extensions/draft-ERC20Permit.sol\":3308:3325  nonce.increment() */\n      jump\t// in\n    tag_267:\n        /* \"https://github.com/OpenZeppelin/openzeppelin-contracts/blob/release-v4.7/contracts/token/ERC20/extensions/draft-ERC20Permit.sol\":3206:3332  {... */\n      pop\n        /* \"https://github.com/OpenZeppelin/openzeppelin-contracts/blob/release-v4.7/contracts/token/ERC20/extensions/draft-ERC20Permit.sol\":3129:3332  function _useNonce(address owner) internal virtual returns (uint256 current) {... */\n      swap2\n      swap1\n      pop\n      jump\t// out\n        /* \"https://github.com/OpenZeppelin/openzeppelin-contracts/blob/release-v4.7/contracts/utils/cryptography/draft-EIP712.sol\":4339:4504  function _hashTypedDataV4(bytes32 structHash) internal view virtual returns (bytes32) {... */\n    tag_183:\n        /* \"https://github.com/OpenZeppelin/openzeppelin-contracts/blob/release-v4.7/contracts/utils/cryptography/draft-EIP712.sol\":4416:4423  bytes32 */\n      0x00\n        /* \"https://github.com/OpenZeppelin/openzeppelin-contracts/blob/release-v4.7/contracts/utils/cryptography/draft-EIP712.sol\":4442:4497  ECDSA.toTypedDataHash(_domainSeparatorV4(), structHash) */\n      tag_270\n        /* \"https://github.com/OpenZeppelin/openzeppelin-contracts/blob/release-v4.7/contracts/utils/cryptography/draft-EIP712.sol\":4464:4484  _domainSeparatorV4() */\n      tag_271\n        /* \"https://github.com/OpenZeppelin/openzeppelin-contracts/blob/release-v4.7/contracts/utils/cryptography/draft-EIP712.sol\":4464:4482  _domainSeparatorV4 */\n      tag_127\n        /* \"https://github.com/OpenZeppelin/openzeppelin-contracts/blob/release-v4.7/contracts/utils/cryptography/draft-EIP712.sol\":4464:4484  _domainSeparatorV4() */\n      jump\t// in\n    tag_271:\n        /* \"https://github.com/OpenZeppelin/openzeppelin-contracts/blob/release-v4.7/contracts/utils/cryptography/draft-EIP712.sol\":4486:4496  structHash */\n      dup4\n        /* \"https://github.com/OpenZeppelin/openzeppelin-contracts/blob/release-v4.7/contracts/utils/cryptography/draft-EIP712.sol\":4442:4463  ECDSA.toTypedDataHash */\n      tag_272\n        /* \"https://github.com/OpenZeppelin/openzeppelin-contracts/blob/release-v4.7/contracts/utils/cryptography/draft-EIP712.sol\":4442:4497  ECDSA.toTypedDataHash(_domainSeparatorV4(), structHash) */\n      jump\t// in\n    tag_270:\n        /* \"https://github.com/OpenZeppelin/openzeppelin-contracts/blob/release-v4.7/contracts/utils/cryptography/draft-EIP712.sol\":4435:4497  return ECDSA.toTypedDataHash(_domainSeparatorV4(), structHash) */\n      swap1\n      pop\n        /* \"https://github.com/OpenZeppelin/openzeppelin-contracts/blob/release-v4.7/contracts/utils/cryptography/draft-EIP712.sol\":4339:4504  function _hashTypedDataV4(bytes32 structHash) internal view virtual returns (bytes32) {... */\n      swap2\n      swap1\n      pop\n      jump\t// out\n        /* \"https://github.com/OpenZeppelin/openzeppelin-contracts/blob/release-v4.7/contracts/utils/cryptography/ECDSA.sol\":6903:7173  function recover(... */\n    tag_185:\n        /* \"https://github.com/OpenZeppelin/openzeppelin-contracts/blob/release-v4.7/contracts/utils/cryptography/ECDSA.sol\":7026:7033  address */\n      0x00\n        /* \"https://github.com/OpenZeppelin/openzeppelin-contracts/blob/release-v4.7/contracts/utils/cryptography/ECDSA.sol\":7046:7063  address recovered */\n      dup1\n        /* \"https://github.com/OpenZeppelin/openzeppelin-contracts/blob/release-v4.7/contracts/utils/cryptography/ECDSA.sol\":7065:7083  RecoverError error */\n      0x00\n        /* \"https://github.com/OpenZeppelin/openzeppelin-contracts/blob/release-v4.7/contracts/utils/cryptography/ECDSA.sol\":7087:7112  tryRecover(hash, v, r, s) */\n      tag_274\n        /* \"https://github.com/OpenZeppelin/openzeppelin-contracts/blob/release-v4.7/contracts/utils/cryptography/ECDSA.sol\":7098:7102  hash */\n      dup8\n        /* \"https://github.com/OpenZeppelin/openzeppelin-contracts/blob/release-v4.7/contracts/utils/cryptography/ECDSA.sol\":7104:7105  v */\n      dup8\n        /* \"https://github.com/OpenZeppelin/openzeppelin-contracts/blob/release-v4.7/contracts/utils/cryptography/ECDSA.sol\":7107:7108  r */\n      dup8\n        /* \"https://github.com/OpenZeppelin/openzeppelin-contracts/blob/release-v4.7/contracts/utils/cryptography/ECDSA.sol\":7110:7111  s */\n      dup8\n        /* \"https://github.com/OpenZeppelin/openzeppelin-contracts/blob/release-v4.7/contracts/utils/cryptography/ECDSA.sol\":7087:7097  tryRecover */\n      tag_275\n        /* \"https://github.com/OpenZeppelin/openzeppelin-contracts/blob/release-v4.7/contracts/utils/cryptography/ECDSA.sol\":7087:7112  tryRecover(hash, v, r, s) */\n      jump\t// in\n    tag_274:\n        /* \"https://github.com/OpenZeppelin/openzeppelin-contracts/blob/release-v4.7/contracts/utils/cryptography/ECDSA.sol\":7045:7112  (address recovered, RecoverError error) = tryRecover(hash, v, r, s) */\n      swap2\n      pop\n      swap2\n      pop\n        /* \"https://github.com/OpenZeppelin/openzeppelin-contracts/blob/release-v4.7/contracts/utils/cryptography/ECDSA.sol\":7122:7140  _throwError(error) */\n      tag_276\n        /* \"https://github.com/OpenZeppelin/openzeppelin-contracts/blob/release-v4.7/contracts/utils/cryptography/ECDSA.sol\":7134:7139  error */\n      dup2\n        /* \"https://github.com/OpenZeppelin/openzeppelin-contracts/blob/release-v4.7/contracts/utils/cryptography/ECDSA.sol\":7122:7133  _throwError */\n      tag_277\n        /* \"https://github.com/OpenZeppelin/openzeppelin-contracts/blob/release-v4.7/contracts/utils/cryptography/ECDSA.sol\":7122:7140  _throwError(error) */\n      jump\t// in\n    tag_276:\n        /* \"https://github.com/OpenZeppelin/openzeppelin-contracts/blob/release-v4.7/contracts/utils/cryptography/ECDSA.sol\":7157:7166  recovered */\n      dup2\n        /* \"https://github.com/OpenZeppelin/openzeppelin-contracts/blob/release-v4.7/contracts/utils/cryptography/ECDSA.sol\":7150:7166  return recovered */\n      swap3\n      pop\n      pop\n      pop\n        /* \"https://github.com/OpenZeppelin/openzeppelin-contracts/blob/release-v4.7/contracts/utils/cryptography/ECDSA.sol\":6903:7173  function recover(... */\n      swap5\n      swap4\n      pop\n      pop\n      pop\n      pop\n      jump\t// out\n        /* \"https://github.com/OpenZeppelin/openzeppelin-contracts/blob/release-v4.7/contracts/token/ERC20/ERC20.sol\":11786:11907  function _beforeTokenTransfer(... */\n    tag_222:\n      pop\n      pop\n      pop\n      jump\t// out\n        /* \"https://github.com/OpenZeppelin/openzeppelin-contracts/blob/release-v4.7/contracts/token/ERC20/ERC20.sol\":12495:12615  function _afterTokenTransfer(... */\n    tag_229:\n      pop\n      pop\n      pop\n      jump\t// out\n        /* \"https://github.com/OpenZeppelin/openzeppelin-contracts/blob/release-v4.7/contracts/utils/cryptography/draft-EIP712.sol\":3457:3714  function _buildDomainSeparator(... */\n    tag_235:\n        /* \"https://github.com/OpenZeppelin/openzeppelin-contracts/blob/release-v4.7/contracts/utils/cryptography/draft-EIP712.sol\":3597:3604  bytes32 */\n      0x00\n        /* \"https://github.com/OpenZeppelin/openzeppelin-contracts/blob/release-v4.7/contracts/utils/cryptography/draft-EIP712.sol\":3644:3652  typeHash */\n      dup4\n        /* \"https://github.com/OpenZeppelin/openzeppelin-contracts/blob/release-v4.7/contracts/utils/cryptography/draft-EIP712.sol\":3654:3662  nameHash */\n      dup4\n        /* \"https://github.com/OpenZeppelin/openzeppelin-contracts/blob/release-v4.7/contracts/utils/cryptography/draft-EIP712.sol\":3664:3675  versionHash */\n      dup4\n        /* \"https://github.com/OpenZeppelin/openzeppelin-contracts/blob/release-v4.7/contracts/utils/cryptography/draft-EIP712.sol\":3677:3690  block.chainid */\n      chainid\n        /* \"https://github.com/OpenZeppelin/openzeppelin-contracts/blob/release-v4.7/contracts/utils/cryptography/draft-EIP712.sol\":3700:3704  this */\n      address\n        /* \"https://github.com/OpenZeppelin/openzeppelin-contracts/blob/release-v4.7/contracts/utils/cryptography/draft-EIP712.sol\":3633:3706  abi.encode(typeHash, nameHash, versionHash, block.chainid, address(this)) */\n      add(0x20, mload(0x40))\n      tag_281\n      swap6\n      swap5\n      swap4\n      swap3\n      swap2\n      swap1\n      tag_282\n      jump\t// in\n    tag_281:\n      mload(0x40)\n      0x20\n      dup2\n      dup4\n      sub\n      sub\n      dup2\n      mstore\n      swap1\n      0x40\n      mstore\n        /* \"https://github.com/OpenZeppelin/openzeppelin-contracts/blob/release-v4.7/contracts/utils/cryptography/draft-EIP712.sol\":3623:3707  keccak256(abi.encode(typeHash, nameHash, versionHash, block.chainid, address(this))) */\n      dup1\n      mload\n      swap1\n      0x20\n      add\n      keccak256\n        /* \"https://github.com/OpenZeppelin/openzeppelin-contracts/blob/release-v4.7/contracts/utils/cryptography/draft-EIP712.sol\":3616:3707  return keccak256(abi.encode(typeHash, nameHash, versionHash, block.chainid, address(this))) */\n      swap1\n      pop\n        /* \"https://github.com/OpenZeppelin/openzeppelin-contracts/blob/release-v4.7/contracts/utils/cryptography/draft-EIP712.sol\":3457:3714  function _buildDomainSeparator(... */\n      swap4\n      swap3\n      pop\n      pop\n      pop\n      jump\t// out\n        /* \"https://github.com/OpenZeppelin/openzeppelin-contracts/blob/release-v4.7/contracts/utils/Counters.sol\":945:1068  function increment(Counter storage counter) internal {... */\n    tag_268:\n        /* \"https://github.com/OpenZeppelin/openzeppelin-contracts/blob/release-v4.7/contracts/utils/Counters.sol\":1050:1051  1 */\n      0x01\n        /* \"https://github.com/OpenZeppelin/openzeppelin-contracts/blob/release-v4.7/contracts/utils/Counters.sol\":1032:1039  counter */\n      dup2\n        /* \"https://github.com/OpenZeppelin/openzeppelin-contracts/blob/release-v4.7/contracts/utils/Counters.sol\":1032:1046  counter._value */\n      0x00\n      add\n      0x00\n        /* \"https://github.com/OpenZeppelin/openzeppelin-contracts/blob/release-v4.7/contracts/utils/Counters.sol\":1032:1051  counter._value += 1 */\n      dup3\n      dup3\n      sload\n      add\n      swap3\n      pop\n      pop\n      dup2\n      swap1\n      sstore\n      pop\n        /* \"https://github.com/OpenZeppelin/openzeppelin-contracts/blob/release-v4.7/contracts/utils/Counters.sol\":945:1068  function increment(Counter storage counter) internal {... */\n      pop\n      jump\t// out\n        /* \"https://github.com/OpenZeppelin/openzeppelin-contracts/blob/release-v4.7/contracts/utils/cryptography/ECDSA.sol\":8548:8742  function toTypedDataHash(bytes32 domainSeparator, bytes32 structHash) internal pure returns (bytes32) {... */\n    tag_272:\n        /* \"https://github.com/OpenZeppelin/openzeppelin-contracts/blob/release-v4.7/contracts/utils/cryptography/ECDSA.sol\":8641:8648  bytes32 */\n      0x00\n        /* \"https://github.com/OpenZeppelin/openzeppelin-contracts/blob/release-v4.7/contracts/utils/cryptography/ECDSA.sol\":8706:8721  domainSeparator */\n      dup3\n        /* \"https://github.com/OpenZeppelin/openzeppelin-contracts/blob/release-v4.7/contracts/utils/cryptography/ECDSA.sol\":8723:8733  structHash */\n      dup3\n        /* \"https://github.com/OpenZeppelin/openzeppelin-contracts/blob/release-v4.7/contracts/utils/cryptography/ECDSA.sol\":8677:8734  abi.encodePacked(\"\\x19\\x01\", domainSeparator, structHash) */\n      add(0x20, mload(0x40))\n      tag_285\n      swap3\n      swap2\n      swap1\n      tag_286\n      jump\t// in\n    tag_285:\n      mload(0x40)\n      0x20\n      dup2\n      dup4\n      sub\n      sub\n      dup2\n      mstore\n      swap1\n      0x40\n      mstore\n        /* \"https://github.com/OpenZeppelin/openzeppelin-contracts/blob/release-v4.7/contracts/utils/cryptography/ECDSA.sol\":8667:8735  keccak256(abi.encodePacked(\"\\x19\\x01\", domainSeparator, structHash)) */\n      dup1\n      mload\n      swap1\n      0x20\n      add\n      keccak256\n        /* \"https://github.com/OpenZeppelin/openzeppelin-contracts/blob/release-v4.7/contracts/utils/cryptography/ECDSA.sol\":8660:8735  return keccak256(abi.encodePacked(\"\\x19\\x01\", domainSeparator, structHash)) */\n      swap1\n      pop\n        /* \"https://github.com/OpenZeppelin/openzeppelin-contracts/blob/release-v4.7/contracts/utils/cryptography/ECDSA.sol\":8548:8742  function toTypedDataHash(bytes32 domainSeparator, bytes32 structHash) internal pure returns (bytes32) {... */\n      swap3\n      swap2\n      pop\n      pop\n      jump\t// out\n        /* \"https://github.com/OpenZeppelin/openzeppelin-contracts/blob/release-v4.7/contracts/utils/cryptography/ECDSA.sol\":5167:6770  function tryRecover(... */\n    tag_275:\n        /* \"https://github.com/OpenZeppelin/openzeppelin-contracts/blob/release-v4.7/contracts/utils/cryptography/ECDSA.sol\":5293:5300  address */\n      0x00\n        /* \"https://github.com/OpenZeppelin/openzeppelin-contracts/blob/release-v4.7/contracts/utils/cryptography/ECDSA.sol\":5302:5314  RecoverError */\n      dup1\n        /* \"https://github.com/OpenZeppelin/openzeppelin-contracts/blob/release-v4.7/contracts/utils/cryptography/ECDSA.sol\":6217:6283  0x7FFFFFFFFFFFFFFFFFFFFFFFFFFFFFFF5D576E7357A4501DDFE92F46681B20A0 */\n      0x7fffffffffffffffffffffffffffffff5d576e7357a4501ddfe92f46681b20a0\n        /* \"https://github.com/OpenZeppelin/openzeppelin-contracts/blob/release-v4.7/contracts/utils/cryptography/ECDSA.sol\":6212:6213  s */\n      dup4\n        /* \"https://github.com/OpenZeppelin/openzeppelin-contracts/blob/release-v4.7/contracts/utils/cryptography/ECDSA.sol\":6204:6214  uint256(s) */\n      0x00\n      shr\n        /* \"https://github.com/OpenZeppelin/openzeppelin-contracts/blob/release-v4.7/contracts/utils/cryptography/ECDSA.sol\":6204:6283  uint256(s) > 0x7FFFFFFFFFFFFFFFFFFFFFFFFFFFFFFF5D576E7357A4501DDFE92F46681B20A0 */\n      gt\n        /* \"https://github.com/OpenZeppelin/openzeppelin-contracts/blob/release-v4.7/contracts/utils/cryptography/ECDSA.sol\":6200:6361  if (uint256(s) > 0x7FFFFFFFFFFFFFFFFFFFFFFFFFFFFFFF5D576E7357A4501DDFE92F46681B20A0) {... */\n      iszero\n      tag_288\n      jumpi\n        /* \"https://github.com/OpenZeppelin/openzeppelin-contracts/blob/release-v4.7/contracts/utils/cryptography/ECDSA.sol\":6315:6316  0 */\n      0x00\n        /* \"https://github.com/OpenZeppelin/openzeppelin-contracts/blob/release-v4.7/contracts/utils/cryptography/ECDSA.sol\":6319:6349  RecoverError.InvalidSignatureS */\n      0x03\n        /* \"https://github.com/OpenZeppelin/openzeppelin-contracts/blob/release-v4.7/contracts/utils/cryptography/ECDSA.sol\":6299:6350  return (address(0), RecoverError.InvalidSignatureS) */\n      swap2\n      pop\n      swap2\n      pop\n      jump(tag_287)\n        /* \"https://github.com/OpenZeppelin/openzeppelin-contracts/blob/release-v4.7/contracts/utils/cryptography/ECDSA.sol\":6200:6361  if (uint256(s) > 0x7FFFFFFFFFFFFFFFFFFFFFFFFFFFFFFF5D576E7357A4501DDFE92F46681B20A0) {... */\n    tag_288:\n        /* \"https://github.com/OpenZeppelin/openzeppelin-contracts/blob/release-v4.7/contracts/utils/cryptography/ECDSA.sol\":6379:6381  27 */\n      0x1b\n        /* \"https://github.com/OpenZeppelin/openzeppelin-contracts/blob/release-v4.7/contracts/utils/cryptography/ECDSA.sol\":6374:6375  v */\n      dup6\n        /* \"https://github.com/OpenZeppelin/openzeppelin-contracts/blob/release-v4.7/contracts/utils/cryptography/ECDSA.sol\":6374:6381  v != 27 */\n      0xff\n      and\n      eq\n      iszero\n        /* \"https://github.com/OpenZeppelin/openzeppelin-contracts/blob/release-v4.7/contracts/utils/cryptography/ECDSA.sol\":6374:6392  v != 27 && v != 28 */\n      dup1\n      iszero\n      tag_289\n      jumpi\n      pop\n        /* \"https://github.com/OpenZeppelin/openzeppelin-contracts/blob/release-v4.7/contracts/utils/cryptography/ECDSA.sol\":6390:6392  28 */\n      0x1c\n        /* \"https://github.com/OpenZeppelin/openzeppelin-contracts/blob/release-v4.7/contracts/utils/cryptography/ECDSA.sol\":6385:6386  v */\n      dup6\n        /* \"https://github.com/OpenZeppelin/openzeppelin-contracts/blob/release-v4.7/contracts/utils/cryptography/ECDSA.sol\":6385:6392  v != 28 */\n      0xff\n      and\n      eq\n      iszero\n        /* \"https://github.com/OpenZeppelin/openzeppelin-contracts/blob/release-v4.7/contracts/utils/cryptography/ECDSA.sol\":6374:6392  v != 27 && v != 28 */\n    tag_289:\n        /* \"https://github.com/OpenZeppelin/openzeppelin-contracts/blob/release-v4.7/contracts/utils/cryptography/ECDSA.sol\":6370:6470  if (v != 27 && v != 28) {... */\n      iszero\n      tag_290\n      jumpi\n        /* \"https://github.com/OpenZeppelin/openzeppelin-contracts/blob/release-v4.7/contracts/utils/cryptography/ECDSA.sol\":6424:6425  0 */\n      0x00\n        /* \"https://github.com/OpenZeppelin/openzeppelin-contracts/blob/release-v4.7/contracts/utils/cryptography/ECDSA.sol\":6428:6458  RecoverError.InvalidSignatureV */\n      0x04\n        /* \"https://github.com/OpenZeppelin/openzeppelin-contracts/blob/release-v4.7/contracts/utils/cryptography/ECDSA.sol\":6408:6459  return (address(0), RecoverError.InvalidSignatureV) */\n      swap2\n      pop\n      swap2\n      pop\n      jump(tag_287)\n        /* \"https://github.com/OpenZeppelin/openzeppelin-contracts/blob/release-v4.7/contracts/utils/cryptography/ECDSA.sol\":6370:6470  if (v != 27 && v != 28) {... */\n    tag_290:\n        /* \"https://github.com/OpenZeppelin/openzeppelin-contracts/blob/release-v4.7/contracts/utils/cryptography/ECDSA.sol\":6564:6578  address signer */\n      0x00\n        /* \"https://github.com/OpenZeppelin/openzeppelin-contracts/blob/release-v4.7/contracts/utils/cryptography/ECDSA.sol\":6581:6605  ecrecover(hash, v, r, s) */\n      0x01\n        /* \"https://github.com/OpenZeppelin/openzeppelin-contracts/blob/release-v4.7/contracts/utils/cryptography/ECDSA.sol\":6591:6595  hash */\n      dup8\n        /* \"https://github.com/OpenZeppelin/openzeppelin-contracts/blob/release-v4.7/contracts/utils/cryptography/ECDSA.sol\":6597:6598  v */\n      dup8\n        /* \"https://github.com/OpenZeppelin/openzeppelin-contracts/blob/release-v4.7/contracts/utils/cryptography/ECDSA.sol\":6600:6601  r */\n      dup8\n        /* \"https://github.com/OpenZeppelin/openzeppelin-contracts/blob/release-v4.7/contracts/utils/cryptography/ECDSA.sol\":6603:6604  s */\n      dup8\n        /* \"https://github.com/OpenZeppelin/openzeppelin-contracts/blob/release-v4.7/contracts/utils/cryptography/ECDSA.sol\":6581:6605  ecrecover(hash, v, r, s) */\n      mload(0x40)\n      0x00\n      dup2\n      mstore\n      0x20\n      add\n      0x40\n      mstore\n      mload(0x40)\n      tag_291\n      swap5\n      swap4\n      swap3\n      swap2\n      swap1\n      tag_292\n      jump\t// in\n    tag_291:\n      0x20\n      mload(0x40)\n      0x20\n      dup2\n      sub\n      swap1\n      dup1\n      dup5\n      sub\n      swap1\n      dup6\n      gas\n      staticcall\n      iszero\n      dup1\n      iszero\n      tag_294\n      jumpi\n      returndatasize\n      0x00\n      dup1\n      returndatacopy\n      revert(0x00, returndatasize)\n    tag_294:\n      pop\n      pop\n      pop\n      mload(sub(mload(0x40), 0x20))\n        /* \"https://github.com/OpenZeppelin/openzeppelin-contracts/blob/release-v4.7/contracts/utils/cryptography/ECDSA.sol\":6564:6605  address signer = ecrecover(hash, v, r, s) */\n      swap1\n      pop\n        /* \"https://github.com/OpenZeppelin/openzeppelin-contracts/blob/release-v4.7/contracts/utils/cryptography/ECDSA.sol\":6637:6638  0 */\n      0x00\n        /* \"https://github.com/OpenZeppelin/openzeppelin-contracts/blob/release-v4.7/contracts/utils/cryptography/ECDSA.sol\":6619:6639  signer == address(0) */\n      0xffffffffffffffffffffffffffffffffffffffff\n      and\n        /* \"https://github.com/OpenZeppelin/openzeppelin-contracts/blob/release-v4.7/contracts/utils/cryptography/ECDSA.sol\":6619:6625  signer */\n      dup2\n        /* \"https://github.com/OpenZeppelin/openzeppelin-contracts/blob/release-v4.7/contracts/utils/cryptography/ECDSA.sol\":6619:6639  signer == address(0) */\n      0xffffffffffffffffffffffffffffffffffffffff\n      and\n      sub\n        /* \"https://github.com/OpenZeppelin/openzeppelin-contracts/blob/release-v4.7/contracts/utils/cryptography/ECDSA.sol\":6615:6716  if (signer == address(0)) {... */\n      tag_295\n      jumpi\n        /* \"https://github.com/OpenZeppelin/openzeppelin-contracts/blob/release-v4.7/contracts/utils/cryptography/ECDSA.sol\":6671:6672  0 */\n      0x00\n        /* \"https://github.com/OpenZeppelin/openzeppelin-contracts/blob/release-v4.7/contracts/utils/cryptography/ECDSA.sol\":6675:6704  RecoverError.InvalidSignature */\n      0x01\n        /* \"https://github.com/OpenZeppelin/openzeppelin-contracts/blob/release-v4.7/contracts/utils/cryptography/ECDSA.sol\":6655:6705  return (address(0), RecoverError.InvalidSignature) */\n      swap3\n      pop\n      swap3\n      pop\n      pop\n      jump(tag_287)\n        /* \"https://github.com/OpenZeppelin/openzeppelin-contracts/blob/release-v4.7/contracts/utils/cryptography/ECDSA.sol\":6615:6716  if (signer == address(0)) {... */\n    tag_295:\n        /* \"https://github.com/OpenZeppelin/openzeppelin-contracts/blob/release-v4.7/contracts/utils/cryptography/ECDSA.sol\":6734:6740  signer */\n      dup1\n        /* \"https://github.com/OpenZeppelin/openzeppelin-contracts/blob/release-v4.7/contracts/utils/cryptography/ECDSA.sol\":6742:6762  RecoverError.NoError */\n      0x00\n        /* \"https://github.com/OpenZeppelin/openzeppelin-contracts/blob/release-v4.7/contracts/utils/cryptography/ECDSA.sol\":6726:6763  return (signer, RecoverError.NoError) */\n      swap3\n      pop\n      swap3\n      pop\n      pop\n        /* \"https://github.com/OpenZeppelin/openzeppelin-contracts/blob/release-v4.7/contracts/utils/cryptography/ECDSA.sol\":5167:6770  function tryRecover(... */\n    tag_287:\n      swap5\n      pop\n      swap5\n      swap3\n      pop\n      pop\n      pop\n      jump\t// out\n        /* \"https://github.com/OpenZeppelin/openzeppelin-contracts/blob/release-v4.7/contracts/utils/cryptography/ECDSA.sol\":548:1179  function _throwError(RecoverError error) private pure {... */\n    tag_277:\n        /* \"https://github.com/OpenZeppelin/openzeppelin-contracts/blob/release-v4.7/contracts/utils/cryptography/ECDSA.sol\":625:645  RecoverError.NoError */\n      0x00\n        /* \"https://github.com/OpenZeppelin/openzeppelin-contracts/blob/release-v4.7/contracts/utils/cryptography/ECDSA.sol\":616:645  error == RecoverError.NoError */\n      0x04\n      dup2\n      gt\n      iszero\n      tag_297\n      jumpi\n      tag_298\n      tag_299\n      jump\t// in\n    tag_298:\n    tag_297:\n        /* \"https://github.com/OpenZeppelin/openzeppelin-contracts/blob/release-v4.7/contracts/utils/cryptography/ECDSA.sol\":616:621  error */\n      dup2\n        /* \"https://github.com/OpenZeppelin/openzeppelin-contracts/blob/release-v4.7/contracts/utils/cryptography/ECDSA.sol\":616:645  error == RecoverError.NoError */\n      0x04\n      dup2\n      gt\n      iszero\n      tag_300\n      jumpi\n      tag_301\n      tag_299\n      jump\t// in\n    tag_301:\n    tag_300:\n      sub\n        /* \"https://github.com/OpenZeppelin/openzeppelin-contracts/blob/release-v4.7/contracts/utils/cryptography/ECDSA.sol\":612:1173  if (error == RecoverError.NoError) {... */\n      iszero\n        /* \"https://github.com/OpenZeppelin/openzeppelin-contracts/blob/release-v4.7/contracts/utils/cryptography/ECDSA.sol\":661:668  return; */\n      tag_296\n        /* \"https://github.com/OpenZeppelin/openzeppelin-contracts/blob/release-v4.7/contracts/utils/cryptography/ECDSA.sol\":612:1173  if (error == RecoverError.NoError) {... */\n      jumpi\n        /* \"https://github.com/OpenZeppelin/openzeppelin-contracts/blob/release-v4.7/contracts/utils/cryptography/ECDSA.sol\":721:750  RecoverError.InvalidSignature */\n      0x01\n        /* \"https://github.com/OpenZeppelin/openzeppelin-contracts/blob/release-v4.7/contracts/utils/cryptography/ECDSA.sol\":712:750  error == RecoverError.InvalidSignature */\n      0x04\n      dup2\n      gt\n      iszero\n      tag_304\n      jumpi\n      tag_305\n      tag_299\n      jump\t// in\n    tag_305:\n    tag_304:\n        /* \"https://github.com/OpenZeppelin/openzeppelin-contracts/blob/release-v4.7/contracts/utils/cryptography/ECDSA.sol\":712:717  error */\n      dup2\n        /* \"https://github.com/OpenZeppelin/openzeppelin-contracts/blob/release-v4.7/contracts/utils/cryptography/ECDSA.sol\":712:750  error == RecoverError.InvalidSignature */\n      0x04\n      dup2\n      gt\n      iszero\n      tag_306\n      jumpi\n      tag_307\n      tag_299\n      jump\t// in\n    tag_307:\n    tag_306:\n      sub\n        /* \"https://github.com/OpenZeppelin/openzeppelin-contracts/blob/release-v4.7/contracts/utils/cryptography/ECDSA.sol\":708:1173  if (error == RecoverError.InvalidSignature) {... */\n      tag_308\n      jumpi\n        /* \"https://github.com/OpenZeppelin/openzeppelin-contracts/blob/release-v4.7/contracts/utils/cryptography/ECDSA.sol\":766:800  revert(\"ECDSA: invalid signature\") */\n      mload(0x40)\n      0x08c379a000000000000000000000000000000000000000000000000000000000\n      dup2\n      mstore\n      0x04\n      add\n      tag_309\n      swap1\n      tag_310\n      jump\t// in\n    tag_309:\n      mload(0x40)\n      dup1\n      swap2\n      sub\n      swap1\n      revert\n        /* \"https://github.com/OpenZeppelin/openzeppelin-contracts/blob/release-v4.7/contracts/utils/cryptography/ECDSA.sol\":708:1173  if (error == RecoverError.InvalidSignature) {... */\n    tag_308:\n        /* \"https://github.com/OpenZeppelin/openzeppelin-contracts/blob/release-v4.7/contracts/utils/cryptography/ECDSA.sol\":830:865  RecoverError.InvalidSignatureLength */\n      0x02\n        /* \"https://github.com/OpenZeppelin/openzeppelin-contracts/blob/release-v4.7/contracts/utils/cryptography/ECDSA.sol\":821:865  error == RecoverError.InvalidSignatureLength */\n      0x04\n      dup2\n      gt\n      iszero\n      tag_312\n      jumpi\n      tag_313\n      tag_299\n      jump\t// in\n    tag_313:\n    tag_312:\n        /* \"https://github.com/OpenZeppelin/openzeppelin-contracts/blob/release-v4.7/contracts/utils/cryptography/ECDSA.sol\":821:826  error */\n      dup2\n        /* \"https://github.com/OpenZeppelin/openzeppelin-contracts/blob/release-v4.7/contracts/utils/cryptography/ECDSA.sol\":821:865  error == RecoverError.InvalidSignatureLength */\n      0x04\n      dup2\n      gt\n      iszero\n      tag_314\n      jumpi\n      tag_315\n      tag_299\n      jump\t// in\n    tag_315:\n    tag_314:\n      sub\n        /* \"https://github.com/OpenZeppelin/openzeppelin-contracts/blob/release-v4.7/contracts/utils/cryptography/ECDSA.sol\":817:1173  if (error == RecoverError.InvalidSignatureLength) {... */\n      tag_316\n      jumpi\n        /* \"https://github.com/OpenZeppelin/openzeppelin-contracts/blob/release-v4.7/contracts/utils/cryptography/ECDSA.sol\":881:922  revert(\"ECDSA: invalid signature length\") */\n      mload(0x40)\n      0x08c379a000000000000000000000000000000000000000000000000000000000\n      dup2\n      mstore\n      0x04\n      add\n      tag_317\n      swap1\n      tag_318\n      jump\t// in\n    tag_317:\n      mload(0x40)\n      dup1\n      swap2\n      sub\n      swap1\n      revert\n        /* \"https://github.com/OpenZeppelin/openzeppelin-contracts/blob/release-v4.7/contracts/utils/cryptography/ECDSA.sol\":817:1173  if (error == RecoverError.InvalidSignatureLength) {... */\n    tag_316:\n        /* \"https://github.com/OpenZeppelin/openzeppelin-contracts/blob/release-v4.7/contracts/utils/cryptography/ECDSA.sol\":952:982  RecoverError.InvalidSignatureS */\n      0x03\n        /* \"https://github.com/OpenZeppelin/openzeppelin-contracts/blob/release-v4.7/contracts/utils/cryptography/ECDSA.sol\":943:982  error == RecoverError.InvalidSignatureS */\n      0x04\n      dup2\n      gt\n      iszero\n      tag_320\n      jumpi\n      tag_321\n      tag_299\n      jump\t// in\n    tag_321:\n    tag_320:\n        /* \"https://github.com/OpenZeppelin/openzeppelin-contracts/blob/release-v4.7/contracts/utils/cryptography/ECDSA.sol\":943:948  error */\n      dup2\n        /* \"https://github.com/OpenZeppelin/openzeppelin-contracts/blob/release-v4.7/contracts/utils/cryptography/ECDSA.sol\":943:982  error == RecoverError.InvalidSignatureS */\n      0x04\n      dup2\n      gt\n      iszero\n      tag_322\n      jumpi\n      tag_323\n      tag_299\n      jump\t// in\n    tag_323:\n    tag_322:\n      sub\n        /* \"https://github.com/OpenZeppelin/openzeppelin-contracts/blob/release-v4.7/contracts/utils/cryptography/ECDSA.sol\":939:1173  if (error == RecoverError.InvalidSignatureS) {... */\n      tag_324\n      jumpi\n        /* \"https://github.com/OpenZeppelin/openzeppelin-contracts/blob/release-v4.7/contracts/utils/cryptography/ECDSA.sol\":998:1042  revert(\"ECDSA: invalid signature 's' value\") */\n      mload(0x40)\n      0x08c379a000000000000000000000000000000000000000000000000000000000\n      dup2\n      mstore\n      0x04\n      add\n      tag_325\n      swap1\n      tag_326\n      jump\t// in\n    tag_325:\n      mload(0x40)\n      dup1\n      swap2\n      sub\n      swap1\n      revert\n        /* \"https://github.com/OpenZeppelin/openzeppelin-contracts/blob/release-v4.7/contracts/utils/cryptography/ECDSA.sol\":939:1173  if (error == RecoverError.InvalidSignatureS) {... */\n    tag_324:\n        /* \"https://github.com/OpenZeppelin/openzeppelin-contracts/blob/release-v4.7/contracts/utils/cryptography/ECDSA.sol\":1072:1102  RecoverError.InvalidSignatureV */\n      0x04\n        /* \"https://github.com/OpenZeppelin/openzeppelin-contracts/blob/release-v4.7/contracts/utils/cryptography/ECDSA.sol\":1063:1102  error == RecoverError.InvalidSignatureV */\n      dup1\n      dup2\n      gt\n      iszero\n      tag_328\n      jumpi\n      tag_329\n      tag_299\n      jump\t// in\n    tag_329:\n    tag_328:\n        /* \"https://github.com/OpenZeppelin/openzeppelin-contracts/blob/release-v4.7/contracts/utils/cryptography/ECDSA.sol\":1063:1068  error */\n      dup2\n        /* \"https://github.com/OpenZeppelin/openzeppelin-contracts/blob/release-v4.7/contracts/utils/cryptography/ECDSA.sol\":1063:1102  error == RecoverError.InvalidSignatureV */\n      0x04\n      dup2\n      gt\n      iszero\n      tag_330\n      jumpi\n      tag_331\n      tag_299\n      jump\t// in\n    tag_331:\n    tag_330:\n      sub\n        /* \"https://github.com/OpenZeppelin/openzeppelin-contracts/blob/release-v4.7/contracts/utils/cryptography/ECDSA.sol\":1059:1173  if (error == RecoverError.InvalidSignatureV) {... */\n      tag_332\n      jumpi\n        /* \"https://github.com/OpenZeppelin/openzeppelin-contracts/blob/release-v4.7/contracts/utils/cryptography/ECDSA.sol\":1118:1162  revert(\"ECDSA: invalid signature 'v' value\") */\n      mload(0x40)\n      0x08c379a000000000000000000000000000000000000000000000000000000000\n      dup2\n      mstore\n      0x04\n      add\n      tag_333\n      swap1\n      tag_334\n      jump\t// in\n    tag_333:\n      mload(0x40)\n      dup1\n      swap2\n      sub\n      swap1\n      revert\n        /* \"https://github.com/OpenZeppelin/openzeppelin-contracts/blob/release-v4.7/contracts/utils/cryptography/ECDSA.sol\":1059:1173  if (error == RecoverError.InvalidSignatureV) {... */\n    tag_332:\n        /* \"https://github.com/OpenZeppelin/openzeppelin-contracts/blob/release-v4.7/contracts/utils/cryptography/ECDSA.sol\":548:1179  function _throwError(RecoverError error) private pure {... */\n    tag_296:\n      pop\n      jump\t// out\n        /* \"#utility.yul\":7:106   */\n    tag_335:\n        /* \"#utility.yul\":59:65   */\n      0x00\n        /* \"#utility.yul\":93:98   */\n      dup2\n        /* \"#utility.yul\":87:99   */\n      mload\n        /* \"#utility.yul\":77:99   */\n      swap1\n      pop\n        /* \"#utility.yul\":7:106   */\n      swap2\n      swap1\n      pop\n      jump\t// out\n        /* \"#utility.yul\":112:281   */\n    tag_336:\n        /* \"#utility.yul\":196:207   */\n      0x00\n        /* \"#utility.yul\":230:236   */\n      dup3\n        /* \"#utility.yul\":225:228   */\n      dup3\n        /* \"#utility.yul\":218:237   */\n      mstore\n        /* \"#utility.yul\":270:274   */\n      0x20\n        /* \"#utility.yul\":265:268   */\n      dup3\n        /* \"#utility.yul\":261:275   */\n      add\n        /* \"#utility.yul\":246:275   */\n      swap1\n      pop\n        /* \"#utility.yul\":112:281   */\n      swap3\n      swap2\n      pop\n      pop\n      jump\t// out\n        /* \"#utility.yul\":287:533   */\n    tag_337:\n        /* \"#utility.yul\":368:369   */\n      0x00\n        /* \"#utility.yul\":378:491   */\n    tag_409:\n        /* \"#utility.yul\":392:398   */\n      dup4\n        /* \"#utility.yul\":389:390   */\n      dup2\n        /* \"#utility.yul\":386:399   */\n      lt\n        /* \"#utility.yul\":378:491   */\n      iszero\n      tag_411\n      jumpi\n        /* \"#utility.yul\":477:478   */\n      dup1\n        /* \"#utility.yul\":472:475   */\n      dup3\n        /* \"#utility.yul\":468:479   */\n      add\n        /* \"#utility.yul\":462:480   */\n      mload\n        /* \"#utility.yul\":458:459   */\n      dup2\n        /* \"#utility.yul\":453:456   */\n      dup5\n        /* \"#utility.yul\":449:460   */\n      add\n        /* \"#utility.yul\":442:481   */\n      mstore\n        /* \"#utility.yul\":414:416   */\n      0x20\n        /* \"#utility.yul\":411:412   */\n      dup2\n        /* \"#utility.yul\":407:417   */\n      add\n        /* \"#utility.yul\":402:417   */\n      swap1\n      pop\n        /* \"#utility.yul\":378:491   */\n      jump(tag_409)\n    tag_411:\n        /* \"#utility.yul\":525:526   */\n      0x00\n        /* \"#utility.yul\":516:522   */\n      dup5\n        /* \"#utility.yul\":511:514   */\n      dup5\n        /* \"#utility.yul\":507:523   */\n      add\n        /* \"#utility.yul\":500:527   */\n      mstore\n        /* \"#utility.yul\":349:533   */\n      pop\n        /* \"#utility.yul\":287:533   */\n      pop\n      pop\n      pop\n      jump\t// out\n        /* \"#utility.yul\":539:641   */\n    tag_338:\n        /* \"#utility.yul\":580:586   */\n      0x00\n        /* \"#utility.yul\":631:633   */\n      0x1f\n        /* \"#utility.yul\":627:634   */\n      not\n        /* \"#utility.yul\":622:624   */\n      0x1f\n        /* \"#utility.yul\":615:620   */\n      dup4\n        /* \"#utility.yul\":611:625   */\n      add\n        /* \"#utility.yul\":607:635   */\n      and\n        /* \"#utility.yul\":597:635   */\n      swap1\n      pop\n        /* \"#utility.yul\":539:641   */\n      swap2\n      swap1\n      pop\n      jump\t// out\n        /* \"#utility.yul\":647:1024   */\n    tag_339:\n        /* \"#utility.yul\":735:738   */\n      0x00\n        /* \"#utility.yul\":763:802   */\n      tag_414\n        /* \"#utility.yul\":796:801   */\n      dup3\n        /* \"#utility.yul\":763:802   */\n      tag_335\n      jump\t// in\n    tag_414:\n        /* \"#utility.yul\":818:889   */\n      tag_415\n        /* \"#utility.yul\":882:888   */\n      dup2\n        /* \"#utility.yul\":877:880   */\n      dup6\n        /* \"#utility.yul\":818:889   */\n      tag_336\n      jump\t// in\n    tag_415:\n        /* \"#utility.yul\":811:889   */\n      swap4\n      pop\n        /* \"#utility.yul\":898:963   */\n      tag_416\n        /* \"#utility.yul\":956:962   */\n      dup2\n        /* \"#utility.yul\":951:954   */\n      dup6\n        /* \"#utility.yul\":944:948   */\n      0x20\n        /* \"#utility.yul\":937:942   */\n      dup7\n        /* \"#utility.yul\":933:949   */\n      add\n        /* \"#utility.yul\":898:963   */\n      tag_337\n      jump\t// in\n    tag_416:\n        /* \"#utility.yul\":988:1017   */\n      tag_417\n        /* \"#utility.yul\":1010:1016   */\n      dup2\n        /* \"#utility.yul\":988:1017   */\n      tag_338\n      jump\t// in\n    tag_417:\n        /* \"#utility.yul\":983:986   */\n      dup5\n        /* \"#utility.yul\":979:1018   */\n      add\n        /* \"#utility.yul\":972:1018   */\n      swap2\n      pop\n        /* \"#utility.yul\":739:1024   */\n      pop\n        /* \"#utility.yul\":647:1024   */\n      swap3\n      swap2\n      pop\n      pop\n      jump\t// out\n        /* \"#utility.yul\":1030:1343   */\n    tag_29:\n        /* \"#utility.yul\":1143:1147   */\n      0x00\n        /* \"#utility.yul\":1181:1183   */\n      0x20\n        /* \"#utility.yul\":1170:1179   */\n      dup3\n        /* \"#utility.yul\":1166:1184   */\n      add\n        /* \"#utility.yul\":1158:1184   */\n      swap1\n      pop\n        /* \"#utility.yul\":1230:1239   */\n      dup2\n        /* \"#utility.yul\":1224:1228   */\n      dup2\n        /* \"#utility.yul\":1220:1240   */\n      sub\n        /* \"#utility.yul\":1216:1217   */\n      0x00\n        /* \"#utility.yul\":1205:1214   */\n      dup4\n        /* \"#utility.yul\":1201:1218   */\n      add\n        /* \"#utility.yul\":1194:1241   */\n      mstore\n        /* \"#utility.yul\":1258:1336   */\n      tag_419\n        /* \"#utility.yul\":1331:1335   */\n      dup2\n        /* \"#utility.yul\":1322:1328   */\n      dup5\n        /* \"#utility.yul\":1258:1336   */\n      tag_339\n      jump\t// in\n    tag_419:\n        /* \"#utility.yul\":1250:1336   */\n      swap1\n      pop\n        /* \"#utility.yul\":1030:1343   */\n      swap3\n      swap2\n      pop\n      pop\n      jump\t// out\n        /* \"#utility.yul\":1430:1547   */\n    tag_341:\n        /* \"#utility.yul\":1539:1540   */\n      0x00\n        /* \"#utility.yul\":1536:1537   */\n      dup1\n        /* \"#utility.yul\":1529:1541   */\n      revert\n        /* \"#utility.yul\":1676:1802   */\n    tag_343:\n        /* \"#utility.yul\":1713:1720   */\n      0x00\n        /* \"#utility.yul\":1753:1795   */\n      0xffffffffffffffffffffffffffffffffffffffff\n        /* \"#utility.yul\":1746:1751   */\n      dup3\n        /* \"#utility.yul\":1742:1796   */\n      and\n        /* \"#utility.yul\":1731:1796   */\n      swap1\n      pop\n        /* \"#utility.yul\":1676:1802   */\n      swap2\n      swap1\n      pop\n      jump\t// out\n        /* \"#utility.yul\":1808:1904   */\n    tag_344:\n        /* \"#utility.yul\":1845:1852   */\n      0x00\n        /* \"#utility.yul\":1874:1898   */\n      tag_425\n        /* \"#utility.yul\":1892:1897   */\n      dup3\n        /* \"#utility.yul\":1874:1898   */\n      tag_343\n      jump\t// in\n    tag_425:\n        /* \"#utility.yul\":1863:1898   */\n      swap1\n      pop\n        /* \"#utility.yul\":1808:1904   */\n      swap2\n      swap1\n      pop\n      jump\t// out\n        /* \"#utility.yul\":1910:2032   */\n    tag_345:\n        /* \"#utility.yul\":1983:2007   */\n      tag_427\n        /* \"#utility.yul\":2001:2006   */\n      dup2\n        /* \"#utility.yul\":1983:2007   */\n      tag_344\n      jump\t// in\n    tag_427:\n        /* \"#utility.yul\":1976:1981   */\n      dup2\n        /* \"#utility.yul\":1973:2008   */\n      eq\n        /* \"#utility.yul\":1963:2026   */\n      tag_428\n      jumpi\n        /* \"#utility.yul\":2022:2023   */\n      0x00\n        /* \"#utility.yul\":2019:2020   */\n      dup1\n        /* \"#utility.yul\":2012:2024   */\n      revert\n        /* \"#utility.yul\":1963:2026   */\n    tag_428:\n        /* \"#utility.yul\":1910:2032   */\n      pop\n      jump\t// out\n        /* \"#utility.yul\":2038:2177   */\n    tag_346:\n        /* \"#utility.yul\":2084:2089   */\n      0x00\n        /* \"#utility.yul\":2122:2128   */\n      dup2\n        /* \"#utility.yul\":2109:2129   */\n      calldataload\n        /* \"#utility.yul\":2100:2129   */\n      swap1\n      pop\n        /* \"#utility.yul\":2138:2171   */\n      tag_430\n        /* \"#utility.yul\":2165:2170   */\n      dup2\n        /* \"#utility.yul\":2138:2171   */\n      tag_345\n      jump\t// in\n    tag_430:\n        /* \"#utility.yul\":2038:2177   */\n      swap3\n      swap2\n      pop\n      pop\n      jump\t// out\n        /* \"#utility.yul\":2183:2260   */\n    tag_347:\n        /* \"#utility.yul\":2220:2227   */\n      0x00\n        /* \"#utility.yul\":2249:2254   */\n      dup2\n        /* \"#utility.yul\":2238:2254   */\n      swap1\n      pop\n        /* \"#utility.yul\":2183:2260   */\n      swap2\n      swap1\n      pop\n      jump\t// out\n        /* \"#utility.yul\":2266:2388   */\n    tag_348:\n        /* \"#utility.yul\":2339:2363   */\n      tag_433\n        /* \"#utility.yul\":2357:2362   */\n      dup2\n        /* \"#utility.yul\":2339:2363   */\n      tag_347\n      jump\t// in\n    tag_433:\n        /* \"#utility.yul\":2332:2337   */\n      dup2\n        /* \"#utility.yul\":2329:2364   */\n      eq\n        /* \"#utility.yul\":2319:2382   */\n      tag_434\n      jumpi\n        /* \"#utility.yul\":2378:2379   */\n      0x00\n        /* \"#utility.yul\":2375:2376   */\n      dup1\n        /* \"#utility.yul\":2368:2380   */\n      revert\n        /* \"#utility.yul\":2319:2382   */\n    tag_434:\n        /* \"#utility.yul\":2266:2388   */\n      pop\n      jump\t// out\n        /* \"#utility.yul\":2394:2533   */\n    tag_349:\n        /* \"#utility.yul\":2440:2445   */\n      0x00\n        /* \"#utility.yul\":2478:2484   */\n      dup2\n        /* \"#utility.yul\":2465:2485   */\n      calldataload\n        /* \"#utility.yul\":2456:2485   */\n      swap1\n      pop\n        /* \"#utility.yul\":2494:2527   */\n      tag_436\n        /* \"#utility.yul\":2521:2526   */\n      dup2\n        /* \"#utility.yul\":2494:2527   */\n      tag_348\n      jump\t// in\n    tag_436:\n        /* \"#utility.yul\":2394:2533   */\n      swap3\n      swap2\n      pop\n      pop\n      jump\t// out\n        /* \"#utility.yul\":2539:3013   */\n    tag_32:\n        /* \"#utility.yul\":2607:2613   */\n      0x00\n        /* \"#utility.yul\":2615:2621   */\n      dup1\n        /* \"#utility.yul\":2664:2666   */\n      0x40\n        /* \"#utility.yul\":2652:2661   */\n      dup4\n        /* \"#utility.yul\":2643:2650   */\n      dup6\n        /* \"#utility.yul\":2639:2662   */\n      sub\n        /* \"#utility.yul\":2635:2667   */\n      slt\n        /* \"#utility.yul\":2632:2751   */\n      iszero\n      tag_438\n      jumpi\n        /* \"#utility.yul\":2670:2749   */\n      tag_439\n      tag_341\n      jump\t// in\n    tag_439:\n        /* \"#utility.yul\":2632:2751   */\n    tag_438:\n        /* \"#utility.yul\":2790:2791   */\n      0x00\n        /* \"#utility.yul\":2815:2868   */\n      tag_440\n        /* \"#utility.yul\":2860:2867   */\n      dup6\n        /* \"#utility.yul\":2851:2857   */\n      dup3\n        /* \"#utility.yul\":2840:2849   */\n      dup7\n        /* \"#utility.yul\":2836:2858   */\n      add\n        /* \"#utility.yul\":2815:2868   */\n      tag_346\n      jump\t// in\n    tag_440:\n        /* \"#utility.yul\":2805:2868   */\n      swap3\n      pop\n        /* \"#utility.yul\":2761:2878   */\n      pop\n        /* \"#utility.yul\":2917:2919   */\n      0x20\n        /* \"#utility.yul\":2943:2996   */\n      tag_441\n        /* \"#utility.yul\":2988:2995   */\n      dup6\n        /* \"#utility.yul\":2979:2985   */\n      dup3\n        /* \"#utility.yul\":2968:2977   */\n      dup7\n        /* \"#utility.yul\":2964:2986   */\n      add\n        /* \"#utility.yul\":2943:2996   */\n      tag_349\n      jump\t// in\n    tag_441:\n        /* \"#utility.yul\":2933:2996   */\n      swap2\n      pop\n        /* \"#utility.yul\":2888:3006   */\n      pop\n        /* \"#utility.yul\":2539:3013   */\n      swap3\n      pop\n      swap3\n      swap1\n      pop\n      jump\t// out\n        /* \"#utility.yul\":3019:3109   */\n    tag_350:\n        /* \"#utility.yul\":3053:3060   */\n      0x00\n        /* \"#utility.yul\":3096:3101   */\n      dup2\n        /* \"#utility.yul\":3089:3102   */\n      iszero\n        /* \"#utility.yul\":3082:3103   */\n      iszero\n        /* \"#utility.yul\":3071:3103   */\n      swap1\n      pop\n        /* \"#utility.yul\":3019:3109   */\n      swap2\n      swap1\n      pop\n      jump\t// out\n        /* \"#utility.yul\":3115:3224   */\n    tag_351:\n        /* \"#utility.yul\":3196:3217   */\n      tag_444\n        /* \"#utility.yul\":3211:3216   */\n      dup2\n        /* \"#utility.yul\":3196:3217   */\n      tag_350\n      jump\t// in\n    tag_444:\n        /* \"#utility.yul\":3191:3194   */\n      dup3\n        /* \"#utility.yul\":3184:3218   */\n      mstore\n        /* \"#utility.yul\":3115:3224   */\n      pop\n      pop\n      jump\t// out\n        /* \"#utility.yul\":3230:3440   */\n    tag_35:\n        /* \"#utility.yul\":3317:3321   */\n      0x00\n        /* \"#utility.yul\":3355:3357   */\n      0x20\n        /* \"#utility.yul\":3344:3353   */\n      dup3\n        /* \"#utility.yul\":3340:3358   */\n      add\n        /* \"#utility.yul\":3332:3358   */\n      swap1\n      pop\n        /* \"#utility.yul\":3368:3433   */\n      tag_446\n        /* \"#utility.yul\":3430:3431   */\n      0x00\n        /* \"#utility.yul\":3419:3428   */\n      dup4\n        /* \"#utility.yul\":3415:3432   */\n      add\n        /* \"#utility.yul\":3406:3412   */\n      dup5\n        /* \"#utility.yul\":3368:3433   */\n      tag_351\n      jump\t// in\n    tag_446:\n        /* \"#utility.yul\":3230:3440   */\n      swap3\n      swap2\n      pop\n      pop\n      jump\t// out\n        /* \"#utility.yul\":3446:3564   */\n    tag_352:\n        /* \"#utility.yul\":3533:3557   */\n      tag_448\n        /* \"#utility.yul\":3551:3556   */\n      dup2\n        /* \"#utility.yul\":3533:3557   */\n      tag_347\n      jump\t// in\n    tag_448:\n        /* \"#utility.yul\":3528:3531   */\n      dup3\n        /* \"#utility.yul\":3521:3558   */\n      mstore\n        /* \"#utility.yul\":3446:3564   */\n      pop\n      pop\n      jump\t// out\n        /* \"#utility.yul\":3570:3792   */\n    tag_39:\n        /* \"#utility.yul\":3663:3667   */\n      0x00\n        /* \"#utility.yul\":3701:3703   */\n      0x20\n        /* \"#utility.yul\":3690:3699   */\n      dup3\n        /* \"#utility.yul\":3686:3704   */\n      add\n        /* \"#utility.yul\":3678:3704   */\n      swap1\n      pop\n        /* \"#utility.yul\":3714:3785   */\n      tag_450\n        /* \"#utility.yul\":3782:3783   */\n      0x00\n        /* \"#utility.yul\":3771:3780   */\n      dup4\n        /* \"#utility.yul\":3767:3784   */\n      add\n        /* \"#utility.yul\":3758:3764   */\n      dup5\n        /* \"#utility.yul\":3714:3785   */\n      tag_352\n      jump\t// in\n    tag_450:\n        /* \"#utility.yul\":3570:3792   */\n      swap3\n      swap2\n      pop\n      pop\n      jump\t// out\n        /* \"#utility.yul\":3798:4417   */\n    tag_42:\n        /* \"#utility.yul\":3875:3881   */\n      0x00\n        /* \"#utility.yul\":3883:3889   */\n      dup1\n        /* \"#utility.yul\":3891:3897   */\n      0x00\n        /* \"#utility.yul\":3940:3942   */\n      0x60\n        /* \"#utility.yul\":3928:3937   */\n      dup5\n        /* \"#utility.yul\":3919:3926   */\n      dup7\n        /* \"#utility.yul\":3915:3938   */\n      sub\n        /* \"#utility.yul\":3911:3943   */\n      slt\n        /* \"#utility.yul\":3908:4027   */\n      iszero\n      tag_452\n      jumpi\n        /* \"#utility.yul\":3946:4025   */\n      tag_453\n      tag_341\n      jump\t// in\n    tag_453:\n        /* \"#utility.yul\":3908:4027   */\n    tag_452:\n        /* \"#utility.yul\":4066:4067   */\n      0x00\n        /* \"#utility.yul\":4091:4144   */\n      tag_454\n        /* \"#utility.yul\":4136:4143   */\n      dup7\n        /* \"#utility.yul\":4127:4133   */\n      dup3\n        /* \"#utility.yul\":4116:4125   */\n      dup8\n        /* \"#utility.yul\":4112:4134   */\n      add\n        /* \"#utility.yul\":4091:4144   */\n      tag_346\n      jump\t// in\n    tag_454:\n        /* \"#utility.yul\":4081:4144   */\n      swap4\n      pop\n        /* \"#utility.yul\":4037:4154   */\n      pop\n        /* \"#utility.yul\":4193:4195   */\n      0x20\n        /* \"#utility.yul\":4219:4272   */\n      tag_455\n        /* \"#utility.yul\":4264:4271   */\n      dup7\n        /* \"#utility.yul\":4255:4261   */\n      dup3\n        /* \"#utility.yul\":4244:4253   */\n      dup8\n        /* \"#utility.yul\":4240:4262   */\n      add\n        /* \"#utility.yul\":4219:4272   */\n      tag_346\n      jump\t// in\n    tag_455:\n        /* \"#utility.yul\":4209:4272   */\n      swap3\n      pop\n        /* \"#utility.yul\":4164:4282   */\n      pop\n        /* \"#utility.yul\":4321:4323   */\n      0x40\n        /* \"#utility.yul\":4347:4400   */\n      tag_456\n        /* \"#utility.yul\":4392:4399   */\n      dup7\n        /* \"#utility.yul\":4383:4389   */\n      dup3\n        /* \"#utility.yul\":4372:4381   */\n      dup8\n        /* \"#utility.yul\":4368:4390   */\n      add\n        /* \"#utility.yul\":4347:4400   */\n      tag_349\n      jump\t// in\n    tag_456:\n        /* \"#utility.yul\":4337:4400   */\n      swap2\n      pop\n        /* \"#utility.yul\":4292:4410   */\n      pop\n        /* \"#utility.yul\":3798:4417   */\n      swap3\n      pop\n      swap3\n      pop\n      swap3\n      jump\t// out\n        /* \"#utility.yul\":4423:4509   */\n    tag_353:\n        /* \"#utility.yul\":4458:4465   */\n      0x00\n        /* \"#utility.yul\":4498:4502   */\n      0xff\n        /* \"#utility.yul\":4491:4496   */\n      dup3\n        /* \"#utility.yul\":4487:4503   */\n      and\n        /* \"#utility.yul\":4476:4503   */\n      swap1\n      pop\n        /* \"#utility.yul\":4423:4509   */\n      swap2\n      swap1\n      pop\n      jump\t// out\n        /* \"#utility.yul\":4515:4627   */\n    tag_354:\n        /* \"#utility.yul\":4598:4620   */\n      tag_459\n        /* \"#utility.yul\":4614:4619   */\n      dup2\n        /* \"#utility.yul\":4598:4620   */\n      tag_353\n      jump\t// in\n    tag_459:\n        /* \"#utility.yul\":4593:4596   */\n      dup3\n        /* \"#utility.yul\":4586:4621   */\n      mstore\n        /* \"#utility.yul\":4515:4627   */\n      pop\n      pop\n      jump\t// out\n        /* \"#utility.yul\":4633:4847   */\n    tag_48:\n        /* \"#utility.yul\":4722:4726   */\n      0x00\n        /* \"#utility.yul\":4760:4762   */\n      0x20\n        /* \"#utility.yul\":4749:4758   */\n      dup3\n        /* \"#utility.yul\":4745:4763   */\n      add\n        /* \"#utility.yul\":4737:4763   */\n      swap1\n      pop\n        /* \"#utility.yul\":4773:4840   */\n      tag_461\n        /* \"#utility.yul\":4837:4838   */\n      0x00\n        /* \"#utility.yul\":4826:4835   */\n      dup4\n        /* \"#utility.yul\":4822:4839   */\n      add\n        /* \"#utility.yul\":4813:4819   */\n      dup5\n        /* \"#utility.yul\":4773:4840   */\n      tag_354\n      jump\t// in\n    tag_461:\n        /* \"#utility.yul\":4633:4847   */\n      swap3\n      swap2\n      pop\n      pop\n      jump\t// out\n        /* \"#utility.yul\":4853:4930   */\n    tag_355:\n        /* \"#utility.yul\":4890:4897   */\n      0x00\n        /* \"#utility.yul\":4919:4924   */\n      dup2\n        /* \"#utility.yul\":4908:4924   */\n      swap1\n      pop\n        /* \"#utility.yul\":4853:4930   */\n      swap2\n      swap1\n      pop\n      jump\t// out\n        /* \"#utility.yul\":4936:5054   */\n    tag_356:\n        /* \"#utility.yul\":5023:5047   */\n      tag_464\n        /* \"#utility.yul\":5041:5046   */\n      dup2\n        /* \"#utility.yul\":5023:5047   */\n      tag_355\n      jump\t// in\n    tag_464:\n        /* \"#utility.yul\":5018:5021   */\n      dup3\n        /* \"#utility.yul\":5011:5048   */\n      mstore\n        /* \"#utility.yul\":4936:5054   */\n      pop\n      pop\n      jump\t// out\n        /* \"#utility.yul\":5060:5282   */\n    tag_52:\n        /* \"#utility.yul\":5153:5157   */\n      0x00\n        /* \"#utility.yul\":5191:5193   */\n      0x20\n        /* \"#utility.yul\":5180:5189   */\n      dup3\n        /* \"#utility.yul\":5176:5194   */\n      add\n        /* \"#utility.yul\":5168:5194   */\n      swap1\n      pop\n        /* \"#utility.yul\":5204:5275   */\n      tag_466\n        /* \"#utility.yul\":5272:5273   */\n      0x00\n        /* \"#utility.yul\":5261:5270   */\n      dup4\n        /* \"#utility.yul\":5257:5274   */\n      add\n        /* \"#utility.yul\":5248:5254   */\n      dup5\n        /* \"#utility.yul\":5204:5275   */\n      tag_356\n      jump\t// in\n    tag_466:\n        /* \"#utility.yul\":5060:5282   */\n      swap3\n      swap2\n      pop\n      pop\n      jump\t// out\n        /* \"#utility.yul\":5288:5617   */\n    tag_62:\n        /* \"#utility.yul\":5347:5353   */\n      0x00\n        /* \"#utility.yul\":5396:5398   */\n      0x20\n        /* \"#utility.yul\":5384:5393   */\n      dup3\n        /* \"#utility.yul\":5375:5382   */\n      dup5\n        /* \"#utility.yul\":5371:5394   */\n      sub\n        /* \"#utility.yul\":5367:5399   */\n      slt\n        /* \"#utility.yul\":5364:5483   */\n      iszero\n      tag_468\n      jumpi\n        /* \"#utility.yul\":5402:5481   */\n      tag_469\n      tag_341\n      jump\t// in\n    tag_469:\n        /* \"#utility.yul\":5364:5483   */\n    tag_468:\n        /* \"#utility.yul\":5522:5523   */\n      0x00\n        /* \"#utility.yul\":5547:5600   */\n      tag_470\n        /* \"#utility.yul\":5592:5599   */\n      dup5\n        /* \"#utility.yul\":5583:5589   */\n      dup3\n        /* \"#utility.yul\":5572:5581   */\n      dup6\n        /* \"#utility.yul\":5568:5590   */\n      add\n        /* \"#utility.yul\":5547:5600   */\n      tag_349\n      jump\t// in\n    tag_470:\n        /* \"#utility.yul\":5537:5600   */\n      swap2\n      pop\n        /* \"#utility.yul\":5493:5610   */\n      pop\n        /* \"#utility.yul\":5288:5617   */\n      swap3\n      swap2\n      pop\n      pop\n      jump\t// out\n        /* \"#utility.yul\":5623:5952   */\n    tag_66:\n        /* \"#utility.yul\":5682:5688   */\n      0x00\n        /* \"#utility.yul\":5731:5733   */\n      0x20\n        /* \"#utility.yul\":5719:5728   */\n      dup3\n        /* \"#utility.yul\":5710:5717   */\n      dup5\n        /* \"#utility.yul\":5706:5729   */\n      sub\n        /* \"#utility.yul\":5702:5734   */\n      slt\n        /* \"#utility.yul\":5699:5818   */\n      iszero\n      tag_472\n      jumpi\n        /* \"#utility.yul\":5737:5816   */\n      tag_473\n      tag_341\n      jump\t// in\n    tag_473:\n        /* \"#utility.yul\":5699:5818   */\n    tag_472:\n        /* \"#utility.yul\":5857:5858   */\n      0x00\n        /* \"#utility.yul\":5882:5935   */\n      tag_474\n        /* \"#utility.yul\":5927:5934   */\n      dup5\n        /* \"#utility.yul\":5918:5924   */\n      dup3\n        /* \"#utility.yul\":5907:5916   */\n      dup6\n        /* \"#utility.yul\":5903:5925   */\n      add\n        /* \"#utility.yul\":5882:5935   */\n      tag_346\n      jump\t// in\n    tag_474:\n        /* \"#utility.yul\":5872:5935   */\n      swap2\n      pop\n        /* \"#utility.yul\":5828:5945   */\n      pop\n        /* \"#utility.yul\":5623:5952   */\n      swap3\n      swap2\n      pop\n      pop\n      jump\t// out\n        /* \"#utility.yul\":5958:6076   */\n    tag_357:\n        /* \"#utility.yul\":6045:6069   */\n      tag_476\n        /* \"#utility.yul\":6063:6068   */\n      dup2\n        /* \"#utility.yul\":6045:6069   */\n      tag_344\n      jump\t// in\n    tag_476:\n        /* \"#utility.yul\":6040:6043   */\n      dup3\n        /* \"#utility.yul\":6033:6070   */\n      mstore\n        /* \"#utility.yul\":5958:6076   */\n      pop\n      pop\n      jump\t// out\n        /* \"#utility.yul\":6082:6304   */\n    tag_81:\n        /* \"#utility.yul\":6175:6179   */\n      0x00\n        /* \"#utility.yul\":6213:6215   */\n      0x20\n        /* \"#utility.yul\":6202:6211   */\n      dup3\n        /* \"#utility.yul\":6198:6216   */\n      add\n        /* \"#utility.yul\":6190:6216   */\n      swap1\n      pop\n        /* \"#utility.yul\":6226:6297   */\n      tag_478\n        /* \"#utility.yul\":6294:6295   */\n      0x00\n        /* \"#utility.yul\":6283:6292   */\n      dup4\n        /* \"#utility.yul\":6279:6296   */\n      add\n        /* \"#utility.yul\":6270:6276   */\n      dup5\n        /* \"#utility.yul\":6226:6297   */\n      tag_357\n      jump\t// in\n    tag_478:\n        /* \"#utility.yul\":6082:6304   */\n      swap3\n      swap2\n      pop\n      pop\n      jump\t// out\n        /* \"#utility.yul\":6310:6428   */\n    tag_358:\n        /* \"#utility.yul\":6381:6403   */\n      tag_480\n        /* \"#utility.yul\":6397:6402   */\n      dup2\n        /* \"#utility.yul\":6381:6403   */\n      tag_353\n      jump\t// in\n    tag_480:\n        /* \"#utility.yul\":6374:6379   */\n      dup2\n        /* \"#utility.yul\":6371:6404   */\n      eq\n        /* \"#utility.yul\":6361:6422   */\n      tag_481\n      jumpi\n        /* \"#utility.yul\":6418:6419   */\n      0x00\n        /* \"#utility.yul\":6415:6416   */\n      dup1\n        /* \"#utility.yul\":6408:6420   */\n      revert\n        /* \"#utility.yul\":6361:6422   */\n    tag_481:\n        /* \"#utility.yul\":6310:6428   */\n      pop\n      jump\t// out\n        /* \"#utility.yul\":6434:6569   */\n    tag_359:\n        /* \"#utility.yul\":6478:6483   */\n      0x00\n        /* \"#utility.yul\":6516:6522   */\n      dup2\n        /* \"#utility.yul\":6503:6523   */\n      calldataload\n        /* \"#utility.yul\":6494:6523   */\n      swap1\n      pop\n        /* \"#utility.yul\":6532:6563   */\n      tag_483\n        /* \"#utility.yul\":6557:6562   */\n      dup2\n        /* \"#utility.yul\":6532:6563   */\n      tag_358\n      jump\t// in\n    tag_483:\n        /* \"#utility.yul\":6434:6569   */\n      swap3\n      swap2\n      pop\n      pop\n      jump\t// out\n        /* \"#utility.yul\":6575:6697   */\n    tag_360:\n        /* \"#utility.yul\":6648:6672   */\n      tag_485\n        /* \"#utility.yul\":6666:6671   */\n      dup2\n        /* \"#utility.yul\":6648:6672   */\n      tag_355\n      jump\t// in\n    tag_485:\n        /* \"#utility.yul\":6641:6646   */\n      dup2\n        /* \"#utility.yul\":6638:6673   */\n      eq\n        /* \"#utility.yul\":6628:6691   */\n      tag_486\n      jumpi\n        /* \"#utility.yul\":6687:6688   */\n      0x00\n        /* \"#utility.yul\":6684:6685   */\n      dup1\n        /* \"#utility.yul\":6677:6689   */\n      revert\n        /* \"#utility.yul\":6628:6691   */\n    tag_486:\n        /* \"#utility.yul\":6575:6697   */\n      pop\n      jump\t// out\n        /* \"#utility.yul\":6703:6842   */\n    tag_361:\n        /* \"#utility.yul\":6749:6754   */\n      0x00\n        /* \"#utility.yul\":6787:6793   */\n      dup2\n        /* \"#utility.yul\":6774:6794   */\n      calldataload\n        /* \"#utility.yul\":6765:6794   */\n      swap1\n      pop\n        /* \"#utility.yul\":6803:6836   */\n      tag_488\n        /* \"#utility.yul\":6830:6835   */\n      dup2\n        /* \"#utility.yul\":6803:6836   */\n      tag_360\n      jump\t// in\n    tag_488:\n        /* \"#utility.yul\":6703:6842   */\n      swap3\n      swap2\n      pop\n      pop\n      jump\t// out\n        /* \"#utility.yul\":6848:8047   */\n    tag_95:\n        /* \"#utility.yul\":6959:6965   */\n      0x00\n        /* \"#utility.yul\":6967:6973   */\n      dup1\n        /* \"#utility.yul\":6975:6981   */\n      0x00\n        /* \"#utility.yul\":6983:6989   */\n      dup1\n        /* \"#utility.yul\":6991:6997   */\n      0x00\n        /* \"#utility.yul\":6999:7005   */\n      dup1\n        /* \"#utility.yul\":7007:7013   */\n      0x00\n        /* \"#utility.yul\":7056:7059   */\n      0xe0\n        /* \"#utility.yul\":7044:7053   */\n      dup9\n        /* \"#utility.yul\":7035:7042   */\n      dup11\n        /* \"#utility.yul\":7031:7054   */\n      sub\n        /* \"#utility.yul\":7027:7060   */\n      slt\n        /* \"#utility.yul\":7024:7144   */\n      iszero\n      tag_490\n      jumpi\n        /* \"#utility.yul\":7063:7142   */\n      tag_491\n      tag_341\n      jump\t// in\n    tag_491:\n        /* \"#utility.yul\":7024:7144   */\n    tag_490:\n        /* \"#utility.yul\":7183:7184   */\n      0x00\n        /* \"#utility.yul\":7208:7261   */\n      tag_492\n        /* \"#utility.yul\":7253:7260   */\n      dup11\n        /* \"#utility.yul\":7244:7250   */\n      dup3\n        /* \"#utility.yul\":7233:7242   */\n      dup12\n        /* \"#utility.yul\":7229:7251   */\n      add\n        /* \"#utility.yul\":7208:7261   */\n      tag_346\n      jump\t// in\n    tag_492:\n        /* \"#utility.yul\":7198:7261   */\n      swap8\n      pop\n        /* \"#utility.yul\":7154:7271   */\n      pop\n        /* \"#utility.yul\":7310:7312   */\n      0x20\n        /* \"#utility.yul\":7336:7389   */\n      tag_493\n        /* \"#utility.yul\":7381:7388   */\n      dup11\n        /* \"#utility.yul\":7372:7378   */\n      dup3\n        /* \"#utility.yul\":7361:7370   */\n      dup12\n        /* \"#utility.yul\":7357:7379   */\n      add\n        /* \"#utility.yul\":7336:7389   */\n      tag_346\n      jump\t// in\n    tag_493:\n        /* \"#utility.yul\":7326:7389   */\n      swap7\n      pop\n        /* \"#utility.yul\":7281:7399   */\n      pop\n        /* \"#utility.yul\":7438:7440   */\n      0x40\n        /* \"#utility.yul\":7464:7517   */\n      tag_494\n        /* \"#utility.yul\":7509:7516   */\n      dup11\n        /* \"#utility.yul\":7500:7506   */\n      dup3\n        /* \"#utility.yul\":7489:7498   */\n      dup12\n        /* \"#utility.yul\":7485:7507   */\n      add\n        /* \"#utility.yul\":7464:7517   */\n      tag_349\n      jump\t// in\n    tag_494:\n        /* \"#utility.yul\":7454:7517   */\n      swap6\n      pop\n        /* \"#utility.yul\":7409:7527   */\n      pop\n        /* \"#utility.yul\":7566:7568   */\n      0x60\n        /* \"#utility.yul\":7592:7645   */\n      tag_495\n        /* \"#utility.yul\":7637:7644   */\n      dup11\n        /* \"#utility.yul\":7628:7634   */\n      dup3\n        /* \"#utility.yul\":7617:7626   */\n      dup12\n        /* \"#utility.yul\":7613:7635   */\n      add\n        /* \"#utility.yul\":7592:7645   */\n      tag_349\n      jump\t// in\n    tag_495:\n        /* \"#utility.yul\":7582:7645   */\n      swap5\n      pop\n        /* \"#utility.yul\":7537:7655   */\n      pop\n        /* \"#utility.yul\":7694:7697   */\n      0x80\n        /* \"#utility.yul\":7721:7772   */\n      tag_496\n        /* \"#utility.yul\":7764:7771   */\n      dup11\n        /* \"#utility.yul\":7755:7761   */\n      dup3\n        /* \"#utility.yul\":7744:7753   */\n      dup12\n        /* \"#utility.yul\":7740:7762   */\n      add\n        /* \"#utility.yul\":7721:7772   */\n      tag_359\n      jump\t// in\n    tag_496:\n        /* \"#utility.yul\":7711:7772   */\n      swap4\n      pop\n        /* \"#utility.yul\":7665:7782   */\n      pop\n        /* \"#utility.yul\":7821:7824   */\n      0xa0\n        /* \"#utility.yul\":7848:7901   */\n      tag_497\n        /* \"#utility.yul\":7893:7900   */\n      dup11\n        /* \"#utility.yul\":7884:7890   */\n      dup3\n        /* \"#utility.yul\":7873:7882   */\n      dup12\n        /* \"#utility.yul\":7869:7891   */\n      add\n        /* \"#utility.yul\":7848:7901   */\n      tag_361\n      jump\t// in\n    tag_497:\n        /* \"#utility.yul\":7838:7901   */\n      swap3\n      pop\n        /* \"#utility.yul\":7792:7911   */\n      pop\n        /* \"#utility.yul\":7950:7953   */\n      0xc0\n        /* \"#utility.yul\":7977:8030   */\n      tag_498\n        /* \"#utility.yul\":8022:8029   */\n      dup11\n        /* \"#utility.yul\":8013:8019   */\n      dup3\n        /* \"#utility.yul\":8002:8011   */\n      dup12\n        /* \"#utility.yul\":7998:8020   */\n      add\n        /* \"#utility.yul\":7977:8030   */\n      tag_361\n      jump\t// in\n    tag_498:\n        /* \"#utility.yul\":7967:8030   */\n      swap2\n      pop\n        /* \"#utility.yul\":7921:8040   */\n      pop\n        /* \"#utility.yul\":6848:8047   */\n      swap3\n      swap6\n      swap9\n      swap2\n      swap5\n      swap8\n      pop\n      swap3\n      swap6\n      pop\n      jump\t// out\n        /* \"#utility.yul\":8053:8527   */\n    tag_99:\n        /* \"#utility.yul\":8121:8127   */\n      0x00\n        /* \"#utility.yul\":8129:8135   */\n      dup1\n        /* \"#utility.yul\":8178:8180   */\n      0x40\n        /* \"#utility.yul\":8166:8175   */\n      dup4\n        /* \"#utility.yul\":8157:8164   */\n      dup6\n        /* \"#utility.yul\":8153:8176   */\n      sub\n        /* \"#utility.yul\":8149:8181   */\n      slt\n        /* \"#utility.yul\":8146:8265   */\n      iszero\n      tag_500\n      jumpi\n        /* \"#utility.yul\":8184:8263   */\n      tag_501\n      tag_341\n      jump\t// in\n    tag_501:\n        /* \"#utility.yul\":8146:8265   */\n    tag_500:\n        /* \"#utility.yul\":8304:8305   */\n      0x00\n        /* \"#utility.yul\":8329:8382   */\n      tag_502\n        /* \"#utility.yul\":8374:8381   */\n      dup6\n        /* \"#utility.yul\":8365:8371   */\n      dup3\n        /* \"#utility.yul\":8354:8363   */\n      dup7\n        /* \"#utility.yul\":8350:8372   */\n      add\n        /* \"#utility.yul\":8329:8382   */\n      tag_346\n      jump\t// in\n    tag_502:\n        /* \"#utility.yul\":8319:8382   */\n      swap3\n      pop\n        /* \"#utility.yul\":8275:8392   */\n      pop\n        /* \"#utility.yul\":8431:8433   */\n      0x20\n        /* \"#utility.yul\":8457:8510   */\n      tag_503\n        /* \"#utility.yul\":8502:8509   */\n      dup6\n        /* \"#utility.yul\":8493:8499   */\n      dup3\n        /* \"#utility.yul\":8482:8491   */\n      dup7\n        /* \"#utility.yul\":8478:8500   */\n      add\n        /* \"#utility.yul\":8457:8510   */\n      tag_346\n      jump\t// in\n    tag_503:\n        /* \"#utility.yul\":8447:8510   */\n      swap2\n      pop\n        /* \"#utility.yul\":8402:8520   */\n      pop\n        /* \"#utility.yul\":8053:8527   */\n      swap3\n      pop\n      swap3\n      swap1\n      pop\n      jump\t// out\n        /* \"#utility.yul\":8533:8713   */\n    tag_362:\n        /* \"#utility.yul\":8581:8658   */\n      0x4e487b7100000000000000000000000000000000000000000000000000000000\n        /* \"#utility.yul\":8578:8579   */\n      0x00\n        /* \"#utility.yul\":8571:8659   */\n      mstore\n        /* \"#utility.yul\":8678:8682   */\n      0x22\n        /* \"#utility.yul\":8675:8676   */\n      0x04\n        /* \"#utility.yul\":8668:8683   */\n      mstore\n        /* \"#utility.yul\":8702:8706   */\n      0x24\n        /* \"#utility.yul\":8699:8700   */\n      0x00\n        /* \"#utility.yul\":8692:8707   */\n      revert\n        /* \"#utility.yul\":8719:9039   */\n    tag_107:\n        /* \"#utility.yul\":8763:8769   */\n      0x00\n        /* \"#utility.yul\":8800:8801   */\n      0x02\n        /* \"#utility.yul\":8794:8798   */\n      dup3\n        /* \"#utility.yul\":8790:8802   */\n      div\n        /* \"#utility.yul\":8780:8802   */\n      swap1\n      pop\n        /* \"#utility.yul\":8847:8848   */\n      0x01\n        /* \"#utility.yul\":8841:8845   */\n      dup3\n        /* \"#utility.yul\":8837:8849   */\n      and\n        /* \"#utility.yul\":8868:8886   */\n      dup1\n        /* \"#utility.yul\":8858:8939   */\n      tag_506\n      jumpi\n        /* \"#utility.yul\":8924:8928   */\n      0x7f\n        /* \"#utility.yul\":8916:8922   */\n      dup3\n        /* \"#utility.yul\":8912:8929   */\n      and\n        /* \"#utility.yul\":8902:8929   */\n      swap2\n      pop\n        /* \"#utility.yul\":8858:8939   */\n    tag_506:\n        /* \"#utility.yul\":8986:8988   */\n      0x20\n        /* \"#utility.yul\":8978:8984   */\n      dup3\n        /* \"#utility.yul\":8975:8989   */\n      lt\n        /* \"#utility.yul\":8955:8973   */\n      dup2\n        /* \"#utility.yul\":8952:8990   */\n      sub\n        /* \"#utility.yul\":8949:9033   */\n      tag_507\n      jumpi\n        /* \"#utility.yul\":9005:9023   */\n      tag_508\n      tag_362\n      jump\t// in\n    tag_508:\n        /* \"#utility.yul\":8949:9033   */\n    tag_507:\n        /* \"#utility.yul\":8770:9039   */\n      pop\n        /* \"#utility.yul\":8719:9039   */\n      swap2\n      swap1\n      pop\n      jump\t// out\n        /* \"#utility.yul\":9045:9225   */\n    tag_363:\n        /* \"#utility.yul\":9093:9170   */\n      0x4e487b7100000000000000000000000000000000000000000000000000000000\n        /* \"#utility.yul\":9090:9091   */\n      0x00\n        /* \"#utility.yul\":9083:9171   */\n      mstore\n        /* \"#utility.yul\":9190:9194   */\n      0x11\n        /* \"#utility.yul\":9187:9188   */\n      0x04\n        /* \"#utility.yul\":9180:9195   */\n      mstore\n        /* \"#utility.yul\":9214:9218   */\n      0x24\n        /* \"#utility.yul\":9211:9212   */\n      0x00\n        /* \"#utility.yul\":9204:9219   */\n      revert\n        /* \"#utility.yul\":9231:9422   */\n    tag_133:\n        /* \"#utility.yul\":9271:9274   */\n      0x00\n        /* \"#utility.yul\":9290:9310   */\n      tag_511\n        /* \"#utility.yul\":9308:9309   */\n      dup3\n        /* \"#utility.yul\":9290:9310   */\n      tag_347\n      jump\t// in\n    tag_511:\n        /* \"#utility.yul\":9285:9310   */\n      swap2\n      pop\n        /* \"#utility.yul\":9324:9344   */\n      tag_512\n        /* \"#utility.yul\":9342:9343   */\n      dup4\n        /* \"#utility.yul\":9324:9344   */\n      tag_347\n      jump\t// in\n    tag_512:\n        /* \"#utility.yul\":9319:9344   */\n      swap3\n      pop\n        /* \"#utility.yul\":9367:9368   */\n      dup3\n        /* \"#utility.yul\":9364:9365   */\n      dup3\n        /* \"#utility.yul\":9360:9369   */\n      add\n        /* \"#utility.yul\":9353:9369   */\n      swap1\n      pop\n        /* \"#utility.yul\":9388:9391   */\n      dup1\n        /* \"#utility.yul\":9385:9386   */\n      dup3\n        /* \"#utility.yul\":9382:9392   */\n      gt\n        /* \"#utility.yul\":9379:9415   */\n      iszero\n      tag_513\n      jumpi\n        /* \"#utility.yul\":9395:9413   */\n      tag_514\n      tag_363\n      jump\t// in\n    tag_514:\n        /* \"#utility.yul\":9379:9415   */\n    tag_513:\n        /* \"#utility.yul\":9231:9422   */\n      swap3\n      swap2\n      pop\n      pop\n      jump\t// out\n        /* \"#utility.yul\":9428:9652   */\n    tag_364:\n        /* \"#utility.yul\":9568:9602   */\n      0x45524332303a2064656372656173656420616c6c6f77616e63652062656c6f77\n        /* \"#utility.yul\":9564:9565   */\n      0x00\n        /* \"#utility.yul\":9556:9562   */\n      dup3\n        /* \"#utility.yul\":9552:9566   */\n      add\n        /* \"#utility.yul\":9545:9603   */\n      mstore\n        /* \"#utility.yul\":9637:9644   */\n      0x207a65726f000000000000000000000000000000000000000000000000000000\n        /* \"#utility.yul\":9632:9634   */\n      0x20\n        /* \"#utility.yul\":9624:9630   */\n      dup3\n        /* \"#utility.yul\":9620:9635   */\n      add\n        /* \"#utility.yul\":9613:9645   */\n      mstore\n        /* \"#utility.yul\":9428:9652   */\n      pop\n      jump\t// out\n        /* \"#utility.yul\":9658:10024   */\n    tag_365:\n        /* \"#utility.yul\":9800:9803   */\n      0x00\n        /* \"#utility.yul\":9821:9888   */\n      tag_517\n        /* \"#utility.yul\":9885:9887   */\n      0x25\n        /* \"#utility.yul\":9880:9883   */\n      dup4\n        /* \"#utility.yul\":9821:9888   */\n      tag_336\n      jump\t// in\n    tag_517:\n        /* \"#utility.yul\":9814:9888   */\n      swap2\n      pop\n        /* \"#utility.yul\":9897:9990   */\n      tag_518\n        /* \"#utility.yul\":9986:9989   */\n      dup3\n        /* \"#utility.yul\":9897:9990   */\n      tag_364\n      jump\t// in\n    tag_518:\n        /* \"#utility.yul\":10015:10017   */\n      0x40\n        /* \"#utility.yul\":10010:10013   */\n      dup3\n        /* \"#utility.yul\":10006:10018   */\n      add\n        /* \"#utility.yul\":9999:10018   */\n      swap1\n      pop\n        /* \"#utility.yul\":9658:10024   */\n      swap2\n      swap1\n      pop\n      jump\t// out\n        /* \"#utility.yul\":10030:10449   */\n    tag_169:\n        /* \"#utility.yul\":10196:10200   */\n      0x00\n        /* \"#utility.yul\":10234:10236   */\n      0x20\n        /* \"#utility.yul\":10223:10232   */\n      dup3\n        /* \"#utility.yul\":10219:10237   */\n      add\n        /* \"#utility.yul\":10211:10237   */\n      swap1\n      pop\n        /* \"#utility.yul\":10283:10292   */\n      dup2\n        /* \"#utility.yul\":10277:10281   */\n      dup2\n        /* \"#utility.yul\":10273:10293   */\n      sub\n        /* \"#utility.yul\":10269:10270   */\n      0x00\n        /* \"#utility.yul\":10258:10267   */\n      dup4\n        /* \"#utility.yul\":10254:10271   */\n      add\n        /* \"#utility.yul\":10247:10294   */\n      mstore\n        /* \"#utility.yul\":10311:10442   */\n      tag_520\n        /* \"#utility.yul\":10437:10441   */\n      dup2\n        /* \"#utility.yul\":10311:10442   */\n      tag_365\n      jump\t// in\n    tag_520:\n        /* \"#utility.yul\":10303:10442   */\n      swap1\n      pop\n        /* \"#utility.yul\":10030:10449   */\n      swap2\n      swap1\n      pop\n      jump\t// out\n        /* \"#utility.yul\":10455:10634   */\n    tag_366:\n        /* \"#utility.yul\":10595:10626   */\n      0x45524332305065726d69743a206578706972656420646561646c696e65000000\n        /* \"#utility.yul\":10591:10592   */\n      0x00\n        /* \"#utility.yul\":10583:10589   */\n      dup3\n        /* \"#utility.yul\":10579:10593   */\n      add\n        /* \"#utility.yul\":10572:10627   */\n      mstore\n        /* \"#utility.yul\":10455:10634   */\n      pop\n      jump\t// out\n        /* \"#utility.yul\":10640:11006   */\n    tag_367:\n        /* \"#utility.yul\":10782:10785   */\n      0x00\n        /* \"#utility.yul\":10803:10870   */\n      tag_523\n        /* \"#utility.yul\":10867:10869   */\n      0x1d\n        /* \"#utility.yul\":10862:10865   */\n      dup4\n        /* \"#utility.yul\":10803:10870   */\n      tag_336\n      jump\t// in\n    tag_523:\n        /* \"#utility.yul\":10796:10870   */\n      swap2\n      pop\n        /* \"#utility.yul\":10879:10972   */\n      tag_524\n        /* \"#utility.yul\":10968:10971   */\n      dup3\n        /* \"#utility.yul\":10879:10972   */\n      tag_366\n      jump\t// in\n    tag_524:\n        /* \"#utility.yul\":10997:10999   */\n      0x20\n        /* \"#utility.yul\":10992:10995   */\n      dup3\n        /* \"#utility.yul\":10988:11000   */\n      add\n        /* \"#utility.yul\":10981:11000   */\n      swap1\n      pop\n        /* \"#utility.yul\":10640:11006   */\n      swap2\n      swap1\n      pop\n      jump\t// out\n        /* \"#utility.yul\":11012:11431   */\n    tag_177:\n        /* \"#utility.yul\":11178:11182   */\n      0x00\n        /* \"#utility.yul\":11216:11218   */\n      0x20\n        /* \"#utility.yul\":11205:11214   */\n      dup3\n        /* \"#utility.yul\":11201:11219   */\n      add\n        /* \"#utility.yul\":11193:11219   */\n      swap1\n      pop\n        /* \"#utility.yul\":11265:11274   */\n      dup2\n        /* \"#utility.yul\":11259:11263   */\n      dup2\n        /* \"#utility.yul\":11255:11275   */\n      sub\n        /* \"#utility.yul\":11251:11252   */\n      0x00\n        /* \"#utility.yul\":11240:11249   */\n      dup4\n        /* \"#utility.yul\":11236:11253   */\n      add\n        /* \"#utility.yul\":11229:11276   */\n      mstore\n        /* \"#utility.yul\":11293:11424   */\n      tag_526\n        /* \"#utility.yul\":11419:11423   */\n      dup2\n        /* \"#utility.yul\":11293:11424   */\n      tag_367\n      jump\t// in\n    tag_526:\n        /* \"#utility.yul\":11285:11424   */\n      swap1\n      pop\n        /* \"#utility.yul\":11012:11431   */\n      swap2\n      swap1\n      pop\n      jump\t// out\n        /* \"#utility.yul\":11437:12212   */\n    tag_181:\n        /* \"#utility.yul\":11670:11674   */\n      0x00\n        /* \"#utility.yul\":11708:11711   */\n      0xc0\n        /* \"#utility.yul\":11697:11706   */\n      dup3\n        /* \"#utility.yul\":11693:11712   */\n      add\n        /* \"#utility.yul\":11685:11712   */\n      swap1\n      pop\n        /* \"#utility.yul\":11722:11793   */\n      tag_528\n        /* \"#utility.yul\":11790:11791   */\n      0x00\n        /* \"#utility.yul\":11779:11788   */\n      dup4\n        /* \"#utility.yul\":11775:11792   */\n      add\n        /* \"#utility.yul\":11766:11772   */\n      dup10\n        /* \"#utility.yul\":11722:11793   */\n      tag_356\n      jump\t// in\n    tag_528:\n        /* \"#utility.yul\":11803:11875   */\n      tag_529\n        /* \"#utility.yul\":11871:11873   */\n      0x20\n        /* \"#utility.yul\":11860:11869   */\n      dup4\n        /* \"#utility.yul\":11856:11874   */\n      add\n        /* \"#utility.yul\":11847:11853   */\n      dup9\n        /* \"#utility.yul\":11803:11875   */\n      tag_357\n      jump\t// in\n    tag_529:\n        /* \"#utility.yul\":11885:11957   */\n      tag_530\n        /* \"#utility.yul\":11953:11955   */\n      0x40\n        /* \"#utility.yul\":11942:11951   */\n      dup4\n        /* \"#utility.yul\":11938:11956   */\n      add\n        /* \"#utility.yul\":11929:11935   */\n      dup8\n        /* \"#utility.yul\":11885:11957   */\n      tag_357\n      jump\t// in\n    tag_530:\n        /* \"#utility.yul\":11967:12039   */\n      tag_531\n        /* \"#utility.yul\":12035:12037   */\n      0x60\n        /* \"#utility.yul\":12024:12033   */\n      dup4\n        /* \"#utility.yul\":12020:12038   */\n      add\n        /* \"#utility.yul\":12011:12017   */\n      dup7\n        /* \"#utility.yul\":11967:12039   */\n      tag_352\n      jump\t// in\n    tag_531:\n        /* \"#utility.yul\":12049:12122   */\n      tag_532\n        /* \"#utility.yul\":12117:12120   */\n      0x80\n        /* \"#utility.yul\":12106:12115   */\n      dup4\n        /* \"#utility.yul\":12102:12121   */\n      add\n        /* \"#utility.yul\":12093:12099   */\n      dup6\n        /* \"#utility.yul\":12049:12122   */\n      tag_352\n      jump\t// in\n    tag_532:\n        /* \"#utility.yul\":12132:12205   */\n      tag_533\n        /* \"#utility.yul\":12200:12203   */\n      0xa0\n        /* \"#utility.yul\":12189:12198   */\n      dup4\n        /* \"#utility.yul\":12185:12204   */\n      add\n        /* \"#utility.yul\":12176:12182   */\n      dup5\n        /* \"#utility.yul\":12132:12205   */\n      tag_352\n      jump\t// in\n    tag_533:\n        /* \"#utility.yul\":11437:12212   */\n      swap8\n      swap7\n      pop\n      pop\n      pop\n      pop\n      pop\n      pop\n      pop\n      jump\t// out\n        /* \"#utility.yul\":12218:12398   */\n    tag_368:\n        /* \"#utility.yul\":12358:12390   */\n      0x45524332305065726d69743a20696e76616c6964207369676e61747572650000\n        /* \"#utility.yul\":12354:12355   */\n      0x00\n        /* \"#utility.yul\":12346:12352   */\n      dup3\n        /* \"#utility.yul\":12342:12356   */\n      add\n        /* \"#utility.yul\":12335:12391   */\n      mstore\n        /* \"#utility.yul\":12218:12398   */\n      pop\n      jump\t// out\n        /* \"#utility.yul\":12404:12770   */\n    tag_369:\n        /* \"#utility.yul\":12546:12549   */\n      0x00\n        /* \"#utility.yul\":12567:12634   */\n      tag_536\n        /* \"#utility.yul\":12631:12633   */\n      0x1e\n        /* \"#utility.yul\":12626:12629   */\n      dup4\n        /* \"#utility.yul\":12567:12634   */\n      tag_336\n      jump\t// in\n    tag_536:\n        /* \"#utility.yul\":12560:12634   */\n      swap2\n      pop\n        /* \"#utility.yul\":12643:12736   */\n      tag_537\n        /* \"#utility.yul\":12732:12735   */\n      dup3\n        /* \"#utility.yul\":12643:12736   */\n      tag_368\n      jump\t// in\n    tag_537:\n        /* \"#utility.yul\":12761:12763   */\n      0x20\n        /* \"#utility.yul\":12756:12759   */\n      dup3\n        /* \"#utility.yul\":12752:12764   */\n      add\n        /* \"#utility.yul\":12745:12764   */\n      swap1\n      pop\n        /* \"#utility.yul\":12404:12770   */\n      swap2\n      swap1\n      pop\n      jump\t// out\n        /* \"#utility.yul\":12776:13195   */\n    tag_188:\n        /* \"#utility.yul\":12942:12946   */\n      0x00\n        /* \"#utility.yul\":12980:12982   */\n      0x20\n        /* \"#utility.yul\":12969:12978   */\n      dup3\n        /* \"#utility.yul\":12965:12983   */\n      add\n        /* \"#utility.yul\":12957:12983   */\n      swap1\n      pop\n        /* \"#utility.yul\":13029:13038   */\n      dup2\n        /* \"#utility.yul\":13023:13027   */\n      dup2\n        /* \"#utility.yul\":13019:13039   */\n      sub\n        /* \"#utility.yul\":13015:13016   */\n      0x00\n        /* \"#utility.yul\":13004:13013   */\n      dup4\n        /* \"#utility.yul\":13000:13017   */\n      add\n        /* \"#utility.yul\":12993:13040   */\n      mstore\n        /* \"#utility.yul\":13057:13188   */\n      tag_539\n        /* \"#utility.yul\":13183:13187   */\n      dup2\n        /* \"#utility.yul\":13057:13188   */\n      tag_369\n      jump\t// in\n    tag_539:\n        /* \"#utility.yul\":13049:13188   */\n      swap1\n      pop\n        /* \"#utility.yul\":12776:13195   */\n      swap2\n      swap1\n      pop\n      jump\t// out\n        /* \"#utility.yul\":13201:13426   */\n    tag_370:\n        /* \"#utility.yul\":13341:13375   */\n      0x4f776e61626c653a206e6577206f776e657220697320746865207a65726f2061\n        /* \"#utility.yul\":13337:13338   */\n      0x00\n        /* \"#utility.yul\":13329:13335   */\n      dup3\n        /* \"#utility.yul\":13325:13339   */\n      add\n        /* \"#utility.yul\":13318:13376   */\n      mstore\n        /* \"#utility.yul\":13410:13418   */\n      0x6464726573730000000000000000000000000000000000000000000000000000\n        /* \"#utility.yul\":13405:13407   */\n      0x20\n        /* \"#utility.yul\":13397:13403   */\n      dup3\n        /* \"#utility.yul\":13393:13408   */\n      add\n        /* \"#utility.yul\":13386:13419   */\n      mstore\n        /* \"#utility.yul\":13201:13426   */\n      pop\n      jump\t// out\n        /* \"#utility.yul\":13432:13798   */\n    tag_371:\n        /* \"#utility.yul\":13574:13577   */\n      0x00\n        /* \"#utility.yul\":13595:13662   */\n      tag_542\n        /* \"#utility.yul\":13659:13661   */\n      0x26\n        /* \"#utility.yul\":13654:13657   */\n      dup4\n        /* \"#utility.yul\":13595:13662   */\n      tag_336\n      jump\t// in\n    tag_542:\n        /* \"#utility.yul\":13588:13662   */\n      swap2\n      pop\n        /* \"#utility.yul\":13671:13764   */\n      tag_543\n        /* \"#utility.yul\":13760:13763   */\n      dup3\n        /* \"#utility.yul\":13671:13764   */\n      tag_370\n      jump\t// in\n    tag_543:\n        /* \"#utility.yul\":13789:13791   */\n      0x40\n        /* \"#utility.yul\":13784:13787   */\n      dup3\n        /* \"#utility.yul\":13780:13792   */\n      add\n        /* \"#utility.yul\":13773:13792   */\n      swap1\n      pop\n        /* \"#utility.yul\":13432:13798   */\n      swap2\n      swap1\n      pop\n      jump\t// out\n        /* \"#utility.yul\":13804:14223   */\n    tag_196:\n        /* \"#utility.yul\":13970:13974   */\n      0x00\n        /* \"#utility.yul\":14008:14010   */\n      0x20\n        /* \"#utility.yul\":13997:14006   */\n      dup3\n        /* \"#utility.yul\":13993:14011   */\n      add\n        /* \"#utility.yul\":13985:14011   */\n      swap1\n      pop\n        /* \"#utility.yul\":14057:14066   */\n      dup2\n        /* \"#utility.yul\":14051:14055   */\n      dup2\n        /* \"#utility.yul\":14047:14067   */\n      sub\n        /* \"#utility.yul\":14043:14044   */\n      0x00\n        /* \"#utility.yul\":14032:14041   */\n      dup4\n        /* \"#utility.yul\":14028:14045   */\n      add\n        /* \"#utility.yul\":14021:14068   */\n      mstore\n        /* \"#utility.yul\":14085:14216   */\n      tag_545\n        /* \"#utility.yul\":14211:14215   */\n      dup2\n        /* \"#utility.yul\":14085:14216   */\n      tag_371\n      jump\t// in\n    tag_545:\n        /* \"#utility.yul\":14077:14216   */\n      swap1\n      pop\n        /* \"#utility.yul\":13804:14223   */\n      swap2\n      swap1\n      pop\n      jump\t// out\n        /* \"#utility.yul\":14229:14452   */\n    tag_372:\n        /* \"#utility.yul\":14369:14403   */\n      0x45524332303a20617070726f76652066726f6d20746865207a65726f20616464\n        /* \"#utility.yul\":14365:14366   */\n      0x00\n        /* \"#utility.yul\":14357:14363   */\n      dup3\n        /* \"#utility.yul\":14353:14367   */\n      add\n        /* \"#utility.yul\":14346:14404   */\n      mstore\n        /* \"#utility.yul\":14438:14444   */\n      0x7265737300000000000000000000000000000000000000000000000000000000\n        /* \"#utility.yul\":14433:14435   */\n      0x20\n        /* \"#utility.yul\":14425:14431   */\n      dup3\n        /* \"#utility.yul\":14421:14436   */\n      add\n        /* \"#utility.yul\":14414:14445   */\n      mstore\n        /* \"#utility.yul\":14229:14452   */\n      pop\n      jump\t// out\n        /* \"#utility.yul\":14458:14824   */\n    tag_373:\n        /* \"#utility.yul\":14600:14603   */\n      0x00\n        /* \"#utility.yul\":14621:14688   */\n      tag_548\n        /* \"#utility.yul\":14685:14687   */\n      0x24\n        /* \"#utility.yul\":14680:14683   */\n      dup4\n        /* \"#utility.yul\":14621:14688   */\n      tag_336\n      jump\t// in\n    tag_548:\n        /* \"#utility.yul\":14614:14688   */\n      swap2\n      pop\n        /* \"#utility.yul\":14697:14790   */\n      tag_549\n        /* \"#utility.yul\":14786:14789   */\n      dup3\n        /* \"#utility.yul\":14697:14790   */\n      tag_372\n      jump\t// in\n    tag_549:\n        /* \"#utility.yul\":14815:14817   */\n      0x40\n        /* \"#utility.yul\":14810:14813   */\n      dup3\n        /* \"#utility.yul\":14806:14818   */\n      add\n        /* \"#utility.yul\":14799:14818   */\n      swap1\n      pop\n        /* \"#utility.yul\":14458:14824   */\n      swap2\n      swap1\n      pop\n      jump\t// out\n        /* \"#utility.yul\":14830:15249   */\n    tag_202:\n        /* \"#utility.yul\":14996:15000   */\n      0x00\n        /* \"#utility.yul\":15034:15036   */\n      0x20\n        /* \"#utility.yul\":15023:15032   */\n      dup3\n        /* \"#utility.yul\":15019:15037   */\n      add\n        /* \"#utility.yul\":15011:15037   */\n      swap1\n      pop\n        /* \"#utility.yul\":15083:15092   */\n      dup2\n        /* \"#utility.yul\":15077:15081   */\n      dup2\n        /* \"#utility.yul\":15073:15093   */\n      sub\n        /* \"#utility.yul\":15069:15070   */\n      0x00\n        /* \"#utility.yul\":15058:15067   */\n      dup4\n        /* \"#utility.yul\":15054:15071   */\n      add\n        /* \"#utility.yul\":15047:15094   */\n      mstore\n        /* \"#utility.yul\":15111:15242   */\n      tag_551\n        /* \"#utility.yul\":15237:15241   */\n      dup2\n        /* \"#utility.yul\":15111:15242   */\n      tag_373\n      jump\t// in\n    tag_551:\n        /* \"#utility.yul\":15103:15242   */\n      swap1\n      pop\n        /* \"#utility.yul\":14830:15249   */\n      swap2\n      swap1\n      pop\n      jump\t// out\n        /* \"#utility.yul\":15255:15476   */\n    tag_374:\n        /* \"#utility.yul\":15395:15429   */\n      0x45524332303a20617070726f766520746f20746865207a65726f206164647265\n        /* \"#utility.yul\":15391:15392   */\n      0x00\n        /* \"#utility.yul\":15383:15389   */\n      dup3\n        /* \"#utility.yul\":15379:15393   */\n      add\n        /* \"#utility.yul\":15372:15430   */\n      mstore\n        /* \"#utility.yul\":15464:15468   */\n      0x7373000000000000000000000000000000000000000000000000000000000000\n        /* \"#utility.yul\":15459:15461   */\n      0x20\n        /* \"#utility.yul\":15451:15457   */\n      dup3\n        /* \"#utility.yul\":15447:15462   */\n      add\n        /* \"#utility.yul\":15440:15469   */\n      mstore\n        /* \"#utility.yul\":15255:15476   */\n      pop\n      jump\t// out\n        /* \"#utility.yul\":15482:15848   */\n    tag_375:\n        /* \"#utility.yul\":15624:15627   */\n      0x00\n        /* \"#utility.yul\":15645:15712   */\n      tag_554\n        /* \"#utility.yul\":15709:15711   */\n      0x22\n        /* \"#utility.yul\":15704:15707   */\n      dup4\n        /* \"#utility.yul\":15645:15712   */\n      tag_336\n      jump\t// in\n    tag_554:\n        /* \"#utility.yul\":15638:15712   */\n      swap2\n      pop\n        /* \"#utility.yul\":15721:15814   */\n      tag_555\n        /* \"#utility.yul\":15810:15813   */\n      dup3\n        /* \"#utility.yul\":15721:15814   */\n      tag_374\n      jump\t// in\n    tag_555:\n        /* \"#utility.yul\":15839:15841   */\n      0x40\n        /* \"#utility.yul\":15834:15837   */\n      dup3\n        /* \"#utility.yul\":15830:15842   */\n      add\n        /* \"#utility.yul\":15823:15842   */\n      swap1\n      pop\n        /* \"#utility.yul\":15482:15848   */\n      swap2\n      swap1\n      pop\n      jump\t// out\n        /* \"#utility.yul\":15854:16273   */\n    tag_205:\n        /* \"#utility.yul\":16020:16024   */\n      0x00\n        /* \"#utility.yul\":16058:16060   */\n      0x20\n        /* \"#utility.yul\":16047:16056   */\n      dup3\n        /* \"#utility.yul\":16043:16061   */\n      add\n        /* \"#utility.yul\":16035:16061   */\n      swap1\n      pop\n        /* \"#utility.yul\":16107:16116   */\n      dup2\n        /* \"#utility.yul\":16101:16105   */\n      dup2\n        /* \"#utility.yul\":16097:16117   */\n      sub\n        /* \"#utility.yul\":16093:16094   */\n      0x00\n        /* \"#utility.yul\":16082:16091   */\n      dup4\n        /* \"#utility.yul\":16078:16095   */\n      add\n        /* \"#utility.yul\":16071:16118   */\n      mstore\n        /* \"#utility.yul\":16135:16266   */\n      tag_557\n        /* \"#utility.yul\":16261:16265   */\n      dup2\n        /* \"#utility.yul\":16135:16266   */\n      tag_375\n      jump\t// in\n    tag_557:\n        /* \"#utility.yul\":16127:16266   */\n      swap1\n      pop\n        /* \"#utility.yul\":15854:16273   */\n      swap2\n      swap1\n      pop\n      jump\t// out\n        /* \"#utility.yul\":16279:16458   */\n    tag_376:\n        /* \"#utility.yul\":16419:16450   */\n      0x45524332303a20696e73756666696369656e7420616c6c6f77616e6365000000\n        /* \"#utility.yul\":16415:16416   */\n      0x00\n        /* \"#utility.yul\":16407:16413   */\n      dup3\n        /* \"#utility.yul\":16403:16417   */\n      add\n        /* \"#utility.yul\":16396:16451   */\n      mstore\n        /* \"#utility.yul\":16279:16458   */\n      pop\n      jump\t// out\n        /* \"#utility.yul\":16464:16830   */\n    tag_377:\n        /* \"#utility.yul\":16606:16609   */\n      0x00\n        /* \"#utility.yul\":16627:16694   */\n      tag_560\n        /* \"#utility.yul\":16691:16693   */\n      0x1d\n        /* \"#utility.yul\":16686:16689   */\n      dup4\n        /* \"#utility.yul\":16627:16694   */\n      tag_336\n      jump\t// in\n    tag_560:\n        /* \"#utility.yul\":16620:16694   */\n      swap2\n      pop\n        /* \"#utility.yul\":16703:16796   */\n      tag_561\n        /* \"#utility.yul\":16792:16795   */\n      dup3\n        /* \"#utility.yul\":16703:16796   */\n      tag_376\n      jump\t// in\n    tag_561:\n        /* \"#utility.yul\":16821:16823   */\n      0x20\n        /* \"#utility.yul\":16816:16819   */\n      dup3\n        /* \"#utility.yul\":16812:16824   */\n      add\n        /* \"#utility.yul\":16805:16824   */\n      swap1\n      pop\n        /* \"#utility.yul\":16464:16830   */\n      swap2\n      swap1\n      pop\n      jump\t// out\n        /* \"#utility.yul\":16836:17255   */\n    tag_212:\n        /* \"#utility.yul\":17002:17006   */\n      0x00\n        /* \"#utility.yul\":17040:17042   */\n      0x20\n        /* \"#utility.yul\":17029:17038   */\n      dup3\n        /* \"#utility.yul\":17025:17043   */\n      add\n        /* \"#utility.yul\":17017:17043   */\n      swap1\n      pop\n        /* \"#utility.yul\":17089:17098   */\n      dup2\n        /* \"#utility.yul\":17083:17087   */\n      dup2\n        /* \"#utility.yul\":17079:17099   */\n      sub\n        /* \"#utility.yul\":17075:17076   */\n      0x00\n        /* \"#utility.yul\":17064:17073   */\n      dup4\n        /* \"#utility.yul\":17060:17077   */\n      add\n        /* \"#utility.yul\":17053:17100   */\n      mstore\n        /* \"#utility.yul\":17117:17248   */\n      tag_563\n        /* \"#utility.yul\":17243:17247   */\n      dup2\n        /* \"#utility.yul\":17117:17248   */\n      tag_377\n      jump\t// in\n    tag_563:\n        /* \"#utility.yul\":17109:17248   */\n      swap1\n      pop\n        /* \"#utility.yul\":16836:17255   */\n      swap2\n      swap1\n      pop\n      jump\t// out\n        /* \"#utility.yul\":17261:17485   */\n    tag_378:\n        /* \"#utility.yul\":17401:17435   */\n      0x45524332303a207472616e736665722066726f6d20746865207a65726f206164\n        /* \"#utility.yul\":17397:17398   */\n      0x00\n        /* \"#utility.yul\":17389:17395   */\n      dup3\n        /* \"#utility.yul\":17385:17399   */\n      add\n        /* \"#utility.yul\":17378:17436   */\n      mstore\n        /* \"#utility.yul\":17470:17477   */\n      0x6472657373000000000000000000000000000000000000000000000000000000\n        /* \"#utility.yul\":17465:17467   */\n      0x20\n        /* \"#utility.yul\":17457:17463   */\n      dup3\n        /* \"#utility.yul\":17453:17468   */\n      add\n        /* \"#utility.yul\":17446:17478   */\n      mstore\n        /* \"#utility.yul\":17261:17485   */\n      pop\n      jump\t// out\n        /* \"#utility.yul\":17491:17857   */\n    tag_379:\n        /* \"#utility.yul\":17633:17636   */\n      0x00\n        /* \"#utility.yul\":17654:17721   */\n      tag_566\n        /* \"#utility.yul\":17718:17720   */\n      0x25\n        /* \"#utility.yul\":17713:17716   */\n      dup4\n        /* \"#utility.yul\":17654:17721   */\n      tag_336\n      jump\t// in\n    tag_566:\n        /* \"#utility.yul\":17647:17721   */\n      swap2\n      pop\n        /* \"#utility.yul\":17730:17823   */\n      tag_567\n        /* \"#utility.yul\":17819:17822   */\n      dup3\n        /* \"#utility.yul\":17730:17823   */\n      tag_378\n      jump\t// in\n    tag_567:\n        /* \"#utility.yul\":17848:17850   */\n      0x40\n        /* \"#utility.yul\":17843:17846   */\n      dup3\n        /* \"#utility.yul\":17839:17851   */\n      add\n        /* \"#utility.yul\":17832:17851   */\n      swap1\n      pop\n        /* \"#utility.yul\":17491:17857   */\n      swap2\n      swap1\n      pop\n      jump\t// out\n        /* \"#utility.yul\":17863:18282   */\n    tag_217:\n        /* \"#utility.yul\":18029:18033   */\n      0x00\n        /* \"#utility.yul\":18067:18069   */\n      0x20\n        /* \"#utility.yul\":18056:18065   */\n      dup3\n        /* \"#utility.yul\":18052:18070   */\n      add\n        /* \"#utility.yul\":18044:18070   */\n      swap1\n      pop\n        /* \"#utility.yul\":18116:18125   */\n      dup2\n        /* \"#utility.yul\":18110:18114   */\n      dup2\n        /* \"#utility.yul\":18106:18126   */\n      sub\n        /* \"#utility.yul\":18102:18103   */\n      0x00\n        /* \"#utility.yul\":18091:18100   */\n      dup4\n        /* \"#utility.yul\":18087:18104   */\n      add\n        /* \"#utility.yul\":18080:18127   */\n      mstore\n        /* \"#utility.yul\":18144:18275   */\n      tag_569\n        /* \"#utility.yul\":18270:18274   */\n      dup2\n        /* \"#utility.yul\":18144:18275   */\n      tag_379\n      jump\t// in\n    tag_569:\n        /* \"#utility.yul\":18136:18275   */\n      swap1\n      pop\n        /* \"#utility.yul\":17863:18282   */\n      swap2\n      swap1\n      pop\n      jump\t// out\n        /* \"#utility.yul\":18288:18510   */\n    tag_380:\n        /* \"#utility.yul\":18428:18462   */\n      0x45524332303a207472616e7366657220746f20746865207a65726f2061646472\n        /* \"#utility.yul\":18424:18425   */\n      0x00\n        /* \"#utility.yul\":18416:18422   */\n      dup3\n        /* \"#utility.yul\":18412:18426   */\n      add\n        /* \"#utility.yul\":18405:18463   */\n      mstore\n        /* \"#utility.yul\":18497:18502   */\n      0x6573730000000000000000000000000000000000000000000000000000000000\n        /* \"#utility.yul\":18492:18494   */\n      0x20\n        /* \"#utility.yul\":18484:18490   */\n      dup3\n        /* \"#utility.yul\":18480:18495   */\n      add\n        /* \"#utility.yul\":18473:18503   */\n      mstore\n        /* \"#utility.yul\":18288:18510   */\n      pop\n      jump\t// out\n        /* \"#utility.yul\":18516:18882   */\n    tag_381:\n        /* \"#utility.yul\":18658:18661   */\n      0x00\n        /* \"#utility.yul\":18679:18746   */\n      tag_572\n        /* \"#utility.yul\":18743:18745   */\n      0x23\n        /* \"#utility.yul\":18738:18741   */\n      dup4\n        /* \"#utility.yul\":18679:18746   */\n      tag_336\n      jump\t// in\n    tag_572:\n        /* \"#utility.yul\":18672:18746   */\n      swap2\n      pop\n        /* \"#utility.yul\":18755:18848   */\n      tag_573\n        /* \"#utility.yul\":18844:18847   */\n      dup3\n        /* \"#utility.yul\":18755:18848   */\n      tag_380\n      jump\t// in\n    tag_573:\n        /* \"#utility.yul\":18873:18875   */\n      0x40\n        /* \"#utility.yul\":18868:18871   */\n      dup3\n        /* \"#utility.yul\":18864:18876   */\n      add\n        /* \"#utility.yul\":18857:18876   */\n      swap1\n      pop\n        /* \"#utility.yul\":18516:18882   */\n      swap2\n      swap1\n      pop\n      jump\t// out\n        /* \"#utility.yul\":18888:19307   */\n    tag_220:\n        /* \"#utility.yul\":19054:19058   */\n      0x00\n        /* \"#utility.yul\":19092:19094   */\n      0x20\n        /* \"#utility.yul\":19081:19090   */\n      dup3\n        /* \"#utility.yul\":19077:19095   */\n      add\n        /* \"#utility.yul\":19069:19095   */\n      swap1\n      pop\n        /* \"#utility.yul\":19141:19150   */\n      dup2\n        /* \"#utility.yul\":19135:19139   */\n      dup2\n        /* \"#utility.yul\":19131:19151   */\n      sub\n        /* \"#utility.yul\":19127:19128   */\n      0x00\n        /* \"#utility.yul\":19116:19125   */\n      dup4\n        /* \"#utility.yul\":19112:19129   */\n      add\n        /* \"#utility.yul\":19105:19152   */\n      mstore\n        /* \"#utility.yul\":19169:19300   */\n      tag_575\n        /* \"#utility.yul\":19295:19299   */\n      dup2\n        /* \"#utility.yul\":19169:19300   */\n      tag_381\n      jump\t// in\n    tag_575:\n        /* \"#utility.yul\":19161:19300   */\n      swap1\n      pop\n        /* \"#utility.yul\":18888:19307   */\n      swap2\n      swap1\n      pop\n      jump\t// out\n        /* \"#utility.yul\":19313:19538   */\n    tag_382:\n        /* \"#utility.yul\":19453:19487   */\n      0x45524332303a207472616e7366657220616d6f756e7420657863656564732062\n        /* \"#utility.yul\":19449:19450   */\n      0x00\n        /* \"#utility.yul\":19441:19447   */\n      dup3\n        /* \"#utility.yul\":19437:19451   */\n      add\n        /* \"#utility.yul\":19430:19488   */\n      mstore\n        /* \"#utility.yul\":19522:19530   */\n      0x616c616e63650000000000000000000000000000000000000000000000000000\n        /* \"#utility.yul\":19517:19519   */\n      0x20\n        /* \"#utility.yul\":19509:19515   */\n      dup3\n        /* \"#utility.yul\":19505:19520   */\n      add\n        /* \"#utility.yul\":19498:19531   */\n      mstore\n        /* \"#utility.yul\":19313:19538   */\n      pop\n      jump\t// out\n        /* \"#utility.yul\":19544:19910   */\n    tag_383:\n        /* \"#utility.yul\":19686:19689   */\n      0x00\n        /* \"#utility.yul\":19707:19774   */\n      tag_578\n        /* \"#utility.yul\":19771:19773   */\n      0x26\n        /* \"#utility.yul\":19766:19769   */\n      dup4\n        /* \"#utility.yul\":19707:19774   */\n      tag_336\n      jump\t// in\n    tag_578:\n        /* \"#utility.yul\":19700:19774   */\n      swap2\n      pop\n        /* \"#utility.yul\":19783:19876   */\n      tag_579\n        /* \"#utility.yul\":19872:19875   */\n      dup3\n        /* \"#utility.yul\":19783:19876   */\n      tag_382\n      jump\t// in\n    tag_579:\n        /* \"#utility.yul\":19901:19903   */\n      0x40\n        /* \"#utility.yul\":19896:19899   */\n      dup3\n        /* \"#utility.yul\":19892:19904   */\n      add\n        /* \"#utility.yul\":19885:19904   */\n      swap1\n      pop\n        /* \"#utility.yul\":19544:19910   */\n      swap2\n      swap1\n      pop\n      jump\t// out\n        /* \"#utility.yul\":19916:20335   */\n    tag_225:\n        /* \"#utility.yul\":20082:20086   */\n      0x00\n        /* \"#utility.yul\":20120:20122   */\n      0x20\n        /* \"#utility.yul\":20109:20118   */\n      dup3\n        /* \"#utility.yul\":20105:20123   */\n      add\n        /* \"#utility.yul\":20097:20123   */\n      swap1\n      pop\n        /* \"#utility.yul\":20169:20178   */\n      dup2\n        /* \"#utility.yul\":20163:20167   */\n      dup2\n        /* \"#utility.yul\":20159:20179   */\n      sub\n        /* \"#utility.yul\":20155:20156   */\n      0x00\n        /* \"#utility.yul\":20144:20153   */\n      dup4\n        /* \"#utility.yul\":20140:20157   */\n      add\n        /* \"#utility.yul\":20133:20180   */\n      mstore\n        /* \"#utility.yul\":20197:20328   */\n      tag_581\n        /* \"#utility.yul\":20323:20327   */\n      dup2\n        /* \"#utility.yul\":20197:20328   */\n      tag_383\n      jump\t// in\n    tag_581:\n        /* \"#utility.yul\":20189:20328   */\n      swap1\n      pop\n        /* \"#utility.yul\":19916:20335   */\n      swap2\n      swap1\n      pop\n      jump\t// out\n        /* \"#utility.yul\":20341:20523   */\n    tag_384:\n        /* \"#utility.yul\":20481:20515   */\n      0x4f776e61626c653a2063616c6c6572206973206e6f7420746865206f776e6572\n        /* \"#utility.yul\":20477:20478   */\n      0x00\n        /* \"#utility.yul\":20469:20475   */\n      dup3\n        /* \"#utility.yul\":20465:20479   */\n      add\n        /* \"#utility.yul\":20458:20516   */\n      mstore\n        /* \"#utility.yul\":20341:20523   */\n      pop\n      jump\t// out\n        /* \"#utility.yul\":20529:20895   */\n    tag_385:\n        /* \"#utility.yul\":20671:20674   */\n      0x00\n        /* \"#utility.yul\":20692:20759   */\n      tag_584\n        /* \"#utility.yul\":20756:20758   */\n      0x20\n        /* \"#utility.yul\":20751:20754   */\n      dup4\n        /* \"#utility.yul\":20692:20759   */\n      tag_336\n      jump\t// in\n    tag_584:\n        /* \"#utility.yul\":20685:20759   */\n      swap2\n      pop\n        /* \"#utility.yul\":20768:20861   */\n      tag_585\n        /* \"#utility.yul\":20857:20860   */\n      dup3\n        /* \"#utility.yul\":20768:20861   */\n      tag_384\n      jump\t// in\n    tag_585:\n        /* \"#utility.yul\":20886:20888   */\n      0x20\n        /* \"#utility.yul\":20881:20884   */\n      dup3\n        /* \"#utility.yul\":20877:20889   */\n      add\n        /* \"#utility.yul\":20870:20889   */\n      swap1\n      pop\n        /* \"#utility.yul\":20529:20895   */\n      swap2\n      swap1\n      pop\n      jump\t// out\n        /* \"#utility.yul\":20901:21320   */\n    tag_241:\n        /* \"#utility.yul\":21067:21071   */\n      0x00\n        /* \"#utility.yul\":21105:21107   */\n      0x20\n        /* \"#utility.yul\":21094:21103   */\n      dup3\n        /* \"#utility.yul\":21090:21108   */\n      add\n        /* \"#utility.yul\":21082:21108   */\n      swap1\n      pop\n        /* \"#utility.yul\":21154:21163   */\n      dup2\n        /* \"#utility.yul\":21148:21152   */\n      dup2\n        /* \"#utility.yul\":21144:21164   */\n      sub\n        /* \"#utility.yul\":21140:21141   */\n      0x00\n        /* \"#utility.yul\":21129:21138   */\n      dup4\n        /* \"#utility.yul\":21125:21142   */\n      add\n        /* \"#utility.yul\":21118:21165   */\n      mstore\n        /* \"#utility.yul\":21182:21313   */\n      tag_587\n        /* \"#utility.yul\":21308:21312   */\n      dup2\n        /* \"#utility.yul\":21182:21313   */\n      tag_385\n      jump\t// in\n    tag_587:\n        /* \"#utility.yul\":21174:21313   */\n      swap1\n      pop\n        /* \"#utility.yul\":20901:21320   */\n      swap2\n      swap1\n      pop\n      jump\t// out\n        /* \"#utility.yul\":21326:21507   */\n    tag_386:\n        /* \"#utility.yul\":21466:21499   */\n      0x45524332303a206d696e7420746f20746865207a65726f206164647265737300\n        /* \"#utility.yul\":21462:21463   */\n      0x00\n        /* \"#utility.yul\":21454:21460   */\n      dup3\n        /* \"#utility.yul\":21450:21464   */\n      add\n        /* \"#utility.yul\":21443:21500   */\n      mstore\n        /* \"#utility.yul\":21326:21507   */\n      pop\n      jump\t// out\n        /* \"#utility.yul\":21513:21879   */\n    tag_387:\n        /* \"#utility.yul\":21655:21658   */\n      0x00\n        /* \"#utility.yul\":21676:21743   */\n      tag_590\n        /* \"#utility.yul\":21740:21742   */\n      0x1f\n        /* \"#utility.yul\":21735:21738   */\n      dup4\n        /* \"#utility.yul\":21676:21743   */\n      tag_336\n      jump\t// in\n    tag_590:\n        /* \"#utility.yul\":21669:21743   */\n      swap2\n      pop\n        /* \"#utility.yul\":21752:21845   */\n      tag_591\n        /* \"#utility.yul\":21841:21844   */\n      dup3\n        /* \"#utility.yul\":21752:21845   */\n      tag_386\n      jump\t// in\n    tag_591:\n        /* \"#utility.yul\":21870:21872   */\n      0x20\n        /* \"#utility.yul\":21865:21868   */\n      dup3\n        /* \"#utility.yul\":21861:21873   */\n      add\n        /* \"#utility.yul\":21854:21873   */\n      swap1\n      pop\n        /* \"#utility.yul\":21513:21879   */\n      swap2\n      swap1\n      pop\n      jump\t// out\n        /* \"#utility.yul\":21885:22304   */\n    tag_245:\n        /* \"#utility.yul\":22051:22055   */\n      0x00\n        /* \"#utility.yul\":22089:22091   */\n      0x20\n        /* \"#utility.yul\":22078:22087   */\n      dup3\n        /* \"#utility.yul\":22074:22092   */\n      add\n        /* \"#utility.yul\":22066:22092   */\n      swap1\n      pop\n        /* \"#utility.yul\":22138:22147   */\n      dup2\n        /* \"#utility.yul\":22132:22136   */\n      dup2\n        /* \"#utility.yul\":22128:22148   */\n      sub\n        /* \"#utility.yul\":22124:22125   */\n      0x00\n        /* \"#utility.yul\":22113:22122   */\n      dup4\n        /* \"#utility.yul\":22109:22126   */\n      add\n        /* \"#utility.yul\":22102:22149   */\n      mstore\n        /* \"#utility.yul\":22166:22297   */\n      tag_593\n        /* \"#utility.yul\":22292:22296   */\n      dup2\n        /* \"#utility.yul\":22166:22297   */\n      tag_387\n      jump\t// in\n    tag_593:\n        /* \"#utility.yul\":22158:22297   */\n      swap1\n      pop\n        /* \"#utility.yul\":21885:22304   */\n      swap2\n      swap1\n      pop\n      jump\t// out\n        /* \"#utility.yul\":22310:22530   */\n    tag_388:\n        /* \"#utility.yul\":22450:22484   */\n      0x45524332303a206275726e2066726f6d20746865207a65726f20616464726573\n        /* \"#utility.yul\":22446:22447   */\n      0x00\n        /* \"#utility.yul\":22438:22444   */\n      dup3\n        /* \"#utility.yul\":22434:22448   */\n      add\n        /* \"#utility.yul\":22427:22485   */\n      mstore\n        /* \"#utility.yul\":22519:22522   */\n      0x7300000000000000000000000000000000000000000000000000000000000000\n        /* \"#utility.yul\":22514:22516   */\n      0x20\n        /* \"#utility.yul\":22506:22512   */\n      dup3\n        /* \"#utility.yul\":22502:22517   */\n      add\n        /* \"#utility.yul\":22495:22523   */\n      mstore\n        /* \"#utility.yul\":22310:22530   */\n      pop\n      jump\t// out\n        /* \"#utility.yul\":22536:22902   */\n    tag_389:\n        /* \"#utility.yul\":22678:22681   */\n      0x00\n        /* \"#utility.yul\":22699:22766   */\n      tag_596\n        /* \"#utility.yul\":22763:22765   */\n      0x21\n        /* \"#utility.yul\":22758:22761   */\n      dup4\n        /* \"#utility.yul\":22699:22766   */\n      tag_336\n      jump\t// in\n    tag_596:\n        /* \"#utility.yul\":22692:22766   */\n      swap2\n      pop\n        /* \"#utility.yul\":22775:22868   */\n      tag_597\n        /* \"#utility.yul\":22864:22867   */\n      dup3\n        /* \"#utility.yul\":22775:22868   */\n      tag_388\n      jump\t// in\n    tag_597:\n        /* \"#utility.yul\":22893:22895   */\n      0x40\n        /* \"#utility.yul\":22888:22891   */\n      dup3\n        /* \"#utility.yul\":22884:22896   */\n      add\n        /* \"#utility.yul\":22877:22896   */\n      swap1\n      pop\n        /* \"#utility.yul\":22536:22902   */\n      swap2\n      swap1\n      pop\n      jump\t// out\n        /* \"#utility.yul\":22908:23327   */\n    tag_254:\n        /* \"#utility.yul\":23074:23078   */\n      0x00\n        /* \"#utility.yul\":23112:23114   */\n      0x20\n        /* \"#utility.yul\":23101:23110   */\n      dup3\n        /* \"#utility.yul\":23097:23115   */\n      add\n        /* \"#utility.yul\":23089:23115   */\n      swap1\n      pop\n        /* \"#utility.yul\":23161:23170   */\n      dup2\n        /* \"#utility.yul\":23155:23159   */\n      dup2\n        /* \"#utility.yul\":23151:23171   */\n      sub\n        /* \"#utility.yul\":23147:23148   */\n      0x00\n        /* \"#utility.yul\":23136:23145   */\n      dup4\n        /* \"#utility.yul\":23132:23149   */\n      add\n        /* \"#utility.yul\":23125:23172   */\n      mstore\n        /* \"#utility.yul\":23189:23320   */\n      tag_599\n        /* \"#utility.yul\":23315:23319   */\n      dup2\n        /* \"#utility.yul\":23189:23320   */\n      tag_389\n      jump\t// in\n    tag_599:\n        /* \"#utility.yul\":23181:23320   */\n      swap1\n      pop\n        /* \"#utility.yul\":22908:23327   */\n      swap2\n      swap1\n      pop\n      jump\t// out\n        /* \"#utility.yul\":23333:23554   */\n    tag_390:\n        /* \"#utility.yul\":23473:23507   */\n      0x45524332303a206275726e20616d6f756e7420657863656564732062616c616e\n        /* \"#utility.yul\":23469:23470   */\n      0x00\n        /* \"#utility.yul\":23461:23467   */\n      dup3\n        /* \"#utility.yul\":23457:23471   */\n      add\n        /* \"#utility.yul\":23450:23508   */\n      mstore\n        /* \"#utility.yul\":23542:23546   */\n      0x6365000000000000000000000000000000000000000000000000000000000000\n        /* \"#utility.yul\":23537:23539   */\n      0x20\n        /* \"#utility.yul\":23529:23535   */\n      dup3\n        /* \"#utility.yul\":23525:23540   */\n      add\n        /* \"#utility.yul\":23518:23547   */\n      mstore\n        /* \"#utility.yul\":23333:23554   */\n      pop\n      jump\t// out\n        /* \"#utility.yul\":23560:23926   */\n    tag_391:\n        /* \"#utility.yul\":23702:23705   */\n      0x00\n        /* \"#utility.yul\":23723:23790   */\n      tag_602\n        /* \"#utility.yul\":23787:23789   */\n      0x22\n        /* \"#utility.yul\":23782:23785   */\n      dup4\n        /* \"#utility.yul\":23723:23790   */\n      tag_336\n      jump\t// in\n    tag_602:\n        /* \"#utility.yul\":23716:23790   */\n      swap2\n      pop\n        /* \"#utility.yul\":23799:23892   */\n      tag_603\n        /* \"#utility.yul\":23888:23891   */\n      dup3\n        /* \"#utility.yul\":23799:23892   */\n      tag_390\n      jump\t// in\n    tag_603:\n        /* \"#utility.yul\":23917:23919   */\n      0x40\n        /* \"#utility.yul\":23912:23915   */\n      dup3\n        /* \"#utility.yul\":23908:23920   */\n      add\n        /* \"#utility.yul\":23901:23920   */\n      swap1\n      pop\n        /* \"#utility.yul\":23560:23926   */\n      swap2\n      swap1\n      pop\n      jump\t// out\n        /* \"#utility.yul\":23932:24351   */\n    tag_258:\n        /* \"#utility.yul\":24098:24102   */\n      0x00\n        /* \"#utility.yul\":24136:24138   */\n      0x20\n        /* \"#utility.yul\":24125:24134   */\n      dup3\n        /* \"#utility.yul\":24121:24139   */\n      add\n        /* \"#utility.yul\":24113:24139   */\n      swap1\n      pop\n        /* \"#utility.yul\":24185:24194   */\n      dup2\n        /* \"#utility.yul\":24179:24183   */\n      dup2\n        /* \"#utility.yul\":24175:24195   */\n      sub\n        /* \"#utility.yul\":24171:24172   */\n      0x00\n        /* \"#utility.yul\":24160:24169   */\n      dup4\n        /* \"#utility.yul\":24156:24173   */\n      add\n        /* \"#utility.yul\":24149:24196   */\n      mstore\n        /* \"#utility.yul\":24213:24344   */\n      tag_605\n        /* \"#utility.yul\":24339:24343   */\n      dup2\n        /* \"#utility.yul\":24213:24344   */\n      tag_391\n      jump\t// in\n    tag_605:\n        /* \"#utility.yul\":24205:24344   */\n      swap1\n      pop\n        /* \"#utility.yul\":23932:24351   */\n      swap2\n      swap1\n      pop\n      jump\t// out\n        /* \"#utility.yul\":24357:24551   */\n    tag_260:\n        /* \"#utility.yul\":24397:24401   */\n      0x00\n        /* \"#utility.yul\":24417:24437   */\n      tag_607\n        /* \"#utility.yul\":24435:24436   */\n      dup3\n        /* \"#utility.yul\":24417:24437   */\n      tag_347\n      jump\t// in\n    tag_607:\n        /* \"#utility.yul\":24412:24437   */\n      swap2\n      pop\n        /* \"#utility.yul\":24451:24471   */\n      tag_608\n        /* \"#utility.yul\":24469:24470   */\n      dup4\n        /* \"#utility.yul\":24451:24471   */\n      tag_347\n      jump\t// in\n    tag_608:\n        /* \"#utility.yul\":24446:24471   */\n      swap3\n      pop\n        /* \"#utility.yul\":24495:24496   */\n      dup3\n        /* \"#utility.yul\":24492:24493   */\n      dup3\n        /* \"#utility.yul\":24488:24497   */\n      sub\n        /* \"#utility.yul\":24480:24497   */\n      swap1\n      pop\n        /* \"#utility.yul\":24519:24520   */\n      dup2\n        /* \"#utility.yul\":24513:24517   */\n      dup2\n        /* \"#utility.yul\":24510:24521   */\n      gt\n        /* \"#utility.yul\":24507:24544   */\n      iszero\n      tag_609\n      jumpi\n        /* \"#utility.yul\":24524:24542   */\n      tag_610\n      tag_363\n      jump\t// in\n    tag_610:\n        /* \"#utility.yul\":24507:24544   */\n    tag_609:\n        /* \"#utility.yul\":24357:24551   */\n      swap3\n      swap2\n      pop\n      pop\n      jump\t// out\n        /* \"#utility.yul\":24557:25221   */\n    tag_282:\n        /* \"#utility.yul\":24762:24766   */\n      0x00\n        /* \"#utility.yul\":24800:24803   */\n      0xa0\n        /* \"#utility.yul\":24789:24798   */\n      dup3\n        /* \"#utility.yul\":24785:24804   */\n      add\n        /* \"#utility.yul\":24777:24804   */\n      swap1\n      pop\n        /* \"#utility.yul\":24814:24885   */\n      tag_612\n        /* \"#utility.yul\":24882:24883   */\n      0x00\n        /* \"#utility.yul\":24871:24880   */\n      dup4\n        /* \"#utility.yul\":24867:24884   */\n      add\n        /* \"#utility.yul\":24858:24864   */\n      dup9\n        /* \"#utility.yul\":24814:24885   */\n      tag_356\n      jump\t// in\n    tag_612:\n        /* \"#utility.yul\":24895:24967   */\n      tag_613\n        /* \"#utility.yul\":24963:24965   */\n      0x20\n        /* \"#utility.yul\":24952:24961   */\n      dup4\n        /* \"#utility.yul\":24948:24966   */\n      add\n        /* \"#utility.yul\":24939:24945   */\n      dup8\n        /* \"#utility.yul\":24895:24967   */\n      tag_356\n      jump\t// in\n    tag_613:\n        /* \"#utility.yul\":24977:25049   */\n      tag_614\n        /* \"#utility.yul\":25045:25047   */\n      0x40\n        /* \"#utility.yul\":25034:25043   */\n      dup4\n        /* \"#utility.yul\":25030:25048   */\n      add\n        /* \"#utility.yul\":25021:25027   */\n      dup7\n        /* \"#utility.yul\":24977:25049   */\n      tag_356\n      jump\t// in\n    tag_614:\n        /* \"#utility.yul\":25059:25131   */\n      tag_615\n        /* \"#utility.yul\":25127:25129   */\n      0x60\n        /* \"#utility.yul\":25116:25125   */\n      dup4\n        /* \"#utility.yul\":25112:25130   */\n      add\n        /* \"#utility.yul\":25103:25109   */\n      dup6\n        /* \"#utility.yul\":25059:25131   */\n      tag_352\n      jump\t// in\n    tag_615:\n        /* \"#utility.yul\":25141:25214   */\n      tag_616\n        /* \"#utility.yul\":25209:25212   */\n      0x80\n        /* \"#utility.yul\":25198:25207   */\n      dup4\n        /* \"#utility.yul\":25194:25213   */\n      add\n        /* \"#utility.yul\":25185:25191   */\n      dup5\n        /* \"#utility.yul\":25141:25214   */\n      tag_357\n      jump\t// in\n    tag_616:\n        /* \"#utility.yul\":24557:25221   */\n      swap7\n      swap6\n      pop\n      pop\n      pop\n      pop\n      pop\n      pop\n      jump\t// out\n        /* \"#utility.yul\":25227:25375   */\n    tag_392:\n        /* \"#utility.yul\":25329:25340   */\n      0x00\n        /* \"#utility.yul\":25366:25369   */\n      dup2\n        /* \"#utility.yul\":25351:25369   */\n      swap1\n      pop\n        /* \"#utility.yul\":25227:25375   */\n      swap3\n      swap2\n      pop\n      pop\n      jump\t// out\n        /* \"#utility.yul\":25381:25595   */\n    tag_393:\n        /* \"#utility.yul\":25521:25587   */\n      0x1901000000000000000000000000000000000000000000000000000000000000\n        /* \"#utility.yul\":25517:25518   */\n      0x00\n        /* \"#utility.yul\":25509:25515   */\n      dup3\n        /* \"#utility.yul\":25505:25519   */\n      add\n        /* \"#utility.yul\":25498:25588   */\n      mstore\n        /* \"#utility.yul\":25381:25595   */\n      pop\n      jump\t// out\n        /* \"#utility.yul\":25601:26001   */\n    tag_394:\n        /* \"#utility.yul\":25761:25764   */\n      0x00\n        /* \"#utility.yul\":25782:25866   */\n      tag_620\n        /* \"#utility.yul\":25864:25865   */\n      0x02\n        /* \"#utility.yul\":25859:25862   */\n      dup4\n        /* \"#utility.yul\":25782:25866   */\n      tag_392\n      jump\t// in\n    tag_620:\n        /* \"#utility.yul\":25775:25866   */\n      swap2\n      pop\n        /* \"#utility.yul\":25875:25968   */\n      tag_621\n        /* \"#utility.yul\":25964:25967   */\n      dup3\n        /* \"#utility.yul\":25875:25968   */\n      tag_393\n      jump\t// in\n    tag_621:\n        /* \"#utility.yul\":25993:25994   */\n      0x02\n        /* \"#utility.yul\":25988:25991   */\n      dup3\n        /* \"#utility.yul\":25984:25995   */\n      add\n        /* \"#utility.yul\":25977:25995   */\n      swap1\n      pop\n        /* \"#utility.yul\":25601:26001   */\n      swap2\n      swap1\n      pop\n      jump\t// out\n        /* \"#utility.yul\":26007:26086   */\n    tag_395:\n        /* \"#utility.yul\":26046:26053   */\n      0x00\n        /* \"#utility.yul\":26075:26080   */\n      dup2\n        /* \"#utility.yul\":26064:26080   */\n      swap1\n      pop\n        /* \"#utility.yul\":26007:26086   */\n      swap2\n      swap1\n      pop\n      jump\t// out\n        /* \"#utility.yul\":26092:26249   */\n    tag_396:\n        /* \"#utility.yul\":26197:26242   */\n      tag_624\n        /* \"#utility.yul\":26217:26241   */\n      tag_625\n        /* \"#utility.yul\":26235:26240   */\n      dup3\n        /* \"#utility.yul\":26217:26241   */\n      tag_355\n      jump\t// in\n    tag_625:\n        /* \"#utility.yul\":26197:26242   */\n      tag_395\n      jump\t// in\n    tag_624:\n        /* \"#utility.yul\":26192:26195   */\n      dup3\n        /* \"#utility.yul\":26185:26243   */\n      mstore\n        /* \"#utility.yul\":26092:26249   */\n      pop\n      pop\n      jump\t// out\n        /* \"#utility.yul\":26255:26918   */\n    tag_286:\n        /* \"#utility.yul\":26496:26499   */\n      0x00\n        /* \"#utility.yul\":26518:26666   */\n      tag_627\n        /* \"#utility.yul\":26662:26665   */\n      dup3\n        /* \"#utility.yul\":26518:26666   */\n      tag_394\n      jump\t// in\n    tag_627:\n        /* \"#utility.yul\":26511:26666   */\n      swap2\n      pop\n        /* \"#utility.yul\":26676:26751   */\n      tag_628\n        /* \"#utility.yul\":26747:26750   */\n      dup3\n        /* \"#utility.yul\":26738:26744   */\n      dup6\n        /* \"#utility.yul\":26676:26751   */\n      tag_396\n      jump\t// in\n    tag_628:\n        /* \"#utility.yul\":26776:26778   */\n      0x20\n        /* \"#utility.yul\":26771:26774   */\n      dup3\n        /* \"#utility.yul\":26767:26779   */\n      add\n        /* \"#utility.yul\":26760:26779   */\n      swap2\n      pop\n        /* \"#utility.yul\":26789:26864   */\n      tag_629\n        /* \"#utility.yul\":26860:26863   */\n      dup3\n        /* \"#utility.yul\":26851:26857   */\n      dup5\n        /* \"#utility.yul\":26789:26864   */\n      tag_396\n      jump\t// in\n    tag_629:\n        /* \"#utility.yul\":26889:26891   */\n      0x20\n        /* \"#utility.yul\":26884:26887   */\n      dup3\n        /* \"#utility.yul\":26880:26892   */\n      add\n        /* \"#utility.yul\":26873:26892   */\n      swap2\n      pop\n        /* \"#utility.yul\":26909:26912   */\n      dup2\n        /* \"#utility.yul\":26902:26912   */\n      swap1\n      pop\n        /* \"#utility.yul\":26255:26918   */\n      swap4\n      swap3\n      pop\n      pop\n      pop\n      jump\t// out\n        /* \"#utility.yul\":26924:27469   */\n    tag_292:\n        /* \"#utility.yul\":27097:27101   */\n      0x00\n        /* \"#utility.yul\":27135:27138   */\n      0x80\n        /* \"#utility.yul\":27124:27133   */\n      dup3\n        /* \"#utility.yul\":27120:27139   */\n      add\n        /* \"#utility.yul\":27112:27139   */\n      swap1\n      pop\n        /* \"#utility.yul\":27149:27220   */\n      tag_631\n        /* \"#utility.yul\":27217:27218   */\n      0x00\n        /* \"#utility.yul\":27206:27215   */\n      dup4\n        /* \"#utility.yul\":27202:27219   */\n      add\n        /* \"#utility.yul\":27193:27199   */\n      dup8\n        /* \"#utility.yul\":27149:27220   */\n      tag_356\n      jump\t// in\n    tag_631:\n        /* \"#utility.yul\":27230:27298   */\n      tag_632\n        /* \"#utility.yul\":27294:27296   */\n      0x20\n        /* \"#utility.yul\":27283:27292   */\n      dup4\n        /* \"#utility.yul\":27279:27297   */\n      add\n        /* \"#utility.yul\":27270:27276   */\n      dup7\n        /* \"#utility.yul\":27230:27298   */\n      tag_354\n      jump\t// in\n    tag_632:\n        /* \"#utility.yul\":27308:27380   */\n      tag_633\n        /* \"#utility.yul\":27376:27378   */\n      0x40\n        /* \"#utility.yul\":27365:27374   */\n      dup4\n        /* \"#utility.yul\":27361:27379   */\n      add\n        /* \"#utility.yul\":27352:27358   */\n      dup6\n        /* \"#utility.yul\":27308:27380   */\n      tag_356\n      jump\t// in\n    tag_633:\n        /* \"#utility.yul\":27390:27462   */\n      tag_634\n        /* \"#utility.yul\":27458:27460   */\n      0x60\n        /* \"#utility.yul\":27447:27456   */\n      dup4\n        /* \"#utility.yul\":27443:27461   */\n      add\n        /* \"#utility.yul\":27434:27440   */\n      dup5\n        /* \"#utility.yul\":27390:27462   */\n      tag_356\n      jump\t// in\n    tag_634:\n        /* \"#utility.yul\":26924:27469   */\n      swap6\n      swap5\n      pop\n      pop\n      pop\n      pop\n      pop\n      jump\t// out\n        /* \"#utility.yul\":27475:27655   */\n    tag_299:\n        /* \"#utility.yul\":27523:27600   */\n      0x4e487b7100000000000000000000000000000000000000000000000000000000\n        /* \"#utility.yul\":27520:27521   */\n      0x00\n        /* \"#utility.yul\":27513:27601   */\n      mstore\n        /* \"#utility.yul\":27620:27624   */\n      0x21\n        /* \"#utility.yul\":27617:27618   */\n      0x04\n        /* \"#utility.yul\":27610:27625   */\n      mstore\n        /* \"#utility.yul\":27644:27648   */\n      0x24\n        /* \"#utility.yul\":27641:27642   */\n      0x00\n        /* \"#utility.yul\":27634:27649   */\n      revert\n        /* \"#utility.yul\":27661:27835   */\n    tag_397:\n        /* \"#utility.yul\":27801:27827   */\n      0x45434453413a20696e76616c6964207369676e61747572650000000000000000\n        /* \"#utility.yul\":27797:27798   */\n      0x00\n        /* \"#utility.yul\":27789:27795   */\n      dup3\n        /* \"#utility.yul\":27785:27799   */\n      add\n        /* \"#utility.yul\":27778:27828   */\n      mstore\n        /* \"#utility.yul\":27661:27835   */\n      pop\n      jump\t// out\n        /* \"#utility.yul\":27841:28207   */\n    tag_398:\n        /* \"#utility.yul\":27983:27986   */\n      0x00\n        /* \"#utility.yul\":28004:28071   */\n      tag_638\n        /* \"#utility.yul\":28068:28070   */\n      0x18\n        /* \"#utility.yul\":28063:28066   */\n      dup4\n        /* \"#utility.yul\":28004:28071   */\n      tag_336\n      jump\t// in\n    tag_638:\n        /* \"#utility.yul\":27997:28071   */\n      swap2\n      pop\n        /* \"#utility.yul\":28080:28173   */\n      tag_639\n        /* \"#utility.yul\":28169:28172   */\n      dup3\n        /* \"#utility.yul\":28080:28173   */\n      tag_397\n      jump\t// in\n    tag_639:\n        /* \"#utility.yul\":28198:28200   */\n      0x20\n        /* \"#utility.yul\":28193:28196   */\n      dup3\n        /* \"#utility.yul\":28189:28201   */\n      add\n        /* \"#utility.yul\":28182:28201   */\n      swap1\n      pop\n        /* \"#utility.yul\":27841:28207   */\n      swap2\n      swap1\n      pop\n      jump\t// out\n        /* \"#utility.yul\":28213:28632   */\n    tag_310:\n        /* \"#utility.yul\":28379:28383   */\n      0x00\n        /* \"#utility.yul\":28417:28419   */\n      0x20\n        /* \"#utility.yul\":28406:28415   */\n      dup3\n        /* \"#utility.yul\":28402:28420   */\n      add\n        /* \"#utility.yul\":28394:28420   */\n      swap1\n      pop\n        /* \"#utility.yul\":28466:28475   */\n      dup2\n        /* \"#utility.yul\":28460:28464   */\n      dup2\n        /* \"#utility.yul\":28456:28476   */\n      sub\n        /* \"#utility.yul\":28452:28453   */\n      0x00\n        /* \"#utility.yul\":28441:28450   */\n      dup4\n        /* \"#utility.yul\":28437:28454   */\n      add\n        /* \"#utility.yul\":28430:28477   */\n      mstore\n        /* \"#utility.yul\":28494:28625   */\n      tag_641\n        /* \"#utility.yul\":28620:28624   */\n      dup2\n        /* \"#utility.yul\":28494:28625   */\n      tag_398\n      jump\t// in\n    tag_641:\n        /* \"#utility.yul\":28486:28625   */\n      swap1\n      pop\n        /* \"#utility.yul\":28213:28632   */\n      swap2\n      swap1\n      pop\n      jump\t// out\n        /* \"#utility.yul\":28638:28819   */\n    tag_399:\n        /* \"#utility.yul\":28778:28811   */\n      0x45434453413a20696e76616c6964207369676e6174757265206c656e67746800\n        /* \"#utility.yul\":28774:28775   */\n      0x00\n        /* \"#utility.yul\":28766:28772   */\n      dup3\n        /* \"#utility.yul\":28762:28776   */\n      add\n        /* \"#utility.yul\":28755:28812   */\n      mstore\n        /* \"#utility.yul\":28638:28819   */\n      pop\n      jump\t// out\n        /* \"#utility.yul\":28825:29191   */\n    tag_400:\n        /* \"#utility.yul\":28967:28970   */\n      0x00\n        /* \"#utility.yul\":28988:29055   */\n      tag_644\n        /* \"#utility.yul\":29052:29054   */\n      0x1f\n        /* \"#utility.yul\":29047:29050   */\n      dup4\n        /* \"#utility.yul\":28988:29055   */\n      tag_336\n      jump\t// in\n    tag_644:\n        /* \"#utility.yul\":28981:29055   */\n      swap2\n      pop\n        /* \"#utility.yul\":29064:29157   */\n      tag_645\n        /* \"#utility.yul\":29153:29156   */\n      dup3\n        /* \"#utility.yul\":29064:29157   */\n      tag_399\n      jump\t// in\n    tag_645:\n        /* \"#utility.yul\":29182:29184   */\n      0x20\n        /* \"#utility.yul\":29177:29180   */\n      dup3\n        /* \"#utility.yul\":29173:29185   */\n      add\n        /* \"#utility.yul\":29166:29185   */\n      swap1\n      pop\n        /* \"#utility.yul\":28825:29191   */\n      swap2\n      swap1\n      pop\n      jump\t// out\n        /* \"#utility.yul\":29197:29616   */\n    tag_318:\n        /* \"#utility.yul\":29363:29367   */\n      0x00\n        /* \"#utility.yul\":29401:29403   */\n      0x20\n        /* \"#utility.yul\":29390:29399   */\n      dup3\n        /* \"#utility.yul\":29386:29404   */\n      add\n        /* \"#utility.yul\":29378:29404   */\n      swap1\n      pop\n        /* \"#utility.yul\":29450:29459   */\n      dup2\n        /* \"#utility.yul\":29444:29448   */\n      dup2\n        /* \"#utility.yul\":29440:29460   */\n      sub\n        /* \"#utility.yul\":29436:29437   */\n      0x00\n        /* \"#utility.yul\":29425:29434   */\n      dup4\n        /* \"#utility.yul\":29421:29438   */\n      add\n        /* \"#utility.yul\":29414:29461   */\n      mstore\n        /* \"#utility.yul\":29478:29609   */\n      tag_647\n        /* \"#utility.yul\":29604:29608   */\n      dup2\n        /* \"#utility.yul\":29478:29609   */\n      tag_400\n      jump\t// in\n    tag_647:\n        /* \"#utility.yul\":29470:29609   */\n      swap1\n      pop\n        /* \"#utility.yul\":29197:29616   */\n      swap2\n      swap1\n      pop\n      jump\t// out\n        /* \"#utility.yul\":29622:29843   */\n    tag_401:\n        /* \"#utility.yul\":29762:29796   */\n      0x45434453413a20696e76616c6964207369676e6174757265202773272076616c\n        /* \"#utility.yul\":29758:29759   */\n      0x00\n        /* \"#utility.yul\":29750:29756   */\n      dup3\n        /* \"#utility.yul\":29746:29760   */\n      add\n        /* \"#utility.yul\":29739:29797   */\n      mstore\n        /* \"#utility.yul\":29831:29835   */\n      0x7565000000000000000000000000000000000000000000000000000000000000\n        /* \"#utility.yul\":29826:29828   */\n      0x20\n        /* \"#utility.yul\":29818:29824   */\n      dup3\n        /* \"#utility.yul\":29814:29829   */\n      add\n        /* \"#utility.yul\":29807:29836   */\n      mstore\n        /* \"#utility.yul\":29622:29843   */\n      pop\n      jump\t// out\n        /* \"#utility.yul\":29849:30215   */\n    tag_402:\n        /* \"#utility.yul\":29991:29994   */\n      0x00\n        /* \"#utility.yul\":30012:30079   */\n      tag_650\n        /* \"#utility.yul\":30076:30078   */\n      0x22\n        /* \"#utility.yul\":30071:30074   */\n      dup4\n        /* \"#utility.yul\":30012:30079   */\n      tag_336\n      jump\t// in\n    tag_650:\n        /* \"#utility.yul\":30005:30079   */\n      swap2\n      pop\n        /* \"#utility.yul\":30088:30181   */\n      tag_651\n        /* \"#utility.yul\":30177:30180   */\n      dup3\n        /* \"#utility.yul\":30088:30181   */\n      tag_401\n      jump\t// in\n    tag_651:\n        /* \"#utility.yul\":30206:30208   */\n      0x40\n        /* \"#utility.yul\":30201:30204   */\n      dup3\n        /* \"#utility.yul\":30197:30209   */\n      add\n        /* \"#utility.yul\":30190:30209   */\n      swap1\n      pop\n        /* \"#utility.yul\":29849:30215   */\n      swap2\n      swap1\n      pop\n      jump\t// out\n        /* \"#utility.yul\":30221:30640   */\n    tag_326:\n        /* \"#utility.yul\":30387:30391   */\n      0x00\n        /* \"#utility.yul\":30425:30427   */\n      0x20\n        /* \"#utility.yul\":30414:30423   */\n      dup3\n        /* \"#utility.yul\":30410:30428   */\n      add\n        /* \"#utility.yul\":30402:30428   */\n      swap1\n      pop\n        /* \"#utility.yul\":30474:30483   */\n      dup2\n        /* \"#utility.yul\":30468:30472   */\n      dup2\n        /* \"#utility.yul\":30464:30484   */\n      sub\n        /* \"#utility.yul\":30460:30461   */\n      0x00\n        /* \"#utility.yul\":30449:30458   */\n      dup4\n        /* \"#utility.yul\":30445:30462   */\n      add\n        /* \"#utility.yul\":30438:30485   */\n      mstore\n        /* \"#utility.yul\":30502:30633   */\n      tag_653\n        /* \"#utility.yul\":30628:30632   */\n      dup2\n        /* \"#utility.yul\":30502:30633   */\n      tag_402\n      jump\t// in\n    tag_653:\n        /* \"#utility.yul\":30494:30633   */\n      swap1\n      pop\n        /* \"#utility.yul\":30221:30640   */\n      swap2\n      swap1\n      pop\n      jump\t// out\n        /* \"#utility.yul\":30646:30867   */\n    tag_403:\n        /* \"#utility.yul\":30786:30820   */\n      0x45434453413a20696e76616c6964207369676e6174757265202776272076616c\n        /* \"#utility.yul\":30782:30783   */\n      0x00\n        /* \"#utility.yul\":30774:30780   */\n      dup3\n        /* \"#utility.yul\":30770:30784   */\n      add\n        /* \"#utility.yul\":30763:30821   */\n      mstore\n        /* \"#utility.yul\":30855:30859   */\n      0x7565000000000000000000000000000000000000000000000000000000000000\n        /* \"#utility.yul\":30850:30852   */\n      0x20\n        /* \"#utility.yul\":30842:30848   */\n      dup3\n        /* \"#utility.yul\":30838:30853   */\n      add\n        /* \"#utility.yul\":30831:30860   */\n      mstore\n        /* \"#utility.yul\":30646:30867   */\n      pop\n      jump\t// out\n        /* \"#utility.yul\":30873:31239   */\n    tag_404:\n        /* \"#utility.yul\":31015:31018   */\n      0x00\n        /* \"#utility.yul\":31036:31103   */\n      tag_656\n        /* \"#utility.yul\":31100:31102   */\n      0x22\n        /* \"#utility.yul\":31095:31098   */\n      dup4\n        /* \"#utility.yul\":31036:31103   */\n      tag_336\n      jump\t// in\n    tag_656:\n        /* \"#utility.yul\":31029:31103   */\n      swap2\n      pop\n        /* \"#utility.yul\":31112:31205   */\n      tag_657\n        /* \"#utility.yul\":31201:31204   */\n      dup3\n        /* \"#utility.yul\":31112:31205   */\n      tag_403\n      jump\t// in\n    tag_657:\n        /* \"#utility.yul\":31230:31232   */\n      0x40\n        /* \"#utility.yul\":31225:31228   */\n      dup3\n        /* \"#utility.yul\":31221:31233   */\n      add\n        /* \"#utility.yul\":31214:31233   */\n      swap1\n      pop\n        /* \"#utility.yul\":30873:31239   */\n      swap2\n      swap1\n      pop\n      jump\t// out\n        /* \"#utility.yul\":31245:31664   */\n    tag_334:\n        /* \"#utility.yul\":31411:31415   */\n      0x00\n        /* \"#utility.yul\":31449:31451   */\n      0x20\n        /* \"#utility.yul\":31438:31447   */\n      dup3\n        /* \"#utility.yul\":31434:31452   */\n      add\n        /* \"#utility.yul\":31426:31452   */\n      swap1\n      pop\n        /* \"#utility.yul\":31498:31507   */\n      dup2\n        /* \"#utility.yul\":31492:31496   */\n      dup2\n        /* \"#utility.yul\":31488:31508   */\n      sub\n        /* \"#utility.yul\":31484:31485   */\n      0x00\n        /* \"#utility.yul\":31473:31482   */\n      dup4\n        /* \"#utility.yul\":31469:31486   */\n      add\n        /* \"#utility.yul\":31462:31509   */\n      mstore\n        /* \"#utility.yul\":31526:31657   */\n      tag_659\n        /* \"#utility.yul\":31652:31656   */\n      dup2\n        /* \"#utility.yul\":31526:31657   */\n      tag_404\n      jump\t// in\n    tag_659:\n        /* \"#utility.yul\":31518:31657   */\n      swap1\n      pop\n        /* \"#utility.yul\":31245:31664   */\n      swap2\n      swap1\n      pop\n      jump\t// out\n\n    auxdata: 0xa2646970667358221220cb9c04a20e83e5373ff93fd037b3d676cf8374671c749441443de9951113ce5864736f6c63430008140033\n}\n",
				"bytecode": {
					"linkReferences": {},
					"object": "61014060405234801562000011575f80fd5b506040518060400160405280600781526020017f4d79546f6b656e00000000000000000000000000000000000000000000000000815250806040518060400160405280600181526020017f31000000000000000000000000000000000000000000000000000000000000008152506040518060400160405280600781526020017f4d79546f6b656e000000000000000000000000000000000000000000000000008152506040518060400160405280600381526020017f4d544b00000000000000000000000000000000000000000000000000000000008152508160039081620000fc919062000550565b5080600490816200010e919062000550565b5050506200013162000125620001e760201b60201c565b620001ee60201b60201c565b5f828051906020012090505f828051906020012090505f7f8b73c3c69bb8fe3d512ecc4cf759cc79239f7b179b0ffacaa9a75d522b39400f90508260e081815250508161010081815250504660a0818152505062000197818484620002b160201b60201c565b608081815250503073ffffffffffffffffffffffffffffffffffffffff1660c08173ffffffffffffffffffffffffffffffffffffffff1681525050806101208181525050505050505050620006fd565b5f33905090565b5f60055f9054906101000a900473ffffffffffffffffffffffffffffffffffffffff1690508160055f6101000a81548173ffffffffffffffffffffffffffffffffffffffff021916908373ffffffffffffffffffffffffffffffffffffffff1602179055508173ffffffffffffffffffffffffffffffffffffffff168173ffffffffffffffffffffffffffffffffffffffff167f8be0079c531659141344cd1fd0a4f28419497f9722a3daafe3b4186f6b6457e060405160405180910390a35050565b5f8383834630604051602001620002cd959493929190620006a2565b6040516020818303038152906040528051906020012090509392505050565b5f81519050919050565b7f4e487b71000000000000000000000000000000000000000000000000000000005f52604160045260245ffd5b7f4e487b71000000000000000000000000000000000000000000000000000000005f52602260045260245ffd5b5f60028204905060018216806200036857607f821691505b6020821081036200037e576200037d62000323565b5b50919050565b5f819050815f5260205f209050919050565b5f6020601f8301049050919050565b5f82821b905092915050565b5f60088302620003e27fffffffffffffffffffffffffffffffffffffffffffffffffffffffffffffffff82620003a5565b620003ee8683620003a5565b95508019841693508086168417925050509392505050565b5f819050919050565b5f819050919050565b5f62000438620004326200042c8462000406565b6200040f565b62000406565b9050919050565b5f819050919050565b620004538362000418565b6200046b62000462826200043f565b848454620003b1565b825550505050565b5f90565b6200048162000473565b6200048e81848462000448565b505050565b5b81811015620004b557620004a95f8262000477565b60018101905062000494565b5050565b601f8211156200050457620004ce8162000384565b620004d98462000396565b81016020851015620004e9578190505b62000501620004f88562000396565b83018262000493565b50505b505050565b5f82821c905092915050565b5f620005265f198460080262000509565b1980831691505092915050565b5f62000540838362000515565b9150826002028217905092915050565b6200055b82620002ec565b67ffffffffffffffff811115620005775762000576620002f6565b5b62000583825462000350565b62000590828285620004b9565b5f60209050601f831160018114620005c6575f8415620005b1578287015190505b620005bd858262000533565b8655506200062c565b601f198416620005d68662000384565b5f5b82811015620005ff57848901518255600182019150602085019450602081019050620005d8565b868310156200061f57848901516200061b601f89168262000515565b8355505b6001600288020188555050505b505050505050565b5f819050919050565b620006488162000634565b82525050565b620006598162000406565b82525050565b5f73ffffffffffffffffffffffffffffffffffffffff82169050919050565b5f6200068a826200065f565b9050919050565b6200069c816200067e565b82525050565b5f60a082019050620006b75f8301886200063d565b620006c660208301876200063d565b620006d560408301866200063d565b620006e460608301856200064e565b620006f3608083018462000691565b9695505050505050565b60805160a05160c05160e051610100516101205161280b620007455f395f610f2501525f610f6701525f610f4601525f610e7b01525f610ed101525f610efa015261280b5ff3fe608060405234801561000f575f80fd5b506004361061012a575f3560e01c8063715018a6116100ab578063a457c2d71161006f578063a457c2d714610330578063a9059cbb14610360578063d505accf14610390578063dd62ed3e146103ac578063f2fde38b146103dc5761012a565b8063715018a61461029e57806379cc6790146102a85780637ecebe00146102c45780638da5cb5b146102f457806395d89b41146103125761012a565b80633644e515116100f25780633644e515146101e8578063395093511461020657806340c10f191461023657806342966c681461025257806370a082311461026e5761012a565b806306fdde031461012e578063095ea7b31461014c57806318160ddd1461017c57806323b872dd1461019a578063313ce567146101ca575b5f80fd5b6101366103f8565b604051610143919061187d565b60405180910390f35b6101666004803603810190610161919061192e565b610488565b6040516101739190611986565b60405180910390f35b6101846104aa565b60405161019191906119ae565b60405180910390f35b6101b460048036038101906101af91906119c7565b6104b3565b6040516101c19190611986565b60405180910390f35b6101d26104e1565b6040516101df9190611a32565b60405180910390f35b6101f06104e9565b6040516101fd9190611a63565b60405180910390f35b610220600480360381019061021b919061192e565b6104f7565b60405161022d9190611986565b60405180910390f35b610250600480360381019061024b919061192e565b61052d565b005b61026c60048036038101906102679190611a7c565b610543565b005b61028860048036038101906102839190611aa7565b610557565b60405161029591906119ae565b60405180910390f35b6102a661059c565b005b6102c260048036038101906102bd919061192e565b6105af565b005b6102de60048036038101906102d99190611aa7565b6105cf565b6040516102eb91906119ae565b60405180910390f35b6102fc61061c565b6040516103099190611ae1565b60405180910390f35b61031a610644565b604051610327919061187d565b60405180910390f35b61034a6004803603810190610345919061192e565b6106d4565b6040516103579190611986565b60405180910390f35b61037a6004803603810190610375919061192e565b610749565b6040516103879190611986565b60405180910390f35b6103aa60048036038101906103a59190611b4e565b61076b565b005b6103c660048036038101906103c19190611beb565b6108aa565b6040516103d391906119ae565b60405180910390f35b6103f660048036038101906103f19190611aa7565b61092c565b005b60606003805461040790611c56565b80601f016020809104026020016040519081016040528092919081815260200182805461043390611c56565b801561047e5780601f106104555761010080835404028352916020019161047e565b820191905f5260205f20905b81548152906001019060200180831161046157829003601f168201915b5050505050905090565b5f806104926109ae565b905061049f8185856109b5565b600191505092915050565b5f600254905090565b5f806104bd6109ae565b90506104ca858285610b78565b6104d5858585610c03565b60019150509392505050565b5f6012905090565b5f6104f2610e78565b905090565b5f806105016109ae565b905061052281858561051385896108aa565b61051d9190611cb3565b6109b5565b600191505092915050565b610535610f91565b61053f828261100f565b5050565b61055461054e6109ae565b82611166565b50565b5f805f8373ffffffffffffffffffffffffffffffffffffffff1673ffffffffffffffffffffffffffffffffffffffff1681526020019081526020015f20549050919050565b6105a4610f91565b6105ad5f611332565b565b6105c1826105bb6109ae565b83610b78565b6105cb8282611166565b5050565b5f61061560065f8473ffffffffffffffffffffffffffffffffffffffff1673ffffffffffffffffffffffffffffffffffffffff1681526020019081526020015f206113f5565b9050919050565b5f60055f9054906101000a900473ffffffffffffffffffffffffffffffffffffffff16905090565b60606004805461065390611c56565b80601f016020809104026020016040519081016040528092919081815260200182805461067f90611c56565b80156106ca5780601f106106a1576101008083540402835291602001916106ca565b820191905f5260205f20905b8154815290600101906020018083116106ad57829003601f168201915b5050505050905090565b5f806106de6109ae565b90505f6106eb82866108aa565b905083811015610730576040517f08c379a000000000000000000000000000000000000000000000000000000000815260040161072790611d56565b60405180910390fd5b61073d82868684036109b5565b60019250505092915050565b5f806107536109ae565b9050610760818585610c03565b600191505092915050565b834211156107ae576040517f08c379a00000000000000000000000000000000000000000000000000000000081526004016107a590611dbe565b60405180910390fd5b5f7f6e71edae12b1b97f4d1f60370fef10105fa2faae0126114a169c64845d6126c98888886107dc8c611401565b896040516020016107f296959493929190611ddc565b6040516020818303038152906040528051906020012090505f6108148261145c565b90505f61082382878787611475565b90508973ffffffffffffffffffffffffffffffffffffffff168173ffffffffffffffffffffffffffffffffffffffff1614610893576040517f08c379a000000000000000000000000000000000000000000000000000000000815260040161088a90611e85565b60405180910390fd5b61089e8a8a8a6109b5565b50505050505050505050565b5f60015f8473ffffffffffffffffffffffffffffffffffffffff1673ffffffffffffffffffffffffffffffffffffffff1681526020019081526020015f205f8373ffffffffffffffffffffffffffffffffffffffff1673ffffffffffffffffffffffffffffffffffffffff1681526020019081526020015f2054905092915050565b610934610f91565b5f73ffffffffffffffffffffffffffffffffffffffff168173ffffffffffffffffffffffffffffffffffffffff16036109a2576040517f08c379a000000000000000000000000000000000000000000000000000000000815260040161099990611f13565b60405180910390fd5b6109ab81611332565b50565b5f33905090565b5f73ffffffffffffffffffffffffffffffffffffffff168373ffffffffffffffffffffffffffffffffffffffff1603610a23576040517f08c379a0000000000000000000000000000000000000000000000000000000008152600401610a1a90611fa1565b60405180910390fd5b5f73ffffffffffffffffffffffffffffffffffffffff168273ffffffffffffffffffffffffffffffffffffffff1603610a91576040517f08c379a0000000000000000000000000000000000000000000000000000000008152600401610a889061202f565b60405180910390fd5b8060015f8573ffffffffffffffffffffffffffffffffffffffff1673ffffffffffffffffffffffffffffffffffffffff1681526020019081526020015f205f8473ffffffffffffffffffffffffffffffffffffffff1673ffffffffffffffffffffffffffffffffffffffff1681526020019081526020015f20819055508173ffffffffffffffffffffffffffffffffffffffff168373ffffffffffffffffffffffffffffffffffffffff167f8c5be1e5ebec7d5bd14f71427d1e84f3dd0314c0f7b2291e5b200ac8c7c3b92583604051610b6b91906119ae565b60405180910390a3505050565b5f610b8384846108aa565b90507fffffffffffffffffffffffffffffffffffffffffffffffffffffffffffffffff8114610bfd5781811015610bef576040517f08c379a0000000000000000000000000000000000000000000000000000000008152600401610be690612097565b60405180910390fd5b610bfc84848484036109b5565b5b50505050565b5f73ffffffffffffffffffffffffffffffffffffffff168373ffffffffffffffffffffffffffffffffffffffff1603610c71576040517f08c379a0000000000000000000000000000000000000000000000000000000008152600401610c6890612125565b60405180910390fd5b5f73ffffffffffffffffffffffffffffffffffffffff168273ffffffffffffffffffffffffffffffffffffffff1603610cdf576040517f08c379a0000000000000000000000000000000000000000000000000000000008152600401610cd6906121b3565b60405180910390fd5b610cea83838361149e565b5f805f8573ffffffffffffffffffffffffffffffffffffffff1673ffffffffffffffffffffffffffffffffffffffff1681526020019081526020015f2054905081811015610d6d576040517f08c379a0000000000000000000000000000000000000000000000000000000008152600401610d6490612241565b60405180910390fd5b8181035f808673ffffffffffffffffffffffffffffffffffffffff1673ffffffffffffffffffffffffffffffffffffffff1681526020019081526020015f2081905550815f808573ffffffffffffffffffffffffffffffffffffffff1673ffffffffffffffffffffffffffffffffffffffff1681526020019081526020015f205f828254610dfb9190611cb3565b925050819055508273ffffffffffffffffffffffffffffffffffffffff168473ffffffffffffffffffffffffffffffffffffffff167fddf252ad1be2c89b69c2b068fc378daa952ba7f163c4a11628f55a4df523b3ef84604051610e5f91906119ae565b60405180910390a3610e728484846114a3565b50505050565b5f7f000000000000000000000000000000000000000000000000000000000000000073ffffffffffffffffffffffffffffffffffffffff163073ffffffffffffffffffffffffffffffffffffffff16148015610ef357507f000000000000000000000000000000000000000000000000000000000000000046145b15610f20577f00000000000000000000000000000000000000000000000000000000000000009050610f8e565b610f8b7f00000000000000000000000000000000000000000000000000000000000000007f00000000000000000000000000000000000000000000000000000000000000007f00000000000000000000000000000000000000000000000000000000000000006114a8565b90505b90565b610f996109ae565b73ffffffffffffffffffffffffffffffffffffffff16610fb761061c565b73ffffffffffffffffffffffffffffffffffffffff161461100d576040517f08c379a0000000000000000000000000000000000000000000000000000000008152600401611004906122a9565b60405180910390fd5b565b5f73ffffffffffffffffffffffffffffffffffffffff168273ffffffffffffffffffffffffffffffffffffffff160361107d576040517f08c379a000000000000000000000000000000000000000000000000000000000815260040161107490612311565b60405180910390fd5b6110885f838361149e565b8060025f8282546110999190611cb3565b92505081905550805f808473ffffffffffffffffffffffffffffffffffffffff1673ffffffffffffffffffffffffffffffffffffffff1681526020019081526020015f205f8282546110eb9190611cb3565b925050819055508173ffffffffffffffffffffffffffffffffffffffff165f73ffffffffffffffffffffffffffffffffffffffff167fddf252ad1be2c89b69c2b068fc378daa952ba7f163c4a11628f55a4df523b3ef8360405161114f91906119ae565b60405180910390a36111625f83836114a3565b5050565b5f73ffffffffffffffffffffffffffffffffffffffff168273ffffffffffffffffffffffffffffffffffffffff16036111d4576040517f08c379a00000000000000000000000000000000000000000000000000000000081526004016111cb9061239f565b60405180910390fd5b6111df825f8361149e565b5f805f8473ffffffffffffffffffffffffffffffffffffffff1673ffffffffffffffffffffffffffffffffffffffff1681526020019081526020015f2054905081811015611262576040517f08c379a00000000000000000000000000000000000000000000000000000000081526004016112599061242d565b60405180910390fd5b8181035f808573ffffffffffffffffffffffffffffffffffffffff1673ffffffffffffffffffffffffffffffffffffffff1681526020019081526020015f20819055508160025f8282546112b6919061244b565b925050819055505f73ffffffffffffffffffffffffffffffffffffffff168373ffffffffffffffffffffffffffffffffffffffff167fddf252ad1be2c89b69c2b068fc378daa952ba7f163c4a11628f55a4df523b3ef8460405161131a91906119ae565b60405180910390a361132d835f846114a3565b505050565b5f60055f9054906101000a900473ffffffffffffffffffffffffffffffffffffffff1690508160055f6101000a81548173ffffffffffffffffffffffffffffffffffffffff021916908373ffffffffffffffffffffffffffffffffffffffff1602179055508173ffffffffffffffffffffffffffffffffffffffff168173ffffffffffffffffffffffffffffffffffffffff167f8be0079c531659141344cd1fd0a4f28419497f9722a3daafe3b4186f6b6457e060405160405180910390a35050565b5f815f01549050919050565b5f8060065f8473ffffffffffffffffffffffffffffffffffffffff1673ffffffffffffffffffffffffffffffffffffffff1681526020019081526020015f20905061144b816113f5565b9150611456816114e1565b50919050565b5f61146e611468610e78565b836114f5565b9050919050565b5f805f61148487878787611527565b9150915061149181611628565b8192505050949350505050565b505050565b505050565b5f83838346306040516020016114c295949392919061247e565b6040516020818303038152906040528051906020012090509392505050565b6001815f015f828254019250508190555050565b5f8282604051602001611509929190612543565b60405160208183030381529060405280519060200120905092915050565b5f807f7fffffffffffffffffffffffffffffff5d576e7357a4501ddfe92f46681b20a0835f1c111561155f575f60039150915061161f565b601b8560ff16141580156115775750601c8560ff1614155b15611588575f60049150915061161f565b5f6001878787876040515f81526020016040526040516115ab9493929190612579565b6020604051602081039080840390855afa1580156115cb573d5f803e3d5ffd5b5050506020604051035190505f73ffffffffffffffffffffffffffffffffffffffff168173ffffffffffffffffffffffffffffffffffffffff1603611617575f6001925092505061161f565b805f92509250505b94509492505050565b5f600481111561163b5761163a6125bc565b5b81600481111561164e5761164d6125bc565b5b03156117f05760016004811115611668576116676125bc565b5b81600481111561167b5761167a6125bc565b5b036116bb576040517f08c379a00000000000000000000000000000000000000000000000000000000081526004016116b290612633565b60405180910390fd5b600260048111156116cf576116ce6125bc565b5b8160048111156116e2576116e16125bc565b5b03611722576040517f08c379a00000000000000000000000000000000000000000000000000000000081526004016117199061269b565b60405180910390fd5b60036004811115611736576117356125bc565b5b816004811115611749576117486125bc565b5b03611789576040517f08c379a000000000000000000000000000000000000000000000000000000000815260040161178090612729565b60405180910390fd5b60048081111561179c5761179b6125bc565b5b8160048111156117af576117ae6125bc565b5b036117ef576040517f08c379a00000000000000000000000000000000000000000000000000000000081526004016117e6906127b7565b60405180910390fd5b5b50565b5f81519050919050565b5f82825260208201905092915050565b5f5b8381101561182a57808201518184015260208101905061180f565b5f8484015250505050565b5f601f19601f8301169050919050565b5f61184f826117f3565b61185981856117fd565b935061186981856020860161180d565b61187281611835565b840191505092915050565b5f6020820190508181035f8301526118958184611845565b905092915050565b5f80fd5b5f73ffffffffffffffffffffffffffffffffffffffff82169050919050565b5f6118ca826118a1565b9050919050565b6118da816118c0565b81146118e4575f80fd5b50565b5f813590506118f5816118d1565b92915050565b5f819050919050565b61190d816118fb565b8114611917575f80fd5b50565b5f8135905061192881611904565b92915050565b5f80604083850312156119445761194361189d565b5b5f611951858286016118e7565b92505060206119628582860161191a565b9150509250929050565b5f8115159050919050565b6119808161196c565b82525050565b5f6020820190506119995f830184611977565b92915050565b6119a8816118fb565b82525050565b5f6020820190506119c15f83018461199f565b92915050565b5f805f606084860312156119de576119dd61189d565b5b5f6119eb868287016118e7565b93505060206119fc868287016118e7565b9250506040611a0d8682870161191a565b9150509250925092565b5f60ff82169050919050565b611a2c81611a17565b82525050565b5f602082019050611a455f830184611a23565b92915050565b5f819050919050565b611a5d81611a4b565b82525050565b5f602082019050611a765f830184611a54565b92915050565b5f60208284031215611a9157611a9061189d565b5b5f611a9e8482850161191a565b91505092915050565b5f60208284031215611abc57611abb61189d565b5b5f611ac9848285016118e7565b91505092915050565b611adb816118c0565b82525050565b5f602082019050611af45f830184611ad2565b92915050565b611b0381611a17565b8114611b0d575f80fd5b50565b5f81359050611b1e81611afa565b92915050565b611b2d81611a4b565b8114611b37575f80fd5b50565b5f81359050611b4881611b24565b92915050565b5f805f805f805f60e0888a031215611b6957611b6861189d565b5b5f611b768a828b016118e7565b9750506020611b878a828b016118e7565b9650506040611b988a828b0161191a565b9550506060611ba98a828b0161191a565b9450506080611bba8a828b01611b10565b93505060a0611bcb8a828b01611b3a565b92505060c0611bdc8a828b01611b3a565b91505092959891949750929550565b5f8060408385031215611c0157611c0061189d565b5b5f611c0e858286016118e7565b9250506020611c1f858286016118e7565b9150509250929050565b7f4e487b71000000000000000000000000000000000000000000000000000000005f52602260045260245ffd5b5f6002820490506001821680611c6d57607f821691505b602082108103611c8057611c7f611c29565b5b50919050565b7f4e487b71000000000000000000000000000000000000000000000000000000005f52601160045260245ffd5b5f611cbd826118fb565b9150611cc8836118fb565b9250828201905080821115611ce057611cdf611c86565b5b92915050565b7f45524332303a2064656372656173656420616c6c6f77616e63652062656c6f775f8201527f207a65726f000000000000000000000000000000000000000000000000000000602082015250565b5f611d406025836117fd565b9150611d4b82611ce6565b604082019050919050565b5f6020820190508181035f830152611d6d81611d34565b9050919050565b7f45524332305065726d69743a206578706972656420646561646c696e650000005f82015250565b5f611da8601d836117fd565b9150611db382611d74565b602082019050919050565b5f6020820190508181035f830152611dd581611d9c565b9050919050565b5f60c082019050611def5f830189611a54565b611dfc6020830188611ad2565b611e096040830187611ad2565b611e16606083018661199f565b611e23608083018561199f565b611e3060a083018461199f565b979650505050505050565b7f45524332305065726d69743a20696e76616c6964207369676e617475726500005f82015250565b5f611e6f601e836117fd565b9150611e7a82611e3b565b602082019050919050565b5f6020820190508181035f830152611e9c81611e63565b9050919050565b7f4f776e61626c653a206e6577206f776e657220697320746865207a65726f20615f8201527f6464726573730000000000000000000000000000000000000000000000000000602082015250565b5f611efd6026836117fd565b9150611f0882611ea3565b604082019050919050565b5f6020820190508181035f830152611f2a81611ef1565b9050919050565b7f45524332303a20617070726f76652066726f6d20746865207a65726f206164645f8201527f7265737300000000000000000000000000000000000000000000000000000000602082015250565b5f611f8b6024836117fd565b9150611f9682611f31565b604082019050919050565b5f6020820190508181035f830152611fb881611f7f565b9050919050565b7f45524332303a20617070726f766520746f20746865207a65726f2061646472655f8201527f7373000000000000000000000000000000000000000000000000000000000000602082015250565b5f6120196022836117fd565b915061202482611fbf565b604082019050919050565b5f6020820190508181035f8301526120468161200d565b9050919050565b7f45524332303a20696e73756666696369656e7420616c6c6f77616e63650000005f82015250565b5f612081601d836117fd565b915061208c8261204d565b602082019050919050565b5f6020820190508181035f8301526120ae81612075565b9050919050565b7f45524332303a207472616e736665722066726f6d20746865207a65726f2061645f8201527f6472657373000000000000000000000000000000000000000000000000000000602082015250565b5f61210f6025836117fd565b915061211a826120b5565b604082019050919050565b5f6020820190508181035f83015261213c81612103565b9050919050565b7f45524332303a207472616e7366657220746f20746865207a65726f20616464725f8201527f6573730000000000000000000000000000000000000000000000000000000000602082015250565b5f61219d6023836117fd565b91506121a882612143565b604082019050919050565b5f6020820190508181035f8301526121ca81612191565b9050919050565b7f45524332303a207472616e7366657220616d6f756e74206578636565647320625f8201527f616c616e63650000000000000000000000000000000000000000000000000000602082015250565b5f61222b6026836117fd565b9150612236826121d1565b604082019050919050565b5f6020820190508181035f8301526122588161221f565b9050919050565b7f4f776e61626c653a2063616c6c6572206973206e6f7420746865206f776e65725f82015250565b5f6122936020836117fd565b915061229e8261225f565b602082019050919050565b5f6020820190508181035f8301526122c081612287565b9050919050565b7f45524332303a206d696e7420746f20746865207a65726f2061646472657373005f82015250565b5f6122fb601f836117fd565b9150612306826122c7565b602082019050919050565b5f6020820190508181035f830152612328816122ef565b9050919050565b7f45524332303a206275726e2066726f6d20746865207a65726f206164647265735f8201527f7300000000000000000000000000000000000000000000000000000000000000602082015250565b5f6123896021836117fd565b91506123948261232f565b604082019050919050565b5f6020820190508181035f8301526123b68161237d565b9050919050565b7f45524332303a206275726e20616d6f756e7420657863656564732062616c616e5f8201527f6365000000000000000000000000000000000000000000000000000000000000602082015250565b5f6124176022836117fd565b9150612422826123bd565b604082019050919050565b5f6020820190508181035f8301526124448161240b565b9050919050565b5f612455826118fb565b9150612460836118fb565b925082820390508181111561247857612477611c86565b5b92915050565b5f60a0820190506124915f830188611a54565b61249e6020830187611a54565b6124ab6040830186611a54565b6124b8606083018561199f565b6124c56080830184611ad2565b9695505050505050565b5f81905092915050565b7f19010000000000000000000000000000000000000000000000000000000000005f82015250565b5f61250d6002836124cf565b9150612518826124d9565b600282019050919050565b5f819050919050565b61253d61253882611a4b565b612523565b82525050565b5f61254d82612501565b9150612559828561252c565b602082019150612569828461252c565b6020820191508190509392505050565b5f60808201905061258c5f830187611a54565b6125996020830186611a23565b6125a66040830185611a54565b6125b36060830184611a54565b95945050505050565b7f4e487b71000000000000000000000000000000000000000000000000000000005f52602160045260245ffd5b7f45434453413a20696e76616c6964207369676e617475726500000000000000005f82015250565b5f61261d6018836117fd565b9150612628826125e9565b602082019050919050565b5f6020820190508181035f83015261264a81612611565b9050919050565b7f45434453413a20696e76616c6964207369676e6174757265206c656e677468005f82015250565b5f612685601f836117fd565b915061269082612651565b602082019050919050565b5f6020820190508181035f8301526126b281612679565b9050919050565b7f45434453413a20696e76616c6964207369676e6174757265202773272076616c5f8201527f7565000000000000000000000000000000000000000000000000000000000000602082015250565b5f6127136022836117fd565b915061271e826126b9565b604082019050919050565b5f6020820190508181035f83015261274081612707565b9050919050565b7f45434453413a20696e76616c6964207369676e6174757265202776272076616c5f8201527f7565000000000000000000000000000000000000000000000000000000000000602082015250565b5f6127a16022836117fd565b91506127ac82612747565b604082019050919050565b5f6020820190508181035f8301526127ce81612795565b905091905056fea2646970667358221220cb9c04a20e83e5373ff93fd037b3d676cf8374671c749441443de9951113ce5864736f6c63430008140033",
					"opcodes": "PUSH2 0x140 PUSH1 0x40 MSTORE CALLVALUE DUP1 ISZERO PUSH3 0x11 JUMPI PUSH0 DUP1 REVERT JUMPDEST POP PUSH1 0x40 MLOAD DUP1 PUSH1 0x40 ADD PUSH1 0x40 MSTORE DUP1 PUSH1 0x7 DUP2 MSTORE PUSH1 0x20 ADD PUSH32 0x4D79546F6B656E00000000000000000000000000000000000000000000000000 DUP2 MSTORE POP DUP1 PUSH1 0x40 MLOAD DUP1 PUSH1 0x40 ADD PUSH1 0x40 MSTORE DUP1 PUSH1 0x1 DUP2 MSTORE PUSH1 0x20 ADD PUSH32 0x3100000000000000000000000000000000000000000000000000000000000000 DUP2 MSTORE POP PUSH1 0x40 MLOAD DUP1 PUSH1 0x40 ADD PUSH1 0x40 MSTORE DUP1 PUSH1 0x7 DUP2 MSTORE PUSH1 0x20 ADD PUSH32 0x4D79546F6B656E00000000000000000000000000000000000000000000000000 DUP2 MSTORE POP PUSH1 0x40 MLOAD DUP1 PUSH1 0x40 ADD PUSH1 0x40 MSTORE DUP1 PUSH1 0x3 DUP2 MSTORE PUSH1 0x20 ADD PUSH32 0x4D544B0000000000000000000000000000000000000000000000000000000000 DUP2 MSTORE POP DUP2 PUSH1 0x3 SWAP1 DUP2 PUSH3 0xFC SWAP2 SWAP1 PUSH3 0x550 JUMP JUMPDEST POP DUP1 PUSH1 0x4 SWAP1 DUP2 PUSH3 0x10E SWAP2 SWAP1 PUSH3 0x550 JUMP JUMPDEST POP POP POP PUSH3 0x131 PUSH3 0x125 PUSH3 0x1E7 PUSH1 0x20 SHL PUSH1 0x20 SHR JUMP JUMPDEST PUSH3 0x1EE PUSH1 0x20 SHL PUSH1 0x20 SHR JUMP JUMPDEST PUSH0 DUP3 DUP1 MLOAD SWAP1 PUSH1 0x20 ADD KECCAK256 SWAP1 POP PUSH0 DUP3 DUP1 MLOAD SWAP1 PUSH1 0x20 ADD KECCAK256 SWAP1 POP PUSH0 PUSH32 0x8B73C3C69BB8FE3D512ECC4CF759CC79239F7B179B0FFACAA9A75D522B39400F SWAP1 POP DUP3 PUSH1 0xE0 DUP2 DUP2 MSTORE POP POP DUP2 PUSH2 0x100 DUP2 DUP2 MSTORE POP POP CHAINID PUSH1 0xA0 DUP2 DUP2 MSTORE POP POP PUSH3 0x197 DUP2 DUP5 DUP5 PUSH3 0x2B1 PUSH1 0x20 SHL PUSH1 0x20 SHR JUMP JUMPDEST PUSH1 0x80 DUP2 DUP2 MSTORE POP POP ADDRESS PUSH20 0xFFFFFFFFFFFFFFFFFFFFFFFFFFFFFFFFFFFFFFFF AND PUSH1 0xC0 DUP2 PUSH20 0xFFFFFFFFFFFFFFFFFFFFFFFFFFFFFFFFFFFFFFFF AND DUP2 MSTORE POP POP DUP1 PUSH2 0x120 DUP2 DUP2 MSTORE POP POP POP POP POP POP POP POP PUSH3 0x6FD JUMP JUMPDEST PUSH0 CALLER SWAP1 POP SWAP1 JUMP JUMPDEST PUSH0 PUSH1 0x5 PUSH0 SWAP1 SLOAD SWAP1 PUSH2 0x100 EXP SWAP1 DIV PUSH20 0xFFFFFFFFFFFFFFFFFFFFFFFFFFFFFFFFFFFFFFFF AND SWAP1 POP DUP2 PUSH1 0x5 PUSH0 PUSH2 0x100 EXP DUP2 SLOAD DUP2 PUSH20 0xFFFFFFFFFFFFFFFFFFFFFFFFFFFFFFFFFFFFFFFF MUL NOT AND SWAP1 DUP4 PUSH20 0xFFFFFFFFFFFFFFFFFFFFFFFFFFFFFFFFFFFFFFFF AND MUL OR SWAP1 SSTORE POP DUP2 PUSH20 0xFFFFFFFFFFFFFFFFFFFFFFFFFFFFFFFFFFFFFFFF AND DUP2 PUSH20 0xFFFFFFFFFFFFFFFFFFFFFFFFFFFFFFFFFFFFFFFF AND PUSH32 0x8BE0079C531659141344CD1FD0A4F28419497F9722A3DAAFE3B4186F6B6457E0 PUSH1 0x40 MLOAD PUSH1 0x40 MLOAD DUP1 SWAP2 SUB SWAP1 LOG3 POP POP JUMP JUMPDEST PUSH0 DUP4 DUP4 DUP4 CHAINID ADDRESS PUSH1 0x40 MLOAD PUSH1 0x20 ADD PUSH3 0x2CD SWAP6 SWAP5 SWAP4 SWAP3 SWAP2 SWAP1 PUSH3 0x6A2 JUMP JUMPDEST PUSH1 0x40 MLOAD PUSH1 0x20 DUP2 DUP4 SUB SUB DUP2 MSTORE SWAP1 PUSH1 0x40 MSTORE DUP1 MLOAD SWAP1 PUSH1 0x20 ADD KECCAK256 SWAP1 POP SWAP4 SWAP3 POP POP POP JUMP JUMPDEST PUSH0 DUP2 MLOAD SWAP1 POP SWAP2 SWAP1 POP JUMP JUMPDEST PUSH32 0x4E487B7100000000000000000000000000000000000000000000000000000000 PUSH0 MSTORE PUSH1 0x41 PUSH1 0x4 MSTORE PUSH1 0x24 PUSH0 REVERT JUMPDEST PUSH32 0x4E487B7100000000000000000000000000000000000000000000000000000000 PUSH0 MSTORE PUSH1 0x22 PUSH1 0x4 MSTORE PUSH1 0x24 PUSH0 REVERT JUMPDEST PUSH0 PUSH1 0x2 DUP3 DIV SWAP1 POP PUSH1 0x1 DUP3 AND DUP1 PUSH3 0x368 JUMPI PUSH1 0x7F DUP3 AND SWAP2 POP JUMPDEST PUSH1 0x20 DUP3 LT DUP2 SUB PUSH3 0x37E JUMPI PUSH3 0x37D PUSH3 0x323 JUMP JUMPDEST JUMPDEST POP SWAP2 SWAP1 POP JUMP JUMPDEST PUSH0 DUP2 SWAP1 POP DUP2 PUSH0 MSTORE PUSH1 0x20 PUSH0 KECCAK256 SWAP1 POP SWAP2 SWAP1 POP JUMP JUMPDEST PUSH0 PUSH1 0x20 PUSH1 0x1F DUP4 ADD DIV SWAP1 POP SWAP2 SWAP1 POP JUMP JUMPDEST PUSH0 DUP3 DUP3 SHL SWAP1 POP SWAP3 SWAP2 POP POP JUMP JUMPDEST PUSH0 PUSH1 0x8 DUP4 MUL PUSH3 0x3E2 PUSH32 0xFFFFFFFFFFFFFFFFFFFFFFFFFFFFFFFFFFFFFFFFFFFFFFFFFFFFFFFFFFFFFFFF DUP3 PUSH3 0x3A5 JUMP JUMPDEST PUSH3 0x3EE DUP7 DUP4 PUSH3 0x3A5 JUMP JUMPDEST SWAP6 POP DUP1 NOT DUP5 AND SWAP4 POP DUP1 DUP7 AND DUP5 OR SWAP3 POP POP POP SWAP4 SWAP3 POP POP POP JUMP JUMPDEST PUSH0 DUP2 SWAP1 POP SWAP2 SWAP1 POP JUMP JUMPDEST PUSH0 DUP2 SWAP1 POP SWAP2 SWAP1 POP JUMP JUMPDEST PUSH0 PUSH3 0x438 PUSH3 0x432 PUSH3 0x42C DUP5 PUSH3 0x406 JUMP JUMPDEST PUSH3 0x40F JUMP JUMPDEST PUSH3 0x406 JUMP JUMPDEST SWAP1 POP SWAP2 SWAP1 POP JUMP JUMPDEST PUSH0 DUP2 SWAP1 POP SWAP2 SWAP1 POP JUMP JUMPDEST PUSH3 0x453 DUP4 PUSH3 0x418 JUMP JUMPDEST PUSH3 0x46B PUSH3 0x462 DUP3 PUSH3 0x43F JUMP JUMPDEST DUP5 DUP5 SLOAD PUSH3 0x3B1 JUMP JUMPDEST DUP3 SSTORE POP POP POP POP JUMP JUMPDEST PUSH0 SWAP1 JUMP JUMPDEST PUSH3 0x481 PUSH3 0x473 JUMP JUMPDEST PUSH3 0x48E DUP2 DUP5 DUP5 PUSH3 0x448 JUMP JUMPDEST POP POP POP JUMP JUMPDEST JUMPDEST DUP2 DUP2 LT ISZERO PUSH3 0x4B5 JUMPI PUSH3 0x4A9 PUSH0 DUP3 PUSH3 0x477 JUMP JUMPDEST PUSH1 0x1 DUP2 ADD SWAP1 POP PUSH3 0x494 JUMP JUMPDEST POP POP JUMP JUMPDEST PUSH1 0x1F DUP3 GT ISZERO PUSH3 0x504 JUMPI PUSH3 0x4CE DUP2 PUSH3 0x384 JUMP JUMPDEST PUSH3 0x4D9 DUP5 PUSH3 0x396 JUMP JUMPDEST DUP2 ADD PUSH1 0x20 DUP6 LT ISZERO PUSH3 0x4E9 JUMPI DUP2 SWAP1 POP JUMPDEST PUSH3 0x501 PUSH3 0x4F8 DUP6 PUSH3 0x396 JUMP JUMPDEST DUP4 ADD DUP3 PUSH3 0x493 JUMP JUMPDEST POP POP JUMPDEST POP POP POP JUMP JUMPDEST PUSH0 DUP3 DUP3 SHR SWAP1 POP SWAP3 SWAP2 POP POP JUMP JUMPDEST PUSH0 PUSH3 0x526 PUSH0 NOT DUP5 PUSH1 0x8 MUL PUSH3 0x509 JUMP JUMPDEST NOT DUP1 DUP4 AND SWAP2 POP POP SWAP3 SWAP2 POP POP JUMP JUMPDEST PUSH0 PUSH3 0x540 DUP4 DUP4 PUSH3 0x515 JUMP JUMPDEST SWAP2 POP DUP3 PUSH1 0x2 MUL DUP3 OR SWAP1 POP SWAP3 SWAP2 POP POP JUMP JUMPDEST PUSH3 0x55B DUP3 PUSH3 0x2EC JUMP JUMPDEST PUSH8 0xFFFFFFFFFFFFFFFF DUP2 GT ISZERO PUSH3 0x577 JUMPI PUSH3 0x576 PUSH3 0x2F6 JUMP JUMPDEST JUMPDEST PUSH3 0x583 DUP3 SLOAD PUSH3 0x350 JUMP JUMPDEST PUSH3 0x590 DUP3 DUP3 DUP6 PUSH3 0x4B9 JUMP JUMPDEST PUSH0 PUSH1 0x20 SWAP1 POP PUSH1 0x1F DUP4 GT PUSH1 0x1 DUP2 EQ PUSH3 0x5C6 JUMPI PUSH0 DUP5 ISZERO PUSH3 0x5B1 JUMPI DUP3 DUP8 ADD MLOAD SWAP1 POP JUMPDEST PUSH3 0x5BD DUP6 DUP3 PUSH3 0x533 JUMP JUMPDEST DUP7 SSTORE POP PUSH3 0x62C JUMP JUMPDEST PUSH1 0x1F NOT DUP5 AND PUSH3 0x5D6 DUP7 PUSH3 0x384 JUMP JUMPDEST PUSH0 JUMPDEST DUP3 DUP2 LT ISZERO PUSH3 0x5FF JUMPI DUP5 DUP10 ADD MLOAD DUP3 SSTORE PUSH1 0x1 DUP3 ADD SWAP2 POP PUSH1 0x20 DUP6 ADD SWAP5 POP PUSH1 0x20 DUP2 ADD SWAP1 POP PUSH3 0x5D8 JUMP JUMPDEST DUP7 DUP4 LT ISZERO PUSH3 0x61F JUMPI DUP5 DUP10 ADD MLOAD PUSH3 0x61B PUSH1 0x1F DUP10 AND DUP3 PUSH3 0x515 JUMP JUMPDEST DUP4 SSTORE POP JUMPDEST PUSH1 0x1 PUSH1 0x2 DUP9 MUL ADD DUP9 SSTORE POP POP POP JUMPDEST POP POP POP POP POP POP JUMP JUMPDEST PUSH0 DUP2 SWAP1 POP SWAP2 SWAP1 POP JUMP JUMPDEST PUSH3 0x648 DUP2 PUSH3 0x634 JUMP JUMPDEST DUP3 MSTORE POP POP JUMP JUMPDEST PUSH3 0x659 DUP2 PUSH3 0x406 JUMP JUMPDEST DUP3 MSTORE POP POP JUMP JUMPDEST PUSH0 PUSH20 0xFFFFFFFFFFFFFFFFFFFFFFFFFFFFFFFFFFFFFFFF DUP3 AND SWAP1 POP SWAP2 SWAP1 POP JUMP JUMPDEST PUSH0 PUSH3 0x68A DUP3 PUSH3 0x65F JUMP JUMPDEST SWAP1 POP SWAP2 SWAP1 POP JUMP JUMPDEST PUSH3 0x69C DUP2 PUSH3 0x67E JUMP JUMPDEST DUP3 MSTORE POP POP JUMP JUMPDEST PUSH0 PUSH1 0xA0 DUP3 ADD SWAP1 POP PUSH3 0x6B7 PUSH0 DUP4 ADD DUP9 PUSH3 0x63D JUMP JUMPDEST PUSH3 0x6C6 PUSH1 0x20 DUP4 ADD DUP8 PUSH3 0x63D JUMP JUMPDEST PUSH3 0x6D5 PUSH1 0x40 DUP4 ADD DUP7 PUSH3 0x63D JUMP JUMPDEST PUSH3 0x6E4 PUSH1 0x60 DUP4 ADD DUP6 PUSH3 0x64E JUMP JUMPDEST PUSH3 0x6F3 PUSH1 0x80 DUP4 ADD DUP5 PUSH3 0x691 JUMP JUMPDEST SWAP7 SWAP6 POP POP POP POP POP POP JUMP JUMPDEST PUSH1 0x80 MLOAD PUSH1 0xA0 MLOAD PUSH1 0xC0 MLOAD PUSH1 0xE0 MLOAD PUSH2 0x100 MLOAD PUSH2 0x120 MLOAD PUSH2 0x280B PUSH3 0x745 PUSH0 CODECOPY PUSH0 PUSH2 0xF25 ADD MSTORE PUSH0 PUSH2 0xF67 ADD MSTORE PUSH0 PUSH2 0xF46 ADD MSTORE PUSH0 PUSH2 0xE7B ADD MSTORE PUSH0 PUSH2 0xED1 ADD MSTORE PUSH0 PUSH2 0xEFA ADD MSTORE PUSH2 0x280B PUSH0 RETURN INVALID PUSH1 0x80 PUSH1 0x40 MSTORE CALLVALUE DUP1 ISZERO PUSH2 0xF JUMPI PUSH0 DUP1 REVERT JUMPDEST POP PUSH1 0x4 CALLDATASIZE LT PUSH2 0x12A JUMPI PUSH0 CALLDATALOAD PUSH1 0xE0 SHR DUP1 PUSH4 0x715018A6 GT PUSH2 0xAB JUMPI DUP1 PUSH4 0xA457C2D7 GT PUSH2 0x6F JUMPI DUP1 PUSH4 0xA457C2D7 EQ PUSH2 0x330 JUMPI DUP1 PUSH4 0xA9059CBB EQ PUSH2 0x360 JUMPI DUP1 PUSH4 0xD505ACCF EQ PUSH2 0x390 JUMPI DUP1 PUSH4 0xDD62ED3E EQ PUSH2 0x3AC JUMPI DUP1 PUSH4 0xF2FDE38B EQ PUSH2 0x3DC JUMPI PUSH2 0x12A JUMP JUMPDEST DUP1 PUSH4 0x715018A6 EQ PUSH2 0x29E JUMPI DUP1 PUSH4 0x79CC6790 EQ PUSH2 0x2A8 JUMPI DUP1 PUSH4 0x7ECEBE00 EQ PUSH2 0x2C4 JUMPI DUP1 PUSH4 0x8DA5CB5B EQ PUSH2 0x2F4 JUMPI DUP1 PUSH4 0x95D89B41 EQ PUSH2 0x312 JUMPI PUSH2 0x12A JUMP JUMPDEST DUP1 PUSH4 0x3644E515 GT PUSH2 0xF2 JUMPI DUP1 PUSH4 0x3644E515 EQ PUSH2 0x1E8 JUMPI DUP1 PUSH4 0x39509351 EQ PUSH2 0x206 JUMPI DUP1 PUSH4 0x40C10F19 EQ PUSH2 0x236 JUMPI DUP1 PUSH4 0x42966C68 EQ PUSH2 0x252 JUMPI DUP1 PUSH4 0x70A08231 EQ PUSH2 0x26E JUMPI PUSH2 0x12A JUMP JUMPDEST DUP1 PUSH4 0x6FDDE03 EQ PUSH2 0x12E JUMPI DUP1 PUSH4 0x95EA7B3 EQ PUSH2 0x14C JUMPI DUP1 PUSH4 0x18160DDD EQ PUSH2 0x17C JUMPI DUP1 PUSH4 0x23B872DD EQ PUSH2 0x19A JUMPI DUP1 PUSH4 0x313CE567 EQ PUSH2 0x1CA JUMPI JUMPDEST PUSH0 DUP1 REVERT JUMPDEST PUSH2 0x136 PUSH2 0x3F8 JUMP JUMPDEST PUSH1 0x40 MLOAD PUSH2 0x143 SWAP2 SWAP1 PUSH2 0x187D JUMP JUMPDEST PUSH1 0x40 MLOAD DUP1 SWAP2 SUB SWAP1 RETURN JUMPDEST PUSH2 0x166 PUSH1 0x4 DUP1 CALLDATASIZE SUB DUP2 ADD SWAP1 PUSH2 0x161 SWAP2 SWAP1 PUSH2 0x192E JUMP JUMPDEST PUSH2 0x488 JUMP JUMPDEST PUSH1 0x40 MLOAD PUSH2 0x173 SWAP2 SWAP1 PUSH2 0x1986 JUMP JUMPDEST PUSH1 0x40 MLOAD DUP1 SWAP2 SUB SWAP1 RETURN JUMPDEST PUSH2 0x184 PUSH2 0x4AA JUMP JUMPDEST PUSH1 0x40 MLOAD PUSH2 0x191 SWAP2 SWAP1 PUSH2 0x19AE JUMP JUMPDEST PUSH1 0x40 MLOAD DUP1 SWAP2 SUB SWAP1 RETURN JUMPDEST PUSH2 0x1B4 PUSH1 0x4 DUP1 CALLDATASIZE SUB DUP2 ADD SWAP1 PUSH2 0x1AF SWAP2 SWAP1 PUSH2 0x19C7 JUMP JUMPDEST PUSH2 0x4B3 JUMP JUMPDEST PUSH1 0x40 MLOAD PUSH2 0x1C1 SWAP2 SWAP1 PUSH2 0x1986 JUMP JUMPDEST PUSH1 0x40 MLOAD DUP1 SWAP2 SUB SWAP1 RETURN JUMPDEST PUSH2 0x1D2 PUSH2 0x4E1 JUMP JUMPDEST PUSH1 0x40 MLOAD PUSH2 0x1DF SWAP2 SWAP1 PUSH2 0x1A32 JUMP JUMPDEST PUSH1 0x40 MLOAD DUP1 SWAP2 SUB SWAP1 RETURN JUMPDEST PUSH2 0x1F0 PUSH2 0x4E9 JUMP JUMPDEST PUSH1 0x40 MLOAD PUSH2 0x1FD SWAP2 SWAP1 PUSH2 0x1A63 JUMP JUMPDEST PUSH1 0x40 MLOAD DUP1 SWAP2 SUB SWAP1 RETURN JUMPDEST PUSH2 0x220 PUSH1 0x4 DUP1 CALLDATASIZE SUB DUP2 ADD SWAP1 PUSH2 0x21B SWAP2 SWAP1 PUSH2 0x192E JUMP JUMPDEST PUSH2 0x4F7 JUMP JUMPDEST PUSH1 0x40 MLOAD PUSH2 0x22D SWAP2 SWAP1 PUSH2 0x1986 JUMP JUMPDEST PUSH1 0x40 MLOAD DUP1 SWAP2 SUB SWAP1 RETURN JUMPDEST PUSH2 0x250 PUSH1 0x4 DUP1 CALLDATASIZE SUB DUP2 ADD SWAP1 PUSH2 0x24B SWAP2 SWAP1 PUSH2 0x192E JUMP JUMPDEST PUSH2 0x52D JUMP JUMPDEST STOP JUMPDEST PUSH2 0x26C PUSH1 0x4 DUP1 CALLDATASIZE SUB DUP2 ADD SWAP1 PUSH2 0x267 SWAP2 SWAP1 PUSH2 0x1A7C JUMP JUMPDEST PUSH2 0x543 JUMP JUMPDEST STOP JUMPDEST PUSH2 0x288 PUSH1 0x4 DUP1 CALLDATASIZE SUB DUP2 ADD SWAP1 PUSH2 0x283 SWAP2 SWAP1 PUSH2 0x1AA7 JUMP JUMPDEST PUSH2 0x557 JUMP JUMPDEST PUSH1 0x40 MLOAD PUSH2 0x295 SWAP2 SWAP1 PUSH2 0x19AE JUMP JUMPDEST PUSH1 0x40 MLOAD DUP1 SWAP2 SUB SWAP1 RETURN JUMPDEST PUSH2 0x2A6 PUSH2 0x59C JUMP JUMPDEST STOP JUMPDEST PUSH2 0x2C2 PUSH1 0x4 DUP1 CALLDATASIZE SUB DUP2 ADD SWAP1 PUSH2 0x2BD SWAP2 SWAP1 PUSH2 0x192E JUMP JUMPDEST PUSH2 0x5AF JUMP JUMPDEST STOP JUMPDEST PUSH2 0x2DE PUSH1 0x4 DUP1 CALLDATASIZE SUB DUP2 ADD SWAP1 PUSH2 0x2D9 SWAP2 SWAP1 PUSH2 0x1AA7 JUMP JUMPDEST PUSH2 0x5CF JUMP JUMPDEST PUSH1 0x40 MLOAD PUSH2 0x2EB SWAP2 SWAP1 PUSH2 0x19AE JUMP JUMPDEST PUSH1 0x40 MLOAD DUP1 SWAP2 SUB SWAP1 RETURN JUMPDEST PUSH2 0x2FC PUSH2 0x61C JUMP JUMPDEST PUSH1 0x40 MLOAD PUSH2 0x309 SWAP2 SWAP1 PUSH2 0x1AE1 JUMP JUMPDEST PUSH1 0x40 MLOAD DUP1 SWAP2 SUB SWAP1 RETURN JUMPDEST PUSH2 0x31A PUSH2 0x644 JUMP JUMPDEST PUSH1 0x40 MLOAD PUSH2 0x327 SWAP2 SWAP1 PUSH2 0x187D JUMP JUMPDEST PUSH1 0x40 MLOAD DUP1 SWAP2 SUB SWAP1 RETURN JUMPDEST PUSH2 0x34A PUSH1 0x4 DUP1 CALLDATASIZE SUB DUP2 ADD SWAP1 PUSH2 0x345 SWAP2 SWAP1 PUSH2 0x192E JUMP JUMPDEST PUSH2 0x6D4 JUMP JUMPDEST PUSH1 0x40 MLOAD PUSH2 0x357 SWAP2 SWAP1 PUSH2 0x1986 JUMP JUMPDEST PUSH1 0x40 MLOAD DUP1 SWAP2 SUB SWAP1 RETURN JUMPDEST PUSH2 0x37A PUSH1 0x4 DUP1 CALLDATASIZE SUB DUP2 ADD SWAP1 PUSH2 0x375 SWAP2 SWAP1 PUSH2 0x192E JUMP JUMPDEST PUSH2 0x749 JUMP JUMPDEST PUSH1 0x40 MLOAD PUSH2 0x387 SWAP2 SWAP1 PUSH2 0x1986 JUMP JUMPDEST PUSH1 0x40 MLOAD DUP1 SWAP2 SUB SWAP1 RETURN JUMPDEST PUSH2 0x3AA PUSH1 0x4 DUP1 CALLDATASIZE SUB DUP2 ADD SWAP1 PUSH2 0x3A5 SWAP2 SWAP1 PUSH2 0x1B4E JUMP JUMPDEST PUSH2 0x76B JUMP JUMPDEST STOP JUMPDEST PUSH2 0x3C6 PUSH1 0x4 DUP1 CALLDATASIZE SUB DUP2 ADD SWAP1 PUSH2 0x3C1 SWAP2 SWAP1 PUSH2 0x1BEB JUMP JUMPDEST PUSH2 0x8AA JUMP JUMPDEST PUSH1 0x40 MLOAD PUSH2 0x3D3 SWAP2 SWAP1 PUSH2 0x19AE JUMP JUMPDEST PUSH1 0x40 MLOAD DUP1 SWAP2 SUB SWAP1 RETURN JUMPDEST PUSH2 0x3F6 PUSH1 0x4 DUP1 CALLDATASIZE SUB DUP2 ADD SWAP1 PUSH2 0x3F1 SWAP2 SWAP1 PUSH2 0x1AA7 JUMP JUMPDEST PUSH2 0x92C JUMP JUMPDEST STOP JUMPDEST PUSH1 0x60 PUSH1 0x3 DUP1 SLOAD PUSH2 0x407 SWAP1 PUSH2 0x1C56 JUMP JUMPDEST DUP1 PUSH1 0x1F ADD PUSH1 0x20 DUP1 SWAP2 DIV MUL PUSH1 0x20 ADD PUSH1 0x40 MLOAD SWAP1 DUP2 ADD PUSH1 0x40 MSTORE DUP1 SWAP3 SWAP2 SWAP1 DUP2 DUP2 MSTORE PUSH1 0x20 ADD DUP3 DUP1 SLOAD PUSH2 0x433 SWAP1 PUSH2 0x1C56 JUMP JUMPDEST DUP1 ISZERO PUSH2 0x47E JUMPI DUP1 PUSH1 0x1F LT PUSH2 0x455 JUMPI PUSH2 0x100 DUP1 DUP4 SLOAD DIV MUL DUP4 MSTORE SWAP2 PUSH1 0x20 ADD SWAP2 PUSH2 0x47E JUMP JUMPDEST DUP3 ADD SWAP2 SWAP1 PUSH0 MSTORE PUSH1 0x20 PUSH0 KECCAK256 SWAP1 JUMPDEST DUP2 SLOAD DUP2 MSTORE SWAP1 PUSH1 0x1 ADD SWAP1 PUSH1 0x20 ADD DUP1 DUP4 GT PUSH2 0x461 JUMPI DUP3 SWAP1 SUB PUSH1 0x1F AND DUP3 ADD SWAP2 JUMPDEST POP POP POP POP POP SWAP1 POP SWAP1 JUMP JUMPDEST PUSH0 DUP1 PUSH2 0x492 PUSH2 0x9AE JUMP JUMPDEST SWAP1 POP PUSH2 0x49F DUP2 DUP6 DUP6 PUSH2 0x9B5 JUMP JUMPDEST PUSH1 0x1 SWAP2 POP POP SWAP3 SWAP2 POP POP JUMP JUMPDEST PUSH0 PUSH1 0x2 SLOAD SWAP1 POP SWAP1 JUMP JUMPDEST PUSH0 DUP1 PUSH2 0x4BD PUSH2 0x9AE JUMP JUMPDEST SWAP1 POP PUSH2 0x4CA DUP6 DUP3 DUP6 PUSH2 0xB78 JUMP JUMPDEST PUSH2 0x4D5 DUP6 DUP6 DUP6 PUSH2 0xC03 JUMP JUMPDEST PUSH1 0x1 SWAP2 POP POP SWAP4 SWAP3 POP POP POP JUMP JUMPDEST PUSH0 PUSH1 0x12 SWAP1 POP SWAP1 JUMP JUMPDEST PUSH0 PUSH2 0x4F2 PUSH2 0xE78 JUMP JUMPDEST SWAP1 POP SWAP1 JUMP JUMPDEST PUSH0 DUP1 PUSH2 0x501 PUSH2 0x9AE JUMP JUMPDEST SWAP1 POP PUSH2 0x522 DUP2 DUP6 DUP6 PUSH2 0x513 DUP6 DUP10 PUSH2 0x8AA JUMP JUMPDEST PUSH2 0x51D SWAP2 SWAP1 PUSH2 0x1CB3 JUMP JUMPDEST PUSH2 0x9B5 JUMP JUMPDEST PUSH1 0x1 SWAP2 POP POP SWAP3 SWAP2 POP POP JUMP JUMPDEST PUSH2 0x535 PUSH2 0xF91 JUMP JUMPDEST PUSH2 0x53F DUP3 DUP3 PUSH2 0x100F JUMP JUMPDEST POP POP JUMP JUMPDEST PUSH2 0x554 PUSH2 0x54E PUSH2 0x9AE JUMP JUMPDEST DUP3 PUSH2 0x1166 JUMP JUMPDEST POP JUMP JUMPDEST PUSH0 DUP1 PUSH0 DUP4 PUSH20 0xFFFFFFFFFFFFFFFFFFFFFFFFFFFFFFFFFFFFFFFF AND PUSH20 0xFFFFFFFFFFFFFFFFFFFFFFFFFFFFFFFFFFFFFFFF AND DUP2 MSTORE PUSH1 0x20 ADD SWAP1 DUP2 MSTORE PUSH1 0x20 ADD PUSH0 KECCAK256 SLOAD SWAP1 POP SWAP2 SWAP1 POP JUMP JUMPDEST PUSH2 0x5A4 PUSH2 0xF91 JUMP JUMPDEST PUSH2 0x5AD PUSH0 PUSH2 0x1332 JUMP JUMPDEST JUMP JUMPDEST PUSH2 0x5C1 DUP3 PUSH2 0x5BB PUSH2 0x9AE JUMP JUMPDEST DUP4 PUSH2 0xB78 JUMP JUMPDEST PUSH2 0x5CB DUP3 DUP3 PUSH2 0x1166 JUMP JUMPDEST POP POP JUMP JUMPDEST PUSH0 PUSH2 0x615 PUSH1 0x6 PUSH0 DUP5 PUSH20 0xFFFFFFFFFFFFFFFFFFFFFFFFFFFFFFFFFFFFFFFF AND PUSH20 0xFFFFFFFFFFFFFFFFFFFFFFFFFFFFFFFFFFFFFFFF AND DUP2 MSTORE PUSH1 0x20 ADD SWAP1 DUP2 MSTORE PUSH1 0x20 ADD PUSH0 KECCAK256 PUSH2 0x13F5 JUMP JUMPDEST SWAP1 POP SWAP2 SWAP1 POP JUMP JUMPDEST PUSH0 PUSH1 0x5 PUSH0 SWAP1 SLOAD SWAP1 PUSH2 0x100 EXP SWAP1 DIV PUSH20 0xFFFFFFFFFFFFFFFFFFFFFFFFFFFFFFFFFFFFFFFF AND SWAP1 POP SWAP1 JUMP JUMPDEST PUSH1 0x60 PUSH1 0x4 DUP1 SLOAD PUSH2 0x653 SWAP1 PUSH2 0x1C56 JUMP JUMPDEST DUP1 PUSH1 0x1F ADD PUSH1 0x20 DUP1 SWAP2 DIV MUL PUSH1 0x20 ADD PUSH1 0x40 MLOAD SWAP1 DUP2 ADD PUSH1 0x40 MSTORE DUP1 SWAP3 SWAP2 SWAP1 DUP2 DUP2 MSTORE PUSH1 0x20 ADD DUP3 DUP1 SLOAD PUSH2 0x67F SWAP1 PUSH2 0x1C56 JUMP JUMPDEST DUP1 ISZERO PUSH2 0x6CA JUMPI DUP1 PUSH1 0x1F LT PUSH2 0x6A1 JUMPI PUSH2 0x100 DUP1 DUP4 SLOAD DIV MUL DUP4 MSTORE SWAP2 PUSH1 0x20 ADD SWAP2 PUSH2 0x6CA JUMP JUMPDEST DUP3 ADD SWAP2 SWAP1 PUSH0 MSTORE PUSH1 0x20 PUSH0 KECCAK256 SWAP1 JUMPDEST DUP2 SLOAD DUP2 MSTORE SWAP1 PUSH1 0x1 ADD SWAP1 PUSH1 0x20 ADD DUP1 DUP4 GT PUSH2 0x6AD JUMPI DUP3 SWAP1 SUB PUSH1 0x1F AND DUP3 ADD SWAP2 JUMPDEST POP POP POP POP POP SWAP1 POP SWAP1 JUMP JUMPDEST PUSH0 DUP1 PUSH2 0x6DE PUSH2 0x9AE JUMP JUMPDEST SWAP1 POP PUSH0 PUSH2 0x6EB DUP3 DUP7 PUSH2 0x8AA JUMP JUMPDEST SWAP1 POP DUP4 DUP2 LT ISZERO PUSH2 0x730 JUMPI PUSH1 0x40 MLOAD PUSH32 0x8C379A000000000000000000000000000000000000000000000000000000000 DUP2 MSTORE PUSH1 0x4 ADD PUSH2 0x727 SWAP1 PUSH2 0x1D56 JUMP JUMPDEST PUSH1 0x40 MLOAD DUP1 SWAP2 SUB SWAP1 REVERT JUMPDEST PUSH2 0x73D DUP3 DUP7 DUP7 DUP5 SUB PUSH2 0x9B5 JUMP JUMPDEST PUSH1 0x1 SWAP3 POP POP POP SWAP3 SWAP2 POP POP JUMP JUMPDEST PUSH0 DUP1 PUSH2 0x753 PUSH2 0x9AE JUMP JUMPDEST SWAP1 POP PUSH2 0x760 DUP2 DUP6 DUP6 PUSH2 0xC03 JUMP JUMPDEST PUSH1 0x1 SWAP2 POP POP SWAP3 SWAP2 POP POP JUMP JUMPDEST DUP4 TIMESTAMP GT ISZERO PUSH2 0x7AE JUMPI PUSH1 0x40 MLOAD PUSH32 0x8C379A000000000000000000000000000000000000000000000000000000000 DUP2 MSTORE PUSH1 0x4 ADD PUSH2 0x7A5 SWAP1 PUSH2 0x1DBE JUMP JUMPDEST PUSH1 0x40 MLOAD DUP1 SWAP2 SUB SWAP1 REVERT JUMPDEST PUSH0 PUSH32 0x6E71EDAE12B1B97F4D1F60370FEF10105FA2FAAE0126114A169C64845D6126C9 DUP9 DUP9 DUP9 PUSH2 0x7DC DUP13 PUSH2 0x1401 JUMP JUMPDEST DUP10 PUSH1 0x40 MLOAD PUSH1 0x20 ADD PUSH2 0x7F2 SWAP7 SWAP6 SWAP5 SWAP4 SWAP3 SWAP2 SWAP1 PUSH2 0x1DDC JUMP JUMPDEST PUSH1 0x40 MLOAD PUSH1 0x20 DUP2 DUP4 SUB SUB DUP2 MSTORE SWAP1 PUSH1 0x40 MSTORE DUP1 MLOAD SWAP1 PUSH1 0x20 ADD KECCAK256 SWAP1 POP PUSH0 PUSH2 0x814 DUP3 PUSH2 0x145C JUMP JUMPDEST SWAP1 POP PUSH0 PUSH2 0x823 DUP3 DUP8 DUP8 DUP8 PUSH2 0x1475 JUMP JUMPDEST SWAP1 POP DUP10 PUSH20 0xFFFFFFFFFFFFFFFFFFFFFFFFFFFFFFFFFFFFFFFF AND DUP2 PUSH20 0xFFFFFFFFFFFFFFFFFFFFFFFFFFFFFFFFFFFFFFFF AND EQ PUSH2 0x893 JUMPI PUSH1 0x40 MLOAD PUSH32 0x8C379A000000000000000000000000000000000000000000000000000000000 DUP2 MSTORE PUSH1 0x4 ADD PUSH2 0x88A SWAP1 PUSH2 0x1E85 JUMP JUMPDEST PUSH1 0x40 MLOAD DUP1 SWAP2 SUB SWAP1 REVERT JUMPDEST PUSH2 0x89E DUP11 DUP11 DUP11 PUSH2 0x9B5 JUMP JUMPDEST POP POP POP POP POP POP POP POP POP POP JUMP JUMPDEST PUSH0 PUSH1 0x1 PUSH0 DUP5 PUSH20 0xFFFFFFFFFFFFFFFFFFFFFFFFFFFFFFFFFFFFFFFF AND PUSH20 0xFFFFFFFFFFFFFFFFFFFFFFFFFFFFFFFFFFFFFFFF AND DUP2 MSTORE PUSH1 0x20 ADD SWAP1 DUP2 MSTORE PUSH1 0x20 ADD PUSH0 KECCAK256 PUSH0 DUP4 PUSH20 0xFFFFFFFFFFFFFFFFFFFFFFFFFFFFFFFFFFFFFFFF AND PUSH20 0xFFFFFFFFFFFFFFFFFFFFFFFFFFFFFFFFFFFFFFFF AND DUP2 MSTORE PUSH1 0x20 ADD SWAP1 DUP2 MSTORE PUSH1 0x20 ADD PUSH0 KECCAK256 SLOAD SWAP1 POP SWAP3 SWAP2 POP POP JUMP JUMPDEST PUSH2 0x934 PUSH2 0xF91 JUMP JUMPDEST PUSH0 PUSH20 0xFFFFFFFFFFFFFFFFFFFFFFFFFFFFFFFFFFFFFFFF AND DUP2 PUSH20 0xFFFFFFFFFFFFFFFFFFFFFFFFFFFFFFFFFFFFFFFF AND SUB PUSH2 0x9A2 JUMPI PUSH1 0x40 MLOAD PUSH32 0x8C379A000000000000000000000000000000000000000000000000000000000 DUP2 MSTORE PUSH1 0x4 ADD PUSH2 0x999 SWAP1 PUSH2 0x1F13 JUMP JUMPDEST PUSH1 0x40 MLOAD DUP1 SWAP2 SUB SWAP1 REVERT JUMPDEST PUSH2 0x9AB DUP2 PUSH2 0x1332 JUMP JUMPDEST POP JUMP JUMPDEST PUSH0 CALLER SWAP1 POP SWAP1 JUMP JUMPDEST PUSH0 PUSH20 0xFFFFFFFFFFFFFFFFFFFFFFFFFFFFFFFFFFFFFFFF AND DUP4 PUSH20 0xFFFFFFFFFFFFFFFFFFFFFFFFFFFFFFFFFFFFFFFF AND SUB PUSH2 0xA23 JUMPI PUSH1 0x40 MLOAD PUSH32 0x8C379A000000000000000000000000000000000000000000000000000000000 DUP2 MSTORE PUSH1 0x4 ADD PUSH2 0xA1A SWAP1 PUSH2 0x1FA1 JUMP JUMPDEST PUSH1 0x40 MLOAD DUP1 SWAP2 SUB SWAP1 REVERT JUMPDEST PUSH0 PUSH20 0xFFFFFFFFFFFFFFFFFFFFFFFFFFFFFFFFFFFFFFFF AND DUP3 PUSH20 0xFFFFFFFFFFFFFFFFFFFFFFFFFFFFFFFFFFFFFFFF AND SUB PUSH2 0xA91 JUMPI PUSH1 0x40 MLOAD PUSH32 0x8C379A000000000000000000000000000000000000000000000000000000000 DUP2 MSTORE PUSH1 0x4 ADD PUSH2 0xA88 SWAP1 PUSH2 0x202F JUMP JUMPDEST PUSH1 0x40 MLOAD DUP1 SWAP2 SUB SWAP1 REVERT JUMPDEST DUP1 PUSH1 0x1 PUSH0 DUP6 PUSH20 0xFFFFFFFFFFFFFFFFFFFFFFFFFFFFFFFFFFFFFFFF AND PUSH20 0xFFFFFFFFFFFFFFFFFFFFFFFFFFFFFFFFFFFFFFFF AND DUP2 MSTORE PUSH1 0x20 ADD SWAP1 DUP2 MSTORE PUSH1 0x20 ADD PUSH0 KECCAK256 PUSH0 DUP5 PUSH20 0xFFFFFFFFFFFFFFFFFFFFFFFFFFFFFFFFFFFFFFFF AND PUSH20 0xFFFFFFFFFFFFFFFFFFFFFFFFFFFFFFFFFFFFFFFF AND DUP2 MSTORE PUSH1 0x20 ADD SWAP1 DUP2 MSTORE PUSH1 0x20 ADD PUSH0 KECCAK256 DUP2 SWAP1 SSTORE POP DUP2 PUSH20 0xFFFFFFFFFFFFFFFFFFFFFFFFFFFFFFFFFFFFFFFF AND DUP4 PUSH20 0xFFFFFFFFFFFFFFFFFFFFFFFFFFFFFFFFFFFFFFFF AND PUSH32 0x8C5BE1E5EBEC7D5BD14F71427D1E84F3DD0314C0F7B2291E5B200AC8C7C3B925 DUP4 PUSH1 0x40 MLOAD PUSH2 0xB6B SWAP2 SWAP1 PUSH2 0x19AE JUMP JUMPDEST PUSH1 0x40 MLOAD DUP1 SWAP2 SUB SWAP1 LOG3 POP POP POP JUMP JUMPDEST PUSH0 PUSH2 0xB83 DUP5 DUP5 PUSH2 0x8AA JUMP JUMPDEST SWAP1 POP PUSH32 0xFFFFFFFFFFFFFFFFFFFFFFFFFFFFFFFFFFFFFFFFFFFFFFFFFFFFFFFFFFFFFFFF DUP2 EQ PUSH2 0xBFD JUMPI DUP2 DUP2 LT ISZERO PUSH2 0xBEF JUMPI PUSH1 0x40 MLOAD PUSH32 0x8C379A000000000000000000000000000000000000000000000000000000000 DUP2 MSTORE PUSH1 0x4 ADD PUSH2 0xBE6 SWAP1 PUSH2 0x2097 JUMP JUMPDEST PUSH1 0x40 MLOAD DUP1 SWAP2 SUB SWAP1 REVERT JUMPDEST PUSH2 0xBFC DUP5 DUP5 DUP5 DUP5 SUB PUSH2 0x9B5 JUMP JUMPDEST JUMPDEST POP POP POP POP JUMP JUMPDEST PUSH0 PUSH20 0xFFFFFFFFFFFFFFFFFFFFFFFFFFFFFFFFFFFFFFFF AND DUP4 PUSH20 0xFFFFFFFFFFFFFFFFFFFFFFFFFFFFFFFFFFFFFFFF AND SUB PUSH2 0xC71 JUMPI PUSH1 0x40 MLOAD PUSH32 0x8C379A000000000000000000000000000000000000000000000000000000000 DUP2 MSTORE PUSH1 0x4 ADD PUSH2 0xC68 SWAP1 PUSH2 0x2125 JUMP JUMPDEST PUSH1 0x40 MLOAD DUP1 SWAP2 SUB SWAP1 REVERT JUMPDEST PUSH0 PUSH20 0xFFFFFFFFFFFFFFFFFFFFFFFFFFFFFFFFFFFFFFFF AND DUP3 PUSH20 0xFFFFFFFFFFFFFFFFFFFFFFFFFFFFFFFFFFFFFFFF AND SUB PUSH2 0xCDF JUMPI PUSH1 0x40 MLOAD PUSH32 0x8C379A000000000000000000000000000000000000000000000000000000000 DUP2 MSTORE PUSH1 0x4 ADD PUSH2 0xCD6 SWAP1 PUSH2 0x21B3 JUMP JUMPDEST PUSH1 0x40 MLOAD DUP1 SWAP2 SUB SWAP1 REVERT JUMPDEST PUSH2 0xCEA DUP4 DUP4 DUP4 PUSH2 0x149E JUMP JUMPDEST PUSH0 DUP1 PUSH0 DUP6 PUSH20 0xFFFFFFFFFFFFFFFFFFFFFFFFFFFFFFFFFFFFFFFF AND PUSH20 0xFFFFFFFFFFFFFFFFFFFFFFFFFFFFFFFFFFFFFFFF AND DUP2 MSTORE PUSH1 0x20 ADD SWAP1 DUP2 MSTORE PUSH1 0x20 ADD PUSH0 KECCAK256 SLOAD SWAP1 POP DUP2 DUP2 LT ISZERO PUSH2 0xD6D JUMPI PUSH1 0x40 MLOAD PUSH32 0x8C379A000000000000000000000000000000000000000000000000000000000 DUP2 MSTORE PUSH1 0x4 ADD PUSH2 0xD64 SWAP1 PUSH2 0x2241 JUMP JUMPDEST PUSH1 0x40 MLOAD DUP1 SWAP2 SUB SWAP1 REVERT JUMPDEST DUP2 DUP2 SUB PUSH0 DUP1 DUP7 PUSH20 0xFFFFFFFFFFFFFFFFFFFFFFFFFFFFFFFFFFFFFFFF AND PUSH20 0xFFFFFFFFFFFFFFFFFFFFFFFFFFFFFFFFFFFFFFFF AND DUP2 MSTORE PUSH1 0x20 ADD SWAP1 DUP2 MSTORE PUSH1 0x20 ADD PUSH0 KECCAK256 DUP2 SWAP1 SSTORE POP DUP2 PUSH0 DUP1 DUP6 PUSH20 0xFFFFFFFFFFFFFFFFFFFFFFFFFFFFFFFFFFFFFFFF AND PUSH20 0xFFFFFFFFFFFFFFFFFFFFFFFFFFFFFFFFFFFFFFFF AND DUP2 MSTORE PUSH1 0x20 ADD SWAP1 DUP2 MSTORE PUSH1 0x20 ADD PUSH0 KECCAK256 PUSH0 DUP3 DUP3 SLOAD PUSH2 0xDFB SWAP2 SWAP1 PUSH2 0x1CB3 JUMP JUMPDEST SWAP3 POP POP DUP2 SWAP1 SSTORE POP DUP3 PUSH20 0xFFFFFFFFFFFFFFFFFFFFFFFFFFFFFFFFFFFFFFFF AND DUP5 PUSH20 0xFFFFFFFFFFFFFFFFFFFFFFFFFFFFFFFFFFFFFFFF AND PUSH32 0xDDF252AD1BE2C89B69C2B068FC378DAA952BA7F163C4A11628F55A4DF523B3EF DUP5 PUSH1 0x40 MLOAD PUSH2 0xE5F SWAP2 SWAP1 PUSH2 0x19AE JUMP JUMPDEST PUSH1 0x40 MLOAD DUP1 SWAP2 SUB SWAP1 LOG3 PUSH2 0xE72 DUP5 DUP5 DUP5 PUSH2 0x14A3 JUMP JUMPDEST POP POP POP POP JUMP JUMPDEST PUSH0 PUSH32 0x0 PUSH20 0xFFFFFFFFFFFFFFFFFFFFFFFFFFFFFFFFFFFFFFFF AND ADDRESS PUSH20 0xFFFFFFFFFFFFFFFFFFFFFFFFFFFFFFFFFFFFFFFF AND EQ DUP1 ISZERO PUSH2 0xEF3 JUMPI POP PUSH32 0x0 CHAINID EQ JUMPDEST ISZERO PUSH2 0xF20 JUMPI PUSH32 0x0 SWAP1 POP PUSH2 0xF8E JUMP JUMPDEST PUSH2 0xF8B PUSH32 0x0 PUSH32 0x0 PUSH32 0x0 PUSH2 0x14A8 JUMP JUMPDEST SWAP1 POP JUMPDEST SWAP1 JUMP JUMPDEST PUSH2 0xF99 PUSH2 0x9AE JUMP JUMPDEST PUSH20 0xFFFFFFFFFFFFFFFFFFFFFFFFFFFFFFFFFFFFFFFF AND PUSH2 0xFB7 PUSH2 0x61C JUMP JUMPDEST PUSH20 0xFFFFFFFFFFFFFFFFFFFFFFFFFFFFFFFFFFFFFFFF AND EQ PUSH2 0x100D JUMPI PUSH1 0x40 MLOAD PUSH32 0x8C379A000000000000000000000000000000000000000000000000000000000 DUP2 MSTORE PUSH1 0x4 ADD PUSH2 0x1004 SWAP1 PUSH2 0x22A9 JUMP JUMPDEST PUSH1 0x40 MLOAD DUP1 SWAP2 SUB SWAP1 REVERT JUMPDEST JUMP JUMPDEST PUSH0 PUSH20 0xFFFFFFFFFFFFFFFFFFFFFFFFFFFFFFFFFFFFFFFF AND DUP3 PUSH20 0xFFFFFFFFFFFFFFFFFFFFFFFFFFFFFFFFFFFFFFFF AND SUB PUSH2 0x107D JUMPI PUSH1 0x40 MLOAD PUSH32 0x8C379A000000000000000000000000000000000000000000000000000000000 DUP2 MSTORE PUSH1 0x4 ADD PUSH2 0x1074 SWAP1 PUSH2 0x2311 JUMP JUMPDEST PUSH1 0x40 MLOAD DUP1 SWAP2 SUB SWAP1 REVERT JUMPDEST PUSH2 0x1088 PUSH0 DUP4 DUP4 PUSH2 0x149E JUMP JUMPDEST DUP1 PUSH1 0x2 PUSH0 DUP3 DUP3 SLOAD PUSH2 0x1099 SWAP2 SWAP1 PUSH2 0x1CB3 JUMP JUMPDEST SWAP3 POP POP DUP2 SWAP1 SSTORE POP DUP1 PUSH0 DUP1 DUP5 PUSH20 0xFFFFFFFFFFFFFFFFFFFFFFFFFFFFFFFFFFFFFFFF AND PUSH20 0xFFFFFFFFFFFFFFFFFFFFFFFFFFFFFFFFFFFFFFFF AND DUP2 MSTORE PUSH1 0x20 ADD SWAP1 DUP2 MSTORE PUSH1 0x20 ADD PUSH0 KECCAK256 PUSH0 DUP3 DUP3 SLOAD PUSH2 0x10EB SWAP2 SWAP1 PUSH2 0x1CB3 JUMP JUMPDEST SWAP3 POP POP DUP2 SWAP1 SSTORE POP DUP2 PUSH20 0xFFFFFFFFFFFFFFFFFFFFFFFFFFFFFFFFFFFFFFFF AND PUSH0 PUSH20 0xFFFFFFFFFFFFFFFFFFFFFFFFFFFFFFFFFFFFFFFF AND PUSH32 0xDDF252AD1BE2C89B69C2B068FC378DAA952BA7F163C4A11628F55A4DF523B3EF DUP4 PUSH1 0x40 MLOAD PUSH2 0x114F SWAP2 SWAP1 PUSH2 0x19AE JUMP JUMPDEST PUSH1 0x40 MLOAD DUP1 SWAP2 SUB SWAP1 LOG3 PUSH2 0x1162 PUSH0 DUP4 DUP4 PUSH2 0x14A3 JUMP JUMPDEST POP POP JUMP JUMPDEST PUSH0 PUSH20 0xFFFFFFFFFFFFFFFFFFFFFFFFFFFFFFFFFFFFFFFF AND DUP3 PUSH20 0xFFFFFFFFFFFFFFFFFFFFFFFFFFFFFFFFFFFFFFFF AND SUB PUSH2 0x11D4 JUMPI PUSH1 0x40 MLOAD PUSH32 0x8C379A000000000000000000000000000000000000000000000000000000000 DUP2 MSTORE PUSH1 0x4 ADD PUSH2 0x11CB SWAP1 PUSH2 0x239F JUMP JUMPDEST PUSH1 0x40 MLOAD DUP1 SWAP2 SUB SWAP1 REVERT JUMPDEST PUSH2 0x11DF DUP3 PUSH0 DUP4 PUSH2 0x149E JUMP JUMPDEST PUSH0 DUP1 PUSH0 DUP5 PUSH20 0xFFFFFFFFFFFFFFFFFFFFFFFFFFFFFFFFFFFFFFFF AND PUSH20 0xFFFFFFFFFFFFFFFFFFFFFFFFFFFFFFFFFFFFFFFF AND DUP2 MSTORE PUSH1 0x20 ADD SWAP1 DUP2 MSTORE PUSH1 0x20 ADD PUSH0 KECCAK256 SLOAD SWAP1 POP DUP2 DUP2 LT ISZERO PUSH2 0x1262 JUMPI PUSH1 0x40 MLOAD PUSH32 0x8C379A000000000000000000000000000000000000000000000000000000000 DUP2 MSTORE PUSH1 0x4 ADD PUSH2 0x1259 SWAP1 PUSH2 0x242D JUMP JUMPDEST PUSH1 0x40 MLOAD DUP1 SWAP2 SUB SWAP1 REVERT JUMPDEST DUP2 DUP2 SUB PUSH0 DUP1 DUP6 PUSH20 0xFFFFFFFFFFFFFFFFFFFFFFFFFFFFFFFFFFFFFFFF AND PUSH20 0xFFFFFFFFFFFFFFFFFFFFFFFFFFFFFFFFFFFFFFFF AND DUP2 MSTORE PUSH1 0x20 ADD SWAP1 DUP2 MSTORE PUSH1 0x20 ADD PUSH0 KECCAK256 DUP2 SWAP1 SSTORE POP DUP2 PUSH1 0x2 PUSH0 DUP3 DUP3 SLOAD PUSH2 0x12B6 SWAP2 SWAP1 PUSH2 0x244B JUMP JUMPDEST SWAP3 POP POP DUP2 SWAP1 SSTORE POP PUSH0 PUSH20 0xFFFFFFFFFFFFFFFFFFFFFFFFFFFFFFFFFFFFFFFF AND DUP4 PUSH20 0xFFFFFFFFFFFFFFFFFFFFFFFFFFFFFFFFFFFFFFFF AND PUSH32 0xDDF252AD1BE2C89B69C2B068FC378DAA952BA7F163C4A11628F55A4DF523B3EF DUP5 PUSH1 0x40 MLOAD PUSH2 0x131A SWAP2 SWAP1 PUSH2 0x19AE JUMP JUMPDEST PUSH1 0x40 MLOAD DUP1 SWAP2 SUB SWAP1 LOG3 PUSH2 0x132D DUP4 PUSH0 DUP5 PUSH2 0x14A3 JUMP JUMPDEST POP POP POP JUMP JUMPDEST PUSH0 PUSH1 0x5 PUSH0 SWAP1 SLOAD SWAP1 PUSH2 0x100 EXP SWAP1 DIV PUSH20 0xFFFFFFFFFFFFFFFFFFFFFFFFFFFFFFFFFFFFFFFF AND SWAP1 POP DUP2 PUSH1 0x5 PUSH0 PUSH2 0x100 EXP DUP2 SLOAD DUP2 PUSH20 0xFFFFFFFFFFFFFFFFFFFFFFFFFFFFFFFFFFFFFFFF MUL NOT AND SWAP1 DUP4 PUSH20 0xFFFFFFFFFFFFFFFFFFFFFFFFFFFFFFFFFFFFFFFF AND MUL OR SWAP1 SSTORE POP DUP2 PUSH20 0xFFFFFFFFFFFFFFFFFFFFFFFFFFFFFFFFFFFFFFFF AND DUP2 PUSH20 0xFFFFFFFFFFFFFFFFFFFFFFFFFFFFFFFFFFFFFFFF AND PUSH32 0x8BE0079C531659141344CD1FD0A4F28419497F9722A3DAAFE3B4186F6B6457E0 PUSH1 0x40 MLOAD PUSH1 0x40 MLOAD DUP1 SWAP2 SUB SWAP1 LOG3 POP POP JUMP JUMPDEST PUSH0 DUP2 PUSH0 ADD SLOAD SWAP1 POP SWAP2 SWAP1 POP JUMP JUMPDEST PUSH0 DUP1 PUSH1 0x6 PUSH0 DUP5 PUSH20 0xFFFFFFFFFFFFFFFFFFFFFFFFFFFFFFFFFFFFFFFF AND PUSH20 0xFFFFFFFFFFFFFFFFFFFFFFFFFFFFFFFFFFFFFFFF AND DUP2 MSTORE PUSH1 0x20 ADD SWAP1 DUP2 MSTORE PUSH1 0x20 ADD PUSH0 KECCAK256 SWAP1 POP PUSH2 0x144B DUP2 PUSH2 0x13F5 JUMP JUMPDEST SWAP2 POP PUSH2 0x1456 DUP2 PUSH2 0x14E1 JUMP JUMPDEST POP SWAP2 SWAP1 POP JUMP JUMPDEST PUSH0 PUSH2 0x146E PUSH2 0x1468 PUSH2 0xE78 JUMP JUMPDEST DUP4 PUSH2 0x14F5 JUMP JUMPDEST SWAP1 POP SWAP2 SWAP1 POP JUMP JUMPDEST PUSH0 DUP1 PUSH0 PUSH2 0x1484 DUP8 DUP8 DUP8 DUP8 PUSH2 0x1527 JUMP JUMPDEST SWAP2 POP SWAP2 POP PUSH2 0x1491 DUP2 PUSH2 0x1628 JUMP JUMPDEST DUP2 SWAP3 POP POP POP SWAP5 SWAP4 POP POP POP POP JUMP JUMPDEST POP POP POP JUMP JUMPDEST POP POP POP JUMP JUMPDEST PUSH0 DUP4 DUP4 DUP4 CHAINID ADDRESS PUSH1 0x40 MLOAD PUSH1 0x20 ADD PUSH2 0x14C2 SWAP6 SWAP5 SWAP4 SWAP3 SWAP2 SWAP1 PUSH2 0x247E JUMP JUMPDEST PUSH1 0x40 MLOAD PUSH1 0x20 DUP2 DUP4 SUB SUB DUP2 MSTORE SWAP1 PUSH1 0x40 MSTORE DUP1 MLOAD SWAP1 PUSH1 0x20 ADD KECCAK256 SWAP1 POP SWAP4 SWAP3 POP POP POP JUMP JUMPDEST PUSH1 0x1 DUP2 PUSH0 ADD PUSH0 DUP3 DUP3 SLOAD ADD SWAP3 POP POP DUP2 SWAP1 SSTORE POP POP JUMP JUMPDEST PUSH0 DUP3 DUP3 PUSH1 0x40 MLOAD PUSH1 0x20 ADD PUSH2 0x1509 SWAP3 SWAP2 SWAP1 PUSH2 0x2543 JUMP JUMPDEST PUSH1 0x40 MLOAD PUSH1 0x20 DUP2 DUP4 SUB SUB DUP2 MSTORE SWAP1 PUSH1 0x40 MSTORE DUP1 MLOAD SWAP1 PUSH1 0x20 ADD KECCAK256 SWAP1 POP SWAP3 SWAP2 POP POP JUMP JUMPDEST PUSH0 DUP1 PUSH32 0x7FFFFFFFFFFFFFFFFFFFFFFFFFFFFFFF5D576E7357A4501DDFE92F46681B20A0 DUP4 PUSH0 SHR GT ISZERO PUSH2 0x155F JUMPI PUSH0 PUSH1 0x3 SWAP2 POP SWAP2 POP PUSH2 0x161F JUMP JUMPDEST PUSH1 0x1B DUP6 PUSH1 0xFF AND EQ ISZERO DUP1 ISZERO PUSH2 0x1577 JUMPI POP PUSH1 0x1C DUP6 PUSH1 0xFF AND EQ ISZERO JUMPDEST ISZERO PUSH2 0x1588 JUMPI PUSH0 PUSH1 0x4 SWAP2 POP SWAP2 POP PUSH2 0x161F JUMP JUMPDEST PUSH0 PUSH1 0x1 DUP8 DUP8 DUP8 DUP8 PUSH1 0x40 MLOAD PUSH0 DUP2 MSTORE PUSH1 0x20 ADD PUSH1 0x40 MSTORE PUSH1 0x40 MLOAD PUSH2 0x15AB SWAP5 SWAP4 SWAP3 SWAP2 SWAP1 PUSH2 0x2579 JUMP JUMPDEST PUSH1 0x20 PUSH1 0x40 MLOAD PUSH1 0x20 DUP2 SUB SWAP1 DUP1 DUP5 SUB SWAP1 DUP6 GAS STATICCALL ISZERO DUP1 ISZERO PUSH2 0x15CB JUMPI RETURNDATASIZE PUSH0 DUP1 RETURNDATACOPY RETURNDATASIZE PUSH0 REVERT JUMPDEST POP POP POP PUSH1 0x20 PUSH1 0x40 MLOAD SUB MLOAD SWAP1 POP PUSH0 PUSH20 0xFFFFFFFFFFFFFFFFFFFFFFFFFFFFFFFFFFFFFFFF AND DUP2 PUSH20 0xFFFFFFFFFFFFFFFFFFFFFFFFFFFFFFFFFFFFFFFF AND SUB PUSH2 0x1617 JUMPI PUSH0 PUSH1 0x1 SWAP3 POP SWAP3 POP POP PUSH2 0x161F JUMP JUMPDEST DUP1 PUSH0 SWAP3 POP SWAP3 POP POP JUMPDEST SWAP5 POP SWAP5 SWAP3 POP POP POP JUMP JUMPDEST PUSH0 PUSH1 0x4 DUP2 GT ISZERO PUSH2 0x163B JUMPI PUSH2 0x163A PUSH2 0x25BC JUMP JUMPDEST JUMPDEST DUP2 PUSH1 0x4 DUP2 GT ISZERO PUSH2 0x164E JUMPI PUSH2 0x164D PUSH2 0x25BC JUMP JUMPDEST JUMPDEST SUB ISZERO PUSH2 0x17F0 JUMPI PUSH1 0x1 PUSH1 0x4 DUP2 GT ISZERO PUSH2 0x1668 JUMPI PUSH2 0x1667 PUSH2 0x25BC JUMP JUMPDEST JUMPDEST DUP2 PUSH1 0x4 DUP2 GT ISZERO PUSH2 0x167B JUMPI PUSH2 0x167A PUSH2 0x25BC JUMP JUMPDEST JUMPDEST SUB PUSH2 0x16BB JUMPI PUSH1 0x40 MLOAD PUSH32 0x8C379A000000000000000000000000000000000000000000000000000000000 DUP2 MSTORE PUSH1 0x4 ADD PUSH2 0x16B2 SWAP1 PUSH2 0x2633 JUMP JUMPDEST PUSH1 0x40 MLOAD DUP1 SWAP2 SUB SWAP1 REVERT JUMPDEST PUSH1 0x2 PUSH1 0x4 DUP2 GT ISZERO PUSH2 0x16CF JUMPI PUSH2 0x16CE PUSH2 0x25BC JUMP JUMPDEST JUMPDEST DUP2 PUSH1 0x4 DUP2 GT ISZERO PUSH2 0x16E2 JUMPI PUSH2 0x16E1 PUSH2 0x25BC JUMP JUMPDEST JUMPDEST SUB PUSH2 0x1722 JUMPI PUSH1 0x40 MLOAD PUSH32 0x8C379A000000000000000000000000000000000000000000000000000000000 DUP2 MSTORE PUSH1 0x4 ADD PUSH2 0x1719 SWAP1 PUSH2 0x269B JUMP JUMPDEST PUSH1 0x40 MLOAD DUP1 SWAP2 SUB SWAP1 REVERT JUMPDEST PUSH1 0x3 PUSH1 0x4 DUP2 GT ISZERO PUSH2 0x1736 JUMPI PUSH2 0x1735 PUSH2 0x25BC JUMP JUMPDEST JUMPDEST DUP2 PUSH1 0x4 DUP2 GT ISZERO PUSH2 0x1749 JUMPI PUSH2 0x1748 PUSH2 0x25BC JUMP JUMPDEST JUMPDEST SUB PUSH2 0x1789 JUMPI PUSH1 0x40 MLOAD PUSH32 0x8C379A000000000000000000000000000000000000000000000000000000000 DUP2 MSTORE PUSH1 0x4 ADD PUSH2 0x1780 SWAP1 PUSH2 0x2729 JUMP JUMPDEST PUSH1 0x40 MLOAD DUP1 SWAP2 SUB SWAP1 REVERT JUMPDEST PUSH1 0x4 DUP1 DUP2 GT ISZERO PUSH2 0x179C JUMPI PUSH2 0x179B PUSH2 0x25BC JUMP JUMPDEST JUMPDEST DUP2 PUSH1 0x4 DUP2 GT ISZERO PUSH2 0x17AF JUMPI PUSH2 0x17AE PUSH2 0x25BC JUMP JUMPDEST JUMPDEST SUB PUSH2 0x17EF JUMPI PUSH1 0x40 MLOAD PUSH32 0x8C379A000000000000000000000000000000000000000000000000000000000 DUP2 MSTORE PUSH1 0x4 ADD PUSH2 0x17E6 SWAP1 PUSH2 0x27B7 JUMP JUMPDEST PUSH1 0x40 MLOAD DUP1 SWAP2 SUB SWAP1 REVERT JUMPDEST JUMPDEST POP JUMP JUMPDEST PUSH0 DUP2 MLOAD SWAP1 POP SWAP2 SWAP1 POP JUMP JUMPDEST PUSH0 DUP3 DUP3 MSTORE PUSH1 0x20 DUP3 ADD SWAP1 POP SWAP3 SWAP2 POP POP JUMP JUMPDEST PUSH0 JUMPDEST DUP4 DUP2 LT ISZERO PUSH2 0x182A JUMPI DUP1 DUP3 ADD MLOAD DUP2 DUP5 ADD MSTORE PUSH1 0x20 DUP2 ADD SWAP1 POP PUSH2 0x180F JUMP JUMPDEST PUSH0 DUP5 DUP5 ADD MSTORE POP POP POP POP JUMP JUMPDEST PUSH0 PUSH1 0x1F NOT PUSH1 0x1F DUP4 ADD AND SWAP1 POP SWAP2 SWAP1 POP JUMP JUMPDEST PUSH0 PUSH2 0x184F DUP3 PUSH2 0x17F3 JUMP JUMPDEST PUSH2 0x1859 DUP2 DUP6 PUSH2 0x17FD JUMP JUMPDEST SWAP4 POP PUSH2 0x1869 DUP2 DUP6 PUSH1 0x20 DUP7 ADD PUSH2 0x180D JUMP JUMPDEST PUSH2 0x1872 DUP2 PUSH2 0x1835 JUMP JUMPDEST DUP5 ADD SWAP2 POP POP SWAP3 SWAP2 POP POP JUMP JUMPDEST PUSH0 PUSH1 0x20 DUP3 ADD SWAP1 POP DUP2 DUP2 SUB PUSH0 DUP4 ADD MSTORE PUSH2 0x1895 DUP2 DUP5 PUSH2 0x1845 JUMP JUMPDEST SWAP1 POP SWAP3 SWAP2 POP POP JUMP JUMPDEST PUSH0 DUP1 REVERT JUMPDEST PUSH0 PUSH20 0xFFFFFFFFFFFFFFFFFFFFFFFFFFFFFFFFFFFFFFFF DUP3 AND SWAP1 POP SWAP2 SWAP1 POP JUMP JUMPDEST PUSH0 PUSH2 0x18CA DUP3 PUSH2 0x18A1 JUMP JUMPDEST SWAP1 POP SWAP2 SWAP1 POP JUMP JUMPDEST PUSH2 0x18DA DUP2 PUSH2 0x18C0 JUMP JUMPDEST DUP2 EQ PUSH2 0x18E4 JUMPI PUSH0 DUP1 REVERT JUMPDEST POP JUMP JUMPDEST PUSH0 DUP2 CALLDATALOAD SWAP1 POP PUSH2 0x18F5 DUP2 PUSH2 0x18D1 JUMP JUMPDEST SWAP3 SWAP2 POP POP JUMP JUMPDEST PUSH0 DUP2 SWAP1 POP SWAP2 SWAP1 POP JUMP JUMPDEST PUSH2 0x190D DUP2 PUSH2 0x18FB JUMP JUMPDEST DUP2 EQ PUSH2 0x1917 JUMPI PUSH0 DUP1 REVERT JUMPDEST POP JUMP JUMPDEST PUSH0 DUP2 CALLDATALOAD SWAP1 POP PUSH2 0x1928 DUP2 PUSH2 0x1904 JUMP JUMPDEST SWAP3 SWAP2 POP POP JUMP JUMPDEST PUSH0 DUP1 PUSH1 0x40 DUP4 DUP6 SUB SLT ISZERO PUSH2 0x1944 JUMPI PUSH2 0x1943 PUSH2 0x189D JUMP JUMPDEST JUMPDEST PUSH0 PUSH2 0x1951 DUP6 DUP3 DUP7 ADD PUSH2 0x18E7 JUMP JUMPDEST SWAP3 POP POP PUSH1 0x20 PUSH2 0x1962 DUP6 DUP3 DUP7 ADD PUSH2 0x191A JUMP JUMPDEST SWAP2 POP POP SWAP3 POP SWAP3 SWAP1 POP JUMP JUMPDEST PUSH0 DUP2 ISZERO ISZERO SWAP1 POP SWAP2 SWAP1 POP JUMP JUMPDEST PUSH2 0x1980 DUP2 PUSH2 0x196C JUMP JUMPDEST DUP3 MSTORE POP POP JUMP JUMPDEST PUSH0 PUSH1 0x20 DUP3 ADD SWAP1 POP PUSH2 0x1999 PUSH0 DUP4 ADD DUP5 PUSH2 0x1977 JUMP JUMPDEST SWAP3 SWAP2 POP POP JUMP JUMPDEST PUSH2 0x19A8 DUP2 PUSH2 0x18FB JUMP JUMPDEST DUP3 MSTORE POP POP JUMP JUMPDEST PUSH0 PUSH1 0x20 DUP3 ADD SWAP1 POP PUSH2 0x19C1 PUSH0 DUP4 ADD DUP5 PUSH2 0x199F JUMP JUMPDEST SWAP3 SWAP2 POP POP JUMP JUMPDEST PUSH0 DUP1 PUSH0 PUSH1 0x60 DUP5 DUP7 SUB SLT ISZERO PUSH2 0x19DE JUMPI PUSH2 0x19DD PUSH2 0x189D JUMP JUMPDEST JUMPDEST PUSH0 PUSH2 0x19EB DUP7 DUP3 DUP8 ADD PUSH2 0x18E7 JUMP JUMPDEST SWAP4 POP POP PUSH1 0x20 PUSH2 0x19FC DUP7 DUP3 DUP8 ADD PUSH2 0x18E7 JUMP JUMPDEST SWAP3 POP POP PUSH1 0x40 PUSH2 0x1A0D DUP7 DUP3 DUP8 ADD PUSH2 0x191A JUMP JUMPDEST SWAP2 POP POP SWAP3 POP SWAP3 POP SWAP3 JUMP JUMPDEST PUSH0 PUSH1 0xFF DUP3 AND SWAP1 POP SWAP2 SWAP1 POP JUMP JUMPDEST PUSH2 0x1A2C DUP2 PUSH2 0x1A17 JUMP JUMPDEST DUP3 MSTORE POP POP JUMP JUMPDEST PUSH0 PUSH1 0x20 DUP3 ADD SWAP1 POP PUSH2 0x1A45 PUSH0 DUP4 ADD DUP5 PUSH2 0x1A23 JUMP JUMPDEST SWAP3 SWAP2 POP POP JUMP JUMPDEST PUSH0 DUP2 SWAP1 POP SWAP2 SWAP1 POP JUMP JUMPDEST PUSH2 0x1A5D DUP2 PUSH2 0x1A4B JUMP JUMPDEST DUP3 MSTORE POP POP JUMP JUMPDEST PUSH0 PUSH1 0x20 DUP3 ADD SWAP1 POP PUSH2 0x1A76 PUSH0 DUP4 ADD DUP5 PUSH2 0x1A54 JUMP JUMPDEST SWAP3 SWAP2 POP POP JUMP JUMPDEST PUSH0 PUSH1 0x20 DUP3 DUP5 SUB SLT ISZERO PUSH2 0x1A91 JUMPI PUSH2 0x1A90 PUSH2 0x189D JUMP JUMPDEST JUMPDEST PUSH0 PUSH2 0x1A9E DUP5 DUP3 DUP6 ADD PUSH2 0x191A JUMP JUMPDEST SWAP2 POP POP SWAP3 SWAP2 POP POP JUMP JUMPDEST PUSH0 PUSH1 0x20 DUP3 DUP5 SUB SLT ISZERO PUSH2 0x1ABC JUMPI PUSH2 0x1ABB PUSH2 0x189D JUMP JUMPDEST JUMPDEST PUSH0 PUSH2 0x1AC9 DUP5 DUP3 DUP6 ADD PUSH2 0x18E7 JUMP JUMPDEST SWAP2 POP POP SWAP3 SWAP2 POP POP JUMP JUMPDEST PUSH2 0x1ADB DUP2 PUSH2 0x18C0 JUMP JUMPDEST DUP3 MSTORE POP POP JUMP JUMPDEST PUSH0 PUSH1 0x20 DUP3 ADD SWAP1 POP PUSH2 0x1AF4 PUSH0 DUP4 ADD DUP5 PUSH2 0x1AD2 JUMP JUMPDEST SWAP3 SWAP2 POP POP JUMP JUMPDEST PUSH2 0x1B03 DUP2 PUSH2 0x1A17 JUMP JUMPDEST DUP2 EQ PUSH2 0x1B0D JUMPI PUSH0 DUP1 REVERT JUMPDEST POP JUMP JUMPDEST PUSH0 DUP2 CALLDATALOAD SWAP1 POP PUSH2 0x1B1E DUP2 PUSH2 0x1AFA JUMP JUMPDEST SWAP3 SWAP2 POP POP JUMP JUMPDEST PUSH2 0x1B2D DUP2 PUSH2 0x1A4B JUMP JUMPDEST DUP2 EQ PUSH2 0x1B37 JUMPI PUSH0 DUP1 REVERT JUMPDEST POP JUMP JUMPDEST PUSH0 DUP2 CALLDATALOAD SWAP1 POP PUSH2 0x1B48 DUP2 PUSH2 0x1B24 JUMP JUMPDEST SWAP3 SWAP2 POP POP JUMP JUMPDEST PUSH0 DUP1 PUSH0 DUP1 PUSH0 DUP1 PUSH0 PUSH1 0xE0 DUP9 DUP11 SUB SLT ISZERO PUSH2 0x1B69 JUMPI PUSH2 0x1B68 PUSH2 0x189D JUMP JUMPDEST JUMPDEST PUSH0 PUSH2 0x1B76 DUP11 DUP3 DUP12 ADD PUSH2 0x18E7 JUMP JUMPDEST SWAP8 POP POP PUSH1 0x20 PUSH2 0x1B87 DUP11 DUP3 DUP12 ADD PUSH2 0x18E7 JUMP JUMPDEST SWAP7 POP POP PUSH1 0x40 PUSH2 0x1B98 DUP11 DUP3 DUP12 ADD PUSH2 0x191A JUMP JUMPDEST SWAP6 POP POP PUSH1 0x60 PUSH2 0x1BA9 DUP11 DUP3 DUP12 ADD PUSH2 0x191A JUMP JUMPDEST SWAP5 POP POP PUSH1 0x80 PUSH2 0x1BBA DUP11 DUP3 DUP12 ADD PUSH2 0x1B10 JUMP JUMPDEST SWAP4 POP POP PUSH1 0xA0 PUSH2 0x1BCB DUP11 DUP3 DUP12 ADD PUSH2 0x1B3A JUMP JUMPDEST SWAP3 POP POP PUSH1 0xC0 PUSH2 0x1BDC DUP11 DUP3 DUP12 ADD PUSH2 0x1B3A JUMP JUMPDEST SWAP2 POP POP SWAP3 SWAP6 SWAP9 SWAP2 SWAP5 SWAP8 POP SWAP3 SWAP6 POP JUMP JUMPDEST PUSH0 DUP1 PUSH1 0x40 DUP4 DUP6 SUB SLT ISZERO PUSH2 0x1C01 JUMPI PUSH2 0x1C00 PUSH2 0x189D JUMP JUMPDEST JUMPDEST PUSH0 PUSH2 0x1C0E DUP6 DUP3 DUP7 ADD PUSH2 0x18E7 JUMP JUMPDEST SWAP3 POP POP PUSH1 0x20 PUSH2 0x1C1F DUP6 DUP3 DUP7 ADD PUSH2 0x18E7 JUMP JUMPDEST SWAP2 POP POP SWAP3 POP SWAP3 SWAP1 POP JUMP JUMPDEST PUSH32 0x4E487B7100000000000000000000000000000000000000000000000000000000 PUSH0 MSTORE PUSH1 0x22 PUSH1 0x4 MSTORE PUSH1 0x24 PUSH0 REVERT JUMPDEST PUSH0 PUSH1 0x2 DUP3 DIV SWAP1 POP PUSH1 0x1 DUP3 AND DUP1 PUSH2 0x1C6D JUMPI PUSH1 0x7F DUP3 AND SWAP2 POP JUMPDEST PUSH1 0x20 DUP3 LT DUP2 SUB PUSH2 0x1C80 JUMPI PUSH2 0x1C7F PUSH2 0x1C29 JUMP JUMPDEST JUMPDEST POP SWAP2 SWAP1 POP JUMP JUMPDEST PUSH32 0x4E487B7100000000000000000000000000000000000000000000000000000000 PUSH0 MSTORE PUSH1 0x11 PUSH1 0x4 MSTORE PUSH1 0x24 PUSH0 REVERT JUMPDEST PUSH0 PUSH2 0x1CBD DUP3 PUSH2 0x18FB JUMP JUMPDEST SWAP2 POP PUSH2 0x1CC8 DUP4 PUSH2 0x18FB JUMP JUMPDEST SWAP3 POP DUP3 DUP3 ADD SWAP1 POP DUP1 DUP3 GT ISZERO PUSH2 0x1CE0 JUMPI PUSH2 0x1CDF PUSH2 0x1C86 JUMP JUMPDEST JUMPDEST SWAP3 SWAP2 POP POP JUMP JUMPDEST PUSH32 0x45524332303A2064656372656173656420616C6C6F77616E63652062656C6F77 PUSH0 DUP3 ADD MSTORE PUSH32 0x207A65726F000000000000000000000000000000000000000000000000000000 PUSH1 0x20 DUP3 ADD MSTORE POP JUMP JUMPDEST PUSH0 PUSH2 0x1D40 PUSH1 0x25 DUP4 PUSH2 0x17FD JUMP JUMPDEST SWAP2 POP PUSH2 0x1D4B DUP3 PUSH2 0x1CE6 JUMP JUMPDEST PUSH1 0x40 DUP3 ADD SWAP1 POP SWAP2 SWAP1 POP JUMP JUMPDEST PUSH0 PUSH1 0x20 DUP3 ADD SWAP1 POP DUP2 DUP2 SUB PUSH0 DUP4 ADD MSTORE PUSH2 0x1D6D DUP2 PUSH2 0x1D34 JUMP JUMPDEST SWAP1 POP SWAP2 SWAP1 POP JUMP JUMPDEST PUSH32 0x45524332305065726D69743A206578706972656420646561646C696E65000000 PUSH0 DUP3 ADD MSTORE POP JUMP JUMPDEST PUSH0 PUSH2 0x1DA8 PUSH1 0x1D DUP4 PUSH2 0x17FD JUMP JUMPDEST SWAP2 POP PUSH2 0x1DB3 DUP3 PUSH2 0x1D74 JUMP JUMPDEST PUSH1 0x20 DUP3 ADD SWAP1 POP SWAP2 SWAP1 POP JUMP JUMPDEST PUSH0 PUSH1 0x20 DUP3 ADD SWAP1 POP DUP2 DUP2 SUB PUSH0 DUP4 ADD MSTORE PUSH2 0x1DD5 DUP2 PUSH2 0x1D9C JUMP JUMPDEST SWAP1 POP SWAP2 SWAP1 POP JUMP JUMPDEST PUSH0 PUSH1 0xC0 DUP3 ADD SWAP1 POP PUSH2 0x1DEF PUSH0 DUP4 ADD DUP10 PUSH2 0x1A54 JUMP JUMPDEST PUSH2 0x1DFC PUSH1 0x20 DUP4 ADD DUP9 PUSH2 0x1AD2 JUMP JUMPDEST PUSH2 0x1E09 PUSH1 0x40 DUP4 ADD DUP8 PUSH2 0x1AD2 JUMP JUMPDEST PUSH2 0x1E16 PUSH1 0x60 DUP4 ADD DUP7 PUSH2 0x199F JUMP JUMPDEST PUSH2 0x1E23 PUSH1 0x80 DUP4 ADD DUP6 PUSH2 0x199F JUMP JUMPDEST PUSH2 0x1E30 PUSH1 0xA0 DUP4 ADD DUP5 PUSH2 0x199F JUMP JUMPDEST SWAP8 SWAP7 POP POP POP POP POP POP POP JUMP JUMPDEST PUSH32 0x45524332305065726D69743A20696E76616C6964207369676E61747572650000 PUSH0 DUP3 ADD MSTORE POP JUMP JUMPDEST PUSH0 PUSH2 0x1E6F PUSH1 0x1E DUP4 PUSH2 0x17FD JUMP JUMPDEST SWAP2 POP PUSH2 0x1E7A DUP3 PUSH2 0x1E3B JUMP JUMPDEST PUSH1 0x20 DUP3 ADD SWAP1 POP SWAP2 SWAP1 POP JUMP JUMPDEST PUSH0 PUSH1 0x20 DUP3 ADD SWAP1 POP DUP2 DUP2 SUB PUSH0 DUP4 ADD MSTORE PUSH2 0x1E9C DUP2 PUSH2 0x1E63 JUMP JUMPDEST SWAP1 POP SWAP2 SWAP1 POP JUMP JUMPDEST PUSH32 0x4F776E61626C653A206E6577206F776E657220697320746865207A65726F2061 PUSH0 DUP3 ADD MSTORE PUSH32 0x6464726573730000000000000000000000000000000000000000000000000000 PUSH1 0x20 DUP3 ADD MSTORE POP JUMP JUMPDEST PUSH0 PUSH2 0x1EFD PUSH1 0x26 DUP4 PUSH2 0x17FD JUMP JUMPDEST SWAP2 POP PUSH2 0x1F08 DUP3 PUSH2 0x1EA3 JUMP JUMPDEST PUSH1 0x40 DUP3 ADD SWAP1 POP SWAP2 SWAP1 POP JUMP JUMPDEST PUSH0 PUSH1 0x20 DUP3 ADD SWAP1 POP DUP2 DUP2 SUB PUSH0 DUP4 ADD MSTORE PUSH2 0x1F2A DUP2 PUSH2 0x1EF1 JUMP JUMPDEST SWAP1 POP SWAP2 SWAP1 POP JUMP JUMPDEST PUSH32 0x45524332303A20617070726F76652066726F6D20746865207A65726F20616464 PUSH0 DUP3 ADD MSTORE PUSH32 0x7265737300000000000000000000000000000000000000000000000000000000 PUSH1 0x20 DUP3 ADD MSTORE POP JUMP JUMPDEST PUSH0 PUSH2 0x1F8B PUSH1 0x24 DUP4 PUSH2 0x17FD JUMP JUMPDEST SWAP2 POP PUSH2 0x1F96 DUP3 PUSH2 0x1F31 JUMP JUMPDEST PUSH1 0x40 DUP3 ADD SWAP1 POP SWAP2 SWAP1 POP JUMP JUMPDEST PUSH0 PUSH1 0x20 DUP3 ADD SWAP1 POP DUP2 DUP2 SUB PUSH0 DUP4 ADD MSTORE PUSH2 0x1FB8 DUP2 PUSH2 0x1F7F JUMP JUMPDEST SWAP1 POP SWAP2 SWAP1 POP JUMP JUMPDEST PUSH32 0x45524332303A20617070726F766520746F20746865207A65726F206164647265 PUSH0 DUP3 ADD MSTORE PUSH32 0x7373000000000000000000000000000000000000000000000000000000000000 PUSH1 0x20 DUP3 ADD MSTORE POP JUMP JUMPDEST PUSH0 PUSH2 0x2019 PUSH1 0x22 DUP4 PUSH2 0x17FD JUMP JUMPDEST SWAP2 POP PUSH2 0x2024 DUP3 PUSH2 0x1FBF JUMP JUMPDEST PUSH1 0x40 DUP3 ADD SWAP1 POP SWAP2 SWAP1 POP JUMP JUMPDEST PUSH0 PUSH1 0x20 DUP3 ADD SWAP1 POP DUP2 DUP2 SUB PUSH0 DUP4 ADD MSTORE PUSH2 0x2046 DUP2 PUSH2 0x200D JUMP JUMPDEST SWAP1 POP SWAP2 SWAP1 POP JUMP JUMPDEST PUSH32 0x45524332303A20696E73756666696369656E7420616C6C6F77616E6365000000 PUSH0 DUP3 ADD MSTORE POP JUMP JUMPDEST PUSH0 PUSH2 0x2081 PUSH1 0x1D DUP4 PUSH2 0x17FD JUMP JUMPDEST SWAP2 POP PUSH2 0x208C DUP3 PUSH2 0x204D JUMP JUMPDEST PUSH1 0x20 DUP3 ADD SWAP1 POP SWAP2 SWAP1 POP JUMP JUMPDEST PUSH0 PUSH1 0x20 DUP3 ADD SWAP1 POP DUP2 DUP2 SUB PUSH0 DUP4 ADD MSTORE PUSH2 0x20AE DUP2 PUSH2 0x2075 JUMP JUMPDEST SWAP1 POP SWAP2 SWAP1 POP JUMP JUMPDEST PUSH32 0x45524332303A207472616E736665722066726F6D20746865207A65726F206164 PUSH0 DUP3 ADD MSTORE PUSH32 0x6472657373000000000000000000000000000000000000000000000000000000 PUSH1 0x20 DUP3 ADD MSTORE POP JUMP JUMPDEST PUSH0 PUSH2 0x210F PUSH1 0x25 DUP4 PUSH2 0x17FD JUMP JUMPDEST SWAP2 POP PUSH2 0x211A DUP3 PUSH2 0x20B5 JUMP JUMPDEST PUSH1 0x40 DUP3 ADD SWAP1 POP SWAP2 SWAP1 POP JUMP JUMPDEST PUSH0 PUSH1 0x20 DUP3 ADD SWAP1 POP DUP2 DUP2 SUB PUSH0 DUP4 ADD MSTORE PUSH2 0x213C DUP2 PUSH2 0x2103 JUMP JUMPDEST SWAP1 POP SWAP2 SWAP1 POP JUMP JUMPDEST PUSH32 0x45524332303A207472616E7366657220746F20746865207A65726F2061646472 PUSH0 DUP3 ADD MSTORE PUSH32 0x6573730000000000000000000000000000000000000000000000000000000000 PUSH1 0x20 DUP3 ADD MSTORE POP JUMP JUMPDEST PUSH0 PUSH2 0x219D PUSH1 0x23 DUP4 PUSH2 0x17FD JUMP JUMPDEST SWAP2 POP PUSH2 0x21A8 DUP3 PUSH2 0x2143 JUMP JUMPDEST PUSH1 0x40 DUP3 ADD SWAP1 POP SWAP2 SWAP1 POP JUMP JUMPDEST PUSH0 PUSH1 0x20 DUP3 ADD SWAP1 POP DUP2 DUP2 SUB PUSH0 DUP4 ADD MSTORE PUSH2 0x21CA DUP2 PUSH2 0x2191 JUMP JUMPDEST SWAP1 POP SWAP2 SWAP1 POP JUMP JUMPDEST PUSH32 0x45524332303A207472616E7366657220616D6F756E7420657863656564732062 PUSH0 DUP3 ADD MSTORE PUSH32 0x616C616E63650000000000000000000000000000000000000000000000000000 PUSH1 0x20 DUP3 ADD MSTORE POP JUMP JUMPDEST PUSH0 PUSH2 0x222B PUSH1 0x26 DUP4 PUSH2 0x17FD JUMP JUMPDEST SWAP2 POP PUSH2 0x2236 DUP3 PUSH2 0x21D1 JUMP JUMPDEST PUSH1 0x40 DUP3 ADD SWAP1 POP SWAP2 SWAP1 POP JUMP JUMPDEST PUSH0 PUSH1 0x20 DUP3 ADD SWAP1 POP DUP2 DUP2 SUB PUSH0 DUP4 ADD MSTORE PUSH2 0x2258 DUP2 PUSH2 0x221F JUMP JUMPDEST SWAP1 POP SWAP2 SWAP1 POP JUMP JUMPDEST PUSH32 0x4F776E61626C653A2063616C6C6572206973206E6F7420746865206F776E6572 PUSH0 DUP3 ADD MSTORE POP JUMP JUMPDEST PUSH0 PUSH2 0x2293 PUSH1 0x20 DUP4 PUSH2 0x17FD JUMP JUMPDEST SWAP2 POP PUSH2 0x229E DUP3 PUSH2 0x225F JUMP JUMPDEST PUSH1 0x20 DUP3 ADD SWAP1 POP SWAP2 SWAP1 POP JUMP JUMPDEST PUSH0 PUSH1 0x20 DUP3 ADD SWAP1 POP DUP2 DUP2 SUB PUSH0 DUP4 ADD MSTORE PUSH2 0x22C0 DUP2 PUSH2 0x2287 JUMP JUMPDEST SWAP1 POP SWAP2 SWAP1 POP JUMP JUMPDEST PUSH32 0x45524332303A206D696E7420746F20746865207A65726F206164647265737300 PUSH0 DUP3 ADD MSTORE POP JUMP JUMPDEST PUSH0 PUSH2 0x22FB PUSH1 0x1F DUP4 PUSH2 0x17FD JUMP JUMPDEST SWAP2 POP PUSH2 0x2306 DUP3 PUSH2 0x22C7 JUMP JUMPDEST PUSH1 0x20 DUP3 ADD SWAP1 POP SWAP2 SWAP1 POP JUMP JUMPDEST PUSH0 PUSH1 0x20 DUP3 ADD SWAP1 POP DUP2 DUP2 SUB PUSH0 DUP4 ADD MSTORE PUSH2 0x2328 DUP2 PUSH2 0x22EF JUMP JUMPDEST SWAP1 POP SWAP2 SWAP1 POP JUMP JUMPDEST PUSH32 0x45524332303A206275726E2066726F6D20746865207A65726F20616464726573 PUSH0 DUP3 ADD MSTORE PUSH32 0x7300000000000000000000000000000000000000000000000000000000000000 PUSH1 0x20 DUP3 ADD MSTORE POP JUMP JUMPDEST PUSH0 PUSH2 0x2389 PUSH1 0x21 DUP4 PUSH2 0x17FD JUMP JUMPDEST SWAP2 POP PUSH2 0x2394 DUP3 PUSH2 0x232F JUMP JUMPDEST PUSH1 0x40 DUP3 ADD SWAP1 POP SWAP2 SWAP1 POP JUMP JUMPDEST PUSH0 PUSH1 0x20 DUP3 ADD SWAP1 POP DUP2 DUP2 SUB PUSH0 DUP4 ADD MSTORE PUSH2 0x23B6 DUP2 PUSH2 0x237D JUMP JUMPDEST SWAP1 POP SWAP2 SWAP1 POP JUMP JUMPDEST PUSH32 0x45524332303A206275726E20616D6F756E7420657863656564732062616C616E PUSH0 DUP3 ADD MSTORE PUSH32 0x6365000000000000000000000000000000000000000000000000000000000000 PUSH1 0x20 DUP3 ADD MSTORE POP JUMP JUMPDEST PUSH0 PUSH2 0x2417 PUSH1 0x22 DUP4 PUSH2 0x17FD JUMP JUMPDEST SWAP2 POP PUSH2 0x2422 DUP3 PUSH2 0x23BD JUMP JUMPDEST PUSH1 0x40 DUP3 ADD SWAP1 POP SWAP2 SWAP1 POP JUMP JUMPDEST PUSH0 PUSH1 0x20 DUP3 ADD SWAP1 POP DUP2 DUP2 SUB PUSH0 DUP4 ADD MSTORE PUSH2 0x2444 DUP2 PUSH2 0x240B JUMP JUMPDEST SWAP1 POP SWAP2 SWAP1 POP JUMP JUMPDEST PUSH0 PUSH2 0x2455 DUP3 PUSH2 0x18FB JUMP JUMPDEST SWAP2 POP PUSH2 0x2460 DUP4 PUSH2 0x18FB JUMP JUMPDEST SWAP3 POP DUP3 DUP3 SUB SWAP1 POP DUP2 DUP2 GT ISZERO PUSH2 0x2478 JUMPI PUSH2 0x2477 PUSH2 0x1C86 JUMP JUMPDEST JUMPDEST SWAP3 SWAP2 POP POP JUMP JUMPDEST PUSH0 PUSH1 0xA0 DUP3 ADD SWAP1 POP PUSH2 0x2491 PUSH0 DUP4 ADD DUP9 PUSH2 0x1A54 JUMP JUMPDEST PUSH2 0x249E PUSH1 0x20 DUP4 ADD DUP8 PUSH2 0x1A54 JUMP JUMPDEST PUSH2 0x24AB PUSH1 0x40 DUP4 ADD DUP7 PUSH2 0x1A54 JUMP JUMPDEST PUSH2 0x24B8 PUSH1 0x60 DUP4 ADD DUP6 PUSH2 0x199F JUMP JUMPDEST PUSH2 0x24C5 PUSH1 0x80 DUP4 ADD DUP5 PUSH2 0x1AD2 JUMP JUMPDEST SWAP7 SWAP6 POP POP POP POP POP POP JUMP JUMPDEST PUSH0 DUP2 SWAP1 POP SWAP3 SWAP2 POP POP JUMP JUMPDEST PUSH32 0x1901000000000000000000000000000000000000000000000000000000000000 PUSH0 DUP3 ADD MSTORE POP JUMP JUMPDEST PUSH0 PUSH2 0x250D PUSH1 0x2 DUP4 PUSH2 0x24CF JUMP JUMPDEST SWAP2 POP PUSH2 0x2518 DUP3 PUSH2 0x24D9 JUMP JUMPDEST PUSH1 0x2 DUP3 ADD SWAP1 POP SWAP2 SWAP1 POP JUMP JUMPDEST PUSH0 DUP2 SWAP1 POP SWAP2 SWAP1 POP JUMP JUMPDEST PUSH2 0x253D PUSH2 0x2538 DUP3 PUSH2 0x1A4B JUMP JUMPDEST PUSH2 0x2523 JUMP JUMPDEST DUP3 MSTORE POP POP JUMP JUMPDEST PUSH0 PUSH2 0x254D DUP3 PUSH2 0x2501 JUMP JUMPDEST SWAP2 POP PUSH2 0x2559 DUP3 DUP6 PUSH2 0x252C JUMP JUMPDEST PUSH1 0x20 DUP3 ADD SWAP2 POP PUSH2 0x2569 DUP3 DUP5 PUSH2 0x252C JUMP JUMPDEST PUSH1 0x20 DUP3 ADD SWAP2 POP DUP2 SWAP1 POP SWAP4 SWAP3 POP POP POP JUMP JUMPDEST PUSH0 PUSH1 0x80 DUP3 ADD SWAP1 POP PUSH2 0x258C PUSH0 DUP4 ADD DUP8 PUSH2 0x1A54 JUMP JUMPDEST PUSH2 0x2599 PUSH1 0x20 DUP4 ADD DUP7 PUSH2 0x1A23 JUMP JUMPDEST PUSH2 0x25A6 PUSH1 0x40 DUP4 ADD DUP6 PUSH2 0x1A54 JUMP JUMPDEST PUSH2 0x25B3 PUSH1 0x60 DUP4 ADD DUP5 PUSH2 0x1A54 JUMP JUMPDEST SWAP6 SWAP5 POP POP POP POP POP JUMP JUMPDEST PUSH32 0x4E487B7100000000000000000000000000000000000000000000000000000000 PUSH0 MSTORE PUSH1 0x21 PUSH1 0x4 MSTORE PUSH1 0x24 PUSH0 REVERT JUMPDEST PUSH32 0x45434453413A20696E76616C6964207369676E61747572650000000000000000 PUSH0 DUP3 ADD MSTORE POP JUMP JUMPDEST PUSH0 PUSH2 0x261D PUSH1 0x18 DUP4 PUSH2 0x17FD JUMP JUMPDEST SWAP2 POP PUSH2 0x2628 DUP3 PUSH2 0x25E9 JUMP JUMPDEST PUSH1 0x20 DUP3 ADD SWAP1 POP SWAP2 SWAP1 POP JUMP JUMPDEST PUSH0 PUSH1 0x20 DUP3 ADD SWAP1 POP DUP2 DUP2 SUB PUSH0 DUP4 ADD MSTORE PUSH2 0x264A DUP2 PUSH2 0x2611 JUMP JUMPDEST SWAP1 POP SWAP2 SWAP1 POP JUMP JUMPDEST PUSH32 0x45434453413A20696E76616C6964207369676E6174757265206C656E67746800 PUSH0 DUP3 ADD MSTORE POP JUMP JUMPDEST PUSH0 PUSH2 0x2685 PUSH1 0x1F DUP4 PUSH2 0x17FD JUMP JUMPDEST SWAP2 POP PUSH2 0x2690 DUP3 PUSH2 0x2651 JUMP JUMPDEST PUSH1 0x20 DUP3 ADD SWAP1 POP SWAP2 SWAP1 POP JUMP JUMPDEST PUSH0 PUSH1 0x20 DUP3 ADD SWAP1 POP DUP2 DUP2 SUB PUSH0 DUP4 ADD MSTORE PUSH2 0x26B2 DUP2 PUSH2 0x2679 JUMP JUMPDEST SWAP1 POP SWAP2 SWAP1 POP JUMP JUMPDEST PUSH32 0x45434453413A20696E76616C6964207369676E6174757265202773272076616C PUSH0 DUP3 ADD MSTORE PUSH32 0x7565000000000000000000000000000000000000000000000000000000000000 PUSH1 0x20 DUP3 ADD MSTORE POP JUMP JUMPDEST PUSH0 PUSH2 0x2713 PUSH1 0x22 DUP4 PUSH2 0x17FD JUMP JUMPDEST SWAP2 POP PUSH2 0x271E DUP3 PUSH2 0x26B9 JUMP JUMPDEST PUSH1 0x40 DUP3 ADD SWAP1 POP SWAP2 SWAP1 POP JUMP JUMPDEST PUSH0 PUSH1 0x20 DUP3 ADD SWAP1 POP DUP2 DUP2 SUB PUSH0 DUP4 ADD MSTORE PUSH2 0x2740 DUP2 PUSH2 0x2707 JUMP JUMPDEST SWAP1 POP SWAP2 SWAP1 POP JUMP JUMPDEST PUSH32 0x45434453413A20696E76616C6964207369676E6174757265202776272076616C PUSH0 DUP3 ADD MSTORE PUSH32 0x7565000000000000000000000000000000000000000000000000000000000000 PUSH1 0x20 DUP3 ADD MSTORE POP JUMP JUMPDEST PUSH0 PUSH2 0x27A1 PUSH1 0x22 DUP4 PUSH2 0x17FD JUMP JUMPDEST SWAP2 POP PUSH2 0x27AC DUP3 PUSH2 0x2747 JUMP JUMPDEST PUSH1 0x40 DUP3 ADD SWAP1 POP SWAP2 SWAP1 POP JUMP JUMPDEST PUSH0 PUSH1 0x20 DUP3 ADD SWAP1 POP DUP2 DUP2 SUB PUSH0 DUP4 ADD MSTORE PUSH2 0x27CE DUP2 PUSH2 0x2795 JUMP JUMPDEST SWAP1 POP SWAP2 SWAP1 POP JUMP INVALID LOG2 PUSH5 0x6970667358 0x22 SLT KECCAK256 0xCB SWAP13 DIV LOG2 0xE DUP4 0xE5 CALLDATACOPY EXTCODEHASH 0xF9 EXTCODEHASH 0xD0 CALLDATACOPY 0xB3 0xD6 PUSH23 0xCF8374671C749441443DE9951113CE5864736F6C634300 ADDMOD EQ STOP CALLER "
				},
				"gasEstimates": {
					"creation": {
						"codeDepositCost": "2050200",
						"executionCost": "infinite",
						"totalCost": "infinite"
					},
					"external": {
						"DOMAIN_SEPARATOR()": "infinite",
						"allowance(address,address)": "infinite",
						"approve(address,uint256)": "infinite",
						"balanceOf(address)": "2940",
						"burn(uint256)": "infinite",
						"burnFrom(address,uint256)": "infinite",
						"decimals()": "450",
						"decreaseAllowance(address,uint256)": "infinite",
						"increaseAllowance(address,uint256)": "infinite",
						"mint(address,uint256)": "infinite",
						"name()": "infinite",
						"nonces(address)": "2943",
						"owner()": "2604",
						"permit(address,address,uint256,uint256,uint8,bytes32,bytes32)": "infinite",
						"renounceOwnership()": "30413",
						"symbol()": "infinite",
						"totalSupply()": "2500",
						"transfer(address,uint256)": "infinite",
						"transferFrom(address,address,uint256)": "infinite",
						"transferOwnership(address)": "30841"
					}
				},
				"methodIdentifiers": {
					"DOMAIN_SEPARATOR()": "3644e515",
					"allowance(address,address)": "dd62ed3e",
					"approve(address,uint256)": "095ea7b3",
					"balanceOf(address)": "70a08231",
					"burn(uint256)": "42966c68",
					"burnFrom(address,uint256)": "79cc6790",
					"decimals()": "313ce567",
					"decreaseAllowance(address,uint256)": "a457c2d7",
					"increaseAllowance(address,uint256)": "39509351",
					"mint(address,uint256)": "40c10f19",
					"name()": "06fdde03",
					"nonces(address)": "7ecebe00",
					"owner()": "8da5cb5b",
					"permit(address,address,uint256,uint256,uint8,bytes32,bytes32)": "d505accf",
					"renounceOwnership()": "715018a6",
					"symbol()": "95d89b41",
					"totalSupply()": "18160ddd",
					"transfer(address,uint256)": "a9059cbb",
					"transferFrom(address,address,uint256)": "23b872dd",
					"transferOwnership(address)": "f2fde38b"
				}
			},
			"storageLayout": {
				"storage": [
					{
						"astId": 171,
						"contract": "contracts/token factory/token.sol:MyToken",
						"label": "_balances",
						"offset": 0,
						"slot": "0",
						"type": "t_mapping(t_address,t_uint256)"
					},
					{
						"astId": 177,
						"contract": "contracts/token factory/token.sol:MyToken",
						"label": "_allowances",
						"offset": 0,
						"slot": "1",
						"type": "t_mapping(t_address,t_mapping(t_address,t_uint256))"
					},
					{
						"astId": 179,
						"contract": "contracts/token factory/token.sol:MyToken",
						"label": "_totalSupply",
						"offset": 0,
						"slot": "2",
						"type": "t_uint256"
					},
					{
						"astId": 181,
						"contract": "contracts/token factory/token.sol:MyToken",
						"label": "_name",
						"offset": 0,
						"slot": "3",
						"type": "t_string_storage"
					},
					{
						"astId": 183,
						"contract": "contracts/token factory/token.sol:MyToken",
						"label": "_symbol",
						"offset": 0,
						"slot": "4",
						"type": "t_string_storage"
					},
					{
						"astId": 50,
						"contract": "contracts/token factory/token.sol:MyToken",
						"label": "_owner",
						"offset": 0,
						"slot": "5",
						"type": "t_address"
					},
					{
						"astId": 911,
						"contract": "contracts/token factory/token.sol:MyToken",
						"label": "_nonces",
						"offset": 0,
						"slot": "6",
						"type": "t_mapping(t_address,t_struct(Counter)1124_storage)"
					},
					{
						"astId": 919,
						"contract": "contracts/token factory/token.sol:MyToken",
						"label": "_PERMIT_TYPEHASH_DEPRECATED_SLOT",
						"offset": 0,
						"slot": "7",
						"type": "t_bytes32"
					}
				],
				"types": {
					"t_address": {
						"encoding": "inplace",
						"label": "address",
						"numberOfBytes": "20"
					},
					"t_bytes32": {
						"encoding": "inplace",
						"label": "bytes32",
						"numberOfBytes": "32"
					},
					"t_mapping(t_address,t_mapping(t_address,t_uint256))": {
						"encoding": "mapping",
						"key": "t_address",
						"label": "mapping(address => mapping(address => uint256))",
						"numberOfBytes": "32",
						"value": "t_mapping(t_address,t_uint256)"
					},
					"t_mapping(t_address,t_struct(Counter)1124_storage)": {
						"encoding": "mapping",
						"key": "t_address",
						"label": "mapping(address => struct Counters.Counter)",
						"numberOfBytes": "32",
						"value": "t_struct(Counter)1124_storage"
					},
					"t_mapping(t_address,t_uint256)": {
						"encoding": "mapping",
						"key": "t_address",
						"label": "mapping(address => uint256)",
						"numberOfBytes": "32",
						"value": "t_uint256"
					},
					"t_string_storage": {
						"encoding": "bytes",
						"label": "string",
						"numberOfBytes": "32"
					},
					"t_struct(Counter)1124_storage": {
						"encoding": "inplace",
						"label": "struct Counters.Counter",
						"members": [
							{
								"astId": 1123,
								"contract": "contracts/token factory/token.sol:MyToken",
								"label": "_value",
								"offset": 0,
								"slot": "0",
								"type": "t_uint256"
							}
						],
						"numberOfBytes": "32"
					},
					"t_uint256": {
						"encoding": "inplace",
						"label": "uint256",
						"numberOfBytes": "32"
					}
				}
			},
			"userdoc": {
				"kind": "user",
				"methods": {},
				"version": 1
			}
		}
	}
}