{
	"contracts/token factory/InternalLiquidityPool.sol": {
		"InternalLiquidityPool": {
			"abi": [
				{
					"inputs": [
						{
							"internalType": "contract IERC20",
							"name": "_token",
							"type": "address"
						},
						{
							"internalType": "uint256",
							"name": "_taxRate",
							"type": "uint256"
						},
						{
							"internalType": "address",
							"name": "_companyAddress",
							"type": "address"
						},
						{
							"internalType": "address",
							"name": "_liquidityProvider",
							"type": "address"
						},
						{
							"internalType": "uint256",
							"name": "_initialReserve",
							"type": "uint256"
						}
					],
					"stateMutability": "nonpayable",
					"type": "constructor"
				},
				{
					"anonymous": false,
					"inputs": [
						{
							"indexed": false,
							"internalType": "address",
							"name": "tokenAddress",
							"type": "address"
						}
					],
					"name": "TokenAddressSet",
					"type": "event"
				},
				{
					"inputs": [
						{
							"internalType": "uint256",
							"name": "amount",
							"type": "uint256"
						}
					],
					"name": "applyTax",
					"outputs": [
						{
							"internalType": "uint256",
							"name": "",
							"type": "uint256"
						}
					],
					"stateMutability": "view",
					"type": "function"
				},
				{
					"inputs": [],
					"name": "companyAddress",
					"outputs": [
						{
							"internalType": "address",
							"name": "",
							"type": "address"
						}
					],
					"stateMutability": "view",
					"type": "function"
				},
				{
					"inputs": [],
					"name": "initialReserve",
					"outputs": [
						{
							"internalType": "uint256",
							"name": "",
							"type": "uint256"
						}
					],
					"stateMutability": "view",
					"type": "function"
				},
				{
					"inputs": [],
					"name": "liquidityProvider",
					"outputs": [
						{
							"internalType": "address",
							"name": "",
							"type": "address"
						}
					],
					"stateMutability": "view",
					"type": "function"
				},
				{
					"inputs": [
						{
							"internalType": "address",
							"name": "_tokenAddress",
							"type": "address"
						}
					],
					"name": "setTokenAddress",
					"outputs": [],
					"stateMutability": "nonpayable",
					"type": "function"
				},
				{
					"inputs": [],
					"name": "taxRate",
					"outputs": [
						{
							"internalType": "uint256",
							"name": "",
							"type": "uint256"
						}
					],
					"stateMutability": "view",
					"type": "function"
				},
				{
					"inputs": [],
					"name": "token",
					"outputs": [
						{
							"internalType": "contract IERC20",
							"name": "",
							"type": "address"
						}
					],
					"stateMutability": "view",
					"type": "function"
				},
				{
					"inputs": [],
					"name": "tokenAddress",
					"outputs": [
						{
							"internalType": "address",
							"name": "",
							"type": "address"
						}
					],
					"stateMutability": "view",
					"type": "function"
				}
			],
			"devdoc": {
				"details": "Manages liquidity for an ERC20 token.",
				"kind": "dev",
				"methods": {
					"applyTax(uint256)": {
						"details": "Function to apply tax on token transfers.",
						"params": {
							"amount": "Amount of tokens being transferred."
						},
						"returns": {
							"_0": "Tax amount deducted."
						}
					},
					"constructor": {
						"details": "Constructor to initialize the InternalLiquidityPool.",
						"params": {
							"_companyAddress": "Address of the company.",
							"_initialReserve": "Initial reserve of tokens.",
							"_liquidityProvider": "Address of the liquidity provider.",
							"_taxRate": "The global tax rate.",
							"_token": "The ERC20 token contract."
						}
					},
					"setTokenAddress(address)": {
						"details": "Function to set the associated ERC20 token address.",
						"params": {
							"_tokenAddress": "Address of the ERC20 token."
						}
					}
				},
				"title": "InternalLiquidityPool",
				"version": 1
			},
			"evm": {
				"assembly": "    /* \"contracts/token factory/InternalLiquidityPool.sol\":308:2432  contract InternalLiquidityPool {... */\n  mstore(0x40, 0x80)\n    /* \"contracts/token factory/InternalLiquidityPool.sol\":1305:1665  constructor(... */\n  callvalue\n  dup1\n  iszero\n  tag_1\n  jumpi\n  0x00\n  dup1\n  revert\ntag_1:\n  pop\n  mload(0x40)\n  sub(codesize, bytecodeSize)\n  dup1\n  bytecodeSize\n  dup4\n  codecopy\n  dup2\n  dup2\n  add\n  0x40\n  mstore\n  dup2\n  add\n  swap1\n  tag_2\n  swap2\n  swap1\n  tag_3\n  jump\t// in\ntag_2:\n    /* \"contracts/token factory/InternalLiquidityPool.sol\":1492:1498  _token */\n  dup5\n    /* \"contracts/token factory/InternalLiquidityPool.sol\":1484:1489  token */\n  0x00\n  dup1\n    /* \"contracts/token factory/InternalLiquidityPool.sol\":1484:1498  token = _token */\n  0x0100\n  exp\n  dup2\n  sload\n  dup2\n  0xffffffffffffffffffffffffffffffffffffffff\n  mul\n  not\n  and\n  swap1\n  dup4\n  0xffffffffffffffffffffffffffffffffffffffff\n  and\n  mul\n  or\n  swap1\n  sstore\n  pop\n    /* \"contracts/token factory/InternalLiquidityPool.sol\":1518:1526  _taxRate */\n  dup4\n    /* \"contracts/token factory/InternalLiquidityPool.sol\":1508:1515  taxRate */\n  0x01\n    /* \"contracts/token factory/InternalLiquidityPool.sol\":1508:1526  taxRate = _taxRate */\n  dup2\n  swap1\n  sstore\n  pop\n    /* \"contracts/token factory/InternalLiquidityPool.sol\":1553:1568  _companyAddress */\n  dup3\n    /* \"contracts/token factory/InternalLiquidityPool.sol\":1536:1550  companyAddress */\n  0x02\n  0x00\n    /* \"contracts/token factory/InternalLiquidityPool.sol\":1536:1568  companyAddress = _companyAddress */\n  0x0100\n  exp\n  dup2\n  sload\n  dup2\n  0xffffffffffffffffffffffffffffffffffffffff\n  mul\n  not\n  and\n  swap1\n  dup4\n  0xffffffffffffffffffffffffffffffffffffffff\n  and\n  mul\n  or\n  swap1\n  sstore\n  pop\n    /* \"contracts/token factory/InternalLiquidityPool.sol\":1598:1616  _liquidityProvider */\n  dup2\n    /* \"contracts/token factory/InternalLiquidityPool.sol\":1578:1595  liquidityProvider */\n  0x03\n  0x00\n    /* \"contracts/token factory/InternalLiquidityPool.sol\":1578:1616  liquidityProvider = _liquidityProvider */\n  0x0100\n  exp\n  dup2\n  sload\n  dup2\n  0xffffffffffffffffffffffffffffffffffffffff\n  mul\n  not\n  and\n  swap1\n  dup4\n  0xffffffffffffffffffffffffffffffffffffffff\n  and\n  mul\n  or\n  swap1\n  sstore\n  pop\n    /* \"contracts/token factory/InternalLiquidityPool.sol\":1643:1658  _initialReserve */\n  dup1\n    /* \"contracts/token factory/InternalLiquidityPool.sol\":1626:1640  initialReserve */\n  0x04\n    /* \"contracts/token factory/InternalLiquidityPool.sol\":1626:1658  initialReserve = _initialReserve */\n  dup2\n  swap1\n  sstore\n  pop\n    /* \"contracts/token factory/InternalLiquidityPool.sol\":1305:1665  constructor(... */\n  pop\n  pop\n  pop\n  pop\n  pop\n    /* \"contracts/token factory/InternalLiquidityPool.sol\":308:2432  contract InternalLiquidityPool {... */\n  jump(tag_6)\n    /* \"#utility.yul\":88:205   */\ntag_8:\n    /* \"#utility.yul\":197:198   */\n  0x00\n    /* \"#utility.yul\":194:195   */\n  dup1\n    /* \"#utility.yul\":187:199   */\n  revert\n    /* \"#utility.yul\":334:460   */\ntag_10:\n    /* \"#utility.yul\":371:378   */\n  0x00\n    /* \"#utility.yul\":411:453   */\n  0xffffffffffffffffffffffffffffffffffffffff\n    /* \"#utility.yul\":404:409   */\n  dup3\n    /* \"#utility.yul\":400:454   */\n  and\n    /* \"#utility.yul\":389:454   */\n  swap1\n  pop\n    /* \"#utility.yul\":334:460   */\n  swap2\n  swap1\n  pop\n  jump\t// out\n    /* \"#utility.yul\":466:562   */\ntag_11:\n    /* \"#utility.yul\":503:510   */\n  0x00\n    /* \"#utility.yul\":532:556   */\n  tag_26\n    /* \"#utility.yul\":550:555   */\n  dup3\n    /* \"#utility.yul\":532:556   */\n  tag_10\n  jump\t// in\ntag_26:\n    /* \"#utility.yul\":521:556   */\n  swap1\n  pop\n    /* \"#utility.yul\":466:562   */\n  swap2\n  swap1\n  pop\n  jump\t// out\n    /* \"#utility.yul\":568:678   */\ntag_12:\n    /* \"#utility.yul\":619:626   */\n  0x00\n    /* \"#utility.yul\":648:672   */\n  tag_28\n    /* \"#utility.yul\":666:671   */\n  dup3\n    /* \"#utility.yul\":648:672   */\n  tag_11\n  jump\t// in\ntag_28:\n    /* \"#utility.yul\":637:672   */\n  swap1\n  pop\n    /* \"#utility.yul\":568:678   */\n  swap2\n  swap1\n  pop\n  jump\t// out\n    /* \"#utility.yul\":684:834   */\ntag_13:\n    /* \"#utility.yul\":771:809   */\n  tag_30\n    /* \"#utility.yul\":803:808   */\n  dup2\n    /* \"#utility.yul\":771:809   */\n  tag_12\n  jump\t// in\ntag_30:\n    /* \"#utility.yul\":764:769   */\n  dup2\n    /* \"#utility.yul\":761:810   */\n  eq\n    /* \"#utility.yul\":751:828   */\n  tag_31\n  jumpi\n    /* \"#utility.yul\":824:825   */\n  0x00\n    /* \"#utility.yul\":821:822   */\n  dup1\n    /* \"#utility.yul\":814:826   */\n  revert\n    /* \"#utility.yul\":751:828   */\ntag_31:\n    /* \"#utility.yul\":684:834   */\n  pop\n  jump\t// out\n    /* \"#utility.yul\":840:1011   */\ntag_14:\n    /* \"#utility.yul\":911:916   */\n  0x00\n    /* \"#utility.yul\":942:948   */\n  dup2\n    /* \"#utility.yul\":936:949   */\n  mload\n    /* \"#utility.yul\":927:949   */\n  swap1\n  pop\n    /* \"#utility.yul\":958:1005   */\n  tag_33\n    /* \"#utility.yul\":999:1004   */\n  dup2\n    /* \"#utility.yul\":958:1005   */\n  tag_13\n  jump\t// in\ntag_33:\n    /* \"#utility.yul\":840:1011   */\n  swap3\n  swap2\n  pop\n  pop\n  jump\t// out\n    /* \"#utility.yul\":1017:1094   */\ntag_15:\n    /* \"#utility.yul\":1054:1061   */\n  0x00\n    /* \"#utility.yul\":1083:1088   */\n  dup2\n    /* \"#utility.yul\":1072:1088   */\n  swap1\n  pop\n    /* \"#utility.yul\":1017:1094   */\n  swap2\n  swap1\n  pop\n  jump\t// out\n    /* \"#utility.yul\":1100:1222   */\ntag_16:\n    /* \"#utility.yul\":1173:1197   */\n  tag_36\n    /* \"#utility.yul\":1191:1196   */\n  dup2\n    /* \"#utility.yul\":1173:1197   */\n  tag_15\n  jump\t// in\ntag_36:\n    /* \"#utility.yul\":1166:1171   */\n  dup2\n    /* \"#utility.yul\":1163:1198   */\n  eq\n    /* \"#utility.yul\":1153:1216   */\n  tag_37\n  jumpi\n    /* \"#utility.yul\":1212:1213   */\n  0x00\n    /* \"#utility.yul\":1209:1210   */\n  dup1\n    /* \"#utility.yul\":1202:1214   */\n  revert\n    /* \"#utility.yul\":1153:1216   */\ntag_37:\n    /* \"#utility.yul\":1100:1222   */\n  pop\n  jump\t// out\n    /* \"#utility.yul\":1228:1371   */\ntag_17:\n    /* \"#utility.yul\":1285:1290   */\n  0x00\n    /* \"#utility.yul\":1316:1322   */\n  dup2\n    /* \"#utility.yul\":1310:1323   */\n  mload\n    /* \"#utility.yul\":1301:1323   */\n  swap1\n  pop\n    /* \"#utility.yul\":1332:1365   */\n  tag_39\n    /* \"#utility.yul\":1359:1364   */\n  dup2\n    /* \"#utility.yul\":1332:1365   */\n  tag_16\n  jump\t// in\ntag_39:\n    /* \"#utility.yul\":1228:1371   */\n  swap3\n  swap2\n  pop\n  pop\n  jump\t// out\n    /* \"#utility.yul\":1377:1499   */\ntag_18:\n    /* \"#utility.yul\":1450:1474   */\n  tag_41\n    /* \"#utility.yul\":1468:1473   */\n  dup2\n    /* \"#utility.yul\":1450:1474   */\n  tag_11\n  jump\t// in\ntag_41:\n    /* \"#utility.yul\":1443:1448   */\n  dup2\n    /* \"#utility.yul\":1440:1475   */\n  eq\n    /* \"#utility.yul\":1430:1493   */\n  tag_42\n  jumpi\n    /* \"#utility.yul\":1489:1490   */\n  0x00\n    /* \"#utility.yul\":1486:1487   */\n  dup1\n    /* \"#utility.yul\":1479:1491   */\n  revert\n    /* \"#utility.yul\":1430:1493   */\ntag_42:\n    /* \"#utility.yul\":1377:1499   */\n  pop\n  jump\t// out\n    /* \"#utility.yul\":1505:1648   */\ntag_19:\n    /* \"#utility.yul\":1562:1567   */\n  0x00\n    /* \"#utility.yul\":1593:1599   */\n  dup2\n    /* \"#utility.yul\":1587:1600   */\n  mload\n    /* \"#utility.yul\":1578:1600   */\n  swap1\n  pop\n    /* \"#utility.yul\":1609:1642   */\n  tag_44\n    /* \"#utility.yul\":1636:1641   */\n  dup2\n    /* \"#utility.yul\":1609:1642   */\n  tag_18\n  jump\t// in\ntag_44:\n    /* \"#utility.yul\":1505:1648   */\n  swap3\n  swap2\n  pop\n  pop\n  jump\t// out\n    /* \"#utility.yul\":1654:2659   */\ntag_3:\n    /* \"#utility.yul\":1774:1780   */\n  0x00\n    /* \"#utility.yul\":1782:1788   */\n  dup1\n    /* \"#utility.yul\":1790:1796   */\n  0x00\n    /* \"#utility.yul\":1798:1804   */\n  dup1\n    /* \"#utility.yul\":1806:1812   */\n  0x00\n    /* \"#utility.yul\":1855:1858   */\n  0xa0\n    /* \"#utility.yul\":1843:1852   */\n  dup7\n    /* \"#utility.yul\":1834:1841   */\n  dup9\n    /* \"#utility.yul\":1830:1853   */\n  sub\n    /* \"#utility.yul\":1826:1859   */\n  slt\n    /* \"#utility.yul\":1823:1943   */\n  iszero\n  tag_46\n  jumpi\n    /* \"#utility.yul\":1862:1941   */\n  tag_47\n  tag_8\n  jump\t// in\ntag_47:\n    /* \"#utility.yul\":1823:1943   */\ntag_46:\n    /* \"#utility.yul\":1982:1983   */\n  0x00\n    /* \"#utility.yul\":2007:2085   */\n  tag_48\n    /* \"#utility.yul\":2077:2084   */\n  dup9\n    /* \"#utility.yul\":2068:2074   */\n  dup3\n    /* \"#utility.yul\":2057:2066   */\n  dup10\n    /* \"#utility.yul\":2053:2075   */\n  add\n    /* \"#utility.yul\":2007:2085   */\n  tag_14\n  jump\t// in\ntag_48:\n    /* \"#utility.yul\":1997:2085   */\n  swap6\n  pop\n    /* \"#utility.yul\":1953:2095   */\n  pop\n    /* \"#utility.yul\":2134:2136   */\n  0x20\n    /* \"#utility.yul\":2160:2224   */\n  tag_49\n    /* \"#utility.yul\":2216:2223   */\n  dup9\n    /* \"#utility.yul\":2207:2213   */\n  dup3\n    /* \"#utility.yul\":2196:2205   */\n  dup10\n    /* \"#utility.yul\":2192:2214   */\n  add\n    /* \"#utility.yul\":2160:2224   */\n  tag_17\n  jump\t// in\ntag_49:\n    /* \"#utility.yul\":2150:2224   */\n  swap5\n  pop\n    /* \"#utility.yul\":2105:2234   */\n  pop\n    /* \"#utility.yul\":2273:2275   */\n  0x40\n    /* \"#utility.yul\":2299:2363   */\n  tag_50\n    /* \"#utility.yul\":2355:2362   */\n  dup9\n    /* \"#utility.yul\":2346:2352   */\n  dup3\n    /* \"#utility.yul\":2335:2344   */\n  dup10\n    /* \"#utility.yul\":2331:2353   */\n  add\n    /* \"#utility.yul\":2299:2363   */\n  tag_19\n  jump\t// in\ntag_50:\n    /* \"#utility.yul\":2289:2363   */\n  swap4\n  pop\n    /* \"#utility.yul\":2244:2373   */\n  pop\n    /* \"#utility.yul\":2412:2414   */\n  0x60\n    /* \"#utility.yul\":2438:2502   */\n  tag_51\n    /* \"#utility.yul\":2494:2501   */\n  dup9\n    /* \"#utility.yul\":2485:2491   */\n  dup3\n    /* \"#utility.yul\":2474:2483   */\n  dup10\n    /* \"#utility.yul\":2470:2492   */\n  add\n    /* \"#utility.yul\":2438:2502   */\n  tag_19\n  jump\t// in\ntag_51:\n    /* \"#utility.yul\":2428:2502   */\n  swap3\n  pop\n    /* \"#utility.yul\":2383:2512   */\n  pop\n    /* \"#utility.yul\":2551:2554   */\n  0x80\n    /* \"#utility.yul\":2578:2642   */\n  tag_52\n    /* \"#utility.yul\":2634:2641   */\n  dup9\n    /* \"#utility.yul\":2625:2631   */\n  dup3\n    /* \"#utility.yul\":2614:2623   */\n  dup10\n    /* \"#utility.yul\":2610:2632   */\n  add\n    /* \"#utility.yul\":2578:2642   */\n  tag_17\n  jump\t// in\ntag_52:\n    /* \"#utility.yul\":2568:2642   */\n  swap2\n  pop\n    /* \"#utility.yul\":2522:2652   */\n  pop\n    /* \"#utility.yul\":1654:2659   */\n  swap3\n  swap6\n  pop\n  swap3\n  swap6\n  swap1\n  swap4\n  pop\n  jump\t// out\n    /* \"contracts/token factory/InternalLiquidityPool.sol\":308:2432  contract InternalLiquidityPool {... */\ntag_6:\n  dataSize(sub_0)\n  dup1\n  dataOffset(sub_0)\n  0x00\n  codecopy\n  0x00\n  return\nstop\n\nsub_0: assembly {\n        /* \"contracts/token factory/InternalLiquidityPool.sol\":308:2432  contract InternalLiquidityPool {... */\n      mstore(0x40, 0x80)\n      callvalue\n      dup1\n      iszero\n      tag_1\n      jumpi\n      0x00\n      dup1\n      revert\n    tag_1:\n      pop\n      jumpi(tag_2, lt(calldatasize, 0x04))\n      shr(0xe0, calldataload(0x00))\n      dup1\n      0x771a3a1d\n      gt\n      tag_11\n      jumpi\n      dup1\n      0x771a3a1d\n      eq\n      tag_7\n      jumpi\n      dup1\n      0x9d76ea58\n      eq\n      tag_8\n      jumpi\n      dup1\n      0xe6fd2982\n      eq\n      tag_9\n      jumpi\n      dup1\n      0xfc0c546a\n      eq\n      tag_10\n      jumpi\n      jump(tag_2)\n    tag_11:\n      dup1\n      0x26a4e8d2\n      eq\n      tag_3\n      jumpi\n      dup1\n      0x53e1ead9\n      eq\n      tag_4\n      jumpi\n      dup1\n      0x5908896a\n      eq\n      tag_5\n      jumpi\n      dup1\n      0x5b8bec55\n      eq\n      tag_6\n      jumpi\n    tag_2:\n      0x00\n      dup1\n      revert\n        /* \"contracts/token factory/InternalLiquidityPool.sol\":1807:2041  function setTokenAddress(address _tokenAddress) external {... */\n    tag_3:\n      tag_12\n      0x04\n      dup1\n      calldatasize\n      sub\n      dup2\n      add\n      swap1\n      tag_13\n      swap2\n      swap1\n      tag_14\n      jump\t// in\n    tag_13:\n      tag_15\n      jump\t// in\n    tag_12:\n      stop\n        /* \"contracts/token factory/InternalLiquidityPool.sol\":567:596  address public companyAddress */\n    tag_4:\n      tag_16\n      tag_17\n      jump\t// in\n    tag_16:\n      mload(0x40)\n      tag_18\n      swap2\n      swap1\n      tag_19\n      jump\t// in\n    tag_18:\n      mload(0x40)\n      dup1\n      swap2\n      sub\n      swap1\n      return\n        /* \"contracts/token factory/InternalLiquidityPool.sol\":2210:2363  function applyTax(uint256 amount) public view returns (uint256) {... */\n    tag_5:\n      tag_20\n      0x04\n      dup1\n      calldatasize\n      sub\n      dup2\n      add\n      swap1\n      tag_21\n      swap2\n      swap1\n      tag_22\n      jump\t// in\n    tag_21:\n      tag_23\n      jump\t// in\n    tag_20:\n      mload(0x40)\n      tag_24\n      swap2\n      swap1\n      tag_25\n      jump\t// in\n    tag_24:\n      mload(0x40)\n      dup1\n      swap2\n      sub\n      swap1\n      return\n        /* \"contracts/token factory/InternalLiquidityPool.sol\":644:676  address public liquidityProvider */\n    tag_6:\n      tag_26\n      tag_27\n      jump\t// in\n    tag_26:\n      mload(0x40)\n      tag_28\n      swap2\n      swap1\n      tag_19\n      jump\t// in\n    tag_28:\n      mload(0x40)\n      dup1\n      swap2\n      sub\n      swap1\n      return\n        /* \"contracts/token factory/InternalLiquidityPool.sol\":477:499  uint256 public taxRate */\n    tag_7:\n      tag_29\n      tag_30\n      jump\t// in\n    tag_29:\n      mload(0x40)\n      tag_31\n      swap2\n      swap1\n      tag_25\n      jump\t// in\n    tag_31:\n      mload(0x40)\n      dup1\n      swap2\n      sub\n      swap1\n      return\n        /* \"contracts/token factory/InternalLiquidityPool.sol\":819:846  address public tokenAddress */\n    tag_8:\n      tag_32\n      tag_33\n      jump\t// in\n    tag_32:\n      mload(0x40)\n      tag_34\n      swap2\n      swap1\n      tag_19\n      jump\t// in\n    tag_34:\n      mload(0x40)\n      dup1\n      swap2\n      sub\n      swap1\n      return\n        /* \"contracts/token factory/InternalLiquidityPool.sol\":738:767  uint256 public initialReserve */\n    tag_9:\n      tag_35\n      tag_36\n      jump\t// in\n    tag_35:\n      mload(0x40)\n      tag_37\n      swap2\n      swap1\n      tag_25\n      jump\t// in\n    tag_37:\n      mload(0x40)\n      dup1\n      swap2\n      sub\n      swap1\n      return\n        /* \"contracts/token factory/InternalLiquidityPool.sol\":404:423  IERC20 public token */\n    tag_10:\n      tag_38\n      tag_39\n      jump\t// in\n    tag_38:\n      mload(0x40)\n      tag_40\n      swap2\n      swap1\n      tag_41\n      jump\t// in\n    tag_40:\n      mload(0x40)\n      dup1\n      swap2\n      sub\n      swap1\n      return\n        /* \"contracts/token factory/InternalLiquidityPool.sol\":1807:2041  function setTokenAddress(address _tokenAddress) external {... */\n    tag_15:\n        /* \"contracts/token factory/InternalLiquidityPool.sol\":1904:1909  token */\n      0x00\n      dup1\n      sload\n      swap1\n      0x0100\n      exp\n      swap1\n      div\n      0xffffffffffffffffffffffffffffffffffffffff\n      and\n        /* \"contracts/token factory/InternalLiquidityPool.sol\":1882:1910  msg.sender == address(token) */\n      0xffffffffffffffffffffffffffffffffffffffff\n      and\n        /* \"contracts/token factory/InternalLiquidityPool.sol\":1882:1892  msg.sender */\n      caller\n        /* \"contracts/token factory/InternalLiquidityPool.sol\":1882:1910  msg.sender == address(token) */\n      0xffffffffffffffffffffffffffffffffffffffff\n      and\n      eq\n        /* \"contracts/token factory/InternalLiquidityPool.sol\":1874:1951  require(msg.sender == address(token), \"Only the token contract can set this\") */\n      tag_43\n      jumpi\n      mload(0x40)\n      0x08c379a000000000000000000000000000000000000000000000000000000000\n      dup2\n      mstore\n      0x04\n      add\n      tag_44\n      swap1\n      tag_45\n      jump\t// in\n    tag_44:\n      mload(0x40)\n      dup1\n      swap2\n      sub\n      swap1\n      revert\n    tag_43:\n        /* \"contracts/token factory/InternalLiquidityPool.sol\":1976:1989  _tokenAddress */\n      dup1\n        /* \"contracts/token factory/InternalLiquidityPool.sol\":1961:1973  tokenAddress */\n      0x05\n      0x00\n        /* \"contracts/token factory/InternalLiquidityPool.sol\":1961:1989  tokenAddress = _tokenAddress */\n      0x0100\n      exp\n      dup2\n      sload\n      dup2\n      0xffffffffffffffffffffffffffffffffffffffff\n      mul\n      not\n      and\n      swap1\n      dup4\n      0xffffffffffffffffffffffffffffffffffffffff\n      and\n      mul\n      or\n      swap1\n      sstore\n      pop\n        /* \"contracts/token factory/InternalLiquidityPool.sol\":2004:2034  TokenAddressSet(_tokenAddress) */\n      0xd82cad5fdc98633445b90f806f2e1a61a5409f92187ee9cd87f1da18c9069266\n        /* \"contracts/token factory/InternalLiquidityPool.sol\":2020:2033  _tokenAddress */\n      dup2\n        /* \"contracts/token factory/InternalLiquidityPool.sol\":2004:2034  TokenAddressSet(_tokenAddress) */\n      mload(0x40)\n      tag_46\n      swap2\n      swap1\n      tag_19\n      jump\t// in\n    tag_46:\n      mload(0x40)\n      dup1\n      swap2\n      sub\n      swap1\n      log1\n        /* \"contracts/token factory/InternalLiquidityPool.sol\":1807:2041  function setTokenAddress(address _tokenAddress) external {... */\n      pop\n      jump\t// out\n        /* \"contracts/token factory/InternalLiquidityPool.sol\":567:596  address public companyAddress */\n    tag_17:\n      0x02\n      0x00\n      swap1\n      sload\n      swap1\n      0x0100\n      exp\n      swap1\n      div\n      0xffffffffffffffffffffffffffffffffffffffff\n      and\n      dup2\n      jump\t// out\n        /* \"contracts/token factory/InternalLiquidityPool.sol\":2210:2363  function applyTax(uint256 amount) public view returns (uint256) {... */\n    tag_23:\n        /* \"contracts/token factory/InternalLiquidityPool.sol\":2265:2272  uint256 */\n      0x00\n        /* \"contracts/token factory/InternalLiquidityPool.sol\":2312:2317  10000 */\n      0x2710\n        /* \"contracts/token factory/InternalLiquidityPool.sol\":2301:2308  taxRate */\n      sload(0x01)\n        /* \"contracts/token factory/InternalLiquidityPool.sol\":2292:2298  amount */\n      dup4\n        /* \"contracts/token factory/InternalLiquidityPool.sol\":2292:2308  amount * taxRate */\n      tag_48\n      swap2\n      swap1\n      tag_49\n      jump\t// in\n    tag_48:\n        /* \"contracts/token factory/InternalLiquidityPool.sol\":2291:2317  (amount * taxRate) / 10000 */\n      tag_50\n      swap2\n      swap1\n      tag_51\n      jump\t// in\n    tag_50:\n        /* \"contracts/token factory/InternalLiquidityPool.sol\":2284:2317  return (amount * taxRate) / 10000 */\n      swap1\n      pop\n        /* \"contracts/token factory/InternalLiquidityPool.sol\":2210:2363  function applyTax(uint256 amount) public view returns (uint256) {... */\n      swap2\n      swap1\n      pop\n      jump\t// out\n        /* \"contracts/token factory/InternalLiquidityPool.sol\":644:676  address public liquidityProvider */\n    tag_27:\n      0x03\n      0x00\n      swap1\n      sload\n      swap1\n      0x0100\n      exp\n      swap1\n      div\n      0xffffffffffffffffffffffffffffffffffffffff\n      and\n      dup2\n      jump\t// out\n        /* \"contracts/token factory/InternalLiquidityPool.sol\":477:499  uint256 public taxRate */\n    tag_30:\n      sload(0x01)\n      dup2\n      jump\t// out\n        /* \"contracts/token factory/InternalLiquidityPool.sol\":819:846  address public tokenAddress */\n    tag_33:\n      0x05\n      0x00\n      swap1\n      sload\n      swap1\n      0x0100\n      exp\n      swap1\n      div\n      0xffffffffffffffffffffffffffffffffffffffff\n      and\n      dup2\n      jump\t// out\n        /* \"contracts/token factory/InternalLiquidityPool.sol\":738:767  uint256 public initialReserve */\n    tag_36:\n      sload(0x04)\n      dup2\n      jump\t// out\n        /* \"contracts/token factory/InternalLiquidityPool.sol\":404:423  IERC20 public token */\n    tag_39:\n      0x00\n      dup1\n      sload\n      swap1\n      0x0100\n      exp\n      swap1\n      div\n      0xffffffffffffffffffffffffffffffffffffffff\n      and\n      dup2\n      jump\t// out\n        /* \"#utility.yul\":88:205   */\n    tag_53:\n        /* \"#utility.yul\":197:198   */\n      0x00\n        /* \"#utility.yul\":194:195   */\n      dup1\n        /* \"#utility.yul\":187:199   */\n      revert\n        /* \"#utility.yul\":334:460   */\n    tag_55:\n        /* \"#utility.yul\":371:378   */\n      0x00\n        /* \"#utility.yul\":411:453   */\n      0xffffffffffffffffffffffffffffffffffffffff\n        /* \"#utility.yul\":404:409   */\n      dup3\n        /* \"#utility.yul\":400:454   */\n      and\n        /* \"#utility.yul\":389:454   */\n      swap1\n      pop\n        /* \"#utility.yul\":334:460   */\n      swap2\n      swap1\n      pop\n      jump\t// out\n        /* \"#utility.yul\":466:562   */\n    tag_56:\n        /* \"#utility.yul\":503:510   */\n      0x00\n        /* \"#utility.yul\":532:556   */\n      tag_80\n        /* \"#utility.yul\":550:555   */\n      dup3\n        /* \"#utility.yul\":532:556   */\n      tag_55\n      jump\t// in\n    tag_80:\n        /* \"#utility.yul\":521:556   */\n      swap1\n      pop\n        /* \"#utility.yul\":466:562   */\n      swap2\n      swap1\n      pop\n      jump\t// out\n        /* \"#utility.yul\":568:690   */\n    tag_57:\n        /* \"#utility.yul\":641:665   */\n      tag_82\n        /* \"#utility.yul\":659:664   */\n      dup2\n        /* \"#utility.yul\":641:665   */\n      tag_56\n      jump\t// in\n    tag_82:\n        /* \"#utility.yul\":634:639   */\n      dup2\n        /* \"#utility.yul\":631:666   */\n      eq\n        /* \"#utility.yul\":621:684   */\n      tag_83\n      jumpi\n        /* \"#utility.yul\":680:681   */\n      0x00\n        /* \"#utility.yul\":677:678   */\n      dup1\n        /* \"#utility.yul\":670:682   */\n      revert\n        /* \"#utility.yul\":621:684   */\n    tag_83:\n        /* \"#utility.yul\":568:690   */\n      pop\n      jump\t// out\n        /* \"#utility.yul\":696:835   */\n    tag_58:\n        /* \"#utility.yul\":742:747   */\n      0x00\n        /* \"#utility.yul\":780:786   */\n      dup2\n        /* \"#utility.yul\":767:787   */\n      calldataload\n        /* \"#utility.yul\":758:787   */\n      swap1\n      pop\n        /* \"#utility.yul\":796:829   */\n      tag_85\n        /* \"#utility.yul\":823:828   */\n      dup2\n        /* \"#utility.yul\":796:829   */\n      tag_57\n      jump\t// in\n    tag_85:\n        /* \"#utility.yul\":696:835   */\n      swap3\n      swap2\n      pop\n      pop\n      jump\t// out\n        /* \"#utility.yul\":841:1170   */\n    tag_14:\n        /* \"#utility.yul\":900:906   */\n      0x00\n        /* \"#utility.yul\":949:951   */\n      0x20\n        /* \"#utility.yul\":937:946   */\n      dup3\n        /* \"#utility.yul\":928:935   */\n      dup5\n        /* \"#utility.yul\":924:947   */\n      sub\n        /* \"#utility.yul\":920:952   */\n      slt\n        /* \"#utility.yul\":917:1036   */\n      iszero\n      tag_87\n      jumpi\n        /* \"#utility.yul\":955:1034   */\n      tag_88\n      tag_53\n      jump\t// in\n    tag_88:\n        /* \"#utility.yul\":917:1036   */\n    tag_87:\n        /* \"#utility.yul\":1075:1076   */\n      0x00\n        /* \"#utility.yul\":1100:1153   */\n      tag_89\n        /* \"#utility.yul\":1145:1152   */\n      dup5\n        /* \"#utility.yul\":1136:1142   */\n      dup3\n        /* \"#utility.yul\":1125:1134   */\n      dup6\n        /* \"#utility.yul\":1121:1143   */\n      add\n        /* \"#utility.yul\":1100:1153   */\n      tag_58\n      jump\t// in\n    tag_89:\n        /* \"#utility.yul\":1090:1153   */\n      swap2\n      pop\n        /* \"#utility.yul\":1046:1163   */\n      pop\n        /* \"#utility.yul\":841:1170   */\n      swap3\n      swap2\n      pop\n      pop\n      jump\t// out\n        /* \"#utility.yul\":1176:1294   */\n    tag_59:\n        /* \"#utility.yul\":1263:1287   */\n      tag_91\n        /* \"#utility.yul\":1281:1286   */\n      dup2\n        /* \"#utility.yul\":1263:1287   */\n      tag_56\n      jump\t// in\n    tag_91:\n        /* \"#utility.yul\":1258:1261   */\n      dup3\n        /* \"#utility.yul\":1251:1288   */\n      mstore\n        /* \"#utility.yul\":1176:1294   */\n      pop\n      pop\n      jump\t// out\n        /* \"#utility.yul\":1300:1522   */\n    tag_19:\n        /* \"#utility.yul\":1393:1397   */\n      0x00\n        /* \"#utility.yul\":1431:1433   */\n      0x20\n        /* \"#utility.yul\":1420:1429   */\n      dup3\n        /* \"#utility.yul\":1416:1434   */\n      add\n        /* \"#utility.yul\":1408:1434   */\n      swap1\n      pop\n        /* \"#utility.yul\":1444:1515   */\n      tag_93\n        /* \"#utility.yul\":1512:1513   */\n      0x00\n        /* \"#utility.yul\":1501:1510   */\n      dup4\n        /* \"#utility.yul\":1497:1514   */\n      add\n        /* \"#utility.yul\":1488:1494   */\n      dup5\n        /* \"#utility.yul\":1444:1515   */\n      tag_59\n      jump\t// in\n    tag_93:\n        /* \"#utility.yul\":1300:1522   */\n      swap3\n      swap2\n      pop\n      pop\n      jump\t// out\n        /* \"#utility.yul\":1528:1605   */\n    tag_60:\n        /* \"#utility.yul\":1565:1572   */\n      0x00\n        /* \"#utility.yul\":1594:1599   */\n      dup2\n        /* \"#utility.yul\":1583:1599   */\n      swap1\n      pop\n        /* \"#utility.yul\":1528:1605   */\n      swap2\n      swap1\n      pop\n      jump\t// out\n        /* \"#utility.yul\":1611:1733   */\n    tag_61:\n        /* \"#utility.yul\":1684:1708   */\n      tag_96\n        /* \"#utility.yul\":1702:1707   */\n      dup2\n        /* \"#utility.yul\":1684:1708   */\n      tag_60\n      jump\t// in\n    tag_96:\n        /* \"#utility.yul\":1677:1682   */\n      dup2\n        /* \"#utility.yul\":1674:1709   */\n      eq\n        /* \"#utility.yul\":1664:1727   */\n      tag_97\n      jumpi\n        /* \"#utility.yul\":1723:1724   */\n      0x00\n        /* \"#utility.yul\":1720:1721   */\n      dup1\n        /* \"#utility.yul\":1713:1725   */\n      revert\n        /* \"#utility.yul\":1664:1727   */\n    tag_97:\n        /* \"#utility.yul\":1611:1733   */\n      pop\n      jump\t// out\n        /* \"#utility.yul\":1739:1878   */\n    tag_62:\n        /* \"#utility.yul\":1785:1790   */\n      0x00\n        /* \"#utility.yul\":1823:1829   */\n      dup2\n        /* \"#utility.yul\":1810:1830   */\n      calldataload\n        /* \"#utility.yul\":1801:1830   */\n      swap1\n      pop\n        /* \"#utility.yul\":1839:1872   */\n      tag_99\n        /* \"#utility.yul\":1866:1871   */\n      dup2\n        /* \"#utility.yul\":1839:1872   */\n      tag_61\n      jump\t// in\n    tag_99:\n        /* \"#utility.yul\":1739:1878   */\n      swap3\n      swap2\n      pop\n      pop\n      jump\t// out\n        /* \"#utility.yul\":1884:2213   */\n    tag_22:\n        /* \"#utility.yul\":1943:1949   */\n      0x00\n        /* \"#utility.yul\":1992:1994   */\n      0x20\n        /* \"#utility.yul\":1980:1989   */\n      dup3\n        /* \"#utility.yul\":1971:1978   */\n      dup5\n        /* \"#utility.yul\":1967:1990   */\n      sub\n        /* \"#utility.yul\":1963:1995   */\n      slt\n        /* \"#utility.yul\":1960:2079   */\n      iszero\n      tag_101\n      jumpi\n        /* \"#utility.yul\":1998:2077   */\n      tag_102\n      tag_53\n      jump\t// in\n    tag_102:\n        /* \"#utility.yul\":1960:2079   */\n    tag_101:\n        /* \"#utility.yul\":2118:2119   */\n      0x00\n        /* \"#utility.yul\":2143:2196   */\n      tag_103\n        /* \"#utility.yul\":2188:2195   */\n      dup5\n        /* \"#utility.yul\":2179:2185   */\n      dup3\n        /* \"#utility.yul\":2168:2177   */\n      dup6\n        /* \"#utility.yul\":2164:2186   */\n      add\n        /* \"#utility.yul\":2143:2196   */\n      tag_62\n      jump\t// in\n    tag_103:\n        /* \"#utility.yul\":2133:2196   */\n      swap2\n      pop\n        /* \"#utility.yul\":2089:2206   */\n      pop\n        /* \"#utility.yul\":1884:2213   */\n      swap3\n      swap2\n      pop\n      pop\n      jump\t// out\n        /* \"#utility.yul\":2219:2337   */\n    tag_63:\n        /* \"#utility.yul\":2306:2330   */\n      tag_105\n        /* \"#utility.yul\":2324:2329   */\n      dup2\n        /* \"#utility.yul\":2306:2330   */\n      tag_60\n      jump\t// in\n    tag_105:\n        /* \"#utility.yul\":2301:2304   */\n      dup3\n        /* \"#utility.yul\":2294:2331   */\n      mstore\n        /* \"#utility.yul\":2219:2337   */\n      pop\n      pop\n      jump\t// out\n        /* \"#utility.yul\":2343:2565   */\n    tag_25:\n        /* \"#utility.yul\":2436:2440   */\n      0x00\n        /* \"#utility.yul\":2474:2476   */\n      0x20\n        /* \"#utility.yul\":2463:2472   */\n      dup3\n        /* \"#utility.yul\":2459:2477   */\n      add\n        /* \"#utility.yul\":2451:2477   */\n      swap1\n      pop\n        /* \"#utility.yul\":2487:2558   */\n      tag_107\n        /* \"#utility.yul\":2555:2556   */\n      0x00\n        /* \"#utility.yul\":2544:2553   */\n      dup4\n        /* \"#utility.yul\":2540:2557   */\n      add\n        /* \"#utility.yul\":2531:2537   */\n      dup5\n        /* \"#utility.yul\":2487:2558   */\n      tag_63\n      jump\t// in\n    tag_107:\n        /* \"#utility.yul\":2343:2565   */\n      swap3\n      swap2\n      pop\n      pop\n      jump\t// out\n        /* \"#utility.yul\":2571:2631   */\n    tag_64:\n        /* \"#utility.yul\":2599:2602   */\n      0x00\n        /* \"#utility.yul\":2620:2625   */\n      dup2\n        /* \"#utility.yul\":2613:2625   */\n      swap1\n      pop\n        /* \"#utility.yul\":2571:2631   */\n      swap2\n      swap1\n      pop\n      jump\t// out\n        /* \"#utility.yul\":2637:2779   */\n    tag_65:\n        /* \"#utility.yul\":2687:2696   */\n      0x00\n        /* \"#utility.yul\":2720:2773   */\n      tag_110\n        /* \"#utility.yul\":2738:2772   */\n      tag_111\n        /* \"#utility.yul\":2747:2771   */\n      tag_112\n        /* \"#utility.yul\":2765:2770   */\n      dup5\n        /* \"#utility.yul\":2747:2771   */\n      tag_55\n      jump\t// in\n    tag_112:\n        /* \"#utility.yul\":2738:2772   */\n      tag_64\n      jump\t// in\n    tag_111:\n        /* \"#utility.yul\":2720:2773   */\n      tag_55\n      jump\t// in\n    tag_110:\n        /* \"#utility.yul\":2707:2773   */\n      swap1\n      pop\n        /* \"#utility.yul\":2637:2779   */\n      swap2\n      swap1\n      pop\n      jump\t// out\n        /* \"#utility.yul\":2785:2911   */\n    tag_66:\n        /* \"#utility.yul\":2835:2844   */\n      0x00\n        /* \"#utility.yul\":2868:2905   */\n      tag_114\n        /* \"#utility.yul\":2899:2904   */\n      dup3\n        /* \"#utility.yul\":2868:2905   */\n      tag_65\n      jump\t// in\n    tag_114:\n        /* \"#utility.yul\":2855:2905   */\n      swap1\n      pop\n        /* \"#utility.yul\":2785:2911   */\n      swap2\n      swap1\n      pop\n      jump\t// out\n        /* \"#utility.yul\":2917:3057   */\n    tag_67:\n        /* \"#utility.yul\":2981:2990   */\n      0x00\n        /* \"#utility.yul\":3014:3051   */\n      tag_116\n        /* \"#utility.yul\":3045:3050   */\n      dup3\n        /* \"#utility.yul\":3014:3051   */\n      tag_66\n      jump\t// in\n    tag_116:\n        /* \"#utility.yul\":3001:3051   */\n      swap1\n      pop\n        /* \"#utility.yul\":2917:3057   */\n      swap2\n      swap1\n      pop\n      jump\t// out\n        /* \"#utility.yul\":3063:3222   */\n    tag_68:\n        /* \"#utility.yul\":3164:3215   */\n      tag_118\n        /* \"#utility.yul\":3209:3214   */\n      dup2\n        /* \"#utility.yul\":3164:3215   */\n      tag_67\n      jump\t// in\n    tag_118:\n        /* \"#utility.yul\":3159:3162   */\n      dup3\n        /* \"#utility.yul\":3152:3216   */\n      mstore\n        /* \"#utility.yul\":3063:3222   */\n      pop\n      pop\n      jump\t// out\n        /* \"#utility.yul\":3228:3478   */\n    tag_41:\n        /* \"#utility.yul\":3335:3339   */\n      0x00\n        /* \"#utility.yul\":3373:3375   */\n      0x20\n        /* \"#utility.yul\":3362:3371   */\n      dup3\n        /* \"#utility.yul\":3358:3376   */\n      add\n        /* \"#utility.yul\":3350:3376   */\n      swap1\n      pop\n        /* \"#utility.yul\":3386:3471   */\n      tag_120\n        /* \"#utility.yul\":3468:3469   */\n      0x00\n        /* \"#utility.yul\":3457:3466   */\n      dup4\n        /* \"#utility.yul\":3453:3470   */\n      add\n        /* \"#utility.yul\":3444:3450   */\n      dup5\n        /* \"#utility.yul\":3386:3471   */\n      tag_68\n      jump\t// in\n    tag_120:\n        /* \"#utility.yul\":3228:3478   */\n      swap3\n      swap2\n      pop\n      pop\n      jump\t// out\n        /* \"#utility.yul\":3484:3653   */\n    tag_69:\n        /* \"#utility.yul\":3568:3579   */\n      0x00\n        /* \"#utility.yul\":3602:3608   */\n      dup3\n        /* \"#utility.yul\":3597:3600   */\n      dup3\n        /* \"#utility.yul\":3590:3609   */\n      mstore\n        /* \"#utility.yul\":3642:3646   */\n      0x20\n        /* \"#utility.yul\":3637:3640   */\n      dup3\n        /* \"#utility.yul\":3633:3647   */\n      add\n        /* \"#utility.yul\":3618:3647   */\n      swap1\n      pop\n        /* \"#utility.yul\":3484:3653   */\n      swap3\n      swap2\n      pop\n      pop\n      jump\t// out\n        /* \"#utility.yul\":3659:3882   */\n    tag_70:\n        /* \"#utility.yul\":3799:3833   */\n      0x4f6e6c792074686520746f6b656e20636f6e74726163742063616e2073657420\n        /* \"#utility.yul\":3795:3796   */\n      0x00\n        /* \"#utility.yul\":3787:3793   */\n      dup3\n        /* \"#utility.yul\":3783:3797   */\n      add\n        /* \"#utility.yul\":3776:3834   */\n      mstore\n        /* \"#utility.yul\":3868:3874   */\n      0x7468697300000000000000000000000000000000000000000000000000000000\n        /* \"#utility.yul\":3863:3865   */\n      0x20\n        /* \"#utility.yul\":3855:3861   */\n      dup3\n        /* \"#utility.yul\":3851:3866   */\n      add\n        /* \"#utility.yul\":3844:3875   */\n      mstore\n        /* \"#utility.yul\":3659:3882   */\n      pop\n      jump\t// out\n        /* \"#utility.yul\":3888:4254   */\n    tag_71:\n        /* \"#utility.yul\":4030:4033   */\n      0x00\n        /* \"#utility.yul\":4051:4118   */\n      tag_124\n        /* \"#utility.yul\":4115:4117   */\n      0x24\n        /* \"#utility.yul\":4110:4113   */\n      dup4\n        /* \"#utility.yul\":4051:4118   */\n      tag_69\n      jump\t// in\n    tag_124:\n        /* \"#utility.yul\":4044:4118   */\n      swap2\n      pop\n        /* \"#utility.yul\":4127:4220   */\n      tag_125\n        /* \"#utility.yul\":4216:4219   */\n      dup3\n        /* \"#utility.yul\":4127:4220   */\n      tag_70\n      jump\t// in\n    tag_125:\n        /* \"#utility.yul\":4245:4247   */\n      0x40\n        /* \"#utility.yul\":4240:4243   */\n      dup3\n        /* \"#utility.yul\":4236:4248   */\n      add\n        /* \"#utility.yul\":4229:4248   */\n      swap1\n      pop\n        /* \"#utility.yul\":3888:4254   */\n      swap2\n      swap1\n      pop\n      jump\t// out\n        /* \"#utility.yul\":4260:4679   */\n    tag_45:\n        /* \"#utility.yul\":4426:4430   */\n      0x00\n        /* \"#utility.yul\":4464:4466   */\n      0x20\n        /* \"#utility.yul\":4453:4462   */\n      dup3\n        /* \"#utility.yul\":4449:4467   */\n      add\n        /* \"#utility.yul\":4441:4467   */\n      swap1\n      pop\n        /* \"#utility.yul\":4513:4522   */\n      dup2\n        /* \"#utility.yul\":4507:4511   */\n      dup2\n        /* \"#utility.yul\":4503:4523   */\n      sub\n        /* \"#utility.yul\":4499:4500   */\n      0x00\n        /* \"#utility.yul\":4488:4497   */\n      dup4\n        /* \"#utility.yul\":4484:4501   */\n      add\n        /* \"#utility.yul\":4477:4524   */\n      mstore\n        /* \"#utility.yul\":4541:4672   */\n      tag_127\n        /* \"#utility.yul\":4667:4671   */\n      dup2\n        /* \"#utility.yul\":4541:4672   */\n      tag_71\n      jump\t// in\n    tag_127:\n        /* \"#utility.yul\":4533:4672   */\n      swap1\n      pop\n        /* \"#utility.yul\":4260:4679   */\n      swap2\n      swap1\n      pop\n      jump\t// out\n        /* \"#utility.yul\":4685:4865   */\n    tag_72:\n        /* \"#utility.yul\":4733:4810   */\n      0x4e487b7100000000000000000000000000000000000000000000000000000000\n        /* \"#utility.yul\":4730:4731   */\n      0x00\n        /* \"#utility.yul\":4723:4811   */\n      mstore\n        /* \"#utility.yul\":4830:4834   */\n      0x11\n        /* \"#utility.yul\":4827:4828   */\n      0x04\n        /* \"#utility.yul\":4820:4835   */\n      mstore\n        /* \"#utility.yul\":4854:4858   */\n      0x24\n        /* \"#utility.yul\":4851:4852   */\n      0x00\n        /* \"#utility.yul\":4844:4859   */\n      revert\n        /* \"#utility.yul\":4871:5281   */\n    tag_49:\n        /* \"#utility.yul\":4911:4918   */\n      0x00\n        /* \"#utility.yul\":4934:4954   */\n      tag_130\n        /* \"#utility.yul\":4952:4953   */\n      dup3\n        /* \"#utility.yul\":4934:4954   */\n      tag_60\n      jump\t// in\n    tag_130:\n        /* \"#utility.yul\":4929:4954   */\n      swap2\n      pop\n        /* \"#utility.yul\":4968:4988   */\n      tag_131\n        /* \"#utility.yul\":4986:4987   */\n      dup4\n        /* \"#utility.yul\":4968:4988   */\n      tag_60\n      jump\t// in\n    tag_131:\n        /* \"#utility.yul\":4963:4988   */\n      swap3\n      pop\n        /* \"#utility.yul\":5023:5024   */\n      dup3\n        /* \"#utility.yul\":5020:5021   */\n      dup3\n        /* \"#utility.yul\":5016:5025   */\n      mul\n        /* \"#utility.yul\":5045:5075   */\n      tag_132\n        /* \"#utility.yul\":5063:5074   */\n      dup2\n        /* \"#utility.yul\":5045:5075   */\n      tag_60\n      jump\t// in\n    tag_132:\n        /* \"#utility.yul\":5034:5075   */\n      swap2\n      pop\n        /* \"#utility.yul\":5224:5225   */\n      dup3\n        /* \"#utility.yul\":5215:5222   */\n      dup3\n        /* \"#utility.yul\":5211:5226   */\n      div\n        /* \"#utility.yul\":5208:5209   */\n      dup5\n        /* \"#utility.yul\":5205:5227   */\n      eq\n        /* \"#utility.yul\":5185:5186   */\n      dup4\n        /* \"#utility.yul\":5178:5187   */\n      iszero\n        /* \"#utility.yul\":5158:5241   */\n      or\n        /* \"#utility.yul\":5135:5274   */\n      tag_133\n      jumpi\n        /* \"#utility.yul\":5254:5272   */\n      tag_134\n      tag_72\n      jump\t// in\n    tag_134:\n        /* \"#utility.yul\":5135:5274   */\n    tag_133:\n        /* \"#utility.yul\":4919:5281   */\n      pop\n        /* \"#utility.yul\":4871:5281   */\n      swap3\n      swap2\n      pop\n      pop\n      jump\t// out\n        /* \"#utility.yul\":5287:5467   */\n    tag_73:\n        /* \"#utility.yul\":5335:5412   */\n      0x4e487b7100000000000000000000000000000000000000000000000000000000\n        /* \"#utility.yul\":5332:5333   */\n      0x00\n        /* \"#utility.yul\":5325:5413   */\n      mstore\n        /* \"#utility.yul\":5432:5436   */\n      0x12\n        /* \"#utility.yul\":5429:5430   */\n      0x04\n        /* \"#utility.yul\":5422:5437   */\n      mstore\n        /* \"#utility.yul\":5456:5460   */\n      0x24\n        /* \"#utility.yul\":5453:5454   */\n      0x00\n        /* \"#utility.yul\":5446:5461   */\n      revert\n        /* \"#utility.yul\":5473:5658   */\n    tag_51:\n        /* \"#utility.yul\":5513:5514   */\n      0x00\n        /* \"#utility.yul\":5530:5550   */\n      tag_137\n        /* \"#utility.yul\":5548:5549   */\n      dup3\n        /* \"#utility.yul\":5530:5550   */\n      tag_60\n      jump\t// in\n    tag_137:\n        /* \"#utility.yul\":5525:5550   */\n      swap2\n      pop\n        /* \"#utility.yul\":5564:5584   */\n      tag_138\n        /* \"#utility.yul\":5582:5583   */\n      dup4\n        /* \"#utility.yul\":5564:5584   */\n      tag_60\n      jump\t// in\n    tag_138:\n        /* \"#utility.yul\":5559:5584   */\n      swap3\n      pop\n        /* \"#utility.yul\":5603:5604   */\n      dup3\n        /* \"#utility.yul\":5593:5628   */\n      tag_139\n      jumpi\n        /* \"#utility.yul\":5608:5626   */\n      tag_140\n      tag_73\n      jump\t// in\n    tag_140:\n        /* \"#utility.yul\":5593:5628   */\n    tag_139:\n        /* \"#utility.yul\":5650:5651   */\n      dup3\n        /* \"#utility.yul\":5647:5648   */\n      dup3\n        /* \"#utility.yul\":5643:5652   */\n      div\n        /* \"#utility.yul\":5638:5652   */\n      swap1\n      pop\n        /* \"#utility.yul\":5473:5658   */\n      swap3\n      swap2\n      pop\n      pop\n      jump\t// out\n\n    auxdata: 0xa2646970667358221220cb63344111d02fb9a270887d521b393f53dc46db3bce0919e05aa02f81130fe264736f6c634300081a0033\n}\n",
				"bytecode": {
					"linkReferences": {},
					"object": "608060405234801561001057600080fd5b50604051610934380380610934833981810160405281019061003291906101e3565b846000806101000a81548173ffffffffffffffffffffffffffffffffffffffff021916908373ffffffffffffffffffffffffffffffffffffffff1602179055508360018190555082600260006101000a81548173ffffffffffffffffffffffffffffffffffffffff021916908373ffffffffffffffffffffffffffffffffffffffff16021790555081600360006101000a81548173ffffffffffffffffffffffffffffffffffffffff021916908373ffffffffffffffffffffffffffffffffffffffff16021790555080600481905550505050505061025e565b600080fd5b600073ffffffffffffffffffffffffffffffffffffffff82169050919050565b600061013c82610111565b9050919050565b600061014e82610131565b9050919050565b61015e81610143565b811461016957600080fd5b50565b60008151905061017b81610155565b92915050565b6000819050919050565b61019481610181565b811461019f57600080fd5b50565b6000815190506101b18161018b565b92915050565b6101c081610131565b81146101cb57600080fd5b50565b6000815190506101dd816101b7565b92915050565b600080600080600060a086880312156101ff576101fe61010c565b5b600061020d8882890161016c565b955050602061021e888289016101a2565b945050604061022f888289016101ce565b9350506060610240888289016101ce565b9250506080610251888289016101a2565b9150509295509295909350565b6106c78061026d6000396000f3fe608060405234801561001057600080fd5b50600436106100885760003560e01c8063771a3a1d1161005b578063771a3a1d146101155780639d76ea5814610133578063e6fd298214610151578063fc0c546a1461016f57610088565b806326a4e8d21461008d57806353e1ead9146100a95780635908896a146100c75780635b8bec55146100f7575b600080fd5b6100a760048036038101906100a291906103bf565b61018d565b005b6100b1610296565b6040516100be91906103fb565b60405180910390f35b6100e160048036038101906100dc919061044c565b6102bc565b6040516100ee9190610488565b60405180910390f35b6100ff6102e0565b60405161010c91906103fb565b60405180910390f35b61011d610306565b60405161012a9190610488565b60405180910390f35b61013b61030c565b60405161014891906103fb565b60405180910390f35b610159610332565b6040516101669190610488565b60405180910390f35b610177610338565b6040516101849190610502565b60405180910390f35b60008054906101000a900473ffffffffffffffffffffffffffffffffffffffff1673ffffffffffffffffffffffffffffffffffffffff163373ffffffffffffffffffffffffffffffffffffffff161461021b576040517f08c379a0000000000000000000000000000000000000000000000000000000008152600401610212906105a0565b60405180910390fd5b80600560006101000a81548173ffffffffffffffffffffffffffffffffffffffff021916908373ffffffffffffffffffffffffffffffffffffffff1602179055507fd82cad5fdc98633445b90f806f2e1a61a5409f92187ee9cd87f1da18c90692668160405161028b91906103fb565b60405180910390a150565b600260009054906101000a900473ffffffffffffffffffffffffffffffffffffffff1681565b6000612710600154836102cf91906105ef565b6102d99190610660565b9050919050565b600360009054906101000a900473ffffffffffffffffffffffffffffffffffffffff1681565b60015481565b600560009054906101000a900473ffffffffffffffffffffffffffffffffffffffff1681565b60045481565b60008054906101000a900473ffffffffffffffffffffffffffffffffffffffff1681565b600080fd5b600073ffffffffffffffffffffffffffffffffffffffff82169050919050565b600061038c82610361565b9050919050565b61039c81610381565b81146103a757600080fd5b50565b6000813590506103b981610393565b92915050565b6000602082840312156103d5576103d461035c565b5b60006103e3848285016103aa565b91505092915050565b6103f581610381565b82525050565b600060208201905061041060008301846103ec565b92915050565b6000819050919050565b61042981610416565b811461043457600080fd5b50565b60008135905061044681610420565b92915050565b6000602082840312156104625761046161035c565b5b600061047084828501610437565b91505092915050565b61048281610416565b82525050565b600060208201905061049d6000830184610479565b92915050565b6000819050919050565b60006104c86104c36104be84610361565b6104a3565b610361565b9050919050565b60006104da826104ad565b9050919050565b60006104ec826104cf565b9050919050565b6104fc816104e1565b82525050565b600060208201905061051760008301846104f3565b92915050565b600082825260208201905092915050565b7f4f6e6c792074686520746f6b656e20636f6e74726163742063616e207365742060008201527f7468697300000000000000000000000000000000000000000000000000000000602082015250565b600061058a60248361051d565b91506105958261052e565b604082019050919050565b600060208201905081810360008301526105b98161057d565b9050919050565b7f4e487b7100000000000000000000000000000000000000000000000000000000600052601160045260246000fd5b60006105fa82610416565b915061060583610416565b925082820261061381610416565b9150828204841483151761062a576106296105c0565b5b5092915050565b7f4e487b7100000000000000000000000000000000000000000000000000000000600052601260045260246000fd5b600061066b82610416565b915061067683610416565b92508261068657610685610631565b5b82820490509291505056fea2646970667358221220cb63344111d02fb9a270887d521b393f53dc46db3bce0919e05aa02f81130fe264736f6c634300081a0033",
					"opcodes": "PUSH1 0x80 PUSH1 0x40 MSTORE CALLVALUE DUP1 ISZERO PUSH2 0x10 JUMPI PUSH1 0x0 DUP1 REVERT JUMPDEST POP PUSH1 0x40 MLOAD PUSH2 0x934 CODESIZE SUB DUP1 PUSH2 0x934 DUP4 CODECOPY DUP2 DUP2 ADD PUSH1 0x40 MSTORE DUP2 ADD SWAP1 PUSH2 0x32 SWAP2 SWAP1 PUSH2 0x1E3 JUMP JUMPDEST DUP5 PUSH1 0x0 DUP1 PUSH2 0x100 EXP DUP2 SLOAD DUP2 PUSH20 0xFFFFFFFFFFFFFFFFFFFFFFFFFFFFFFFFFFFFFFFF MUL NOT AND SWAP1 DUP4 PUSH20 0xFFFFFFFFFFFFFFFFFFFFFFFFFFFFFFFFFFFFFFFF AND MUL OR SWAP1 SSTORE POP DUP4 PUSH1 0x1 DUP2 SWAP1 SSTORE POP DUP3 PUSH1 0x2 PUSH1 0x0 PUSH2 0x100 EXP DUP2 SLOAD DUP2 PUSH20 0xFFFFFFFFFFFFFFFFFFFFFFFFFFFFFFFFFFFFFFFF MUL NOT AND SWAP1 DUP4 PUSH20 0xFFFFFFFFFFFFFFFFFFFFFFFFFFFFFFFFFFFFFFFF AND MUL OR SWAP1 SSTORE POP DUP2 PUSH1 0x3 PUSH1 0x0 PUSH2 0x100 EXP DUP2 SLOAD DUP2 PUSH20 0xFFFFFFFFFFFFFFFFFFFFFFFFFFFFFFFFFFFFFFFF MUL NOT AND SWAP1 DUP4 PUSH20 0xFFFFFFFFFFFFFFFFFFFFFFFFFFFFFFFFFFFFFFFF AND MUL OR SWAP1 SSTORE POP DUP1 PUSH1 0x4 DUP2 SWAP1 SSTORE POP POP POP POP POP POP PUSH2 0x25E JUMP JUMPDEST PUSH1 0x0 DUP1 REVERT JUMPDEST PUSH1 0x0 PUSH20 0xFFFFFFFFFFFFFFFFFFFFFFFFFFFFFFFFFFFFFFFF DUP3 AND SWAP1 POP SWAP2 SWAP1 POP JUMP JUMPDEST PUSH1 0x0 PUSH2 0x13C DUP3 PUSH2 0x111 JUMP JUMPDEST SWAP1 POP SWAP2 SWAP1 POP JUMP JUMPDEST PUSH1 0x0 PUSH2 0x14E DUP3 PUSH2 0x131 JUMP JUMPDEST SWAP1 POP SWAP2 SWAP1 POP JUMP JUMPDEST PUSH2 0x15E DUP2 PUSH2 0x143 JUMP JUMPDEST DUP2 EQ PUSH2 0x169 JUMPI PUSH1 0x0 DUP1 REVERT JUMPDEST POP JUMP JUMPDEST PUSH1 0x0 DUP2 MLOAD SWAP1 POP PUSH2 0x17B DUP2 PUSH2 0x155 JUMP JUMPDEST SWAP3 SWAP2 POP POP JUMP JUMPDEST PUSH1 0x0 DUP2 SWAP1 POP SWAP2 SWAP1 POP JUMP JUMPDEST PUSH2 0x194 DUP2 PUSH2 0x181 JUMP JUMPDEST DUP2 EQ PUSH2 0x19F JUMPI PUSH1 0x0 DUP1 REVERT JUMPDEST POP JUMP JUMPDEST PUSH1 0x0 DUP2 MLOAD SWAP1 POP PUSH2 0x1B1 DUP2 PUSH2 0x18B JUMP JUMPDEST SWAP3 SWAP2 POP POP JUMP JUMPDEST PUSH2 0x1C0 DUP2 PUSH2 0x131 JUMP JUMPDEST DUP2 EQ PUSH2 0x1CB JUMPI PUSH1 0x0 DUP1 REVERT JUMPDEST POP JUMP JUMPDEST PUSH1 0x0 DUP2 MLOAD SWAP1 POP PUSH2 0x1DD DUP2 PUSH2 0x1B7 JUMP JUMPDEST SWAP3 SWAP2 POP POP JUMP JUMPDEST PUSH1 0x0 DUP1 PUSH1 0x0 DUP1 PUSH1 0x0 PUSH1 0xA0 DUP7 DUP9 SUB SLT ISZERO PUSH2 0x1FF JUMPI PUSH2 0x1FE PUSH2 0x10C JUMP JUMPDEST JUMPDEST PUSH1 0x0 PUSH2 0x20D DUP9 DUP3 DUP10 ADD PUSH2 0x16C JUMP JUMPDEST SWAP6 POP POP PUSH1 0x20 PUSH2 0x21E DUP9 DUP3 DUP10 ADD PUSH2 0x1A2 JUMP JUMPDEST SWAP5 POP POP PUSH1 0x40 PUSH2 0x22F DUP9 DUP3 DUP10 ADD PUSH2 0x1CE JUMP JUMPDEST SWAP4 POP POP PUSH1 0x60 PUSH2 0x240 DUP9 DUP3 DUP10 ADD PUSH2 0x1CE JUMP JUMPDEST SWAP3 POP POP PUSH1 0x80 PUSH2 0x251 DUP9 DUP3 DUP10 ADD PUSH2 0x1A2 JUMP JUMPDEST SWAP2 POP POP SWAP3 SWAP6 POP SWAP3 SWAP6 SWAP1 SWAP4 POP JUMP JUMPDEST PUSH2 0x6C7 DUP1 PUSH2 0x26D PUSH1 0x0 CODECOPY PUSH1 0x0 RETURN INVALID PUSH1 0x80 PUSH1 0x40 MSTORE CALLVALUE DUP1 ISZERO PUSH2 0x10 JUMPI PUSH1 0x0 DUP1 REVERT JUMPDEST POP PUSH1 0x4 CALLDATASIZE LT PUSH2 0x88 JUMPI PUSH1 0x0 CALLDATALOAD PUSH1 0xE0 SHR DUP1 PUSH4 0x771A3A1D GT PUSH2 0x5B JUMPI DUP1 PUSH4 0x771A3A1D EQ PUSH2 0x115 JUMPI DUP1 PUSH4 0x9D76EA58 EQ PUSH2 0x133 JUMPI DUP1 PUSH4 0xE6FD2982 EQ PUSH2 0x151 JUMPI DUP1 PUSH4 0xFC0C546A EQ PUSH2 0x16F JUMPI PUSH2 0x88 JUMP JUMPDEST DUP1 PUSH4 0x26A4E8D2 EQ PUSH2 0x8D JUMPI DUP1 PUSH4 0x53E1EAD9 EQ PUSH2 0xA9 JUMPI DUP1 PUSH4 0x5908896A EQ PUSH2 0xC7 JUMPI DUP1 PUSH4 0x5B8BEC55 EQ PUSH2 0xF7 JUMPI JUMPDEST PUSH1 0x0 DUP1 REVERT JUMPDEST PUSH2 0xA7 PUSH1 0x4 DUP1 CALLDATASIZE SUB DUP2 ADD SWAP1 PUSH2 0xA2 SWAP2 SWAP1 PUSH2 0x3BF JUMP JUMPDEST PUSH2 0x18D JUMP JUMPDEST STOP JUMPDEST PUSH2 0xB1 PUSH2 0x296 JUMP JUMPDEST PUSH1 0x40 MLOAD PUSH2 0xBE SWAP2 SWAP1 PUSH2 0x3FB JUMP JUMPDEST PUSH1 0x40 MLOAD DUP1 SWAP2 SUB SWAP1 RETURN JUMPDEST PUSH2 0xE1 PUSH1 0x4 DUP1 CALLDATASIZE SUB DUP2 ADD SWAP1 PUSH2 0xDC SWAP2 SWAP1 PUSH2 0x44C JUMP JUMPDEST PUSH2 0x2BC JUMP JUMPDEST PUSH1 0x40 MLOAD PUSH2 0xEE SWAP2 SWAP1 PUSH2 0x488 JUMP JUMPDEST PUSH1 0x40 MLOAD DUP1 SWAP2 SUB SWAP1 RETURN JUMPDEST PUSH2 0xFF PUSH2 0x2E0 JUMP JUMPDEST PUSH1 0x40 MLOAD PUSH2 0x10C SWAP2 SWAP1 PUSH2 0x3FB JUMP JUMPDEST PUSH1 0x40 MLOAD DUP1 SWAP2 SUB SWAP1 RETURN JUMPDEST PUSH2 0x11D PUSH2 0x306 JUMP JUMPDEST PUSH1 0x40 MLOAD PUSH2 0x12A SWAP2 SWAP1 PUSH2 0x488 JUMP JUMPDEST PUSH1 0x40 MLOAD DUP1 SWAP2 SUB SWAP1 RETURN JUMPDEST PUSH2 0x13B PUSH2 0x30C JUMP JUMPDEST PUSH1 0x40 MLOAD PUSH2 0x148 SWAP2 SWAP1 PUSH2 0x3FB JUMP JUMPDEST PUSH1 0x40 MLOAD DUP1 SWAP2 SUB SWAP1 RETURN JUMPDEST PUSH2 0x159 PUSH2 0x332 JUMP JUMPDEST PUSH1 0x40 MLOAD PUSH2 0x166 SWAP2 SWAP1 PUSH2 0x488 JUMP JUMPDEST PUSH1 0x40 MLOAD DUP1 SWAP2 SUB SWAP1 RETURN JUMPDEST PUSH2 0x177 PUSH2 0x338 JUMP JUMPDEST PUSH1 0x40 MLOAD PUSH2 0x184 SWAP2 SWAP1 PUSH2 0x502 JUMP JUMPDEST PUSH1 0x40 MLOAD DUP1 SWAP2 SUB SWAP1 RETURN JUMPDEST PUSH1 0x0 DUP1 SLOAD SWAP1 PUSH2 0x100 EXP SWAP1 DIV PUSH20 0xFFFFFFFFFFFFFFFFFFFFFFFFFFFFFFFFFFFFFFFF AND PUSH20 0xFFFFFFFFFFFFFFFFFFFFFFFFFFFFFFFFFFFFFFFF AND CALLER PUSH20 0xFFFFFFFFFFFFFFFFFFFFFFFFFFFFFFFFFFFFFFFF AND EQ PUSH2 0x21B JUMPI PUSH1 0x40 MLOAD PUSH32 0x8C379A000000000000000000000000000000000000000000000000000000000 DUP2 MSTORE PUSH1 0x4 ADD PUSH2 0x212 SWAP1 PUSH2 0x5A0 JUMP JUMPDEST PUSH1 0x40 MLOAD DUP1 SWAP2 SUB SWAP1 REVERT JUMPDEST DUP1 PUSH1 0x5 PUSH1 0x0 PUSH2 0x100 EXP DUP2 SLOAD DUP2 PUSH20 0xFFFFFFFFFFFFFFFFFFFFFFFFFFFFFFFFFFFFFFFF MUL NOT AND SWAP1 DUP4 PUSH20 0xFFFFFFFFFFFFFFFFFFFFFFFFFFFFFFFFFFFFFFFF AND MUL OR SWAP1 SSTORE POP PUSH32 0xD82CAD5FDC98633445B90F806F2E1A61A5409F92187EE9CD87F1DA18C9069266 DUP2 PUSH1 0x40 MLOAD PUSH2 0x28B SWAP2 SWAP1 PUSH2 0x3FB JUMP JUMPDEST PUSH1 0x40 MLOAD DUP1 SWAP2 SUB SWAP1 LOG1 POP JUMP JUMPDEST PUSH1 0x2 PUSH1 0x0 SWAP1 SLOAD SWAP1 PUSH2 0x100 EXP SWAP1 DIV PUSH20 0xFFFFFFFFFFFFFFFFFFFFFFFFFFFFFFFFFFFFFFFF AND DUP2 JUMP JUMPDEST PUSH1 0x0 PUSH2 0x2710 PUSH1 0x1 SLOAD DUP4 PUSH2 0x2CF SWAP2 SWAP1 PUSH2 0x5EF JUMP JUMPDEST PUSH2 0x2D9 SWAP2 SWAP1 PUSH2 0x660 JUMP JUMPDEST SWAP1 POP SWAP2 SWAP1 POP JUMP JUMPDEST PUSH1 0x3 PUSH1 0x0 SWAP1 SLOAD SWAP1 PUSH2 0x100 EXP SWAP1 DIV PUSH20 0xFFFFFFFFFFFFFFFFFFFFFFFFFFFFFFFFFFFFFFFF AND DUP2 JUMP JUMPDEST PUSH1 0x1 SLOAD DUP2 JUMP JUMPDEST PUSH1 0x5 PUSH1 0x0 SWAP1 SLOAD SWAP1 PUSH2 0x100 EXP SWAP1 DIV PUSH20 0xFFFFFFFFFFFFFFFFFFFFFFFFFFFFFFFFFFFFFFFF AND DUP2 JUMP JUMPDEST PUSH1 0x4 SLOAD DUP2 JUMP JUMPDEST PUSH1 0x0 DUP1 SLOAD SWAP1 PUSH2 0x100 EXP SWAP1 DIV PUSH20 0xFFFFFFFFFFFFFFFFFFFFFFFFFFFFFFFFFFFFFFFF AND DUP2 JUMP JUMPDEST PUSH1 0x0 DUP1 REVERT JUMPDEST PUSH1 0x0 PUSH20 0xFFFFFFFFFFFFFFFFFFFFFFFFFFFFFFFFFFFFFFFF DUP3 AND SWAP1 POP SWAP2 SWAP1 POP JUMP JUMPDEST PUSH1 0x0 PUSH2 0x38C DUP3 PUSH2 0x361 JUMP JUMPDEST SWAP1 POP SWAP2 SWAP1 POP JUMP JUMPDEST PUSH2 0x39C DUP2 PUSH2 0x381 JUMP JUMPDEST DUP2 EQ PUSH2 0x3A7 JUMPI PUSH1 0x0 DUP1 REVERT JUMPDEST POP JUMP JUMPDEST PUSH1 0x0 DUP2 CALLDATALOAD SWAP1 POP PUSH2 0x3B9 DUP2 PUSH2 0x393 JUMP JUMPDEST SWAP3 SWAP2 POP POP JUMP JUMPDEST PUSH1 0x0 PUSH1 0x20 DUP3 DUP5 SUB SLT ISZERO PUSH2 0x3D5 JUMPI PUSH2 0x3D4 PUSH2 0x35C JUMP JUMPDEST JUMPDEST PUSH1 0x0 PUSH2 0x3E3 DUP5 DUP3 DUP6 ADD PUSH2 0x3AA JUMP JUMPDEST SWAP2 POP POP SWAP3 SWAP2 POP POP JUMP JUMPDEST PUSH2 0x3F5 DUP2 PUSH2 0x381 JUMP JUMPDEST DUP3 MSTORE POP POP JUMP JUMPDEST PUSH1 0x0 PUSH1 0x20 DUP3 ADD SWAP1 POP PUSH2 0x410 PUSH1 0x0 DUP4 ADD DUP5 PUSH2 0x3EC JUMP JUMPDEST SWAP3 SWAP2 POP POP JUMP JUMPDEST PUSH1 0x0 DUP2 SWAP1 POP SWAP2 SWAP1 POP JUMP JUMPDEST PUSH2 0x429 DUP2 PUSH2 0x416 JUMP JUMPDEST DUP2 EQ PUSH2 0x434 JUMPI PUSH1 0x0 DUP1 REVERT JUMPDEST POP JUMP JUMPDEST PUSH1 0x0 DUP2 CALLDATALOAD SWAP1 POP PUSH2 0x446 DUP2 PUSH2 0x420 JUMP JUMPDEST SWAP3 SWAP2 POP POP JUMP JUMPDEST PUSH1 0x0 PUSH1 0x20 DUP3 DUP5 SUB SLT ISZERO PUSH2 0x462 JUMPI PUSH2 0x461 PUSH2 0x35C JUMP JUMPDEST JUMPDEST PUSH1 0x0 PUSH2 0x470 DUP5 DUP3 DUP6 ADD PUSH2 0x437 JUMP JUMPDEST SWAP2 POP POP SWAP3 SWAP2 POP POP JUMP JUMPDEST PUSH2 0x482 DUP2 PUSH2 0x416 JUMP JUMPDEST DUP3 MSTORE POP POP JUMP JUMPDEST PUSH1 0x0 PUSH1 0x20 DUP3 ADD SWAP1 POP PUSH2 0x49D PUSH1 0x0 DUP4 ADD DUP5 PUSH2 0x479 JUMP JUMPDEST SWAP3 SWAP2 POP POP JUMP JUMPDEST PUSH1 0x0 DUP2 SWAP1 POP SWAP2 SWAP1 POP JUMP JUMPDEST PUSH1 0x0 PUSH2 0x4C8 PUSH2 0x4C3 PUSH2 0x4BE DUP5 PUSH2 0x361 JUMP JUMPDEST PUSH2 0x4A3 JUMP JUMPDEST PUSH2 0x361 JUMP JUMPDEST SWAP1 POP SWAP2 SWAP1 POP JUMP JUMPDEST PUSH1 0x0 PUSH2 0x4DA DUP3 PUSH2 0x4AD JUMP JUMPDEST SWAP1 POP SWAP2 SWAP1 POP JUMP JUMPDEST PUSH1 0x0 PUSH2 0x4EC DUP3 PUSH2 0x4CF JUMP JUMPDEST SWAP1 POP SWAP2 SWAP1 POP JUMP JUMPDEST PUSH2 0x4FC DUP2 PUSH2 0x4E1 JUMP JUMPDEST DUP3 MSTORE POP POP JUMP JUMPDEST PUSH1 0x0 PUSH1 0x20 DUP3 ADD SWAP1 POP PUSH2 0x517 PUSH1 0x0 DUP4 ADD DUP5 PUSH2 0x4F3 JUMP JUMPDEST SWAP3 SWAP2 POP POP JUMP JUMPDEST PUSH1 0x0 DUP3 DUP3 MSTORE PUSH1 0x20 DUP3 ADD SWAP1 POP SWAP3 SWAP2 POP POP JUMP JUMPDEST PUSH32 0x4F6E6C792074686520746F6B656E20636F6E74726163742063616E2073657420 PUSH1 0x0 DUP3 ADD MSTORE PUSH32 0x7468697300000000000000000000000000000000000000000000000000000000 PUSH1 0x20 DUP3 ADD MSTORE POP JUMP JUMPDEST PUSH1 0x0 PUSH2 0x58A PUSH1 0x24 DUP4 PUSH2 0x51D JUMP JUMPDEST SWAP2 POP PUSH2 0x595 DUP3 PUSH2 0x52E JUMP JUMPDEST PUSH1 0x40 DUP3 ADD SWAP1 POP SWAP2 SWAP1 POP JUMP JUMPDEST PUSH1 0x0 PUSH1 0x20 DUP3 ADD SWAP1 POP DUP2 DUP2 SUB PUSH1 0x0 DUP4 ADD MSTORE PUSH2 0x5B9 DUP2 PUSH2 0x57D JUMP JUMPDEST SWAP1 POP SWAP2 SWAP1 POP JUMP JUMPDEST PUSH32 0x4E487B7100000000000000000000000000000000000000000000000000000000 PUSH1 0x0 MSTORE PUSH1 0x11 PUSH1 0x4 MSTORE PUSH1 0x24 PUSH1 0x0 REVERT JUMPDEST PUSH1 0x0 PUSH2 0x5FA DUP3 PUSH2 0x416 JUMP JUMPDEST SWAP2 POP PUSH2 0x605 DUP4 PUSH2 0x416 JUMP JUMPDEST SWAP3 POP DUP3 DUP3 MUL PUSH2 0x613 DUP2 PUSH2 0x416 JUMP JUMPDEST SWAP2 POP DUP3 DUP3 DIV DUP5 EQ DUP4 ISZERO OR PUSH2 0x62A JUMPI PUSH2 0x629 PUSH2 0x5C0 JUMP JUMPDEST JUMPDEST POP SWAP3 SWAP2 POP POP JUMP JUMPDEST PUSH32 0x4E487B7100000000000000000000000000000000000000000000000000000000 PUSH1 0x0 MSTORE PUSH1 0x12 PUSH1 0x4 MSTORE PUSH1 0x24 PUSH1 0x0 REVERT JUMPDEST PUSH1 0x0 PUSH2 0x66B DUP3 PUSH2 0x416 JUMP JUMPDEST SWAP2 POP PUSH2 0x676 DUP4 PUSH2 0x416 JUMP JUMPDEST SWAP3 POP DUP3 PUSH2 0x686 JUMPI PUSH2 0x685 PUSH2 0x631 JUMP JUMPDEST JUMPDEST DUP3 DUP3 DIV SWAP1 POP SWAP3 SWAP2 POP POP JUMP INVALID LOG2 PUSH5 0x6970667358 0x22 SLT KECCAK256 0xCB PUSH4 0x344111D0 0x2F 0xB9 LOG2 PUSH17 0x887D521B393F53DC46DB3BCE0919E05AA0 0x2F DUP2 SGT 0xF 0xE2 PUSH5 0x736F6C6343 STOP ADDMOD BYTE STOP CALLER "
				},
				"gasEstimates": {
					"creation": {
						"codeDepositCost": "347000",
						"executionCost": "infinite",
						"totalCost": "infinite"
					},
					"external": {
						"applyTax(uint256)": "infinite",
						"companyAddress()": "2537",
						"initialReserve()": "2473",
						"liquidityProvider()": "2581",
						"setTokenAddress(address)": "infinite",
						"taxRate()": "2429",
						"token()": "infinite",
						"tokenAddress()": "2536"
					}
				},
				"methodIdentifiers": {
					"applyTax(uint256)": "5908896a",
					"companyAddress()": "53e1ead9",
					"initialReserve()": "e6fd2982",
					"liquidityProvider()": "5b8bec55",
					"setTokenAddress(address)": "26a4e8d2",
					"taxRate()": "771a3a1d",
					"token()": "fc0c546a",
					"tokenAddress()": "9d76ea58"
				}
			},
			"storageLayout": {
				"storage": [
					{
						"astId": 6,
						"contract": "contracts/token factory/InternalLiquidityPool.sol:InternalLiquidityPool",
						"label": "token",
						"offset": 0,
						"slot": "0",
						"type": "t_contract(IERC20)177"
					},
					{
						"astId": 8,
						"contract": "contracts/token factory/InternalLiquidityPool.sol:InternalLiquidityPool",
						"label": "taxRate",
						"offset": 0,
						"slot": "1",
						"type": "t_uint256"
					},
					{
						"astId": 10,
						"contract": "contracts/token factory/InternalLiquidityPool.sol:InternalLiquidityPool",
						"label": "companyAddress",
						"offset": 0,
						"slot": "2",
						"type": "t_address"
					},
					{
						"astId": 12,
						"contract": "contracts/token factory/InternalLiquidityPool.sol:InternalLiquidityPool",
						"label": "liquidityProvider",
						"offset": 0,
						"slot": "3",
						"type": "t_address"
					},
					{
						"astId": 14,
						"contract": "contracts/token factory/InternalLiquidityPool.sol:InternalLiquidityPool",
						"label": "initialReserve",
						"offset": 0,
						"slot": "4",
						"type": "t_uint256"
					},
					{
						"astId": 16,
						"contract": "contracts/token factory/InternalLiquidityPool.sol:InternalLiquidityPool",
						"label": "tokenAddress",
						"offset": 0,
						"slot": "5",
						"type": "t_address"
					}
				],
				"types": {
					"t_address": {
						"encoding": "inplace",
						"label": "address",
						"numberOfBytes": "20"
					},
					"t_contract(IERC20)177": {
						"encoding": "inplace",
						"label": "contract IERC20",
						"numberOfBytes": "20"
					},
					"t_uint256": {
						"encoding": "inplace",
						"label": "uint256",
						"numberOfBytes": "32"
					}
				}
			},
			"userdoc": {
				"kind": "user",
				"methods": {},
				"version": 1
			}
		}
	}
}