{
	"contracts/token factory/testAlgebrav2.sol": {
		"AlgebraPoolCreator": {
			"abi": [
				{
					"inputs": [
						{
							"internalType": "address",
							"name": "_algebraUnified",
							"type": "address"
						},
						{
							"internalType": "address",
							"name": "_WETH",
							"type": "address"
						}
					],
					"stateMutability": "nonpayable",
					"type": "constructor"
				},
				{
					"inputs": [],
					"name": "SA",
					"type": "error"
				},
				{
					"anonymous": false,
					"inputs": [
						{
							"indexed": true,
							"internalType": "address",
							"name": "user",
							"type": "address"
						},
						{
							"indexed": false,
							"internalType": "uint256",
							"name": "amount",
							"type": "uint256"
						}
					],
					"name": "WETHWithdrawn",
					"type": "event"
				},
				{
					"inputs": [],
					"name": "ETH_AMOUNT",
					"outputs": [
						{
							"internalType": "uint256",
							"name": "",
							"type": "uint256"
						}
					],
					"stateMutability": "view",
					"type": "function"
				},
				{
					"inputs": [],
					"name": "MAX_TICK",
					"outputs": [
						{
							"internalType": "int24",
							"name": "",
							"type": "int24"
						}
					],
					"stateMutability": "view",
					"type": "function"
				},
				{
					"inputs": [],
					"name": "MIN_TICK",
					"outputs": [
						{
							"internalType": "int24",
							"name": "",
							"type": "int24"
						}
					],
					"stateMutability": "view",
					"type": "function"
				},
				{
					"inputs": [],
					"name": "TOKEN_AMOUNT",
					"outputs": [
						{
							"internalType": "uint256",
							"name": "",
							"type": "uint256"
						}
					],
					"stateMutability": "view",
					"type": "function"
				},
				{
					"inputs": [],
					"name": "WETH",
					"outputs": [
						{
							"internalType": "address",
							"name": "",
							"type": "address"
						}
					],
					"stateMutability": "view",
					"type": "function"
				},
				{
					"inputs": [],
					"name": "algebraUnified",
					"outputs": [
						{
							"internalType": "address",
							"name": "",
							"type": "address"
						}
					],
					"stateMutability": "view",
					"type": "function"
				},
				{
					"inputs": [],
					"name": "createPoolAlgebra",
					"outputs": [],
					"stateMutability": "payable",
					"type": "function"
				},
				{
					"inputs": [],
					"name": "liquidityPool",
					"outputs": [
						{
							"internalType": "address",
							"name": "",
							"type": "address"
						}
					],
					"stateMutability": "view",
					"type": "function"
				},
				{
					"inputs": [],
					"name": "mintWithWETHAndTKB",
					"outputs": [
						{
							"internalType": "uint256",
							"name": "tokenId",
							"type": "uint256"
						},
						{
							"internalType": "uint128",
							"name": "liquidity",
							"type": "uint128"
						},
						{
							"internalType": "uint256",
							"name": "amount0",
							"type": "uint256"
						},
						{
							"internalType": "uint256",
							"name": "amount1",
							"type": "uint256"
						}
					],
					"stateMutability": "payable",
					"type": "function"
				},
				{
					"inputs": [],
					"name": "tokenB",
					"outputs": [
						{
							"internalType": "address",
							"name": "",
							"type": "address"
						}
					],
					"stateMutability": "view",
					"type": "function"
				},
				{
					"stateMutability": "payable",
					"type": "receive"
				}
			],
			"devdoc": {
				"kind": "dev",
				"methods": {},
				"version": 1
			},
			"evm": {
				"assembly": "    /* \"contracts/token factory/testAlgebrav2.sol\":4707:7559  contract AlgebraPoolCreator {... */\n  mstore(0x40, 0x80)\n    /* \"contracts/token factory/testAlgebrav2.sol\":5178:5423  constructor(address _algebraUnified, address _WETH) {... */\n  callvalue\n  dup1\n  iszero\n  tag_1\n  jumpi\n  0x00\n  dup1\n  revert\ntag_1:\n  pop\n  mload(0x40)\n  sub(codesize, bytecodeSize)\n  dup1\n  bytecodeSize\n  dup4\n  codecopy\n  dup2\n  add\n  0x40\n  dup2\n  swap1\n  mstore\n  tag_2\n  swap2\n  tag_3\n  jump\t// in\ntag_2:\n    /* \"contracts/token factory/testAlgebrav2.sol\":5240:5254  algebraUnified */\n  0x00\n    /* \"contracts/token factory/testAlgebrav2.sol\":5240:5272  algebraUnified = _algebraUnified */\n  dup1\n  sload\n  sub(shl(0xa0, 0x01), 0x01)\n  dup1\n  dup6\n  and\n  not(sub(shl(0xa0, 0x01), 0x01))\n  swap3\n  dup4\n  and\n  or\n  dup4\n  sstore\n  0x01\n    /* \"contracts/token factory/testAlgebrav2.sol\":5282:5294  WETH = _WETH */\n  dup1\n  sload\n  swap2\n  dup6\n  and\n  swap2\n  swap1\n  swap3\n  and\n  or\n  swap1\n  sstore\n    /* \"contracts/token factory/testAlgebrav2.sol\":5323:5385  new SimpleERC20(\"Token B\", \"TKB\", TOKEN_AMOUNT, address(this)) */\n  mload(0x40)\n    /* \"contracts/token factory/testAlgebrav2.sol\":4997:5015  420_000_000 * 1e18 */\n  0x015b6a759f4835dc24000000\n  swap1\n    /* \"contracts/token factory/testAlgebrav2.sol\":5379:5383  this */\n  address\n  swap1\n    /* \"contracts/token factory/testAlgebrav2.sol\":5323:5385  new SimpleERC20(\"Token B\", \"TKB\", TOKEN_AMOUNT, address(this)) */\n  tag_6\n  swap1\n  tag_7\n  jump\t// in\ntag_6:\n    /* \"#utility.yul\":853:856   */\n  0x80\n    /* \"#utility.yul\":835:857   */\n  dup1\n  dup3\n  mstore\n    /* \"#utility.yul\":894:895   */\n  0x07\n    /* \"#utility.yul\":873:892   */\n  swap1\n  dup3\n  add\n    /* \"#utility.yul\":866:896   */\n  mstore\n  shl(0xc9, 0x2a37b5b2b71021)\n    /* \"#utility.yul\":927:930   */\n  0xa0\n    /* \"#utility.yul\":912:931   */\n  dup3\n  add\n    /* \"#utility.yul\":905:943   */\n  mstore\n    /* \"#utility.yul\":981:984   */\n  0xc0\n    /* \"#utility.yul\":974:978   */\n  0x20\n    /* \"#utility.yul\":959:979   */\n  dup3\n  add\n    /* \"#utility.yul\":952:985   */\n  dup2\n  swap1\n  mstore\n    /* \"#utility.yul\":1022:1023   */\n  0x03\n    /* \"#utility.yul\":1001:1020   */\n  swap1\n  dup3\n  add\n    /* \"#utility.yul\":994:1024   */\n  mstore\n  shl(0xe9, 0x2a25a1)\n    /* \"#utility.yul\":1055:1058   */\n  0xe0\n    /* \"#utility.yul\":1040:1059   */\n  dup3\n  add\n    /* \"#utility.yul\":1033:1067   */\n  mstore\n    /* \"#utility.yul\":1134:1136   */\n  0x40\n    /* \"#utility.yul\":1119:1137   */\n  dup2\n  add\n    /* \"#utility.yul\":1112:1146   */\n  swap3\n  swap1\n  swap3\n  mstore\n  sub(shl(0xa0, 0x01), 0x01)\n    /* \"#utility.yul\":1182:1214   */\n  and\n  0x60\n    /* \"#utility.yul\":1162:1180   */\n  dup3\n  add\n    /* \"#utility.yul\":1155:1215   */\n  mstore\n    /* \"#utility.yul\":1099:1102   */\n  0x0100\n    /* \"#utility.yul\":1084:1103   */\n  add\n    /* \"contracts/token factory/testAlgebrav2.sol\":5323:5385  new SimpleERC20(\"Token B\", \"TKB\", TOKEN_AMOUNT, address(this)) */\n  mload(0x40)\n  dup1\n  swap2\n  sub\n  swap1\n  0x00\n  create\n  dup1\n  iszero\n  dup1\n  iszero\n  tag_10\n  jumpi\n  returndatasize\n  0x00\n  dup1\n  returndatacopy\n  revert(0x00, returndatasize)\ntag_10:\n  pop\n    /* \"contracts/token factory/testAlgebrav2.sol\":5395:5401  tokenB */\n  0x02\n    /* \"contracts/token factory/testAlgebrav2.sol\":5395:5416  tokenB = address(tkb) */\n  dup1\n  sload\n  not(sub(shl(0xa0, 0x01), 0x01))\n  and\n  sub(shl(0xa0, 0x01), 0x01)\n  swap3\n  swap1\n  swap3\n  and\n  swap2\n  swap1\n  swap2\n  or\n  swap1\n  sstore\n  pop\n    /* \"contracts/token factory/testAlgebrav2.sol\":4707:7559  contract AlgebraPoolCreator {... */\n  tag_13\n  swap2\n  pop\n  pop\n  jump\ntag_7:\n  dataSize(sub_1)\n  dup1\n  dataOffset(sub_1)\n  dup4\n  codecopy\n  add\n  swap1\n  jump\t// out\n    /* \"#utility.yul\":14:191   */\ntag_12:\n    /* \"#utility.yul\":93:106   */\n  dup1\n  mload\n  sub(shl(0xa0, 0x01), 0x01)\n    /* \"#utility.yul\":135:166   */\n  dup2\n  and\n    /* \"#utility.yul\":125:167   */\n  dup2\n  eq\n    /* \"#utility.yul\":115:185   */\n  tag_15\n  jumpi\n    /* \"#utility.yul\":181:182   */\n  0x00\n    /* \"#utility.yul\":178:179   */\n  dup1\n    /* \"#utility.yul\":171:183   */\n  revert\n    /* \"#utility.yul\":115:185   */\ntag_15:\n    /* \"#utility.yul\":14:191   */\n  swap2\n  swap1\n  pop\n  jump\t// out\n    /* \"#utility.yul\":196:489   */\ntag_3:\n    /* \"#utility.yul\":275:281   */\n  0x00\n    /* \"#utility.yul\":283:289   */\n  dup1\n    /* \"#utility.yul\":336:338   */\n  0x40\n    /* \"#utility.yul\":324:333   */\n  dup4\n    /* \"#utility.yul\":315:322   */\n  dup6\n    /* \"#utility.yul\":311:334   */\n  sub\n    /* \"#utility.yul\":307:339   */\n  slt\n    /* \"#utility.yul\":304:356   */\n  iszero\n  tag_17\n  jumpi\n    /* \"#utility.yul\":352:353   */\n  0x00\n    /* \"#utility.yul\":349:350   */\n  dup1\n    /* \"#utility.yul\":342:354   */\n  revert\n    /* \"#utility.yul\":304:356   */\ntag_17:\n    /* \"#utility.yul\":375:415   */\n  tag_18\n    /* \"#utility.yul\":405:414   */\n  dup4\n    /* \"#utility.yul\":375:415   */\n  tag_12\n  jump\t// in\ntag_18:\n    /* \"#utility.yul\":365:415   */\n  swap2\n  pop\n    /* \"#utility.yul\":434:483   */\n  tag_19\n    /* \"#utility.yul\":479:481   */\n  0x20\n    /* \"#utility.yul\":468:477   */\n  dup5\n    /* \"#utility.yul\":464:482   */\n  add\n    /* \"#utility.yul\":434:483   */\n  tag_12\n  jump\t// in\ntag_19:\n    /* \"#utility.yul\":424:483   */\n  swap1\n  pop\n    /* \"#utility.yul\":196:489   */\n  swap3\n  pop\n  swap3\n  swap1\n  pop\n  jump\t// out\n    /* \"#utility.yul\":494:1221   */\ntag_13:\n    /* \"contracts/token factory/testAlgebrav2.sol\":4707:7559  contract AlgebraPoolCreator {... */\n  dataSize(sub_0)\n  dup1\n  dataOffset(sub_0)\n  0x00\n  codecopy\n  0x00\n  return\nstop\n\nsub_0: assembly {\n        /* \"contracts/token factory/testAlgebrav2.sol\":4707:7559  contract AlgebraPoolCreator {... */\n      mstore(0x40, 0x80)\n      jumpi(tag_1, lt(calldatasize, 0x04))\n      shr(0xe0, calldataload(0x00))\n      dup1\n      0x6882a888\n      gt\n      tag_13\n      jumpi\n      dup1\n      0x6882a888\n      eq\n      tag_8\n      jumpi\n      dup1\n      0x9702bdf1\n      eq\n      tag_9\n      jumpi\n      dup1\n      0xa1634b14\n      eq\n      tag_10\n      jumpi\n      dup1\n      0xad5c4648\n      eq\n      tag_11\n      jumpi\n      dup1\n      0xc14033ba\n      eq\n      tag_12\n      jumpi\n      0x00\n      dup1\n      revert\n    tag_13:\n      dup1\n      0x048a1a9d\n      eq\n      tag_3\n      jumpi\n      dup1\n      0x1e655c56\n      eq\n      tag_4\n      jumpi\n      dup1\n      0x24f8eca7\n      eq\n      tag_5\n      jumpi\n      dup1\n      0x5f64b55b\n      eq\n      tag_6\n      jumpi\n      dup1\n      0x665a11ca\n      eq\n      tag_7\n      jumpi\n      0x00\n      dup1\n      revert\n    tag_1:\n      jumpi(tag_2, calldatasize)\n      stop\n    tag_2:\n      0x00\n      dup1\n      revert\n        /* \"contracts/token factory/testAlgebrav2.sol\":4958:5015  uint256 public constant TOKEN_AMOUNT = 420_000_000 * 1e18 */\n    tag_3:\n      callvalue\n      dup1\n      iszero\n      tag_16\n      jumpi\n      0x00\n      dup1\n      revert\n    tag_16:\n      pop\n      tag_17\n        /* \"contracts/token factory/testAlgebrav2.sol\":4997:5015  420_000_000 * 1e18 */\n      0x015b6a759f4835dc24000000\n        /* \"contracts/token factory/testAlgebrav2.sol\":4958:5015  uint256 public constant TOKEN_AMOUNT = 420_000_000 * 1e18 */\n      dup2\n      jump\n    tag_17:\n      mload(0x40)\n        /* \"#utility.yul\":160:185   */\n      swap1\n      dup2\n      mstore\n        /* \"#utility.yul\":148:150   */\n      0x20\n        /* \"#utility.yul\":133:151   */\n      add\n        /* \"contracts/token factory/testAlgebrav2.sol\":4958:5015  uint256 public constant TOKEN_AMOUNT = 420_000_000 * 1e18 */\n    tag_19:\n      mload(0x40)\n      dup1\n      swap2\n      sub\n      swap1\n      return\n        /* \"contracts/token factory/testAlgebrav2.sol\":5959:7522  function mintWithWETHAndTKB() external payable returns (... */\n    tag_4:\n      tag_21\n      tag_22\n      jump\t// in\n    tag_21:\n      0x40\n      dup1\n      mload\n        /* \"#utility.yul\":427:452   */\n      swap5\n      dup6\n      mstore\n      sub(shl(0x80, 0x01), 0x01)\n        /* \"#utility.yul\":488:535   */\n      swap1\n      swap4\n      and\n        /* \"#utility.yul\":483:485   */\n      0x20\n        /* \"#utility.yul\":468:486   */\n      dup6\n      add\n        /* \"#utility.yul\":461:536   */\n      mstore\n        /* \"#utility.yul\":552:570   */\n      swap2\n      dup4\n      add\n        /* \"#utility.yul\":545:579   */\n      mstore\n        /* \"#utility.yul\":610:612   */\n      0x60\n        /* \"#utility.yul\":595:613   */\n      dup3\n      add\n        /* \"#utility.yul\":588:622   */\n      mstore\n        /* \"#utility.yul\":414:417   */\n      0x80\n        /* \"#utility.yul\":399:418   */\n      add\n        /* \"contracts/token factory/testAlgebrav2.sol\":5959:7522  function mintWithWETHAndTKB() external payable returns (... */\n      tag_19\n        /* \"#utility.yul\":196:628   */\n      jump\n        /* \"contracts/token factory/testAlgebrav2.sol\":4780:4809  address public algebraUnified */\n    tag_5:\n      callvalue\n      dup1\n      iszero\n      tag_25\n      jumpi\n      0x00\n      dup1\n      revert\n    tag_25:\n      pop\n      sload(0x00)\n      tag_26\n      swap1\n      sub(shl(0xa0, 0x01), 0x01)\n      and\n      dup2\n      jump\n    tag_26:\n      mload(0x40)\n      sub(shl(0xa0, 0x01), 0x01)\n        /* \"#utility.yul\":906:938   */\n      swap1\n      swap2\n      and\n        /* \"#utility.yul\":888:939   */\n      dup2\n      mstore\n        /* \"#utility.yul\":876:878   */\n      0x20\n        /* \"#utility.yul\":861:879   */\n      add\n        /* \"contracts/token factory/testAlgebrav2.sol\":4780:4809  address public algebraUnified */\n      tag_19\n        /* \"#utility.yul\":742:945   */\n      jump\n        /* \"contracts/token factory/testAlgebrav2.sol\":4840:4861  address public tokenB */\n    tag_6:\n      callvalue\n      dup1\n      iszero\n      tag_30\n      jumpi\n      0x00\n      dup1\n      revert\n    tag_30:\n      pop\n      sload(0x02)\n      tag_26\n      swap1\n      sub(shl(0xa0, 0x01), 0x01)\n      and\n      dup2\n      jump\n        /* \"contracts/token factory/testAlgebrav2.sol\":4867:4895  address public liquidityPool */\n    tag_7:\n      callvalue\n      dup1\n      iszero\n      tag_34\n      jumpi\n      0x00\n      dup1\n      revert\n    tag_34:\n      pop\n      sload(0x03)\n      tag_26\n      swap1\n      sub(shl(0xa0, 0x01), 0x01)\n      and\n      dup2\n      jump\n        /* \"contracts/token factory/testAlgebrav2.sol\":5068:5107  int24 public constant MAX_TICK = 887220 */\n    tag_8:\n      callvalue\n      dup1\n      iszero\n      tag_38\n      jumpi\n      0x00\n      dup1\n      revert\n    tag_38:\n      pop\n      tag_39\n        /* \"contracts/token factory/testAlgebrav2.sol\":5101:5107  887220 */\n      0x0d89b4\n        /* \"contracts/token factory/testAlgebrav2.sol\":5068:5107  int24 public constant MAX_TICK = 887220 */\n      dup2\n      jump\n    tag_39:\n      mload(0x40)\n        /* \"#utility.yul\":1217:1218   */\n      0x02\n        /* \"#utility.yul\":1206:1227   */\n      swap2\n      swap1\n      swap2\n      signextend\n        /* \"#utility.yul\":1188:1228   */\n      dup2\n      mstore\n        /* \"#utility.yul\":1176:1178   */\n      0x20\n        /* \"#utility.yul\":1161:1179   */\n      add\n        /* \"contracts/token factory/testAlgebrav2.sol\":5068:5107  int24 public constant MAX_TICK = 887220 */\n      tag_19\n        /* \"#utility.yul\":1046:1234   */\n      jump\n        /* \"contracts/token factory/testAlgebrav2.sol\":5429:5953  function createPoolAlgebra() external payable {... */\n    tag_9:\n      tag_43\n      tag_44\n      jump\t// in\n    tag_43:\n      stop\n        /* \"contracts/token factory/testAlgebrav2.sol\":5022:5062  int24 public constant MIN_TICK = -887220 */\n    tag_10:\n      callvalue\n      dup1\n      iszero\n      tag_45\n      jumpi\n      0x00\n      dup1\n      revert\n    tag_45:\n      pop\n      tag_39\n      not(0x0d89b3)\n      dup2\n      jump\n        /* \"contracts/token factory/testAlgebrav2.sol\":4815:4834  address public WETH */\n    tag_11:\n      callvalue\n      dup1\n      iszero\n      tag_49\n      jumpi\n      0x00\n      dup1\n      revert\n    tag_49:\n      pop\n      sload(0x01)\n      tag_26\n      swap1\n      sub(shl(0xa0, 0x01), 0x01)\n      and\n      dup2\n      jump\n        /* \"contracts/token factory/testAlgebrav2.sol\":4902:4952  uint256 public constant ETH_AMOUNT = 0.00001 ether */\n    tag_12:\n      callvalue\n      dup1\n      iszero\n      tag_53\n      jumpi\n      0x00\n      dup1\n      revert\n    tag_53:\n      pop\n      tag_17\n        /* \"contracts/token factory/testAlgebrav2.sol\":4939:4952  0.00001 ether */\n      0x09184e72a000\n        /* \"contracts/token factory/testAlgebrav2.sol\":4902:4952  uint256 public constant ETH_AMOUNT = 0.00001 ether */\n      dup2\n      jump\n        /* \"contracts/token factory/testAlgebrav2.sol\":5959:7522  function mintWithWETHAndTKB() external payable returns (... */\n    tag_22:\n        /* \"contracts/token factory/testAlgebrav2.sol\":6117:6130  liquidityPool */\n      sload(0x03)\n        /* \"contracts/token factory/testAlgebrav2.sol\":6024:6039  uint256 tokenId */\n      0x00\n      swap1\n      dup2\n      swap1\n      dup2\n      swap1\n      dup2\n      swap1\n      sub(shl(0xa0, 0x01), 0x01)\n        /* \"contracts/token factory/testAlgebrav2.sol\":6117:6130  liquidityPool */\n      and\n        /* \"contracts/token factory/testAlgebrav2.sol\":6109:6169  require(liquidityPool != address(0), \"Pool not created yet\") */\n      tag_58\n      jumpi\n      mload(0x40)\n      shl(0xe5, 0x461bcd)\n      dup2\n      mstore\n        /* \"#utility.yul\":1441:1443   */\n      0x20\n        /* \"contracts/token factory/testAlgebrav2.sol\":6109:6169  require(liquidityPool != address(0), \"Pool not created yet\") */\n      0x04\n      dup3\n      add\n        /* \"#utility.yul\":1423:1444   */\n      mstore\n        /* \"#utility.yul\":1480:1482   */\n      0x14\n        /* \"#utility.yul\":1460:1478   */\n      0x24\n      dup3\n      add\n        /* \"#utility.yul\":1453:1483   */\n      mstore\n      shl(0x62, 0x141bdbdb081b9bdd0818dc99585d1959081e595d)\n        /* \"#utility.yul\":1499:1517   */\n      0x44\n      dup3\n      add\n        /* \"#utility.yul\":1492:1542   */\n      mstore\n        /* \"#utility.yul\":1559:1577   */\n      0x64\n      add\n        /* \"contracts/token factory/testAlgebrav2.sol\":6109:6169  require(liquidityPool != address(0), \"Pool not created yet\") */\n    tag_59:\n      mload(0x40)\n      dup1\n      swap2\n      sub\n      swap1\n      revert\n    tag_58:\n        /* \"contracts/token factory/testAlgebrav2.sol\":4939:4952  0.00001 ether */\n      0x09184e72a000\n        /* \"contracts/token factory/testAlgebrav2.sol\":6187:6196  msg.value */\n      callvalue\n        /* \"contracts/token factory/testAlgebrav2.sol\":6187:6210  msg.value == ETH_AMOUNT */\n      eq\n        /* \"contracts/token factory/testAlgebrav2.sol\":6179:6244  require(msg.value == ETH_AMOUNT, \"Must send exactly 0.00001 ETH\") */\n      tag_61\n      jumpi\n      mload(0x40)\n      shl(0xe5, 0x461bcd)\n      dup2\n      mstore\n        /* \"#utility.yul\":1790:1792   */\n      0x20\n        /* \"contracts/token factory/testAlgebrav2.sol\":6179:6244  require(msg.value == ETH_AMOUNT, \"Must send exactly 0.00001 ETH\") */\n      0x04\n      dup3\n      add\n        /* \"#utility.yul\":1772:1793   */\n      mstore\n        /* \"#utility.yul\":1829:1831   */\n      0x1d\n        /* \"#utility.yul\":1809:1827   */\n      0x24\n      dup3\n      add\n        /* \"#utility.yul\":1802:1832   */\n      mstore\n        /* \"#utility.yul\":1868:1899   */\n      0x4d7573742073656e642065786163746c7920302e303030303120455448000000\n        /* \"#utility.yul\":1848:1866   */\n      0x44\n      dup3\n      add\n        /* \"#utility.yul\":1841:1900   */\n      mstore\n        /* \"#utility.yul\":1917:1935   */\n      0x64\n      add\n        /* \"contracts/token factory/testAlgebrav2.sol\":6179:6244  require(msg.value == ETH_AMOUNT, \"Must send exactly 0.00001 ETH\") */\n      tag_59\n        /* \"#utility.yul\":1588:1941   */\n      jump\n        /* \"contracts/token factory/testAlgebrav2.sol\":6179:6244  require(msg.value == ETH_AMOUNT, \"Must send exactly 0.00001 ETH\") */\n    tag_61:\n        /* \"contracts/token factory/testAlgebrav2.sol\":6261:6265  WETH */\n      0x01\n      0x00\n      swap1\n      sload\n      swap1\n      0x0100\n      exp\n      swap1\n      div\n      sub(shl(0xa0, 0x01), 0x01)\n      and\n      sub(shl(0xa0, 0x01), 0x01)\n        /* \"contracts/token factory/testAlgebrav2.sol\":6255:6274  IWETH(WETH).deposit */\n      and\n      0xd0e30db0\n        /* \"contracts/token factory/testAlgebrav2.sol\":6282:6291  msg.value */\n      callvalue\n        /* \"contracts/token factory/testAlgebrav2.sol\":6255:6294  IWETH(WETH).deposit{value: msg.value}() */\n      mload(0x40)\n      dup3\n      0xffffffff\n      and\n      0xe0\n      shl\n      dup2\n      mstore\n      0x04\n      add\n      0x00\n      mload(0x40)\n      dup1\n      dup4\n      sub\n      dup2\n      dup6\n      dup9\n      dup1\n      extcodesize\n      iszero\n      dup1\n      iszero\n      tag_64\n      jumpi\n      0x00\n      dup1\n      revert\n    tag_64:\n      pop\n      gas\n      call\n      iszero\n      dup1\n      iszero\n      tag_66\n      jumpi\n      returndatasize\n      0x00\n      dup1\n      returndatacopy\n      revert(0x00, returndatasize)\n    tag_66:\n      pop\n      pop\n        /* \"contracts/token factory/testAlgebrav2.sol\":6334:6338  WETH */\n      sload(0x01)\n        /* \"contracts/token factory/testAlgebrav2.sol\":6327:6364  IERC20(WETH).balanceOf(address(this)) */\n      mload(0x40)\n      shl(0xe0, 0x70a08231)\n      dup2\n      mstore\n        /* \"contracts/token factory/testAlgebrav2.sol\":6358:6362  this */\n      address\n        /* \"contracts/token factory/testAlgebrav2.sol\":6327:6364  IERC20(WETH).balanceOf(address(this)) */\n      0x04\n      dup3\n      add\n        /* \"#utility.yul\":888:939   */\n      mstore\n        /* \"contracts/token factory/testAlgebrav2.sol\":6305:6324  uint256 wethBalance */\n      0x00\n      swap5\n      pop\n      sub(shl(0xa0, 0x01), 0x01)\n        /* \"contracts/token factory/testAlgebrav2.sol\":6334:6338  WETH */\n      swap1\n      swap2\n      and\n      swap3\n      pop\n        /* \"contracts/token factory/testAlgebrav2.sol\":6327:6349  IERC20(WETH).balanceOf */\n      0x70a08231\n      swap2\n      pop\n        /* \"#utility.yul\":861:879   */\n      0x24\n      add\n        /* \"contracts/token factory/testAlgebrav2.sol\":6327:6364  IERC20(WETH).balanceOf(address(this)) */\n      0x20\n      mload(0x40)\n      dup1\n      dup4\n      sub\n      dup2\n      dup7\n      gas\n      staticcall\n      iszero\n      dup1\n      iszero\n      tag_69\n      jumpi\n      returndatasize\n      0x00\n      dup1\n      returndatacopy\n      revert(0x00, returndatasize)\n    tag_69:\n      pop\n      pop\n      pop\n      pop\n      mload(0x40)\n      returndatasize\n      not(0x1f)\n      0x1f\n      dup3\n      add\n      and\n      dup3\n      add\n      dup1\n      0x40\n      mstore\n      pop\n      dup2\n      add\n      swap1\n      tag_70\n      swap2\n      swap1\n      tag_71\n      jump\t// in\n    tag_70:\n        /* \"contracts/token factory/testAlgebrav2.sol\":6402:6408  tokenB */\n      sload(0x02)\n        /* \"contracts/token factory/testAlgebrav2.sol\":6395:6434  IERC20(tokenB).balanceOf(address(this)) */\n      mload(0x40)\n      shl(0xe0, 0x70a08231)\n      dup2\n      mstore\n        /* \"contracts/token factory/testAlgebrav2.sol\":6428:6432  this */\n      address\n        /* \"contracts/token factory/testAlgebrav2.sol\":6395:6434  IERC20(tokenB).balanceOf(address(this)) */\n      0x04\n      dup3\n      add\n        /* \"#utility.yul\":888:939   */\n      mstore\n        /* \"contracts/token factory/testAlgebrav2.sol\":6305:6364  uint256 wethBalance = IERC20(WETH).balanceOf(address(this)) */\n      swap2\n      swap3\n      pop\n        /* \"contracts/token factory/testAlgebrav2.sol\":6374:6392  uint256 tkbBalance */\n      0x00\n      swap2\n      sub(shl(0xa0, 0x01), 0x01)\n        /* \"contracts/token factory/testAlgebrav2.sol\":6402:6408  tokenB */\n      swap1\n      swap2\n      and\n      swap1\n        /* \"contracts/token factory/testAlgebrav2.sol\":6395:6419  IERC20(tokenB).balanceOf */\n      0x70a08231\n      swap1\n        /* \"#utility.yul\":861:879   */\n      0x24\n      add\n        /* \"contracts/token factory/testAlgebrav2.sol\":6395:6434  IERC20(tokenB).balanceOf(address(this)) */\n      0x20\n      mload(0x40)\n      dup1\n      dup4\n      sub\n      dup2\n      dup7\n      gas\n      staticcall\n      iszero\n      dup1\n      iszero\n      tag_74\n      jumpi\n      returndatasize\n      0x00\n      dup1\n      returndatacopy\n      revert(0x00, returndatasize)\n    tag_74:\n      pop\n      pop\n      pop\n      pop\n      mload(0x40)\n      returndatasize\n      not(0x1f)\n      0x1f\n      dup3\n      add\n      and\n      dup3\n      add\n      dup1\n      0x40\n      mstore\n      pop\n      dup2\n      add\n      swap1\n      tag_75\n      swap2\n      swap1\n      tag_71\n      jump\t// in\n    tag_75:\n        /* \"contracts/token factory/testAlgebrav2.sol\":6374:6434  uint256 tkbBalance = IERC20(tokenB).balanceOf(address(this)) */\n      swap1\n      pop\n        /* \"contracts/token factory/testAlgebrav2.sol\":4939:4952  0.00001 ether */\n      0x09184e72a000\n        /* \"contracts/token factory/testAlgebrav2.sol\":6452:6463  wethBalance */\n      dup3\n        /* \"contracts/token factory/testAlgebrav2.sol\":6452:6477  wethBalance >= ETH_AMOUNT */\n      lt\n      iszero\n        /* \"contracts/token factory/testAlgebrav2.sol\":6444:6497  require(wethBalance >= ETH_AMOUNT, \"Not enough WETH\") */\n      tag_76\n      jumpi\n      mload(0x40)\n      shl(0xe5, 0x461bcd)\n      dup2\n      mstore\n        /* \"#utility.yul\":2383:2385   */\n      0x20\n        /* \"contracts/token factory/testAlgebrav2.sol\":6444:6497  require(wethBalance >= ETH_AMOUNT, \"Not enough WETH\") */\n      0x04\n      dup3\n      add\n        /* \"#utility.yul\":2365:2386   */\n      mstore\n        /* \"#utility.yul\":2422:2424   */\n      0x0f\n        /* \"#utility.yul\":2402:2420   */\n      0x24\n      dup3\n      add\n        /* \"#utility.yul\":2395:2425   */\n      mstore\n      shl(0x8b, 0x09cdee840cadcdeeaced040ae8aa89)\n        /* \"#utility.yul\":2441:2459   */\n      0x44\n      dup3\n      add\n        /* \"#utility.yul\":2434:2479   */\n      mstore\n        /* \"#utility.yul\":2496:2514   */\n      0x64\n      add\n        /* \"contracts/token factory/testAlgebrav2.sol\":6444:6497  require(wethBalance >= ETH_AMOUNT, \"Not enough WETH\") */\n      tag_59\n        /* \"#utility.yul\":2181:2520   */\n      jump\n        /* \"contracts/token factory/testAlgebrav2.sol\":6444:6497  require(wethBalance >= ETH_AMOUNT, \"Not enough WETH\") */\n    tag_76:\n        /* \"contracts/token factory/testAlgebrav2.sol\":4997:5015  420_000_000 * 1e18 */\n      0x015b6a759f4835dc24000000\n        /* \"contracts/token factory/testAlgebrav2.sol\":6515:6525  tkbBalance */\n      dup2\n        /* \"contracts/token factory/testAlgebrav2.sol\":6515:6541  tkbBalance >= TOKEN_AMOUNT */\n      lt\n      iszero\n        /* \"contracts/token factory/testAlgebrav2.sol\":6507:6560  require(tkbBalance >= TOKEN_AMOUNT, \"Not enough TKB\") */\n      tag_79\n      jumpi\n      mload(0x40)\n      shl(0xe5, 0x461bcd)\n      dup2\n      mstore\n        /* \"#utility.yul\":2727:2729   */\n      0x20\n        /* \"contracts/token factory/testAlgebrav2.sol\":6507:6560  require(tkbBalance >= TOKEN_AMOUNT, \"Not enough TKB\") */\n      0x04\n      dup3\n      add\n        /* \"#utility.yul\":2709:2730   */\n      mstore\n        /* \"#utility.yul\":2766:2768   */\n      0x0e\n        /* \"#utility.yul\":2746:2764   */\n      0x24\n      dup3\n      add\n        /* \"#utility.yul\":2739:2769   */\n      mstore\n      shl(0x91, 0x2737ba1032b737bab3b4102a25a1)\n        /* \"#utility.yul\":2785:2803   */\n      0x44\n      dup3\n      add\n        /* \"#utility.yul\":2778:2822   */\n      mstore\n        /* \"#utility.yul\":2839:2857   */\n      0x64\n      add\n        /* \"contracts/token factory/testAlgebrav2.sol\":6507:6560  require(tkbBalance >= TOKEN_AMOUNT, \"Not enough TKB\") */\n      tag_59\n        /* \"#utility.yul\":2525:2863   */\n      jump\n        /* \"contracts/token factory/testAlgebrav2.sol\":6507:6560  require(tkbBalance >= TOKEN_AMOUNT, \"Not enough TKB\") */\n    tag_79:\n        /* \"contracts/token factory/testAlgebrav2.sol\":6596:6602  tokenB */\n      sload(0x02)\n      0x01\n        /* \"contracts/token factory/testAlgebrav2.sol\":6589:6593  WETH */\n      sload\n        /* \"contracts/token factory/testAlgebrav2.sol\":6571:6585  address token0 */\n      0x00\n      swap2\n      sub(shl(0xa0, 0x01), 0x01)\n        /* \"contracts/token factory/testAlgebrav2.sol\":6596:6602  tokenB */\n      swap1\n      dup2\n      and\n        /* \"contracts/token factory/testAlgebrav2.sol\":6589:6593  WETH */\n      swap2\n      and\n        /* \"contracts/token factory/testAlgebrav2.sol\":6589:6602  WETH < tokenB */\n      lt\n        /* \"contracts/token factory/testAlgebrav2.sol\":6588:6619  (WETH < tokenB) ? WETH : tokenB */\n      tag_82\n      jumpi\n        /* \"contracts/token factory/testAlgebrav2.sol\":6613:6619  tokenB */\n      and(sub(shl(0xa0, 0x01), 0x01), sload(0x02))\n        /* \"contracts/token factory/testAlgebrav2.sol\":6588:6619  (WETH < tokenB) ? WETH : tokenB */\n      jump(tag_83)\n    tag_82:\n        /* \"contracts/token factory/testAlgebrav2.sol\":6606:6610  WETH */\n      and(sub(shl(0xa0, 0x01), 0x01), sload(0x01))\n        /* \"contracts/token factory/testAlgebrav2.sol\":6588:6619  (WETH < tokenB) ? WETH : tokenB */\n    tag_83:\n        /* \"contracts/token factory/testAlgebrav2.sol\":6654:6660  tokenB */\n      sload(0x02)\n      0x01\n        /* \"contracts/token factory/testAlgebrav2.sol\":6647:6651  WETH */\n      sload\n        /* \"contracts/token factory/testAlgebrav2.sol\":6571:6619  address token0 = (WETH < tokenB) ? WETH : tokenB */\n      swap2\n      swap3\n      pop\n        /* \"contracts/token factory/testAlgebrav2.sol\":6629:6643  address token1 */\n      0x00\n      swap2\n      sub(shl(0xa0, 0x01), 0x01)\n        /* \"contracts/token factory/testAlgebrav2.sol\":6654:6660  tokenB */\n      swap2\n      dup3\n      and\n        /* \"contracts/token factory/testAlgebrav2.sol\":6647:6651  WETH */\n      swap2\n      and\n        /* \"contracts/token factory/testAlgebrav2.sol\":6647:6660  WETH < tokenB */\n      lt\n        /* \"contracts/token factory/testAlgebrav2.sol\":6646:6677  (WETH < tokenB) ? tokenB : WETH */\n      tag_84\n      jumpi\n        /* \"contracts/token factory/testAlgebrav2.sol\":6673:6677  WETH */\n      and(sub(shl(0xa0, 0x01), 0x01), sload(0x01))\n        /* \"contracts/token factory/testAlgebrav2.sol\":6646:6677  (WETH < tokenB) ? tokenB : WETH */\n      jump(tag_85)\n    tag_84:\n        /* \"contracts/token factory/testAlgebrav2.sol\":6664:6670  tokenB */\n      and(sub(shl(0xa0, 0x01), 0x01), sload(0x02))\n        /* \"contracts/token factory/testAlgebrav2.sol\":6646:6677  (WETH < tokenB) ? tokenB : WETH */\n    tag_85:\n        /* \"contracts/token factory/testAlgebrav2.sol\":6724:6728  WETH */\n      sload(0x01)\n        /* \"contracts/token factory/testAlgebrav2.sol\":6629:6677  address token1 = (WETH < tokenB) ? tokenB : WETH */\n      swap1\n      swap2\n      pop\n        /* \"contracts/token factory/testAlgebrav2.sol\":6688:6710  uint256 amount0Desired */\n      0x00\n      swap1\n      sub(shl(0xa0, 0x01), 0x01)\n        /* \"contracts/token factory/testAlgebrav2.sol\":6714:6728  token0 == WETH */\n      dup5\n      dup2\n      and\n        /* \"contracts/token factory/testAlgebrav2.sol\":6724:6728  WETH */\n      swap2\n      and\n        /* \"contracts/token factory/testAlgebrav2.sol\":6714:6728  token0 == WETH */\n      eq\n        /* \"contracts/token factory/testAlgebrav2.sol\":6713:6758  (token0 == WETH) ? wethBalance : TOKEN_AMOUNT */\n      tag_86\n      jumpi\n        /* \"contracts/token factory/testAlgebrav2.sol\":4997:5015  420_000_000 * 1e18 */\n      0x015b6a759f4835dc24000000\n        /* \"contracts/token factory/testAlgebrav2.sol\":6713:6758  (token0 == WETH) ? wethBalance : TOKEN_AMOUNT */\n      jump(tag_87)\n    tag_86:\n        /* \"contracts/token factory/testAlgebrav2.sol\":6732:6743  wethBalance */\n      dup5\n        /* \"contracts/token factory/testAlgebrav2.sol\":6713:6758  (token0 == WETH) ? wethBalance : TOKEN_AMOUNT */\n    tag_87:\n        /* \"contracts/token factory/testAlgebrav2.sol\":6804:6808  WETH */\n      sload(0x01)\n        /* \"contracts/token factory/testAlgebrav2.sol\":6688:6758  uint256 amount0Desired = (token0 == WETH) ? wethBalance : TOKEN_AMOUNT */\n      swap1\n      swap2\n      pop\n        /* \"contracts/token factory/testAlgebrav2.sol\":6768:6790  uint256 amount1Desired */\n      0x00\n      swap1\n      sub(shl(0xa0, 0x01), 0x01)\n        /* \"contracts/token factory/testAlgebrav2.sol\":6794:6808  token0 == WETH */\n      dup6\n      dup2\n      and\n        /* \"contracts/token factory/testAlgebrav2.sol\":6804:6808  WETH */\n      swap2\n      and\n        /* \"contracts/token factory/testAlgebrav2.sol\":6794:6808  token0 == WETH */\n      eq\n        /* \"contracts/token factory/testAlgebrav2.sol\":6793:6838  (token0 == WETH) ? TOKEN_AMOUNT : wethBalance */\n      tag_88\n      jumpi\n        /* \"contracts/token factory/testAlgebrav2.sol\":6827:6838  wethBalance */\n      dup6\n        /* \"contracts/token factory/testAlgebrav2.sol\":6793:6838  (token0 == WETH) ? TOKEN_AMOUNT : wethBalance */\n      jump(tag_89)\n    tag_88:\n        /* \"contracts/token factory/testAlgebrav2.sol\":4997:5015  420_000_000 * 1e18 */\n      0x015b6a759f4835dc24000000\n        /* \"contracts/token factory/testAlgebrav2.sol\":6793:6838  (token0 == WETH) ? TOKEN_AMOUNT : wethBalance */\n    tag_89:\n        /* \"contracts/token factory/testAlgebrav2.sol\":6866:6880  algebraUnified */\n      sload(0x00)\n      0x01\n        /* \"contracts/token factory/testAlgebrav2.sol\":6849:6853  WETH */\n      sload\n        /* \"contracts/token factory/testAlgebrav2.sol\":6768:6838  uint256 amount1Desired = (token0 == WETH) ? TOKEN_AMOUNT : wethBalance */\n      swap2\n      swap3\n      pop\n        /* \"contracts/token factory/testAlgebrav2.sol\":6849:6894  WETH.safeApprove(algebraUnified, wethBalance) */\n      tag_90\n      swap2\n      sub(shl(0xa0, 0x01), 0x01)\n        /* \"contracts/token factory/testAlgebrav2.sol\":6849:6853  WETH */\n      swap1\n      dup2\n      and\n      swap2\n        /* \"contracts/token factory/testAlgebrav2.sol\":6866:6880  algebraUnified */\n      and\n        /* \"contracts/token factory/testAlgebrav2.sol\":6882:6893  wethBalance */\n      dup9\n        /* \"contracts/token factory/testAlgebrav2.sol\":6849:6865  WETH.safeApprove */\n      tag_91\n        /* \"contracts/token factory/testAlgebrav2.sol\":6849:6894  WETH.safeApprove(algebraUnified, wethBalance) */\n      jump\t// in\n    tag_90:\n        /* \"contracts/token factory/testAlgebrav2.sol\":6923:6937  algebraUnified */\n      sload(0x00)\n        /* \"contracts/token factory/testAlgebrav2.sol\":6904:6910  tokenB */\n      sload(0x02)\n        /* \"contracts/token factory/testAlgebrav2.sol\":6904:6952  tokenB.safeApprove(algebraUnified, TOKEN_AMOUNT) */\n      tag_92\n      swap2\n      sub(shl(0xa0, 0x01), 0x01)\n        /* \"contracts/token factory/testAlgebrav2.sol\":6904:6910  tokenB */\n      swap2\n      dup3\n      and\n      swap2\n        /* \"contracts/token factory/testAlgebrav2.sol\":6923:6937  algebraUnified */\n      and\n        /* \"contracts/token factory/testAlgebrav2.sol\":4997:5015  420_000_000 * 1e18 */\n      0x015b6a759f4835dc24000000\n        /* \"contracts/token factory/testAlgebrav2.sol\":6904:6922  tokenB.safeApprove */\n      tag_91\n        /* \"contracts/token factory/testAlgebrav2.sol\":6904:6952  tokenB.safeApprove(algebraUnified, TOKEN_AMOUNT) */\n      jump\t// in\n    tag_92:\n        /* \"contracts/token factory/testAlgebrav2.sol\":7006:7419  IAlgebraUnified.MintParams({... */\n      0x40\n      dup1\n      mload\n      0x0160\n      dup2\n      add\n      dup3\n      mstore\n      sub(shl(0xa0, 0x01), 0x01)\n      dup1\n      dup8\n      and\n      dup3\n      mstore\n      dup6\n      dup2\n      and\n      0x20\n      dup4\n      add\n      mstore\n        /* \"contracts/token factory/testAlgebrav2.sol\":6963:7003  IAlgebraUnified.MintParams memory params */\n      0x00\n        /* \"contracts/token factory/testAlgebrav2.sol\":7006:7419  IAlgebraUnified.MintParams({... */\n      dup3\n      dup5\n      add\n      dup2\n      swap1\n      mstore\n      not(0x0d89b3)\n      0x60\n      dup5\n      add\n      mstore\n        /* \"contracts/token factory/testAlgebrav2.sol\":5101:5107  887220 */\n      0x0d89b4\n        /* \"contracts/token factory/testAlgebrav2.sol\":7006:7419  IAlgebraUnified.MintParams({... */\n      0x80\n      dup5\n      add\n      mstore\n      0xa0\n      dup4\n      add\n      dup7\n      swap1\n      mstore\n      0xc0\n      dup4\n      add\n      dup6\n      swap1\n      mstore\n      0xe0\n      dup4\n      add\n      dup2\n      swap1\n      mstore\n      0x0100\n      dup4\n      add\n      dup2\n      swap1\n      mstore\n        /* \"contracts/token factory/testAlgebrav2.sol\":7364:7368  this */\n      address\n        /* \"contracts/token factory/testAlgebrav2.sol\":7006:7419  IAlgebraUnified.MintParams({... */\n      0x0120\n      dup5\n      add\n      mstore\n        /* \"contracts/token factory/testAlgebrav2.sol\":7393:7408  block.timestamp */\n      timestamp\n        /* \"contracts/token factory/testAlgebrav2.sol\":7006:7419  IAlgebraUnified.MintParams({... */\n      0x0140\n      dup5\n      add\n      mstore\n        /* \"contracts/token factory/testAlgebrav2.sol\":7487:7501  algebraUnified */\n      sload\n        /* \"contracts/token factory/testAlgebrav2.sol\":7471:7515  IAlgebraUnified(algebraUnified).mint(params) */\n      swap3\n      mload\n      shl(0xe0, 0xfe3f3be7)\n      dup2\n      mstore\n        /* \"contracts/token factory/testAlgebrav2.sol\":7006:7419  IAlgebraUnified.MintParams({... */\n      swap2\n      swap3\n        /* \"contracts/token factory/testAlgebrav2.sol\":7487:7501  algebraUnified */\n      and\n      swap1\n        /* \"contracts/token factory/testAlgebrav2.sol\":7471:7507  IAlgebraUnified(algebraUnified).mint */\n      0xfe3f3be7\n      swap1\n        /* \"contracts/token factory/testAlgebrav2.sol\":7471:7515  IAlgebraUnified(algebraUnified).mint(params) */\n      tag_93\n      swap1\n        /* \"contracts/token factory/testAlgebrav2.sol\":7006:7419  IAlgebraUnified.MintParams({... */\n      dup5\n      swap1\n        /* \"contracts/token factory/testAlgebrav2.sol\":7471:7515  IAlgebraUnified(algebraUnified).mint(params) */\n      0x04\n      add\n      tag_94\n      jump\t// in\n    tag_93:\n      0x80\n      mload(0x40)\n      dup1\n      dup4\n      sub\n      dup2\n      0x00\n      dup8\n      gas\n      call\n      iszero\n      dup1\n      iszero\n      tag_96\n      jumpi\n      returndatasize\n      0x00\n      dup1\n      returndatacopy\n      revert(0x00, returndatasize)\n    tag_96:\n      pop\n      pop\n      pop\n      pop\n      mload(0x40)\n      returndatasize\n      not(0x1f)\n      0x1f\n      dup3\n      add\n      and\n      dup3\n      add\n      dup1\n      0x40\n      mstore\n      pop\n      dup2\n      add\n      swap1\n      tag_97\n      swap2\n      swap1\n      tag_98\n      jump\t// in\n    tag_97:\n        /* \"contracts/token factory/testAlgebrav2.sol\":7430:7515  (tokenId, liquidity, amount0, amount1) = IAlgebraUnified(algebraUnified).mint(params) */\n      swap3\n      swap15\n      swap2\n      swap14\n      pop\n      swap12\n      pop\n      swap1\n      swap10\n      pop\n        /* \"contracts/token factory/testAlgebrav2.sol\":5959:7522  function mintWithWETHAndTKB() external payable returns (... */\n      swap8\n      pop\n      pop\n      pop\n      pop\n      pop\n      pop\n      pop\n      pop\n      jump\t// out\n        /* \"contracts/token factory/testAlgebrav2.sol\":5429:5953  function createPoolAlgebra() external payable {... */\n    tag_44:\n        /* \"contracts/token factory/testAlgebrav2.sol\":5493:5506  liquidityPool */\n      and(sub(shl(0xa0, 0x01), 0x01), sload(0x03))\n        /* \"contracts/token factory/testAlgebrav2.sol\":5493:5520  liquidityPool == address(0) */\n      iszero\n        /* \"contracts/token factory/testAlgebrav2.sol\":5485:5544  require(liquidityPool == address(0), \"Pool already exists\") */\n      tag_100\n      jumpi\n      mload(0x40)\n      shl(0xe5, 0x461bcd)\n      dup2\n      mstore\n        /* \"#utility.yul\":4897:4899   */\n      0x20\n        /* \"contracts/token factory/testAlgebrav2.sol\":5485:5544  require(liquidityPool == address(0), \"Pool already exists\") */\n      0x04\n      dup3\n      add\n        /* \"#utility.yul\":4879:4900   */\n      mstore\n        /* \"#utility.yul\":4936:4938   */\n      0x13\n        /* \"#utility.yul\":4916:4934   */\n      0x24\n      dup3\n      add\n        /* \"#utility.yul\":4909:4939   */\n      mstore\n      shl(0x68, 0x506f6f6c20616c726561647920657869737473)\n        /* \"#utility.yul\":4955:4973   */\n      0x44\n      dup3\n      add\n        /* \"#utility.yul\":4948:4997   */\n      mstore\n        /* \"#utility.yul\":5014:5032   */\n      0x64\n      add\n        /* \"contracts/token factory/testAlgebrav2.sol\":5485:5544  require(liquidityPool == address(0), \"Pool already exists\") */\n      tag_59\n        /* \"#utility.yul\":4695:5038   */\n      jump\n        /* \"contracts/token factory/testAlgebrav2.sol\":5485:5544  require(liquidityPool == address(0), \"Pool already exists\") */\n    tag_100:\n        /* \"contracts/token factory/testAlgebrav2.sol\":5643:5649  tokenB */\n      sload(0x02)\n      0x01\n        /* \"contracts/token factory/testAlgebrav2.sol\":5636:5640  WETH */\n      sload\n      shl(0x60, 0x01)\n        /* \"contracts/token factory/testAlgebrav2.sol\":5578:5607  79228162514264337593543950336 */\n      swap2\n        /* \"contracts/token factory/testAlgebrav2.sol\":5555:5575  uint160 sqrtPriceX96 */\n      0x00\n      swap2\n      sub(shl(0xa0, 0x01), 0x01)\n        /* \"contracts/token factory/testAlgebrav2.sol\":5643:5649  tokenB */\n      swap2\n      dup3\n      and\n        /* \"contracts/token factory/testAlgebrav2.sol\":5636:5640  WETH */\n      swap2\n      and\n        /* \"contracts/token factory/testAlgebrav2.sol\":5636:5649  WETH < tokenB */\n      lt\n        /* \"contracts/token factory/testAlgebrav2.sol\":5635:5666  (WETH < tokenB) ? WETH : tokenB */\n      tag_103\n      jumpi\n        /* \"contracts/token factory/testAlgebrav2.sol\":5660:5666  tokenB */\n      and(sub(shl(0xa0, 0x01), 0x01), sload(0x02))\n        /* \"contracts/token factory/testAlgebrav2.sol\":5635:5666  (WETH < tokenB) ? WETH : tokenB */\n      jump(tag_104)\n    tag_103:\n        /* \"contracts/token factory/testAlgebrav2.sol\":5653:5657  WETH */\n      and(sub(shl(0xa0, 0x01), 0x01), sload(0x01))\n        /* \"contracts/token factory/testAlgebrav2.sol\":5635:5666  (WETH < tokenB) ? WETH : tokenB */\n    tag_104:\n        /* \"contracts/token factory/testAlgebrav2.sol\":5701:5707  tokenB */\n      sload(0x02)\n      0x01\n        /* \"contracts/token factory/testAlgebrav2.sol\":5694:5698  WETH */\n      sload\n        /* \"contracts/token factory/testAlgebrav2.sol\":5618:5666  address token0 = (WETH < tokenB) ? WETH : tokenB */\n      swap2\n      swap3\n      pop\n        /* \"contracts/token factory/testAlgebrav2.sol\":5676:5690  address token1 */\n      0x00\n      swap2\n      sub(shl(0xa0, 0x01), 0x01)\n        /* \"contracts/token factory/testAlgebrav2.sol\":5701:5707  tokenB */\n      swap2\n      dup3\n      and\n        /* \"contracts/token factory/testAlgebrav2.sol\":5694:5698  WETH */\n      swap2\n      and\n        /* \"contracts/token factory/testAlgebrav2.sol\":5694:5707  WETH < tokenB */\n      lt\n        /* \"contracts/token factory/testAlgebrav2.sol\":5693:5724  (WETH < tokenB) ? tokenB : WETH */\n      tag_105\n      jumpi\n        /* \"contracts/token factory/testAlgebrav2.sol\":5720:5724  WETH */\n      and(sub(shl(0xa0, 0x01), 0x01), sload(0x01))\n        /* \"contracts/token factory/testAlgebrav2.sol\":5693:5724  (WETH < tokenB) ? tokenB : WETH */\n      jump(tag_106)\n    tag_105:\n        /* \"contracts/token factory/testAlgebrav2.sol\":5711:5717  tokenB */\n      and(sub(shl(0xa0, 0x01), 0x01), sload(0x02))\n        /* \"contracts/token factory/testAlgebrav2.sol\":5693:5724  (WETH < tokenB) ? tokenB : WETH */\n    tag_106:\n        /* \"contracts/token factory/testAlgebrav2.sol\":5735:5747  address pool */\n      0x00\n        /* \"contracts/token factory/testAlgebrav2.sol\":5766:5780  algebraUnified */\n      dup1\n      sload\n        /* \"contracts/token factory/testAlgebrav2.sol\":5750:5916  IAlgebraUnified(algebraUnified).createAndInitializePoolIfNecessary(... */\n      mload(0x40)\n      shl(0xe1, 0x43a9d0cd)\n      dup2\n      mstore\n      sub(shl(0xa0, 0x01), 0x01)\n        /* \"#utility.yul\":5292:5324   */\n      dup7\n      dup2\n      and\n        /* \"contracts/token factory/testAlgebrav2.sol\":5750:5916  IAlgebraUnified(algebraUnified).createAndInitializePoolIfNecessary(... */\n      0x04\n      dup4\n      add\n        /* \"#utility.yul\":5274:5325   */\n      mstore\n        /* \"#utility.yul\":5361:5393   */\n      dup1\n      dup6\n      and\n        /* \"#utility.yul\":5341:5359   */\n      0x24\n      dup4\n      add\n        /* \"#utility.yul\":5334:5394   */\n      mstore\n        /* \"#utility.yul\":5410:5428   */\n      0x44\n      dup3\n      add\n        /* \"#utility.yul\":5403:5463   */\n      dup5\n      swap1\n      mstore\n        /* \"#utility.yul\":5499:5531   */\n      dup8\n      dup2\n      and\n        /* \"#utility.yul\":5479:5497   */\n      0x64\n      dup4\n      add\n        /* \"#utility.yul\":5472:5532   */\n      mstore\n        /* \"contracts/token factory/testAlgebrav2.sol\":5676:5724  address token1 = (WETH < tokenB) ? tokenB : WETH */\n      swap4\n      swap5\n      pop\n        /* \"contracts/token factory/testAlgebrav2.sol\":5735:5747  address pool */\n      swap2\n      swap3\n        /* \"contracts/token factory/testAlgebrav2.sol\":5766:5780  algebraUnified */\n      and\n      swap1\n        /* \"contracts/token factory/testAlgebrav2.sol\":5750:5816  IAlgebraUnified(algebraUnified).createAndInitializePoolIfNecessary */\n      0x8753a19a\n      swap1\n        /* \"#utility.yul\":5246:5265   */\n      0x84\n      add\n        /* \"contracts/token factory/testAlgebrav2.sol\":5750:5916  IAlgebraUnified(algebraUnified).createAndInitializePoolIfNecessary(... */\n      0x20\n      mload(0x40)\n      dup1\n      dup4\n      sub\n      dup2\n      0x00\n      dup8\n      gas\n      call\n      iszero\n      dup1\n      iszero\n      tag_110\n      jumpi\n      returndatasize\n      0x00\n      dup1\n      returndatacopy\n      revert(0x00, returndatasize)\n    tag_110:\n      pop\n      pop\n      pop\n      pop\n      mload(0x40)\n      returndatasize\n      not(0x1f)\n      0x1f\n      dup3\n      add\n      and\n      dup3\n      add\n      dup1\n      0x40\n      mstore\n      pop\n      dup2\n      add\n      swap1\n      tag_111\n      swap2\n      swap1\n      tag_112\n      jump\t// in\n    tag_111:\n        /* \"contracts/token factory/testAlgebrav2.sol\":5926:5939  liquidityPool */\n      0x03\n        /* \"contracts/token factory/testAlgebrav2.sol\":5926:5946  liquidityPool = pool */\n      dup1\n      sload\n      not(sub(shl(0xa0, 0x01), 0x01))\n      and\n      sub(shl(0xa0, 0x01), 0x01)\n      swap3\n      swap1\n      swap3\n      and\n      swap2\n      swap1\n      swap2\n      or\n      swap1\n      sstore\n      pop\n      pop\n      pop\n      pop\n        /* \"contracts/token factory/testAlgebrav2.sol\":5429:5953  function createPoolAlgebra() external payable {... */\n      jump\t// out\n        /* \"contracts/token factory/testAlgebrav2.sol\":1059:1485  function safeApprove(... */\n    tag_91:\n        /* \"contracts/token factory/testAlgebrav2.sol\":1231:1358  abi.encodeWithSelector(... */\n      0x40\n      dup1\n      mload\n      sub(shl(0xa0, 0x01), 0x01)\n        /* \"#utility.yul\":6030:6062   */\n      dup5\n      dup2\n      and\n        /* \"contracts/token factory/testAlgebrav2.sol\":1231:1358  abi.encodeWithSelector(... */\n      0x24\n      dup4\n      add\n        /* \"#utility.yul\":6012:6063   */\n      mstore\n        /* \"#utility.yul\":6079:6097   */\n      0x44\n      dup1\n      dup4\n      add\n        /* \"#utility.yul\":6072:6106   */\n      dup6\n      swap1\n      mstore\n        /* \"contracts/token factory/testAlgebrav2.sol\":1231:1358  abi.encodeWithSelector(... */\n      dup4\n      mload\n      dup1\n      dup5\n      sub\n      swap1\n      swap2\n      add\n      dup2\n      mstore\n        /* \"#utility.yul\":5985:6003   */\n      0x64\n      swap1\n      swap3\n      add\n        /* \"contracts/token factory/testAlgebrav2.sol\":1231:1358  abi.encodeWithSelector(... */\n      dup4\n      mstore\n      0x20\n      dup3\n      add\n      dup1\n      mload\n      sub(shl(0xe0, 0x01), 0x01)\n      and\n      shl(0xe0, 0x095ea7b3)\n      or\n      swap1\n      mstore\n        /* \"contracts/token factory/testAlgebrav2.sol\":1207:1368  token.call(... */\n      swap2\n      mload\n      0x00\n      swap3\n      dup4\n      swap3\n        /* \"contracts/token factory/testAlgebrav2.sol\":1207:1217  token.call */\n      swap1\n      dup8\n      and\n      swap2\n        /* \"contracts/token factory/testAlgebrav2.sol\":1207:1368  token.call(... */\n      tag_116\n      swap2\n        /* \"contracts/token factory/testAlgebrav2.sol\":1231:1358  abi.encodeWithSelector(... */\n      swap1\n        /* \"contracts/token factory/testAlgebrav2.sol\":1207:1368  token.call(... */\n      tag_117\n      jump\t// in\n    tag_116:\n      0x00\n      mload(0x40)\n      dup1\n      dup4\n      sub\n      dup2\n      0x00\n      dup7\n      gas\n      call\n      swap2\n      pop\n      pop\n      returndatasize\n      dup1\n      0x00\n      dup2\n      eq\n      tag_120\n      jumpi\n      mload(0x40)\n      swap2\n      pop\n      and(add(returndatasize, 0x3f), not(0x1f))\n      dup3\n      add\n      0x40\n      mstore\n      returndatasize\n      dup3\n      mstore\n      returndatasize\n      0x00\n      0x20\n      dup5\n      add\n      returndatacopy\n      jump(tag_119)\n    tag_120:\n      0x60\n      swap2\n      pop\n    tag_119:\n      pop\n        /* \"contracts/token factory/testAlgebrav2.sol\":1171:1368  (bool success, bytes memory data) = token.call(... */\n      swap2\n      pop\n      swap2\n      pop\n        /* \"contracts/token factory/testAlgebrav2.sol\":1383:1390  success */\n      dup2\n        /* \"contracts/token factory/testAlgebrav2.sol\":1382:1390  !success */\n      iszero\n        /* \"contracts/token factory/testAlgebrav2.sol\":1382:1441  !success || (data.length != 0 && !abi.decode(data, (bool))) */\n      dup1\n      tag_122\n      jumpi\n      pop\n        /* \"contracts/token factory/testAlgebrav2.sol\":1395:1406  data.length */\n      dup1\n      mload\n        /* \"contracts/token factory/testAlgebrav2.sol\":1395:1411  data.length != 0 */\n      iszero\n      dup1\n      iszero\n      swap1\n        /* \"contracts/token factory/testAlgebrav2.sol\":1395:1440  data.length != 0 && !abi.decode(data, (bool)) */\n      tag_122\n      jumpi\n      pop\n        /* \"contracts/token factory/testAlgebrav2.sol\":1427:1431  data */\n      dup1\n        /* \"contracts/token factory/testAlgebrav2.sol\":1416:1440  abi.decode(data, (bool)) */\n      dup1\n      0x20\n      add\n      swap1\n      mload\n      dup2\n      add\n      swap1\n      tag_123\n      swap2\n      swap1\n      tag_124\n      jump\t// in\n    tag_123:\n        /* \"contracts/token factory/testAlgebrav2.sol\":1415:1440  !abi.decode(data, (bool)) */\n      iszero\n        /* \"contracts/token factory/testAlgebrav2.sol\":1395:1440  data.length != 0 && !abi.decode(data, (bool)) */\n    tag_122:\n        /* \"contracts/token factory/testAlgebrav2.sol\":1378:1479  if (!success || (data.length != 0 && !abi.decode(data, (bool)))) {... */\n      iszero\n      tag_125\n      jumpi\n        /* \"contracts/token factory/testAlgebrav2.sol\":1464:1468  SA() */\n      mload(0x40)\n      shl(0xe1, 0x7cd36c65)\n      dup2\n      mstore\n      0x04\n      add\n      mload(0x40)\n      dup1\n      swap2\n      sub\n      swap1\n      revert\n        /* \"contracts/token factory/testAlgebrav2.sol\":1378:1479  if (!success || (data.length != 0 && !abi.decode(data, (bool)))) {... */\n    tag_125:\n        /* \"contracts/token factory/testAlgebrav2.sol\":1161:1485  {... */\n      pop\n      pop\n        /* \"contracts/token factory/testAlgebrav2.sol\":1059:1485  function safeApprove(... */\n      pop\n      pop\n      pop\n      jump\t// out\n        /* \"#utility.yul\":1946:2176   */\n    tag_71:\n        /* \"#utility.yul\":2016:2022   */\n      0x00\n        /* \"#utility.yul\":2069:2071   */\n      0x20\n        /* \"#utility.yul\":2057:2066   */\n      dup3\n        /* \"#utility.yul\":2048:2055   */\n      dup5\n        /* \"#utility.yul\":2044:2067   */\n      sub\n        /* \"#utility.yul\":2040:2072   */\n      slt\n        /* \"#utility.yul\":2037:2089   */\n      iszero\n      tag_138\n      jumpi\n        /* \"#utility.yul\":2085:2086   */\n      0x00\n        /* \"#utility.yul\":2082:2083   */\n      dup1\n        /* \"#utility.yul\":2075:2087   */\n      revert\n        /* \"#utility.yul\":2037:2089   */\n    tag_138:\n      pop\n        /* \"#utility.yul\":2130:2146   */\n      mload\n      swap2\n        /* \"#utility.yul\":1946:2176   */\n      swap1\n      pop\n      jump\t// out\n        /* \"#utility.yul\":2868:4038   */\n    tag_94:\n        /* \"#utility.yul\":3088:3101   */\n      dup2\n      mload\n      sub(shl(0xa0, 0x01), 0x01)\n        /* \"#utility.yul\":699:730   */\n      and\n        /* \"#utility.yul\":687:731   */\n      dup2\n      mstore\n        /* \"#utility.yul\":3056:3059   */\n      0x0160\n        /* \"#utility.yul\":3041:3060   */\n      dup2\n      add\n        /* \"#utility.yul\":3160:3164   */\n      0x20\n        /* \"#utility.yul\":3152:3158   */\n      dup4\n        /* \"#utility.yul\":3148:3165   */\n      add\n        /* \"#utility.yul\":3142:3166   */\n      mload\n        /* \"#utility.yul\":3175:3229   */\n      tag_143\n        /* \"#utility.yul\":3223:3227   */\n      0x20\n        /* \"#utility.yul\":3212:3221   */\n      dup5\n        /* \"#utility.yul\":3208:3228   */\n      add\n        /* \"#utility.yul\":3194:3206   */\n      dup3\n      sub(shl(0xa0, 0x01), 0x01)\n        /* \"#utility.yul\":699:730   */\n      and\n        /* \"#utility.yul\":687:731   */\n      swap1\n      mstore\n        /* \"#utility.yul\":633:737   */\n      jump\n        /* \"#utility.yul\":3175:3229   */\n    tag_143:\n      pop\n        /* \"#utility.yul\":3278:3282   */\n      0x40\n        /* \"#utility.yul\":3270:3276   */\n      dup4\n        /* \"#utility.yul\":3266:3283   */\n      add\n        /* \"#utility.yul\":3260:3284   */\n      mload\n        /* \"#utility.yul\":3293:3349   */\n      tag_144\n        /* \"#utility.yul\":3343:3347   */\n      0x40\n        /* \"#utility.yul\":3332:3341   */\n      dup5\n        /* \"#utility.yul\":3328:3348   */\n      add\n        /* \"#utility.yul\":3312:3326   */\n      dup3\n      sub(shl(0xa0, 0x01), 0x01)\n        /* \"#utility.yul\":699:730   */\n      and\n        /* \"#utility.yul\":687:731   */\n      swap1\n      mstore\n        /* \"#utility.yul\":633:737   */\n      jump\n        /* \"#utility.yul\":3293:3349   */\n    tag_144:\n      pop\n        /* \"#utility.yul\":3398:3402   */\n      0x60\n        /* \"#utility.yul\":3390:3396   */\n      dup4\n        /* \"#utility.yul\":3386:3403   */\n      add\n        /* \"#utility.yul\":3380:3404   */\n      mload\n        /* \"#utility.yul\":3413:3467   */\n      tag_145\n        /* \"#utility.yul\":3461:3465   */\n      0x60\n        /* \"#utility.yul\":3450:3459   */\n      dup5\n        /* \"#utility.yul\":3446:3466   */\n      add\n        /* \"#utility.yul\":3430:3444   */\n      dup3\n        /* \"#utility.yul\":1025:1026   */\n      0x02\n        /* \"#utility.yul\":1014:1034   */\n      signextend\n        /* \"#utility.yul\":1002:1035   */\n      swap1\n      mstore\n        /* \"#utility.yul\":950:1041   */\n      jump\n        /* \"#utility.yul\":3413:3467   */\n    tag_145:\n      pop\n        /* \"#utility.yul\":3516:3520   */\n      0x80\n        /* \"#utility.yul\":3508:3514   */\n      dup4\n        /* \"#utility.yul\":3504:3521   */\n      add\n        /* \"#utility.yul\":3498:3522   */\n      mload\n        /* \"#utility.yul\":3531:3585   */\n      tag_146\n        /* \"#utility.yul\":3579:3583   */\n      0x80\n        /* \"#utility.yul\":3568:3577   */\n      dup5\n        /* \"#utility.yul\":3564:3584   */\n      add\n        /* \"#utility.yul\":3548:3562   */\n      dup3\n        /* \"#utility.yul\":1025:1026   */\n      0x02\n        /* \"#utility.yul\":1014:1034   */\n      signextend\n        /* \"#utility.yul\":1002:1035   */\n      swap1\n      mstore\n        /* \"#utility.yul\":950:1041   */\n      jump\n        /* \"#utility.yul\":3531:3585   */\n    tag_146:\n      pop\n        /* \"#utility.yul\":3641:3645   */\n      0xa0\n        /* \"#utility.yul\":3633:3639   */\n      dup4\n        /* \"#utility.yul\":3629:3646   */\n      add\n        /* \"#utility.yul\":3623:3647   */\n      mload\n        /* \"#utility.yul\":3616:3620   */\n      0xa0\n        /* \"#utility.yul\":3605:3614   */\n      dup4\n        /* \"#utility.yul\":3601:3621   */\n      add\n        /* \"#utility.yul\":3594:3648   */\n      mstore\n        /* \"#utility.yul\":3704:3708   */\n      0xc0\n        /* \"#utility.yul\":3696:3702   */\n      dup4\n        /* \"#utility.yul\":3692:3709   */\n      add\n        /* \"#utility.yul\":3686:3710   */\n      mload\n        /* \"#utility.yul\":3679:3683   */\n      0xc0\n        /* \"#utility.yul\":3668:3677   */\n      dup4\n        /* \"#utility.yul\":3664:3684   */\n      add\n        /* \"#utility.yul\":3657:3711   */\n      mstore\n        /* \"#utility.yul\":3767:3771   */\n      0xe0\n        /* \"#utility.yul\":3759:3765   */\n      dup4\n        /* \"#utility.yul\":3755:3772   */\n      add\n        /* \"#utility.yul\":3749:3773   */\n      mload\n        /* \"#utility.yul\":3742:3746   */\n      0xe0\n        /* \"#utility.yul\":3731:3740   */\n      dup4\n        /* \"#utility.yul\":3727:3747   */\n      add\n        /* \"#utility.yul\":3720:3774   */\n      mstore\n        /* \"#utility.yul\":3832:3838   */\n      0x0100\n        /* \"#utility.yul\":3824:3830   */\n      dup4\n        /* \"#utility.yul\":3820:3839   */\n      add\n        /* \"#utility.yul\":3814:3840   */\n      mload\n        /* \"#utility.yul\":3805:3811   */\n      0x0100\n        /* \"#utility.yul\":3794:3803   */\n      dup4\n        /* \"#utility.yul\":3790:3812   */\n      add\n        /* \"#utility.yul\":3783:3841   */\n      mstore\n        /* \"#utility.yul\":3890:3896   */\n      0x0120\n        /* \"#utility.yul\":3882:3888   */\n      dup4\n        /* \"#utility.yul\":3878:3897   */\n      add\n        /* \"#utility.yul\":3872:3898   */\n      mload\n        /* \"#utility.yul\":3907:3965   */\n      tag_147\n        /* \"#utility.yul\":3957:3963   */\n      0x0120\n        /* \"#utility.yul\":3946:3955   */\n      dup5\n        /* \"#utility.yul\":3942:3964   */\n      add\n        /* \"#utility.yul\":3926:3940   */\n      dup3\n      sub(shl(0xa0, 0x01), 0x01)\n        /* \"#utility.yul\":699:730   */\n      and\n        /* \"#utility.yul\":687:731   */\n      swap1\n      mstore\n        /* \"#utility.yul\":633:737   */\n      jump\n        /* \"#utility.yul\":3907:3965   */\n    tag_147:\n      pop\n        /* \"#utility.yul\":4023:4029   */\n      0x0140\n        /* \"#utility.yul\":4011:4030   */\n      swap3\n      dup4\n      add\n        /* \"#utility.yul\":4005:4031   */\n      mload\n        /* \"#utility.yul\":3981:4003   */\n      swap2\n      swap1\n      swap3\n      add\n        /* \"#utility.yul\":3974:4032   */\n      mstore\n        /* \"#utility.yul\":2868:4038   */\n      swap1\n      jump\t// out\n        /* \"#utility.yul\":4043:4690   */\n    tag_98:\n        /* \"#utility.yul\":4140:4146   */\n      0x00\n        /* \"#utility.yul\":4148:4154   */\n      dup1\n        /* \"#utility.yul\":4156:4162   */\n      0x00\n        /* \"#utility.yul\":4164:4170   */\n      dup1\n        /* \"#utility.yul\":4217:4220   */\n      0x80\n        /* \"#utility.yul\":4205:4214   */\n      dup6\n        /* \"#utility.yul\":4196:4203   */\n      dup8\n        /* \"#utility.yul\":4192:4215   */\n      sub\n        /* \"#utility.yul\":4188:4221   */\n      slt\n        /* \"#utility.yul\":4185:4238   */\n      iszero\n      tag_149\n      jumpi\n        /* \"#utility.yul\":4234:4235   */\n      0x00\n        /* \"#utility.yul\":4231:4232   */\n      dup1\n        /* \"#utility.yul\":4224:4236   */\n      revert\n        /* \"#utility.yul\":4185:4238   */\n    tag_149:\n        /* \"#utility.yul\":4279:4295   */\n      dup5\n      mload\n        /* \"#utility.yul\":4364:4366   */\n      0x20\n        /* \"#utility.yul\":4349:4367   */\n      dup7\n      add\n        /* \"#utility.yul\":4343:4368   */\n      mload\n        /* \"#utility.yul\":4279:4295   */\n      swap1\n      swap5\n      pop\n      sub(shl(0x80, 0x01), 0x01)\n        /* \"#utility.yul\":4399:4447   */\n      dup2\n      and\n        /* \"#utility.yul\":4387:4448   */\n      dup2\n      eq\n        /* \"#utility.yul\":4377:4466   */\n      tag_150\n      jumpi\n        /* \"#utility.yul\":4462:4463   */\n      0x00\n        /* \"#utility.yul\":4459:4460   */\n      dup1\n        /* \"#utility.yul\":4452:4464   */\n      revert\n        /* \"#utility.yul\":4377:4466   */\n    tag_150:\n        /* \"#utility.yul\":4558:4560   */\n      0x40\n        /* \"#utility.yul\":4543:4561   */\n      dup7\n      add\n        /* \"#utility.yul\":4537:4562   */\n      mload\n        /* \"#utility.yul\":4654:4656   */\n      0x60\n        /* \"#utility.yul\":4639:4657   */\n      swap1\n      swap7\n      add\n        /* \"#utility.yul\":4633:4658   */\n      mload\n        /* \"#utility.yul\":4043:4690   */\n      swap5\n      swap8\n        /* \"#utility.yul\":4485:4492   */\n      swap1\n      swap7\n      pop\n        /* \"#utility.yul\":4043:4690   */\n      swap3\n      pop\n      pop\n      pop\n      jump\t// out\n        /* \"#utility.yul\":5543:5833   */\n    tag_112:\n        /* \"#utility.yul\":5613:5619   */\n      0x00\n        /* \"#utility.yul\":5666:5668   */\n      0x20\n        /* \"#utility.yul\":5654:5663   */\n      dup3\n        /* \"#utility.yul\":5645:5652   */\n      dup5\n        /* \"#utility.yul\":5641:5664   */\n      sub\n        /* \"#utility.yul\":5637:5669   */\n      slt\n        /* \"#utility.yul\":5634:5686   */\n      iszero\n      tag_154\n      jumpi\n        /* \"#utility.yul\":5682:5683   */\n      0x00\n        /* \"#utility.yul\":5679:5680   */\n      dup1\n        /* \"#utility.yul\":5672:5684   */\n      revert\n        /* \"#utility.yul\":5634:5686   */\n    tag_154:\n        /* \"#utility.yul\":5708:5724   */\n      dup2\n      mload\n      sub(shl(0xa0, 0x01), 0x01)\n        /* \"#utility.yul\":5753:5784   */\n      dup2\n      and\n        /* \"#utility.yul\":5743:5785   */\n      dup2\n      eq\n        /* \"#utility.yul\":5733:5803   */\n      tag_155\n      jumpi\n        /* \"#utility.yul\":5799:5800   */\n      0x00\n        /* \"#utility.yul\":5796:5797   */\n      dup1\n        /* \"#utility.yul\":5789:5801   */\n      revert\n        /* \"#utility.yul\":5733:5803   */\n    tag_155:\n        /* \"#utility.yul\":5822:5827   */\n      swap4\n        /* \"#utility.yul\":5543:5833   */\n      swap3\n      pop\n      pop\n      pop\n      jump\t// out\n        /* \"#utility.yul\":6117:6529   */\n    tag_117:\n        /* \"#utility.yul\":6246:6249   */\n      0x00\n        /* \"#utility.yul\":6284:6290   */\n      dup3\n        /* \"#utility.yul\":6278:6291   */\n      mload\n        /* \"#utility.yul\":6309:6310   */\n      0x00\n        /* \"#utility.yul\":6319:6448   */\n    tag_158:\n        /* \"#utility.yul\":6333:6339   */\n      dup2\n        /* \"#utility.yul\":6330:6331   */\n      dup2\n        /* \"#utility.yul\":6327:6340   */\n      lt\n        /* \"#utility.yul\":6319:6448   */\n      iszero\n      tag_160\n      jumpi\n        /* \"#utility.yul\":6431:6435   */\n      0x20\n        /* \"#utility.yul\":6415:6429   */\n      dup2\n      dup7\n      add\n        /* \"#utility.yul\":6411:6436   */\n      dup2\n      add\n        /* \"#utility.yul\":6405:6437   */\n      mload\n        /* \"#utility.yul\":6392:6403   */\n      dup6\n      dup4\n      add\n        /* \"#utility.yul\":6385:6438   */\n      mstore\n        /* \"#utility.yul\":6348:6360   */\n      add\n        /* \"#utility.yul\":6319:6448   */\n      jump(tag_158)\n    tag_160:\n      pop\n        /* \"#utility.yul\":6503:6504   */\n      0x00\n        /* \"#utility.yul\":6467:6483   */\n      swap3\n      add\n        /* \"#utility.yul\":6492:6505   */\n      swap2\n      dup3\n      mstore\n      pop\n        /* \"#utility.yul\":6467:6483   */\n      swap2\n        /* \"#utility.yul\":6117:6529   */\n      swap1\n      pop\n      jump\t// out\n        /* \"#utility.yul\":6534:6811   */\n    tag_124:\n        /* \"#utility.yul\":6601:6607   */\n      0x00\n        /* \"#utility.yul\":6654:6656   */\n      0x20\n        /* \"#utility.yul\":6642:6651   */\n      dup3\n        /* \"#utility.yul\":6633:6640   */\n      dup5\n        /* \"#utility.yul\":6629:6652   */\n      sub\n        /* \"#utility.yul\":6625:6657   */\n      slt\n        /* \"#utility.yul\":6622:6674   */\n      iszero\n      tag_162\n      jumpi\n        /* \"#utility.yul\":6670:6671   */\n      0x00\n        /* \"#utility.yul\":6667:6668   */\n      dup1\n        /* \"#utility.yul\":6660:6672   */\n      revert\n        /* \"#utility.yul\":6622:6674   */\n    tag_162:\n        /* \"#utility.yul\":6702:6711   */\n      dup2\n        /* \"#utility.yul\":6696:6712   */\n      mload\n        /* \"#utility.yul\":6755:6760   */\n      dup1\n        /* \"#utility.yul\":6748:6761   */\n      iszero\n        /* \"#utility.yul\":6741:6762   */\n      iszero\n        /* \"#utility.yul\":6734:6739   */\n      dup2\n        /* \"#utility.yul\":6731:6763   */\n      eq\n        /* \"#utility.yul\":6721:6781   */\n      tag_155\n      jumpi\n        /* \"#utility.yul\":6777:6778   */\n      0x00\n        /* \"#utility.yul\":6774:6775   */\n      dup1\n        /* \"#utility.yul\":6767:6779   */\n      revert\n\n    auxdata: 0xa2646970667358221220761cb3177c7cd373099e62ba2b1bd2b4047f455e398aa44d09439dbfb83e0a7964736f6c634300081a0033\n}\n\nsub_1: assembly {\n        /* \"contracts/token factory/testAlgebrav2.sol\":2923:4705  contract SimpleERC20 {... */\n      mstore(0x40, 0x80)\n        /* \"contracts/token factory/testAlgebrav2.sol\":3000:3026  uint8 public decimals = 18 */\n      0x02\n      dup1\n      sload\n      not(0xff)\n      and\n        /* \"contracts/token factory/testAlgebrav2.sol\":3024:3026  18 */\n      0x12\n        /* \"contracts/token factory/testAlgebrav2.sol\":3000:3026  uint8 public decimals = 18 */\n      or\n      swap1\n      sstore\n        /* \"contracts/token factory/testAlgebrav2.sol\":3346:3570  constructor(... */\n      callvalue\n      dup1\n      iszero\n      tag_1\n      jumpi\n      0x00\n      dup1\n      revert\n    tag_1:\n      pop\n      mload(0x40)\n      sub(codesize, bytecodeSize)\n      dup1\n      bytecodeSize\n      dup4\n      codecopy\n      dup2\n      add\n      0x40\n      dup2\n      swap1\n      mstore\n      tag_2\n      swap2\n      tag_3\n      jump\t// in\n    tag_2:\n        /* \"contracts/token factory/testAlgebrav2.sol\":3488:3492  name */\n      0x00\n        /* \"contracts/token factory/testAlgebrav2.sol\":3488:3500  name = _name */\n      tag_6\n        /* \"contracts/token factory/testAlgebrav2.sol\":3495:3500  _name */\n      dup6\n        /* \"contracts/token factory/testAlgebrav2.sol\":3488:3492  name */\n      dup3\n        /* \"contracts/token factory/testAlgebrav2.sol\":3488:3500  name = _name */\n      tag_7\n      jump\t// in\n    tag_6:\n      pop\n        /* \"contracts/token factory/testAlgebrav2.sol\":3510:3516  symbol */\n      0x01\n        /* \"contracts/token factory/testAlgebrav2.sol\":3510:3526  symbol = _symbol */\n      tag_8\n        /* \"contracts/token factory/testAlgebrav2.sol\":3519:3526  _symbol */\n      dup5\n        /* \"contracts/token factory/testAlgebrav2.sol\":3510:3516  symbol */\n      dup3\n        /* \"contracts/token factory/testAlgebrav2.sol\":3510:3526  symbol = _symbol */\n      tag_7\n      jump\t// in\n    tag_8:\n      pop\n        /* \"contracts/token factory/testAlgebrav2.sol\":3536:3563  _mint(_owner, _initialMint) */\n      tag_9\n        /* \"contracts/token factory/testAlgebrav2.sol\":3542:3548  _owner */\n      dup2\n        /* \"contracts/token factory/testAlgebrav2.sol\":3550:3562  _initialMint */\n      dup4\n        /* \"contracts/token factory/testAlgebrav2.sol\":3536:3541  _mint */\n      tag_10\n        /* \"contracts/token factory/testAlgebrav2.sol\":3536:3563  _mint(_owner, _initialMint) */\n      jump\t// in\n    tag_9:\n        /* \"contracts/token factory/testAlgebrav2.sol\":3346:3570  constructor(... */\n      pop\n      pop\n      pop\n      pop\n        /* \"contracts/token factory/testAlgebrav2.sol\":2923:4705  contract SimpleERC20 {... */\n      jump(tag_24)\n        /* \"contracts/token factory/testAlgebrav2.sol\":3576:3746  function _mint(address to, uint256 amount) internal {... */\n    tag_10:\n        /* \"contracts/token factory/testAlgebrav2.sol\":3653:3659  amount */\n      dup1\n        /* \"contracts/token factory/testAlgebrav2.sol\":3638:3649  totalSupply */\n      0x03\n      0x00\n        /* \"contracts/token factory/testAlgebrav2.sol\":3638:3659  totalSupply += amount */\n      dup3\n      dup3\n      sload\n      tag_13\n      swap2\n      swap1\n      tag_14\n      jump\t// in\n    tag_13:\n      swap1\n      swap2\n      sstore\n      pop\n      pop\n      sub(shl(0xa0, 0x01), 0x01)\n        /* \"contracts/token factory/testAlgebrav2.sol\":3669:3682  balanceOf[to] */\n      dup3\n      and\n      0x00\n      swap1\n      dup2\n      mstore\n        /* \"contracts/token factory/testAlgebrav2.sol\":3669:3678  balanceOf */\n      0x04\n        /* \"contracts/token factory/testAlgebrav2.sol\":3669:3682  balanceOf[to] */\n      0x20\n      mstore\n      0x40\n      dup2\n      keccak256\n        /* \"contracts/token factory/testAlgebrav2.sol\":3669:3692  balanceOf[to] += amount */\n      dup1\n      sload\n        /* \"contracts/token factory/testAlgebrav2.sol\":3686:3692  amount */\n      dup4\n      swap3\n        /* \"contracts/token factory/testAlgebrav2.sol\":3669:3682  balanceOf[to] */\n      swap1\n        /* \"contracts/token factory/testAlgebrav2.sol\":3669:3692  balanceOf[to] += amount */\n      tag_15\n      swap1\n        /* \"contracts/token factory/testAlgebrav2.sol\":3686:3692  amount */\n      dup5\n      swap1\n        /* \"contracts/token factory/testAlgebrav2.sol\":3669:3692  balanceOf[to] += amount */\n      tag_14\n      jump\t// in\n    tag_15:\n      swap1\n      swap2\n      sstore\n      pop\n      pop\n        /* \"contracts/token factory/testAlgebrav2.sol\":3707:3739  Transfer(address(0), to, amount) */\n      mload(0x40)\n        /* \"#utility.yul\":4658:4683   */\n      dup2\n      dup2\n      mstore\n      sub(shl(0xa0, 0x01), 0x01)\n        /* \"contracts/token factory/testAlgebrav2.sol\":3707:3739  Transfer(address(0), to, amount) */\n      dup4\n      and\n      swap1\n        /* \"contracts/token factory/testAlgebrav2.sol\":3724:3725  0 */\n      0x00\n      swap1\n        /* \"contracts/token factory/testAlgebrav2.sol\":3707:3739  Transfer(address(0), to, amount) */\n      0xddf252ad1be2c89b69c2b068fc378daa952ba7f163c4a11628f55a4df523b3ef\n      swap1\n        /* \"#utility.yul\":4646:4648   */\n      0x20\n        /* \"#utility.yul\":4631:4649   */\n      add\n        /* \"contracts/token factory/testAlgebrav2.sol\":3707:3739  Transfer(address(0), to, amount) */\n      mload(0x40)\n      dup1\n      swap2\n      sub\n      swap1\n      log3\n        /* \"contracts/token factory/testAlgebrav2.sol\":3576:3746  function _mint(address to, uint256 amount) internal {... */\n      pop\n      pop\n      jump\t// out\n        /* \"#utility.yul\":14:141   */\n    tag_18:\n        /* \"#utility.yul\":75:85   */\n      0x4e487b71\n        /* \"#utility.yul\":70:73   */\n      0xe0\n        /* \"#utility.yul\":66:86   */\n      shl\n        /* \"#utility.yul\":63:64   */\n      0x00\n        /* \"#utility.yul\":56:87   */\n      mstore\n        /* \"#utility.yul\":106:110   */\n      0x41\n        /* \"#utility.yul\":103:104   */\n      0x04\n        /* \"#utility.yul\":96:111   */\n      mstore\n        /* \"#utility.yul\":130:134   */\n      0x24\n        /* \"#utility.yul\":127:128   */\n      0x00\n        /* \"#utility.yul\":120:135   */\n      revert\n        /* \"#utility.yul\":146:980   */\n    tag_19:\n        /* \"#utility.yul\":200:205   */\n      0x00\n        /* \"#utility.yul\":253:256   */\n      dup3\n        /* \"#utility.yul\":246:250   */\n      0x1f\n        /* \"#utility.yul\":238:244   */\n      dup4\n        /* \"#utility.yul\":234:251   */\n      add\n        /* \"#utility.yul\":230:257   */\n      slt\n        /* \"#utility.yul\":220:275   */\n      tag_27\n      jumpi\n        /* \"#utility.yul\":271:272   */\n      0x00\n        /* \"#utility.yul\":268:269   */\n      dup1\n        /* \"#utility.yul\":261:273   */\n      revert\n        /* \"#utility.yul\":220:275   */\n    tag_27:\n        /* \"#utility.yul\":298:311   */\n      dup2\n      mload\n      sub(shl(0x40, 0x01), 0x01)\n        /* \"#utility.yul\":323:353   */\n      dup2\n      gt\n        /* \"#utility.yul\":320:376   */\n      iszero\n      tag_29\n      jumpi\n        /* \"#utility.yul\":356:374   */\n      tag_29\n      tag_18\n      jump\t// in\n    tag_29:\n        /* \"#utility.yul\":405:407   */\n      0x40\n        /* \"#utility.yul\":399:408   */\n      mload\n        /* \"#utility.yul\":497:499   */\n      0x1f\n        /* \"#utility.yul\":459:476   */\n      dup3\n      add\n      not(0x1f)\n        /* \"#utility.yul\":455:486   */\n      swap1\n      dup2\n      and\n        /* \"#utility.yul\":488:490   */\n      0x3f\n        /* \"#utility.yul\":451:491   */\n      add\n        /* \"#utility.yul\":447:501   */\n      and\n        /* \"#utility.yul\":435:502   */\n      dup2\n      add\n      sub(shl(0x40, 0x01), 0x01)\n        /* \"#utility.yul\":517:551   */\n      dup2\n      gt\n        /* \"#utility.yul\":553:575   */\n      dup3\n      dup3\n      lt\n        /* \"#utility.yul\":514:576   */\n      or\n        /* \"#utility.yul\":511:599   */\n      iszero\n      tag_31\n      jumpi\n        /* \"#utility.yul\":579:597   */\n      tag_31\n      tag_18\n      jump\t// in\n    tag_31:\n        /* \"#utility.yul\":615:617   */\n      0x40\n        /* \"#utility.yul\":608:630   */\n      mstore\n        /* \"#utility.yul\":639:661   */\n      dup2\n      dup2\n      mstore\n        /* \"#utility.yul\":680:699   */\n      dup4\n      dup3\n      add\n        /* \"#utility.yul\":701:705   */\n      0x20\n        /* \"#utility.yul\":676:706   */\n      add\n        /* \"#utility.yul\":673:712   */\n      dup6\n      lt\n        /* \"#utility.yul\":670:729   */\n      iszero\n      tag_32\n      jumpi\n        /* \"#utility.yul\":725:726   */\n      0x00\n        /* \"#utility.yul\":722:723   */\n      dup1\n        /* \"#utility.yul\":715:727   */\n      revert\n        /* \"#utility.yul\":670:729   */\n    tag_32:\n        /* \"#utility.yul\":747:748   */\n      0x00\n        /* \"#utility.yul\":757:900   */\n    tag_33:\n        /* \"#utility.yul\":771:777   */\n      dup3\n        /* \"#utility.yul\":768:769   */\n      dup2\n        /* \"#utility.yul\":765:778   */\n      lt\n        /* \"#utility.yul\":757:900   */\n      iszero\n      tag_35\n      jumpi\n        /* \"#utility.yul\":883:887   */\n      0x20\n        /* \"#utility.yul\":867:881   */\n      dup2\n      dup7\n      add\n        /* \"#utility.yul\":863:888   */\n      dup2\n      add\n        /* \"#utility.yul\":857:889   */\n      mload\n        /* \"#utility.yul\":834:848   */\n      dup4\n      dup4\n      add\n        /* \"#utility.yul\":830:855   */\n      dup3\n      add\n        /* \"#utility.yul\":823:890   */\n      mstore\n        /* \"#utility.yul\":786:798   */\n      add\n        /* \"#utility.yul\":757:900   */\n      jump(tag_33)\n    tag_35:\n      pop\n        /* \"#utility.yul\":948:949   */\n      0x00\n        /* \"#utility.yul\":920:939   */\n      swap2\n      dup2\n      add\n        /* \"#utility.yul\":941:945   */\n      0x20\n        /* \"#utility.yul\":916:946   */\n      add\n        /* \"#utility.yul\":909:950   */\n      swap2\n      swap1\n      swap2\n      mstore\n        /* \"#utility.yul\":924:930   */\n      swap4\n        /* \"#utility.yul\":146:980   */\n      swap3\n      pop\n      pop\n      pop\n      jump\t// out\n        /* \"#utility.yul\":985:1771   */\n    tag_3:\n        /* \"#utility.yul\":1102:1108   */\n      0x00\n        /* \"#utility.yul\":1110:1116   */\n      dup1\n        /* \"#utility.yul\":1118:1124   */\n      0x00\n        /* \"#utility.yul\":1126:1132   */\n      dup1\n        /* \"#utility.yul\":1179:1182   */\n      0x80\n        /* \"#utility.yul\":1167:1176   */\n      dup6\n        /* \"#utility.yul\":1158:1165   */\n      dup8\n        /* \"#utility.yul\":1154:1177   */\n      sub\n        /* \"#utility.yul\":1150:1183   */\n      slt\n        /* \"#utility.yul\":1147:1200   */\n      iszero\n      tag_37\n      jumpi\n        /* \"#utility.yul\":1196:1197   */\n      0x00\n        /* \"#utility.yul\":1193:1194   */\n      dup1\n        /* \"#utility.yul\":1186:1198   */\n      revert\n        /* \"#utility.yul\":1147:1200   */\n    tag_37:\n        /* \"#utility.yul\":1223:1239   */\n      dup5\n      mload\n      sub(shl(0x40, 0x01), 0x01)\n        /* \"#utility.yul\":1251:1281   */\n      dup2\n      gt\n        /* \"#utility.yul\":1248:1298   */\n      iszero\n      tag_38\n      jumpi\n        /* \"#utility.yul\":1294:1295   */\n      0x00\n        /* \"#utility.yul\":1291:1292   */\n      dup1\n        /* \"#utility.yul\":1284:1296   */\n      revert\n        /* \"#utility.yul\":1248:1298   */\n    tag_38:\n        /* \"#utility.yul\":1317:1378   */\n      tag_39\n        /* \"#utility.yul\":1370:1377   */\n      dup8\n        /* \"#utility.yul\":1361:1367   */\n      dup3\n        /* \"#utility.yul\":1350:1359   */\n      dup9\n        /* \"#utility.yul\":1346:1368   */\n      add\n        /* \"#utility.yul\":1317:1378   */\n      tag_19\n      jump\t// in\n    tag_39:\n        /* \"#utility.yul\":1424:1426   */\n      0x20\n        /* \"#utility.yul\":1409:1427   */\n      dup8\n      add\n        /* \"#utility.yul\":1403:1428   */\n      mload\n        /* \"#utility.yul\":1307:1378   */\n      swap1\n      swap6\n      pop\n        /* \"#utility.yul\":1403:1428   */\n      swap1\n      pop\n      sub(shl(0x40, 0x01), 0x01)\n        /* \"#utility.yul\":1440:1472   */\n      dup2\n      gt\n        /* \"#utility.yul\":1437:1489   */\n      iszero\n      tag_40\n      jumpi\n        /* \"#utility.yul\":1485:1486   */\n      0x00\n        /* \"#utility.yul\":1482:1483   */\n      dup1\n        /* \"#utility.yul\":1475:1487   */\n      revert\n        /* \"#utility.yul\":1437:1489   */\n    tag_40:\n        /* \"#utility.yul\":1508:1571   */\n      tag_41\n        /* \"#utility.yul\":1563:1570   */\n      dup8\n        /* \"#utility.yul\":1552:1560   */\n      dup3\n        /* \"#utility.yul\":1541:1550   */\n      dup9\n        /* \"#utility.yul\":1537:1561   */\n      add\n        /* \"#utility.yul\":1508:1571   */\n      tag_19\n      jump\t// in\n    tag_41:\n        /* \"#utility.yul\":1611:1613   */\n      0x40\n        /* \"#utility.yul\":1596:1614   */\n      dup8\n      add\n        /* \"#utility.yul\":1590:1615   */\n      mload\n        /* \"#utility.yul\":1658:1660   */\n      0x60\n        /* \"#utility.yul\":1643:1661   */\n      dup9\n      add\n        /* \"#utility.yul\":1637:1662   */\n      mload\n        /* \"#utility.yul\":1498:1571   */\n      swap2\n      swap6\n      pop\n        /* \"#utility.yul\":1590:1615   */\n      swap4\n      pop\n        /* \"#utility.yul\":1637:1662   */\n      swap1\n      pop\n      sub(shl(0xa0, 0x01), 0x01)\n        /* \"#utility.yul\":1691:1722   */\n      dup2\n      and\n        /* \"#utility.yul\":1681:1723   */\n      dup2\n      eq\n        /* \"#utility.yul\":1671:1741   */\n      tag_42\n      jumpi\n        /* \"#utility.yul\":1737:1738   */\n      0x00\n        /* \"#utility.yul\":1734:1735   */\n      dup1\n        /* \"#utility.yul\":1727:1739   */\n      revert\n        /* \"#utility.yul\":1671:1741   */\n    tag_42:\n        /* \"#utility.yul\":985:1771   */\n      swap4\n      swap7\n      swap3\n      swap6\n      pop\n      swap1\n      swap4\n      pop\n      pop\n      jump\t// out\n        /* \"#utility.yul\":1776:2156   */\n    tag_20:\n        /* \"#utility.yul\":1855:1856   */\n      0x01\n        /* \"#utility.yul\":1851:1863   */\n      dup2\n      dup2\n      shr\n      swap1\n        /* \"#utility.yul\":1898:1910   */\n      dup3\n      and\n      dup1\n        /* \"#utility.yul\":1919:1980   */\n      tag_44\n      jumpi\n        /* \"#utility.yul\":1973:1977   */\n      0x7f\n        /* \"#utility.yul\":1965:1971   */\n      dup3\n        /* \"#utility.yul\":1961:1978   */\n      and\n        /* \"#utility.yul\":1951:1978   */\n      swap2\n      pop\n        /* \"#utility.yul\":1919:1980   */\n    tag_44:\n        /* \"#utility.yul\":2026:2028   */\n      0x20\n        /* \"#utility.yul\":2018:2024   */\n      dup3\n        /* \"#utility.yul\":2015:2029   */\n      lt\n        /* \"#utility.yul\":1995:2013   */\n      dup2\n        /* \"#utility.yul\":1992:2030   */\n      sub\n        /* \"#utility.yul\":1989:2150   */\n      tag_45\n      jumpi\n        /* \"#utility.yul\":2072:2082   */\n      0x4e487b71\n        /* \"#utility.yul\":2067:2070   */\n      0xe0\n        /* \"#utility.yul\":2063:2083   */\n      shl\n        /* \"#utility.yul\":2060:2061   */\n      0x00\n        /* \"#utility.yul\":2053:2084   */\n      mstore\n        /* \"#utility.yul\":2107:2111   */\n      0x22\n        /* \"#utility.yul\":2104:2105   */\n      0x04\n        /* \"#utility.yul\":2097:2112   */\n      mstore\n        /* \"#utility.yul\":2135:2139   */\n      0x24\n        /* \"#utility.yul\":2132:2133   */\n      0x00\n        /* \"#utility.yul\":2125:2140   */\n      revert\n        /* \"#utility.yul\":1989:2150   */\n    tag_45:\n      pop\n        /* \"#utility.yul\":1776:2156   */\n      swap2\n      swap1\n      pop\n      jump\t// out\n        /* \"#utility.yul\":2287:2805   */\n    tag_22:\n        /* \"#utility.yul\":2389:2391   */\n      0x1f\n        /* \"#utility.yul\":2384:2387   */\n      dup3\n        /* \"#utility.yul\":2381:2392   */\n      gt\n        /* \"#utility.yul\":2378:2799   */\n      iszero\n      tag_48\n      jumpi\n        /* \"#utility.yul\":2425:2430   */\n      dup1\n        /* \"#utility.yul\":2422:2423   */\n      0x00\n        /* \"#utility.yul\":2415:2431   */\n      mstore\n        /* \"#utility.yul\":2469:2473   */\n      0x20\n        /* \"#utility.yul\":2466:2467   */\n      0x00\n        /* \"#utility.yul\":2456:2474   */\n      keccak256\n        /* \"#utility.yul\":2539:2541   */\n      0x1f\n        /* \"#utility.yul\":2527:2537   */\n      dup5\n        /* \"#utility.yul\":2523:2542   */\n      add\n        /* \"#utility.yul\":2520:2521   */\n      0x05\n        /* \"#utility.yul\":2516:2543   */\n      shr\n        /* \"#utility.yul\":2510:2514   */\n      dup2\n        /* \"#utility.yul\":2506:2544   */\n      add\n        /* \"#utility.yul\":2575:2579   */\n      0x20\n        /* \"#utility.yul\":2563:2573   */\n      dup6\n        /* \"#utility.yul\":2560:2580   */\n      lt\n        /* \"#utility.yul\":2557:2604   */\n      iszero\n      tag_49\n      jumpi\n      pop\n        /* \"#utility.yul\":2598:2602   */\n      dup1\n        /* \"#utility.yul\":2557:2604   */\n    tag_49:\n        /* \"#utility.yul\":2653:2655   */\n      0x1f\n        /* \"#utility.yul\":2648:2651   */\n      dup5\n        /* \"#utility.yul\":2644:2656   */\n      add\n        /* \"#utility.yul\":2641:2642   */\n      0x05\n        /* \"#utility.yul\":2637:2657   */\n      shr\n        /* \"#utility.yul\":2631:2635   */\n      dup3\n        /* \"#utility.yul\":2627:2658   */\n      add\n        /* \"#utility.yul\":2617:2658   */\n      swap2\n      pop\n        /* \"#utility.yul\":2708:2789   */\n    tag_50:\n        /* \"#utility.yul\":2726:2728   */\n      dup2\n        /* \"#utility.yul\":2719:2724   */\n      dup2\n        /* \"#utility.yul\":2716:2729   */\n      lt\n        /* \"#utility.yul\":2708:2789   */\n      iszero\n      tag_52\n      jumpi\n        /* \"#utility.yul\":2785:2786   */\n      0x00\n        /* \"#utility.yul\":2771:2787   */\n      dup2\n      sstore\n        /* \"#utility.yul\":2752:2753   */\n      0x01\n        /* \"#utility.yul\":2741:2754   */\n      add\n        /* \"#utility.yul\":2708:2789   */\n      jump(tag_50)\n    tag_52:\n        /* \"#utility.yul\":2712:2715   */\n      pop\n      pop\n        /* \"#utility.yul\":2378:2799   */\n    tag_48:\n        /* \"#utility.yul\":2287:2805   */\n      pop\n      pop\n      pop\n      jump\t// out\n        /* \"#utility.yul\":2981:4280   */\n    tag_7:\n        /* \"#utility.yul\":3101:3111   */\n      dup2\n      mload\n      sub(shl(0x40, 0x01), 0x01)\n        /* \"#utility.yul\":3123:3153   */\n      dup2\n      gt\n        /* \"#utility.yul\":3120:3176   */\n      iszero\n      tag_56\n      jumpi\n        /* \"#utility.yul\":3156:3174   */\n      tag_56\n      tag_18\n      jump\t// in\n    tag_56:\n        /* \"#utility.yul\":3185:3282   */\n      tag_57\n        /* \"#utility.yul\":3275:3281   */\n      dup2\n        /* \"#utility.yul\":3235:3273   */\n      tag_58\n        /* \"#utility.yul\":3267:3271   */\n      dup5\n        /* \"#utility.yul\":3261:3272   */\n      sload\n        /* \"#utility.yul\":3235:3273   */\n      tag_20\n      jump\t// in\n    tag_58:\n        /* \"#utility.yul\":3229:3233   */\n      dup5\n        /* \"#utility.yul\":3185:3282   */\n      tag_22\n      jump\t// in\n    tag_57:\n        /* \"#utility.yul\":3331:3335   */\n      0x20\n        /* \"#utility.yul\":3362:3364   */\n      0x1f\n        /* \"#utility.yul\":3351:3365   */\n      dup3\n      gt\n        /* \"#utility.yul\":3379:3380   */\n      0x01\n        /* \"#utility.yul\":3374:4023   */\n      dup2\n      eq\n      tag_60\n      jumpi\n        /* \"#utility.yul\":4067:4068   */\n      0x00\n        /* \"#utility.yul\":4084:4090   */\n      dup4\n        /* \"#utility.yul\":4081:4170   */\n      iszero\n      tag_61\n      jumpi\n      pop\n        /* \"#utility.yul\":4136:4155   */\n      dup5\n      dup3\n      add\n        /* \"#utility.yul\":4130:4156   */\n      mload\n        /* \"#utility.yul\":4081:4170   */\n    tag_61:\n      not(0x00)\n        /* \"#utility.yul\":2938:2939   */\n      0x03\n        /* \"#utility.yul\":2934:2945   */\n      dup6\n      swap1\n      shl\n        /* \"#utility.yul\":2930:2954   */\n      shr\n        /* \"#utility.yul\":2926:2955   */\n      not\n        /* \"#utility.yul\":2916:2956   */\n      and\n        /* \"#utility.yul\":2962:2963   */\n      0x01\n        /* \"#utility.yul\":2958:2969   */\n      dup5\n      swap1\n      shl\n        /* \"#utility.yul\":2913:2970   */\n      or\n        /* \"#utility.yul\":4183:4264   */\n      dup5\n      sstore\n        /* \"#utility.yul\":3344:4274   */\n      jump(tag_52)\n        /* \"#utility.yul\":3374:4023   */\n    tag_60:\n        /* \"#utility.yul\":2234:2235   */\n      0x00\n        /* \"#utility.yul\":2227:2241   */\n      dup5\n      dup2\n      mstore\n        /* \"#utility.yul\":2271:2275   */\n      0x20\n        /* \"#utility.yul\":2258:2276   */\n      dup2\n      keccak256\n      not(0x1f)\n        /* \"#utility.yul\":3410:3430   */\n      dup6\n      and\n      swap2\n        /* \"#utility.yul\":3528:3750   */\n    tag_64:\n        /* \"#utility.yul\":3542:3549   */\n      dup3\n        /* \"#utility.yul\":3539:3540   */\n      dup2\n        /* \"#utility.yul\":3536:3550   */\n      lt\n        /* \"#utility.yul\":3528:3750   */\n      iszero\n      tag_66\n      jumpi\n        /* \"#utility.yul\":3624:3643   */\n      dup8\n      dup6\n      add\n        /* \"#utility.yul\":3618:3644   */\n      mload\n        /* \"#utility.yul\":3603:3645   */\n      dup3\n      sstore\n        /* \"#utility.yul\":3731:3735   */\n      0x20\n        /* \"#utility.yul\":3716:3736   */\n      swap5\n      dup6\n      add\n      swap5\n        /* \"#utility.yul\":3684:3685   */\n      0x01\n        /* \"#utility.yul\":3672:3686   */\n      swap1\n      swap3\n      add\n      swap2\n        /* \"#utility.yul\":3558:3570   */\n      add\n        /* \"#utility.yul\":3528:3750   */\n      jump(tag_64)\n    tag_66:\n        /* \"#utility.yul\":3532:3535   */\n      pop\n        /* \"#utility.yul\":3778:3784   */\n      dup5\n        /* \"#utility.yul\":3769:3776   */\n      dup3\n        /* \"#utility.yul\":3766:3785   */\n      lt\n        /* \"#utility.yul\":3763:3964   */\n      iszero\n      tag_67\n      jumpi\n        /* \"#utility.yul\":3839:3858   */\n      dup7\n      dup5\n      add\n        /* \"#utility.yul\":3833:3859   */\n      mload\n      not(0x00)\n        /* \"#utility.yul\":3922:3923   */\n      0x03\n        /* \"#utility.yul\":3918:3932   */\n      dup8\n      swap1\n      shl\n        /* \"#utility.yul\":3934:3937   */\n      0xf8\n        /* \"#utility.yul\":3914:3938   */\n      and\n        /* \"#utility.yul\":3910:3947   */\n      shr\n        /* \"#utility.yul\":3906:3948   */\n      not\n        /* \"#utility.yul\":3891:3949   */\n      and\n        /* \"#utility.yul\":3876:3950   */\n      dup2\n      sstore\n        /* \"#utility.yul\":3763:3964   */\n    tag_67:\n      pop\n      pop\n      pop\n      pop\n        /* \"#utility.yul\":4010:4011   */\n      0x01\n        /* \"#utility.yul\":3994:4008   */\n      swap1\n      dup2\n      shl\n        /* \"#utility.yul\":3990:4012   */\n      add\n        /* \"#utility.yul\":3977:4013   */\n      swap1\n      sstore\n      pop\n        /* \"#utility.yul\":2981:4280   */\n      jump\t// out\n        /* \"#utility.yul\":4285:4507   */\n    tag_14:\n        /* \"#utility.yul\":4350:4359   */\n      dup1\n      dup3\n      add\n        /* \"#utility.yul\":4371:4381   */\n      dup1\n      dup3\n      gt\n        /* \"#utility.yul\":4368:4501   */\n      iszero\n      tag_69\n      jumpi\n        /* \"#utility.yul\":4423:4433   */\n      0x4e487b71\n        /* \"#utility.yul\":4418:4421   */\n      0xe0\n        /* \"#utility.yul\":4414:4434   */\n      shl\n        /* \"#utility.yul\":4411:4412   */\n      0x00\n        /* \"#utility.yul\":4404:4435   */\n      mstore\n        /* \"#utility.yul\":4458:4462   */\n      0x11\n        /* \"#utility.yul\":4455:4456   */\n      0x04\n        /* \"#utility.yul\":4448:4463   */\n      mstore\n        /* \"#utility.yul\":4486:4490   */\n      0x24\n        /* \"#utility.yul\":4483:4484   */\n      0x00\n        /* \"#utility.yul\":4476:4491   */\n      revert\n        /* \"#utility.yul\":4368:4501   */\n    tag_69:\n        /* \"#utility.yul\":4285:4507   */\n      swap3\n      swap2\n      pop\n      pop\n      jump\t// out\n        /* \"#utility.yul\":4512:4689   */\n    tag_24:\n        /* \"contracts/token factory/testAlgebrav2.sol\":2923:4705  contract SimpleERC20 {... */\n      dataSize(sub_0)\n      dup1\n      dataOffset(sub_0)\n      0x00\n      codecopy\n      0x00\n      return\n    stop\n\n    sub_0: assembly {\n            /* \"contracts/token factory/testAlgebrav2.sol\":2923:4705  contract SimpleERC20 {... */\n          mstore(0x40, 0x80)\n          callvalue\n          dup1\n          iszero\n          tag_1\n          jumpi\n          0x00\n          dup1\n          revert\n        tag_1:\n          pop\n          jumpi(tag_2, lt(calldatasize, 0x04))\n          shr(0xe0, calldataload(0x00))\n          dup1\n          0x313ce567\n          gt\n          tag_12\n          jumpi\n          dup1\n          0x313ce567\n          eq\n          tag_7\n          jumpi\n          dup1\n          0x70a08231\n          eq\n          tag_8\n          jumpi\n          dup1\n          0x95d89b41\n          eq\n          tag_9\n          jumpi\n          dup1\n          0xa9059cbb\n          eq\n          tag_10\n          jumpi\n          dup1\n          0xdd62ed3e\n          eq\n          tag_11\n          jumpi\n          0x00\n          dup1\n          revert\n        tag_12:\n          dup1\n          0x06fdde03\n          eq\n          tag_3\n          jumpi\n          dup1\n          0x095ea7b3\n          eq\n          tag_4\n          jumpi\n          dup1\n          0x18160ddd\n          eq\n          tag_5\n          jumpi\n          dup1\n          0x23b872dd\n          eq\n          tag_6\n          jumpi\n        tag_2:\n          0x00\n          dup1\n          revert\n            /* \"contracts/token factory/testAlgebrav2.sol\":2950:2968  string public name */\n        tag_3:\n          tag_13\n          tag_14\n          jump\t// in\n        tag_13:\n          mload(0x40)\n          tag_15\n          swap2\n          swap1\n          tag_16\n          jump\t// in\n        tag_15:\n          mload(0x40)\n          dup1\n          swap2\n          sub\n          swap1\n          return\n            /* \"contracts/token factory/testAlgebrav2.sol\":4058:4261  function approve(address spender, uint256 amount) external returns (bool) {... */\n        tag_4:\n          tag_17\n          tag_18\n          calldatasize\n          0x04\n          tag_19\n          jump\t// in\n        tag_18:\n          tag_20\n          jump\t// in\n        tag_17:\n          mload(0x40)\n            /* \"#utility.yul\":1194:1208   */\n          swap1\n          iszero\n            /* \"#utility.yul\":1187:1209   */\n          iszero\n            /* \"#utility.yul\":1169:1210   */\n          dup2\n          mstore\n            /* \"#utility.yul\":1157:1159   */\n          0x20\n            /* \"#utility.yul\":1142:1160   */\n          add\n            /* \"contracts/token factory/testAlgebrav2.sol\":4058:4261  function approve(address spender, uint256 amount) external returns (bool) {... */\n          tag_15\n            /* \"#utility.yul\":1029:1216   */\n          jump\n            /* \"contracts/token factory/testAlgebrav2.sol\":3032:3058  uint256 public totalSupply */\n        tag_5:\n          tag_23\n          sload(0x03)\n          dup2\n          jump\n        tag_23:\n          mload(0x40)\n            /* \"#utility.yul\":1367:1392   */\n          swap1\n          dup2\n          mstore\n            /* \"#utility.yul\":1355:1357   */\n          0x20\n            /* \"#utility.yul\":1340:1358   */\n          add\n            /* \"contracts/token factory/testAlgebrav2.sol\":3032:3058  uint256 public totalSupply */\n          tag_15\n            /* \"#utility.yul\":1221:1398   */\n          jump\n            /* \"contracts/token factory/testAlgebrav2.sol\":4267:4703  function transferFrom(address from, address to, uint256 amount) external returns (bool) {... */\n        tag_6:\n          tag_17\n          tag_28\n          calldatasize\n          0x04\n          tag_29\n          jump\t// in\n        tag_28:\n          tag_30\n          jump\t// in\n            /* \"contracts/token factory/testAlgebrav2.sol\":3000:3026  uint8 public decimals = 18 */\n        tag_7:\n          sload(0x02)\n          tag_32\n          swap1\n          0xff\n          and\n          dup2\n          jump\n        tag_32:\n          mload(0x40)\n            /* \"#utility.yul\":1954:1958   */\n          0xff\n            /* \"#utility.yul\":1942:1959   */\n          swap1\n          swap2\n          and\n            /* \"#utility.yul\":1924:1960   */\n          dup2\n          mstore\n            /* \"#utility.yul\":1912:1914   */\n          0x20\n            /* \"#utility.yul\":1897:1915   */\n          add\n            /* \"contracts/token factory/testAlgebrav2.sol\":3000:3026  uint8 public decimals = 18 */\n          tag_15\n            /* \"#utility.yul\":1782:1966   */\n          jump\n            /* \"contracts/token factory/testAlgebrav2.sol\":3064:3108  mapping(address => uint256) public balanceOf */\n        tag_8:\n          tag_23\n          tag_37\n          calldatasize\n          0x04\n          tag_38\n          jump\t// in\n        tag_37:\n          mstore(0x20, 0x04)\n          0x00\n          swap1\n          dup2\n          mstore\n          0x40\n          swap1\n          keccak256\n          sload\n          dup2\n          jump\n            /* \"contracts/token factory/testAlgebrav2.sol\":2974:2994  string public symbol */\n        tag_9:\n          tag_13\n          tag_42\n          jump\t// in\n            /* \"contracts/token factory/testAlgebrav2.sol\":3752:4052  function transfer(address to, uint256 amount) external returns (bool) {... */\n        tag_10:\n          tag_17\n          tag_45\n          calldatasize\n          0x04\n          tag_19\n          jump\t// in\n        tag_45:\n          tag_46\n          jump\t// in\n            /* \"contracts/token factory/testAlgebrav2.sol\":3114:3178  mapping(address => mapping(address => uint256)) public allowance */\n        tag_11:\n          tag_23\n          tag_49\n          calldatasize\n          0x04\n          tag_50\n          jump\t// in\n        tag_49:\n          0x05\n          0x20\n          swap1\n          dup2\n          mstore\n          0x00\n          swap3\n          dup4\n          mstore\n          0x40\n          dup1\n          dup5\n          keccak256\n          swap1\n          swap2\n          mstore\n          swap1\n          dup3\n          mstore\n          swap1\n          keccak256\n          sload\n          dup2\n          jump\n            /* \"contracts/token factory/testAlgebrav2.sol\":2950:2968  string public name */\n        tag_14:\n          0x00\n          dup1\n          sload\n          tag_53\n          swap1\n          tag_54\n          jump\t// in\n        tag_53:\n          dup1\n          0x1f\n          add\n          0x20\n          dup1\n          swap2\n          div\n          mul\n          0x20\n          add\n          mload(0x40)\n          swap1\n          dup2\n          add\n          0x40\n          mstore\n          dup1\n          swap3\n          swap2\n          swap1\n          dup2\n          dup2\n          mstore\n          0x20\n          add\n          dup3\n          dup1\n          sload\n          tag_55\n          swap1\n          tag_54\n          jump\t// in\n        tag_55:\n          dup1\n          iszero\n          tag_56\n          jumpi\n          dup1\n          0x1f\n          lt\n          tag_57\n          jumpi\n          0x0100\n          dup1\n          dup4\n          sload\n          div\n          mul\n          dup4\n          mstore\n          swap2\n          0x20\n          add\n          swap2\n          jump(tag_56)\n        tag_57:\n          dup3\n          add\n          swap2\n          swap1\n          0x00\n          mstore\n          keccak256(0x00, 0x20)\n          swap1\n        tag_58:\n          dup2\n          sload\n          dup2\n          mstore\n          swap1\n          0x01\n          add\n          swap1\n          0x20\n          add\n          dup1\n          dup4\n          gt\n          tag_58\n          jumpi\n          dup3\n          swap1\n          sub\n          0x1f\n          and\n          dup3\n          add\n          swap2\n        tag_56:\n          pop\n          pop\n          pop\n          pop\n          pop\n          dup2\n          jump\t// out\n            /* \"contracts/token factory/testAlgebrav2.sol\":4058:4261  function approve(address spender, uint256 amount) external returns (bool) {... */\n        tag_20:\n            /* \"contracts/token factory/testAlgebrav2.sol\":4152:4162  msg.sender */\n          caller\n            /* \"contracts/token factory/testAlgebrav2.sol\":4126:4130  bool */\n          0x00\n            /* \"contracts/token factory/testAlgebrav2.sol\":4142:4163  allowance[msg.sender] */\n          dup2\n          dup2\n          mstore\n            /* \"contracts/token factory/testAlgebrav2.sol\":4142:4151  allowance */\n          0x05\n            /* \"contracts/token factory/testAlgebrav2.sol\":4142:4163  allowance[msg.sender] */\n          0x20\n          swap1\n          dup2\n          mstore\n          0x40\n          dup1\n          dup4\n          keccak256\n          sub(shl(0xa0, 0x01), 0x01)\n            /* \"contracts/token factory/testAlgebrav2.sol\":4142:4172  allowance[msg.sender][spender] */\n          dup8\n          and\n          dup1\n          dup6\n          mstore\n          swap3\n          mstore\n          dup1\n          dup4\n          keccak256\n            /* \"contracts/token factory/testAlgebrav2.sol\":4142:4181  allowance[msg.sender][spender] = amount */\n          dup6\n          swap1\n          sstore\n            /* \"contracts/token factory/testAlgebrav2.sol\":4196:4233  Approval(msg.sender, spender, amount) */\n          mload\n            /* \"contracts/token factory/testAlgebrav2.sol\":4126:4130  bool */\n          swap2\n          swap3\n            /* \"contracts/token factory/testAlgebrav2.sol\":4142:4172  allowance[msg.sender][spender] */\n          swap1\n          swap2\n            /* \"contracts/token factory/testAlgebrav2.sol\":4196:4233  Approval(msg.sender, spender, amount) */\n          0x8c5be1e5ebec7d5bd14f71427d1e84f3dd0314c0f7b2291e5b200ac8c7c3b925\n          swap1\n          tag_60\n          swap1\n            /* \"contracts/token factory/testAlgebrav2.sol\":4175:4181  amount */\n          dup7\n            /* \"#utility.yul\":1367:1392   */\n          dup2\n          mstore\n            /* \"#utility.yul\":1355:1357   */\n          0x20\n            /* \"#utility.yul\":1340:1358   */\n          add\n          swap1\n            /* \"#utility.yul\":1221:1398   */\n          jump\n            /* \"contracts/token factory/testAlgebrav2.sol\":4196:4233  Approval(msg.sender, spender, amount) */\n        tag_60:\n          mload(0x40)\n          dup1\n          swap2\n          sub\n          swap1\n          log3\n          pop\n            /* \"contracts/token factory/testAlgebrav2.sol\":4250:4254  true */\n          0x01\n            /* \"contracts/token factory/testAlgebrav2.sol\":4058:4261  function approve(address spender, uint256 amount) external returns (bool) {... */\n        tag_59:\n          swap3\n          swap2\n          pop\n          pop\n          jump\t// out\n            /* \"contracts/token factory/testAlgebrav2.sol\":4267:4703  function transferFrom(address from, address to, uint256 amount) external returns (bool) {... */\n        tag_30:\n          sub(shl(0xa0, 0x01), 0x01)\n            /* \"contracts/token factory/testAlgebrav2.sol\":4373:4388  balanceOf[from] */\n          dup4\n          and\n            /* \"contracts/token factory/testAlgebrav2.sol\":4349:4353  bool */\n          0x00\n            /* \"contracts/token factory/testAlgebrav2.sol\":4373:4388  balanceOf[from] */\n          swap1\n          dup2\n          mstore\n            /* \"contracts/token factory/testAlgebrav2.sol\":4373:4382  balanceOf */\n          0x04\n            /* \"contracts/token factory/testAlgebrav2.sol\":4373:4388  balanceOf[from] */\n          0x20\n          mstore\n          0x40\n          dup2\n          keccak256\n          sload\n            /* \"contracts/token factory/testAlgebrav2.sol\":4373:4398  balanceOf[from] >= amount */\n          dup3\n          gt\n          iszero\n            /* \"contracts/token factory/testAlgebrav2.sol\":4365:4430  require(balanceOf[from] >= amount, \"ERC20: insufficient balance\") */\n          tag_62\n          jumpi\n          mload(0x40)\n          shl(0xe5, 0x461bcd)\n          dup2\n          mstore\n            /* \"#utility.yul\":3014:3016   */\n          0x20\n            /* \"contracts/token factory/testAlgebrav2.sol\":4365:4430  require(balanceOf[from] >= amount, \"ERC20: insufficient balance\") */\n          0x04\n          dup3\n          add\n            /* \"#utility.yul\":2996:3017   */\n          mstore\n            /* \"#utility.yul\":3053:3055   */\n          0x1b\n            /* \"#utility.yul\":3033:3051   */\n          0x24\n          dup3\n          add\n            /* \"#utility.yul\":3026:3056   */\n          mstore\n            /* \"#utility.yul\":3092:3121   */\n          0x45524332303a20696e73756666696369656e742062616c616e63650000000000\n            /* \"#utility.yul\":3072:3090   */\n          0x44\n          dup3\n          add\n            /* \"#utility.yul\":3065:3122   */\n          mstore\n            /* \"#utility.yul\":3139:3157   */\n          0x64\n          add\n            /* \"contracts/token factory/testAlgebrav2.sol\":4365:4430  require(balanceOf[from] >= amount, \"ERC20: insufficient balance\") */\n        tag_63:\n          mload(0x40)\n          dup1\n          swap2\n          sub\n          swap1\n          revert\n        tag_62:\n          sub(shl(0xa0, 0x01), 0x01)\n            /* \"contracts/token factory/testAlgebrav2.sol\":4448:4463  allowance[from] */\n          dup5\n          and\n          0x00\n          swap1\n          dup2\n          mstore\n            /* \"contracts/token factory/testAlgebrav2.sol\":4448:4457  allowance */\n          0x05\n            /* \"contracts/token factory/testAlgebrav2.sol\":4448:4463  allowance[from] */\n          0x20\n          swap1\n          dup2\n          mstore\n          0x40\n          dup1\n          dup4\n          keccak256\n            /* \"contracts/token factory/testAlgebrav2.sol\":4464:4474  msg.sender */\n          caller\n            /* \"contracts/token factory/testAlgebrav2.sol\":4448:4475  allowance[from][msg.sender] */\n          dup5\n          mstore\n          swap1\n          swap2\n          mstore\n          swap1\n          keccak256\n          sload\n            /* \"contracts/token factory/testAlgebrav2.sol\":4448:4485  allowance[from][msg.sender] >= amount */\n          dup3\n          gt\n          iszero\n            /* \"contracts/token factory/testAlgebrav2.sol\":4440:4519  require(allowance[from][msg.sender] >= amount, \"ERC20: insufficient allowance\") */\n          tag_65\n          jumpi\n          mload(0x40)\n          shl(0xe5, 0x461bcd)\n          dup2\n          mstore\n            /* \"#utility.yul\":3370:3372   */\n          0x20\n            /* \"contracts/token factory/testAlgebrav2.sol\":4440:4519  require(allowance[from][msg.sender] >= amount, \"ERC20: insufficient allowance\") */\n          0x04\n          dup3\n          add\n            /* \"#utility.yul\":3352:3373   */\n          mstore\n            /* \"#utility.yul\":3409:3411   */\n          0x1d\n            /* \"#utility.yul\":3389:3407   */\n          0x24\n          dup3\n          add\n            /* \"#utility.yul\":3382:3412   */\n          mstore\n            /* \"#utility.yul\":3448:3479   */\n          0x45524332303a20696e73756666696369656e7420616c6c6f77616e6365000000\n            /* \"#utility.yul\":3428:3446   */\n          0x44\n          dup3\n          add\n            /* \"#utility.yul\":3421:3480   */\n          mstore\n            /* \"#utility.yul\":3497:3515   */\n          0x64\n          add\n            /* \"contracts/token factory/testAlgebrav2.sol\":4440:4519  require(allowance[from][msg.sender] >= amount, \"ERC20: insufficient allowance\") */\n          tag_63\n            /* \"#utility.yul\":3168:3521   */\n          jump\n            /* \"contracts/token factory/testAlgebrav2.sol\":4440:4519  require(allowance[from][msg.sender] >= amount, \"ERC20: insufficient allowance\") */\n        tag_65:\n          sub(shl(0xa0, 0x01), 0x01)\n            /* \"contracts/token factory/testAlgebrav2.sol\":4529:4544  balanceOf[from] */\n          dup5\n          and\n          0x00\n          swap1\n          dup2\n          mstore\n            /* \"contracts/token factory/testAlgebrav2.sol\":4529:4538  balanceOf */\n          0x04\n            /* \"contracts/token factory/testAlgebrav2.sol\":4529:4544  balanceOf[from] */\n          0x20\n          mstore\n          0x40\n          dup2\n          keccak256\n            /* \"contracts/token factory/testAlgebrav2.sol\":4529:4554  balanceOf[from] -= amount */\n          dup1\n          sload\n            /* \"contracts/token factory/testAlgebrav2.sol\":4548:4554  amount */\n          dup5\n          swap3\n            /* \"contracts/token factory/testAlgebrav2.sol\":4529:4544  balanceOf[from] */\n          swap1\n            /* \"contracts/token factory/testAlgebrav2.sol\":4529:4554  balanceOf[from] -= amount */\n          tag_68\n          swap1\n            /* \"contracts/token factory/testAlgebrav2.sol\":4548:4554  amount */\n          dup5\n          swap1\n            /* \"contracts/token factory/testAlgebrav2.sol\":4529:4554  balanceOf[from] -= amount */\n          tag_69\n          jump\t// in\n        tag_68:\n          swap1\n          swap2\n          sstore\n          pop\n          pop\n          sub(shl(0xa0, 0x01), 0x01)\n            /* \"contracts/token factory/testAlgebrav2.sol\":4564:4579  allowance[from] */\n          dup5\n          and\n          0x00\n          swap1\n          dup2\n          mstore\n            /* \"contracts/token factory/testAlgebrav2.sol\":4564:4573  allowance */\n          0x05\n            /* \"contracts/token factory/testAlgebrav2.sol\":4564:4579  allowance[from] */\n          0x20\n          swap1\n          dup2\n          mstore\n          0x40\n          dup1\n          dup4\n          keccak256\n            /* \"contracts/token factory/testAlgebrav2.sol\":4580:4590  msg.sender */\n          caller\n            /* \"contracts/token factory/testAlgebrav2.sol\":4564:4591  allowance[from][msg.sender] */\n          dup5\n          mstore\n          swap1\n          swap2\n          mstore\n          dup2\n          keccak256\n            /* \"contracts/token factory/testAlgebrav2.sol\":4564:4601  allowance[from][msg.sender] -= amount */\n          dup1\n          sload\n            /* \"contracts/token factory/testAlgebrav2.sol\":4595:4601  amount */\n          dup5\n          swap3\n            /* \"contracts/token factory/testAlgebrav2.sol\":4564:4579  allowance[from] */\n          swap1\n            /* \"contracts/token factory/testAlgebrav2.sol\":4564:4601  allowance[from][msg.sender] -= amount */\n          tag_70\n          swap1\n            /* \"contracts/token factory/testAlgebrav2.sol\":4595:4601  amount */\n          dup5\n          swap1\n            /* \"contracts/token factory/testAlgebrav2.sol\":4564:4601  allowance[from][msg.sender] -= amount */\n          tag_69\n          jump\t// in\n        tag_70:\n          swap1\n          swap2\n          sstore\n          pop\n          pop\n          sub(shl(0xa0, 0x01), 0x01)\n            /* \"contracts/token factory/testAlgebrav2.sol\":4611:4624  balanceOf[to] */\n          dup4\n          and\n          0x00\n          swap1\n          dup2\n          mstore\n            /* \"contracts/token factory/testAlgebrav2.sol\":4611:4620  balanceOf */\n          0x04\n            /* \"contracts/token factory/testAlgebrav2.sol\":4611:4624  balanceOf[to] */\n          0x20\n          mstore\n          0x40\n          dup2\n          keccak256\n            /* \"contracts/token factory/testAlgebrav2.sol\":4611:4634  balanceOf[to] += amount */\n          dup1\n          sload\n            /* \"contracts/token factory/testAlgebrav2.sol\":4628:4634  amount */\n          dup5\n          swap3\n            /* \"contracts/token factory/testAlgebrav2.sol\":4611:4624  balanceOf[to] */\n          swap1\n            /* \"contracts/token factory/testAlgebrav2.sol\":4611:4634  balanceOf[to] += amount */\n          tag_71\n          swap1\n            /* \"contracts/token factory/testAlgebrav2.sol\":4628:4634  amount */\n          dup5\n          swap1\n            /* \"contracts/token factory/testAlgebrav2.sol\":4611:4634  balanceOf[to] += amount */\n          tag_72\n          jump\t// in\n        tag_71:\n          swap3\n          pop\n          pop\n          dup2\n          swap1\n          sstore\n          pop\n            /* \"contracts/token factory/testAlgebrav2.sol\":4664:4666  to */\n          dup3\n          sub(shl(0xa0, 0x01), 0x01)\n            /* \"contracts/token factory/testAlgebrav2.sol\":4649:4675  Transfer(from, to, amount) */\n          and\n            /* \"contracts/token factory/testAlgebrav2.sol\":4658:4662  from */\n          dup5\n          sub(shl(0xa0, 0x01), 0x01)\n            /* \"contracts/token factory/testAlgebrav2.sol\":4649:4675  Transfer(from, to, amount) */\n          and\n          0xddf252ad1be2c89b69c2b068fc378daa952ba7f163c4a11628f55a4df523b3ef\n            /* \"contracts/token factory/testAlgebrav2.sol\":4668:4674  amount */\n          dup5\n            /* \"contracts/token factory/testAlgebrav2.sol\":4649:4675  Transfer(from, to, amount) */\n          mload(0x40)\n          tag_73\n          swap2\n            /* \"#utility.yul\":1367:1392   */\n          dup2\n          mstore\n            /* \"#utility.yul\":1355:1357   */\n          0x20\n            /* \"#utility.yul\":1340:1358   */\n          add\n          swap1\n            /* \"#utility.yul\":1221:1398   */\n          jump\n            /* \"contracts/token factory/testAlgebrav2.sol\":4649:4675  Transfer(from, to, amount) */\n        tag_73:\n          mload(0x40)\n          dup1\n          swap2\n          sub\n          swap1\n          log3\n          pop\n            /* \"contracts/token factory/testAlgebrav2.sol\":4692:4696  true */\n          0x01\n            /* \"contracts/token factory/testAlgebrav2.sol\":4267:4703  function transferFrom(address from, address to, uint256 amount) external returns (bool) {... */\n          swap4\n          swap3\n          pop\n          pop\n          pop\n          jump\t// out\n            /* \"contracts/token factory/testAlgebrav2.sol\":2974:2994  string public symbol */\n        tag_42:\n          0x01\n          dup1\n          sload\n          tag_53\n          swap1\n          tag_54\n          jump\t// in\n            /* \"contracts/token factory/testAlgebrav2.sol\":3752:4052  function transfer(address to, uint256 amount) external returns (bool) {... */\n        tag_46:\n            /* \"contracts/token factory/testAlgebrav2.sol\":3850:3860  msg.sender */\n          caller\n            /* \"contracts/token factory/testAlgebrav2.sol\":3816:3820  bool */\n          0x00\n            /* \"contracts/token factory/testAlgebrav2.sol\":3840:3861  balanceOf[msg.sender] */\n          swap1\n          dup2\n          mstore\n            /* \"contracts/token factory/testAlgebrav2.sol\":3840:3849  balanceOf */\n          0x04\n            /* \"contracts/token factory/testAlgebrav2.sol\":3840:3861  balanceOf[msg.sender] */\n          0x20\n          mstore\n          0x40\n          dup2\n          keccak256\n          sload\n            /* \"contracts/token factory/testAlgebrav2.sol\":3840:3871  balanceOf[msg.sender] >= amount */\n          dup3\n          gt\n          iszero\n            /* \"contracts/token factory/testAlgebrav2.sol\":3832:3903  require(balanceOf[msg.sender] >= amount, \"ERC20: insufficient balance\") */\n          tag_80\n          jumpi\n          mload(0x40)\n          shl(0xe5, 0x461bcd)\n          dup2\n          mstore\n            /* \"#utility.yul\":3014:3016   */\n          0x20\n            /* \"contracts/token factory/testAlgebrav2.sol\":3832:3903  require(balanceOf[msg.sender] >= amount, \"ERC20: insufficient balance\") */\n          0x04\n          dup3\n          add\n            /* \"#utility.yul\":2996:3017   */\n          mstore\n            /* \"#utility.yul\":3053:3055   */\n          0x1b\n            /* \"#utility.yul\":3033:3051   */\n          0x24\n          dup3\n          add\n            /* \"#utility.yul\":3026:3056   */\n          mstore\n            /* \"#utility.yul\":3092:3121   */\n          0x45524332303a20696e73756666696369656e742062616c616e63650000000000\n            /* \"#utility.yul\":3072:3090   */\n          0x44\n          dup3\n          add\n            /* \"#utility.yul\":3065:3122   */\n          mstore\n            /* \"#utility.yul\":3139:3157   */\n          0x64\n          add\n            /* \"contracts/token factory/testAlgebrav2.sol\":3832:3903  require(balanceOf[msg.sender] >= amount, \"ERC20: insufficient balance\") */\n          tag_63\n            /* \"#utility.yul\":2812:3163   */\n          jump\n            /* \"contracts/token factory/testAlgebrav2.sol\":3832:3903  require(balanceOf[msg.sender] >= amount, \"ERC20: insufficient balance\") */\n        tag_80:\n            /* \"contracts/token factory/testAlgebrav2.sol\":3923:3933  msg.sender */\n          caller\n            /* \"contracts/token factory/testAlgebrav2.sol\":3913:3934  balanceOf[msg.sender] */\n          0x00\n          swap1\n          dup2\n          mstore\n            /* \"contracts/token factory/testAlgebrav2.sol\":3913:3922  balanceOf */\n          0x04\n            /* \"contracts/token factory/testAlgebrav2.sol\":3913:3934  balanceOf[msg.sender] */\n          0x20\n          mstore\n          0x40\n          dup2\n          keccak256\n            /* \"contracts/token factory/testAlgebrav2.sol\":3913:3944  balanceOf[msg.sender] -= amount */\n          dup1\n          sload\n            /* \"contracts/token factory/testAlgebrav2.sol\":3938:3944  amount */\n          dup5\n          swap3\n            /* \"contracts/token factory/testAlgebrav2.sol\":3913:3934  balanceOf[msg.sender] */\n          swap1\n            /* \"contracts/token factory/testAlgebrav2.sol\":3913:3944  balanceOf[msg.sender] -= amount */\n          tag_82\n          swap1\n            /* \"contracts/token factory/testAlgebrav2.sol\":3938:3944  amount */\n          dup5\n          swap1\n            /* \"contracts/token factory/testAlgebrav2.sol\":3913:3944  balanceOf[msg.sender] -= amount */\n          tag_69\n          jump\t// in\n        tag_82:\n          swap1\n          swap2\n          sstore\n          pop\n          pop\n          sub(shl(0xa0, 0x01), 0x01)\n            /* \"contracts/token factory/testAlgebrav2.sol\":3954:3967  balanceOf[to] */\n          dup4\n          and\n          0x00\n          swap1\n          dup2\n          mstore\n            /* \"contracts/token factory/testAlgebrav2.sol\":3954:3963  balanceOf */\n          0x04\n            /* \"contracts/token factory/testAlgebrav2.sol\":3954:3967  balanceOf[to] */\n          0x20\n          mstore\n          0x40\n          dup2\n          keccak256\n            /* \"contracts/token factory/testAlgebrav2.sol\":3954:3977  balanceOf[to] += amount */\n          dup1\n          sload\n            /* \"contracts/token factory/testAlgebrav2.sol\":3971:3977  amount */\n          dup5\n          swap3\n            /* \"contracts/token factory/testAlgebrav2.sol\":3954:3967  balanceOf[to] */\n          swap1\n            /* \"contracts/token factory/testAlgebrav2.sol\":3954:3977  balanceOf[to] += amount */\n          tag_83\n          swap1\n            /* \"contracts/token factory/testAlgebrav2.sol\":3971:3977  amount */\n          dup5\n          swap1\n            /* \"contracts/token factory/testAlgebrav2.sol\":3954:3977  balanceOf[to] += amount */\n          tag_72\n          jump\t// in\n        tag_83:\n          swap1\n          swap2\n          sstore\n          pop\n          pop\n            /* \"contracts/token factory/testAlgebrav2.sol\":3992:4024  Transfer(msg.sender, to, amount) */\n          mload(0x40)\n            /* \"#utility.yul\":1367:1392   */\n          dup3\n          dup2\n          mstore\n          sub(shl(0xa0, 0x01), 0x01)\n            /* \"contracts/token factory/testAlgebrav2.sol\":3992:4024  Transfer(msg.sender, to, amount) */\n          dup5\n          and\n          swap1\n            /* \"contracts/token factory/testAlgebrav2.sol\":4001:4011  msg.sender */\n          caller\n          swap1\n            /* \"contracts/token factory/testAlgebrav2.sol\":3992:4024  Transfer(msg.sender, to, amount) */\n          0xddf252ad1be2c89b69c2b068fc378daa952ba7f163c4a11628f55a4df523b3ef\n          swap1\n            /* \"#utility.yul\":1355:1357   */\n          0x20\n            /* \"#utility.yul\":1340:1358   */\n          add\n            /* \"contracts/token factory/testAlgebrav2.sol\":3992:4024  Transfer(msg.sender, to, amount) */\n          tag_60\n            /* \"#utility.yul\":1221:1398   */\n          jump\n            /* \"#utility.yul\":14:541   */\n        tag_16:\n            /* \"#utility.yul\":163:165   */\n          0x20\n            /* \"#utility.yul\":152:161   */\n          dup2\n            /* \"#utility.yul\":145:166   */\n          mstore\n            /* \"#utility.yul\":126:130   */\n          0x00\n            /* \"#utility.yul\":195:201   */\n          dup3\n            /* \"#utility.yul\":189:202   */\n          mload\n            /* \"#utility.yul\":238:244   */\n          dup1\n            /* \"#utility.yul\":233:235   */\n          0x20\n            /* \"#utility.yul\":222:231   */\n          dup5\n            /* \"#utility.yul\":218:236   */\n          add\n            /* \"#utility.yul\":211:245   */\n          mstore\n            /* \"#utility.yul\":263:264   */\n          0x00\n            /* \"#utility.yul\":273:413   */\n        tag_89:\n            /* \"#utility.yul\":287:293   */\n          dup2\n            /* \"#utility.yul\":284:285   */\n          dup2\n            /* \"#utility.yul\":281:294   */\n          lt\n            /* \"#utility.yul\":273:413   */\n          iszero\n          tag_91\n          jumpi\n            /* \"#utility.yul\":398:400   */\n          0x20\n            /* \"#utility.yul\":382:396   */\n          dup2\n          dup7\n          add\n            /* \"#utility.yul\":378:401   */\n          dup2\n          add\n            /* \"#utility.yul\":372:402   */\n          mload\n            /* \"#utility.yul\":367:369   */\n          0x40\n            /* \"#utility.yul\":348:365   */\n          dup7\n          dup5\n          add\n            /* \"#utility.yul\":344:370   */\n          add\n            /* \"#utility.yul\":337:403   */\n          mstore\n            /* \"#utility.yul\":302:312   */\n          add\n            /* \"#utility.yul\":273:413   */\n          jump(tag_89)\n        tag_91:\n            /* \"#utility.yul\":277:280   */\n          pop\n            /* \"#utility.yul\":462:463   */\n          0x00\n            /* \"#utility.yul\":457:459   */\n          0x40\n            /* \"#utility.yul\":448:454   */\n          dup3\n            /* \"#utility.yul\":437:446   */\n          dup6\n            /* \"#utility.yul\":433:455   */\n          add\n            /* \"#utility.yul\":429:460   */\n          add\n            /* \"#utility.yul\":422:464   */\n          mstore\n            /* \"#utility.yul\":532:534   */\n          0x40\n            /* \"#utility.yul\":525:527   */\n          0x1f\n            /* \"#utility.yul\":521:528   */\n          not\n            /* \"#utility.yul\":516:518   */\n          0x1f\n            /* \"#utility.yul\":508:514   */\n          dup4\n            /* \"#utility.yul\":504:519   */\n          add\n            /* \"#utility.yul\":500:529   */\n          and\n            /* \"#utility.yul\":489:498   */\n          dup5\n            /* \"#utility.yul\":485:530   */\n          add\n            /* \"#utility.yul\":481:535   */\n          add\n            /* \"#utility.yul\":473:535   */\n          swap2\n          pop\n          pop\n            /* \"#utility.yul\":14:541   */\n          swap3\n          swap2\n          pop\n          pop\n          jump\t// out\n            /* \"#utility.yul\":546:719   */\n        tag_85:\n            /* \"#utility.yul\":614:634   */\n          dup1\n          calldataload\n          sub(shl(0xa0, 0x01), 0x01)\n            /* \"#utility.yul\":663:694   */\n          dup2\n          and\n            /* \"#utility.yul\":653:695   */\n          dup2\n          eq\n            /* \"#utility.yul\":643:713   */\n          tag_93\n          jumpi\n            /* \"#utility.yul\":709:710   */\n          0x00\n            /* \"#utility.yul\":706:707   */\n          dup1\n            /* \"#utility.yul\":699:711   */\n          revert\n            /* \"#utility.yul\":643:713   */\n        tag_93:\n            /* \"#utility.yul\":546:719   */\n          swap2\n          swap1\n          pop\n          jump\t// out\n            /* \"#utility.yul\":724:1024   */\n        tag_19:\n            /* \"#utility.yul\":792:798   */\n          0x00\n            /* \"#utility.yul\":800:806   */\n          dup1\n            /* \"#utility.yul\":853:855   */\n          0x40\n            /* \"#utility.yul\":841:850   */\n          dup4\n            /* \"#utility.yul\":832:839   */\n          dup6\n            /* \"#utility.yul\":828:851   */\n          sub\n            /* \"#utility.yul\":824:856   */\n          slt\n            /* \"#utility.yul\":821:873   */\n          iszero\n          tag_95\n          jumpi\n            /* \"#utility.yul\":869:870   */\n          0x00\n            /* \"#utility.yul\":866:867   */\n          dup1\n            /* \"#utility.yul\":859:871   */\n          revert\n            /* \"#utility.yul\":821:873   */\n        tag_95:\n            /* \"#utility.yul\":892:921   */\n          tag_96\n            /* \"#utility.yul\":911:920   */\n          dup4\n            /* \"#utility.yul\":892:921   */\n          tag_85\n          jump\t// in\n        tag_96:\n            /* \"#utility.yul\":882:921   */\n          swap5\n            /* \"#utility.yul\":990:992   */\n          0x20\n            /* \"#utility.yul\":975:993   */\n          swap4\n          swap1\n          swap4\n          add\n            /* \"#utility.yul\":962:994   */\n          calldataload\n          swap4\n          pop\n          pop\n          pop\n            /* \"#utility.yul\":724:1024   */\n          jump\t// out\n            /* \"#utility.yul\":1403:1777   */\n        tag_29:\n            /* \"#utility.yul\":1480:1486   */\n          0x00\n            /* \"#utility.yul\":1488:1494   */\n          dup1\n            /* \"#utility.yul\":1496:1502   */\n          0x00\n            /* \"#utility.yul\":1549:1551   */\n          0x60\n            /* \"#utility.yul\":1537:1546   */\n          dup5\n            /* \"#utility.yul\":1528:1535   */\n          dup7\n            /* \"#utility.yul\":1524:1547   */\n          sub\n            /* \"#utility.yul\":1520:1552   */\n          slt\n            /* \"#utility.yul\":1517:1569   */\n          iszero\n          tag_100\n          jumpi\n            /* \"#utility.yul\":1565:1566   */\n          0x00\n            /* \"#utility.yul\":1562:1563   */\n          dup1\n            /* \"#utility.yul\":1555:1567   */\n          revert\n            /* \"#utility.yul\":1517:1569   */\n        tag_100:\n            /* \"#utility.yul\":1588:1617   */\n          tag_101\n            /* \"#utility.yul\":1607:1616   */\n          dup5\n            /* \"#utility.yul\":1588:1617   */\n          tag_85\n          jump\t// in\n        tag_101:\n            /* \"#utility.yul\":1578:1617   */\n          swap3\n          pop\n            /* \"#utility.yul\":1636:1674   */\n          tag_102\n            /* \"#utility.yul\":1670:1672   */\n          0x20\n            /* \"#utility.yul\":1659:1668   */\n          dup6\n            /* \"#utility.yul\":1655:1673   */\n          add\n            /* \"#utility.yul\":1636:1674   */\n          tag_85\n          jump\t// in\n        tag_102:\n            /* \"#utility.yul\":1403:1777   */\n          swap3\n          swap6\n            /* \"#utility.yul\":1626:1674   */\n          swap3\n          swap5\n          pop\n          pop\n          pop\n            /* \"#utility.yul\":1743:1745   */\n          0x40\n            /* \"#utility.yul\":1728:1746   */\n          swap2\n          swap1\n          swap2\n          add\n            /* \"#utility.yul\":1715:1747   */\n          calldataload\n          swap1\n            /* \"#utility.yul\":1403:1777   */\n          jump\t// out\n            /* \"#utility.yul\":1971:2157   */\n        tag_38:\n            /* \"#utility.yul\":2030:2036   */\n          0x00\n            /* \"#utility.yul\":2083:2085   */\n          0x20\n            /* \"#utility.yul\":2071:2080   */\n          dup3\n            /* \"#utility.yul\":2062:2069   */\n          dup5\n            /* \"#utility.yul\":2058:2081   */\n          sub\n            /* \"#utility.yul\":2054:2086   */\n          slt\n            /* \"#utility.yul\":2051:2103   */\n          iszero\n          tag_105\n          jumpi\n            /* \"#utility.yul\":2099:2100   */\n          0x00\n            /* \"#utility.yul\":2096:2097   */\n          dup1\n            /* \"#utility.yul\":2089:2101   */\n          revert\n            /* \"#utility.yul\":2051:2103   */\n        tag_105:\n            /* \"#utility.yul\":2122:2151   */\n          tag_106\n            /* \"#utility.yul\":2141:2150   */\n          dup3\n            /* \"#utility.yul\":2122:2151   */\n          tag_85\n          jump\t// in\n        tag_106:\n            /* \"#utility.yul\":2112:2151   */\n          swap4\n            /* \"#utility.yul\":1971:2157   */\n          swap3\n          pop\n          pop\n          pop\n          jump\t// out\n            /* \"#utility.yul\":2162:2422   */\n        tag_50:\n            /* \"#utility.yul\":2230:2236   */\n          0x00\n            /* \"#utility.yul\":2238:2244   */\n          dup1\n            /* \"#utility.yul\":2291:2293   */\n          0x40\n            /* \"#utility.yul\":2279:2288   */\n          dup4\n            /* \"#utility.yul\":2270:2277   */\n          dup6\n            /* \"#utility.yul\":2266:2289   */\n          sub\n            /* \"#utility.yul\":2262:2294   */\n          slt\n            /* \"#utility.yul\":2259:2311   */\n          iszero\n          tag_108\n          jumpi\n            /* \"#utility.yul\":2307:2308   */\n          0x00\n            /* \"#utility.yul\":2304:2305   */\n          dup1\n            /* \"#utility.yul\":2297:2309   */\n          revert\n            /* \"#utility.yul\":2259:2311   */\n        tag_108:\n            /* \"#utility.yul\":2330:2359   */\n          tag_109\n            /* \"#utility.yul\":2349:2358   */\n          dup4\n            /* \"#utility.yul\":2330:2359   */\n          tag_85\n          jump\t// in\n        tag_109:\n            /* \"#utility.yul\":2320:2359   */\n          swap2\n          pop\n            /* \"#utility.yul\":2378:2416   */\n          tag_110\n            /* \"#utility.yul\":2412:2414   */\n          0x20\n            /* \"#utility.yul\":2401:2410   */\n          dup5\n            /* \"#utility.yul\":2397:2415   */\n          add\n            /* \"#utility.yul\":2378:2416   */\n          tag_85\n          jump\t// in\n        tag_110:\n            /* \"#utility.yul\":2368:2416   */\n          swap1\n          pop\n            /* \"#utility.yul\":2162:2422   */\n          swap3\n          pop\n          swap3\n          swap1\n          pop\n          jump\t// out\n            /* \"#utility.yul\":2427:2807   */\n        tag_54:\n            /* \"#utility.yul\":2506:2507   */\n          0x01\n            /* \"#utility.yul\":2502:2514   */\n          dup2\n          dup2\n          shr\n          swap1\n            /* \"#utility.yul\":2549:2561   */\n          dup3\n          and\n          dup1\n            /* \"#utility.yul\":2570:2631   */\n          tag_112\n          jumpi\n            /* \"#utility.yul\":2624:2628   */\n          0x7f\n            /* \"#utility.yul\":2616:2622   */\n          dup3\n            /* \"#utility.yul\":2612:2629   */\n          and\n            /* \"#utility.yul\":2602:2629   */\n          swap2\n          pop\n            /* \"#utility.yul\":2570:2631   */\n        tag_112:\n            /* \"#utility.yul\":2677:2679   */\n          0x20\n            /* \"#utility.yul\":2669:2675   */\n          dup3\n            /* \"#utility.yul\":2666:2680   */\n          lt\n            /* \"#utility.yul\":2646:2664   */\n          dup2\n            /* \"#utility.yul\":2643:2681   */\n          sub\n            /* \"#utility.yul\":2640:2801   */\n          tag_113\n          jumpi\n            /* \"#utility.yul\":2723:2733   */\n          0x4e487b71\n            /* \"#utility.yul\":2718:2721   */\n          0xe0\n            /* \"#utility.yul\":2714:2734   */\n          shl\n            /* \"#utility.yul\":2711:2712   */\n          0x00\n            /* \"#utility.yul\":2704:2735   */\n          mstore\n            /* \"#utility.yul\":2758:2762   */\n          0x22\n            /* \"#utility.yul\":2755:2756   */\n          0x04\n            /* \"#utility.yul\":2748:2763   */\n          mstore\n            /* \"#utility.yul\":2786:2790   */\n          0x24\n            /* \"#utility.yul\":2783:2784   */\n          0x00\n            /* \"#utility.yul\":2776:2791   */\n          revert\n            /* \"#utility.yul\":2640:2801   */\n        tag_113:\n          pop\n            /* \"#utility.yul\":2427:2807   */\n          swap2\n          swap1\n          pop\n          jump\t// out\n            /* \"#utility.yul\":3526:3653   */\n        tag_86:\n            /* \"#utility.yul\":3587:3597   */\n          0x4e487b71\n            /* \"#utility.yul\":3582:3585   */\n          0xe0\n            /* \"#utility.yul\":3578:3598   */\n          shl\n            /* \"#utility.yul\":3575:3576   */\n          0x00\n            /* \"#utility.yul\":3568:3599   */\n          mstore\n            /* \"#utility.yul\":3618:3622   */\n          0x11\n            /* \"#utility.yul\":3615:3616   */\n          0x04\n            /* \"#utility.yul\":3608:3623   */\n          mstore\n            /* \"#utility.yul\":3642:3646   */\n          0x24\n            /* \"#utility.yul\":3639:3640   */\n          0x00\n            /* \"#utility.yul\":3632:3647   */\n          revert\n            /* \"#utility.yul\":3658:3786   */\n        tag_69:\n            /* \"#utility.yul\":3725:3734   */\n          dup2\n          dup2\n          sub\n            /* \"#utility.yul\":3746:3757   */\n          dup2\n          dup2\n          gt\n            /* \"#utility.yul\":3743:3780   */\n          iszero\n          tag_59\n          jumpi\n            /* \"#utility.yul\":3760:3778   */\n          tag_59\n          tag_86\n          jump\t// in\n            /* \"#utility.yul\":3791:3916   */\n        tag_72:\n            /* \"#utility.yul\":3856:3865   */\n          dup1\n          dup3\n          add\n            /* \"#utility.yul\":3877:3887   */\n          dup1\n          dup3\n          gt\n            /* \"#utility.yul\":3874:3910   */\n          iszero\n          tag_59\n          jumpi\n            /* \"#utility.yul\":3890:3908   */\n          tag_59\n          tag_86\n          jump\t// in\n\n        auxdata: 0xa26469706673582212200028cbac9c0ed162ad618dc9d5644b0665f707e9a14f00fabbf012eadee7ab2264736f6c634300081a0033\n    }\n}\n",
				"bytecode": {
					"linkReferences": {},
					"object": "608060405234801561001057600080fd5b5060405161173038038061173083398101604081905261002f91610136565b600080546001600160a01b038085166001600160a01b031992831617835560018054918516919092161790556040516b015b6a759f4835dc240000009030906100779061010d565b6080808252600790820152662a37b5b2b7102160c91b60a082015260c060208201819052600390820152622a25a160e91b60e082015260408101929092526001600160a01b0316606082015261010001604051809103906000f0801580156100e3573d6000803e3d6000fd5b50600280546001600160a01b0319166001600160a01b039290921691909117905550610169915050565b610ad580610c5b83390190565b80516001600160a01b038116811461013157600080fd5b919050565b6000806040838503121561014957600080fd5b6101528361011a565b91506101606020840161011a565b90509250929050565b610ae3806101786000396000f3fe6080604052600436106100955760003560e01c80636882a888116100595780636882a8881461017c5780639702bdf1146101a6578063a1634b14146101b0578063ad5c4648146101c8578063c14033ba146101e857600080fd5b8063048a1a9d146100a15780631e655c56146100d457806324f8eca7146101045780635f64b55b1461013c578063665a11ca1461015c57600080fd5b3661009c57005b600080fd5b3480156100ad57600080fd5b506100c16b015b6a759f4835dc2400000081565b6040519081526020015b60405180910390f35b6100dc610202565b604080519485526001600160801b0390931660208501529183015260608201526080016100cb565b34801561011057600080fd5b50600054610124906001600160a01b031681565b6040516001600160a01b0390911681526020016100cb565b34801561014857600080fd5b50600254610124906001600160a01b031681565b34801561016857600080fd5b50600354610124906001600160a01b031681565b34801561018857600080fd5b50610193620d89b481565b60405160029190910b81526020016100cb565b6101ae610694565b005b3480156101bc57600080fd5b50610193620d89b31981565b3480156101d457600080fd5b50600154610124906001600160a01b031681565b3480156101f457600080fd5b506100c16509184e72a00081565b6003546000908190819081906001600160a01b031661025f5760405162461bcd60e51b8152602060048201526014602482015273141bdbdb081b9bdd0818dc99585d1959081e595d60621b60448201526064015b60405180910390fd5b6509184e72a00034146102b45760405162461bcd60e51b815260206004820152601d60248201527f4d7573742073656e642065786163746c7920302e3030303031204554480000006044820152606401610256565b600160009054906101000a90046001600160a01b03166001600160a01b031663d0e30db0346040518263ffffffff1660e01b81526004016000604051808303818588803b15801561030457600080fd5b505af1158015610318573d6000803e3d6000fd5b50506001546040516370a0823160e01b8152306004820152600094506001600160a01b0390911692506370a082319150602401602060405180830381865afa158015610368573d6000803e3d6000fd5b505050506040513d601f19601f8201168201806040525081019061038c9190610900565b6002546040516370a0823160e01b81523060048201529192506000916001600160a01b03909116906370a0823190602401602060405180830381865afa1580156103da573d6000803e3d6000fd5b505050506040513d601f19601f820116820180604052508101906103fe9190610900565b90506509184e72a0008210156104485760405162461bcd60e51b815260206004820152600f60248201526e09cdee840cadcdeeaced040ae8aa89608b1b6044820152606401610256565b6b015b6a759f4835dc240000008110156104955760405162461bcd60e51b815260206004820152600e60248201526d2737ba1032b737bab3b4102a25a160911b6044820152606401610256565b6002546001546000916001600160a01b039081169116106104c1576002546001600160a01b03166104ce565b6001546001600160a01b03165b6002546001549192506000916001600160a01b039182169116106104fd576001546001600160a01b031661050a565b6002546001600160a01b03165b6001549091506000906001600160a01b03848116911614610537576b015b6a759f4835dc24000000610539565b845b6001549091506000906001600160a01b0385811691161461055a5785610568565b6b015b6a759f4835dc240000005b600054600154919250610588916001600160a01b0390811691168861080f565b6000546002546105b1916001600160a01b0391821691166b015b6a759f4835dc2400000061080f565b60408051610160810182526001600160a01b03808716825285811660208301526000828401819052620d89b3196060840152620d89b4608084015260a0830186905260c0830185905260e083018190526101008301819052306101208401524261014084015254925163fe3f3be760e01b81529192169063fe3f3be79061063c908490600401610919565b6080604051808303816000875af115801561065b573d6000803e3d6000fd5b505050506040513d601f19601f8201168201806040525081019061067f91906109e1565b929e919d509b50909950975050505050505050565b6003546001600160a01b0316156106e35760405162461bcd60e51b8152602060048201526013602482015272506f6f6c20616c72656164792065786973747360681b6044820152606401610256565b600254600154600160601b916000916001600160a01b03918216911610610715576002546001600160a01b0316610722565b6001546001600160a01b03165b6002546001549192506000916001600160a01b03918216911610610751576001546001600160a01b031661075e565b6002546001600160a01b03165b600080546040516343a9d0cd60e11b81526001600160a01b038681166004830152808516602483015260448201849052878116606483015293945091921690638753a19a906084016020604051808303816000875af11580156107c5573d6000803e3d6000fd5b505050506040513d601f19601f820116820180604052508101906107e99190610a2c565b600380546001600160a01b0319166001600160a01b039290921691909117905550505050565b604080516001600160a01b038481166024830152604480830185905283518084039091018152606490920183526020820180516001600160e01b031663095ea7b360e01b179052915160009283929087169161086b9190610a5c565b6000604051808303816000865af19150503d80600081146108a8576040519150601f19603f3d011682016040523d82523d6000602084013e6108ad565b606091505b50915091508115806108db57508051158015906108db5750808060200190518101906108d99190610a8b565b155b156108f957604051637cd36c6560e11b815260040160405180910390fd5b5050505050565b60006020828403121561091257600080fd5b5051919050565b81516001600160a01b031681526101608101602083015161094560208401826001600160a01b03169052565b50604083015161096060408401826001600160a01b03169052565b506060830151610975606084018260020b9052565b50608083015161098a608084018260020b9052565b5060a083015160a083015260c083015160c083015260e083015160e08301526101008301516101008301526101208301516109d16101208401826001600160a01b03169052565b5061014092830151919092015290565b600080600080608085870312156109f757600080fd5b845160208601519094506001600160801b0381168114610a1657600080fd5b6040860151606090960151949790965092505050565b600060208284031215610a3e57600080fd5b81516001600160a01b0381168114610a5557600080fd5b9392505050565b6000825160005b81811015610a7d5760208186018101518583015201610a63565b506000920191825250919050565b600060208284031215610a9d57600080fd5b81518015158114610a5557600080fdfea2646970667358221220761cb3177c7cd373099e62ba2b1bd2b4047f455e398aa44d09439dbfb83e0a7964736f6c634300081a003360806040526002805460ff1916601217905534801561001d57600080fd5b50604051610ad5380380610ad583398101604081905261003c916101ab565b600061004885826102c7565b50600161005584826102c7565b506100608183610069565b505050506103ac565b806003600082825461007b9190610385565b90915550506001600160a01b038216600090815260046020526040812080548392906100a8908490610385565b90915550506040518181526001600160a01b038316906000907fddf252ad1be2c89b69c2b068fc378daa952ba7f163c4a11628f55a4df523b3ef9060200160405180910390a35050565b634e487b7160e01b600052604160045260246000fd5b600082601f83011261011957600080fd5b81516001600160401b03811115610132576101326100f2565b604051601f8201601f19908116603f011681016001600160401b0381118282101715610160576101606100f2565b60405281815283820160200185101561017857600080fd5b60005b828110156101975760208186018101518383018201520161017b565b506000918101602001919091529392505050565b600080600080608085870312156101c157600080fd5b84516001600160401b038111156101d757600080fd5b6101e387828801610108565b602087015190955090506001600160401b0381111561020157600080fd5b61020d87828801610108565b60408701516060880151919550935090506001600160a01b038116811461023357600080fd5b939692955090935050565b600181811c9082168061025257607f821691505b60208210810361027257634e487b7160e01b600052602260045260246000fd5b50919050565b601f8211156102c257806000526020600020601f840160051c8101602085101561029f5750805b601f840160051c820191505b818110156102bf57600081556001016102ab565b50505b505050565b81516001600160401b038111156102e0576102e06100f2565b6102f4816102ee845461023e565b84610278565b6020601f82116001811461032857600083156103105750848201515b600019600385901b1c1916600184901b1784556102bf565b600084815260208120601f198516915b828110156103585787850151825560209485019460019092019101610338565b50848210156103765786840151600019600387901b60f8161c191681555b50505050600190811b01905550565b808201808211156103a657634e487b7160e01b600052601160045260246000fd5b92915050565b61071a806103bb6000396000f3fe608060405234801561001057600080fd5b50600436106100935760003560e01c8063313ce56711610066578063313ce5671461010357806370a082311461012257806395d89b4114610142578063a9059cbb1461014a578063dd62ed3e1461015d57600080fd5b806306fdde0314610098578063095ea7b3146100b657806318160ddd146100d957806323b872dd146100f0575b600080fd5b6100a0610188565b6040516100ad9190610548565b60405180910390f35b6100c96100c43660046105b2565b610216565b60405190151581526020016100ad565b6100e260035481565b6040519081526020016100ad565b6100c96100fe3660046105dc565b610283565b6002546101109060ff1681565b60405160ff90911681526020016100ad565b6100e2610130366004610619565b60046020526000908152604090205481565b6100a061044e565b6100c96101583660046105b2565b61045b565b6100e261016b36600461063b565b600560209081526000928352604080842090915290825290205481565b600080546101959061066e565b80601f01602080910402602001604051908101604052809291908181526020018280546101c19061066e565b801561020e5780601f106101e35761010080835404028352916020019161020e565b820191906000526020600020905b8154815290600101906020018083116101f157829003601f168201915b505050505081565b3360008181526005602090815260408083206001600160a01b038716808552925280832085905551919290917f8c5be1e5ebec7d5bd14f71427d1e84f3dd0314c0f7b2291e5b200ac8c7c3b925906102719086815260200190565b60405180910390a35060015b92915050565b6001600160a01b0383166000908152600460205260408120548211156102f05760405162461bcd60e51b815260206004820152601b60248201527f45524332303a20696e73756666696369656e742062616c616e6365000000000060448201526064015b60405180910390fd5b6001600160a01b03841660009081526005602090815260408083203384529091529020548211156103635760405162461bcd60e51b815260206004820152601d60248201527f45524332303a20696e73756666696369656e7420616c6c6f77616e636500000060448201526064016102e7565b6001600160a01b0384166000908152600460205260408120805484929061038b9084906106be565b90915550506001600160a01b0384166000908152600560209081526040808320338452909152812080548492906103c39084906106be565b90915550506001600160a01b038316600090815260046020526040812080548492906103f09084906106d1565b92505081905550826001600160a01b0316846001600160a01b03167fddf252ad1be2c89b69c2b068fc378daa952ba7f163c4a11628f55a4df523b3ef8460405161043c91815260200190565b60405180910390a35060019392505050565b600180546101959061066e565b336000908152600460205260408120548211156104ba5760405162461bcd60e51b815260206004820152601b60248201527f45524332303a20696e73756666696369656e742062616c616e6365000000000060448201526064016102e7565b33600090815260046020526040812080548492906104d99084906106be565b90915550506001600160a01b038316600090815260046020526040812080548492906105069084906106d1565b90915550506040518281526001600160a01b0384169033907fddf252ad1be2c89b69c2b068fc378daa952ba7f163c4a11628f55a4df523b3ef90602001610271565b602081526000825180602084015260005b818110156105765760208186018101516040868401015201610559565b506000604082850101526040601f19601f83011684010191505092915050565b80356001600160a01b03811681146105ad57600080fd5b919050565b600080604083850312156105c557600080fd5b6105ce83610596565b946020939093013593505050565b6000806000606084860312156105f157600080fd5b6105fa84610596565b925061060860208501610596565b929592945050506040919091013590565b60006020828403121561062b57600080fd5b61063482610596565b9392505050565b6000806040838503121561064e57600080fd5b61065783610596565b915061066560208401610596565b90509250929050565b600181811c9082168061068257607f821691505b6020821081036106a257634e487b7160e01b600052602260045260246000fd5b50919050565b634e487b7160e01b600052601160045260246000fd5b8181038181111561027d5761027d6106a8565b8082018082111561027d5761027d6106a856fea26469706673582212200028cbac9c0ed162ad618dc9d5644b0665f707e9a14f00fabbf012eadee7ab2264736f6c634300081a0033",
					"opcodes": "PUSH1 0x80 PUSH1 0x40 MSTORE CALLVALUE DUP1 ISZERO PUSH2 0x10 JUMPI PUSH1 0x0 DUP1 REVERT JUMPDEST POP PUSH1 0x40 MLOAD PUSH2 0x1730 CODESIZE SUB DUP1 PUSH2 0x1730 DUP4 CODECOPY DUP2 ADD PUSH1 0x40 DUP2 SWAP1 MSTORE PUSH2 0x2F SWAP2 PUSH2 0x136 JUMP JUMPDEST PUSH1 0x0 DUP1 SLOAD PUSH1 0x1 PUSH1 0x1 PUSH1 0xA0 SHL SUB DUP1 DUP6 AND PUSH1 0x1 PUSH1 0x1 PUSH1 0xA0 SHL SUB NOT SWAP3 DUP4 AND OR DUP4 SSTORE PUSH1 0x1 DUP1 SLOAD SWAP2 DUP6 AND SWAP2 SWAP1 SWAP3 AND OR SWAP1 SSTORE PUSH1 0x40 MLOAD PUSH12 0x15B6A759F4835DC24000000 SWAP1 ADDRESS SWAP1 PUSH2 0x77 SWAP1 PUSH2 0x10D JUMP JUMPDEST PUSH1 0x80 DUP1 DUP3 MSTORE PUSH1 0x7 SWAP1 DUP3 ADD MSTORE PUSH7 0x2A37B5B2B71021 PUSH1 0xC9 SHL PUSH1 0xA0 DUP3 ADD MSTORE PUSH1 0xC0 PUSH1 0x20 DUP3 ADD DUP2 SWAP1 MSTORE PUSH1 0x3 SWAP1 DUP3 ADD MSTORE PUSH3 0x2A25A1 PUSH1 0xE9 SHL PUSH1 0xE0 DUP3 ADD MSTORE PUSH1 0x40 DUP2 ADD SWAP3 SWAP1 SWAP3 MSTORE PUSH1 0x1 PUSH1 0x1 PUSH1 0xA0 SHL SUB AND PUSH1 0x60 DUP3 ADD MSTORE PUSH2 0x100 ADD PUSH1 0x40 MLOAD DUP1 SWAP2 SUB SWAP1 PUSH1 0x0 CREATE DUP1 ISZERO DUP1 ISZERO PUSH2 0xE3 JUMPI RETURNDATASIZE PUSH1 0x0 DUP1 RETURNDATACOPY RETURNDATASIZE PUSH1 0x0 REVERT JUMPDEST POP PUSH1 0x2 DUP1 SLOAD PUSH1 0x1 PUSH1 0x1 PUSH1 0xA0 SHL SUB NOT AND PUSH1 0x1 PUSH1 0x1 PUSH1 0xA0 SHL SUB SWAP3 SWAP1 SWAP3 AND SWAP2 SWAP1 SWAP2 OR SWAP1 SSTORE POP PUSH2 0x169 SWAP2 POP POP JUMP JUMPDEST PUSH2 0xAD5 DUP1 PUSH2 0xC5B DUP4 CODECOPY ADD SWAP1 JUMP JUMPDEST DUP1 MLOAD PUSH1 0x1 PUSH1 0x1 PUSH1 0xA0 SHL SUB DUP2 AND DUP2 EQ PUSH2 0x131 JUMPI PUSH1 0x0 DUP1 REVERT JUMPDEST SWAP2 SWAP1 POP JUMP JUMPDEST PUSH1 0x0 DUP1 PUSH1 0x40 DUP4 DUP6 SUB SLT ISZERO PUSH2 0x149 JUMPI PUSH1 0x0 DUP1 REVERT JUMPDEST PUSH2 0x152 DUP4 PUSH2 0x11A JUMP JUMPDEST SWAP2 POP PUSH2 0x160 PUSH1 0x20 DUP5 ADD PUSH2 0x11A JUMP JUMPDEST SWAP1 POP SWAP3 POP SWAP3 SWAP1 POP JUMP JUMPDEST PUSH2 0xAE3 DUP1 PUSH2 0x178 PUSH1 0x0 CODECOPY PUSH1 0x0 RETURN INVALID PUSH1 0x80 PUSH1 0x40 MSTORE PUSH1 0x4 CALLDATASIZE LT PUSH2 0x95 JUMPI PUSH1 0x0 CALLDATALOAD PUSH1 0xE0 SHR DUP1 PUSH4 0x6882A888 GT PUSH2 0x59 JUMPI DUP1 PUSH4 0x6882A888 EQ PUSH2 0x17C JUMPI DUP1 PUSH4 0x9702BDF1 EQ PUSH2 0x1A6 JUMPI DUP1 PUSH4 0xA1634B14 EQ PUSH2 0x1B0 JUMPI DUP1 PUSH4 0xAD5C4648 EQ PUSH2 0x1C8 JUMPI DUP1 PUSH4 0xC14033BA EQ PUSH2 0x1E8 JUMPI PUSH1 0x0 DUP1 REVERT JUMPDEST DUP1 PUSH4 0x48A1A9D EQ PUSH2 0xA1 JUMPI DUP1 PUSH4 0x1E655C56 EQ PUSH2 0xD4 JUMPI DUP1 PUSH4 0x24F8ECA7 EQ PUSH2 0x104 JUMPI DUP1 PUSH4 0x5F64B55B EQ PUSH2 0x13C JUMPI DUP1 PUSH4 0x665A11CA EQ PUSH2 0x15C JUMPI PUSH1 0x0 DUP1 REVERT JUMPDEST CALLDATASIZE PUSH2 0x9C JUMPI STOP JUMPDEST PUSH1 0x0 DUP1 REVERT JUMPDEST CALLVALUE DUP1 ISZERO PUSH2 0xAD JUMPI PUSH1 0x0 DUP1 REVERT JUMPDEST POP PUSH2 0xC1 PUSH12 0x15B6A759F4835DC24000000 DUP2 JUMP JUMPDEST PUSH1 0x40 MLOAD SWAP1 DUP2 MSTORE PUSH1 0x20 ADD JUMPDEST PUSH1 0x40 MLOAD DUP1 SWAP2 SUB SWAP1 RETURN JUMPDEST PUSH2 0xDC PUSH2 0x202 JUMP JUMPDEST PUSH1 0x40 DUP1 MLOAD SWAP5 DUP6 MSTORE PUSH1 0x1 PUSH1 0x1 PUSH1 0x80 SHL SUB SWAP1 SWAP4 AND PUSH1 0x20 DUP6 ADD MSTORE SWAP2 DUP4 ADD MSTORE PUSH1 0x60 DUP3 ADD MSTORE PUSH1 0x80 ADD PUSH2 0xCB JUMP JUMPDEST CALLVALUE DUP1 ISZERO PUSH2 0x110 JUMPI PUSH1 0x0 DUP1 REVERT JUMPDEST POP PUSH1 0x0 SLOAD PUSH2 0x124 SWAP1 PUSH1 0x1 PUSH1 0x1 PUSH1 0xA0 SHL SUB AND DUP2 JUMP JUMPDEST PUSH1 0x40 MLOAD PUSH1 0x1 PUSH1 0x1 PUSH1 0xA0 SHL SUB SWAP1 SWAP2 AND DUP2 MSTORE PUSH1 0x20 ADD PUSH2 0xCB JUMP JUMPDEST CALLVALUE DUP1 ISZERO PUSH2 0x148 JUMPI PUSH1 0x0 DUP1 REVERT JUMPDEST POP PUSH1 0x2 SLOAD PUSH2 0x124 SWAP1 PUSH1 0x1 PUSH1 0x1 PUSH1 0xA0 SHL SUB AND DUP2 JUMP JUMPDEST CALLVALUE DUP1 ISZERO PUSH2 0x168 JUMPI PUSH1 0x0 DUP1 REVERT JUMPDEST POP PUSH1 0x3 SLOAD PUSH2 0x124 SWAP1 PUSH1 0x1 PUSH1 0x1 PUSH1 0xA0 SHL SUB AND DUP2 JUMP JUMPDEST CALLVALUE DUP1 ISZERO PUSH2 0x188 JUMPI PUSH1 0x0 DUP1 REVERT JUMPDEST POP PUSH2 0x193 PUSH3 0xD89B4 DUP2 JUMP JUMPDEST PUSH1 0x40 MLOAD PUSH1 0x2 SWAP2 SWAP1 SWAP2 SIGNEXTEND DUP2 MSTORE PUSH1 0x20 ADD PUSH2 0xCB JUMP JUMPDEST PUSH2 0x1AE PUSH2 0x694 JUMP JUMPDEST STOP JUMPDEST CALLVALUE DUP1 ISZERO PUSH2 0x1BC JUMPI PUSH1 0x0 DUP1 REVERT JUMPDEST POP PUSH2 0x193 PUSH3 0xD89B3 NOT DUP2 JUMP JUMPDEST CALLVALUE DUP1 ISZERO PUSH2 0x1D4 JUMPI PUSH1 0x0 DUP1 REVERT JUMPDEST POP PUSH1 0x1 SLOAD PUSH2 0x124 SWAP1 PUSH1 0x1 PUSH1 0x1 PUSH1 0xA0 SHL SUB AND DUP2 JUMP JUMPDEST CALLVALUE DUP1 ISZERO PUSH2 0x1F4 JUMPI PUSH1 0x0 DUP1 REVERT JUMPDEST POP PUSH2 0xC1 PUSH6 0x9184E72A000 DUP2 JUMP JUMPDEST PUSH1 0x3 SLOAD PUSH1 0x0 SWAP1 DUP2 SWAP1 DUP2 SWAP1 DUP2 SWAP1 PUSH1 0x1 PUSH1 0x1 PUSH1 0xA0 SHL SUB AND PUSH2 0x25F JUMPI PUSH1 0x40 MLOAD PUSH3 0x461BCD PUSH1 0xE5 SHL DUP2 MSTORE PUSH1 0x20 PUSH1 0x4 DUP3 ADD MSTORE PUSH1 0x14 PUSH1 0x24 DUP3 ADD MSTORE PUSH20 0x141BDBDB081B9BDD0818DC99585D1959081E595D PUSH1 0x62 SHL PUSH1 0x44 DUP3 ADD MSTORE PUSH1 0x64 ADD JUMPDEST PUSH1 0x40 MLOAD DUP1 SWAP2 SUB SWAP1 REVERT JUMPDEST PUSH6 0x9184E72A000 CALLVALUE EQ PUSH2 0x2B4 JUMPI PUSH1 0x40 MLOAD PUSH3 0x461BCD PUSH1 0xE5 SHL DUP2 MSTORE PUSH1 0x20 PUSH1 0x4 DUP3 ADD MSTORE PUSH1 0x1D PUSH1 0x24 DUP3 ADD MSTORE PUSH32 0x4D7573742073656E642065786163746C7920302E303030303120455448000000 PUSH1 0x44 DUP3 ADD MSTORE PUSH1 0x64 ADD PUSH2 0x256 JUMP JUMPDEST PUSH1 0x1 PUSH1 0x0 SWAP1 SLOAD SWAP1 PUSH2 0x100 EXP SWAP1 DIV PUSH1 0x1 PUSH1 0x1 PUSH1 0xA0 SHL SUB AND PUSH1 0x1 PUSH1 0x1 PUSH1 0xA0 SHL SUB AND PUSH4 0xD0E30DB0 CALLVALUE PUSH1 0x40 MLOAD DUP3 PUSH4 0xFFFFFFFF AND PUSH1 0xE0 SHL DUP2 MSTORE PUSH1 0x4 ADD PUSH1 0x0 PUSH1 0x40 MLOAD DUP1 DUP4 SUB DUP2 DUP6 DUP9 DUP1 EXTCODESIZE ISZERO DUP1 ISZERO PUSH2 0x304 JUMPI PUSH1 0x0 DUP1 REVERT JUMPDEST POP GAS CALL ISZERO DUP1 ISZERO PUSH2 0x318 JUMPI RETURNDATASIZE PUSH1 0x0 DUP1 RETURNDATACOPY RETURNDATASIZE PUSH1 0x0 REVERT JUMPDEST POP POP PUSH1 0x1 SLOAD PUSH1 0x40 MLOAD PUSH4 0x70A08231 PUSH1 0xE0 SHL DUP2 MSTORE ADDRESS PUSH1 0x4 DUP3 ADD MSTORE PUSH1 0x0 SWAP5 POP PUSH1 0x1 PUSH1 0x1 PUSH1 0xA0 SHL SUB SWAP1 SWAP2 AND SWAP3 POP PUSH4 0x70A08231 SWAP2 POP PUSH1 0x24 ADD PUSH1 0x20 PUSH1 0x40 MLOAD DUP1 DUP4 SUB DUP2 DUP7 GAS STATICCALL ISZERO DUP1 ISZERO PUSH2 0x368 JUMPI RETURNDATASIZE PUSH1 0x0 DUP1 RETURNDATACOPY RETURNDATASIZE PUSH1 0x0 REVERT JUMPDEST POP POP POP POP PUSH1 0x40 MLOAD RETURNDATASIZE PUSH1 0x1F NOT PUSH1 0x1F DUP3 ADD AND DUP3 ADD DUP1 PUSH1 0x40 MSTORE POP DUP2 ADD SWAP1 PUSH2 0x38C SWAP2 SWAP1 PUSH2 0x900 JUMP JUMPDEST PUSH1 0x2 SLOAD PUSH1 0x40 MLOAD PUSH4 0x70A08231 PUSH1 0xE0 SHL DUP2 MSTORE ADDRESS PUSH1 0x4 DUP3 ADD MSTORE SWAP2 SWAP3 POP PUSH1 0x0 SWAP2 PUSH1 0x1 PUSH1 0x1 PUSH1 0xA0 SHL SUB SWAP1 SWAP2 AND SWAP1 PUSH4 0x70A08231 SWAP1 PUSH1 0x24 ADD PUSH1 0x20 PUSH1 0x40 MLOAD DUP1 DUP4 SUB DUP2 DUP7 GAS STATICCALL ISZERO DUP1 ISZERO PUSH2 0x3DA JUMPI RETURNDATASIZE PUSH1 0x0 DUP1 RETURNDATACOPY RETURNDATASIZE PUSH1 0x0 REVERT JUMPDEST POP POP POP POP PUSH1 0x40 MLOAD RETURNDATASIZE PUSH1 0x1F NOT PUSH1 0x1F DUP3 ADD AND DUP3 ADD DUP1 PUSH1 0x40 MSTORE POP DUP2 ADD SWAP1 PUSH2 0x3FE SWAP2 SWAP1 PUSH2 0x900 JUMP JUMPDEST SWAP1 POP PUSH6 0x9184E72A000 DUP3 LT ISZERO PUSH2 0x448 JUMPI PUSH1 0x40 MLOAD PUSH3 0x461BCD PUSH1 0xE5 SHL DUP2 MSTORE PUSH1 0x20 PUSH1 0x4 DUP3 ADD MSTORE PUSH1 0xF PUSH1 0x24 DUP3 ADD MSTORE PUSH15 0x9CDEE840CADCDEEACED040AE8AA89 PUSH1 0x8B SHL PUSH1 0x44 DUP3 ADD MSTORE PUSH1 0x64 ADD PUSH2 0x256 JUMP JUMPDEST PUSH12 0x15B6A759F4835DC24000000 DUP2 LT ISZERO PUSH2 0x495 JUMPI PUSH1 0x40 MLOAD PUSH3 0x461BCD PUSH1 0xE5 SHL DUP2 MSTORE PUSH1 0x20 PUSH1 0x4 DUP3 ADD MSTORE PUSH1 0xE PUSH1 0x24 DUP3 ADD MSTORE PUSH14 0x2737BA1032B737BAB3B4102A25A1 PUSH1 0x91 SHL PUSH1 0x44 DUP3 ADD MSTORE PUSH1 0x64 ADD PUSH2 0x256 JUMP JUMPDEST PUSH1 0x2 SLOAD PUSH1 0x1 SLOAD PUSH1 0x0 SWAP2 PUSH1 0x1 PUSH1 0x1 PUSH1 0xA0 SHL SUB SWAP1 DUP2 AND SWAP2 AND LT PUSH2 0x4C1 JUMPI PUSH1 0x2 SLOAD PUSH1 0x1 PUSH1 0x1 PUSH1 0xA0 SHL SUB AND PUSH2 0x4CE JUMP JUMPDEST PUSH1 0x1 SLOAD PUSH1 0x1 PUSH1 0x1 PUSH1 0xA0 SHL SUB AND JUMPDEST PUSH1 0x2 SLOAD PUSH1 0x1 SLOAD SWAP2 SWAP3 POP PUSH1 0x0 SWAP2 PUSH1 0x1 PUSH1 0x1 PUSH1 0xA0 SHL SUB SWAP2 DUP3 AND SWAP2 AND LT PUSH2 0x4FD JUMPI PUSH1 0x1 SLOAD PUSH1 0x1 PUSH1 0x1 PUSH1 0xA0 SHL SUB AND PUSH2 0x50A JUMP JUMPDEST PUSH1 0x2 SLOAD PUSH1 0x1 PUSH1 0x1 PUSH1 0xA0 SHL SUB AND JUMPDEST PUSH1 0x1 SLOAD SWAP1 SWAP2 POP PUSH1 0x0 SWAP1 PUSH1 0x1 PUSH1 0x1 PUSH1 0xA0 SHL SUB DUP5 DUP2 AND SWAP2 AND EQ PUSH2 0x537 JUMPI PUSH12 0x15B6A759F4835DC24000000 PUSH2 0x539 JUMP JUMPDEST DUP5 JUMPDEST PUSH1 0x1 SLOAD SWAP1 SWAP2 POP PUSH1 0x0 SWAP1 PUSH1 0x1 PUSH1 0x1 PUSH1 0xA0 SHL SUB DUP6 DUP2 AND SWAP2 AND EQ PUSH2 0x55A JUMPI DUP6 PUSH2 0x568 JUMP JUMPDEST PUSH12 0x15B6A759F4835DC24000000 JUMPDEST PUSH1 0x0 SLOAD PUSH1 0x1 SLOAD SWAP2 SWAP3 POP PUSH2 0x588 SWAP2 PUSH1 0x1 PUSH1 0x1 PUSH1 0xA0 SHL SUB SWAP1 DUP2 AND SWAP2 AND DUP9 PUSH2 0x80F JUMP JUMPDEST PUSH1 0x0 SLOAD PUSH1 0x2 SLOAD PUSH2 0x5B1 SWAP2 PUSH1 0x1 PUSH1 0x1 PUSH1 0xA0 SHL SUB SWAP2 DUP3 AND SWAP2 AND PUSH12 0x15B6A759F4835DC24000000 PUSH2 0x80F JUMP JUMPDEST PUSH1 0x40 DUP1 MLOAD PUSH2 0x160 DUP2 ADD DUP3 MSTORE PUSH1 0x1 PUSH1 0x1 PUSH1 0xA0 SHL SUB DUP1 DUP8 AND DUP3 MSTORE DUP6 DUP2 AND PUSH1 0x20 DUP4 ADD MSTORE PUSH1 0x0 DUP3 DUP5 ADD DUP2 SWAP1 MSTORE PUSH3 0xD89B3 NOT PUSH1 0x60 DUP5 ADD MSTORE PUSH3 0xD89B4 PUSH1 0x80 DUP5 ADD MSTORE PUSH1 0xA0 DUP4 ADD DUP7 SWAP1 MSTORE PUSH1 0xC0 DUP4 ADD DUP6 SWAP1 MSTORE PUSH1 0xE0 DUP4 ADD DUP2 SWAP1 MSTORE PUSH2 0x100 DUP4 ADD DUP2 SWAP1 MSTORE ADDRESS PUSH2 0x120 DUP5 ADD MSTORE TIMESTAMP PUSH2 0x140 DUP5 ADD MSTORE SLOAD SWAP3 MLOAD PUSH4 0xFE3F3BE7 PUSH1 0xE0 SHL DUP2 MSTORE SWAP2 SWAP3 AND SWAP1 PUSH4 0xFE3F3BE7 SWAP1 PUSH2 0x63C SWAP1 DUP5 SWAP1 PUSH1 0x4 ADD PUSH2 0x919 JUMP JUMPDEST PUSH1 0x80 PUSH1 0x40 MLOAD DUP1 DUP4 SUB DUP2 PUSH1 0x0 DUP8 GAS CALL ISZERO DUP1 ISZERO PUSH2 0x65B JUMPI RETURNDATASIZE PUSH1 0x0 DUP1 RETURNDATACOPY RETURNDATASIZE PUSH1 0x0 REVERT JUMPDEST POP POP POP POP PUSH1 0x40 MLOAD RETURNDATASIZE PUSH1 0x1F NOT PUSH1 0x1F DUP3 ADD AND DUP3 ADD DUP1 PUSH1 0x40 MSTORE POP DUP2 ADD SWAP1 PUSH2 0x67F SWAP2 SWAP1 PUSH2 0x9E1 JUMP JUMPDEST SWAP3 SWAP15 SWAP2 SWAP14 POP SWAP12 POP SWAP1 SWAP10 POP SWAP8 POP POP POP POP POP POP POP POP JUMP JUMPDEST PUSH1 0x3 SLOAD PUSH1 0x1 PUSH1 0x1 PUSH1 0xA0 SHL SUB AND ISZERO PUSH2 0x6E3 JUMPI PUSH1 0x40 MLOAD PUSH3 0x461BCD PUSH1 0xE5 SHL DUP2 MSTORE PUSH1 0x20 PUSH1 0x4 DUP3 ADD MSTORE PUSH1 0x13 PUSH1 0x24 DUP3 ADD MSTORE PUSH19 0x506F6F6C20616C726561647920657869737473 PUSH1 0x68 SHL PUSH1 0x44 DUP3 ADD MSTORE PUSH1 0x64 ADD PUSH2 0x256 JUMP JUMPDEST PUSH1 0x2 SLOAD PUSH1 0x1 SLOAD PUSH1 0x1 PUSH1 0x60 SHL SWAP2 PUSH1 0x0 SWAP2 PUSH1 0x1 PUSH1 0x1 PUSH1 0xA0 SHL SUB SWAP2 DUP3 AND SWAP2 AND LT PUSH2 0x715 JUMPI PUSH1 0x2 SLOAD PUSH1 0x1 PUSH1 0x1 PUSH1 0xA0 SHL SUB AND PUSH2 0x722 JUMP JUMPDEST PUSH1 0x1 SLOAD PUSH1 0x1 PUSH1 0x1 PUSH1 0xA0 SHL SUB AND JUMPDEST PUSH1 0x2 SLOAD PUSH1 0x1 SLOAD SWAP2 SWAP3 POP PUSH1 0x0 SWAP2 PUSH1 0x1 PUSH1 0x1 PUSH1 0xA0 SHL SUB SWAP2 DUP3 AND SWAP2 AND LT PUSH2 0x751 JUMPI PUSH1 0x1 SLOAD PUSH1 0x1 PUSH1 0x1 PUSH1 0xA0 SHL SUB AND PUSH2 0x75E JUMP JUMPDEST PUSH1 0x2 SLOAD PUSH1 0x1 PUSH1 0x1 PUSH1 0xA0 SHL SUB AND JUMPDEST PUSH1 0x0 DUP1 SLOAD PUSH1 0x40 MLOAD PUSH4 0x43A9D0CD PUSH1 0xE1 SHL DUP2 MSTORE PUSH1 0x1 PUSH1 0x1 PUSH1 0xA0 SHL SUB DUP7 DUP2 AND PUSH1 0x4 DUP4 ADD MSTORE DUP1 DUP6 AND PUSH1 0x24 DUP4 ADD MSTORE PUSH1 0x44 DUP3 ADD DUP5 SWAP1 MSTORE DUP8 DUP2 AND PUSH1 0x64 DUP4 ADD MSTORE SWAP4 SWAP5 POP SWAP2 SWAP3 AND SWAP1 PUSH4 0x8753A19A SWAP1 PUSH1 0x84 ADD PUSH1 0x20 PUSH1 0x40 MLOAD DUP1 DUP4 SUB DUP2 PUSH1 0x0 DUP8 GAS CALL ISZERO DUP1 ISZERO PUSH2 0x7C5 JUMPI RETURNDATASIZE PUSH1 0x0 DUP1 RETURNDATACOPY RETURNDATASIZE PUSH1 0x0 REVERT JUMPDEST POP POP POP POP PUSH1 0x40 MLOAD RETURNDATASIZE PUSH1 0x1F NOT PUSH1 0x1F DUP3 ADD AND DUP3 ADD DUP1 PUSH1 0x40 MSTORE POP DUP2 ADD SWAP1 PUSH2 0x7E9 SWAP2 SWAP1 PUSH2 0xA2C JUMP JUMPDEST PUSH1 0x3 DUP1 SLOAD PUSH1 0x1 PUSH1 0x1 PUSH1 0xA0 SHL SUB NOT AND PUSH1 0x1 PUSH1 0x1 PUSH1 0xA0 SHL SUB SWAP3 SWAP1 SWAP3 AND SWAP2 SWAP1 SWAP2 OR SWAP1 SSTORE POP POP POP POP JUMP JUMPDEST PUSH1 0x40 DUP1 MLOAD PUSH1 0x1 PUSH1 0x1 PUSH1 0xA0 SHL SUB DUP5 DUP2 AND PUSH1 0x24 DUP4 ADD MSTORE PUSH1 0x44 DUP1 DUP4 ADD DUP6 SWAP1 MSTORE DUP4 MLOAD DUP1 DUP5 SUB SWAP1 SWAP2 ADD DUP2 MSTORE PUSH1 0x64 SWAP1 SWAP3 ADD DUP4 MSTORE PUSH1 0x20 DUP3 ADD DUP1 MLOAD PUSH1 0x1 PUSH1 0x1 PUSH1 0xE0 SHL SUB AND PUSH4 0x95EA7B3 PUSH1 0xE0 SHL OR SWAP1 MSTORE SWAP2 MLOAD PUSH1 0x0 SWAP3 DUP4 SWAP3 SWAP1 DUP8 AND SWAP2 PUSH2 0x86B SWAP2 SWAP1 PUSH2 0xA5C JUMP JUMPDEST PUSH1 0x0 PUSH1 0x40 MLOAD DUP1 DUP4 SUB DUP2 PUSH1 0x0 DUP7 GAS CALL SWAP2 POP POP RETURNDATASIZE DUP1 PUSH1 0x0 DUP2 EQ PUSH2 0x8A8 JUMPI PUSH1 0x40 MLOAD SWAP2 POP PUSH1 0x1F NOT PUSH1 0x3F RETURNDATASIZE ADD AND DUP3 ADD PUSH1 0x40 MSTORE RETURNDATASIZE DUP3 MSTORE RETURNDATASIZE PUSH1 0x0 PUSH1 0x20 DUP5 ADD RETURNDATACOPY PUSH2 0x8AD JUMP JUMPDEST PUSH1 0x60 SWAP2 POP JUMPDEST POP SWAP2 POP SWAP2 POP DUP2 ISZERO DUP1 PUSH2 0x8DB JUMPI POP DUP1 MLOAD ISZERO DUP1 ISZERO SWAP1 PUSH2 0x8DB JUMPI POP DUP1 DUP1 PUSH1 0x20 ADD SWAP1 MLOAD DUP2 ADD SWAP1 PUSH2 0x8D9 SWAP2 SWAP1 PUSH2 0xA8B JUMP JUMPDEST ISZERO JUMPDEST ISZERO PUSH2 0x8F9 JUMPI PUSH1 0x40 MLOAD PUSH4 0x7CD36C65 PUSH1 0xE1 SHL DUP2 MSTORE PUSH1 0x4 ADD PUSH1 0x40 MLOAD DUP1 SWAP2 SUB SWAP1 REVERT JUMPDEST POP POP POP POP POP JUMP JUMPDEST PUSH1 0x0 PUSH1 0x20 DUP3 DUP5 SUB SLT ISZERO PUSH2 0x912 JUMPI PUSH1 0x0 DUP1 REVERT JUMPDEST POP MLOAD SWAP2 SWAP1 POP JUMP JUMPDEST DUP2 MLOAD PUSH1 0x1 PUSH1 0x1 PUSH1 0xA0 SHL SUB AND DUP2 MSTORE PUSH2 0x160 DUP2 ADD PUSH1 0x20 DUP4 ADD MLOAD PUSH2 0x945 PUSH1 0x20 DUP5 ADD DUP3 PUSH1 0x1 PUSH1 0x1 PUSH1 0xA0 SHL SUB AND SWAP1 MSTORE JUMP JUMPDEST POP PUSH1 0x40 DUP4 ADD MLOAD PUSH2 0x960 PUSH1 0x40 DUP5 ADD DUP3 PUSH1 0x1 PUSH1 0x1 PUSH1 0xA0 SHL SUB AND SWAP1 MSTORE JUMP JUMPDEST POP PUSH1 0x60 DUP4 ADD MLOAD PUSH2 0x975 PUSH1 0x60 DUP5 ADD DUP3 PUSH1 0x2 SIGNEXTEND SWAP1 MSTORE JUMP JUMPDEST POP PUSH1 0x80 DUP4 ADD MLOAD PUSH2 0x98A PUSH1 0x80 DUP5 ADD DUP3 PUSH1 0x2 SIGNEXTEND SWAP1 MSTORE JUMP JUMPDEST POP PUSH1 0xA0 DUP4 ADD MLOAD PUSH1 0xA0 DUP4 ADD MSTORE PUSH1 0xC0 DUP4 ADD MLOAD PUSH1 0xC0 DUP4 ADD MSTORE PUSH1 0xE0 DUP4 ADD MLOAD PUSH1 0xE0 DUP4 ADD MSTORE PUSH2 0x100 DUP4 ADD MLOAD PUSH2 0x100 DUP4 ADD MSTORE PUSH2 0x120 DUP4 ADD MLOAD PUSH2 0x9D1 PUSH2 0x120 DUP5 ADD DUP3 PUSH1 0x1 PUSH1 0x1 PUSH1 0xA0 SHL SUB AND SWAP1 MSTORE JUMP JUMPDEST POP PUSH2 0x140 SWAP3 DUP4 ADD MLOAD SWAP2 SWAP1 SWAP3 ADD MSTORE SWAP1 JUMP JUMPDEST PUSH1 0x0 DUP1 PUSH1 0x0 DUP1 PUSH1 0x80 DUP6 DUP8 SUB SLT ISZERO PUSH2 0x9F7 JUMPI PUSH1 0x0 DUP1 REVERT JUMPDEST DUP5 MLOAD PUSH1 0x20 DUP7 ADD MLOAD SWAP1 SWAP5 POP PUSH1 0x1 PUSH1 0x1 PUSH1 0x80 SHL SUB DUP2 AND DUP2 EQ PUSH2 0xA16 JUMPI PUSH1 0x0 DUP1 REVERT JUMPDEST PUSH1 0x40 DUP7 ADD MLOAD PUSH1 0x60 SWAP1 SWAP7 ADD MLOAD SWAP5 SWAP8 SWAP1 SWAP7 POP SWAP3 POP POP POP JUMP JUMPDEST PUSH1 0x0 PUSH1 0x20 DUP3 DUP5 SUB SLT ISZERO PUSH2 0xA3E JUMPI PUSH1 0x0 DUP1 REVERT JUMPDEST DUP2 MLOAD PUSH1 0x1 PUSH1 0x1 PUSH1 0xA0 SHL SUB DUP2 AND DUP2 EQ PUSH2 0xA55 JUMPI PUSH1 0x0 DUP1 REVERT JUMPDEST SWAP4 SWAP3 POP POP POP JUMP JUMPDEST PUSH1 0x0 DUP3 MLOAD PUSH1 0x0 JUMPDEST DUP2 DUP2 LT ISZERO PUSH2 0xA7D JUMPI PUSH1 0x20 DUP2 DUP7 ADD DUP2 ADD MLOAD DUP6 DUP4 ADD MSTORE ADD PUSH2 0xA63 JUMP JUMPDEST POP PUSH1 0x0 SWAP3 ADD SWAP2 DUP3 MSTORE POP SWAP2 SWAP1 POP JUMP JUMPDEST PUSH1 0x0 PUSH1 0x20 DUP3 DUP5 SUB SLT ISZERO PUSH2 0xA9D JUMPI PUSH1 0x0 DUP1 REVERT JUMPDEST DUP2 MLOAD DUP1 ISZERO ISZERO DUP2 EQ PUSH2 0xA55 JUMPI PUSH1 0x0 DUP1 REVERT INVALID LOG2 PUSH5 0x6970667358 0x22 SLT KECCAK256 PUSH23 0x1CB3177C7CD373099E62BA2B1BD2B4047F455E398AA44D MULMOD NUMBER SWAP14 0xBF 0xB8 RETURNDATACOPY EXP PUSH26 0x64736F6C634300081A003360806040526002805460FF19166012 OR SWAP1 SSTORE CALLVALUE DUP1 ISZERO PUSH2 0x1D JUMPI PUSH1 0x0 DUP1 REVERT JUMPDEST POP PUSH1 0x40 MLOAD PUSH2 0xAD5 CODESIZE SUB DUP1 PUSH2 0xAD5 DUP4 CODECOPY DUP2 ADD PUSH1 0x40 DUP2 SWAP1 MSTORE PUSH2 0x3C SWAP2 PUSH2 0x1AB JUMP JUMPDEST PUSH1 0x0 PUSH2 0x48 DUP6 DUP3 PUSH2 0x2C7 JUMP JUMPDEST POP PUSH1 0x1 PUSH2 0x55 DUP5 DUP3 PUSH2 0x2C7 JUMP JUMPDEST POP PUSH2 0x60 DUP2 DUP4 PUSH2 0x69 JUMP JUMPDEST POP POP POP POP PUSH2 0x3AC JUMP JUMPDEST DUP1 PUSH1 0x3 PUSH1 0x0 DUP3 DUP3 SLOAD PUSH2 0x7B SWAP2 SWAP1 PUSH2 0x385 JUMP JUMPDEST SWAP1 SWAP2 SSTORE POP POP PUSH1 0x1 PUSH1 0x1 PUSH1 0xA0 SHL SUB DUP3 AND PUSH1 0x0 SWAP1 DUP2 MSTORE PUSH1 0x4 PUSH1 0x20 MSTORE PUSH1 0x40 DUP2 KECCAK256 DUP1 SLOAD DUP4 SWAP3 SWAP1 PUSH2 0xA8 SWAP1 DUP5 SWAP1 PUSH2 0x385 JUMP JUMPDEST SWAP1 SWAP2 SSTORE POP POP PUSH1 0x40 MLOAD DUP2 DUP2 MSTORE PUSH1 0x1 PUSH1 0x1 PUSH1 0xA0 SHL SUB DUP4 AND SWAP1 PUSH1 0x0 SWAP1 PUSH32 0xDDF252AD1BE2C89B69C2B068FC378DAA952BA7F163C4A11628F55A4DF523B3EF SWAP1 PUSH1 0x20 ADD PUSH1 0x40 MLOAD DUP1 SWAP2 SUB SWAP1 LOG3 POP POP JUMP JUMPDEST PUSH4 0x4E487B71 PUSH1 0xE0 SHL PUSH1 0x0 MSTORE PUSH1 0x41 PUSH1 0x4 MSTORE PUSH1 0x24 PUSH1 0x0 REVERT JUMPDEST PUSH1 0x0 DUP3 PUSH1 0x1F DUP4 ADD SLT PUSH2 0x119 JUMPI PUSH1 0x0 DUP1 REVERT JUMPDEST DUP2 MLOAD PUSH1 0x1 PUSH1 0x1 PUSH1 0x40 SHL SUB DUP2 GT ISZERO PUSH2 0x132 JUMPI PUSH2 0x132 PUSH2 0xF2 JUMP JUMPDEST PUSH1 0x40 MLOAD PUSH1 0x1F DUP3 ADD PUSH1 0x1F NOT SWAP1 DUP2 AND PUSH1 0x3F ADD AND DUP2 ADD PUSH1 0x1 PUSH1 0x1 PUSH1 0x40 SHL SUB DUP2 GT DUP3 DUP3 LT OR ISZERO PUSH2 0x160 JUMPI PUSH2 0x160 PUSH2 0xF2 JUMP JUMPDEST PUSH1 0x40 MSTORE DUP2 DUP2 MSTORE DUP4 DUP3 ADD PUSH1 0x20 ADD DUP6 LT ISZERO PUSH2 0x178 JUMPI PUSH1 0x0 DUP1 REVERT JUMPDEST PUSH1 0x0 JUMPDEST DUP3 DUP2 LT ISZERO PUSH2 0x197 JUMPI PUSH1 0x20 DUP2 DUP7 ADD DUP2 ADD MLOAD DUP4 DUP4 ADD DUP3 ADD MSTORE ADD PUSH2 0x17B JUMP JUMPDEST POP PUSH1 0x0 SWAP2 DUP2 ADD PUSH1 0x20 ADD SWAP2 SWAP1 SWAP2 MSTORE SWAP4 SWAP3 POP POP POP JUMP JUMPDEST PUSH1 0x0 DUP1 PUSH1 0x0 DUP1 PUSH1 0x80 DUP6 DUP8 SUB SLT ISZERO PUSH2 0x1C1 JUMPI PUSH1 0x0 DUP1 REVERT JUMPDEST DUP5 MLOAD PUSH1 0x1 PUSH1 0x1 PUSH1 0x40 SHL SUB DUP2 GT ISZERO PUSH2 0x1D7 JUMPI PUSH1 0x0 DUP1 REVERT JUMPDEST PUSH2 0x1E3 DUP8 DUP3 DUP9 ADD PUSH2 0x108 JUMP JUMPDEST PUSH1 0x20 DUP8 ADD MLOAD SWAP1 SWAP6 POP SWAP1 POP PUSH1 0x1 PUSH1 0x1 PUSH1 0x40 SHL SUB DUP2 GT ISZERO PUSH2 0x201 JUMPI PUSH1 0x0 DUP1 REVERT JUMPDEST PUSH2 0x20D DUP8 DUP3 DUP9 ADD PUSH2 0x108 JUMP JUMPDEST PUSH1 0x40 DUP8 ADD MLOAD PUSH1 0x60 DUP9 ADD MLOAD SWAP2 SWAP6 POP SWAP4 POP SWAP1 POP PUSH1 0x1 PUSH1 0x1 PUSH1 0xA0 SHL SUB DUP2 AND DUP2 EQ PUSH2 0x233 JUMPI PUSH1 0x0 DUP1 REVERT JUMPDEST SWAP4 SWAP7 SWAP3 SWAP6 POP SWAP1 SWAP4 POP POP JUMP JUMPDEST PUSH1 0x1 DUP2 DUP2 SHR SWAP1 DUP3 AND DUP1 PUSH2 0x252 JUMPI PUSH1 0x7F DUP3 AND SWAP2 POP JUMPDEST PUSH1 0x20 DUP3 LT DUP2 SUB PUSH2 0x272 JUMPI PUSH4 0x4E487B71 PUSH1 0xE0 SHL PUSH1 0x0 MSTORE PUSH1 0x22 PUSH1 0x4 MSTORE PUSH1 0x24 PUSH1 0x0 REVERT JUMPDEST POP SWAP2 SWAP1 POP JUMP JUMPDEST PUSH1 0x1F DUP3 GT ISZERO PUSH2 0x2C2 JUMPI DUP1 PUSH1 0x0 MSTORE PUSH1 0x20 PUSH1 0x0 KECCAK256 PUSH1 0x1F DUP5 ADD PUSH1 0x5 SHR DUP2 ADD PUSH1 0x20 DUP6 LT ISZERO PUSH2 0x29F JUMPI POP DUP1 JUMPDEST PUSH1 0x1F DUP5 ADD PUSH1 0x5 SHR DUP3 ADD SWAP2 POP JUMPDEST DUP2 DUP2 LT ISZERO PUSH2 0x2BF JUMPI PUSH1 0x0 DUP2 SSTORE PUSH1 0x1 ADD PUSH2 0x2AB JUMP JUMPDEST POP POP JUMPDEST POP POP POP JUMP JUMPDEST DUP2 MLOAD PUSH1 0x1 PUSH1 0x1 PUSH1 0x40 SHL SUB DUP2 GT ISZERO PUSH2 0x2E0 JUMPI PUSH2 0x2E0 PUSH2 0xF2 JUMP JUMPDEST PUSH2 0x2F4 DUP2 PUSH2 0x2EE DUP5 SLOAD PUSH2 0x23E JUMP JUMPDEST DUP5 PUSH2 0x278 JUMP JUMPDEST PUSH1 0x20 PUSH1 0x1F DUP3 GT PUSH1 0x1 DUP2 EQ PUSH2 0x328 JUMPI PUSH1 0x0 DUP4 ISZERO PUSH2 0x310 JUMPI POP DUP5 DUP3 ADD MLOAD JUMPDEST PUSH1 0x0 NOT PUSH1 0x3 DUP6 SWAP1 SHL SHR NOT AND PUSH1 0x1 DUP5 SWAP1 SHL OR DUP5 SSTORE PUSH2 0x2BF JUMP JUMPDEST PUSH1 0x0 DUP5 DUP2 MSTORE PUSH1 0x20 DUP2 KECCAK256 PUSH1 0x1F NOT DUP6 AND SWAP2 JUMPDEST DUP3 DUP2 LT ISZERO PUSH2 0x358 JUMPI DUP8 DUP6 ADD MLOAD DUP3 SSTORE PUSH1 0x20 SWAP5 DUP6 ADD SWAP5 PUSH1 0x1 SWAP1 SWAP3 ADD SWAP2 ADD PUSH2 0x338 JUMP JUMPDEST POP DUP5 DUP3 LT ISZERO PUSH2 0x376 JUMPI DUP7 DUP5 ADD MLOAD PUSH1 0x0 NOT PUSH1 0x3 DUP8 SWAP1 SHL PUSH1 0xF8 AND SHR NOT AND DUP2 SSTORE JUMPDEST POP POP POP POP PUSH1 0x1 SWAP1 DUP2 SHL ADD SWAP1 SSTORE POP JUMP JUMPDEST DUP1 DUP3 ADD DUP1 DUP3 GT ISZERO PUSH2 0x3A6 JUMPI PUSH4 0x4E487B71 PUSH1 0xE0 SHL PUSH1 0x0 MSTORE PUSH1 0x11 PUSH1 0x4 MSTORE PUSH1 0x24 PUSH1 0x0 REVERT JUMPDEST SWAP3 SWAP2 POP POP JUMP JUMPDEST PUSH2 0x71A DUP1 PUSH2 0x3BB PUSH1 0x0 CODECOPY PUSH1 0x0 RETURN INVALID PUSH1 0x80 PUSH1 0x40 MSTORE CALLVALUE DUP1 ISZERO PUSH2 0x10 JUMPI PUSH1 0x0 DUP1 REVERT JUMPDEST POP PUSH1 0x4 CALLDATASIZE LT PUSH2 0x93 JUMPI PUSH1 0x0 CALLDATALOAD PUSH1 0xE0 SHR DUP1 PUSH4 0x313CE567 GT PUSH2 0x66 JUMPI DUP1 PUSH4 0x313CE567 EQ PUSH2 0x103 JUMPI DUP1 PUSH4 0x70A08231 EQ PUSH2 0x122 JUMPI DUP1 PUSH4 0x95D89B41 EQ PUSH2 0x142 JUMPI DUP1 PUSH4 0xA9059CBB EQ PUSH2 0x14A JUMPI DUP1 PUSH4 0xDD62ED3E EQ PUSH2 0x15D JUMPI PUSH1 0x0 DUP1 REVERT JUMPDEST DUP1 PUSH4 0x6FDDE03 EQ PUSH2 0x98 JUMPI DUP1 PUSH4 0x95EA7B3 EQ PUSH2 0xB6 JUMPI DUP1 PUSH4 0x18160DDD EQ PUSH2 0xD9 JUMPI DUP1 PUSH4 0x23B872DD EQ PUSH2 0xF0 JUMPI JUMPDEST PUSH1 0x0 DUP1 REVERT JUMPDEST PUSH2 0xA0 PUSH2 0x188 JUMP JUMPDEST PUSH1 0x40 MLOAD PUSH2 0xAD SWAP2 SWAP1 PUSH2 0x548 JUMP JUMPDEST PUSH1 0x40 MLOAD DUP1 SWAP2 SUB SWAP1 RETURN JUMPDEST PUSH2 0xC9 PUSH2 0xC4 CALLDATASIZE PUSH1 0x4 PUSH2 0x5B2 JUMP JUMPDEST PUSH2 0x216 JUMP JUMPDEST PUSH1 0x40 MLOAD SWAP1 ISZERO ISZERO DUP2 MSTORE PUSH1 0x20 ADD PUSH2 0xAD JUMP JUMPDEST PUSH2 0xE2 PUSH1 0x3 SLOAD DUP2 JUMP JUMPDEST PUSH1 0x40 MLOAD SWAP1 DUP2 MSTORE PUSH1 0x20 ADD PUSH2 0xAD JUMP JUMPDEST PUSH2 0xC9 PUSH2 0xFE CALLDATASIZE PUSH1 0x4 PUSH2 0x5DC JUMP JUMPDEST PUSH2 0x283 JUMP JUMPDEST PUSH1 0x2 SLOAD PUSH2 0x110 SWAP1 PUSH1 0xFF AND DUP2 JUMP JUMPDEST PUSH1 0x40 MLOAD PUSH1 0xFF SWAP1 SWAP2 AND DUP2 MSTORE PUSH1 0x20 ADD PUSH2 0xAD JUMP JUMPDEST PUSH2 0xE2 PUSH2 0x130 CALLDATASIZE PUSH1 0x4 PUSH2 0x619 JUMP JUMPDEST PUSH1 0x4 PUSH1 0x20 MSTORE PUSH1 0x0 SWAP1 DUP2 MSTORE PUSH1 0x40 SWAP1 KECCAK256 SLOAD DUP2 JUMP JUMPDEST PUSH2 0xA0 PUSH2 0x44E JUMP JUMPDEST PUSH2 0xC9 PUSH2 0x158 CALLDATASIZE PUSH1 0x4 PUSH2 0x5B2 JUMP JUMPDEST PUSH2 0x45B JUMP JUMPDEST PUSH2 0xE2 PUSH2 0x16B CALLDATASIZE PUSH1 0x4 PUSH2 0x63B JUMP JUMPDEST PUSH1 0x5 PUSH1 0x20 SWAP1 DUP2 MSTORE PUSH1 0x0 SWAP3 DUP4 MSTORE PUSH1 0x40 DUP1 DUP5 KECCAK256 SWAP1 SWAP2 MSTORE SWAP1 DUP3 MSTORE SWAP1 KECCAK256 SLOAD DUP2 JUMP JUMPDEST PUSH1 0x0 DUP1 SLOAD PUSH2 0x195 SWAP1 PUSH2 0x66E JUMP JUMPDEST DUP1 PUSH1 0x1F ADD PUSH1 0x20 DUP1 SWAP2 DIV MUL PUSH1 0x20 ADD PUSH1 0x40 MLOAD SWAP1 DUP2 ADD PUSH1 0x40 MSTORE DUP1 SWAP3 SWAP2 SWAP1 DUP2 DUP2 MSTORE PUSH1 0x20 ADD DUP3 DUP1 SLOAD PUSH2 0x1C1 SWAP1 PUSH2 0x66E JUMP JUMPDEST DUP1 ISZERO PUSH2 0x20E JUMPI DUP1 PUSH1 0x1F LT PUSH2 0x1E3 JUMPI PUSH2 0x100 DUP1 DUP4 SLOAD DIV MUL DUP4 MSTORE SWAP2 PUSH1 0x20 ADD SWAP2 PUSH2 0x20E JUMP JUMPDEST DUP3 ADD SWAP2 SWAP1 PUSH1 0x0 MSTORE PUSH1 0x20 PUSH1 0x0 KECCAK256 SWAP1 JUMPDEST DUP2 SLOAD DUP2 MSTORE SWAP1 PUSH1 0x1 ADD SWAP1 PUSH1 0x20 ADD DUP1 DUP4 GT PUSH2 0x1F1 JUMPI DUP3 SWAP1 SUB PUSH1 0x1F AND DUP3 ADD SWAP2 JUMPDEST POP POP POP POP POP DUP2 JUMP JUMPDEST CALLER PUSH1 0x0 DUP2 DUP2 MSTORE PUSH1 0x5 PUSH1 0x20 SWAP1 DUP2 MSTORE PUSH1 0x40 DUP1 DUP4 KECCAK256 PUSH1 0x1 PUSH1 0x1 PUSH1 0xA0 SHL SUB DUP8 AND DUP1 DUP6 MSTORE SWAP3 MSTORE DUP1 DUP4 KECCAK256 DUP6 SWAP1 SSTORE MLOAD SWAP2 SWAP3 SWAP1 SWAP2 PUSH32 0x8C5BE1E5EBEC7D5BD14F71427D1E84F3DD0314C0F7B2291E5B200AC8C7C3B925 SWAP1 PUSH2 0x271 SWAP1 DUP7 DUP2 MSTORE PUSH1 0x20 ADD SWAP1 JUMP JUMPDEST PUSH1 0x40 MLOAD DUP1 SWAP2 SUB SWAP1 LOG3 POP PUSH1 0x1 JUMPDEST SWAP3 SWAP2 POP POP JUMP JUMPDEST PUSH1 0x1 PUSH1 0x1 PUSH1 0xA0 SHL SUB DUP4 AND PUSH1 0x0 SWAP1 DUP2 MSTORE PUSH1 0x4 PUSH1 0x20 MSTORE PUSH1 0x40 DUP2 KECCAK256 SLOAD DUP3 GT ISZERO PUSH2 0x2F0 JUMPI PUSH1 0x40 MLOAD PUSH3 0x461BCD PUSH1 0xE5 SHL DUP2 MSTORE PUSH1 0x20 PUSH1 0x4 DUP3 ADD MSTORE PUSH1 0x1B PUSH1 0x24 DUP3 ADD MSTORE PUSH32 0x45524332303A20696E73756666696369656E742062616C616E63650000000000 PUSH1 0x44 DUP3 ADD MSTORE PUSH1 0x64 ADD JUMPDEST PUSH1 0x40 MLOAD DUP1 SWAP2 SUB SWAP1 REVERT JUMPDEST PUSH1 0x1 PUSH1 0x1 PUSH1 0xA0 SHL SUB DUP5 AND PUSH1 0x0 SWAP1 DUP2 MSTORE PUSH1 0x5 PUSH1 0x20 SWAP1 DUP2 MSTORE PUSH1 0x40 DUP1 DUP4 KECCAK256 CALLER DUP5 MSTORE SWAP1 SWAP2 MSTORE SWAP1 KECCAK256 SLOAD DUP3 GT ISZERO PUSH2 0x363 JUMPI PUSH1 0x40 MLOAD PUSH3 0x461BCD PUSH1 0xE5 SHL DUP2 MSTORE PUSH1 0x20 PUSH1 0x4 DUP3 ADD MSTORE PUSH1 0x1D PUSH1 0x24 DUP3 ADD MSTORE PUSH32 0x45524332303A20696E73756666696369656E7420616C6C6F77616E6365000000 PUSH1 0x44 DUP3 ADD MSTORE PUSH1 0x64 ADD PUSH2 0x2E7 JUMP JUMPDEST PUSH1 0x1 PUSH1 0x1 PUSH1 0xA0 SHL SUB DUP5 AND PUSH1 0x0 SWAP1 DUP2 MSTORE PUSH1 0x4 PUSH1 0x20 MSTORE PUSH1 0x40 DUP2 KECCAK256 DUP1 SLOAD DUP5 SWAP3 SWAP1 PUSH2 0x38B SWAP1 DUP5 SWAP1 PUSH2 0x6BE JUMP JUMPDEST SWAP1 SWAP2 SSTORE POP POP PUSH1 0x1 PUSH1 0x1 PUSH1 0xA0 SHL SUB DUP5 AND PUSH1 0x0 SWAP1 DUP2 MSTORE PUSH1 0x5 PUSH1 0x20 SWAP1 DUP2 MSTORE PUSH1 0x40 DUP1 DUP4 KECCAK256 CALLER DUP5 MSTORE SWAP1 SWAP2 MSTORE DUP2 KECCAK256 DUP1 SLOAD DUP5 SWAP3 SWAP1 PUSH2 0x3C3 SWAP1 DUP5 SWAP1 PUSH2 0x6BE JUMP JUMPDEST SWAP1 SWAP2 SSTORE POP POP PUSH1 0x1 PUSH1 0x1 PUSH1 0xA0 SHL SUB DUP4 AND PUSH1 0x0 SWAP1 DUP2 MSTORE PUSH1 0x4 PUSH1 0x20 MSTORE PUSH1 0x40 DUP2 KECCAK256 DUP1 SLOAD DUP5 SWAP3 SWAP1 PUSH2 0x3F0 SWAP1 DUP5 SWAP1 PUSH2 0x6D1 JUMP JUMPDEST SWAP3 POP POP DUP2 SWAP1 SSTORE POP DUP3 PUSH1 0x1 PUSH1 0x1 PUSH1 0xA0 SHL SUB AND DUP5 PUSH1 0x1 PUSH1 0x1 PUSH1 0xA0 SHL SUB AND PUSH32 0xDDF252AD1BE2C89B69C2B068FC378DAA952BA7F163C4A11628F55A4DF523B3EF DUP5 PUSH1 0x40 MLOAD PUSH2 0x43C SWAP2 DUP2 MSTORE PUSH1 0x20 ADD SWAP1 JUMP JUMPDEST PUSH1 0x40 MLOAD DUP1 SWAP2 SUB SWAP1 LOG3 POP PUSH1 0x1 SWAP4 SWAP3 POP POP POP JUMP JUMPDEST PUSH1 0x1 DUP1 SLOAD PUSH2 0x195 SWAP1 PUSH2 0x66E JUMP JUMPDEST CALLER PUSH1 0x0 SWAP1 DUP2 MSTORE PUSH1 0x4 PUSH1 0x20 MSTORE PUSH1 0x40 DUP2 KECCAK256 SLOAD DUP3 GT ISZERO PUSH2 0x4BA JUMPI PUSH1 0x40 MLOAD PUSH3 0x461BCD PUSH1 0xE5 SHL DUP2 MSTORE PUSH1 0x20 PUSH1 0x4 DUP3 ADD MSTORE PUSH1 0x1B PUSH1 0x24 DUP3 ADD MSTORE PUSH32 0x45524332303A20696E73756666696369656E742062616C616E63650000000000 PUSH1 0x44 DUP3 ADD MSTORE PUSH1 0x64 ADD PUSH2 0x2E7 JUMP JUMPDEST CALLER PUSH1 0x0 SWAP1 DUP2 MSTORE PUSH1 0x4 PUSH1 0x20 MSTORE PUSH1 0x40 DUP2 KECCAK256 DUP1 SLOAD DUP5 SWAP3 SWAP1 PUSH2 0x4D9 SWAP1 DUP5 SWAP1 PUSH2 0x6BE JUMP JUMPDEST SWAP1 SWAP2 SSTORE POP POP PUSH1 0x1 PUSH1 0x1 PUSH1 0xA0 SHL SUB DUP4 AND PUSH1 0x0 SWAP1 DUP2 MSTORE PUSH1 0x4 PUSH1 0x20 MSTORE PUSH1 0x40 DUP2 KECCAK256 DUP1 SLOAD DUP5 SWAP3 SWAP1 PUSH2 0x506 SWAP1 DUP5 SWAP1 PUSH2 0x6D1 JUMP JUMPDEST SWAP1 SWAP2 SSTORE POP POP PUSH1 0x40 MLOAD DUP3 DUP2 MSTORE PUSH1 0x1 PUSH1 0x1 PUSH1 0xA0 SHL SUB DUP5 AND SWAP1 CALLER SWAP1 PUSH32 0xDDF252AD1BE2C89B69C2B068FC378DAA952BA7F163C4A11628F55A4DF523B3EF SWAP1 PUSH1 0x20 ADD PUSH2 0x271 JUMP JUMPDEST PUSH1 0x20 DUP2 MSTORE PUSH1 0x0 DUP3 MLOAD DUP1 PUSH1 0x20 DUP5 ADD MSTORE PUSH1 0x0 JUMPDEST DUP2 DUP2 LT ISZERO PUSH2 0x576 JUMPI PUSH1 0x20 DUP2 DUP7 ADD DUP2 ADD MLOAD PUSH1 0x40 DUP7 DUP5 ADD ADD MSTORE ADD PUSH2 0x559 JUMP JUMPDEST POP PUSH1 0x0 PUSH1 0x40 DUP3 DUP6 ADD ADD MSTORE PUSH1 0x40 PUSH1 0x1F NOT PUSH1 0x1F DUP4 ADD AND DUP5 ADD ADD SWAP2 POP POP SWAP3 SWAP2 POP POP JUMP JUMPDEST DUP1 CALLDATALOAD PUSH1 0x1 PUSH1 0x1 PUSH1 0xA0 SHL SUB DUP2 AND DUP2 EQ PUSH2 0x5AD JUMPI PUSH1 0x0 DUP1 REVERT JUMPDEST SWAP2 SWAP1 POP JUMP JUMPDEST PUSH1 0x0 DUP1 PUSH1 0x40 DUP4 DUP6 SUB SLT ISZERO PUSH2 0x5C5 JUMPI PUSH1 0x0 DUP1 REVERT JUMPDEST PUSH2 0x5CE DUP4 PUSH2 0x596 JUMP JUMPDEST SWAP5 PUSH1 0x20 SWAP4 SWAP1 SWAP4 ADD CALLDATALOAD SWAP4 POP POP POP JUMP JUMPDEST PUSH1 0x0 DUP1 PUSH1 0x0 PUSH1 0x60 DUP5 DUP7 SUB SLT ISZERO PUSH2 0x5F1 JUMPI PUSH1 0x0 DUP1 REVERT JUMPDEST PUSH2 0x5FA DUP5 PUSH2 0x596 JUMP JUMPDEST SWAP3 POP PUSH2 0x608 PUSH1 0x20 DUP6 ADD PUSH2 0x596 JUMP JUMPDEST SWAP3 SWAP6 SWAP3 SWAP5 POP POP POP PUSH1 0x40 SWAP2 SWAP1 SWAP2 ADD CALLDATALOAD SWAP1 JUMP JUMPDEST PUSH1 0x0 PUSH1 0x20 DUP3 DUP5 SUB SLT ISZERO PUSH2 0x62B JUMPI PUSH1 0x0 DUP1 REVERT JUMPDEST PUSH2 0x634 DUP3 PUSH2 0x596 JUMP JUMPDEST SWAP4 SWAP3 POP POP POP JUMP JUMPDEST PUSH1 0x0 DUP1 PUSH1 0x40 DUP4 DUP6 SUB SLT ISZERO PUSH2 0x64E JUMPI PUSH1 0x0 DUP1 REVERT JUMPDEST PUSH2 0x657 DUP4 PUSH2 0x596 JUMP JUMPDEST SWAP2 POP PUSH2 0x665 PUSH1 0x20 DUP5 ADD PUSH2 0x596 JUMP JUMPDEST SWAP1 POP SWAP3 POP SWAP3 SWAP1 POP JUMP JUMPDEST PUSH1 0x1 DUP2 DUP2 SHR SWAP1 DUP3 AND DUP1 PUSH2 0x682 JUMPI PUSH1 0x7F DUP3 AND SWAP2 POP JUMPDEST PUSH1 0x20 DUP3 LT DUP2 SUB PUSH2 0x6A2 JUMPI PUSH4 0x4E487B71 PUSH1 0xE0 SHL PUSH1 0x0 MSTORE PUSH1 0x22 PUSH1 0x4 MSTORE PUSH1 0x24 PUSH1 0x0 REVERT JUMPDEST POP SWAP2 SWAP1 POP JUMP JUMPDEST PUSH4 0x4E487B71 PUSH1 0xE0 SHL PUSH1 0x0 MSTORE PUSH1 0x11 PUSH1 0x4 MSTORE PUSH1 0x24 PUSH1 0x0 REVERT JUMPDEST DUP2 DUP2 SUB DUP2 DUP2 GT ISZERO PUSH2 0x27D JUMPI PUSH2 0x27D PUSH2 0x6A8 JUMP JUMPDEST DUP1 DUP3 ADD DUP1 DUP3 GT ISZERO PUSH2 0x27D JUMPI PUSH2 0x27D PUSH2 0x6A8 JUMP INVALID LOG2 PUSH5 0x6970667358 0x22 SLT KECCAK256 STOP 0x28 0xCB 0xAC SWAP13 0xE 0xD1 PUSH3 0xAD618D 0xC9 0xD5 PUSH5 0x4B0665F707 0xE9 LOG1 0x4F STOP STATICCALL 0xBB CREATE SLT 0xEA 0xDE 0xE7 0xAB 0x22 PUSH5 0x736F6C6343 STOP ADDMOD BYTE STOP CALLER "
				},
				"gasEstimates": {
					"creation": {
						"codeDepositCost": "557400",
						"executionCost": "infinite",
						"totalCost": "infinite"
					},
					"external": {
						"ETH_AMOUNT()": "272",
						"MAX_TICK()": "209",
						"MIN_TICK()": "256",
						"TOKEN_AMOUNT()": "185",
						"WETH()": "2403",
						"algebraUnified()": "2382",
						"createPoolAlgebra()": "infinite",
						"liquidityPool()": "2426",
						"mintWithWETHAndTKB()": "infinite",
						"tokenB()": "2404"
					}
				},
				"methodIdentifiers": {
					"ETH_AMOUNT()": "c14033ba",
					"MAX_TICK()": "6882a888",
					"MIN_TICK()": "a1634b14",
					"TOKEN_AMOUNT()": "048a1a9d",
					"WETH()": "ad5c4648",
					"algebraUnified()": "24f8eca7",
					"createPoolAlgebra()": "9702bdf1",
					"liquidityPool()": "665a11ca",
					"mintWithWETHAndTKB()": "1e655c56",
					"tokenB()": "5f64b55b"
				}
			},
			"storageLayout": {
				"storage": [
					{
						"astId": 511,
						"contract": "contracts/token factory/testAlgebrav2.sol:AlgebraPoolCreator",
						"label": "algebraUnified",
						"offset": 0,
						"slot": "0",
						"type": "t_address"
					},
					{
						"astId": 513,
						"contract": "contracts/token factory/testAlgebrav2.sol:AlgebraPoolCreator",
						"label": "WETH",
						"offset": 0,
						"slot": "1",
						"type": "t_address"
					},
					{
						"astId": 515,
						"contract": "contracts/token factory/testAlgebrav2.sol:AlgebraPoolCreator",
						"label": "tokenB",
						"offset": 0,
						"slot": "2",
						"type": "t_address"
					},
					{
						"astId": 517,
						"contract": "contracts/token factory/testAlgebrav2.sol:AlgebraPoolCreator",
						"label": "liquidityPool",
						"offset": 0,
						"slot": "3",
						"type": "t_address"
					}
				],
				"types": {
					"t_address": {
						"encoding": "inplace",
						"label": "address",
						"numberOfBytes": "20"
					}
				}
			},
			"userdoc": {
				"kind": "user",
				"methods": {},
				"version": 1
			}
		}
	}
}