{
	"contracts/token factory/LiquidityPool.sol": {
		"LiquidityPool": {
			"abi": [
				{
					"inputs": [
						{
							"internalType": "address",
							"name": "_devAddress",
							"type": "address"
						},
						{
							"internalType": "address",
							"name": "_tokenFactory",
							"type": "address"
						}
					],
					"stateMutability": "nonpayable",
					"type": "constructor"
				},
				{
					"inputs": [],
					"name": "ReentrancyGuardReentrantCall",
					"type": "error"
				},
				{
					"anonymous": false,
					"inputs": [
						{
							"indexed": false,
							"internalType": "uint256",
							"name": "newBuyTax",
							"type": "uint256"
						}
					],
					"name": "BuyTaxUpdated",
					"type": "event"
				},
				{
					"anonymous": false,
					"inputs": [
						{
							"indexed": false,
							"internalType": "uint256",
							"name": "amountToken",
							"type": "uint256"
						},
						{
							"indexed": false,
							"internalType": "uint256",
							"name": "amountEther",
							"type": "uint256"
						}
					],
					"name": "LiquidityAdded",
					"type": "event"
				},
				{
					"anonymous": false,
					"inputs": [
						{
							"indexed": false,
							"internalType": "uint256",
							"name": "newSellTax",
							"type": "uint256"
						}
					],
					"name": "SellTaxUpdated",
					"type": "event"
				},
				{
					"anonymous": false,
					"inputs": [
						{
							"indexed": true,
							"internalType": "address",
							"name": "buyer",
							"type": "address"
						},
						{
							"indexed": false,
							"internalType": "uint256",
							"name": "amountInEther",
							"type": "uint256"
						},
						{
							"indexed": false,
							"internalType": "uint256",
							"name": "amountOutTokens",
							"type": "uint256"
						},
						{
							"indexed": false,
							"internalType": "uint256",
							"name": "buyTax",
							"type": "uint256"
						}
					],
					"name": "TokensPurchased",
					"type": "event"
				},
				{
					"anonymous": false,
					"inputs": [
						{
							"indexed": true,
							"internalType": "address",
							"name": "seller",
							"type": "address"
						},
						{
							"indexed": false,
							"internalType": "uint256",
							"name": "amountInTokens",
							"type": "uint256"
						},
						{
							"indexed": false,
							"internalType": "uint256",
							"name": "amountOutEther",
							"type": "uint256"
						},
						{
							"indexed": false,
							"internalType": "uint256",
							"name": "sellTax",
							"type": "uint256"
						}
					],
					"name": "TokensSold",
					"type": "event"
				},
				{
					"inputs": [],
					"name": "buyTax",
					"outputs": [
						{
							"internalType": "uint256",
							"name": "",
							"type": "uint256"
						}
					],
					"stateMutability": "view",
					"type": "function"
				},
				{
					"inputs": [],
					"name": "buyToken",
					"outputs": [
						{
							"internalType": "uint256",
							"name": "amountOut",
							"type": "uint256"
						}
					],
					"stateMutability": "payable",
					"type": "function"
				},
				{
					"inputs": [],
					"name": "devAddress",
					"outputs": [
						{
							"internalType": "address",
							"name": "",
							"type": "address"
						}
					],
					"stateMutability": "view",
					"type": "function"
				},
				{
					"inputs": [],
					"name": "getReserve",
					"outputs": [
						{
							"internalType": "uint256",
							"name": "tokenReserve",
							"type": "uint256"
						},
						{
							"internalType": "uint256",
							"name": "etherReserve",
							"type": "uint256"
						}
					],
					"stateMutability": "view",
					"type": "function"
				},
				{
					"inputs": [
						{
							"internalType": "address",
							"name": "_token0",
							"type": "address"
						},
						{
							"internalType": "uint256",
							"name": "_initialTokenReserve",
							"type": "uint256"
						},
						{
							"internalType": "uint256",
							"name": "_buyTax",
							"type": "uint256"
						},
						{
							"internalType": "uint256",
							"name": "_sellTax",
							"type": "uint256"
						}
					],
					"name": "initialize",
					"outputs": [],
					"stateMutability": "payable",
					"type": "function"
				},
				{
					"inputs": [],
					"name": "reserve0",
					"outputs": [
						{
							"internalType": "uint256",
							"name": "",
							"type": "uint256"
						}
					],
					"stateMutability": "view",
					"type": "function"
				},
				{
					"inputs": [],
					"name": "reserve1",
					"outputs": [
						{
							"internalType": "uint256",
							"name": "",
							"type": "uint256"
						}
					],
					"stateMutability": "view",
					"type": "function"
				},
				{
					"inputs": [],
					"name": "sellTax",
					"outputs": [
						{
							"internalType": "uint256",
							"name": "",
							"type": "uint256"
						}
					],
					"stateMutability": "view",
					"type": "function"
				},
				{
					"inputs": [
						{
							"internalType": "uint256",
							"name": "amountIn",
							"type": "uint256"
						}
					],
					"name": "sellToken",
					"outputs": [
						{
							"internalType": "uint256",
							"name": "amountOut",
							"type": "uint256"
						}
					],
					"stateMutability": "nonpayable",
					"type": "function"
				},
				{
					"inputs": [],
					"name": "token0",
					"outputs": [
						{
							"internalType": "address",
							"name": "",
							"type": "address"
						}
					],
					"stateMutability": "view",
					"type": "function"
				},
				{
					"inputs": [],
					"name": "tokenFactory",
					"outputs": [
						{
							"internalType": "address",
							"name": "",
							"type": "address"
						}
					],
					"stateMutability": "view",
					"type": "function"
				},
				{
					"inputs": [
						{
							"internalType": "uint256",
							"name": "newBuyTax",
							"type": "uint256"
						}
					],
					"name": "updateBuyTax",
					"outputs": [],
					"stateMutability": "nonpayable",
					"type": "function"
				},
				{
					"inputs": [
						{
							"internalType": "uint256",
							"name": "newSellTax",
							"type": "uint256"
						}
					],
					"name": "updateSellTax",
					"outputs": [],
					"stateMutability": "nonpayable",
					"type": "function"
				}
			],
			"devdoc": {
				"errors": {
					"ReentrancyGuardReentrantCall()": [
						{
							"details": "Unauthorized reentrant call."
						}
					]
				},
				"kind": "dev",
				"methods": {},
				"version": 1
			},
			"evm": {
				"assembly": "    /* \"contracts/token factory/LiquidityPool.sol\":176:4260  contract LiquidityPool is ReentrancyGuard {... */\n  mstore(0x40, 0x80)\n    /* \"contracts/token factory/LiquidityPool.sol\":1158:1474  constructor(address _devAddress, address _tokenFactory) {... */\n  callvalue\n  dup1\n  iszero\n  tag_1\n  jumpi\n  0x00\n  dup1\n  revert\ntag_1:\n  pop\n  mload(0x40)\n  sub(codesize, bytecodeSize)\n  dup1\n  bytecodeSize\n  dup4\n  codecopy\n  dup2\n  add\n  0x40\n  dup2\n  swap1\n  mstore\n  tag_2\n  swap2\n  tag_3\n  jump\t// in\ntag_2:\n    /* \"@openzeppelin/contracts/utils/ReentrancyGuard.sol\":1857:1858  1 */\n  0x01\n    /* \"@openzeppelin/contracts/utils/ReentrancyGuard.sol\":2061:2068  _status */\n  0x00\n    /* \"@openzeppelin/contracts/utils/ReentrancyGuard.sol\":2061:2082  _status = NOT_ENTERED */\n  sstore\n  sub(shl(0xa0, 0x01), 0x01)\n    /* \"contracts/token factory/LiquidityPool.sol\":1232:1257  _devAddress != address(0) */\n  dup3\n  and\n    /* \"contracts/token factory/LiquidityPool.sol\":1224:1302  require(_devAddress != address(0), \"Developer address cannot be zero address\") */\n  tag_8\n  jumpi\n  mload(0x40)\n  shl(0xe5, 0x461bcd)\n  dup2\n  mstore\n    /* \"#utility.yul\":696:698   */\n  0x20\n    /* \"contracts/token factory/LiquidityPool.sol\":1224:1302  require(_devAddress != address(0), \"Developer address cannot be zero address\") */\n  0x04\n  dup3\n  add\n    /* \"#utility.yul\":678:699   */\n  mstore\n    /* \"#utility.yul\":735:737   */\n  0x28\n    /* \"#utility.yul\":715:733   */\n  0x24\n  dup3\n  add\n    /* \"#utility.yul\":708:738   */\n  mstore\n    /* \"#utility.yul\":774:808   */\n  0x446576656c6f70657220616464726573732063616e6e6f74206265207a65726f\n    /* \"#utility.yul\":754:772   */\n  0x44\n  dup3\n  add\n    /* \"#utility.yul\":747:809   */\n  mstore\n  shl(0xc0, 0x2061646472657373)\n    /* \"#utility.yul\":825:843   */\n  0x64\n  dup3\n  add\n    /* \"#utility.yul\":818:856   */\n  mstore\n    /* \"#utility.yul\":873:892   */\n  0x84\n  add\n    /* \"contracts/token factory/LiquidityPool.sol\":1224:1302  require(_devAddress != address(0), \"Developer address cannot be zero address\") */\ntag_9:\n  mload(0x40)\n  dup1\n  swap2\n  sub\n  swap1\n  revert\ntag_8:\n  sub(shl(0xa0, 0x01), 0x01)\n    /* \"contracts/token factory/LiquidityPool.sol\":1320:1347  _tokenFactory != address(0) */\n  dup2\n  and\n    /* \"contracts/token factory/LiquidityPool.sol\":1312:1395  require(_tokenFactory != address(0), \"TokenFactory address cannot be zero address\") */\n  tag_11\n  jumpi\n  mload(0x40)\n  shl(0xe5, 0x461bcd)\n  dup2\n  mstore\n    /* \"#utility.yul\":1105:1107   */\n  0x20\n    /* \"contracts/token factory/LiquidityPool.sol\":1312:1395  require(_tokenFactory != address(0), \"TokenFactory address cannot be zero address\") */\n  0x04\n  dup3\n  add\n    /* \"#utility.yul\":1087:1108   */\n  mstore\n    /* \"#utility.yul\":1144:1146   */\n  0x2b\n    /* \"#utility.yul\":1124:1142   */\n  0x24\n  dup3\n  add\n    /* \"#utility.yul\":1117:1147   */\n  mstore\n    /* \"#utility.yul\":1183:1217   */\n  0x546f6b656e466163746f727920616464726573732063616e6e6f74206265207a\n    /* \"#utility.yul\":1163:1181   */\n  0x44\n  dup3\n  add\n    /* \"#utility.yul\":1156:1218   */\n  mstore\n  shl(0xa8, 0x65726f2061646472657373)\n    /* \"#utility.yul\":1234:1252   */\n  0x64\n  dup3\n  add\n    /* \"#utility.yul\":1227:1268   */\n  mstore\n    /* \"#utility.yul\":1285:1304   */\n  0x84\n  add\n    /* \"contracts/token factory/LiquidityPool.sol\":1312:1395  require(_tokenFactory != address(0), \"TokenFactory address cannot be zero address\") */\n  tag_9\n    /* \"#utility.yul\":903:1310   */\n  jump\n    /* \"contracts/token factory/LiquidityPool.sol\":1312:1395  require(_tokenFactory != address(0), \"TokenFactory address cannot be zero address\") */\ntag_11:\n    /* \"contracts/token factory/LiquidityPool.sol\":1405:1415  devAddress */\n  0x07\n    /* \"contracts/token factory/LiquidityPool.sol\":1405:1429  devAddress = _devAddress */\n  dup1\n  sload\n  sub(shl(0xa0, 0x01), 0x01)\n  swap4\n  dup5\n  and\n  not(sub(shl(0xa0, 0x01), 0x01))\n  swap2\n  dup3\n  and\n  or\n  swap1\n  swap2\n  sstore\n    /* \"contracts/token factory/LiquidityPool.sol\":1439:1451  tokenFactory */\n  0x02\n    /* \"contracts/token factory/LiquidityPool.sol\":1439:1467  tokenFactory = _tokenFactory */\n  dup1\n  sload\n  swap3\n  swap1\n  swap4\n  and\n  swap2\n  and\n  or\n  swap1\n  sstore\n    /* \"contracts/token factory/LiquidityPool.sol\":176:4260  contract LiquidityPool is ReentrancyGuard {... */\n  jump(tag_16)\n    /* \"#utility.yul\":14:191   */\ntag_15:\n    /* \"#utility.yul\":93:106   */\n  dup1\n  mload\n  sub(shl(0xa0, 0x01), 0x01)\n    /* \"#utility.yul\":135:166   */\n  dup2\n  and\n    /* \"#utility.yul\":125:167   */\n  dup2\n  eq\n    /* \"#utility.yul\":115:185   */\n  tag_18\n  jumpi\n    /* \"#utility.yul\":181:182   */\n  0x00\n    /* \"#utility.yul\":178:179   */\n  dup1\n    /* \"#utility.yul\":171:183   */\n  revert\n    /* \"#utility.yul\":115:185   */\ntag_18:\n    /* \"#utility.yul\":14:191   */\n  swap2\n  swap1\n  pop\n  jump\t// out\n    /* \"#utility.yul\":196:489   */\ntag_3:\n    /* \"#utility.yul\":275:281   */\n  0x00\n    /* \"#utility.yul\":283:289   */\n  dup1\n    /* \"#utility.yul\":336:338   */\n  0x40\n    /* \"#utility.yul\":324:333   */\n  dup4\n    /* \"#utility.yul\":315:322   */\n  dup6\n    /* \"#utility.yul\":311:334   */\n  sub\n    /* \"#utility.yul\":307:339   */\n  slt\n    /* \"#utility.yul\":304:356   */\n  iszero\n  tag_20\n  jumpi\n    /* \"#utility.yul\":352:353   */\n  0x00\n    /* \"#utility.yul\":349:350   */\n  dup1\n    /* \"#utility.yul\":342:354   */\n  revert\n    /* \"#utility.yul\":304:356   */\ntag_20:\n    /* \"#utility.yul\":375:415   */\n  tag_21\n    /* \"#utility.yul\":405:414   */\n  dup4\n    /* \"#utility.yul\":375:415   */\n  tag_15\n  jump\t// in\ntag_21:\n    /* \"#utility.yul\":365:415   */\n  swap2\n  pop\n    /* \"#utility.yul\":434:483   */\n  tag_22\n    /* \"#utility.yul\":479:481   */\n  0x20\n    /* \"#utility.yul\":468:477   */\n  dup5\n    /* \"#utility.yul\":464:482   */\n  add\n    /* \"#utility.yul\":434:483   */\n  tag_15\n  jump\t// in\ntag_22:\n    /* \"#utility.yul\":424:483   */\n  swap1\n  pop\n    /* \"#utility.yul\":196:489   */\n  swap3\n  pop\n  swap3\n  swap1\n  pop\n  jump\t// out\n    /* \"#utility.yul\":903:1310   */\ntag_16:\n    /* \"contracts/token factory/LiquidityPool.sol\":176:4260  contract LiquidityPool is ReentrancyGuard {... */\n  dataSize(sub_0)\n  dup1\n  dataOffset(sub_0)\n  0x00\n  codecopy\n  0x00\n  return\nstop\n\nsub_0: assembly {\n        /* \"contracts/token factory/LiquidityPool.sol\":176:4260  contract LiquidityPool is ReentrancyGuard {... */\n      mstore(0x40, 0x80)\n      jumpi(tag_1, lt(calldatasize, 0x04))\n      shr(0xe0, calldataload(0x00))\n      dup1\n      0x4ec81af1\n      gt\n      tag_15\n      jumpi\n      dup1\n      0x5a76f25e\n      gt\n      tag_16\n      jumpi\n      dup1\n      0x5a76f25e\n      eq\n      tag_11\n      jumpi\n      dup1\n      0xa4821719\n      eq\n      tag_12\n      jumpi\n      dup1\n      0xcc1776d3\n      eq\n      tag_13\n      jumpi\n      dup1\n      0xe77772fe\n      eq\n      tag_14\n      jumpi\n      0x00\n      dup1\n      revert\n    tag_16:\n      dup1\n      0x4ec81af1\n      eq\n      tag_8\n      jumpi\n      dup1\n      0x4f7041a5\n      eq\n      tag_9\n      jumpi\n      dup1\n      0x59bf5d39\n      eq\n      tag_10\n      jumpi\n      0x00\n      dup1\n      revert\n    tag_15:\n      dup1\n      0x0dfe1681\n      eq\n      tag_2\n      jumpi\n      dup1\n      0x12185a39\n      eq\n      tag_3\n      jumpi\n      dup1\n      0x2397e4d7\n      eq\n      tag_4\n      jumpi\n      dup1\n      0x3ad10ef6\n      eq\n      tag_5\n      jumpi\n      dup1\n      0x436d3340\n      eq\n      tag_6\n      jumpi\n      dup1\n      0x443cb4bc\n      eq\n      tag_7\n      jumpi\n    tag_1:\n      0x00\n      dup1\n      revert\n        /* \"contracts/token factory/LiquidityPool.sol\":224:245  address public token0 */\n    tag_2:\n      callvalue\n      dup1\n      iszero\n      tag_17\n      jumpi\n      0x00\n      dup1\n      revert\n    tag_17:\n      pop\n      sload(0x01)\n      tag_18\n      swap1\n      sub(shl(0xa0, 0x01), 0x01)\n      and\n      dup2\n      jump\n    tag_18:\n      mload(0x40)\n      sub(shl(0xa0, 0x01), 0x01)\n        /* \"#utility.yul\":178:210   */\n      swap1\n      swap2\n      and\n        /* \"#utility.yul\":160:211   */\n      dup2\n      mstore\n        /* \"#utility.yul\":148:150   */\n      0x20\n        /* \"#utility.yul\":133:151   */\n      add\n        /* \"contracts/token factory/LiquidityPool.sol\":224:245  address public token0 */\n    tag_20:\n      mload(0x40)\n      dup1\n      swap2\n      sub\n      swap1\n      return\n        /* \"contracts/token factory/LiquidityPool.sol\":3903:4119  function updateSellTax(uint256 newSellTax) external onlyFactory {... */\n    tag_3:\n      callvalue\n      dup1\n      iszero\n      tag_22\n      jumpi\n      0x00\n      dup1\n      revert\n    tag_22:\n      pop\n      tag_23\n      tag_24\n      calldatasize\n      0x04\n      tag_25\n      jump\t// in\n    tag_24:\n      tag_26\n      jump\t// in\n    tag_23:\n      stop\n        /* \"contracts/token factory/LiquidityPool.sol\":2719:3681  function sellToken(uint256 amountIn) external nonReentrant returns (uint256 amountOut) {... */\n    tag_4:\n      callvalue\n      dup1\n      iszero\n      tag_27\n      jumpi\n      0x00\n      dup1\n      revert\n    tag_27:\n      pop\n      tag_28\n      tag_29\n      calldatasize\n      0x04\n      tag_25\n      jump\t// in\n    tag_29:\n      tag_30\n      jump\t// in\n    tag_28:\n      mload(0x40)\n        /* \"#utility.yul\":599:624   */\n      swap1\n      dup2\n      mstore\n        /* \"#utility.yul\":587:589   */\n      0x20\n        /* \"#utility.yul\":572:590   */\n      add\n        /* \"contracts/token factory/LiquidityPool.sol\":2719:3681  function sellToken(uint256 amountIn) external nonReentrant returns (uint256 amountOut) {... */\n      tag_20\n        /* \"#utility.yul\":453:630   */\n      jump\n        /* \"contracts/token factory/LiquidityPool.sol\":585:610  address public devAddress */\n    tag_5:\n      callvalue\n      dup1\n      iszero\n      tag_33\n      jumpi\n      0x00\n      dup1\n      revert\n    tag_33:\n      pop\n      sload(0x07)\n      tag_18\n      swap1\n      sub(shl(0xa0, 0x01), 0x01)\n      and\n      dup2\n      jump\n        /* \"contracts/token factory/LiquidityPool.sol\":3687:3897  function updateBuyTax(uint256 newBuyTax) external onlyFactory {... */\n    tag_6:\n      callvalue\n      dup1\n      iszero\n      tag_37\n      jumpi\n      0x00\n      dup1\n      revert\n    tag_37:\n      pop\n      tag_23\n      tag_39\n      calldatasize\n      0x04\n      tag_25\n      jump\t// in\n    tag_39:\n      tag_40\n      jump\t// in\n        /* \"contracts/token factory/LiquidityPool.sol\":354:377  uint256 public reserve0 */\n    tag_7:\n      callvalue\n      dup1\n      iszero\n      tag_41\n      jumpi\n      0x00\n      dup1\n      revert\n    tag_41:\n      pop\n      tag_28\n      sload(0x03)\n      dup2\n      jump\n        /* \"contracts/token factory/LiquidityPool.sol\":1480:2021  function initialize(... */\n    tag_8:\n      tag_23\n      tag_46\n      calldatasize\n      0x04\n      tag_47\n      jump\t// in\n    tag_46:\n      tag_48\n      jump\t// in\n        /* \"contracts/token factory/LiquidityPool.sol\":477:498  uint256 public buyTax */\n    tag_9:\n      callvalue\n      dup1\n      iszero\n      tag_49\n      jumpi\n      0x00\n      dup1\n      revert\n    tag_49:\n      pop\n      tag_28\n      sload(0x05)\n      dup2\n      jump\n        /* \"contracts/token factory/LiquidityPool.sol\":4125:4258  function getReserve() external view returns (uint256 tokenReserve, uint256 etherReserve) {... */\n    tag_10:\n      callvalue\n      dup1\n      iszero\n      tag_53\n      jumpi\n      0x00\n      dup1\n      revert\n    tag_53:\n      pop\n        /* \"contracts/token factory/LiquidityPool.sol\":4232:4240  reserve0 */\n      sload(0x03)\n        /* \"contracts/token factory/LiquidityPool.sol\":4242:4250  reserve1 */\n      sload(0x04)\n        /* \"contracts/token factory/LiquidityPool.sol\":4125:4258  function getReserve() external view returns (uint256 tokenReserve, uint256 etherReserve) {... */\n      0x40\n      dup1\n      mload\n        /* \"#utility.yul\":1461:1486   */\n      swap3\n      dup4\n      mstore\n        /* \"#utility.yul\":1517:1519   */\n      0x20\n        /* \"#utility.yul\":1502:1520   */\n      dup4\n      add\n        /* \"#utility.yul\":1495:1529   */\n      swap2\n      swap1\n      swap2\n      mstore\n        /* \"#utility.yul\":1434:1452   */\n      add\n        /* \"contracts/token factory/LiquidityPool.sol\":4125:4258  function getReserve() external view returns (uint256 tokenReserve, uint256 etherReserve) {... */\n      tag_20\n        /* \"#utility.yul\":1287:1535   */\n      jump\n        /* \"contracts/token factory/LiquidityPool.sol\":416:439  uint256 public reserve1 */\n    tag_11:\n      callvalue\n      dup1\n      iszero\n      tag_58\n      jumpi\n      0x00\n      dup1\n      revert\n    tag_58:\n      pop\n      tag_28\n      sload(0x04)\n      dup2\n      jump\n        /* \"contracts/token factory/LiquidityPool.sol\":2027:2713  function buyToken() external payable nonReentrant returns (uint256 amountOut) {... */\n    tag_12:\n      tag_28\n      tag_63\n      jump\t// in\n        /* \"contracts/token factory/LiquidityPool.sol\":530:552  uint256 public sellTax */\n    tag_13:\n      callvalue\n      dup1\n      iszero\n      tag_65\n      jumpi\n      0x00\n      dup1\n      revert\n    tag_65:\n      pop\n      tag_28\n      sload(0x06)\n      dup2\n      jump\n        /* \"contracts/token factory/LiquidityPool.sol\":281:308  address public tokenFactory */\n    tag_14:\n      callvalue\n      dup1\n      iszero\n      tag_69\n      jumpi\n      0x00\n      dup1\n      revert\n    tag_69:\n      pop\n      sload(0x02)\n      tag_18\n      swap1\n      sub(shl(0xa0, 0x01), 0x01)\n      and\n      dup2\n      jump\n        /* \"contracts/token factory/LiquidityPool.sol\":3903:4119  function updateSellTax(uint256 newSellTax) external onlyFactory {... */\n    tag_26:\n        /* \"contracts/token factory/LiquidityPool.sol\":703:715  tokenFactory */\n      and(sub(shl(0xa0, 0x01), 0x01), sload(0x02))\n        /* \"contracts/token factory/LiquidityPool.sol\":689:699  msg.sender */\n      caller\n        /* \"contracts/token factory/LiquidityPool.sol\":689:715  msg.sender == tokenFactory */\n      eq\n        /* \"contracts/token factory/LiquidityPool.sol\":681:750  require(msg.sender == tokenFactory, \"Caller is not the TokenFactory\") */\n      tag_74\n      jumpi\n      mload(0x40)\n      shl(0xe5, 0x461bcd)\n      dup2\n      mstore\n      0x04\n      add\n      tag_75\n      swap1\n      tag_76\n      jump\t// in\n    tag_75:\n      mload(0x40)\n      dup1\n      swap2\n      sub\n      swap1\n      revert\n    tag_74:\n        /* \"contracts/token factory/LiquidityPool.sol\":4008:4010  50 */\n      0x32\n        /* \"contracts/token factory/LiquidityPool.sol\":3994:4004  newSellTax */\n      dup2\n        /* \"contracts/token factory/LiquidityPool.sol\":3985:3991  buyTax */\n      sload(0x05)\n        /* \"contracts/token factory/LiquidityPool.sol\":3985:4004  buyTax + newSellTax */\n      tag_78\n      swap2\n      swap1\n      tag_79\n      jump\t// in\n    tag_78:\n        /* \"contracts/token factory/LiquidityPool.sol\":3985:4010  buyTax + newSellTax <= 50 */\n      gt\n      iszero\n        /* \"contracts/token factory/LiquidityPool.sol\":3977:4041  require(buyTax + newSellTax <= 50, \"Total tax cannot exceed 5%\") */\n      tag_80\n      jumpi\n      mload(0x40)\n      shl(0xe5, 0x461bcd)\n      dup2\n      mstore\n        /* \"#utility.yul\":2363:2365   */\n      0x20\n        /* \"contracts/token factory/LiquidityPool.sol\":3977:4041  require(buyTax + newSellTax <= 50, \"Total tax cannot exceed 5%\") */\n      0x04\n      dup3\n      add\n        /* \"#utility.yul\":2345:2366   */\n      mstore\n        /* \"#utility.yul\":2402:2404   */\n      0x1a\n        /* \"#utility.yul\":2382:2400   */\n      0x24\n      dup3\n      add\n        /* \"#utility.yul\":2375:2405   */\n      mstore\n        /* \"#utility.yul\":2441:2469   */\n      0x546f74616c207461782063616e6e6f7420657863656564203525000000000000\n        /* \"#utility.yul\":2421:2439   */\n      0x44\n      dup3\n      add\n        /* \"#utility.yul\":2414:2470   */\n      mstore\n        /* \"#utility.yul\":2487:2505   */\n      0x64\n      add\n        /* \"contracts/token factory/LiquidityPool.sol\":3977:4041  require(buyTax + newSellTax <= 50, \"Total tax cannot exceed 5%\") */\n      tag_75\n        /* \"#utility.yul\":2161:2511   */\n      jump\n        /* \"contracts/token factory/LiquidityPool.sol\":3977:4041  require(buyTax + newSellTax <= 50, \"Total tax cannot exceed 5%\") */\n    tag_80:\n        /* \"contracts/token factory/LiquidityPool.sol\":4051:4058  sellTax */\n      0x06\n        /* \"contracts/token factory/LiquidityPool.sol\":4051:4071  sellTax = newSellTax */\n      dup2\n      swap1\n      sstore\n        /* \"contracts/token factory/LiquidityPool.sol\":4086:4112  SellTaxUpdated(newSellTax) */\n      mload(0x40)\n        /* \"#utility.yul\":599:624   */\n      dup2\n      dup2\n      mstore\n        /* \"contracts/token factory/LiquidityPool.sol\":4086:4112  SellTaxUpdated(newSellTax) */\n      0xa6255338a5f732d64ceba7f4c18182567f9d1067eb984b46d478b37d72a52d11\n      swap1\n        /* \"#utility.yul\":587:589   */\n      0x20\n        /* \"#utility.yul\":572:590   */\n      add\n        /* \"contracts/token factory/LiquidityPool.sol\":4086:4112  SellTaxUpdated(newSellTax) */\n    tag_83:\n      mload(0x40)\n      dup1\n      swap2\n      sub\n      swap1\n      log1\n        /* \"contracts/token factory/LiquidityPool.sol\":3903:4119  function updateSellTax(uint256 newSellTax) external onlyFactory {... */\n      pop\n      jump\t// out\n        /* \"contracts/token factory/LiquidityPool.sol\":2719:3681  function sellToken(uint256 amountIn) external nonReentrant returns (uint256 amountOut) {... */\n    tag_30:\n        /* \"contracts/token factory/LiquidityPool.sol\":2787:2804  uint256 amountOut */\n      0x00\n        /* \"@openzeppelin/contracts/utils/ReentrancyGuard.sol\":2500:2521  _nonReentrantBefore() */\n      tag_85\n        /* \"@openzeppelin/contracts/utils/ReentrancyGuard.sol\":2500:2519  _nonReentrantBefore */\n      tag_86\n        /* \"@openzeppelin/contracts/utils/ReentrancyGuard.sol\":2500:2521  _nonReentrantBefore() */\n      jump\t// in\n    tag_85:\n        /* \"contracts/token factory/LiquidityPool.sol\":2835:2836  0 */\n      0x00\n        /* \"contracts/token factory/LiquidityPool.sol\":2824:2832  amountIn */\n      dup3\n        /* \"contracts/token factory/LiquidityPool.sol\":2824:2836  amountIn > 0 */\n      gt\n        /* \"contracts/token factory/LiquidityPool.sol\":2816:2862  require(amountIn > 0, \"Must sell some tokens\") */\n      tag_88\n      jumpi\n      mload(0x40)\n      shl(0xe5, 0x461bcd)\n      dup2\n      mstore\n        /* \"#utility.yul\":2718:2720   */\n      0x20\n        /* \"contracts/token factory/LiquidityPool.sol\":2816:2862  require(amountIn > 0, \"Must sell some tokens\") */\n      0x04\n      dup3\n      add\n        /* \"#utility.yul\":2700:2721   */\n      mstore\n        /* \"#utility.yul\":2757:2759   */\n      0x15\n        /* \"#utility.yul\":2737:2755   */\n      0x24\n      dup3\n      add\n        /* \"#utility.yul\":2730:2760   */\n      mstore\n      shl(0x58, 0x4d7573742073656c6c20736f6d6520746f6b656e73)\n        /* \"#utility.yul\":2776:2794   */\n      0x44\n      dup3\n      add\n        /* \"#utility.yul\":2769:2820   */\n      mstore\n        /* \"#utility.yul\":2837:2855   */\n      0x64\n      add\n        /* \"contracts/token factory/LiquidityPool.sol\":2816:2862  require(amountIn > 0, \"Must sell some tokens\") */\n      tag_75\n        /* \"#utility.yul\":2516:2861   */\n      jump\n        /* \"contracts/token factory/LiquidityPool.sol\":2816:2862  require(amountIn > 0, \"Must sell some tokens\") */\n    tag_88:\n        /* \"contracts/token factory/LiquidityPool.sol\":2873:2884  uint256 tax */\n      0x00\n        /* \"contracts/token factory/LiquidityPool.sol\":2910:2914  1000 */\n      0x03e8\n        /* \"contracts/token factory/LiquidityPool.sol\":2899:2906  sellTax */\n      sload(0x06)\n        /* \"contracts/token factory/LiquidityPool.sol\":2888:2896  amountIn */\n      dup5\n        /* \"contracts/token factory/LiquidityPool.sol\":2888:2906  amountIn * sellTax */\n      tag_91\n      swap2\n      swap1\n      tag_92\n      jump\t// in\n    tag_91:\n        /* \"contracts/token factory/LiquidityPool.sol\":2887:2914  (amountIn * sellTax) / 1000 */\n      tag_93\n      swap2\n      swap1\n      tag_94\n      jump\t// in\n    tag_93:\n        /* \"contracts/token factory/LiquidityPool.sol\":2873:2914  uint256 tax = (amountIn * sellTax) / 1000 */\n      swap1\n      pop\n        /* \"contracts/token factory/LiquidityPool.sol\":2924:2948  uint256 amountInAfterTax */\n      0x00\n        /* \"contracts/token factory/LiquidityPool.sol\":2951:2965  amountIn - tax */\n      tag_95\n        /* \"contracts/token factory/LiquidityPool.sol\":2873:2914  uint256 tax = (amountIn * sellTax) / 1000 */\n      dup3\n        /* \"contracts/token factory/LiquidityPool.sol\":2951:2959  amountIn */\n      dup6\n        /* \"contracts/token factory/LiquidityPool.sol\":2951:2965  amountIn - tax */\n      tag_96\n      jump\t// in\n    tag_95:\n        /* \"contracts/token factory/LiquidityPool.sol\":2924:2965  uint256 amountInAfterTax = amountIn - tax */\n      swap1\n      pop\n        /* \"contracts/token factory/LiquidityPool.sol\":2976:2995  uint256 newReserve0 */\n      0x00\n        /* \"contracts/token factory/LiquidityPool.sol\":3009:3025  amountInAfterTax */\n      dup2\n        /* \"contracts/token factory/LiquidityPool.sol\":2998:3006  reserve0 */\n      sload(0x03)\n        /* \"contracts/token factory/LiquidityPool.sol\":2998:3025  reserve0 + amountInAfterTax */\n      tag_97\n      swap2\n      swap1\n      tag_79\n      jump\t// in\n    tag_97:\n        /* \"contracts/token factory/LiquidityPool.sol\":2976:3025  uint256 newReserve0 = reserve0 + amountInAfterTax */\n      swap1\n      pop\n        /* \"contracts/token factory/LiquidityPool.sol\":3082:3093  newReserve0 */\n      dup1\n        /* \"contracts/token factory/LiquidityPool.sol\":3070:3078  reserve1 */\n      sload(0x04)\n        /* \"contracts/token factory/LiquidityPool.sol\":3059:3067  reserve0 */\n      sload(0x03)\n        /* \"contracts/token factory/LiquidityPool.sol\":3059:3078  reserve0 * reserve1 */\n      tag_98\n      swap2\n      swap1\n      tag_92\n      jump\t// in\n    tag_98:\n        /* \"contracts/token factory/LiquidityPool.sol\":3058:3093  (reserve0 * reserve1) / newReserve0 */\n      tag_99\n      swap2\n      swap1\n      tag_94\n      jump\t// in\n    tag_99:\n        /* \"contracts/token factory/LiquidityPool.sol\":3047:3055  reserve1 */\n      sload(0x04)\n        /* \"contracts/token factory/LiquidityPool.sol\":3047:3093  reserve1 - (reserve0 * reserve1) / newReserve0 */\n      tag_100\n      swap2\n      swap1\n      tag_96\n      jump\t// in\n    tag_100:\n        /* \"contracts/token factory/LiquidityPool.sol\":3035:3093  amountOut = reserve1 - (reserve0 * reserve1) / newReserve0 */\n      swap4\n      pop\n        /* \"contracts/token factory/LiquidityPool.sol\":3154:3170  uint256 etherTax */\n      0x00\n        /* \"contracts/token factory/LiquidityPool.sol\":3197:3201  1000 */\n      0x03e8\n        /* \"contracts/token factory/LiquidityPool.sol\":3186:3193  sellTax */\n      sload(0x06)\n        /* \"contracts/token factory/LiquidityPool.sol\":3174:3183  amountOut */\n      dup7\n        /* \"contracts/token factory/LiquidityPool.sol\":3174:3193  amountOut * sellTax */\n      tag_101\n      swap2\n      swap1\n      tag_92\n      jump\t// in\n    tag_101:\n        /* \"contracts/token factory/LiquidityPool.sol\":3173:3201  (amountOut * sellTax) / 1000 */\n      tag_102\n      swap2\n      swap1\n      tag_94\n      jump\t// in\n    tag_102:\n        /* \"contracts/token factory/LiquidityPool.sol\":3154:3201  uint256 etherTax = (amountOut * sellTax) / 1000 */\n      swap1\n      pop\n        /* \"contracts/token factory/LiquidityPool.sol\":3211:3232  amountOut -= etherTax */\n      tag_103\n        /* \"contracts/token factory/LiquidityPool.sol\":3154:3201  uint256 etherTax = (amountOut * sellTax) / 1000 */\n      dup2\n        /* \"contracts/token factory/LiquidityPool.sol\":3211:3232  amountOut -= etherTax */\n      dup7\n      tag_96\n      jump\t// in\n    tag_103:\n        /* \"contracts/token factory/LiquidityPool.sol\":3262:3272  devAddress */\n      sload(0x07)\n        /* \"contracts/token factory/LiquidityPool.sol\":3262:3298  devAddress.call{value: etherTax}(\"\") */\n      mload(0x40)\n        /* \"contracts/token factory/LiquidityPool.sol\":3211:3232  amountOut -= etherTax */\n      swap2\n      swap7\n      pop\n        /* \"contracts/token factory/LiquidityPool.sol\":3244:3256  bool taxSent */\n      0x00\n      swap2\n      sub(shl(0xa0, 0x01), 0x01)\n        /* \"contracts/token factory/LiquidityPool.sol\":3262:3272  devAddress */\n      swap1\n      swap2\n      and\n      swap1\n        /* \"contracts/token factory/LiquidityPool.sol\":3285:3293  etherTax */\n      dup4\n      swap1\n        /* \"contracts/token factory/LiquidityPool.sol\":3244:3256  bool taxSent */\n      dup4\n        /* \"contracts/token factory/LiquidityPool.sol\":3262:3298  devAddress.call{value: etherTax}(\"\") */\n      dup2\n        /* \"contracts/token factory/LiquidityPool.sol\":3244:3256  bool taxSent */\n      dup2\n        /* \"contracts/token factory/LiquidityPool.sol\":3262:3298  devAddress.call{value: etherTax}(\"\") */\n      dup2\n        /* \"contracts/token factory/LiquidityPool.sol\":3285:3293  etherTax */\n      dup6\n        /* \"contracts/token factory/LiquidityPool.sol\":3262:3272  devAddress */\n      dup8\n        /* \"contracts/token factory/LiquidityPool.sol\":3262:3298  devAddress.call{value: etherTax}(\"\") */\n      gas\n      call\n      swap3\n      pop\n      pop\n      pop\n      returndatasize\n      dup1\n      0x00\n      dup2\n      eq\n      tag_108\n      jumpi\n      mload(0x40)\n      swap2\n      pop\n      and(add(returndatasize, 0x3f), not(0x1f))\n      dup3\n      add\n      0x40\n      mstore\n      returndatasize\n      dup3\n      mstore\n      returndatasize\n      0x00\n      0x20\n      dup5\n      add\n      returndatacopy\n      jump(tag_107)\n    tag_108:\n      0x60\n      swap2\n      pop\n    tag_107:\n      pop\n        /* \"contracts/token factory/LiquidityPool.sol\":3243:3298  (bool taxSent, ) = devAddress.call{value: etherTax}(\"\") */\n      pop\n      swap1\n      pop\n        /* \"contracts/token factory/LiquidityPool.sol\":3316:3323  taxSent */\n      dup1\n        /* \"contracts/token factory/LiquidityPool.sol\":3308:3351  require(taxSent, \"Failed to send sell tax\") */\n      tag_109\n      jumpi\n      mload(0x40)\n      shl(0xe5, 0x461bcd)\n      dup2\n      mstore\n        /* \"#utility.yul\":3806:3808   */\n      0x20\n        /* \"contracts/token factory/LiquidityPool.sol\":3308:3351  require(taxSent, \"Failed to send sell tax\") */\n      0x04\n      dup3\n      add\n        /* \"#utility.yul\":3788:3809   */\n      mstore\n        /* \"#utility.yul\":3845:3847   */\n      0x17\n        /* \"#utility.yul\":3825:3843   */\n      0x24\n      dup3\n      add\n        /* \"#utility.yul\":3818:3848   */\n      mstore\n        /* \"#utility.yul\":3884:3909   */\n      0x4661696c656420746f2073656e642073656c6c20746178000000000000000000\n        /* \"#utility.yul\":3864:3882   */\n      0x44\n      dup3\n      add\n        /* \"#utility.yul\":3857:3910   */\n      mstore\n        /* \"#utility.yul\":3927:3945   */\n      0x64\n      add\n        /* \"contracts/token factory/LiquidityPool.sol\":3308:3351  require(taxSent, \"Failed to send sell tax\") */\n      tag_75\n        /* \"#utility.yul\":3604:3951   */\n      jump\n        /* \"contracts/token factory/LiquidityPool.sol\":3308:3351  require(taxSent, \"Failed to send sell tax\") */\n    tag_109:\n        /* \"contracts/token factory/LiquidityPool.sol\":3373:3384  newReserve0 */\n      dup3\n        /* \"contracts/token factory/LiquidityPool.sol\":3362:3370  reserve0 */\n      0x03\n        /* \"contracts/token factory/LiquidityPool.sol\":3362:3384  reserve0 = newReserve0 */\n      dup2\n      swap1\n      sstore\n      pop\n        /* \"contracts/token factory/LiquidityPool.sol\":3406:3415  amountOut */\n      dup6\n        /* \"contracts/token factory/LiquidityPool.sol\":3394:3402  reserve1 */\n      0x04\n      0x00\n        /* \"contracts/token factory/LiquidityPool.sol\":3394:3415  reserve1 -= amountOut */\n      dup3\n      dup3\n      sload\n      tag_112\n      swap2\n      swap1\n      tag_96\n      jump\t// in\n    tag_112:\n      swap1\n      swap2\n      sstore\n      pop\n      pop\n        /* \"contracts/token factory/LiquidityPool.sol\":3433:3439  token0 */\n      sload(0x01)\n        /* \"contracts/token factory/LiquidityPool.sol\":3426:3490  IERC20(token0).transferFrom(msg.sender, address(this), amountIn) */\n      mload(0x40)\n      shl(0xe0, 0x23b872dd)\n      dup2\n      mstore\n        /* \"contracts/token factory/LiquidityPool.sol\":3454:3464  msg.sender */\n      caller\n        /* \"contracts/token factory/LiquidityPool.sol\":3426:3490  IERC20(token0).transferFrom(msg.sender, address(this), amountIn) */\n      0x04\n      dup3\n      add\n        /* \"#utility.yul\":4158:4209   */\n      mstore\n        /* \"contracts/token factory/LiquidityPool.sol\":3474:3478  this */\n      address\n        /* \"#utility.yul\":4225:4243   */\n      0x24\n      dup3\n      add\n        /* \"#utility.yul\":4218:4278   */\n      mstore\n        /* \"#utility.yul\":4294:4312   */\n      0x44\n      dup2\n      add\n        /* \"#utility.yul\":4287:4321   */\n      dup10\n      swap1\n      mstore\n      sub(shl(0xa0, 0x01), 0x01)\n        /* \"contracts/token factory/LiquidityPool.sol\":3433:3439  token0 */\n      swap1\n      swap2\n      and\n      swap1\n        /* \"contracts/token factory/LiquidityPool.sol\":3426:3453  IERC20(token0).transferFrom */\n      0x23b872dd\n      swap1\n        /* \"#utility.yul\":4131:4149   */\n      0x64\n      add\n        /* \"contracts/token factory/LiquidityPool.sol\":3426:3490  IERC20(token0).transferFrom(msg.sender, address(this), amountIn) */\n      0x20\n      mload(0x40)\n      dup1\n      dup4\n      sub\n      dup2\n      0x00\n      dup8\n      gas\n      call\n      iszero\n      dup1\n      iszero\n      tag_116\n      jumpi\n      returndatasize\n      0x00\n      dup1\n      returndatacopy\n      revert(0x00, returndatasize)\n    tag_116:\n      pop\n      pop\n      pop\n      pop\n      mload(0x40)\n      returndatasize\n      not(0x1f)\n      0x1f\n      dup3\n      add\n      and\n      dup3\n      add\n      dup1\n      0x40\n      mstore\n      pop\n      dup2\n      add\n      swap1\n      tag_117\n      swap2\n      swap1\n      tag_118\n      jump\t// in\n    tag_117:\n      pop\n        /* \"contracts/token factory/LiquidityPool.sol\":3519:3556  msg.sender.call{value: amountOut}(\"\") */\n      mload(0x40)\n        /* \"contracts/token factory/LiquidityPool.sol\":3501:3513  bool success */\n      0x00\n      swap1\n        /* \"contracts/token factory/LiquidityPool.sol\":3519:3529  msg.sender */\n      caller\n      swap1\n        /* \"contracts/token factory/LiquidityPool.sol\":3542:3551  amountOut */\n      dup9\n      swap1\n        /* \"contracts/token factory/LiquidityPool.sol\":3501:3513  bool success */\n      dup4\n        /* \"contracts/token factory/LiquidityPool.sol\":3519:3556  msg.sender.call{value: amountOut}(\"\") */\n      dup2\n        /* \"contracts/token factory/LiquidityPool.sol\":3501:3513  bool success */\n      dup2\n        /* \"contracts/token factory/LiquidityPool.sol\":3519:3556  msg.sender.call{value: amountOut}(\"\") */\n      dup2\n        /* \"contracts/token factory/LiquidityPool.sol\":3542:3551  amountOut */\n      dup6\n        /* \"contracts/token factory/LiquidityPool.sol\":3519:3529  msg.sender */\n      dup8\n        /* \"contracts/token factory/LiquidityPool.sol\":3519:3556  msg.sender.call{value: amountOut}(\"\") */\n      gas\n      call\n      swap3\n      pop\n      pop\n      pop\n      returndatasize\n      dup1\n      0x00\n      dup2\n      eq\n      tag_122\n      jumpi\n      mload(0x40)\n      swap2\n      pop\n      and(add(returndatasize, 0x3f), not(0x1f))\n      dup3\n      add\n      0x40\n      mstore\n      returndatasize\n      dup3\n      mstore\n      returndatasize\n      0x00\n      0x20\n      dup5\n      add\n      returndatacopy\n      jump(tag_121)\n    tag_122:\n      0x60\n      swap2\n      pop\n    tag_121:\n      pop\n        /* \"contracts/token factory/LiquidityPool.sol\":3500:3556  (bool success, ) = msg.sender.call{value: amountOut}(\"\") */\n      pop\n      swap1\n      pop\n        /* \"contracts/token factory/LiquidityPool.sol\":3574:3581  success */\n      dup1\n        /* \"contracts/token factory/LiquidityPool.sol\":3566:3606  require(success, \"Failed to send ether\") */\n      tag_123\n      jumpi\n      mload(0x40)\n      shl(0xe5, 0x461bcd)\n      dup2\n      mstore\n        /* \"#utility.yul\":4816:4818   */\n      0x20\n        /* \"contracts/token factory/LiquidityPool.sol\":3566:3606  require(success, \"Failed to send ether\") */\n      0x04\n      dup3\n      add\n        /* \"#utility.yul\":4798:4819   */\n      mstore\n        /* \"#utility.yul\":4855:4857   */\n      0x14\n        /* \"#utility.yul\":4835:4853   */\n      0x24\n      dup3\n      add\n        /* \"#utility.yul\":4828:4858   */\n      mstore\n      shl(0x61, 0x2330b4b632b2103a379039b2b7321032ba3432b9)\n        /* \"#utility.yul\":4874:4892   */\n      0x44\n      dup3\n      add\n        /* \"#utility.yul\":4867:4917   */\n      mstore\n        /* \"#utility.yul\":4934:4952   */\n      0x64\n      add\n        /* \"contracts/token factory/LiquidityPool.sol\":3566:3606  require(success, \"Failed to send ether\") */\n      tag_75\n        /* \"#utility.yul\":4614:4958   */\n      jump\n        /* \"contracts/token factory/LiquidityPool.sol\":3566:3606  require(success, \"Failed to send ether\") */\n    tag_123:\n        /* \"contracts/token factory/LiquidityPool.sol\":3666:3673  sellTax */\n      sload(0x06)\n        /* \"contracts/token factory/LiquidityPool.sol\":3622:3674  TokensSold(msg.sender, amountIn, amountOut, sellTax) */\n      0x40\n      dup1\n      mload\n        /* \"#utility.yul\":5165:5190   */\n      dup11\n      dup2\n      mstore\n        /* \"#utility.yul\":5221:5223   */\n      0x20\n        /* \"#utility.yul\":5206:5224   */\n      dup2\n      add\n        /* \"#utility.yul\":5199:5233   */\n      dup11\n      swap1\n      mstore\n        /* \"#utility.yul\":5249:5267   */\n      swap1\n      dup2\n      add\n        /* \"#utility.yul\":5242:5276   */\n      swap2\n      swap1\n      swap2\n      mstore\n        /* \"contracts/token factory/LiquidityPool.sol\":3633:3643  msg.sender */\n      caller\n      swap1\n        /* \"contracts/token factory/LiquidityPool.sol\":3622:3674  TokensSold(msg.sender, amountIn, amountOut, sellTax) */\n      0x6db63bebf1e6540277744df32846ebdb98385b1a73f2d5de49b28348add63f50\n      swap1\n        /* \"#utility.yul\":5153:5155   */\n      0x60\n        /* \"#utility.yul\":5138:5156   */\n      add\n        /* \"contracts/token factory/LiquidityPool.sol\":3622:3674  TokensSold(msg.sender, amountIn, amountOut, sellTax) */\n      mload(0x40)\n      dup1\n      swap2\n      sub\n      swap1\n      log2\n        /* \"contracts/token factory/LiquidityPool.sol\":2806:3681  {... */\n      pop\n      pop\n      pop\n      pop\n      pop\n      pop\n        /* \"@openzeppelin/contracts/utils/ReentrancyGuard.sol\":2542:2562  _nonReentrantAfter() */\n      tag_128\n        /* \"@openzeppelin/contracts/utils/ReentrancyGuard.sol\":1857:1858  1 */\n      0x01\n        /* \"@openzeppelin/contracts/utils/ReentrancyGuard.sol\":3068:3075  _status */\n      0x00\n        /* \"@openzeppelin/contracts/utils/ReentrancyGuard.sol\":3068:3089  _status = NOT_ENTERED */\n      sstore\n        /* \"@openzeppelin/contracts/utils/ReentrancyGuard.sol\":2888:3096  function _nonReentrantAfter() private {... */\n      jump\n        /* \"@openzeppelin/contracts/utils/ReentrancyGuard.sol\":2542:2562  _nonReentrantAfter() */\n    tag_128:\n        /* \"contracts/token factory/LiquidityPool.sol\":2719:3681  function sellToken(uint256 amountIn) external nonReentrant returns (uint256 amountOut) {... */\n      swap2\n      swap1\n      pop\n      jump\t// out\n        /* \"contracts/token factory/LiquidityPool.sol\":3687:3897  function updateBuyTax(uint256 newBuyTax) external onlyFactory {... */\n    tag_40:\n        /* \"contracts/token factory/LiquidityPool.sol\":703:715  tokenFactory */\n      and(sub(shl(0xa0, 0x01), 0x01), sload(0x02))\n        /* \"contracts/token factory/LiquidityPool.sol\":689:699  msg.sender */\n      caller\n        /* \"contracts/token factory/LiquidityPool.sol\":689:715  msg.sender == tokenFactory */\n      eq\n        /* \"contracts/token factory/LiquidityPool.sol\":681:750  require(msg.sender == tokenFactory, \"Caller is not the TokenFactory\") */\n      tag_131\n      jumpi\n      mload(0x40)\n      shl(0xe5, 0x461bcd)\n      dup2\n      mstore\n      0x04\n      add\n      tag_75\n      swap1\n      tag_76\n      jump\t// in\n    tag_131:\n        /* \"contracts/token factory/LiquidityPool.sol\":3790:3792  50 */\n      0x32\n        /* \"contracts/token factory/LiquidityPool.sol\":3779:3786  sellTax */\n      sload(0x06)\n        /* \"contracts/token factory/LiquidityPool.sol\":3767:3776  newBuyTax */\n      dup3\n        /* \"contracts/token factory/LiquidityPool.sol\":3767:3786  newBuyTax + sellTax */\n      tag_134\n      swap2\n      swap1\n      tag_79\n      jump\t// in\n    tag_134:\n        /* \"contracts/token factory/LiquidityPool.sol\":3767:3792  newBuyTax + sellTax <= 50 */\n      gt\n      iszero\n        /* \"contracts/token factory/LiquidityPool.sol\":3759:3823  require(newBuyTax + sellTax <= 50, \"Total tax cannot exceed 5%\") */\n      tag_135\n      jumpi\n      mload(0x40)\n      shl(0xe5, 0x461bcd)\n      dup2\n      mstore\n        /* \"#utility.yul\":2363:2365   */\n      0x20\n        /* \"contracts/token factory/LiquidityPool.sol\":3759:3823  require(newBuyTax + sellTax <= 50, \"Total tax cannot exceed 5%\") */\n      0x04\n      dup3\n      add\n        /* \"#utility.yul\":2345:2366   */\n      mstore\n        /* \"#utility.yul\":2402:2404   */\n      0x1a\n        /* \"#utility.yul\":2382:2400   */\n      0x24\n      dup3\n      add\n        /* \"#utility.yul\":2375:2405   */\n      mstore\n        /* \"#utility.yul\":2441:2469   */\n      0x546f74616c207461782063616e6e6f7420657863656564203525000000000000\n        /* \"#utility.yul\":2421:2439   */\n      0x44\n      dup3\n      add\n        /* \"#utility.yul\":2414:2470   */\n      mstore\n        /* \"#utility.yul\":2487:2505   */\n      0x64\n      add\n        /* \"contracts/token factory/LiquidityPool.sol\":3759:3823  require(newBuyTax + sellTax <= 50, \"Total tax cannot exceed 5%\") */\n      tag_75\n        /* \"#utility.yul\":2161:2511   */\n      jump\n        /* \"contracts/token factory/LiquidityPool.sol\":3759:3823  require(newBuyTax + sellTax <= 50, \"Total tax cannot exceed 5%\") */\n    tag_135:\n        /* \"contracts/token factory/LiquidityPool.sol\":3833:3839  buyTax */\n      0x05\n        /* \"contracts/token factory/LiquidityPool.sol\":3833:3851  buyTax = newBuyTax */\n      dup2\n      swap1\n      sstore\n        /* \"contracts/token factory/LiquidityPool.sol\":3866:3890  BuyTaxUpdated(newBuyTax) */\n      mload(0x40)\n        /* \"#utility.yul\":599:624   */\n      dup2\n      dup2\n      mstore\n        /* \"contracts/token factory/LiquidityPool.sol\":3866:3890  BuyTaxUpdated(newBuyTax) */\n      0x7a758dc8e99047b028278b3e2ff1416d8493a7aacee7a5dc30b6bf93270eccce\n      swap1\n        /* \"#utility.yul\":587:589   */\n      0x20\n        /* \"#utility.yul\":572:590   */\n      add\n        /* \"contracts/token factory/LiquidityPool.sol\":3866:3890  BuyTaxUpdated(newBuyTax) */\n      tag_83\n        /* \"#utility.yul\":453:630   */\n      jump\n        /* \"contracts/token factory/LiquidityPool.sol\":1480:2021  function initialize(... */\n    tag_48:\n        /* \"contracts/token factory/LiquidityPool.sol\":703:715  tokenFactory */\n      and(sub(shl(0xa0, 0x01), 0x01), sload(0x02))\n        /* \"contracts/token factory/LiquidityPool.sol\":689:699  msg.sender */\n      caller\n        /* \"contracts/token factory/LiquidityPool.sol\":689:715  msg.sender == tokenFactory */\n      eq\n        /* \"contracts/token factory/LiquidityPool.sol\":681:750  require(msg.sender == tokenFactory, \"Caller is not the TokenFactory\") */\n      tag_139\n      jumpi\n      mload(0x40)\n      shl(0xe5, 0x461bcd)\n      dup2\n      mstore\n      0x04\n      add\n      tag_75\n      swap1\n      tag_76\n      jump\t// in\n    tag_139:\n        /* \"contracts/token factory/LiquidityPool.sol\":1667:1673  token0 */\n      and(sub(shl(0xa0, 0x01), 0x01), sload(0x01))\n        /* \"contracts/token factory/LiquidityPool.sol\":1667:1687  token0 == address(0) */\n      iszero\n        /* \"contracts/token factory/LiquidityPool.sol\":1659:1716  require(token0 == address(0), \"Pool already initialized\") */\n      tag_142\n      jumpi\n      mload(0x40)\n      shl(0xe5, 0x461bcd)\n      dup2\n      mstore\n        /* \"#utility.yul\":5489:5491   */\n      0x20\n        /* \"contracts/token factory/LiquidityPool.sol\":1659:1716  require(token0 == address(0), \"Pool already initialized\") */\n      0x04\n      dup3\n      add\n        /* \"#utility.yul\":5471:5492   */\n      mstore\n        /* \"#utility.yul\":5528:5530   */\n      0x18\n        /* \"#utility.yul\":5508:5526   */\n      0x24\n      dup3\n      add\n        /* \"#utility.yul\":5501:5531   */\n      mstore\n        /* \"#utility.yul\":5567:5593   */\n      0x506f6f6c20616c726561647920696e697469616c697a65640000000000000000\n        /* \"#utility.yul\":5547:5565   */\n      0x44\n      dup3\n      add\n        /* \"#utility.yul\":5540:5594   */\n      mstore\n        /* \"#utility.yul\":5611:5629   */\n      0x64\n      add\n        /* \"contracts/token factory/LiquidityPool.sol\":1659:1716  require(token0 == address(0), \"Pool already initialized\") */\n      tag_75\n        /* \"#utility.yul\":5287:5635   */\n      jump\n        /* \"contracts/token factory/LiquidityPool.sol\":1659:1716  require(token0 == address(0), \"Pool already initialized\") */\n    tag_142:\n        /* \"contracts/token factory/LiquidityPool.sol\":1746:1747  0 */\n      0x00\n        /* \"contracts/token factory/LiquidityPool.sol\":1734:1743  msg.value */\n      callvalue\n        /* \"contracts/token factory/LiquidityPool.sol\":1734:1747  msg.value > 0 */\n      gt\n        /* \"contracts/token factory/LiquidityPool.sol\":1726:1799  require(msg.value > 0, \"Initial ether reserve must be greater than zero\") */\n      tag_145\n      jumpi\n      mload(0x40)\n      shl(0xe5, 0x461bcd)\n      dup2\n      mstore\n        /* \"#utility.yul\":5842:5844   */\n      0x20\n        /* \"contracts/token factory/LiquidityPool.sol\":1726:1799  require(msg.value > 0, \"Initial ether reserve must be greater than zero\") */\n      0x04\n      dup3\n      add\n        /* \"#utility.yul\":5824:5845   */\n      mstore\n        /* \"#utility.yul\":5881:5883   */\n      0x2f\n        /* \"#utility.yul\":5861:5879   */\n      0x24\n      dup3\n      add\n        /* \"#utility.yul\":5854:5884   */\n      mstore\n        /* \"#utility.yul\":5920:5954   */\n      0x496e697469616c2065746865722072657365727665206d757374206265206772\n        /* \"#utility.yul\":5900:5918   */\n      0x44\n      dup3\n      add\n        /* \"#utility.yul\":5893:5955   */\n      mstore\n      shl(0x88, 0x6561746572207468616e207a65726f)\n        /* \"#utility.yul\":5971:5989   */\n      0x64\n      dup3\n      add\n        /* \"#utility.yul\":5964:6009   */\n      mstore\n        /* \"#utility.yul\":6026:6045   */\n      0x84\n      add\n        /* \"contracts/token factory/LiquidityPool.sol\":1726:1799  require(msg.value > 0, \"Initial ether reserve must be greater than zero\") */\n      tag_75\n        /* \"#utility.yul\":5640:6051   */\n      jump\n        /* \"contracts/token factory/LiquidityPool.sol\":1726:1799  require(msg.value > 0, \"Initial ether reserve must be greater than zero\") */\n    tag_145:\n        /* \"contracts/token factory/LiquidityPool.sol\":1810:1816  token0 */\n      0x01\n        /* \"contracts/token factory/LiquidityPool.sol\":1810:1826  token0 = _token0 */\n      dup1\n      sload\n      not(sub(shl(0xa0, 0x01), 0x01))\n      and\n      sub(shl(0xa0, 0x01), 0x01)\n      dup7\n      and\n      or\n      swap1\n      sstore\n        /* \"contracts/token factory/LiquidityPool.sol\":1836:1844  reserve0 */\n      0x03\n        /* \"contracts/token factory/LiquidityPool.sol\":1836:1867  reserve0 = _initialTokenReserve */\n      dup4\n      swap1\n      sstore\n        /* \"contracts/token factory/LiquidityPool.sol\":1888:1897  msg.value */\n      callvalue\n        /* \"contracts/token factory/LiquidityPool.sol\":1877:1885  reserve1 */\n      0x04\n        /* \"contracts/token factory/LiquidityPool.sol\":1877:1897  reserve1 = msg.value */\n      dup2\n      swap1\n      sstore\n        /* \"contracts/token factory/LiquidityPool.sol\":1907:1913  buyTax */\n      0x05\n        /* \"contracts/token factory/LiquidityPool.sol\":1907:1923  buyTax = _buyTax */\n      dup4\n      swap1\n      sstore\n        /* \"contracts/token factory/LiquidityPool.sol\":1933:1940  sellTax */\n      0x06\n        /* \"contracts/token factory/LiquidityPool.sol\":1933:1951  sellTax = _sellTax */\n      dup3\n      swap1\n      sstore\n        /* \"contracts/token factory/LiquidityPool.sol\":1967:2014  LiquidityAdded(_initialTokenReserve, msg.value) */\n      0x40\n      dup1\n      mload\n        /* \"#utility.yul\":1461:1486   */\n      dup6\n      dup2\n      mstore\n        /* \"#utility.yul\":1517:1519   */\n      0x20\n        /* \"#utility.yul\":1502:1520   */\n      dup2\n      add\n        /* \"#utility.yul\":1495:1529   */\n      swap3\n      swap1\n      swap3\n      mstore\n        /* \"contracts/token factory/LiquidityPool.sol\":1967:2014  LiquidityAdded(_initialTokenReserve, msg.value) */\n      0x38f8a0c92f4c5b0b6877f878cb4c0c8d348a47b76d716c8e78f425043df9515b\n      swap2\n        /* \"#utility.yul\":1434:1452   */\n      add\n        /* \"contracts/token factory/LiquidityPool.sol\":1967:2014  LiquidityAdded(_initialTokenReserve, msg.value) */\n      mload(0x40)\n      dup1\n      swap2\n      sub\n      swap1\n      log1\n        /* \"contracts/token factory/LiquidityPool.sol\":1480:2021  function initialize(... */\n      pop\n      pop\n      pop\n      pop\n      jump\t// out\n        /* \"contracts/token factory/LiquidityPool.sol\":2027:2713  function buyToken() external payable nonReentrant returns (uint256 amountOut) {... */\n    tag_63:\n        /* \"contracts/token factory/LiquidityPool.sol\":2086:2103  uint256 amountOut */\n      0x00\n        /* \"@openzeppelin/contracts/utils/ReentrancyGuard.sol\":2500:2521  _nonReentrantBefore() */\n      tag_151\n        /* \"@openzeppelin/contracts/utils/ReentrancyGuard.sol\":2500:2519  _nonReentrantBefore */\n      tag_86\n        /* \"@openzeppelin/contracts/utils/ReentrancyGuard.sol\":2500:2521  _nonReentrantBefore() */\n      jump\t// in\n    tag_151:\n        /* \"contracts/token factory/LiquidityPool.sol\":2135:2136  0 */\n      0x00\n        /* \"contracts/token factory/LiquidityPool.sol\":2123:2132  msg.value */\n      callvalue\n        /* \"contracts/token factory/LiquidityPool.sol\":2123:2136  msg.value > 0 */\n      gt\n        /* \"contracts/token factory/LiquidityPool.sol\":2115:2170  require(msg.value > 0, \"Must send ether to buy tokens\") */\n      tag_153\n      jumpi\n      mload(0x40)\n      shl(0xe5, 0x461bcd)\n      dup2\n      mstore\n        /* \"#utility.yul\":6258:6260   */\n      0x20\n        /* \"contracts/token factory/LiquidityPool.sol\":2115:2170  require(msg.value > 0, \"Must send ether to buy tokens\") */\n      0x04\n      dup3\n      add\n        /* \"#utility.yul\":6240:6261   */\n      mstore\n        /* \"#utility.yul\":6297:6299   */\n      0x1d\n        /* \"#utility.yul\":6277:6295   */\n      0x24\n      dup3\n      add\n        /* \"#utility.yul\":6270:6300   */\n      mstore\n        /* \"#utility.yul\":6336:6367   */\n      0x4d7573742073656e6420657468657220746f2062757920746f6b656e73000000\n        /* \"#utility.yul\":6316:6334   */\n      0x44\n      dup3\n      add\n        /* \"#utility.yul\":6309:6368   */\n      mstore\n        /* \"#utility.yul\":6385:6403   */\n      0x64\n      add\n        /* \"contracts/token factory/LiquidityPool.sol\":2115:2170  require(msg.value > 0, \"Must send ether to buy tokens\") */\n      tag_75\n        /* \"#utility.yul\":6056:6409   */\n      jump\n        /* \"contracts/token factory/LiquidityPool.sol\":2115:2170  require(msg.value > 0, \"Must send ether to buy tokens\") */\n    tag_153:\n        /* \"contracts/token factory/LiquidityPool.sol\":2181:2192  uint256 tax */\n      0x00\n        /* \"contracts/token factory/LiquidityPool.sol\":2218:2222  1000 */\n      0x03e8\n        /* \"contracts/token factory/LiquidityPool.sol\":2208:2214  buyTax */\n      sload(0x05)\n        /* \"contracts/token factory/LiquidityPool.sol\":2196:2205  msg.value */\n      callvalue\n        /* \"contracts/token factory/LiquidityPool.sol\":2196:2214  msg.value * buyTax */\n      tag_156\n      swap2\n      swap1\n      tag_92\n      jump\t// in\n    tag_156:\n        /* \"contracts/token factory/LiquidityPool.sol\":2195:2222  (msg.value * buyTax) / 1000 */\n      tag_157\n      swap2\n      swap1\n      tag_94\n      jump\t// in\n    tag_157:\n        /* \"contracts/token factory/LiquidityPool.sol\":2181:2222  uint256 tax = (msg.value * buyTax) / 1000 */\n      swap1\n      pop\n        /* \"contracts/token factory/LiquidityPool.sol\":2232:2256  uint256 amountInAfterTax */\n      0x00\n        /* \"contracts/token factory/LiquidityPool.sol\":2259:2274  msg.value - tax */\n      tag_158\n        /* \"contracts/token factory/LiquidityPool.sol\":2181:2222  uint256 tax = (msg.value * buyTax) / 1000 */\n      dup3\n        /* \"contracts/token factory/LiquidityPool.sol\":2259:2268  msg.value */\n      callvalue\n        /* \"contracts/token factory/LiquidityPool.sol\":2259:2274  msg.value - tax */\n      tag_96\n      jump\t// in\n    tag_158:\n        /* \"contracts/token factory/LiquidityPool.sol\":2304:2314  devAddress */\n      sload(0x07)\n        /* \"contracts/token factory/LiquidityPool.sol\":2304:2335  devAddress.call{value: tax}(\"\") */\n      mload(0x40)\n        /* \"contracts/token factory/LiquidityPool.sol\":2232:2274  uint256 amountInAfterTax = msg.value - tax */\n      swap2\n      swap3\n      pop\n        /* \"contracts/token factory/LiquidityPool.sol\":2286:2298  bool taxSent */\n      0x00\n      swap2\n      sub(shl(0xa0, 0x01), 0x01)\n        /* \"contracts/token factory/LiquidityPool.sol\":2304:2314  devAddress */\n      swap1\n      swap2\n      and\n      swap1\n        /* \"contracts/token factory/LiquidityPool.sol\":2327:2330  tax */\n      dup5\n      swap1\n        /* \"contracts/token factory/LiquidityPool.sol\":2286:2298  bool taxSent */\n      dup4\n        /* \"contracts/token factory/LiquidityPool.sol\":2304:2335  devAddress.call{value: tax}(\"\") */\n      dup2\n        /* \"contracts/token factory/LiquidityPool.sol\":2286:2298  bool taxSent */\n      dup2\n        /* \"contracts/token factory/LiquidityPool.sol\":2304:2335  devAddress.call{value: tax}(\"\") */\n      dup2\n        /* \"contracts/token factory/LiquidityPool.sol\":2327:2330  tax */\n      dup6\n        /* \"contracts/token factory/LiquidityPool.sol\":2304:2314  devAddress */\n      dup8\n        /* \"contracts/token factory/LiquidityPool.sol\":2304:2335  devAddress.call{value: tax}(\"\") */\n      gas\n      call\n      swap3\n      pop\n      pop\n      pop\n      returndatasize\n      dup1\n      0x00\n      dup2\n      eq\n      tag_162\n      jumpi\n      mload(0x40)\n      swap2\n      pop\n      and(add(returndatasize, 0x3f), not(0x1f))\n      dup3\n      add\n      0x40\n      mstore\n      returndatasize\n      dup3\n      mstore\n      returndatasize\n      0x00\n      0x20\n      dup5\n      add\n      returndatacopy\n      jump(tag_161)\n    tag_162:\n      0x60\n      swap2\n      pop\n    tag_161:\n      pop\n        /* \"contracts/token factory/LiquidityPool.sol\":2285:2335  (bool taxSent, ) = devAddress.call{value: tax}(\"\") */\n      pop\n      swap1\n      pop\n        /* \"contracts/token factory/LiquidityPool.sol\":2353:2360  taxSent */\n      dup1\n        /* \"contracts/token factory/LiquidityPool.sol\":2345:2387  require(taxSent, \"Failed to send buy tax\") */\n      tag_163\n      jumpi\n      mload(0x40)\n      shl(0xe5, 0x461bcd)\n      dup2\n      mstore\n        /* \"#utility.yul\":6616:6618   */\n      0x20\n        /* \"contracts/token factory/LiquidityPool.sol\":2345:2387  require(taxSent, \"Failed to send buy tax\") */\n      0x04\n      dup3\n      add\n        /* \"#utility.yul\":6598:6619   */\n      mstore\n        /* \"#utility.yul\":6655:6657   */\n      0x16\n        /* \"#utility.yul\":6635:6653   */\n      0x24\n      dup3\n      add\n        /* \"#utility.yul\":6628:6658   */\n      mstore\n      shl(0x53, 0x08cc2d2d8cac840e8de40e6cadcc840c4eaf240e8c2f)\n        /* \"#utility.yul\":6674:6692   */\n      0x44\n      dup3\n      add\n        /* \"#utility.yul\":6667:6719   */\n      mstore\n        /* \"#utility.yul\":6736:6754   */\n      0x64\n      add\n        /* \"contracts/token factory/LiquidityPool.sol\":2345:2387  require(taxSent, \"Failed to send buy tax\") */\n      tag_75\n        /* \"#utility.yul\":6414:6760   */\n      jump\n        /* \"contracts/token factory/LiquidityPool.sol\":2345:2387  require(taxSent, \"Failed to send buy tax\") */\n    tag_163:\n        /* \"contracts/token factory/LiquidityPool.sol\":2398:2417  uint256 newReserve1 */\n      0x00\n        /* \"contracts/token factory/LiquidityPool.sol\":2431:2447  amountInAfterTax */\n      dup3\n        /* \"contracts/token factory/LiquidityPool.sol\":2420:2428  reserve1 */\n      sload(0x04)\n        /* \"contracts/token factory/LiquidityPool.sol\":2420:2447  reserve1 + amountInAfterTax */\n      tag_166\n      swap2\n      swap1\n      tag_79\n      jump\t// in\n    tag_166:\n        /* \"contracts/token factory/LiquidityPool.sol\":2398:2447  uint256 newReserve1 = reserve1 + amountInAfterTax */\n      swap1\n      pop\n        /* \"contracts/token factory/LiquidityPool.sol\":2504:2515  newReserve1 */\n      dup1\n        /* \"contracts/token factory/LiquidityPool.sol\":2492:2500  reserve1 */\n      sload(0x04)\n        /* \"contracts/token factory/LiquidityPool.sol\":2481:2489  reserve0 */\n      sload(0x03)\n        /* \"contracts/token factory/LiquidityPool.sol\":2481:2500  reserve0 * reserve1 */\n      tag_167\n      swap2\n      swap1\n      tag_92\n      jump\t// in\n    tag_167:\n        /* \"contracts/token factory/LiquidityPool.sol\":2480:2515  (reserve0 * reserve1) / newReserve1 */\n      tag_168\n      swap2\n      swap1\n      tag_94\n      jump\t// in\n    tag_168:\n        /* \"contracts/token factory/LiquidityPool.sol\":2469:2477  reserve0 */\n      sload(0x03)\n        /* \"contracts/token factory/LiquidityPool.sol\":2469:2515  reserve0 - (reserve0 * reserve1) / newReserve1 */\n      tag_169\n      swap2\n      swap1\n      tag_96\n      jump\t// in\n    tag_169:\n        /* \"contracts/token factory/LiquidityPool.sol\":2457:2515  amountOut = reserve0 - (reserve0 * reserve1) / newReserve1 */\n      swap5\n      pop\n        /* \"contracts/token factory/LiquidityPool.sol\":2537:2548  newReserve1 */\n      dup1\n        /* \"contracts/token factory/LiquidityPool.sol\":2526:2534  reserve1 */\n      0x04\n        /* \"contracts/token factory/LiquidityPool.sol\":2526:2548  reserve1 = newReserve1 */\n      dup2\n      swap1\n      sstore\n      pop\n        /* \"contracts/token factory/LiquidityPool.sol\":2570:2579  amountOut */\n      dup5\n        /* \"contracts/token factory/LiquidityPool.sol\":2558:2566  reserve0 */\n      0x03\n      0x00\n        /* \"contracts/token factory/LiquidityPool.sol\":2558:2579  reserve0 -= amountOut */\n      dup3\n      dup3\n      sload\n      tag_170\n      swap2\n      swap1\n      tag_96\n      jump\t// in\n    tag_170:\n      swap1\n      swap2\n      sstore\n      pop\n      pop\n        /* \"contracts/token factory/LiquidityPool.sol\":2597:2603  token0 */\n      sload(0x01)\n        /* \"contracts/token factory/LiquidityPool.sol\":2590:2636  IERC20(token0).transfer(msg.sender, amountOut) */\n      mload(0x40)\n      shl(0xe0, 0xa9059cbb)\n      dup2\n      mstore\n        /* \"contracts/token factory/LiquidityPool.sol\":2614:2624  msg.sender */\n      caller\n        /* \"contracts/token factory/LiquidityPool.sol\":2590:2636  IERC20(token0).transfer(msg.sender, amountOut) */\n      0x04\n      dup3\n      add\n        /* \"#utility.yul\":6939:6990   */\n      mstore\n        /* \"#utility.yul\":7006:7024   */\n      0x24\n      dup2\n      add\n        /* \"#utility.yul\":6999:7033   */\n      dup8\n      swap1\n      mstore\n      sub(shl(0xa0, 0x01), 0x01)\n        /* \"contracts/token factory/LiquidityPool.sol\":2597:2603  token0 */\n      swap1\n      swap2\n      and\n      swap1\n        /* \"contracts/token factory/LiquidityPool.sol\":2590:2613  IERC20(token0).transfer */\n      0xa9059cbb\n      swap1\n        /* \"#utility.yul\":6912:6930   */\n      0x44\n      add\n        /* \"contracts/token factory/LiquidityPool.sol\":2590:2636  IERC20(token0).transfer(msg.sender, amountOut) */\n      0x20\n      mload(0x40)\n      dup1\n      dup4\n      sub\n      dup2\n      0x00\n      dup8\n      gas\n      call\n      iszero\n      dup1\n      iszero\n      tag_174\n      jumpi\n      returndatasize\n      0x00\n      dup1\n      returndatacopy\n      revert(0x00, returndatasize)\n    tag_174:\n      pop\n      pop\n      pop\n      pop\n      mload(0x40)\n      returndatasize\n      not(0x1f)\n      0x1f\n      dup3\n      add\n      and\n      dup3\n      add\n      dup1\n      0x40\n      mstore\n      pop\n      dup2\n      add\n      swap1\n      tag_175\n      swap2\n      swap1\n      tag_118\n      jump\t// in\n    tag_175:\n      pop\n        /* \"contracts/token factory/LiquidityPool.sol\":2652:2706  TokensPurchased(msg.sender, msg.value, amountOut, tax) */\n      0x40\n      dup1\n      mload\n        /* \"contracts/token factory/LiquidityPool.sol\":2680:2689  msg.value */\n      callvalue\n        /* \"#utility.yul\":5165:5190   */\n      dup2\n      mstore\n        /* \"#utility.yul\":5221:5223   */\n      0x20\n        /* \"#utility.yul\":5206:5224   */\n      dup2\n      add\n        /* \"#utility.yul\":5199:5233   */\n      dup8\n      swap1\n      mstore\n        /* \"#utility.yul\":5249:5267   */\n      swap1\n      dup2\n      add\n        /* \"#utility.yul\":5242:5276   */\n      dup6\n      swap1\n      mstore\n        /* \"contracts/token factory/LiquidityPool.sol\":2668:2678  msg.sender */\n      caller\n      swap1\n        /* \"contracts/token factory/LiquidityPool.sol\":2652:2706  TokensPurchased(msg.sender, msg.value, amountOut, tax) */\n      0x0d1a0d5e3d583a0e92588799dd06e50fd78c07daf05f0cc06d7b848b1ca445f1\n      swap1\n        /* \"#utility.yul\":5153:5155   */\n      0x60\n        /* \"#utility.yul\":5138:5156   */\n      add\n        /* \"contracts/token factory/LiquidityPool.sol\":2652:2706  TokensPurchased(msg.sender, msg.value, amountOut, tax) */\n      mload(0x40)\n      dup1\n      swap2\n      sub\n      swap1\n      log2\n        /* \"contracts/token factory/LiquidityPool.sol\":2105:2713  {... */\n      pop\n      pop\n      pop\n      pop\n        /* \"@openzeppelin/contracts/utils/ReentrancyGuard.sol\":2542:2562  _nonReentrantAfter() */\n      tag_177\n        /* \"@openzeppelin/contracts/utils/ReentrancyGuard.sol\":1857:1858  1 */\n      0x01\n        /* \"@openzeppelin/contracts/utils/ReentrancyGuard.sol\":3068:3075  _status */\n      0x00\n        /* \"@openzeppelin/contracts/utils/ReentrancyGuard.sol\":3068:3089  _status = NOT_ENTERED */\n      sstore\n        /* \"@openzeppelin/contracts/utils/ReentrancyGuard.sol\":2888:3096  function _nonReentrantAfter() private {... */\n      jump\n        /* \"@openzeppelin/contracts/utils/ReentrancyGuard.sol\":2542:2562  _nonReentrantAfter() */\n    tag_177:\n        /* \"contracts/token factory/LiquidityPool.sol\":2027:2713  function buyToken() external payable nonReentrant returns (uint256 amountOut) {... */\n      swap1\n      jump\t// out\n        /* \"@openzeppelin/contracts/utils/ReentrancyGuard.sol\":2575:2882  function _nonReentrantBefore() private {... */\n    tag_86:\n        /* \"@openzeppelin/contracts/utils/ReentrancyGuard.sol\":1899:1900  2 */\n      0x02\n        /* \"@openzeppelin/contracts/utils/ReentrancyGuard.sol\":2702:2709  _status */\n      sload(0x00)\n        /* \"@openzeppelin/contracts/utils/ReentrancyGuard.sol\":2702:2720  _status == ENTERED */\n      sub\n        /* \"@openzeppelin/contracts/utils/ReentrancyGuard.sol\":2698:2784  if (_status == ENTERED) {... */\n      tag_179\n      jumpi\n        /* \"@openzeppelin/contracts/utils/ReentrancyGuard.sol\":2743:2773  ReentrancyGuardReentrantCall() */\n      mload(0x40)\n      shl(0xe0, 0x3ee5aeb5)\n      dup2\n      mstore\n      0x04\n      add\n      mload(0x40)\n      dup1\n      swap2\n      sub\n      swap1\n      revert\n        /* \"@openzeppelin/contracts/utils/ReentrancyGuard.sol\":2698:2784  if (_status == ENTERED) {... */\n    tag_179:\n        /* \"@openzeppelin/contracts/utils/ReentrancyGuard.sol\":1899:1900  2 */\n      0x02\n        /* \"@openzeppelin/contracts/utils/ReentrancyGuard.sol\":2858:2865  _status */\n      0x00\n        /* \"@openzeppelin/contracts/utils/ReentrancyGuard.sol\":2858:2875  _status = ENTERED */\n      sstore\n        /* \"@openzeppelin/contracts/utils/ReentrancyGuard.sol\":2575:2882  function _nonReentrantBefore() private {... */\n      jump\t// out\n        /* \"#utility.yul\":222:448   */\n    tag_25:\n        /* \"#utility.yul\":281:287   */\n      0x00\n        /* \"#utility.yul\":334:336   */\n      0x20\n        /* \"#utility.yul\":322:331   */\n      dup3\n        /* \"#utility.yul\":313:320   */\n      dup5\n        /* \"#utility.yul\":309:332   */\n      sub\n        /* \"#utility.yul\":305:337   */\n      slt\n        /* \"#utility.yul\":302:354   */\n      iszero\n      tag_185\n      jumpi\n        /* \"#utility.yul\":350:351   */\n      0x00\n        /* \"#utility.yul\":347:348   */\n      dup1\n        /* \"#utility.yul\":340:352   */\n      revert\n        /* \"#utility.yul\":302:354   */\n    tag_185:\n      pop\n        /* \"#utility.yul\":395:418   */\n      calldataload\n      swap2\n        /* \"#utility.yul\":222:448   */\n      swap1\n      pop\n      jump\t// out\n        /* \"#utility.yul\":635:1282   */\n    tag_47:\n        /* \"#utility.yul\":721:727   */\n      0x00\n        /* \"#utility.yul\":729:735   */\n      dup1\n        /* \"#utility.yul\":737:743   */\n      0x00\n        /* \"#utility.yul\":745:751   */\n      dup1\n        /* \"#utility.yul\":798:801   */\n      0x80\n        /* \"#utility.yul\":786:795   */\n      dup6\n        /* \"#utility.yul\":777:784   */\n      dup8\n        /* \"#utility.yul\":773:796   */\n      sub\n        /* \"#utility.yul\":769:802   */\n      slt\n        /* \"#utility.yul\":766:819   */\n      iszero\n      tag_188\n      jumpi\n        /* \"#utility.yul\":815:816   */\n      0x00\n        /* \"#utility.yul\":812:813   */\n      dup1\n        /* \"#utility.yul\":805:817   */\n      revert\n        /* \"#utility.yul\":766:819   */\n    tag_188:\n        /* \"#utility.yul\":841:864   */\n      dup5\n      calldataload\n      sub(shl(0xa0, 0x01), 0x01)\n        /* \"#utility.yul\":893:924   */\n      dup2\n      and\n        /* \"#utility.yul\":883:925   */\n      dup2\n      eq\n        /* \"#utility.yul\":873:943   */\n      tag_189\n      jumpi\n        /* \"#utility.yul\":939:940   */\n      0x00\n        /* \"#utility.yul\":936:937   */\n      dup1\n        /* \"#utility.yul\":929:941   */\n      revert\n        /* \"#utility.yul\":873:943   */\n    tag_189:\n        /* \"#utility.yul\":962:967   */\n      swap7\n        /* \"#utility.yul\":1040:1042   */\n      0x20\n        /* \"#utility.yul\":1025:1043   */\n      dup7\n      add\n        /* \"#utility.yul\":1012:1044   */\n      calldataload\n      swap7\n      pop\n        /* \"#utility.yul\":1143:1145   */\n      0x40\n        /* \"#utility.yul\":1128:1146   */\n      dup7\n      add\n        /* \"#utility.yul\":1115:1147   */\n      calldataload\n      swap6\n        /* \"#utility.yul\":1246:1248   */\n      0x60\n        /* \"#utility.yul\":1231:1249   */\n      add\n        /* \"#utility.yul\":1218:1250   */\n      calldataload\n      swap5\n      pop\n        /* \"#utility.yul\":635:1282   */\n      swap3\n      pop\n      pop\n      pop\n      jump\t// out\n        /* \"#utility.yul\":1540:1894   */\n    tag_76:\n        /* \"#utility.yul\":1742:1744   */\n      0x20\n        /* \"#utility.yul\":1724:1745   */\n      dup1\n      dup3\n      mstore\n        /* \"#utility.yul\":1781:1783   */\n      0x1e\n        /* \"#utility.yul\":1761:1779   */\n      swap1\n      dup3\n      add\n        /* \"#utility.yul\":1754:1784   */\n      mstore\n        /* \"#utility.yul\":1820:1852   */\n      0x43616c6c6572206973206e6f742074686520546f6b656e466163746f72790000\n        /* \"#utility.yul\":1815:1817   */\n      0x40\n        /* \"#utility.yul\":1800:1818   */\n      dup3\n      add\n        /* \"#utility.yul\":1793:1853   */\n      mstore\n        /* \"#utility.yul\":1885:1887   */\n      0x60\n        /* \"#utility.yul\":1870:1888   */\n      add\n      swap1\n        /* \"#utility.yul\":1540:1894   */\n      jump\t// out\n        /* \"#utility.yul\":1899:2026   */\n    tag_181:\n        /* \"#utility.yul\":1960:1970   */\n      0x4e487b71\n        /* \"#utility.yul\":1955:1958   */\n      0xe0\n        /* \"#utility.yul\":1951:1971   */\n      shl\n        /* \"#utility.yul\":1948:1949   */\n      0x00\n        /* \"#utility.yul\":1941:1972   */\n      mstore\n        /* \"#utility.yul\":1991:1995   */\n      0x11\n        /* \"#utility.yul\":1988:1989   */\n      0x04\n        /* \"#utility.yul\":1981:1996   */\n      mstore\n        /* \"#utility.yul\":2015:2019   */\n      0x24\n        /* \"#utility.yul\":2012:2013   */\n      0x00\n        /* \"#utility.yul\":2005:2020   */\n      revert\n        /* \"#utility.yul\":2031:2156   */\n    tag_79:\n        /* \"#utility.yul\":2096:2105   */\n      dup1\n      dup3\n      add\n        /* \"#utility.yul\":2117:2127   */\n      dup1\n      dup3\n      gt\n        /* \"#utility.yul\":2114:2150   */\n      iszero\n      tag_195\n      jumpi\n        /* \"#utility.yul\":2130:2148   */\n      tag_195\n      tag_181\n      jump\t// in\n    tag_195:\n        /* \"#utility.yul\":2031:2156   */\n      swap3\n      swap2\n      pop\n      pop\n      jump\t// out\n        /* \"#utility.yul\":2866:3034   */\n    tag_92:\n        /* \"#utility.yul\":2939:2948   */\n      dup1\n      dup3\n      mul\n        /* \"#utility.yul\":2970:2979   */\n      dup2\n      iszero\n        /* \"#utility.yul\":2987:3002   */\n      dup3\n      dup3\n      div\n        /* \"#utility.yul\":2981:3003   */\n      dup5\n      eq\n        /* \"#utility.yul\":2967:3004   */\n      or\n        /* \"#utility.yul\":2957:3028   */\n      tag_195\n      jumpi\n        /* \"#utility.yul\":3008:3026   */\n      tag_195\n      tag_181\n      jump\t// in\n        /* \"#utility.yul\":3039:3256   */\n    tag_94:\n        /* \"#utility.yul\":3079:3080   */\n      0x00\n        /* \"#utility.yul\":3105:3106   */\n      dup3\n        /* \"#utility.yul\":3095:3227   */\n      tag_202\n      jumpi\n        /* \"#utility.yul\":3149:3159   */\n      0x4e487b71\n        /* \"#utility.yul\":3144:3147   */\n      0xe0\n        /* \"#utility.yul\":3140:3160   */\n      shl\n        /* \"#utility.yul\":3137:3138   */\n      0x00\n        /* \"#utility.yul\":3130:3161   */\n      mstore\n        /* \"#utility.yul\":3184:3188   */\n      0x12\n        /* \"#utility.yul\":3181:3182   */\n      0x04\n        /* \"#utility.yul\":3174:3189   */\n      mstore\n        /* \"#utility.yul\":3212:3216   */\n      0x24\n        /* \"#utility.yul\":3209:3210   */\n      0x00\n        /* \"#utility.yul\":3202:3217   */\n      revert\n        /* \"#utility.yul\":3095:3227   */\n    tag_202:\n      pop\n        /* \"#utility.yul\":3241:3250   */\n      div\n      swap1\n        /* \"#utility.yul\":3039:3256   */\n      jump\t// out\n        /* \"#utility.yul\":3261:3389   */\n    tag_96:\n        /* \"#utility.yul\":3328:3337   */\n      dup2\n      dup2\n      sub\n        /* \"#utility.yul\":3349:3360   */\n      dup2\n      dup2\n      gt\n        /* \"#utility.yul\":3346:3383   */\n      iszero\n      tag_195\n      jumpi\n        /* \"#utility.yul\":3363:3381   */\n      tag_195\n      tag_181\n      jump\t// in\n        /* \"#utility.yul\":4332:4609   */\n    tag_118:\n        /* \"#utility.yul\":4399:4405   */\n      0x00\n        /* \"#utility.yul\":4452:4454   */\n      0x20\n        /* \"#utility.yul\":4440:4449   */\n      dup3\n        /* \"#utility.yul\":4431:4438   */\n      dup5\n        /* \"#utility.yul\":4427:4450   */\n      sub\n        /* \"#utility.yul\":4423:4455   */\n      slt\n        /* \"#utility.yul\":4420:4472   */\n      iszero\n      tag_210\n      jumpi\n        /* \"#utility.yul\":4468:4469   */\n      0x00\n        /* \"#utility.yul\":4465:4466   */\n      dup1\n        /* \"#utility.yul\":4458:4470   */\n      revert\n        /* \"#utility.yul\":4420:4472   */\n    tag_210:\n        /* \"#utility.yul\":4500:4509   */\n      dup2\n        /* \"#utility.yul\":4494:4510   */\n      mload\n        /* \"#utility.yul\":4553:4558   */\n      dup1\n        /* \"#utility.yul\":4546:4559   */\n      iszero\n        /* \"#utility.yul\":4539:4560   */\n      iszero\n        /* \"#utility.yul\":4532:4537   */\n      dup2\n        /* \"#utility.yul\":4529:4561   */\n      eq\n        /* \"#utility.yul\":4519:4579   */\n      tag_211\n      jumpi\n        /* \"#utility.yul\":4575:4576   */\n      0x00\n        /* \"#utility.yul\":4572:4573   */\n      dup1\n        /* \"#utility.yul\":4565:4577   */\n      revert\n        /* \"#utility.yul\":4519:4579   */\n    tag_211:\n        /* \"#utility.yul\":4598:4603   */\n      swap4\n        /* \"#utility.yul\":4332:4609   */\n      swap3\n      pop\n      pop\n      pop\n      jump\t// out\n\n    auxdata: 0xa2646970667358221220f3f0c3243f264cd76a36c95cb81ac5028a8f0d6c0f1fc5cc8bb4c5b57666a55164736f6c634300081a0033\n}\n",
				"bytecode": {
					"linkReferences": {},
					"object": "608060405234801561001057600080fd5b50604051610dc3380380610dc383398101604081905261002f91610157565b60016000556001600160a01b0382166100a05760405162461bcd60e51b815260206004820152602860248201527f446576656c6f70657220616464726573732063616e6e6f74206265207a65726f604482015267206164647265737360c01b60648201526084015b60405180910390fd5b6001600160a01b03811661010a5760405162461bcd60e51b815260206004820152602b60248201527f546f6b656e466163746f727920616464726573732063616e6e6f74206265207a60448201526a65726f206164647265737360a81b6064820152608401610097565b600780546001600160a01b039384166001600160a01b0319918216179091556002805492909316911617905561018a565b80516001600160a01b038116811461015257600080fd5b919050565b6000806040838503121561016a57600080fd5b6101738361013b565b91506101816020840161013b565b90509250929050565b610c2a806101996000396000f3fe6080604052600436106100c25760003560e01c80634ec81af11161007f5780635a76f25e116100595780635a76f25e146101fb578063a482171914610211578063cc1776d314610219578063e77772fe1461022f57600080fd5b80634ec81af1146101aa5780634f7041a5146101bd57806359bf5d39146101d357600080fd5b80630dfe1681146100c757806312185a39146101045780632397e4d7146101265780633ad10ef614610154578063436d334014610174578063443cb4bc14610194575b600080fd5b3480156100d357600080fd5b506001546100e7906001600160a01b031681565b6040516001600160a01b0390911681526020015b60405180910390f35b34801561011057600080fd5b5061012461011f366004610ab9565b61024f565b005b34801561013257600080fd5b50610146610141366004610ab9565b61031c565b6040519081526020016100fb565b34801561016057600080fd5b506007546100e7906001600160a01b031681565b34801561018057600080fd5b5061012461018f366004610ab9565b61062d565b3480156101a057600080fd5b5061014660035481565b6101246101b8366004610ad2565b6106ea565b3480156101c957600080fd5b5061014660055481565b3480156101df57600080fd5b50600354600454604080519283526020830191909152016100fb565b34801561020757600080fd5b5061014660045481565b610146610845565b34801561022557600080fd5b5061014660065481565b34801561023b57600080fd5b506002546100e7906001600160a01b031681565b6002546001600160a01b031633146102825760405162461bcd60e51b815260040161027990610b19565b60405180910390fd5b6032816005546102929190610b66565b11156102e05760405162461bcd60e51b815260206004820152601a60248201527f546f74616c207461782063616e6e6f74206578636565642035250000000000006044820152606401610279565b60068190556040518181527fa6255338a5f732d64ceba7f4c18182567f9d1067eb984b46d478b37d72a52d11906020015b60405180910390a150565b6000610326610a8f565b6000821161036e5760405162461bcd60e51b81526020600482015260156024820152744d7573742073656c6c20736f6d6520746f6b656e7360581b6044820152606401610279565b60006103e8600654846103819190610b7f565b61038b9190610b96565b905060006103998285610bb8565b90506000816003546103ab9190610b66565b9050806004546003546103be9190610b7f565b6103c89190610b96565b6004546103d59190610bb8565b935060006103e8600654866103ea9190610b7f565b6103f49190610b96565b90506104008186610bb8565b6007546040519196506000916001600160a01b039091169083908381818185875af1925050503d8060008114610452576040519150601f19603f3d011682016040523d82523d6000602084013e610457565b606091505b50509050806104a85760405162461bcd60e51b815260206004820152601760248201527f4661696c656420746f2073656e642073656c6c207461780000000000000000006044820152606401610279565b8260038190555085600460008282546104c19190610bb8565b90915550506001546040516323b872dd60e01b8152336004820152306024820152604481018990526001600160a01b03909116906323b872dd906064016020604051808303816000875af115801561051d573d6000803e3d6000fd5b505050506040513d601f19601f820116820180604052508101906105419190610bcb565b50604051600090339088908381818185875af1925050503d8060008114610584576040519150601f19603f3d011682016040523d82523d6000602084013e610589565b606091505b50509050806105d15760405162461bcd60e51b81526020600482015260146024820152732330b4b632b2103a379039b2b7321032ba3432b960611b6044820152606401610279565b600654604080518a8152602081018a90529081019190915233907f6db63bebf1e6540277744df32846ebdb98385b1a73f2d5de49b28348add63f509060600160405180910390a25050505050506106286001600055565b919050565b6002546001600160a01b031633146106575760405162461bcd60e51b815260040161027990610b19565b6032600654826106679190610b66565b11156106b55760405162461bcd60e51b815260206004820152601a60248201527f546f74616c207461782063616e6e6f74206578636565642035250000000000006044820152606401610279565b60058190556040518181527f7a758dc8e99047b028278b3e2ff1416d8493a7aacee7a5dc30b6bf93270eccce90602001610311565b6002546001600160a01b031633146107145760405162461bcd60e51b815260040161027990610b19565b6001546001600160a01b03161561076d5760405162461bcd60e51b815260206004820152601860248201527f506f6f6c20616c726561647920696e697469616c697a656400000000000000006044820152606401610279565b600034116107d55760405162461bcd60e51b815260206004820152602f60248201527f496e697469616c2065746865722072657365727665206d75737420626520677260448201526e6561746572207468616e207a65726f60881b6064820152608401610279565b600180546001600160a01b0319166001600160a01b0386161790556003839055346004819055600583905560068290556040805185815260208101929092527f38f8a0c92f4c5b0b6877f878cb4c0c8d348a47b76d716c8e78f425043df9515b910160405180910390a150505050565b600061084f610a8f565b6000341161089f5760405162461bcd60e51b815260206004820152601d60248201527f4d7573742073656e6420657468657220746f2062757920746f6b656e730000006044820152606401610279565b60006103e8600554346108b29190610b7f565b6108bc9190610b96565b905060006108ca8234610bb8565b6007546040519192506000916001600160a01b039091169084908381818185875af1925050503d806000811461091c576040519150601f19603f3d011682016040523d82523d6000602084013e610921565b606091505b505090508061096b5760405162461bcd60e51b815260206004820152601660248201527508cc2d2d8cac840e8de40e6cadcc840c4eaf240e8c2f60531b6044820152606401610279565b60008260045461097b9190610b66565b90508060045460035461098e9190610b7f565b6109989190610b96565b6003546109a59190610bb8565b94508060048190555084600360008282546109c09190610bb8565b909155505060015460405163a9059cbb60e01b8152336004820152602481018790526001600160a01b039091169063a9059cbb906044016020604051808303816000875af1158015610a16573d6000803e3d6000fd5b505050506040513d601f19601f82011682018060405250810190610a3a9190610bcb565b50604080513481526020810187905290810185905233907f0d1a0d5e3d583a0e92588799dd06e50fd78c07daf05f0cc06d7b848b1ca445f19060600160405180910390a250505050610a8c6001600055565b90565b600260005403610ab257604051633ee5aeb560e01b815260040160405180910390fd5b6002600055565b600060208284031215610acb57600080fd5b5035919050565b60008060008060808587031215610ae857600080fd5b84356001600160a01b0381168114610aff57600080fd5b966020860135965060408601359560600135945092505050565b6020808252601e908201527f43616c6c6572206973206e6f742074686520546f6b656e466163746f72790000604082015260600190565b634e487b7160e01b600052601160045260246000fd5b80820180821115610b7957610b79610b50565b92915050565b8082028115828204841417610b7957610b79610b50565b600082610bb357634e487b7160e01b600052601260045260246000fd5b500490565b81810381811115610b7957610b79610b50565b600060208284031215610bdd57600080fd5b81518015158114610bed57600080fd5b939250505056fea2646970667358221220f3f0c3243f264cd76a36c95cb81ac5028a8f0d6c0f1fc5cc8bb4c5b57666a55164736f6c634300081a0033",
					"opcodes": "PUSH1 0x80 PUSH1 0x40 MSTORE CALLVALUE DUP1 ISZERO PUSH2 0x10 JUMPI PUSH1 0x0 DUP1 REVERT JUMPDEST POP PUSH1 0x40 MLOAD PUSH2 0xDC3 CODESIZE SUB DUP1 PUSH2 0xDC3 DUP4 CODECOPY DUP2 ADD PUSH1 0x40 DUP2 SWAP1 MSTORE PUSH2 0x2F SWAP2 PUSH2 0x157 JUMP JUMPDEST PUSH1 0x1 PUSH1 0x0 SSTORE PUSH1 0x1 PUSH1 0x1 PUSH1 0xA0 SHL SUB DUP3 AND PUSH2 0xA0 JUMPI PUSH1 0x40 MLOAD PUSH3 0x461BCD PUSH1 0xE5 SHL DUP2 MSTORE PUSH1 0x20 PUSH1 0x4 DUP3 ADD MSTORE PUSH1 0x28 PUSH1 0x24 DUP3 ADD MSTORE PUSH32 0x446576656C6F70657220616464726573732063616E6E6F74206265207A65726F PUSH1 0x44 DUP3 ADD MSTORE PUSH8 0x2061646472657373 PUSH1 0xC0 SHL PUSH1 0x64 DUP3 ADD MSTORE PUSH1 0x84 ADD JUMPDEST PUSH1 0x40 MLOAD DUP1 SWAP2 SUB SWAP1 REVERT JUMPDEST PUSH1 0x1 PUSH1 0x1 PUSH1 0xA0 SHL SUB DUP2 AND PUSH2 0x10A JUMPI PUSH1 0x40 MLOAD PUSH3 0x461BCD PUSH1 0xE5 SHL DUP2 MSTORE PUSH1 0x20 PUSH1 0x4 DUP3 ADD MSTORE PUSH1 0x2B PUSH1 0x24 DUP3 ADD MSTORE PUSH32 0x546F6B656E466163746F727920616464726573732063616E6E6F74206265207A PUSH1 0x44 DUP3 ADD MSTORE PUSH11 0x65726F2061646472657373 PUSH1 0xA8 SHL PUSH1 0x64 DUP3 ADD MSTORE PUSH1 0x84 ADD PUSH2 0x97 JUMP JUMPDEST PUSH1 0x7 DUP1 SLOAD PUSH1 0x1 PUSH1 0x1 PUSH1 0xA0 SHL SUB SWAP4 DUP5 AND PUSH1 0x1 PUSH1 0x1 PUSH1 0xA0 SHL SUB NOT SWAP2 DUP3 AND OR SWAP1 SWAP2 SSTORE PUSH1 0x2 DUP1 SLOAD SWAP3 SWAP1 SWAP4 AND SWAP2 AND OR SWAP1 SSTORE PUSH2 0x18A JUMP JUMPDEST DUP1 MLOAD PUSH1 0x1 PUSH1 0x1 PUSH1 0xA0 SHL SUB DUP2 AND DUP2 EQ PUSH2 0x152 JUMPI PUSH1 0x0 DUP1 REVERT JUMPDEST SWAP2 SWAP1 POP JUMP JUMPDEST PUSH1 0x0 DUP1 PUSH1 0x40 DUP4 DUP6 SUB SLT ISZERO PUSH2 0x16A JUMPI PUSH1 0x0 DUP1 REVERT JUMPDEST PUSH2 0x173 DUP4 PUSH2 0x13B JUMP JUMPDEST SWAP2 POP PUSH2 0x181 PUSH1 0x20 DUP5 ADD PUSH2 0x13B JUMP JUMPDEST SWAP1 POP SWAP3 POP SWAP3 SWAP1 POP JUMP JUMPDEST PUSH2 0xC2A DUP1 PUSH2 0x199 PUSH1 0x0 CODECOPY PUSH1 0x0 RETURN INVALID PUSH1 0x80 PUSH1 0x40 MSTORE PUSH1 0x4 CALLDATASIZE LT PUSH2 0xC2 JUMPI PUSH1 0x0 CALLDATALOAD PUSH1 0xE0 SHR DUP1 PUSH4 0x4EC81AF1 GT PUSH2 0x7F JUMPI DUP1 PUSH4 0x5A76F25E GT PUSH2 0x59 JUMPI DUP1 PUSH4 0x5A76F25E EQ PUSH2 0x1FB JUMPI DUP1 PUSH4 0xA4821719 EQ PUSH2 0x211 JUMPI DUP1 PUSH4 0xCC1776D3 EQ PUSH2 0x219 JUMPI DUP1 PUSH4 0xE77772FE EQ PUSH2 0x22F JUMPI PUSH1 0x0 DUP1 REVERT JUMPDEST DUP1 PUSH4 0x4EC81AF1 EQ PUSH2 0x1AA JUMPI DUP1 PUSH4 0x4F7041A5 EQ PUSH2 0x1BD JUMPI DUP1 PUSH4 0x59BF5D39 EQ PUSH2 0x1D3 JUMPI PUSH1 0x0 DUP1 REVERT JUMPDEST DUP1 PUSH4 0xDFE1681 EQ PUSH2 0xC7 JUMPI DUP1 PUSH4 0x12185A39 EQ PUSH2 0x104 JUMPI DUP1 PUSH4 0x2397E4D7 EQ PUSH2 0x126 JUMPI DUP1 PUSH4 0x3AD10EF6 EQ PUSH2 0x154 JUMPI DUP1 PUSH4 0x436D3340 EQ PUSH2 0x174 JUMPI DUP1 PUSH4 0x443CB4BC EQ PUSH2 0x194 JUMPI JUMPDEST PUSH1 0x0 DUP1 REVERT JUMPDEST CALLVALUE DUP1 ISZERO PUSH2 0xD3 JUMPI PUSH1 0x0 DUP1 REVERT JUMPDEST POP PUSH1 0x1 SLOAD PUSH2 0xE7 SWAP1 PUSH1 0x1 PUSH1 0x1 PUSH1 0xA0 SHL SUB AND DUP2 JUMP JUMPDEST PUSH1 0x40 MLOAD PUSH1 0x1 PUSH1 0x1 PUSH1 0xA0 SHL SUB SWAP1 SWAP2 AND DUP2 MSTORE PUSH1 0x20 ADD JUMPDEST PUSH1 0x40 MLOAD DUP1 SWAP2 SUB SWAP1 RETURN JUMPDEST CALLVALUE DUP1 ISZERO PUSH2 0x110 JUMPI PUSH1 0x0 DUP1 REVERT JUMPDEST POP PUSH2 0x124 PUSH2 0x11F CALLDATASIZE PUSH1 0x4 PUSH2 0xAB9 JUMP JUMPDEST PUSH2 0x24F JUMP JUMPDEST STOP JUMPDEST CALLVALUE DUP1 ISZERO PUSH2 0x132 JUMPI PUSH1 0x0 DUP1 REVERT JUMPDEST POP PUSH2 0x146 PUSH2 0x141 CALLDATASIZE PUSH1 0x4 PUSH2 0xAB9 JUMP JUMPDEST PUSH2 0x31C JUMP JUMPDEST PUSH1 0x40 MLOAD SWAP1 DUP2 MSTORE PUSH1 0x20 ADD PUSH2 0xFB JUMP JUMPDEST CALLVALUE DUP1 ISZERO PUSH2 0x160 JUMPI PUSH1 0x0 DUP1 REVERT JUMPDEST POP PUSH1 0x7 SLOAD PUSH2 0xE7 SWAP1 PUSH1 0x1 PUSH1 0x1 PUSH1 0xA0 SHL SUB AND DUP2 JUMP JUMPDEST CALLVALUE DUP1 ISZERO PUSH2 0x180 JUMPI PUSH1 0x0 DUP1 REVERT JUMPDEST POP PUSH2 0x124 PUSH2 0x18F CALLDATASIZE PUSH1 0x4 PUSH2 0xAB9 JUMP JUMPDEST PUSH2 0x62D JUMP JUMPDEST CALLVALUE DUP1 ISZERO PUSH2 0x1A0 JUMPI PUSH1 0x0 DUP1 REVERT JUMPDEST POP PUSH2 0x146 PUSH1 0x3 SLOAD DUP2 JUMP JUMPDEST PUSH2 0x124 PUSH2 0x1B8 CALLDATASIZE PUSH1 0x4 PUSH2 0xAD2 JUMP JUMPDEST PUSH2 0x6EA JUMP JUMPDEST CALLVALUE DUP1 ISZERO PUSH2 0x1C9 JUMPI PUSH1 0x0 DUP1 REVERT JUMPDEST POP PUSH2 0x146 PUSH1 0x5 SLOAD DUP2 JUMP JUMPDEST CALLVALUE DUP1 ISZERO PUSH2 0x1DF JUMPI PUSH1 0x0 DUP1 REVERT JUMPDEST POP PUSH1 0x3 SLOAD PUSH1 0x4 SLOAD PUSH1 0x40 DUP1 MLOAD SWAP3 DUP4 MSTORE PUSH1 0x20 DUP4 ADD SWAP2 SWAP1 SWAP2 MSTORE ADD PUSH2 0xFB JUMP JUMPDEST CALLVALUE DUP1 ISZERO PUSH2 0x207 JUMPI PUSH1 0x0 DUP1 REVERT JUMPDEST POP PUSH2 0x146 PUSH1 0x4 SLOAD DUP2 JUMP JUMPDEST PUSH2 0x146 PUSH2 0x845 JUMP JUMPDEST CALLVALUE DUP1 ISZERO PUSH2 0x225 JUMPI PUSH1 0x0 DUP1 REVERT JUMPDEST POP PUSH2 0x146 PUSH1 0x6 SLOAD DUP2 JUMP JUMPDEST CALLVALUE DUP1 ISZERO PUSH2 0x23B JUMPI PUSH1 0x0 DUP1 REVERT JUMPDEST POP PUSH1 0x2 SLOAD PUSH2 0xE7 SWAP1 PUSH1 0x1 PUSH1 0x1 PUSH1 0xA0 SHL SUB AND DUP2 JUMP JUMPDEST PUSH1 0x2 SLOAD PUSH1 0x1 PUSH1 0x1 PUSH1 0xA0 SHL SUB AND CALLER EQ PUSH2 0x282 JUMPI PUSH1 0x40 MLOAD PUSH3 0x461BCD PUSH1 0xE5 SHL DUP2 MSTORE PUSH1 0x4 ADD PUSH2 0x279 SWAP1 PUSH2 0xB19 JUMP JUMPDEST PUSH1 0x40 MLOAD DUP1 SWAP2 SUB SWAP1 REVERT JUMPDEST PUSH1 0x32 DUP2 PUSH1 0x5 SLOAD PUSH2 0x292 SWAP2 SWAP1 PUSH2 0xB66 JUMP JUMPDEST GT ISZERO PUSH2 0x2E0 JUMPI PUSH1 0x40 MLOAD PUSH3 0x461BCD PUSH1 0xE5 SHL DUP2 MSTORE PUSH1 0x20 PUSH1 0x4 DUP3 ADD MSTORE PUSH1 0x1A PUSH1 0x24 DUP3 ADD MSTORE PUSH32 0x546F74616C207461782063616E6E6F7420657863656564203525000000000000 PUSH1 0x44 DUP3 ADD MSTORE PUSH1 0x64 ADD PUSH2 0x279 JUMP JUMPDEST PUSH1 0x6 DUP2 SWAP1 SSTORE PUSH1 0x40 MLOAD DUP2 DUP2 MSTORE PUSH32 0xA6255338A5F732D64CEBA7F4C18182567F9D1067EB984B46D478B37D72A52D11 SWAP1 PUSH1 0x20 ADD JUMPDEST PUSH1 0x40 MLOAD DUP1 SWAP2 SUB SWAP1 LOG1 POP JUMP JUMPDEST PUSH1 0x0 PUSH2 0x326 PUSH2 0xA8F JUMP JUMPDEST PUSH1 0x0 DUP3 GT PUSH2 0x36E JUMPI PUSH1 0x40 MLOAD PUSH3 0x461BCD PUSH1 0xE5 SHL DUP2 MSTORE PUSH1 0x20 PUSH1 0x4 DUP3 ADD MSTORE PUSH1 0x15 PUSH1 0x24 DUP3 ADD MSTORE PUSH21 0x4D7573742073656C6C20736F6D6520746F6B656E73 PUSH1 0x58 SHL PUSH1 0x44 DUP3 ADD MSTORE PUSH1 0x64 ADD PUSH2 0x279 JUMP JUMPDEST PUSH1 0x0 PUSH2 0x3E8 PUSH1 0x6 SLOAD DUP5 PUSH2 0x381 SWAP2 SWAP1 PUSH2 0xB7F JUMP JUMPDEST PUSH2 0x38B SWAP2 SWAP1 PUSH2 0xB96 JUMP JUMPDEST SWAP1 POP PUSH1 0x0 PUSH2 0x399 DUP3 DUP6 PUSH2 0xBB8 JUMP JUMPDEST SWAP1 POP PUSH1 0x0 DUP2 PUSH1 0x3 SLOAD PUSH2 0x3AB SWAP2 SWAP1 PUSH2 0xB66 JUMP JUMPDEST SWAP1 POP DUP1 PUSH1 0x4 SLOAD PUSH1 0x3 SLOAD PUSH2 0x3BE SWAP2 SWAP1 PUSH2 0xB7F JUMP JUMPDEST PUSH2 0x3C8 SWAP2 SWAP1 PUSH2 0xB96 JUMP JUMPDEST PUSH1 0x4 SLOAD PUSH2 0x3D5 SWAP2 SWAP1 PUSH2 0xBB8 JUMP JUMPDEST SWAP4 POP PUSH1 0x0 PUSH2 0x3E8 PUSH1 0x6 SLOAD DUP7 PUSH2 0x3EA SWAP2 SWAP1 PUSH2 0xB7F JUMP JUMPDEST PUSH2 0x3F4 SWAP2 SWAP1 PUSH2 0xB96 JUMP JUMPDEST SWAP1 POP PUSH2 0x400 DUP2 DUP7 PUSH2 0xBB8 JUMP JUMPDEST PUSH1 0x7 SLOAD PUSH1 0x40 MLOAD SWAP2 SWAP7 POP PUSH1 0x0 SWAP2 PUSH1 0x1 PUSH1 0x1 PUSH1 0xA0 SHL SUB SWAP1 SWAP2 AND SWAP1 DUP4 SWAP1 DUP4 DUP2 DUP2 DUP2 DUP6 DUP8 GAS CALL SWAP3 POP POP POP RETURNDATASIZE DUP1 PUSH1 0x0 DUP2 EQ PUSH2 0x452 JUMPI PUSH1 0x40 MLOAD SWAP2 POP PUSH1 0x1F NOT PUSH1 0x3F RETURNDATASIZE ADD AND DUP3 ADD PUSH1 0x40 MSTORE RETURNDATASIZE DUP3 MSTORE RETURNDATASIZE PUSH1 0x0 PUSH1 0x20 DUP5 ADD RETURNDATACOPY PUSH2 0x457 JUMP JUMPDEST PUSH1 0x60 SWAP2 POP JUMPDEST POP POP SWAP1 POP DUP1 PUSH2 0x4A8 JUMPI PUSH1 0x40 MLOAD PUSH3 0x461BCD PUSH1 0xE5 SHL DUP2 MSTORE PUSH1 0x20 PUSH1 0x4 DUP3 ADD MSTORE PUSH1 0x17 PUSH1 0x24 DUP3 ADD MSTORE PUSH32 0x4661696C656420746F2073656E642073656C6C20746178000000000000000000 PUSH1 0x44 DUP3 ADD MSTORE PUSH1 0x64 ADD PUSH2 0x279 JUMP JUMPDEST DUP3 PUSH1 0x3 DUP2 SWAP1 SSTORE POP DUP6 PUSH1 0x4 PUSH1 0x0 DUP3 DUP3 SLOAD PUSH2 0x4C1 SWAP2 SWAP1 PUSH2 0xBB8 JUMP JUMPDEST SWAP1 SWAP2 SSTORE POP POP PUSH1 0x1 SLOAD PUSH1 0x40 MLOAD PUSH4 0x23B872DD PUSH1 0xE0 SHL DUP2 MSTORE CALLER PUSH1 0x4 DUP3 ADD MSTORE ADDRESS PUSH1 0x24 DUP3 ADD MSTORE PUSH1 0x44 DUP2 ADD DUP10 SWAP1 MSTORE PUSH1 0x1 PUSH1 0x1 PUSH1 0xA0 SHL SUB SWAP1 SWAP2 AND SWAP1 PUSH4 0x23B872DD SWAP1 PUSH1 0x64 ADD PUSH1 0x20 PUSH1 0x40 MLOAD DUP1 DUP4 SUB DUP2 PUSH1 0x0 DUP8 GAS CALL ISZERO DUP1 ISZERO PUSH2 0x51D JUMPI RETURNDATASIZE PUSH1 0x0 DUP1 RETURNDATACOPY RETURNDATASIZE PUSH1 0x0 REVERT JUMPDEST POP POP POP POP PUSH1 0x40 MLOAD RETURNDATASIZE PUSH1 0x1F NOT PUSH1 0x1F DUP3 ADD AND DUP3 ADD DUP1 PUSH1 0x40 MSTORE POP DUP2 ADD SWAP1 PUSH2 0x541 SWAP2 SWAP1 PUSH2 0xBCB JUMP JUMPDEST POP PUSH1 0x40 MLOAD PUSH1 0x0 SWAP1 CALLER SWAP1 DUP9 SWAP1 DUP4 DUP2 DUP2 DUP2 DUP6 DUP8 GAS CALL SWAP3 POP POP POP RETURNDATASIZE DUP1 PUSH1 0x0 DUP2 EQ PUSH2 0x584 JUMPI PUSH1 0x40 MLOAD SWAP2 POP PUSH1 0x1F NOT PUSH1 0x3F RETURNDATASIZE ADD AND DUP3 ADD PUSH1 0x40 MSTORE RETURNDATASIZE DUP3 MSTORE RETURNDATASIZE PUSH1 0x0 PUSH1 0x20 DUP5 ADD RETURNDATACOPY PUSH2 0x589 JUMP JUMPDEST PUSH1 0x60 SWAP2 POP JUMPDEST POP POP SWAP1 POP DUP1 PUSH2 0x5D1 JUMPI PUSH1 0x40 MLOAD PUSH3 0x461BCD PUSH1 0xE5 SHL DUP2 MSTORE PUSH1 0x20 PUSH1 0x4 DUP3 ADD MSTORE PUSH1 0x14 PUSH1 0x24 DUP3 ADD MSTORE PUSH20 0x2330B4B632B2103A379039B2B7321032BA3432B9 PUSH1 0x61 SHL PUSH1 0x44 DUP3 ADD MSTORE PUSH1 0x64 ADD PUSH2 0x279 JUMP JUMPDEST PUSH1 0x6 SLOAD PUSH1 0x40 DUP1 MLOAD DUP11 DUP2 MSTORE PUSH1 0x20 DUP2 ADD DUP11 SWAP1 MSTORE SWAP1 DUP2 ADD SWAP2 SWAP1 SWAP2 MSTORE CALLER SWAP1 PUSH32 0x6DB63BEBF1E6540277744DF32846EBDB98385B1A73F2D5DE49B28348ADD63F50 SWAP1 PUSH1 0x60 ADD PUSH1 0x40 MLOAD DUP1 SWAP2 SUB SWAP1 LOG2 POP POP POP POP POP POP PUSH2 0x628 PUSH1 0x1 PUSH1 0x0 SSTORE JUMP JUMPDEST SWAP2 SWAP1 POP JUMP JUMPDEST PUSH1 0x2 SLOAD PUSH1 0x1 PUSH1 0x1 PUSH1 0xA0 SHL SUB AND CALLER EQ PUSH2 0x657 JUMPI PUSH1 0x40 MLOAD PUSH3 0x461BCD PUSH1 0xE5 SHL DUP2 MSTORE PUSH1 0x4 ADD PUSH2 0x279 SWAP1 PUSH2 0xB19 JUMP JUMPDEST PUSH1 0x32 PUSH1 0x6 SLOAD DUP3 PUSH2 0x667 SWAP2 SWAP1 PUSH2 0xB66 JUMP JUMPDEST GT ISZERO PUSH2 0x6B5 JUMPI PUSH1 0x40 MLOAD PUSH3 0x461BCD PUSH1 0xE5 SHL DUP2 MSTORE PUSH1 0x20 PUSH1 0x4 DUP3 ADD MSTORE PUSH1 0x1A PUSH1 0x24 DUP3 ADD MSTORE PUSH32 0x546F74616C207461782063616E6E6F7420657863656564203525000000000000 PUSH1 0x44 DUP3 ADD MSTORE PUSH1 0x64 ADD PUSH2 0x279 JUMP JUMPDEST PUSH1 0x5 DUP2 SWAP1 SSTORE PUSH1 0x40 MLOAD DUP2 DUP2 MSTORE PUSH32 0x7A758DC8E99047B028278B3E2FF1416D8493A7AACEE7A5DC30B6BF93270ECCCE SWAP1 PUSH1 0x20 ADD PUSH2 0x311 JUMP JUMPDEST PUSH1 0x2 SLOAD PUSH1 0x1 PUSH1 0x1 PUSH1 0xA0 SHL SUB AND CALLER EQ PUSH2 0x714 JUMPI PUSH1 0x40 MLOAD PUSH3 0x461BCD PUSH1 0xE5 SHL DUP2 MSTORE PUSH1 0x4 ADD PUSH2 0x279 SWAP1 PUSH2 0xB19 JUMP JUMPDEST PUSH1 0x1 SLOAD PUSH1 0x1 PUSH1 0x1 PUSH1 0xA0 SHL SUB AND ISZERO PUSH2 0x76D JUMPI PUSH1 0x40 MLOAD PUSH3 0x461BCD PUSH1 0xE5 SHL DUP2 MSTORE PUSH1 0x20 PUSH1 0x4 DUP3 ADD MSTORE PUSH1 0x18 PUSH1 0x24 DUP3 ADD MSTORE PUSH32 0x506F6F6C20616C726561647920696E697469616C697A65640000000000000000 PUSH1 0x44 DUP3 ADD MSTORE PUSH1 0x64 ADD PUSH2 0x279 JUMP JUMPDEST PUSH1 0x0 CALLVALUE GT PUSH2 0x7D5 JUMPI PUSH1 0x40 MLOAD PUSH3 0x461BCD PUSH1 0xE5 SHL DUP2 MSTORE PUSH1 0x20 PUSH1 0x4 DUP3 ADD MSTORE PUSH1 0x2F PUSH1 0x24 DUP3 ADD MSTORE PUSH32 0x496E697469616C2065746865722072657365727665206D757374206265206772 PUSH1 0x44 DUP3 ADD MSTORE PUSH15 0x6561746572207468616E207A65726F PUSH1 0x88 SHL PUSH1 0x64 DUP3 ADD MSTORE PUSH1 0x84 ADD PUSH2 0x279 JUMP JUMPDEST PUSH1 0x1 DUP1 SLOAD PUSH1 0x1 PUSH1 0x1 PUSH1 0xA0 SHL SUB NOT AND PUSH1 0x1 PUSH1 0x1 PUSH1 0xA0 SHL SUB DUP7 AND OR SWAP1 SSTORE PUSH1 0x3 DUP4 SWAP1 SSTORE CALLVALUE PUSH1 0x4 DUP2 SWAP1 SSTORE PUSH1 0x5 DUP4 SWAP1 SSTORE PUSH1 0x6 DUP3 SWAP1 SSTORE PUSH1 0x40 DUP1 MLOAD DUP6 DUP2 MSTORE PUSH1 0x20 DUP2 ADD SWAP3 SWAP1 SWAP3 MSTORE PUSH32 0x38F8A0C92F4C5B0B6877F878CB4C0C8D348A47B76D716C8E78F425043DF9515B SWAP2 ADD PUSH1 0x40 MLOAD DUP1 SWAP2 SUB SWAP1 LOG1 POP POP POP POP JUMP JUMPDEST PUSH1 0x0 PUSH2 0x84F PUSH2 0xA8F JUMP JUMPDEST PUSH1 0x0 CALLVALUE GT PUSH2 0x89F JUMPI PUSH1 0x40 MLOAD PUSH3 0x461BCD PUSH1 0xE5 SHL DUP2 MSTORE PUSH1 0x20 PUSH1 0x4 DUP3 ADD MSTORE PUSH1 0x1D PUSH1 0x24 DUP3 ADD MSTORE PUSH32 0x4D7573742073656E6420657468657220746F2062757920746F6B656E73000000 PUSH1 0x44 DUP3 ADD MSTORE PUSH1 0x64 ADD PUSH2 0x279 JUMP JUMPDEST PUSH1 0x0 PUSH2 0x3E8 PUSH1 0x5 SLOAD CALLVALUE PUSH2 0x8B2 SWAP2 SWAP1 PUSH2 0xB7F JUMP JUMPDEST PUSH2 0x8BC SWAP2 SWAP1 PUSH2 0xB96 JUMP JUMPDEST SWAP1 POP PUSH1 0x0 PUSH2 0x8CA DUP3 CALLVALUE PUSH2 0xBB8 JUMP JUMPDEST PUSH1 0x7 SLOAD PUSH1 0x40 MLOAD SWAP2 SWAP3 POP PUSH1 0x0 SWAP2 PUSH1 0x1 PUSH1 0x1 PUSH1 0xA0 SHL SUB SWAP1 SWAP2 AND SWAP1 DUP5 SWAP1 DUP4 DUP2 DUP2 DUP2 DUP6 DUP8 GAS CALL SWAP3 POP POP POP RETURNDATASIZE DUP1 PUSH1 0x0 DUP2 EQ PUSH2 0x91C JUMPI PUSH1 0x40 MLOAD SWAP2 POP PUSH1 0x1F NOT PUSH1 0x3F RETURNDATASIZE ADD AND DUP3 ADD PUSH1 0x40 MSTORE RETURNDATASIZE DUP3 MSTORE RETURNDATASIZE PUSH1 0x0 PUSH1 0x20 DUP5 ADD RETURNDATACOPY PUSH2 0x921 JUMP JUMPDEST PUSH1 0x60 SWAP2 POP JUMPDEST POP POP SWAP1 POP DUP1 PUSH2 0x96B JUMPI PUSH1 0x40 MLOAD PUSH3 0x461BCD PUSH1 0xE5 SHL DUP2 MSTORE PUSH1 0x20 PUSH1 0x4 DUP3 ADD MSTORE PUSH1 0x16 PUSH1 0x24 DUP3 ADD MSTORE PUSH22 0x8CC2D2D8CAC840E8DE40E6CADCC840C4EAF240E8C2F PUSH1 0x53 SHL PUSH1 0x44 DUP3 ADD MSTORE PUSH1 0x64 ADD PUSH2 0x279 JUMP JUMPDEST PUSH1 0x0 DUP3 PUSH1 0x4 SLOAD PUSH2 0x97B SWAP2 SWAP1 PUSH2 0xB66 JUMP JUMPDEST SWAP1 POP DUP1 PUSH1 0x4 SLOAD PUSH1 0x3 SLOAD PUSH2 0x98E SWAP2 SWAP1 PUSH2 0xB7F JUMP JUMPDEST PUSH2 0x998 SWAP2 SWAP1 PUSH2 0xB96 JUMP JUMPDEST PUSH1 0x3 SLOAD PUSH2 0x9A5 SWAP2 SWAP1 PUSH2 0xBB8 JUMP JUMPDEST SWAP5 POP DUP1 PUSH1 0x4 DUP2 SWAP1 SSTORE POP DUP5 PUSH1 0x3 PUSH1 0x0 DUP3 DUP3 SLOAD PUSH2 0x9C0 SWAP2 SWAP1 PUSH2 0xBB8 JUMP JUMPDEST SWAP1 SWAP2 SSTORE POP POP PUSH1 0x1 SLOAD PUSH1 0x40 MLOAD PUSH4 0xA9059CBB PUSH1 0xE0 SHL DUP2 MSTORE CALLER PUSH1 0x4 DUP3 ADD MSTORE PUSH1 0x24 DUP2 ADD DUP8 SWAP1 MSTORE PUSH1 0x1 PUSH1 0x1 PUSH1 0xA0 SHL SUB SWAP1 SWAP2 AND SWAP1 PUSH4 0xA9059CBB SWAP1 PUSH1 0x44 ADD PUSH1 0x20 PUSH1 0x40 MLOAD DUP1 DUP4 SUB DUP2 PUSH1 0x0 DUP8 GAS CALL ISZERO DUP1 ISZERO PUSH2 0xA16 JUMPI RETURNDATASIZE PUSH1 0x0 DUP1 RETURNDATACOPY RETURNDATASIZE PUSH1 0x0 REVERT JUMPDEST POP POP POP POP PUSH1 0x40 MLOAD RETURNDATASIZE PUSH1 0x1F NOT PUSH1 0x1F DUP3 ADD AND DUP3 ADD DUP1 PUSH1 0x40 MSTORE POP DUP2 ADD SWAP1 PUSH2 0xA3A SWAP2 SWAP1 PUSH2 0xBCB JUMP JUMPDEST POP PUSH1 0x40 DUP1 MLOAD CALLVALUE DUP2 MSTORE PUSH1 0x20 DUP2 ADD DUP8 SWAP1 MSTORE SWAP1 DUP2 ADD DUP6 SWAP1 MSTORE CALLER SWAP1 PUSH32 0xD1A0D5E3D583A0E92588799DD06E50FD78C07DAF05F0CC06D7B848B1CA445F1 SWAP1 PUSH1 0x60 ADD PUSH1 0x40 MLOAD DUP1 SWAP2 SUB SWAP1 LOG2 POP POP POP POP PUSH2 0xA8C PUSH1 0x1 PUSH1 0x0 SSTORE JUMP JUMPDEST SWAP1 JUMP JUMPDEST PUSH1 0x2 PUSH1 0x0 SLOAD SUB PUSH2 0xAB2 JUMPI PUSH1 0x40 MLOAD PUSH4 0x3EE5AEB5 PUSH1 0xE0 SHL DUP2 MSTORE PUSH1 0x4 ADD PUSH1 0x40 MLOAD DUP1 SWAP2 SUB SWAP1 REVERT JUMPDEST PUSH1 0x2 PUSH1 0x0 SSTORE JUMP JUMPDEST PUSH1 0x0 PUSH1 0x20 DUP3 DUP5 SUB SLT ISZERO PUSH2 0xACB JUMPI PUSH1 0x0 DUP1 REVERT JUMPDEST POP CALLDATALOAD SWAP2 SWAP1 POP JUMP JUMPDEST PUSH1 0x0 DUP1 PUSH1 0x0 DUP1 PUSH1 0x80 DUP6 DUP8 SUB SLT ISZERO PUSH2 0xAE8 JUMPI PUSH1 0x0 DUP1 REVERT JUMPDEST DUP5 CALLDATALOAD PUSH1 0x1 PUSH1 0x1 PUSH1 0xA0 SHL SUB DUP2 AND DUP2 EQ PUSH2 0xAFF JUMPI PUSH1 0x0 DUP1 REVERT JUMPDEST SWAP7 PUSH1 0x20 DUP7 ADD CALLDATALOAD SWAP7 POP PUSH1 0x40 DUP7 ADD CALLDATALOAD SWAP6 PUSH1 0x60 ADD CALLDATALOAD SWAP5 POP SWAP3 POP POP POP JUMP JUMPDEST PUSH1 0x20 DUP1 DUP3 MSTORE PUSH1 0x1E SWAP1 DUP3 ADD MSTORE PUSH32 0x43616C6C6572206973206E6F742074686520546F6B656E466163746F72790000 PUSH1 0x40 DUP3 ADD MSTORE PUSH1 0x60 ADD SWAP1 JUMP JUMPDEST PUSH4 0x4E487B71 PUSH1 0xE0 SHL PUSH1 0x0 MSTORE PUSH1 0x11 PUSH1 0x4 MSTORE PUSH1 0x24 PUSH1 0x0 REVERT JUMPDEST DUP1 DUP3 ADD DUP1 DUP3 GT ISZERO PUSH2 0xB79 JUMPI PUSH2 0xB79 PUSH2 0xB50 JUMP JUMPDEST SWAP3 SWAP2 POP POP JUMP JUMPDEST DUP1 DUP3 MUL DUP2 ISZERO DUP3 DUP3 DIV DUP5 EQ OR PUSH2 0xB79 JUMPI PUSH2 0xB79 PUSH2 0xB50 JUMP JUMPDEST PUSH1 0x0 DUP3 PUSH2 0xBB3 JUMPI PUSH4 0x4E487B71 PUSH1 0xE0 SHL PUSH1 0x0 MSTORE PUSH1 0x12 PUSH1 0x4 MSTORE PUSH1 0x24 PUSH1 0x0 REVERT JUMPDEST POP DIV SWAP1 JUMP JUMPDEST DUP2 DUP2 SUB DUP2 DUP2 GT ISZERO PUSH2 0xB79 JUMPI PUSH2 0xB79 PUSH2 0xB50 JUMP JUMPDEST PUSH1 0x0 PUSH1 0x20 DUP3 DUP5 SUB SLT ISZERO PUSH2 0xBDD JUMPI PUSH1 0x0 DUP1 REVERT JUMPDEST DUP2 MLOAD DUP1 ISZERO ISZERO DUP2 EQ PUSH2 0xBED JUMPI PUSH1 0x0 DUP1 REVERT JUMPDEST SWAP4 SWAP3 POP POP POP JUMP INVALID LOG2 PUSH5 0x6970667358 0x22 SLT KECCAK256 RETURN CREATE 0xC3 0x24 EXTCODEHASH 0x26 0x4C 0xD7 PUSH11 0x36C95CB81AC5028A8F0D6C 0xF 0x1F 0xC5 0xCC DUP12 0xB4 0xC5 0xB5 PUSH23 0x66A55164736F6C634300081A0033000000000000000000 "
				},
				"gasEstimates": {
					"creation": {
						"codeDepositCost": "622800",
						"executionCost": "infinite",
						"totalCost": "infinite"
					},
					"external": {
						"buyTax()": "2340",
						"buyToken()": "infinite",
						"devAddress()": "2393",
						"getReserve()": "4474",
						"initialize(address,uint256,uint256,uint256)": "118658",
						"reserve0()": "2406",
						"reserve1()": "2317",
						"sellTax()": "2361",
						"sellToken(uint256)": "infinite",
						"token0()": "2327",
						"tokenFactory()": "2414",
						"updateBuyTax(uint256)": "27834",
						"updateSellTax(uint256)": "27757"
					}
				},
				"methodIdentifiers": {
					"buyTax()": "4f7041a5",
					"buyToken()": "a4821719",
					"devAddress()": "3ad10ef6",
					"getReserve()": "59bf5d39",
					"initialize(address,uint256,uint256,uint256)": "4ec81af1",
					"reserve0()": "443cb4bc",
					"reserve1()": "5a76f25e",
					"sellTax()": "cc1776d3",
					"sellToken(uint256)": "2397e4d7",
					"token0()": "0dfe1681",
					"tokenFactory()": "e77772fe",
					"updateBuyTax(uint256)": "436d3340",
					"updateSellTax(uint256)": "12185a39"
				}
			},
			"storageLayout": {
				"storage": [
					{
						"astId": 88,
						"contract": "contracts/token factory/LiquidityPool.sol:LiquidityPool",
						"label": "_status",
						"offset": 0,
						"slot": "0",
						"type": "t_uint256"
					},
					{
						"astId": 154,
						"contract": "contracts/token factory/LiquidityPool.sol:LiquidityPool",
						"label": "token0",
						"offset": 0,
						"slot": "1",
						"type": "t_address"
					},
					{
						"astId": 156,
						"contract": "contracts/token factory/LiquidityPool.sol:LiquidityPool",
						"label": "tokenFactory",
						"offset": 0,
						"slot": "2",
						"type": "t_address"
					},
					{
						"astId": 158,
						"contract": "contracts/token factory/LiquidityPool.sol:LiquidityPool",
						"label": "reserve0",
						"offset": 0,
						"slot": "3",
						"type": "t_uint256"
					},
					{
						"astId": 160,
						"contract": "contracts/token factory/LiquidityPool.sol:LiquidityPool",
						"label": "reserve1",
						"offset": 0,
						"slot": "4",
						"type": "t_uint256"
					},
					{
						"astId": 162,
						"contract": "contracts/token factory/LiquidityPool.sol:LiquidityPool",
						"label": "buyTax",
						"offset": 0,
						"slot": "5",
						"type": "t_uint256"
					},
					{
						"astId": 164,
						"contract": "contracts/token factory/LiquidityPool.sol:LiquidityPool",
						"label": "sellTax",
						"offset": 0,
						"slot": "6",
						"type": "t_uint256"
					},
					{
						"astId": 166,
						"contract": "contracts/token factory/LiquidityPool.sol:LiquidityPool",
						"label": "devAddress",
						"offset": 0,
						"slot": "7",
						"type": "t_address"
					}
				],
				"types": {
					"t_address": {
						"encoding": "inplace",
						"label": "address",
						"numberOfBytes": "20"
					},
					"t_uint256": {
						"encoding": "inplace",
						"label": "uint256",
						"numberOfBytes": "32"
					}
				}
			},
			"userdoc": {
				"kind": "user",
				"methods": {},
				"version": 1
			}
		}
	}
}