{
	"contracts/token factory/LiquidityPool.sol": {
		"LiquidityPool": {
			"abi": [
				{
					"inputs": [
						{
							"internalType": "address",
							"name": "_devAddress",
							"type": "address"
						},
						{
							"internalType": "address",
							"name": "_tokenFactory",
							"type": "address"
						},
						{
							"internalType": "uint256",
							"name": "_initialMigrationThreshold",
							"type": "uint256"
						}
					],
					"stateMutability": "nonpayable",
					"type": "constructor"
				},
				{
					"inputs": [],
					"name": "ReentrancyGuardReentrantCall",
					"type": "error"
				},
				{
					"anonymous": false,
					"inputs": [
						{
							"indexed": true,
							"internalType": "address",
							"name": "newInitializer",
							"type": "address"
						}
					],
					"name": "AlgebraPoolInitializerUpdated",
					"type": "event"
				},
				{
					"anonymous": false,
					"inputs": [
						{
							"indexed": false,
							"internalType": "bool",
							"name": "enabled",
							"type": "bool"
						}
					],
					"name": "AutoMigrationToggled",
					"type": "event"
				},
				{
					"anonymous": false,
					"inputs": [
						{
							"indexed": true,
							"internalType": "address",
							"name": "provider",
							"type": "address"
						},
						{
							"indexed": false,
							"internalType": "uint256",
							"name": "tokenAmount",
							"type": "uint256"
						}
					],
					"name": "LiquidityAdded",
					"type": "event"
				},
				{
					"anonymous": false,
					"inputs": [
						{
							"indexed": false,
							"internalType": "uint256",
							"name": "newThreshold",
							"type": "uint256"
						}
					],
					"name": "MigrationThresholdUpdated",
					"type": "event"
				},
				{
					"anonymous": false,
					"inputs": [
						{
							"indexed": true,
							"internalType": "address",
							"name": "newPoolAddress",
							"type": "address"
						},
						{
							"indexed": false,
							"internalType": "uint256",
							"name": "tokenTransferred",
							"type": "uint256"
						},
						{
							"indexed": false,
							"internalType": "uint256",
							"name": "etherTransferred",
							"type": "uint256"
						}
					],
					"name": "MigrationToAlgebra",
					"type": "event"
				},
				{
					"anonymous": false,
					"inputs": [
						{
							"indexed": false,
							"internalType": "string",
							"name": "step",
							"type": "string"
						},
						{
							"indexed": true,
							"internalType": "address",
							"name": "dataAddress",
							"type": "address"
						},
						{
							"indexed": true,
							"internalType": "uint256",
							"name": "value",
							"type": "uint256"
						}
					],
					"name": "Step",
					"type": "event"
				},
				{
					"anonymous": false,
					"inputs": [
						{
							"indexed": false,
							"internalType": "uint256",
							"name": "newBuyTax",
							"type": "uint256"
						},
						{
							"indexed": false,
							"internalType": "uint256",
							"name": "newSellTax",
							"type": "uint256"
						}
					],
					"name": "TaxUpdated",
					"type": "event"
				},
				{
					"anonymous": false,
					"inputs": [
						{
							"indexed": true,
							"internalType": "address",
							"name": "buyer",
							"type": "address"
						},
						{
							"indexed": false,
							"internalType": "uint256",
							"name": "amountIn",
							"type": "uint256"
						},
						{
							"indexed": false,
							"internalType": "uint256",
							"name": "amountOut",
							"type": "uint256"
						},
						{
							"indexed": false,
							"internalType": "uint256",
							"name": "tax",
							"type": "uint256"
						}
					],
					"name": "TokensPurchased",
					"type": "event"
				},
				{
					"anonymous": false,
					"inputs": [
						{
							"indexed": true,
							"internalType": "address",
							"name": "seller",
							"type": "address"
						},
						{
							"indexed": false,
							"internalType": "uint256",
							"name": "amountIn",
							"type": "uint256"
						},
						{
							"indexed": false,
							"internalType": "uint256",
							"name": "amountOut",
							"type": "uint256"
						},
						{
							"indexed": false,
							"internalType": "uint256",
							"name": "tax",
							"type": "uint256"
						}
					],
					"name": "TokensSold",
					"type": "event"
				},
				{
					"inputs": [],
					"name": "X_DELTA_LOWER",
					"outputs": [
						{
							"internalType": "uint256",
							"name": "",
							"type": "uint256"
						}
					],
					"stateMutability": "view",
					"type": "function"
				},
				{
					"inputs": [],
					"name": "X_DELTA_UPPER",
					"outputs": [
						{
							"internalType": "uint256",
							"name": "",
							"type": "uint256"
						}
					],
					"stateMutability": "view",
					"type": "function"
				},
				{
					"inputs": [],
					"name": "Y_DELTA_LOWER",
					"outputs": [
						{
							"internalType": "uint256",
							"name": "",
							"type": "uint256"
						}
					],
					"stateMutability": "view",
					"type": "function"
				},
				{
					"inputs": [],
					"name": "Y_DELTA_UPPER",
					"outputs": [
						{
							"internalType": "uint256",
							"name": "",
							"type": "uint256"
						}
					],
					"stateMutability": "view",
					"type": "function"
				},
				{
					"inputs": [],
					"name": "algebraPoolInitializer",
					"outputs": [
						{
							"internalType": "address",
							"name": "",
							"type": "address"
						}
					],
					"stateMutability": "view",
					"type": "function"
				},
				{
					"inputs": [],
					"name": "autoMigrationEnabled",
					"outputs": [
						{
							"internalType": "bool",
							"name": "",
							"type": "bool"
						}
					],
					"stateMutability": "view",
					"type": "function"
				},
				{
					"inputs": [],
					"name": "buyTax",
					"outputs": [
						{
							"internalType": "uint256",
							"name": "",
							"type": "uint256"
						}
					],
					"stateMutability": "view",
					"type": "function"
				},
				{
					"inputs": [],
					"name": "buyToken",
					"outputs": [
						{
							"internalType": "uint256",
							"name": "amountOut",
							"type": "uint256"
						}
					],
					"stateMutability": "payable",
					"type": "function"
				},
				{
					"inputs": [
						{
							"internalType": "uint256",
							"name": "amount0",
							"type": "uint256"
						},
						{
							"internalType": "uint256",
							"name": "amount1",
							"type": "uint256"
						}
					],
					"name": "calculateSqrtPriceX96",
					"outputs": [
						{
							"internalType": "uint160",
							"name": "",
							"type": "uint160"
						}
					],
					"stateMutability": "pure",
					"type": "function"
				},
				{
					"inputs": [],
					"name": "devAddress",
					"outputs": [
						{
							"internalType": "address",
							"name": "",
							"type": "address"
						}
					],
					"stateMutability": "view",
					"type": "function"
				},
				{
					"inputs": [],
					"name": "forceMigration",
					"outputs": [],
					"stateMutability": "nonpayable",
					"type": "function"
				},
				{
					"inputs": [],
					"name": "getReserves",
					"outputs": [
						{
							"internalType": "uint256",
							"name": "",
							"type": "uint256"
						},
						{
							"internalType": "uint256",
							"name": "",
							"type": "uint256"
						}
					],
					"stateMutability": "view",
					"type": "function"
				},
				{
					"inputs": [
						{
							"internalType": "address",
							"name": "_token0",
							"type": "address"
						},
						{
							"internalType": "uint256",
							"name": "_initialTokenReserve",
							"type": "uint256"
						},
						{
							"internalType": "uint256",
							"name": "_buyTax",
							"type": "uint256"
						},
						{
							"internalType": "uint256",
							"name": "_sellTax",
							"type": "uint256"
						},
						{
							"internalType": "address",
							"name": "_algebraPoolInitializer",
							"type": "address"
						},
						{
							"internalType": "bool",
							"name": "_automigration",
							"type": "bool"
						}
					],
					"name": "initialize",
					"outputs": [],
					"stateMutability": "payable",
					"type": "function"
				},
				{
					"inputs": [],
					"name": "migratedToAlgebra",
					"outputs": [
						{
							"internalType": "bool",
							"name": "",
							"type": "bool"
						}
					],
					"stateMutability": "view",
					"type": "function"
				},
				{
					"inputs": [],
					"name": "migrationThreshold",
					"outputs": [
						{
							"internalType": "uint256",
							"name": "",
							"type": "uint256"
						}
					],
					"stateMutability": "view",
					"type": "function"
				},
				{
					"inputs": [],
					"name": "reserve0",
					"outputs": [
						{
							"internalType": "uint256",
							"name": "",
							"type": "uint256"
						}
					],
					"stateMutability": "view",
					"type": "function"
				},
				{
					"inputs": [],
					"name": "reserve1",
					"outputs": [
						{
							"internalType": "uint256",
							"name": "",
							"type": "uint256"
						}
					],
					"stateMutability": "view",
					"type": "function"
				},
				{
					"inputs": [],
					"name": "sellTax",
					"outputs": [
						{
							"internalType": "uint256",
							"name": "",
							"type": "uint256"
						}
					],
					"stateMutability": "view",
					"type": "function"
				},
				{
					"inputs": [
						{
							"internalType": "uint256",
							"name": "amountIn",
							"type": "uint256"
						}
					],
					"name": "sellToken",
					"outputs": [
						{
							"internalType": "uint256",
							"name": "amountOut",
							"type": "uint256"
						}
					],
					"stateMutability": "nonpayable",
					"type": "function"
				},
				{
					"inputs": [
						{
							"internalType": "address",
							"name": "_initializer",
							"type": "address"
						}
					],
					"name": "setAlgebraPoolInitializer",
					"outputs": [],
					"stateMutability": "nonpayable",
					"type": "function"
				},
				{
					"inputs": [
						{
							"internalType": "bool",
							"name": "enable",
							"type": "bool"
						}
					],
					"name": "toggleAutoMigration",
					"outputs": [],
					"stateMutability": "nonpayable",
					"type": "function"
				},
				{
					"inputs": [],
					"name": "token0",
					"outputs": [
						{
							"internalType": "address",
							"name": "",
							"type": "address"
						}
					],
					"stateMutability": "view",
					"type": "function"
				},
				{
					"inputs": [],
					"name": "tokenFactory",
					"outputs": [
						{
							"internalType": "address",
							"name": "",
							"type": "address"
						}
					],
					"stateMutability": "view",
					"type": "function"
				},
				{
					"inputs": [
						{
							"internalType": "uint256",
							"name": "newBuyTax",
							"type": "uint256"
						}
					],
					"name": "updateBuyTax",
					"outputs": [],
					"stateMutability": "nonpayable",
					"type": "function"
				},
				{
					"inputs": [
						{
							"internalType": "uint256",
							"name": "newThreshold",
							"type": "uint256"
						}
					],
					"name": "updateMigrationThreshold",
					"outputs": [],
					"stateMutability": "nonpayable",
					"type": "function"
				},
				{
					"inputs": [
						{
							"internalType": "uint256",
							"name": "newSellTax",
							"type": "uint256"
						}
					],
					"name": "updateSellTax",
					"outputs": [],
					"stateMutability": "nonpayable",
					"type": "function"
				}
			],
			"devdoc": {
				"errors": {
					"ReentrancyGuardReentrantCall()": [
						{
							"details": "Unauthorized reentrant call."
						}
					]
				},
				"kind": "dev",
				"methods": {},
				"version": 1
			},
			"evm": {
				"assembly": "    /* \"contracts/token factory/LiquidityPool.sol\":176:9626  contract LiquidityPool is ReentrancyGuard {... */\n  mstore(0x40, 0x80)\n    /* \"contracts/token factory/LiquidityPool.sol\":1046:1085  bool public autoMigrationEnabled = true */\n  0x09\n  dup1\n  sload\n  not(0xff00)\n  and\n  0x0100\n  or\n  swap1\n  sstore\n    /* \"contracts/token factory/LiquidityPool.sol\":2032:2486  constructor(address _devAddress, address _tokenFactory, uint256 _initialMigrationThreshold) {... */\n  callvalue\n  dup1\n  iszero\n  tag_1\n  jumpi\n  0x00\n  dup1\n  revert\ntag_1:\n  pop\n  mload(0x40)\n  sub(codesize, bytecodeSize)\n  dup1\n  bytecodeSize\n  dup4\n  codecopy\n  dup2\n  add\n  0x40\n  dup2\n  swap1\n  mstore\n  tag_2\n  swap2\n  tag_3\n  jump\t// in\ntag_2:\n    /* \"@openzeppelin/contracts/utils/ReentrancyGuard.sol\":1857:1858  1 */\n  0x01\n    /* \"@openzeppelin/contracts/utils/ReentrancyGuard.sol\":2061:2068  _status */\n  0x00\n    /* \"@openzeppelin/contracts/utils/ReentrancyGuard.sol\":2061:2082  _status = NOT_ENTERED */\n  sstore\n  sub(shl(0xa0, 0x01), 0x01)\n    /* \"contracts/token factory/LiquidityPool.sol\":2142:2167  _devAddress != address(0) */\n  dup4\n  and\n    /* \"contracts/token factory/LiquidityPool.sol\":2134:2204  require(_devAddress != address(0), \"Developer address cannot be zero\") */\n  tag_8\n  jumpi\n  mload(0x40)\n  shl(0xe5, 0x461bcd)\n  dup2\n  mstore\n    /* \"#utility.yul\":757:759   */\n  0x20\n    /* \"contracts/token factory/LiquidityPool.sol\":2134:2204  require(_devAddress != address(0), \"Developer address cannot be zero\") */\n  0x04\n  dup3\n  add\n    /* \"#utility.yul\":739:760   */\n  dup2\n  swap1\n  mstore\n    /* \"#utility.yul\":776:794   */\n  0x24\n  dup3\n  add\n    /* \"#utility.yul\":769:799   */\n  mstore\n    /* \"#utility.yul\":835:869   */\n  0x446576656c6f70657220616464726573732063616e6e6f74206265207a65726f\n    /* \"#utility.yul\":815:833   */\n  0x44\n  dup3\n  add\n    /* \"#utility.yul\":808:870   */\n  mstore\n    /* \"#utility.yul\":887:905   */\n  0x64\n  add\n    /* \"contracts/token factory/LiquidityPool.sol\":2134:2204  require(_devAddress != address(0), \"Developer address cannot be zero\") */\ntag_9:\n  mload(0x40)\n  dup1\n  swap2\n  sub\n  swap1\n  revert\ntag_8:\n  sub(shl(0xa0, 0x01), 0x01)\n    /* \"contracts/token factory/LiquidityPool.sol\":2222:2249  _tokenFactory != address(0) */\n  dup3\n  and\n    /* \"contracts/token factory/LiquidityPool.sol\":2214:2289  require(_tokenFactory != address(0), \"TokenFactory address cannot be zero\") */\n  tag_11\n  jumpi\n  mload(0x40)\n  shl(0xe5, 0x461bcd)\n  dup2\n  mstore\n    /* \"#utility.yul\":1118:1120   */\n  0x20\n    /* \"contracts/token factory/LiquidityPool.sol\":2214:2289  require(_tokenFactory != address(0), \"TokenFactory address cannot be zero\") */\n  0x04\n  dup3\n  add\n    /* \"#utility.yul\":1100:1121   */\n  mstore\n    /* \"#utility.yul\":1157:1159   */\n  0x23\n    /* \"#utility.yul\":1137:1155   */\n  0x24\n  dup3\n  add\n    /* \"#utility.yul\":1130:1160   */\n  mstore\n    /* \"#utility.yul\":1196:1230   */\n  0x546f6b656e466163746f727920616464726573732063616e6e6f74206265207a\n    /* \"#utility.yul\":1176:1194   */\n  0x44\n  dup3\n  add\n    /* \"#utility.yul\":1169:1231   */\n  mstore\n  shl(0xe8, 0x65726f)\n    /* \"#utility.yul\":1247:1265   */\n  0x64\n  dup3\n  add\n    /* \"#utility.yul\":1240:1273   */\n  mstore\n    /* \"#utility.yul\":1290:1309   */\n  0x84\n  add\n    /* \"contracts/token factory/LiquidityPool.sol\":2214:2289  require(_tokenFactory != address(0), \"TokenFactory address cannot be zero\") */\n  tag_9\n    /* \"#utility.yul\":916:1315   */\n  jump\n    /* \"contracts/token factory/LiquidityPool.sol\":2214:2289  require(_tokenFactory != address(0), \"TokenFactory address cannot be zero\") */\ntag_11:\n    /* \"contracts/token factory/LiquidityPool.sol\":2299:2309  devAddress */\n  0x03\n    /* \"contracts/token factory/LiquidityPool.sol\":2299:2323  devAddress = _devAddress */\n  dup1\n  sload\n  sub(shl(0xa0, 0x01), 0x01)\n  swap5\n  dup6\n  and\n  not(sub(shl(0xa0, 0x01), 0x01))\n  swap2\n  dup3\n  and\n  or\n  swap1\n  swap2\n  sstore\n    /* \"contracts/token factory/LiquidityPool.sol\":2333:2345  tokenFactory */\n  0x02\n    /* \"contracts/token factory/LiquidityPool.sol\":2333:2361  tokenFactory = _tokenFactory */\n  dup1\n  sload\n  swap4\n  swap1\n  swap5\n  and\n  swap3\n  and\n  swap2\n  swap1\n  swap2\n  or\n  swap1\n  swap2\n  sstore\n    /* \"contracts/token factory/LiquidityPool.sol\":2371:2389  migrationThreshold */\n  0x0a\n    /* \"contracts/token factory/LiquidityPool.sol\":2371:2418  migrationThreshold = _initialMigrationThreshold */\n  sstore\n    /* \"contracts/token factory/LiquidityPool.sol\":2428:2448  autoMigrationEnabled */\n  0x09\n    /* \"contracts/token factory/LiquidityPool.sol\":2428:2456  autoMigrationEnabled = false */\n  dup1\n  sload\n  not(0xff00)\n  and\n  swap1\n  sstore\n    /* \"contracts/token factory/LiquidityPool.sol\":176:9626  contract LiquidityPool is ReentrancyGuard {... */\n  jump(tag_16)\n    /* \"#utility.yul\":14:191   */\ntag_15:\n    /* \"#utility.yul\":93:106   */\n  dup1\n  mload\n  sub(shl(0xa0, 0x01), 0x01)\n    /* \"#utility.yul\":135:166   */\n  dup2\n  and\n    /* \"#utility.yul\":125:167   */\n  dup2\n  eq\n    /* \"#utility.yul\":115:185   */\n  tag_18\n  jumpi\n    /* \"#utility.yul\":181:182   */\n  0x00\n    /* \"#utility.yul\":178:179   */\n  dup1\n    /* \"#utility.yul\":171:183   */\n  revert\n    /* \"#utility.yul\":115:185   */\ntag_18:\n    /* \"#utility.yul\":14:191   */\n  swap2\n  swap1\n  pop\n  jump\t// out\n    /* \"#utility.yul\":196:550   */\ntag_3:\n    /* \"#utility.yul\":284:290   */\n  0x00\n    /* \"#utility.yul\":292:298   */\n  dup1\n    /* \"#utility.yul\":300:306   */\n  0x00\n    /* \"#utility.yul\":353:355   */\n  0x60\n    /* \"#utility.yul\":341:350   */\n  dup5\n    /* \"#utility.yul\":332:339   */\n  dup7\n    /* \"#utility.yul\":328:351   */\n  sub\n    /* \"#utility.yul\":324:356   */\n  slt\n    /* \"#utility.yul\":321:373   */\n  iszero\n  tag_20\n  jumpi\n    /* \"#utility.yul\":369:370   */\n  0x00\n    /* \"#utility.yul\":366:367   */\n  dup1\n    /* \"#utility.yul\":359:371   */\n  revert\n    /* \"#utility.yul\":321:373   */\ntag_20:\n    /* \"#utility.yul\":392:432   */\n  tag_21\n    /* \"#utility.yul\":422:431   */\n  dup5\n    /* \"#utility.yul\":392:432   */\n  tag_15\n  jump\t// in\ntag_21:\n    /* \"#utility.yul\":382:432   */\n  swap3\n  pop\n    /* \"#utility.yul\":451:500   */\n  tag_22\n    /* \"#utility.yul\":496:498   */\n  0x20\n    /* \"#utility.yul\":485:494   */\n  dup6\n    /* \"#utility.yul\":481:499   */\n  add\n    /* \"#utility.yul\":451:500   */\n  tag_15\n  jump\t// in\ntag_22:\n    /* \"#utility.yul\":441:500   */\n  swap2\n  pop\n    /* \"#utility.yul\":540:542   */\n  0x40\n    /* \"#utility.yul\":529:538   */\n  dup5\n    /* \"#utility.yul\":525:543   */\n  add\n    /* \"#utility.yul\":519:544   */\n  mload\n    /* \"#utility.yul\":509:544   */\n  swap1\n  pop\n    /* \"#utility.yul\":196:550   */\n  swap3\n  pop\n  swap3\n  pop\n  swap3\n  jump\t// out\n    /* \"#utility.yul\":916:1315   */\ntag_16:\n    /* \"contracts/token factory/LiquidityPool.sol\":176:9626  contract LiquidityPool is ReentrancyGuard {... */\n  dataSize(sub_0)\n  dup1\n  dataOffset(sub_0)\n  0x00\n  codecopy\n  0x00\n  return\nstop\n\nsub_0: assembly {\n        /* \"contracts/token factory/LiquidityPool.sol\":176:9626  contract LiquidityPool is ReentrancyGuard {... */\n      mstore(0x40, 0x80)\n      jumpi(tag_1, lt(calldatasize, 0x04))\n      shr(0xe0, calldataload(0x00))\n      dup1\n      0x5a76f25e\n      gt\n      tag_28\n      jumpi\n      dup1\n      0xa000bf4f\n      gt\n      tag_29\n      jumpi\n      dup1\n      0xc98a0aa8\n      gt\n      tag_30\n      jumpi\n      dup1\n      0xc98a0aa8\n      eq\n      tag_24\n      jumpi\n      dup1\n      0xc98b7fd2\n      eq\n      tag_25\n      jumpi\n      dup1\n      0xcc1776d3\n      eq\n      tag_26\n      jumpi\n      dup1\n      0xe77772fe\n      eq\n      tag_27\n      jumpi\n      0x00\n      dup1\n      revert\n    tag_30:\n      dup1\n      0xa000bf4f\n      eq\n      tag_21\n      jumpi\n      dup1\n      0xa4821719\n      eq\n      tag_22\n      jumpi\n      dup1\n      0xafd6b3c1\n      eq\n      tag_23\n      jumpi\n      0x00\n      dup1\n      revert\n    tag_29:\n      dup1\n      0x5a76f25e\n      eq\n      tag_15\n      jumpi\n      dup1\n      0x60c72883\n      eq\n      tag_16\n      jumpi\n      dup1\n      0x8d5f17aa\n      eq\n      tag_17\n      jumpi\n      dup1\n      0x90bc1e85\n      eq\n      tag_18\n      jumpi\n      dup1\n      0x96343fd5\n      eq\n      tag_19\n      jumpi\n      dup1\n      0x9ed7ef4e\n      eq\n      tag_20\n      jumpi\n      0x00\n      dup1\n      revert\n    tag_28:\n      dup1\n      0x2182ad88\n      gt\n      tag_31\n      jumpi\n      dup1\n      0x3ad10ef6\n      gt\n      tag_32\n      jumpi\n      dup1\n      0x3ad10ef6\n      eq\n      tag_11\n      jumpi\n      dup1\n      0x436d3340\n      eq\n      tag_12\n      jumpi\n      dup1\n      0x443cb4bc\n      eq\n      tag_13\n      jumpi\n      dup1\n      0x4f7041a5\n      eq\n      tag_14\n      jumpi\n      0x00\n      dup1\n      revert\n    tag_32:\n      dup1\n      0x2182ad88\n      eq\n      tag_8\n      jumpi\n      dup1\n      0x2397e4d7\n      eq\n      tag_9\n      jumpi\n      dup1\n      0x299ce7b2\n      eq\n      tag_10\n      jumpi\n      0x00\n      dup1\n      revert\n    tag_31:\n      dup1\n      0x04c80c82\n      eq\n      tag_2\n      jumpi\n      dup1\n      0x04ccde37\n      eq\n      tag_3\n      jumpi\n      dup1\n      0x0902f1ac\n      eq\n      tag_4\n      jumpi\n      dup1\n      0x0dfe1681\n      eq\n      tag_5\n      jumpi\n      dup1\n      0x0f0e7c8a\n      eq\n      tag_6\n      jumpi\n      dup1\n      0x12185a39\n      eq\n      tag_7\n      jumpi\n    tag_1:\n      0x00\n      dup1\n      revert\n        /* \"contracts/token factory/LiquidityPool.sol\":297:364  uint256 public constant X_DELTA_UPPER = 257627658726993462773682809 */\n    tag_2:\n      callvalue\n      dup1\n      iszero\n      tag_33\n      jumpi\n      0x00\n      dup1\n      revert\n    tag_33:\n      pop\n      tag_34\n        /* \"contracts/token factory/LiquidityPool.sol\":337:364  257627658726993462773682809 */\n      0xd51ac75d3cbca700901279\n        /* \"contracts/token factory/LiquidityPool.sol\":297:364  uint256 public constant X_DELTA_UPPER = 257627658726993462773682809 */\n      dup2\n      jump\n    tag_34:\n      mload(0x40)\n        /* \"#utility.yul\":160:185   */\n      swap1\n      dup2\n      mstore\n        /* \"#utility.yul\":148:150   */\n      0x20\n        /* \"#utility.yul\":133:151   */\n      add\n        /* \"contracts/token factory/LiquidityPool.sol\":297:364  uint256 public constant X_DELTA_UPPER = 257627658726993462773682809 */\n    tag_36:\n      mload(0x40)\n      dup1\n      swap2\n      sub\n      swap1\n      return\n        /* \"contracts/token factory/LiquidityPool.sol\":3115:3388  function setAlgebraPoolInitializer(address _initializer) external onlyFactory {... */\n    tag_3:\n      callvalue\n      dup1\n      iszero\n      tag_38\n      jumpi\n      0x00\n      dup1\n      revert\n    tag_38:\n      pop\n      tag_39\n      tag_40\n      calldatasize\n      0x04\n      tag_41\n      jump\t// in\n    tag_40:\n      tag_42\n      jump\t// in\n    tag_39:\n      stop\n        /* \"contracts/token factory/LiquidityPool.sol\":8475:8583  function getReserves() external view returns (uint256, uint256) {... */\n    tag_4:\n      callvalue\n      dup1\n      iszero\n      tag_43\n      jumpi\n      0x00\n      dup1\n      revert\n    tag_43:\n      pop\n        /* \"contracts/token factory/LiquidityPool.sol\":8557:8565  reserve0 */\n      sload(0x05)\n        /* \"contracts/token factory/LiquidityPool.sol\":8567:8575  reserve1 */\n      sload(0x06)\n        /* \"contracts/token factory/LiquidityPool.sol\":8475:8583  function getReserves() external view returns (uint256, uint256) {... */\n      0x40\n      dup1\n      mload\n        /* \"#utility.yul\":758:783   */\n      swap3\n      dup4\n      mstore\n        /* \"#utility.yul\":814:816   */\n      0x20\n        /* \"#utility.yul\":799:817   */\n      dup4\n      add\n        /* \"#utility.yul\":792:826   */\n      swap2\n      swap1\n      swap2\n      mstore\n        /* \"#utility.yul\":731:749   */\n      add\n        /* \"contracts/token factory/LiquidityPool.sol\":8475:8583  function getReserves() external view returns (uint256, uint256) {... */\n      tag_36\n        /* \"#utility.yul\":584:832   */\n      jump\n        /* \"contracts/token factory/LiquidityPool.sol\":497:518  address public token0 */\n    tag_5:\n      callvalue\n      dup1\n      iszero\n      tag_48\n      jumpi\n      0x00\n      dup1\n      revert\n    tag_48:\n      pop\n      sload(0x01)\n      tag_49\n      swap1\n      sub(shl(0xa0, 0x01), 0x01)\n      and\n      dup2\n      jump\n    tag_49:\n      mload(0x40)\n      sub(shl(0xa0, 0x01), 0x01)\n        /* \"#utility.yul\":1001:1033   */\n      swap1\n      swap2\n      and\n        /* \"#utility.yul\":983:1034   */\n      dup2\n      mstore\n        /* \"#utility.yul\":971:973   */\n      0x20\n        /* \"#utility.yul\":956:974   */\n      add\n        /* \"contracts/token factory/LiquidityPool.sol\":497:518  address public token0 */\n      tag_36\n        /* \"#utility.yul\":837:1040   */\n      jump\n        /* \"contracts/token factory/LiquidityPool.sol\":224:291  uint256 public constant X_DELTA_LOWER = 257627658726967931872702964 */\n    tag_6:\n      callvalue\n      dup1\n      iszero\n      tag_53\n      jumpi\n      0x00\n      dup1\n      revert\n    tag_53:\n      pop\n      tag_34\n        /* \"contracts/token factory/LiquidityPool.sol\":264:291  257627658726967931872702964 */\n      0xd51ac75d3ca56ea04771f4\n        /* \"contracts/token factory/LiquidityPool.sol\":224:291  uint256 public constant X_DELTA_LOWER = 257627658726967931872702964 */\n      dup2\n      jump\n        /* \"contracts/token factory/LiquidityPool.sol\":8737:8883  function updateSellTax(uint256 newSellTax) external onlyFactory {... */\n    tag_7:\n      callvalue\n      dup1\n      iszero\n      tag_57\n      jumpi\n      0x00\n      dup1\n      revert\n    tag_57:\n      pop\n      tag_39\n      tag_59\n      calldatasize\n      0x04\n      tag_60\n      jump\t// in\n    tag_59:\n      tag_61\n      jump\t// in\n        /* \"contracts/token factory/LiquidityPool.sol\":433:490  uint256 public constant Y_DELTA_UPPER = 31864892854294116 */\n    tag_8:\n      callvalue\n      dup1\n      iszero\n      tag_62\n      jumpi\n      0x00\n      dup1\n      revert\n    tag_62:\n      pop\n      tag_34\n        /* \"contracts/token factory/LiquidityPool.sol\":473:490  31864892854294116 */\n      0x7134f38362d664\n        /* \"contracts/token factory/LiquidityPool.sol\":433:490  uint256 public constant Y_DELTA_UPPER = 31864892854294116 */\n      dup2\n      jump\n        /* \"contracts/token factory/LiquidityPool.sol\":7267:8469  function sellToken(... */\n    tag_9:\n      callvalue\n      dup1\n      iszero\n      tag_66\n      jumpi\n      0x00\n      dup1\n      revert\n    tag_66:\n      pop\n      tag_34\n      tag_68\n      calldatasize\n      0x04\n      tag_60\n      jump\t// in\n    tag_68:\n      tag_69\n      jump\t// in\n        /* \"contracts/token factory/LiquidityPool.sol\":967:996  bool public migratedToAlgebra */\n    tag_10:\n      callvalue\n      dup1\n      iszero\n      tag_71\n      jumpi\n      0x00\n      dup1\n      revert\n    tag_71:\n      pop\n      sload(0x09)\n      tag_72\n      swap1\n      0xff\n      and\n      dup2\n      jump\n    tag_72:\n      mload(0x40)\n        /* \"#utility.yul\":1441:1455   */\n      swap1\n      iszero\n        /* \"#utility.yul\":1434:1456   */\n      iszero\n        /* \"#utility.yul\":1416:1457   */\n      dup2\n      mstore\n        /* \"#utility.yul\":1404:1406   */\n      0x20\n        /* \"#utility.yul\":1389:1407   */\n      add\n        /* \"contracts/token factory/LiquidityPool.sol\":967:996  bool public migratedToAlgebra */\n      tag_36\n        /* \"#utility.yul\":1276:1463   */\n      jump\n        /* \"contracts/token factory/LiquidityPool.sol\":604:629  address public devAddress */\n    tag_11:\n      callvalue\n      dup1\n      iszero\n      tag_76\n      jumpi\n      0x00\n      dup1\n      revert\n    tag_76:\n      pop\n      sload(0x03)\n      tag_49\n      swap1\n      sub(shl(0xa0, 0x01), 0x01)\n      and\n      dup2\n      jump\n        /* \"contracts/token factory/LiquidityPool.sol\":8589:8731  function updateBuyTax(uint256 newBuyTax) external onlyFactory {... */\n    tag_12:\n      callvalue\n      dup1\n      iszero\n      tag_80\n      jumpi\n      0x00\n      dup1\n      revert\n    tag_80:\n      pop\n      tag_39\n      tag_82\n      calldatasize\n      0x04\n      tag_60\n      jump\t// in\n    tag_82:\n      tag_83\n      jump\t// in\n        /* \"contracts/token factory/LiquidityPool.sol\":743:766  uint256 public reserve0 */\n    tag_13:\n      callvalue\n      dup1\n      iszero\n      tag_84\n      jumpi\n      0x00\n      dup1\n      revert\n    tag_84:\n      pop\n      tag_34\n      sload(0x05)\n      dup2\n      jump\n        /* \"contracts/token factory/LiquidityPool.sol\":859:880  uint256 public buyTax */\n    tag_14:\n      callvalue\n      dup1\n      iszero\n      tag_88\n      jumpi\n      0x00\n      dup1\n      revert\n    tag_88:\n      pop\n      tag_34\n      sload(0x07)\n      dup2\n      jump\n        /* \"contracts/token factory/LiquidityPool.sol\":789:812  uint256 public reserve1 */\n    tag_15:\n      callvalue\n      dup1\n      iszero\n      tag_92\n      jumpi\n      0x00\n      dup1\n      revert\n    tag_92:\n      pop\n      tag_34\n      sload(0x06)\n      dup2\n      jump\n        /* \"contracts/token factory/LiquidityPool.sol\":370:427  uint256 public constant Y_DELTA_LOWER = 31864892854290958 */\n    tag_16:\n      callvalue\n      dup1\n      iszero\n      tag_96\n      jumpi\n      0x00\n      dup1\n      revert\n    tag_96:\n      pop\n      tag_34\n        /* \"contracts/token factory/LiquidityPool.sol\":410:427  31864892854290958 */\n      0x7134f38362ca0e\n        /* \"contracts/token factory/LiquidityPool.sol\":370:427  uint256 public constant Y_DELTA_LOWER = 31864892854290958 */\n      dup2\n      jump\n        /* \"contracts/token factory/LiquidityPool.sol\":1046:1085  bool public autoMigrationEnabled = true */\n    tag_17:\n      callvalue\n      dup1\n      iszero\n      tag_100\n      jumpi\n      0x00\n      dup1\n      revert\n    tag_100:\n      pop\n      sload(0x09)\n      tag_72\n      swap1\n      0x0100\n      swap1\n      div\n      0xff\n      and\n      dup2\n      jump\n        /* \"contracts/token factory/LiquidityPool.sol\":1128:1161  uint256 public migrationThreshold */\n    tag_18:\n      callvalue\n      dup1\n      iszero\n      tag_104\n      jumpi\n      0x00\n      dup1\n      revert\n    tag_104:\n      pop\n      tag_34\n      sload(0x0a)\n      dup2\n      jump\n        /* \"contracts/token factory/LiquidityPool.sol\":3552:3807  function updateMigrationThreshold(uint256 newThreshold) external onlyFactory {... */\n    tag_19:\n      callvalue\n      dup1\n      iszero\n      tag_108\n      jumpi\n      0x00\n      dup1\n      revert\n    tag_108:\n      pop\n      tag_39\n      tag_110\n      calldatasize\n      0x04\n      tag_60\n      jump\t// in\n    tag_110:\n      tag_111\n      jump\t// in\n        /* \"contracts/token factory/LiquidityPool.sol\":2492:3109  function initialize(... */\n    tag_20:\n      tag_39\n      tag_113\n      calldatasize\n      0x04\n      tag_114\n      jump\t// in\n    tag_113:\n      tag_115\n      jump\t// in\n        /* \"contracts/token factory/LiquidityPool.sol\":8952:9374  function calculateSqrtPriceX96(uint256 amount0, uint256 amount1) public pure returns (uint160) {... */\n    tag_21:\n      callvalue\n      dup1\n      iszero\n      tag_116\n      jumpi\n      0x00\n      dup1\n      revert\n    tag_116:\n      pop\n      tag_49\n      tag_118\n      calldatasize\n      0x04\n      tag_119\n      jump\t// in\n    tag_118:\n      tag_120\n      jump\t// in\n        /* \"contracts/token factory/LiquidityPool.sol\":5516:7261  function buyToken()... */\n    tag_22:\n      tag_34\n      tag_124\n      jump\t// in\n        /* \"contracts/token factory/LiquidityPool.sol\":8888:8951  function forceMigration() external  {... */\n    tag_23:\n      callvalue\n      dup1\n      iszero\n      tag_126\n      jumpi\n      0x00\n      dup1\n      revert\n    tag_126:\n      pop\n      tag_39\n      tag_128\n      jump\t// in\n        /* \"contracts/token factory/LiquidityPool.sol\":3394:3546  function toggleAutoMigration(bool enable) external onlyFactory {... */\n    tag_24:\n      callvalue\n      dup1\n      iszero\n      tag_129\n      jumpi\n      0x00\n      dup1\n      revert\n    tag_129:\n      pop\n      tag_39\n      tag_131\n      calldatasize\n      0x04\n      tag_132\n      jump\t// in\n    tag_131:\n      tag_133\n      jump\t// in\n        /* \"contracts/token factory/LiquidityPool.sol\":656:693  address public algebraPoolInitializer */\n    tag_25:\n      callvalue\n      dup1\n      iszero\n      tag_134\n      jumpi\n      0x00\n      dup1\n      revert\n    tag_134:\n      pop\n      sload(0x04)\n      tag_49\n      swap1\n      sub(shl(0xa0, 0x01), 0x01)\n      and\n      dup2\n      jump\n        /* \"contracts/token factory/LiquidityPool.sol\":912:934  uint256 public sellTax */\n    tag_26:\n      callvalue\n      dup1\n      iszero\n      tag_138\n      jumpi\n      0x00\n      dup1\n      revert\n    tag_138:\n      pop\n      tag_34\n      sload(0x08)\n      dup2\n      jump\n        /* \"contracts/token factory/LiquidityPool.sol\":547:574  address public tokenFactory */\n    tag_27:\n      callvalue\n      dup1\n      iszero\n      tag_142\n      jumpi\n      0x00\n      dup1\n      revert\n    tag_142:\n      pop\n      sload(0x02)\n      tag_49\n      swap1\n      sub(shl(0xa0, 0x01), 0x01)\n      and\n      dup2\n      jump\n        /* \"contracts/token factory/LiquidityPool.sol\":3115:3388  function setAlgebraPoolInitializer(address _initializer) external onlyFactory {... */\n    tag_42:\n        /* \"contracts/token factory/LiquidityPool.sol\":1961:1973  tokenFactory */\n      and(sub(shl(0xa0, 0x01), 0x01), sload(0x02))\n        /* \"contracts/token factory/LiquidityPool.sol\":1947:1957  msg.sender */\n      caller\n        /* \"contracts/token factory/LiquidityPool.sol\":1947:1973  msg.sender == tokenFactory */\n      eq\n        /* \"contracts/token factory/LiquidityPool.sol\":1939:2008  require(msg.sender == tokenFactory, \"Caller is not the TokenFactory\") */\n      tag_147\n      jumpi\n      mload(0x40)\n      shl(0xe5, 0x461bcd)\n      dup2\n      mstore\n      0x04\n      add\n      tag_148\n      swap1\n      tag_149\n      jump\t// in\n    tag_148:\n      mload(0x40)\n      dup1\n      swap2\n      sub\n      swap1\n      revert\n    tag_147:\n      sub(shl(0xa0, 0x01), 0x01)\n        /* \"contracts/token factory/LiquidityPool.sol\":3211:3237  _initializer != address(0) */\n      dup2\n      and\n        /* \"contracts/token factory/LiquidityPool.sol\":3203:3276  require(_initializer != address(0), \"Initializer address cannot be zero\") */\n      tag_151\n      jumpi\n      mload(0x40)\n      shl(0xe5, 0x461bcd)\n      dup2\n      mstore\n        /* \"#utility.yul\":3848:3850   */\n      0x20\n        /* \"contracts/token factory/LiquidityPool.sol\":3203:3276  require(_initializer != address(0), \"Initializer address cannot be zero\") */\n      0x04\n      dup3\n      add\n        /* \"#utility.yul\":3830:3851   */\n      mstore\n        /* \"#utility.yul\":3887:3889   */\n      0x22\n        /* \"#utility.yul\":3867:3885   */\n      0x24\n      dup3\n      add\n        /* \"#utility.yul\":3860:3890   */\n      mstore\n        /* \"#utility.yul\":3926:3960   */\n      0x496e697469616c697a657220616464726573732063616e6e6f74206265207a65\n        /* \"#utility.yul\":3906:3924   */\n      0x44\n      dup3\n      add\n        /* \"#utility.yul\":3899:3961   */\n      mstore\n      shl(0xf0, 0x726f)\n        /* \"#utility.yul\":3977:3995   */\n      0x64\n      dup3\n      add\n        /* \"#utility.yul\":3970:4002   */\n      mstore\n        /* \"#utility.yul\":4019:4038   */\n      0x84\n      add\n        /* \"contracts/token factory/LiquidityPool.sol\":3203:3276  require(_initializer != address(0), \"Initializer address cannot be zero\") */\n      tag_148\n        /* \"#utility.yul\":3646:4044   */\n      jump\n        /* \"contracts/token factory/LiquidityPool.sol\":3203:3276  require(_initializer != address(0), \"Initializer address cannot be zero\") */\n    tag_151:\n        /* \"contracts/token factory/LiquidityPool.sol\":3286:3308  algebraPoolInitializer */\n      0x04\n        /* \"contracts/token factory/LiquidityPool.sol\":3286:3323  algebraPoolInitializer = _initializer */\n      dup1\n      sload\n      not(sub(shl(0xa0, 0x01), 0x01))\n      and\n      sub(shl(0xa0, 0x01), 0x01)\n      dup4\n      and\n      swap1\n      dup2\n      or\n      swap1\n      swap2\n      sstore\n        /* \"contracts/token factory/LiquidityPool.sol\":3338:3381  AlgebraPoolInitializerUpdated(_initializer) */\n      mload(0x40)\n      0xe6223ef4a6cc26f11671126040eb90609754df785e229f9fc28e9612ca3380bc\n      swap1\n      0x00\n      swap1\n      log2\n        /* \"contracts/token factory/LiquidityPool.sol\":3115:3388  function setAlgebraPoolInitializer(address _initializer) external onlyFactory {... */\n      pop\n      jump\t// out\n        /* \"contracts/token factory/LiquidityPool.sol\":8737:8883  function updateSellTax(uint256 newSellTax) external onlyFactory {... */\n    tag_61:\n        /* \"contracts/token factory/LiquidityPool.sol\":1961:1973  tokenFactory */\n      and(sub(shl(0xa0, 0x01), 0x01), sload(0x02))\n        /* \"contracts/token factory/LiquidityPool.sol\":1947:1957  msg.sender */\n      caller\n        /* \"contracts/token factory/LiquidityPool.sol\":1947:1973  msg.sender == tokenFactory */\n      eq\n        /* \"contracts/token factory/LiquidityPool.sol\":1939:2008  require(msg.sender == tokenFactory, \"Caller is not the TokenFactory\") */\n      tag_156\n      jumpi\n      mload(0x40)\n      shl(0xe5, 0x461bcd)\n      dup2\n      mstore\n      0x04\n      add\n      tag_148\n      swap1\n      tag_149\n      jump\t// in\n    tag_156:\n        /* \"contracts/token factory/LiquidityPool.sol\":8811:8818  sellTax */\n      0x08\n        /* \"contracts/token factory/LiquidityPool.sol\":8811:8831  sellTax = newSellTax */\n      dup2\n      swap1\n      sstore\n        /* \"contracts/token factory/LiquidityPool.sol\":8857:8863  buyTax */\n      sload(0x07)\n        /* \"contracts/token factory/LiquidityPool.sol\":8846:8876  TaxUpdated(buyTax, newSellTax) */\n      0x40\n      dup1\n      mload\n        /* \"#utility.yul\":758:783   */\n      swap2\n      dup3\n      mstore\n        /* \"#utility.yul\":814:816   */\n      0x20\n        /* \"#utility.yul\":799:817   */\n      dup3\n      add\n        /* \"#utility.yul\":792:826   */\n      dup4\n      swap1\n      mstore\n        /* \"contracts/token factory/LiquidityPool.sol\":8846:8876  TaxUpdated(buyTax, newSellTax) */\n      0xb841faf0d1b32571f4ef966a2f35e3ae51f3cdda45318c3da5570a5b2ad85605\n      swap2\n        /* \"#utility.yul\":731:749   */\n      add\n        /* \"contracts/token factory/LiquidityPool.sol\":8846:8876  TaxUpdated(buyTax, newSellTax) */\n    tag_159:\n      mload(0x40)\n      dup1\n      swap2\n      sub\n      swap1\n      log1\n        /* \"contracts/token factory/LiquidityPool.sol\":8737:8883  function updateSellTax(uint256 newSellTax) external onlyFactory {... */\n      pop\n      jump\t// out\n        /* \"contracts/token factory/LiquidityPool.sol\":7267:8469  function sellToken(... */\n    tag_69:\n        /* \"contracts/token factory/LiquidityPool.sol\":7349:7366  uint256 amountOut */\n      0x00\n        /* \"@openzeppelin/contracts/utils/ReentrancyGuard.sol\":2500:2521  _nonReentrantBefore() */\n      tag_161\n        /* \"@openzeppelin/contracts/utils/ReentrancyGuard.sol\":2500:2519  _nonReentrantBefore */\n      tag_162\n        /* \"@openzeppelin/contracts/utils/ReentrancyGuard.sol\":2500:2521  _nonReentrantBefore() */\n      jump\t// in\n    tag_161:\n        /* \"contracts/token factory/LiquidityPool.sol\":7397:7398  0 */\n      0x00\n        /* \"contracts/token factory/LiquidityPool.sol\":7386:7394  amountIn */\n      dup3\n        /* \"contracts/token factory/LiquidityPool.sol\":7386:7398  amountIn > 0 */\n      gt\n        /* \"contracts/token factory/LiquidityPool.sol\":7378:7424  require(amountIn > 0, \"Must sell some tokens\") */\n      tag_164\n      jumpi\n      mload(0x40)\n      shl(0xe5, 0x461bcd)\n      dup2\n      mstore\n        /* \"#utility.yul\":4251:4253   */\n      0x20\n        /* \"contracts/token factory/LiquidityPool.sol\":7378:7424  require(amountIn > 0, \"Must sell some tokens\") */\n      0x04\n      dup3\n      add\n        /* \"#utility.yul\":4233:4254   */\n      mstore\n        /* \"#utility.yul\":4290:4292   */\n      0x15\n        /* \"#utility.yul\":4270:4288   */\n      0x24\n      dup3\n      add\n        /* \"#utility.yul\":4263:4293   */\n      mstore\n      shl(0x58, 0x4d7573742073656c6c20736f6d6520746f6b656e73)\n        /* \"#utility.yul\":4309:4327   */\n      0x44\n      dup3\n      add\n        /* \"#utility.yul\":4302:4353   */\n      mstore\n        /* \"#utility.yul\":4370:4388   */\n      0x64\n      add\n        /* \"contracts/token factory/LiquidityPool.sol\":7378:7424  require(amountIn > 0, \"Must sell some tokens\") */\n      tag_148\n        /* \"#utility.yul\":4049:4394   */\n      jump\n        /* \"contracts/token factory/LiquidityPool.sol\":7378:7424  require(amountIn > 0, \"Must sell some tokens\") */\n    tag_164:\n        /* \"contracts/token factory/LiquidityPool.sol\":7435:7454  uint256 newReserve0 */\n      0x00\n        /* \"contracts/token factory/LiquidityPool.sol\":7468:7476  amountIn */\n      dup3\n        /* \"contracts/token factory/LiquidityPool.sol\":7457:7465  reserve0 */\n      sload(0x05)\n        /* \"contracts/token factory/LiquidityPool.sol\":7457:7476  reserve0 + amountIn */\n      tag_167\n      swap2\n      swap1\n      tag_168\n      jump\t// in\n    tag_167:\n        /* \"contracts/token factory/LiquidityPool.sol\":7435:7476  uint256 newReserve0 = reserve0 + amountIn */\n      swap1\n      pop\n        /* \"contracts/token factory/LiquidityPool.sol\":7486:7502  uint256 quotient */\n      0x00\n        /* \"contracts/token factory/LiquidityPool.sol\":7579:7606  newReserve0 + X_DELTA_UPPER */\n      tag_169\n        /* \"contracts/token factory/LiquidityPool.sol\":337:364  257627658726993462773682809 */\n      0xd51ac75d3cbca700901279\n        /* \"contracts/token factory/LiquidityPool.sol\":7435:7476  uint256 newReserve0 = reserve0 + amountIn */\n      dup4\n        /* \"contracts/token factory/LiquidityPool.sol\":7579:7606  newReserve0 + X_DELTA_UPPER */\n      tag_168\n      jump\t// in\n    tag_169:\n        /* \"contracts/token factory/LiquidityPool.sol\":473:490  31864892854294116 */\n      0x7134f38362d664\n        /* \"contracts/token factory/LiquidityPool.sol\":7536:7544  reserve1 */\n      sload(0x06)\n        /* \"contracts/token factory/LiquidityPool.sol\":7536:7560  reserve1 + Y_DELTA_UPPER */\n      tag_170\n      swap2\n      swap1\n      tag_168\n      jump\t// in\n    tag_170:\n        /* \"contracts/token factory/LiquidityPool.sol\":337:364  257627658726993462773682809 */\n      0xd51ac75d3cbca700901279\n        /* \"contracts/token factory/LiquidityPool.sol\":7507:7515  reserve0 */\n      sload(0x05)\n        /* \"contracts/token factory/LiquidityPool.sol\":7507:7531  reserve0 + X_DELTA_UPPER */\n      tag_171\n      swap2\n      swap1\n      tag_168\n      jump\t// in\n    tag_171:\n        /* \"contracts/token factory/LiquidityPool.sol\":7506:7561  (reserve0 + X_DELTA_UPPER) * (reserve1 + Y_DELTA_UPPER) */\n      tag_172\n      swap2\n      swap1\n      tag_173\n      jump\t// in\n    tag_172:\n        /* \"contracts/token factory/LiquidityPool.sol\":7505:7607  ((reserve0 + X_DELTA_UPPER) * (reserve1 + Y_DELTA_UPPER)) / ... */\n      tag_174\n      swap2\n      swap1\n      tag_175\n      jump\t// in\n    tag_174:\n        /* \"contracts/token factory/LiquidityPool.sol\":7486:7607  uint256 quotient = ((reserve0 + X_DELTA_UPPER) * (reserve1 + Y_DELTA_UPPER)) / ... */\n      swap1\n      pop\n        /* \"contracts/token factory/LiquidityPool.sol\":473:490  31864892854294116 */\n      0x7134f38362d664\n        /* \"contracts/token factory/LiquidityPool.sol\":7621:7629  quotient */\n      dup2\n        /* \"contracts/token factory/LiquidityPool.sol\":7621:7645  quotient < Y_DELTA_UPPER */\n      lt\n        /* \"contracts/token factory/LiquidityPool.sol\":7617:7696  if (quotient < Y_DELTA_UPPER) {... */\n      iszero\n      tag_176\n      jumpi\n      pop\n        /* \"contracts/token factory/LiquidityPool.sol\":473:490  31864892854294116 */\n      0x7134f38362d664\n        /* \"contracts/token factory/LiquidityPool.sol\":7617:7696  if (quotient < Y_DELTA_UPPER) {... */\n    tag_176:\n        /* \"contracts/token factory/LiquidityPool.sol\":7705:7724  uint256 newReserve1 */\n      0x00\n        /* \"contracts/token factory/LiquidityPool.sol\":7727:7751  quotient - Y_DELTA_UPPER */\n      tag_177\n        /* \"contracts/token factory/LiquidityPool.sol\":473:490  31864892854294116 */\n      0x7134f38362d664\n        /* \"contracts/token factory/LiquidityPool.sol\":7727:7735  quotient */\n      dup4\n        /* \"contracts/token factory/LiquidityPool.sol\":7727:7751  quotient - Y_DELTA_UPPER */\n      tag_178\n      jump\t// in\n    tag_177:\n        /* \"contracts/token factory/LiquidityPool.sol\":7705:7751  uint256 newReserve1 = quotient - Y_DELTA_UPPER */\n      swap1\n      pop\n        /* \"contracts/token factory/LiquidityPool.sol\":7787:7795  reserve1 */\n      sload(0x06)\n        /* \"contracts/token factory/LiquidityPool.sol\":7773:7784  newReserve1 */\n      dup2\n        /* \"contracts/token factory/LiquidityPool.sol\":7773:7795  newReserve1 > reserve1 */\n      gt\n        /* \"contracts/token factory/LiquidityPool.sol\":7773:7831  newReserve1 > reserve1 ? reserve1 : reserve1 - newReserve1 */\n      tag_179\n      jumpi\n        /* \"contracts/token factory/LiquidityPool.sol\":7820:7831  newReserve1 */\n      dup1\n        /* \"contracts/token factory/LiquidityPool.sol\":7809:7817  reserve1 */\n      sload(0x06)\n        /* \"contracts/token factory/LiquidityPool.sol\":7809:7831  reserve1 - newReserve1 */\n      tag_180\n      swap2\n      swap1\n      tag_178\n      jump\t// in\n    tag_180:\n        /* \"contracts/token factory/LiquidityPool.sol\":7773:7831  newReserve1 > reserve1 ? reserve1 : reserve1 - newReserve1 */\n      jump(tag_181)\n    tag_179:\n        /* \"contracts/token factory/LiquidityPool.sol\":7798:7806  reserve1 */\n      sload(0x06)\n        /* \"contracts/token factory/LiquidityPool.sol\":7773:7831  newReserve1 > reserve1 ? reserve1 : reserve1 - newReserve1 */\n    tag_181:\n        /* \"contracts/token factory/LiquidityPool.sol\":7761:7831  amountOut = newReserve1 > reserve1 ? reserve1 : reserve1 - newReserve1 */\n      swap4\n      pop\n        /* \"contracts/token factory/LiquidityPool.sol\":7853:7864  newReserve0 */\n      dup3\n        /* \"contracts/token factory/LiquidityPool.sol\":7842:7850  reserve0 */\n      0x05\n        /* \"contracts/token factory/LiquidityPool.sol\":7842:7864  reserve0 = newReserve0 */\n      dup2\n      swap1\n      sstore\n      pop\n        /* \"contracts/token factory/LiquidityPool.sol\":7886:7895  amountOut */\n      dup4\n        /* \"contracts/token factory/LiquidityPool.sol\":7874:7882  reserve1 */\n      0x06\n      0x00\n        /* \"contracts/token factory/LiquidityPool.sol\":7874:7895  reserve1 -= amountOut */\n      dup3\n      dup3\n      sload\n      tag_182\n      swap2\n      swap1\n      tag_178\n      jump\t// in\n    tag_182:\n      swap1\n      swap2\n      sstore\n      pop\n      pop\n        /* \"contracts/token factory/LiquidityPool.sol\":7996:8003  sellTax */\n      sload(0x08)\n        /* \"contracts/token factory/LiquidityPool.sol\":7964:7980  uint256 etherTax */\n      0x00\n      swap1\n        /* \"contracts/token factory/LiquidityPool.sol\":8007:8011  1000 */\n      0x03e8\n      swap1\n        /* \"contracts/token factory/LiquidityPool.sol\":7984:8003  amountOut * sellTax */\n      tag_183\n      swap1\n        /* \"contracts/token factory/LiquidityPool.sol\":7984:7993  amountOut */\n      dup8\n        /* \"contracts/token factory/LiquidityPool.sol\":7984:8003  amountOut * sellTax */\n      tag_173\n      jump\t// in\n    tag_183:\n        /* \"contracts/token factory/LiquidityPool.sol\":7983:8011  (amountOut * sellTax) / 1000 */\n      tag_184\n      swap2\n      swap1\n      tag_175\n      jump\t// in\n    tag_184:\n        /* \"contracts/token factory/LiquidityPool.sol\":7964:8011  uint256 etherTax = (amountOut * sellTax) / 1000 */\n      swap1\n      pop\n        /* \"contracts/token factory/LiquidityPool.sol\":8021:8042  amountOut -= etherTax */\n      tag_185\n        /* \"contracts/token factory/LiquidityPool.sol\":7964:8011  uint256 etherTax = (amountOut * sellTax) / 1000 */\n      dup2\n        /* \"contracts/token factory/LiquidityPool.sol\":8021:8042  amountOut -= etherTax */\n      dup7\n      tag_178\n      jump\t// in\n    tag_185:\n        /* \"contracts/token factory/LiquidityPool.sol\":8072:8082  devAddress */\n      sload(0x03)\n        /* \"contracts/token factory/LiquidityPool.sol\":8072:8108  devAddress.call{value: etherTax}(\"\") */\n      mload(0x40)\n        /* \"contracts/token factory/LiquidityPool.sol\":8021:8042  amountOut -= etherTax */\n      swap2\n      swap7\n      pop\n        /* \"contracts/token factory/LiquidityPool.sol\":8054:8066  bool taxSent */\n      0x00\n      swap2\n      sub(shl(0xa0, 0x01), 0x01)\n        /* \"contracts/token factory/LiquidityPool.sol\":8072:8082  devAddress */\n      swap1\n      swap2\n      and\n      swap1\n        /* \"contracts/token factory/LiquidityPool.sol\":8095:8103  etherTax */\n      dup4\n      swap1\n        /* \"contracts/token factory/LiquidityPool.sol\":8054:8066  bool taxSent */\n      dup4\n        /* \"contracts/token factory/LiquidityPool.sol\":8072:8108  devAddress.call{value: etherTax}(\"\") */\n      dup2\n        /* \"contracts/token factory/LiquidityPool.sol\":8054:8066  bool taxSent */\n      dup2\n        /* \"contracts/token factory/LiquidityPool.sol\":8072:8108  devAddress.call{value: etherTax}(\"\") */\n      dup2\n        /* \"contracts/token factory/LiquidityPool.sol\":8095:8103  etherTax */\n      dup6\n        /* \"contracts/token factory/LiquidityPool.sol\":8072:8082  devAddress */\n      dup8\n        /* \"contracts/token factory/LiquidityPool.sol\":8072:8108  devAddress.call{value: etherTax}(\"\") */\n      gas\n      call\n      swap3\n      pop\n      pop\n      pop\n      returndatasize\n      dup1\n      0x00\n      dup2\n      eq\n      tag_190\n      jumpi\n      mload(0x40)\n      swap2\n      pop\n      and(add(returndatasize, 0x3f), not(0x1f))\n      dup3\n      add\n      0x40\n      mstore\n      returndatasize\n      dup3\n      mstore\n      returndatasize\n      0x00\n      0x20\n      dup5\n      add\n      returndatacopy\n      jump(tag_189)\n    tag_190:\n      0x60\n      swap2\n      pop\n    tag_189:\n      pop\n        /* \"contracts/token factory/LiquidityPool.sol\":8053:8108  (bool taxSent, ) = devAddress.call{value: etherTax}(\"\") */\n      pop\n      swap1\n      pop\n        /* \"contracts/token factory/LiquidityPool.sol\":8126:8133  taxSent */\n      dup1\n        /* \"contracts/token factory/LiquidityPool.sol\":8118:8161  require(taxSent, \"Failed to send sell tax\") */\n      tag_191\n      jumpi\n      mload(0x40)\n      shl(0xe5, 0x461bcd)\n      dup2\n      mstore\n        /* \"#utility.yul\":5601:5603   */\n      0x20\n        /* \"contracts/token factory/LiquidityPool.sol\":8118:8161  require(taxSent, \"Failed to send sell tax\") */\n      0x04\n      dup3\n      add\n        /* \"#utility.yul\":5583:5604   */\n      mstore\n        /* \"#utility.yul\":5640:5642   */\n      0x17\n        /* \"#utility.yul\":5620:5638   */\n      0x24\n      dup3\n      add\n        /* \"#utility.yul\":5613:5643   */\n      mstore\n        /* \"#utility.yul\":5679:5704   */\n      0x4661696c656420746f2073656e642073656c6c20746178000000000000000000\n        /* \"#utility.yul\":5659:5677   */\n      0x44\n      dup3\n      add\n        /* \"#utility.yul\":5652:5705   */\n      mstore\n        /* \"#utility.yul\":5722:5740   */\n      0x64\n      add\n        /* \"contracts/token factory/LiquidityPool.sol\":8118:8161  require(taxSent, \"Failed to send sell tax\") */\n      tag_148\n        /* \"#utility.yul\":5399:5746   */\n      jump\n        /* \"contracts/token factory/LiquidityPool.sol\":8118:8161  require(taxSent, \"Failed to send sell tax\") */\n    tag_191:\n        /* \"contracts/token factory/LiquidityPool.sol\":8188:8194  token0 */\n      sload(0x01)\n        /* \"contracts/token factory/LiquidityPool.sol\":8181:8245  IERC20(token0).transferFrom(msg.sender, address(this), amountIn) */\n      mload(0x40)\n      shl(0xe0, 0x23b872dd)\n      dup2\n      mstore\n        /* \"contracts/token factory/LiquidityPool.sol\":8209:8219  msg.sender */\n      caller\n        /* \"contracts/token factory/LiquidityPool.sol\":8181:8245  IERC20(token0).transferFrom(msg.sender, address(this), amountIn) */\n      0x04\n      dup3\n      add\n        /* \"#utility.yul\":5953:6004   */\n      mstore\n        /* \"contracts/token factory/LiquidityPool.sol\":8229:8233  this */\n      address\n        /* \"#utility.yul\":6020:6038   */\n      0x24\n      dup3\n      add\n        /* \"#utility.yul\":6013:6073   */\n      mstore\n        /* \"#utility.yul\":6089:6107   */\n      0x44\n      dup2\n      add\n        /* \"#utility.yul\":6082:6116   */\n      dup10\n      swap1\n      mstore\n      sub(shl(0xa0, 0x01), 0x01)\n        /* \"contracts/token factory/LiquidityPool.sol\":8188:8194  token0 */\n      swap1\n      swap2\n      and\n      swap1\n        /* \"contracts/token factory/LiquidityPool.sol\":8181:8208  IERC20(token0).transferFrom */\n      0x23b872dd\n      swap1\n        /* \"#utility.yul\":5926:5944   */\n      0x64\n      add\n        /* \"contracts/token factory/LiquidityPool.sol\":8181:8245  IERC20(token0).transferFrom(msg.sender, address(this), amountIn) */\n      0x20\n      mload(0x40)\n      dup1\n      dup4\n      sub\n      dup2\n      0x00\n      dup8\n      gas\n      call\n      iszero\n      dup1\n      iszero\n      tag_197\n      jumpi\n      returndatasize\n      0x00\n      dup1\n      returndatacopy\n      revert(0x00, returndatasize)\n    tag_197:\n      pop\n      pop\n      pop\n      pop\n      mload(0x40)\n      returndatasize\n      not(0x1f)\n      0x1f\n      dup3\n      add\n      and\n      dup3\n      add\n      dup1\n      0x40\n      mstore\n      pop\n      dup2\n      add\n      swap1\n      tag_198\n      swap2\n      swap1\n      tag_199\n      jump\t// in\n    tag_198:\n        /* \"contracts/token factory/LiquidityPool.sol\":8173:8278  require(IERC20(token0).transferFrom(msg.sender, address(this), amountIn), \"Failed to transfer tokens\"   ) */\n      tag_200\n      jumpi\n      mload(0x40)\n      shl(0xe5, 0x461bcd)\n      dup2\n      mstore\n        /* \"#utility.yul\":6579:6581   */\n      0x20\n        /* \"contracts/token factory/LiquidityPool.sol\":8173:8278  require(IERC20(token0).transferFrom(msg.sender, address(this), amountIn), \"Failed to transfer tokens\"   ) */\n      0x04\n      dup3\n      add\n        /* \"#utility.yul\":6561:6582   */\n      mstore\n        /* \"#utility.yul\":6618:6620   */\n      0x19\n        /* \"#utility.yul\":6598:6616   */\n      0x24\n      dup3\n      add\n        /* \"#utility.yul\":6591:6621   */\n      mstore\n      shl(0x38, 0x4661696c656420746f207472616e7366657220746f6b656e73)\n        /* \"#utility.yul\":6637:6655   */\n      0x44\n      dup3\n      add\n        /* \"#utility.yul\":6630:6685   */\n      mstore\n        /* \"#utility.yul\":6702:6720   */\n      0x64\n      add\n        /* \"contracts/token factory/LiquidityPool.sol\":8173:8278  require(IERC20(token0).transferFrom(msg.sender, address(this), amountIn), \"Failed to transfer tokens\"   ) */\n      tag_148\n        /* \"#utility.yul\":6377:6726   */\n      jump\n        /* \"contracts/token factory/LiquidityPool.sol\":8173:8278  require(IERC20(token0).transferFrom(msg.sender, address(this), amountIn), \"Failed to transfer tokens\"   ) */\n    tag_200:\n        /* \"contracts/token factory/LiquidityPool.sol\":8307:8344  msg.sender.call{value: amountOut}(\"\") */\n      mload(0x40)\n        /* \"contracts/token factory/LiquidityPool.sol\":8289:8301  bool success */\n      0x00\n      swap1\n        /* \"contracts/token factory/LiquidityPool.sol\":8307:8317  msg.sender */\n      caller\n      swap1\n        /* \"contracts/token factory/LiquidityPool.sol\":8330:8339  amountOut */\n      dup9\n      swap1\n        /* \"contracts/token factory/LiquidityPool.sol\":8289:8301  bool success */\n      dup4\n        /* \"contracts/token factory/LiquidityPool.sol\":8307:8344  msg.sender.call{value: amountOut}(\"\") */\n      dup2\n        /* \"contracts/token factory/LiquidityPool.sol\":8289:8301  bool success */\n      dup2\n        /* \"contracts/token factory/LiquidityPool.sol\":8307:8344  msg.sender.call{value: amountOut}(\"\") */\n      dup2\n        /* \"contracts/token factory/LiquidityPool.sol\":8330:8339  amountOut */\n      dup6\n        /* \"contracts/token factory/LiquidityPool.sol\":8307:8317  msg.sender */\n      dup8\n        /* \"contracts/token factory/LiquidityPool.sol\":8307:8344  msg.sender.call{value: amountOut}(\"\") */\n      gas\n      call\n      swap3\n      pop\n      pop\n      pop\n      returndatasize\n      dup1\n      0x00\n      dup2\n      eq\n      tag_206\n      jumpi\n      mload(0x40)\n      swap2\n      pop\n      and(add(returndatasize, 0x3f), not(0x1f))\n      dup3\n      add\n      0x40\n      mstore\n      returndatasize\n      dup3\n      mstore\n      returndatasize\n      0x00\n      0x20\n      dup5\n      add\n      returndatacopy\n      jump(tag_205)\n    tag_206:\n      0x60\n      swap2\n      pop\n    tag_205:\n      pop\n        /* \"contracts/token factory/LiquidityPool.sol\":8288:8344  (bool success, ) = msg.sender.call{value: amountOut}(\"\") */\n      pop\n      swap1\n      pop\n        /* \"contracts/token factory/LiquidityPool.sol\":8362:8369  success */\n      dup1\n        /* \"contracts/token factory/LiquidityPool.sol\":8354:8394  require(success, \"Failed to send ether\") */\n      tag_207\n      jumpi\n      mload(0x40)\n      shl(0xe5, 0x461bcd)\n      dup2\n      mstore\n        /* \"#utility.yul\":6933:6935   */\n      0x20\n        /* \"contracts/token factory/LiquidityPool.sol\":8354:8394  require(success, \"Failed to send ether\") */\n      0x04\n      dup3\n      add\n        /* \"#utility.yul\":6915:6936   */\n      mstore\n        /* \"#utility.yul\":6972:6974   */\n      0x14\n        /* \"#utility.yul\":6952:6970   */\n      0x24\n      dup3\n      add\n        /* \"#utility.yul\":6945:6975   */\n      mstore\n      shl(0x61, 0x2330b4b632b2103a379039b2b7321032ba3432b9)\n        /* \"#utility.yul\":6991:7009   */\n      0x44\n      dup3\n      add\n        /* \"#utility.yul\":6984:7034   */\n      mstore\n        /* \"#utility.yul\":7051:7069   */\n      0x64\n      add\n        /* \"contracts/token factory/LiquidityPool.sol\":8354:8394  require(success, \"Failed to send ether\") */\n      tag_148\n        /* \"#utility.yul\":6731:7075   */\n      jump\n        /* \"contracts/token factory/LiquidityPool.sol\":8354:8394  require(success, \"Failed to send ether\") */\n    tag_207:\n        /* \"contracts/token factory/LiquidityPool.sol\":8454:8461  sellTax */\n      sload(0x08)\n        /* \"contracts/token factory/LiquidityPool.sol\":8410:8462  TokensSold(msg.sender, amountIn, amountOut, sellTax) */\n      0x40\n      dup1\n      mload\n        /* \"#utility.yul\":7282:7307   */\n      dup11\n      dup2\n      mstore\n        /* \"#utility.yul\":7338:7340   */\n      0x20\n        /* \"#utility.yul\":7323:7341   */\n      dup2\n      add\n        /* \"#utility.yul\":7316:7350   */\n      dup11\n      swap1\n      mstore\n        /* \"#utility.yul\":7366:7384   */\n      swap1\n      dup2\n      add\n        /* \"#utility.yul\":7359:7393   */\n      swap2\n      swap1\n      swap2\n      mstore\n        /* \"contracts/token factory/LiquidityPool.sol\":8421:8431  msg.sender */\n      caller\n      swap1\n        /* \"contracts/token factory/LiquidityPool.sol\":8410:8462  TokensSold(msg.sender, amountIn, amountOut, sellTax) */\n      0x6db63bebf1e6540277744df32846ebdb98385b1a73f2d5de49b28348add63f50\n      swap1\n        /* \"#utility.yul\":7270:7272   */\n      0x60\n        /* \"#utility.yul\":7255:7273   */\n      add\n        /* \"contracts/token factory/LiquidityPool.sol\":8410:8462  TokensSold(msg.sender, amountIn, amountOut, sellTax) */\n      mload(0x40)\n      dup1\n      swap2\n      sub\n      swap1\n      log2\n        /* \"contracts/token factory/LiquidityPool.sol\":7368:8469  {... */\n      pop\n      pop\n      pop\n      pop\n      pop\n      pop\n        /* \"@openzeppelin/contracts/utils/ReentrancyGuard.sol\":2542:2562  _nonReentrantAfter() */\n      tag_212\n        /* \"@openzeppelin/contracts/utils/ReentrancyGuard.sol\":1857:1858  1 */\n      0x01\n        /* \"@openzeppelin/contracts/utils/ReentrancyGuard.sol\":3068:3075  _status */\n      0x00\n        /* \"@openzeppelin/contracts/utils/ReentrancyGuard.sol\":3068:3089  _status = NOT_ENTERED */\n      sstore\n        /* \"@openzeppelin/contracts/utils/ReentrancyGuard.sol\":2888:3096  function _nonReentrantAfter() private {... */\n      jump\n        /* \"@openzeppelin/contracts/utils/ReentrancyGuard.sol\":2542:2562  _nonReentrantAfter() */\n    tag_212:\n        /* \"contracts/token factory/LiquidityPool.sol\":7267:8469  function sellToken(... */\n      swap2\n      swap1\n      pop\n      jump\t// out\n        /* \"contracts/token factory/LiquidityPool.sol\":8589:8731  function updateBuyTax(uint256 newBuyTax) external onlyFactory {... */\n    tag_83:\n        /* \"contracts/token factory/LiquidityPool.sol\":1961:1973  tokenFactory */\n      and(sub(shl(0xa0, 0x01), 0x01), sload(0x02))\n        /* \"contracts/token factory/LiquidityPool.sol\":1947:1957  msg.sender */\n      caller\n        /* \"contracts/token factory/LiquidityPool.sol\":1947:1973  msg.sender == tokenFactory */\n      eq\n        /* \"contracts/token factory/LiquidityPool.sol\":1939:2008  require(msg.sender == tokenFactory, \"Caller is not the TokenFactory\") */\n      tag_215\n      jumpi\n      mload(0x40)\n      shl(0xe5, 0x461bcd)\n      dup2\n      mstore\n      0x04\n      add\n      tag_148\n      swap1\n      tag_149\n      jump\t// in\n    tag_215:\n        /* \"contracts/token factory/LiquidityPool.sol\":8661:8667  buyTax */\n      0x07\n        /* \"contracts/token factory/LiquidityPool.sol\":8661:8679  buyTax = newBuyTax */\n      dup2\n      swap1\n      sstore\n        /* \"contracts/token factory/LiquidityPool.sol\":8716:8723  sellTax */\n      sload(0x08)\n        /* \"contracts/token factory/LiquidityPool.sol\":8694:8724  TaxUpdated(newBuyTax, sellTax) */\n      0x40\n      dup1\n      mload\n        /* \"#utility.yul\":758:783   */\n      dup4\n      dup2\n      mstore\n        /* \"#utility.yul\":814:816   */\n      0x20\n        /* \"#utility.yul\":799:817   */\n      dup2\n      add\n        /* \"#utility.yul\":792:826   */\n      swap3\n      swap1\n      swap3\n      mstore\n        /* \"contracts/token factory/LiquidityPool.sol\":8694:8724  TaxUpdated(newBuyTax, sellTax) */\n      0xb841faf0d1b32571f4ef966a2f35e3ae51f3cdda45318c3da5570a5b2ad85605\n      swap2\n        /* \"#utility.yul\":731:749   */\n      add\n        /* \"contracts/token factory/LiquidityPool.sol\":8694:8724  TaxUpdated(newBuyTax, sellTax) */\n      tag_159\n        /* \"#utility.yul\":584:832   */\n      jump\n        /* \"contracts/token factory/LiquidityPool.sol\":3552:3807  function updateMigrationThreshold(uint256 newThreshold) external onlyFactory {... */\n    tag_111:\n        /* \"contracts/token factory/LiquidityPool.sol\":1961:1973  tokenFactory */\n      and(sub(shl(0xa0, 0x01), 0x01), sload(0x02))\n        /* \"contracts/token factory/LiquidityPool.sol\":1947:1957  msg.sender */\n      caller\n        /* \"contracts/token factory/LiquidityPool.sol\":1947:1973  msg.sender == tokenFactory */\n      eq\n        /* \"contracts/token factory/LiquidityPool.sol\":1939:2008  require(msg.sender == tokenFactory, \"Caller is not the TokenFactory\") */\n      tag_220\n      jumpi\n      mload(0x40)\n      shl(0xe5, 0x461bcd)\n      dup2\n      mstore\n      0x04\n      add\n      tag_148\n      swap1\n      tag_149\n      jump\t// in\n    tag_220:\n        /* \"contracts/token factory/LiquidityPool.sol\":3662:3663  0 */\n      0x00\n        /* \"contracts/token factory/LiquidityPool.sol\":3647:3659  newThreshold */\n      dup2\n        /* \"contracts/token factory/LiquidityPool.sol\":3647:3663  newThreshold > 0 */\n      gt\n        /* \"contracts/token factory/LiquidityPool.sol\":3639:3703  require(newThreshold > 0, \"Threshold must be greater than zero\") */\n      tag_223\n      jumpi\n      mload(0x40)\n      shl(0xe5, 0x461bcd)\n      dup2\n      mstore\n        /* \"#utility.yul\":7606:7608   */\n      0x20\n        /* \"contracts/token factory/LiquidityPool.sol\":3639:3703  require(newThreshold > 0, \"Threshold must be greater than zero\") */\n      0x04\n      dup3\n      add\n        /* \"#utility.yul\":7588:7609   */\n      mstore\n        /* \"#utility.yul\":7645:7647   */\n      0x23\n        /* \"#utility.yul\":7625:7643   */\n      0x24\n      dup3\n      add\n        /* \"#utility.yul\":7618:7648   */\n      mstore\n        /* \"#utility.yul\":7684:7718   */\n      0x5468726573686f6c64206d7573742062652067726561746572207468616e207a\n        /* \"#utility.yul\":7664:7682   */\n      0x44\n      dup3\n      add\n        /* \"#utility.yul\":7657:7719   */\n      mstore\n      shl(0xe8, 0x65726f)\n        /* \"#utility.yul\":7735:7753   */\n      0x64\n      dup3\n      add\n        /* \"#utility.yul\":7728:7761   */\n      mstore\n        /* \"#utility.yul\":7778:7797   */\n      0x84\n      add\n        /* \"contracts/token factory/LiquidityPool.sol\":3639:3703  require(newThreshold > 0, \"Threshold must be greater than zero\") */\n      tag_148\n        /* \"#utility.yul\":7404:7803   */\n      jump\n        /* \"contracts/token factory/LiquidityPool.sol\":3639:3703  require(newThreshold > 0, \"Threshold must be greater than zero\") */\n    tag_223:\n        /* \"contracts/token factory/LiquidityPool.sol\":3713:3731  migrationThreshold */\n      0x0a\n        /* \"contracts/token factory/LiquidityPool.sol\":3713:3746  migrationThreshold = newThreshold */\n      dup2\n      swap1\n      sstore\n        /* \"contracts/token factory/LiquidityPool.sol\":3761:3800  MigrationThresholdUpdated(newThreshold) */\n      mload(0x40)\n        /* \"#utility.yul\":160:185   */\n      dup2\n      dup2\n      mstore\n        /* \"contracts/token factory/LiquidityPool.sol\":3761:3800  MigrationThresholdUpdated(newThreshold) */\n      0x4ad9ae9229776f627d7d2be995964376397890e11bbfa94e8826810419a6ef6b\n      swap1\n        /* \"#utility.yul\":148:150   */\n      0x20\n        /* \"#utility.yul\":133:151   */\n      add\n        /* \"contracts/token factory/LiquidityPool.sol\":3761:3800  MigrationThresholdUpdated(newThreshold) */\n      tag_159\n        /* \"#utility.yul\":14:191   */\n      jump\n        /* \"contracts/token factory/LiquidityPool.sol\":2492:3109  function initialize(... */\n    tag_115:\n        /* \"contracts/token factory/LiquidityPool.sol\":1961:1973  tokenFactory */\n      and(sub(shl(0xa0, 0x01), 0x01), sload(0x02))\n        /* \"contracts/token factory/LiquidityPool.sol\":1947:1957  msg.sender */\n      caller\n        /* \"contracts/token factory/LiquidityPool.sol\":1947:1973  msg.sender == tokenFactory */\n      eq\n        /* \"contracts/token factory/LiquidityPool.sol\":1939:2008  require(msg.sender == tokenFactory, \"Caller is not the TokenFactory\") */\n      tag_228\n      jumpi\n      mload(0x40)\n      shl(0xe5, 0x461bcd)\n      dup2\n      mstore\n      0x04\n      add\n      tag_148\n      swap1\n      tag_149\n      jump\t// in\n    tag_228:\n        /* \"@openzeppelin/contracts/utils/ReentrancyGuard.sol\":2500:2521  _nonReentrantBefore() */\n      tag_231\n        /* \"@openzeppelin/contracts/utils/ReentrancyGuard.sol\":2500:2519  _nonReentrantBefore */\n      tag_162\n        /* \"@openzeppelin/contracts/utils/ReentrancyGuard.sol\":2500:2521  _nonReentrantBefore() */\n      jump\t// in\n    tag_231:\n        /* \"contracts/token factory/LiquidityPool.sol\":2762:2768  token0 */\n      and(sub(shl(0xa0, 0x01), 0x01), sload(0x01))\n        /* \"contracts/token factory/LiquidityPool.sol\":2762:2782  token0 == address(0) */\n      iszero\n        /* \"contracts/token factory/LiquidityPool.sol\":2754:2811  require(token0 == address(0), \"Pool already initialized\") */\n      tag_233\n      jumpi\n      mload(0x40)\n      shl(0xe5, 0x461bcd)\n      dup2\n      mstore\n        /* \"#utility.yul\":8010:8012   */\n      0x20\n        /* \"contracts/token factory/LiquidityPool.sol\":2754:2811  require(token0 == address(0), \"Pool already initialized\") */\n      0x04\n      dup3\n      add\n        /* \"#utility.yul\":7992:8013   */\n      mstore\n        /* \"#utility.yul\":8049:8051   */\n      0x18\n        /* \"#utility.yul\":8029:8047   */\n      0x24\n      dup3\n      add\n        /* \"#utility.yul\":8022:8052   */\n      mstore\n        /* \"#utility.yul\":8088:8114   */\n      0x506f6f6c20616c726561647920696e697469616c697a65640000000000000000\n        /* \"#utility.yul\":8068:8086   */\n      0x44\n      dup3\n      add\n        /* \"#utility.yul\":8061:8115   */\n      mstore\n        /* \"#utility.yul\":8132:8150   */\n      0x64\n      add\n        /* \"contracts/token factory/LiquidityPool.sol\":2754:2811  require(token0 == address(0), \"Pool already initialized\") */\n      tag_148\n        /* \"#utility.yul\":7808:8156   */\n      jump\n        /* \"contracts/token factory/LiquidityPool.sol\":2754:2811  require(token0 == address(0), \"Pool already initialized\") */\n    tag_233:\n        /* \"contracts/token factory/LiquidityPool.sol\":2822:2828  token0 */\n      0x01\n        /* \"contracts/token factory/LiquidityPool.sol\":2822:2838  token0 = _token0 */\n      dup1\n      sload\n      not(sub(shl(0xa0, 0x01), 0x01))\n      swap1\n      dup2\n      and\n      sub(shl(0xa0, 0x01), 0x01)\n      dup10\n      dup2\n      and\n      swap2\n      swap1\n      swap2\n      or\n      swap1\n      swap3\n      sstore\n        /* \"contracts/token factory/LiquidityPool.sol\":2848:2856  reserve0 */\n      0x05\n        /* \"contracts/token factory/LiquidityPool.sol\":2848:2879  reserve0 = _initialTokenReserve */\n      dup8\n      swap1\n      sstore\n        /* \"contracts/token factory/LiquidityPool.sol\":2889:2895  buyTax */\n      0x07\n        /* \"contracts/token factory/LiquidityPool.sol\":2889:2905  buyTax = _buyTax */\n      dup7\n      swap1\n      sstore\n        /* \"contracts/token factory/LiquidityPool.sol\":2915:2922  sellTax */\n      0x08\n        /* \"contracts/token factory/LiquidityPool.sol\":2915:2933  sellTax = _sellTax */\n      dup6\n      swap1\n      sstore\n        /* \"contracts/token factory/LiquidityPool.sol\":2943:2965  algebraPoolInitializer */\n      0x04\n        /* \"contracts/token factory/LiquidityPool.sol\":2943:2991  algebraPoolInitializer = _algebraPoolInitializer */\n      dup1\n      sload\n      swap1\n      swap2\n      and\n      swap2\n      dup5\n      and\n      swap2\n      swap1\n      swap2\n      or\n      swap1\n      sstore\n        /* \"contracts/token factory/LiquidityPool.sol\":3001:3021  autoMigrationEnabled */\n      0x09\n        /* \"contracts/token factory/LiquidityPool.sol\":3001:3038  autoMigrationEnabled = _automigration */\n      dup1\n      sload\n      not(0xff00)\n      and\n        /* \"contracts/token factory/LiquidityPool.sol\":2822:2838  token0 = _token0 */\n      0x0100\n        /* \"contracts/token factory/LiquidityPool.sol\":3001:3038  autoMigrationEnabled = _automigration */\n      dup4\n      iszero\n      iszero\n      mul\n      or\n      swap1\n      sstore\n        /* \"contracts/token factory/LiquidityPool.sol\":3054:3102  LiquidityAdded(msg.sender, _initialTokenReserve) */\n      mload(0x40)\n        /* \"#utility.yul\":160:185   */\n      dup6\n      dup2\n      mstore\n        /* \"contracts/token factory/LiquidityPool.sol\":3069:3079  msg.sender */\n      caller\n      swap1\n        /* \"contracts/token factory/LiquidityPool.sol\":3054:3102  LiquidityAdded(msg.sender, _initialTokenReserve) */\n      0xc17cea59c2955cb181b03393209566960365771dbba9dc3d510180e7cb312088\n      swap1\n        /* \"#utility.yul\":148:150   */\n      0x20\n        /* \"#utility.yul\":133:151   */\n      add\n        /* \"contracts/token factory/LiquidityPool.sol\":3054:3102  LiquidityAdded(msg.sender, _initialTokenReserve) */\n      mload(0x40)\n      dup1\n      swap2\n      sub\n      swap1\n      log2\n        /* \"@openzeppelin/contracts/utils/ReentrancyGuard.sol\":2542:2562  _nonReentrantAfter() */\n      tag_237\n        /* \"@openzeppelin/contracts/utils/ReentrancyGuard.sol\":1857:1858  1 */\n      0x01\n        /* \"@openzeppelin/contracts/utils/ReentrancyGuard.sol\":3068:3075  _status */\n      0x00\n        /* \"@openzeppelin/contracts/utils/ReentrancyGuard.sol\":3068:3089  _status = NOT_ENTERED */\n      sstore\n        /* \"@openzeppelin/contracts/utils/ReentrancyGuard.sol\":2888:3096  function _nonReentrantAfter() private {... */\n      jump\n        /* \"@openzeppelin/contracts/utils/ReentrancyGuard.sol\":2542:2562  _nonReentrantAfter() */\n    tag_237:\n        /* \"contracts/token factory/LiquidityPool.sol\":2492:3109  function initialize(... */\n      pop\n      pop\n      pop\n      pop\n      pop\n      pop\n      jump\t// out\n        /* \"contracts/token factory/LiquidityPool.sol\":8952:9374  function calculateSqrtPriceX96(uint256 amount0, uint256 amount1) public pure returns (uint160) {... */\n    tag_120:\n        /* \"contracts/token factory/LiquidityPool.sol\":9038:9045  uint160 */\n      0x00\n        /* \"contracts/token factory/LiquidityPool.sol\":9071:9072  0 */\n      dup1\n        /* \"contracts/token factory/LiquidityPool.sol\":9061:9068  amount0 */\n      dup4\n        /* \"contracts/token factory/LiquidityPool.sol\":9061:9072  amount0 > 0 */\n      gt\n        /* \"contracts/token factory/LiquidityPool.sol\":9061:9087  amount0 > 0 && amount1 > 0 */\n      dup1\n      iszero\n      tag_239\n      jumpi\n      pop\n        /* \"contracts/token factory/LiquidityPool.sol\":9086:9087  0 */\n      0x00\n        /* \"contracts/token factory/LiquidityPool.sol\":9076:9083  amount1 */\n      dup3\n        /* \"contracts/token factory/LiquidityPool.sol\":9076:9087  amount1 > 0 */\n      gt\n        /* \"contracts/token factory/LiquidityPool.sol\":9061:9087  amount0 > 0 && amount1 > 0 */\n    tag_239:\n        /* \"contracts/token factory/LiquidityPool.sol\":9053:9125  require(amount0 > 0 && amount1 > 0, \"Amounts must be greater than zero\") */\n      tag_240\n      jumpi\n      mload(0x40)\n      shl(0xe5, 0x461bcd)\n      dup2\n      mstore\n        /* \"#utility.yul\":8363:8365   */\n      0x20\n        /* \"contracts/token factory/LiquidityPool.sol\":9053:9125  require(amount0 > 0 && amount1 > 0, \"Amounts must be greater than zero\") */\n      0x04\n      dup3\n      add\n        /* \"#utility.yul\":8345:8366   */\n      mstore\n        /* \"#utility.yul\":8402:8404   */\n      0x21\n        /* \"#utility.yul\":8382:8400   */\n      0x24\n      dup3\n      add\n        /* \"#utility.yul\":8375:8405   */\n      mstore\n        /* \"#utility.yul\":8441:8475   */\n      0x416d6f756e7473206d7573742062652067726561746572207468616e207a6572\n        /* \"#utility.yul\":8421:8439   */\n      0x44\n      dup3\n      add\n        /* \"#utility.yul\":8414:8476   */\n      mstore\n      shl(0xf8, 0x6f)\n        /* \"#utility.yul\":8492:8510   */\n      0x64\n      dup3\n      add\n        /* \"#utility.yul\":8485:8516   */\n      mstore\n        /* \"#utility.yul\":8533:8552   */\n      0x84\n      add\n        /* \"contracts/token factory/LiquidityPool.sol\":9053:9125  require(amount0 > 0 && amount1 > 0, \"Amounts must be greater than zero\") */\n      tag_148\n        /* \"#utility.yul\":8161:8558   */\n      jump\n        /* \"contracts/token factory/LiquidityPool.sol\":9053:9125  require(amount0 > 0 && amount1 > 0, \"Amounts must be greater than zero\") */\n    tag_240:\n        /* \"contracts/token factory/LiquidityPool.sol\":9131:9144  uint256 ratio */\n      0x00\n        /* \"contracts/token factory/LiquidityPool.sol\":9147:9172  (amount1 << 96) / amount0 */\n      tag_243\n        /* \"contracts/token factory/LiquidityPool.sol\":9165:9172  amount0 */\n      dup5\n        /* \"contracts/token factory/LiquidityPool.sol\":9159:9161  96 */\n      0x60\n        /* \"contracts/token factory/LiquidityPool.sol\":9148:9161  amount1 << 96 */\n      dup6\n      swap1\n      shl\n        /* \"contracts/token factory/LiquidityPool.sol\":9147:9172  (amount1 << 96) / amount0 */\n      tag_175\n      jump\t// in\n    tag_243:\n        /* \"contracts/token factory/LiquidityPool.sol\":9131:9172  uint256 ratio = (amount1 << 96) / amount0 */\n      swap1\n      pop\n        /* \"contracts/token factory/LiquidityPool.sol\":9246:9266  uint160 sqrtPriceX96 */\n      0x00\n        /* \"contracts/token factory/LiquidityPool.sol\":9292:9294  48 */\n      0x30\n        /* \"contracts/token factory/LiquidityPool.sol\":9277:9288  sqrt(ratio) */\n      tag_244\n        /* \"contracts/token factory/LiquidityPool.sol\":9282:9287  ratio */\n      dup4\n        /* \"contracts/token factory/LiquidityPool.sol\":9277:9281  sqrt */\n      tag_245\n        /* \"contracts/token factory/LiquidityPool.sol\":9277:9288  sqrt(ratio) */\n      jump\t// in\n    tag_244:\n        /* \"contracts/token factory/LiquidityPool.sol\":9277:9294  sqrt(ratio) << 48 */\n      swap1\n      shl\n      swap3\n      pop\n      pop\n      pop\n        /* \"contracts/token factory/LiquidityPool.sol\":8952:9374  function calculateSqrtPriceX96(uint256 amount0, uint256 amount1) public pure returns (uint160) {... */\n    tag_238:\n      swap3\n      swap2\n      pop\n      pop\n      jump\t// out\n        /* \"contracts/token factory/LiquidityPool.sol\":5516:7261  function buyToken()... */\n    tag_124:\n        /* \"contracts/token factory/LiquidityPool.sol\":5607:5624  uint256 amountOut */\n      0x00\n        /* \"@openzeppelin/contracts/utils/ReentrancyGuard.sol\":2500:2521  _nonReentrantBefore() */\n      tag_247\n        /* \"@openzeppelin/contracts/utils/ReentrancyGuard.sol\":2500:2519  _nonReentrantBefore */\n      tag_162\n        /* \"@openzeppelin/contracts/utils/ReentrancyGuard.sol\":2500:2521  _nonReentrantBefore() */\n      jump\t// in\n    tag_247:\n        /* \"contracts/token factory/LiquidityPool.sol\":5649:5666  migratedToAlgebra */\n      and(0xff, sload(0x09))\n        /* \"contracts/token factory/LiquidityPool.sol\":5648:5666  !migratedToAlgebra */\n      iszero\n        /* \"contracts/token factory/LiquidityPool.sol\":5640:5695  require(!migratedToAlgebra, \"Pool migrated to Algebra\") */\n      tag_249\n      jumpi\n      mload(0x40)\n      shl(0xe5, 0x461bcd)\n      dup2\n      mstore\n        /* \"#utility.yul\":8765:8767   */\n      0x20\n        /* \"contracts/token factory/LiquidityPool.sol\":5640:5695  require(!migratedToAlgebra, \"Pool migrated to Algebra\") */\n      0x04\n      dup3\n      add\n        /* \"#utility.yul\":8747:8768   */\n      mstore\n        /* \"#utility.yul\":8804:8806   */\n      0x18\n        /* \"#utility.yul\":8784:8802   */\n      0x24\n      dup3\n      add\n        /* \"#utility.yul\":8777:8807   */\n      mstore\n        /* \"#utility.yul\":8843:8869   */\n      0x506f6f6c206d6967726174656420746f20416c67656272610000000000000000\n        /* \"#utility.yul\":8823:8841   */\n      0x44\n      dup3\n      add\n        /* \"#utility.yul\":8816:8870   */\n      mstore\n        /* \"#utility.yul\":8887:8905   */\n      0x64\n      add\n        /* \"contracts/token factory/LiquidityPool.sol\":5640:5695  require(!migratedToAlgebra, \"Pool migrated to Algebra\") */\n      tag_148\n        /* \"#utility.yul\":8563:8911   */\n      jump\n        /* \"contracts/token factory/LiquidityPool.sol\":5640:5695  require(!migratedToAlgebra, \"Pool migrated to Algebra\") */\n    tag_249:\n        /* \"contracts/token factory/LiquidityPool.sol\":5725:5726  0 */\n      0x00\n        /* \"contracts/token factory/LiquidityPool.sol\":5713:5722  msg.value */\n      callvalue\n        /* \"contracts/token factory/LiquidityPool.sol\":5713:5726  msg.value > 0 */\n      gt\n        /* \"contracts/token factory/LiquidityPool.sol\":5705:5760  require(msg.value > 0, \"Must send Ether to buy tokens\") */\n      tag_252\n      jumpi\n      mload(0x40)\n      shl(0xe5, 0x461bcd)\n      dup2\n      mstore\n        /* \"#utility.yul\":9118:9120   */\n      0x20\n        /* \"contracts/token factory/LiquidityPool.sol\":5705:5760  require(msg.value > 0, \"Must send Ether to buy tokens\") */\n      0x04\n      dup3\n      add\n        /* \"#utility.yul\":9100:9121   */\n      mstore\n        /* \"#utility.yul\":9157:9159   */\n      0x1d\n        /* \"#utility.yul\":9137:9155   */\n      0x24\n      dup3\n      add\n        /* \"#utility.yul\":9130:9160   */\n      mstore\n        /* \"#utility.yul\":9196:9227   */\n      0x4d7573742073656e6420457468657220746f2062757920746f6b656e73000000\n        /* \"#utility.yul\":9176:9194   */\n      0x44\n      dup3\n      add\n        /* \"#utility.yul\":9169:9228   */\n      mstore\n        /* \"#utility.yul\":9245:9263   */\n      0x64\n      add\n        /* \"contracts/token factory/LiquidityPool.sol\":5705:5760  require(msg.value > 0, \"Must send Ether to buy tokens\") */\n      tag_148\n        /* \"#utility.yul\":8916:9269   */\n      jump\n        /* \"contracts/token factory/LiquidityPool.sol\":5705:5760  require(msg.value > 0, \"Must send Ether to buy tokens\") */\n    tag_252:\n        /* \"contracts/token factory/LiquidityPool.sol\":5789:5798  0.2 ether */\n      0x02c68af0bb140000\n        /* \"contracts/token factory/LiquidityPool.sol\":5778:5786  reserve1 */\n      sload(0x06)\n        /* \"contracts/token factory/LiquidityPool.sol\":5778:5798  reserve1 < 0.2 ether */\n      lt\n        /* \"contracts/token factory/LiquidityPool.sol\":5770:5815  require(reserve1 < 0.2 ether, \"Pool is full\") */\n      tag_255\n      jumpi\n      mload(0x40)\n      shl(0xe5, 0x461bcd)\n      dup2\n      mstore\n        /* \"#utility.yul\":9476:9478   */\n      0x20\n        /* \"contracts/token factory/LiquidityPool.sol\":5770:5815  require(reserve1 < 0.2 ether, \"Pool is full\") */\n      0x04\n      dup3\n      add\n        /* \"#utility.yul\":9458:9479   */\n      mstore\n        /* \"#utility.yul\":9515:9517   */\n      0x0c\n        /* \"#utility.yul\":9495:9513   */\n      0x24\n      dup3\n      add\n        /* \"#utility.yul\":9488:9518   */\n      mstore\n      shl(0xa2, 0x141bdbdb081a5cc8199d5b1b)\n        /* \"#utility.yul\":9534:9552   */\n      0x44\n      dup3\n      add\n        /* \"#utility.yul\":9527:9569   */\n      mstore\n        /* \"#utility.yul\":9586:9604   */\n      0x64\n      add\n        /* \"contracts/token factory/LiquidityPool.sol\":5770:5815  require(reserve1 < 0.2 ether, \"Pool is full\") */\n      tag_148\n        /* \"#utility.yul\":9274:9610   */\n      jump\n        /* \"contracts/token factory/LiquidityPool.sol\":5770:5815  require(reserve1 < 0.2 ether, \"Pool is full\") */\n    tag_255:\n        /* \"contracts/token factory/LiquidityPool.sol\":5844:5845  0 */\n      0x00\n        /* \"contracts/token factory/LiquidityPool.sol\":5833:5841  reserve0 */\n      sload(0x05)\n        /* \"contracts/token factory/LiquidityPool.sol\":5833:5845  reserve0 > 0 */\n      gt\n        /* \"contracts/token factory/LiquidityPool.sol\":5825:5871  require(reserve0 > 0, \"No tokens in the pool\") */\n      tag_258\n      jumpi\n      mload(0x40)\n      shl(0xe5, 0x461bcd)\n      dup2\n      mstore\n        /* \"#utility.yul\":9817:9819   */\n      0x20\n        /* \"contracts/token factory/LiquidityPool.sol\":5825:5871  require(reserve0 > 0, \"No tokens in the pool\") */\n      0x04\n      dup3\n      add\n        /* \"#utility.yul\":9799:9820   */\n      mstore\n        /* \"#utility.yul\":9856:9858   */\n      0x15\n        /* \"#utility.yul\":9836:9854   */\n      0x24\n      dup3\n      add\n        /* \"#utility.yul\":9829:9859   */\n      mstore\n      shl(0x5a, 0x139bc81d1bdad95b9cc81a5b881d1a19481c1bdbdb)\n        /* \"#utility.yul\":9875:9893   */\n      0x44\n      dup3\n      add\n        /* \"#utility.yul\":9868:9919   */\n      mstore\n        /* \"#utility.yul\":9936:9954   */\n      0x64\n      add\n        /* \"contracts/token factory/LiquidityPool.sol\":5825:5871  require(reserve0 > 0, \"No tokens in the pool\") */\n      tag_148\n        /* \"#utility.yul\":9615:9960   */\n      jump\n        /* \"contracts/token factory/LiquidityPool.sol\":5825:5871  require(reserve0 > 0, \"No tokens in the pool\") */\n    tag_258:\n        /* \"contracts/token factory/LiquidityPool.sol\":5882:5893  uint256 tax */\n      0x00\n        /* \"contracts/token factory/LiquidityPool.sol\":5919:5923  1000 */\n      0x03e8\n        /* \"contracts/token factory/LiquidityPool.sol\":5909:5915  buyTax */\n      sload(0x07)\n        /* \"contracts/token factory/LiquidityPool.sol\":5897:5906  msg.value */\n      callvalue\n        /* \"contracts/token factory/LiquidityPool.sol\":5897:5915  msg.value * buyTax */\n      tag_261\n      swap2\n      swap1\n      tag_173\n      jump\t// in\n    tag_261:\n        /* \"contracts/token factory/LiquidityPool.sol\":5896:5923  (msg.value * buyTax) / 1000 */\n      tag_262\n      swap2\n      swap1\n      tag_175\n      jump\t// in\n    tag_262:\n        /* \"contracts/token factory/LiquidityPool.sol\":5882:5923  uint256 tax = (msg.value * buyTax) / 1000 */\n      swap1\n      pop\n        /* \"contracts/token factory/LiquidityPool.sol\":5933:5957  uint256 amountInAfterTax */\n      0x00\n        /* \"contracts/token factory/LiquidityPool.sol\":5960:5975  msg.value - tax */\n      tag_263\n        /* \"contracts/token factory/LiquidityPool.sol\":5882:5923  uint256 tax = (msg.value * buyTax) / 1000 */\n      dup3\n        /* \"contracts/token factory/LiquidityPool.sol\":5960:5969  msg.value */\n      callvalue\n        /* \"contracts/token factory/LiquidityPool.sol\":5960:5975  msg.value - tax */\n      tag_178\n      jump\t// in\n    tag_263:\n        /* \"contracts/token factory/LiquidityPool.sol\":5933:5975  uint256 amountInAfterTax = msg.value - tax */\n      swap1\n      pop\n        /* \"contracts/token factory/LiquidityPool.sol\":6021:6030  0.2 ether */\n      0x02c68af0bb140000\n        /* \"contracts/token factory/LiquidityPool.sol\":6001:6017  amountInAfterTax */\n      dup2\n        /* \"contracts/token factory/LiquidityPool.sol\":5990:5998  reserve1 */\n      sload(0x06)\n        /* \"contracts/token factory/LiquidityPool.sol\":5990:6017  reserve1 + amountInAfterTax */\n      tag_264\n      swap2\n      swap1\n      tag_168\n      jump\t// in\n    tag_264:\n        /* \"contracts/token factory/LiquidityPool.sol\":5990:6030  reserve1 + amountInAfterTax >= 0.2 ether */\n      lt\n        /* \"contracts/token factory/LiquidityPool.sol\":5986:6978  if (reserve1 + amountInAfterTax >= 0.2 ether) {... */\n      tag_265\n      jumpi\n        /* \"contracts/token factory/LiquidityPool.sol\":6046:6064  uint256 etherToUse */\n      0x00\n        /* \"contracts/token factory/LiquidityPool.sol\":6079:6087  reserve1 */\n      sload(0x06)\n        /* \"contracts/token factory/LiquidityPool.sol\":6067:6076  0.2 ether */\n      0x02c68af0bb140000\n        /* \"contracts/token factory/LiquidityPool.sol\":6067:6087  0.2 ether - reserve1 */\n      tag_266\n      swap2\n      swap1\n      tag_178\n      jump\t// in\n    tag_266:\n        /* \"contracts/token factory/LiquidityPool.sol\":6046:6087  uint256 etherToUse = 0.2 ether - reserve1 */\n      swap1\n      pop\n        /* \"contracts/token factory/LiquidityPool.sol\":6101:6115  uint256 refund */\n      0x00\n        /* \"contracts/token factory/LiquidityPool.sol\":6118:6147  amountInAfterTax - etherToUse */\n      tag_267\n        /* \"contracts/token factory/LiquidityPool.sol\":6046:6087  uint256 etherToUse = 0.2 ether - reserve1 */\n      dup3\n        /* \"contracts/token factory/LiquidityPool.sol\":6118:6134  amountInAfterTax */\n      dup5\n        /* \"contracts/token factory/LiquidityPool.sol\":6118:6147  amountInAfterTax - etherToUse */\n      tag_178\n      jump\t// in\n    tag_267:\n        /* \"contracts/token factory/LiquidityPool.sol\":6101:6147  uint256 refund = amountInAfterTax - etherToUse */\n      swap1\n      pop\n        /* \"contracts/token factory/LiquidityPool.sol\":6174:6184  etherToUse */\n      dup2\n        /* \"contracts/token factory/LiquidityPool.sol\":6162:6170  reserve1 */\n      0x06\n      0x00\n        /* \"contracts/token factory/LiquidityPool.sol\":6162:6184  reserve1 += etherToUse */\n      dup3\n      dup3\n      sload\n      tag_268\n      swap2\n      swap1\n      tag_168\n      jump\t// in\n    tag_268:\n      swap1\n      swap2\n      sstore\n      pop\n      pop\n        /* \"contracts/token factory/LiquidityPool.sol\":6210:6218  reserve0 */\n      0x05\n      dup1\n      sload\n        /* \"contracts/token factory/LiquidityPool.sol\":6243:6244  0 */\n      0x00\n        /* \"contracts/token factory/LiquidityPool.sol\":6232:6244  reserve0 = 0 */\n      swap1\n      swap2\n      sstore\n        /* \"contracts/token factory/LiquidityPool.sol\":6210:6218  reserve0 */\n      swap5\n      pop\n        /* \"contracts/token factory/LiquidityPool.sol\":6263:6273  refund > 0 */\n      dup1\n      iszero\n        /* \"contracts/token factory/LiquidityPool.sol\":6259:6434  if (refund > 0) {... */\n      tag_269\n      jumpi\n        /* \"contracts/token factory/LiquidityPool.sol\":6315:6349  msg.sender.call{value: refund}(\"\") */\n      mload(0x40)\n        /* \"contracts/token factory/LiquidityPool.sol\":6294:6309  bool refundSent */\n      0x00\n      swap1\n        /* \"contracts/token factory/LiquidityPool.sol\":6315:6325  msg.sender */\n      caller\n      swap1\n        /* \"contracts/token factory/LiquidityPool.sol\":6338:6344  refund */\n      dup4\n      swap1\n        /* \"contracts/token factory/LiquidityPool.sol\":6294:6309  bool refundSent */\n      dup4\n        /* \"contracts/token factory/LiquidityPool.sol\":6315:6349  msg.sender.call{value: refund}(\"\") */\n      dup2\n        /* \"contracts/token factory/LiquidityPool.sol\":6294:6309  bool refundSent */\n      dup2\n        /* \"contracts/token factory/LiquidityPool.sol\":6315:6349  msg.sender.call{value: refund}(\"\") */\n      dup2\n        /* \"contracts/token factory/LiquidityPool.sol\":6338:6344  refund */\n      dup6\n        /* \"contracts/token factory/LiquidityPool.sol\":6315:6325  msg.sender */\n      dup8\n        /* \"contracts/token factory/LiquidityPool.sol\":6315:6349  msg.sender.call{value: refund}(\"\") */\n      gas\n      call\n      swap3\n      pop\n      pop\n      pop\n      returndatasize\n      dup1\n      0x00\n      dup2\n      eq\n      tag_273\n      jumpi\n      mload(0x40)\n      swap2\n      pop\n      and(add(returndatasize, 0x3f), not(0x1f))\n      dup3\n      add\n      0x40\n      mstore\n      returndatasize\n      dup3\n      mstore\n      returndatasize\n      0x00\n      0x20\n      dup5\n      add\n      returndatacopy\n      jump(tag_272)\n    tag_273:\n      0x60\n      swap2\n      pop\n    tag_272:\n      pop\n        /* \"contracts/token factory/LiquidityPool.sol\":6293:6349  (bool refundSent, ) = msg.sender.call{value: refund}(\"\") */\n      pop\n      swap1\n      pop\n        /* \"contracts/token factory/LiquidityPool.sol\":6375:6385  refundSent */\n      dup1\n        /* \"contracts/token factory/LiquidityPool.sol\":6367:6419  require(refundSent, \"Failed to refund excess ether\") */\n      tag_274\n      jumpi\n      mload(0x40)\n      shl(0xe5, 0x461bcd)\n      dup2\n      mstore\n        /* \"#utility.yul\":10167:10169   */\n      0x20\n        /* \"contracts/token factory/LiquidityPool.sol\":6367:6419  require(refundSent, \"Failed to refund excess ether\") */\n      0x04\n      dup3\n      add\n        /* \"#utility.yul\":10149:10170   */\n      mstore\n        /* \"#utility.yul\":10206:10208   */\n      0x1d\n        /* \"#utility.yul\":10186:10204   */\n      0x24\n      dup3\n      add\n        /* \"#utility.yul\":10179:10209   */\n      mstore\n        /* \"#utility.yul\":10245:10276   */\n      0x4661696c656420746f20726566756e6420657863657373206574686572000000\n        /* \"#utility.yul\":10225:10243   */\n      0x44\n      dup3\n      add\n        /* \"#utility.yul\":10218:10277   */\n      mstore\n        /* \"#utility.yul\":10294:10312   */\n      0x64\n      add\n        /* \"contracts/token factory/LiquidityPool.sol\":6367:6419  require(refundSent, \"Failed to refund excess ether\") */\n      tag_148\n        /* \"#utility.yul\":9965:10318   */\n      jump\n        /* \"contracts/token factory/LiquidityPool.sol\":6367:6419  require(refundSent, \"Failed to refund excess ether\") */\n    tag_274:\n        /* \"contracts/token factory/LiquidityPool.sol\":6275:6434  {... */\n      pop\n        /* \"contracts/token factory/LiquidityPool.sol\":6259:6434  if (refund > 0) {... */\n    tag_269:\n        /* \"contracts/token factory/LiquidityPool.sol\":6032:6444  {... */\n      pop\n      pop\n        /* \"contracts/token factory/LiquidityPool.sol\":5986:6978  if (reserve1 + amountInAfterTax >= 0.2 ether) {... */\n      jump(tag_277)\n    tag_265:\n        /* \"contracts/token factory/LiquidityPool.sol\":6464:6483  uint256 newReserve1 */\n      0x00\n        /* \"contracts/token factory/LiquidityPool.sol\":6497:6513  amountInAfterTax */\n      dup2\n        /* \"contracts/token factory/LiquidityPool.sol\":6486:6494  reserve1 */\n      sload(0x06)\n        /* \"contracts/token factory/LiquidityPool.sol\":6486:6513  reserve1 + amountInAfterTax */\n      tag_278\n      swap2\n      swap1\n      tag_168\n      jump\t// in\n    tag_278:\n        /* \"contracts/token factory/LiquidityPool.sol\":6464:6513  uint256 newReserve1 = reserve1 + amountInAfterTax */\n      swap1\n      pop\n        /* \"contracts/token factory/LiquidityPool.sol\":6527:6543  uint256 quotient */\n      0x00\n        /* \"contracts/token factory/LiquidityPool.sol\":6623:6650  newReserve1 + Y_DELTA_LOWER */\n      tag_279\n        /* \"contracts/token factory/LiquidityPool.sol\":410:427  31864892854290958 */\n      0x7134f38362ca0e\n        /* \"contracts/token factory/LiquidityPool.sol\":6464:6513  uint256 newReserve1 = reserve1 + amountInAfterTax */\n      dup4\n        /* \"contracts/token factory/LiquidityPool.sol\":6623:6650  newReserve1 + Y_DELTA_LOWER */\n      tag_168\n      jump\t// in\n    tag_279:\n        /* \"contracts/token factory/LiquidityPool.sol\":473:490  31864892854294116 */\n      0x7134f38362d664\n        /* \"contracts/token factory/LiquidityPool.sol\":6593:6601  reserve1 */\n      sload(0x06)\n        /* \"contracts/token factory/LiquidityPool.sol\":6593:6617  reserve1 + Y_DELTA_UPPER */\n      tag_280\n      swap2\n      swap1\n      tag_168\n      jump\t// in\n    tag_280:\n        /* \"contracts/token factory/LiquidityPool.sol\":337:364  257627658726993462773682809 */\n      0xd51ac75d3cbca700901279\n        /* \"contracts/token factory/LiquidityPool.sol\":6548:6556  reserve0 */\n      sload(0x05)\n        /* \"contracts/token factory/LiquidityPool.sol\":6548:6572  reserve0 + X_DELTA_UPPER */\n      tag_281\n      swap2\n      swap1\n      tag_168\n      jump\t// in\n    tag_281:\n        /* \"contracts/token factory/LiquidityPool.sol\":6547:6618  (reserve0 + X_DELTA_UPPER) *... */\n      tag_282\n      swap2\n      swap1\n      tag_173\n      jump\t// in\n    tag_282:\n        /* \"contracts/token factory/LiquidityPool.sol\":6546:6651  ((reserve0 + X_DELTA_UPPER) *... */\n      tag_283\n      swap2\n      swap1\n      tag_175\n      jump\t// in\n    tag_283:\n        /* \"contracts/token factory/LiquidityPool.sol\":6527:6651  uint256 quotient = ((reserve0 + X_DELTA_UPPER) *... */\n      swap1\n      pop\n        /* \"contracts/token factory/LiquidityPool.sol\":264:291  257627658726967931872702964 */\n      0xd51ac75d3ca56ea04771f4\n        /* \"contracts/token factory/LiquidityPool.sol\":6669:6677  quotient */\n      dup2\n        /* \"contracts/token factory/LiquidityPool.sol\":6669:6693  quotient < X_DELTA_LOWER */\n      lt\n        /* \"contracts/token factory/LiquidityPool.sol\":6665:6752  if (quotient < X_DELTA_LOWER) {... */\n      iszero\n      tag_284\n      jumpi\n      pop\n        /* \"contracts/token factory/LiquidityPool.sol\":264:291  257627658726967931872702964 */\n      0xd51ac75d3ca56ea04771f4\n        /* \"contracts/token factory/LiquidityPool.sol\":6665:6752  if (quotient < X_DELTA_LOWER) {... */\n    tag_284:\n        /* \"contracts/token factory/LiquidityPool.sol\":6765:6784  uint256 newReserve0 */\n      0x00\n        /* \"contracts/token factory/LiquidityPool.sol\":6787:6811  quotient - X_DELTA_LOWER */\n      tag_285\n        /* \"contracts/token factory/LiquidityPool.sol\":264:291  257627658726967931872702964 */\n      0xd51ac75d3ca56ea04771f4\n        /* \"contracts/token factory/LiquidityPool.sol\":6787:6795  quotient */\n      dup4\n        /* \"contracts/token factory/LiquidityPool.sol\":6787:6811  quotient - X_DELTA_LOWER */\n      tag_178\n      jump\t// in\n    tag_285:\n        /* \"contracts/token factory/LiquidityPool.sol\":6765:6811  uint256 newReserve0 = quotient - X_DELTA_LOWER */\n      swap1\n      pop\n        /* \"contracts/token factory/LiquidityPool.sol\":6851:6859  reserve0 */\n      sload(0x05)\n        /* \"contracts/token factory/LiquidityPool.sol\":6837:6848  newReserve0 */\n      dup2\n        /* \"contracts/token factory/LiquidityPool.sol\":6837:6859  newReserve0 > reserve0 */\n      gt\n        /* \"contracts/token factory/LiquidityPool.sol\":6837:6895  newReserve0 > reserve0 ? reserve0 : reserve0 - newReserve0 */\n      tag_286\n      jumpi\n        /* \"contracts/token factory/LiquidityPool.sol\":6884:6895  newReserve0 */\n      dup1\n        /* \"contracts/token factory/LiquidityPool.sol\":6873:6881  reserve0 */\n      sload(0x05)\n        /* \"contracts/token factory/LiquidityPool.sol\":6873:6895  reserve0 - newReserve0 */\n      tag_287\n      swap2\n      swap1\n      tag_178\n      jump\t// in\n    tag_287:\n        /* \"contracts/token factory/LiquidityPool.sol\":6837:6895  newReserve0 > reserve0 ? reserve0 : reserve0 - newReserve0 */\n      jump(tag_288)\n    tag_286:\n        /* \"contracts/token factory/LiquidityPool.sol\":6862:6870  reserve0 */\n      sload(0x05)\n        /* \"contracts/token factory/LiquidityPool.sol\":6837:6895  newReserve0 > reserve0 ? reserve0 : reserve0 - newReserve0 */\n    tag_288:\n        /* \"contracts/token factory/LiquidityPool.sol\":6825:6895  amountOut = newReserve0 > reserve0 ? reserve0 : reserve0 - newReserve0 */\n      swap6\n      pop\n        /* \"contracts/token factory/LiquidityPool.sol\":6921:6932  newReserve1 */\n      dup3\n        /* \"contracts/token factory/LiquidityPool.sol\":6910:6918  reserve1 */\n      0x06\n        /* \"contracts/token factory/LiquidityPool.sol\":6910:6932  reserve1 = newReserve1 */\n      dup2\n      swap1\n      sstore\n      pop\n        /* \"contracts/token factory/LiquidityPool.sol\":6958:6967  amountOut */\n      dup6\n        /* \"contracts/token factory/LiquidityPool.sol\":6946:6954  reserve0 */\n      0x05\n      0x00\n        /* \"contracts/token factory/LiquidityPool.sol\":6946:6967  reserve0 -= amountOut */\n      dup3\n      dup3\n      sload\n      tag_289\n      swap2\n      swap1\n      tag_178\n      jump\t// in\n    tag_289:\n      swap1\n      swap2\n      sstore\n      pop\n      pop\n      pop\n      pop\n      pop\n        /* \"contracts/token factory/LiquidityPool.sol\":5986:6978  if (reserve1 + amountInAfterTax >= 0.2 ether) {... */\n    tag_277:\n        /* \"contracts/token factory/LiquidityPool.sol\":7003:7009  token0 */\n      sload(0x01)\n        /* \"contracts/token factory/LiquidityPool.sol\":6996:7042  IERC20(token0).transfer(msg.sender, amountOut) */\n      mload(0x40)\n      shl(0xe0, 0xa9059cbb)\n      dup2\n      mstore\n        /* \"contracts/token factory/LiquidityPool.sol\":7020:7030  msg.sender */\n      caller\n        /* \"contracts/token factory/LiquidityPool.sol\":6996:7042  IERC20(token0).transfer(msg.sender, amountOut) */\n      0x04\n      dup3\n      add\n        /* \"#utility.yul\":10497:10548   */\n      mstore\n        /* \"#utility.yul\":10564:10582   */\n      0x24\n      dup2\n      add\n        /* \"#utility.yul\":10557:10591   */\n      dup6\n      swap1\n      mstore\n      sub(shl(0xa0, 0x01), 0x01)\n        /* \"contracts/token factory/LiquidityPool.sol\":7003:7009  token0 */\n      swap1\n      swap2\n      and\n      swap1\n        /* \"contracts/token factory/LiquidityPool.sol\":6996:7019  IERC20(token0).transfer */\n      0xa9059cbb\n      swap1\n        /* \"#utility.yul\":10470:10488   */\n      0x44\n      add\n        /* \"contracts/token factory/LiquidityPool.sol\":6996:7042  IERC20(token0).transfer(msg.sender, amountOut) */\n      0x20\n      mload(0x40)\n      dup1\n      dup4\n      sub\n      dup2\n      0x00\n      dup8\n      gas\n      call\n      iszero\n      dup1\n      iszero\n      tag_293\n      jumpi\n      returndatasize\n      0x00\n      dup1\n      returndatacopy\n      revert(0x00, returndatasize)\n    tag_293:\n      pop\n      pop\n      pop\n      pop\n      mload(0x40)\n      returndatasize\n      not(0x1f)\n      0x1f\n      dup3\n      add\n      and\n      dup3\n      add\n      dup1\n      0x40\n      mstore\n      pop\n      dup2\n      add\n      swap1\n      tag_294\n      swap2\n      swap1\n      tag_199\n      jump\t// in\n    tag_294:\n        /* \"contracts/token factory/LiquidityPool.sol\":6988:7072  require(IERC20(token0).transfer(msg.sender, amountOut), \"Failed to transfer tokens\") */\n      tag_295\n      jumpi\n      mload(0x40)\n      shl(0xe5, 0x461bcd)\n      dup2\n      mstore\n        /* \"#utility.yul\":6579:6581   */\n      0x20\n        /* \"contracts/token factory/LiquidityPool.sol\":6988:7072  require(IERC20(token0).transfer(msg.sender, amountOut), \"Failed to transfer tokens\") */\n      0x04\n      dup3\n      add\n        /* \"#utility.yul\":6561:6582   */\n      mstore\n        /* \"#utility.yul\":6618:6620   */\n      0x19\n        /* \"#utility.yul\":6598:6616   */\n      0x24\n      dup3\n      add\n        /* \"#utility.yul\":6591:6621   */\n      mstore\n      shl(0x38, 0x4661696c656420746f207472616e7366657220746f6b656e73)\n        /* \"#utility.yul\":6637:6655   */\n      0x44\n      dup3\n      add\n        /* \"#utility.yul\":6630:6685   */\n      mstore\n        /* \"#utility.yul\":6702:6720   */\n      0x64\n      add\n        /* \"contracts/token factory/LiquidityPool.sol\":6988:7072  require(IERC20(token0).transfer(msg.sender, amountOut), \"Failed to transfer tokens\") */\n      tag_148\n        /* \"#utility.yul\":6377:6726   */\n      jump\n        /* \"contracts/token factory/LiquidityPool.sol\":6988:7072  require(IERC20(token0).transfer(msg.sender, amountOut), \"Failed to transfer tokens\") */\n    tag_295:\n        /* \"contracts/token factory/LiquidityPool.sol\":7102:7112  devAddress */\n      sload(0x03)\n        /* \"contracts/token factory/LiquidityPool.sol\":7102:7133  devAddress.call{value: tax}(\"\") */\n      mload(0x40)\n        /* \"contracts/token factory/LiquidityPool.sol\":7084:7096  bool taxSent */\n      0x00\n      swap2\n      sub(shl(0xa0, 0x01), 0x01)\n        /* \"contracts/token factory/LiquidityPool.sol\":7102:7112  devAddress */\n      and\n      swap1\n        /* \"contracts/token factory/LiquidityPool.sol\":7125:7128  tax */\n      dup5\n      swap1\n        /* \"contracts/token factory/LiquidityPool.sol\":7084:7096  bool taxSent */\n      dup4\n        /* \"contracts/token factory/LiquidityPool.sol\":7102:7133  devAddress.call{value: tax}(\"\") */\n      dup2\n        /* \"contracts/token factory/LiquidityPool.sol\":7084:7096  bool taxSent */\n      dup2\n        /* \"contracts/token factory/LiquidityPool.sol\":7102:7133  devAddress.call{value: tax}(\"\") */\n      dup2\n        /* \"contracts/token factory/LiquidityPool.sol\":7125:7128  tax */\n      dup6\n        /* \"contracts/token factory/LiquidityPool.sol\":7102:7112  devAddress */\n      dup8\n        /* \"contracts/token factory/LiquidityPool.sol\":7102:7133  devAddress.call{value: tax}(\"\") */\n      gas\n      call\n      swap3\n      pop\n      pop\n      pop\n      returndatasize\n      dup1\n      0x00\n      dup2\n      eq\n      tag_300\n      jumpi\n      mload(0x40)\n      swap2\n      pop\n      and(add(returndatasize, 0x3f), not(0x1f))\n      dup3\n      add\n      0x40\n      mstore\n      returndatasize\n      dup3\n      mstore\n      returndatasize\n      0x00\n      0x20\n      dup5\n      add\n      returndatacopy\n      jump(tag_299)\n    tag_300:\n      0x60\n      swap2\n      pop\n    tag_299:\n      pop\n        /* \"contracts/token factory/LiquidityPool.sol\":7083:7133  (bool taxSent, ) = devAddress.call{value: tax}(\"\") */\n      pop\n      swap1\n      pop\n        /* \"contracts/token factory/LiquidityPool.sol\":7151:7158  taxSent */\n      dup1\n        /* \"contracts/token factory/LiquidityPool.sol\":7143:7185  require(taxSent, \"Failed to send buy tax\") */\n      tag_301\n      jumpi\n      mload(0x40)\n      shl(0xe5, 0x461bcd)\n      dup2\n      mstore\n        /* \"#utility.yul\":10804:10806   */\n      0x20\n        /* \"contracts/token factory/LiquidityPool.sol\":7143:7185  require(taxSent, \"Failed to send buy tax\") */\n      0x04\n      dup3\n      add\n        /* \"#utility.yul\":10786:10807   */\n      mstore\n        /* \"#utility.yul\":10843:10845   */\n      0x16\n        /* \"#utility.yul\":10823:10841   */\n      0x24\n      dup3\n      add\n        /* \"#utility.yul\":10816:10846   */\n      mstore\n      shl(0x53, 0x08cc2d2d8cac840e8de40e6cadcc840c4eaf240e8c2f)\n        /* \"#utility.yul\":10862:10880   */\n      0x44\n      dup3\n      add\n        /* \"#utility.yul\":10855:10907   */\n      mstore\n        /* \"#utility.yul\":10924:10942   */\n      0x64\n      add\n        /* \"contracts/token factory/LiquidityPool.sol\":7143:7185  require(taxSent, \"Failed to send buy tax\") */\n      tag_148\n        /* \"#utility.yul\":10602:10948   */\n      jump\n        /* \"contracts/token factory/LiquidityPool.sol\":7143:7185  require(taxSent, \"Failed to send buy tax\") */\n    tag_301:\n        /* \"contracts/token factory/LiquidityPool.sol\":7200:7254  TokensPurchased(msg.sender, msg.value, amountOut, tax) */\n      0x40\n      dup1\n      mload\n        /* \"contracts/token factory/LiquidityPool.sol\":7228:7237  msg.value */\n      callvalue\n        /* \"#utility.yul\":7282:7307   */\n      dup2\n      mstore\n        /* \"#utility.yul\":7338:7340   */\n      0x20\n        /* \"#utility.yul\":7323:7341   */\n      dup2\n      add\n        /* \"#utility.yul\":7316:7350   */\n      dup7\n      swap1\n      mstore\n        /* \"#utility.yul\":7366:7384   */\n      swap1\n      dup2\n      add\n        /* \"#utility.yul\":7359:7393   */\n      dup5\n      swap1\n      mstore\n        /* \"contracts/token factory/LiquidityPool.sol\":7216:7226  msg.sender */\n      caller\n      swap1\n        /* \"contracts/token factory/LiquidityPool.sol\":7200:7254  TokensPurchased(msg.sender, msg.value, amountOut, tax) */\n      0x0d1a0d5e3d583a0e92588799dd06e50fd78c07daf05f0cc06d7b848b1ca445f1\n      swap1\n        /* \"#utility.yul\":7270:7272   */\n      0x60\n        /* \"#utility.yul\":7255:7273   */\n      add\n        /* \"contracts/token factory/LiquidityPool.sol\":7200:7254  TokensPurchased(msg.sender, msg.value, amountOut, tax) */\n      mload(0x40)\n      dup1\n      swap2\n      sub\n      swap1\n      log2\n        /* \"contracts/token factory/LiquidityPool.sol\":5630:7261  {... */\n      pop\n      pop\n      pop\n        /* \"@openzeppelin/contracts/utils/ReentrancyGuard.sol\":2542:2562  _nonReentrantAfter() */\n      tag_305\n        /* \"@openzeppelin/contracts/utils/ReentrancyGuard.sol\":1857:1858  1 */\n      0x01\n        /* \"@openzeppelin/contracts/utils/ReentrancyGuard.sol\":3068:3075  _status */\n      0x00\n        /* \"@openzeppelin/contracts/utils/ReentrancyGuard.sol\":3068:3089  _status = NOT_ENTERED */\n      sstore\n        /* \"@openzeppelin/contracts/utils/ReentrancyGuard.sol\":2888:3096  function _nonReentrantAfter() private {... */\n      jump\n        /* \"@openzeppelin/contracts/utils/ReentrancyGuard.sol\":2542:2562  _nonReentrantAfter() */\n    tag_305:\n        /* \"contracts/token factory/LiquidityPool.sol\":5516:7261  function buyToken()... */\n      swap1\n      jump\t// out\n        /* \"contracts/token factory/LiquidityPool.sol\":8888:8951  function forceMigration() external  {... */\n    tag_128:\n        /* \"contracts/token factory/LiquidityPool.sol\":8930:8948  migrateToAlgebra() */\n      tag_307\n        /* \"contracts/token factory/LiquidityPool.sol\":8930:8946  migrateToAlgebra */\n      tag_308\n        /* \"contracts/token factory/LiquidityPool.sol\":8930:8948  migrateToAlgebra() */\n      jump\t// in\n    tag_307:\n        /* \"contracts/token factory/LiquidityPool.sol\":8888:8951  function forceMigration() external  {... */\n      jump\t// out\n        /* \"contracts/token factory/LiquidityPool.sol\":3394:3546  function toggleAutoMigration(bool enable) external onlyFactory {... */\n    tag_133:\n        /* \"contracts/token factory/LiquidityPool.sol\":1961:1973  tokenFactory */\n      and(sub(shl(0xa0, 0x01), 0x01), sload(0x02))\n        /* \"contracts/token factory/LiquidityPool.sol\":1947:1957  msg.sender */\n      caller\n        /* \"contracts/token factory/LiquidityPool.sol\":1947:1973  msg.sender == tokenFactory */\n      eq\n        /* \"contracts/token factory/LiquidityPool.sol\":1939:2008  require(msg.sender == tokenFactory, \"Caller is not the TokenFactory\") */\n      tag_310\n      jumpi\n      mload(0x40)\n      shl(0xe5, 0x461bcd)\n      dup2\n      mstore\n      0x04\n      add\n      tag_148\n      swap1\n      tag_149\n      jump\t// in\n    tag_310:\n        /* \"contracts/token factory/LiquidityPool.sol\":3467:3487  autoMigrationEnabled */\n      0x09\n        /* \"contracts/token factory/LiquidityPool.sol\":3467:3496  autoMigrationEnabled = enable */\n      dup1\n      sload\n      dup3\n      iszero\n      iszero\n      0x0100\n      mul\n      not(0xff00)\n      swap1\n      swap2\n      and\n      or\n      swap1\n      sstore\n        /* \"contracts/token factory/LiquidityPool.sol\":3511:3539  AutoMigrationToggled(enable) */\n      mload(0x40)\n      0xe7e0bd136ab3b57e3e925774a811e2482df79072fa45d011a4f088abfcc209d2\n      swap1\n      tag_159\n      swap1\n        /* \"contracts/token factory/LiquidityPool.sol\":3490:3496  enable */\n      dup4\n        /* \"#utility.yul\":1441:1455   */\n      iszero\n        /* \"#utility.yul\":1434:1456   */\n      iszero\n        /* \"#utility.yul\":1416:1457   */\n      dup2\n      mstore\n        /* \"#utility.yul\":1404:1406   */\n      0x20\n        /* \"#utility.yul\":1389:1407   */\n      add\n      swap1\n        /* \"#utility.yul\":1276:1463   */\n      jump\n        /* \"@openzeppelin/contracts/utils/ReentrancyGuard.sol\":2575:2882  function _nonReentrantBefore() private {... */\n    tag_162:\n        /* \"@openzeppelin/contracts/utils/ReentrancyGuard.sol\":1899:1900  2 */\n      0x02\n        /* \"@openzeppelin/contracts/utils/ReentrancyGuard.sol\":2702:2709  _status */\n      sload(0x00)\n        /* \"@openzeppelin/contracts/utils/ReentrancyGuard.sol\":2702:2720  _status == ENTERED */\n      sub\n        /* \"@openzeppelin/contracts/utils/ReentrancyGuard.sol\":2698:2784  if (_status == ENTERED) {... */\n      tag_315\n      jumpi\n        /* \"@openzeppelin/contracts/utils/ReentrancyGuard.sol\":2743:2773  ReentrancyGuardReentrantCall() */\n      mload(0x40)\n      shl(0xe0, 0x3ee5aeb5)\n      dup2\n      mstore\n      0x04\n      add\n      mload(0x40)\n      dup1\n      swap2\n      sub\n      swap1\n      revert\n        /* \"@openzeppelin/contracts/utils/ReentrancyGuard.sol\":2698:2784  if (_status == ENTERED) {... */\n    tag_315:\n        /* \"@openzeppelin/contracts/utils/ReentrancyGuard.sol\":1899:1900  2 */\n      0x02\n        /* \"@openzeppelin/contracts/utils/ReentrancyGuard.sol\":2858:2865  _status */\n      0x00\n        /* \"@openzeppelin/contracts/utils/ReentrancyGuard.sol\":2858:2875  _status = ENTERED */\n      sstore\n        /* \"@openzeppelin/contracts/utils/ReentrancyGuard.sol\":2575:2882  function _nonReentrantBefore() private {... */\n      jump\t// out\n        /* \"contracts/token factory/LiquidityPool.sol\":9431:9623  function sqrt(uint256 x) internal pure returns (uint256) {... */\n    tag_245:\n        /* \"contracts/token factory/LiquidityPool.sol\":9479:9486  uint256 */\n      0x00\n      dup1\n        /* \"contracts/token factory/LiquidityPool.sol\":9516:9517  2 */\n      0x02\n        /* \"contracts/token factory/LiquidityPool.sol\":9507:9512  x + 1 */\n      tag_318\n        /* \"contracts/token factory/LiquidityPool.sol\":9507:9508  x */\n      dup5\n        /* \"contracts/token factory/LiquidityPool.sol\":9511:9512  1 */\n      0x01\n        /* \"contracts/token factory/LiquidityPool.sol\":9507:9512  x + 1 */\n      tag_168\n      jump\t// in\n    tag_318:\n        /* \"contracts/token factory/LiquidityPool.sol\":9506:9517  (x + 1) / 2 */\n      tag_319\n      swap2\n      swap1\n      tag_175\n      jump\t// in\n    tag_319:\n        /* \"contracts/token factory/LiquidityPool.sol\":9494:9517  uint256 z = (x + 1) / 2 */\n      swap1\n      pop\n        /* \"contracts/token factory/LiquidityPool.sol\":9535:9536  x */\n      dup3\n        /* \"contracts/token factory/LiquidityPool.sol\":9542:9607  while (z < y) {... */\n    tag_320:\n        /* \"contracts/token factory/LiquidityPool.sol\":9553:9554  y */\n      dup1\n        /* \"contracts/token factory/LiquidityPool.sol\":9549:9550  z */\n      dup3\n        /* \"contracts/token factory/LiquidityPool.sol\":9549:9554  z < y */\n      lt\n        /* \"contracts/token factory/LiquidityPool.sol\":9542:9607  while (z < y) {... */\n      iszero\n      tag_321\n      jumpi\n      pop\n        /* \"contracts/token factory/LiquidityPool.sol\":9570:9571  z */\n      dup1\n        /* \"contracts/token factory/LiquidityPool.sol\":9599:9600  2 */\n      0x02\n        /* \"contracts/token factory/LiquidityPool.sol\":9570:9571  z */\n      dup2\n        /* \"contracts/token factory/LiquidityPool.sol\":9586:9591  x / z */\n      tag_322\n        /* \"contracts/token factory/LiquidityPool.sol\":9570:9571  z */\n      dup2\n        /* \"contracts/token factory/LiquidityPool.sol\":9586:9587  x */\n      dup8\n        /* \"contracts/token factory/LiquidityPool.sol\":9586:9591  x / z */\n      tag_175\n      jump\t// in\n    tag_322:\n        /* \"contracts/token factory/LiquidityPool.sol\":9586:9595  x / z + z */\n      tag_323\n      swap2\n      swap1\n      tag_168\n      jump\t// in\n    tag_323:\n        /* \"contracts/token factory/LiquidityPool.sol\":9585:9600  (x / z + z) / 2 */\n      tag_324\n      swap2\n      swap1\n      tag_175\n      jump\t// in\n    tag_324:\n        /* \"contracts/token factory/LiquidityPool.sol\":9581:9600  z = (x / z + z) / 2 */\n      swap2\n      pop\n        /* \"contracts/token factory/LiquidityPool.sol\":9542:9607  while (z < y) {... */\n      jump(tag_320)\n    tag_321:\n        /* \"contracts/token factory/LiquidityPool.sol\":9619:9620  y */\n      swap4\n        /* \"contracts/token factory/LiquidityPool.sol\":9431:9623  function sqrt(uint256 x) internal pure returns (uint256) {... */\n      swap3\n      pop\n      pop\n      pop\n      jump\t// out\n        /* \"contracts/token factory/LiquidityPool.sol\":3813:5510  function migrateToAlgebra() internal nonReentrant {... */\n    tag_308:\n        /* \"@openzeppelin/contracts/utils/ReentrancyGuard.sol\":2500:2521  _nonReentrantBefore() */\n      tag_326\n        /* \"@openzeppelin/contracts/utils/ReentrancyGuard.sol\":2500:2519  _nonReentrantBefore */\n      tag_162\n        /* \"@openzeppelin/contracts/utils/ReentrancyGuard.sol\":2500:2521  _nonReentrantBefore() */\n      jump\t// in\n    tag_326:\n        /* \"contracts/token factory/LiquidityPool.sol\":3915:3930  block.timestamp */\n      timestamp\n        /* \"contracts/token factory/LiquidityPool.sol\":3908:3912  this */\n      address\n      sub(shl(0xa0, 0x01), 0x01)\n        /* \"contracts/token factory/LiquidityPool.sol\":3874:3931  Step(\"Migration started\", address(this), block.timestamp) */\n      and\n      0x00\n      dup1\n      mload\n      0x20\n      data_b7e2fd2a1a77c6a47513f137cc90c7efbf68aa1a289914f29ab6927a7e81c67f\n      dup4\n      codecopy\n      dup2\n      mload\n      swap2\n      mstore\n      mload(0x40)\n      tag_328\n      swap1\n        /* \"#utility.yul\":11155:11157   */\n      0x20\n        /* \"#utility.yul\":11137:11158   */\n      dup1\n      dup3\n      mstore\n        /* \"#utility.yul\":11194:11196   */\n      0x11\n        /* \"#utility.yul\":11174:11192   */\n      swap1\n      dup3\n      add\n        /* \"#utility.yul\":11167:11197   */\n      mstore\n      shl(0x7a, 0x135a59dc985d1a5bdb881cdd185c9d1959)\n        /* \"#utility.yul\":11228:11230   */\n      0x40\n        /* \"#utility.yul\":11213:11231   */\n      dup3\n      add\n        /* \"#utility.yul\":11206:11253   */\n      mstore\n        /* \"#utility.yul\":11285:11287   */\n      0x60\n        /* \"#utility.yul\":11270:11288   */\n      add\n      swap1\n        /* \"#utility.yul\":10953:11294   */\n      jump\n        /* \"contracts/token factory/LiquidityPool.sol\":3874:3931  Step(\"Migration started\", address(this), block.timestamp) */\n    tag_328:\n      mload(0x40)\n      dup1\n      swap2\n      sub\n      swap1\n      log3\n        /* \"contracts/token factory/LiquidityPool.sol\":3951:3968  migratedToAlgebra */\n      and(0xff, sload(0x09))\n        /* \"contracts/token factory/LiquidityPool.sol\":3950:3968  !migratedToAlgebra */\n      iszero\n        /* \"contracts/token factory/LiquidityPool.sol\":3942:4000  require(!migratedToAlgebra, \"Already migrated to Algebra\") */\n      tag_330\n      jumpi\n      mload(0x40)\n      shl(0xe5, 0x461bcd)\n      dup2\n      mstore\n        /* \"#utility.yul\":11501:11503   */\n      0x20\n        /* \"contracts/token factory/LiquidityPool.sol\":3942:4000  require(!migratedToAlgebra, \"Already migrated to Algebra\") */\n      0x04\n      dup3\n      add\n        /* \"#utility.yul\":11483:11504   */\n      mstore\n        /* \"#utility.yul\":11540:11542   */\n      0x1b\n        /* \"#utility.yul\":11520:11538   */\n      0x24\n      dup3\n      add\n        /* \"#utility.yul\":11513:11543   */\n      mstore\n        /* \"#utility.yul\":11579:11608   */\n      0x416c7265616479206d6967726174656420746f20416c67656272610000000000\n        /* \"#utility.yul\":11559:11577   */\n      0x44\n      dup3\n      add\n        /* \"#utility.yul\":11552:11609   */\n      mstore\n        /* \"#utility.yul\":11626:11644   */\n      0x64\n      add\n        /* \"contracts/token factory/LiquidityPool.sol\":3942:4000  require(!migratedToAlgebra, \"Already migrated to Algebra\") */\n      tag_148\n        /* \"#utility.yul\":11299:11650   */\n      jump\n        /* \"contracts/token factory/LiquidityPool.sol\":3942:4000  require(!migratedToAlgebra, \"Already migrated to Algebra\") */\n    tag_330:\n        /* \"contracts/token factory/LiquidityPool.sol\":4057:4072  block.timestamp */\n      timestamp\n        /* \"contracts/token factory/LiquidityPool.sol\":4050:4054  this */\n      address\n      sub(shl(0xa0, 0x01), 0x01)\n        /* \"contracts/token factory/LiquidityPool.sol\":4011:4073  Step(\"Migration check passed\", address(this), block.timestamp) */\n      and\n      0x00\n      dup1\n      mload\n      0x20\n      data_b7e2fd2a1a77c6a47513f137cc90c7efbf68aa1a289914f29ab6927a7e81c67f\n      dup4\n      codecopy\n      dup2\n      mload\n      swap2\n      mstore\n      mload(0x40)\n      tag_333\n      swap1\n        /* \"#utility.yul\":11857:11859   */\n      0x20\n        /* \"#utility.yul\":11839:11860   */\n      dup1\n      dup3\n      mstore\n        /* \"#utility.yul\":11896:11898   */\n      0x16\n        /* \"#utility.yul\":11876:11894   */\n      swap1\n      dup3\n      add\n        /* \"#utility.yul\":11869:11899   */\n      mstore\n      shl(0x52, 0x135a59dc985d1a5bdb8818da1958dac81c185cdcd959)\n        /* \"#utility.yul\":11930:11932   */\n      0x40\n        /* \"#utility.yul\":11915:11933   */\n      dup3\n      add\n        /* \"#utility.yul\":11908:11960   */\n      mstore\n        /* \"#utility.yul\":11992:11994   */\n      0x60\n        /* \"#utility.yul\":11977:11995   */\n      add\n      swap1\n        /* \"#utility.yul\":11655:12001   */\n      jump\n        /* \"contracts/token factory/LiquidityPool.sol\":4011:4073  Step(\"Migration check passed\", address(this), block.timestamp) */\n    tag_333:\n      mload(0x40)\n      dup1\n      swap2\n      sub\n      swap1\n      log3\n        /* \"contracts/token factory/LiquidityPool.sol\":4092:4114  algebraPoolInitializer */\n      and(sub(shl(0xa0, 0x01), 0x01), sload(0x04))\n        /* \"contracts/token factory/LiquidityPool.sol\":4084:4172  require(algebraPoolInitializer != address(0), \"Algebra PoolInitializer address not set\") */\n      tag_335\n      jumpi\n      mload(0x40)\n      shl(0xe5, 0x461bcd)\n      dup2\n      mstore\n        /* \"#utility.yul\":12208:12210   */\n      0x20\n        /* \"contracts/token factory/LiquidityPool.sol\":4084:4172  require(algebraPoolInitializer != address(0), \"Algebra PoolInitializer address not set\") */\n      0x04\n      dup3\n      add\n        /* \"#utility.yul\":12190:12211   */\n      mstore\n        /* \"#utility.yul\":12247:12249   */\n      0x27\n        /* \"#utility.yul\":12227:12245   */\n      0x24\n      dup3\n      add\n        /* \"#utility.yul\":12220:12250   */\n      mstore\n        /* \"#utility.yul\":12286:12320   */\n      0x416c676562726120506f6f6c496e697469616c697a6572206164647265737320\n        /* \"#utility.yul\":12266:12284   */\n      0x44\n      dup3\n      add\n        /* \"#utility.yul\":12259:12321   */\n      mstore\n      shl(0xca, 0x1b9bdd081cd95d)\n        /* \"#utility.yul\":12337:12355   */\n      0x64\n      dup3\n      add\n        /* \"#utility.yul\":12330:12367   */\n      mstore\n        /* \"#utility.yul\":12384:12403   */\n      0x84\n      add\n        /* \"contracts/token factory/LiquidityPool.sol\":4084:4172  require(algebraPoolInitializer != address(0), \"Algebra PoolInitializer address not set\") */\n      tag_148\n        /* \"#utility.yul\":12006:12409   */\n      jump\n        /* \"contracts/token factory/LiquidityPool.sol\":4084:4172  require(algebraPoolInitializer != address(0), \"Algebra PoolInitializer address not set\") */\n    tag_335:\n        /* \"contracts/token factory/LiquidityPool.sol\":4216:4238  algebraPoolInitializer */\n      sload(0x04)\n        /* \"contracts/token factory/LiquidityPool.sol\":4183:4256  Step(\"Initializer check passed\", algebraPoolInitializer, block.timestamp) */\n      mload(0x40)\n        /* \"contracts/token factory/LiquidityPool.sol\":4240:4255  block.timestamp */\n      timestamp\n      swap2\n      sub(shl(0xa0, 0x01), 0x01)\n        /* \"contracts/token factory/LiquidityPool.sol\":4216:4238  algebraPoolInitializer */\n      and\n      swap1\n      0x00\n      dup1\n      mload\n      0x20\n      data_b7e2fd2a1a77c6a47513f137cc90c7efbf68aa1a289914f29ab6927a7e81c67f\n      dup4\n      codecopy\n      dup2\n      mload\n      swap2\n      mstore\n        /* \"contracts/token factory/LiquidityPool.sol\":4183:4256  Step(\"Initializer check passed\", algebraPoolInitializer, block.timestamp) */\n      swap1\n      tag_338\n      swap1\n        /* \"#utility.yul\":12616:12618   */\n      0x20\n        /* \"#utility.yul\":12598:12619   */\n      dup1\n      dup3\n      mstore\n        /* \"#utility.yul\":12655:12657   */\n      0x18\n        /* \"#utility.yul\":12635:12653   */\n      swap1\n      dup3\n      add\n        /* \"#utility.yul\":12628:12658   */\n      mstore\n        /* \"#utility.yul\":12694:12720   */\n      0x496e697469616c697a657220636865636b207061737365640000000000000000\n        /* \"#utility.yul\":12689:12691   */\n      0x40\n        /* \"#utility.yul\":12674:12692   */\n      dup3\n      add\n        /* \"#utility.yul\":12667:12721   */\n      mstore\n        /* \"#utility.yul\":12753:12755   */\n      0x60\n        /* \"#utility.yul\":12738:12756   */\n      add\n      swap1\n        /* \"#utility.yul\":12414:12762   */\n      jump\n        /* \"contracts/token factory/LiquidityPool.sol\":4183:4256  Step(\"Initializer check passed\", algebraPoolInitializer, block.timestamp) */\n    tag_338:\n      mload(0x40)\n      dup1\n      swap2\n      sub\n      swap1\n      log3\n        /* \"contracts/token factory/LiquidityPool.sol\":4267:4287  uint160 sqrtPriceX96 */\n      0x00\n        /* \"contracts/token factory/LiquidityPool.sol\":4290:4319  calculateSqrtPriceX96(1, 100) */\n      tag_340\n        /* \"contracts/token factory/LiquidityPool.sol\":4312:4313  1 */\n      0x01\n        /* \"contracts/token factory/LiquidityPool.sol\":4315:4318  100 */\n      0x64\n        /* \"contracts/token factory/LiquidityPool.sol\":4290:4311  calculateSqrtPriceX96 */\n      tag_120\n        /* \"contracts/token factory/LiquidityPool.sol\":4290:4319  calculateSqrtPriceX96(1, 100) */\n      jump\t// in\n    tag_340:\n        /* \"contracts/token factory/LiquidityPool.sol\":4267:4319  uint160 sqrtPriceX96 = calculateSqrtPriceX96(1, 100) */\n      swap1\n      pop\n        /* \"contracts/token factory/LiquidityPool.sol\":4405:4417  sqrtPriceX96 */\n      dup1\n      sub(shl(0xa0, 0x01), 0x01)\n        /* \"contracts/token factory/LiquidityPool.sol\":4361:4418  Step(\"SqrtPriceX96 calculated\", address(0), sqrtPriceX96) */\n      and\n        /* \"contracts/token factory/LiquidityPool.sol\":4401:4402  0 */\n      0x00\n      sub(shl(0xa0, 0x01), 0x01)\n        /* \"contracts/token factory/LiquidityPool.sol\":4361:4418  Step(\"SqrtPriceX96 calculated\", address(0), sqrtPriceX96) */\n      and\n      0x00\n      dup1\n      mload\n      0x20\n      data_b7e2fd2a1a77c6a47513f137cc90c7efbf68aa1a289914f29ab6927a7e81c67f\n      dup4\n      codecopy\n      dup2\n      mload\n      swap2\n      mstore\n      mload(0x40)\n      tag_341\n      swap1\n        /* \"#utility.yul\":12969:12971   */\n      0x20\n        /* \"#utility.yul\":12951:12972   */\n      dup1\n      dup3\n      mstore\n        /* \"#utility.yul\":13008:13010   */\n      0x17\n        /* \"#utility.yul\":12988:13006   */\n      swap1\n      dup3\n      add\n        /* \"#utility.yul\":12981:13011   */\n      mstore\n        /* \"#utility.yul\":13047:13072   */\n      0x5371727450726963655839362063616c63756c61746564000000000000000000\n        /* \"#utility.yul\":13042:13044   */\n      0x40\n        /* \"#utility.yul\":13027:13045   */\n      dup3\n      add\n        /* \"#utility.yul\":13020:13073   */\n      mstore\n        /* \"#utility.yul\":13105:13107   */\n      0x60\n        /* \"#utility.yul\":13090:13108   */\n      add\n      swap1\n        /* \"#utility.yul\":12767:13114   */\n      jump\n        /* \"contracts/token factory/LiquidityPool.sol\":4361:4418  Step(\"SqrtPriceX96 calculated\", address(0), sqrtPriceX96) */\n    tag_341:\n      mload(0x40)\n      dup1\n      swap2\n      sub\n      swap1\n      log3\n        /* \"contracts/token factory/LiquidityPool.sol\":4552:4558  token0 */\n      sload(0x01)\n        /* \"contracts/token factory/LiquidityPool.sol\":4448:4609  abi.encodeWithSignature(... */\n      mload(0x40)\n      sub(shl(0xa0, 0x01), 0x01)\n        /* \"contracts/token factory/LiquidityPool.sol\":4552:4558  token0 */\n      swap2\n      dup3\n      and\n        /* \"contracts/token factory/LiquidityPool.sol\":4448:4609  abi.encodeWithSignature(... */\n      0x24\n      dup3\n      add\n        /* \"#utility.yul\":13321:13372   */\n      mstore\n        /* \"contracts/token factory/LiquidityPool.sol\":4576:4580  this */\n      address\n        /* \"#utility.yul\":13388:13406   */\n      0x44\n      dup3\n      add\n        /* \"#utility.yul\":13381:13441   */\n      mstore\n        /* \"#utility.yul\":13477:13509   */\n      swap1\n      dup3\n      and\n        /* \"#utility.yul\":13457:13475   */\n      0x64\n      dup3\n      add\n        /* \"#utility.yul\":13450:13510   */\n      mstore\n        /* \"contracts/token factory/LiquidityPool.sol\":4425:4445  bytes memory payload */\n      0x00\n      swap1\n        /* \"#utility.yul\":13294:13312   */\n      0x84\n      add\n        /* \"contracts/token factory/LiquidityPool.sol\":4448:4609  abi.encodeWithSignature(... */\n      0x40\n      dup1\n      mload\n      not(0x1f)\n      dup2\n      dup5\n      sub\n      add\n      dup2\n      mstore\n      swap2\n      dup2\n      mstore\n      0x20\n      dup3\n      add\n      dup1\n      mload\n      sub(shl(0xe0, 0x01), 0x01)\n      and\n      shl(0xe1, 0x289236b7)\n      or\n      swap1\n      mstore\n        /* \"contracts/token factory/LiquidityPool.sol\":4658:4680  algebraPoolInitializer */\n      sload(0x04)\n        /* \"contracts/token factory/LiquidityPool.sol\":4658:4694  algebraPoolInitializer.call(payload) */\n      swap1\n      mload\n        /* \"contracts/token factory/LiquidityPool.sol\":4448:4609  abi.encodeWithSignature(... */\n      swap2\n      swap3\n      pop\n      0x00\n      swap2\n      dup3\n      swap2\n      sub(shl(0xa0, 0x01), 0x01)\n        /* \"contracts/token factory/LiquidityPool.sol\":4658:4680  algebraPoolInitializer */\n      and\n      swap1\n        /* \"contracts/token factory/LiquidityPool.sol\":4658:4694  algebraPoolInitializer.call(payload) */\n      tag_345\n      swap1\n        /* \"contracts/token factory/LiquidityPool.sol\":4448:4609  abi.encodeWithSignature(... */\n      dup6\n      swap1\n        /* \"contracts/token factory/LiquidityPool.sol\":4658:4694  algebraPoolInitializer.call(payload) */\n      tag_346\n      jump\t// in\n    tag_345:\n      0x00\n      mload(0x40)\n      dup1\n      dup4\n      sub\n      dup2\n      0x00\n      dup7\n      gas\n      call\n      swap2\n      pop\n      pop\n      returndatasize\n      dup1\n      0x00\n      dup2\n      eq\n      tag_349\n      jumpi\n      mload(0x40)\n      swap2\n      pop\n      and(add(returndatasize, 0x3f), not(0x1f))\n      dup3\n      add\n      0x40\n      mstore\n      returndatasize\n      dup3\n      mstore\n      returndatasize\n      0x00\n      0x20\n      dup5\n      add\n      returndatacopy\n      jump(tag_348)\n    tag_349:\n      0x60\n      swap2\n      pop\n    tag_348:\n      pop\n        /* \"contracts/token factory/LiquidityPool.sol\":4616:4694  (bool success, bytes memory returnData) = algebraPoolInitializer.call(payload) */\n      swap2\n      pop\n      swap2\n      pop\n        /* \"contracts/token factory/LiquidityPool.sol\":4771:4778  success */\n      dup2\n        /* \"contracts/token factory/LiquidityPool.sol\":4771:4786  success ? 1 : 0 */\n      tag_350\n      jumpi\n        /* \"contracts/token factory/LiquidityPool.sol\":4785:4786  0 */\n      0x00\n        /* \"contracts/token factory/LiquidityPool.sol\":4771:4786  success ? 1 : 0 */\n      jump(tag_351)\n    tag_350:\n        /* \"contracts/token factory/LiquidityPool.sol\":4781:4782  1 */\n      0x01\n        /* \"contracts/token factory/LiquidityPool.sol\":4771:4786  success ? 1 : 0 */\n    tag_351:\n        /* \"contracts/token factory/LiquidityPool.sol\":4746:4768  algebraPoolInitializer */\n      sload(0x04)\n        /* \"contracts/token factory/LiquidityPool.sol\":4705:4787  Step(\"Call to initializer made\", address(algebraPoolInitializer), success ? 1 : 0) */\n      mload(0x40)\n      0xff\n      swap3\n      swap1\n      swap3\n      and\n      swap2\n      sub(shl(0xa0, 0x01), 0x01)\n        /* \"contracts/token factory/LiquidityPool.sol\":4746:4768  algebraPoolInitializer */\n      swap1\n      swap2\n      and\n      swap1\n      0x00\n      dup1\n      mload\n      0x20\n      data_b7e2fd2a1a77c6a47513f137cc90c7efbf68aa1a289914f29ab6927a7e81c67f\n      dup4\n      codecopy\n      dup2\n      mload\n      swap2\n      mstore\n        /* \"contracts/token factory/LiquidityPool.sol\":4705:4787  Step(\"Call to initializer made\", address(algebraPoolInitializer), success ? 1 : 0) */\n      swap1\n      tag_352\n      swap1\n        /* \"#utility.yul\":14140:14142   */\n      0x20\n        /* \"#utility.yul\":14122:14143   */\n      dup1\n      dup3\n      mstore\n        /* \"#utility.yul\":14179:14181   */\n      0x18\n        /* \"#utility.yul\":14159:14177   */\n      swap1\n      dup3\n      add\n        /* \"#utility.yul\":14152:14182   */\n      mstore\n        /* \"#utility.yul\":14218:14244   */\n      0x43616c6c20746f20696e697469616c697a6572206d6164650000000000000000\n        /* \"#utility.yul\":14213:14215   */\n      0x40\n        /* \"#utility.yul\":14198:14216   */\n      dup3\n      add\n        /* \"#utility.yul\":14191:14245   */\n      mstore\n        /* \"#utility.yul\":14277:14279   */\n      0x60\n        /* \"#utility.yul\":14262:14280   */\n      add\n      swap1\n        /* \"#utility.yul\":13938:14286   */\n      jump\n        /* \"contracts/token factory/LiquidityPool.sol\":4705:4787  Step(\"Call to initializer made\", address(algebraPoolInitializer), success ? 1 : 0) */\n    tag_352:\n      mload(0x40)\n      dup1\n      swap2\n      sub\n      swap1\n      log3\n        /* \"contracts/token factory/LiquidityPool.sol\":4801:4808  success */\n      dup2\n        /* \"contracts/token factory/LiquidityPool.sol\":4793:4860  require(success, \"Algebra pool creation and initialization failed\") */\n      tag_354\n      jumpi\n      mload(0x40)\n      shl(0xe5, 0x461bcd)\n      dup2\n      mstore\n        /* \"#utility.yul\":14493:14495   */\n      0x20\n        /* \"contracts/token factory/LiquidityPool.sol\":4793:4860  require(success, \"Algebra pool creation and initialization failed\") */\n      0x04\n      dup3\n      add\n        /* \"#utility.yul\":14475:14496   */\n      mstore\n        /* \"#utility.yul\":14532:14534   */\n      0x2f\n        /* \"#utility.yul\":14512:14530   */\n      0x24\n      dup3\n      add\n        /* \"#utility.yul\":14505:14535   */\n      mstore\n        /* \"#utility.yul\":14571:14605   */\n      0x416c676562726120706f6f6c206372656174696f6e20616e6420696e69746961\n        /* \"#utility.yul\":14551:14569   */\n      0x44\n      dup3\n      add\n        /* \"#utility.yul\":14544:14606   */\n      mstore\n      shl(0x8a, 0x1b1a5e985d1a5bdb8819985a5b1959)\n        /* \"#utility.yul\":14622:14640   */\n      0x64\n      dup3\n      add\n        /* \"#utility.yul\":14615:14660   */\n      mstore\n        /* \"#utility.yul\":14677:14696   */\n      0x84\n      add\n        /* \"contracts/token factory/LiquidityPool.sol\":4793:4860  require(success, \"Algebra pool creation and initialization failed\") */\n      tag_148\n        /* \"#utility.yul\":14291:14702   */\n      jump\n        /* \"contracts/token factory/LiquidityPool.sol\":4793:4860  require(success, \"Algebra pool creation and initialization failed\") */\n    tag_354:\n        /* \"contracts/token factory/LiquidityPool.sol\":4867:4889  address newPoolAddress */\n      0x00\n        /* \"contracts/token factory/LiquidityPool.sol\":4903:4913  returnData */\n      dup2\n        /* \"contracts/token factory/LiquidityPool.sol\":4892:4925  abi.decode(returnData, (address)) */\n      dup1\n      0x20\n      add\n      swap1\n      mload\n      dup2\n      add\n      swap1\n      tag_357\n      swap2\n      swap1\n      tag_358\n      jump\t// in\n    tag_357:\n        /* \"contracts/token factory/LiquidityPool.sol\":4867:4925  address newPoolAddress = abi.decode(returnData, (address)) */\n      swap1\n      pop\n        /* \"contracts/token factory/LiquidityPool.sol\":4981:4996  block.timestamp */\n      timestamp\n        /* \"contracts/token factory/LiquidityPool.sol\":4965:4979  newPoolAddress */\n      dup2\n      sub(shl(0xa0, 0x01), 0x01)\n        /* \"contracts/token factory/LiquidityPool.sol\":4936:4997  Step(\"Pool address decoded\", newPoolAddress, block.timestamp) */\n      and\n      0x00\n      dup1\n      mload\n      0x20\n      data_b7e2fd2a1a77c6a47513f137cc90c7efbf68aa1a289914f29ab6927a7e81c67f\n      dup4\n      codecopy\n      dup2\n      mload\n      swap2\n      mstore\n      mload(0x40)\n      tag_359\n      swap1\n        /* \"#utility.yul\":15173:15175   */\n      0x20\n        /* \"#utility.yul\":15155:15176   */\n      dup1\n      dup3\n      mstore\n        /* \"#utility.yul\":15212:15214   */\n      0x14\n        /* \"#utility.yul\":15192:15210   */\n      swap1\n      dup3\n      add\n        /* \"#utility.yul\":15185:15215   */\n      mstore\n      shl(0x62, 0x141bdbdb081859191c995cdcc8191958dbd91959)\n        /* \"#utility.yul\":15246:15248   */\n      0x40\n        /* \"#utility.yul\":15231:15249   */\n      dup3\n      add\n        /* \"#utility.yul\":15224:15274   */\n      mstore\n        /* \"#utility.yul\":15306:15308   */\n      0x60\n        /* \"#utility.yul\":15291:15309   */\n      add\n      swap1\n        /* \"#utility.yul\":14971:15315   */\n      jump\n        /* \"contracts/token factory/LiquidityPool.sol\":4936:4997  Step(\"Pool address decoded\", newPoolAddress, block.timestamp) */\n    tag_359:\n      mload(0x40)\n      dup1\n      swap2\n      sub\n      swap1\n      log3\n      sub(shl(0xa0, 0x01), 0x01)\n        /* \"contracts/token factory/LiquidityPool.sol\":5011:5039  newPoolAddress != address(0) */\n      dup2\n      and\n        /* \"contracts/token factory/LiquidityPool.sol\":5003:5072  require(newPoolAddress != address(0), \"Invalid Algebra pool address\") */\n      tag_361\n      jumpi\n      mload(0x40)\n      shl(0xe5, 0x461bcd)\n      dup2\n      mstore\n        /* \"#utility.yul\":15522:15524   */\n      0x20\n        /* \"contracts/token factory/LiquidityPool.sol\":5003:5072  require(newPoolAddress != address(0), \"Invalid Algebra pool address\") */\n      0x04\n      dup3\n      add\n        /* \"#utility.yul\":15504:15525   */\n      mstore\n        /* \"#utility.yul\":15561:15563   */\n      0x1c\n        /* \"#utility.yul\":15541:15559   */\n      0x24\n      dup3\n      add\n        /* \"#utility.yul\":15534:15564   */\n      mstore\n        /* \"#utility.yul\":15600:15630   */\n      0x496e76616c696420416c676562726120706f6f6c206164647265737300000000\n        /* \"#utility.yul\":15580:15598   */\n      0x44\n      dup3\n      add\n        /* \"#utility.yul\":15573:15631   */\n      mstore\n        /* \"#utility.yul\":15648:15666   */\n      0x64\n      add\n        /* \"contracts/token factory/LiquidityPool.sol\":5003:5072  require(newPoolAddress != address(0), \"Invalid Algebra pool address\") */\n      tag_148\n        /* \"#utility.yul\":15320:15672   */\n      jump\n        /* \"contracts/token factory/LiquidityPool.sol\":5003:5072  require(newPoolAddress != address(0), \"Invalid Algebra pool address\") */\n    tag_361:\n        /* \"contracts/token factory/LiquidityPool.sol\":5086:5092  token0 */\n      sload(0x01)\n        /* \"contracts/token factory/LiquidityPool.sol\":5119:5127  reserve0 */\n      sload(0x05)\n        /* \"contracts/token factory/LiquidityPool.sol\":5079:5128  IERC20(token0).transfer(newPoolAddress, reserve0) */\n      mload(0x40)\n      shl(0xe0, 0xa9059cbb)\n      dup2\n      mstore\n      sub(shl(0xa0, 0x01), 0x01)\n        /* \"#utility.yul\":10515:10547   */\n      dup5\n      dup2\n      and\n        /* \"contracts/token factory/LiquidityPool.sol\":5079:5128  IERC20(token0).transfer(newPoolAddress, reserve0) */\n      0x04\n      dup4\n      add\n        /* \"#utility.yul\":10497:10548   */\n      mstore\n        /* \"#utility.yul\":10564:10582   */\n      0x24\n      dup3\n      add\n        /* \"#utility.yul\":10557:10591   */\n      swap3\n      swap1\n      swap3\n      mstore\n        /* \"contracts/token factory/LiquidityPool.sol\":5086:5092  token0 */\n      swap2\n      and\n      swap1\n        /* \"contracts/token factory/LiquidityPool.sol\":5079:5102  IERC20(token0).transfer */\n      0xa9059cbb\n      swap1\n        /* \"#utility.yul\":10470:10488   */\n      0x44\n      add\n        /* \"contracts/token factory/LiquidityPool.sol\":5079:5128  IERC20(token0).transfer(newPoolAddress, reserve0) */\n      0x20\n      mload(0x40)\n      dup1\n      dup4\n      sub\n      dup2\n      0x00\n      dup8\n      gas\n      call\n      iszero\n      dup1\n      iszero\n      tag_366\n      jumpi\n      returndatasize\n      0x00\n      dup1\n      returndatacopy\n      revert(0x00, returndatasize)\n    tag_366:\n      pop\n      pop\n      pop\n      pop\n      mload(0x40)\n      returndatasize\n      not(0x1f)\n      0x1f\n      dup3\n      add\n      and\n      dup3\n      add\n      dup1\n      0x40\n      mstore\n      pop\n      dup2\n      add\n      swap1\n      tag_367\n      swap2\n      swap1\n      tag_199\n      jump\t// in\n    tag_367:\n      pop\n        /* \"contracts/token factory/LiquidityPool.sol\":5182:5190  reserve0 */\n      sload(0x05)\n        /* \"contracts/token factory/LiquidityPool.sol\":5166:5180  newPoolAddress */\n      dup2\n      sub(shl(0xa0, 0x01), 0x01)\n        /* \"contracts/token factory/LiquidityPool.sol\":5139:5191  Step(\"Tokens transferred\", newPoolAddress, reserve0) */\n      and\n      0x00\n      dup1\n      mload\n      0x20\n      data_b7e2fd2a1a77c6a47513f137cc90c7efbf68aa1a289914f29ab6927a7e81c67f\n      dup4\n      codecopy\n      dup2\n      mload\n      swap2\n      mstore\n      mload(0x40)\n      tag_368\n      swap1\n        /* \"#utility.yul\":15879:15881   */\n      0x20\n        /* \"#utility.yul\":15861:15882   */\n      dup1\n      dup3\n      mstore\n        /* \"#utility.yul\":15918:15920   */\n      0x12\n        /* \"#utility.yul\":15898:15916   */\n      swap1\n      dup3\n      add\n        /* \"#utility.yul\":15891:15921   */\n      mstore\n      shl(0x72, 0x151bdad95b9cc81d1c985b9cd9995c9c9959)\n        /* \"#utility.yul\":15952:15954   */\n      0x40\n        /* \"#utility.yul\":15937:15955   */\n      dup3\n      add\n        /* \"#utility.yul\":15930:15978   */\n      mstore\n        /* \"#utility.yul\":16010:16012   */\n      0x60\n        /* \"#utility.yul\":15995:16013   */\n      add\n      swap1\n        /* \"#utility.yul\":15677:16019   */\n      jump\n        /* \"contracts/token factory/LiquidityPool.sol\":5139:5191  Step(\"Tokens transferred\", newPoolAddress, reserve0) */\n    tag_368:\n      mload(0x40)\n      dup1\n      swap2\n      sub\n      swap1\n      log3\n        /* \"contracts/token factory/LiquidityPool.sol\":5257:5265  reserve1 */\n      sload(0x06)\n        /* \"contracts/token factory/LiquidityPool.sol\":5230:5270  newPoolAddress.call{value: reserve1}(\"\") */\n      mload(0x40)\n        /* \"contracts/token factory/LiquidityPool.sol\":5199:5224  bool etherTransferSuccess */\n      0x00\n      swap2\n      sub(shl(0xa0, 0x01), 0x01)\n        /* \"contracts/token factory/LiquidityPool.sol\":5230:5249  newPoolAddress.call */\n      dup5\n      and\n      swap2\n        /* \"contracts/token factory/LiquidityPool.sol\":5199:5224  bool etherTransferSuccess */\n      dup4\n        /* \"contracts/token factory/LiquidityPool.sol\":5230:5270  newPoolAddress.call{value: reserve1}(\"\") */\n      dup2\n        /* \"contracts/token factory/LiquidityPool.sol\":5199:5224  bool etherTransferSuccess */\n      dup2\n        /* \"contracts/token factory/LiquidityPool.sol\":5230:5270  newPoolAddress.call{value: reserve1}(\"\") */\n      dup2\n        /* \"contracts/token factory/LiquidityPool.sol\":5257:5265  reserve1 */\n      dup6\n        /* \"contracts/token factory/LiquidityPool.sol\":5230:5249  newPoolAddress.call */\n      dup8\n        /* \"contracts/token factory/LiquidityPool.sol\":5230:5270  newPoolAddress.call{value: reserve1}(\"\") */\n      gas\n      call\n      swap3\n      pop\n      pop\n      pop\n      returndatasize\n      dup1\n      0x00\n      dup2\n      eq\n      tag_373\n      jumpi\n      mload(0x40)\n      swap2\n      pop\n      and(add(returndatasize, 0x3f), not(0x1f))\n      dup3\n      add\n      0x40\n      mstore\n      returndatasize\n      dup3\n      mstore\n      returndatasize\n      0x00\n      0x20\n      dup5\n      add\n      returndatacopy\n      jump(tag_372)\n    tag_373:\n      0x60\n      swap2\n      pop\n    tag_372:\n      pop\n        /* \"contracts/token factory/LiquidityPool.sol\":5198:5270  (bool etherTransferSuccess, ) = newPoolAddress.call{value: reserve1}(\"\") */\n      pop\n      swap1\n      pop\n        /* \"contracts/token factory/LiquidityPool.sol\":5284:5304  etherTransferSuccess */\n      dup1\n        /* \"contracts/token factory/LiquidityPool.sol\":5276:5349  require(etherTransferSuccess, \"Failed to transfer Ether to Algebra pool\") */\n      tag_374\n      jumpi\n      mload(0x40)\n      shl(0xe5, 0x461bcd)\n      dup2\n      mstore\n        /* \"#utility.yul\":16226:16228   */\n      0x20\n        /* \"contracts/token factory/LiquidityPool.sol\":5276:5349  require(etherTransferSuccess, \"Failed to transfer Ether to Algebra pool\") */\n      0x04\n      dup3\n      add\n        /* \"#utility.yul\":16208:16229   */\n      mstore\n        /* \"#utility.yul\":16265:16267   */\n      0x28\n        /* \"#utility.yul\":16245:16263   */\n      0x24\n      dup3\n      add\n        /* \"#utility.yul\":16238:16268   */\n      mstore\n        /* \"#utility.yul\":16304:16338   */\n      0x4661696c656420746f207472616e7366657220457468657220746f20416c6765\n        /* \"#utility.yul\":16284:16302   */\n      0x44\n      dup3\n      add\n        /* \"#utility.yul\":16277:16339   */\n      mstore\n      shl(0xc2, 0x189c98481c1bdbdb)\n        /* \"#utility.yul\":16355:16373   */\n      0x64\n      dup3\n      add\n        /* \"#utility.yul\":16348:16386   */\n      mstore\n        /* \"#utility.yul\":16403:16422   */\n      0x84\n      add\n        /* \"contracts/token factory/LiquidityPool.sol\":5276:5349  require(etherTransferSuccess, \"Failed to transfer Ether to Algebra pool\") */\n      tag_148\n        /* \"#utility.yul\":16024:16428   */\n      jump\n        /* \"contracts/token factory/LiquidityPool.sol\":5276:5349  require(etherTransferSuccess, \"Failed to transfer Ether to Algebra pool\") */\n    tag_374:\n        /* \"contracts/token factory/LiquidityPool.sol\":5402:5410  reserve1 */\n      sload(0x06)\n        /* \"contracts/token factory/LiquidityPool.sol\":5386:5400  newPoolAddress */\n      dup3\n      sub(shl(0xa0, 0x01), 0x01)\n        /* \"contracts/token factory/LiquidityPool.sol\":5360:5411  Step(\"Ether transferred\", newPoolAddress, reserve1) */\n      and\n      0x00\n      dup1\n      mload\n      0x20\n      data_b7e2fd2a1a77c6a47513f137cc90c7efbf68aa1a289914f29ab6927a7e81c67f\n      dup4\n      codecopy\n      dup2\n      mload\n      swap2\n      mstore\n      mload(0x40)\n      tag_377\n      swap1\n        /* \"#utility.yul\":16635:16637   */\n      0x20\n        /* \"#utility.yul\":16617:16638   */\n      dup1\n      dup3\n      mstore\n        /* \"#utility.yul\":16674:16676   */\n      0x11\n        /* \"#utility.yul\":16654:16672   */\n      swap1\n      dup3\n      add\n        /* \"#utility.yul\":16647:16677   */\n      mstore\n      shl(0x7a, 0x115d1a195c881d1c985b9cd9995c9c9959)\n        /* \"#utility.yul\":16708:16710   */\n      0x40\n        /* \"#utility.yul\":16693:16711   */\n      dup3\n      add\n        /* \"#utility.yul\":16686:16733   */\n      mstore\n        /* \"#utility.yul\":16765:16767   */\n      0x60\n        /* \"#utility.yul\":16750:16768   */\n      add\n      swap1\n        /* \"#utility.yul\":16433:16774   */\n      jump\n        /* \"contracts/token factory/LiquidityPool.sol\":5360:5411  Step(\"Ether transferred\", newPoolAddress, reserve1) */\n    tag_377:\n      mload(0x40)\n      dup1\n      swap2\n      sub\n      swap1\n      log3\n        /* \"contracts/token factory/LiquidityPool.sol\":5418:5435  migratedToAlgebra */\n      0x09\n        /* \"contracts/token factory/LiquidityPool.sol\":5418:5442  migratedToAlgebra = true */\n      dup1\n      sload\n      not(0xff)\n      and\n        /* \"contracts/token factory/LiquidityPool.sol\":5438:5442  true */\n      0x01\n        /* \"contracts/token factory/LiquidityPool.sol\":5418:5442  migratedToAlgebra = true */\n      or\n      swap1\n      sstore\n        /* \"contracts/token factory/LiquidityPool.sol\":5488:5496  reserve0 */\n      sload(0x05)\n        /* \"contracts/token factory/LiquidityPool.sol\":5498:5506  reserve1 */\n      sload(0x06)\n        /* \"contracts/token factory/LiquidityPool.sol\":5453:5507  MigrationToAlgebra(newPoolAddress, reserve0, reserve1) */\n      mload(0x40)\n      sub(shl(0xa0, 0x01), 0x01)\n      dup6\n      and\n      swap3\n      0x681fa2c4629192623c409b90cb2463cea250bd2012f3ac5f34af5cfa45d4822a\n      swap3\n      tag_379\n      swap3\n        /* \"#utility.yul\":758:783   */\n      swap2\n      dup3\n      mstore\n        /* \"#utility.yul\":814:816   */\n      0x20\n        /* \"#utility.yul\":799:817   */\n      dup3\n      add\n        /* \"#utility.yul\":792:826   */\n      mstore\n        /* \"#utility.yul\":746:748   */\n      0x40\n        /* \"#utility.yul\":731:749   */\n      add\n      swap1\n        /* \"#utility.yul\":584:832   */\n      jump\n        /* \"contracts/token factory/LiquidityPool.sol\":5453:5507  MigrationToAlgebra(newPoolAddress, reserve0, reserve1) */\n    tag_379:\n      mload(0x40)\n      dup1\n      swap2\n      sub\n      swap1\n      log2\n        /* \"contracts/token factory/LiquidityPool.sol\":3863:5510  {... */\n      pop\n      pop\n      pop\n      pop\n      pop\n      pop\n        /* \"@openzeppelin/contracts/utils/ReentrancyGuard.sol\":2542:2562  _nonReentrantAfter() */\n      tag_307\n        /* \"@openzeppelin/contracts/utils/ReentrancyGuard.sol\":1857:1858  1 */\n      0x01\n        /* \"@openzeppelin/contracts/utils/ReentrancyGuard.sol\":3068:3075  _status */\n      0x00\n        /* \"@openzeppelin/contracts/utils/ReentrancyGuard.sol\":3068:3089  _status = NOT_ENTERED */\n      sstore\n        /* \"@openzeppelin/contracts/utils/ReentrancyGuard.sol\":2888:3096  function _nonReentrantAfter() private {... */\n      jump\n        /* \"#utility.yul\":196:327   */\n    tag_381:\n      sub(shl(0xa0, 0x01), 0x01)\n        /* \"#utility.yul\":271:302   */\n      dup2\n      and\n        /* \"#utility.yul\":261:303   */\n      dup2\n      eq\n        /* \"#utility.yul\":251:321   */\n      tag_387\n      jumpi\n        /* \"#utility.yul\":317:318   */\n      0x00\n        /* \"#utility.yul\":314:315   */\n      dup1\n        /* \"#utility.yul\":307:319   */\n      revert\n        /* \"#utility.yul\":251:321   */\n    tag_387:\n        /* \"#utility.yul\":196:327   */\n      pop\n      jump\t// out\n        /* \"#utility.yul\":332:579   */\n    tag_41:\n        /* \"#utility.yul\":391:397   */\n      0x00\n        /* \"#utility.yul\":444:446   */\n      0x20\n        /* \"#utility.yul\":432:441   */\n      dup3\n        /* \"#utility.yul\":423:430   */\n      dup5\n        /* \"#utility.yul\":419:442   */\n      sub\n        /* \"#utility.yul\":415:447   */\n      slt\n        /* \"#utility.yul\":412:464   */\n      iszero\n      tag_389\n      jumpi\n        /* \"#utility.yul\":460:461   */\n      0x00\n        /* \"#utility.yul\":457:458   */\n      dup1\n        /* \"#utility.yul\":450:462   */\n      revert\n        /* \"#utility.yul\":412:464   */\n    tag_389:\n        /* \"#utility.yul\":499:508   */\n      dup2\n        /* \"#utility.yul\":486:509   */\n      calldataload\n        /* \"#utility.yul\":518:549   */\n      tag_321\n        /* \"#utility.yul\":543:548   */\n      dup2\n        /* \"#utility.yul\":518:549   */\n      tag_381\n      jump\t// in\n        /* \"#utility.yul\":1045:1271   */\n    tag_60:\n        /* \"#utility.yul\":1104:1110   */\n      0x00\n        /* \"#utility.yul\":1157:1159   */\n      0x20\n        /* \"#utility.yul\":1145:1154   */\n      dup3\n        /* \"#utility.yul\":1136:1143   */\n      dup5\n        /* \"#utility.yul\":1132:1155   */\n      sub\n        /* \"#utility.yul\":1128:1160   */\n      slt\n        /* \"#utility.yul\":1125:1177   */\n      iszero\n      tag_394\n      jumpi\n        /* \"#utility.yul\":1173:1174   */\n      0x00\n        /* \"#utility.yul\":1170:1171   */\n      dup1\n        /* \"#utility.yul\":1163:1175   */\n      revert\n        /* \"#utility.yul\":1125:1177   */\n    tag_394:\n      pop\n        /* \"#utility.yul\":1218:1241   */\n      calldataload\n      swap2\n        /* \"#utility.yul\":1045:1271   */\n      swap1\n      pop\n      jump\t// out\n        /* \"#utility.yul\":1468:1586   */\n    tag_382:\n        /* \"#utility.yul\":1554:1559   */\n      dup1\n        /* \"#utility.yul\":1547:1560   */\n      iszero\n        /* \"#utility.yul\":1540:1561   */\n      iszero\n        /* \"#utility.yul\":1533:1538   */\n      dup2\n        /* \"#utility.yul\":1530:1562   */\n      eq\n        /* \"#utility.yul\":1520:1580   */\n      tag_387\n      jumpi\n        /* \"#utility.yul\":1576:1577   */\n      0x00\n        /* \"#utility.yul\":1573:1574   */\n      dup1\n        /* \"#utility.yul\":1566:1578   */\n      revert\n        /* \"#utility.yul\":1591:2477   */\n    tag_114:\n        /* \"#utility.yul\":1692:1698   */\n      0x00\n        /* \"#utility.yul\":1700:1706   */\n      dup1\n        /* \"#utility.yul\":1708:1714   */\n      0x00\n        /* \"#utility.yul\":1716:1722   */\n      dup1\n        /* \"#utility.yul\":1724:1730   */\n      0x00\n        /* \"#utility.yul\":1732:1738   */\n      dup1\n        /* \"#utility.yul\":1785:1788   */\n      0xc0\n        /* \"#utility.yul\":1773:1782   */\n      dup8\n        /* \"#utility.yul\":1764:1771   */\n      dup10\n        /* \"#utility.yul\":1760:1783   */\n      sub\n        /* \"#utility.yul\":1756:1789   */\n      slt\n        /* \"#utility.yul\":1753:1806   */\n      iszero\n      tag_399\n      jumpi\n        /* \"#utility.yul\":1802:1803   */\n      0x00\n        /* \"#utility.yul\":1799:1800   */\n      dup1\n        /* \"#utility.yul\":1792:1804   */\n      revert\n        /* \"#utility.yul\":1753:1806   */\n    tag_399:\n        /* \"#utility.yul\":1841:1850   */\n      dup7\n        /* \"#utility.yul\":1828:1851   */\n      calldataload\n        /* \"#utility.yul\":1860:1891   */\n      tag_400\n        /* \"#utility.yul\":1885:1890   */\n      dup2\n        /* \"#utility.yul\":1860:1891   */\n      tag_381\n      jump\t// in\n    tag_400:\n        /* \"#utility.yul\":1910:1915   */\n      swap6\n      pop\n        /* \"#utility.yul\":1988:1990   */\n      0x20\n        /* \"#utility.yul\":1973:1991   */\n      dup8\n      add\n        /* \"#utility.yul\":1960:1992   */\n      calldataload\n      swap5\n      pop\n        /* \"#utility.yul\":2091:2093   */\n      0x40\n        /* \"#utility.yul\":2076:2094   */\n      dup8\n      add\n        /* \"#utility.yul\":2063:2095   */\n      calldataload\n      swap4\n      pop\n        /* \"#utility.yul\":2194:2196   */\n      0x60\n        /* \"#utility.yul\":2179:2197   */\n      dup8\n      add\n        /* \"#utility.yul\":2166:2198   */\n      calldataload\n      swap3\n      pop\n        /* \"#utility.yul\":2276:2279   */\n      0x80\n        /* \"#utility.yul\":2261:2280   */\n      dup8\n      add\n        /* \"#utility.yul\":2248:2281   */\n      calldataload\n        /* \"#utility.yul\":2290:2323   */\n      tag_401\n        /* \"#utility.yul\":2248:2281   */\n      dup2\n        /* \"#utility.yul\":2290:2323   */\n      tag_381\n      jump\t// in\n    tag_401:\n        /* \"#utility.yul\":2342:2349   */\n      swap2\n      pop\n        /* \"#utility.yul\":2401:2404   */\n      0xa0\n        /* \"#utility.yul\":2386:2405   */\n      dup8\n      add\n        /* \"#utility.yul\":2373:2406   */\n      calldataload\n        /* \"#utility.yul\":2415:2445   */\n      tag_402\n        /* \"#utility.yul\":2373:2406   */\n      dup2\n        /* \"#utility.yul\":2415:2445   */\n      tag_382\n      jump\t// in\n    tag_402:\n        /* \"#utility.yul\":2464:2471   */\n      dup1\n        /* \"#utility.yul\":2454:2471   */\n      swap2\n      pop\n      pop\n        /* \"#utility.yul\":1591:2477   */\n      swap3\n      swap6\n      pop\n      swap3\n      swap6\n      pop\n      swap3\n      swap6\n      jump\t// out\n        /* \"#utility.yul\":2482:2828   */\n    tag_119:\n        /* \"#utility.yul\":2550:2556   */\n      0x00\n        /* \"#utility.yul\":2558:2564   */\n      dup1\n        /* \"#utility.yul\":2611:2613   */\n      0x40\n        /* \"#utility.yul\":2599:2608   */\n      dup4\n        /* \"#utility.yul\":2590:2597   */\n      dup6\n        /* \"#utility.yul\":2586:2609   */\n      sub\n        /* \"#utility.yul\":2582:2614   */\n      slt\n        /* \"#utility.yul\":2579:2631   */\n      iszero\n      tag_404\n      jumpi\n        /* \"#utility.yul\":2627:2628   */\n      0x00\n        /* \"#utility.yul\":2624:2625   */\n      dup1\n        /* \"#utility.yul\":2617:2629   */\n      revert\n        /* \"#utility.yul\":2579:2631   */\n    tag_404:\n      pop\n      pop\n        /* \"#utility.yul\":2672:2695   */\n      dup1\n      calldataload\n      swap3\n        /* \"#utility.yul\":2792:2794   */\n      0x20\n        /* \"#utility.yul\":2777:2795   */\n      swap1\n      swap2\n      add\n        /* \"#utility.yul\":2764:2796   */\n      calldataload\n      swap2\n      pop\n        /* \"#utility.yul\":2482:2828   */\n      jump\t// out\n        /* \"#utility.yul\":3041:3282   */\n    tag_132:\n        /* \"#utility.yul\":3097:3103   */\n      0x00\n        /* \"#utility.yul\":3150:3152   */\n      0x20\n        /* \"#utility.yul\":3138:3147   */\n      dup3\n        /* \"#utility.yul\":3129:3136   */\n      dup5\n        /* \"#utility.yul\":3125:3148   */\n      sub\n        /* \"#utility.yul\":3121:3153   */\n      slt\n        /* \"#utility.yul\":3118:3170   */\n      iszero\n      tag_407\n      jumpi\n        /* \"#utility.yul\":3166:3167   */\n      0x00\n        /* \"#utility.yul\":3163:3164   */\n      dup1\n        /* \"#utility.yul\":3156:3168   */\n      revert\n        /* \"#utility.yul\":3118:3170   */\n    tag_407:\n        /* \"#utility.yul\":3205:3214   */\n      dup2\n        /* \"#utility.yul\":3192:3215   */\n      calldataload\n        /* \"#utility.yul\":3224:3252   */\n      tag_321\n        /* \"#utility.yul\":3246:3251   */\n      dup2\n        /* \"#utility.yul\":3224:3252   */\n      tag_382\n      jump\t// in\n        /* \"#utility.yul\":3287:3641   */\n    tag_149:\n        /* \"#utility.yul\":3489:3491   */\n      0x20\n        /* \"#utility.yul\":3471:3492   */\n      dup1\n      dup3\n      mstore\n        /* \"#utility.yul\":3528:3530   */\n      0x1e\n        /* \"#utility.yul\":3508:3526   */\n      swap1\n      dup3\n      add\n        /* \"#utility.yul\":3501:3531   */\n      mstore\n        /* \"#utility.yul\":3567:3599   */\n      0x43616c6c6572206973206e6f742074686520546f6b656e466163746f72790000\n        /* \"#utility.yul\":3562:3564   */\n      0x40\n        /* \"#utility.yul\":3547:3565   */\n      dup3\n      add\n        /* \"#utility.yul\":3540:3600   */\n      mstore\n        /* \"#utility.yul\":3632:3634   */\n      0x60\n        /* \"#utility.yul\":3617:3635   */\n      add\n      swap1\n        /* \"#utility.yul\":3287:3641   */\n      jump\t// out\n        /* \"#utility.yul\":4399:4526   */\n    tag_383:\n        /* \"#utility.yul\":4460:4470   */\n      0x4e487b71\n        /* \"#utility.yul\":4455:4458   */\n      0xe0\n        /* \"#utility.yul\":4451:4471   */\n      shl\n        /* \"#utility.yul\":4448:4449   */\n      0x00\n        /* \"#utility.yul\":4441:4472   */\n      mstore\n        /* \"#utility.yul\":4491:4495   */\n      0x11\n        /* \"#utility.yul\":4488:4489   */\n      0x04\n        /* \"#utility.yul\":4481:4496   */\n      mstore\n        /* \"#utility.yul\":4515:4519   */\n      0x24\n        /* \"#utility.yul\":4512:4513   */\n      0x00\n        /* \"#utility.yul\":4505:4520   */\n      revert\n        /* \"#utility.yul\":4531:4656   */\n    tag_168:\n        /* \"#utility.yul\":4596:4605   */\n      dup1\n      dup3\n      add\n        /* \"#utility.yul\":4617:4627   */\n      dup1\n      dup3\n      gt\n        /* \"#utility.yul\":4614:4650   */\n      iszero\n      tag_238\n      jumpi\n        /* \"#utility.yul\":4630:4648   */\n      tag_238\n      tag_383\n      jump\t// in\n        /* \"#utility.yul\":4661:4829   */\n    tag_173:\n        /* \"#utility.yul\":4734:4743   */\n      dup1\n      dup3\n      mul\n        /* \"#utility.yul\":4765:4774   */\n      dup2\n      iszero\n        /* \"#utility.yul\":4782:4797   */\n      dup3\n      dup3\n      div\n        /* \"#utility.yul\":4776:4798   */\n      dup5\n      eq\n        /* \"#utility.yul\":4762:4799   */\n      or\n        /* \"#utility.yul\":4752:4823   */\n      tag_238\n      jumpi\n        /* \"#utility.yul\":4803:4821   */\n      tag_238\n      tag_383\n      jump\t// in\n        /* \"#utility.yul\":4834:5051   */\n    tag_175:\n        /* \"#utility.yul\":4874:4875   */\n      0x00\n        /* \"#utility.yul\":4900:4901   */\n      dup3\n        /* \"#utility.yul\":4890:5022   */\n      tag_420\n      jumpi\n        /* \"#utility.yul\":4944:4954   */\n      0x4e487b71\n        /* \"#utility.yul\":4939:4942   */\n      0xe0\n        /* \"#utility.yul\":4935:4955   */\n      shl\n        /* \"#utility.yul\":4932:4933   */\n      0x00\n        /* \"#utility.yul\":4925:4956   */\n      mstore\n        /* \"#utility.yul\":4979:4983   */\n      0x12\n        /* \"#utility.yul\":4976:4977   */\n      0x04\n        /* \"#utility.yul\":4969:4984   */\n      mstore\n        /* \"#utility.yul\":5007:5011   */\n      0x24\n        /* \"#utility.yul\":5004:5005   */\n      0x00\n        /* \"#utility.yul\":4997:5012   */\n      revert\n        /* \"#utility.yul\":4890:5022   */\n    tag_420:\n      pop\n        /* \"#utility.yul\":5036:5045   */\n      div\n      swap1\n        /* \"#utility.yul\":4834:5051   */\n      jump\t// out\n        /* \"#utility.yul\":5056:5184   */\n    tag_178:\n        /* \"#utility.yul\":5123:5132   */\n      dup2\n      dup2\n      sub\n        /* \"#utility.yul\":5144:5155   */\n      dup2\n      dup2\n      gt\n        /* \"#utility.yul\":5141:5178   */\n      iszero\n      tag_238\n      jumpi\n        /* \"#utility.yul\":5158:5176   */\n      tag_238\n      tag_383\n      jump\t// in\n        /* \"#utility.yul\":6127:6372   */\n    tag_199:\n        /* \"#utility.yul\":6194:6200   */\n      0x00\n        /* \"#utility.yul\":6247:6249   */\n      0x20\n        /* \"#utility.yul\":6235:6244   */\n      dup3\n        /* \"#utility.yul\":6226:6233   */\n      dup5\n        /* \"#utility.yul\":6222:6245   */\n      sub\n        /* \"#utility.yul\":6218:6250   */\n      slt\n        /* \"#utility.yul\":6215:6267   */\n      iszero\n      tag_428\n      jumpi\n        /* \"#utility.yul\":6263:6264   */\n      0x00\n        /* \"#utility.yul\":6260:6261   */\n      dup1\n        /* \"#utility.yul\":6253:6265   */\n      revert\n        /* \"#utility.yul\":6215:6267   */\n    tag_428:\n        /* \"#utility.yul\":6295:6304   */\n      dup2\n        /* \"#utility.yul\":6289:6305   */\n      mload\n        /* \"#utility.yul\":6314:6342   */\n      tag_321\n        /* \"#utility.yul\":6336:6341   */\n      dup2\n        /* \"#utility.yul\":6314:6342   */\n      tag_382\n      jump\t// in\n        /* \"#utility.yul\":13521:13933   */\n    tag_346:\n        /* \"#utility.yul\":13650:13653   */\n      0x00\n        /* \"#utility.yul\":13688:13694   */\n      dup3\n        /* \"#utility.yul\":13682:13695   */\n      mload\n        /* \"#utility.yul\":13713:13714   */\n      0x00\n        /* \"#utility.yul\":13723:13852   */\n    tag_451:\n        /* \"#utility.yul\":13737:13743   */\n      dup2\n        /* \"#utility.yul\":13734:13735   */\n      dup2\n        /* \"#utility.yul\":13731:13744   */\n      lt\n        /* \"#utility.yul\":13723:13852   */\n      iszero\n      tag_453\n      jumpi\n        /* \"#utility.yul\":13835:13839   */\n      0x20\n        /* \"#utility.yul\":13819:13833   */\n      dup2\n      dup7\n      add\n        /* \"#utility.yul\":13815:13840   */\n      dup2\n      add\n        /* \"#utility.yul\":13809:13841   */\n      mload\n        /* \"#utility.yul\":13796:13807   */\n      dup6\n      dup4\n      add\n        /* \"#utility.yul\":13789:13842   */\n      mstore\n        /* \"#utility.yul\":13752:13764   */\n      add\n        /* \"#utility.yul\":13723:13852   */\n      jump(tag_451)\n    tag_453:\n      pop\n        /* \"#utility.yul\":13907:13908   */\n      0x00\n        /* \"#utility.yul\":13871:13887   */\n      swap3\n      add\n        /* \"#utility.yul\":13896:13909   */\n      swap2\n      dup3\n      mstore\n      pop\n        /* \"#utility.yul\":13871:13887   */\n      swap2\n        /* \"#utility.yul\":13521:13933   */\n      swap1\n      pop\n      jump\t// out\n        /* \"#utility.yul\":14707:14966   */\n    tag_358:\n        /* \"#utility.yul\":14785:14791   */\n      0x00\n        /* \"#utility.yul\":14838:14840   */\n      0x20\n        /* \"#utility.yul\":14826:14835   */\n      dup3\n        /* \"#utility.yul\":14817:14824   */\n      dup5\n        /* \"#utility.yul\":14813:14836   */\n      sub\n        /* \"#utility.yul\":14809:14841   */\n      slt\n        /* \"#utility.yul\":14806:14858   */\n      iszero\n      tag_457\n      jumpi\n        /* \"#utility.yul\":14854:14855   */\n      0x00\n        /* \"#utility.yul\":14851:14852   */\n      dup1\n        /* \"#utility.yul\":14844:14856   */\n      revert\n        /* \"#utility.yul\":14806:14858   */\n    tag_457:\n        /* \"#utility.yul\":14886:14895   */\n      dup2\n        /* \"#utility.yul\":14880:14896   */\n      mload\n        /* \"#utility.yul\":14905:14936   */\n      tag_321\n        /* \"#utility.yul\":14930:14935   */\n      dup2\n        /* \"#utility.yul\":14905:14936   */\n      tag_381\n      jump\t// in\n    stop\n    data_b7e2fd2a1a77c6a47513f137cc90c7efbf68aa1a289914f29ab6927a7e81c67f 0aab2fa01991cb09a172fcbd047ae0ec54da8e5c963e3160632983264cf02186\n\n    auxdata: 0xa264697066735822122088a3b54ff95ea017365e1ddc4f726baeadac5f648a9be23106b5cf724b9c122564736f6c634300081a0033\n}\n",
				"bytecode": {
					"linkReferences": {},
					"object": "60806040526009805461ff00191661010017905534801561001f57600080fd5b50604051611d87380380611d8783398101604081905261003e9161015f565b60016000556001600160a01b03831661009e5760405162461bcd60e51b815260206004820181905260248201527f446576656c6f70657220616464726573732063616e6e6f74206265207a65726f60448201526064015b60405180910390fd5b6001600160a01b0382166101005760405162461bcd60e51b815260206004820152602360248201527f546f6b656e466163746f727920616464726573732063616e6e6f74206265207a60448201526265726f60e81b6064820152608401610095565b600380546001600160a01b039485166001600160a01b0319918216179091556002805493909416921691909117909155600a556009805461ff001916905561019b565b80516001600160a01b038116811461015a57600080fd5b919050565b60008060006060848603121561017457600080fd5b61017d84610143565b925061018b60208501610143565b9150604084015190509250925092565b611bdd806101aa6000396000f3fe6080604052600436106101815760003560e01c80635a76f25e116100d1578063a000bf4f1161008a578063c98a0aa811610064578063c98a0aa814610420578063c98b7fd214610440578063cc1776d314610460578063e77772fe1461047657600080fd5b8063a000bf4f146103e3578063a482171914610403578063afd6b3c11461040b57600080fd5b80635a76f25e1461034a57806360c72883146103605780638d5f17aa1461037b57806390bc1e851461039a57806396343fd5146103b05780639ed7ef4e146103d057600080fd5b80632182ad881161013e5780633ad10ef6116101185780633ad10ef6146102de578063436d3340146102fe578063443cb4bc1461031e5780634f7041a51461033457600080fd5b80632182ad88146102795780632397e4d714610294578063299ce7b2146102b457600080fd5b806304c80c821461018657806304ccde37146101b85780630902f1ac146101da5780630dfe1681146102025780630f0e7c8a1461023a57806312185a3914610259575b600080fd5b34801561019257600080fd5b506101a56ad51ac75d3cbca70090127981565b6040519081526020015b60405180910390f35b3480156101c457600080fd5b506101d86101d3366004611988565b610496565b005b3480156101e657600080fd5b50600554600654604080519283526020830191909152016101af565b34801561020e57600080fd5b50600154610222906001600160a01b031681565b6040516001600160a01b0390911681526020016101af565b34801561024657600080fd5b506101a56ad51ac75d3ca56ea04771f481565b34801561026557600080fd5b506101d86102743660046119a5565b610574565b34801561028557600080fd5b506101a5667134f38362d66481565b3480156102a057600080fd5b506101a56102af3660046119a5565b6105e3565b3480156102c057600080fd5b506009546102ce9060ff1681565b60405190151581526020016101af565b3480156102ea57600080fd5b50600354610222906001600160a01b031681565b34801561030a57600080fd5b506101d86103193660046119a5565b610990565b34801561032a57600080fd5b506101a560055481565b34801561034057600080fd5b506101a560075481565b34801561035657600080fd5b506101a560065481565b34801561036c57600080fd5b506101a5667134f38362ca0e81565b34801561038757600080fd5b506009546102ce90610100900460ff1681565b3480156103a657600080fd5b506101a5600a5481565b3480156103bc57600080fd5b506101d86103cb3660046119a5565b6109f9565b6101d86103de3660046119cc565b610ab4565b3480156103ef57600080fd5b506102226103fe366004611a33565b610bda565b6101a5610c6d565b34801561041757600080fd5b506101d8611179565b34801561042c57600080fd5b506101d861043b366004611a55565b611183565b34801561044c57600080fd5b50600454610222906001600160a01b031681565b34801561046c57600080fd5b506101a560085481565b34801561048257600080fd5b50600254610222906001600160a01b031681565b6002546001600160a01b031633146104c95760405162461bcd60e51b81526004016104c090611a72565b60405180910390fd5b6001600160a01b03811661052a5760405162461bcd60e51b815260206004820152602260248201527f496e697469616c697a657220616464726573732063616e6e6f74206265207a65604482015261726f60f01b60648201526084016104c0565b600480546001600160a01b0319166001600160a01b0383169081179091556040517fe6223ef4a6cc26f11671126040eb90609754df785e229f9fc28e9612ca3380bc90600090a250565b6002546001600160a01b0316331461059e5760405162461bcd60e51b81526004016104c090611a72565b600881905560075460408051918252602082018390527fb841faf0d1b32571f4ef966a2f35e3ae51f3cdda45318c3da5570a5b2ad8560591015b60405180910390a150565b60006105ed6111f6565b600082116106355760405162461bcd60e51b81526020600482015260156024820152744d7573742073656c6c20736f6d6520746f6b656e7360581b60448201526064016104c0565b6000826005546106459190611abf565b9050600061065e6ad51ac75d3cbca70090127983611abf565b667134f38362d6646006546106739190611abf565b6ad51ac75d3cbca70090127960055461068c9190611abf565b6106969190611ad2565b6106a09190611ae9565b9050667134f38362d6648110156106bb5750667134f38362d6645b60006106ce667134f38362d66483611b0b565b905060065481116106ec57806006546106e79190611b0b565b6106f0565b6006545b935082600581905550836006600082825461070b9190611b0b565b90915550506008546000906103e8906107249087611ad2565b61072e9190611ae9565b905061073a8186611b0b565b6003546040519196506000916001600160a01b039091169083908381818185875af1925050503d806000811461078c576040519150601f19603f3d011682016040523d82523d6000602084013e610791565b606091505b50509050806107e25760405162461bcd60e51b815260206004820152601760248201527f4661696c656420746f2073656e642073656c6c2074617800000000000000000060448201526064016104c0565b6001546040516323b872dd60e01b8152336004820152306024820152604481018990526001600160a01b03909116906323b872dd906064016020604051808303816000875af1158015610839573d6000803e3d6000fd5b505050506040513d601f19601f8201168201806040525081019061085d9190611b1e565b6108a55760405162461bcd60e51b81526020600482015260196024820152784661696c656420746f207472616e7366657220746f6b656e7360381b60448201526064016104c0565b604051600090339088908381818185875af1925050503d80600081146108e7576040519150601f19603f3d011682016040523d82523d6000602084013e6108ec565b606091505b50509050806109345760405162461bcd60e51b81526020600482015260146024820152732330b4b632b2103a379039b2b7321032ba3432b960611b60448201526064016104c0565b600854604080518a8152602081018a90529081019190915233907f6db63bebf1e6540277744df32846ebdb98385b1a73f2d5de49b28348add63f509060600160405180910390a250505050505061098b6001600055565b919050565b6002546001600160a01b031633146109ba5760405162461bcd60e51b81526004016104c090611a72565b60078190556008546040805183815260208101929092527fb841faf0d1b32571f4ef966a2f35e3ae51f3cdda45318c3da5570a5b2ad8560591016105d8565b6002546001600160a01b03163314610a235760405162461bcd60e51b81526004016104c090611a72565b60008111610a7f5760405162461bcd60e51b815260206004820152602360248201527f5468726573686f6c64206d7573742062652067726561746572207468616e207a60448201526265726f60e81b60648201526084016104c0565b600a8190556040518181527f4ad9ae9229776f627d7d2be995964376397890e11bbfa94e8826810419a6ef6b906020016105d8565b6002546001600160a01b03163314610ade5760405162461bcd60e51b81526004016104c090611a72565b610ae66111f6565b6001546001600160a01b031615610b3f5760405162461bcd60e51b815260206004820152601860248201527f506f6f6c20616c726561647920696e697469616c697a6564000000000000000060448201526064016104c0565b600180546001600160a01b03199081166001600160a01b0389811691909117909255600587905560078690556008859055600480549091169184169190911790556009805461ff0019166101008315150217905560405185815233907fc17cea59c2955cb181b03393209566960365771dbba9dc3d510180e7cb3120889060200160405180910390a2610bd26001600055565b505050505050565b60008083118015610beb5750600082115b610c415760405162461bcd60e51b815260206004820152602160248201527f416d6f756e7473206d7573742062652067726561746572207468616e207a65726044820152606f60f81b60648201526084016104c0565b6000610c5184606085901b611ae9565b905060006030610c6083611220565b901b925050505b92915050565b6000610c776111f6565b60095460ff1615610cca5760405162461bcd60e51b815260206004820152601860248201527f506f6f6c206d6967726174656420746f20416c6765627261000000000000000060448201526064016104c0565b60003411610d1a5760405162461bcd60e51b815260206004820152601d60248201527f4d7573742073656e6420457468657220746f2062757920746f6b656e7300000060448201526064016104c0565b6702c68af0bb14000060065410610d625760405162461bcd60e51b815260206004820152600c60248201526b141bdbdb081a5cc8199d5b1b60a21b60448201526064016104c0565b600060055411610dac5760405162461bcd60e51b8152602060048201526015602482015274139bc81d1bdad95b9cc81a5b881d1a19481c1bdbdb605a1b60448201526064016104c0565b60006103e860075434610dbf9190611ad2565b610dc99190611ae9565b90506000610dd78234611b0b565b90506702c68af0bb14000081600654610df09190611abf565b10610ee65760006006546702c68af0bb140000610e0d9190611b0b565b90506000610e1b8284611b0b565b90508160066000828254610e2f9190611abf565b909155505060058054600090915594508015610edf57604051600090339083908381818185875af1925050503d8060008114610e87576040519150601f19603f3d011682016040523d82523d6000602084013e610e8c565b606091505b5050905080610edd5760405162461bcd60e51b815260206004820152601d60248201527f4661696c656420746f20726566756e642065786365737320657468657200000060448201526064016104c0565b505b5050610fcd565b600081600654610ef69190611abf565b90506000610f0b667134f38362ca0e83611abf565b667134f38362d664600654610f209190611abf565b6ad51ac75d3cbca700901279600554610f399190611abf565b610f439190611ad2565b610f4d9190611ae9565b90506ad51ac75d3ca56ea04771f4811015610f7057506ad51ac75d3ca56ea04771f45b6000610f876ad51ac75d3ca56ea04771f483611b0b565b90506005548111610fa55780600554610fa09190611b0b565b610fa9565b6005545b9550826006819055508560056000828254610fc49190611b0b565b90915550505050505b60015460405163a9059cbb60e01b8152336004820152602481018590526001600160a01b039091169063a9059cbb906044016020604051808303816000875af115801561101e573d6000803e3d6000fd5b505050506040513d601f19601f820116820180604052508101906110429190611b1e565b61108a5760405162461bcd60e51b81526020600482015260196024820152784661696c656420746f207472616e7366657220746f6b656e7360381b60448201526064016104c0565b6003546040516000916001600160a01b03169084908381818185875af1925050503d80600081146110d7576040519150601f19603f3d011682016040523d82523d6000602084013e6110dc565b606091505b50509050806111265760405162461bcd60e51b815260206004820152601660248201527508cc2d2d8cac840e8de40e6cadcc840c4eaf240e8c2f60531b60448201526064016104c0565b604080513481526020810186905290810184905233907f0d1a0d5e3d583a0e92588799dd06e50fd78c07daf05f0cc06d7b848b1ca445f19060600160405180910390a25050506111766001600055565b90565b611181611277565b565b6002546001600160a01b031633146111ad5760405162461bcd60e51b81526004016104c090611a72565b600980548215156101000261ff00199091161790556040517fe7e0bd136ab3b57e3e925774a811e2482df79072fa45d011a4f088abfcc209d2906105d890831515815260200190565b60026000540361121957604051633ee5aeb560e01b815260040160405180910390fd5b6002600055565b6000806002611230846001611abf565b61123a9190611ae9565b9050825b808210156112705750806002816112558187611ae9565b61125f9190611abf565b6112699190611ae9565b915061123e565b9392505050565b61127f6111f6565b42306001600160a01b0316600080516020611b888339815191526040516112cb90602080825260119082015270135a59dc985d1a5bdb881cdd185c9d1959607a1b604082015260600190565b60405180910390a360095460ff16156113265760405162461bcd60e51b815260206004820152601b60248201527f416c7265616479206d6967726174656420746f20416c6765627261000000000060448201526064016104c0565b42306001600160a01b0316600080516020611b8883398151915260405161137790602080825260169082015275135a59dc985d1a5bdb8818da1958dac81c185cdcd95960521b604082015260600190565b60405180910390a36004546001600160a01b03166113e75760405162461bcd60e51b815260206004820152602760248201527f416c676562726120506f6f6c496e697469616c697a65722061646472657373206044820152661b9bdd081cd95d60ca1b60648201526084016104c0565b60045460405142916001600160a01b031690600080516020611b88833981519152906114449060208082526018908201527f496e697469616c697a657220636865636b207061737365640000000000000000604082015260600190565b60405180910390a3600061145a60016064610bda565b9050806001600160a01b031660006001600160a01b0316600080516020611b888339815191526040516114be9060208082526017908201527f5371727450726963655839362063616c63756c61746564000000000000000000604082015260600190565b60405180910390a36001546040516001600160a01b039182166024820152306044820152908216606482015260009060840160408051601f198184030181529181526020820180516001600160e01b031663289236b760e11b179052600454905191925060009182916001600160a01b03169061153c908590611b3b565b6000604051808303816000865af19150503d8060008114611579576040519150601f19603f3d011682016040523d82523d6000602084013e61157e565b606091505b50915091508161158f576000611592565b60015b60045460405160ff92909216916001600160a01b0390911690600080516020611b88833981519152906115f69060208082526018908201527f43616c6c20746f20696e697469616c697a6572206d6164650000000000000000604082015260600190565b60405180910390a3816116635760405162461bcd60e51b815260206004820152602f60248201527f416c676562726120706f6f6c206372656174696f6e20616e6420696e6974696160448201526e1b1a5e985d1a5bdb8819985a5b1959608a1b60648201526084016104c0565b6000818060200190518101906116799190611b6a565b905042816001600160a01b0316600080516020611b888339815191526040516116ca90602080825260149082015273141bdbdb081859191c995cdcc8191958dbd9195960621b604082015260600190565b60405180910390a36001600160a01b0381166117285760405162461bcd60e51b815260206004820152601c60248201527f496e76616c696420416c676562726120706f6f6c20616464726573730000000060448201526064016104c0565b60015460055460405163a9059cbb60e01b81526001600160a01b038481166004830152602482019290925291169063a9059cbb906044016020604051808303816000875af115801561177e573d6000803e3d6000fd5b505050506040513d601f19601f820116820180604052508101906117a29190611b1e565b50600554816001600160a01b0316600080516020611b888339815191526040516117f290602080825260129082015271151bdad95b9cc81d1c985b9cd9995c9c995960721b604082015260600190565b60405180910390a36006546040516000916001600160a01b038416918381818185875af1925050503d8060008114611846576040519150601f19603f3d011682016040523d82523d6000602084013e61184b565b606091505b50509050806118ad5760405162461bcd60e51b815260206004820152602860248201527f4661696c656420746f207472616e7366657220457468657220746f20416c6765604482015267189c98481c1bdbdb60c21b60648201526084016104c0565b600654826001600160a01b0316600080516020611b888339815191526040516118fb90602080825260119082015270115d1a195c881d1c985b9cd9995c9c9959607a1b604082015260600190565b60405180910390a36009805460ff191660011790556005546006546040516001600160a01b038516927f681fa2c4629192623c409b90cb2463cea250bd2012f3ac5f34af5cfa45d4822a9261195892918252602082015260400190565b60405180910390a25050505050506111816001600055565b6001600160a01b038116811461198557600080fd5b50565b60006020828403121561199a57600080fd5b813561127081611970565b6000602082840312156119b757600080fd5b5035919050565b801515811461198557600080fd5b60008060008060008060c087890312156119e557600080fd5b86356119f081611970565b95506020870135945060408701359350606087013592506080870135611a1581611970565b915060a0870135611a25816119be565b809150509295509295509295565b60008060408385031215611a4657600080fd5b50508035926020909101359150565b600060208284031215611a6757600080fd5b8135611270816119be565b6020808252601e908201527f43616c6c6572206973206e6f742074686520546f6b656e466163746f72790000604082015260600190565b634e487b7160e01b600052601160045260246000fd5b80820180821115610c6757610c67611aa9565b8082028115828204841417610c6757610c67611aa9565b600082611b0657634e487b7160e01b600052601260045260246000fd5b500490565b81810381811115610c6757610c67611aa9565b600060208284031215611b3057600080fd5b8151611270816119be565b6000825160005b81811015611b5c5760208186018101518583015201611b42565b506000920191825250919050565b600060208284031215611b7c57600080fd5b81516112708161197056fe0aab2fa01991cb09a172fcbd047ae0ec54da8e5c963e3160632983264cf02186a264697066735822122088a3b54ff95ea017365e1ddc4f726baeadac5f648a9be23106b5cf724b9c122564736f6c634300081a0033",
					"opcodes": "PUSH1 0x80 PUSH1 0x40 MSTORE PUSH1 0x9 DUP1 SLOAD PUSH2 0xFF00 NOT AND PUSH2 0x100 OR SWAP1 SSTORE CALLVALUE DUP1 ISZERO PUSH2 0x1F JUMPI PUSH1 0x0 DUP1 REVERT JUMPDEST POP PUSH1 0x40 MLOAD PUSH2 0x1D87 CODESIZE SUB DUP1 PUSH2 0x1D87 DUP4 CODECOPY DUP2 ADD PUSH1 0x40 DUP2 SWAP1 MSTORE PUSH2 0x3E SWAP2 PUSH2 0x15F JUMP JUMPDEST PUSH1 0x1 PUSH1 0x0 SSTORE PUSH1 0x1 PUSH1 0x1 PUSH1 0xA0 SHL SUB DUP4 AND PUSH2 0x9E JUMPI PUSH1 0x40 MLOAD PUSH3 0x461BCD PUSH1 0xE5 SHL DUP2 MSTORE PUSH1 0x20 PUSH1 0x4 DUP3 ADD DUP2 SWAP1 MSTORE PUSH1 0x24 DUP3 ADD MSTORE PUSH32 0x446576656C6F70657220616464726573732063616E6E6F74206265207A65726F PUSH1 0x44 DUP3 ADD MSTORE PUSH1 0x64 ADD JUMPDEST PUSH1 0x40 MLOAD DUP1 SWAP2 SUB SWAP1 REVERT JUMPDEST PUSH1 0x1 PUSH1 0x1 PUSH1 0xA0 SHL SUB DUP3 AND PUSH2 0x100 JUMPI PUSH1 0x40 MLOAD PUSH3 0x461BCD PUSH1 0xE5 SHL DUP2 MSTORE PUSH1 0x20 PUSH1 0x4 DUP3 ADD MSTORE PUSH1 0x23 PUSH1 0x24 DUP3 ADD MSTORE PUSH32 0x546F6B656E466163746F727920616464726573732063616E6E6F74206265207A PUSH1 0x44 DUP3 ADD MSTORE PUSH3 0x65726F PUSH1 0xE8 SHL PUSH1 0x64 DUP3 ADD MSTORE PUSH1 0x84 ADD PUSH2 0x95 JUMP JUMPDEST PUSH1 0x3 DUP1 SLOAD PUSH1 0x1 PUSH1 0x1 PUSH1 0xA0 SHL SUB SWAP5 DUP6 AND PUSH1 0x1 PUSH1 0x1 PUSH1 0xA0 SHL SUB NOT SWAP2 DUP3 AND OR SWAP1 SWAP2 SSTORE PUSH1 0x2 DUP1 SLOAD SWAP4 SWAP1 SWAP5 AND SWAP3 AND SWAP2 SWAP1 SWAP2 OR SWAP1 SWAP2 SSTORE PUSH1 0xA SSTORE PUSH1 0x9 DUP1 SLOAD PUSH2 0xFF00 NOT AND SWAP1 SSTORE PUSH2 0x19B JUMP JUMPDEST DUP1 MLOAD PUSH1 0x1 PUSH1 0x1 PUSH1 0xA0 SHL SUB DUP2 AND DUP2 EQ PUSH2 0x15A JUMPI PUSH1 0x0 DUP1 REVERT JUMPDEST SWAP2 SWAP1 POP JUMP JUMPDEST PUSH1 0x0 DUP1 PUSH1 0x0 PUSH1 0x60 DUP5 DUP7 SUB SLT ISZERO PUSH2 0x174 JUMPI PUSH1 0x0 DUP1 REVERT JUMPDEST PUSH2 0x17D DUP5 PUSH2 0x143 JUMP JUMPDEST SWAP3 POP PUSH2 0x18B PUSH1 0x20 DUP6 ADD PUSH2 0x143 JUMP JUMPDEST SWAP2 POP PUSH1 0x40 DUP5 ADD MLOAD SWAP1 POP SWAP3 POP SWAP3 POP SWAP3 JUMP JUMPDEST PUSH2 0x1BDD DUP1 PUSH2 0x1AA PUSH1 0x0 CODECOPY PUSH1 0x0 RETURN INVALID PUSH1 0x80 PUSH1 0x40 MSTORE PUSH1 0x4 CALLDATASIZE LT PUSH2 0x181 JUMPI PUSH1 0x0 CALLDATALOAD PUSH1 0xE0 SHR DUP1 PUSH4 0x5A76F25E GT PUSH2 0xD1 JUMPI DUP1 PUSH4 0xA000BF4F GT PUSH2 0x8A JUMPI DUP1 PUSH4 0xC98A0AA8 GT PUSH2 0x64 JUMPI DUP1 PUSH4 0xC98A0AA8 EQ PUSH2 0x420 JUMPI DUP1 PUSH4 0xC98B7FD2 EQ PUSH2 0x440 JUMPI DUP1 PUSH4 0xCC1776D3 EQ PUSH2 0x460 JUMPI DUP1 PUSH4 0xE77772FE EQ PUSH2 0x476 JUMPI PUSH1 0x0 DUP1 REVERT JUMPDEST DUP1 PUSH4 0xA000BF4F EQ PUSH2 0x3E3 JUMPI DUP1 PUSH4 0xA4821719 EQ PUSH2 0x403 JUMPI DUP1 PUSH4 0xAFD6B3C1 EQ PUSH2 0x40B JUMPI PUSH1 0x0 DUP1 REVERT JUMPDEST DUP1 PUSH4 0x5A76F25E EQ PUSH2 0x34A JUMPI DUP1 PUSH4 0x60C72883 EQ PUSH2 0x360 JUMPI DUP1 PUSH4 0x8D5F17AA EQ PUSH2 0x37B JUMPI DUP1 PUSH4 0x90BC1E85 EQ PUSH2 0x39A JUMPI DUP1 PUSH4 0x96343FD5 EQ PUSH2 0x3B0 JUMPI DUP1 PUSH4 0x9ED7EF4E EQ PUSH2 0x3D0 JUMPI PUSH1 0x0 DUP1 REVERT JUMPDEST DUP1 PUSH4 0x2182AD88 GT PUSH2 0x13E JUMPI DUP1 PUSH4 0x3AD10EF6 GT PUSH2 0x118 JUMPI DUP1 PUSH4 0x3AD10EF6 EQ PUSH2 0x2DE JUMPI DUP1 PUSH4 0x436D3340 EQ PUSH2 0x2FE JUMPI DUP1 PUSH4 0x443CB4BC EQ PUSH2 0x31E JUMPI DUP1 PUSH4 0x4F7041A5 EQ PUSH2 0x334 JUMPI PUSH1 0x0 DUP1 REVERT JUMPDEST DUP1 PUSH4 0x2182AD88 EQ PUSH2 0x279 JUMPI DUP1 PUSH4 0x2397E4D7 EQ PUSH2 0x294 JUMPI DUP1 PUSH4 0x299CE7B2 EQ PUSH2 0x2B4 JUMPI PUSH1 0x0 DUP1 REVERT JUMPDEST DUP1 PUSH4 0x4C80C82 EQ PUSH2 0x186 JUMPI DUP1 PUSH4 0x4CCDE37 EQ PUSH2 0x1B8 JUMPI DUP1 PUSH4 0x902F1AC EQ PUSH2 0x1DA JUMPI DUP1 PUSH4 0xDFE1681 EQ PUSH2 0x202 JUMPI DUP1 PUSH4 0xF0E7C8A EQ PUSH2 0x23A JUMPI DUP1 PUSH4 0x12185A39 EQ PUSH2 0x259 JUMPI JUMPDEST PUSH1 0x0 DUP1 REVERT JUMPDEST CALLVALUE DUP1 ISZERO PUSH2 0x192 JUMPI PUSH1 0x0 DUP1 REVERT JUMPDEST POP PUSH2 0x1A5 PUSH11 0xD51AC75D3CBCA700901279 DUP2 JUMP JUMPDEST PUSH1 0x40 MLOAD SWAP1 DUP2 MSTORE PUSH1 0x20 ADD JUMPDEST PUSH1 0x40 MLOAD DUP1 SWAP2 SUB SWAP1 RETURN JUMPDEST CALLVALUE DUP1 ISZERO PUSH2 0x1C4 JUMPI PUSH1 0x0 DUP1 REVERT JUMPDEST POP PUSH2 0x1D8 PUSH2 0x1D3 CALLDATASIZE PUSH1 0x4 PUSH2 0x1988 JUMP JUMPDEST PUSH2 0x496 JUMP JUMPDEST STOP JUMPDEST CALLVALUE DUP1 ISZERO PUSH2 0x1E6 JUMPI PUSH1 0x0 DUP1 REVERT JUMPDEST POP PUSH1 0x5 SLOAD PUSH1 0x6 SLOAD PUSH1 0x40 DUP1 MLOAD SWAP3 DUP4 MSTORE PUSH1 0x20 DUP4 ADD SWAP2 SWAP1 SWAP2 MSTORE ADD PUSH2 0x1AF JUMP JUMPDEST CALLVALUE DUP1 ISZERO PUSH2 0x20E JUMPI PUSH1 0x0 DUP1 REVERT JUMPDEST POP PUSH1 0x1 SLOAD PUSH2 0x222 SWAP1 PUSH1 0x1 PUSH1 0x1 PUSH1 0xA0 SHL SUB AND DUP2 JUMP JUMPDEST PUSH1 0x40 MLOAD PUSH1 0x1 PUSH1 0x1 PUSH1 0xA0 SHL SUB SWAP1 SWAP2 AND DUP2 MSTORE PUSH1 0x20 ADD PUSH2 0x1AF JUMP JUMPDEST CALLVALUE DUP1 ISZERO PUSH2 0x246 JUMPI PUSH1 0x0 DUP1 REVERT JUMPDEST POP PUSH2 0x1A5 PUSH11 0xD51AC75D3CA56EA04771F4 DUP2 JUMP JUMPDEST CALLVALUE DUP1 ISZERO PUSH2 0x265 JUMPI PUSH1 0x0 DUP1 REVERT JUMPDEST POP PUSH2 0x1D8 PUSH2 0x274 CALLDATASIZE PUSH1 0x4 PUSH2 0x19A5 JUMP JUMPDEST PUSH2 0x574 JUMP JUMPDEST CALLVALUE DUP1 ISZERO PUSH2 0x285 JUMPI PUSH1 0x0 DUP1 REVERT JUMPDEST POP PUSH2 0x1A5 PUSH7 0x7134F38362D664 DUP2 JUMP JUMPDEST CALLVALUE DUP1 ISZERO PUSH2 0x2A0 JUMPI PUSH1 0x0 DUP1 REVERT JUMPDEST POP PUSH2 0x1A5 PUSH2 0x2AF CALLDATASIZE PUSH1 0x4 PUSH2 0x19A5 JUMP JUMPDEST PUSH2 0x5E3 JUMP JUMPDEST CALLVALUE DUP1 ISZERO PUSH2 0x2C0 JUMPI PUSH1 0x0 DUP1 REVERT JUMPDEST POP PUSH1 0x9 SLOAD PUSH2 0x2CE SWAP1 PUSH1 0xFF AND DUP2 JUMP JUMPDEST PUSH1 0x40 MLOAD SWAP1 ISZERO ISZERO DUP2 MSTORE PUSH1 0x20 ADD PUSH2 0x1AF JUMP JUMPDEST CALLVALUE DUP1 ISZERO PUSH2 0x2EA JUMPI PUSH1 0x0 DUP1 REVERT JUMPDEST POP PUSH1 0x3 SLOAD PUSH2 0x222 SWAP1 PUSH1 0x1 PUSH1 0x1 PUSH1 0xA0 SHL SUB AND DUP2 JUMP JUMPDEST CALLVALUE DUP1 ISZERO PUSH2 0x30A JUMPI PUSH1 0x0 DUP1 REVERT JUMPDEST POP PUSH2 0x1D8 PUSH2 0x319 CALLDATASIZE PUSH1 0x4 PUSH2 0x19A5 JUMP JUMPDEST PUSH2 0x990 JUMP JUMPDEST CALLVALUE DUP1 ISZERO PUSH2 0x32A JUMPI PUSH1 0x0 DUP1 REVERT JUMPDEST POP PUSH2 0x1A5 PUSH1 0x5 SLOAD DUP2 JUMP JUMPDEST CALLVALUE DUP1 ISZERO PUSH2 0x340 JUMPI PUSH1 0x0 DUP1 REVERT JUMPDEST POP PUSH2 0x1A5 PUSH1 0x7 SLOAD DUP2 JUMP JUMPDEST CALLVALUE DUP1 ISZERO PUSH2 0x356 JUMPI PUSH1 0x0 DUP1 REVERT JUMPDEST POP PUSH2 0x1A5 PUSH1 0x6 SLOAD DUP2 JUMP JUMPDEST CALLVALUE DUP1 ISZERO PUSH2 0x36C JUMPI PUSH1 0x0 DUP1 REVERT JUMPDEST POP PUSH2 0x1A5 PUSH7 0x7134F38362CA0E DUP2 JUMP JUMPDEST CALLVALUE DUP1 ISZERO PUSH2 0x387 JUMPI PUSH1 0x0 DUP1 REVERT JUMPDEST POP PUSH1 0x9 SLOAD PUSH2 0x2CE SWAP1 PUSH2 0x100 SWAP1 DIV PUSH1 0xFF AND DUP2 JUMP JUMPDEST CALLVALUE DUP1 ISZERO PUSH2 0x3A6 JUMPI PUSH1 0x0 DUP1 REVERT JUMPDEST POP PUSH2 0x1A5 PUSH1 0xA SLOAD DUP2 JUMP JUMPDEST CALLVALUE DUP1 ISZERO PUSH2 0x3BC JUMPI PUSH1 0x0 DUP1 REVERT JUMPDEST POP PUSH2 0x1D8 PUSH2 0x3CB CALLDATASIZE PUSH1 0x4 PUSH2 0x19A5 JUMP JUMPDEST PUSH2 0x9F9 JUMP JUMPDEST PUSH2 0x1D8 PUSH2 0x3DE CALLDATASIZE PUSH1 0x4 PUSH2 0x19CC JUMP JUMPDEST PUSH2 0xAB4 JUMP JUMPDEST CALLVALUE DUP1 ISZERO PUSH2 0x3EF JUMPI PUSH1 0x0 DUP1 REVERT JUMPDEST POP PUSH2 0x222 PUSH2 0x3FE CALLDATASIZE PUSH1 0x4 PUSH2 0x1A33 JUMP JUMPDEST PUSH2 0xBDA JUMP JUMPDEST PUSH2 0x1A5 PUSH2 0xC6D JUMP JUMPDEST CALLVALUE DUP1 ISZERO PUSH2 0x417 JUMPI PUSH1 0x0 DUP1 REVERT JUMPDEST POP PUSH2 0x1D8 PUSH2 0x1179 JUMP JUMPDEST CALLVALUE DUP1 ISZERO PUSH2 0x42C JUMPI PUSH1 0x0 DUP1 REVERT JUMPDEST POP PUSH2 0x1D8 PUSH2 0x43B CALLDATASIZE PUSH1 0x4 PUSH2 0x1A55 JUMP JUMPDEST PUSH2 0x1183 JUMP JUMPDEST CALLVALUE DUP1 ISZERO PUSH2 0x44C JUMPI PUSH1 0x0 DUP1 REVERT JUMPDEST POP PUSH1 0x4 SLOAD PUSH2 0x222 SWAP1 PUSH1 0x1 PUSH1 0x1 PUSH1 0xA0 SHL SUB AND DUP2 JUMP JUMPDEST CALLVALUE DUP1 ISZERO PUSH2 0x46C JUMPI PUSH1 0x0 DUP1 REVERT JUMPDEST POP PUSH2 0x1A5 PUSH1 0x8 SLOAD DUP2 JUMP JUMPDEST CALLVALUE DUP1 ISZERO PUSH2 0x482 JUMPI PUSH1 0x0 DUP1 REVERT JUMPDEST POP PUSH1 0x2 SLOAD PUSH2 0x222 SWAP1 PUSH1 0x1 PUSH1 0x1 PUSH1 0xA0 SHL SUB AND DUP2 JUMP JUMPDEST PUSH1 0x2 SLOAD PUSH1 0x1 PUSH1 0x1 PUSH1 0xA0 SHL SUB AND CALLER EQ PUSH2 0x4C9 JUMPI PUSH1 0x40 MLOAD PUSH3 0x461BCD PUSH1 0xE5 SHL DUP2 MSTORE PUSH1 0x4 ADD PUSH2 0x4C0 SWAP1 PUSH2 0x1A72 JUMP JUMPDEST PUSH1 0x40 MLOAD DUP1 SWAP2 SUB SWAP1 REVERT JUMPDEST PUSH1 0x1 PUSH1 0x1 PUSH1 0xA0 SHL SUB DUP2 AND PUSH2 0x52A JUMPI PUSH1 0x40 MLOAD PUSH3 0x461BCD PUSH1 0xE5 SHL DUP2 MSTORE PUSH1 0x20 PUSH1 0x4 DUP3 ADD MSTORE PUSH1 0x22 PUSH1 0x24 DUP3 ADD MSTORE PUSH32 0x496E697469616C697A657220616464726573732063616E6E6F74206265207A65 PUSH1 0x44 DUP3 ADD MSTORE PUSH2 0x726F PUSH1 0xF0 SHL PUSH1 0x64 DUP3 ADD MSTORE PUSH1 0x84 ADD PUSH2 0x4C0 JUMP JUMPDEST PUSH1 0x4 DUP1 SLOAD PUSH1 0x1 PUSH1 0x1 PUSH1 0xA0 SHL SUB NOT AND PUSH1 0x1 PUSH1 0x1 PUSH1 0xA0 SHL SUB DUP4 AND SWAP1 DUP2 OR SWAP1 SWAP2 SSTORE PUSH1 0x40 MLOAD PUSH32 0xE6223EF4A6CC26F11671126040EB90609754DF785E229F9FC28E9612CA3380BC SWAP1 PUSH1 0x0 SWAP1 LOG2 POP JUMP JUMPDEST PUSH1 0x2 SLOAD PUSH1 0x1 PUSH1 0x1 PUSH1 0xA0 SHL SUB AND CALLER EQ PUSH2 0x59E JUMPI PUSH1 0x40 MLOAD PUSH3 0x461BCD PUSH1 0xE5 SHL DUP2 MSTORE PUSH1 0x4 ADD PUSH2 0x4C0 SWAP1 PUSH2 0x1A72 JUMP JUMPDEST PUSH1 0x8 DUP2 SWAP1 SSTORE PUSH1 0x7 SLOAD PUSH1 0x40 DUP1 MLOAD SWAP2 DUP3 MSTORE PUSH1 0x20 DUP3 ADD DUP4 SWAP1 MSTORE PUSH32 0xB841FAF0D1B32571F4EF966A2F35E3AE51F3CDDA45318C3DA5570A5B2AD85605 SWAP2 ADD JUMPDEST PUSH1 0x40 MLOAD DUP1 SWAP2 SUB SWAP1 LOG1 POP JUMP JUMPDEST PUSH1 0x0 PUSH2 0x5ED PUSH2 0x11F6 JUMP JUMPDEST PUSH1 0x0 DUP3 GT PUSH2 0x635 JUMPI PUSH1 0x40 MLOAD PUSH3 0x461BCD PUSH1 0xE5 SHL DUP2 MSTORE PUSH1 0x20 PUSH1 0x4 DUP3 ADD MSTORE PUSH1 0x15 PUSH1 0x24 DUP3 ADD MSTORE PUSH21 0x4D7573742073656C6C20736F6D6520746F6B656E73 PUSH1 0x58 SHL PUSH1 0x44 DUP3 ADD MSTORE PUSH1 0x64 ADD PUSH2 0x4C0 JUMP JUMPDEST PUSH1 0x0 DUP3 PUSH1 0x5 SLOAD PUSH2 0x645 SWAP2 SWAP1 PUSH2 0x1ABF JUMP JUMPDEST SWAP1 POP PUSH1 0x0 PUSH2 0x65E PUSH11 0xD51AC75D3CBCA700901279 DUP4 PUSH2 0x1ABF JUMP JUMPDEST PUSH7 0x7134F38362D664 PUSH1 0x6 SLOAD PUSH2 0x673 SWAP2 SWAP1 PUSH2 0x1ABF JUMP JUMPDEST PUSH11 0xD51AC75D3CBCA700901279 PUSH1 0x5 SLOAD PUSH2 0x68C SWAP2 SWAP1 PUSH2 0x1ABF JUMP JUMPDEST PUSH2 0x696 SWAP2 SWAP1 PUSH2 0x1AD2 JUMP JUMPDEST PUSH2 0x6A0 SWAP2 SWAP1 PUSH2 0x1AE9 JUMP JUMPDEST SWAP1 POP PUSH7 0x7134F38362D664 DUP2 LT ISZERO PUSH2 0x6BB JUMPI POP PUSH7 0x7134F38362D664 JUMPDEST PUSH1 0x0 PUSH2 0x6CE PUSH7 0x7134F38362D664 DUP4 PUSH2 0x1B0B JUMP JUMPDEST SWAP1 POP PUSH1 0x6 SLOAD DUP2 GT PUSH2 0x6EC JUMPI DUP1 PUSH1 0x6 SLOAD PUSH2 0x6E7 SWAP2 SWAP1 PUSH2 0x1B0B JUMP JUMPDEST PUSH2 0x6F0 JUMP JUMPDEST PUSH1 0x6 SLOAD JUMPDEST SWAP4 POP DUP3 PUSH1 0x5 DUP2 SWAP1 SSTORE POP DUP4 PUSH1 0x6 PUSH1 0x0 DUP3 DUP3 SLOAD PUSH2 0x70B SWAP2 SWAP1 PUSH2 0x1B0B JUMP JUMPDEST SWAP1 SWAP2 SSTORE POP POP PUSH1 0x8 SLOAD PUSH1 0x0 SWAP1 PUSH2 0x3E8 SWAP1 PUSH2 0x724 SWAP1 DUP8 PUSH2 0x1AD2 JUMP JUMPDEST PUSH2 0x72E SWAP2 SWAP1 PUSH2 0x1AE9 JUMP JUMPDEST SWAP1 POP PUSH2 0x73A DUP2 DUP7 PUSH2 0x1B0B JUMP JUMPDEST PUSH1 0x3 SLOAD PUSH1 0x40 MLOAD SWAP2 SWAP7 POP PUSH1 0x0 SWAP2 PUSH1 0x1 PUSH1 0x1 PUSH1 0xA0 SHL SUB SWAP1 SWAP2 AND SWAP1 DUP4 SWAP1 DUP4 DUP2 DUP2 DUP2 DUP6 DUP8 GAS CALL SWAP3 POP POP POP RETURNDATASIZE DUP1 PUSH1 0x0 DUP2 EQ PUSH2 0x78C JUMPI PUSH1 0x40 MLOAD SWAP2 POP PUSH1 0x1F NOT PUSH1 0x3F RETURNDATASIZE ADD AND DUP3 ADD PUSH1 0x40 MSTORE RETURNDATASIZE DUP3 MSTORE RETURNDATASIZE PUSH1 0x0 PUSH1 0x20 DUP5 ADD RETURNDATACOPY PUSH2 0x791 JUMP JUMPDEST PUSH1 0x60 SWAP2 POP JUMPDEST POP POP SWAP1 POP DUP1 PUSH2 0x7E2 JUMPI PUSH1 0x40 MLOAD PUSH3 0x461BCD PUSH1 0xE5 SHL DUP2 MSTORE PUSH1 0x20 PUSH1 0x4 DUP3 ADD MSTORE PUSH1 0x17 PUSH1 0x24 DUP3 ADD MSTORE PUSH32 0x4661696C656420746F2073656E642073656C6C20746178000000000000000000 PUSH1 0x44 DUP3 ADD MSTORE PUSH1 0x64 ADD PUSH2 0x4C0 JUMP JUMPDEST PUSH1 0x1 SLOAD PUSH1 0x40 MLOAD PUSH4 0x23B872DD PUSH1 0xE0 SHL DUP2 MSTORE CALLER PUSH1 0x4 DUP3 ADD MSTORE ADDRESS PUSH1 0x24 DUP3 ADD MSTORE PUSH1 0x44 DUP2 ADD DUP10 SWAP1 MSTORE PUSH1 0x1 PUSH1 0x1 PUSH1 0xA0 SHL SUB SWAP1 SWAP2 AND SWAP1 PUSH4 0x23B872DD SWAP1 PUSH1 0x64 ADD PUSH1 0x20 PUSH1 0x40 MLOAD DUP1 DUP4 SUB DUP2 PUSH1 0x0 DUP8 GAS CALL ISZERO DUP1 ISZERO PUSH2 0x839 JUMPI RETURNDATASIZE PUSH1 0x0 DUP1 RETURNDATACOPY RETURNDATASIZE PUSH1 0x0 REVERT JUMPDEST POP POP POP POP PUSH1 0x40 MLOAD RETURNDATASIZE PUSH1 0x1F NOT PUSH1 0x1F DUP3 ADD AND DUP3 ADD DUP1 PUSH1 0x40 MSTORE POP DUP2 ADD SWAP1 PUSH2 0x85D SWAP2 SWAP1 PUSH2 0x1B1E JUMP JUMPDEST PUSH2 0x8A5 JUMPI PUSH1 0x40 MLOAD PUSH3 0x461BCD PUSH1 0xE5 SHL DUP2 MSTORE PUSH1 0x20 PUSH1 0x4 DUP3 ADD MSTORE PUSH1 0x19 PUSH1 0x24 DUP3 ADD MSTORE PUSH25 0x4661696C656420746F207472616E7366657220746F6B656E73 PUSH1 0x38 SHL PUSH1 0x44 DUP3 ADD MSTORE PUSH1 0x64 ADD PUSH2 0x4C0 JUMP JUMPDEST PUSH1 0x40 MLOAD PUSH1 0x0 SWAP1 CALLER SWAP1 DUP9 SWAP1 DUP4 DUP2 DUP2 DUP2 DUP6 DUP8 GAS CALL SWAP3 POP POP POP RETURNDATASIZE DUP1 PUSH1 0x0 DUP2 EQ PUSH2 0x8E7 JUMPI PUSH1 0x40 MLOAD SWAP2 POP PUSH1 0x1F NOT PUSH1 0x3F RETURNDATASIZE ADD AND DUP3 ADD PUSH1 0x40 MSTORE RETURNDATASIZE DUP3 MSTORE RETURNDATASIZE PUSH1 0x0 PUSH1 0x20 DUP5 ADD RETURNDATACOPY PUSH2 0x8EC JUMP JUMPDEST PUSH1 0x60 SWAP2 POP JUMPDEST POP POP SWAP1 POP DUP1 PUSH2 0x934 JUMPI PUSH1 0x40 MLOAD PUSH3 0x461BCD PUSH1 0xE5 SHL DUP2 MSTORE PUSH1 0x20 PUSH1 0x4 DUP3 ADD MSTORE PUSH1 0x14 PUSH1 0x24 DUP3 ADD MSTORE PUSH20 0x2330B4B632B2103A379039B2B7321032BA3432B9 PUSH1 0x61 SHL PUSH1 0x44 DUP3 ADD MSTORE PUSH1 0x64 ADD PUSH2 0x4C0 JUMP JUMPDEST PUSH1 0x8 SLOAD PUSH1 0x40 DUP1 MLOAD DUP11 DUP2 MSTORE PUSH1 0x20 DUP2 ADD DUP11 SWAP1 MSTORE SWAP1 DUP2 ADD SWAP2 SWAP1 SWAP2 MSTORE CALLER SWAP1 PUSH32 0x6DB63BEBF1E6540277744DF32846EBDB98385B1A73F2D5DE49B28348ADD63F50 SWAP1 PUSH1 0x60 ADD PUSH1 0x40 MLOAD DUP1 SWAP2 SUB SWAP1 LOG2 POP POP POP POP POP POP PUSH2 0x98B PUSH1 0x1 PUSH1 0x0 SSTORE JUMP JUMPDEST SWAP2 SWAP1 POP JUMP JUMPDEST PUSH1 0x2 SLOAD PUSH1 0x1 PUSH1 0x1 PUSH1 0xA0 SHL SUB AND CALLER EQ PUSH2 0x9BA JUMPI PUSH1 0x40 MLOAD PUSH3 0x461BCD PUSH1 0xE5 SHL DUP2 MSTORE PUSH1 0x4 ADD PUSH2 0x4C0 SWAP1 PUSH2 0x1A72 JUMP JUMPDEST PUSH1 0x7 DUP2 SWAP1 SSTORE PUSH1 0x8 SLOAD PUSH1 0x40 DUP1 MLOAD DUP4 DUP2 MSTORE PUSH1 0x20 DUP2 ADD SWAP3 SWAP1 SWAP3 MSTORE PUSH32 0xB841FAF0D1B32571F4EF966A2F35E3AE51F3CDDA45318C3DA5570A5B2AD85605 SWAP2 ADD PUSH2 0x5D8 JUMP JUMPDEST PUSH1 0x2 SLOAD PUSH1 0x1 PUSH1 0x1 PUSH1 0xA0 SHL SUB AND CALLER EQ PUSH2 0xA23 JUMPI PUSH1 0x40 MLOAD PUSH3 0x461BCD PUSH1 0xE5 SHL DUP2 MSTORE PUSH1 0x4 ADD PUSH2 0x4C0 SWAP1 PUSH2 0x1A72 JUMP JUMPDEST PUSH1 0x0 DUP2 GT PUSH2 0xA7F JUMPI PUSH1 0x40 MLOAD PUSH3 0x461BCD PUSH1 0xE5 SHL DUP2 MSTORE PUSH1 0x20 PUSH1 0x4 DUP3 ADD MSTORE PUSH1 0x23 PUSH1 0x24 DUP3 ADD MSTORE PUSH32 0x5468726573686F6C64206D7573742062652067726561746572207468616E207A PUSH1 0x44 DUP3 ADD MSTORE PUSH3 0x65726F PUSH1 0xE8 SHL PUSH1 0x64 DUP3 ADD MSTORE PUSH1 0x84 ADD PUSH2 0x4C0 JUMP JUMPDEST PUSH1 0xA DUP2 SWAP1 SSTORE PUSH1 0x40 MLOAD DUP2 DUP2 MSTORE PUSH32 0x4AD9AE9229776F627D7D2BE995964376397890E11BBFA94E8826810419A6EF6B SWAP1 PUSH1 0x20 ADD PUSH2 0x5D8 JUMP JUMPDEST PUSH1 0x2 SLOAD PUSH1 0x1 PUSH1 0x1 PUSH1 0xA0 SHL SUB AND CALLER EQ PUSH2 0xADE JUMPI PUSH1 0x40 MLOAD PUSH3 0x461BCD PUSH1 0xE5 SHL DUP2 MSTORE PUSH1 0x4 ADD PUSH2 0x4C0 SWAP1 PUSH2 0x1A72 JUMP JUMPDEST PUSH2 0xAE6 PUSH2 0x11F6 JUMP JUMPDEST PUSH1 0x1 SLOAD PUSH1 0x1 PUSH1 0x1 PUSH1 0xA0 SHL SUB AND ISZERO PUSH2 0xB3F JUMPI PUSH1 0x40 MLOAD PUSH3 0x461BCD PUSH1 0xE5 SHL DUP2 MSTORE PUSH1 0x20 PUSH1 0x4 DUP3 ADD MSTORE PUSH1 0x18 PUSH1 0x24 DUP3 ADD MSTORE PUSH32 0x506F6F6C20616C726561647920696E697469616C697A65640000000000000000 PUSH1 0x44 DUP3 ADD MSTORE PUSH1 0x64 ADD PUSH2 0x4C0 JUMP JUMPDEST PUSH1 0x1 DUP1 SLOAD PUSH1 0x1 PUSH1 0x1 PUSH1 0xA0 SHL SUB NOT SWAP1 DUP2 AND PUSH1 0x1 PUSH1 0x1 PUSH1 0xA0 SHL SUB DUP10 DUP2 AND SWAP2 SWAP1 SWAP2 OR SWAP1 SWAP3 SSTORE PUSH1 0x5 DUP8 SWAP1 SSTORE PUSH1 0x7 DUP7 SWAP1 SSTORE PUSH1 0x8 DUP6 SWAP1 SSTORE PUSH1 0x4 DUP1 SLOAD SWAP1 SWAP2 AND SWAP2 DUP5 AND SWAP2 SWAP1 SWAP2 OR SWAP1 SSTORE PUSH1 0x9 DUP1 SLOAD PUSH2 0xFF00 NOT AND PUSH2 0x100 DUP4 ISZERO ISZERO MUL OR SWAP1 SSTORE PUSH1 0x40 MLOAD DUP6 DUP2 MSTORE CALLER SWAP1 PUSH32 0xC17CEA59C2955CB181B03393209566960365771DBBA9DC3D510180E7CB312088 SWAP1 PUSH1 0x20 ADD PUSH1 0x40 MLOAD DUP1 SWAP2 SUB SWAP1 LOG2 PUSH2 0xBD2 PUSH1 0x1 PUSH1 0x0 SSTORE JUMP JUMPDEST POP POP POP POP POP POP JUMP JUMPDEST PUSH1 0x0 DUP1 DUP4 GT DUP1 ISZERO PUSH2 0xBEB JUMPI POP PUSH1 0x0 DUP3 GT JUMPDEST PUSH2 0xC41 JUMPI PUSH1 0x40 MLOAD PUSH3 0x461BCD PUSH1 0xE5 SHL DUP2 MSTORE PUSH1 0x20 PUSH1 0x4 DUP3 ADD MSTORE PUSH1 0x21 PUSH1 0x24 DUP3 ADD MSTORE PUSH32 0x416D6F756E7473206D7573742062652067726561746572207468616E207A6572 PUSH1 0x44 DUP3 ADD MSTORE PUSH1 0x6F PUSH1 0xF8 SHL PUSH1 0x64 DUP3 ADD MSTORE PUSH1 0x84 ADD PUSH2 0x4C0 JUMP JUMPDEST PUSH1 0x0 PUSH2 0xC51 DUP5 PUSH1 0x60 DUP6 SWAP1 SHL PUSH2 0x1AE9 JUMP JUMPDEST SWAP1 POP PUSH1 0x0 PUSH1 0x30 PUSH2 0xC60 DUP4 PUSH2 0x1220 JUMP JUMPDEST SWAP1 SHL SWAP3 POP POP POP JUMPDEST SWAP3 SWAP2 POP POP JUMP JUMPDEST PUSH1 0x0 PUSH2 0xC77 PUSH2 0x11F6 JUMP JUMPDEST PUSH1 0x9 SLOAD PUSH1 0xFF AND ISZERO PUSH2 0xCCA JUMPI PUSH1 0x40 MLOAD PUSH3 0x461BCD PUSH1 0xE5 SHL DUP2 MSTORE PUSH1 0x20 PUSH1 0x4 DUP3 ADD MSTORE PUSH1 0x18 PUSH1 0x24 DUP3 ADD MSTORE PUSH32 0x506F6F6C206D6967726174656420746F20416C67656272610000000000000000 PUSH1 0x44 DUP3 ADD MSTORE PUSH1 0x64 ADD PUSH2 0x4C0 JUMP JUMPDEST PUSH1 0x0 CALLVALUE GT PUSH2 0xD1A JUMPI PUSH1 0x40 MLOAD PUSH3 0x461BCD PUSH1 0xE5 SHL DUP2 MSTORE PUSH1 0x20 PUSH1 0x4 DUP3 ADD MSTORE PUSH1 0x1D PUSH1 0x24 DUP3 ADD MSTORE PUSH32 0x4D7573742073656E6420457468657220746F2062757920746F6B656E73000000 PUSH1 0x44 DUP3 ADD MSTORE PUSH1 0x64 ADD PUSH2 0x4C0 JUMP JUMPDEST PUSH8 0x2C68AF0BB140000 PUSH1 0x6 SLOAD LT PUSH2 0xD62 JUMPI PUSH1 0x40 MLOAD PUSH3 0x461BCD PUSH1 0xE5 SHL DUP2 MSTORE PUSH1 0x20 PUSH1 0x4 DUP3 ADD MSTORE PUSH1 0xC PUSH1 0x24 DUP3 ADD MSTORE PUSH12 0x141BDBDB081A5CC8199D5B1B PUSH1 0xA2 SHL PUSH1 0x44 DUP3 ADD MSTORE PUSH1 0x64 ADD PUSH2 0x4C0 JUMP JUMPDEST PUSH1 0x0 PUSH1 0x5 SLOAD GT PUSH2 0xDAC JUMPI PUSH1 0x40 MLOAD PUSH3 0x461BCD PUSH1 0xE5 SHL DUP2 MSTORE PUSH1 0x20 PUSH1 0x4 DUP3 ADD MSTORE PUSH1 0x15 PUSH1 0x24 DUP3 ADD MSTORE PUSH21 0x139BC81D1BDAD95B9CC81A5B881D1A19481C1BDBDB PUSH1 0x5A SHL PUSH1 0x44 DUP3 ADD MSTORE PUSH1 0x64 ADD PUSH2 0x4C0 JUMP JUMPDEST PUSH1 0x0 PUSH2 0x3E8 PUSH1 0x7 SLOAD CALLVALUE PUSH2 0xDBF SWAP2 SWAP1 PUSH2 0x1AD2 JUMP JUMPDEST PUSH2 0xDC9 SWAP2 SWAP1 PUSH2 0x1AE9 JUMP JUMPDEST SWAP1 POP PUSH1 0x0 PUSH2 0xDD7 DUP3 CALLVALUE PUSH2 0x1B0B JUMP JUMPDEST SWAP1 POP PUSH8 0x2C68AF0BB140000 DUP2 PUSH1 0x6 SLOAD PUSH2 0xDF0 SWAP2 SWAP1 PUSH2 0x1ABF JUMP JUMPDEST LT PUSH2 0xEE6 JUMPI PUSH1 0x0 PUSH1 0x6 SLOAD PUSH8 0x2C68AF0BB140000 PUSH2 0xE0D SWAP2 SWAP1 PUSH2 0x1B0B JUMP JUMPDEST SWAP1 POP PUSH1 0x0 PUSH2 0xE1B DUP3 DUP5 PUSH2 0x1B0B JUMP JUMPDEST SWAP1 POP DUP2 PUSH1 0x6 PUSH1 0x0 DUP3 DUP3 SLOAD PUSH2 0xE2F SWAP2 SWAP1 PUSH2 0x1ABF JUMP JUMPDEST SWAP1 SWAP2 SSTORE POP POP PUSH1 0x5 DUP1 SLOAD PUSH1 0x0 SWAP1 SWAP2 SSTORE SWAP5 POP DUP1 ISZERO PUSH2 0xEDF JUMPI PUSH1 0x40 MLOAD PUSH1 0x0 SWAP1 CALLER SWAP1 DUP4 SWAP1 DUP4 DUP2 DUP2 DUP2 DUP6 DUP8 GAS CALL SWAP3 POP POP POP RETURNDATASIZE DUP1 PUSH1 0x0 DUP2 EQ PUSH2 0xE87 JUMPI PUSH1 0x40 MLOAD SWAP2 POP PUSH1 0x1F NOT PUSH1 0x3F RETURNDATASIZE ADD AND DUP3 ADD PUSH1 0x40 MSTORE RETURNDATASIZE DUP3 MSTORE RETURNDATASIZE PUSH1 0x0 PUSH1 0x20 DUP5 ADD RETURNDATACOPY PUSH2 0xE8C JUMP JUMPDEST PUSH1 0x60 SWAP2 POP JUMPDEST POP POP SWAP1 POP DUP1 PUSH2 0xEDD JUMPI PUSH1 0x40 MLOAD PUSH3 0x461BCD PUSH1 0xE5 SHL DUP2 MSTORE PUSH1 0x20 PUSH1 0x4 DUP3 ADD MSTORE PUSH1 0x1D PUSH1 0x24 DUP3 ADD MSTORE PUSH32 0x4661696C656420746F20726566756E6420657863657373206574686572000000 PUSH1 0x44 DUP3 ADD MSTORE PUSH1 0x64 ADD PUSH2 0x4C0 JUMP JUMPDEST POP JUMPDEST POP POP PUSH2 0xFCD JUMP JUMPDEST PUSH1 0x0 DUP2 PUSH1 0x6 SLOAD PUSH2 0xEF6 SWAP2 SWAP1 PUSH2 0x1ABF JUMP JUMPDEST SWAP1 POP PUSH1 0x0 PUSH2 0xF0B PUSH7 0x7134F38362CA0E DUP4 PUSH2 0x1ABF JUMP JUMPDEST PUSH7 0x7134F38362D664 PUSH1 0x6 SLOAD PUSH2 0xF20 SWAP2 SWAP1 PUSH2 0x1ABF JUMP JUMPDEST PUSH11 0xD51AC75D3CBCA700901279 PUSH1 0x5 SLOAD PUSH2 0xF39 SWAP2 SWAP1 PUSH2 0x1ABF JUMP JUMPDEST PUSH2 0xF43 SWAP2 SWAP1 PUSH2 0x1AD2 JUMP JUMPDEST PUSH2 0xF4D SWAP2 SWAP1 PUSH2 0x1AE9 JUMP JUMPDEST SWAP1 POP PUSH11 0xD51AC75D3CA56EA04771F4 DUP2 LT ISZERO PUSH2 0xF70 JUMPI POP PUSH11 0xD51AC75D3CA56EA04771F4 JUMPDEST PUSH1 0x0 PUSH2 0xF87 PUSH11 0xD51AC75D3CA56EA04771F4 DUP4 PUSH2 0x1B0B JUMP JUMPDEST SWAP1 POP PUSH1 0x5 SLOAD DUP2 GT PUSH2 0xFA5 JUMPI DUP1 PUSH1 0x5 SLOAD PUSH2 0xFA0 SWAP2 SWAP1 PUSH2 0x1B0B JUMP JUMPDEST PUSH2 0xFA9 JUMP JUMPDEST PUSH1 0x5 SLOAD JUMPDEST SWAP6 POP DUP3 PUSH1 0x6 DUP2 SWAP1 SSTORE POP DUP6 PUSH1 0x5 PUSH1 0x0 DUP3 DUP3 SLOAD PUSH2 0xFC4 SWAP2 SWAP1 PUSH2 0x1B0B JUMP JUMPDEST SWAP1 SWAP2 SSTORE POP POP POP POP POP JUMPDEST PUSH1 0x1 SLOAD PUSH1 0x40 MLOAD PUSH4 0xA9059CBB PUSH1 0xE0 SHL DUP2 MSTORE CALLER PUSH1 0x4 DUP3 ADD MSTORE PUSH1 0x24 DUP2 ADD DUP6 SWAP1 MSTORE PUSH1 0x1 PUSH1 0x1 PUSH1 0xA0 SHL SUB SWAP1 SWAP2 AND SWAP1 PUSH4 0xA9059CBB SWAP1 PUSH1 0x44 ADD PUSH1 0x20 PUSH1 0x40 MLOAD DUP1 DUP4 SUB DUP2 PUSH1 0x0 DUP8 GAS CALL ISZERO DUP1 ISZERO PUSH2 0x101E JUMPI RETURNDATASIZE PUSH1 0x0 DUP1 RETURNDATACOPY RETURNDATASIZE PUSH1 0x0 REVERT JUMPDEST POP POP POP POP PUSH1 0x40 MLOAD RETURNDATASIZE PUSH1 0x1F NOT PUSH1 0x1F DUP3 ADD AND DUP3 ADD DUP1 PUSH1 0x40 MSTORE POP DUP2 ADD SWAP1 PUSH2 0x1042 SWAP2 SWAP1 PUSH2 0x1B1E JUMP JUMPDEST PUSH2 0x108A JUMPI PUSH1 0x40 MLOAD PUSH3 0x461BCD PUSH1 0xE5 SHL DUP2 MSTORE PUSH1 0x20 PUSH1 0x4 DUP3 ADD MSTORE PUSH1 0x19 PUSH1 0x24 DUP3 ADD MSTORE PUSH25 0x4661696C656420746F207472616E7366657220746F6B656E73 PUSH1 0x38 SHL PUSH1 0x44 DUP3 ADD MSTORE PUSH1 0x64 ADD PUSH2 0x4C0 JUMP JUMPDEST PUSH1 0x3 SLOAD PUSH1 0x40 MLOAD PUSH1 0x0 SWAP2 PUSH1 0x1 PUSH1 0x1 PUSH1 0xA0 SHL SUB AND SWAP1 DUP5 SWAP1 DUP4 DUP2 DUP2 DUP2 DUP6 DUP8 GAS CALL SWAP3 POP POP POP RETURNDATASIZE DUP1 PUSH1 0x0 DUP2 EQ PUSH2 0x10D7 JUMPI PUSH1 0x40 MLOAD SWAP2 POP PUSH1 0x1F NOT PUSH1 0x3F RETURNDATASIZE ADD AND DUP3 ADD PUSH1 0x40 MSTORE RETURNDATASIZE DUP3 MSTORE RETURNDATASIZE PUSH1 0x0 PUSH1 0x20 DUP5 ADD RETURNDATACOPY PUSH2 0x10DC JUMP JUMPDEST PUSH1 0x60 SWAP2 POP JUMPDEST POP POP SWAP1 POP DUP1 PUSH2 0x1126 JUMPI PUSH1 0x40 MLOAD PUSH3 0x461BCD PUSH1 0xE5 SHL DUP2 MSTORE PUSH1 0x20 PUSH1 0x4 DUP3 ADD MSTORE PUSH1 0x16 PUSH1 0x24 DUP3 ADD MSTORE PUSH22 0x8CC2D2D8CAC840E8DE40E6CADCC840C4EAF240E8C2F PUSH1 0x53 SHL PUSH1 0x44 DUP3 ADD MSTORE PUSH1 0x64 ADD PUSH2 0x4C0 JUMP JUMPDEST PUSH1 0x40 DUP1 MLOAD CALLVALUE DUP2 MSTORE PUSH1 0x20 DUP2 ADD DUP7 SWAP1 MSTORE SWAP1 DUP2 ADD DUP5 SWAP1 MSTORE CALLER SWAP1 PUSH32 0xD1A0D5E3D583A0E92588799DD06E50FD78C07DAF05F0CC06D7B848B1CA445F1 SWAP1 PUSH1 0x60 ADD PUSH1 0x40 MLOAD DUP1 SWAP2 SUB SWAP1 LOG2 POP POP POP PUSH2 0x1176 PUSH1 0x1 PUSH1 0x0 SSTORE JUMP JUMPDEST SWAP1 JUMP JUMPDEST PUSH2 0x1181 PUSH2 0x1277 JUMP JUMPDEST JUMP JUMPDEST PUSH1 0x2 SLOAD PUSH1 0x1 PUSH1 0x1 PUSH1 0xA0 SHL SUB AND CALLER EQ PUSH2 0x11AD JUMPI PUSH1 0x40 MLOAD PUSH3 0x461BCD PUSH1 0xE5 SHL DUP2 MSTORE PUSH1 0x4 ADD PUSH2 0x4C0 SWAP1 PUSH2 0x1A72 JUMP JUMPDEST PUSH1 0x9 DUP1 SLOAD DUP3 ISZERO ISZERO PUSH2 0x100 MUL PUSH2 0xFF00 NOT SWAP1 SWAP2 AND OR SWAP1 SSTORE PUSH1 0x40 MLOAD PUSH32 0xE7E0BD136AB3B57E3E925774A811E2482DF79072FA45D011A4F088ABFCC209D2 SWAP1 PUSH2 0x5D8 SWAP1 DUP4 ISZERO ISZERO DUP2 MSTORE PUSH1 0x20 ADD SWAP1 JUMP JUMPDEST PUSH1 0x2 PUSH1 0x0 SLOAD SUB PUSH2 0x1219 JUMPI PUSH1 0x40 MLOAD PUSH4 0x3EE5AEB5 PUSH1 0xE0 SHL DUP2 MSTORE PUSH1 0x4 ADD PUSH1 0x40 MLOAD DUP1 SWAP2 SUB SWAP1 REVERT JUMPDEST PUSH1 0x2 PUSH1 0x0 SSTORE JUMP JUMPDEST PUSH1 0x0 DUP1 PUSH1 0x2 PUSH2 0x1230 DUP5 PUSH1 0x1 PUSH2 0x1ABF JUMP JUMPDEST PUSH2 0x123A SWAP2 SWAP1 PUSH2 0x1AE9 JUMP JUMPDEST SWAP1 POP DUP3 JUMPDEST DUP1 DUP3 LT ISZERO PUSH2 0x1270 JUMPI POP DUP1 PUSH1 0x2 DUP2 PUSH2 0x1255 DUP2 DUP8 PUSH2 0x1AE9 JUMP JUMPDEST PUSH2 0x125F SWAP2 SWAP1 PUSH2 0x1ABF JUMP JUMPDEST PUSH2 0x1269 SWAP2 SWAP1 PUSH2 0x1AE9 JUMP JUMPDEST SWAP2 POP PUSH2 0x123E JUMP JUMPDEST SWAP4 SWAP3 POP POP POP JUMP JUMPDEST PUSH2 0x127F PUSH2 0x11F6 JUMP JUMPDEST TIMESTAMP ADDRESS PUSH1 0x1 PUSH1 0x1 PUSH1 0xA0 SHL SUB AND PUSH1 0x0 DUP1 MLOAD PUSH1 0x20 PUSH2 0x1B88 DUP4 CODECOPY DUP2 MLOAD SWAP2 MSTORE PUSH1 0x40 MLOAD PUSH2 0x12CB SWAP1 PUSH1 0x20 DUP1 DUP3 MSTORE PUSH1 0x11 SWAP1 DUP3 ADD MSTORE PUSH17 0x135A59DC985D1A5BDB881CDD185C9D1959 PUSH1 0x7A SHL PUSH1 0x40 DUP3 ADD MSTORE PUSH1 0x60 ADD SWAP1 JUMP JUMPDEST PUSH1 0x40 MLOAD DUP1 SWAP2 SUB SWAP1 LOG3 PUSH1 0x9 SLOAD PUSH1 0xFF AND ISZERO PUSH2 0x1326 JUMPI PUSH1 0x40 MLOAD PUSH3 0x461BCD PUSH1 0xE5 SHL DUP2 MSTORE PUSH1 0x20 PUSH1 0x4 DUP3 ADD MSTORE PUSH1 0x1B PUSH1 0x24 DUP3 ADD MSTORE PUSH32 0x416C7265616479206D6967726174656420746F20416C67656272610000000000 PUSH1 0x44 DUP3 ADD MSTORE PUSH1 0x64 ADD PUSH2 0x4C0 JUMP JUMPDEST TIMESTAMP ADDRESS PUSH1 0x1 PUSH1 0x1 PUSH1 0xA0 SHL SUB AND PUSH1 0x0 DUP1 MLOAD PUSH1 0x20 PUSH2 0x1B88 DUP4 CODECOPY DUP2 MLOAD SWAP2 MSTORE PUSH1 0x40 MLOAD PUSH2 0x1377 SWAP1 PUSH1 0x20 DUP1 DUP3 MSTORE PUSH1 0x16 SWAP1 DUP3 ADD MSTORE PUSH22 0x135A59DC985D1A5BDB8818DA1958DAC81C185CDCD959 PUSH1 0x52 SHL PUSH1 0x40 DUP3 ADD MSTORE PUSH1 0x60 ADD SWAP1 JUMP JUMPDEST PUSH1 0x40 MLOAD DUP1 SWAP2 SUB SWAP1 LOG3 PUSH1 0x4 SLOAD PUSH1 0x1 PUSH1 0x1 PUSH1 0xA0 SHL SUB AND PUSH2 0x13E7 JUMPI PUSH1 0x40 MLOAD PUSH3 0x461BCD PUSH1 0xE5 SHL DUP2 MSTORE PUSH1 0x20 PUSH1 0x4 DUP3 ADD MSTORE PUSH1 0x27 PUSH1 0x24 DUP3 ADD MSTORE PUSH32 0x416C676562726120506F6F6C496E697469616C697A6572206164647265737320 PUSH1 0x44 DUP3 ADD MSTORE PUSH7 0x1B9BDD081CD95D PUSH1 0xCA SHL PUSH1 0x64 DUP3 ADD MSTORE PUSH1 0x84 ADD PUSH2 0x4C0 JUMP JUMPDEST PUSH1 0x4 SLOAD PUSH1 0x40 MLOAD TIMESTAMP SWAP2 PUSH1 0x1 PUSH1 0x1 PUSH1 0xA0 SHL SUB AND SWAP1 PUSH1 0x0 DUP1 MLOAD PUSH1 0x20 PUSH2 0x1B88 DUP4 CODECOPY DUP2 MLOAD SWAP2 MSTORE SWAP1 PUSH2 0x1444 SWAP1 PUSH1 0x20 DUP1 DUP3 MSTORE PUSH1 0x18 SWAP1 DUP3 ADD MSTORE PUSH32 0x496E697469616C697A657220636865636B207061737365640000000000000000 PUSH1 0x40 DUP3 ADD MSTORE PUSH1 0x60 ADD SWAP1 JUMP JUMPDEST PUSH1 0x40 MLOAD DUP1 SWAP2 SUB SWAP1 LOG3 PUSH1 0x0 PUSH2 0x145A PUSH1 0x1 PUSH1 0x64 PUSH2 0xBDA JUMP JUMPDEST SWAP1 POP DUP1 PUSH1 0x1 PUSH1 0x1 PUSH1 0xA0 SHL SUB AND PUSH1 0x0 PUSH1 0x1 PUSH1 0x1 PUSH1 0xA0 SHL SUB AND PUSH1 0x0 DUP1 MLOAD PUSH1 0x20 PUSH2 0x1B88 DUP4 CODECOPY DUP2 MLOAD SWAP2 MSTORE PUSH1 0x40 MLOAD PUSH2 0x14BE SWAP1 PUSH1 0x20 DUP1 DUP3 MSTORE PUSH1 0x17 SWAP1 DUP3 ADD MSTORE PUSH32 0x5371727450726963655839362063616C63756C61746564000000000000000000 PUSH1 0x40 DUP3 ADD MSTORE PUSH1 0x60 ADD SWAP1 JUMP JUMPDEST PUSH1 0x40 MLOAD DUP1 SWAP2 SUB SWAP1 LOG3 PUSH1 0x1 SLOAD PUSH1 0x40 MLOAD PUSH1 0x1 PUSH1 0x1 PUSH1 0xA0 SHL SUB SWAP2 DUP3 AND PUSH1 0x24 DUP3 ADD MSTORE ADDRESS PUSH1 0x44 DUP3 ADD MSTORE SWAP1 DUP3 AND PUSH1 0x64 DUP3 ADD MSTORE PUSH1 0x0 SWAP1 PUSH1 0x84 ADD PUSH1 0x40 DUP1 MLOAD PUSH1 0x1F NOT DUP2 DUP5 SUB ADD DUP2 MSTORE SWAP2 DUP2 MSTORE PUSH1 0x20 DUP3 ADD DUP1 MLOAD PUSH1 0x1 PUSH1 0x1 PUSH1 0xE0 SHL SUB AND PUSH4 0x289236B7 PUSH1 0xE1 SHL OR SWAP1 MSTORE PUSH1 0x4 SLOAD SWAP1 MLOAD SWAP2 SWAP3 POP PUSH1 0x0 SWAP2 DUP3 SWAP2 PUSH1 0x1 PUSH1 0x1 PUSH1 0xA0 SHL SUB AND SWAP1 PUSH2 0x153C SWAP1 DUP6 SWAP1 PUSH2 0x1B3B JUMP JUMPDEST PUSH1 0x0 PUSH1 0x40 MLOAD DUP1 DUP4 SUB DUP2 PUSH1 0x0 DUP7 GAS CALL SWAP2 POP POP RETURNDATASIZE DUP1 PUSH1 0x0 DUP2 EQ PUSH2 0x1579 JUMPI PUSH1 0x40 MLOAD SWAP2 POP PUSH1 0x1F NOT PUSH1 0x3F RETURNDATASIZE ADD AND DUP3 ADD PUSH1 0x40 MSTORE RETURNDATASIZE DUP3 MSTORE RETURNDATASIZE PUSH1 0x0 PUSH1 0x20 DUP5 ADD RETURNDATACOPY PUSH2 0x157E JUMP JUMPDEST PUSH1 0x60 SWAP2 POP JUMPDEST POP SWAP2 POP SWAP2 POP DUP2 PUSH2 0x158F JUMPI PUSH1 0x0 PUSH2 0x1592 JUMP JUMPDEST PUSH1 0x1 JUMPDEST PUSH1 0x4 SLOAD PUSH1 0x40 MLOAD PUSH1 0xFF SWAP3 SWAP1 SWAP3 AND SWAP2 PUSH1 0x1 PUSH1 0x1 PUSH1 0xA0 SHL SUB SWAP1 SWAP2 AND SWAP1 PUSH1 0x0 DUP1 MLOAD PUSH1 0x20 PUSH2 0x1B88 DUP4 CODECOPY DUP2 MLOAD SWAP2 MSTORE SWAP1 PUSH2 0x15F6 SWAP1 PUSH1 0x20 DUP1 DUP3 MSTORE PUSH1 0x18 SWAP1 DUP3 ADD MSTORE PUSH32 0x43616C6C20746F20696E697469616C697A6572206D6164650000000000000000 PUSH1 0x40 DUP3 ADD MSTORE PUSH1 0x60 ADD SWAP1 JUMP JUMPDEST PUSH1 0x40 MLOAD DUP1 SWAP2 SUB SWAP1 LOG3 DUP2 PUSH2 0x1663 JUMPI PUSH1 0x40 MLOAD PUSH3 0x461BCD PUSH1 0xE5 SHL DUP2 MSTORE PUSH1 0x20 PUSH1 0x4 DUP3 ADD MSTORE PUSH1 0x2F PUSH1 0x24 DUP3 ADD MSTORE PUSH32 0x416C676562726120706F6F6C206372656174696F6E20616E6420696E69746961 PUSH1 0x44 DUP3 ADD MSTORE PUSH15 0x1B1A5E985D1A5BDB8819985A5B1959 PUSH1 0x8A SHL PUSH1 0x64 DUP3 ADD MSTORE PUSH1 0x84 ADD PUSH2 0x4C0 JUMP JUMPDEST PUSH1 0x0 DUP2 DUP1 PUSH1 0x20 ADD SWAP1 MLOAD DUP2 ADD SWAP1 PUSH2 0x1679 SWAP2 SWAP1 PUSH2 0x1B6A JUMP JUMPDEST SWAP1 POP TIMESTAMP DUP2 PUSH1 0x1 PUSH1 0x1 PUSH1 0xA0 SHL SUB AND PUSH1 0x0 DUP1 MLOAD PUSH1 0x20 PUSH2 0x1B88 DUP4 CODECOPY DUP2 MLOAD SWAP2 MSTORE PUSH1 0x40 MLOAD PUSH2 0x16CA SWAP1 PUSH1 0x20 DUP1 DUP3 MSTORE PUSH1 0x14 SWAP1 DUP3 ADD MSTORE PUSH20 0x141BDBDB081859191C995CDCC8191958DBD91959 PUSH1 0x62 SHL PUSH1 0x40 DUP3 ADD MSTORE PUSH1 0x60 ADD SWAP1 JUMP JUMPDEST PUSH1 0x40 MLOAD DUP1 SWAP2 SUB SWAP1 LOG3 PUSH1 0x1 PUSH1 0x1 PUSH1 0xA0 SHL SUB DUP2 AND PUSH2 0x1728 JUMPI PUSH1 0x40 MLOAD PUSH3 0x461BCD PUSH1 0xE5 SHL DUP2 MSTORE PUSH1 0x20 PUSH1 0x4 DUP3 ADD MSTORE PUSH1 0x1C PUSH1 0x24 DUP3 ADD MSTORE PUSH32 0x496E76616C696420416C676562726120706F6F6C206164647265737300000000 PUSH1 0x44 DUP3 ADD MSTORE PUSH1 0x64 ADD PUSH2 0x4C0 JUMP JUMPDEST PUSH1 0x1 SLOAD PUSH1 0x5 SLOAD PUSH1 0x40 MLOAD PUSH4 0xA9059CBB PUSH1 0xE0 SHL DUP2 MSTORE PUSH1 0x1 PUSH1 0x1 PUSH1 0xA0 SHL SUB DUP5 DUP2 AND PUSH1 0x4 DUP4 ADD MSTORE PUSH1 0x24 DUP3 ADD SWAP3 SWAP1 SWAP3 MSTORE SWAP2 AND SWAP1 PUSH4 0xA9059CBB SWAP1 PUSH1 0x44 ADD PUSH1 0x20 PUSH1 0x40 MLOAD DUP1 DUP4 SUB DUP2 PUSH1 0x0 DUP8 GAS CALL ISZERO DUP1 ISZERO PUSH2 0x177E JUMPI RETURNDATASIZE PUSH1 0x0 DUP1 RETURNDATACOPY RETURNDATASIZE PUSH1 0x0 REVERT JUMPDEST POP POP POP POP PUSH1 0x40 MLOAD RETURNDATASIZE PUSH1 0x1F NOT PUSH1 0x1F DUP3 ADD AND DUP3 ADD DUP1 PUSH1 0x40 MSTORE POP DUP2 ADD SWAP1 PUSH2 0x17A2 SWAP2 SWAP1 PUSH2 0x1B1E JUMP JUMPDEST POP PUSH1 0x5 SLOAD DUP2 PUSH1 0x1 PUSH1 0x1 PUSH1 0xA0 SHL SUB AND PUSH1 0x0 DUP1 MLOAD PUSH1 0x20 PUSH2 0x1B88 DUP4 CODECOPY DUP2 MLOAD SWAP2 MSTORE PUSH1 0x40 MLOAD PUSH2 0x17F2 SWAP1 PUSH1 0x20 DUP1 DUP3 MSTORE PUSH1 0x12 SWAP1 DUP3 ADD MSTORE PUSH18 0x151BDAD95B9CC81D1C985B9CD9995C9C9959 PUSH1 0x72 SHL PUSH1 0x40 DUP3 ADD MSTORE PUSH1 0x60 ADD SWAP1 JUMP JUMPDEST PUSH1 0x40 MLOAD DUP1 SWAP2 SUB SWAP1 LOG3 PUSH1 0x6 SLOAD PUSH1 0x40 MLOAD PUSH1 0x0 SWAP2 PUSH1 0x1 PUSH1 0x1 PUSH1 0xA0 SHL SUB DUP5 AND SWAP2 DUP4 DUP2 DUP2 DUP2 DUP6 DUP8 GAS CALL SWAP3 POP POP POP RETURNDATASIZE DUP1 PUSH1 0x0 DUP2 EQ PUSH2 0x1846 JUMPI PUSH1 0x40 MLOAD SWAP2 POP PUSH1 0x1F NOT PUSH1 0x3F RETURNDATASIZE ADD AND DUP3 ADD PUSH1 0x40 MSTORE RETURNDATASIZE DUP3 MSTORE RETURNDATASIZE PUSH1 0x0 PUSH1 0x20 DUP5 ADD RETURNDATACOPY PUSH2 0x184B JUMP JUMPDEST PUSH1 0x60 SWAP2 POP JUMPDEST POP POP SWAP1 POP DUP1 PUSH2 0x18AD JUMPI PUSH1 0x40 MLOAD PUSH3 0x461BCD PUSH1 0xE5 SHL DUP2 MSTORE PUSH1 0x20 PUSH1 0x4 DUP3 ADD MSTORE PUSH1 0x28 PUSH1 0x24 DUP3 ADD MSTORE PUSH32 0x4661696C656420746F207472616E7366657220457468657220746F20416C6765 PUSH1 0x44 DUP3 ADD MSTORE PUSH8 0x189C98481C1BDBDB PUSH1 0xC2 SHL PUSH1 0x64 DUP3 ADD MSTORE PUSH1 0x84 ADD PUSH2 0x4C0 JUMP JUMPDEST PUSH1 0x6 SLOAD DUP3 PUSH1 0x1 PUSH1 0x1 PUSH1 0xA0 SHL SUB AND PUSH1 0x0 DUP1 MLOAD PUSH1 0x20 PUSH2 0x1B88 DUP4 CODECOPY DUP2 MLOAD SWAP2 MSTORE PUSH1 0x40 MLOAD PUSH2 0x18FB SWAP1 PUSH1 0x20 DUP1 DUP3 MSTORE PUSH1 0x11 SWAP1 DUP3 ADD MSTORE PUSH17 0x115D1A195C881D1C985B9CD9995C9C9959 PUSH1 0x7A SHL PUSH1 0x40 DUP3 ADD MSTORE PUSH1 0x60 ADD SWAP1 JUMP JUMPDEST PUSH1 0x40 MLOAD DUP1 SWAP2 SUB SWAP1 LOG3 PUSH1 0x9 DUP1 SLOAD PUSH1 0xFF NOT AND PUSH1 0x1 OR SWAP1 SSTORE PUSH1 0x5 SLOAD PUSH1 0x6 SLOAD PUSH1 0x40 MLOAD PUSH1 0x1 PUSH1 0x1 PUSH1 0xA0 SHL SUB DUP6 AND SWAP3 PUSH32 0x681FA2C4629192623C409B90CB2463CEA250BD2012F3AC5F34AF5CFA45D4822A SWAP3 PUSH2 0x1958 SWAP3 SWAP2 DUP3 MSTORE PUSH1 0x20 DUP3 ADD MSTORE PUSH1 0x40 ADD SWAP1 JUMP JUMPDEST PUSH1 0x40 MLOAD DUP1 SWAP2 SUB SWAP1 LOG2 POP POP POP POP POP POP PUSH2 0x1181 PUSH1 0x1 PUSH1 0x0 SSTORE JUMP JUMPDEST PUSH1 0x1 PUSH1 0x1 PUSH1 0xA0 SHL SUB DUP2 AND DUP2 EQ PUSH2 0x1985 JUMPI PUSH1 0x0 DUP1 REVERT JUMPDEST POP JUMP JUMPDEST PUSH1 0x0 PUSH1 0x20 DUP3 DUP5 SUB SLT ISZERO PUSH2 0x199A JUMPI PUSH1 0x0 DUP1 REVERT JUMPDEST DUP2 CALLDATALOAD PUSH2 0x1270 DUP2 PUSH2 0x1970 JUMP JUMPDEST PUSH1 0x0 PUSH1 0x20 DUP3 DUP5 SUB SLT ISZERO PUSH2 0x19B7 JUMPI PUSH1 0x0 DUP1 REVERT JUMPDEST POP CALLDATALOAD SWAP2 SWAP1 POP JUMP JUMPDEST DUP1 ISZERO ISZERO DUP2 EQ PUSH2 0x1985 JUMPI PUSH1 0x0 DUP1 REVERT JUMPDEST PUSH1 0x0 DUP1 PUSH1 0x0 DUP1 PUSH1 0x0 DUP1 PUSH1 0xC0 DUP8 DUP10 SUB SLT ISZERO PUSH2 0x19E5 JUMPI PUSH1 0x0 DUP1 REVERT JUMPDEST DUP7 CALLDATALOAD PUSH2 0x19F0 DUP2 PUSH2 0x1970 JUMP JUMPDEST SWAP6 POP PUSH1 0x20 DUP8 ADD CALLDATALOAD SWAP5 POP PUSH1 0x40 DUP8 ADD CALLDATALOAD SWAP4 POP PUSH1 0x60 DUP8 ADD CALLDATALOAD SWAP3 POP PUSH1 0x80 DUP8 ADD CALLDATALOAD PUSH2 0x1A15 DUP2 PUSH2 0x1970 JUMP JUMPDEST SWAP2 POP PUSH1 0xA0 DUP8 ADD CALLDATALOAD PUSH2 0x1A25 DUP2 PUSH2 0x19BE JUMP JUMPDEST DUP1 SWAP2 POP POP SWAP3 SWAP6 POP SWAP3 SWAP6 POP SWAP3 SWAP6 JUMP JUMPDEST PUSH1 0x0 DUP1 PUSH1 0x40 DUP4 DUP6 SUB SLT ISZERO PUSH2 0x1A46 JUMPI PUSH1 0x0 DUP1 REVERT JUMPDEST POP POP DUP1 CALLDATALOAD SWAP3 PUSH1 0x20 SWAP1 SWAP2 ADD CALLDATALOAD SWAP2 POP JUMP JUMPDEST PUSH1 0x0 PUSH1 0x20 DUP3 DUP5 SUB SLT ISZERO PUSH2 0x1A67 JUMPI PUSH1 0x0 DUP1 REVERT JUMPDEST DUP2 CALLDATALOAD PUSH2 0x1270 DUP2 PUSH2 0x19BE JUMP JUMPDEST PUSH1 0x20 DUP1 DUP3 MSTORE PUSH1 0x1E SWAP1 DUP3 ADD MSTORE PUSH32 0x43616C6C6572206973206E6F742074686520546F6B656E466163746F72790000 PUSH1 0x40 DUP3 ADD MSTORE PUSH1 0x60 ADD SWAP1 JUMP JUMPDEST PUSH4 0x4E487B71 PUSH1 0xE0 SHL PUSH1 0x0 MSTORE PUSH1 0x11 PUSH1 0x4 MSTORE PUSH1 0x24 PUSH1 0x0 REVERT JUMPDEST DUP1 DUP3 ADD DUP1 DUP3 GT ISZERO PUSH2 0xC67 JUMPI PUSH2 0xC67 PUSH2 0x1AA9 JUMP JUMPDEST DUP1 DUP3 MUL DUP2 ISZERO DUP3 DUP3 DIV DUP5 EQ OR PUSH2 0xC67 JUMPI PUSH2 0xC67 PUSH2 0x1AA9 JUMP JUMPDEST PUSH1 0x0 DUP3 PUSH2 0x1B06 JUMPI PUSH4 0x4E487B71 PUSH1 0xE0 SHL PUSH1 0x0 MSTORE PUSH1 0x12 PUSH1 0x4 MSTORE PUSH1 0x24 PUSH1 0x0 REVERT JUMPDEST POP DIV SWAP1 JUMP JUMPDEST DUP2 DUP2 SUB DUP2 DUP2 GT ISZERO PUSH2 0xC67 JUMPI PUSH2 0xC67 PUSH2 0x1AA9 JUMP JUMPDEST PUSH1 0x0 PUSH1 0x20 DUP3 DUP5 SUB SLT ISZERO PUSH2 0x1B30 JUMPI PUSH1 0x0 DUP1 REVERT JUMPDEST DUP2 MLOAD PUSH2 0x1270 DUP2 PUSH2 0x19BE JUMP JUMPDEST PUSH1 0x0 DUP3 MLOAD PUSH1 0x0 JUMPDEST DUP2 DUP2 LT ISZERO PUSH2 0x1B5C JUMPI PUSH1 0x20 DUP2 DUP7 ADD DUP2 ADD MLOAD DUP6 DUP4 ADD MSTORE ADD PUSH2 0x1B42 JUMP JUMPDEST POP PUSH1 0x0 SWAP3 ADD SWAP2 DUP3 MSTORE POP SWAP2 SWAP1 POP JUMP JUMPDEST PUSH1 0x0 PUSH1 0x20 DUP3 DUP5 SUB SLT ISZERO PUSH2 0x1B7C JUMPI PUSH1 0x0 DUP1 REVERT JUMPDEST DUP2 MLOAD PUSH2 0x1270 DUP2 PUSH2 0x1970 JUMP INVALID EXP 0xAB 0x2F LOG0 NOT SWAP2 0xCB MULMOD LOG1 PUSH19 0xFCBD047AE0EC54DA8E5C963E3160632983264C CREATE 0x21 DUP7 LOG2 PUSH5 0x6970667358 0x22 SLT KECCAK256 DUP9 LOG3 0xB5 0x4F 0xF9 MCOPY LOG0 OR CALLDATASIZE MCOPY SAR 0xDC 0x4F PUSH19 0x6BAEADAC5F648A9BE23106B5CF724B9C122564 PUSH20 0x6F6C634300081A00330000000000000000000000 "
				},
				"gasEstimates": {
					"creation": {
						"codeDepositCost": "1426600",
						"executionCost": "infinite",
						"totalCost": "infinite"
					},
					"external": {
						"X_DELTA_LOWER()": "296",
						"X_DELTA_UPPER()": "208",
						"Y_DELTA_LOWER()": "229",
						"Y_DELTA_UPPER()": "230",
						"algebraPoolInitializer()": "2403",
						"autoMigrationEnabled()": "2388",
						"buyTax()": "2395",
						"buyToken()": "infinite",
						"calculateSqrtPriceX96(uint256,uint256)": "infinite",
						"devAddress()": "2382",
						"forceMigration()": "infinite",
						"getReserves()": "4475",
						"initialize(address,uint256,uint256,uint256,address,bool)": "infinite",
						"migratedToAlgebra()": "2400",
						"migrationThreshold()": "2373",
						"reserve0()": "2373",
						"reserve1()": "2307",
						"sellTax()": "2372",
						"sellToken(uint256)": "infinite",
						"setAlgebraPoolInitializer(address)": "27925",
						"toggleAutoMigration(bool)": "27795",
						"token0()": "2427",
						"tokenFactory()": "2447",
						"updateBuyTax(uint256)": "27991",
						"updateMigrationThreshold(uint256)": "25675",
						"updateSellTax(uint256)": "28044"
					},
					"internal": {
						"migrateToAlgebra()": "infinite",
						"sqrt(uint256)": "infinite"
					}
				},
				"methodIdentifiers": {
					"X_DELTA_LOWER()": "0f0e7c8a",
					"X_DELTA_UPPER()": "04c80c82",
					"Y_DELTA_LOWER()": "60c72883",
					"Y_DELTA_UPPER()": "2182ad88",
					"algebraPoolInitializer()": "c98b7fd2",
					"autoMigrationEnabled()": "8d5f17aa",
					"buyTax()": "4f7041a5",
					"buyToken()": "a4821719",
					"calculateSqrtPriceX96(uint256,uint256)": "a000bf4f",
					"devAddress()": "3ad10ef6",
					"forceMigration()": "afd6b3c1",
					"getReserves()": "0902f1ac",
					"initialize(address,uint256,uint256,uint256,address,bool)": "9ed7ef4e",
					"migratedToAlgebra()": "299ce7b2",
					"migrationThreshold()": "90bc1e85",
					"reserve0()": "443cb4bc",
					"reserve1()": "5a76f25e",
					"sellTax()": "cc1776d3",
					"sellToken(uint256)": "2397e4d7",
					"setAlgebraPoolInitializer(address)": "04ccde37",
					"toggleAutoMigration(bool)": "c98a0aa8",
					"token0()": "0dfe1681",
					"tokenFactory()": "e77772fe",
					"updateBuyTax(uint256)": "436d3340",
					"updateMigrationThreshold(uint256)": "96343fd5",
					"updateSellTax(uint256)": "12185a39"
				}
			},
			"storageLayout": {
				"storage": [
					{
						"astId": 88,
						"contract": "contracts/token factory/LiquidityPool.sol:LiquidityPool",
						"label": "_status",
						"offset": 0,
						"slot": "0",
						"type": "t_uint256"
					},
					{
						"astId": 166,
						"contract": "contracts/token factory/LiquidityPool.sol:LiquidityPool",
						"label": "token0",
						"offset": 0,
						"slot": "1",
						"type": "t_address"
					},
					{
						"astId": 168,
						"contract": "contracts/token factory/LiquidityPool.sol:LiquidityPool",
						"label": "tokenFactory",
						"offset": 0,
						"slot": "2",
						"type": "t_address"
					},
					{
						"astId": 170,
						"contract": "contracts/token factory/LiquidityPool.sol:LiquidityPool",
						"label": "devAddress",
						"offset": 0,
						"slot": "3",
						"type": "t_address"
					},
					{
						"astId": 172,
						"contract": "contracts/token factory/LiquidityPool.sol:LiquidityPool",
						"label": "algebraPoolInitializer",
						"offset": 0,
						"slot": "4",
						"type": "t_address"
					},
					{
						"astId": 174,
						"contract": "contracts/token factory/LiquidityPool.sol:LiquidityPool",
						"label": "reserve0",
						"offset": 0,
						"slot": "5",
						"type": "t_uint256"
					},
					{
						"astId": 176,
						"contract": "contracts/token factory/LiquidityPool.sol:LiquidityPool",
						"label": "reserve1",
						"offset": 0,
						"slot": "6",
						"type": "t_uint256"
					},
					{
						"astId": 178,
						"contract": "contracts/token factory/LiquidityPool.sol:LiquidityPool",
						"label": "buyTax",
						"offset": 0,
						"slot": "7",
						"type": "t_uint256"
					},
					{
						"astId": 180,
						"contract": "contracts/token factory/LiquidityPool.sol:LiquidityPool",
						"label": "sellTax",
						"offset": 0,
						"slot": "8",
						"type": "t_uint256"
					},
					{
						"astId": 182,
						"contract": "contracts/token factory/LiquidityPool.sol:LiquidityPool",
						"label": "migratedToAlgebra",
						"offset": 0,
						"slot": "9",
						"type": "t_bool"
					},
					{
						"astId": 185,
						"contract": "contracts/token factory/LiquidityPool.sol:LiquidityPool",
						"label": "autoMigrationEnabled",
						"offset": 1,
						"slot": "9",
						"type": "t_bool"
					},
					{
						"astId": 187,
						"contract": "contracts/token factory/LiquidityPool.sol:LiquidityPool",
						"label": "migrationThreshold",
						"offset": 0,
						"slot": "10",
						"type": "t_uint256"
					}
				],
				"types": {
					"t_address": {
						"encoding": "inplace",
						"label": "address",
						"numberOfBytes": "20"
					},
					"t_bool": {
						"encoding": "inplace",
						"label": "bool",
						"numberOfBytes": "1"
					},
					"t_uint256": {
						"encoding": "inplace",
						"label": "uint256",
						"numberOfBytes": "32"
					}
				}
			},
			"userdoc": {
				"kind": "user",
				"methods": {},
				"version": 1
			}
		}
	}
}