{
	"contracts/token factory/TestMigrator.sol": {
		"TestMigrator": {
			"abi": [
				{
					"inputs": [
						{
							"internalType": "address",
							"name": "_algebraUnified",
							"type": "address"
						},
						{
							"internalType": "address",
							"name": "_weth",
							"type": "address"
						}
					],
					"stateMutability": "nonpayable",
					"type": "constructor"
				},
				{
					"anonymous": false,
					"inputs": [
						{
							"indexed": true,
							"internalType": "address",
							"name": "token",
							"type": "address"
						},
						{
							"indexed": false,
							"internalType": "uint256",
							"name": "tokenAmount",
							"type": "uint256"
						},
						{
							"indexed": false,
							"internalType": "uint256",
							"name": "ethAmount",
							"type": "uint256"
						}
					],
					"name": "MigrationExecuted",
					"type": "event"
				},
				{
					"inputs": [],
					"name": "algebraUnified",
					"outputs": [
						{
							"internalType": "address",
							"name": "",
							"type": "address"
						}
					],
					"stateMutability": "view",
					"type": "function"
				},
				{
					"inputs": [
						{
							"internalType": "uint256",
							"name": "tokenAmount",
							"type": "uint256"
						}
					],
					"name": "createAndMigrate",
					"outputs": [],
					"stateMutability": "payable",
					"type": "function"
				},
				{
					"inputs": [],
					"name": "customToken",
					"outputs": [
						{
							"internalType": "contract CustomToken",
							"name": "",
							"type": "address"
						}
					],
					"stateMutability": "view",
					"type": "function"
				},
				{
					"inputs": [],
					"name": "getCustomTokenAddress",
					"outputs": [
						{
							"internalType": "address",
							"name": "",
							"type": "address"
						}
					],
					"stateMutability": "view",
					"type": "function"
				},
				{
					"inputs": [],
					"name": "getMigratorAddress",
					"outputs": [
						{
							"internalType": "address",
							"name": "",
							"type": "address"
						}
					],
					"stateMutability": "view",
					"type": "function"
				},
				{
					"inputs": [],
					"name": "migrator",
					"outputs": [
						{
							"internalType": "contract Migrator",
							"name": "",
							"type": "address"
						}
					],
					"stateMutability": "view",
					"type": "function"
				},
				{
					"inputs": [],
					"name": "weth",
					"outputs": [
						{
							"internalType": "address",
							"name": "",
							"type": "address"
						}
					],
					"stateMutability": "view",
					"type": "function"
				}
			],
			"devdoc": {
				"kind": "dev",
				"methods": {},
				"version": 1
			},
			"evm": {
				"assembly": "    /* \"contracts/token factory/TestMigrator.sol\":84:1714  contract TestMigrator {... */\n  mstore(0x40, 0x80)\n    /* \"contracts/token factory/TestMigrator.sol\":332:820  constructor(address _algebraUnified, address _weth) {... */\n  callvalue\n  dup1\n  iszero\n  tag_1\n  jumpi\n  0x00\n  dup1\n  revert\ntag_1:\n  pop\n  mload(0x40)\n  sub(codesize, bytecodeSize)\n  dup1\n  bytecodeSize\n  dup4\n  codecopy\n  dup2\n  add\n  0x40\n  dup2\n  swap1\n  mstore\n  tag_2\n  swap2\n  tag_3\n  jump\t// in\ntag_2:\n  sub(shl(0xa0, 0x01), 0x01)\n    /* \"contracts/token factory/TestMigrator.sol\":402:431  _algebraUnified != address(0) */\n  dup3\n  and\n    /* \"contracts/token factory/TestMigrator.sol\":394:466  require(_algebraUnified != address(0), \"Invalid AlgebraUnified address\") */\n  tag_6\n  jumpi\n  mload(0x40)\n  shl(0xe5, 0x461bcd)\n  dup2\n  mstore\n    /* \"#utility.yul\":696:698   */\n  0x20\n    /* \"contracts/token factory/TestMigrator.sol\":394:466  require(_algebraUnified != address(0), \"Invalid AlgebraUnified address\") */\n  0x04\n  dup3\n  add\n    /* \"#utility.yul\":678:699   */\n  mstore\n    /* \"#utility.yul\":735:737   */\n  0x1e\n    /* \"#utility.yul\":715:733   */\n  0x24\n  dup3\n  add\n    /* \"#utility.yul\":708:738   */\n  mstore\n    /* \"#utility.yul\":774:806   */\n  0x496e76616c696420416c6765627261556e696669656420616464726573730000\n    /* \"#utility.yul\":754:772   */\n  0x44\n  dup3\n  add\n    /* \"#utility.yul\":747:807   */\n  mstore\n    /* \"#utility.yul\":824:842   */\n  0x64\n  add\n    /* \"contracts/token factory/TestMigrator.sol\":394:466  require(_algebraUnified != address(0), \"Invalid AlgebraUnified address\") */\ntag_7:\n  mload(0x40)\n  dup1\n  swap2\n  sub\n  swap1\n  revert\ntag_6:\n  sub(shl(0xa0, 0x01), 0x01)\n    /* \"contracts/token factory/TestMigrator.sol\":484:503  _weth != address(0) */\n  dup2\n  and\n    /* \"contracts/token factory/TestMigrator.sol\":476:528  require(_weth != address(0), \"Invalid WETH address\") */\n  tag_9\n  jumpi\n  mload(0x40)\n  shl(0xe5, 0x461bcd)\n  dup2\n  mstore\n    /* \"#utility.yul\":1055:1057   */\n  0x20\n    /* \"contracts/token factory/TestMigrator.sol\":476:528  require(_weth != address(0), \"Invalid WETH address\") */\n  0x04\n  dup3\n  add\n    /* \"#utility.yul\":1037:1058   */\n  mstore\n    /* \"#utility.yul\":1094:1096   */\n  0x14\n    /* \"#utility.yul\":1074:1092   */\n  0x24\n  dup3\n  add\n    /* \"#utility.yul\":1067:1097   */\n  mstore\n    /* \"#utility.yul\":1133:1155   */\n  0x496e76616c696420574554482061646472657373000000000000000000000000\n    /* \"#utility.yul\":1113:1131   */\n  0x44\n  dup3\n  add\n    /* \"#utility.yul\":1106:1156   */\n  mstore\n    /* \"#utility.yul\":1173:1191   */\n  0x64\n  add\n    /* \"contracts/token factory/TestMigrator.sol\":476:528  require(_weth != address(0), \"Invalid WETH address\") */\n  tag_7\n    /* \"#utility.yul\":853:1197   */\n  jump\n    /* \"contracts/token factory/TestMigrator.sol\":476:528  require(_weth != address(0), \"Invalid WETH address\") */\ntag_9:\n    /* \"contracts/token factory/TestMigrator.sol\":539:543  weth */\n  0x02\n    /* \"contracts/token factory/TestMigrator.sol\":539:551  weth = _weth */\n  dup1\n  sload\n  not(sub(shl(0xa0, 0x01), 0x01))\n  swap1\n  dup2\n  and\n  sub(shl(0xa0, 0x01), 0x01)\n  dup5\n  dup2\n  and\n  swap2\n  dup3\n  or\n  swap1\n  swap4\n  sstore\n    /* \"contracts/token factory/TestMigrator.sol\":561:575  algebraUnified */\n  0x03\n    /* \"contracts/token factory/TestMigrator.sol\":561:593  algebraUnified = _algebraUnified */\n  dup1\n  sload\n  swap1\n  swap3\n  and\n  swap3\n  dup6\n  and\n  swap3\n  dup4\n  or\n  swap1\n  swap2\n  sstore\n    /* \"contracts/token factory/TestMigrator.sol\":648:682  new Migrator(algebraUnified, weth) */\n  mload(0x40)\n  tag_12\n  swap1\n  tag_13\n  jump\t// in\ntag_12:\n  sub(shl(0xa0, 0x01), 0x01)\n    /* \"#utility.yul\":1394:1426   */\n  swap3\n  dup4\n  and\n    /* \"#utility.yul\":1376:1427   */\n  dup2\n  mstore\n    /* \"#utility.yul\":1463:1495   */\n  swap2\n  and\n    /* \"#utility.yul\":1458:1460   */\n  0x20\n    /* \"#utility.yul\":1443:1461   */\n  dup3\n  add\n    /* \"#utility.yul\":1436:1496   */\n  mstore\n    /* \"#utility.yul\":1364:1366   */\n  0x40\n    /* \"#utility.yul\":1349:1367   */\n  add\n    /* \"contracts/token factory/TestMigrator.sol\":648:682  new Migrator(algebraUnified, weth) */\n  mload(0x40)\n  dup1\n  swap2\n  sub\n  swap1\n  0x00\n  create\n  dup1\n  iszero\n  dup1\n  iszero\n  tag_16\n  jumpi\n  returndatasize\n  0x00\n  dup1\n  returndatacopy\n  revert(0x00, returndatasize)\ntag_16:\n  pop\n    /* \"contracts/token factory/TestMigrator.sol\":637:645  migrator */\n  0x00\n    /* \"contracts/token factory/TestMigrator.sol\":637:682  migrator = new Migrator(algebraUnified, weth) */\n  dup1\n  sload\n  not(sub(shl(0xa0, 0x01), 0x01))\n  and\n  sub(shl(0xa0, 0x01), 0x01)\n  swap3\n  swap1\n  swap3\n  and\n  swap2\n  swap1\n  swap2\n  or\n  swap1\n  sstore\n    /* \"contracts/token factory/TestMigrator.sol\":758:813  new CustomToken(\"CustomToken\", \"CTK\", 1_000_000 * 1e18) */\n  mload(0x40)\n    /* \"contracts/token factory/TestMigrator.sol\":796:812  1_000_000 * 1e18 */\n  0xd3c21bcecceda1000000\n  swap1\n    /* \"contracts/token factory/TestMigrator.sol\":758:813  new CustomToken(\"CustomToken\", \"CTK\", 1_000_000 * 1e18) */\n  tag_17\n  swap1\n  tag_18\n  jump\t// in\ntag_17:\n    /* \"#utility.yul\":1870:1872   */\n  0x60\n    /* \"#utility.yul\":1852:1873   */\n  dup1\n  dup3\n  mstore\n    /* \"#utility.yul\":1909:1911   */\n  0x0b\n    /* \"#utility.yul\":1889:1907   */\n  swap1\n  dup3\n  add\n    /* \"#utility.yul\":1882:1912   */\n  mstore\n  shl(0xa9, 0x21bab9ba37b6aa37b5b2b7)\n    /* \"#utility.yul\":1943:1946   */\n  0x80\n    /* \"#utility.yul\":1928:1947   */\n  dup3\n  add\n    /* \"#utility.yul\":1921:1963   */\n  mstore\n    /* \"#utility.yul\":2001:2004   */\n  0xa0\n    /* \"#utility.yul\":1994:1998   */\n  0x20\n    /* \"#utility.yul\":1979:1999   */\n  dup3\n  add\n    /* \"#utility.yul\":1972:2005   */\n  dup2\n  swap1\n  mstore\n    /* \"#utility.yul\":2042:2043   */\n  0x03\n    /* \"#utility.yul\":2021:2040   */\n  swap1\n  dup3\n  add\n    /* \"#utility.yul\":2014:2044   */\n  mstore\n  shl(0xe8, 0x43544b)\n    /* \"#utility.yul\":2075:2078   */\n  0xc0\n    /* \"#utility.yul\":2060:2079   */\n  dup3\n  add\n    /* \"#utility.yul\":2053:2087   */\n  mstore\n  0x40\n    /* \"#utility.yul\":2139:2157   */\n  dup2\n  add\n    /* \"#utility.yul\":2132:2166   */\n  swap2\n  swap1\n  swap2\n  mstore\n    /* \"#utility.yul\":2119:2122   */\n  0xe0\n    /* \"#utility.yul\":2104:2123   */\n  add\n    /* \"contracts/token factory/TestMigrator.sol\":758:813  new CustomToken(\"CustomToken\", \"CTK\", 1_000_000 * 1e18) */\n  mload(0x40)\n  dup1\n  swap2\n  sub\n  swap1\n  0x00\n  create\n  dup1\n  iszero\n  dup1\n  iszero\n  tag_21\n  jumpi\n  returndatasize\n  0x00\n  dup1\n  returndatacopy\n  revert(0x00, returndatasize)\ntag_21:\n  pop\n    /* \"contracts/token factory/TestMigrator.sol\":744:755  customToken */\n  0x01\n    /* \"contracts/token factory/TestMigrator.sol\":744:813  customToken = new CustomToken(\"CustomToken\", \"CTK\", 1_000_000 * 1e18) */\n  dup1\n  sload\n  not(sub(shl(0xa0, 0x01), 0x01))\n  and\n  sub(shl(0xa0, 0x01), 0x01)\n  swap3\n  swap1\n  swap3\n  and\n  swap2\n  swap1\n  swap2\n  or\n  swap1\n  sstore\n  pop\n    /* \"contracts/token factory/TestMigrator.sol\":84:1714  contract TestMigrator {... */\n  tag_24\n  swap1\n  pop\n  jump\ntag_13:\n  dataSize(sub_1)\n  dup1\n  dataOffset(sub_1)\n  dup4\n  codecopy\n  add\n  swap1\n  jump\t// out\ntag_18:\n  dataSize(sub_2)\n  dup1\n  dataOffset(sub_2)\n  dup4\n  codecopy\n  add\n  swap1\n  jump\t// out\n    /* \"#utility.yul\":14:191   */\ntag_23:\n    /* \"#utility.yul\":93:106   */\n  dup1\n  mload\n  sub(shl(0xa0, 0x01), 0x01)\n    /* \"#utility.yul\":135:166   */\n  dup2\n  and\n    /* \"#utility.yul\":125:167   */\n  dup2\n  eq\n    /* \"#utility.yul\":115:185   */\n  tag_26\n  jumpi\n    /* \"#utility.yul\":181:182   */\n  0x00\n    /* \"#utility.yul\":178:179   */\n  dup1\n    /* \"#utility.yul\":171:183   */\n  revert\n    /* \"#utility.yul\":115:185   */\ntag_26:\n    /* \"#utility.yul\":14:191   */\n  swap2\n  swap1\n  pop\n  jump\t// out\n    /* \"#utility.yul\":196:489   */\ntag_3:\n    /* \"#utility.yul\":275:281   */\n  0x00\n    /* \"#utility.yul\":283:289   */\n  dup1\n    /* \"#utility.yul\":336:338   */\n  0x40\n    /* \"#utility.yul\":324:333   */\n  dup4\n    /* \"#utility.yul\":315:322   */\n  dup6\n    /* \"#utility.yul\":311:334   */\n  sub\n    /* \"#utility.yul\":307:339   */\n  slt\n    /* \"#utility.yul\":304:356   */\n  iszero\n  tag_28\n  jumpi\n    /* \"#utility.yul\":352:353   */\n  0x00\n    /* \"#utility.yul\":349:350   */\n  dup1\n    /* \"#utility.yul\":342:354   */\n  revert\n    /* \"#utility.yul\":304:356   */\ntag_28:\n    /* \"#utility.yul\":375:415   */\n  tag_29\n    /* \"#utility.yul\":405:414   */\n  dup4\n    /* \"#utility.yul\":375:415   */\n  tag_23\n  jump\t// in\ntag_29:\n    /* \"#utility.yul\":365:415   */\n  swap2\n  pop\n    /* \"#utility.yul\":434:483   */\n  tag_30\n    /* \"#utility.yul\":479:481   */\n  0x20\n    /* \"#utility.yul\":468:477   */\n  dup5\n    /* \"#utility.yul\":464:482   */\n  add\n    /* \"#utility.yul\":434:483   */\n  tag_23\n  jump\t// in\ntag_30:\n    /* \"#utility.yul\":424:483   */\n  swap1\n  pop\n    /* \"#utility.yul\":196:489   */\n  swap3\n  pop\n  swap3\n  swap1\n  pop\n  jump\t// out\n    /* \"#utility.yul\":1507:2172   */\ntag_24:\n    /* \"contracts/token factory/TestMigrator.sol\":84:1714  contract TestMigrator {... */\n  dataSize(sub_0)\n  dup1\n  dataOffset(sub_0)\n  0x00\n  codecopy\n  0x00\n  return\nstop\n\nsub_0: assembly {\n        /* \"contracts/token factory/TestMigrator.sol\":84:1714  contract TestMigrator {... */\n      mstore(0x40, 0x80)\n      jumpi(tag_1, lt(calldatasize, 0x04))\n      shr(0xe0, calldataload(0x00))\n      dup1\n      0x7cd07e47\n      gt\n      tag_9\n      jumpi\n      dup1\n      0x7cd07e47\n      eq\n      tag_5\n      jumpi\n      dup1\n      0x899e3106\n      eq\n      tag_6\n      jumpi\n      dup1\n      0xe9b007e5\n      eq\n      tag_7\n      jumpi\n      dup1\n      0xf5f7828a\n      eq\n      tag_8\n      jumpi\n      0x00\n      dup1\n      revert\n    tag_9:\n      dup1\n      0x22b26ed8\n      eq\n      tag_2\n      jumpi\n      dup1\n      0x24f8eca7\n      eq\n      tag_3\n      jumpi\n      dup1\n      0x3fc8cef3\n      eq\n      tag_4\n      jumpi\n    tag_1:\n      0x00\n      dup1\n      revert\n        /* \"contracts/token factory/TestMigrator.sol\":1494:1597  function getMigratorAddress() external view returns (address) {... */\n    tag_2:\n      callvalue\n      dup1\n      iszero\n      tag_10\n      jumpi\n      0x00\n      dup1\n      revert\n    tag_10:\n      pop\n        /* \"contracts/token factory/TestMigrator.sol\":1547:1554  address */\n      0x00\n        /* \"contracts/token factory/TestMigrator.sol\":1581:1589  migrator */\n      sload\n      sub(shl(0xa0, 0x01), 0x01)\n      and\n        /* \"contracts/token factory/TestMigrator.sol\":1494:1597  function getMigratorAddress() external view returns (address) {... */\n    tag_11:\n      mload(0x40)\n      sub(shl(0xa0, 0x01), 0x01)\n        /* \"#utility.yul\":178:210   */\n      swap1\n      swap2\n      and\n        /* \"#utility.yul\":160:211   */\n      dup2\n      mstore\n        /* \"#utility.yul\":148:150   */\n      0x20\n        /* \"#utility.yul\":133:151   */\n      add\n        /* \"contracts/token factory/TestMigrator.sol\":1494:1597  function getMigratorAddress() external view returns (address) {... */\n      mload(0x40)\n      dup1\n      swap2\n      sub\n      swap1\n      return\n        /* \"contracts/token factory/TestMigrator.sol\":203:232  address public algebraUnified */\n    tag_3:\n      callvalue\n      dup1\n      iszero\n      tag_15\n      jumpi\n      0x00\n      dup1\n      revert\n    tag_15:\n      pop\n      sload(0x03)\n      tag_11\n      swap1\n      sub(shl(0xa0, 0x01), 0x01)\n      and\n      dup2\n      jump\n        /* \"contracts/token factory/TestMigrator.sol\":178:197  address public weth */\n    tag_4:\n      callvalue\n      dup1\n      iszero\n      tag_19\n      jumpi\n      0x00\n      dup1\n      revert\n    tag_19:\n      pop\n      sload(0x02)\n      tag_11\n      swap1\n      sub(shl(0xa0, 0x01), 0x01)\n      and\n      dup2\n      jump\n        /* \"contracts/token factory/TestMigrator.sol\":112:136  Migrator public migrator */\n    tag_5:\n      callvalue\n      dup1\n      iszero\n      tag_23\n      jumpi\n      0x00\n      dup1\n      revert\n    tag_23:\n      pop\n      sload(0x00)\n      tag_11\n      swap1\n      sub(shl(0xa0, 0x01), 0x01)\n      and\n      dup2\n      jump\n        /* \"contracts/token factory/TestMigrator.sol\":142:172  CustomToken public customToken */\n    tag_6:\n      callvalue\n      dup1\n      iszero\n      tag_28\n      jumpi\n      0x00\n      dup1\n      revert\n    tag_28:\n      pop\n      sload(0x01)\n      tag_11\n      swap1\n      sub(shl(0xa0, 0x01), 0x01)\n      and\n      dup2\n      jump\n        /* \"contracts/token factory/TestMigrator.sol\":1603:1712  function getCustomTokenAddress() external view returns (address) {... */\n    tag_7:\n      callvalue\n      dup1\n      iszero\n      tag_33\n      jumpi\n      0x00\n      dup1\n      revert\n    tag_33:\n      pop\n        /* \"contracts/token factory/TestMigrator.sol\":1693:1704  customToken */\n      and(sub(shl(0xa0, 0x01), 0x01), sload(0x01))\n        /* \"contracts/token factory/TestMigrator.sol\":1603:1712  function getCustomTokenAddress() external view returns (address) {... */\n      jump(tag_11)\n        /* \"contracts/token factory/TestMigrator.sol\":826:1488  function createAndMigrate(uint256 tokenAmount) external payable {... */\n    tag_8:\n      tag_37\n      tag_38\n      calldatasize\n      0x04\n      tag_39\n      jump\t// in\n    tag_38:\n      tag_40\n      jump\t// in\n    tag_37:\n      stop\n    tag_40:\n        /* \"contracts/token factory/TestMigrator.sol\":920:921  0 */\n      0x00\n        /* \"contracts/token factory/TestMigrator.sol\":908:917  msg.value */\n      callvalue\n        /* \"contracts/token factory/TestMigrator.sol\":908:921  msg.value > 0 */\n      gt\n        /* \"contracts/token factory/TestMigrator.sol\":900:961  require(msg.value > 0, \"Ether amount must be greater than 0\") */\n      tag_44\n      jumpi\n      mload(0x40)\n      shl(0xe5, 0x461bcd)\n      dup2\n      mstore\n        /* \"#utility.yul\":1069:1071   */\n      0x20\n        /* \"contracts/token factory/TestMigrator.sol\":900:961  require(msg.value > 0, \"Ether amount must be greater than 0\") */\n      0x04\n      dup3\n      add\n        /* \"#utility.yul\":1051:1072   */\n      mstore\n        /* \"#utility.yul\":1108:1110   */\n      0x23\n        /* \"#utility.yul\":1088:1106   */\n      0x24\n      dup3\n      add\n        /* \"#utility.yul\":1081:1111   */\n      mstore\n        /* \"#utility.yul\":1147:1181   */\n      0x457468657220616d6f756e74206d757374206265206772656174657220746861\n        /* \"#utility.yul\":1127:1145   */\n      0x44\n      dup3\n      add\n        /* \"#utility.yul\":1120:1182   */\n      mstore\n      shl(0xec, 0x06e203)\n        /* \"#utility.yul\":1198:1216   */\n      0x64\n      dup3\n      add\n        /* \"#utility.yul\":1191:1224   */\n      mstore\n        /* \"#utility.yul\":1241:1260   */\n      0x84\n      add\n        /* \"contracts/token factory/TestMigrator.sol\":900:961  require(msg.value > 0, \"Ether amount must be greater than 0\") */\n    tag_45:\n      mload(0x40)\n      dup1\n      swap2\n      sub\n      swap1\n      revert\n    tag_44:\n        /* \"contracts/token factory/TestMigrator.sol\":993:994  0 */\n      0x00\n        /* \"contracts/token factory/TestMigrator.sol\":979:990  tokenAmount */\n      dup2\n        /* \"contracts/token factory/TestMigrator.sol\":979:994  tokenAmount > 0 */\n      gt\n        /* \"contracts/token factory/TestMigrator.sol\":971:1034  require(tokenAmount > 0, \"Token amount must be greater than 0\") */\n      tag_47\n      jumpi\n      mload(0x40)\n      shl(0xe5, 0x461bcd)\n      dup2\n      mstore\n        /* \"#utility.yul\":1473:1475   */\n      0x20\n        /* \"contracts/token factory/TestMigrator.sol\":971:1034  require(tokenAmount > 0, \"Token amount must be greater than 0\") */\n      0x04\n      dup3\n      add\n        /* \"#utility.yul\":1455:1476   */\n      mstore\n        /* \"#utility.yul\":1512:1514   */\n      0x23\n        /* \"#utility.yul\":1492:1510   */\n      0x24\n      dup3\n      add\n        /* \"#utility.yul\":1485:1515   */\n      mstore\n        /* \"#utility.yul\":1551:1585   */\n      0x546f6b656e20616d6f756e74206d757374206265206772656174657220746861\n        /* \"#utility.yul\":1531:1549   */\n      0x44\n      dup3\n      add\n        /* \"#utility.yul\":1524:1586   */\n      mstore\n      shl(0xec, 0x06e203)\n        /* \"#utility.yul\":1602:1620   */\n      0x64\n      dup3\n      add\n        /* \"#utility.yul\":1595:1628   */\n      mstore\n        /* \"#utility.yul\":1645:1664   */\n      0x84\n      add\n        /* \"contracts/token factory/TestMigrator.sol\":971:1034  require(tokenAmount > 0, \"Token amount must be greater than 0\") */\n      tag_45\n        /* \"#utility.yul\":1271:1670   */\n      jump\n        /* \"contracts/token factory/TestMigrator.sol\":971:1034  require(tokenAmount > 0, \"Token amount must be greater than 0\") */\n    tag_47:\n        /* \"contracts/token factory/TestMigrator.sol\":1067:1078  customToken */\n      sload(0x01)\n        /* \"contracts/token factory/TestMigrator.sol\":1067:1103  customToken.balanceOf(address(this)) */\n      mload(0x40)\n      shl(0xe0, 0x70a08231)\n      dup2\n      mstore\n        /* \"contracts/token factory/TestMigrator.sol\":1097:1101  this */\n      address\n        /* \"contracts/token factory/TestMigrator.sol\":1067:1103  customToken.balanceOf(address(this)) */\n      0x04\n      dup3\n      add\n        /* \"#utility.yul\":160:211   */\n      mstore\n      sub(shl(0xa0, 0x01), 0x01)\n        /* \"contracts/token factory/TestMigrator.sol\":1067:1078  customToken */\n      swap1\n      swap2\n      and\n      swap1\n        /* \"contracts/token factory/TestMigrator.sol\":1067:1088  customToken.balanceOf */\n      0x70a08231\n      swap1\n        /* \"#utility.yul\":133:151   */\n      0x24\n      add\n        /* \"contracts/token factory/TestMigrator.sol\":1067:1103  customToken.balanceOf(address(this)) */\n      0x20\n      mload(0x40)\n      dup1\n      dup4\n      sub\n      dup2\n      dup7\n      gas\n      staticcall\n      iszero\n      dup1\n      iszero\n      tag_52\n      jumpi\n      returndatasize\n      0x00\n      dup1\n      returndatacopy\n      revert(0x00, returndatasize)\n    tag_52:\n      pop\n      pop\n      pop\n      pop\n      mload(0x40)\n      returndatasize\n      not(0x1f)\n      0x1f\n      dup3\n      add\n      and\n      dup3\n      add\n      dup1\n      0x40\n      mstore\n      pop\n      dup2\n      add\n      swap1\n      tag_53\n      swap2\n      swap1\n      tag_54\n      jump\t// in\n    tag_53:\n        /* \"contracts/token factory/TestMigrator.sol\":1052:1063  tokenAmount */\n      dup2\n        /* \"contracts/token factory/TestMigrator.sol\":1052:1103  tokenAmount <= customToken.balanceOf(address(this)) */\n      gt\n      iszero\n        /* \"contracts/token factory/TestMigrator.sol\":1044:1135  require(tokenAmount <= customToken.balanceOf(address(this)), \"Not enough tokens available\") */\n      tag_55\n      jumpi\n      mload(0x40)\n      shl(0xe5, 0x461bcd)\n      dup2\n      mstore\n        /* \"#utility.yul\":2066:2068   */\n      0x20\n        /* \"contracts/token factory/TestMigrator.sol\":1044:1135  require(tokenAmount <= customToken.balanceOf(address(this)), \"Not enough tokens available\") */\n      0x04\n      dup3\n      add\n        /* \"#utility.yul\":2048:2069   */\n      mstore\n        /* \"#utility.yul\":2105:2107   */\n      0x1b\n        /* \"#utility.yul\":2085:2103   */\n      0x24\n      dup3\n      add\n        /* \"#utility.yul\":2078:2108   */\n      mstore\n        /* \"#utility.yul\":2144:2173   */\n      0x4e6f7420656e6f75676820746f6b656e7320617661696c61626c650000000000\n        /* \"#utility.yul\":2124:2142   */\n      0x44\n      dup3\n      add\n        /* \"#utility.yul\":2117:2174   */\n      mstore\n        /* \"#utility.yul\":2191:2209   */\n      0x64\n      add\n        /* \"contracts/token factory/TestMigrator.sol\":1044:1135  require(tokenAmount <= customToken.balanceOf(address(this)), \"Not enough tokens available\") */\n      tag_45\n        /* \"#utility.yul\":1864:2215   */\n      jump\n        /* \"contracts/token factory/TestMigrator.sol\":1044:1135  require(tokenAmount <= customToken.balanceOf(address(this)), \"Not enough tokens available\") */\n    tag_55:\n        /* \"contracts/token factory/TestMigrator.sol\":1203:1214  customToken */\n      sload(0x01)\n      0x00\n        /* \"contracts/token factory/TestMigrator.sol\":1231:1239  migrator */\n      sload\n        /* \"contracts/token factory/TestMigrator.sol\":1203:1254  customToken.approve(address(migrator), tokenAmount) */\n      mload(0x40)\n      shl(0xe0, 0x095ea7b3)\n      dup2\n      mstore\n      sub(shl(0xa0, 0x01), 0x01)\n        /* \"contracts/token factory/TestMigrator.sol\":1231:1239  migrator */\n      swap2\n      dup3\n      and\n        /* \"contracts/token factory/TestMigrator.sol\":1203:1254  customToken.approve(address(migrator), tokenAmount) */\n      0x04\n      dup3\n      add\n        /* \"#utility.yul\":2394:2445   */\n      mstore\n        /* \"#utility.yul\":2461:2479   */\n      0x24\n      dup2\n      add\n        /* \"#utility.yul\":2454:2488   */\n      dup5\n      swap1\n      mstore\n        /* \"contracts/token factory/TestMigrator.sol\":1203:1214  customToken */\n      swap2\n      and\n      swap1\n        /* \"contracts/token factory/TestMigrator.sol\":1203:1222  customToken.approve */\n      0x095ea7b3\n      swap1\n        /* \"#utility.yul\":2367:2385   */\n      0x44\n      add\n        /* \"contracts/token factory/TestMigrator.sol\":1203:1254  customToken.approve(address(migrator), tokenAmount) */\n      0x20\n      mload(0x40)\n      dup1\n      dup4\n      sub\n      dup2\n      0x00\n      dup8\n      gas\n      call\n      iszero\n      dup1\n      iszero\n      tag_61\n      jumpi\n      returndatasize\n      0x00\n      dup1\n      returndatacopy\n      revert(0x00, returndatasize)\n    tag_61:\n      pop\n      pop\n      pop\n      pop\n      mload(0x40)\n      returndatasize\n      not(0x1f)\n      0x1f\n      dup3\n      add\n      and\n      dup3\n      add\n      dup1\n      0x40\n      mstore\n      pop\n      dup2\n      add\n      swap1\n      tag_62\n      swap2\n      swap1\n      tag_63\n      jump\t// in\n    tag_62:\n      pop\n        /* \"contracts/token factory/TestMigrator.sol\":1323:1331  migrator */\n      sload(0x00)\n      0x01\n        /* \"contracts/token factory/TestMigrator.sol\":1376:1387  customToken */\n      sload\n        /* \"contracts/token factory/TestMigrator.sol\":1323:1402  migrator.initiateMigration{value: msg.value}(address(customToken), tokenAmount) */\n      mload(0x40)\n      shl(0xe3, 0x031faf0b)\n      dup2\n      mstore\n      sub(shl(0xa0, 0x01), 0x01)\n        /* \"contracts/token factory/TestMigrator.sol\":1376:1387  customToken */\n      swap2\n      dup3\n      and\n        /* \"contracts/token factory/TestMigrator.sol\":1323:1402  migrator.initiateMigration{value: msg.value}(address(customToken), tokenAmount) */\n      0x04\n      dup3\n      add\n        /* \"#utility.yul\":2394:2445   */\n      mstore\n        /* \"#utility.yul\":2461:2479   */\n      0x24\n      dup2\n      add\n        /* \"#utility.yul\":2454:2488   */\n      dup5\n      swap1\n      mstore\n        /* \"contracts/token factory/TestMigrator.sol\":1323:1331  migrator */\n      swap2\n      and\n      swap1\n        /* \"contracts/token factory/TestMigrator.sol\":1323:1349  migrator.initiateMigration */\n      0x18fd7858\n      swap1\n        /* \"contracts/token factory/TestMigrator.sol\":1357:1366  msg.value */\n      callvalue\n      swap1\n        /* \"#utility.yul\":2367:2385   */\n      0x44\n      add\n        /* \"contracts/token factory/TestMigrator.sol\":1323:1402  migrator.initiateMigration{value: msg.value}(address(customToken), tokenAmount) */\n      0x00\n      mload(0x40)\n      dup1\n      dup4\n      sub\n      dup2\n      dup6\n      dup9\n      dup1\n      extcodesize\n      iszero\n      dup1\n      iszero\n      tag_65\n      jumpi\n      0x00\n      dup1\n      revert\n    tag_65:\n      pop\n      gas\n      call\n      iszero\n      dup1\n      iszero\n      tag_67\n      jumpi\n      returndatasize\n      0x00\n      dup1\n      returndatacopy\n      revert(0x00, returndatasize)\n    tag_67:\n      pop\n      pop\n        /* \"contracts/token factory/TestMigrator.sol\":1444:1455  customToken */\n      sload(0x01)\n        /* \"contracts/token factory/TestMigrator.sol\":1418:1481  MigrationExecuted(address(customToken), tokenAmount, msg.value) */\n      0x40\n      dup1\n      mload\n        /* \"#utility.yul\":2955:2980   */\n      dup7\n      dup2\n      mstore\n        /* \"contracts/token factory/TestMigrator.sol\":1471:1480  msg.value */\n      callvalue\n        /* \"#utility.yul\":3011:3013   */\n      0x20\n        /* \"#utility.yul\":2996:3014   */\n      dup3\n      add\n        /* \"#utility.yul\":2989:3023   */\n      mstore\n        /* \"contracts/token factory/TestMigrator.sol\":1418:1481  MigrationExecuted(address(customToken), tokenAmount, msg.value) */\n      dup2\n      mload\n      sub(shl(0xa0, 0x01), 0x01)\n        /* \"contracts/token factory/TestMigrator.sol\":1444:1455  customToken */\n      swap1\n      swap4\n      and\n      swap6\n      pop\n        /* \"contracts/token factory/TestMigrator.sol\":1418:1481  MigrationExecuted(address(customToken), tokenAmount, msg.value) */\n      0x0aac5cbf3f9e799b277c2edd8eba370b5af3b31550f27cea98df0b1b07c039c8\n      swap5\n      pop\n      dup3\n      swap1\n      sub\n      add\n      swap2\n      pop\n      log2\n        /* \"contracts/token factory/TestMigrator.sol\":826:1488  function createAndMigrate(uint256 tokenAmount) external payable {... */\n      pop\n      jump\t// out\n        /* \"#utility.yul\":682:862   */\n    tag_39:\n        /* \"#utility.yul\":741:747   */\n      0x00\n        /* \"#utility.yul\":794:796   */\n      0x20\n        /* \"#utility.yul\":782:791   */\n      dup3\n        /* \"#utility.yul\":773:780   */\n      dup5\n        /* \"#utility.yul\":769:792   */\n      sub\n        /* \"#utility.yul\":765:797   */\n      slt\n        /* \"#utility.yul\":762:814   */\n      iszero\n      tag_75\n      jumpi\n        /* \"#utility.yul\":810:811   */\n      0x00\n        /* \"#utility.yul\":807:808   */\n      dup1\n        /* \"#utility.yul\":800:812   */\n      revert\n        /* \"#utility.yul\":762:814   */\n    tag_75:\n      pop\n        /* \"#utility.yul\":833:856   */\n      calldataload\n      swap2\n        /* \"#utility.yul\":682:862   */\n      swap1\n      pop\n      jump\t// out\n        /* \"#utility.yul\":1675:1859   */\n    tag_54:\n        /* \"#utility.yul\":1745:1751   */\n      0x00\n        /* \"#utility.yul\":1798:1800   */\n      0x20\n        /* \"#utility.yul\":1786:1795   */\n      dup3\n        /* \"#utility.yul\":1777:1784   */\n      dup5\n        /* \"#utility.yul\":1773:1796   */\n      sub\n        /* \"#utility.yul\":1769:1801   */\n      slt\n        /* \"#utility.yul\":1766:1818   */\n      iszero\n      tag_79\n      jumpi\n        /* \"#utility.yul\":1814:1815   */\n      0x00\n        /* \"#utility.yul\":1811:1812   */\n      dup1\n        /* \"#utility.yul\":1804:1816   */\n      revert\n        /* \"#utility.yul\":1766:1818   */\n    tag_79:\n      pop\n        /* \"#utility.yul\":1837:1853   */\n      mload\n      swap2\n        /* \"#utility.yul\":1675:1859   */\n      swap1\n      pop\n      jump\t// out\n        /* \"#utility.yul\":2499:2776   */\n    tag_63:\n        /* \"#utility.yul\":2566:2572   */\n      0x00\n        /* \"#utility.yul\":2619:2621   */\n      0x20\n        /* \"#utility.yul\":2607:2616   */\n      dup3\n        /* \"#utility.yul\":2598:2605   */\n      dup5\n        /* \"#utility.yul\":2594:2617   */\n      sub\n        /* \"#utility.yul\":2590:2622   */\n      slt\n        /* \"#utility.yul\":2587:2639   */\n      iszero\n      tag_83\n      jumpi\n        /* \"#utility.yul\":2635:2636   */\n      0x00\n        /* \"#utility.yul\":2632:2633   */\n      dup1\n        /* \"#utility.yul\":2625:2637   */\n      revert\n        /* \"#utility.yul\":2587:2639   */\n    tag_83:\n        /* \"#utility.yul\":2667:2676   */\n      dup2\n        /* \"#utility.yul\":2661:2677   */\n      mload\n        /* \"#utility.yul\":2720:2725   */\n      dup1\n        /* \"#utility.yul\":2713:2726   */\n      iszero\n        /* \"#utility.yul\":2706:2727   */\n      iszero\n        /* \"#utility.yul\":2699:2704   */\n      dup2\n        /* \"#utility.yul\":2696:2728   */\n      eq\n        /* \"#utility.yul\":2686:2746   */\n      tag_84\n      jumpi\n        /* \"#utility.yul\":2742:2743   */\n      0x00\n        /* \"#utility.yul\":2739:2740   */\n      dup1\n        /* \"#utility.yul\":2732:2744   */\n      revert\n        /* \"#utility.yul\":2686:2746   */\n    tag_84:\n        /* \"#utility.yul\":2765:2770   */\n      swap4\n        /* \"#utility.yul\":2499:2776   */\n      swap3\n      pop\n      pop\n      pop\n      jump\t// out\n\n    auxdata: 0xa26469706673582212205085d8dace097a4ce686fcbb42a787a52324ab8b1e35dcf63d6582d3f3f2183564736f6c634300081a0033\n}\n\nsub_1: assembly {\n        /* \"contracts/token factory/Migrator.sol\":3127:7545  contract Migrator {... */\n      mstore(0x40, 0x80)\n        /* \"contracts/token factory/Migrator.sol\":3993:4282  constructor(address _algebraUnified, address _WETH) {... */\n      callvalue\n      dup1\n      iszero\n      tag_1\n      jumpi\n      0x00\n      dup1\n      revert\n    tag_1:\n      pop\n      mload(0x40)\n      sub(codesize, bytecodeSize)\n      dup1\n      bytecodeSize\n      dup4\n      codecopy\n      dup2\n      add\n      0x40\n      dup2\n      swap1\n      mstore\n      tag_2\n      swap2\n      tag_3\n      jump\t// in\n    tag_2:\n      sub(shl(0xa0, 0x01), 0x01)\n        /* \"contracts/token factory/Migrator.sol\":4063:4092  _algebraUnified != address(0) */\n      dup3\n      and\n        /* \"contracts/token factory/Migrator.sol\":4055:4120  require(_algebraUnified != address(0), \"Invalid Algebra address\") */\n      tag_6\n      jumpi\n      mload(0x40)\n      shl(0xe5, 0x461bcd)\n      dup2\n      mstore\n        /* \"#utility.yul\":696:698   */\n      0x20\n        /* \"contracts/token factory/Migrator.sol\":4055:4120  require(_algebraUnified != address(0), \"Invalid Algebra address\") */\n      0x04\n      dup3\n      add\n        /* \"#utility.yul\":678:699   */\n      mstore\n        /* \"#utility.yul\":735:737   */\n      0x17\n        /* \"#utility.yul\":715:733   */\n      0x24\n      dup3\n      add\n        /* \"#utility.yul\":708:738   */\n      mstore\n        /* \"#utility.yul\":774:799   */\n      0x496e76616c696420416c67656272612061646472657373000000000000000000\n        /* \"#utility.yul\":754:772   */\n      0x44\n      dup3\n      add\n        /* \"#utility.yul\":747:800   */\n      mstore\n        /* \"#utility.yul\":817:835   */\n      0x64\n      add\n        /* \"contracts/token factory/Migrator.sol\":4055:4120  require(_algebraUnified != address(0), \"Invalid Algebra address\") */\n    tag_7:\n      mload(0x40)\n      dup1\n      swap2\n      sub\n      swap1\n      revert\n    tag_6:\n      sub(shl(0xa0, 0x01), 0x01)\n        /* \"contracts/token factory/Migrator.sol\":4138:4157  _WETH != address(0) */\n      dup2\n      and\n        /* \"contracts/token factory/Migrator.sol\":4130:4182  require(_WETH != address(0), \"Invalid WETH address\") */\n      tag_9\n      jumpi\n      mload(0x40)\n      shl(0xe5, 0x461bcd)\n      dup2\n      mstore\n        /* \"#utility.yul\":1048:1050   */\n      0x20\n        /* \"contracts/token factory/Migrator.sol\":4130:4182  require(_WETH != address(0), \"Invalid WETH address\") */\n      0x04\n      dup3\n      add\n        /* \"#utility.yul\":1030:1051   */\n      mstore\n        /* \"#utility.yul\":1087:1089   */\n      0x14\n        /* \"#utility.yul\":1067:1085   */\n      0x24\n      dup3\n      add\n        /* \"#utility.yul\":1060:1090   */\n      mstore\n        /* \"#utility.yul\":1126:1148   */\n      0x496e76616c696420574554482061646472657373000000000000000000000000\n        /* \"#utility.yul\":1106:1124   */\n      0x44\n      dup3\n      add\n        /* \"#utility.yul\":1099:1149   */\n      mstore\n        /* \"#utility.yul\":1166:1184   */\n      0x64\n      add\n        /* \"contracts/token factory/Migrator.sol\":4130:4182  require(_WETH != address(0), \"Invalid WETH address\") */\n      tag_7\n        /* \"#utility.yul\":846:1190   */\n      jump\n        /* \"contracts/token factory/Migrator.sol\":4130:4182  require(_WETH != address(0), \"Invalid WETH address\") */\n    tag_9:\n        /* \"contracts/token factory/Migrator.sol\":4193:4198  owner */\n      0x00\n        /* \"contracts/token factory/Migrator.sol\":4193:4211  owner = msg.sender */\n      dup1\n      sload\n      not(sub(shl(0xa0, 0x01), 0x01))\n      swap1\n      dup2\n      and\n        /* \"contracts/token factory/Migrator.sol\":4201:4211  msg.sender */\n      caller\n        /* \"contracts/token factory/Migrator.sol\":4193:4211  owner = msg.sender */\n      or\n      swap1\n      swap2\n      sstore\n      0x01\n        /* \"contracts/token factory/Migrator.sol\":4221:4253  algebraUnified = _algebraUnified */\n      dup1\n      sload\n      sub(shl(0xa0, 0x01), 0x01)\n      swap5\n      dup6\n      and\n      swap1\n      dup4\n      and\n      or\n      swap1\n      sstore\n        /* \"contracts/token factory/Migrator.sol\":4263:4267  WETH */\n      0x02\n        /* \"contracts/token factory/Migrator.sol\":4263:4275  WETH = _WETH */\n      dup1\n      sload\n      swap3\n      swap1\n      swap4\n      and\n      swap2\n      and\n      or\n      swap1\n      sstore\n        /* \"contracts/token factory/Migrator.sol\":3127:7545  contract Migrator {... */\n      jump(tag_14)\n        /* \"#utility.yul\":14:191   */\n    tag_13:\n        /* \"#utility.yul\":93:106   */\n      dup1\n      mload\n      sub(shl(0xa0, 0x01), 0x01)\n        /* \"#utility.yul\":135:166   */\n      dup2\n      and\n        /* \"#utility.yul\":125:167   */\n      dup2\n      eq\n        /* \"#utility.yul\":115:185   */\n      tag_16\n      jumpi\n        /* \"#utility.yul\":181:182   */\n      0x00\n        /* \"#utility.yul\":178:179   */\n      dup1\n        /* \"#utility.yul\":171:183   */\n      revert\n        /* \"#utility.yul\":115:185   */\n    tag_16:\n        /* \"#utility.yul\":14:191   */\n      swap2\n      swap1\n      pop\n      jump\t// out\n        /* \"#utility.yul\":196:489   */\n    tag_3:\n        /* \"#utility.yul\":275:281   */\n      0x00\n        /* \"#utility.yul\":283:289   */\n      dup1\n        /* \"#utility.yul\":336:338   */\n      0x40\n        /* \"#utility.yul\":324:333   */\n      dup4\n        /* \"#utility.yul\":315:322   */\n      dup6\n        /* \"#utility.yul\":311:334   */\n      sub\n        /* \"#utility.yul\":307:339   */\n      slt\n        /* \"#utility.yul\":304:356   */\n      iszero\n      tag_18\n      jumpi\n        /* \"#utility.yul\":352:353   */\n      0x00\n        /* \"#utility.yul\":349:350   */\n      dup1\n        /* \"#utility.yul\":342:354   */\n      revert\n        /* \"#utility.yul\":304:356   */\n    tag_18:\n        /* \"#utility.yul\":375:415   */\n      tag_19\n        /* \"#utility.yul\":405:414   */\n      dup4\n        /* \"#utility.yul\":375:415   */\n      tag_13\n      jump\t// in\n    tag_19:\n        /* \"#utility.yul\":365:415   */\n      swap2\n      pop\n        /* \"#utility.yul\":434:483   */\n      tag_20\n        /* \"#utility.yul\":479:481   */\n      0x20\n        /* \"#utility.yul\":468:477   */\n      dup5\n        /* \"#utility.yul\":464:482   */\n      add\n        /* \"#utility.yul\":434:483   */\n      tag_13\n      jump\t// in\n    tag_20:\n        /* \"#utility.yul\":424:483   */\n      swap1\n      pop\n        /* \"#utility.yul\":196:489   */\n      swap3\n      pop\n      swap3\n      swap1\n      pop\n      jump\t// out\n        /* \"#utility.yul\":846:1190   */\n    tag_14:\n        /* \"contracts/token factory/Migrator.sol\":3127:7545  contract Migrator {... */\n      dataSize(sub_0)\n      dup1\n      dataOffset(sub_0)\n      0x00\n      codecopy\n      0x00\n      return\n    stop\n\n    sub_0: assembly {\n            /* \"contracts/token factory/Migrator.sol\":3127:7545  contract Migrator {... */\n          mstore(0x40, 0x80)\n          jumpi(tag_1, lt(calldatasize, 0x04))\n          shr(0xe0, calldataload(0x00))\n          dup1\n          0x6882a888\n          gt\n          tag_14\n          jumpi\n          dup1\n          0x6882a888\n          eq\n          tag_8\n          jumpi\n          dup1\n          0x8da5cb5b\n          eq\n          tag_9\n          jumpi\n          dup1\n          0xa000bf4f\n          eq\n          tag_10\n          jumpi\n          dup1\n          0xa1634b14\n          eq\n          tag_11\n          jumpi\n          dup1\n          0xad5c4648\n          eq\n          tag_12\n          jumpi\n          dup1\n          0xfe9440d7\n          eq\n          tag_13\n          jumpi\n          0x00\n          dup1\n          revert\n        tag_14:\n          dup1\n          0x09fe2d34\n          eq\n          tag_3\n          jumpi\n          dup1\n          0x18fd7858\n          eq\n          tag_4\n          jumpi\n          dup1\n          0x24f8eca7\n          eq\n          tag_5\n          jumpi\n          dup1\n          0x3b7ab5b3\n          eq\n          tag_6\n          jumpi\n          dup1\n          0x5a2f0ae7\n          eq\n          tag_7\n          jumpi\n          0x00\n          dup1\n          revert\n        tag_1:\n          jumpi(tag_2, calldatasize)\n          stop\n        tag_2:\n          0x00\n          dup1\n          revert\n            /* \"contracts/token factory/Migrator.sol\":7172:7362  function updateAlgebraUnified(address _algebraUnified) external onlyOwner {... */\n        tag_3:\n          callvalue\n          dup1\n          iszero\n          tag_17\n          jumpi\n          0x00\n          dup1\n          revert\n        tag_17:\n          pop\n          tag_18\n          tag_19\n          calldatasize\n          0x04\n          tag_20\n          jump\t// in\n        tag_19:\n          tag_21\n          jump\t// in\n        tag_18:\n          stop\n            /* \"contracts/token factory/Migrator.sol\":4288:6513  function initiateMigration(address token, uint256 tokenAmount) external payable onlyOwner {... */\n        tag_4:\n          tag_18\n          tag_23\n          calldatasize\n          0x04\n          tag_24\n          jump\t// in\n        tag_23:\n          tag_25\n          jump\t// in\n            /* \"contracts/token factory/Migrator.sol\":3216:3245  address public algebraUnified */\n        tag_5:\n          callvalue\n          dup1\n          iszero\n          tag_26\n          jumpi\n          0x00\n          dup1\n          revert\n        tag_26:\n          pop\n          sload(0x01)\n          tag_27\n          swap1\n          sub(shl(0xa0, 0x01), 0x01)\n          and\n          dup2\n          jump\n        tag_27:\n          mload(0x40)\n          sub(shl(0xa0, 0x01), 0x01)\n            /* \"#utility.yul\":1047:1079   */\n          swap1\n          swap2\n          and\n            /* \"#utility.yul\":1029:1080   */\n          dup2\n          mstore\n            /* \"#utility.yul\":1017:1019   */\n          0x20\n            /* \"#utility.yul\":1002:1020   */\n          add\n            /* \"contracts/token factory/Migrator.sol\":3216:3245  address public algebraUnified */\n        tag_29:\n          mload(0x40)\n          dup1\n          swap2\n          sub\n          swap1\n          return\n            /* \"contracts/token factory/Migrator.sol\":3451:3509  uint256 public constant MAX_TOKEN_LIMIT = 1_000_000 * 1e18 */\n        tag_6:\n          callvalue\n          dup1\n          iszero\n          tag_31\n          jumpi\n          0x00\n          dup1\n          revert\n        tag_31:\n          pop\n          tag_32\n            /* \"contracts/token factory/Migrator.sol\":3493:3509  1_000_000 * 1e18 */\n          0xd3c21bcecceda1000000\n            /* \"contracts/token factory/Migrator.sol\":3451:3509  uint256 public constant MAX_TOKEN_LIMIT = 1_000_000 * 1e18 */\n          dup2\n          jump\n        tag_32:\n          mload(0x40)\n            /* \"#utility.yul\":1237:1262   */\n          swap1\n          dup2\n          mstore\n            /* \"#utility.yul\":1225:1227   */\n          0x20\n            /* \"#utility.yul\":1210:1228   */\n          add\n            /* \"contracts/token factory/Migrator.sol\":3451:3509  uint256 public constant MAX_TOKEN_LIMIT = 1_000_000 * 1e18 */\n          tag_29\n            /* \"#utility.yul\":1091:1268   */\n          jump\n            /* \"contracts/token factory/Migrator.sol\":3369:3417  uint256 public constant MAX_ETH_LIMIT = 10 ether */\n        tag_7:\n          callvalue\n          dup1\n          iszero\n          tag_36\n          jumpi\n          0x00\n          dup1\n          revert\n        tag_36:\n          pop\n          tag_32\n            /* \"contracts/token factory/Migrator.sol\":3409:3417  10 ether */\n          0x8ac7230489e80000\n            /* \"contracts/token factory/Migrator.sol\":3369:3417  uint256 public constant MAX_ETH_LIMIT = 10 ether */\n          dup2\n          jump\n            /* \"contracts/token factory/Migrator.sol\":3323:3362  int24 public constant MAX_TICK = 887220 */\n        tag_8:\n          callvalue\n          dup1\n          iszero\n          tag_40\n          jumpi\n          0x00\n          dup1\n          revert\n        tag_40:\n          pop\n          tag_41\n            /* \"contracts/token factory/Migrator.sol\":3356:3362  887220 */\n          0x0d89b4\n            /* \"contracts/token factory/Migrator.sol\":3323:3362  int24 public constant MAX_TICK = 887220 */\n          dup2\n          jump\n        tag_41:\n          mload(0x40)\n            /* \"#utility.yul\":1540:1541   */\n          0x02\n            /* \"#utility.yul\":1529:1550   */\n          swap2\n          swap1\n          swap2\n          signextend\n            /* \"#utility.yul\":1511:1551   */\n          dup2\n          mstore\n            /* \"#utility.yul\":1499:1501   */\n          0x20\n            /* \"#utility.yul\":1484:1502   */\n          add\n            /* \"contracts/token factory/Migrator.sol\":3323:3362  int24 public constant MAX_TICK = 887220 */\n          tag_29\n            /* \"#utility.yul\":1369:1557   */\n          jump\n            /* \"contracts/token factory/Migrator.sol\":3190:3210  address public owner */\n        tag_9:\n          callvalue\n          dup1\n          iszero\n          tag_45\n          jumpi\n          0x00\n          dup1\n          revert\n        tag_45:\n          pop\n          sload(0x00)\n          tag_27\n          swap1\n          sub(shl(0xa0, 0x01), 0x01)\n          and\n          dup2\n          jump\n            /* \"contracts/token factory/Migrator.sol\":6519:6936  function calculateSqrtPriceX96(uint256 tokenAmount, uint256 ethAmount) public pure returns (uint160) {... */\n        tag_10:\n          callvalue\n          dup1\n          iszero\n          tag_49\n          jumpi\n          0x00\n          dup1\n          revert\n        tag_49:\n          pop\n          tag_27\n          tag_51\n          calldatasize\n          0x04\n          tag_52\n          jump\t// in\n        tag_51:\n          tag_53\n          jump\t// in\n            /* \"contracts/token factory/Migrator.sol\":3277:3317  int24 public constant MIN_TICK = -887220 */\n        tag_11:\n          callvalue\n          dup1\n          iszero\n          tag_56\n          jumpi\n          0x00\n          dup1\n          revert\n        tag_56:\n          pop\n          tag_41\n          not(0x0d89b3)\n          dup2\n          jump\n            /* \"contracts/token factory/Migrator.sol\":3251:3270  address public WETH */\n        tag_12:\n          callvalue\n          dup1\n          iszero\n          tag_60\n          jumpi\n          0x00\n          dup1\n          revert\n        tag_60:\n          pop\n          sload(0x02)\n          tag_27\n          swap1\n          sub(shl(0xa0, 0x01), 0x01)\n          and\n          dup2\n          jump\n            /* \"contracts/token factory/Migrator.sol\":7368:7508  function updateWETH(address _WETH) external onlyOwner {... */\n        tag_13:\n          callvalue\n          dup1\n          iszero\n          tag_64\n          jumpi\n          0x00\n          dup1\n          revert\n        tag_64:\n          pop\n          tag_18\n          tag_66\n          calldatasize\n          0x04\n          tag_20\n          jump\t// in\n        tag_66:\n          tag_67\n          jump\t// in\n            /* \"contracts/token factory/Migrator.sol\":7172:7362  function updateAlgebraUnified(address _algebraUnified) external onlyOwner {... */\n        tag_21:\n            /* \"contracts/token factory/Migrator.sol\":3935:3940  owner */\n          and(sub(shl(0xa0, 0x01), 0x01), sload(0x00))\n            /* \"contracts/token factory/Migrator.sol\":3921:3931  msg.sender */\n          caller\n            /* \"contracts/token factory/Migrator.sol\":3921:3940  msg.sender == owner */\n          eq\n            /* \"contracts/token factory/Migrator.sol\":3913:3969  require(msg.sender == owner, \"Only owner can call this\") */\n          tag_69\n          jumpi\n          mload(0x40)\n          shl(0xe5, 0x461bcd)\n          dup2\n          mstore\n          0x04\n          add\n          tag_70\n          swap1\n          tag_71\n          jump\t// in\n        tag_70:\n          mload(0x40)\n          dup1\n          swap2\n          sub\n          swap1\n          revert\n        tag_69:\n          sub(shl(0xa0, 0x01), 0x01)\n            /* \"contracts/token factory/Migrator.sol\":7264:7293  _algebraUnified != address(0) */\n          dup2\n          and\n            /* \"contracts/token factory/Migrator.sol\":7256:7313  require(_algebraUnified != address(0), \"Invalid address\") */\n          tag_73\n          jumpi\n          mload(0x40)\n          shl(0xe5, 0x461bcd)\n          dup2\n          mstore\n            /* \"#utility.yul\":2676:2678   */\n          0x20\n            /* \"contracts/token factory/Migrator.sol\":7256:7313  require(_algebraUnified != address(0), \"Invalid address\") */\n          0x04\n          dup3\n          add\n            /* \"#utility.yul\":2658:2679   */\n          mstore\n            /* \"#utility.yul\":2715:2717   */\n          0x0f\n            /* \"#utility.yul\":2695:2713   */\n          0x24\n          dup3\n          add\n            /* \"#utility.yul\":2688:2718   */\n          mstore\n          shl(0x88, 0x496e76616c69642061646472657373)\n            /* \"#utility.yul\":2734:2752   */\n          0x44\n          dup3\n          add\n            /* \"#utility.yul\":2727:2772   */\n          mstore\n            /* \"#utility.yul\":2789:2807   */\n          0x64\n          add\n            /* \"contracts/token factory/Migrator.sol\":7256:7313  require(_algebraUnified != address(0), \"Invalid address\") */\n          tag_70\n            /* \"#utility.yul\":2474:2813   */\n          jump\n            /* \"contracts/token factory/Migrator.sol\":7256:7313  require(_algebraUnified != address(0), \"Invalid address\") */\n        tag_73:\n            /* \"contracts/token factory/Migrator.sol\":7323:7337  algebraUnified */\n          0x01\n            /* \"contracts/token factory/Migrator.sol\":7323:7355  algebraUnified = _algebraUnified */\n          dup1\n          sload\n          not(sub(shl(0xa0, 0x01), 0x01))\n          and\n          sub(shl(0xa0, 0x01), 0x01)\n          swap3\n          swap1\n          swap3\n          and\n          swap2\n          swap1\n          swap2\n          or\n          swap1\n          sstore\n            /* \"contracts/token factory/Migrator.sol\":7172:7362  function updateAlgebraUnified(address _algebraUnified) external onlyOwner {... */\n          jump\t// out\n            /* \"contracts/token factory/Migrator.sol\":4288:6513  function initiateMigration(address token, uint256 tokenAmount) external payable onlyOwner {... */\n        tag_25:\n            /* \"contracts/token factory/Migrator.sol\":3935:3940  owner */\n          and(sub(shl(0xa0, 0x01), 0x01), sload(0x00))\n            /* \"contracts/token factory/Migrator.sol\":3921:3931  msg.sender */\n          caller\n            /* \"contracts/token factory/Migrator.sol\":3921:3940  msg.sender == owner */\n          eq\n            /* \"contracts/token factory/Migrator.sol\":3913:3969  require(msg.sender == owner, \"Only owner can call this\") */\n          tag_77\n          jumpi\n          mload(0x40)\n          shl(0xe5, 0x461bcd)\n          dup2\n          mstore\n          0x04\n          add\n          tag_70\n          swap1\n          tag_71\n          jump\t// in\n        tag_77:\n            /* \"contracts/token factory/Migrator.sol\":4408:4409  0 */\n          0x00\n            /* \"contracts/token factory/Migrator.sol\":4396:4405  msg.value */\n          callvalue\n            /* \"contracts/token factory/Migrator.sol\":4396:4409  msg.value > 0 */\n          gt\n            /* \"contracts/token factory/Migrator.sol\":4388:4452  require(msg.value > 0, \"Ether amount must be greater than zero\") */\n          tag_80\n          jumpi\n          mload(0x40)\n          shl(0xe5, 0x461bcd)\n          dup2\n          mstore\n            /* \"#utility.yul\":3020:3022   */\n          0x20\n            /* \"contracts/token factory/Migrator.sol\":4388:4452  require(msg.value > 0, \"Ether amount must be greater than zero\") */\n          0x04\n          dup3\n          add\n            /* \"#utility.yul\":3002:3023   */\n          mstore\n            /* \"#utility.yul\":3059:3061   */\n          0x26\n            /* \"#utility.yul\":3039:3057   */\n          0x24\n          dup3\n          add\n            /* \"#utility.yul\":3032:3062   */\n          mstore\n            /* \"#utility.yul\":3098:3132   */\n          0x457468657220616d6f756e74206d757374206265206772656174657220746861\n            /* \"#utility.yul\":3078:3096   */\n          0x44\n          dup3\n          add\n            /* \"#utility.yul\":3071:3133   */\n          mstore\n          shl(0xd0, 0x6e207a65726f)\n            /* \"#utility.yul\":3149:3167   */\n          0x64\n          dup3\n          add\n            /* \"#utility.yul\":3142:3178   */\n          mstore\n            /* \"#utility.yul\":3195:3214   */\n          0x84\n          add\n            /* \"contracts/token factory/Migrator.sol\":4388:4452  require(msg.value > 0, \"Ether amount must be greater than zero\") */\n          tag_70\n            /* \"#utility.yul\":2818:3220   */\n          jump\n            /* \"contracts/token factory/Migrator.sol\":4388:4452  require(msg.value > 0, \"Ether amount must be greater than zero\") */\n        tag_80:\n            /* \"contracts/token factory/Migrator.sol\":4484:4485  0 */\n          0x00\n            /* \"contracts/token factory/Migrator.sol\":4470:4481  tokenAmount */\n          dup2\n            /* \"contracts/token factory/Migrator.sol\":4470:4485  tokenAmount > 0 */\n          gt\n            /* \"contracts/token factory/Migrator.sol\":4462:4528  require(tokenAmount > 0, \"Token amount must be greater than zero\") */\n          tag_83\n          jumpi\n          mload(0x40)\n          shl(0xe5, 0x461bcd)\n          dup2\n          mstore\n            /* \"#utility.yul\":3427:3429   */\n          0x20\n            /* \"contracts/token factory/Migrator.sol\":4462:4528  require(tokenAmount > 0, \"Token amount must be greater than zero\") */\n          0x04\n          dup3\n          add\n            /* \"#utility.yul\":3409:3430   */\n          mstore\n            /* \"#utility.yul\":3466:3468   */\n          0x26\n            /* \"#utility.yul\":3446:3464   */\n          0x24\n          dup3\n          add\n            /* \"#utility.yul\":3439:3469   */\n          mstore\n            /* \"#utility.yul\":3505:3539   */\n          0x546f6b656e20616d6f756e74206d757374206265206772656174657220746861\n            /* \"#utility.yul\":3485:3503   */\n          0x44\n          dup3\n          add\n            /* \"#utility.yul\":3478:3540   */\n          mstore\n          shl(0xd0, 0x6e207a65726f)\n            /* \"#utility.yul\":3556:3574   */\n          0x64\n          dup3\n          add\n            /* \"#utility.yul\":3549:3585   */\n          mstore\n            /* \"#utility.yul\":3602:3621   */\n          0x84\n          add\n            /* \"contracts/token factory/Migrator.sol\":4462:4528  require(tokenAmount > 0, \"Token amount must be greater than zero\") */\n          tag_70\n            /* \"#utility.yul\":3225:3627   */\n          jump\n            /* \"contracts/token factory/Migrator.sol\":4462:4528  require(tokenAmount > 0, \"Token amount must be greater than zero\") */\n        tag_83:\n            /* \"contracts/token factory/Migrator.sol\":4539:4566  uint256 adjustedTokenAmount */\n          0x00\n            /* \"contracts/token factory/Migrator.sol\":3493:3509  1_000_000 * 1e18 */\n          0xd3c21bcecceda1000000\n            /* \"contracts/token factory/Migrator.sol\":4569:4580  tokenAmount */\n          dup3\n            /* \"contracts/token factory/Migrator.sol\":4569:4598  tokenAmount > MAX_TOKEN_LIMIT */\n          gt\n            /* \"contracts/token factory/Migrator.sol\":4569:4630  tokenAmount > MAX_TOKEN_LIMIT ? MAX_TOKEN_LIMIT : tokenAmount */\n          tag_86\n          jumpi\n            /* \"contracts/token factory/Migrator.sol\":4619:4630  tokenAmount */\n          dup2\n            /* \"contracts/token factory/Migrator.sol\":4569:4630  tokenAmount > MAX_TOKEN_LIMIT ? MAX_TOKEN_LIMIT : tokenAmount */\n          jump(tag_87)\n        tag_86:\n            /* \"contracts/token factory/Migrator.sol\":3493:3509  1_000_000 * 1e18 */\n          0xd3c21bcecceda1000000\n            /* \"contracts/token factory/Migrator.sol\":4569:4630  tokenAmount > MAX_TOKEN_LIMIT ? MAX_TOKEN_LIMIT : tokenAmount */\n        tag_87:\n            /* \"contracts/token factory/Migrator.sol\":4539:4630  uint256 adjustedTokenAmount = tokenAmount > MAX_TOKEN_LIMIT ? MAX_TOKEN_LIMIT : tokenAmount */\n          swap1\n          pop\n            /* \"contracts/token factory/Migrator.sol\":4640:4665  uint256 adjustedEthAmount */\n          0x00\n            /* \"contracts/token factory/Migrator.sol\":3409:3417  10 ether */\n          0x8ac7230489e80000\n            /* \"contracts/token factory/Migrator.sol\":4668:4677  msg.value */\n          callvalue\n            /* \"contracts/token factory/Migrator.sol\":4668:4693  msg.value > MAX_ETH_LIMIT */\n          gt\n            /* \"contracts/token factory/Migrator.sol\":4668:4721  msg.value > MAX_ETH_LIMIT ? MAX_ETH_LIMIT : msg.value */\n          tag_88\n          jumpi\n            /* \"contracts/token factory/Migrator.sol\":4712:4721  msg.value */\n          callvalue\n            /* \"contracts/token factory/Migrator.sol\":4668:4721  msg.value > MAX_ETH_LIMIT ? MAX_ETH_LIMIT : msg.value */\n          jump(tag_89)\n        tag_88:\n            /* \"contracts/token factory/Migrator.sol\":3409:3417  10 ether */\n          0x8ac7230489e80000\n            /* \"contracts/token factory/Migrator.sol\":4668:4721  msg.value > MAX_ETH_LIMIT ? MAX_ETH_LIMIT : msg.value */\n        tag_89:\n            /* \"contracts/token factory/Migrator.sol\":4640:4721  uint256 adjustedEthAmount = msg.value > MAX_ETH_LIMIT ? MAX_ETH_LIMIT : msg.value */\n          swap1\n          pop\n            /* \"contracts/token factory/Migrator.sol\":4738:4742  WETH */\n          0x02\n          0x00\n          swap1\n          sload\n          swap1\n          0x0100\n          exp\n          swap1\n          div\n          sub(shl(0xa0, 0x01), 0x01)\n          and\n          sub(shl(0xa0, 0x01), 0x01)\n            /* \"contracts/token factory/Migrator.sol\":4732:4751  IWETH(WETH).deposit */\n          and\n          0xd0e30db0\n            /* \"contracts/token factory/Migrator.sol\":4759:4776  adjustedEthAmount */\n          dup3\n            /* \"contracts/token factory/Migrator.sol\":4732:4779  IWETH(WETH).deposit{value: adjustedEthAmount}() */\n          mload(0x40)\n          dup3\n          0xffffffff\n          and\n          0xe0\n          shl\n          dup2\n          mstore\n          0x04\n          add\n          0x00\n          mload(0x40)\n          dup1\n          dup4\n          sub\n          dup2\n          dup6\n          dup9\n          dup1\n          extcodesize\n          iszero\n          dup1\n          iszero\n          tag_90\n          jumpi\n          0x00\n          dup1\n          revert\n        tag_90:\n          pop\n          gas\n          call\n          iszero\n          dup1\n          iszero\n          tag_92\n          jumpi\n          returndatasize\n          0x00\n          dup1\n          returndatacopy\n          revert(0x00, returndatasize)\n        tag_92:\n          pop\n          pop\n            /* \"contracts/token factory/Migrator.sol\":4817:4821  WETH */\n          sload(0x02)\n            /* \"contracts/token factory/Migrator.sol\":4811:4847  IWETH(WETH).balanceOf(address(this)) */\n          mload(0x40)\n          shl(0xe0, 0x70a08231)\n          dup2\n          mstore\n            /* \"contracts/token factory/Migrator.sol\":4841:4845  this */\n          address\n            /* \"contracts/token factory/Migrator.sol\":4811:4847  IWETH(WETH).balanceOf(address(this)) */\n          0x04\n          dup3\n          add\n            /* \"#utility.yul\":1029:1080   */\n          mstore\n            /* \"contracts/token factory/Migrator.sol\":4789:4808  uint256 wethBalance */\n          0x00\n          swap5\n          pop\n          sub(shl(0xa0, 0x01), 0x01)\n            /* \"contracts/token factory/Migrator.sol\":4817:4821  WETH */\n          swap1\n          swap2\n          and\n          swap3\n          pop\n            /* \"contracts/token factory/Migrator.sol\":4811:4832  IWETH(WETH).balanceOf */\n          0x70a08231\n          swap2\n          pop\n            /* \"#utility.yul\":1002:1020   */\n          0x24\n          add\n            /* \"contracts/token factory/Migrator.sol\":4811:4847  IWETH(WETH).balanceOf(address(this)) */\n          0x20\n          mload(0x40)\n          dup1\n          dup4\n          sub\n          dup2\n          dup7\n          gas\n          staticcall\n          iszero\n          dup1\n          iszero\n          tag_95\n          jumpi\n          returndatasize\n          0x00\n          dup1\n          returndatacopy\n          revert(0x00, returndatasize)\n        tag_95:\n          pop\n          pop\n          pop\n          pop\n          mload(0x40)\n          returndatasize\n          not(0x1f)\n          0x1f\n          dup3\n          add\n          and\n          dup3\n          add\n          dup1\n          0x40\n          mstore\n          pop\n          dup2\n          add\n          swap1\n          tag_96\n          swap2\n          swap1\n          tag_97\n          jump\t// in\n        tag_96:\n            /* \"contracts/token factory/Migrator.sol\":4789:4847  uint256 wethBalance = IWETH(WETH).balanceOf(address(this)) */\n          swap1\n          pop\n            /* \"contracts/token factory/Migrator.sol\":4880:4897  adjustedEthAmount */\n          dup2\n            /* \"contracts/token factory/Migrator.sol\":4865:4876  wethBalance */\n          dup2\n            /* \"contracts/token factory/Migrator.sol\":4865:4897  wethBalance >= adjustedEthAmount */\n          lt\n          iszero\n            /* \"contracts/token factory/Migrator.sol\":4857:4932  require(wethBalance >= adjustedEthAmount, \"Failed to wrap Ether into WETH\") */\n          tag_98\n          jumpi\n          mload(0x40)\n          shl(0xe5, 0x461bcd)\n          dup2\n          mstore\n            /* \"#utility.yul\":4069:4071   */\n          0x20\n            /* \"contracts/token factory/Migrator.sol\":4857:4932  require(wethBalance >= adjustedEthAmount, \"Failed to wrap Ether into WETH\") */\n          0x04\n          dup3\n          add\n            /* \"#utility.yul\":4051:4072   */\n          mstore\n            /* \"#utility.yul\":4108:4110   */\n          0x1e\n            /* \"#utility.yul\":4088:4106   */\n          0x24\n          dup3\n          add\n            /* \"#utility.yul\":4081:4111   */\n          mstore\n            /* \"#utility.yul\":4147:4179   */\n          0x4661696c656420746f207772617020457468657220696e746f20574554480000\n            /* \"#utility.yul\":4127:4145   */\n          0x44\n          dup3\n          add\n            /* \"#utility.yul\":4120:4180   */\n          mstore\n            /* \"#utility.yul\":4197:4215   */\n          0x64\n          add\n            /* \"contracts/token factory/Migrator.sol\":4857:4932  require(wethBalance >= adjustedEthAmount, \"Failed to wrap Ether into WETH\") */\n          tag_70\n            /* \"#utility.yul\":3867:4221   */\n          jump\n            /* \"contracts/token factory/Migrator.sol\":4857:4932  require(wethBalance >= adjustedEthAmount, \"Failed to wrap Ether into WETH\") */\n        tag_98:\n            /* \"contracts/token factory/Migrator.sol\":4943:5013  token.safeTransferFrom(msg.sender, address(this), adjustedTokenAmount) */\n          tag_101\n          sub(shl(0xa0, 0x01), 0x01)\n            /* \"contracts/token factory/Migrator.sol\":4943:4965  token.safeTransferFrom */\n          dup7\n          and\n            /* \"contracts/token factory/Migrator.sol\":4966:4976  msg.sender */\n          caller\n            /* \"contracts/token factory/Migrator.sol\":4986:4990  this */\n          address\n            /* \"contracts/token factory/Migrator.sol\":4993:5012  adjustedTokenAmount */\n          dup7\n            /* \"contracts/token factory/Migrator.sol\":4943:4965  token.safeTransferFrom */\n          tag_102\n            /* \"contracts/token factory/Migrator.sol\":4943:5013  token.safeTransferFrom(msg.sender, address(this), adjustedTokenAmount) */\n          jump\t// in\n        tag_101:\n            /* \"contracts/token factory/Migrator.sol\":5050:5054  WETH */\n          sload(0x02)\n            /* \"contracts/token factory/Migrator.sol\":5024:5038  address token0 */\n          0x00\n          swap1\n          sub(shl(0xa0, 0x01), 0x01)\n            /* \"contracts/token factory/Migrator.sol\":5050:5054  WETH */\n          swap1\n          dup2\n          and\n            /* \"contracts/token factory/Migrator.sol\":5042:5054  token < WETH */\n          swap1\n          dup8\n          and\n          lt\n            /* \"contracts/token factory/Migrator.sol\":5041:5070  (token < WETH) ? token : WETH */\n          tag_103\n          jumpi\n            /* \"contracts/token factory/Migrator.sol\":5066:5070  WETH */\n          and(sub(shl(0xa0, 0x01), 0x01), sload(0x02))\n            /* \"contracts/token factory/Migrator.sol\":5041:5070  (token < WETH) ? token : WETH */\n          jump(tag_104)\n        tag_103:\n            /* \"contracts/token factory/Migrator.sol\":5058:5063  token */\n          dup6\n            /* \"contracts/token factory/Migrator.sol\":5041:5070  (token < WETH) ? token : WETH */\n        tag_104:\n            /* \"contracts/token factory/Migrator.sol\":5106:5110  WETH */\n          sload(0x02)\n            /* \"contracts/token factory/Migrator.sol\":5024:5070  address token0 = (token < WETH) ? token : WETH */\n          swap1\n          swap2\n          pop\n            /* \"contracts/token factory/Migrator.sol\":5080:5094  address token1 */\n          0x00\n          swap1\n          sub(shl(0xa0, 0x01), 0x01)\n            /* \"contracts/token factory/Migrator.sol\":5106:5110  WETH */\n          swap1\n          dup2\n          and\n            /* \"contracts/token factory/Migrator.sol\":5098:5110  token < WETH */\n          swap1\n          dup9\n          and\n          lt\n            /* \"contracts/token factory/Migrator.sol\":5097:5126  (token < WETH) ? WETH : token */\n          tag_105\n          jumpi\n            /* \"contracts/token factory/Migrator.sol\":5121:5126  token */\n          dup7\n            /* \"contracts/token factory/Migrator.sol\":5097:5126  (token < WETH) ? WETH : token */\n          jump(tag_106)\n        tag_105:\n            /* \"contracts/token factory/Migrator.sol\":5114:5118  WETH */\n          and(sub(shl(0xa0, 0x01), 0x01), sload(0x02))\n            /* \"contracts/token factory/Migrator.sol\":5097:5126  (token < WETH) ? WETH : token */\n        tag_106:\n            /* \"contracts/token factory/Migrator.sol\":5080:5126  address token1 = (token < WETH) ? WETH : token */\n          swap1\n          pop\n            /* \"contracts/token factory/Migrator.sol\":5137:5157  uint160 sqrtPriceX96 */\n          0x00\n            /* \"contracts/token factory/Migrator.sol\":5160:5221  calculateSqrtPriceX96(adjustedTokenAmount, adjustedEthAmount) */\n          tag_107\n            /* \"contracts/token factory/Migrator.sol\":5182:5201  adjustedTokenAmount */\n          dup7\n            /* \"contracts/token factory/Migrator.sol\":5203:5220  adjustedEthAmount */\n          dup7\n            /* \"contracts/token factory/Migrator.sol\":5160:5181  calculateSqrtPriceX96 */\n          tag_53\n            /* \"contracts/token factory/Migrator.sol\":5160:5221  calculateSqrtPriceX96(adjustedTokenAmount, adjustedEthAmount) */\n          jump\t// in\n        tag_107:\n            /* \"contracts/token factory/Migrator.sol\":5263:5277  algebraUnified */\n          sload(0x01)\n            /* \"contracts/token factory/Migrator.sol\":5247:5413  IAlgebraUnified(algebraUnified).createAndInitializePoolIfNecessary(... */\n          mload(0x40)\n          shl(0xe1, 0x43a9d0cd)\n          dup2\n          mstore\n          sub(shl(0xa0, 0x01), 0x01)\n            /* \"#utility.yul\":4475:4507   */\n          dup7\n          dup2\n          and\n            /* \"contracts/token factory/Migrator.sol\":5247:5413  IAlgebraUnified(algebraUnified).createAndInitializePoolIfNecessary(... */\n          0x04\n          dup4\n          add\n            /* \"#utility.yul\":4457:4508   */\n          mstore\n            /* \"#utility.yul\":4544:4576   */\n          dup6\n          dup2\n          and\n            /* \"#utility.yul\":4524:4542   */\n          0x24\n          dup4\n          add\n            /* \"#utility.yul\":4517:4577   */\n          mstore\n            /* \"contracts/token factory/Migrator.sol\":5232:5244  address pool */\n          0x00\n            /* \"#utility.yul\":4593:4611   */\n          0x44\n          dup4\n          add\n            /* \"#utility.yul\":4586:4646   */\n          dup2\n          swap1\n          mstore\n            /* \"#utility.yul\":4682:4714   */\n          dup2\n          dup6\n          and\n            /* \"#utility.yul\":4662:4680   */\n          0x64\n          dup5\n          add\n            /* \"#utility.yul\":4655:4715   */\n          mstore\n            /* \"contracts/token factory/Migrator.sol\":5137:5221  uint160 sqrtPriceX96 = calculateSqrtPriceX96(adjustedTokenAmount, adjustedEthAmount) */\n          swap4\n          swap5\n          pop\n            /* \"contracts/token factory/Migrator.sol\":5263:5277  algebraUnified */\n          swap1\n          swap2\n          and\n          swap1\n            /* \"contracts/token factory/Migrator.sol\":5247:5313  IAlgebraUnified(algebraUnified).createAndInitializePoolIfNecessary */\n          0x8753a19a\n          swap1\n            /* \"#utility.yul\":4429:4448   */\n          0x84\n          add\n            /* \"contracts/token factory/Migrator.sol\":5247:5413  IAlgebraUnified(algebraUnified).createAndInitializePoolIfNecessary(... */\n          0x20\n          mload(0x40)\n          dup1\n          dup4\n          sub\n          dup2\n          0x00\n          dup8\n          gas\n          call\n          iszero\n          dup1\n          iszero\n          tag_111\n          jumpi\n          returndatasize\n          0x00\n          dup1\n          returndatacopy\n          revert(0x00, returndatasize)\n        tag_111:\n          pop\n          pop\n          pop\n          pop\n          mload(0x40)\n          returndatasize\n          not(0x1f)\n          0x1f\n          dup3\n          add\n          and\n          dup3\n          add\n          dup1\n          0x40\n          mstore\n          pop\n          dup2\n          add\n          swap1\n          tag_112\n          swap2\n          swap1\n          tag_113\n          jump\t// in\n        tag_112:\n            /* \"contracts/token factory/Migrator.sol\":5232:5413  address pool = IAlgebraUnified(algebraUnified).createAndInitializePoolIfNecessary(... */\n          swap1\n          pop\n          sub(shl(0xa0, 0x01), 0x01)\n            /* \"contracts/token factory/Migrator.sol\":5432:5450  pool != address(0) */\n          dup2\n          and\n            /* \"contracts/token factory/Migrator.sol\":5424:5484  require(pool != address(0), \"Failed to create Algebra pool\") */\n          tag_114\n          jumpi\n          mload(0x40)\n          shl(0xe5, 0x461bcd)\n          dup2\n          mstore\n            /* \"#utility.yul\":5184:5186   */\n          0x20\n            /* \"contracts/token factory/Migrator.sol\":5424:5484  require(pool != address(0), \"Failed to create Algebra pool\") */\n          0x04\n          dup3\n          add\n            /* \"#utility.yul\":5166:5187   */\n          mstore\n            /* \"#utility.yul\":5223:5225   */\n          0x1d\n            /* \"#utility.yul\":5203:5221   */\n          0x24\n          dup3\n          add\n            /* \"#utility.yul\":5196:5226   */\n          mstore\n            /* \"#utility.yul\":5262:5293   */\n          0x4661696c656420746f2063726561746520416c676562726120706f6f6c000000\n            /* \"#utility.yul\":5242:5260   */\n          0x44\n          dup3\n          add\n            /* \"#utility.yul\":5235:5294   */\n          mstore\n            /* \"#utility.yul\":5311:5329   */\n          0x64\n          add\n            /* \"contracts/token factory/Migrator.sol\":5424:5484  require(pool != address(0), \"Failed to create Algebra pool\") */\n          tag_70\n            /* \"#utility.yul\":4982:5335   */\n          jump\n            /* \"contracts/token factory/Migrator.sol\":5424:5484  require(pool != address(0), \"Failed to create Algebra pool\") */\n        tag_114:\n            /* \"contracts/token factory/Migrator.sol\":5526:5531  token */\n          dup9\n          sub(shl(0xa0, 0x01), 0x01)\n            /* \"contracts/token factory/Migrator.sol\":5499:5572  MigrationInitialized(pool, token, adjustedTokenAmount, adjustedEthAmount) */\n          and\n            /* \"contracts/token factory/Migrator.sol\":5520:5524  pool */\n          dup2\n          sub(shl(0xa0, 0x01), 0x01)\n            /* \"contracts/token factory/Migrator.sol\":5499:5572  MigrationInitialized(pool, token, adjustedTokenAmount, adjustedEthAmount) */\n          and\n          0x0bc269b08661fa7948aabbb2ac773747166492e0ac63735b66898001e237a1bc\n            /* \"contracts/token factory/Migrator.sol\":5533:5552  adjustedTokenAmount */\n          dup10\n            /* \"contracts/token factory/Migrator.sol\":5554:5571  adjustedEthAmount */\n          dup10\n            /* \"contracts/token factory/Migrator.sol\":5499:5572  MigrationInitialized(pool, token, adjustedTokenAmount, adjustedEthAmount) */\n          mload(0x40)\n          tag_117\n          swap3\n          swap2\n          swap1\n            /* \"#utility.yul\":5514:5539   */\n          swap2\n          dup3\n          mstore\n            /* \"#utility.yul\":5570:5572   */\n          0x20\n            /* \"#utility.yul\":5555:5573   */\n          dup3\n          add\n            /* \"#utility.yul\":5548:5582   */\n          mstore\n            /* \"#utility.yul\":5502:5504   */\n          0x40\n            /* \"#utility.yul\":5487:5505   */\n          add\n          swap1\n            /* \"#utility.yul\":5340:5588   */\n          jump\n            /* \"contracts/token factory/Migrator.sol\":5499:5572  MigrationInitialized(pool, token, adjustedTokenAmount, adjustedEthAmount) */\n        tag_117:\n          mload(0x40)\n          dup1\n          swap2\n          sub\n          swap1\n          log3\n            /* \"contracts/token factory/Migrator.sol\":5601:5615  algebraUnified */\n          sload(0x01)\n            /* \"contracts/token factory/Migrator.sol\":5583:5637  token.safeApprove(algebraUnified, adjustedTokenAmount) */\n          tag_119\n          swap1\n          sub(shl(0xa0, 0x01), 0x01)\n            /* \"contracts/token factory/Migrator.sol\":5583:5600  token.safeApprove */\n          dup12\n          dup2\n          and\n          swap2\n            /* \"contracts/token factory/Migrator.sol\":5601:5615  algebraUnified */\n          and\n            /* \"contracts/token factory/Migrator.sol\":5617:5636  adjustedTokenAmount */\n          dup10\n            /* \"contracts/token factory/Migrator.sol\":5583:5600  token.safeApprove */\n          tag_120\n            /* \"contracts/token factory/Migrator.sol\":5583:5637  token.safeApprove(algebraUnified, adjustedTokenAmount) */\n          jump\t// in\n        tag_119:\n            /* \"contracts/token factory/Migrator.sol\":5664:5678  algebraUnified */\n          sload(0x01)\n            /* \"contracts/token factory/Migrator.sol\":5647:5651  WETH */\n          sload(0x02)\n            /* \"contracts/token factory/Migrator.sol\":5647:5692  WETH.safeApprove(algebraUnified, wethBalance) */\n          tag_121\n          swap2\n          sub(shl(0xa0, 0x01), 0x01)\n            /* \"contracts/token factory/Migrator.sol\":5647:5651  WETH */\n          swap2\n          dup3\n          and\n          swap2\n            /* \"contracts/token factory/Migrator.sol\":5664:5678  algebraUnified */\n          and\n            /* \"contracts/token factory/Migrator.sol\":5680:5691  wethBalance */\n          dup8\n            /* \"contracts/token factory/Migrator.sol\":5647:5663  WETH.safeApprove */\n          tag_120\n            /* \"contracts/token factory/Migrator.sol\":5647:5692  WETH.safeApprove(algebraUnified, wethBalance) */\n          jump\t// in\n        tag_121:\n            /* \"contracts/token factory/Migrator.sol\":5746:6244  IAlgebraUnified.MintParams({... */\n          0x40\n          dup1\n          mload\n          0x0160\n          dup2\n          add\n          dup3\n          mstore\n          sub(shl(0xa0, 0x01), 0x01)\n          dup1\n          dup8\n          and\n          dup1\n          dup4\n          mstore\n          dup7\n          dup3\n          and\n          0x20\n          dup5\n          add\n          mstore\n            /* \"contracts/token factory/Migrator.sol\":5703:5743  IAlgebraUnified.MintParams memory params */\n          0x00\n            /* \"contracts/token factory/Migrator.sol\":5746:6244  IAlgebraUnified.MintParams({... */\n          swap4\n          dup4\n          add\n          dup5\n          swap1\n          mstore\n          not(0x0d89b3)\n          0x60\n          dup5\n          add\n          mstore\n            /* \"contracts/token factory/Migrator.sol\":3356:3362  887220 */\n          0x0d89b4\n            /* \"contracts/token factory/Migrator.sol\":5746:6244  IAlgebraUnified.MintParams({... */\n          0x80\n          dup5\n          add\n          mstore\n          0xa0\n          dup4\n          add\n          swap2\n            /* \"contracts/token factory/Migrator.sol\":5960:5975  token0 == token */\n          dup14\n          and\n          eq\n            /* \"contracts/token factory/Migrator.sol\":5959:6012  (token0 == token) ? adjustedTokenAmount : wethBalance */\n          tag_122\n          jumpi\n            /* \"contracts/token factory/Migrator.sol\":6001:6012  wethBalance */\n          dup8\n            /* \"contracts/token factory/Migrator.sol\":5959:6012  (token0 == token) ? adjustedTokenAmount : wethBalance */\n          jump(tag_123)\n        tag_122:\n            /* \"contracts/token factory/Migrator.sol\":5979:5998  adjustedTokenAmount */\n          dup10\n            /* \"contracts/token factory/Migrator.sol\":5959:6012  (token0 == token) ? adjustedTokenAmount : wethBalance */\n        tag_123:\n            /* \"contracts/token factory/Migrator.sol\":5746:6244  IAlgebraUnified.MintParams({... */\n          dup2\n          mstore\n          0x20\n          add\n            /* \"contracts/token factory/Migrator.sol\":6053:6058  token */\n          dup12\n          sub(shl(0xa0, 0x01), 0x01)\n            /* \"contracts/token factory/Migrator.sol\":6043:6058  token0 == token */\n          and\n            /* \"contracts/token factory/Migrator.sol\":6043:6049  token0 */\n          dup8\n          sub(shl(0xa0, 0x01), 0x01)\n            /* \"contracts/token factory/Migrator.sol\":6043:6058  token0 == token */\n          and\n          eq\n            /* \"contracts/token factory/Migrator.sol\":6042:6095  (token0 == token) ? wethBalance : adjustedTokenAmount */\n          tag_124\n          jumpi\n            /* \"contracts/token factory/Migrator.sol\":6076:6095  adjustedTokenAmount */\n          dup10\n            /* \"contracts/token factory/Migrator.sol\":6042:6095  (token0 == token) ? wethBalance : adjustedTokenAmount */\n          jump(tag_125)\n        tag_124:\n            /* \"contracts/token factory/Migrator.sol\":6062:6073  wethBalance */\n          dup8\n            /* \"contracts/token factory/Migrator.sol\":6042:6095  (token0 == token) ? wethBalance : adjustedTokenAmount */\n        tag_125:\n            /* \"contracts/token factory/Migrator.sol\":5746:6244  IAlgebraUnified.MintParams({... */\n          dup2\n          mstore\n            /* \"contracts/token factory/Migrator.sol\":6121:6122  0 */\n          0x00\n            /* \"contracts/token factory/Migrator.sol\":5746:6244  IAlgebraUnified.MintParams({... */\n          0x20\n          dup3\n          add\n          dup2\n          swap1\n          mstore\n          0x40\n          dup3\n          add\n          mstore\n            /* \"contracts/token factory/Migrator.sol\":6182:6186  this */\n          address\n            /* \"contracts/token factory/Migrator.sol\":5746:6244  IAlgebraUnified.MintParams({... */\n          0x60\n          dup3\n          add\n          mstore\n          0x80\n          add\n            /* \"contracts/token factory/Migrator.sol\":6211:6233  block.timestamp + 3600 */\n          tag_126\n            /* \"contracts/token factory/Migrator.sol\":6211:6226  block.timestamp */\n          timestamp\n            /* \"contracts/token factory/Migrator.sol\":6229:6233  3600 */\n          0x0e10\n            /* \"contracts/token factory/Migrator.sol\":6211:6233  block.timestamp + 3600 */\n          tag_127\n          jump\t// in\n        tag_126:\n            /* \"contracts/token factory/Migrator.sol\":5746:6244  IAlgebraUnified.MintParams({... */\n          swap1\n          mstore\n            /* \"contracts/token factory/Migrator.sol\":6344:6358  algebraUnified */\n          sload(0x01)\n            /* \"contracts/token factory/Migrator.sol\":6328:6372  IAlgebraUnified(algebraUnified).mint(params) */\n          mload(0x40)\n          shl(0xe0, 0xfe3f3be7)\n          dup2\n          mstore\n            /* \"contracts/token factory/Migrator.sol\":5703:6244  IAlgebraUnified.MintParams memory params = IAlgebraUnified.MintParams({... */\n          swap2\n          swap3\n          pop\n            /* \"contracts/token factory/Migrator.sol\":6256:6271  uint256 tokenId */\n          0x00\n          swap2\n          dup3\n          swap2\n          dup3\n          swap2\n          dup3\n          swap2\n          sub(shl(0xa0, 0x01), 0x01)\n            /* \"contracts/token factory/Migrator.sol\":6344:6358  algebraUnified */\n          and\n          swap1\n            /* \"contracts/token factory/Migrator.sol\":6328:6364  IAlgebraUnified(algebraUnified).mint */\n          0xfe3f3be7\n          swap1\n            /* \"contracts/token factory/Migrator.sol\":6328:6372  IAlgebraUnified(algebraUnified).mint(params) */\n          tag_128\n          swap1\n            /* \"contracts/token factory/Migrator.sol\":5703:6244  IAlgebraUnified.MintParams memory params = IAlgebraUnified.MintParams({... */\n          dup9\n          swap1\n            /* \"contracts/token factory/Migrator.sol\":6328:6372  IAlgebraUnified(algebraUnified).mint(params) */\n          0x04\n          add\n          tag_129\n          jump\t// in\n        tag_128:\n          0x80\n          mload(0x40)\n          dup1\n          dup4\n          sub\n          dup2\n          0x00\n          dup8\n          gas\n          call\n          iszero\n          dup1\n          iszero\n          tag_131\n          jumpi\n          returndatasize\n          0x00\n          dup1\n          returndatacopy\n          revert(0x00, returndatasize)\n        tag_131:\n          pop\n          pop\n          pop\n          pop\n          mload(0x40)\n          returndatasize\n          not(0x1f)\n          0x1f\n          dup3\n          add\n          and\n          dup3\n          add\n          dup1\n          0x40\n          mstore\n          pop\n          dup2\n          add\n          swap1\n          tag_132\n          swap2\n          swap1\n          tag_133\n          jump\t// in\n        tag_132:\n            /* \"contracts/token factory/Migrator.sol\":6255:6372  (uint256 tokenId, uint128 liquidity, uint256 amount0, uint256 amount1) = IAlgebraUnified(algebraUnified).mint(params) */\n          swap4\n          pop\n          swap4\n          pop\n          swap4\n          pop\n          swap4\n          pop\n            /* \"contracts/token factory/Migrator.sol\":6403:6404  0 */\n          0x00\n            /* \"contracts/token factory/Migrator.sol\":6391:6400  liquidity */\n          dup4\n          sub(shl(0x80, 0x01), 0x01)\n            /* \"contracts/token factory/Migrator.sol\":6391:6404  liquidity > 0 */\n          and\n          gt\n            /* \"contracts/token factory/Migrator.sol\":6383:6433  require(liquidity > 0, \"Failed to mint liquidity\") */\n          tag_134\n          jumpi\n          mload(0x40)\n          shl(0xe5, 0x461bcd)\n          dup2\n          mstore\n            /* \"#utility.yul\":7847:7849   */\n          0x20\n            /* \"contracts/token factory/Migrator.sol\":6383:6433  require(liquidity > 0, \"Failed to mint liquidity\") */\n          0x04\n          dup3\n          add\n            /* \"#utility.yul\":7829:7850   */\n          mstore\n            /* \"#utility.yul\":7886:7888   */\n          0x18\n            /* \"#utility.yul\":7866:7884   */\n          0x24\n          dup3\n          add\n            /* \"#utility.yul\":7859:7889   */\n          mstore\n            /* \"#utility.yul\":7925:7951   */\n          0x4661696c656420746f206d696e74206c69717569646974790000000000000000\n            /* \"#utility.yul\":7905:7923   */\n          0x44\n          dup3\n          add\n            /* \"#utility.yul\":7898:7952   */\n          mstore\n            /* \"#utility.yul\":7969:7987   */\n          0x64\n          add\n            /* \"contracts/token factory/Migrator.sol\":6383:6433  require(liquidity > 0, \"Failed to mint liquidity\") */\n          tag_70\n            /* \"#utility.yul\":7645:7993   */\n          jump\n            /* \"contracts/token factory/Migrator.sol\":6383:6433  require(liquidity > 0, \"Failed to mint liquidity\") */\n        tag_134:\n            /* \"contracts/token factory/Migrator.sol\":6448:6506  LiquidityAdded(pool, tokenId, liquidity, amount0, amount1) */\n          0x40\n          dup1\n          mload\n            /* \"#utility.yul\":8229:8254   */\n          dup6\n          dup2\n          mstore\n          sub(shl(0x80, 0x01), 0x01)\n            /* \"#utility.yul\":8290:8337   */\n          dup6\n          and\n            /* \"#utility.yul\":8285:8287   */\n          0x20\n            /* \"#utility.yul\":8270:8288   */\n          dup3\n          add\n            /* \"#utility.yul\":8263:8338   */\n          mstore\n            /* \"#utility.yul\":8354:8372   */\n          swap1\n          dup2\n          add\n            /* \"#utility.yul\":8347:8381   */\n          dup4\n          swap1\n          mstore\n            /* \"#utility.yul\":8412:8414   */\n          0x60\n            /* \"#utility.yul\":8397:8415   */\n          dup2\n          add\n            /* \"#utility.yul\":8390:8424   */\n          dup3\n          swap1\n          mstore\n          sub(shl(0xa0, 0x01), 0x01)\n            /* \"contracts/token factory/Migrator.sol\":6448:6506  LiquidityAdded(pool, tokenId, liquidity, amount0, amount1) */\n          dup8\n          and\n          swap1\n          0x936f1605239d50a44520651cb0698a8f77eea34a13f43a4eac22872b1baf48cc\n          swap1\n            /* \"#utility.yul\":8216:8219   */\n          0x80\n            /* \"#utility.yul\":8201:8220   */\n          add\n            /* \"contracts/token factory/Migrator.sol\":6448:6506  LiquidityAdded(pool, tokenId, liquidity, amount0, amount1) */\n          mload(0x40)\n          dup1\n          swap2\n          sub\n          swap1\n          log2\n            /* \"contracts/token factory/Migrator.sol\":4378:6513  {... */\n          pop\n          pop\n          pop\n          pop\n          pop\n          pop\n          pop\n          pop\n          pop\n          pop\n          pop\n          pop\n            /* \"contracts/token factory/Migrator.sol\":4288:6513  function initiateMigration(address token, uint256 tokenAmount) external payable onlyOwner {... */\n          pop\n          pop\n          jump\t// out\n            /* \"contracts/token factory/Migrator.sol\":6519:6936  function calculateSqrtPriceX96(uint256 tokenAmount, uint256 ethAmount) public pure returns (uint160) {... */\n        tag_53:\n            /* \"contracts/token factory/Migrator.sol\":6611:6618  uint160 */\n          0x00\n            /* \"contracts/token factory/Migrator.sol\":6630:6657  uint256 adjustedTokenAmount */\n          dup1\n            /* \"contracts/token factory/Migrator.sol\":3493:3509  1_000_000 * 1e18 */\n          0xd3c21bcecceda1000000\n            /* \"contracts/token factory/Migrator.sol\":6660:6671  tokenAmount */\n          dup5\n            /* \"contracts/token factory/Migrator.sol\":6660:6689  tokenAmount > MAX_TOKEN_LIMIT */\n          gt\n            /* \"contracts/token factory/Migrator.sol\":6660:6721  tokenAmount > MAX_TOKEN_LIMIT ? MAX_TOKEN_LIMIT : tokenAmount */\n          tag_140\n          jumpi\n            /* \"contracts/token factory/Migrator.sol\":6710:6721  tokenAmount */\n          dup4\n            /* \"contracts/token factory/Migrator.sol\":6660:6721  tokenAmount > MAX_TOKEN_LIMIT ? MAX_TOKEN_LIMIT : tokenAmount */\n          jump(tag_141)\n        tag_140:\n            /* \"contracts/token factory/Migrator.sol\":3493:3509  1_000_000 * 1e18 */\n          0xd3c21bcecceda1000000\n            /* \"contracts/token factory/Migrator.sol\":6660:6721  tokenAmount > MAX_TOKEN_LIMIT ? MAX_TOKEN_LIMIT : tokenAmount */\n        tag_141:\n            /* \"contracts/token factory/Migrator.sol\":6630:6721  uint256 adjustedTokenAmount = tokenAmount > MAX_TOKEN_LIMIT ? MAX_TOKEN_LIMIT : tokenAmount */\n          swap1\n          pop\n            /* \"contracts/token factory/Migrator.sol\":6731:6756  uint256 adjustedEthAmount */\n          0x00\n            /* \"contracts/token factory/Migrator.sol\":3409:3417  10 ether */\n          0x8ac7230489e80000\n            /* \"contracts/token factory/Migrator.sol\":6759:6768  ethAmount */\n          dup5\n            /* \"contracts/token factory/Migrator.sol\":6759:6784  ethAmount > MAX_ETH_LIMIT */\n          gt\n            /* \"contracts/token factory/Migrator.sol\":6759:6812  ethAmount > MAX_ETH_LIMIT ? MAX_ETH_LIMIT : ethAmount */\n          tag_142\n          jumpi\n            /* \"contracts/token factory/Migrator.sol\":6803:6812  ethAmount */\n          dup4\n            /* \"contracts/token factory/Migrator.sol\":6759:6812  ethAmount > MAX_ETH_LIMIT ? MAX_ETH_LIMIT : ethAmount */\n          jump(tag_143)\n        tag_142:\n            /* \"contracts/token factory/Migrator.sol\":3409:3417  10 ether */\n          0x8ac7230489e80000\n            /* \"contracts/token factory/Migrator.sol\":6759:6812  ethAmount > MAX_ETH_LIMIT ? MAX_ETH_LIMIT : ethAmount */\n        tag_143:\n            /* \"contracts/token factory/Migrator.sol\":6731:6812  uint256 adjustedEthAmount = ethAmount > MAX_ETH_LIMIT ? MAX_ETH_LIMIT : ethAmount */\n          swap1\n          pop\n            /* \"contracts/token factory/Migrator.sol\":6823:6836  uint256 ratio */\n          0x00\n            /* \"contracts/token factory/Migrator.sol\":6839:6886  (adjustedEthAmount << 96) / adjustedTokenAmount */\n          tag_144\n            /* \"contracts/token factory/Migrator.sol\":6867:6886  adjustedTokenAmount */\n          dup4\n            /* \"contracts/token factory/Migrator.sol\":6861:6863  96 */\n          0x60\n            /* \"contracts/token factory/Migrator.sol\":6840:6863  adjustedEthAmount << 96 */\n          dup5\n          swap1\n          shl\n            /* \"contracts/token factory/Migrator.sol\":6839:6886  (adjustedEthAmount << 96) / adjustedTokenAmount */\n          tag_145\n          jump\t// in\n        tag_144:\n            /* \"contracts/token factory/Migrator.sol\":6823:6886  uint256 ratio = (adjustedEthAmount << 96) / adjustedTokenAmount */\n          swap1\n          pop\n            /* \"contracts/token factory/Migrator.sol\":6926:6928  48 */\n          0x30\n            /* \"contracts/token factory/Migrator.sol\":6911:6922  sqrt(ratio) */\n          tag_146\n            /* \"contracts/token factory/Migrator.sol\":6916:6921  ratio */\n          dup3\n            /* \"contracts/token factory/Migrator.sol\":6911:6915  sqrt */\n          tag_147\n            /* \"contracts/token factory/Migrator.sol\":6911:6922  sqrt(ratio) */\n          jump\t// in\n        tag_146:\n            /* \"contracts/token factory/Migrator.sol\":6911:6928  sqrt(ratio) << 48 */\n          swap1\n          shl\n            /* \"contracts/token factory/Migrator.sol\":6896:6929  return uint160(sqrt(ratio) << 48) */\n          swap4\n          pop\n          pop\n          pop\n          pop\n            /* \"contracts/token factory/Migrator.sol\":6519:6936  function calculateSqrtPriceX96(uint256 tokenAmount, uint256 ethAmount) public pure returns (uint160) {... */\n        tag_139:\n          swap3\n          swap2\n          pop\n          pop\n          jump\t// out\n            /* \"contracts/token factory/Migrator.sol\":7368:7508  function updateWETH(address _WETH) external onlyOwner {... */\n        tag_67:\n            /* \"contracts/token factory/Migrator.sol\":3935:3940  owner */\n          and(sub(shl(0xa0, 0x01), 0x01), sload(0x00))\n            /* \"contracts/token factory/Migrator.sol\":3921:3931  msg.sender */\n          caller\n            /* \"contracts/token factory/Migrator.sol\":3921:3940  msg.sender == owner */\n          eq\n            /* \"contracts/token factory/Migrator.sol\":3913:3969  require(msg.sender == owner, \"Only owner can call this\") */\n          tag_149\n          jumpi\n          mload(0x40)\n          shl(0xe5, 0x461bcd)\n          dup2\n          mstore\n          0x04\n          add\n          tag_70\n          swap1\n          tag_71\n          jump\t// in\n        tag_149:\n          sub(shl(0xa0, 0x01), 0x01)\n            /* \"contracts/token factory/Migrator.sol\":7440:7459  _WETH != address(0) */\n          dup2\n          and\n            /* \"contracts/token factory/Migrator.sol\":7432:7479  require(_WETH != address(0), \"Invalid address\") */\n          tag_152\n          jumpi\n          mload(0x40)\n          shl(0xe5, 0x461bcd)\n          dup2\n          mstore\n            /* \"#utility.yul\":2676:2678   */\n          0x20\n            /* \"contracts/token factory/Migrator.sol\":7432:7479  require(_WETH != address(0), \"Invalid address\") */\n          0x04\n          dup3\n          add\n            /* \"#utility.yul\":2658:2679   */\n          mstore\n            /* \"#utility.yul\":2715:2717   */\n          0x0f\n            /* \"#utility.yul\":2695:2713   */\n          0x24\n          dup3\n          add\n            /* \"#utility.yul\":2688:2718   */\n          mstore\n          shl(0x88, 0x496e76616c69642061646472657373)\n            /* \"#utility.yul\":2734:2752   */\n          0x44\n          dup3\n          add\n            /* \"#utility.yul\":2727:2772   */\n          mstore\n            /* \"#utility.yul\":2789:2807   */\n          0x64\n          add\n            /* \"contracts/token factory/Migrator.sol\":7432:7479  require(_WETH != address(0), \"Invalid address\") */\n          tag_70\n            /* \"#utility.yul\":2474:2813   */\n          jump\n            /* \"contracts/token factory/Migrator.sol\":7432:7479  require(_WETH != address(0), \"Invalid address\") */\n        tag_152:\n            /* \"contracts/token factory/Migrator.sol\":7489:7493  WETH */\n          0x02\n            /* \"contracts/token factory/Migrator.sol\":7489:7501  WETH = _WETH */\n          dup1\n          sload\n          not(sub(shl(0xa0, 0x01), 0x01))\n          and\n          sub(shl(0xa0, 0x01), 0x01)\n          swap3\n          swap1\n          swap3\n          and\n          swap2\n          swap1\n          swap2\n          or\n          swap1\n          sstore\n            /* \"contracts/token factory/Migrator.sol\":7368:7508  function updateWETH(address _WETH) external onlyOwner {... */\n          jump\t// out\n            /* \"contracts/token factory/Migrator.sol\":1601:2082  function safeTransferFrom(... */\n        tag_102:\n            /* \"contracts/token factory/Migrator.sol\":1800:1954  abi.encodeWithSelector(... */\n          0x40\n          dup1\n          mload\n          sub(shl(0xa0, 0x01), 0x01)\n            /* \"#utility.yul\":8877:8909   */\n          dup6\n          dup2\n          and\n            /* \"contracts/token factory/Migrator.sol\":1800:1954  abi.encodeWithSelector(... */\n          0x24\n          dup4\n          add\n            /* \"#utility.yul\":8859:8910   */\n          mstore\n            /* \"#utility.yul\":8946:8978   */\n          dup5\n          dup2\n          and\n            /* \"#utility.yul\":8926:8944   */\n          0x44\n          dup4\n          add\n            /* \"#utility.yul\":8919:8979   */\n          mstore\n            /* \"#utility.yul\":8995:9013   */\n          0x64\n          dup1\n          dup4\n          add\n            /* \"#utility.yul\":8988:9022   */\n          dup6\n          swap1\n          mstore\n            /* \"contracts/token factory/Migrator.sol\":1800:1954  abi.encodeWithSelector(... */\n          dup4\n          mload\n          dup1\n          dup5\n          sub\n          swap1\n          swap2\n          add\n          dup2\n          mstore\n            /* \"#utility.yul\":8832:8850   */\n          0x84\n          swap1\n          swap3\n          add\n            /* \"contracts/token factory/Migrator.sol\":1800:1954  abi.encodeWithSelector(... */\n          dup4\n          mstore\n          0x20\n          dup3\n          add\n          dup1\n          mload\n          sub(shl(0xe0, 0x01), 0x01)\n          and\n          shl(0xe0, 0x23b872dd)\n          or\n          swap1\n          mstore\n            /* \"contracts/token factory/Migrator.sol\":1776:1964  token.call(... */\n          swap2\n          mload\n          0x00\n          swap3\n          dup4\n          swap3\n            /* \"contracts/token factory/Migrator.sol\":1776:1786  token.call */\n          swap1\n          dup9\n          and\n          swap2\n            /* \"contracts/token factory/Migrator.sol\":1776:1964  token.call(... */\n          tag_157\n          swap2\n            /* \"contracts/token factory/Migrator.sol\":1800:1954  abi.encodeWithSelector(... */\n          swap1\n            /* \"contracts/token factory/Migrator.sol\":1776:1964  token.call(... */\n          tag_158\n          jump\t// in\n        tag_157:\n          0x00\n          mload(0x40)\n          dup1\n          dup4\n          sub\n          dup2\n          0x00\n          dup7\n          gas\n          call\n          swap2\n          pop\n          pop\n          returndatasize\n          dup1\n          0x00\n          dup2\n          eq\n          tag_161\n          jumpi\n          mload(0x40)\n          swap2\n          pop\n          and(add(returndatasize, 0x3f), not(0x1f))\n          dup3\n          add\n          0x40\n          mstore\n          returndatasize\n          dup3\n          mstore\n          returndatasize\n          0x00\n          0x20\n          dup5\n          add\n          returndatacopy\n          jump(tag_160)\n        tag_161:\n          0x60\n          swap2\n          pop\n        tag_160:\n          pop\n            /* \"contracts/token factory/Migrator.sol\":1740:1964  (bool success, bytes memory data) = token.call(... */\n          swap2\n          pop\n          swap2\n          pop\n            /* \"contracts/token factory/Migrator.sol\":1979:1986  success */\n          dup2\n            /* \"contracts/token factory/Migrator.sol\":1978:1986  !success */\n          iszero\n            /* \"contracts/token factory/Migrator.sol\":1978:2037  !success || (data.length != 0 && !abi.decode(data, (bool))) */\n          dup1\n          tag_163\n          jumpi\n          pop\n            /* \"contracts/token factory/Migrator.sol\":1991:2002  data.length */\n          dup1\n          mload\n            /* \"contracts/token factory/Migrator.sol\":1991:2007  data.length != 0 */\n          iszero\n          dup1\n          iszero\n          swap1\n            /* \"contracts/token factory/Migrator.sol\":1991:2036  data.length != 0 && !abi.decode(data, (bool)) */\n          tag_163\n          jumpi\n          pop\n            /* \"contracts/token factory/Migrator.sol\":2023:2027  data */\n          dup1\n            /* \"contracts/token factory/Migrator.sol\":2012:2036  abi.decode(data, (bool)) */\n          dup1\n          0x20\n          add\n          swap1\n          mload\n          dup2\n          add\n          swap1\n          tag_164\n          swap2\n          swap1\n          tag_165\n          jump\t// in\n        tag_164:\n            /* \"contracts/token factory/Migrator.sol\":2011:2036  !abi.decode(data, (bool)) */\n          iszero\n            /* \"contracts/token factory/Migrator.sol\":1991:2036  data.length != 0 && !abi.decode(data, (bool)) */\n        tag_163:\n            /* \"contracts/token factory/Migrator.sol\":1974:2076  if (!success || (data.length != 0 && !abi.decode(data, (bool)))) {... */\n          iszero\n          tag_166\n          jumpi\n            /* \"contracts/token factory/Migrator.sol\":2060:2065  STF() */\n          mload(0x40)\n          shl(0xe0, 0x817275ab)\n          dup2\n          mstore\n          0x04\n          add\n          mload(0x40)\n          dup1\n          swap2\n          sub\n          swap1\n          revert\n            /* \"contracts/token factory/Migrator.sol\":1974:2076  if (!success || (data.length != 0 && !abi.decode(data, (bool)))) {... */\n        tag_166:\n            /* \"contracts/token factory/Migrator.sol\":1730:2082  {... */\n          pop\n          pop\n            /* \"contracts/token factory/Migrator.sol\":1601:2082  function safeTransferFrom(... */\n          pop\n          pop\n          pop\n          pop\n          jump\t// out\n            /* \"contracts/token factory/Migrator.sol\":2506:2932  function safeApprove(... */\n        tag_120:\n            /* \"contracts/token factory/Migrator.sol\":2678:2805  abi.encodeWithSelector(... */\n          0x40\n          dup1\n          mload\n          sub(shl(0xa0, 0x01), 0x01)\n            /* \"#utility.yul\":9924:9956   */\n          dup5\n          dup2\n          and\n            /* \"contracts/token factory/Migrator.sol\":2678:2805  abi.encodeWithSelector(... */\n          0x24\n          dup4\n          add\n            /* \"#utility.yul\":9906:9957   */\n          mstore\n            /* \"#utility.yul\":9973:9991   */\n          0x44\n          dup1\n          dup4\n          add\n            /* \"#utility.yul\":9966:10000   */\n          dup6\n          swap1\n          mstore\n            /* \"contracts/token factory/Migrator.sol\":2678:2805  abi.encodeWithSelector(... */\n          dup4\n          mload\n          dup1\n          dup5\n          sub\n          swap1\n          swap2\n          add\n          dup2\n          mstore\n            /* \"#utility.yul\":9879:9897   */\n          0x64\n          swap1\n          swap3\n          add\n            /* \"contracts/token factory/Migrator.sol\":2678:2805  abi.encodeWithSelector(... */\n          dup4\n          mstore\n          0x20\n          dup3\n          add\n          dup1\n          mload\n          sub(shl(0xe0, 0x01), 0x01)\n          and\n          shl(0xe0, 0x095ea7b3)\n          or\n          swap1\n          mstore\n            /* \"contracts/token factory/Migrator.sol\":2654:2815  token.call(... */\n          swap2\n          mload\n          0x00\n          swap3\n          dup4\n          swap3\n            /* \"contracts/token factory/Migrator.sol\":2654:2664  token.call */\n          swap1\n          dup8\n          and\n          swap2\n            /* \"contracts/token factory/Migrator.sol\":2654:2815  token.call(... */\n          tag_170\n          swap2\n            /* \"contracts/token factory/Migrator.sol\":2678:2805  abi.encodeWithSelector(... */\n          swap1\n            /* \"contracts/token factory/Migrator.sol\":2654:2815  token.call(... */\n          tag_158\n          jump\t// in\n        tag_170:\n          0x00\n          mload(0x40)\n          dup1\n          dup4\n          sub\n          dup2\n          0x00\n          dup7\n          gas\n          call\n          swap2\n          pop\n          pop\n          returndatasize\n          dup1\n          0x00\n          dup2\n          eq\n          tag_173\n          jumpi\n          mload(0x40)\n          swap2\n          pop\n          and(add(returndatasize, 0x3f), not(0x1f))\n          dup3\n          add\n          0x40\n          mstore\n          returndatasize\n          dup3\n          mstore\n          returndatasize\n          0x00\n          0x20\n          dup5\n          add\n          returndatacopy\n          jump(tag_172)\n        tag_173:\n          0x60\n          swap2\n          pop\n        tag_172:\n          pop\n            /* \"contracts/token factory/Migrator.sol\":2618:2815  (bool success, bytes memory data) = token.call(... */\n          swap2\n          pop\n          swap2\n          pop\n            /* \"contracts/token factory/Migrator.sol\":2830:2837  success */\n          dup2\n            /* \"contracts/token factory/Migrator.sol\":2829:2837  !success */\n          iszero\n            /* \"contracts/token factory/Migrator.sol\":2829:2888  !success || (data.length != 0 && !abi.decode(data, (bool))) */\n          dup1\n          tag_175\n          jumpi\n          pop\n            /* \"contracts/token factory/Migrator.sol\":2842:2853  data.length */\n          dup1\n          mload\n            /* \"contracts/token factory/Migrator.sol\":2842:2858  data.length != 0 */\n          iszero\n          dup1\n          iszero\n          swap1\n            /* \"contracts/token factory/Migrator.sol\":2842:2887  data.length != 0 && !abi.decode(data, (bool)) */\n          tag_175\n          jumpi\n          pop\n            /* \"contracts/token factory/Migrator.sol\":2874:2878  data */\n          dup1\n            /* \"contracts/token factory/Migrator.sol\":2863:2887  abi.decode(data, (bool)) */\n          dup1\n          0x20\n          add\n          swap1\n          mload\n          dup2\n          add\n          swap1\n          tag_176\n          swap2\n          swap1\n          tag_165\n          jump\t// in\n        tag_176:\n            /* \"contracts/token factory/Migrator.sol\":2862:2887  !abi.decode(data, (bool)) */\n          iszero\n            /* \"contracts/token factory/Migrator.sol\":2842:2887  data.length != 0 && !abi.decode(data, (bool)) */\n        tag_175:\n            /* \"contracts/token factory/Migrator.sol\":2825:2926  if (!success || (data.length != 0 && !abi.decode(data, (bool)))) {... */\n          iszero\n          tag_177\n          jumpi\n            /* \"contracts/token factory/Migrator.sol\":2911:2915  SA() */\n          mload(0x40)\n          shl(0xe1, 0x7cd36c65)\n          dup2\n          mstore\n          0x04\n          add\n          mload(0x40)\n          dup1\n          swap2\n          sub\n          swap1\n          revert\n            /* \"contracts/token factory/Migrator.sol\":2825:2926  if (!success || (data.length != 0 && !abi.decode(data, (bool)))) {... */\n        tag_177:\n            /* \"contracts/token factory/Migrator.sol\":2608:2932  {... */\n          pop\n          pop\n            /* \"contracts/token factory/Migrator.sol\":2506:2932  function safeApprove(... */\n          pop\n          pop\n          pop\n          jump\t// out\n            /* \"contracts/token factory/Migrator.sol\":6942:7166  function sqrt(uint256 x) internal pure returns (uint256) {... */\n        tag_147:\n            /* \"contracts/token factory/Migrator.sol\":6990:6997  uint256 */\n          0x00\n          dup1\n            /* \"contracts/token factory/Migrator.sol\":7031:7032  2 */\n          0x02\n            /* \"contracts/token factory/Migrator.sol\":7022:7027  x + 1 */\n          tag_179\n            /* \"contracts/token factory/Migrator.sol\":7022:7023  x */\n          dup5\n            /* \"contracts/token factory/Migrator.sol\":7026:7027  1 */\n          0x01\n            /* \"contracts/token factory/Migrator.sol\":7022:7027  x + 1 */\n          tag_127\n          jump\t// in\n        tag_179:\n            /* \"contracts/token factory/Migrator.sol\":7021:7032  (x + 1) / 2 */\n          tag_180\n          swap2\n          swap1\n          tag_145\n          jump\t// in\n        tag_180:\n            /* \"contracts/token factory/Migrator.sol\":7009:7032  uint256 z = (x + 1) / 2 */\n          swap1\n          pop\n            /* \"contracts/token factory/Migrator.sol\":7054:7055  x */\n          dup3\n            /* \"contracts/token factory/Migrator.sol\":7065:7142  while (z < y) {... */\n        tag_181:\n            /* \"contracts/token factory/Migrator.sol\":7076:7077  y */\n          dup1\n            /* \"contracts/token factory/Migrator.sol\":7072:7073  z */\n          dup3\n            /* \"contracts/token factory/Migrator.sol\":7072:7077  z < y */\n          lt\n            /* \"contracts/token factory/Migrator.sol\":7065:7142  while (z < y) {... */\n          iszero\n          tag_182\n          jumpi\n          pop\n            /* \"contracts/token factory/Migrator.sol\":7097:7098  z */\n          dup1\n            /* \"contracts/token factory/Migrator.sol\":7130:7131  2 */\n          0x02\n            /* \"contracts/token factory/Migrator.sol\":7097:7098  z */\n          dup2\n            /* \"contracts/token factory/Migrator.sol\":7117:7122  x / z */\n          tag_183\n            /* \"contracts/token factory/Migrator.sol\":7097:7098  z */\n          dup2\n            /* \"contracts/token factory/Migrator.sol\":7117:7118  x */\n          dup8\n            /* \"contracts/token factory/Migrator.sol\":7117:7122  x / z */\n          tag_145\n          jump\t// in\n        tag_183:\n            /* \"contracts/token factory/Migrator.sol\":7117:7126  x / z + z */\n          tag_184\n          swap2\n          swap1\n          tag_127\n          jump\t// in\n        tag_184:\n            /* \"contracts/token factory/Migrator.sol\":7116:7131  (x / z + z) / 2 */\n          tag_185\n          swap2\n          swap1\n          tag_145\n          jump\t// in\n        tag_185:\n            /* \"contracts/token factory/Migrator.sol\":7112:7131  z = (x / z + z) / 2 */\n          swap2\n          pop\n            /* \"contracts/token factory/Migrator.sol\":7065:7142  while (z < y) {... */\n          jump(tag_181)\n        tag_182:\n            /* \"contracts/token factory/Migrator.sol\":7158:7159  y */\n          swap4\n            /* \"contracts/token factory/Migrator.sol\":6942:7166  function sqrt(uint256 x) internal pure returns (uint256) {... */\n          swap3\n          pop\n          pop\n          pop\n          jump\t// out\n            /* \"#utility.yul\":14:145   */\n        tag_186:\n          sub(shl(0xa0, 0x01), 0x01)\n            /* \"#utility.yul\":89:120   */\n          dup2\n          and\n            /* \"#utility.yul\":79:121   */\n          dup2\n          eq\n            /* \"#utility.yul\":69:139   */\n          tag_191\n          jumpi\n            /* \"#utility.yul\":135:136   */\n          0x00\n            /* \"#utility.yul\":132:133   */\n          dup1\n            /* \"#utility.yul\":125:137   */\n          revert\n            /* \"#utility.yul\":69:139   */\n        tag_191:\n            /* \"#utility.yul\":14:145   */\n          pop\n          jump\t// out\n            /* \"#utility.yul\":150:397   */\n        tag_20:\n            /* \"#utility.yul\":209:215   */\n          0x00\n            /* \"#utility.yul\":262:264   */\n          0x20\n            /* \"#utility.yul\":250:259   */\n          dup3\n            /* \"#utility.yul\":241:248   */\n          dup5\n            /* \"#utility.yul\":237:260   */\n          sub\n            /* \"#utility.yul\":233:265   */\n          slt\n            /* \"#utility.yul\":230:282   */\n          iszero\n          tag_193\n          jumpi\n            /* \"#utility.yul\":278:279   */\n          0x00\n            /* \"#utility.yul\":275:276   */\n          dup1\n            /* \"#utility.yul\":268:280   */\n          revert\n            /* \"#utility.yul\":230:282   */\n        tag_193:\n            /* \"#utility.yul\":317:326   */\n          dup2\n            /* \"#utility.yul\":304:327   */\n          calldataload\n            /* \"#utility.yul\":336:367   */\n          tag_182\n            /* \"#utility.yul\":361:366   */\n          dup2\n            /* \"#utility.yul\":336:367   */\n          tag_186\n          jump\t// in\n            /* \"#utility.yul\":402:769   */\n        tag_24:\n            /* \"#utility.yul\":470:476   */\n          0x00\n            /* \"#utility.yul\":478:484   */\n          dup1\n            /* \"#utility.yul\":531:533   */\n          0x40\n            /* \"#utility.yul\":519:528   */\n          dup4\n            /* \"#utility.yul\":510:517   */\n          dup6\n            /* \"#utility.yul\":506:529   */\n          sub\n            /* \"#utility.yul\":502:534   */\n          slt\n            /* \"#utility.yul\":499:551   */\n          iszero\n          tag_196\n          jumpi\n            /* \"#utility.yul\":547:548   */\n          0x00\n            /* \"#utility.yul\":544:545   */\n          dup1\n            /* \"#utility.yul\":537:549   */\n          revert\n            /* \"#utility.yul\":499:551   */\n        tag_196:\n            /* \"#utility.yul\":586:595   */\n          dup3\n            /* \"#utility.yul\":573:596   */\n          calldataload\n            /* \"#utility.yul\":605:636   */\n          tag_197\n            /* \"#utility.yul\":630:635   */\n          dup2\n            /* \"#utility.yul\":605:636   */\n          tag_186\n          jump\t// in\n        tag_197:\n            /* \"#utility.yul\":655:660   */\n          swap5\n            /* \"#utility.yul\":733:735   */\n          0x20\n            /* \"#utility.yul\":718:736   */\n          swap4\n          swap1\n          swap4\n          add\n            /* \"#utility.yul\":705:737   */\n          calldataload\n          swap4\n          pop\n          pop\n          pop\n            /* \"#utility.yul\":402:769   */\n          jump\t// out\n            /* \"#utility.yul\":1562:1908   */\n        tag_52:\n            /* \"#utility.yul\":1630:1636   */\n          0x00\n            /* \"#utility.yul\":1638:1644   */\n          dup1\n            /* \"#utility.yul\":1691:1693   */\n          0x40\n            /* \"#utility.yul\":1679:1688   */\n          dup4\n            /* \"#utility.yul\":1670:1677   */\n          dup6\n            /* \"#utility.yul\":1666:1689   */\n          sub\n            /* \"#utility.yul\":1662:1694   */\n          slt\n            /* \"#utility.yul\":1659:1711   */\n          iszero\n          tag_204\n          jumpi\n            /* \"#utility.yul\":1707:1708   */\n          0x00\n            /* \"#utility.yul\":1704:1705   */\n          dup1\n            /* \"#utility.yul\":1697:1709   */\n          revert\n            /* \"#utility.yul\":1659:1711   */\n        tag_204:\n          pop\n          pop\n            /* \"#utility.yul\":1752:1775   */\n          dup1\n          calldataload\n          swap3\n            /* \"#utility.yul\":1872:1874   */\n          0x20\n            /* \"#utility.yul\":1857:1875   */\n          swap1\n          swap2\n          add\n            /* \"#utility.yul\":1844:1876   */\n          calldataload\n          swap2\n          pop\n            /* \"#utility.yul\":1562:1908   */\n          jump\t// out\n            /* \"#utility.yul\":2121:2469   */\n        tag_71:\n            /* \"#utility.yul\":2323:2325   */\n          0x20\n            /* \"#utility.yul\":2305:2326   */\n          dup1\n          dup3\n          mstore\n            /* \"#utility.yul\":2362:2364   */\n          0x18\n            /* \"#utility.yul\":2342:2360   */\n          swap1\n          dup3\n          add\n            /* \"#utility.yul\":2335:2365   */\n          mstore\n            /* \"#utility.yul\":2401:2427   */\n          0x4f6e6c79206f776e65722063616e2063616c6c20746869730000000000000000\n            /* \"#utility.yul\":2396:2398   */\n          0x40\n            /* \"#utility.yul\":2381:2399   */\n          dup3\n          add\n            /* \"#utility.yul\":2374:2428   */\n          mstore\n            /* \"#utility.yul\":2460:2462   */\n          0x60\n            /* \"#utility.yul\":2445:2463   */\n          add\n          swap1\n            /* \"#utility.yul\":2121:2469   */\n          jump\t// out\n            /* \"#utility.yul\":3632:3862   */\n        tag_97:\n            /* \"#utility.yul\":3702:3708   */\n          0x00\n            /* \"#utility.yul\":3755:3757   */\n          0x20\n            /* \"#utility.yul\":3743:3752   */\n          dup3\n            /* \"#utility.yul\":3734:3741   */\n          dup5\n            /* \"#utility.yul\":3730:3753   */\n          sub\n            /* \"#utility.yul\":3726:3758   */\n          slt\n            /* \"#utility.yul\":3723:3775   */\n          iszero\n          tag_211\n          jumpi\n            /* \"#utility.yul\":3771:3772   */\n          0x00\n            /* \"#utility.yul\":3768:3769   */\n          dup1\n            /* \"#utility.yul\":3761:3773   */\n          revert\n            /* \"#utility.yul\":3723:3775   */\n        tag_211:\n          pop\n            /* \"#utility.yul\":3816:3832   */\n          mload\n          swap2\n            /* \"#utility.yul\":3632:3862   */\n          swap1\n          pop\n          jump\t// out\n            /* \"#utility.yul\":4726:4977   */\n        tag_113:\n            /* \"#utility.yul\":4796:4802   */\n          0x00\n            /* \"#utility.yul\":4849:4851   */\n          0x20\n            /* \"#utility.yul\":4837:4846   */\n          dup3\n            /* \"#utility.yul\":4828:4835   */\n          dup5\n            /* \"#utility.yul\":4824:4847   */\n          sub\n            /* \"#utility.yul\":4820:4852   */\n          slt\n            /* \"#utility.yul\":4817:4869   */\n          iszero\n          tag_215\n          jumpi\n            /* \"#utility.yul\":4865:4866   */\n          0x00\n            /* \"#utility.yul\":4862:4863   */\n          dup1\n            /* \"#utility.yul\":4855:4867   */\n          revert\n            /* \"#utility.yul\":4817:4869   */\n        tag_215:\n            /* \"#utility.yul\":4897:4906   */\n          dup2\n            /* \"#utility.yul\":4891:4907   */\n          mload\n            /* \"#utility.yul\":4916:4947   */\n          tag_182\n            /* \"#utility.yul\":4941:4946   */\n          dup2\n            /* \"#utility.yul\":4916:4947   */\n          tag_186\n          jump\t// in\n            /* \"#utility.yul\":5593:5815   */\n        tag_127:\n            /* \"#utility.yul\":5658:5667   */\n          dup1\n          dup3\n          add\n            /* \"#utility.yul\":5679:5689   */\n          dup1\n          dup3\n          gt\n            /* \"#utility.yul\":5676:5809   */\n          iszero\n          tag_139\n          jumpi\n            /* \"#utility.yul\":5731:5741   */\n          0x4e487b71\n            /* \"#utility.yul\":5726:5729   */\n          0xe0\n            /* \"#utility.yul\":5722:5742   */\n          shl\n            /* \"#utility.yul\":5719:5720   */\n          0x00\n            /* \"#utility.yul\":5712:5743   */\n          mstore\n            /* \"#utility.yul\":5766:5770   */\n          0x11\n            /* \"#utility.yul\":5763:5764   */\n          0x04\n            /* \"#utility.yul\":5756:5771   */\n          mstore\n            /* \"#utility.yul\":5794:5798   */\n          0x24\n            /* \"#utility.yul\":5791:5792   */\n          0x00\n            /* \"#utility.yul\":5784:5799   */\n          revert\n            /* \"#utility.yul\":5820:6988   */\n        tag_129:\n            /* \"#utility.yul\":6038:6051   */\n          dup2\n          mload\n          sub(shl(0xa0, 0x01), 0x01)\n            /* \"#utility.yul\":840:871   */\n          and\n            /* \"#utility.yul\":828:872   */\n          dup2\n          mstore\n            /* \"#utility.yul\":6006:6009   */\n          0x0160\n            /* \"#utility.yul\":5991:6010   */\n          dup2\n          add\n            /* \"#utility.yul\":6110:6114   */\n          0x20\n            /* \"#utility.yul\":6102:6108   */\n          dup4\n            /* \"#utility.yul\":6098:6115   */\n          add\n            /* \"#utility.yul\":6092:6116   */\n          mload\n            /* \"#utility.yul\":6125:6179   */\n          tag_223\n            /* \"#utility.yul\":6173:6177   */\n          0x20\n            /* \"#utility.yul\":6162:6171   */\n          dup5\n            /* \"#utility.yul\":6158:6178   */\n          add\n            /* \"#utility.yul\":6144:6156   */\n          dup3\n          sub(shl(0xa0, 0x01), 0x01)\n            /* \"#utility.yul\":840:871   */\n          and\n            /* \"#utility.yul\":828:872   */\n          swap1\n          mstore\n            /* \"#utility.yul\":774:878   */\n          jump\n            /* \"#utility.yul\":6125:6179   */\n        tag_223:\n          pop\n            /* \"#utility.yul\":6228:6232   */\n          0x40\n            /* \"#utility.yul\":6220:6226   */\n          dup4\n            /* \"#utility.yul\":6216:6233   */\n          add\n            /* \"#utility.yul\":6210:6234   */\n          mload\n            /* \"#utility.yul\":6243:6299   */\n          tag_224\n            /* \"#utility.yul\":6293:6297   */\n          0x40\n            /* \"#utility.yul\":6282:6291   */\n          dup5\n            /* \"#utility.yul\":6278:6298   */\n          add\n            /* \"#utility.yul\":6262:6276   */\n          dup3\n          sub(shl(0xa0, 0x01), 0x01)\n            /* \"#utility.yul\":840:871   */\n          and\n            /* \"#utility.yul\":828:872   */\n          swap1\n          mstore\n            /* \"#utility.yul\":774:878   */\n          jump\n            /* \"#utility.yul\":6243:6299   */\n        tag_224:\n          pop\n            /* \"#utility.yul\":6348:6352   */\n          0x60\n            /* \"#utility.yul\":6340:6346   */\n          dup4\n            /* \"#utility.yul\":6336:6353   */\n          add\n            /* \"#utility.yul\":6330:6354   */\n          mload\n            /* \"#utility.yul\":6363:6417   */\n          tag_225\n            /* \"#utility.yul\":6411:6415   */\n          0x60\n            /* \"#utility.yul\":6400:6409   */\n          dup5\n            /* \"#utility.yul\":6396:6416   */\n          add\n            /* \"#utility.yul\":6380:6394   */\n          dup3\n            /* \"#utility.yul\":1348:1349   */\n          0x02\n            /* \"#utility.yul\":1337:1357   */\n          signextend\n            /* \"#utility.yul\":1325:1358   */\n          swap1\n          mstore\n            /* \"#utility.yul\":1273:1364   */\n          jump\n            /* \"#utility.yul\":6363:6417   */\n        tag_225:\n          pop\n            /* \"#utility.yul\":6466:6470   */\n          0x80\n            /* \"#utility.yul\":6458:6464   */\n          dup4\n            /* \"#utility.yul\":6454:6471   */\n          add\n            /* \"#utility.yul\":6448:6472   */\n          mload\n            /* \"#utility.yul\":6481:6535   */\n          tag_226\n            /* \"#utility.yul\":6529:6533   */\n          0x80\n            /* \"#utility.yul\":6518:6527   */\n          dup5\n            /* \"#utility.yul\":6514:6534   */\n          add\n            /* \"#utility.yul\":6498:6512   */\n          dup3\n            /* \"#utility.yul\":1348:1349   */\n          0x02\n            /* \"#utility.yul\":1337:1357   */\n          signextend\n            /* \"#utility.yul\":1325:1358   */\n          swap1\n          mstore\n            /* \"#utility.yul\":1273:1364   */\n          jump\n            /* \"#utility.yul\":6481:6535   */\n        tag_226:\n          pop\n            /* \"#utility.yul\":6591:6595   */\n          0xa0\n            /* \"#utility.yul\":6583:6589   */\n          dup4\n            /* \"#utility.yul\":6579:6596   */\n          add\n            /* \"#utility.yul\":6573:6597   */\n          mload\n            /* \"#utility.yul\":6566:6570   */\n          0xa0\n            /* \"#utility.yul\":6555:6564   */\n          dup4\n            /* \"#utility.yul\":6551:6571   */\n          add\n            /* \"#utility.yul\":6544:6598   */\n          mstore\n            /* \"#utility.yul\":6654:6658   */\n          0xc0\n            /* \"#utility.yul\":6646:6652   */\n          dup4\n            /* \"#utility.yul\":6642:6659   */\n          add\n            /* \"#utility.yul\":6636:6660   */\n          mload\n            /* \"#utility.yul\":6629:6633   */\n          0xc0\n            /* \"#utility.yul\":6618:6627   */\n          dup4\n            /* \"#utility.yul\":6614:6634   */\n          add\n            /* \"#utility.yul\":6607:6661   */\n          mstore\n            /* \"#utility.yul\":6717:6721   */\n          0xe0\n            /* \"#utility.yul\":6709:6715   */\n          dup4\n            /* \"#utility.yul\":6705:6722   */\n          add\n            /* \"#utility.yul\":6699:6723   */\n          mload\n            /* \"#utility.yul\":6692:6696   */\n          0xe0\n            /* \"#utility.yul\":6681:6690   */\n          dup4\n            /* \"#utility.yul\":6677:6697   */\n          add\n            /* \"#utility.yul\":6670:6724   */\n          mstore\n            /* \"#utility.yul\":6782:6788   */\n          0x0100\n            /* \"#utility.yul\":6774:6780   */\n          dup4\n            /* \"#utility.yul\":6770:6789   */\n          add\n            /* \"#utility.yul\":6764:6790   */\n          mload\n            /* \"#utility.yul\":6755:6761   */\n          0x0100\n            /* \"#utility.yul\":6744:6753   */\n          dup4\n            /* \"#utility.yul\":6740:6762   */\n          add\n            /* \"#utility.yul\":6733:6791   */\n          mstore\n            /* \"#utility.yul\":6840:6846   */\n          0x0120\n            /* \"#utility.yul\":6832:6838   */\n          dup4\n            /* \"#utility.yul\":6828:6847   */\n          add\n            /* \"#utility.yul\":6822:6848   */\n          mload\n            /* \"#utility.yul\":6857:6915   */\n          tag_227\n            /* \"#utility.yul\":6907:6913   */\n          0x0120\n            /* \"#utility.yul\":6896:6905   */\n          dup5\n            /* \"#utility.yul\":6892:6914   */\n          add\n            /* \"#utility.yul\":6876:6890   */\n          dup3\n          sub(shl(0xa0, 0x01), 0x01)\n            /* \"#utility.yul\":840:871   */\n          and\n            /* \"#utility.yul\":828:872   */\n          swap1\n          mstore\n            /* \"#utility.yul\":774:878   */\n          jump\n            /* \"#utility.yul\":6857:6915   */\n        tag_227:\n          pop\n            /* \"#utility.yul\":6973:6979   */\n          0x0140\n            /* \"#utility.yul\":6961:6980   */\n          swap3\n          dup4\n          add\n            /* \"#utility.yul\":6955:6981   */\n          mload\n            /* \"#utility.yul\":6931:6953   */\n          swap2\n          swap1\n          swap3\n          add\n            /* \"#utility.yul\":6924:6982   */\n          mstore\n            /* \"#utility.yul\":5820:6988   */\n          swap1\n          jump\t// out\n            /* \"#utility.yul\":6993:7640   */\n        tag_133:\n            /* \"#utility.yul\":7090:7096   */\n          0x00\n            /* \"#utility.yul\":7098:7104   */\n          dup1\n            /* \"#utility.yul\":7106:7112   */\n          0x00\n            /* \"#utility.yul\":7114:7120   */\n          dup1\n            /* \"#utility.yul\":7167:7170   */\n          0x80\n            /* \"#utility.yul\":7155:7164   */\n          dup6\n            /* \"#utility.yul\":7146:7153   */\n          dup8\n            /* \"#utility.yul\":7142:7165   */\n          sub\n            /* \"#utility.yul\":7138:7171   */\n          slt\n            /* \"#utility.yul\":7135:7188   */\n          iszero\n          tag_229\n          jumpi\n            /* \"#utility.yul\":7184:7185   */\n          0x00\n            /* \"#utility.yul\":7181:7182   */\n          dup1\n            /* \"#utility.yul\":7174:7186   */\n          revert\n            /* \"#utility.yul\":7135:7188   */\n        tag_229:\n            /* \"#utility.yul\":7229:7245   */\n          dup5\n          mload\n            /* \"#utility.yul\":7314:7316   */\n          0x20\n            /* \"#utility.yul\":7299:7317   */\n          dup7\n          add\n            /* \"#utility.yul\":7293:7318   */\n          mload\n            /* \"#utility.yul\":7229:7245   */\n          swap1\n          swap5\n          pop\n          sub(shl(0x80, 0x01), 0x01)\n            /* \"#utility.yul\":7349:7397   */\n          dup2\n          and\n            /* \"#utility.yul\":7337:7398   */\n          dup2\n          eq\n            /* \"#utility.yul\":7327:7416   */\n          tag_230\n          jumpi\n            /* \"#utility.yul\":7412:7413   */\n          0x00\n            /* \"#utility.yul\":7409:7410   */\n          dup1\n            /* \"#utility.yul\":7402:7414   */\n          revert\n            /* \"#utility.yul\":7327:7416   */\n        tag_230:\n            /* \"#utility.yul\":7508:7510   */\n          0x40\n            /* \"#utility.yul\":7493:7511   */\n          dup7\n          add\n            /* \"#utility.yul\":7487:7512   */\n          mload\n            /* \"#utility.yul\":7604:7606   */\n          0x60\n            /* \"#utility.yul\":7589:7607   */\n          swap1\n          swap7\n          add\n            /* \"#utility.yul\":7583:7608   */\n          mload\n            /* \"#utility.yul\":6993:7640   */\n          swap5\n          swap8\n            /* \"#utility.yul\":7435:7442   */\n          swap1\n          swap7\n          pop\n            /* \"#utility.yul\":6993:7640   */\n          swap3\n          pop\n          pop\n          pop\n          jump\t// out\n            /* \"#utility.yul\":8435:8652   */\n        tag_145:\n            /* \"#utility.yul\":8475:8476   */\n          0x00\n            /* \"#utility.yul\":8501:8502   */\n          dup3\n            /* \"#utility.yul\":8491:8623   */\n          tag_234\n          jumpi\n            /* \"#utility.yul\":8545:8555   */\n          0x4e487b71\n            /* \"#utility.yul\":8540:8543   */\n          0xe0\n            /* \"#utility.yul\":8536:8556   */\n          shl\n            /* \"#utility.yul\":8533:8534   */\n          0x00\n            /* \"#utility.yul\":8526:8557   */\n          mstore\n            /* \"#utility.yul\":8580:8584   */\n          0x12\n            /* \"#utility.yul\":8577:8578   */\n          0x04\n            /* \"#utility.yul\":8570:8585   */\n          mstore\n            /* \"#utility.yul\":8608:8612   */\n          0x24\n            /* \"#utility.yul\":8605:8606   */\n          0x00\n            /* \"#utility.yul\":8598:8613   */\n          revert\n            /* \"#utility.yul\":8491:8623   */\n        tag_234:\n          pop\n            /* \"#utility.yul\":8637:8646   */\n          div\n          swap1\n            /* \"#utility.yul\":8435:8652   */\n          jump\t// out\n            /* \"#utility.yul\":9033:9445   */\n        tag_158:\n            /* \"#utility.yul\":9162:9165   */\n          0x00\n            /* \"#utility.yul\":9200:9206   */\n          dup3\n            /* \"#utility.yul\":9194:9207   */\n          mload\n            /* \"#utility.yul\":9225:9226   */\n          0x00\n            /* \"#utility.yul\":9235:9364   */\n        tag_237:\n            /* \"#utility.yul\":9249:9255   */\n          dup2\n            /* \"#utility.yul\":9246:9247   */\n          dup2\n            /* \"#utility.yul\":9243:9256   */\n          lt\n            /* \"#utility.yul\":9235:9364   */\n          iszero\n          tag_239\n          jumpi\n            /* \"#utility.yul\":9347:9351   */\n          0x20\n            /* \"#utility.yul\":9331:9345   */\n          dup2\n          dup7\n          add\n            /* \"#utility.yul\":9327:9352   */\n          dup2\n          add\n            /* \"#utility.yul\":9321:9353   */\n          mload\n            /* \"#utility.yul\":9308:9319   */\n          dup6\n          dup4\n          add\n            /* \"#utility.yul\":9301:9354   */\n          mstore\n            /* \"#utility.yul\":9264:9276   */\n          add\n            /* \"#utility.yul\":9235:9364   */\n          jump(tag_237)\n        tag_239:\n          pop\n            /* \"#utility.yul\":9419:9420   */\n          0x00\n            /* \"#utility.yul\":9383:9399   */\n          swap3\n          add\n            /* \"#utility.yul\":9408:9421   */\n          swap2\n          dup3\n          mstore\n          pop\n            /* \"#utility.yul\":9383:9399   */\n          swap2\n            /* \"#utility.yul\":9033:9445   */\n          swap1\n          pop\n          jump\t// out\n            /* \"#utility.yul\":9450:9727   */\n        tag_165:\n            /* \"#utility.yul\":9517:9523   */\n          0x00\n            /* \"#utility.yul\":9570:9572   */\n          0x20\n            /* \"#utility.yul\":9558:9567   */\n          dup3\n            /* \"#utility.yul\":9549:9556   */\n          dup5\n            /* \"#utility.yul\":9545:9568   */\n          sub\n            /* \"#utility.yul\":9541:9573   */\n          slt\n            /* \"#utility.yul\":9538:9590   */\n          iszero\n          tag_241\n          jumpi\n            /* \"#utility.yul\":9586:9587   */\n          0x00\n            /* \"#utility.yul\":9583:9584   */\n          dup1\n            /* \"#utility.yul\":9576:9588   */\n          revert\n            /* \"#utility.yul\":9538:9590   */\n        tag_241:\n            /* \"#utility.yul\":9618:9627   */\n          dup2\n            /* \"#utility.yul\":9612:9628   */\n          mload\n            /* \"#utility.yul\":9671:9676   */\n          dup1\n            /* \"#utility.yul\":9664:9677   */\n          iszero\n            /* \"#utility.yul\":9657:9678   */\n          iszero\n            /* \"#utility.yul\":9650:9655   */\n          dup2\n            /* \"#utility.yul\":9647:9679   */\n          eq\n            /* \"#utility.yul\":9637:9697   */\n          tag_182\n          jumpi\n            /* \"#utility.yul\":9693:9694   */\n          0x00\n            /* \"#utility.yul\":9690:9691   */\n          dup1\n            /* \"#utility.yul\":9683:9695   */\n          revert\n\n        auxdata: 0xa2646970667358221220abd2f51761dbb74233387c2665c20711e70b0f13e08235f83275d9ee19345af764736f6c634300081a0033\n    }\n}\n\nsub_2: assembly {\n        /* \"contracts/token factory/TestMigrator.sol\":1716:3400  contract CustomToken {... */\n      mstore(0x40, 0x80)\n        /* \"contracts/token factory/TestMigrator.sol\":1793:1819  uint8 public decimals = 18 */\n      0x02\n      dup1\n      sload\n      not(0xff)\n      and\n        /* \"contracts/token factory/TestMigrator.sol\":1817:1819  18 */\n      0x12\n        /* \"contracts/token factory/TestMigrator.sol\":1793:1819  uint8 public decimals = 18 */\n      or\n      swap1\n      sstore\n        /* \"contracts/token factory/TestMigrator.sol\":2139:2423  constructor(string memory _name, string memory _symbol, uint256 _initialSupply) {... */\n      callvalue\n      dup1\n      iszero\n      tag_1\n      jumpi\n      0x00\n      dup1\n      revert\n    tag_1:\n      pop\n      mload(0x40)\n      sub(codesize, bytecodeSize)\n      dup1\n      bytecodeSize\n      dup4\n      codecopy\n      dup2\n      add\n      0x40\n      dup2\n      swap1\n      mstore\n      tag_2\n      swap2\n      tag_3\n      jump\t// in\n    tag_2:\n        /* \"contracts/token factory/TestMigrator.sol\":2229:2233  name */\n      0x00\n        /* \"contracts/token factory/TestMigrator.sol\":2229:2241  name = _name */\n      tag_6\n        /* \"contracts/token factory/TestMigrator.sol\":2236:2241  _name */\n      dup5\n        /* \"contracts/token factory/TestMigrator.sol\":2229:2233  name */\n      dup3\n        /* \"contracts/token factory/TestMigrator.sol\":2229:2241  name = _name */\n      tag_7\n      jump\t// in\n    tag_6:\n      pop\n        /* \"contracts/token factory/TestMigrator.sol\":2251:2257  symbol */\n      0x01\n        /* \"contracts/token factory/TestMigrator.sol\":2251:2267  symbol = _symbol */\n      tag_8\n        /* \"contracts/token factory/TestMigrator.sol\":2260:2267  _symbol */\n      dup4\n        /* \"contracts/token factory/TestMigrator.sol\":2251:2257  symbol */\n      dup3\n        /* \"contracts/token factory/TestMigrator.sol\":2251:2267  symbol = _symbol */\n      tag_7\n      jump\t// in\n    tag_8:\n      pop\n        /* \"contracts/token factory/TestMigrator.sol\":2277:2288  totalSupply */\n      0x03\n        /* \"contracts/token factory/TestMigrator.sol\":2277:2305  totalSupply = _initialSupply */\n      dup2\n      swap1\n      sstore\n        /* \"contracts/token factory/TestMigrator.sol\":2325:2335  msg.sender */\n      caller\n        /* \"contracts/token factory/TestMigrator.sol\":2315:2336  balanceOf[msg.sender] */\n      0x00\n      dup2\n      dup2\n      mstore\n        /* \"contracts/token factory/TestMigrator.sol\":2315:2324  balanceOf */\n      0x04\n        /* \"contracts/token factory/TestMigrator.sol\":2315:2336  balanceOf[msg.sender] */\n      0x20\n      swap1\n      dup2\n      mstore\n      0x40\n      dup1\n      dup4\n      keccak256\n        /* \"contracts/token factory/TestMigrator.sol\":2315:2353  balanceOf[msg.sender] = _initialSupply */\n      dup6\n      swap1\n      sstore\n        /* \"contracts/token factory/TestMigrator.sol\":2368:2416  Transfer(address(0), msg.sender, _initialSupply) */\n      mload\n        /* \"#utility.yul\":4263:4288   */\n      dup5\n      dup2\n      mstore\n        /* \"contracts/token factory/TestMigrator.sol\":2368:2416  Transfer(address(0), msg.sender, _initialSupply) */\n      0xddf252ad1be2c89b69c2b068fc378daa952ba7f163c4a11628f55a4df523b3ef\n      swap2\n        /* \"#utility.yul\":4236:4254   */\n      add\n        /* \"contracts/token factory/TestMigrator.sol\":2368:2416  Transfer(address(0), msg.sender, _initialSupply) */\n      mload(0x40)\n      dup1\n      swap2\n      sub\n      swap1\n      log3\n        /* \"contracts/token factory/TestMigrator.sol\":2139:2423  constructor(string memory _name, string memory _symbol, uint256 _initialSupply) {... */\n      pop\n      pop\n      pop\n        /* \"contracts/token factory/TestMigrator.sol\":1716:3400  contract CustomToken {... */\n      jump(tag_18)\n        /* \"#utility.yul\":14:141   */\n    tag_12:\n        /* \"#utility.yul\":75:85   */\n      0x4e487b71\n        /* \"#utility.yul\":70:73   */\n      0xe0\n        /* \"#utility.yul\":66:86   */\n      shl\n        /* \"#utility.yul\":63:64   */\n      0x00\n        /* \"#utility.yul\":56:87   */\n      mstore\n        /* \"#utility.yul\":106:110   */\n      0x41\n        /* \"#utility.yul\":103:104   */\n      0x04\n        /* \"#utility.yul\":96:111   */\n      mstore\n        /* \"#utility.yul\":130:134   */\n      0x24\n        /* \"#utility.yul\":127:128   */\n      0x00\n        /* \"#utility.yul\":120:135   */\n      revert\n        /* \"#utility.yul\":146:980   */\n    tag_13:\n        /* \"#utility.yul\":200:205   */\n      0x00\n        /* \"#utility.yul\":253:256   */\n      dup3\n        /* \"#utility.yul\":246:250   */\n      0x1f\n        /* \"#utility.yul\":238:244   */\n      dup4\n        /* \"#utility.yul\":234:251   */\n      add\n        /* \"#utility.yul\":230:257   */\n      slt\n        /* \"#utility.yul\":220:275   */\n      tag_21\n      jumpi\n        /* \"#utility.yul\":271:272   */\n      0x00\n        /* \"#utility.yul\":268:269   */\n      dup1\n        /* \"#utility.yul\":261:273   */\n      revert\n        /* \"#utility.yul\":220:275   */\n    tag_21:\n        /* \"#utility.yul\":298:311   */\n      dup2\n      mload\n      sub(shl(0x40, 0x01), 0x01)\n        /* \"#utility.yul\":323:353   */\n      dup2\n      gt\n        /* \"#utility.yul\":320:376   */\n      iszero\n      tag_23\n      jumpi\n        /* \"#utility.yul\":356:374   */\n      tag_23\n      tag_12\n      jump\t// in\n    tag_23:\n        /* \"#utility.yul\":405:407   */\n      0x40\n        /* \"#utility.yul\":399:408   */\n      mload\n        /* \"#utility.yul\":497:499   */\n      0x1f\n        /* \"#utility.yul\":459:476   */\n      dup3\n      add\n      not(0x1f)\n        /* \"#utility.yul\":455:486   */\n      swap1\n      dup2\n      and\n        /* \"#utility.yul\":488:490   */\n      0x3f\n        /* \"#utility.yul\":451:491   */\n      add\n        /* \"#utility.yul\":447:501   */\n      and\n        /* \"#utility.yul\":435:502   */\n      dup2\n      add\n      sub(shl(0x40, 0x01), 0x01)\n        /* \"#utility.yul\":517:551   */\n      dup2\n      gt\n        /* \"#utility.yul\":553:575   */\n      dup3\n      dup3\n      lt\n        /* \"#utility.yul\":514:576   */\n      or\n        /* \"#utility.yul\":511:599   */\n      iszero\n      tag_25\n      jumpi\n        /* \"#utility.yul\":579:597   */\n      tag_25\n      tag_12\n      jump\t// in\n    tag_25:\n        /* \"#utility.yul\":615:617   */\n      0x40\n        /* \"#utility.yul\":608:630   */\n      mstore\n        /* \"#utility.yul\":639:661   */\n      dup2\n      dup2\n      mstore\n        /* \"#utility.yul\":680:699   */\n      dup4\n      dup3\n      add\n        /* \"#utility.yul\":701:705   */\n      0x20\n        /* \"#utility.yul\":676:706   */\n      add\n        /* \"#utility.yul\":673:712   */\n      dup6\n      lt\n        /* \"#utility.yul\":670:729   */\n      iszero\n      tag_26\n      jumpi\n        /* \"#utility.yul\":725:726   */\n      0x00\n        /* \"#utility.yul\":722:723   */\n      dup1\n        /* \"#utility.yul\":715:727   */\n      revert\n        /* \"#utility.yul\":670:729   */\n    tag_26:\n        /* \"#utility.yul\":747:748   */\n      0x00\n        /* \"#utility.yul\":757:900   */\n    tag_27:\n        /* \"#utility.yul\":771:777   */\n      dup3\n        /* \"#utility.yul\":768:769   */\n      dup2\n        /* \"#utility.yul\":765:778   */\n      lt\n        /* \"#utility.yul\":757:900   */\n      iszero\n      tag_29\n      jumpi\n        /* \"#utility.yul\":883:887   */\n      0x20\n        /* \"#utility.yul\":867:881   */\n      dup2\n      dup7\n      add\n        /* \"#utility.yul\":863:888   */\n      dup2\n      add\n        /* \"#utility.yul\":857:889   */\n      mload\n        /* \"#utility.yul\":834:848   */\n      dup4\n      dup4\n      add\n        /* \"#utility.yul\":830:855   */\n      dup3\n      add\n        /* \"#utility.yul\":823:890   */\n      mstore\n        /* \"#utility.yul\":786:798   */\n      add\n        /* \"#utility.yul\":757:900   */\n      jump(tag_27)\n    tag_29:\n      pop\n        /* \"#utility.yul\":948:949   */\n      0x00\n        /* \"#utility.yul\":920:939   */\n      swap2\n      dup2\n      add\n        /* \"#utility.yul\":941:945   */\n      0x20\n        /* \"#utility.yul\":916:946   */\n      add\n        /* \"#utility.yul\":909:950   */\n      swap2\n      swap1\n      swap2\n      mstore\n        /* \"#utility.yul\":924:930   */\n      swap4\n        /* \"#utility.yul\":146:980   */\n      swap3\n      pop\n      pop\n      pop\n      jump\t// out\n        /* \"#utility.yul\":985:1603   */\n    tag_3:\n        /* \"#utility.yul\":1093:1099   */\n      0x00\n        /* \"#utility.yul\":1101:1107   */\n      dup1\n        /* \"#utility.yul\":1109:1115   */\n      0x00\n        /* \"#utility.yul\":1162:1164   */\n      0x60\n        /* \"#utility.yul\":1150:1159   */\n      dup5\n        /* \"#utility.yul\":1141:1148   */\n      dup7\n        /* \"#utility.yul\":1137:1160   */\n      sub\n        /* \"#utility.yul\":1133:1165   */\n      slt\n        /* \"#utility.yul\":1130:1182   */\n      iszero\n      tag_31\n      jumpi\n        /* \"#utility.yul\":1178:1179   */\n      0x00\n        /* \"#utility.yul\":1175:1176   */\n      dup1\n        /* \"#utility.yul\":1168:1180   */\n      revert\n        /* \"#utility.yul\":1130:1182   */\n    tag_31:\n        /* \"#utility.yul\":1205:1221   */\n      dup4\n      mload\n      sub(shl(0x40, 0x01), 0x01)\n        /* \"#utility.yul\":1233:1263   */\n      dup2\n      gt\n        /* \"#utility.yul\":1230:1280   */\n      iszero\n      tag_32\n      jumpi\n        /* \"#utility.yul\":1276:1277   */\n      0x00\n        /* \"#utility.yul\":1273:1274   */\n      dup1\n        /* \"#utility.yul\":1266:1278   */\n      revert\n        /* \"#utility.yul\":1230:1280   */\n    tag_32:\n        /* \"#utility.yul\":1299:1360   */\n      tag_33\n        /* \"#utility.yul\":1352:1359   */\n      dup7\n        /* \"#utility.yul\":1343:1349   */\n      dup3\n        /* \"#utility.yul\":1332:1341   */\n      dup8\n        /* \"#utility.yul\":1328:1350   */\n      add\n        /* \"#utility.yul\":1299:1360   */\n      tag_13\n      jump\t// in\n    tag_33:\n        /* \"#utility.yul\":1406:1408   */\n      0x20\n        /* \"#utility.yul\":1391:1409   */\n      dup7\n      add\n        /* \"#utility.yul\":1385:1410   */\n      mload\n        /* \"#utility.yul\":1289:1360   */\n      swap1\n      swap5\n      pop\n        /* \"#utility.yul\":1385:1410   */\n      swap1\n      pop\n      sub(shl(0x40, 0x01), 0x01)\n        /* \"#utility.yul\":1422:1454   */\n      dup2\n      gt\n        /* \"#utility.yul\":1419:1471   */\n      iszero\n      tag_34\n      jumpi\n        /* \"#utility.yul\":1467:1468   */\n      0x00\n        /* \"#utility.yul\":1464:1465   */\n      dup1\n        /* \"#utility.yul\":1457:1469   */\n      revert\n        /* \"#utility.yul\":1419:1471   */\n    tag_34:\n        /* \"#utility.yul\":1490:1553   */\n      tag_35\n        /* \"#utility.yul\":1545:1552   */\n      dup7\n        /* \"#utility.yul\":1534:1542   */\n      dup3\n        /* \"#utility.yul\":1523:1532   */\n      dup8\n        /* \"#utility.yul\":1519:1543   */\n      add\n        /* \"#utility.yul\":1490:1553   */\n      tag_13\n      jump\t// in\n    tag_35:\n        /* \"#utility.yul\":1480:1553   */\n      swap3\n      pop\n      pop\n        /* \"#utility.yul\":1593:1595   */\n      0x40\n        /* \"#utility.yul\":1582:1591   */\n      dup5\n        /* \"#utility.yul\":1578:1596   */\n      add\n        /* \"#utility.yul\":1572:1597   */\n      mload\n        /* \"#utility.yul\":1562:1597   */\n      swap1\n      pop\n        /* \"#utility.yul\":985:1603   */\n      swap3\n      pop\n      swap3\n      pop\n      swap3\n      jump\t// out\n        /* \"#utility.yul\":1608:1988   */\n    tag_14:\n        /* \"#utility.yul\":1687:1688   */\n      0x01\n        /* \"#utility.yul\":1683:1695   */\n      dup2\n      dup2\n      shr\n      swap1\n        /* \"#utility.yul\":1730:1742   */\n      dup3\n      and\n      dup1\n        /* \"#utility.yul\":1751:1812   */\n      tag_37\n      jumpi\n        /* \"#utility.yul\":1805:1809   */\n      0x7f\n        /* \"#utility.yul\":1797:1803   */\n      dup3\n        /* \"#utility.yul\":1793:1810   */\n      and\n        /* \"#utility.yul\":1783:1810   */\n      swap2\n      pop\n        /* \"#utility.yul\":1751:1812   */\n    tag_37:\n        /* \"#utility.yul\":1858:1860   */\n      0x20\n        /* \"#utility.yul\":1850:1856   */\n      dup3\n        /* \"#utility.yul\":1847:1861   */\n      lt\n        /* \"#utility.yul\":1827:1845   */\n      dup2\n        /* \"#utility.yul\":1824:1862   */\n      sub\n        /* \"#utility.yul\":1821:1982   */\n      tag_38\n      jumpi\n        /* \"#utility.yul\":1904:1914   */\n      0x4e487b71\n        /* \"#utility.yul\":1899:1902   */\n      0xe0\n        /* \"#utility.yul\":1895:1915   */\n      shl\n        /* \"#utility.yul\":1892:1893   */\n      0x00\n        /* \"#utility.yul\":1885:1916   */\n      mstore\n        /* \"#utility.yul\":1939:1943   */\n      0x22\n        /* \"#utility.yul\":1936:1937   */\n      0x04\n        /* \"#utility.yul\":1929:1944   */\n      mstore\n        /* \"#utility.yul\":1967:1971   */\n      0x24\n        /* \"#utility.yul\":1964:1965   */\n      0x00\n        /* \"#utility.yul\":1957:1972   */\n      revert\n        /* \"#utility.yul\":1821:1982   */\n    tag_38:\n      pop\n        /* \"#utility.yul\":1608:1988   */\n      swap2\n      swap1\n      pop\n      jump\t// out\n        /* \"#utility.yul\":2119:2637   */\n    tag_16:\n        /* \"#utility.yul\":2221:2223   */\n      0x1f\n        /* \"#utility.yul\":2216:2219   */\n      dup3\n        /* \"#utility.yul\":2213:2224   */\n      gt\n        /* \"#utility.yul\":2210:2631   */\n      iszero\n      tag_41\n      jumpi\n        /* \"#utility.yul\":2257:2262   */\n      dup1\n        /* \"#utility.yul\":2254:2255   */\n      0x00\n        /* \"#utility.yul\":2247:2263   */\n      mstore\n        /* \"#utility.yul\":2301:2305   */\n      0x20\n        /* \"#utility.yul\":2298:2299   */\n      0x00\n        /* \"#utility.yul\":2288:2306   */\n      keccak256\n        /* \"#utility.yul\":2371:2373   */\n      0x1f\n        /* \"#utility.yul\":2359:2369   */\n      dup5\n        /* \"#utility.yul\":2355:2374   */\n      add\n        /* \"#utility.yul\":2352:2353   */\n      0x05\n        /* \"#utility.yul\":2348:2375   */\n      shr\n        /* \"#utility.yul\":2342:2346   */\n      dup2\n        /* \"#utility.yul\":2338:2376   */\n      add\n        /* \"#utility.yul\":2407:2411   */\n      0x20\n        /* \"#utility.yul\":2395:2405   */\n      dup6\n        /* \"#utility.yul\":2392:2412   */\n      lt\n        /* \"#utility.yul\":2389:2436   */\n      iszero\n      tag_42\n      jumpi\n      pop\n        /* \"#utility.yul\":2430:2434   */\n      dup1\n        /* \"#utility.yul\":2389:2436   */\n    tag_42:\n        /* \"#utility.yul\":2485:2487   */\n      0x1f\n        /* \"#utility.yul\":2480:2483   */\n      dup5\n        /* \"#utility.yul\":2476:2488   */\n      add\n        /* \"#utility.yul\":2473:2474   */\n      0x05\n        /* \"#utility.yul\":2469:2489   */\n      shr\n        /* \"#utility.yul\":2463:2467   */\n      dup3\n        /* \"#utility.yul\":2459:2490   */\n      add\n        /* \"#utility.yul\":2449:2490   */\n      swap2\n      pop\n        /* \"#utility.yul\":2540:2621   */\n    tag_43:\n        /* \"#utility.yul\":2558:2560   */\n      dup2\n        /* \"#utility.yul\":2551:2556   */\n      dup2\n        /* \"#utility.yul\":2548:2561   */\n      lt\n        /* \"#utility.yul\":2540:2621   */\n      iszero\n      tag_45\n      jumpi\n        /* \"#utility.yul\":2617:2618   */\n      0x00\n        /* \"#utility.yul\":2603:2619   */\n      dup2\n      sstore\n        /* \"#utility.yul\":2584:2585   */\n      0x01\n        /* \"#utility.yul\":2573:2586   */\n      add\n        /* \"#utility.yul\":2540:2621   */\n      jump(tag_43)\n    tag_45:\n        /* \"#utility.yul\":2544:2547   */\n      pop\n      pop\n        /* \"#utility.yul\":2210:2631   */\n    tag_41:\n        /* \"#utility.yul\":2119:2637   */\n      pop\n      pop\n      pop\n      jump\t// out\n        /* \"#utility.yul\":2813:4112   */\n    tag_7:\n        /* \"#utility.yul\":2933:2943   */\n      dup2\n      mload\n      sub(shl(0x40, 0x01), 0x01)\n        /* \"#utility.yul\":2955:2985   */\n      dup2\n      gt\n        /* \"#utility.yul\":2952:3008   */\n      iszero\n      tag_49\n      jumpi\n        /* \"#utility.yul\":2988:3006   */\n      tag_49\n      tag_12\n      jump\t// in\n    tag_49:\n        /* \"#utility.yul\":3017:3114   */\n      tag_50\n        /* \"#utility.yul\":3107:3113   */\n      dup2\n        /* \"#utility.yul\":3067:3105   */\n      tag_51\n        /* \"#utility.yul\":3099:3103   */\n      dup5\n        /* \"#utility.yul\":3093:3104   */\n      sload\n        /* \"#utility.yul\":3067:3105   */\n      tag_14\n      jump\t// in\n    tag_51:\n        /* \"#utility.yul\":3061:3065   */\n      dup5\n        /* \"#utility.yul\":3017:3114   */\n      tag_16\n      jump\t// in\n    tag_50:\n        /* \"#utility.yul\":3163:3167   */\n      0x20\n        /* \"#utility.yul\":3194:3196   */\n      0x1f\n        /* \"#utility.yul\":3183:3197   */\n      dup3\n      gt\n        /* \"#utility.yul\":3211:3212   */\n      0x01\n        /* \"#utility.yul\":3206:3855   */\n      dup2\n      eq\n      tag_53\n      jumpi\n        /* \"#utility.yul\":3899:3900   */\n      0x00\n        /* \"#utility.yul\":3916:3922   */\n      dup4\n        /* \"#utility.yul\":3913:4002   */\n      iszero\n      tag_54\n      jumpi\n      pop\n        /* \"#utility.yul\":3968:3987   */\n      dup5\n      dup3\n      add\n        /* \"#utility.yul\":3962:3988   */\n      mload\n        /* \"#utility.yul\":3913:4002   */\n    tag_54:\n      not(0x00)\n        /* \"#utility.yul\":2770:2771   */\n      0x03\n        /* \"#utility.yul\":2766:2777   */\n      dup6\n      swap1\n      shl\n        /* \"#utility.yul\":2762:2786   */\n      shr\n        /* \"#utility.yul\":2758:2787   */\n      not\n        /* \"#utility.yul\":2748:2788   */\n      and\n        /* \"#utility.yul\":2794:2795   */\n      0x01\n        /* \"#utility.yul\":2790:2801   */\n      dup5\n      swap1\n      shl\n        /* \"#utility.yul\":2745:2802   */\n      or\n        /* \"#utility.yul\":4015:4096   */\n      dup5\n      sstore\n        /* \"#utility.yul\":3176:4106   */\n      jump(tag_45)\n        /* \"#utility.yul\":3206:3855   */\n    tag_53:\n        /* \"#utility.yul\":2066:2067   */\n      0x00\n        /* \"#utility.yul\":2059:2073   */\n      dup5\n      dup2\n      mstore\n        /* \"#utility.yul\":2103:2107   */\n      0x20\n        /* \"#utility.yul\":2090:2108   */\n      dup2\n      keccak256\n      not(0x1f)\n        /* \"#utility.yul\":3242:3262   */\n      dup6\n      and\n      swap2\n        /* \"#utility.yul\":3360:3582   */\n    tag_57:\n        /* \"#utility.yul\":3374:3381   */\n      dup3\n        /* \"#utility.yul\":3371:3372   */\n      dup2\n        /* \"#utility.yul\":3368:3382   */\n      lt\n        /* \"#utility.yul\":3360:3582   */\n      iszero\n      tag_59\n      jumpi\n        /* \"#utility.yul\":3456:3475   */\n      dup8\n      dup6\n      add\n        /* \"#utility.yul\":3450:3476   */\n      mload\n        /* \"#utility.yul\":3435:3477   */\n      dup3\n      sstore\n        /* \"#utility.yul\":3563:3567   */\n      0x20\n        /* \"#utility.yul\":3548:3568   */\n      swap5\n      dup6\n      add\n      swap5\n        /* \"#utility.yul\":3516:3517   */\n      0x01\n        /* \"#utility.yul\":3504:3518   */\n      swap1\n      swap3\n      add\n      swap2\n        /* \"#utility.yul\":3390:3402   */\n      add\n        /* \"#utility.yul\":3360:3582   */\n      jump(tag_57)\n    tag_59:\n        /* \"#utility.yul\":3364:3367   */\n      pop\n        /* \"#utility.yul\":3610:3616   */\n      dup5\n        /* \"#utility.yul\":3601:3608   */\n      dup3\n        /* \"#utility.yul\":3598:3617   */\n      lt\n        /* \"#utility.yul\":3595:3796   */\n      iszero\n      tag_60\n      jumpi\n        /* \"#utility.yul\":3671:3690   */\n      dup7\n      dup5\n      add\n        /* \"#utility.yul\":3665:3691   */\n      mload\n      not(0x00)\n        /* \"#utility.yul\":3754:3755   */\n      0x03\n        /* \"#utility.yul\":3750:3764   */\n      dup8\n      swap1\n      shl\n        /* \"#utility.yul\":3766:3769   */\n      0xf8\n        /* \"#utility.yul\":3746:3770   */\n      and\n        /* \"#utility.yul\":3742:3779   */\n      shr\n        /* \"#utility.yul\":3738:3780   */\n      not\n        /* \"#utility.yul\":3723:3781   */\n      and\n        /* \"#utility.yul\":3708:3782   */\n      dup2\n      sstore\n        /* \"#utility.yul\":3595:3796   */\n    tag_60:\n      pop\n      pop\n      pop\n      pop\n        /* \"#utility.yul\":3842:3843   */\n      0x01\n        /* \"#utility.yul\":3826:3840   */\n      swap1\n      dup2\n      shl\n        /* \"#utility.yul\":3822:3844   */\n      add\n        /* \"#utility.yul\":3809:3845   */\n      swap1\n      sstore\n      pop\n        /* \"#utility.yul\":2813:4112   */\n      jump\t// out\n        /* \"#utility.yul\":4117:4294   */\n    tag_18:\n        /* \"contracts/token factory/TestMigrator.sol\":1716:3400  contract CustomToken {... */\n      dataSize(sub_0)\n      dup1\n      dataOffset(sub_0)\n      0x00\n      codecopy\n      0x00\n      return\n    stop\n\n    sub_0: assembly {\n            /* \"contracts/token factory/TestMigrator.sol\":1716:3400  contract CustomToken {... */\n          mstore(0x40, 0x80)\n          callvalue\n          dup1\n          iszero\n          tag_1\n          jumpi\n          0x00\n          dup1\n          revert\n        tag_1:\n          pop\n          jumpi(tag_2, lt(calldatasize, 0x04))\n          shr(0xe0, calldataload(0x00))\n          dup1\n          0x313ce567\n          gt\n          tag_12\n          jumpi\n          dup1\n          0x313ce567\n          eq\n          tag_7\n          jumpi\n          dup1\n          0x70a08231\n          eq\n          tag_8\n          jumpi\n          dup1\n          0x95d89b41\n          eq\n          tag_9\n          jumpi\n          dup1\n          0xa9059cbb\n          eq\n          tag_10\n          jumpi\n          dup1\n          0xdd62ed3e\n          eq\n          tag_11\n          jumpi\n          0x00\n          dup1\n          revert\n        tag_12:\n          dup1\n          0x06fdde03\n          eq\n          tag_3\n          jumpi\n          dup1\n          0x095ea7b3\n          eq\n          tag_4\n          jumpi\n          dup1\n          0x18160ddd\n          eq\n          tag_5\n          jumpi\n          dup1\n          0x23b872dd\n          eq\n          tag_6\n          jumpi\n        tag_2:\n          0x00\n          dup1\n          revert\n            /* \"contracts/token factory/TestMigrator.sol\":1743:1761  string public name */\n        tag_3:\n          tag_13\n          tag_14\n          jump\t// in\n        tag_13:\n          mload(0x40)\n          tag_15\n          swap2\n          swap1\n          tag_16\n          jump\t// in\n        tag_15:\n          mload(0x40)\n          dup1\n          swap2\n          sub\n          swap1\n          return\n            /* \"contracts/token factory/TestMigrator.sol\":2741:2944  function approve(address spender, uint256 amount) external returns (bool) {... */\n        tag_4:\n          tag_17\n          tag_18\n          calldatasize\n          0x04\n          tag_19\n          jump\t// in\n        tag_18:\n          tag_20\n          jump\t// in\n        tag_17:\n          mload(0x40)\n            /* \"#utility.yul\":1194:1208   */\n          swap1\n          iszero\n            /* \"#utility.yul\":1187:1209   */\n          iszero\n            /* \"#utility.yul\":1169:1210   */\n          dup2\n          mstore\n            /* \"#utility.yul\":1157:1159   */\n          0x20\n            /* \"#utility.yul\":1142:1160   */\n          add\n            /* \"contracts/token factory/TestMigrator.sol\":2741:2944  function approve(address spender, uint256 amount) external returns (bool) {... */\n          tag_15\n            /* \"#utility.yul\":1029:1216   */\n          jump\n            /* \"contracts/token factory/TestMigrator.sol\":1825:1851  uint256 public totalSupply */\n        tag_5:\n          tag_23\n          sload(0x03)\n          dup2\n          jump\n        tag_23:\n          mload(0x40)\n            /* \"#utility.yul\":1367:1392   */\n          swap1\n          dup2\n          mstore\n            /* \"#utility.yul\":1355:1357   */\n          0x20\n            /* \"#utility.yul\":1340:1358   */\n          add\n            /* \"contracts/token factory/TestMigrator.sol\":1825:1851  uint256 public totalSupply */\n          tag_15\n            /* \"#utility.yul\":1221:1398   */\n          jump\n            /* \"contracts/token factory/TestMigrator.sol\":2950:3398  function transferFrom(address from, address to, uint256 amount) external returns (bool) {... */\n        tag_6:\n          tag_17\n          tag_28\n          calldatasize\n          0x04\n          tag_29\n          jump\t// in\n        tag_28:\n          tag_30\n          jump\t// in\n            /* \"contracts/token factory/TestMigrator.sol\":1793:1819  uint8 public decimals = 18 */\n        tag_7:\n          sload(0x02)\n          tag_32\n          swap1\n          0xff\n          and\n          dup2\n          jump\n        tag_32:\n          mload(0x40)\n            /* \"#utility.yul\":1954:1958   */\n          0xff\n            /* \"#utility.yul\":1942:1959   */\n          swap1\n          swap2\n          and\n            /* \"#utility.yul\":1924:1960   */\n          dup2\n          mstore\n            /* \"#utility.yul\":1912:1914   */\n          0x20\n            /* \"#utility.yul\":1897:1915   */\n          add\n            /* \"contracts/token factory/TestMigrator.sol\":1793:1819  uint8 public decimals = 18 */\n          tag_15\n            /* \"#utility.yul\":1782:1966   */\n          jump\n            /* \"contracts/token factory/TestMigrator.sol\":1857:1901  mapping(address => uint256) public balanceOf */\n        tag_8:\n          tag_23\n          tag_37\n          calldatasize\n          0x04\n          tag_38\n          jump\t// in\n        tag_37:\n          mstore(0x20, 0x04)\n          0x00\n          swap1\n          dup2\n          mstore\n          0x40\n          swap1\n          keccak256\n          sload\n          dup2\n          jump\n            /* \"contracts/token factory/TestMigrator.sol\":1767:1787  string public symbol */\n        tag_9:\n          tag_13\n          tag_42\n          jump\t// in\n            /* \"contracts/token factory/TestMigrator.sol\":2429:2735  function transfer(address to, uint256 amount) external returns (bool) {... */\n        tag_10:\n          tag_17\n          tag_45\n          calldatasize\n          0x04\n          tag_19\n          jump\t// in\n        tag_45:\n          tag_46\n          jump\t// in\n            /* \"contracts/token factory/TestMigrator.sol\":1907:1971  mapping(address => mapping(address => uint256)) public allowance */\n        tag_11:\n          tag_23\n          tag_49\n          calldatasize\n          0x04\n          tag_50\n          jump\t// in\n        tag_49:\n          0x05\n          0x20\n          swap1\n          dup2\n          mstore\n          0x00\n          swap3\n          dup4\n          mstore\n          0x40\n          dup1\n          dup5\n          keccak256\n          swap1\n          swap2\n          mstore\n          swap1\n          dup3\n          mstore\n          swap1\n          keccak256\n          sload\n          dup2\n          jump\n            /* \"contracts/token factory/TestMigrator.sol\":1743:1761  string public name */\n        tag_14:\n          0x00\n          dup1\n          sload\n          tag_53\n          swap1\n          tag_54\n          jump\t// in\n        tag_53:\n          dup1\n          0x1f\n          add\n          0x20\n          dup1\n          swap2\n          div\n          mul\n          0x20\n          add\n          mload(0x40)\n          swap1\n          dup2\n          add\n          0x40\n          mstore\n          dup1\n          swap3\n          swap2\n          swap1\n          dup2\n          dup2\n          mstore\n          0x20\n          add\n          dup3\n          dup1\n          sload\n          tag_55\n          swap1\n          tag_54\n          jump\t// in\n        tag_55:\n          dup1\n          iszero\n          tag_56\n          jumpi\n          dup1\n          0x1f\n          lt\n          tag_57\n          jumpi\n          0x0100\n          dup1\n          dup4\n          sload\n          div\n          mul\n          dup4\n          mstore\n          swap2\n          0x20\n          add\n          swap2\n          jump(tag_56)\n        tag_57:\n          dup3\n          add\n          swap2\n          swap1\n          0x00\n          mstore\n          keccak256(0x00, 0x20)\n          swap1\n        tag_58:\n          dup2\n          sload\n          dup2\n          mstore\n          swap1\n          0x01\n          add\n          swap1\n          0x20\n          add\n          dup1\n          dup4\n          gt\n          tag_58\n          jumpi\n          dup3\n          swap1\n          sub\n          0x1f\n          and\n          dup3\n          add\n          swap2\n        tag_56:\n          pop\n          pop\n          pop\n          pop\n          pop\n          dup2\n          jump\t// out\n            /* \"contracts/token factory/TestMigrator.sol\":2741:2944  function approve(address spender, uint256 amount) external returns (bool) {... */\n        tag_20:\n            /* \"contracts/token factory/TestMigrator.sol\":2835:2845  msg.sender */\n          caller\n            /* \"contracts/token factory/TestMigrator.sol\":2809:2813  bool */\n          0x00\n            /* \"contracts/token factory/TestMigrator.sol\":2825:2846  allowance[msg.sender] */\n          dup2\n          dup2\n          mstore\n            /* \"contracts/token factory/TestMigrator.sol\":2825:2834  allowance */\n          0x05\n            /* \"contracts/token factory/TestMigrator.sol\":2825:2846  allowance[msg.sender] */\n          0x20\n          swap1\n          dup2\n          mstore\n          0x40\n          dup1\n          dup4\n          keccak256\n          sub(shl(0xa0, 0x01), 0x01)\n            /* \"contracts/token factory/TestMigrator.sol\":2825:2855  allowance[msg.sender][spender] */\n          dup8\n          and\n          dup1\n          dup6\n          mstore\n          swap3\n          mstore\n          dup1\n          dup4\n          keccak256\n            /* \"contracts/token factory/TestMigrator.sol\":2825:2864  allowance[msg.sender][spender] = amount */\n          dup6\n          swap1\n          sstore\n            /* \"contracts/token factory/TestMigrator.sol\":2879:2916  Approval(msg.sender, spender, amount) */\n          mload\n            /* \"contracts/token factory/TestMigrator.sol\":2809:2813  bool */\n          swap2\n          swap3\n            /* \"contracts/token factory/TestMigrator.sol\":2825:2855  allowance[msg.sender][spender] */\n          swap1\n          swap2\n            /* \"contracts/token factory/TestMigrator.sol\":2879:2916  Approval(msg.sender, spender, amount) */\n          0x8c5be1e5ebec7d5bd14f71427d1e84f3dd0314c0f7b2291e5b200ac8c7c3b925\n          swap1\n          tag_60\n          swap1\n            /* \"contracts/token factory/TestMigrator.sol\":2858:2864  amount */\n          dup7\n            /* \"#utility.yul\":1367:1392   */\n          dup2\n          mstore\n            /* \"#utility.yul\":1355:1357   */\n          0x20\n            /* \"#utility.yul\":1340:1358   */\n          add\n          swap1\n            /* \"#utility.yul\":1221:1398   */\n          jump\n            /* \"contracts/token factory/TestMigrator.sol\":2879:2916  Approval(msg.sender, spender, amount) */\n        tag_60:\n          mload(0x40)\n          dup1\n          swap2\n          sub\n          swap1\n          log3\n          pop\n            /* \"contracts/token factory/TestMigrator.sol\":2933:2937  true */\n          0x01\n            /* \"contracts/token factory/TestMigrator.sol\":2741:2944  function approve(address spender, uint256 amount) external returns (bool) {... */\n        tag_59:\n          swap3\n          swap2\n          pop\n          pop\n          jump\t// out\n            /* \"contracts/token factory/TestMigrator.sol\":2950:3398  function transferFrom(address from, address to, uint256 amount) external returns (bool) {... */\n        tag_30:\n          sub(shl(0xa0, 0x01), 0x01)\n            /* \"contracts/token factory/TestMigrator.sol\":3056:3071  balanceOf[from] */\n          dup4\n          and\n            /* \"contracts/token factory/TestMigrator.sol\":3032:3036  bool */\n          0x00\n            /* \"contracts/token factory/TestMigrator.sol\":3056:3071  balanceOf[from] */\n          swap1\n          dup2\n          mstore\n            /* \"contracts/token factory/TestMigrator.sol\":3056:3065  balanceOf */\n          0x04\n            /* \"contracts/token factory/TestMigrator.sol\":3056:3071  balanceOf[from] */\n          0x20\n          mstore\n          0x40\n          dup2\n          keccak256\n          sload\n            /* \"contracts/token factory/TestMigrator.sol\":3056:3081  balanceOf[from] >= amount */\n          dup3\n          gt\n          iszero\n            /* \"contracts/token factory/TestMigrator.sol\":3048:3119  require(balanceOf[from] >= amount, \"CustomToken: insufficient balance\") */\n          tag_62\n          jumpi\n          mload(0x40)\n          shl(0xe5, 0x461bcd)\n          dup2\n          mstore\n          0x04\n          add\n          tag_63\n          swap1\n          tag_64\n          jump\t// in\n        tag_63:\n          mload(0x40)\n          dup1\n          swap2\n          sub\n          swap1\n          revert\n        tag_62:\n          sub(shl(0xa0, 0x01), 0x01)\n            /* \"contracts/token factory/TestMigrator.sol\":3137:3152  allowance[from] */\n          dup5\n          and\n          0x00\n          swap1\n          dup2\n          mstore\n            /* \"contracts/token factory/TestMigrator.sol\":3137:3146  allowance */\n          0x05\n            /* \"contracts/token factory/TestMigrator.sol\":3137:3152  allowance[from] */\n          0x20\n          swap1\n          dup2\n          mstore\n          0x40\n          dup1\n          dup4\n          keccak256\n            /* \"contracts/token factory/TestMigrator.sol\":3153:3163  msg.sender */\n          caller\n            /* \"contracts/token factory/TestMigrator.sol\":3137:3164  allowance[from][msg.sender] */\n          dup5\n          mstore\n          swap1\n          swap2\n          mstore\n          swap1\n          keccak256\n          sload\n            /* \"contracts/token factory/TestMigrator.sol\":3137:3174  allowance[from][msg.sender] >= amount */\n          dup3\n          gt\n          iszero\n            /* \"contracts/token factory/TestMigrator.sol\":3129:3214  require(allowance[from][msg.sender] >= amount, \"CustomToken: insufficient allowance\") */\n          tag_65\n          jumpi\n          mload(0x40)\n          shl(0xe5, 0x461bcd)\n          dup2\n          mstore\n            /* \"#utility.yul\":3416:3418   */\n          0x20\n            /* \"contracts/token factory/TestMigrator.sol\":3129:3214  require(allowance[from][msg.sender] >= amount, \"CustomToken: insufficient allowance\") */\n          0x04\n          dup3\n          add\n            /* \"#utility.yul\":3398:3419   */\n          mstore\n            /* \"#utility.yul\":3455:3457   */\n          0x23\n            /* \"#utility.yul\":3435:3453   */\n          0x24\n          dup3\n          add\n            /* \"#utility.yul\":3428:3458   */\n          mstore\n            /* \"#utility.yul\":3494:3528   */\n          0x437573746f6d546f6b656e3a20696e73756666696369656e7420616c6c6f7761\n            /* \"#utility.yul\":3474:3492   */\n          0x44\n          dup3\n          add\n            /* \"#utility.yul\":3467:3529   */\n          mstore\n          shl(0xe8, 0x6e6365)\n            /* \"#utility.yul\":3545:3563   */\n          0x64\n          dup3\n          add\n            /* \"#utility.yul\":3538:3571   */\n          mstore\n            /* \"#utility.yul\":3588:3607   */\n          0x84\n          add\n            /* \"contracts/token factory/TestMigrator.sol\":3129:3214  require(allowance[from][msg.sender] >= amount, \"CustomToken: insufficient allowance\") */\n          tag_63\n            /* \"#utility.yul\":3214:3613   */\n          jump\n            /* \"contracts/token factory/TestMigrator.sol\":3129:3214  require(allowance[from][msg.sender] >= amount, \"CustomToken: insufficient allowance\") */\n        tag_65:\n          sub(shl(0xa0, 0x01), 0x01)\n            /* \"contracts/token factory/TestMigrator.sol\":3224:3239  balanceOf[from] */\n          dup5\n          and\n          0x00\n          swap1\n          dup2\n          mstore\n            /* \"contracts/token factory/TestMigrator.sol\":3224:3233  balanceOf */\n          0x04\n            /* \"contracts/token factory/TestMigrator.sol\":3224:3239  balanceOf[from] */\n          0x20\n          mstore\n          0x40\n          dup2\n          keccak256\n            /* \"contracts/token factory/TestMigrator.sol\":3224:3249  balanceOf[from] -= amount */\n          dup1\n          sload\n            /* \"contracts/token factory/TestMigrator.sol\":3243:3249  amount */\n          dup5\n          swap3\n            /* \"contracts/token factory/TestMigrator.sol\":3224:3239  balanceOf[from] */\n          swap1\n            /* \"contracts/token factory/TestMigrator.sol\":3224:3249  balanceOf[from] -= amount */\n          tag_68\n          swap1\n            /* \"contracts/token factory/TestMigrator.sol\":3243:3249  amount */\n          dup5\n          swap1\n            /* \"contracts/token factory/TestMigrator.sol\":3224:3249  balanceOf[from] -= amount */\n          tag_69\n          jump\t// in\n        tag_68:\n          swap1\n          swap2\n          sstore\n          pop\n          pop\n          sub(shl(0xa0, 0x01), 0x01)\n            /* \"contracts/token factory/TestMigrator.sol\":3259:3274  allowance[from] */\n          dup5\n          and\n          0x00\n          swap1\n          dup2\n          mstore\n            /* \"contracts/token factory/TestMigrator.sol\":3259:3268  allowance */\n          0x05\n            /* \"contracts/token factory/TestMigrator.sol\":3259:3274  allowance[from] */\n          0x20\n          swap1\n          dup2\n          mstore\n          0x40\n          dup1\n          dup4\n          keccak256\n            /* \"contracts/token factory/TestMigrator.sol\":3275:3285  msg.sender */\n          caller\n            /* \"contracts/token factory/TestMigrator.sol\":3259:3286  allowance[from][msg.sender] */\n          dup5\n          mstore\n          swap1\n          swap2\n          mstore\n          dup2\n          keccak256\n            /* \"contracts/token factory/TestMigrator.sol\":3259:3296  allowance[from][msg.sender] -= amount */\n          dup1\n          sload\n            /* \"contracts/token factory/TestMigrator.sol\":3290:3296  amount */\n          dup5\n          swap3\n            /* \"contracts/token factory/TestMigrator.sol\":3259:3274  allowance[from] */\n          swap1\n            /* \"contracts/token factory/TestMigrator.sol\":3259:3296  allowance[from][msg.sender] -= amount */\n          tag_70\n          swap1\n            /* \"contracts/token factory/TestMigrator.sol\":3290:3296  amount */\n          dup5\n          swap1\n            /* \"contracts/token factory/TestMigrator.sol\":3259:3296  allowance[from][msg.sender] -= amount */\n          tag_69\n          jump\t// in\n        tag_70:\n          swap1\n          swap2\n          sstore\n          pop\n          pop\n          sub(shl(0xa0, 0x01), 0x01)\n            /* \"contracts/token factory/TestMigrator.sol\":3306:3319  balanceOf[to] */\n          dup4\n          and\n          0x00\n          swap1\n          dup2\n          mstore\n            /* \"contracts/token factory/TestMigrator.sol\":3306:3315  balanceOf */\n          0x04\n            /* \"contracts/token factory/TestMigrator.sol\":3306:3319  balanceOf[to] */\n          0x20\n          mstore\n          0x40\n          dup2\n          keccak256\n            /* \"contracts/token factory/TestMigrator.sol\":3306:3329  balanceOf[to] += amount */\n          dup1\n          sload\n            /* \"contracts/token factory/TestMigrator.sol\":3323:3329  amount */\n          dup5\n          swap3\n            /* \"contracts/token factory/TestMigrator.sol\":3306:3319  balanceOf[to] */\n          swap1\n            /* \"contracts/token factory/TestMigrator.sol\":3306:3329  balanceOf[to] += amount */\n          tag_71\n          swap1\n            /* \"contracts/token factory/TestMigrator.sol\":3323:3329  amount */\n          dup5\n          swap1\n            /* \"contracts/token factory/TestMigrator.sol\":3306:3329  balanceOf[to] += amount */\n          tag_72\n          jump\t// in\n        tag_71:\n          swap3\n          pop\n          pop\n          dup2\n          swap1\n          sstore\n          pop\n            /* \"contracts/token factory/TestMigrator.sol\":3359:3361  to */\n          dup3\n          sub(shl(0xa0, 0x01), 0x01)\n            /* \"contracts/token factory/TestMigrator.sol\":3344:3370  Transfer(from, to, amount) */\n          and\n            /* \"contracts/token factory/TestMigrator.sol\":3353:3357  from */\n          dup5\n          sub(shl(0xa0, 0x01), 0x01)\n            /* \"contracts/token factory/TestMigrator.sol\":3344:3370  Transfer(from, to, amount) */\n          and\n          0xddf252ad1be2c89b69c2b068fc378daa952ba7f163c4a11628f55a4df523b3ef\n            /* \"contracts/token factory/TestMigrator.sol\":3363:3369  amount */\n          dup5\n            /* \"contracts/token factory/TestMigrator.sol\":3344:3370  Transfer(from, to, amount) */\n          mload(0x40)\n          tag_73\n          swap2\n            /* \"#utility.yul\":1367:1392   */\n          dup2\n          mstore\n            /* \"#utility.yul\":1355:1357   */\n          0x20\n            /* \"#utility.yul\":1340:1358   */\n          add\n          swap1\n            /* \"#utility.yul\":1221:1398   */\n          jump\n            /* \"contracts/token factory/TestMigrator.sol\":3344:3370  Transfer(from, to, amount) */\n        tag_73:\n          mload(0x40)\n          dup1\n          swap2\n          sub\n          swap1\n          log3\n          pop\n            /* \"contracts/token factory/TestMigrator.sol\":3387:3391  true */\n          0x01\n            /* \"contracts/token factory/TestMigrator.sol\":2950:3398  function transferFrom(address from, address to, uint256 amount) external returns (bool) {... */\n          swap4\n          swap3\n          pop\n          pop\n          pop\n          jump\t// out\n            /* \"contracts/token factory/TestMigrator.sol\":1767:1787  string public symbol */\n        tag_42:\n          0x01\n          dup1\n          sload\n          tag_53\n          swap1\n          tag_54\n          jump\t// in\n            /* \"contracts/token factory/TestMigrator.sol\":2429:2735  function transfer(address to, uint256 amount) external returns (bool) {... */\n        tag_46:\n            /* \"contracts/token factory/TestMigrator.sol\":2527:2537  msg.sender */\n          caller\n            /* \"contracts/token factory/TestMigrator.sol\":2493:2497  bool */\n          0x00\n            /* \"contracts/token factory/TestMigrator.sol\":2517:2538  balanceOf[msg.sender] */\n          swap1\n          dup2\n          mstore\n            /* \"contracts/token factory/TestMigrator.sol\":2517:2526  balanceOf */\n          0x04\n            /* \"contracts/token factory/TestMigrator.sol\":2517:2538  balanceOf[msg.sender] */\n          0x20\n          mstore\n          0x40\n          dup2\n          keccak256\n          sload\n            /* \"contracts/token factory/TestMigrator.sol\":2517:2548  balanceOf[msg.sender] >= amount */\n          dup3\n          gt\n          iszero\n            /* \"contracts/token factory/TestMigrator.sol\":2509:2586  require(balanceOf[msg.sender] >= amount, \"CustomToken: insufficient balance\") */\n          tag_80\n          jumpi\n          mload(0x40)\n          shl(0xe5, 0x461bcd)\n          dup2\n          mstore\n          0x04\n          add\n          tag_63\n          swap1\n          tag_64\n          jump\t// in\n        tag_80:\n            /* \"contracts/token factory/TestMigrator.sol\":2606:2616  msg.sender */\n          caller\n            /* \"contracts/token factory/TestMigrator.sol\":2596:2617  balanceOf[msg.sender] */\n          0x00\n          swap1\n          dup2\n          mstore\n            /* \"contracts/token factory/TestMigrator.sol\":2596:2605  balanceOf */\n          0x04\n            /* \"contracts/token factory/TestMigrator.sol\":2596:2617  balanceOf[msg.sender] */\n          0x20\n          mstore\n          0x40\n          dup2\n          keccak256\n            /* \"contracts/token factory/TestMigrator.sol\":2596:2627  balanceOf[msg.sender] -= amount */\n          dup1\n          sload\n            /* \"contracts/token factory/TestMigrator.sol\":2621:2627  amount */\n          dup5\n          swap3\n            /* \"contracts/token factory/TestMigrator.sol\":2596:2617  balanceOf[msg.sender] */\n          swap1\n            /* \"contracts/token factory/TestMigrator.sol\":2596:2627  balanceOf[msg.sender] -= amount */\n          tag_82\n          swap1\n            /* \"contracts/token factory/TestMigrator.sol\":2621:2627  amount */\n          dup5\n          swap1\n            /* \"contracts/token factory/TestMigrator.sol\":2596:2627  balanceOf[msg.sender] -= amount */\n          tag_69\n          jump\t// in\n        tag_82:\n          swap1\n          swap2\n          sstore\n          pop\n          pop\n          sub(shl(0xa0, 0x01), 0x01)\n            /* \"contracts/token factory/TestMigrator.sol\":2637:2650  balanceOf[to] */\n          dup4\n          and\n          0x00\n          swap1\n          dup2\n          mstore\n            /* \"contracts/token factory/TestMigrator.sol\":2637:2646  balanceOf */\n          0x04\n            /* \"contracts/token factory/TestMigrator.sol\":2637:2650  balanceOf[to] */\n          0x20\n          mstore\n          0x40\n          dup2\n          keccak256\n            /* \"contracts/token factory/TestMigrator.sol\":2637:2660  balanceOf[to] += amount */\n          dup1\n          sload\n            /* \"contracts/token factory/TestMigrator.sol\":2654:2660  amount */\n          dup5\n          swap3\n            /* \"contracts/token factory/TestMigrator.sol\":2637:2650  balanceOf[to] */\n          swap1\n            /* \"contracts/token factory/TestMigrator.sol\":2637:2660  balanceOf[to] += amount */\n          tag_83\n          swap1\n            /* \"contracts/token factory/TestMigrator.sol\":2654:2660  amount */\n          dup5\n          swap1\n            /* \"contracts/token factory/TestMigrator.sol\":2637:2660  balanceOf[to] += amount */\n          tag_72\n          jump\t// in\n        tag_83:\n          swap1\n          swap2\n          sstore\n          pop\n          pop\n            /* \"contracts/token factory/TestMigrator.sol\":2675:2707  Transfer(msg.sender, to, amount) */\n          mload(0x40)\n            /* \"#utility.yul\":1367:1392   */\n          dup3\n          dup2\n          mstore\n          sub(shl(0xa0, 0x01), 0x01)\n            /* \"contracts/token factory/TestMigrator.sol\":2675:2707  Transfer(msg.sender, to, amount) */\n          dup5\n          and\n          swap1\n            /* \"contracts/token factory/TestMigrator.sol\":2684:2694  msg.sender */\n          caller\n          swap1\n            /* \"contracts/token factory/TestMigrator.sol\":2675:2707  Transfer(msg.sender, to, amount) */\n          0xddf252ad1be2c89b69c2b068fc378daa952ba7f163c4a11628f55a4df523b3ef\n          swap1\n            /* \"#utility.yul\":1355:1357   */\n          0x20\n            /* \"#utility.yul\":1340:1358   */\n          add\n            /* \"contracts/token factory/TestMigrator.sol\":2675:2707  Transfer(msg.sender, to, amount) */\n          tag_60\n            /* \"#utility.yul\":1221:1398   */\n          jump\n            /* \"#utility.yul\":14:541   */\n        tag_16:\n            /* \"#utility.yul\":163:165   */\n          0x20\n            /* \"#utility.yul\":152:161   */\n          dup2\n            /* \"#utility.yul\":145:166   */\n          mstore\n            /* \"#utility.yul\":126:130   */\n          0x00\n            /* \"#utility.yul\":195:201   */\n          dup3\n            /* \"#utility.yul\":189:202   */\n          mload\n            /* \"#utility.yul\":238:244   */\n          dup1\n            /* \"#utility.yul\":233:235   */\n          0x20\n            /* \"#utility.yul\":222:231   */\n          dup5\n            /* \"#utility.yul\":218:236   */\n          add\n            /* \"#utility.yul\":211:245   */\n          mstore\n            /* \"#utility.yul\":263:264   */\n          0x00\n            /* \"#utility.yul\":273:413   */\n        tag_89:\n            /* \"#utility.yul\":287:293   */\n          dup2\n            /* \"#utility.yul\":284:285   */\n          dup2\n            /* \"#utility.yul\":281:294   */\n          lt\n            /* \"#utility.yul\":273:413   */\n          iszero\n          tag_91\n          jumpi\n            /* \"#utility.yul\":398:400   */\n          0x20\n            /* \"#utility.yul\":382:396   */\n          dup2\n          dup7\n          add\n            /* \"#utility.yul\":378:401   */\n          dup2\n          add\n            /* \"#utility.yul\":372:402   */\n          mload\n            /* \"#utility.yul\":367:369   */\n          0x40\n            /* \"#utility.yul\":348:365   */\n          dup7\n          dup5\n          add\n            /* \"#utility.yul\":344:370   */\n          add\n            /* \"#utility.yul\":337:403   */\n          mstore\n            /* \"#utility.yul\":302:312   */\n          add\n            /* \"#utility.yul\":273:413   */\n          jump(tag_89)\n        tag_91:\n            /* \"#utility.yul\":277:280   */\n          pop\n            /* \"#utility.yul\":462:463   */\n          0x00\n            /* \"#utility.yul\":457:459   */\n          0x40\n            /* \"#utility.yul\":448:454   */\n          dup3\n            /* \"#utility.yul\":437:446   */\n          dup6\n            /* \"#utility.yul\":433:455   */\n          add\n            /* \"#utility.yul\":429:460   */\n          add\n            /* \"#utility.yul\":422:464   */\n          mstore\n            /* \"#utility.yul\":532:534   */\n          0x40\n            /* \"#utility.yul\":525:527   */\n          0x1f\n            /* \"#utility.yul\":521:528   */\n          not\n            /* \"#utility.yul\":516:518   */\n          0x1f\n            /* \"#utility.yul\":508:514   */\n          dup4\n            /* \"#utility.yul\":504:519   */\n          add\n            /* \"#utility.yul\":500:529   */\n          and\n            /* \"#utility.yul\":489:498   */\n          dup5\n            /* \"#utility.yul\":485:530   */\n          add\n            /* \"#utility.yul\":481:535   */\n          add\n            /* \"#utility.yul\":473:535   */\n          swap2\n          pop\n          pop\n            /* \"#utility.yul\":14:541   */\n          swap3\n          swap2\n          pop\n          pop\n          jump\t// out\n            /* \"#utility.yul\":546:719   */\n        tag_85:\n            /* \"#utility.yul\":614:634   */\n          dup1\n          calldataload\n          sub(shl(0xa0, 0x01), 0x01)\n            /* \"#utility.yul\":663:694   */\n          dup2\n          and\n            /* \"#utility.yul\":653:695   */\n          dup2\n          eq\n            /* \"#utility.yul\":643:713   */\n          tag_93\n          jumpi\n            /* \"#utility.yul\":709:710   */\n          0x00\n            /* \"#utility.yul\":706:707   */\n          dup1\n            /* \"#utility.yul\":699:711   */\n          revert\n            /* \"#utility.yul\":643:713   */\n        tag_93:\n            /* \"#utility.yul\":546:719   */\n          swap2\n          swap1\n          pop\n          jump\t// out\n            /* \"#utility.yul\":724:1024   */\n        tag_19:\n            /* \"#utility.yul\":792:798   */\n          0x00\n            /* \"#utility.yul\":800:806   */\n          dup1\n            /* \"#utility.yul\":853:855   */\n          0x40\n            /* \"#utility.yul\":841:850   */\n          dup4\n            /* \"#utility.yul\":832:839   */\n          dup6\n            /* \"#utility.yul\":828:851   */\n          sub\n            /* \"#utility.yul\":824:856   */\n          slt\n            /* \"#utility.yul\":821:873   */\n          iszero\n          tag_95\n          jumpi\n            /* \"#utility.yul\":869:870   */\n          0x00\n            /* \"#utility.yul\":866:867   */\n          dup1\n            /* \"#utility.yul\":859:871   */\n          revert\n            /* \"#utility.yul\":821:873   */\n        tag_95:\n            /* \"#utility.yul\":892:921   */\n          tag_96\n            /* \"#utility.yul\":911:920   */\n          dup4\n            /* \"#utility.yul\":892:921   */\n          tag_85\n          jump\t// in\n        tag_96:\n            /* \"#utility.yul\":882:921   */\n          swap5\n            /* \"#utility.yul\":990:992   */\n          0x20\n            /* \"#utility.yul\":975:993   */\n          swap4\n          swap1\n          swap4\n          add\n            /* \"#utility.yul\":962:994   */\n          calldataload\n          swap4\n          pop\n          pop\n          pop\n            /* \"#utility.yul\":724:1024   */\n          jump\t// out\n            /* \"#utility.yul\":1403:1777   */\n        tag_29:\n            /* \"#utility.yul\":1480:1486   */\n          0x00\n            /* \"#utility.yul\":1488:1494   */\n          dup1\n            /* \"#utility.yul\":1496:1502   */\n          0x00\n            /* \"#utility.yul\":1549:1551   */\n          0x60\n            /* \"#utility.yul\":1537:1546   */\n          dup5\n            /* \"#utility.yul\":1528:1535   */\n          dup7\n            /* \"#utility.yul\":1524:1547   */\n          sub\n            /* \"#utility.yul\":1520:1552   */\n          slt\n            /* \"#utility.yul\":1517:1569   */\n          iszero\n          tag_100\n          jumpi\n            /* \"#utility.yul\":1565:1566   */\n          0x00\n            /* \"#utility.yul\":1562:1563   */\n          dup1\n            /* \"#utility.yul\":1555:1567   */\n          revert\n            /* \"#utility.yul\":1517:1569   */\n        tag_100:\n            /* \"#utility.yul\":1588:1617   */\n          tag_101\n            /* \"#utility.yul\":1607:1616   */\n          dup5\n            /* \"#utility.yul\":1588:1617   */\n          tag_85\n          jump\t// in\n        tag_101:\n            /* \"#utility.yul\":1578:1617   */\n          swap3\n          pop\n            /* \"#utility.yul\":1636:1674   */\n          tag_102\n            /* \"#utility.yul\":1670:1672   */\n          0x20\n            /* \"#utility.yul\":1659:1668   */\n          dup6\n            /* \"#utility.yul\":1655:1673   */\n          add\n            /* \"#utility.yul\":1636:1674   */\n          tag_85\n          jump\t// in\n        tag_102:\n            /* \"#utility.yul\":1403:1777   */\n          swap3\n          swap6\n            /* \"#utility.yul\":1626:1674   */\n          swap3\n          swap5\n          pop\n          pop\n          pop\n            /* \"#utility.yul\":1743:1745   */\n          0x40\n            /* \"#utility.yul\":1728:1746   */\n          swap2\n          swap1\n          swap2\n          add\n            /* \"#utility.yul\":1715:1747   */\n          calldataload\n          swap1\n            /* \"#utility.yul\":1403:1777   */\n          jump\t// out\n            /* \"#utility.yul\":1971:2157   */\n        tag_38:\n            /* \"#utility.yul\":2030:2036   */\n          0x00\n            /* \"#utility.yul\":2083:2085   */\n          0x20\n            /* \"#utility.yul\":2071:2080   */\n          dup3\n            /* \"#utility.yul\":2062:2069   */\n          dup5\n            /* \"#utility.yul\":2058:2081   */\n          sub\n            /* \"#utility.yul\":2054:2086   */\n          slt\n            /* \"#utility.yul\":2051:2103   */\n          iszero\n          tag_105\n          jumpi\n            /* \"#utility.yul\":2099:2100   */\n          0x00\n            /* \"#utility.yul\":2096:2097   */\n          dup1\n            /* \"#utility.yul\":2089:2101   */\n          revert\n            /* \"#utility.yul\":2051:2103   */\n        tag_105:\n            /* \"#utility.yul\":2122:2151   */\n          tag_106\n            /* \"#utility.yul\":2141:2150   */\n          dup3\n            /* \"#utility.yul\":2122:2151   */\n          tag_85\n          jump\t// in\n        tag_106:\n            /* \"#utility.yul\":2112:2151   */\n          swap4\n            /* \"#utility.yul\":1971:2157   */\n          swap3\n          pop\n          pop\n          pop\n          jump\t// out\n            /* \"#utility.yul\":2162:2422   */\n        tag_50:\n            /* \"#utility.yul\":2230:2236   */\n          0x00\n            /* \"#utility.yul\":2238:2244   */\n          dup1\n            /* \"#utility.yul\":2291:2293   */\n          0x40\n            /* \"#utility.yul\":2279:2288   */\n          dup4\n            /* \"#utility.yul\":2270:2277   */\n          dup6\n            /* \"#utility.yul\":2266:2289   */\n          sub\n            /* \"#utility.yul\":2262:2294   */\n          slt\n            /* \"#utility.yul\":2259:2311   */\n          iszero\n          tag_108\n          jumpi\n            /* \"#utility.yul\":2307:2308   */\n          0x00\n            /* \"#utility.yul\":2304:2305   */\n          dup1\n            /* \"#utility.yul\":2297:2309   */\n          revert\n            /* \"#utility.yul\":2259:2311   */\n        tag_108:\n            /* \"#utility.yul\":2330:2359   */\n          tag_109\n            /* \"#utility.yul\":2349:2358   */\n          dup4\n            /* \"#utility.yul\":2330:2359   */\n          tag_85\n          jump\t// in\n        tag_109:\n            /* \"#utility.yul\":2320:2359   */\n          swap2\n          pop\n            /* \"#utility.yul\":2378:2416   */\n          tag_110\n            /* \"#utility.yul\":2412:2414   */\n          0x20\n            /* \"#utility.yul\":2401:2410   */\n          dup5\n            /* \"#utility.yul\":2397:2415   */\n          add\n            /* \"#utility.yul\":2378:2416   */\n          tag_85\n          jump\t// in\n        tag_110:\n            /* \"#utility.yul\":2368:2416   */\n          swap1\n          pop\n            /* \"#utility.yul\":2162:2422   */\n          swap3\n          pop\n          swap3\n          swap1\n          pop\n          jump\t// out\n            /* \"#utility.yul\":2427:2807   */\n        tag_54:\n            /* \"#utility.yul\":2506:2507   */\n          0x01\n            /* \"#utility.yul\":2502:2514   */\n          dup2\n          dup2\n          shr\n          swap1\n            /* \"#utility.yul\":2549:2561   */\n          dup3\n          and\n          dup1\n            /* \"#utility.yul\":2570:2631   */\n          tag_112\n          jumpi\n            /* \"#utility.yul\":2624:2628   */\n          0x7f\n            /* \"#utility.yul\":2616:2622   */\n          dup3\n            /* \"#utility.yul\":2612:2629   */\n          and\n            /* \"#utility.yul\":2602:2629   */\n          swap2\n          pop\n            /* \"#utility.yul\":2570:2631   */\n        tag_112:\n            /* \"#utility.yul\":2677:2679   */\n          0x20\n            /* \"#utility.yul\":2669:2675   */\n          dup3\n            /* \"#utility.yul\":2666:2680   */\n          lt\n            /* \"#utility.yul\":2646:2664   */\n          dup2\n            /* \"#utility.yul\":2643:2681   */\n          sub\n            /* \"#utility.yul\":2640:2801   */\n          tag_113\n          jumpi\n            /* \"#utility.yul\":2723:2733   */\n          0x4e487b71\n            /* \"#utility.yul\":2718:2721   */\n          0xe0\n            /* \"#utility.yul\":2714:2734   */\n          shl\n            /* \"#utility.yul\":2711:2712   */\n          0x00\n            /* \"#utility.yul\":2704:2735   */\n          mstore\n            /* \"#utility.yul\":2758:2762   */\n          0x22\n            /* \"#utility.yul\":2755:2756   */\n          0x04\n            /* \"#utility.yul\":2748:2763   */\n          mstore\n            /* \"#utility.yul\":2786:2790   */\n          0x24\n            /* \"#utility.yul\":2783:2784   */\n          0x00\n            /* \"#utility.yul\":2776:2791   */\n          revert\n            /* \"#utility.yul\":2640:2801   */\n        tag_113:\n          pop\n            /* \"#utility.yul\":2427:2807   */\n          swap2\n          swap1\n          pop\n          jump\t// out\n            /* \"#utility.yul\":2812:3209   */\n        tag_64:\n            /* \"#utility.yul\":3014:3016   */\n          0x20\n            /* \"#utility.yul\":2996:3017   */\n          dup1\n          dup3\n          mstore\n            /* \"#utility.yul\":3053:3055   */\n          0x21\n            /* \"#utility.yul\":3033:3051   */\n          swap1\n          dup3\n          add\n            /* \"#utility.yul\":3026:3056   */\n          mstore\n            /* \"#utility.yul\":3092:3126   */\n          0x437573746f6d546f6b656e3a20696e73756666696369656e742062616c616e63\n            /* \"#utility.yul\":3087:3089   */\n          0x40\n            /* \"#utility.yul\":3072:3090   */\n          dup3\n          add\n            /* \"#utility.yul\":3065:3127   */\n          mstore\n          shl(0xf8, 0x65)\n            /* \"#utility.yul\":3158:3160   */\n          0x60\n            /* \"#utility.yul\":3143:3161   */\n          dup3\n          add\n            /* \"#utility.yul\":3136:3167   */\n          mstore\n            /* \"#utility.yul\":3199:3202   */\n          0x80\n            /* \"#utility.yul\":3184:3203   */\n          add\n          swap1\n            /* \"#utility.yul\":2812:3209   */\n          jump\t// out\n            /* \"#utility.yul\":3618:3745   */\n        tag_86:\n            /* \"#utility.yul\":3679:3689   */\n          0x4e487b71\n            /* \"#utility.yul\":3674:3677   */\n          0xe0\n            /* \"#utility.yul\":3670:3690   */\n          shl\n            /* \"#utility.yul\":3667:3668   */\n          0x00\n            /* \"#utility.yul\":3660:3691   */\n          mstore\n            /* \"#utility.yul\":3710:3714   */\n          0x11\n            /* \"#utility.yul\":3707:3708   */\n          0x04\n            /* \"#utility.yul\":3700:3715   */\n          mstore\n            /* \"#utility.yul\":3734:3738   */\n          0x24\n            /* \"#utility.yul\":3731:3732   */\n          0x00\n            /* \"#utility.yul\":3724:3739   */\n          revert\n            /* \"#utility.yul\":3750:3878   */\n        tag_69:\n            /* \"#utility.yul\":3817:3826   */\n          dup2\n          dup2\n          sub\n            /* \"#utility.yul\":3838:3849   */\n          dup2\n          dup2\n          gt\n            /* \"#utility.yul\":3835:3872   */\n          iszero\n          tag_59\n          jumpi\n            /* \"#utility.yul\":3852:3870   */\n          tag_59\n          tag_86\n          jump\t// in\n            /* \"#utility.yul\":3883:4008   */\n        tag_72:\n            /* \"#utility.yul\":3948:3957   */\n          dup1\n          dup3\n          add\n            /* \"#utility.yul\":3969:3979   */\n          dup1\n          dup3\n          gt\n            /* \"#utility.yul\":3966:4002   */\n          iszero\n          tag_59\n          jumpi\n            /* \"#utility.yul\":3982:4000   */\n          tag_59\n          tag_86\n          jump\t// in\n\n        auxdata: 0xa264697066735822122004ff964cfcd424e757f2db7cb4f60f694e715642b13ac94daa699763a1fbc6c664736f6c634300081a0033\n    }\n}\n",
				"bytecode": {
					"linkReferences": {},
					"object": "608060405234801561001057600080fd5b506040516121db3803806121db83398101604081905261002f91610249565b6001600160a01b03821661008a5760405162461bcd60e51b815260206004820152601e60248201527f496e76616c696420416c6765627261556e69666965642061646472657373000060448201526064015b60405180910390fd5b6001600160a01b0381166100e05760405162461bcd60e51b815260206004820152601460248201527f496e76616c6964205745544820616464726573730000000000000000000000006044820152606401610081565b600280546001600160a01b03199081166001600160a01b038481169182179093556003805490921692851692831790915560405161011d90610213565b6001600160a01b03928316815291166020820152604001604051809103906000f080158015610150573d6000803e3d6000fd5b50600080546001600160a01b0319166001600160a01b039290921691909117905560405169d3c21bcecceda10000009061018990610220565b6060808252600b908201526a21bab9ba37b6aa37b5b2b760a91b608082015260a0602082018190526003908201526243544b60e81b60c0820152604081019190915260e001604051809103906000f0801580156101ea573d6000803e3d6000fd5b50600180546001600160a01b0319166001600160a01b03929092169190911790555061027c9050565b6110898061071f83390190565b610a33806117a883390190565b80516001600160a01b038116811461024457600080fd5b919050565b6000806040838503121561025c57600080fd5b6102658361022d565b91506102736020840161022d565b90509250929050565b6104948061028b6000396000f3fe6080604052600436106100705760003560e01c80637cd07e471161004e5780637cd07e47146100eb578063899e31061461010b578063e9b007e51461012b578063f5f7828a1461014957600080fd5b806322b26ed81461007557806324f8eca7146100ab5780633fc8cef3146100cb575b600080fd5b34801561008157600080fd5b506000546001600160a01b03165b6040516001600160a01b03909116815260200160405180910390f35b3480156100b757600080fd5b5060035461008f906001600160a01b031681565b3480156100d757600080fd5b5060025461008f906001600160a01b031681565b3480156100f757600080fd5b5060005461008f906001600160a01b031681565b34801561011757600080fd5b5060015461008f906001600160a01b031681565b34801561013757600080fd5b506001546001600160a01b031661008f565b61015c610157366004610403565b61015e565b005b600034116101bf5760405162461bcd60e51b815260206004820152602360248201527f457468657220616d6f756e74206d75737420626520677265617465722074686160448201526206e20360ec1b60648201526084015b60405180910390fd5b6000811161021b5760405162461bcd60e51b815260206004820152602360248201527f546f6b656e20616d6f756e74206d75737420626520677265617465722074686160448201526206e20360ec1b60648201526084016101b6565b6001546040516370a0823160e01b81523060048201526001600160a01b03909116906370a0823190602401602060405180830381865afa158015610263573d6000803e3d6000fd5b505050506040513d601f19601f82011682018060405250810190610287919061041c565b8111156102d65760405162461bcd60e51b815260206004820152601b60248201527f4e6f7420656e6f75676820746f6b656e7320617661696c61626c65000000000060448201526064016101b6565b60015460005460405163095ea7b360e01b81526001600160a01b0391821660048201526024810184905291169063095ea7b3906044016020604051808303816000875af115801561032b573d6000803e3d6000fd5b505050506040513d601f19601f8201168201806040525081019061034f9190610435565b5060005460015460405163031faf0b60e31b81526001600160a01b039182166004820152602481018490529116906318fd78589034906044016000604051808303818588803b1580156103a157600080fd5b505af11580156103b5573d6000803e3d6000fd5b50506001546040805186815234602082015281516001600160a01b0390931695507f0aac5cbf3f9e799b277c2edd8eba370b5af3b31550f27cea98df0b1b07c039c89450829003019150a250565b60006020828403121561041557600080fd5b5035919050565b60006020828403121561042e57600080fd5b5051919050565b60006020828403121561044757600080fd5b8151801515811461045757600080fd5b939250505056fea26469706673582212205085d8dace097a4ce686fcbb42a787a52324ab8b1e35dcf63d6582d3f3f2183564736f6c634300081a0033608060405234801561001057600080fd5b5060405161108938038061108983398101604081905261002f91610138565b6001600160a01b03821661008a5760405162461bcd60e51b815260206004820152601760248201527f496e76616c696420416c6765627261206164647265737300000000000000000060448201526064015b60405180910390fd5b6001600160a01b0381166100e05760405162461bcd60e51b815260206004820152601460248201527f496e76616c6964205745544820616464726573730000000000000000000000006044820152606401610081565b600080546001600160a01b03199081163317909155600180546001600160a01b039485169083161790556002805492909316911617905561016b565b80516001600160a01b038116811461013357600080fd5b919050565b6000806040838503121561014b57600080fd5b6101548361011c565b91506101626020840161011c565b90509250929050565b610f0f8061017a6000396000f3fe6080604052600436106100a05760003560e01c80636882a888116100645780636882a888146101665780638da5cb5b14610190578063a000bf4f146101b0578063a1634b14146101d0578063ad5c4648146101e8578063fe9440d71461020857600080fd5b806309fe2d34146100ac57806318fd7858146100ce57806324f8eca7146100e15780633b7ab5b31461011e5780635a2f0ae71461014a57600080fd5b366100a757005b600080fd5b3480156100b857600080fd5b506100cc6100c7366004610c5a565b610228565b005b6100cc6100dc366004610c77565b6102c5565b3480156100ed57600080fd5b50600154610101906001600160a01b031681565b6040516001600160a01b0390911681526020015b60405180910390f35b34801561012a57600080fd5b5061013c69d3c21bcecceda100000081565b604051908152602001610115565b34801561015657600080fd5b5061013c678ac7230489e8000081565b34801561017257600080fd5b5061017d620d89b481565b60405160029190910b8152602001610115565b34801561019c57600080fd5b50600054610101906001600160a01b031681565b3480156101bc57600080fd5b506101016101cb366004610ca3565b6108f6565b3480156101dc57600080fd5b5061017d620d89b31981565b3480156101f457600080fd5b50600254610101906001600160a01b031681565b34801561021457600080fd5b506100cc610223366004610c5a565b61096c565b6000546001600160a01b0316331461025b5760405162461bcd60e51b815260040161025290610cc5565b60405180910390fd5b6001600160a01b0381166102a35760405162461bcd60e51b815260206004820152600f60248201526e496e76616c6964206164647265737360881b6044820152606401610252565b600180546001600160a01b0319166001600160a01b0392909216919091179055565b6000546001600160a01b031633146102ef5760405162461bcd60e51b815260040161025290610cc5565b6000341161034e5760405162461bcd60e51b815260206004820152602660248201527f457468657220616d6f756e74206d7573742062652067726561746572207468616044820152656e207a65726f60d01b6064820152608401610252565b600081116103ad5760405162461bcd60e51b815260206004820152602660248201527f546f6b656e20616d6f756e74206d7573742062652067726561746572207468616044820152656e207a65726f60d01b6064820152608401610252565b600069d3c21bcecceda100000082116103c657816103d2565b69d3c21bcecceda10000005b90506000678ac7230489e8000034116103eb57346103f5565b678ac7230489e800005b9050600260009054906101000a90046001600160a01b03166001600160a01b031663d0e30db0826040518263ffffffff1660e01b81526004016000604051808303818588803b15801561044757600080fd5b505af115801561045b573d6000803e3d6000fd5b50506002546040516370a0823160e01b8152306004820152600094506001600160a01b0390911692506370a082319150602401602060405180830381865afa1580156104ab573d6000803e3d6000fd5b505050506040513d601f19601f820116820180604052508101906104cf9190610cfc565b9050818110156105215760405162461bcd60e51b815260206004820152601e60248201527f4661696c656420746f207772617020457468657220696e746f205745544800006044820152606401610252565b6105366001600160a01b038616333086610a00565b6002546000906001600160a01b0390811690871610610560576002546001600160a01b0316610562565b855b6002549091506000906001600160a01b03908116908816106105845786610591565b6002546001600160a01b03165b9050600061059f86866108f6565b6001546040516343a9d0cd60e11b81526001600160a01b0386811660048301528581166024830152600060448301819052818516606484015293945090911690638753a19a906084016020604051808303816000875af1158015610607573d6000803e3d6000fd5b505050506040513d601f19601f8201168201806040525081019061062b9190610d15565b90506001600160a01b0381166106835760405162461bcd60e51b815260206004820152601d60248201527f4661696c656420746f2063726561746520416c676562726120706f6f6c0000006044820152606401610252565b886001600160a01b0316816001600160a01b03167f0bc269b08661fa7948aabbb2ac773747166492e0ac63735b66898001e237a1bc89896040516106d1929190918252602082015260400190565b60405180910390a36001546106f3906001600160a01b038b8116911689610afa565b600154600254610710916001600160a01b03918216911687610afa565b60408051610160810182526001600160a01b0380871680835286821660208401526000938301849052620d89b3196060840152620d89b4608084015260a08301918d161461075e5787610760565b895b81526020018b6001600160a01b0316876001600160a01b0316146107845789610786565b875b815260006020820181905260408201523060608201526080016107ab42610e10610d32565b905260015460405163fe3f3be760e01b81529192506000918291829182916001600160a01b03169063fe3f3be7906107e7908890600401610d53565b6080604051808303816000875af1158015610806573d6000803e3d6000fd5b505050506040513d601f19601f8201168201806040525081019061082a9190610e1b565b93509350935093506000836001600160801b03161161088b5760405162461bcd60e51b815260206004820152601860248201527f4661696c656420746f206d696e74206c697175696469747900000000000000006044820152606401610252565b604080518581526001600160801b0385166020820152908101839052606081018290526001600160a01b038716907f936f1605239d50a44520651cb0698a8f77eea34a13f43a4eac22872b1baf48cc9060800160405180910390a25050505050505050505050505050565b60008069d3c21bcecceda10000008411610910578361091c565b69d3c21bcecceda10000005b90506000678ac7230489e800008411610935578361093f565b678ac7230489e800005b9050600061095183606084901b610e66565b9050603061095e82610beb565b901b93505050505b92915050565b6000546001600160a01b031633146109965760405162461bcd60e51b815260040161025290610cc5565b6001600160a01b0381166109de5760405162461bcd60e51b815260206004820152600f60248201526e496e76616c6964206164647265737360881b6044820152606401610252565b600280546001600160a01b0319166001600160a01b0392909216919091179055565b604080516001600160a01b0385811660248301528481166044830152606480830185905283518084039091018152608490920183526020820180516001600160e01b03166323b872dd60e01b1790529151600092839290881691610a649190610e88565b6000604051808303816000865af19150503d8060008114610aa1576040519150601f19603f3d011682016040523d82523d6000602084013e610aa6565b606091505b5091509150811580610ad45750805115801590610ad4575080806020019051810190610ad29190610eb7565b155b15610af25760405163817275ab60e01b815260040160405180910390fd5b505050505050565b604080516001600160a01b038481166024830152604480830185905283518084039091018152606490920183526020820180516001600160e01b031663095ea7b360e01b1790529151600092839290871691610b569190610e88565b6000604051808303816000865af19150503d8060008114610b93576040519150601f19603f3d011682016040523d82523d6000602084013e610b98565b606091505b5091509150811580610bc65750805115801590610bc6575080806020019051810190610bc49190610eb7565b155b15610be457604051637cd36c6560e11b815260040160405180910390fd5b5050505050565b6000806002610bfb846001610d32565b610c059190610e66565b9050825b80821015610c3b575080600281610c208187610e66565b610c2a9190610d32565b610c349190610e66565b9150610c09565b9392505050565b6001600160a01b0381168114610c5757600080fd5b50565b600060208284031215610c6c57600080fd5b8135610c3b81610c42565b60008060408385031215610c8a57600080fd5b8235610c9581610c42565b946020939093013593505050565b60008060408385031215610cb657600080fd5b50508035926020909101359150565b60208082526018908201527f4f6e6c79206f776e65722063616e2063616c6c20746869730000000000000000604082015260600190565b600060208284031215610d0e57600080fd5b5051919050565b600060208284031215610d2757600080fd5b8151610c3b81610c42565b8082018082111561096657634e487b7160e01b600052601160045260246000fd5b81516001600160a01b0316815261016081016020830151610d7f60208401826001600160a01b03169052565b506040830151610d9a60408401826001600160a01b03169052565b506060830151610daf606084018260020b9052565b506080830151610dc4608084018260020b9052565b5060a083015160a083015260c083015160c083015260e083015160e0830152610100830151610100830152610120830151610e0b6101208401826001600160a01b03169052565b5061014092830151919092015290565b60008060008060808587031215610e3157600080fd5b845160208601519094506001600160801b0381168114610e5057600080fd5b6040860151606090960151949790965092505050565b600082610e8357634e487b7160e01b600052601260045260246000fd5b500490565b6000825160005b81811015610ea95760208186018101518583015201610e8f565b506000920191825250919050565b600060208284031215610ec957600080fd5b81518015158114610c3b57600080fdfea2646970667358221220abd2f51761dbb74233387c2665c20711e70b0f13e08235f83275d9ee19345af764736f6c634300081a003360806040526002805460ff1916601217905534801561001d57600080fd5b50604051610a33380380610a3383398101604081905261003c91610160565b6000610048848261025b565b506001610055838261025b565b506003819055336000818152600460209081526040808320859055518481527fddf252ad1be2c89b69c2b068fc378daa952ba7f163c4a11628f55a4df523b3ef910160405180910390a3505050610319565b634e487b7160e01b600052604160045260246000fd5b600082601f8301126100ce57600080fd5b81516001600160401b038111156100e7576100e76100a7565b604051601f8201601f19908116603f011681016001600160401b0381118282101715610115576101156100a7565b60405281815283820160200185101561012d57600080fd5b60005b8281101561014c57602081860181015183830182015201610130565b506000918101602001919091529392505050565b60008060006060848603121561017557600080fd5b83516001600160401b0381111561018b57600080fd5b610197868287016100bd565b602086015190945090506001600160401b038111156101b557600080fd5b6101c1868287016100bd565b925050604084015190509250925092565b600181811c908216806101e657607f821691505b60208210810361020657634e487b7160e01b600052602260045260246000fd5b50919050565b601f82111561025657806000526020600020601f840160051c810160208510156102335750805b601f840160051c820191505b81811015610253576000815560010161023f565b50505b505050565b81516001600160401b03811115610274576102746100a7565b6102888161028284546101d2565b8461020c565b6020601f8211600181146102bc57600083156102a45750848201515b600019600385901b1c1916600184901b178455610253565b600084815260208120601f198516915b828110156102ec57878501518255602094850194600190920191016102cc565b508482101561030a5786840151600019600387901b60f8161c191681555b50505050600190811b01905550565b61070b806103286000396000f3fe608060405234801561001057600080fd5b50600436106100935760003560e01c8063313ce56711610066578063313ce5671461010357806370a082311461012257806395d89b4114610142578063a9059cbb1461014a578063dd62ed3e1461015d57600080fd5b806306fdde0314610098578063095ea7b3146100b657806318160ddd146100d957806323b872dd146100f0575b600080fd5b6100a0610188565b6040516100ad91906104f8565b60405180910390f35b6100c96100c4366004610562565b610216565b60405190151581526020016100ad565b6100e260035481565b6040519081526020016100ad565b6100c96100fe36600461058c565b610283565b6002546101109060ff1681565b60405160ff90911681526020016100ad565b6100e26101303660046105c9565b60046020526000908152604090205481565b6100a061042e565b6100c9610158366004610562565b61043b565b6100e261016b3660046105eb565b600560209081526000928352604080842090915290825290205481565b600080546101959061061e565b80601f01602080910402602001604051908101604052809291908181526020018280546101c19061061e565b801561020e5780601f106101e35761010080835404028352916020019161020e565b820191906000526020600020905b8154815290600101906020018083116101f157829003601f168201915b505050505081565b3360008181526005602090815260408083206001600160a01b038716808552925280832085905551919290917f8c5be1e5ebec7d5bd14f71427d1e84f3dd0314c0f7b2291e5b200ac8c7c3b925906102719086815260200190565b60405180910390a35060015b92915050565b6001600160a01b0383166000908152600460205260408120548211156102c45760405162461bcd60e51b81526004016102bb90610658565b60405180910390fd5b6001600160a01b03841660009081526005602090815260408083203384529091529020548211156103435760405162461bcd60e51b815260206004820152602360248201527f437573746f6d546f6b656e3a20696e73756666696369656e7420616c6c6f77616044820152626e636560e81b60648201526084016102bb565b6001600160a01b0384166000908152600460205260408120805484929061036b9084906106af565b90915550506001600160a01b0384166000908152600560209081526040808320338452909152812080548492906103a39084906106af565b90915550506001600160a01b038316600090815260046020526040812080548492906103d09084906106c2565b92505081905550826001600160a01b0316846001600160a01b03167fddf252ad1be2c89b69c2b068fc378daa952ba7f163c4a11628f55a4df523b3ef8460405161041c91815260200190565b60405180910390a35060019392505050565b600180546101959061061e565b3360009081526004602052604081205482111561046a5760405162461bcd60e51b81526004016102bb90610658565b33600090815260046020526040812080548492906104899084906106af565b90915550506001600160a01b038316600090815260046020526040812080548492906104b69084906106c2565b90915550506040518281526001600160a01b0384169033907fddf252ad1be2c89b69c2b068fc378daa952ba7f163c4a11628f55a4df523b3ef90602001610271565b602081526000825180602084015260005b818110156105265760208186018101516040868401015201610509565b506000604082850101526040601f19601f83011684010191505092915050565b80356001600160a01b038116811461055d57600080fd5b919050565b6000806040838503121561057557600080fd5b61057e83610546565b946020939093013593505050565b6000806000606084860312156105a157600080fd5b6105aa84610546565b92506105b860208501610546565b929592945050506040919091013590565b6000602082840312156105db57600080fd5b6105e482610546565b9392505050565b600080604083850312156105fe57600080fd5b61060783610546565b915061061560208401610546565b90509250929050565b600181811c9082168061063257607f821691505b60208210810361065257634e487b7160e01b600052602260045260246000fd5b50919050565b60208082526021908201527f437573746f6d546f6b656e3a20696e73756666696369656e742062616c616e636040820152606560f81b606082015260800190565b634e487b7160e01b600052601160045260246000fd5b8181038181111561027d5761027d610699565b8082018082111561027d5761027d61069956fea264697066735822122004ff964cfcd424e757f2db7cb4f60f694e715642b13ac94daa699763a1fbc6c664736f6c634300081a0033",
					"opcodes": "PUSH1 0x80 PUSH1 0x40 MSTORE CALLVALUE DUP1 ISZERO PUSH2 0x10 JUMPI PUSH1 0x0 DUP1 REVERT JUMPDEST POP PUSH1 0x40 MLOAD PUSH2 0x21DB CODESIZE SUB DUP1 PUSH2 0x21DB DUP4 CODECOPY DUP2 ADD PUSH1 0x40 DUP2 SWAP1 MSTORE PUSH2 0x2F SWAP2 PUSH2 0x249 JUMP JUMPDEST PUSH1 0x1 PUSH1 0x1 PUSH1 0xA0 SHL SUB DUP3 AND PUSH2 0x8A JUMPI PUSH1 0x40 MLOAD PUSH3 0x461BCD PUSH1 0xE5 SHL DUP2 MSTORE PUSH1 0x20 PUSH1 0x4 DUP3 ADD MSTORE PUSH1 0x1E PUSH1 0x24 DUP3 ADD MSTORE PUSH32 0x496E76616C696420416C6765627261556E696669656420616464726573730000 PUSH1 0x44 DUP3 ADD MSTORE PUSH1 0x64 ADD JUMPDEST PUSH1 0x40 MLOAD DUP1 SWAP2 SUB SWAP1 REVERT JUMPDEST PUSH1 0x1 PUSH1 0x1 PUSH1 0xA0 SHL SUB DUP2 AND PUSH2 0xE0 JUMPI PUSH1 0x40 MLOAD PUSH3 0x461BCD PUSH1 0xE5 SHL DUP2 MSTORE PUSH1 0x20 PUSH1 0x4 DUP3 ADD MSTORE PUSH1 0x14 PUSH1 0x24 DUP3 ADD MSTORE PUSH32 0x496E76616C696420574554482061646472657373000000000000000000000000 PUSH1 0x44 DUP3 ADD MSTORE PUSH1 0x64 ADD PUSH2 0x81 JUMP JUMPDEST PUSH1 0x2 DUP1 SLOAD PUSH1 0x1 PUSH1 0x1 PUSH1 0xA0 SHL SUB NOT SWAP1 DUP2 AND PUSH1 0x1 PUSH1 0x1 PUSH1 0xA0 SHL SUB DUP5 DUP2 AND SWAP2 DUP3 OR SWAP1 SWAP4 SSTORE PUSH1 0x3 DUP1 SLOAD SWAP1 SWAP3 AND SWAP3 DUP6 AND SWAP3 DUP4 OR SWAP1 SWAP2 SSTORE PUSH1 0x40 MLOAD PUSH2 0x11D SWAP1 PUSH2 0x213 JUMP JUMPDEST PUSH1 0x1 PUSH1 0x1 PUSH1 0xA0 SHL SUB SWAP3 DUP4 AND DUP2 MSTORE SWAP2 AND PUSH1 0x20 DUP3 ADD MSTORE PUSH1 0x40 ADD PUSH1 0x40 MLOAD DUP1 SWAP2 SUB SWAP1 PUSH1 0x0 CREATE DUP1 ISZERO DUP1 ISZERO PUSH2 0x150 JUMPI RETURNDATASIZE PUSH1 0x0 DUP1 RETURNDATACOPY RETURNDATASIZE PUSH1 0x0 REVERT JUMPDEST POP PUSH1 0x0 DUP1 SLOAD PUSH1 0x1 PUSH1 0x1 PUSH1 0xA0 SHL SUB NOT AND PUSH1 0x1 PUSH1 0x1 PUSH1 0xA0 SHL SUB SWAP3 SWAP1 SWAP3 AND SWAP2 SWAP1 SWAP2 OR SWAP1 SSTORE PUSH1 0x40 MLOAD PUSH10 0xD3C21BCECCEDA1000000 SWAP1 PUSH2 0x189 SWAP1 PUSH2 0x220 JUMP JUMPDEST PUSH1 0x60 DUP1 DUP3 MSTORE PUSH1 0xB SWAP1 DUP3 ADD MSTORE PUSH11 0x21BAB9BA37B6AA37B5B2B7 PUSH1 0xA9 SHL PUSH1 0x80 DUP3 ADD MSTORE PUSH1 0xA0 PUSH1 0x20 DUP3 ADD DUP2 SWAP1 MSTORE PUSH1 0x3 SWAP1 DUP3 ADD MSTORE PUSH3 0x43544B PUSH1 0xE8 SHL PUSH1 0xC0 DUP3 ADD MSTORE PUSH1 0x40 DUP2 ADD SWAP2 SWAP1 SWAP2 MSTORE PUSH1 0xE0 ADD PUSH1 0x40 MLOAD DUP1 SWAP2 SUB SWAP1 PUSH1 0x0 CREATE DUP1 ISZERO DUP1 ISZERO PUSH2 0x1EA JUMPI RETURNDATASIZE PUSH1 0x0 DUP1 RETURNDATACOPY RETURNDATASIZE PUSH1 0x0 REVERT JUMPDEST POP PUSH1 0x1 DUP1 SLOAD PUSH1 0x1 PUSH1 0x1 PUSH1 0xA0 SHL SUB NOT AND PUSH1 0x1 PUSH1 0x1 PUSH1 0xA0 SHL SUB SWAP3 SWAP1 SWAP3 AND SWAP2 SWAP1 SWAP2 OR SWAP1 SSTORE POP PUSH2 0x27C SWAP1 POP JUMP JUMPDEST PUSH2 0x1089 DUP1 PUSH2 0x71F DUP4 CODECOPY ADD SWAP1 JUMP JUMPDEST PUSH2 0xA33 DUP1 PUSH2 0x17A8 DUP4 CODECOPY ADD SWAP1 JUMP JUMPDEST DUP1 MLOAD PUSH1 0x1 PUSH1 0x1 PUSH1 0xA0 SHL SUB DUP2 AND DUP2 EQ PUSH2 0x244 JUMPI PUSH1 0x0 DUP1 REVERT JUMPDEST SWAP2 SWAP1 POP JUMP JUMPDEST PUSH1 0x0 DUP1 PUSH1 0x40 DUP4 DUP6 SUB SLT ISZERO PUSH2 0x25C JUMPI PUSH1 0x0 DUP1 REVERT JUMPDEST PUSH2 0x265 DUP4 PUSH2 0x22D JUMP JUMPDEST SWAP2 POP PUSH2 0x273 PUSH1 0x20 DUP5 ADD PUSH2 0x22D JUMP JUMPDEST SWAP1 POP SWAP3 POP SWAP3 SWAP1 POP JUMP JUMPDEST PUSH2 0x494 DUP1 PUSH2 0x28B PUSH1 0x0 CODECOPY PUSH1 0x0 RETURN INVALID PUSH1 0x80 PUSH1 0x40 MSTORE PUSH1 0x4 CALLDATASIZE LT PUSH2 0x70 JUMPI PUSH1 0x0 CALLDATALOAD PUSH1 0xE0 SHR DUP1 PUSH4 0x7CD07E47 GT PUSH2 0x4E JUMPI DUP1 PUSH4 0x7CD07E47 EQ PUSH2 0xEB JUMPI DUP1 PUSH4 0x899E3106 EQ PUSH2 0x10B JUMPI DUP1 PUSH4 0xE9B007E5 EQ PUSH2 0x12B JUMPI DUP1 PUSH4 0xF5F7828A EQ PUSH2 0x149 JUMPI PUSH1 0x0 DUP1 REVERT JUMPDEST DUP1 PUSH4 0x22B26ED8 EQ PUSH2 0x75 JUMPI DUP1 PUSH4 0x24F8ECA7 EQ PUSH2 0xAB JUMPI DUP1 PUSH4 0x3FC8CEF3 EQ PUSH2 0xCB JUMPI JUMPDEST PUSH1 0x0 DUP1 REVERT JUMPDEST CALLVALUE DUP1 ISZERO PUSH2 0x81 JUMPI PUSH1 0x0 DUP1 REVERT JUMPDEST POP PUSH1 0x0 SLOAD PUSH1 0x1 PUSH1 0x1 PUSH1 0xA0 SHL SUB AND JUMPDEST PUSH1 0x40 MLOAD PUSH1 0x1 PUSH1 0x1 PUSH1 0xA0 SHL SUB SWAP1 SWAP2 AND DUP2 MSTORE PUSH1 0x20 ADD PUSH1 0x40 MLOAD DUP1 SWAP2 SUB SWAP1 RETURN JUMPDEST CALLVALUE DUP1 ISZERO PUSH2 0xB7 JUMPI PUSH1 0x0 DUP1 REVERT JUMPDEST POP PUSH1 0x3 SLOAD PUSH2 0x8F SWAP1 PUSH1 0x1 PUSH1 0x1 PUSH1 0xA0 SHL SUB AND DUP2 JUMP JUMPDEST CALLVALUE DUP1 ISZERO PUSH2 0xD7 JUMPI PUSH1 0x0 DUP1 REVERT JUMPDEST POP PUSH1 0x2 SLOAD PUSH2 0x8F SWAP1 PUSH1 0x1 PUSH1 0x1 PUSH1 0xA0 SHL SUB AND DUP2 JUMP JUMPDEST CALLVALUE DUP1 ISZERO PUSH2 0xF7 JUMPI PUSH1 0x0 DUP1 REVERT JUMPDEST POP PUSH1 0x0 SLOAD PUSH2 0x8F SWAP1 PUSH1 0x1 PUSH1 0x1 PUSH1 0xA0 SHL SUB AND DUP2 JUMP JUMPDEST CALLVALUE DUP1 ISZERO PUSH2 0x117 JUMPI PUSH1 0x0 DUP1 REVERT JUMPDEST POP PUSH1 0x1 SLOAD PUSH2 0x8F SWAP1 PUSH1 0x1 PUSH1 0x1 PUSH1 0xA0 SHL SUB AND DUP2 JUMP JUMPDEST CALLVALUE DUP1 ISZERO PUSH2 0x137 JUMPI PUSH1 0x0 DUP1 REVERT JUMPDEST POP PUSH1 0x1 SLOAD PUSH1 0x1 PUSH1 0x1 PUSH1 0xA0 SHL SUB AND PUSH2 0x8F JUMP JUMPDEST PUSH2 0x15C PUSH2 0x157 CALLDATASIZE PUSH1 0x4 PUSH2 0x403 JUMP JUMPDEST PUSH2 0x15E JUMP JUMPDEST STOP JUMPDEST PUSH1 0x0 CALLVALUE GT PUSH2 0x1BF JUMPI PUSH1 0x40 MLOAD PUSH3 0x461BCD PUSH1 0xE5 SHL DUP2 MSTORE PUSH1 0x20 PUSH1 0x4 DUP3 ADD MSTORE PUSH1 0x23 PUSH1 0x24 DUP3 ADD MSTORE PUSH32 0x457468657220616D6F756E74206D757374206265206772656174657220746861 PUSH1 0x44 DUP3 ADD MSTORE PUSH3 0x6E203 PUSH1 0xEC SHL PUSH1 0x64 DUP3 ADD MSTORE PUSH1 0x84 ADD JUMPDEST PUSH1 0x40 MLOAD DUP1 SWAP2 SUB SWAP1 REVERT JUMPDEST PUSH1 0x0 DUP2 GT PUSH2 0x21B JUMPI PUSH1 0x40 MLOAD PUSH3 0x461BCD PUSH1 0xE5 SHL DUP2 MSTORE PUSH1 0x20 PUSH1 0x4 DUP3 ADD MSTORE PUSH1 0x23 PUSH1 0x24 DUP3 ADD MSTORE PUSH32 0x546F6B656E20616D6F756E74206D757374206265206772656174657220746861 PUSH1 0x44 DUP3 ADD MSTORE PUSH3 0x6E203 PUSH1 0xEC SHL PUSH1 0x64 DUP3 ADD MSTORE PUSH1 0x84 ADD PUSH2 0x1B6 JUMP JUMPDEST PUSH1 0x1 SLOAD PUSH1 0x40 MLOAD PUSH4 0x70A08231 PUSH1 0xE0 SHL DUP2 MSTORE ADDRESS PUSH1 0x4 DUP3 ADD MSTORE PUSH1 0x1 PUSH1 0x1 PUSH1 0xA0 SHL SUB SWAP1 SWAP2 AND SWAP1 PUSH4 0x70A08231 SWAP1 PUSH1 0x24 ADD PUSH1 0x20 PUSH1 0x40 MLOAD DUP1 DUP4 SUB DUP2 DUP7 GAS STATICCALL ISZERO DUP1 ISZERO PUSH2 0x263 JUMPI RETURNDATASIZE PUSH1 0x0 DUP1 RETURNDATACOPY RETURNDATASIZE PUSH1 0x0 REVERT JUMPDEST POP POP POP POP PUSH1 0x40 MLOAD RETURNDATASIZE PUSH1 0x1F NOT PUSH1 0x1F DUP3 ADD AND DUP3 ADD DUP1 PUSH1 0x40 MSTORE POP DUP2 ADD SWAP1 PUSH2 0x287 SWAP2 SWAP1 PUSH2 0x41C JUMP JUMPDEST DUP2 GT ISZERO PUSH2 0x2D6 JUMPI PUSH1 0x40 MLOAD PUSH3 0x461BCD PUSH1 0xE5 SHL DUP2 MSTORE PUSH1 0x20 PUSH1 0x4 DUP3 ADD MSTORE PUSH1 0x1B PUSH1 0x24 DUP3 ADD MSTORE PUSH32 0x4E6F7420656E6F75676820746F6B656E7320617661696C61626C650000000000 PUSH1 0x44 DUP3 ADD MSTORE PUSH1 0x64 ADD PUSH2 0x1B6 JUMP JUMPDEST PUSH1 0x1 SLOAD PUSH1 0x0 SLOAD PUSH1 0x40 MLOAD PUSH4 0x95EA7B3 PUSH1 0xE0 SHL DUP2 MSTORE PUSH1 0x1 PUSH1 0x1 PUSH1 0xA0 SHL SUB SWAP2 DUP3 AND PUSH1 0x4 DUP3 ADD MSTORE PUSH1 0x24 DUP2 ADD DUP5 SWAP1 MSTORE SWAP2 AND SWAP1 PUSH4 0x95EA7B3 SWAP1 PUSH1 0x44 ADD PUSH1 0x20 PUSH1 0x40 MLOAD DUP1 DUP4 SUB DUP2 PUSH1 0x0 DUP8 GAS CALL ISZERO DUP1 ISZERO PUSH2 0x32B JUMPI RETURNDATASIZE PUSH1 0x0 DUP1 RETURNDATACOPY RETURNDATASIZE PUSH1 0x0 REVERT JUMPDEST POP POP POP POP PUSH1 0x40 MLOAD RETURNDATASIZE PUSH1 0x1F NOT PUSH1 0x1F DUP3 ADD AND DUP3 ADD DUP1 PUSH1 0x40 MSTORE POP DUP2 ADD SWAP1 PUSH2 0x34F SWAP2 SWAP1 PUSH2 0x435 JUMP JUMPDEST POP PUSH1 0x0 SLOAD PUSH1 0x1 SLOAD PUSH1 0x40 MLOAD PUSH4 0x31FAF0B PUSH1 0xE3 SHL DUP2 MSTORE PUSH1 0x1 PUSH1 0x1 PUSH1 0xA0 SHL SUB SWAP2 DUP3 AND PUSH1 0x4 DUP3 ADD MSTORE PUSH1 0x24 DUP2 ADD DUP5 SWAP1 MSTORE SWAP2 AND SWAP1 PUSH4 0x18FD7858 SWAP1 CALLVALUE SWAP1 PUSH1 0x44 ADD PUSH1 0x0 PUSH1 0x40 MLOAD DUP1 DUP4 SUB DUP2 DUP6 DUP9 DUP1 EXTCODESIZE ISZERO DUP1 ISZERO PUSH2 0x3A1 JUMPI PUSH1 0x0 DUP1 REVERT JUMPDEST POP GAS CALL ISZERO DUP1 ISZERO PUSH2 0x3B5 JUMPI RETURNDATASIZE PUSH1 0x0 DUP1 RETURNDATACOPY RETURNDATASIZE PUSH1 0x0 REVERT JUMPDEST POP POP PUSH1 0x1 SLOAD PUSH1 0x40 DUP1 MLOAD DUP7 DUP2 MSTORE CALLVALUE PUSH1 0x20 DUP3 ADD MSTORE DUP2 MLOAD PUSH1 0x1 PUSH1 0x1 PUSH1 0xA0 SHL SUB SWAP1 SWAP4 AND SWAP6 POP PUSH32 0xAAC5CBF3F9E799B277C2EDD8EBA370B5AF3B31550F27CEA98DF0B1B07C039C8 SWAP5 POP DUP3 SWAP1 SUB ADD SWAP2 POP LOG2 POP JUMP JUMPDEST PUSH1 0x0 PUSH1 0x20 DUP3 DUP5 SUB SLT ISZERO PUSH2 0x415 JUMPI PUSH1 0x0 DUP1 REVERT JUMPDEST POP CALLDATALOAD SWAP2 SWAP1 POP JUMP JUMPDEST PUSH1 0x0 PUSH1 0x20 DUP3 DUP5 SUB SLT ISZERO PUSH2 0x42E JUMPI PUSH1 0x0 DUP1 REVERT JUMPDEST POP MLOAD SWAP2 SWAP1 POP JUMP JUMPDEST PUSH1 0x0 PUSH1 0x20 DUP3 DUP5 SUB SLT ISZERO PUSH2 0x447 JUMPI PUSH1 0x0 DUP1 REVERT JUMPDEST DUP2 MLOAD DUP1 ISZERO ISZERO DUP2 EQ PUSH2 0x457 JUMPI PUSH1 0x0 DUP1 REVERT JUMPDEST SWAP4 SWAP3 POP POP POP JUMP INVALID LOG2 PUSH5 0x6970667358 0x22 SLT KECCAK256 POP DUP6 0xD8 0xDA 0xCE MULMOD PUSH27 0x4CE686FCBB42A787A52324AB8B1E35DCF63D6582D3F3F218356473 PUSH16 0x6C634300081A00336080604052348015 PUSH2 0x10 JUMPI PUSH1 0x0 DUP1 REVERT JUMPDEST POP PUSH1 0x40 MLOAD PUSH2 0x1089 CODESIZE SUB DUP1 PUSH2 0x1089 DUP4 CODECOPY DUP2 ADD PUSH1 0x40 DUP2 SWAP1 MSTORE PUSH2 0x2F SWAP2 PUSH2 0x138 JUMP JUMPDEST PUSH1 0x1 PUSH1 0x1 PUSH1 0xA0 SHL SUB DUP3 AND PUSH2 0x8A JUMPI PUSH1 0x40 MLOAD PUSH3 0x461BCD PUSH1 0xE5 SHL DUP2 MSTORE PUSH1 0x20 PUSH1 0x4 DUP3 ADD MSTORE PUSH1 0x17 PUSH1 0x24 DUP3 ADD MSTORE PUSH32 0x496E76616C696420416C67656272612061646472657373000000000000000000 PUSH1 0x44 DUP3 ADD MSTORE PUSH1 0x64 ADD JUMPDEST PUSH1 0x40 MLOAD DUP1 SWAP2 SUB SWAP1 REVERT JUMPDEST PUSH1 0x1 PUSH1 0x1 PUSH1 0xA0 SHL SUB DUP2 AND PUSH2 0xE0 JUMPI PUSH1 0x40 MLOAD PUSH3 0x461BCD PUSH1 0xE5 SHL DUP2 MSTORE PUSH1 0x20 PUSH1 0x4 DUP3 ADD MSTORE PUSH1 0x14 PUSH1 0x24 DUP3 ADD MSTORE PUSH32 0x496E76616C696420574554482061646472657373000000000000000000000000 PUSH1 0x44 DUP3 ADD MSTORE PUSH1 0x64 ADD PUSH2 0x81 JUMP JUMPDEST PUSH1 0x0 DUP1 SLOAD PUSH1 0x1 PUSH1 0x1 PUSH1 0xA0 SHL SUB NOT SWAP1 DUP2 AND CALLER OR SWAP1 SWAP2 SSTORE PUSH1 0x1 DUP1 SLOAD PUSH1 0x1 PUSH1 0x1 PUSH1 0xA0 SHL SUB SWAP5 DUP6 AND SWAP1 DUP4 AND OR SWAP1 SSTORE PUSH1 0x2 DUP1 SLOAD SWAP3 SWAP1 SWAP4 AND SWAP2 AND OR SWAP1 SSTORE PUSH2 0x16B JUMP JUMPDEST DUP1 MLOAD PUSH1 0x1 PUSH1 0x1 PUSH1 0xA0 SHL SUB DUP2 AND DUP2 EQ PUSH2 0x133 JUMPI PUSH1 0x0 DUP1 REVERT JUMPDEST SWAP2 SWAP1 POP JUMP JUMPDEST PUSH1 0x0 DUP1 PUSH1 0x40 DUP4 DUP6 SUB SLT ISZERO PUSH2 0x14B JUMPI PUSH1 0x0 DUP1 REVERT JUMPDEST PUSH2 0x154 DUP4 PUSH2 0x11C JUMP JUMPDEST SWAP2 POP PUSH2 0x162 PUSH1 0x20 DUP5 ADD PUSH2 0x11C JUMP JUMPDEST SWAP1 POP SWAP3 POP SWAP3 SWAP1 POP JUMP JUMPDEST PUSH2 0xF0F DUP1 PUSH2 0x17A PUSH1 0x0 CODECOPY PUSH1 0x0 RETURN INVALID PUSH1 0x80 PUSH1 0x40 MSTORE PUSH1 0x4 CALLDATASIZE LT PUSH2 0xA0 JUMPI PUSH1 0x0 CALLDATALOAD PUSH1 0xE0 SHR DUP1 PUSH4 0x6882A888 GT PUSH2 0x64 JUMPI DUP1 PUSH4 0x6882A888 EQ PUSH2 0x166 JUMPI DUP1 PUSH4 0x8DA5CB5B EQ PUSH2 0x190 JUMPI DUP1 PUSH4 0xA000BF4F EQ PUSH2 0x1B0 JUMPI DUP1 PUSH4 0xA1634B14 EQ PUSH2 0x1D0 JUMPI DUP1 PUSH4 0xAD5C4648 EQ PUSH2 0x1E8 JUMPI DUP1 PUSH4 0xFE9440D7 EQ PUSH2 0x208 JUMPI PUSH1 0x0 DUP1 REVERT JUMPDEST DUP1 PUSH4 0x9FE2D34 EQ PUSH2 0xAC JUMPI DUP1 PUSH4 0x18FD7858 EQ PUSH2 0xCE JUMPI DUP1 PUSH4 0x24F8ECA7 EQ PUSH2 0xE1 JUMPI DUP1 PUSH4 0x3B7AB5B3 EQ PUSH2 0x11E JUMPI DUP1 PUSH4 0x5A2F0AE7 EQ PUSH2 0x14A JUMPI PUSH1 0x0 DUP1 REVERT JUMPDEST CALLDATASIZE PUSH2 0xA7 JUMPI STOP JUMPDEST PUSH1 0x0 DUP1 REVERT JUMPDEST CALLVALUE DUP1 ISZERO PUSH2 0xB8 JUMPI PUSH1 0x0 DUP1 REVERT JUMPDEST POP PUSH2 0xCC PUSH2 0xC7 CALLDATASIZE PUSH1 0x4 PUSH2 0xC5A JUMP JUMPDEST PUSH2 0x228 JUMP JUMPDEST STOP JUMPDEST PUSH2 0xCC PUSH2 0xDC CALLDATASIZE PUSH1 0x4 PUSH2 0xC77 JUMP JUMPDEST PUSH2 0x2C5 JUMP JUMPDEST CALLVALUE DUP1 ISZERO PUSH2 0xED JUMPI PUSH1 0x0 DUP1 REVERT JUMPDEST POP PUSH1 0x1 SLOAD PUSH2 0x101 SWAP1 PUSH1 0x1 PUSH1 0x1 PUSH1 0xA0 SHL SUB AND DUP2 JUMP JUMPDEST PUSH1 0x40 MLOAD PUSH1 0x1 PUSH1 0x1 PUSH1 0xA0 SHL SUB SWAP1 SWAP2 AND DUP2 MSTORE PUSH1 0x20 ADD JUMPDEST PUSH1 0x40 MLOAD DUP1 SWAP2 SUB SWAP1 RETURN JUMPDEST CALLVALUE DUP1 ISZERO PUSH2 0x12A JUMPI PUSH1 0x0 DUP1 REVERT JUMPDEST POP PUSH2 0x13C PUSH10 0xD3C21BCECCEDA1000000 DUP2 JUMP JUMPDEST PUSH1 0x40 MLOAD SWAP1 DUP2 MSTORE PUSH1 0x20 ADD PUSH2 0x115 JUMP JUMPDEST CALLVALUE DUP1 ISZERO PUSH2 0x156 JUMPI PUSH1 0x0 DUP1 REVERT JUMPDEST POP PUSH2 0x13C PUSH8 0x8AC7230489E80000 DUP2 JUMP JUMPDEST CALLVALUE DUP1 ISZERO PUSH2 0x172 JUMPI PUSH1 0x0 DUP1 REVERT JUMPDEST POP PUSH2 0x17D PUSH3 0xD89B4 DUP2 JUMP JUMPDEST PUSH1 0x40 MLOAD PUSH1 0x2 SWAP2 SWAP1 SWAP2 SIGNEXTEND DUP2 MSTORE PUSH1 0x20 ADD PUSH2 0x115 JUMP JUMPDEST CALLVALUE DUP1 ISZERO PUSH2 0x19C JUMPI PUSH1 0x0 DUP1 REVERT JUMPDEST POP PUSH1 0x0 SLOAD PUSH2 0x101 SWAP1 PUSH1 0x1 PUSH1 0x1 PUSH1 0xA0 SHL SUB AND DUP2 JUMP JUMPDEST CALLVALUE DUP1 ISZERO PUSH2 0x1BC JUMPI PUSH1 0x0 DUP1 REVERT JUMPDEST POP PUSH2 0x101 PUSH2 0x1CB CALLDATASIZE PUSH1 0x4 PUSH2 0xCA3 JUMP JUMPDEST PUSH2 0x8F6 JUMP JUMPDEST CALLVALUE DUP1 ISZERO PUSH2 0x1DC JUMPI PUSH1 0x0 DUP1 REVERT JUMPDEST POP PUSH2 0x17D PUSH3 0xD89B3 NOT DUP2 JUMP JUMPDEST CALLVALUE DUP1 ISZERO PUSH2 0x1F4 JUMPI PUSH1 0x0 DUP1 REVERT JUMPDEST POP PUSH1 0x2 SLOAD PUSH2 0x101 SWAP1 PUSH1 0x1 PUSH1 0x1 PUSH1 0xA0 SHL SUB AND DUP2 JUMP JUMPDEST CALLVALUE DUP1 ISZERO PUSH2 0x214 JUMPI PUSH1 0x0 DUP1 REVERT JUMPDEST POP PUSH2 0xCC PUSH2 0x223 CALLDATASIZE PUSH1 0x4 PUSH2 0xC5A JUMP JUMPDEST PUSH2 0x96C JUMP JUMPDEST PUSH1 0x0 SLOAD PUSH1 0x1 PUSH1 0x1 PUSH1 0xA0 SHL SUB AND CALLER EQ PUSH2 0x25B JUMPI PUSH1 0x40 MLOAD PUSH3 0x461BCD PUSH1 0xE5 SHL DUP2 MSTORE PUSH1 0x4 ADD PUSH2 0x252 SWAP1 PUSH2 0xCC5 JUMP JUMPDEST PUSH1 0x40 MLOAD DUP1 SWAP2 SUB SWAP1 REVERT JUMPDEST PUSH1 0x1 PUSH1 0x1 PUSH1 0xA0 SHL SUB DUP2 AND PUSH2 0x2A3 JUMPI PUSH1 0x40 MLOAD PUSH3 0x461BCD PUSH1 0xE5 SHL DUP2 MSTORE PUSH1 0x20 PUSH1 0x4 DUP3 ADD MSTORE PUSH1 0xF PUSH1 0x24 DUP3 ADD MSTORE PUSH15 0x496E76616C69642061646472657373 PUSH1 0x88 SHL PUSH1 0x44 DUP3 ADD MSTORE PUSH1 0x64 ADD PUSH2 0x252 JUMP JUMPDEST PUSH1 0x1 DUP1 SLOAD PUSH1 0x1 PUSH1 0x1 PUSH1 0xA0 SHL SUB NOT AND PUSH1 0x1 PUSH1 0x1 PUSH1 0xA0 SHL SUB SWAP3 SWAP1 SWAP3 AND SWAP2 SWAP1 SWAP2 OR SWAP1 SSTORE JUMP JUMPDEST PUSH1 0x0 SLOAD PUSH1 0x1 PUSH1 0x1 PUSH1 0xA0 SHL SUB AND CALLER EQ PUSH2 0x2EF JUMPI PUSH1 0x40 MLOAD PUSH3 0x461BCD PUSH1 0xE5 SHL DUP2 MSTORE PUSH1 0x4 ADD PUSH2 0x252 SWAP1 PUSH2 0xCC5 JUMP JUMPDEST PUSH1 0x0 CALLVALUE GT PUSH2 0x34E JUMPI PUSH1 0x40 MLOAD PUSH3 0x461BCD PUSH1 0xE5 SHL DUP2 MSTORE PUSH1 0x20 PUSH1 0x4 DUP3 ADD MSTORE PUSH1 0x26 PUSH1 0x24 DUP3 ADD MSTORE PUSH32 0x457468657220616D6F756E74206D757374206265206772656174657220746861 PUSH1 0x44 DUP3 ADD MSTORE PUSH6 0x6E207A65726F PUSH1 0xD0 SHL PUSH1 0x64 DUP3 ADD MSTORE PUSH1 0x84 ADD PUSH2 0x252 JUMP JUMPDEST PUSH1 0x0 DUP2 GT PUSH2 0x3AD JUMPI PUSH1 0x40 MLOAD PUSH3 0x461BCD PUSH1 0xE5 SHL DUP2 MSTORE PUSH1 0x20 PUSH1 0x4 DUP3 ADD MSTORE PUSH1 0x26 PUSH1 0x24 DUP3 ADD MSTORE PUSH32 0x546F6B656E20616D6F756E74206D757374206265206772656174657220746861 PUSH1 0x44 DUP3 ADD MSTORE PUSH6 0x6E207A65726F PUSH1 0xD0 SHL PUSH1 0x64 DUP3 ADD MSTORE PUSH1 0x84 ADD PUSH2 0x252 JUMP JUMPDEST PUSH1 0x0 PUSH10 0xD3C21BCECCEDA1000000 DUP3 GT PUSH2 0x3C6 JUMPI DUP2 PUSH2 0x3D2 JUMP JUMPDEST PUSH10 0xD3C21BCECCEDA1000000 JUMPDEST SWAP1 POP PUSH1 0x0 PUSH8 0x8AC7230489E80000 CALLVALUE GT PUSH2 0x3EB JUMPI CALLVALUE PUSH2 0x3F5 JUMP JUMPDEST PUSH8 0x8AC7230489E80000 JUMPDEST SWAP1 POP PUSH1 0x2 PUSH1 0x0 SWAP1 SLOAD SWAP1 PUSH2 0x100 EXP SWAP1 DIV PUSH1 0x1 PUSH1 0x1 PUSH1 0xA0 SHL SUB AND PUSH1 0x1 PUSH1 0x1 PUSH1 0xA0 SHL SUB AND PUSH4 0xD0E30DB0 DUP3 PUSH1 0x40 MLOAD DUP3 PUSH4 0xFFFFFFFF AND PUSH1 0xE0 SHL DUP2 MSTORE PUSH1 0x4 ADD PUSH1 0x0 PUSH1 0x40 MLOAD DUP1 DUP4 SUB DUP2 DUP6 DUP9 DUP1 EXTCODESIZE ISZERO DUP1 ISZERO PUSH2 0x447 JUMPI PUSH1 0x0 DUP1 REVERT JUMPDEST POP GAS CALL ISZERO DUP1 ISZERO PUSH2 0x45B JUMPI RETURNDATASIZE PUSH1 0x0 DUP1 RETURNDATACOPY RETURNDATASIZE PUSH1 0x0 REVERT JUMPDEST POP POP PUSH1 0x2 SLOAD PUSH1 0x40 MLOAD PUSH4 0x70A08231 PUSH1 0xE0 SHL DUP2 MSTORE ADDRESS PUSH1 0x4 DUP3 ADD MSTORE PUSH1 0x0 SWAP5 POP PUSH1 0x1 PUSH1 0x1 PUSH1 0xA0 SHL SUB SWAP1 SWAP2 AND SWAP3 POP PUSH4 0x70A08231 SWAP2 POP PUSH1 0x24 ADD PUSH1 0x20 PUSH1 0x40 MLOAD DUP1 DUP4 SUB DUP2 DUP7 GAS STATICCALL ISZERO DUP1 ISZERO PUSH2 0x4AB JUMPI RETURNDATASIZE PUSH1 0x0 DUP1 RETURNDATACOPY RETURNDATASIZE PUSH1 0x0 REVERT JUMPDEST POP POP POP POP PUSH1 0x40 MLOAD RETURNDATASIZE PUSH1 0x1F NOT PUSH1 0x1F DUP3 ADD AND DUP3 ADD DUP1 PUSH1 0x40 MSTORE POP DUP2 ADD SWAP1 PUSH2 0x4CF SWAP2 SWAP1 PUSH2 0xCFC JUMP JUMPDEST SWAP1 POP DUP2 DUP2 LT ISZERO PUSH2 0x521 JUMPI PUSH1 0x40 MLOAD PUSH3 0x461BCD PUSH1 0xE5 SHL DUP2 MSTORE PUSH1 0x20 PUSH1 0x4 DUP3 ADD MSTORE PUSH1 0x1E PUSH1 0x24 DUP3 ADD MSTORE PUSH32 0x4661696C656420746F207772617020457468657220696E746F20574554480000 PUSH1 0x44 DUP3 ADD MSTORE PUSH1 0x64 ADD PUSH2 0x252 JUMP JUMPDEST PUSH2 0x536 PUSH1 0x1 PUSH1 0x1 PUSH1 0xA0 SHL SUB DUP7 AND CALLER ADDRESS DUP7 PUSH2 0xA00 JUMP JUMPDEST PUSH1 0x2 SLOAD PUSH1 0x0 SWAP1 PUSH1 0x1 PUSH1 0x1 PUSH1 0xA0 SHL SUB SWAP1 DUP2 AND SWAP1 DUP8 AND LT PUSH2 0x560 JUMPI PUSH1 0x2 SLOAD PUSH1 0x1 PUSH1 0x1 PUSH1 0xA0 SHL SUB AND PUSH2 0x562 JUMP JUMPDEST DUP6 JUMPDEST PUSH1 0x2 SLOAD SWAP1 SWAP2 POP PUSH1 0x0 SWAP1 PUSH1 0x1 PUSH1 0x1 PUSH1 0xA0 SHL SUB SWAP1 DUP2 AND SWAP1 DUP9 AND LT PUSH2 0x584 JUMPI DUP7 PUSH2 0x591 JUMP JUMPDEST PUSH1 0x2 SLOAD PUSH1 0x1 PUSH1 0x1 PUSH1 0xA0 SHL SUB AND JUMPDEST SWAP1 POP PUSH1 0x0 PUSH2 0x59F DUP7 DUP7 PUSH2 0x8F6 JUMP JUMPDEST PUSH1 0x1 SLOAD PUSH1 0x40 MLOAD PUSH4 0x43A9D0CD PUSH1 0xE1 SHL DUP2 MSTORE PUSH1 0x1 PUSH1 0x1 PUSH1 0xA0 SHL SUB DUP7 DUP2 AND PUSH1 0x4 DUP4 ADD MSTORE DUP6 DUP2 AND PUSH1 0x24 DUP4 ADD MSTORE PUSH1 0x0 PUSH1 0x44 DUP4 ADD DUP2 SWAP1 MSTORE DUP2 DUP6 AND PUSH1 0x64 DUP5 ADD MSTORE SWAP4 SWAP5 POP SWAP1 SWAP2 AND SWAP1 PUSH4 0x8753A19A SWAP1 PUSH1 0x84 ADD PUSH1 0x20 PUSH1 0x40 MLOAD DUP1 DUP4 SUB DUP2 PUSH1 0x0 DUP8 GAS CALL ISZERO DUP1 ISZERO PUSH2 0x607 JUMPI RETURNDATASIZE PUSH1 0x0 DUP1 RETURNDATACOPY RETURNDATASIZE PUSH1 0x0 REVERT JUMPDEST POP POP POP POP PUSH1 0x40 MLOAD RETURNDATASIZE PUSH1 0x1F NOT PUSH1 0x1F DUP3 ADD AND DUP3 ADD DUP1 PUSH1 0x40 MSTORE POP DUP2 ADD SWAP1 PUSH2 0x62B SWAP2 SWAP1 PUSH2 0xD15 JUMP JUMPDEST SWAP1 POP PUSH1 0x1 PUSH1 0x1 PUSH1 0xA0 SHL SUB DUP2 AND PUSH2 0x683 JUMPI PUSH1 0x40 MLOAD PUSH3 0x461BCD PUSH1 0xE5 SHL DUP2 MSTORE PUSH1 0x20 PUSH1 0x4 DUP3 ADD MSTORE PUSH1 0x1D PUSH1 0x24 DUP3 ADD MSTORE PUSH32 0x4661696C656420746F2063726561746520416C676562726120706F6F6C000000 PUSH1 0x44 DUP3 ADD MSTORE PUSH1 0x64 ADD PUSH2 0x252 JUMP JUMPDEST DUP9 PUSH1 0x1 PUSH1 0x1 PUSH1 0xA0 SHL SUB AND DUP2 PUSH1 0x1 PUSH1 0x1 PUSH1 0xA0 SHL SUB AND PUSH32 0xBC269B08661FA7948AABBB2AC773747166492E0AC63735B66898001E237A1BC DUP10 DUP10 PUSH1 0x40 MLOAD PUSH2 0x6D1 SWAP3 SWAP2 SWAP1 SWAP2 DUP3 MSTORE PUSH1 0x20 DUP3 ADD MSTORE PUSH1 0x40 ADD SWAP1 JUMP JUMPDEST PUSH1 0x40 MLOAD DUP1 SWAP2 SUB SWAP1 LOG3 PUSH1 0x1 SLOAD PUSH2 0x6F3 SWAP1 PUSH1 0x1 PUSH1 0x1 PUSH1 0xA0 SHL SUB DUP12 DUP2 AND SWAP2 AND DUP10 PUSH2 0xAFA JUMP JUMPDEST PUSH1 0x1 SLOAD PUSH1 0x2 SLOAD PUSH2 0x710 SWAP2 PUSH1 0x1 PUSH1 0x1 PUSH1 0xA0 SHL SUB SWAP2 DUP3 AND SWAP2 AND DUP8 PUSH2 0xAFA JUMP JUMPDEST PUSH1 0x40 DUP1 MLOAD PUSH2 0x160 DUP2 ADD DUP3 MSTORE PUSH1 0x1 PUSH1 0x1 PUSH1 0xA0 SHL SUB DUP1 DUP8 AND DUP1 DUP4 MSTORE DUP7 DUP3 AND PUSH1 0x20 DUP5 ADD MSTORE PUSH1 0x0 SWAP4 DUP4 ADD DUP5 SWAP1 MSTORE PUSH3 0xD89B3 NOT PUSH1 0x60 DUP5 ADD MSTORE PUSH3 0xD89B4 PUSH1 0x80 DUP5 ADD MSTORE PUSH1 0xA0 DUP4 ADD SWAP2 DUP14 AND EQ PUSH2 0x75E JUMPI DUP8 PUSH2 0x760 JUMP JUMPDEST DUP10 JUMPDEST DUP2 MSTORE PUSH1 0x20 ADD DUP12 PUSH1 0x1 PUSH1 0x1 PUSH1 0xA0 SHL SUB AND DUP8 PUSH1 0x1 PUSH1 0x1 PUSH1 0xA0 SHL SUB AND EQ PUSH2 0x784 JUMPI DUP10 PUSH2 0x786 JUMP JUMPDEST DUP8 JUMPDEST DUP2 MSTORE PUSH1 0x0 PUSH1 0x20 DUP3 ADD DUP2 SWAP1 MSTORE PUSH1 0x40 DUP3 ADD MSTORE ADDRESS PUSH1 0x60 DUP3 ADD MSTORE PUSH1 0x80 ADD PUSH2 0x7AB TIMESTAMP PUSH2 0xE10 PUSH2 0xD32 JUMP JUMPDEST SWAP1 MSTORE PUSH1 0x1 SLOAD PUSH1 0x40 MLOAD PUSH4 0xFE3F3BE7 PUSH1 0xE0 SHL DUP2 MSTORE SWAP2 SWAP3 POP PUSH1 0x0 SWAP2 DUP3 SWAP2 DUP3 SWAP2 DUP3 SWAP2 PUSH1 0x1 PUSH1 0x1 PUSH1 0xA0 SHL SUB AND SWAP1 PUSH4 0xFE3F3BE7 SWAP1 PUSH2 0x7E7 SWAP1 DUP9 SWAP1 PUSH1 0x4 ADD PUSH2 0xD53 JUMP JUMPDEST PUSH1 0x80 PUSH1 0x40 MLOAD DUP1 DUP4 SUB DUP2 PUSH1 0x0 DUP8 GAS CALL ISZERO DUP1 ISZERO PUSH2 0x806 JUMPI RETURNDATASIZE PUSH1 0x0 DUP1 RETURNDATACOPY RETURNDATASIZE PUSH1 0x0 REVERT JUMPDEST POP POP POP POP PUSH1 0x40 MLOAD RETURNDATASIZE PUSH1 0x1F NOT PUSH1 0x1F DUP3 ADD AND DUP3 ADD DUP1 PUSH1 0x40 MSTORE POP DUP2 ADD SWAP1 PUSH2 0x82A SWAP2 SWAP1 PUSH2 0xE1B JUMP JUMPDEST SWAP4 POP SWAP4 POP SWAP4 POP SWAP4 POP PUSH1 0x0 DUP4 PUSH1 0x1 PUSH1 0x1 PUSH1 0x80 SHL SUB AND GT PUSH2 0x88B JUMPI PUSH1 0x40 MLOAD PUSH3 0x461BCD PUSH1 0xE5 SHL DUP2 MSTORE PUSH1 0x20 PUSH1 0x4 DUP3 ADD MSTORE PUSH1 0x18 PUSH1 0x24 DUP3 ADD MSTORE PUSH32 0x4661696C656420746F206D696E74206C69717569646974790000000000000000 PUSH1 0x44 DUP3 ADD MSTORE PUSH1 0x64 ADD PUSH2 0x252 JUMP JUMPDEST PUSH1 0x40 DUP1 MLOAD DUP6 DUP2 MSTORE PUSH1 0x1 PUSH1 0x1 PUSH1 0x80 SHL SUB DUP6 AND PUSH1 0x20 DUP3 ADD MSTORE SWAP1 DUP2 ADD DUP4 SWAP1 MSTORE PUSH1 0x60 DUP2 ADD DUP3 SWAP1 MSTORE PUSH1 0x1 PUSH1 0x1 PUSH1 0xA0 SHL SUB DUP8 AND SWAP1 PUSH32 0x936F1605239D50A44520651CB0698A8F77EEA34A13F43A4EAC22872B1BAF48CC SWAP1 PUSH1 0x80 ADD PUSH1 0x40 MLOAD DUP1 SWAP2 SUB SWAP1 LOG2 POP POP POP POP POP POP POP POP POP POP POP POP POP POP JUMP JUMPDEST PUSH1 0x0 DUP1 PUSH10 0xD3C21BCECCEDA1000000 DUP5 GT PUSH2 0x910 JUMPI DUP4 PUSH2 0x91C JUMP JUMPDEST PUSH10 0xD3C21BCECCEDA1000000 JUMPDEST SWAP1 POP PUSH1 0x0 PUSH8 0x8AC7230489E80000 DUP5 GT PUSH2 0x935 JUMPI DUP4 PUSH2 0x93F JUMP JUMPDEST PUSH8 0x8AC7230489E80000 JUMPDEST SWAP1 POP PUSH1 0x0 PUSH2 0x951 DUP4 PUSH1 0x60 DUP5 SWAP1 SHL PUSH2 0xE66 JUMP JUMPDEST SWAP1 POP PUSH1 0x30 PUSH2 0x95E DUP3 PUSH2 0xBEB JUMP JUMPDEST SWAP1 SHL SWAP4 POP POP POP POP JUMPDEST SWAP3 SWAP2 POP POP JUMP JUMPDEST PUSH1 0x0 SLOAD PUSH1 0x1 PUSH1 0x1 PUSH1 0xA0 SHL SUB AND CALLER EQ PUSH2 0x996 JUMPI PUSH1 0x40 MLOAD PUSH3 0x461BCD PUSH1 0xE5 SHL DUP2 MSTORE PUSH1 0x4 ADD PUSH2 0x252 SWAP1 PUSH2 0xCC5 JUMP JUMPDEST PUSH1 0x1 PUSH1 0x1 PUSH1 0xA0 SHL SUB DUP2 AND PUSH2 0x9DE JUMPI PUSH1 0x40 MLOAD PUSH3 0x461BCD PUSH1 0xE5 SHL DUP2 MSTORE PUSH1 0x20 PUSH1 0x4 DUP3 ADD MSTORE PUSH1 0xF PUSH1 0x24 DUP3 ADD MSTORE PUSH15 0x496E76616C69642061646472657373 PUSH1 0x88 SHL PUSH1 0x44 DUP3 ADD MSTORE PUSH1 0x64 ADD PUSH2 0x252 JUMP JUMPDEST PUSH1 0x2 DUP1 SLOAD PUSH1 0x1 PUSH1 0x1 PUSH1 0xA0 SHL SUB NOT AND PUSH1 0x1 PUSH1 0x1 PUSH1 0xA0 SHL SUB SWAP3 SWAP1 SWAP3 AND SWAP2 SWAP1 SWAP2 OR SWAP1 SSTORE JUMP JUMPDEST PUSH1 0x40 DUP1 MLOAD PUSH1 0x1 PUSH1 0x1 PUSH1 0xA0 SHL SUB DUP6 DUP2 AND PUSH1 0x24 DUP4 ADD MSTORE DUP5 DUP2 AND PUSH1 0x44 DUP4 ADD MSTORE PUSH1 0x64 DUP1 DUP4 ADD DUP6 SWAP1 MSTORE DUP4 MLOAD DUP1 DUP5 SUB SWAP1 SWAP2 ADD DUP2 MSTORE PUSH1 0x84 SWAP1 SWAP3 ADD DUP4 MSTORE PUSH1 0x20 DUP3 ADD DUP1 MLOAD PUSH1 0x1 PUSH1 0x1 PUSH1 0xE0 SHL SUB AND PUSH4 0x23B872DD PUSH1 0xE0 SHL OR SWAP1 MSTORE SWAP2 MLOAD PUSH1 0x0 SWAP3 DUP4 SWAP3 SWAP1 DUP9 AND SWAP2 PUSH2 0xA64 SWAP2 SWAP1 PUSH2 0xE88 JUMP JUMPDEST PUSH1 0x0 PUSH1 0x40 MLOAD DUP1 DUP4 SUB DUP2 PUSH1 0x0 DUP7 GAS CALL SWAP2 POP POP RETURNDATASIZE DUP1 PUSH1 0x0 DUP2 EQ PUSH2 0xAA1 JUMPI PUSH1 0x40 MLOAD SWAP2 POP PUSH1 0x1F NOT PUSH1 0x3F RETURNDATASIZE ADD AND DUP3 ADD PUSH1 0x40 MSTORE RETURNDATASIZE DUP3 MSTORE RETURNDATASIZE PUSH1 0x0 PUSH1 0x20 DUP5 ADD RETURNDATACOPY PUSH2 0xAA6 JUMP JUMPDEST PUSH1 0x60 SWAP2 POP JUMPDEST POP SWAP2 POP SWAP2 POP DUP2 ISZERO DUP1 PUSH2 0xAD4 JUMPI POP DUP1 MLOAD ISZERO DUP1 ISZERO SWAP1 PUSH2 0xAD4 JUMPI POP DUP1 DUP1 PUSH1 0x20 ADD SWAP1 MLOAD DUP2 ADD SWAP1 PUSH2 0xAD2 SWAP2 SWAP1 PUSH2 0xEB7 JUMP JUMPDEST ISZERO JUMPDEST ISZERO PUSH2 0xAF2 JUMPI PUSH1 0x40 MLOAD PUSH4 0x817275AB PUSH1 0xE0 SHL DUP2 MSTORE PUSH1 0x4 ADD PUSH1 0x40 MLOAD DUP1 SWAP2 SUB SWAP1 REVERT JUMPDEST POP POP POP POP POP POP JUMP JUMPDEST PUSH1 0x40 DUP1 MLOAD PUSH1 0x1 PUSH1 0x1 PUSH1 0xA0 SHL SUB DUP5 DUP2 AND PUSH1 0x24 DUP4 ADD MSTORE PUSH1 0x44 DUP1 DUP4 ADD DUP6 SWAP1 MSTORE DUP4 MLOAD DUP1 DUP5 SUB SWAP1 SWAP2 ADD DUP2 MSTORE PUSH1 0x64 SWAP1 SWAP3 ADD DUP4 MSTORE PUSH1 0x20 DUP3 ADD DUP1 MLOAD PUSH1 0x1 PUSH1 0x1 PUSH1 0xE0 SHL SUB AND PUSH4 0x95EA7B3 PUSH1 0xE0 SHL OR SWAP1 MSTORE SWAP2 MLOAD PUSH1 0x0 SWAP3 DUP4 SWAP3 SWAP1 DUP8 AND SWAP2 PUSH2 0xB56 SWAP2 SWAP1 PUSH2 0xE88 JUMP JUMPDEST PUSH1 0x0 PUSH1 0x40 MLOAD DUP1 DUP4 SUB DUP2 PUSH1 0x0 DUP7 GAS CALL SWAP2 POP POP RETURNDATASIZE DUP1 PUSH1 0x0 DUP2 EQ PUSH2 0xB93 JUMPI PUSH1 0x40 MLOAD SWAP2 POP PUSH1 0x1F NOT PUSH1 0x3F RETURNDATASIZE ADD AND DUP3 ADD PUSH1 0x40 MSTORE RETURNDATASIZE DUP3 MSTORE RETURNDATASIZE PUSH1 0x0 PUSH1 0x20 DUP5 ADD RETURNDATACOPY PUSH2 0xB98 JUMP JUMPDEST PUSH1 0x60 SWAP2 POP JUMPDEST POP SWAP2 POP SWAP2 POP DUP2 ISZERO DUP1 PUSH2 0xBC6 JUMPI POP DUP1 MLOAD ISZERO DUP1 ISZERO SWAP1 PUSH2 0xBC6 JUMPI POP DUP1 DUP1 PUSH1 0x20 ADD SWAP1 MLOAD DUP2 ADD SWAP1 PUSH2 0xBC4 SWAP2 SWAP1 PUSH2 0xEB7 JUMP JUMPDEST ISZERO JUMPDEST ISZERO PUSH2 0xBE4 JUMPI PUSH1 0x40 MLOAD PUSH4 0x7CD36C65 PUSH1 0xE1 SHL DUP2 MSTORE PUSH1 0x4 ADD PUSH1 0x40 MLOAD DUP1 SWAP2 SUB SWAP1 REVERT JUMPDEST POP POP POP POP POP JUMP JUMPDEST PUSH1 0x0 DUP1 PUSH1 0x2 PUSH2 0xBFB DUP5 PUSH1 0x1 PUSH2 0xD32 JUMP JUMPDEST PUSH2 0xC05 SWAP2 SWAP1 PUSH2 0xE66 JUMP JUMPDEST SWAP1 POP DUP3 JUMPDEST DUP1 DUP3 LT ISZERO PUSH2 0xC3B JUMPI POP DUP1 PUSH1 0x2 DUP2 PUSH2 0xC20 DUP2 DUP8 PUSH2 0xE66 JUMP JUMPDEST PUSH2 0xC2A SWAP2 SWAP1 PUSH2 0xD32 JUMP JUMPDEST PUSH2 0xC34 SWAP2 SWAP1 PUSH2 0xE66 JUMP JUMPDEST SWAP2 POP PUSH2 0xC09 JUMP JUMPDEST SWAP4 SWAP3 POP POP POP JUMP JUMPDEST PUSH1 0x1 PUSH1 0x1 PUSH1 0xA0 SHL SUB DUP2 AND DUP2 EQ PUSH2 0xC57 JUMPI PUSH1 0x0 DUP1 REVERT JUMPDEST POP JUMP JUMPDEST PUSH1 0x0 PUSH1 0x20 DUP3 DUP5 SUB SLT ISZERO PUSH2 0xC6C JUMPI PUSH1 0x0 DUP1 REVERT JUMPDEST DUP2 CALLDATALOAD PUSH2 0xC3B DUP2 PUSH2 0xC42 JUMP JUMPDEST PUSH1 0x0 DUP1 PUSH1 0x40 DUP4 DUP6 SUB SLT ISZERO PUSH2 0xC8A JUMPI PUSH1 0x0 DUP1 REVERT JUMPDEST DUP3 CALLDATALOAD PUSH2 0xC95 DUP2 PUSH2 0xC42 JUMP JUMPDEST SWAP5 PUSH1 0x20 SWAP4 SWAP1 SWAP4 ADD CALLDATALOAD SWAP4 POP POP POP JUMP JUMPDEST PUSH1 0x0 DUP1 PUSH1 0x40 DUP4 DUP6 SUB SLT ISZERO PUSH2 0xCB6 JUMPI PUSH1 0x0 DUP1 REVERT JUMPDEST POP POP DUP1 CALLDATALOAD SWAP3 PUSH1 0x20 SWAP1 SWAP2 ADD CALLDATALOAD SWAP2 POP JUMP JUMPDEST PUSH1 0x20 DUP1 DUP3 MSTORE PUSH1 0x18 SWAP1 DUP3 ADD MSTORE PUSH32 0x4F6E6C79206F776E65722063616E2063616C6C20746869730000000000000000 PUSH1 0x40 DUP3 ADD MSTORE PUSH1 0x60 ADD SWAP1 JUMP JUMPDEST PUSH1 0x0 PUSH1 0x20 DUP3 DUP5 SUB SLT ISZERO PUSH2 0xD0E JUMPI PUSH1 0x0 DUP1 REVERT JUMPDEST POP MLOAD SWAP2 SWAP1 POP JUMP JUMPDEST PUSH1 0x0 PUSH1 0x20 DUP3 DUP5 SUB SLT ISZERO PUSH2 0xD27 JUMPI PUSH1 0x0 DUP1 REVERT JUMPDEST DUP2 MLOAD PUSH2 0xC3B DUP2 PUSH2 0xC42 JUMP JUMPDEST DUP1 DUP3 ADD DUP1 DUP3 GT ISZERO PUSH2 0x966 JUMPI PUSH4 0x4E487B71 PUSH1 0xE0 SHL PUSH1 0x0 MSTORE PUSH1 0x11 PUSH1 0x4 MSTORE PUSH1 0x24 PUSH1 0x0 REVERT JUMPDEST DUP2 MLOAD PUSH1 0x1 PUSH1 0x1 PUSH1 0xA0 SHL SUB AND DUP2 MSTORE PUSH2 0x160 DUP2 ADD PUSH1 0x20 DUP4 ADD MLOAD PUSH2 0xD7F PUSH1 0x20 DUP5 ADD DUP3 PUSH1 0x1 PUSH1 0x1 PUSH1 0xA0 SHL SUB AND SWAP1 MSTORE JUMP JUMPDEST POP PUSH1 0x40 DUP4 ADD MLOAD PUSH2 0xD9A PUSH1 0x40 DUP5 ADD DUP3 PUSH1 0x1 PUSH1 0x1 PUSH1 0xA0 SHL SUB AND SWAP1 MSTORE JUMP JUMPDEST POP PUSH1 0x60 DUP4 ADD MLOAD PUSH2 0xDAF PUSH1 0x60 DUP5 ADD DUP3 PUSH1 0x2 SIGNEXTEND SWAP1 MSTORE JUMP JUMPDEST POP PUSH1 0x80 DUP4 ADD MLOAD PUSH2 0xDC4 PUSH1 0x80 DUP5 ADD DUP3 PUSH1 0x2 SIGNEXTEND SWAP1 MSTORE JUMP JUMPDEST POP PUSH1 0xA0 DUP4 ADD MLOAD PUSH1 0xA0 DUP4 ADD MSTORE PUSH1 0xC0 DUP4 ADD MLOAD PUSH1 0xC0 DUP4 ADD MSTORE PUSH1 0xE0 DUP4 ADD MLOAD PUSH1 0xE0 DUP4 ADD MSTORE PUSH2 0x100 DUP4 ADD MLOAD PUSH2 0x100 DUP4 ADD MSTORE PUSH2 0x120 DUP4 ADD MLOAD PUSH2 0xE0B PUSH2 0x120 DUP5 ADD DUP3 PUSH1 0x1 PUSH1 0x1 PUSH1 0xA0 SHL SUB AND SWAP1 MSTORE JUMP JUMPDEST POP PUSH2 0x140 SWAP3 DUP4 ADD MLOAD SWAP2 SWAP1 SWAP3 ADD MSTORE SWAP1 JUMP JUMPDEST PUSH1 0x0 DUP1 PUSH1 0x0 DUP1 PUSH1 0x80 DUP6 DUP8 SUB SLT ISZERO PUSH2 0xE31 JUMPI PUSH1 0x0 DUP1 REVERT JUMPDEST DUP5 MLOAD PUSH1 0x20 DUP7 ADD MLOAD SWAP1 SWAP5 POP PUSH1 0x1 PUSH1 0x1 PUSH1 0x80 SHL SUB DUP2 AND DUP2 EQ PUSH2 0xE50 JUMPI PUSH1 0x0 DUP1 REVERT JUMPDEST PUSH1 0x40 DUP7 ADD MLOAD PUSH1 0x60 SWAP1 SWAP7 ADD MLOAD SWAP5 SWAP8 SWAP1 SWAP7 POP SWAP3 POP POP POP JUMP JUMPDEST PUSH1 0x0 DUP3 PUSH2 0xE83 JUMPI PUSH4 0x4E487B71 PUSH1 0xE0 SHL PUSH1 0x0 MSTORE PUSH1 0x12 PUSH1 0x4 MSTORE PUSH1 0x24 PUSH1 0x0 REVERT JUMPDEST POP DIV SWAP1 JUMP JUMPDEST PUSH1 0x0 DUP3 MLOAD PUSH1 0x0 JUMPDEST DUP2 DUP2 LT ISZERO PUSH2 0xEA9 JUMPI PUSH1 0x20 DUP2 DUP7 ADD DUP2 ADD MLOAD DUP6 DUP4 ADD MSTORE ADD PUSH2 0xE8F JUMP JUMPDEST POP PUSH1 0x0 SWAP3 ADD SWAP2 DUP3 MSTORE POP SWAP2 SWAP1 POP JUMP JUMPDEST PUSH1 0x0 PUSH1 0x20 DUP3 DUP5 SUB SLT ISZERO PUSH2 0xEC9 JUMPI PUSH1 0x0 DUP1 REVERT JUMPDEST DUP2 MLOAD DUP1 ISZERO ISZERO DUP2 EQ PUSH2 0xC3B JUMPI PUSH1 0x0 DUP1 REVERT INVALID LOG2 PUSH5 0x6970667358 0x22 SLT KECCAK256 0xAB 0xD2 CREATE2 OR PUSH2 0xDBB7 TIMESTAMP CALLER CODESIZE PUSH29 0x2665C20711E70B0F13E08235F83275D9EE19345AF764736F6C63430008 BYTE STOP CALLER PUSH1 0x80 PUSH1 0x40 MSTORE PUSH1 0x2 DUP1 SLOAD PUSH1 0xFF NOT AND PUSH1 0x12 OR SWAP1 SSTORE CALLVALUE DUP1 ISZERO PUSH2 0x1D JUMPI PUSH1 0x0 DUP1 REVERT JUMPDEST POP PUSH1 0x40 MLOAD PUSH2 0xA33 CODESIZE SUB DUP1 PUSH2 0xA33 DUP4 CODECOPY DUP2 ADD PUSH1 0x40 DUP2 SWAP1 MSTORE PUSH2 0x3C SWAP2 PUSH2 0x160 JUMP JUMPDEST PUSH1 0x0 PUSH2 0x48 DUP5 DUP3 PUSH2 0x25B JUMP JUMPDEST POP PUSH1 0x1 PUSH2 0x55 DUP4 DUP3 PUSH2 0x25B JUMP JUMPDEST POP PUSH1 0x3 DUP2 SWAP1 SSTORE CALLER PUSH1 0x0 DUP2 DUP2 MSTORE PUSH1 0x4 PUSH1 0x20 SWAP1 DUP2 MSTORE PUSH1 0x40 DUP1 DUP4 KECCAK256 DUP6 SWAP1 SSTORE MLOAD DUP5 DUP2 MSTORE PUSH32 0xDDF252AD1BE2C89B69C2B068FC378DAA952BA7F163C4A11628F55A4DF523B3EF SWAP2 ADD PUSH1 0x40 MLOAD DUP1 SWAP2 SUB SWAP1 LOG3 POP POP POP PUSH2 0x319 JUMP JUMPDEST PUSH4 0x4E487B71 PUSH1 0xE0 SHL PUSH1 0x0 MSTORE PUSH1 0x41 PUSH1 0x4 MSTORE PUSH1 0x24 PUSH1 0x0 REVERT JUMPDEST PUSH1 0x0 DUP3 PUSH1 0x1F DUP4 ADD SLT PUSH2 0xCE JUMPI PUSH1 0x0 DUP1 REVERT JUMPDEST DUP2 MLOAD PUSH1 0x1 PUSH1 0x1 PUSH1 0x40 SHL SUB DUP2 GT ISZERO PUSH2 0xE7 JUMPI PUSH2 0xE7 PUSH2 0xA7 JUMP JUMPDEST PUSH1 0x40 MLOAD PUSH1 0x1F DUP3 ADD PUSH1 0x1F NOT SWAP1 DUP2 AND PUSH1 0x3F ADD AND DUP2 ADD PUSH1 0x1 PUSH1 0x1 PUSH1 0x40 SHL SUB DUP2 GT DUP3 DUP3 LT OR ISZERO PUSH2 0x115 JUMPI PUSH2 0x115 PUSH2 0xA7 JUMP JUMPDEST PUSH1 0x40 MSTORE DUP2 DUP2 MSTORE DUP4 DUP3 ADD PUSH1 0x20 ADD DUP6 LT ISZERO PUSH2 0x12D JUMPI PUSH1 0x0 DUP1 REVERT JUMPDEST PUSH1 0x0 JUMPDEST DUP3 DUP2 LT ISZERO PUSH2 0x14C JUMPI PUSH1 0x20 DUP2 DUP7 ADD DUP2 ADD MLOAD DUP4 DUP4 ADD DUP3 ADD MSTORE ADD PUSH2 0x130 JUMP JUMPDEST POP PUSH1 0x0 SWAP2 DUP2 ADD PUSH1 0x20 ADD SWAP2 SWAP1 SWAP2 MSTORE SWAP4 SWAP3 POP POP POP JUMP JUMPDEST PUSH1 0x0 DUP1 PUSH1 0x0 PUSH1 0x60 DUP5 DUP7 SUB SLT ISZERO PUSH2 0x175 JUMPI PUSH1 0x0 DUP1 REVERT JUMPDEST DUP4 MLOAD PUSH1 0x1 PUSH1 0x1 PUSH1 0x40 SHL SUB DUP2 GT ISZERO PUSH2 0x18B JUMPI PUSH1 0x0 DUP1 REVERT JUMPDEST PUSH2 0x197 DUP7 DUP3 DUP8 ADD PUSH2 0xBD JUMP JUMPDEST PUSH1 0x20 DUP7 ADD MLOAD SWAP1 SWAP5 POP SWAP1 POP PUSH1 0x1 PUSH1 0x1 PUSH1 0x40 SHL SUB DUP2 GT ISZERO PUSH2 0x1B5 JUMPI PUSH1 0x0 DUP1 REVERT JUMPDEST PUSH2 0x1C1 DUP7 DUP3 DUP8 ADD PUSH2 0xBD JUMP JUMPDEST SWAP3 POP POP PUSH1 0x40 DUP5 ADD MLOAD SWAP1 POP SWAP3 POP SWAP3 POP SWAP3 JUMP JUMPDEST PUSH1 0x1 DUP2 DUP2 SHR SWAP1 DUP3 AND DUP1 PUSH2 0x1E6 JUMPI PUSH1 0x7F DUP3 AND SWAP2 POP JUMPDEST PUSH1 0x20 DUP3 LT DUP2 SUB PUSH2 0x206 JUMPI PUSH4 0x4E487B71 PUSH1 0xE0 SHL PUSH1 0x0 MSTORE PUSH1 0x22 PUSH1 0x4 MSTORE PUSH1 0x24 PUSH1 0x0 REVERT JUMPDEST POP SWAP2 SWAP1 POP JUMP JUMPDEST PUSH1 0x1F DUP3 GT ISZERO PUSH2 0x256 JUMPI DUP1 PUSH1 0x0 MSTORE PUSH1 0x20 PUSH1 0x0 KECCAK256 PUSH1 0x1F DUP5 ADD PUSH1 0x5 SHR DUP2 ADD PUSH1 0x20 DUP6 LT ISZERO PUSH2 0x233 JUMPI POP DUP1 JUMPDEST PUSH1 0x1F DUP5 ADD PUSH1 0x5 SHR DUP3 ADD SWAP2 POP JUMPDEST DUP2 DUP2 LT ISZERO PUSH2 0x253 JUMPI PUSH1 0x0 DUP2 SSTORE PUSH1 0x1 ADD PUSH2 0x23F JUMP JUMPDEST POP POP JUMPDEST POP POP POP JUMP JUMPDEST DUP2 MLOAD PUSH1 0x1 PUSH1 0x1 PUSH1 0x40 SHL SUB DUP2 GT ISZERO PUSH2 0x274 JUMPI PUSH2 0x274 PUSH2 0xA7 JUMP JUMPDEST PUSH2 0x288 DUP2 PUSH2 0x282 DUP5 SLOAD PUSH2 0x1D2 JUMP JUMPDEST DUP5 PUSH2 0x20C JUMP JUMPDEST PUSH1 0x20 PUSH1 0x1F DUP3 GT PUSH1 0x1 DUP2 EQ PUSH2 0x2BC JUMPI PUSH1 0x0 DUP4 ISZERO PUSH2 0x2A4 JUMPI POP DUP5 DUP3 ADD MLOAD JUMPDEST PUSH1 0x0 NOT PUSH1 0x3 DUP6 SWAP1 SHL SHR NOT AND PUSH1 0x1 DUP5 SWAP1 SHL OR DUP5 SSTORE PUSH2 0x253 JUMP JUMPDEST PUSH1 0x0 DUP5 DUP2 MSTORE PUSH1 0x20 DUP2 KECCAK256 PUSH1 0x1F NOT DUP6 AND SWAP2 JUMPDEST DUP3 DUP2 LT ISZERO PUSH2 0x2EC JUMPI DUP8 DUP6 ADD MLOAD DUP3 SSTORE PUSH1 0x20 SWAP5 DUP6 ADD SWAP5 PUSH1 0x1 SWAP1 SWAP3 ADD SWAP2 ADD PUSH2 0x2CC JUMP JUMPDEST POP DUP5 DUP3 LT ISZERO PUSH2 0x30A JUMPI DUP7 DUP5 ADD MLOAD PUSH1 0x0 NOT PUSH1 0x3 DUP8 SWAP1 SHL PUSH1 0xF8 AND SHR NOT AND DUP2 SSTORE JUMPDEST POP POP POP POP PUSH1 0x1 SWAP1 DUP2 SHL ADD SWAP1 SSTORE POP JUMP JUMPDEST PUSH2 0x70B DUP1 PUSH2 0x328 PUSH1 0x0 CODECOPY PUSH1 0x0 RETURN INVALID PUSH1 0x80 PUSH1 0x40 MSTORE CALLVALUE DUP1 ISZERO PUSH2 0x10 JUMPI PUSH1 0x0 DUP1 REVERT JUMPDEST POP PUSH1 0x4 CALLDATASIZE LT PUSH2 0x93 JUMPI PUSH1 0x0 CALLDATALOAD PUSH1 0xE0 SHR DUP1 PUSH4 0x313CE567 GT PUSH2 0x66 JUMPI DUP1 PUSH4 0x313CE567 EQ PUSH2 0x103 JUMPI DUP1 PUSH4 0x70A08231 EQ PUSH2 0x122 JUMPI DUP1 PUSH4 0x95D89B41 EQ PUSH2 0x142 JUMPI DUP1 PUSH4 0xA9059CBB EQ PUSH2 0x14A JUMPI DUP1 PUSH4 0xDD62ED3E EQ PUSH2 0x15D JUMPI PUSH1 0x0 DUP1 REVERT JUMPDEST DUP1 PUSH4 0x6FDDE03 EQ PUSH2 0x98 JUMPI DUP1 PUSH4 0x95EA7B3 EQ PUSH2 0xB6 JUMPI DUP1 PUSH4 0x18160DDD EQ PUSH2 0xD9 JUMPI DUP1 PUSH4 0x23B872DD EQ PUSH2 0xF0 JUMPI JUMPDEST PUSH1 0x0 DUP1 REVERT JUMPDEST PUSH2 0xA0 PUSH2 0x188 JUMP JUMPDEST PUSH1 0x40 MLOAD PUSH2 0xAD SWAP2 SWAP1 PUSH2 0x4F8 JUMP JUMPDEST PUSH1 0x40 MLOAD DUP1 SWAP2 SUB SWAP1 RETURN JUMPDEST PUSH2 0xC9 PUSH2 0xC4 CALLDATASIZE PUSH1 0x4 PUSH2 0x562 JUMP JUMPDEST PUSH2 0x216 JUMP JUMPDEST PUSH1 0x40 MLOAD SWAP1 ISZERO ISZERO DUP2 MSTORE PUSH1 0x20 ADD PUSH2 0xAD JUMP JUMPDEST PUSH2 0xE2 PUSH1 0x3 SLOAD DUP2 JUMP JUMPDEST PUSH1 0x40 MLOAD SWAP1 DUP2 MSTORE PUSH1 0x20 ADD PUSH2 0xAD JUMP JUMPDEST PUSH2 0xC9 PUSH2 0xFE CALLDATASIZE PUSH1 0x4 PUSH2 0x58C JUMP JUMPDEST PUSH2 0x283 JUMP JUMPDEST PUSH1 0x2 SLOAD PUSH2 0x110 SWAP1 PUSH1 0xFF AND DUP2 JUMP JUMPDEST PUSH1 0x40 MLOAD PUSH1 0xFF SWAP1 SWAP2 AND DUP2 MSTORE PUSH1 0x20 ADD PUSH2 0xAD JUMP JUMPDEST PUSH2 0xE2 PUSH2 0x130 CALLDATASIZE PUSH1 0x4 PUSH2 0x5C9 JUMP JUMPDEST PUSH1 0x4 PUSH1 0x20 MSTORE PUSH1 0x0 SWAP1 DUP2 MSTORE PUSH1 0x40 SWAP1 KECCAK256 SLOAD DUP2 JUMP JUMPDEST PUSH2 0xA0 PUSH2 0x42E JUMP JUMPDEST PUSH2 0xC9 PUSH2 0x158 CALLDATASIZE PUSH1 0x4 PUSH2 0x562 JUMP JUMPDEST PUSH2 0x43B JUMP JUMPDEST PUSH2 0xE2 PUSH2 0x16B CALLDATASIZE PUSH1 0x4 PUSH2 0x5EB JUMP JUMPDEST PUSH1 0x5 PUSH1 0x20 SWAP1 DUP2 MSTORE PUSH1 0x0 SWAP3 DUP4 MSTORE PUSH1 0x40 DUP1 DUP5 KECCAK256 SWAP1 SWAP2 MSTORE SWAP1 DUP3 MSTORE SWAP1 KECCAK256 SLOAD DUP2 JUMP JUMPDEST PUSH1 0x0 DUP1 SLOAD PUSH2 0x195 SWAP1 PUSH2 0x61E JUMP JUMPDEST DUP1 PUSH1 0x1F ADD PUSH1 0x20 DUP1 SWAP2 DIV MUL PUSH1 0x20 ADD PUSH1 0x40 MLOAD SWAP1 DUP2 ADD PUSH1 0x40 MSTORE DUP1 SWAP3 SWAP2 SWAP1 DUP2 DUP2 MSTORE PUSH1 0x20 ADD DUP3 DUP1 SLOAD PUSH2 0x1C1 SWAP1 PUSH2 0x61E JUMP JUMPDEST DUP1 ISZERO PUSH2 0x20E JUMPI DUP1 PUSH1 0x1F LT PUSH2 0x1E3 JUMPI PUSH2 0x100 DUP1 DUP4 SLOAD DIV MUL DUP4 MSTORE SWAP2 PUSH1 0x20 ADD SWAP2 PUSH2 0x20E JUMP JUMPDEST DUP3 ADD SWAP2 SWAP1 PUSH1 0x0 MSTORE PUSH1 0x20 PUSH1 0x0 KECCAK256 SWAP1 JUMPDEST DUP2 SLOAD DUP2 MSTORE SWAP1 PUSH1 0x1 ADD SWAP1 PUSH1 0x20 ADD DUP1 DUP4 GT PUSH2 0x1F1 JUMPI DUP3 SWAP1 SUB PUSH1 0x1F AND DUP3 ADD SWAP2 JUMPDEST POP POP POP POP POP DUP2 JUMP JUMPDEST CALLER PUSH1 0x0 DUP2 DUP2 MSTORE PUSH1 0x5 PUSH1 0x20 SWAP1 DUP2 MSTORE PUSH1 0x40 DUP1 DUP4 KECCAK256 PUSH1 0x1 PUSH1 0x1 PUSH1 0xA0 SHL SUB DUP8 AND DUP1 DUP6 MSTORE SWAP3 MSTORE DUP1 DUP4 KECCAK256 DUP6 SWAP1 SSTORE MLOAD SWAP2 SWAP3 SWAP1 SWAP2 PUSH32 0x8C5BE1E5EBEC7D5BD14F71427D1E84F3DD0314C0F7B2291E5B200AC8C7C3B925 SWAP1 PUSH2 0x271 SWAP1 DUP7 DUP2 MSTORE PUSH1 0x20 ADD SWAP1 JUMP JUMPDEST PUSH1 0x40 MLOAD DUP1 SWAP2 SUB SWAP1 LOG3 POP PUSH1 0x1 JUMPDEST SWAP3 SWAP2 POP POP JUMP JUMPDEST PUSH1 0x1 PUSH1 0x1 PUSH1 0xA0 SHL SUB DUP4 AND PUSH1 0x0 SWAP1 DUP2 MSTORE PUSH1 0x4 PUSH1 0x20 MSTORE PUSH1 0x40 DUP2 KECCAK256 SLOAD DUP3 GT ISZERO PUSH2 0x2C4 JUMPI PUSH1 0x40 MLOAD PUSH3 0x461BCD PUSH1 0xE5 SHL DUP2 MSTORE PUSH1 0x4 ADD PUSH2 0x2BB SWAP1 PUSH2 0x658 JUMP JUMPDEST PUSH1 0x40 MLOAD DUP1 SWAP2 SUB SWAP1 REVERT JUMPDEST PUSH1 0x1 PUSH1 0x1 PUSH1 0xA0 SHL SUB DUP5 AND PUSH1 0x0 SWAP1 DUP2 MSTORE PUSH1 0x5 PUSH1 0x20 SWAP1 DUP2 MSTORE PUSH1 0x40 DUP1 DUP4 KECCAK256 CALLER DUP5 MSTORE SWAP1 SWAP2 MSTORE SWAP1 KECCAK256 SLOAD DUP3 GT ISZERO PUSH2 0x343 JUMPI PUSH1 0x40 MLOAD PUSH3 0x461BCD PUSH1 0xE5 SHL DUP2 MSTORE PUSH1 0x20 PUSH1 0x4 DUP3 ADD MSTORE PUSH1 0x23 PUSH1 0x24 DUP3 ADD MSTORE PUSH32 0x437573746F6D546F6B656E3A20696E73756666696369656E7420616C6C6F7761 PUSH1 0x44 DUP3 ADD MSTORE PUSH3 0x6E6365 PUSH1 0xE8 SHL PUSH1 0x64 DUP3 ADD MSTORE PUSH1 0x84 ADD PUSH2 0x2BB JUMP JUMPDEST PUSH1 0x1 PUSH1 0x1 PUSH1 0xA0 SHL SUB DUP5 AND PUSH1 0x0 SWAP1 DUP2 MSTORE PUSH1 0x4 PUSH1 0x20 MSTORE PUSH1 0x40 DUP2 KECCAK256 DUP1 SLOAD DUP5 SWAP3 SWAP1 PUSH2 0x36B SWAP1 DUP5 SWAP1 PUSH2 0x6AF JUMP JUMPDEST SWAP1 SWAP2 SSTORE POP POP PUSH1 0x1 PUSH1 0x1 PUSH1 0xA0 SHL SUB DUP5 AND PUSH1 0x0 SWAP1 DUP2 MSTORE PUSH1 0x5 PUSH1 0x20 SWAP1 DUP2 MSTORE PUSH1 0x40 DUP1 DUP4 KECCAK256 CALLER DUP5 MSTORE SWAP1 SWAP2 MSTORE DUP2 KECCAK256 DUP1 SLOAD DUP5 SWAP3 SWAP1 PUSH2 0x3A3 SWAP1 DUP5 SWAP1 PUSH2 0x6AF JUMP JUMPDEST SWAP1 SWAP2 SSTORE POP POP PUSH1 0x1 PUSH1 0x1 PUSH1 0xA0 SHL SUB DUP4 AND PUSH1 0x0 SWAP1 DUP2 MSTORE PUSH1 0x4 PUSH1 0x20 MSTORE PUSH1 0x40 DUP2 KECCAK256 DUP1 SLOAD DUP5 SWAP3 SWAP1 PUSH2 0x3D0 SWAP1 DUP5 SWAP1 PUSH2 0x6C2 JUMP JUMPDEST SWAP3 POP POP DUP2 SWAP1 SSTORE POP DUP3 PUSH1 0x1 PUSH1 0x1 PUSH1 0xA0 SHL SUB AND DUP5 PUSH1 0x1 PUSH1 0x1 PUSH1 0xA0 SHL SUB AND PUSH32 0xDDF252AD1BE2C89B69C2B068FC378DAA952BA7F163C4A11628F55A4DF523B3EF DUP5 PUSH1 0x40 MLOAD PUSH2 0x41C SWAP2 DUP2 MSTORE PUSH1 0x20 ADD SWAP1 JUMP JUMPDEST PUSH1 0x40 MLOAD DUP1 SWAP2 SUB SWAP1 LOG3 POP PUSH1 0x1 SWAP4 SWAP3 POP POP POP JUMP JUMPDEST PUSH1 0x1 DUP1 SLOAD PUSH2 0x195 SWAP1 PUSH2 0x61E JUMP JUMPDEST CALLER PUSH1 0x0 SWAP1 DUP2 MSTORE PUSH1 0x4 PUSH1 0x20 MSTORE PUSH1 0x40 DUP2 KECCAK256 SLOAD DUP3 GT ISZERO PUSH2 0x46A JUMPI PUSH1 0x40 MLOAD PUSH3 0x461BCD PUSH1 0xE5 SHL DUP2 MSTORE PUSH1 0x4 ADD PUSH2 0x2BB SWAP1 PUSH2 0x658 JUMP JUMPDEST CALLER PUSH1 0x0 SWAP1 DUP2 MSTORE PUSH1 0x4 PUSH1 0x20 MSTORE PUSH1 0x40 DUP2 KECCAK256 DUP1 SLOAD DUP5 SWAP3 SWAP1 PUSH2 0x489 SWAP1 DUP5 SWAP1 PUSH2 0x6AF JUMP JUMPDEST SWAP1 SWAP2 SSTORE POP POP PUSH1 0x1 PUSH1 0x1 PUSH1 0xA0 SHL SUB DUP4 AND PUSH1 0x0 SWAP1 DUP2 MSTORE PUSH1 0x4 PUSH1 0x20 MSTORE PUSH1 0x40 DUP2 KECCAK256 DUP1 SLOAD DUP5 SWAP3 SWAP1 PUSH2 0x4B6 SWAP1 DUP5 SWAP1 PUSH2 0x6C2 JUMP JUMPDEST SWAP1 SWAP2 SSTORE POP POP PUSH1 0x40 MLOAD DUP3 DUP2 MSTORE PUSH1 0x1 PUSH1 0x1 PUSH1 0xA0 SHL SUB DUP5 AND SWAP1 CALLER SWAP1 PUSH32 0xDDF252AD1BE2C89B69C2B068FC378DAA952BA7F163C4A11628F55A4DF523B3EF SWAP1 PUSH1 0x20 ADD PUSH2 0x271 JUMP JUMPDEST PUSH1 0x20 DUP2 MSTORE PUSH1 0x0 DUP3 MLOAD DUP1 PUSH1 0x20 DUP5 ADD MSTORE PUSH1 0x0 JUMPDEST DUP2 DUP2 LT ISZERO PUSH2 0x526 JUMPI PUSH1 0x20 DUP2 DUP7 ADD DUP2 ADD MLOAD PUSH1 0x40 DUP7 DUP5 ADD ADD MSTORE ADD PUSH2 0x509 JUMP JUMPDEST POP PUSH1 0x0 PUSH1 0x40 DUP3 DUP6 ADD ADD MSTORE PUSH1 0x40 PUSH1 0x1F NOT PUSH1 0x1F DUP4 ADD AND DUP5 ADD ADD SWAP2 POP POP SWAP3 SWAP2 POP POP JUMP JUMPDEST DUP1 CALLDATALOAD PUSH1 0x1 PUSH1 0x1 PUSH1 0xA0 SHL SUB DUP2 AND DUP2 EQ PUSH2 0x55D JUMPI PUSH1 0x0 DUP1 REVERT JUMPDEST SWAP2 SWAP1 POP JUMP JUMPDEST PUSH1 0x0 DUP1 PUSH1 0x40 DUP4 DUP6 SUB SLT ISZERO PUSH2 0x575 JUMPI PUSH1 0x0 DUP1 REVERT JUMPDEST PUSH2 0x57E DUP4 PUSH2 0x546 JUMP JUMPDEST SWAP5 PUSH1 0x20 SWAP4 SWAP1 SWAP4 ADD CALLDATALOAD SWAP4 POP POP POP JUMP JUMPDEST PUSH1 0x0 DUP1 PUSH1 0x0 PUSH1 0x60 DUP5 DUP7 SUB SLT ISZERO PUSH2 0x5A1 JUMPI PUSH1 0x0 DUP1 REVERT JUMPDEST PUSH2 0x5AA DUP5 PUSH2 0x546 JUMP JUMPDEST SWAP3 POP PUSH2 0x5B8 PUSH1 0x20 DUP6 ADD PUSH2 0x546 JUMP JUMPDEST SWAP3 SWAP6 SWAP3 SWAP5 POP POP POP PUSH1 0x40 SWAP2 SWAP1 SWAP2 ADD CALLDATALOAD SWAP1 JUMP JUMPDEST PUSH1 0x0 PUSH1 0x20 DUP3 DUP5 SUB SLT ISZERO PUSH2 0x5DB JUMPI PUSH1 0x0 DUP1 REVERT JUMPDEST PUSH2 0x5E4 DUP3 PUSH2 0x546 JUMP JUMPDEST SWAP4 SWAP3 POP POP POP JUMP JUMPDEST PUSH1 0x0 DUP1 PUSH1 0x40 DUP4 DUP6 SUB SLT ISZERO PUSH2 0x5FE JUMPI PUSH1 0x0 DUP1 REVERT JUMPDEST PUSH2 0x607 DUP4 PUSH2 0x546 JUMP JUMPDEST SWAP2 POP PUSH2 0x615 PUSH1 0x20 DUP5 ADD PUSH2 0x546 JUMP JUMPDEST SWAP1 POP SWAP3 POP SWAP3 SWAP1 POP JUMP JUMPDEST PUSH1 0x1 DUP2 DUP2 SHR SWAP1 DUP3 AND DUP1 PUSH2 0x632 JUMPI PUSH1 0x7F DUP3 AND SWAP2 POP JUMPDEST PUSH1 0x20 DUP3 LT DUP2 SUB PUSH2 0x652 JUMPI PUSH4 0x4E487B71 PUSH1 0xE0 SHL PUSH1 0x0 MSTORE PUSH1 0x22 PUSH1 0x4 MSTORE PUSH1 0x24 PUSH1 0x0 REVERT JUMPDEST POP SWAP2 SWAP1 POP JUMP JUMPDEST PUSH1 0x20 DUP1 DUP3 MSTORE PUSH1 0x21 SWAP1 DUP3 ADD MSTORE PUSH32 0x437573746F6D546F6B656E3A20696E73756666696369656E742062616C616E63 PUSH1 0x40 DUP3 ADD MSTORE PUSH1 0x65 PUSH1 0xF8 SHL PUSH1 0x60 DUP3 ADD MSTORE PUSH1 0x80 ADD SWAP1 JUMP JUMPDEST PUSH4 0x4E487B71 PUSH1 0xE0 SHL PUSH1 0x0 MSTORE PUSH1 0x11 PUSH1 0x4 MSTORE PUSH1 0x24 PUSH1 0x0 REVERT JUMPDEST DUP2 DUP2 SUB DUP2 DUP2 GT ISZERO PUSH2 0x27D JUMPI PUSH2 0x27D PUSH2 0x699 JUMP JUMPDEST DUP1 DUP3 ADD DUP1 DUP3 GT ISZERO PUSH2 0x27D JUMPI PUSH2 0x27D PUSH2 0x699 JUMP INVALID LOG2 PUSH5 0x6970667358 0x22 SLT KECCAK256 DIV SELFDESTRUCT SWAP7 0x4C 0xFC 0xD4 0x24 0xE7 JUMPI CALLCODE 0xDB PUSH29 0xB4F60F694E715642B13AC94DAA699763A1FBC6C664736F6C634300081A STOP CALLER "
				},
				"gasEstimates": {
					"creation": {
						"codeDepositCost": "234400",
						"executionCost": "infinite",
						"totalCost": "infinite"
					},
					"external": {
						"algebraUnified()": "2348",
						"createAndMigrate(uint256)": "infinite",
						"customToken()": "2347",
						"getCustomTokenAddress()": "2363",
						"getMigratorAddress()": "2309",
						"migrator()": "2325",
						"weth()": "2370"
					}
				},
				"methodIdentifiers": {
					"algebraUnified()": "24f8eca7",
					"createAndMigrate(uint256)": "f5f7828a",
					"customToken()": "899e3106",
					"getCustomTokenAddress()": "e9b007e5",
					"getMigratorAddress()": "22b26ed8",
					"migrator()": "7cd07e47",
					"weth()": "3fc8cef3"
				}
			},
			"storageLayout": {
				"storage": [
					{
						"astId": 758,
						"contract": "contracts/token factory/TestMigrator.sol:TestMigrator",
						"label": "migrator",
						"offset": 0,
						"slot": "0",
						"type": "t_contract(Migrator)752"
					},
					{
						"astId": 761,
						"contract": "contracts/token factory/TestMigrator.sol:TestMigrator",
						"label": "customToken",
						"offset": 0,
						"slot": "1",
						"type": "t_contract(CustomToken)1127"
					},
					{
						"astId": 763,
						"contract": "contracts/token factory/TestMigrator.sol:TestMigrator",
						"label": "weth",
						"offset": 0,
						"slot": "2",
						"type": "t_address"
					},
					{
						"astId": 765,
						"contract": "contracts/token factory/TestMigrator.sol:TestMigrator",
						"label": "algebraUnified",
						"offset": 0,
						"slot": "3",
						"type": "t_address"
					}
				],
				"types": {
					"t_address": {
						"encoding": "inplace",
						"label": "address",
						"numberOfBytes": "20"
					},
					"t_contract(CustomToken)1127": {
						"encoding": "inplace",
						"label": "contract CustomToken",
						"numberOfBytes": "20"
					},
					"t_contract(Migrator)752": {
						"encoding": "inplace",
						"label": "contract Migrator",
						"numberOfBytes": "20"
					}
				}
			},
			"userdoc": {
				"kind": "user",
				"methods": {},
				"version": 1
			}
		}
	}
}