{
	"contracts/token factory/Migrator.sol": {
		"Migrator": {
			"abi": [
				{
					"inputs": [
						{
							"internalType": "address",
							"name": "_algebraUnified",
							"type": "address"
						},
						{
							"internalType": "address",
							"name": "_WETH",
							"type": "address"
						}
					],
					"stateMutability": "nonpayable",
					"type": "constructor"
				},
				{
					"inputs": [],
					"name": "SA",
					"type": "error"
				},
				{
					"inputs": [],
					"name": "STF",
					"type": "error"
				},
				{
					"anonymous": false,
					"inputs": [
						{
							"indexed": true,
							"internalType": "address",
							"name": "poolAddress",
							"type": "address"
						},
						{
							"indexed": false,
							"internalType": "uint256",
							"name": "tokenId",
							"type": "uint256"
						},
						{
							"indexed": false,
							"internalType": "uint128",
							"name": "liquidity",
							"type": "uint128"
						},
						{
							"indexed": false,
							"internalType": "uint256",
							"name": "amount0",
							"type": "uint256"
						},
						{
							"indexed": false,
							"internalType": "uint256",
							"name": "amount1",
							"type": "uint256"
						}
					],
					"name": "LiquidityAdded",
					"type": "event"
				},
				{
					"anonymous": false,
					"inputs": [
						{
							"indexed": true,
							"internalType": "address",
							"name": "poolAddress",
							"type": "address"
						},
						{
							"indexed": true,
							"internalType": "address",
							"name": "token",
							"type": "address"
						},
						{
							"indexed": false,
							"internalType": "uint256",
							"name": "tokenAmount",
							"type": "uint256"
						},
						{
							"indexed": false,
							"internalType": "uint256",
							"name": "ethAmount",
							"type": "uint256"
						}
					],
					"name": "MigrationInitialized",
					"type": "event"
				},
				{
					"inputs": [],
					"name": "MAX_ETH_LIMIT",
					"outputs": [
						{
							"internalType": "uint256",
							"name": "",
							"type": "uint256"
						}
					],
					"stateMutability": "view",
					"type": "function"
				},
				{
					"inputs": [],
					"name": "MAX_TICK",
					"outputs": [
						{
							"internalType": "int24",
							"name": "",
							"type": "int24"
						}
					],
					"stateMutability": "view",
					"type": "function"
				},
				{
					"inputs": [],
					"name": "MAX_TOKEN_LIMIT",
					"outputs": [
						{
							"internalType": "uint256",
							"name": "",
							"type": "uint256"
						}
					],
					"stateMutability": "view",
					"type": "function"
				},
				{
					"inputs": [],
					"name": "MIN_TICK",
					"outputs": [
						{
							"internalType": "int24",
							"name": "",
							"type": "int24"
						}
					],
					"stateMutability": "view",
					"type": "function"
				},
				{
					"inputs": [],
					"name": "WETH",
					"outputs": [
						{
							"internalType": "address",
							"name": "",
							"type": "address"
						}
					],
					"stateMutability": "view",
					"type": "function"
				},
				{
					"inputs": [],
					"name": "algebraUnified",
					"outputs": [
						{
							"internalType": "address",
							"name": "",
							"type": "address"
						}
					],
					"stateMutability": "view",
					"type": "function"
				},
				{
					"inputs": [
						{
							"internalType": "uint256",
							"name": "tokenAmount",
							"type": "uint256"
						},
						{
							"internalType": "uint256",
							"name": "ethAmount",
							"type": "uint256"
						}
					],
					"name": "calculateSqrtPriceX96",
					"outputs": [
						{
							"internalType": "uint160",
							"name": "",
							"type": "uint160"
						}
					],
					"stateMutability": "pure",
					"type": "function"
				},
				{
					"inputs": [
						{
							"internalType": "address",
							"name": "token",
							"type": "address"
						},
						{
							"internalType": "uint256",
							"name": "tokenAmount",
							"type": "uint256"
						}
					],
					"name": "initiateMigration",
					"outputs": [],
					"stateMutability": "payable",
					"type": "function"
				},
				{
					"inputs": [],
					"name": "owner",
					"outputs": [
						{
							"internalType": "address",
							"name": "",
							"type": "address"
						}
					],
					"stateMutability": "view",
					"type": "function"
				},
				{
					"inputs": [
						{
							"internalType": "address",
							"name": "_algebraUnified",
							"type": "address"
						}
					],
					"name": "updateAlgebraUnified",
					"outputs": [],
					"stateMutability": "nonpayable",
					"type": "function"
				},
				{
					"inputs": [
						{
							"internalType": "address",
							"name": "_WETH",
							"type": "address"
						}
					],
					"name": "updateWETH",
					"outputs": [],
					"stateMutability": "nonpayable",
					"type": "function"
				},
				{
					"stateMutability": "payable",
					"type": "receive"
				}
			],
			"devdoc": {
				"kind": "dev",
				"methods": {},
				"version": 1
			},
			"evm": {
				"assembly": "    /* \"contracts/token factory/Migrator.sol\":3127:7545  contract Migrator {... */\n  mstore(0x40, 0x80)\n    /* \"contracts/token factory/Migrator.sol\":3993:4282  constructor(address _algebraUnified, address _WETH) {... */\n  callvalue\n  dup1\n  iszero\n  tag_1\n  jumpi\n  0x00\n  dup1\n  revert\ntag_1:\n  pop\n  mload(0x40)\n  sub(codesize, bytecodeSize)\n  dup1\n  bytecodeSize\n  dup4\n  codecopy\n  dup2\n  add\n  0x40\n  dup2\n  swap1\n  mstore\n  tag_2\n  swap2\n  tag_3\n  jump\t// in\ntag_2:\n  sub(shl(0xa0, 0x01), 0x01)\n    /* \"contracts/token factory/Migrator.sol\":4063:4092  _algebraUnified != address(0) */\n  dup3\n  and\n    /* \"contracts/token factory/Migrator.sol\":4055:4120  require(_algebraUnified != address(0), \"Invalid Algebra address\") */\n  tag_6\n  jumpi\n  mload(0x40)\n  shl(0xe5, 0x461bcd)\n  dup2\n  mstore\n    /* \"#utility.yul\":696:698   */\n  0x20\n    /* \"contracts/token factory/Migrator.sol\":4055:4120  require(_algebraUnified != address(0), \"Invalid Algebra address\") */\n  0x04\n  dup3\n  add\n    /* \"#utility.yul\":678:699   */\n  mstore\n    /* \"#utility.yul\":735:737   */\n  0x17\n    /* \"#utility.yul\":715:733   */\n  0x24\n  dup3\n  add\n    /* \"#utility.yul\":708:738   */\n  mstore\n    /* \"#utility.yul\":774:799   */\n  0x496e76616c696420416c67656272612061646472657373000000000000000000\n    /* \"#utility.yul\":754:772   */\n  0x44\n  dup3\n  add\n    /* \"#utility.yul\":747:800   */\n  mstore\n    /* \"#utility.yul\":817:835   */\n  0x64\n  add\n    /* \"contracts/token factory/Migrator.sol\":4055:4120  require(_algebraUnified != address(0), \"Invalid Algebra address\") */\ntag_7:\n  mload(0x40)\n  dup1\n  swap2\n  sub\n  swap1\n  revert\ntag_6:\n  sub(shl(0xa0, 0x01), 0x01)\n    /* \"contracts/token factory/Migrator.sol\":4138:4157  _WETH != address(0) */\n  dup2\n  and\n    /* \"contracts/token factory/Migrator.sol\":4130:4182  require(_WETH != address(0), \"Invalid WETH address\") */\n  tag_9\n  jumpi\n  mload(0x40)\n  shl(0xe5, 0x461bcd)\n  dup2\n  mstore\n    /* \"#utility.yul\":1048:1050   */\n  0x20\n    /* \"contracts/token factory/Migrator.sol\":4130:4182  require(_WETH != address(0), \"Invalid WETH address\") */\n  0x04\n  dup3\n  add\n    /* \"#utility.yul\":1030:1051   */\n  mstore\n    /* \"#utility.yul\":1087:1089   */\n  0x14\n    /* \"#utility.yul\":1067:1085   */\n  0x24\n  dup3\n  add\n    /* \"#utility.yul\":1060:1090   */\n  mstore\n    /* \"#utility.yul\":1126:1148   */\n  0x496e76616c696420574554482061646472657373000000000000000000000000\n    /* \"#utility.yul\":1106:1124   */\n  0x44\n  dup3\n  add\n    /* \"#utility.yul\":1099:1149   */\n  mstore\n    /* \"#utility.yul\":1166:1184   */\n  0x64\n  add\n    /* \"contracts/token factory/Migrator.sol\":4130:4182  require(_WETH != address(0), \"Invalid WETH address\") */\n  tag_7\n    /* \"#utility.yul\":846:1190   */\n  jump\n    /* \"contracts/token factory/Migrator.sol\":4130:4182  require(_WETH != address(0), \"Invalid WETH address\") */\ntag_9:\n    /* \"contracts/token factory/Migrator.sol\":4193:4198  owner */\n  0x00\n    /* \"contracts/token factory/Migrator.sol\":4193:4211  owner = msg.sender */\n  dup1\n  sload\n  not(sub(shl(0xa0, 0x01), 0x01))\n  swap1\n  dup2\n  and\n    /* \"contracts/token factory/Migrator.sol\":4201:4211  msg.sender */\n  caller\n    /* \"contracts/token factory/Migrator.sol\":4193:4211  owner = msg.sender */\n  or\n  swap1\n  swap2\n  sstore\n  0x01\n    /* \"contracts/token factory/Migrator.sol\":4221:4253  algebraUnified = _algebraUnified */\n  dup1\n  sload\n  sub(shl(0xa0, 0x01), 0x01)\n  swap5\n  dup6\n  and\n  swap1\n  dup4\n  and\n  or\n  swap1\n  sstore\n    /* \"contracts/token factory/Migrator.sol\":4263:4267  WETH */\n  0x02\n    /* \"contracts/token factory/Migrator.sol\":4263:4275  WETH = _WETH */\n  dup1\n  sload\n  swap3\n  swap1\n  swap4\n  and\n  swap2\n  and\n  or\n  swap1\n  sstore\n    /* \"contracts/token factory/Migrator.sol\":3127:7545  contract Migrator {... */\n  jump(tag_14)\n    /* \"#utility.yul\":14:191   */\ntag_13:\n    /* \"#utility.yul\":93:106   */\n  dup1\n  mload\n  sub(shl(0xa0, 0x01), 0x01)\n    /* \"#utility.yul\":135:166   */\n  dup2\n  and\n    /* \"#utility.yul\":125:167   */\n  dup2\n  eq\n    /* \"#utility.yul\":115:185   */\n  tag_16\n  jumpi\n    /* \"#utility.yul\":181:182   */\n  0x00\n    /* \"#utility.yul\":178:179   */\n  dup1\n    /* \"#utility.yul\":171:183   */\n  revert\n    /* \"#utility.yul\":115:185   */\ntag_16:\n    /* \"#utility.yul\":14:191   */\n  swap2\n  swap1\n  pop\n  jump\t// out\n    /* \"#utility.yul\":196:489   */\ntag_3:\n    /* \"#utility.yul\":275:281   */\n  0x00\n    /* \"#utility.yul\":283:289   */\n  dup1\n    /* \"#utility.yul\":336:338   */\n  0x40\n    /* \"#utility.yul\":324:333   */\n  dup4\n    /* \"#utility.yul\":315:322   */\n  dup6\n    /* \"#utility.yul\":311:334   */\n  sub\n    /* \"#utility.yul\":307:339   */\n  slt\n    /* \"#utility.yul\":304:356   */\n  iszero\n  tag_18\n  jumpi\n    /* \"#utility.yul\":352:353   */\n  0x00\n    /* \"#utility.yul\":349:350   */\n  dup1\n    /* \"#utility.yul\":342:354   */\n  revert\n    /* \"#utility.yul\":304:356   */\ntag_18:\n    /* \"#utility.yul\":375:415   */\n  tag_19\n    /* \"#utility.yul\":405:414   */\n  dup4\n    /* \"#utility.yul\":375:415   */\n  tag_13\n  jump\t// in\ntag_19:\n    /* \"#utility.yul\":365:415   */\n  swap2\n  pop\n    /* \"#utility.yul\":434:483   */\n  tag_20\n    /* \"#utility.yul\":479:481   */\n  0x20\n    /* \"#utility.yul\":468:477   */\n  dup5\n    /* \"#utility.yul\":464:482   */\n  add\n    /* \"#utility.yul\":434:483   */\n  tag_13\n  jump\t// in\ntag_20:\n    /* \"#utility.yul\":424:483   */\n  swap1\n  pop\n    /* \"#utility.yul\":196:489   */\n  swap3\n  pop\n  swap3\n  swap1\n  pop\n  jump\t// out\n    /* \"#utility.yul\":846:1190   */\ntag_14:\n    /* \"contracts/token factory/Migrator.sol\":3127:7545  contract Migrator {... */\n  dataSize(sub_0)\n  dup1\n  dataOffset(sub_0)\n  0x00\n  codecopy\n  0x00\n  return\nstop\n\nsub_0: assembly {\n        /* \"contracts/token factory/Migrator.sol\":3127:7545  contract Migrator {... */\n      mstore(0x40, 0x80)\n      jumpi(tag_1, lt(calldatasize, 0x04))\n      shr(0xe0, calldataload(0x00))\n      dup1\n      0x6882a888\n      gt\n      tag_14\n      jumpi\n      dup1\n      0x6882a888\n      eq\n      tag_8\n      jumpi\n      dup1\n      0x8da5cb5b\n      eq\n      tag_9\n      jumpi\n      dup1\n      0xa000bf4f\n      eq\n      tag_10\n      jumpi\n      dup1\n      0xa1634b14\n      eq\n      tag_11\n      jumpi\n      dup1\n      0xad5c4648\n      eq\n      tag_12\n      jumpi\n      dup1\n      0xfe9440d7\n      eq\n      tag_13\n      jumpi\n      0x00\n      dup1\n      revert\n    tag_14:\n      dup1\n      0x09fe2d34\n      eq\n      tag_3\n      jumpi\n      dup1\n      0x18fd7858\n      eq\n      tag_4\n      jumpi\n      dup1\n      0x24f8eca7\n      eq\n      tag_5\n      jumpi\n      dup1\n      0x3b7ab5b3\n      eq\n      tag_6\n      jumpi\n      dup1\n      0x5a2f0ae7\n      eq\n      tag_7\n      jumpi\n      0x00\n      dup1\n      revert\n    tag_1:\n      jumpi(tag_2, calldatasize)\n      stop\n    tag_2:\n      0x00\n      dup1\n      revert\n        /* \"contracts/token factory/Migrator.sol\":7172:7362  function updateAlgebraUnified(address _algebraUnified) external onlyOwner {... */\n    tag_3:\n      callvalue\n      dup1\n      iszero\n      tag_17\n      jumpi\n      0x00\n      dup1\n      revert\n    tag_17:\n      pop\n      tag_18\n      tag_19\n      calldatasize\n      0x04\n      tag_20\n      jump\t// in\n    tag_19:\n      tag_21\n      jump\t// in\n    tag_18:\n      stop\n        /* \"contracts/token factory/Migrator.sol\":4288:6513  function initiateMigration(address token, uint256 tokenAmount) external payable onlyOwner {... */\n    tag_4:\n      tag_18\n      tag_23\n      calldatasize\n      0x04\n      tag_24\n      jump\t// in\n    tag_23:\n      tag_25\n      jump\t// in\n        /* \"contracts/token factory/Migrator.sol\":3216:3245  address public algebraUnified */\n    tag_5:\n      callvalue\n      dup1\n      iszero\n      tag_26\n      jumpi\n      0x00\n      dup1\n      revert\n    tag_26:\n      pop\n      sload(0x01)\n      tag_27\n      swap1\n      sub(shl(0xa0, 0x01), 0x01)\n      and\n      dup2\n      jump\n    tag_27:\n      mload(0x40)\n      sub(shl(0xa0, 0x01), 0x01)\n        /* \"#utility.yul\":1047:1079   */\n      swap1\n      swap2\n      and\n        /* \"#utility.yul\":1029:1080   */\n      dup2\n      mstore\n        /* \"#utility.yul\":1017:1019   */\n      0x20\n        /* \"#utility.yul\":1002:1020   */\n      add\n        /* \"contracts/token factory/Migrator.sol\":3216:3245  address public algebraUnified */\n    tag_29:\n      mload(0x40)\n      dup1\n      swap2\n      sub\n      swap1\n      return\n        /* \"contracts/token factory/Migrator.sol\":3451:3509  uint256 public constant MAX_TOKEN_LIMIT = 1_000_000 * 1e18 */\n    tag_6:\n      callvalue\n      dup1\n      iszero\n      tag_31\n      jumpi\n      0x00\n      dup1\n      revert\n    tag_31:\n      pop\n      tag_32\n        /* \"contracts/token factory/Migrator.sol\":3493:3509  1_000_000 * 1e18 */\n      0xd3c21bcecceda1000000\n        /* \"contracts/token factory/Migrator.sol\":3451:3509  uint256 public constant MAX_TOKEN_LIMIT = 1_000_000 * 1e18 */\n      dup2\n      jump\n    tag_32:\n      mload(0x40)\n        /* \"#utility.yul\":1237:1262   */\n      swap1\n      dup2\n      mstore\n        /* \"#utility.yul\":1225:1227   */\n      0x20\n        /* \"#utility.yul\":1210:1228   */\n      add\n        /* \"contracts/token factory/Migrator.sol\":3451:3509  uint256 public constant MAX_TOKEN_LIMIT = 1_000_000 * 1e18 */\n      tag_29\n        /* \"#utility.yul\":1091:1268   */\n      jump\n        /* \"contracts/token factory/Migrator.sol\":3369:3417  uint256 public constant MAX_ETH_LIMIT = 10 ether */\n    tag_7:\n      callvalue\n      dup1\n      iszero\n      tag_36\n      jumpi\n      0x00\n      dup1\n      revert\n    tag_36:\n      pop\n      tag_32\n        /* \"contracts/token factory/Migrator.sol\":3409:3417  10 ether */\n      0x8ac7230489e80000\n        /* \"contracts/token factory/Migrator.sol\":3369:3417  uint256 public constant MAX_ETH_LIMIT = 10 ether */\n      dup2\n      jump\n        /* \"contracts/token factory/Migrator.sol\":3323:3362  int24 public constant MAX_TICK = 887220 */\n    tag_8:\n      callvalue\n      dup1\n      iszero\n      tag_40\n      jumpi\n      0x00\n      dup1\n      revert\n    tag_40:\n      pop\n      tag_41\n        /* \"contracts/token factory/Migrator.sol\":3356:3362  887220 */\n      0x0d89b4\n        /* \"contracts/token factory/Migrator.sol\":3323:3362  int24 public constant MAX_TICK = 887220 */\n      dup2\n      jump\n    tag_41:\n      mload(0x40)\n        /* \"#utility.yul\":1540:1541   */\n      0x02\n        /* \"#utility.yul\":1529:1550   */\n      swap2\n      swap1\n      swap2\n      signextend\n        /* \"#utility.yul\":1511:1551   */\n      dup2\n      mstore\n        /* \"#utility.yul\":1499:1501   */\n      0x20\n        /* \"#utility.yul\":1484:1502   */\n      add\n        /* \"contracts/token factory/Migrator.sol\":3323:3362  int24 public constant MAX_TICK = 887220 */\n      tag_29\n        /* \"#utility.yul\":1369:1557   */\n      jump\n        /* \"contracts/token factory/Migrator.sol\":3190:3210  address public owner */\n    tag_9:\n      callvalue\n      dup1\n      iszero\n      tag_45\n      jumpi\n      0x00\n      dup1\n      revert\n    tag_45:\n      pop\n      sload(0x00)\n      tag_27\n      swap1\n      sub(shl(0xa0, 0x01), 0x01)\n      and\n      dup2\n      jump\n        /* \"contracts/token factory/Migrator.sol\":6519:6936  function calculateSqrtPriceX96(uint256 tokenAmount, uint256 ethAmount) public pure returns (uint160) {... */\n    tag_10:\n      callvalue\n      dup1\n      iszero\n      tag_49\n      jumpi\n      0x00\n      dup1\n      revert\n    tag_49:\n      pop\n      tag_27\n      tag_51\n      calldatasize\n      0x04\n      tag_52\n      jump\t// in\n    tag_51:\n      tag_53\n      jump\t// in\n        /* \"contracts/token factory/Migrator.sol\":3277:3317  int24 public constant MIN_TICK = -887220 */\n    tag_11:\n      callvalue\n      dup1\n      iszero\n      tag_56\n      jumpi\n      0x00\n      dup1\n      revert\n    tag_56:\n      pop\n      tag_41\n      not(0x0d89b3)\n      dup2\n      jump\n        /* \"contracts/token factory/Migrator.sol\":3251:3270  address public WETH */\n    tag_12:\n      callvalue\n      dup1\n      iszero\n      tag_60\n      jumpi\n      0x00\n      dup1\n      revert\n    tag_60:\n      pop\n      sload(0x02)\n      tag_27\n      swap1\n      sub(shl(0xa0, 0x01), 0x01)\n      and\n      dup2\n      jump\n        /* \"contracts/token factory/Migrator.sol\":7368:7508  function updateWETH(address _WETH) external onlyOwner {... */\n    tag_13:\n      callvalue\n      dup1\n      iszero\n      tag_64\n      jumpi\n      0x00\n      dup1\n      revert\n    tag_64:\n      pop\n      tag_18\n      tag_66\n      calldatasize\n      0x04\n      tag_20\n      jump\t// in\n    tag_66:\n      tag_67\n      jump\t// in\n        /* \"contracts/token factory/Migrator.sol\":7172:7362  function updateAlgebraUnified(address _algebraUnified) external onlyOwner {... */\n    tag_21:\n        /* \"contracts/token factory/Migrator.sol\":3935:3940  owner */\n      and(sub(shl(0xa0, 0x01), 0x01), sload(0x00))\n        /* \"contracts/token factory/Migrator.sol\":3921:3931  msg.sender */\n      caller\n        /* \"contracts/token factory/Migrator.sol\":3921:3940  msg.sender == owner */\n      eq\n        /* \"contracts/token factory/Migrator.sol\":3913:3969  require(msg.sender == owner, \"Only owner can call this\") */\n      tag_69\n      jumpi\n      mload(0x40)\n      shl(0xe5, 0x461bcd)\n      dup2\n      mstore\n      0x04\n      add\n      tag_70\n      swap1\n      tag_71\n      jump\t// in\n    tag_70:\n      mload(0x40)\n      dup1\n      swap2\n      sub\n      swap1\n      revert\n    tag_69:\n      sub(shl(0xa0, 0x01), 0x01)\n        /* \"contracts/token factory/Migrator.sol\":7264:7293  _algebraUnified != address(0) */\n      dup2\n      and\n        /* \"contracts/token factory/Migrator.sol\":7256:7313  require(_algebraUnified != address(0), \"Invalid address\") */\n      tag_73\n      jumpi\n      mload(0x40)\n      shl(0xe5, 0x461bcd)\n      dup2\n      mstore\n        /* \"#utility.yul\":2676:2678   */\n      0x20\n        /* \"contracts/token factory/Migrator.sol\":7256:7313  require(_algebraUnified != address(0), \"Invalid address\") */\n      0x04\n      dup3\n      add\n        /* \"#utility.yul\":2658:2679   */\n      mstore\n        /* \"#utility.yul\":2715:2717   */\n      0x0f\n        /* \"#utility.yul\":2695:2713   */\n      0x24\n      dup3\n      add\n        /* \"#utility.yul\":2688:2718   */\n      mstore\n      shl(0x88, 0x496e76616c69642061646472657373)\n        /* \"#utility.yul\":2734:2752   */\n      0x44\n      dup3\n      add\n        /* \"#utility.yul\":2727:2772   */\n      mstore\n        /* \"#utility.yul\":2789:2807   */\n      0x64\n      add\n        /* \"contracts/token factory/Migrator.sol\":7256:7313  require(_algebraUnified != address(0), \"Invalid address\") */\n      tag_70\n        /* \"#utility.yul\":2474:2813   */\n      jump\n        /* \"contracts/token factory/Migrator.sol\":7256:7313  require(_algebraUnified != address(0), \"Invalid address\") */\n    tag_73:\n        /* \"contracts/token factory/Migrator.sol\":7323:7337  algebraUnified */\n      0x01\n        /* \"contracts/token factory/Migrator.sol\":7323:7355  algebraUnified = _algebraUnified */\n      dup1\n      sload\n      not(sub(shl(0xa0, 0x01), 0x01))\n      and\n      sub(shl(0xa0, 0x01), 0x01)\n      swap3\n      swap1\n      swap3\n      and\n      swap2\n      swap1\n      swap2\n      or\n      swap1\n      sstore\n        /* \"contracts/token factory/Migrator.sol\":7172:7362  function updateAlgebraUnified(address _algebraUnified) external onlyOwner {... */\n      jump\t// out\n        /* \"contracts/token factory/Migrator.sol\":4288:6513  function initiateMigration(address token, uint256 tokenAmount) external payable onlyOwner {... */\n    tag_25:\n        /* \"contracts/token factory/Migrator.sol\":3935:3940  owner */\n      and(sub(shl(0xa0, 0x01), 0x01), sload(0x00))\n        /* \"contracts/token factory/Migrator.sol\":3921:3931  msg.sender */\n      caller\n        /* \"contracts/token factory/Migrator.sol\":3921:3940  msg.sender == owner */\n      eq\n        /* \"contracts/token factory/Migrator.sol\":3913:3969  require(msg.sender == owner, \"Only owner can call this\") */\n      tag_77\n      jumpi\n      mload(0x40)\n      shl(0xe5, 0x461bcd)\n      dup2\n      mstore\n      0x04\n      add\n      tag_70\n      swap1\n      tag_71\n      jump\t// in\n    tag_77:\n        /* \"contracts/token factory/Migrator.sol\":4408:4409  0 */\n      0x00\n        /* \"contracts/token factory/Migrator.sol\":4396:4405  msg.value */\n      callvalue\n        /* \"contracts/token factory/Migrator.sol\":4396:4409  msg.value > 0 */\n      gt\n        /* \"contracts/token factory/Migrator.sol\":4388:4452  require(msg.value > 0, \"Ether amount must be greater than zero\") */\n      tag_80\n      jumpi\n      mload(0x40)\n      shl(0xe5, 0x461bcd)\n      dup2\n      mstore\n        /* \"#utility.yul\":3020:3022   */\n      0x20\n        /* \"contracts/token factory/Migrator.sol\":4388:4452  require(msg.value > 0, \"Ether amount must be greater than zero\") */\n      0x04\n      dup3\n      add\n        /* \"#utility.yul\":3002:3023   */\n      mstore\n        /* \"#utility.yul\":3059:3061   */\n      0x26\n        /* \"#utility.yul\":3039:3057   */\n      0x24\n      dup3\n      add\n        /* \"#utility.yul\":3032:3062   */\n      mstore\n        /* \"#utility.yul\":3098:3132   */\n      0x457468657220616d6f756e74206d757374206265206772656174657220746861\n        /* \"#utility.yul\":3078:3096   */\n      0x44\n      dup3\n      add\n        /* \"#utility.yul\":3071:3133   */\n      mstore\n      shl(0xd0, 0x6e207a65726f)\n        /* \"#utility.yul\":3149:3167   */\n      0x64\n      dup3\n      add\n        /* \"#utility.yul\":3142:3178   */\n      mstore\n        /* \"#utility.yul\":3195:3214   */\n      0x84\n      add\n        /* \"contracts/token factory/Migrator.sol\":4388:4452  require(msg.value > 0, \"Ether amount must be greater than zero\") */\n      tag_70\n        /* \"#utility.yul\":2818:3220   */\n      jump\n        /* \"contracts/token factory/Migrator.sol\":4388:4452  require(msg.value > 0, \"Ether amount must be greater than zero\") */\n    tag_80:\n        /* \"contracts/token factory/Migrator.sol\":4484:4485  0 */\n      0x00\n        /* \"contracts/token factory/Migrator.sol\":4470:4481  tokenAmount */\n      dup2\n        /* \"contracts/token factory/Migrator.sol\":4470:4485  tokenAmount > 0 */\n      gt\n        /* \"contracts/token factory/Migrator.sol\":4462:4528  require(tokenAmount > 0, \"Token amount must be greater than zero\") */\n      tag_83\n      jumpi\n      mload(0x40)\n      shl(0xe5, 0x461bcd)\n      dup2\n      mstore\n        /* \"#utility.yul\":3427:3429   */\n      0x20\n        /* \"contracts/token factory/Migrator.sol\":4462:4528  require(tokenAmount > 0, \"Token amount must be greater than zero\") */\n      0x04\n      dup3\n      add\n        /* \"#utility.yul\":3409:3430   */\n      mstore\n        /* \"#utility.yul\":3466:3468   */\n      0x26\n        /* \"#utility.yul\":3446:3464   */\n      0x24\n      dup3\n      add\n        /* \"#utility.yul\":3439:3469   */\n      mstore\n        /* \"#utility.yul\":3505:3539   */\n      0x546f6b656e20616d6f756e74206d757374206265206772656174657220746861\n        /* \"#utility.yul\":3485:3503   */\n      0x44\n      dup3\n      add\n        /* \"#utility.yul\":3478:3540   */\n      mstore\n      shl(0xd0, 0x6e207a65726f)\n        /* \"#utility.yul\":3556:3574   */\n      0x64\n      dup3\n      add\n        /* \"#utility.yul\":3549:3585   */\n      mstore\n        /* \"#utility.yul\":3602:3621   */\n      0x84\n      add\n        /* \"contracts/token factory/Migrator.sol\":4462:4528  require(tokenAmount > 0, \"Token amount must be greater than zero\") */\n      tag_70\n        /* \"#utility.yul\":3225:3627   */\n      jump\n        /* \"contracts/token factory/Migrator.sol\":4462:4528  require(tokenAmount > 0, \"Token amount must be greater than zero\") */\n    tag_83:\n        /* \"contracts/token factory/Migrator.sol\":4539:4566  uint256 adjustedTokenAmount */\n      0x00\n        /* \"contracts/token factory/Migrator.sol\":3493:3509  1_000_000 * 1e18 */\n      0xd3c21bcecceda1000000\n        /* \"contracts/token factory/Migrator.sol\":4569:4580  tokenAmount */\n      dup3\n        /* \"contracts/token factory/Migrator.sol\":4569:4598  tokenAmount > MAX_TOKEN_LIMIT */\n      gt\n        /* \"contracts/token factory/Migrator.sol\":4569:4630  tokenAmount > MAX_TOKEN_LIMIT ? MAX_TOKEN_LIMIT : tokenAmount */\n      tag_86\n      jumpi\n        /* \"contracts/token factory/Migrator.sol\":4619:4630  tokenAmount */\n      dup2\n        /* \"contracts/token factory/Migrator.sol\":4569:4630  tokenAmount > MAX_TOKEN_LIMIT ? MAX_TOKEN_LIMIT : tokenAmount */\n      jump(tag_87)\n    tag_86:\n        /* \"contracts/token factory/Migrator.sol\":3493:3509  1_000_000 * 1e18 */\n      0xd3c21bcecceda1000000\n        /* \"contracts/token factory/Migrator.sol\":4569:4630  tokenAmount > MAX_TOKEN_LIMIT ? MAX_TOKEN_LIMIT : tokenAmount */\n    tag_87:\n        /* \"contracts/token factory/Migrator.sol\":4539:4630  uint256 adjustedTokenAmount = tokenAmount > MAX_TOKEN_LIMIT ? MAX_TOKEN_LIMIT : tokenAmount */\n      swap1\n      pop\n        /* \"contracts/token factory/Migrator.sol\":4640:4665  uint256 adjustedEthAmount */\n      0x00\n        /* \"contracts/token factory/Migrator.sol\":3409:3417  10 ether */\n      0x8ac7230489e80000\n        /* \"contracts/token factory/Migrator.sol\":4668:4677  msg.value */\n      callvalue\n        /* \"contracts/token factory/Migrator.sol\":4668:4693  msg.value > MAX_ETH_LIMIT */\n      gt\n        /* \"contracts/token factory/Migrator.sol\":4668:4721  msg.value > MAX_ETH_LIMIT ? MAX_ETH_LIMIT : msg.value */\n      tag_88\n      jumpi\n        /* \"contracts/token factory/Migrator.sol\":4712:4721  msg.value */\n      callvalue\n        /* \"contracts/token factory/Migrator.sol\":4668:4721  msg.value > MAX_ETH_LIMIT ? MAX_ETH_LIMIT : msg.value */\n      jump(tag_89)\n    tag_88:\n        /* \"contracts/token factory/Migrator.sol\":3409:3417  10 ether */\n      0x8ac7230489e80000\n        /* \"contracts/token factory/Migrator.sol\":4668:4721  msg.value > MAX_ETH_LIMIT ? MAX_ETH_LIMIT : msg.value */\n    tag_89:\n        /* \"contracts/token factory/Migrator.sol\":4640:4721  uint256 adjustedEthAmount = msg.value > MAX_ETH_LIMIT ? MAX_ETH_LIMIT : msg.value */\n      swap1\n      pop\n        /* \"contracts/token factory/Migrator.sol\":4738:4742  WETH */\n      0x02\n      0x00\n      swap1\n      sload\n      swap1\n      0x0100\n      exp\n      swap1\n      div\n      sub(shl(0xa0, 0x01), 0x01)\n      and\n      sub(shl(0xa0, 0x01), 0x01)\n        /* \"contracts/token factory/Migrator.sol\":4732:4751  IWETH(WETH).deposit */\n      and\n      0xd0e30db0\n        /* \"contracts/token factory/Migrator.sol\":4759:4776  adjustedEthAmount */\n      dup3\n        /* \"contracts/token factory/Migrator.sol\":4732:4779  IWETH(WETH).deposit{value: adjustedEthAmount}() */\n      mload(0x40)\n      dup3\n      0xffffffff\n      and\n      0xe0\n      shl\n      dup2\n      mstore\n      0x04\n      add\n      0x00\n      mload(0x40)\n      dup1\n      dup4\n      sub\n      dup2\n      dup6\n      dup9\n      dup1\n      extcodesize\n      iszero\n      dup1\n      iszero\n      tag_90\n      jumpi\n      0x00\n      dup1\n      revert\n    tag_90:\n      pop\n      gas\n      call\n      iszero\n      dup1\n      iszero\n      tag_92\n      jumpi\n      returndatasize\n      0x00\n      dup1\n      returndatacopy\n      revert(0x00, returndatasize)\n    tag_92:\n      pop\n      pop\n        /* \"contracts/token factory/Migrator.sol\":4817:4821  WETH */\n      sload(0x02)\n        /* \"contracts/token factory/Migrator.sol\":4811:4847  IWETH(WETH).balanceOf(address(this)) */\n      mload(0x40)\n      shl(0xe0, 0x70a08231)\n      dup2\n      mstore\n        /* \"contracts/token factory/Migrator.sol\":4841:4845  this */\n      address\n        /* \"contracts/token factory/Migrator.sol\":4811:4847  IWETH(WETH).balanceOf(address(this)) */\n      0x04\n      dup3\n      add\n        /* \"#utility.yul\":1029:1080   */\n      mstore\n        /* \"contracts/token factory/Migrator.sol\":4789:4808  uint256 wethBalance */\n      0x00\n      swap5\n      pop\n      sub(shl(0xa0, 0x01), 0x01)\n        /* \"contracts/token factory/Migrator.sol\":4817:4821  WETH */\n      swap1\n      swap2\n      and\n      swap3\n      pop\n        /* \"contracts/token factory/Migrator.sol\":4811:4832  IWETH(WETH).balanceOf */\n      0x70a08231\n      swap2\n      pop\n        /* \"#utility.yul\":1002:1020   */\n      0x24\n      add\n        /* \"contracts/token factory/Migrator.sol\":4811:4847  IWETH(WETH).balanceOf(address(this)) */\n      0x20\n      mload(0x40)\n      dup1\n      dup4\n      sub\n      dup2\n      dup7\n      gas\n      staticcall\n      iszero\n      dup1\n      iszero\n      tag_95\n      jumpi\n      returndatasize\n      0x00\n      dup1\n      returndatacopy\n      revert(0x00, returndatasize)\n    tag_95:\n      pop\n      pop\n      pop\n      pop\n      mload(0x40)\n      returndatasize\n      not(0x1f)\n      0x1f\n      dup3\n      add\n      and\n      dup3\n      add\n      dup1\n      0x40\n      mstore\n      pop\n      dup2\n      add\n      swap1\n      tag_96\n      swap2\n      swap1\n      tag_97\n      jump\t// in\n    tag_96:\n        /* \"contracts/token factory/Migrator.sol\":4789:4847  uint256 wethBalance = IWETH(WETH).balanceOf(address(this)) */\n      swap1\n      pop\n        /* \"contracts/token factory/Migrator.sol\":4880:4897  adjustedEthAmount */\n      dup2\n        /* \"contracts/token factory/Migrator.sol\":4865:4876  wethBalance */\n      dup2\n        /* \"contracts/token factory/Migrator.sol\":4865:4897  wethBalance >= adjustedEthAmount */\n      lt\n      iszero\n        /* \"contracts/token factory/Migrator.sol\":4857:4932  require(wethBalance >= adjustedEthAmount, \"Failed to wrap Ether into WETH\") */\n      tag_98\n      jumpi\n      mload(0x40)\n      shl(0xe5, 0x461bcd)\n      dup2\n      mstore\n        /* \"#utility.yul\":4069:4071   */\n      0x20\n        /* \"contracts/token factory/Migrator.sol\":4857:4932  require(wethBalance >= adjustedEthAmount, \"Failed to wrap Ether into WETH\") */\n      0x04\n      dup3\n      add\n        /* \"#utility.yul\":4051:4072   */\n      mstore\n        /* \"#utility.yul\":4108:4110   */\n      0x1e\n        /* \"#utility.yul\":4088:4106   */\n      0x24\n      dup3\n      add\n        /* \"#utility.yul\":4081:4111   */\n      mstore\n        /* \"#utility.yul\":4147:4179   */\n      0x4661696c656420746f207772617020457468657220696e746f20574554480000\n        /* \"#utility.yul\":4127:4145   */\n      0x44\n      dup3\n      add\n        /* \"#utility.yul\":4120:4180   */\n      mstore\n        /* \"#utility.yul\":4197:4215   */\n      0x64\n      add\n        /* \"contracts/token factory/Migrator.sol\":4857:4932  require(wethBalance >= adjustedEthAmount, \"Failed to wrap Ether into WETH\") */\n      tag_70\n        /* \"#utility.yul\":3867:4221   */\n      jump\n        /* \"contracts/token factory/Migrator.sol\":4857:4932  require(wethBalance >= adjustedEthAmount, \"Failed to wrap Ether into WETH\") */\n    tag_98:\n        /* \"contracts/token factory/Migrator.sol\":4943:5013  token.safeTransferFrom(msg.sender, address(this), adjustedTokenAmount) */\n      tag_101\n      sub(shl(0xa0, 0x01), 0x01)\n        /* \"contracts/token factory/Migrator.sol\":4943:4965  token.safeTransferFrom */\n      dup7\n      and\n        /* \"contracts/token factory/Migrator.sol\":4966:4976  msg.sender */\n      caller\n        /* \"contracts/token factory/Migrator.sol\":4986:4990  this */\n      address\n        /* \"contracts/token factory/Migrator.sol\":4993:5012  adjustedTokenAmount */\n      dup7\n        /* \"contracts/token factory/Migrator.sol\":4943:4965  token.safeTransferFrom */\n      tag_102\n        /* \"contracts/token factory/Migrator.sol\":4943:5013  token.safeTransferFrom(msg.sender, address(this), adjustedTokenAmount) */\n      jump\t// in\n    tag_101:\n        /* \"contracts/token factory/Migrator.sol\":5050:5054  WETH */\n      sload(0x02)\n        /* \"contracts/token factory/Migrator.sol\":5024:5038  address token0 */\n      0x00\n      swap1\n      sub(shl(0xa0, 0x01), 0x01)\n        /* \"contracts/token factory/Migrator.sol\":5050:5054  WETH */\n      swap1\n      dup2\n      and\n        /* \"contracts/token factory/Migrator.sol\":5042:5054  token < WETH */\n      swap1\n      dup8\n      and\n      lt\n        /* \"contracts/token factory/Migrator.sol\":5041:5070  (token < WETH) ? token : WETH */\n      tag_103\n      jumpi\n        /* \"contracts/token factory/Migrator.sol\":5066:5070  WETH */\n      and(sub(shl(0xa0, 0x01), 0x01), sload(0x02))\n        /* \"contracts/token factory/Migrator.sol\":5041:5070  (token < WETH) ? token : WETH */\n      jump(tag_104)\n    tag_103:\n        /* \"contracts/token factory/Migrator.sol\":5058:5063  token */\n      dup6\n        /* \"contracts/token factory/Migrator.sol\":5041:5070  (token < WETH) ? token : WETH */\n    tag_104:\n        /* \"contracts/token factory/Migrator.sol\":5106:5110  WETH */\n      sload(0x02)\n        /* \"contracts/token factory/Migrator.sol\":5024:5070  address token0 = (token < WETH) ? token : WETH */\n      swap1\n      swap2\n      pop\n        /* \"contracts/token factory/Migrator.sol\":5080:5094  address token1 */\n      0x00\n      swap1\n      sub(shl(0xa0, 0x01), 0x01)\n        /* \"contracts/token factory/Migrator.sol\":5106:5110  WETH */\n      swap1\n      dup2\n      and\n        /* \"contracts/token factory/Migrator.sol\":5098:5110  token < WETH */\n      swap1\n      dup9\n      and\n      lt\n        /* \"contracts/token factory/Migrator.sol\":5097:5126  (token < WETH) ? WETH : token */\n      tag_105\n      jumpi\n        /* \"contracts/token factory/Migrator.sol\":5121:5126  token */\n      dup7\n        /* \"contracts/token factory/Migrator.sol\":5097:5126  (token < WETH) ? WETH : token */\n      jump(tag_106)\n    tag_105:\n        /* \"contracts/token factory/Migrator.sol\":5114:5118  WETH */\n      and(sub(shl(0xa0, 0x01), 0x01), sload(0x02))\n        /* \"contracts/token factory/Migrator.sol\":5097:5126  (token < WETH) ? WETH : token */\n    tag_106:\n        /* \"contracts/token factory/Migrator.sol\":5080:5126  address token1 = (token < WETH) ? WETH : token */\n      swap1\n      pop\n        /* \"contracts/token factory/Migrator.sol\":5137:5157  uint160 sqrtPriceX96 */\n      0x00\n        /* \"contracts/token factory/Migrator.sol\":5160:5221  calculateSqrtPriceX96(adjustedTokenAmount, adjustedEthAmount) */\n      tag_107\n        /* \"contracts/token factory/Migrator.sol\":5182:5201  adjustedTokenAmount */\n      dup7\n        /* \"contracts/token factory/Migrator.sol\":5203:5220  adjustedEthAmount */\n      dup7\n        /* \"contracts/token factory/Migrator.sol\":5160:5181  calculateSqrtPriceX96 */\n      tag_53\n        /* \"contracts/token factory/Migrator.sol\":5160:5221  calculateSqrtPriceX96(adjustedTokenAmount, adjustedEthAmount) */\n      jump\t// in\n    tag_107:\n        /* \"contracts/token factory/Migrator.sol\":5263:5277  algebraUnified */\n      sload(0x01)\n        /* \"contracts/token factory/Migrator.sol\":5247:5413  IAlgebraUnified(algebraUnified).createAndInitializePoolIfNecessary(... */\n      mload(0x40)\n      shl(0xe1, 0x43a9d0cd)\n      dup2\n      mstore\n      sub(shl(0xa0, 0x01), 0x01)\n        /* \"#utility.yul\":4475:4507   */\n      dup7\n      dup2\n      and\n        /* \"contracts/token factory/Migrator.sol\":5247:5413  IAlgebraUnified(algebraUnified).createAndInitializePoolIfNecessary(... */\n      0x04\n      dup4\n      add\n        /* \"#utility.yul\":4457:4508   */\n      mstore\n        /* \"#utility.yul\":4544:4576   */\n      dup6\n      dup2\n      and\n        /* \"#utility.yul\":4524:4542   */\n      0x24\n      dup4\n      add\n        /* \"#utility.yul\":4517:4577   */\n      mstore\n        /* \"contracts/token factory/Migrator.sol\":5232:5244  address pool */\n      0x00\n        /* \"#utility.yul\":4593:4611   */\n      0x44\n      dup4\n      add\n        /* \"#utility.yul\":4586:4646   */\n      dup2\n      swap1\n      mstore\n        /* \"#utility.yul\":4682:4714   */\n      dup2\n      dup6\n      and\n        /* \"#utility.yul\":4662:4680   */\n      0x64\n      dup5\n      add\n        /* \"#utility.yul\":4655:4715   */\n      mstore\n        /* \"contracts/token factory/Migrator.sol\":5137:5221  uint160 sqrtPriceX96 = calculateSqrtPriceX96(adjustedTokenAmount, adjustedEthAmount) */\n      swap4\n      swap5\n      pop\n        /* \"contracts/token factory/Migrator.sol\":5263:5277  algebraUnified */\n      swap1\n      swap2\n      and\n      swap1\n        /* \"contracts/token factory/Migrator.sol\":5247:5313  IAlgebraUnified(algebraUnified).createAndInitializePoolIfNecessary */\n      0x8753a19a\n      swap1\n        /* \"#utility.yul\":4429:4448   */\n      0x84\n      add\n        /* \"contracts/token factory/Migrator.sol\":5247:5413  IAlgebraUnified(algebraUnified).createAndInitializePoolIfNecessary(... */\n      0x20\n      mload(0x40)\n      dup1\n      dup4\n      sub\n      dup2\n      0x00\n      dup8\n      gas\n      call\n      iszero\n      dup1\n      iszero\n      tag_111\n      jumpi\n      returndatasize\n      0x00\n      dup1\n      returndatacopy\n      revert(0x00, returndatasize)\n    tag_111:\n      pop\n      pop\n      pop\n      pop\n      mload(0x40)\n      returndatasize\n      not(0x1f)\n      0x1f\n      dup3\n      add\n      and\n      dup3\n      add\n      dup1\n      0x40\n      mstore\n      pop\n      dup2\n      add\n      swap1\n      tag_112\n      swap2\n      swap1\n      tag_113\n      jump\t// in\n    tag_112:\n        /* \"contracts/token factory/Migrator.sol\":5232:5413  address pool = IAlgebraUnified(algebraUnified).createAndInitializePoolIfNecessary(... */\n      swap1\n      pop\n      sub(shl(0xa0, 0x01), 0x01)\n        /* \"contracts/token factory/Migrator.sol\":5432:5450  pool != address(0) */\n      dup2\n      and\n        /* \"contracts/token factory/Migrator.sol\":5424:5484  require(pool != address(0), \"Failed to create Algebra pool\") */\n      tag_114\n      jumpi\n      mload(0x40)\n      shl(0xe5, 0x461bcd)\n      dup2\n      mstore\n        /* \"#utility.yul\":5184:5186   */\n      0x20\n        /* \"contracts/token factory/Migrator.sol\":5424:5484  require(pool != address(0), \"Failed to create Algebra pool\") */\n      0x04\n      dup3\n      add\n        /* \"#utility.yul\":5166:5187   */\n      mstore\n        /* \"#utility.yul\":5223:5225   */\n      0x1d\n        /* \"#utility.yul\":5203:5221   */\n      0x24\n      dup3\n      add\n        /* \"#utility.yul\":5196:5226   */\n      mstore\n        /* \"#utility.yul\":5262:5293   */\n      0x4661696c656420746f2063726561746520416c676562726120706f6f6c000000\n        /* \"#utility.yul\":5242:5260   */\n      0x44\n      dup3\n      add\n        /* \"#utility.yul\":5235:5294   */\n      mstore\n        /* \"#utility.yul\":5311:5329   */\n      0x64\n      add\n        /* \"contracts/token factory/Migrator.sol\":5424:5484  require(pool != address(0), \"Failed to create Algebra pool\") */\n      tag_70\n        /* \"#utility.yul\":4982:5335   */\n      jump\n        /* \"contracts/token factory/Migrator.sol\":5424:5484  require(pool != address(0), \"Failed to create Algebra pool\") */\n    tag_114:\n        /* \"contracts/token factory/Migrator.sol\":5526:5531  token */\n      dup9\n      sub(shl(0xa0, 0x01), 0x01)\n        /* \"contracts/token factory/Migrator.sol\":5499:5572  MigrationInitialized(pool, token, adjustedTokenAmount, adjustedEthAmount) */\n      and\n        /* \"contracts/token factory/Migrator.sol\":5520:5524  pool */\n      dup2\n      sub(shl(0xa0, 0x01), 0x01)\n        /* \"contracts/token factory/Migrator.sol\":5499:5572  MigrationInitialized(pool, token, adjustedTokenAmount, adjustedEthAmount) */\n      and\n      0x0bc269b08661fa7948aabbb2ac773747166492e0ac63735b66898001e237a1bc\n        /* \"contracts/token factory/Migrator.sol\":5533:5552  adjustedTokenAmount */\n      dup10\n        /* \"contracts/token factory/Migrator.sol\":5554:5571  adjustedEthAmount */\n      dup10\n        /* \"contracts/token factory/Migrator.sol\":5499:5572  MigrationInitialized(pool, token, adjustedTokenAmount, adjustedEthAmount) */\n      mload(0x40)\n      tag_117\n      swap3\n      swap2\n      swap1\n        /* \"#utility.yul\":5514:5539   */\n      swap2\n      dup3\n      mstore\n        /* \"#utility.yul\":5570:5572   */\n      0x20\n        /* \"#utility.yul\":5555:5573   */\n      dup3\n      add\n        /* \"#utility.yul\":5548:5582   */\n      mstore\n        /* \"#utility.yul\":5502:5504   */\n      0x40\n        /* \"#utility.yul\":5487:5505   */\n      add\n      swap1\n        /* \"#utility.yul\":5340:5588   */\n      jump\n        /* \"contracts/token factory/Migrator.sol\":5499:5572  MigrationInitialized(pool, token, adjustedTokenAmount, adjustedEthAmount) */\n    tag_117:\n      mload(0x40)\n      dup1\n      swap2\n      sub\n      swap1\n      log3\n        /* \"contracts/token factory/Migrator.sol\":5601:5615  algebraUnified */\n      sload(0x01)\n        /* \"contracts/token factory/Migrator.sol\":5583:5637  token.safeApprove(algebraUnified, adjustedTokenAmount) */\n      tag_119\n      swap1\n      sub(shl(0xa0, 0x01), 0x01)\n        /* \"contracts/token factory/Migrator.sol\":5583:5600  token.safeApprove */\n      dup12\n      dup2\n      and\n      swap2\n        /* \"contracts/token factory/Migrator.sol\":5601:5615  algebraUnified */\n      and\n        /* \"contracts/token factory/Migrator.sol\":5617:5636  adjustedTokenAmount */\n      dup10\n        /* \"contracts/token factory/Migrator.sol\":5583:5600  token.safeApprove */\n      tag_120\n        /* \"contracts/token factory/Migrator.sol\":5583:5637  token.safeApprove(algebraUnified, adjustedTokenAmount) */\n      jump\t// in\n    tag_119:\n        /* \"contracts/token factory/Migrator.sol\":5664:5678  algebraUnified */\n      sload(0x01)\n        /* \"contracts/token factory/Migrator.sol\":5647:5651  WETH */\n      sload(0x02)\n        /* \"contracts/token factory/Migrator.sol\":5647:5692  WETH.safeApprove(algebraUnified, wethBalance) */\n      tag_121\n      swap2\n      sub(shl(0xa0, 0x01), 0x01)\n        /* \"contracts/token factory/Migrator.sol\":5647:5651  WETH */\n      swap2\n      dup3\n      and\n      swap2\n        /* \"contracts/token factory/Migrator.sol\":5664:5678  algebraUnified */\n      and\n        /* \"contracts/token factory/Migrator.sol\":5680:5691  wethBalance */\n      dup8\n        /* \"contracts/token factory/Migrator.sol\":5647:5663  WETH.safeApprove */\n      tag_120\n        /* \"contracts/token factory/Migrator.sol\":5647:5692  WETH.safeApprove(algebraUnified, wethBalance) */\n      jump\t// in\n    tag_121:\n        /* \"contracts/token factory/Migrator.sol\":5746:6244  IAlgebraUnified.MintParams({... */\n      0x40\n      dup1\n      mload\n      0x0160\n      dup2\n      add\n      dup3\n      mstore\n      sub(shl(0xa0, 0x01), 0x01)\n      dup1\n      dup8\n      and\n      dup1\n      dup4\n      mstore\n      dup7\n      dup3\n      and\n      0x20\n      dup5\n      add\n      mstore\n        /* \"contracts/token factory/Migrator.sol\":5703:5743  IAlgebraUnified.MintParams memory params */\n      0x00\n        /* \"contracts/token factory/Migrator.sol\":5746:6244  IAlgebraUnified.MintParams({... */\n      swap4\n      dup4\n      add\n      dup5\n      swap1\n      mstore\n      not(0x0d89b3)\n      0x60\n      dup5\n      add\n      mstore\n        /* \"contracts/token factory/Migrator.sol\":3356:3362  887220 */\n      0x0d89b4\n        /* \"contracts/token factory/Migrator.sol\":5746:6244  IAlgebraUnified.MintParams({... */\n      0x80\n      dup5\n      add\n      mstore\n      0xa0\n      dup4\n      add\n      swap2\n        /* \"contracts/token factory/Migrator.sol\":5960:5975  token0 == token */\n      dup14\n      and\n      eq\n        /* \"contracts/token factory/Migrator.sol\":5959:6012  (token0 == token) ? adjustedTokenAmount : wethBalance */\n      tag_122\n      jumpi\n        /* \"contracts/token factory/Migrator.sol\":6001:6012  wethBalance */\n      dup8\n        /* \"contracts/token factory/Migrator.sol\":5959:6012  (token0 == token) ? adjustedTokenAmount : wethBalance */\n      jump(tag_123)\n    tag_122:\n        /* \"contracts/token factory/Migrator.sol\":5979:5998  adjustedTokenAmount */\n      dup10\n        /* \"contracts/token factory/Migrator.sol\":5959:6012  (token0 == token) ? adjustedTokenAmount : wethBalance */\n    tag_123:\n        /* \"contracts/token factory/Migrator.sol\":5746:6244  IAlgebraUnified.MintParams({... */\n      dup2\n      mstore\n      0x20\n      add\n        /* \"contracts/token factory/Migrator.sol\":6053:6058  token */\n      dup12\n      sub(shl(0xa0, 0x01), 0x01)\n        /* \"contracts/token factory/Migrator.sol\":6043:6058  token0 == token */\n      and\n        /* \"contracts/token factory/Migrator.sol\":6043:6049  token0 */\n      dup8\n      sub(shl(0xa0, 0x01), 0x01)\n        /* \"contracts/token factory/Migrator.sol\":6043:6058  token0 == token */\n      and\n      eq\n        /* \"contracts/token factory/Migrator.sol\":6042:6095  (token0 == token) ? wethBalance : adjustedTokenAmount */\n      tag_124\n      jumpi\n        /* \"contracts/token factory/Migrator.sol\":6076:6095  adjustedTokenAmount */\n      dup10\n        /* \"contracts/token factory/Migrator.sol\":6042:6095  (token0 == token) ? wethBalance : adjustedTokenAmount */\n      jump(tag_125)\n    tag_124:\n        /* \"contracts/token factory/Migrator.sol\":6062:6073  wethBalance */\n      dup8\n        /* \"contracts/token factory/Migrator.sol\":6042:6095  (token0 == token) ? wethBalance : adjustedTokenAmount */\n    tag_125:\n        /* \"contracts/token factory/Migrator.sol\":5746:6244  IAlgebraUnified.MintParams({... */\n      dup2\n      mstore\n        /* \"contracts/token factory/Migrator.sol\":6121:6122  0 */\n      0x00\n        /* \"contracts/token factory/Migrator.sol\":5746:6244  IAlgebraUnified.MintParams({... */\n      0x20\n      dup3\n      add\n      dup2\n      swap1\n      mstore\n      0x40\n      dup3\n      add\n      mstore\n        /* \"contracts/token factory/Migrator.sol\":6182:6186  this */\n      address\n        /* \"contracts/token factory/Migrator.sol\":5746:6244  IAlgebraUnified.MintParams({... */\n      0x60\n      dup3\n      add\n      mstore\n      0x80\n      add\n        /* \"contracts/token factory/Migrator.sol\":6211:6233  block.timestamp + 3600 */\n      tag_126\n        /* \"contracts/token factory/Migrator.sol\":6211:6226  block.timestamp */\n      timestamp\n        /* \"contracts/token factory/Migrator.sol\":6229:6233  3600 */\n      0x0e10\n        /* \"contracts/token factory/Migrator.sol\":6211:6233  block.timestamp + 3600 */\n      tag_127\n      jump\t// in\n    tag_126:\n        /* \"contracts/token factory/Migrator.sol\":5746:6244  IAlgebraUnified.MintParams({... */\n      swap1\n      mstore\n        /* \"contracts/token factory/Migrator.sol\":6344:6358  algebraUnified */\n      sload(0x01)\n        /* \"contracts/token factory/Migrator.sol\":6328:6372  IAlgebraUnified(algebraUnified).mint(params) */\n      mload(0x40)\n      shl(0xe0, 0xfe3f3be7)\n      dup2\n      mstore\n        /* \"contracts/token factory/Migrator.sol\":5703:6244  IAlgebraUnified.MintParams memory params = IAlgebraUnified.MintParams({... */\n      swap2\n      swap3\n      pop\n        /* \"contracts/token factory/Migrator.sol\":6256:6271  uint256 tokenId */\n      0x00\n      swap2\n      dup3\n      swap2\n      dup3\n      swap2\n      dup3\n      swap2\n      sub(shl(0xa0, 0x01), 0x01)\n        /* \"contracts/token factory/Migrator.sol\":6344:6358  algebraUnified */\n      and\n      swap1\n        /* \"contracts/token factory/Migrator.sol\":6328:6364  IAlgebraUnified(algebraUnified).mint */\n      0xfe3f3be7\n      swap1\n        /* \"contracts/token factory/Migrator.sol\":6328:6372  IAlgebraUnified(algebraUnified).mint(params) */\n      tag_128\n      swap1\n        /* \"contracts/token factory/Migrator.sol\":5703:6244  IAlgebraUnified.MintParams memory params = IAlgebraUnified.MintParams({... */\n      dup9\n      swap1\n        /* \"contracts/token factory/Migrator.sol\":6328:6372  IAlgebraUnified(algebraUnified).mint(params) */\n      0x04\n      add\n      tag_129\n      jump\t// in\n    tag_128:\n      0x80\n      mload(0x40)\n      dup1\n      dup4\n      sub\n      dup2\n      0x00\n      dup8\n      gas\n      call\n      iszero\n      dup1\n      iszero\n      tag_131\n      jumpi\n      returndatasize\n      0x00\n      dup1\n      returndatacopy\n      revert(0x00, returndatasize)\n    tag_131:\n      pop\n      pop\n      pop\n      pop\n      mload(0x40)\n      returndatasize\n      not(0x1f)\n      0x1f\n      dup3\n      add\n      and\n      dup3\n      add\n      dup1\n      0x40\n      mstore\n      pop\n      dup2\n      add\n      swap1\n      tag_132\n      swap2\n      swap1\n      tag_133\n      jump\t// in\n    tag_132:\n        /* \"contracts/token factory/Migrator.sol\":6255:6372  (uint256 tokenId, uint128 liquidity, uint256 amount0, uint256 amount1) = IAlgebraUnified(algebraUnified).mint(params) */\n      swap4\n      pop\n      swap4\n      pop\n      swap4\n      pop\n      swap4\n      pop\n        /* \"contracts/token factory/Migrator.sol\":6403:6404  0 */\n      0x00\n        /* \"contracts/token factory/Migrator.sol\":6391:6400  liquidity */\n      dup4\n      sub(shl(0x80, 0x01), 0x01)\n        /* \"contracts/token factory/Migrator.sol\":6391:6404  liquidity > 0 */\n      and\n      gt\n        /* \"contracts/token factory/Migrator.sol\":6383:6433  require(liquidity > 0, \"Failed to mint liquidity\") */\n      tag_134\n      jumpi\n      mload(0x40)\n      shl(0xe5, 0x461bcd)\n      dup2\n      mstore\n        /* \"#utility.yul\":7847:7849   */\n      0x20\n        /* \"contracts/token factory/Migrator.sol\":6383:6433  require(liquidity > 0, \"Failed to mint liquidity\") */\n      0x04\n      dup3\n      add\n        /* \"#utility.yul\":7829:7850   */\n      mstore\n        /* \"#utility.yul\":7886:7888   */\n      0x18\n        /* \"#utility.yul\":7866:7884   */\n      0x24\n      dup3\n      add\n        /* \"#utility.yul\":7859:7889   */\n      mstore\n        /* \"#utility.yul\":7925:7951   */\n      0x4661696c656420746f206d696e74206c69717569646974790000000000000000\n        /* \"#utility.yul\":7905:7923   */\n      0x44\n      dup3\n      add\n        /* \"#utility.yul\":7898:7952   */\n      mstore\n        /* \"#utility.yul\":7969:7987   */\n      0x64\n      add\n        /* \"contracts/token factory/Migrator.sol\":6383:6433  require(liquidity > 0, \"Failed to mint liquidity\") */\n      tag_70\n        /* \"#utility.yul\":7645:7993   */\n      jump\n        /* \"contracts/token factory/Migrator.sol\":6383:6433  require(liquidity > 0, \"Failed to mint liquidity\") */\n    tag_134:\n        /* \"contracts/token factory/Migrator.sol\":6448:6506  LiquidityAdded(pool, tokenId, liquidity, amount0, amount1) */\n      0x40\n      dup1\n      mload\n        /* \"#utility.yul\":8229:8254   */\n      dup6\n      dup2\n      mstore\n      sub(shl(0x80, 0x01), 0x01)\n        /* \"#utility.yul\":8290:8337   */\n      dup6\n      and\n        /* \"#utility.yul\":8285:8287   */\n      0x20\n        /* \"#utility.yul\":8270:8288   */\n      dup3\n      add\n        /* \"#utility.yul\":8263:8338   */\n      mstore\n        /* \"#utility.yul\":8354:8372   */\n      swap1\n      dup2\n      add\n        /* \"#utility.yul\":8347:8381   */\n      dup4\n      swap1\n      mstore\n        /* \"#utility.yul\":8412:8414   */\n      0x60\n        /* \"#utility.yul\":8397:8415   */\n      dup2\n      add\n        /* \"#utility.yul\":8390:8424   */\n      dup3\n      swap1\n      mstore\n      sub(shl(0xa0, 0x01), 0x01)\n        /* \"contracts/token factory/Migrator.sol\":6448:6506  LiquidityAdded(pool, tokenId, liquidity, amount0, amount1) */\n      dup8\n      and\n      swap1\n      0x936f1605239d50a44520651cb0698a8f77eea34a13f43a4eac22872b1baf48cc\n      swap1\n        /* \"#utility.yul\":8216:8219   */\n      0x80\n        /* \"#utility.yul\":8201:8220   */\n      add\n        /* \"contracts/token factory/Migrator.sol\":6448:6506  LiquidityAdded(pool, tokenId, liquidity, amount0, amount1) */\n      mload(0x40)\n      dup1\n      swap2\n      sub\n      swap1\n      log2\n        /* \"contracts/token factory/Migrator.sol\":4378:6513  {... */\n      pop\n      pop\n      pop\n      pop\n      pop\n      pop\n      pop\n      pop\n      pop\n      pop\n      pop\n      pop\n        /* \"contracts/token factory/Migrator.sol\":4288:6513  function initiateMigration(address token, uint256 tokenAmount) external payable onlyOwner {... */\n      pop\n      pop\n      jump\t// out\n        /* \"contracts/token factory/Migrator.sol\":6519:6936  function calculateSqrtPriceX96(uint256 tokenAmount, uint256 ethAmount) public pure returns (uint160) {... */\n    tag_53:\n        /* \"contracts/token factory/Migrator.sol\":6611:6618  uint160 */\n      0x00\n        /* \"contracts/token factory/Migrator.sol\":6630:6657  uint256 adjustedTokenAmount */\n      dup1\n        /* \"contracts/token factory/Migrator.sol\":3493:3509  1_000_000 * 1e18 */\n      0xd3c21bcecceda1000000\n        /* \"contracts/token factory/Migrator.sol\":6660:6671  tokenAmount */\n      dup5\n        /* \"contracts/token factory/Migrator.sol\":6660:6689  tokenAmount > MAX_TOKEN_LIMIT */\n      gt\n        /* \"contracts/token factory/Migrator.sol\":6660:6721  tokenAmount > MAX_TOKEN_LIMIT ? MAX_TOKEN_LIMIT : tokenAmount */\n      tag_140\n      jumpi\n        /* \"contracts/token factory/Migrator.sol\":6710:6721  tokenAmount */\n      dup4\n        /* \"contracts/token factory/Migrator.sol\":6660:6721  tokenAmount > MAX_TOKEN_LIMIT ? MAX_TOKEN_LIMIT : tokenAmount */\n      jump(tag_141)\n    tag_140:\n        /* \"contracts/token factory/Migrator.sol\":3493:3509  1_000_000 * 1e18 */\n      0xd3c21bcecceda1000000\n        /* \"contracts/token factory/Migrator.sol\":6660:6721  tokenAmount > MAX_TOKEN_LIMIT ? MAX_TOKEN_LIMIT : tokenAmount */\n    tag_141:\n        /* \"contracts/token factory/Migrator.sol\":6630:6721  uint256 adjustedTokenAmount = tokenAmount > MAX_TOKEN_LIMIT ? MAX_TOKEN_LIMIT : tokenAmount */\n      swap1\n      pop\n        /* \"contracts/token factory/Migrator.sol\":6731:6756  uint256 adjustedEthAmount */\n      0x00\n        /* \"contracts/token factory/Migrator.sol\":3409:3417  10 ether */\n      0x8ac7230489e80000\n        /* \"contracts/token factory/Migrator.sol\":6759:6768  ethAmount */\n      dup5\n        /* \"contracts/token factory/Migrator.sol\":6759:6784  ethAmount > MAX_ETH_LIMIT */\n      gt\n        /* \"contracts/token factory/Migrator.sol\":6759:6812  ethAmount > MAX_ETH_LIMIT ? MAX_ETH_LIMIT : ethAmount */\n      tag_142\n      jumpi\n        /* \"contracts/token factory/Migrator.sol\":6803:6812  ethAmount */\n      dup4\n        /* \"contracts/token factory/Migrator.sol\":6759:6812  ethAmount > MAX_ETH_LIMIT ? MAX_ETH_LIMIT : ethAmount */\n      jump(tag_143)\n    tag_142:\n        /* \"contracts/token factory/Migrator.sol\":3409:3417  10 ether */\n      0x8ac7230489e80000\n        /* \"contracts/token factory/Migrator.sol\":6759:6812  ethAmount > MAX_ETH_LIMIT ? MAX_ETH_LIMIT : ethAmount */\n    tag_143:\n        /* \"contracts/token factory/Migrator.sol\":6731:6812  uint256 adjustedEthAmount = ethAmount > MAX_ETH_LIMIT ? MAX_ETH_LIMIT : ethAmount */\n      swap1\n      pop\n        /* \"contracts/token factory/Migrator.sol\":6823:6836  uint256 ratio */\n      0x00\n        /* \"contracts/token factory/Migrator.sol\":6839:6886  (adjustedEthAmount << 96) / adjustedTokenAmount */\n      tag_144\n        /* \"contracts/token factory/Migrator.sol\":6867:6886  adjustedTokenAmount */\n      dup4\n        /* \"contracts/token factory/Migrator.sol\":6861:6863  96 */\n      0x60\n        /* \"contracts/token factory/Migrator.sol\":6840:6863  adjustedEthAmount << 96 */\n      dup5\n      swap1\n      shl\n        /* \"contracts/token factory/Migrator.sol\":6839:6886  (adjustedEthAmount << 96) / adjustedTokenAmount */\n      tag_145\n      jump\t// in\n    tag_144:\n        /* \"contracts/token factory/Migrator.sol\":6823:6886  uint256 ratio = (adjustedEthAmount << 96) / adjustedTokenAmount */\n      swap1\n      pop\n        /* \"contracts/token factory/Migrator.sol\":6926:6928  48 */\n      0x30\n        /* \"contracts/token factory/Migrator.sol\":6911:6922  sqrt(ratio) */\n      tag_146\n        /* \"contracts/token factory/Migrator.sol\":6916:6921  ratio */\n      dup3\n        /* \"contracts/token factory/Migrator.sol\":6911:6915  sqrt */\n      tag_147\n        /* \"contracts/token factory/Migrator.sol\":6911:6922  sqrt(ratio) */\n      jump\t// in\n    tag_146:\n        /* \"contracts/token factory/Migrator.sol\":6911:6928  sqrt(ratio) << 48 */\n      swap1\n      shl\n        /* \"contracts/token factory/Migrator.sol\":6896:6929  return uint160(sqrt(ratio) << 48) */\n      swap4\n      pop\n      pop\n      pop\n      pop\n        /* \"contracts/token factory/Migrator.sol\":6519:6936  function calculateSqrtPriceX96(uint256 tokenAmount, uint256 ethAmount) public pure returns (uint160) {... */\n    tag_139:\n      swap3\n      swap2\n      pop\n      pop\n      jump\t// out\n        /* \"contracts/token factory/Migrator.sol\":7368:7508  function updateWETH(address _WETH) external onlyOwner {... */\n    tag_67:\n        /* \"contracts/token factory/Migrator.sol\":3935:3940  owner */\n      and(sub(shl(0xa0, 0x01), 0x01), sload(0x00))\n        /* \"contracts/token factory/Migrator.sol\":3921:3931  msg.sender */\n      caller\n        /* \"contracts/token factory/Migrator.sol\":3921:3940  msg.sender == owner */\n      eq\n        /* \"contracts/token factory/Migrator.sol\":3913:3969  require(msg.sender == owner, \"Only owner can call this\") */\n      tag_149\n      jumpi\n      mload(0x40)\n      shl(0xe5, 0x461bcd)\n      dup2\n      mstore\n      0x04\n      add\n      tag_70\n      swap1\n      tag_71\n      jump\t// in\n    tag_149:\n      sub(shl(0xa0, 0x01), 0x01)\n        /* \"contracts/token factory/Migrator.sol\":7440:7459  _WETH != address(0) */\n      dup2\n      and\n        /* \"contracts/token factory/Migrator.sol\":7432:7479  require(_WETH != address(0), \"Invalid address\") */\n      tag_152\n      jumpi\n      mload(0x40)\n      shl(0xe5, 0x461bcd)\n      dup2\n      mstore\n        /* \"#utility.yul\":2676:2678   */\n      0x20\n        /* \"contracts/token factory/Migrator.sol\":7432:7479  require(_WETH != address(0), \"Invalid address\") */\n      0x04\n      dup3\n      add\n        /* \"#utility.yul\":2658:2679   */\n      mstore\n        /* \"#utility.yul\":2715:2717   */\n      0x0f\n        /* \"#utility.yul\":2695:2713   */\n      0x24\n      dup3\n      add\n        /* \"#utility.yul\":2688:2718   */\n      mstore\n      shl(0x88, 0x496e76616c69642061646472657373)\n        /* \"#utility.yul\":2734:2752   */\n      0x44\n      dup3\n      add\n        /* \"#utility.yul\":2727:2772   */\n      mstore\n        /* \"#utility.yul\":2789:2807   */\n      0x64\n      add\n        /* \"contracts/token factory/Migrator.sol\":7432:7479  require(_WETH != address(0), \"Invalid address\") */\n      tag_70\n        /* \"#utility.yul\":2474:2813   */\n      jump\n        /* \"contracts/token factory/Migrator.sol\":7432:7479  require(_WETH != address(0), \"Invalid address\") */\n    tag_152:\n        /* \"contracts/token factory/Migrator.sol\":7489:7493  WETH */\n      0x02\n        /* \"contracts/token factory/Migrator.sol\":7489:7501  WETH = _WETH */\n      dup1\n      sload\n      not(sub(shl(0xa0, 0x01), 0x01))\n      and\n      sub(shl(0xa0, 0x01), 0x01)\n      swap3\n      swap1\n      swap3\n      and\n      swap2\n      swap1\n      swap2\n      or\n      swap1\n      sstore\n        /* \"contracts/token factory/Migrator.sol\":7368:7508  function updateWETH(address _WETH) external onlyOwner {... */\n      jump\t// out\n        /* \"contracts/token factory/Migrator.sol\":1601:2082  function safeTransferFrom(... */\n    tag_102:\n        /* \"contracts/token factory/Migrator.sol\":1800:1954  abi.encodeWithSelector(... */\n      0x40\n      dup1\n      mload\n      sub(shl(0xa0, 0x01), 0x01)\n        /* \"#utility.yul\":8877:8909   */\n      dup6\n      dup2\n      and\n        /* \"contracts/token factory/Migrator.sol\":1800:1954  abi.encodeWithSelector(... */\n      0x24\n      dup4\n      add\n        /* \"#utility.yul\":8859:8910   */\n      mstore\n        /* \"#utility.yul\":8946:8978   */\n      dup5\n      dup2\n      and\n        /* \"#utility.yul\":8926:8944   */\n      0x44\n      dup4\n      add\n        /* \"#utility.yul\":8919:8979   */\n      mstore\n        /* \"#utility.yul\":8995:9013   */\n      0x64\n      dup1\n      dup4\n      add\n        /* \"#utility.yul\":8988:9022   */\n      dup6\n      swap1\n      mstore\n        /* \"contracts/token factory/Migrator.sol\":1800:1954  abi.encodeWithSelector(... */\n      dup4\n      mload\n      dup1\n      dup5\n      sub\n      swap1\n      swap2\n      add\n      dup2\n      mstore\n        /* \"#utility.yul\":8832:8850   */\n      0x84\n      swap1\n      swap3\n      add\n        /* \"contracts/token factory/Migrator.sol\":1800:1954  abi.encodeWithSelector(... */\n      dup4\n      mstore\n      0x20\n      dup3\n      add\n      dup1\n      mload\n      sub(shl(0xe0, 0x01), 0x01)\n      and\n      shl(0xe0, 0x23b872dd)\n      or\n      swap1\n      mstore\n        /* \"contracts/token factory/Migrator.sol\":1776:1964  token.call(... */\n      swap2\n      mload\n      0x00\n      swap3\n      dup4\n      swap3\n        /* \"contracts/token factory/Migrator.sol\":1776:1786  token.call */\n      swap1\n      dup9\n      and\n      swap2\n        /* \"contracts/token factory/Migrator.sol\":1776:1964  token.call(... */\n      tag_157\n      swap2\n        /* \"contracts/token factory/Migrator.sol\":1800:1954  abi.encodeWithSelector(... */\n      swap1\n        /* \"contracts/token factory/Migrator.sol\":1776:1964  token.call(... */\n      tag_158\n      jump\t// in\n    tag_157:\n      0x00\n      mload(0x40)\n      dup1\n      dup4\n      sub\n      dup2\n      0x00\n      dup7\n      gas\n      call\n      swap2\n      pop\n      pop\n      returndatasize\n      dup1\n      0x00\n      dup2\n      eq\n      tag_161\n      jumpi\n      mload(0x40)\n      swap2\n      pop\n      and(add(returndatasize, 0x3f), not(0x1f))\n      dup3\n      add\n      0x40\n      mstore\n      returndatasize\n      dup3\n      mstore\n      returndatasize\n      0x00\n      0x20\n      dup5\n      add\n      returndatacopy\n      jump(tag_160)\n    tag_161:\n      0x60\n      swap2\n      pop\n    tag_160:\n      pop\n        /* \"contracts/token factory/Migrator.sol\":1740:1964  (bool success, bytes memory data) = token.call(... */\n      swap2\n      pop\n      swap2\n      pop\n        /* \"contracts/token factory/Migrator.sol\":1979:1986  success */\n      dup2\n        /* \"contracts/token factory/Migrator.sol\":1978:1986  !success */\n      iszero\n        /* \"contracts/token factory/Migrator.sol\":1978:2037  !success || (data.length != 0 && !abi.decode(data, (bool))) */\n      dup1\n      tag_163\n      jumpi\n      pop\n        /* \"contracts/token factory/Migrator.sol\":1991:2002  data.length */\n      dup1\n      mload\n        /* \"contracts/token factory/Migrator.sol\":1991:2007  data.length != 0 */\n      iszero\n      dup1\n      iszero\n      swap1\n        /* \"contracts/token factory/Migrator.sol\":1991:2036  data.length != 0 && !abi.decode(data, (bool)) */\n      tag_163\n      jumpi\n      pop\n        /* \"contracts/token factory/Migrator.sol\":2023:2027  data */\n      dup1\n        /* \"contracts/token factory/Migrator.sol\":2012:2036  abi.decode(data, (bool)) */\n      dup1\n      0x20\n      add\n      swap1\n      mload\n      dup2\n      add\n      swap1\n      tag_164\n      swap2\n      swap1\n      tag_165\n      jump\t// in\n    tag_164:\n        /* \"contracts/token factory/Migrator.sol\":2011:2036  !abi.decode(data, (bool)) */\n      iszero\n        /* \"contracts/token factory/Migrator.sol\":1991:2036  data.length != 0 && !abi.decode(data, (bool)) */\n    tag_163:\n        /* \"contracts/token factory/Migrator.sol\":1974:2076  if (!success || (data.length != 0 && !abi.decode(data, (bool)))) {... */\n      iszero\n      tag_166\n      jumpi\n        /* \"contracts/token factory/Migrator.sol\":2060:2065  STF() */\n      mload(0x40)\n      shl(0xe0, 0x817275ab)\n      dup2\n      mstore\n      0x04\n      add\n      mload(0x40)\n      dup1\n      swap2\n      sub\n      swap1\n      revert\n        /* \"contracts/token factory/Migrator.sol\":1974:2076  if (!success || (data.length != 0 && !abi.decode(data, (bool)))) {... */\n    tag_166:\n        /* \"contracts/token factory/Migrator.sol\":1730:2082  {... */\n      pop\n      pop\n        /* \"contracts/token factory/Migrator.sol\":1601:2082  function safeTransferFrom(... */\n      pop\n      pop\n      pop\n      pop\n      jump\t// out\n        /* \"contracts/token factory/Migrator.sol\":2506:2932  function safeApprove(... */\n    tag_120:\n        /* \"contracts/token factory/Migrator.sol\":2678:2805  abi.encodeWithSelector(... */\n      0x40\n      dup1\n      mload\n      sub(shl(0xa0, 0x01), 0x01)\n        /* \"#utility.yul\":9924:9956   */\n      dup5\n      dup2\n      and\n        /* \"contracts/token factory/Migrator.sol\":2678:2805  abi.encodeWithSelector(... */\n      0x24\n      dup4\n      add\n        /* \"#utility.yul\":9906:9957   */\n      mstore\n        /* \"#utility.yul\":9973:9991   */\n      0x44\n      dup1\n      dup4\n      add\n        /* \"#utility.yul\":9966:10000   */\n      dup6\n      swap1\n      mstore\n        /* \"contracts/token factory/Migrator.sol\":2678:2805  abi.encodeWithSelector(... */\n      dup4\n      mload\n      dup1\n      dup5\n      sub\n      swap1\n      swap2\n      add\n      dup2\n      mstore\n        /* \"#utility.yul\":9879:9897   */\n      0x64\n      swap1\n      swap3\n      add\n        /* \"contracts/token factory/Migrator.sol\":2678:2805  abi.encodeWithSelector(... */\n      dup4\n      mstore\n      0x20\n      dup3\n      add\n      dup1\n      mload\n      sub(shl(0xe0, 0x01), 0x01)\n      and\n      shl(0xe0, 0x095ea7b3)\n      or\n      swap1\n      mstore\n        /* \"contracts/token factory/Migrator.sol\":2654:2815  token.call(... */\n      swap2\n      mload\n      0x00\n      swap3\n      dup4\n      swap3\n        /* \"contracts/token factory/Migrator.sol\":2654:2664  token.call */\n      swap1\n      dup8\n      and\n      swap2\n        /* \"contracts/token factory/Migrator.sol\":2654:2815  token.call(... */\n      tag_170\n      swap2\n        /* \"contracts/token factory/Migrator.sol\":2678:2805  abi.encodeWithSelector(... */\n      swap1\n        /* \"contracts/token factory/Migrator.sol\":2654:2815  token.call(... */\n      tag_158\n      jump\t// in\n    tag_170:\n      0x00\n      mload(0x40)\n      dup1\n      dup4\n      sub\n      dup2\n      0x00\n      dup7\n      gas\n      call\n      swap2\n      pop\n      pop\n      returndatasize\n      dup1\n      0x00\n      dup2\n      eq\n      tag_173\n      jumpi\n      mload(0x40)\n      swap2\n      pop\n      and(add(returndatasize, 0x3f), not(0x1f))\n      dup3\n      add\n      0x40\n      mstore\n      returndatasize\n      dup3\n      mstore\n      returndatasize\n      0x00\n      0x20\n      dup5\n      add\n      returndatacopy\n      jump(tag_172)\n    tag_173:\n      0x60\n      swap2\n      pop\n    tag_172:\n      pop\n        /* \"contracts/token factory/Migrator.sol\":2618:2815  (bool success, bytes memory data) = token.call(... */\n      swap2\n      pop\n      swap2\n      pop\n        /* \"contracts/token factory/Migrator.sol\":2830:2837  success */\n      dup2\n        /* \"contracts/token factory/Migrator.sol\":2829:2837  !success */\n      iszero\n        /* \"contracts/token factory/Migrator.sol\":2829:2888  !success || (data.length != 0 && !abi.decode(data, (bool))) */\n      dup1\n      tag_175\n      jumpi\n      pop\n        /* \"contracts/token factory/Migrator.sol\":2842:2853  data.length */\n      dup1\n      mload\n        /* \"contracts/token factory/Migrator.sol\":2842:2858  data.length != 0 */\n      iszero\n      dup1\n      iszero\n      swap1\n        /* \"contracts/token factory/Migrator.sol\":2842:2887  data.length != 0 && !abi.decode(data, (bool)) */\n      tag_175\n      jumpi\n      pop\n        /* \"contracts/token factory/Migrator.sol\":2874:2878  data */\n      dup1\n        /* \"contracts/token factory/Migrator.sol\":2863:2887  abi.decode(data, (bool)) */\n      dup1\n      0x20\n      add\n      swap1\n      mload\n      dup2\n      add\n      swap1\n      tag_176\n      swap2\n      swap1\n      tag_165\n      jump\t// in\n    tag_176:\n        /* \"contracts/token factory/Migrator.sol\":2862:2887  !abi.decode(data, (bool)) */\n      iszero\n        /* \"contracts/token factory/Migrator.sol\":2842:2887  data.length != 0 && !abi.decode(data, (bool)) */\n    tag_175:\n        /* \"contracts/token factory/Migrator.sol\":2825:2926  if (!success || (data.length != 0 && !abi.decode(data, (bool)))) {... */\n      iszero\n      tag_177\n      jumpi\n        /* \"contracts/token factory/Migrator.sol\":2911:2915  SA() */\n      mload(0x40)\n      shl(0xe1, 0x7cd36c65)\n      dup2\n      mstore\n      0x04\n      add\n      mload(0x40)\n      dup1\n      swap2\n      sub\n      swap1\n      revert\n        /* \"contracts/token factory/Migrator.sol\":2825:2926  if (!success || (data.length != 0 && !abi.decode(data, (bool)))) {... */\n    tag_177:\n        /* \"contracts/token factory/Migrator.sol\":2608:2932  {... */\n      pop\n      pop\n        /* \"contracts/token factory/Migrator.sol\":2506:2932  function safeApprove(... */\n      pop\n      pop\n      pop\n      jump\t// out\n        /* \"contracts/token factory/Migrator.sol\":6942:7166  function sqrt(uint256 x) internal pure returns (uint256) {... */\n    tag_147:\n        /* \"contracts/token factory/Migrator.sol\":6990:6997  uint256 */\n      0x00\n      dup1\n        /* \"contracts/token factory/Migrator.sol\":7031:7032  2 */\n      0x02\n        /* \"contracts/token factory/Migrator.sol\":7022:7027  x + 1 */\n      tag_179\n        /* \"contracts/token factory/Migrator.sol\":7022:7023  x */\n      dup5\n        /* \"contracts/token factory/Migrator.sol\":7026:7027  1 */\n      0x01\n        /* \"contracts/token factory/Migrator.sol\":7022:7027  x + 1 */\n      tag_127\n      jump\t// in\n    tag_179:\n        /* \"contracts/token factory/Migrator.sol\":7021:7032  (x + 1) / 2 */\n      tag_180\n      swap2\n      swap1\n      tag_145\n      jump\t// in\n    tag_180:\n        /* \"contracts/token factory/Migrator.sol\":7009:7032  uint256 z = (x + 1) / 2 */\n      swap1\n      pop\n        /* \"contracts/token factory/Migrator.sol\":7054:7055  x */\n      dup3\n        /* \"contracts/token factory/Migrator.sol\":7065:7142  while (z < y) {... */\n    tag_181:\n        /* \"contracts/token factory/Migrator.sol\":7076:7077  y */\n      dup1\n        /* \"contracts/token factory/Migrator.sol\":7072:7073  z */\n      dup3\n        /* \"contracts/token factory/Migrator.sol\":7072:7077  z < y */\n      lt\n        /* \"contracts/token factory/Migrator.sol\":7065:7142  while (z < y) {... */\n      iszero\n      tag_182\n      jumpi\n      pop\n        /* \"contracts/token factory/Migrator.sol\":7097:7098  z */\n      dup1\n        /* \"contracts/token factory/Migrator.sol\":7130:7131  2 */\n      0x02\n        /* \"contracts/token factory/Migrator.sol\":7097:7098  z */\n      dup2\n        /* \"contracts/token factory/Migrator.sol\":7117:7122  x / z */\n      tag_183\n        /* \"contracts/token factory/Migrator.sol\":7097:7098  z */\n      dup2\n        /* \"contracts/token factory/Migrator.sol\":7117:7118  x */\n      dup8\n        /* \"contracts/token factory/Migrator.sol\":7117:7122  x / z */\n      tag_145\n      jump\t// in\n    tag_183:\n        /* \"contracts/token factory/Migrator.sol\":7117:7126  x / z + z */\n      tag_184\n      swap2\n      swap1\n      tag_127\n      jump\t// in\n    tag_184:\n        /* \"contracts/token factory/Migrator.sol\":7116:7131  (x / z + z) / 2 */\n      tag_185\n      swap2\n      swap1\n      tag_145\n      jump\t// in\n    tag_185:\n        /* \"contracts/token factory/Migrator.sol\":7112:7131  z = (x / z + z) / 2 */\n      swap2\n      pop\n        /* \"contracts/token factory/Migrator.sol\":7065:7142  while (z < y) {... */\n      jump(tag_181)\n    tag_182:\n        /* \"contracts/token factory/Migrator.sol\":7158:7159  y */\n      swap4\n        /* \"contracts/token factory/Migrator.sol\":6942:7166  function sqrt(uint256 x) internal pure returns (uint256) {... */\n      swap3\n      pop\n      pop\n      pop\n      jump\t// out\n        /* \"#utility.yul\":14:145   */\n    tag_186:\n      sub(shl(0xa0, 0x01), 0x01)\n        /* \"#utility.yul\":89:120   */\n      dup2\n      and\n        /* \"#utility.yul\":79:121   */\n      dup2\n      eq\n        /* \"#utility.yul\":69:139   */\n      tag_191\n      jumpi\n        /* \"#utility.yul\":135:136   */\n      0x00\n        /* \"#utility.yul\":132:133   */\n      dup1\n        /* \"#utility.yul\":125:137   */\n      revert\n        /* \"#utility.yul\":69:139   */\n    tag_191:\n        /* \"#utility.yul\":14:145   */\n      pop\n      jump\t// out\n        /* \"#utility.yul\":150:397   */\n    tag_20:\n        /* \"#utility.yul\":209:215   */\n      0x00\n        /* \"#utility.yul\":262:264   */\n      0x20\n        /* \"#utility.yul\":250:259   */\n      dup3\n        /* \"#utility.yul\":241:248   */\n      dup5\n        /* \"#utility.yul\":237:260   */\n      sub\n        /* \"#utility.yul\":233:265   */\n      slt\n        /* \"#utility.yul\":230:282   */\n      iszero\n      tag_193\n      jumpi\n        /* \"#utility.yul\":278:279   */\n      0x00\n        /* \"#utility.yul\":275:276   */\n      dup1\n        /* \"#utility.yul\":268:280   */\n      revert\n        /* \"#utility.yul\":230:282   */\n    tag_193:\n        /* \"#utility.yul\":317:326   */\n      dup2\n        /* \"#utility.yul\":304:327   */\n      calldataload\n        /* \"#utility.yul\":336:367   */\n      tag_182\n        /* \"#utility.yul\":361:366   */\n      dup2\n        /* \"#utility.yul\":336:367   */\n      tag_186\n      jump\t// in\n        /* \"#utility.yul\":402:769   */\n    tag_24:\n        /* \"#utility.yul\":470:476   */\n      0x00\n        /* \"#utility.yul\":478:484   */\n      dup1\n        /* \"#utility.yul\":531:533   */\n      0x40\n        /* \"#utility.yul\":519:528   */\n      dup4\n        /* \"#utility.yul\":510:517   */\n      dup6\n        /* \"#utility.yul\":506:529   */\n      sub\n        /* \"#utility.yul\":502:534   */\n      slt\n        /* \"#utility.yul\":499:551   */\n      iszero\n      tag_196\n      jumpi\n        /* \"#utility.yul\":547:548   */\n      0x00\n        /* \"#utility.yul\":544:545   */\n      dup1\n        /* \"#utility.yul\":537:549   */\n      revert\n        /* \"#utility.yul\":499:551   */\n    tag_196:\n        /* \"#utility.yul\":586:595   */\n      dup3\n        /* \"#utility.yul\":573:596   */\n      calldataload\n        /* \"#utility.yul\":605:636   */\n      tag_197\n        /* \"#utility.yul\":630:635   */\n      dup2\n        /* \"#utility.yul\":605:636   */\n      tag_186\n      jump\t// in\n    tag_197:\n        /* \"#utility.yul\":655:660   */\n      swap5\n        /* \"#utility.yul\":733:735   */\n      0x20\n        /* \"#utility.yul\":718:736   */\n      swap4\n      swap1\n      swap4\n      add\n        /* \"#utility.yul\":705:737   */\n      calldataload\n      swap4\n      pop\n      pop\n      pop\n        /* \"#utility.yul\":402:769   */\n      jump\t// out\n        /* \"#utility.yul\":1562:1908   */\n    tag_52:\n        /* \"#utility.yul\":1630:1636   */\n      0x00\n        /* \"#utility.yul\":1638:1644   */\n      dup1\n        /* \"#utility.yul\":1691:1693   */\n      0x40\n        /* \"#utility.yul\":1679:1688   */\n      dup4\n        /* \"#utility.yul\":1670:1677   */\n      dup6\n        /* \"#utility.yul\":1666:1689   */\n      sub\n        /* \"#utility.yul\":1662:1694   */\n      slt\n        /* \"#utility.yul\":1659:1711   */\n      iszero\n      tag_204\n      jumpi\n        /* \"#utility.yul\":1707:1708   */\n      0x00\n        /* \"#utility.yul\":1704:1705   */\n      dup1\n        /* \"#utility.yul\":1697:1709   */\n      revert\n        /* \"#utility.yul\":1659:1711   */\n    tag_204:\n      pop\n      pop\n        /* \"#utility.yul\":1752:1775   */\n      dup1\n      calldataload\n      swap3\n        /* \"#utility.yul\":1872:1874   */\n      0x20\n        /* \"#utility.yul\":1857:1875   */\n      swap1\n      swap2\n      add\n        /* \"#utility.yul\":1844:1876   */\n      calldataload\n      swap2\n      pop\n        /* \"#utility.yul\":1562:1908   */\n      jump\t// out\n        /* \"#utility.yul\":2121:2469   */\n    tag_71:\n        /* \"#utility.yul\":2323:2325   */\n      0x20\n        /* \"#utility.yul\":2305:2326   */\n      dup1\n      dup3\n      mstore\n        /* \"#utility.yul\":2362:2364   */\n      0x18\n        /* \"#utility.yul\":2342:2360   */\n      swap1\n      dup3\n      add\n        /* \"#utility.yul\":2335:2365   */\n      mstore\n        /* \"#utility.yul\":2401:2427   */\n      0x4f6e6c79206f776e65722063616e2063616c6c20746869730000000000000000\n        /* \"#utility.yul\":2396:2398   */\n      0x40\n        /* \"#utility.yul\":2381:2399   */\n      dup3\n      add\n        /* \"#utility.yul\":2374:2428   */\n      mstore\n        /* \"#utility.yul\":2460:2462   */\n      0x60\n        /* \"#utility.yul\":2445:2463   */\n      add\n      swap1\n        /* \"#utility.yul\":2121:2469   */\n      jump\t// out\n        /* \"#utility.yul\":3632:3862   */\n    tag_97:\n        /* \"#utility.yul\":3702:3708   */\n      0x00\n        /* \"#utility.yul\":3755:3757   */\n      0x20\n        /* \"#utility.yul\":3743:3752   */\n      dup3\n        /* \"#utility.yul\":3734:3741   */\n      dup5\n        /* \"#utility.yul\":3730:3753   */\n      sub\n        /* \"#utility.yul\":3726:3758   */\n      slt\n        /* \"#utility.yul\":3723:3775   */\n      iszero\n      tag_211\n      jumpi\n        /* \"#utility.yul\":3771:3772   */\n      0x00\n        /* \"#utility.yul\":3768:3769   */\n      dup1\n        /* \"#utility.yul\":3761:3773   */\n      revert\n        /* \"#utility.yul\":3723:3775   */\n    tag_211:\n      pop\n        /* \"#utility.yul\":3816:3832   */\n      mload\n      swap2\n        /* \"#utility.yul\":3632:3862   */\n      swap1\n      pop\n      jump\t// out\n        /* \"#utility.yul\":4726:4977   */\n    tag_113:\n        /* \"#utility.yul\":4796:4802   */\n      0x00\n        /* \"#utility.yul\":4849:4851   */\n      0x20\n        /* \"#utility.yul\":4837:4846   */\n      dup3\n        /* \"#utility.yul\":4828:4835   */\n      dup5\n        /* \"#utility.yul\":4824:4847   */\n      sub\n        /* \"#utility.yul\":4820:4852   */\n      slt\n        /* \"#utility.yul\":4817:4869   */\n      iszero\n      tag_215\n      jumpi\n        /* \"#utility.yul\":4865:4866   */\n      0x00\n        /* \"#utility.yul\":4862:4863   */\n      dup1\n        /* \"#utility.yul\":4855:4867   */\n      revert\n        /* \"#utility.yul\":4817:4869   */\n    tag_215:\n        /* \"#utility.yul\":4897:4906   */\n      dup2\n        /* \"#utility.yul\":4891:4907   */\n      mload\n        /* \"#utility.yul\":4916:4947   */\n      tag_182\n        /* \"#utility.yul\":4941:4946   */\n      dup2\n        /* \"#utility.yul\":4916:4947   */\n      tag_186\n      jump\t// in\n        /* \"#utility.yul\":5593:5815   */\n    tag_127:\n        /* \"#utility.yul\":5658:5667   */\n      dup1\n      dup3\n      add\n        /* \"#utility.yul\":5679:5689   */\n      dup1\n      dup3\n      gt\n        /* \"#utility.yul\":5676:5809   */\n      iszero\n      tag_139\n      jumpi\n        /* \"#utility.yul\":5731:5741   */\n      0x4e487b71\n        /* \"#utility.yul\":5726:5729   */\n      0xe0\n        /* \"#utility.yul\":5722:5742   */\n      shl\n        /* \"#utility.yul\":5719:5720   */\n      0x00\n        /* \"#utility.yul\":5712:5743   */\n      mstore\n        /* \"#utility.yul\":5766:5770   */\n      0x11\n        /* \"#utility.yul\":5763:5764   */\n      0x04\n        /* \"#utility.yul\":5756:5771   */\n      mstore\n        /* \"#utility.yul\":5794:5798   */\n      0x24\n        /* \"#utility.yul\":5791:5792   */\n      0x00\n        /* \"#utility.yul\":5784:5799   */\n      revert\n        /* \"#utility.yul\":5820:6988   */\n    tag_129:\n        /* \"#utility.yul\":6038:6051   */\n      dup2\n      mload\n      sub(shl(0xa0, 0x01), 0x01)\n        /* \"#utility.yul\":840:871   */\n      and\n        /* \"#utility.yul\":828:872   */\n      dup2\n      mstore\n        /* \"#utility.yul\":6006:6009   */\n      0x0160\n        /* \"#utility.yul\":5991:6010   */\n      dup2\n      add\n        /* \"#utility.yul\":6110:6114   */\n      0x20\n        /* \"#utility.yul\":6102:6108   */\n      dup4\n        /* \"#utility.yul\":6098:6115   */\n      add\n        /* \"#utility.yul\":6092:6116   */\n      mload\n        /* \"#utility.yul\":6125:6179   */\n      tag_223\n        /* \"#utility.yul\":6173:6177   */\n      0x20\n        /* \"#utility.yul\":6162:6171   */\n      dup5\n        /* \"#utility.yul\":6158:6178   */\n      add\n        /* \"#utility.yul\":6144:6156   */\n      dup3\n      sub(shl(0xa0, 0x01), 0x01)\n        /* \"#utility.yul\":840:871   */\n      and\n        /* \"#utility.yul\":828:872   */\n      swap1\n      mstore\n        /* \"#utility.yul\":774:878   */\n      jump\n        /* \"#utility.yul\":6125:6179   */\n    tag_223:\n      pop\n        /* \"#utility.yul\":6228:6232   */\n      0x40\n        /* \"#utility.yul\":6220:6226   */\n      dup4\n        /* \"#utility.yul\":6216:6233   */\n      add\n        /* \"#utility.yul\":6210:6234   */\n      mload\n        /* \"#utility.yul\":6243:6299   */\n      tag_224\n        /* \"#utility.yul\":6293:6297   */\n      0x40\n        /* \"#utility.yul\":6282:6291   */\n      dup5\n        /* \"#utility.yul\":6278:6298   */\n      add\n        /* \"#utility.yul\":6262:6276   */\n      dup3\n      sub(shl(0xa0, 0x01), 0x01)\n        /* \"#utility.yul\":840:871   */\n      and\n        /* \"#utility.yul\":828:872   */\n      swap1\n      mstore\n        /* \"#utility.yul\":774:878   */\n      jump\n        /* \"#utility.yul\":6243:6299   */\n    tag_224:\n      pop\n        /* \"#utility.yul\":6348:6352   */\n      0x60\n        /* \"#utility.yul\":6340:6346   */\n      dup4\n        /* \"#utility.yul\":6336:6353   */\n      add\n        /* \"#utility.yul\":6330:6354   */\n      mload\n        /* \"#utility.yul\":6363:6417   */\n      tag_225\n        /* \"#utility.yul\":6411:6415   */\n      0x60\n        /* \"#utility.yul\":6400:6409   */\n      dup5\n        /* \"#utility.yul\":6396:6416   */\n      add\n        /* \"#utility.yul\":6380:6394   */\n      dup3\n        /* \"#utility.yul\":1348:1349   */\n      0x02\n        /* \"#utility.yul\":1337:1357   */\n      signextend\n        /* \"#utility.yul\":1325:1358   */\n      swap1\n      mstore\n        /* \"#utility.yul\":1273:1364   */\n      jump\n        /* \"#utility.yul\":6363:6417   */\n    tag_225:\n      pop\n        /* \"#utility.yul\":6466:6470   */\n      0x80\n        /* \"#utility.yul\":6458:6464   */\n      dup4\n        /* \"#utility.yul\":6454:6471   */\n      add\n        /* \"#utility.yul\":6448:6472   */\n      mload\n        /* \"#utility.yul\":6481:6535   */\n      tag_226\n        /* \"#utility.yul\":6529:6533   */\n      0x80\n        /* \"#utility.yul\":6518:6527   */\n      dup5\n        /* \"#utility.yul\":6514:6534   */\n      add\n        /* \"#utility.yul\":6498:6512   */\n      dup3\n        /* \"#utility.yul\":1348:1349   */\n      0x02\n        /* \"#utility.yul\":1337:1357   */\n      signextend\n        /* \"#utility.yul\":1325:1358   */\n      swap1\n      mstore\n        /* \"#utility.yul\":1273:1364   */\n      jump\n        /* \"#utility.yul\":6481:6535   */\n    tag_226:\n      pop\n        /* \"#utility.yul\":6591:6595   */\n      0xa0\n        /* \"#utility.yul\":6583:6589   */\n      dup4\n        /* \"#utility.yul\":6579:6596   */\n      add\n        /* \"#utility.yul\":6573:6597   */\n      mload\n        /* \"#utility.yul\":6566:6570   */\n      0xa0\n        /* \"#utility.yul\":6555:6564   */\n      dup4\n        /* \"#utility.yul\":6551:6571   */\n      add\n        /* \"#utility.yul\":6544:6598   */\n      mstore\n        /* \"#utility.yul\":6654:6658   */\n      0xc0\n        /* \"#utility.yul\":6646:6652   */\n      dup4\n        /* \"#utility.yul\":6642:6659   */\n      add\n        /* \"#utility.yul\":6636:6660   */\n      mload\n        /* \"#utility.yul\":6629:6633   */\n      0xc0\n        /* \"#utility.yul\":6618:6627   */\n      dup4\n        /* \"#utility.yul\":6614:6634   */\n      add\n        /* \"#utility.yul\":6607:6661   */\n      mstore\n        /* \"#utility.yul\":6717:6721   */\n      0xe0\n        /* \"#utility.yul\":6709:6715   */\n      dup4\n        /* \"#utility.yul\":6705:6722   */\n      add\n        /* \"#utility.yul\":6699:6723   */\n      mload\n        /* \"#utility.yul\":6692:6696   */\n      0xe0\n        /* \"#utility.yul\":6681:6690   */\n      dup4\n        /* \"#utility.yul\":6677:6697   */\n      add\n        /* \"#utility.yul\":6670:6724   */\n      mstore\n        /* \"#utility.yul\":6782:6788   */\n      0x0100\n        /* \"#utility.yul\":6774:6780   */\n      dup4\n        /* \"#utility.yul\":6770:6789   */\n      add\n        /* \"#utility.yul\":6764:6790   */\n      mload\n        /* \"#utility.yul\":6755:6761   */\n      0x0100\n        /* \"#utility.yul\":6744:6753   */\n      dup4\n        /* \"#utility.yul\":6740:6762   */\n      add\n        /* \"#utility.yul\":6733:6791   */\n      mstore\n        /* \"#utility.yul\":6840:6846   */\n      0x0120\n        /* \"#utility.yul\":6832:6838   */\n      dup4\n        /* \"#utility.yul\":6828:6847   */\n      add\n        /* \"#utility.yul\":6822:6848   */\n      mload\n        /* \"#utility.yul\":6857:6915   */\n      tag_227\n        /* \"#utility.yul\":6907:6913   */\n      0x0120\n        /* \"#utility.yul\":6896:6905   */\n      dup5\n        /* \"#utility.yul\":6892:6914   */\n      add\n        /* \"#utility.yul\":6876:6890   */\n      dup3\n      sub(shl(0xa0, 0x01), 0x01)\n        /* \"#utility.yul\":840:871   */\n      and\n        /* \"#utility.yul\":828:872   */\n      swap1\n      mstore\n        /* \"#utility.yul\":774:878   */\n      jump\n        /* \"#utility.yul\":6857:6915   */\n    tag_227:\n      pop\n        /* \"#utility.yul\":6973:6979   */\n      0x0140\n        /* \"#utility.yul\":6961:6980   */\n      swap3\n      dup4\n      add\n        /* \"#utility.yul\":6955:6981   */\n      mload\n        /* \"#utility.yul\":6931:6953   */\n      swap2\n      swap1\n      swap3\n      add\n        /* \"#utility.yul\":6924:6982   */\n      mstore\n        /* \"#utility.yul\":5820:6988   */\n      swap1\n      jump\t// out\n        /* \"#utility.yul\":6993:7640   */\n    tag_133:\n        /* \"#utility.yul\":7090:7096   */\n      0x00\n        /* \"#utility.yul\":7098:7104   */\n      dup1\n        /* \"#utility.yul\":7106:7112   */\n      0x00\n        /* \"#utility.yul\":7114:7120   */\n      dup1\n        /* \"#utility.yul\":7167:7170   */\n      0x80\n        /* \"#utility.yul\":7155:7164   */\n      dup6\n        /* \"#utility.yul\":7146:7153   */\n      dup8\n        /* \"#utility.yul\":7142:7165   */\n      sub\n        /* \"#utility.yul\":7138:7171   */\n      slt\n        /* \"#utility.yul\":7135:7188   */\n      iszero\n      tag_229\n      jumpi\n        /* \"#utility.yul\":7184:7185   */\n      0x00\n        /* \"#utility.yul\":7181:7182   */\n      dup1\n        /* \"#utility.yul\":7174:7186   */\n      revert\n        /* \"#utility.yul\":7135:7188   */\n    tag_229:\n        /* \"#utility.yul\":7229:7245   */\n      dup5\n      mload\n        /* \"#utility.yul\":7314:7316   */\n      0x20\n        /* \"#utility.yul\":7299:7317   */\n      dup7\n      add\n        /* \"#utility.yul\":7293:7318   */\n      mload\n        /* \"#utility.yul\":7229:7245   */\n      swap1\n      swap5\n      pop\n      sub(shl(0x80, 0x01), 0x01)\n        /* \"#utility.yul\":7349:7397   */\n      dup2\n      and\n        /* \"#utility.yul\":7337:7398   */\n      dup2\n      eq\n        /* \"#utility.yul\":7327:7416   */\n      tag_230\n      jumpi\n        /* \"#utility.yul\":7412:7413   */\n      0x00\n        /* \"#utility.yul\":7409:7410   */\n      dup1\n        /* \"#utility.yul\":7402:7414   */\n      revert\n        /* \"#utility.yul\":7327:7416   */\n    tag_230:\n        /* \"#utility.yul\":7508:7510   */\n      0x40\n        /* \"#utility.yul\":7493:7511   */\n      dup7\n      add\n        /* \"#utility.yul\":7487:7512   */\n      mload\n        /* \"#utility.yul\":7604:7606   */\n      0x60\n        /* \"#utility.yul\":7589:7607   */\n      swap1\n      swap7\n      add\n        /* \"#utility.yul\":7583:7608   */\n      mload\n        /* \"#utility.yul\":6993:7640   */\n      swap5\n      swap8\n        /* \"#utility.yul\":7435:7442   */\n      swap1\n      swap7\n      pop\n        /* \"#utility.yul\":6993:7640   */\n      swap3\n      pop\n      pop\n      pop\n      jump\t// out\n        /* \"#utility.yul\":8435:8652   */\n    tag_145:\n        /* \"#utility.yul\":8475:8476   */\n      0x00\n        /* \"#utility.yul\":8501:8502   */\n      dup3\n        /* \"#utility.yul\":8491:8623   */\n      tag_234\n      jumpi\n        /* \"#utility.yul\":8545:8555   */\n      0x4e487b71\n        /* \"#utility.yul\":8540:8543   */\n      0xe0\n        /* \"#utility.yul\":8536:8556   */\n      shl\n        /* \"#utility.yul\":8533:8534   */\n      0x00\n        /* \"#utility.yul\":8526:8557   */\n      mstore\n        /* \"#utility.yul\":8580:8584   */\n      0x12\n        /* \"#utility.yul\":8577:8578   */\n      0x04\n        /* \"#utility.yul\":8570:8585   */\n      mstore\n        /* \"#utility.yul\":8608:8612   */\n      0x24\n        /* \"#utility.yul\":8605:8606   */\n      0x00\n        /* \"#utility.yul\":8598:8613   */\n      revert\n        /* \"#utility.yul\":8491:8623   */\n    tag_234:\n      pop\n        /* \"#utility.yul\":8637:8646   */\n      div\n      swap1\n        /* \"#utility.yul\":8435:8652   */\n      jump\t// out\n        /* \"#utility.yul\":9033:9445   */\n    tag_158:\n        /* \"#utility.yul\":9162:9165   */\n      0x00\n        /* \"#utility.yul\":9200:9206   */\n      dup3\n        /* \"#utility.yul\":9194:9207   */\n      mload\n        /* \"#utility.yul\":9225:9226   */\n      0x00\n        /* \"#utility.yul\":9235:9364   */\n    tag_237:\n        /* \"#utility.yul\":9249:9255   */\n      dup2\n        /* \"#utility.yul\":9246:9247   */\n      dup2\n        /* \"#utility.yul\":9243:9256   */\n      lt\n        /* \"#utility.yul\":9235:9364   */\n      iszero\n      tag_239\n      jumpi\n        /* \"#utility.yul\":9347:9351   */\n      0x20\n        /* \"#utility.yul\":9331:9345   */\n      dup2\n      dup7\n      add\n        /* \"#utility.yul\":9327:9352   */\n      dup2\n      add\n        /* \"#utility.yul\":9321:9353   */\n      mload\n        /* \"#utility.yul\":9308:9319   */\n      dup6\n      dup4\n      add\n        /* \"#utility.yul\":9301:9354   */\n      mstore\n        /* \"#utility.yul\":9264:9276   */\n      add\n        /* \"#utility.yul\":9235:9364   */\n      jump(tag_237)\n    tag_239:\n      pop\n        /* \"#utility.yul\":9419:9420   */\n      0x00\n        /* \"#utility.yul\":9383:9399   */\n      swap3\n      add\n        /* \"#utility.yul\":9408:9421   */\n      swap2\n      dup3\n      mstore\n      pop\n        /* \"#utility.yul\":9383:9399   */\n      swap2\n        /* \"#utility.yul\":9033:9445   */\n      swap1\n      pop\n      jump\t// out\n        /* \"#utility.yul\":9450:9727   */\n    tag_165:\n        /* \"#utility.yul\":9517:9523   */\n      0x00\n        /* \"#utility.yul\":9570:9572   */\n      0x20\n        /* \"#utility.yul\":9558:9567   */\n      dup3\n        /* \"#utility.yul\":9549:9556   */\n      dup5\n        /* \"#utility.yul\":9545:9568   */\n      sub\n        /* \"#utility.yul\":9541:9573   */\n      slt\n        /* \"#utility.yul\":9538:9590   */\n      iszero\n      tag_241\n      jumpi\n        /* \"#utility.yul\":9586:9587   */\n      0x00\n        /* \"#utility.yul\":9583:9584   */\n      dup1\n        /* \"#utility.yul\":9576:9588   */\n      revert\n        /* \"#utility.yul\":9538:9590   */\n    tag_241:\n        /* \"#utility.yul\":9618:9627   */\n      dup2\n        /* \"#utility.yul\":9612:9628   */\n      mload\n        /* \"#utility.yul\":9671:9676   */\n      dup1\n        /* \"#utility.yul\":9664:9677   */\n      iszero\n        /* \"#utility.yul\":9657:9678   */\n      iszero\n        /* \"#utility.yul\":9650:9655   */\n      dup2\n        /* \"#utility.yul\":9647:9679   */\n      eq\n        /* \"#utility.yul\":9637:9697   */\n      tag_182\n      jumpi\n        /* \"#utility.yul\":9693:9694   */\n      0x00\n        /* \"#utility.yul\":9690:9691   */\n      dup1\n        /* \"#utility.yul\":9683:9695   */\n      revert\n\n    auxdata: 0xa2646970667358221220abd2f51761dbb74233387c2665c20711e70b0f13e08235f83275d9ee19345af764736f6c634300081a0033\n}\n",
				"bytecode": {
					"linkReferences": {},
					"object": "608060405234801561001057600080fd5b5060405161108938038061108983398101604081905261002f91610138565b6001600160a01b03821661008a5760405162461bcd60e51b815260206004820152601760248201527f496e76616c696420416c6765627261206164647265737300000000000000000060448201526064015b60405180910390fd5b6001600160a01b0381166100e05760405162461bcd60e51b815260206004820152601460248201527f496e76616c6964205745544820616464726573730000000000000000000000006044820152606401610081565b600080546001600160a01b03199081163317909155600180546001600160a01b039485169083161790556002805492909316911617905561016b565b80516001600160a01b038116811461013357600080fd5b919050565b6000806040838503121561014b57600080fd5b6101548361011c565b91506101626020840161011c565b90509250929050565b610f0f8061017a6000396000f3fe6080604052600436106100a05760003560e01c80636882a888116100645780636882a888146101665780638da5cb5b14610190578063a000bf4f146101b0578063a1634b14146101d0578063ad5c4648146101e8578063fe9440d71461020857600080fd5b806309fe2d34146100ac57806318fd7858146100ce57806324f8eca7146100e15780633b7ab5b31461011e5780635a2f0ae71461014a57600080fd5b366100a757005b600080fd5b3480156100b857600080fd5b506100cc6100c7366004610c5a565b610228565b005b6100cc6100dc366004610c77565b6102c5565b3480156100ed57600080fd5b50600154610101906001600160a01b031681565b6040516001600160a01b0390911681526020015b60405180910390f35b34801561012a57600080fd5b5061013c69d3c21bcecceda100000081565b604051908152602001610115565b34801561015657600080fd5b5061013c678ac7230489e8000081565b34801561017257600080fd5b5061017d620d89b481565b60405160029190910b8152602001610115565b34801561019c57600080fd5b50600054610101906001600160a01b031681565b3480156101bc57600080fd5b506101016101cb366004610ca3565b6108f6565b3480156101dc57600080fd5b5061017d620d89b31981565b3480156101f457600080fd5b50600254610101906001600160a01b031681565b34801561021457600080fd5b506100cc610223366004610c5a565b61096c565b6000546001600160a01b0316331461025b5760405162461bcd60e51b815260040161025290610cc5565b60405180910390fd5b6001600160a01b0381166102a35760405162461bcd60e51b815260206004820152600f60248201526e496e76616c6964206164647265737360881b6044820152606401610252565b600180546001600160a01b0319166001600160a01b0392909216919091179055565b6000546001600160a01b031633146102ef5760405162461bcd60e51b815260040161025290610cc5565b6000341161034e5760405162461bcd60e51b815260206004820152602660248201527f457468657220616d6f756e74206d7573742062652067726561746572207468616044820152656e207a65726f60d01b6064820152608401610252565b600081116103ad5760405162461bcd60e51b815260206004820152602660248201527f546f6b656e20616d6f756e74206d7573742062652067726561746572207468616044820152656e207a65726f60d01b6064820152608401610252565b600069d3c21bcecceda100000082116103c657816103d2565b69d3c21bcecceda10000005b90506000678ac7230489e8000034116103eb57346103f5565b678ac7230489e800005b9050600260009054906101000a90046001600160a01b03166001600160a01b031663d0e30db0826040518263ffffffff1660e01b81526004016000604051808303818588803b15801561044757600080fd5b505af115801561045b573d6000803e3d6000fd5b50506002546040516370a0823160e01b8152306004820152600094506001600160a01b0390911692506370a082319150602401602060405180830381865afa1580156104ab573d6000803e3d6000fd5b505050506040513d601f19601f820116820180604052508101906104cf9190610cfc565b9050818110156105215760405162461bcd60e51b815260206004820152601e60248201527f4661696c656420746f207772617020457468657220696e746f205745544800006044820152606401610252565b6105366001600160a01b038616333086610a00565b6002546000906001600160a01b0390811690871610610560576002546001600160a01b0316610562565b855b6002549091506000906001600160a01b03908116908816106105845786610591565b6002546001600160a01b03165b9050600061059f86866108f6565b6001546040516343a9d0cd60e11b81526001600160a01b0386811660048301528581166024830152600060448301819052818516606484015293945090911690638753a19a906084016020604051808303816000875af1158015610607573d6000803e3d6000fd5b505050506040513d601f19601f8201168201806040525081019061062b9190610d15565b90506001600160a01b0381166106835760405162461bcd60e51b815260206004820152601d60248201527f4661696c656420746f2063726561746520416c676562726120706f6f6c0000006044820152606401610252565b886001600160a01b0316816001600160a01b03167f0bc269b08661fa7948aabbb2ac773747166492e0ac63735b66898001e237a1bc89896040516106d1929190918252602082015260400190565b60405180910390a36001546106f3906001600160a01b038b8116911689610afa565b600154600254610710916001600160a01b03918216911687610afa565b60408051610160810182526001600160a01b0380871680835286821660208401526000938301849052620d89b3196060840152620d89b4608084015260a08301918d161461075e5787610760565b895b81526020018b6001600160a01b0316876001600160a01b0316146107845789610786565b875b815260006020820181905260408201523060608201526080016107ab42610e10610d32565b905260015460405163fe3f3be760e01b81529192506000918291829182916001600160a01b03169063fe3f3be7906107e7908890600401610d53565b6080604051808303816000875af1158015610806573d6000803e3d6000fd5b505050506040513d601f19601f8201168201806040525081019061082a9190610e1b565b93509350935093506000836001600160801b03161161088b5760405162461bcd60e51b815260206004820152601860248201527f4661696c656420746f206d696e74206c697175696469747900000000000000006044820152606401610252565b604080518581526001600160801b0385166020820152908101839052606081018290526001600160a01b038716907f936f1605239d50a44520651cb0698a8f77eea34a13f43a4eac22872b1baf48cc9060800160405180910390a25050505050505050505050505050565b60008069d3c21bcecceda10000008411610910578361091c565b69d3c21bcecceda10000005b90506000678ac7230489e800008411610935578361093f565b678ac7230489e800005b9050600061095183606084901b610e66565b9050603061095e82610beb565b901b93505050505b92915050565b6000546001600160a01b031633146109965760405162461bcd60e51b815260040161025290610cc5565b6001600160a01b0381166109de5760405162461bcd60e51b815260206004820152600f60248201526e496e76616c6964206164647265737360881b6044820152606401610252565b600280546001600160a01b0319166001600160a01b0392909216919091179055565b604080516001600160a01b0385811660248301528481166044830152606480830185905283518084039091018152608490920183526020820180516001600160e01b03166323b872dd60e01b1790529151600092839290881691610a649190610e88565b6000604051808303816000865af19150503d8060008114610aa1576040519150601f19603f3d011682016040523d82523d6000602084013e610aa6565b606091505b5091509150811580610ad45750805115801590610ad4575080806020019051810190610ad29190610eb7565b155b15610af25760405163817275ab60e01b815260040160405180910390fd5b505050505050565b604080516001600160a01b038481166024830152604480830185905283518084039091018152606490920183526020820180516001600160e01b031663095ea7b360e01b1790529151600092839290871691610b569190610e88565b6000604051808303816000865af19150503d8060008114610b93576040519150601f19603f3d011682016040523d82523d6000602084013e610b98565b606091505b5091509150811580610bc65750805115801590610bc6575080806020019051810190610bc49190610eb7565b155b15610be457604051637cd36c6560e11b815260040160405180910390fd5b5050505050565b6000806002610bfb846001610d32565b610c059190610e66565b9050825b80821015610c3b575080600281610c208187610e66565b610c2a9190610d32565b610c349190610e66565b9150610c09565b9392505050565b6001600160a01b0381168114610c5757600080fd5b50565b600060208284031215610c6c57600080fd5b8135610c3b81610c42565b60008060408385031215610c8a57600080fd5b8235610c9581610c42565b946020939093013593505050565b60008060408385031215610cb657600080fd5b50508035926020909101359150565b60208082526018908201527f4f6e6c79206f776e65722063616e2063616c6c20746869730000000000000000604082015260600190565b600060208284031215610d0e57600080fd5b5051919050565b600060208284031215610d2757600080fd5b8151610c3b81610c42565b8082018082111561096657634e487b7160e01b600052601160045260246000fd5b81516001600160a01b0316815261016081016020830151610d7f60208401826001600160a01b03169052565b506040830151610d9a60408401826001600160a01b03169052565b506060830151610daf606084018260020b9052565b506080830151610dc4608084018260020b9052565b5060a083015160a083015260c083015160c083015260e083015160e0830152610100830151610100830152610120830151610e0b6101208401826001600160a01b03169052565b5061014092830151919092015290565b60008060008060808587031215610e3157600080fd5b845160208601519094506001600160801b0381168114610e5057600080fd5b6040860151606090960151949790965092505050565b600082610e8357634e487b7160e01b600052601260045260246000fd5b500490565b6000825160005b81811015610ea95760208186018101518583015201610e8f565b506000920191825250919050565b600060208284031215610ec957600080fd5b81518015158114610c3b57600080fdfea2646970667358221220abd2f51761dbb74233387c2665c20711e70b0f13e08235f83275d9ee19345af764736f6c634300081a0033",
					"opcodes": "PUSH1 0x80 PUSH1 0x40 MSTORE CALLVALUE DUP1 ISZERO PUSH2 0x10 JUMPI PUSH1 0x0 DUP1 REVERT JUMPDEST POP PUSH1 0x40 MLOAD PUSH2 0x1089 CODESIZE SUB DUP1 PUSH2 0x1089 DUP4 CODECOPY DUP2 ADD PUSH1 0x40 DUP2 SWAP1 MSTORE PUSH2 0x2F SWAP2 PUSH2 0x138 JUMP JUMPDEST PUSH1 0x1 PUSH1 0x1 PUSH1 0xA0 SHL SUB DUP3 AND PUSH2 0x8A JUMPI PUSH1 0x40 MLOAD PUSH3 0x461BCD PUSH1 0xE5 SHL DUP2 MSTORE PUSH1 0x20 PUSH1 0x4 DUP3 ADD MSTORE PUSH1 0x17 PUSH1 0x24 DUP3 ADD MSTORE PUSH32 0x496E76616C696420416C67656272612061646472657373000000000000000000 PUSH1 0x44 DUP3 ADD MSTORE PUSH1 0x64 ADD JUMPDEST PUSH1 0x40 MLOAD DUP1 SWAP2 SUB SWAP1 REVERT JUMPDEST PUSH1 0x1 PUSH1 0x1 PUSH1 0xA0 SHL SUB DUP2 AND PUSH2 0xE0 JUMPI PUSH1 0x40 MLOAD PUSH3 0x461BCD PUSH1 0xE5 SHL DUP2 MSTORE PUSH1 0x20 PUSH1 0x4 DUP3 ADD MSTORE PUSH1 0x14 PUSH1 0x24 DUP3 ADD MSTORE PUSH32 0x496E76616C696420574554482061646472657373000000000000000000000000 PUSH1 0x44 DUP3 ADD MSTORE PUSH1 0x64 ADD PUSH2 0x81 JUMP JUMPDEST PUSH1 0x0 DUP1 SLOAD PUSH1 0x1 PUSH1 0x1 PUSH1 0xA0 SHL SUB NOT SWAP1 DUP2 AND CALLER OR SWAP1 SWAP2 SSTORE PUSH1 0x1 DUP1 SLOAD PUSH1 0x1 PUSH1 0x1 PUSH1 0xA0 SHL SUB SWAP5 DUP6 AND SWAP1 DUP4 AND OR SWAP1 SSTORE PUSH1 0x2 DUP1 SLOAD SWAP3 SWAP1 SWAP4 AND SWAP2 AND OR SWAP1 SSTORE PUSH2 0x16B JUMP JUMPDEST DUP1 MLOAD PUSH1 0x1 PUSH1 0x1 PUSH1 0xA0 SHL SUB DUP2 AND DUP2 EQ PUSH2 0x133 JUMPI PUSH1 0x0 DUP1 REVERT JUMPDEST SWAP2 SWAP1 POP JUMP JUMPDEST PUSH1 0x0 DUP1 PUSH1 0x40 DUP4 DUP6 SUB SLT ISZERO PUSH2 0x14B JUMPI PUSH1 0x0 DUP1 REVERT JUMPDEST PUSH2 0x154 DUP4 PUSH2 0x11C JUMP JUMPDEST SWAP2 POP PUSH2 0x162 PUSH1 0x20 DUP5 ADD PUSH2 0x11C JUMP JUMPDEST SWAP1 POP SWAP3 POP SWAP3 SWAP1 POP JUMP JUMPDEST PUSH2 0xF0F DUP1 PUSH2 0x17A PUSH1 0x0 CODECOPY PUSH1 0x0 RETURN INVALID PUSH1 0x80 PUSH1 0x40 MSTORE PUSH1 0x4 CALLDATASIZE LT PUSH2 0xA0 JUMPI PUSH1 0x0 CALLDATALOAD PUSH1 0xE0 SHR DUP1 PUSH4 0x6882A888 GT PUSH2 0x64 JUMPI DUP1 PUSH4 0x6882A888 EQ PUSH2 0x166 JUMPI DUP1 PUSH4 0x8DA5CB5B EQ PUSH2 0x190 JUMPI DUP1 PUSH4 0xA000BF4F EQ PUSH2 0x1B0 JUMPI DUP1 PUSH4 0xA1634B14 EQ PUSH2 0x1D0 JUMPI DUP1 PUSH4 0xAD5C4648 EQ PUSH2 0x1E8 JUMPI DUP1 PUSH4 0xFE9440D7 EQ PUSH2 0x208 JUMPI PUSH1 0x0 DUP1 REVERT JUMPDEST DUP1 PUSH4 0x9FE2D34 EQ PUSH2 0xAC JUMPI DUP1 PUSH4 0x18FD7858 EQ PUSH2 0xCE JUMPI DUP1 PUSH4 0x24F8ECA7 EQ PUSH2 0xE1 JUMPI DUP1 PUSH4 0x3B7AB5B3 EQ PUSH2 0x11E JUMPI DUP1 PUSH4 0x5A2F0AE7 EQ PUSH2 0x14A JUMPI PUSH1 0x0 DUP1 REVERT JUMPDEST CALLDATASIZE PUSH2 0xA7 JUMPI STOP JUMPDEST PUSH1 0x0 DUP1 REVERT JUMPDEST CALLVALUE DUP1 ISZERO PUSH2 0xB8 JUMPI PUSH1 0x0 DUP1 REVERT JUMPDEST POP PUSH2 0xCC PUSH2 0xC7 CALLDATASIZE PUSH1 0x4 PUSH2 0xC5A JUMP JUMPDEST PUSH2 0x228 JUMP JUMPDEST STOP JUMPDEST PUSH2 0xCC PUSH2 0xDC CALLDATASIZE PUSH1 0x4 PUSH2 0xC77 JUMP JUMPDEST PUSH2 0x2C5 JUMP JUMPDEST CALLVALUE DUP1 ISZERO PUSH2 0xED JUMPI PUSH1 0x0 DUP1 REVERT JUMPDEST POP PUSH1 0x1 SLOAD PUSH2 0x101 SWAP1 PUSH1 0x1 PUSH1 0x1 PUSH1 0xA0 SHL SUB AND DUP2 JUMP JUMPDEST PUSH1 0x40 MLOAD PUSH1 0x1 PUSH1 0x1 PUSH1 0xA0 SHL SUB SWAP1 SWAP2 AND DUP2 MSTORE PUSH1 0x20 ADD JUMPDEST PUSH1 0x40 MLOAD DUP1 SWAP2 SUB SWAP1 RETURN JUMPDEST CALLVALUE DUP1 ISZERO PUSH2 0x12A JUMPI PUSH1 0x0 DUP1 REVERT JUMPDEST POP PUSH2 0x13C PUSH10 0xD3C21BCECCEDA1000000 DUP2 JUMP JUMPDEST PUSH1 0x40 MLOAD SWAP1 DUP2 MSTORE PUSH1 0x20 ADD PUSH2 0x115 JUMP JUMPDEST CALLVALUE DUP1 ISZERO PUSH2 0x156 JUMPI PUSH1 0x0 DUP1 REVERT JUMPDEST POP PUSH2 0x13C PUSH8 0x8AC7230489E80000 DUP2 JUMP JUMPDEST CALLVALUE DUP1 ISZERO PUSH2 0x172 JUMPI PUSH1 0x0 DUP1 REVERT JUMPDEST POP PUSH2 0x17D PUSH3 0xD89B4 DUP2 JUMP JUMPDEST PUSH1 0x40 MLOAD PUSH1 0x2 SWAP2 SWAP1 SWAP2 SIGNEXTEND DUP2 MSTORE PUSH1 0x20 ADD PUSH2 0x115 JUMP JUMPDEST CALLVALUE DUP1 ISZERO PUSH2 0x19C JUMPI PUSH1 0x0 DUP1 REVERT JUMPDEST POP PUSH1 0x0 SLOAD PUSH2 0x101 SWAP1 PUSH1 0x1 PUSH1 0x1 PUSH1 0xA0 SHL SUB AND DUP2 JUMP JUMPDEST CALLVALUE DUP1 ISZERO PUSH2 0x1BC JUMPI PUSH1 0x0 DUP1 REVERT JUMPDEST POP PUSH2 0x101 PUSH2 0x1CB CALLDATASIZE PUSH1 0x4 PUSH2 0xCA3 JUMP JUMPDEST PUSH2 0x8F6 JUMP JUMPDEST CALLVALUE DUP1 ISZERO PUSH2 0x1DC JUMPI PUSH1 0x0 DUP1 REVERT JUMPDEST POP PUSH2 0x17D PUSH3 0xD89B3 NOT DUP2 JUMP JUMPDEST CALLVALUE DUP1 ISZERO PUSH2 0x1F4 JUMPI PUSH1 0x0 DUP1 REVERT JUMPDEST POP PUSH1 0x2 SLOAD PUSH2 0x101 SWAP1 PUSH1 0x1 PUSH1 0x1 PUSH1 0xA0 SHL SUB AND DUP2 JUMP JUMPDEST CALLVALUE DUP1 ISZERO PUSH2 0x214 JUMPI PUSH1 0x0 DUP1 REVERT JUMPDEST POP PUSH2 0xCC PUSH2 0x223 CALLDATASIZE PUSH1 0x4 PUSH2 0xC5A JUMP JUMPDEST PUSH2 0x96C JUMP JUMPDEST PUSH1 0x0 SLOAD PUSH1 0x1 PUSH1 0x1 PUSH1 0xA0 SHL SUB AND CALLER EQ PUSH2 0x25B JUMPI PUSH1 0x40 MLOAD PUSH3 0x461BCD PUSH1 0xE5 SHL DUP2 MSTORE PUSH1 0x4 ADD PUSH2 0x252 SWAP1 PUSH2 0xCC5 JUMP JUMPDEST PUSH1 0x40 MLOAD DUP1 SWAP2 SUB SWAP1 REVERT JUMPDEST PUSH1 0x1 PUSH1 0x1 PUSH1 0xA0 SHL SUB DUP2 AND PUSH2 0x2A3 JUMPI PUSH1 0x40 MLOAD PUSH3 0x461BCD PUSH1 0xE5 SHL DUP2 MSTORE PUSH1 0x20 PUSH1 0x4 DUP3 ADD MSTORE PUSH1 0xF PUSH1 0x24 DUP3 ADD MSTORE PUSH15 0x496E76616C69642061646472657373 PUSH1 0x88 SHL PUSH1 0x44 DUP3 ADD MSTORE PUSH1 0x64 ADD PUSH2 0x252 JUMP JUMPDEST PUSH1 0x1 DUP1 SLOAD PUSH1 0x1 PUSH1 0x1 PUSH1 0xA0 SHL SUB NOT AND PUSH1 0x1 PUSH1 0x1 PUSH1 0xA0 SHL SUB SWAP3 SWAP1 SWAP3 AND SWAP2 SWAP1 SWAP2 OR SWAP1 SSTORE JUMP JUMPDEST PUSH1 0x0 SLOAD PUSH1 0x1 PUSH1 0x1 PUSH1 0xA0 SHL SUB AND CALLER EQ PUSH2 0x2EF JUMPI PUSH1 0x40 MLOAD PUSH3 0x461BCD PUSH1 0xE5 SHL DUP2 MSTORE PUSH1 0x4 ADD PUSH2 0x252 SWAP1 PUSH2 0xCC5 JUMP JUMPDEST PUSH1 0x0 CALLVALUE GT PUSH2 0x34E JUMPI PUSH1 0x40 MLOAD PUSH3 0x461BCD PUSH1 0xE5 SHL DUP2 MSTORE PUSH1 0x20 PUSH1 0x4 DUP3 ADD MSTORE PUSH1 0x26 PUSH1 0x24 DUP3 ADD MSTORE PUSH32 0x457468657220616D6F756E74206D757374206265206772656174657220746861 PUSH1 0x44 DUP3 ADD MSTORE PUSH6 0x6E207A65726F PUSH1 0xD0 SHL PUSH1 0x64 DUP3 ADD MSTORE PUSH1 0x84 ADD PUSH2 0x252 JUMP JUMPDEST PUSH1 0x0 DUP2 GT PUSH2 0x3AD JUMPI PUSH1 0x40 MLOAD PUSH3 0x461BCD PUSH1 0xE5 SHL DUP2 MSTORE PUSH1 0x20 PUSH1 0x4 DUP3 ADD MSTORE PUSH1 0x26 PUSH1 0x24 DUP3 ADD MSTORE PUSH32 0x546F6B656E20616D6F756E74206D757374206265206772656174657220746861 PUSH1 0x44 DUP3 ADD MSTORE PUSH6 0x6E207A65726F PUSH1 0xD0 SHL PUSH1 0x64 DUP3 ADD MSTORE PUSH1 0x84 ADD PUSH2 0x252 JUMP JUMPDEST PUSH1 0x0 PUSH10 0xD3C21BCECCEDA1000000 DUP3 GT PUSH2 0x3C6 JUMPI DUP2 PUSH2 0x3D2 JUMP JUMPDEST PUSH10 0xD3C21BCECCEDA1000000 JUMPDEST SWAP1 POP PUSH1 0x0 PUSH8 0x8AC7230489E80000 CALLVALUE GT PUSH2 0x3EB JUMPI CALLVALUE PUSH2 0x3F5 JUMP JUMPDEST PUSH8 0x8AC7230489E80000 JUMPDEST SWAP1 POP PUSH1 0x2 PUSH1 0x0 SWAP1 SLOAD SWAP1 PUSH2 0x100 EXP SWAP1 DIV PUSH1 0x1 PUSH1 0x1 PUSH1 0xA0 SHL SUB AND PUSH1 0x1 PUSH1 0x1 PUSH1 0xA0 SHL SUB AND PUSH4 0xD0E30DB0 DUP3 PUSH1 0x40 MLOAD DUP3 PUSH4 0xFFFFFFFF AND PUSH1 0xE0 SHL DUP2 MSTORE PUSH1 0x4 ADD PUSH1 0x0 PUSH1 0x40 MLOAD DUP1 DUP4 SUB DUP2 DUP6 DUP9 DUP1 EXTCODESIZE ISZERO DUP1 ISZERO PUSH2 0x447 JUMPI PUSH1 0x0 DUP1 REVERT JUMPDEST POP GAS CALL ISZERO DUP1 ISZERO PUSH2 0x45B JUMPI RETURNDATASIZE PUSH1 0x0 DUP1 RETURNDATACOPY RETURNDATASIZE PUSH1 0x0 REVERT JUMPDEST POP POP PUSH1 0x2 SLOAD PUSH1 0x40 MLOAD PUSH4 0x70A08231 PUSH1 0xE0 SHL DUP2 MSTORE ADDRESS PUSH1 0x4 DUP3 ADD MSTORE PUSH1 0x0 SWAP5 POP PUSH1 0x1 PUSH1 0x1 PUSH1 0xA0 SHL SUB SWAP1 SWAP2 AND SWAP3 POP PUSH4 0x70A08231 SWAP2 POP PUSH1 0x24 ADD PUSH1 0x20 PUSH1 0x40 MLOAD DUP1 DUP4 SUB DUP2 DUP7 GAS STATICCALL ISZERO DUP1 ISZERO PUSH2 0x4AB JUMPI RETURNDATASIZE PUSH1 0x0 DUP1 RETURNDATACOPY RETURNDATASIZE PUSH1 0x0 REVERT JUMPDEST POP POP POP POP PUSH1 0x40 MLOAD RETURNDATASIZE PUSH1 0x1F NOT PUSH1 0x1F DUP3 ADD AND DUP3 ADD DUP1 PUSH1 0x40 MSTORE POP DUP2 ADD SWAP1 PUSH2 0x4CF SWAP2 SWAP1 PUSH2 0xCFC JUMP JUMPDEST SWAP1 POP DUP2 DUP2 LT ISZERO PUSH2 0x521 JUMPI PUSH1 0x40 MLOAD PUSH3 0x461BCD PUSH1 0xE5 SHL DUP2 MSTORE PUSH1 0x20 PUSH1 0x4 DUP3 ADD MSTORE PUSH1 0x1E PUSH1 0x24 DUP3 ADD MSTORE PUSH32 0x4661696C656420746F207772617020457468657220696E746F20574554480000 PUSH1 0x44 DUP3 ADD MSTORE PUSH1 0x64 ADD PUSH2 0x252 JUMP JUMPDEST PUSH2 0x536 PUSH1 0x1 PUSH1 0x1 PUSH1 0xA0 SHL SUB DUP7 AND CALLER ADDRESS DUP7 PUSH2 0xA00 JUMP JUMPDEST PUSH1 0x2 SLOAD PUSH1 0x0 SWAP1 PUSH1 0x1 PUSH1 0x1 PUSH1 0xA0 SHL SUB SWAP1 DUP2 AND SWAP1 DUP8 AND LT PUSH2 0x560 JUMPI PUSH1 0x2 SLOAD PUSH1 0x1 PUSH1 0x1 PUSH1 0xA0 SHL SUB AND PUSH2 0x562 JUMP JUMPDEST DUP6 JUMPDEST PUSH1 0x2 SLOAD SWAP1 SWAP2 POP PUSH1 0x0 SWAP1 PUSH1 0x1 PUSH1 0x1 PUSH1 0xA0 SHL SUB SWAP1 DUP2 AND SWAP1 DUP9 AND LT PUSH2 0x584 JUMPI DUP7 PUSH2 0x591 JUMP JUMPDEST PUSH1 0x2 SLOAD PUSH1 0x1 PUSH1 0x1 PUSH1 0xA0 SHL SUB AND JUMPDEST SWAP1 POP PUSH1 0x0 PUSH2 0x59F DUP7 DUP7 PUSH2 0x8F6 JUMP JUMPDEST PUSH1 0x1 SLOAD PUSH1 0x40 MLOAD PUSH4 0x43A9D0CD PUSH1 0xE1 SHL DUP2 MSTORE PUSH1 0x1 PUSH1 0x1 PUSH1 0xA0 SHL SUB DUP7 DUP2 AND PUSH1 0x4 DUP4 ADD MSTORE DUP6 DUP2 AND PUSH1 0x24 DUP4 ADD MSTORE PUSH1 0x0 PUSH1 0x44 DUP4 ADD DUP2 SWAP1 MSTORE DUP2 DUP6 AND PUSH1 0x64 DUP5 ADD MSTORE SWAP4 SWAP5 POP SWAP1 SWAP2 AND SWAP1 PUSH4 0x8753A19A SWAP1 PUSH1 0x84 ADD PUSH1 0x20 PUSH1 0x40 MLOAD DUP1 DUP4 SUB DUP2 PUSH1 0x0 DUP8 GAS CALL ISZERO DUP1 ISZERO PUSH2 0x607 JUMPI RETURNDATASIZE PUSH1 0x0 DUP1 RETURNDATACOPY RETURNDATASIZE PUSH1 0x0 REVERT JUMPDEST POP POP POP POP PUSH1 0x40 MLOAD RETURNDATASIZE PUSH1 0x1F NOT PUSH1 0x1F DUP3 ADD AND DUP3 ADD DUP1 PUSH1 0x40 MSTORE POP DUP2 ADD SWAP1 PUSH2 0x62B SWAP2 SWAP1 PUSH2 0xD15 JUMP JUMPDEST SWAP1 POP PUSH1 0x1 PUSH1 0x1 PUSH1 0xA0 SHL SUB DUP2 AND PUSH2 0x683 JUMPI PUSH1 0x40 MLOAD PUSH3 0x461BCD PUSH1 0xE5 SHL DUP2 MSTORE PUSH1 0x20 PUSH1 0x4 DUP3 ADD MSTORE PUSH1 0x1D PUSH1 0x24 DUP3 ADD MSTORE PUSH32 0x4661696C656420746F2063726561746520416C676562726120706F6F6C000000 PUSH1 0x44 DUP3 ADD MSTORE PUSH1 0x64 ADD PUSH2 0x252 JUMP JUMPDEST DUP9 PUSH1 0x1 PUSH1 0x1 PUSH1 0xA0 SHL SUB AND DUP2 PUSH1 0x1 PUSH1 0x1 PUSH1 0xA0 SHL SUB AND PUSH32 0xBC269B08661FA7948AABBB2AC773747166492E0AC63735B66898001E237A1BC DUP10 DUP10 PUSH1 0x40 MLOAD PUSH2 0x6D1 SWAP3 SWAP2 SWAP1 SWAP2 DUP3 MSTORE PUSH1 0x20 DUP3 ADD MSTORE PUSH1 0x40 ADD SWAP1 JUMP JUMPDEST PUSH1 0x40 MLOAD DUP1 SWAP2 SUB SWAP1 LOG3 PUSH1 0x1 SLOAD PUSH2 0x6F3 SWAP1 PUSH1 0x1 PUSH1 0x1 PUSH1 0xA0 SHL SUB DUP12 DUP2 AND SWAP2 AND DUP10 PUSH2 0xAFA JUMP JUMPDEST PUSH1 0x1 SLOAD PUSH1 0x2 SLOAD PUSH2 0x710 SWAP2 PUSH1 0x1 PUSH1 0x1 PUSH1 0xA0 SHL SUB SWAP2 DUP3 AND SWAP2 AND DUP8 PUSH2 0xAFA JUMP JUMPDEST PUSH1 0x40 DUP1 MLOAD PUSH2 0x160 DUP2 ADD DUP3 MSTORE PUSH1 0x1 PUSH1 0x1 PUSH1 0xA0 SHL SUB DUP1 DUP8 AND DUP1 DUP4 MSTORE DUP7 DUP3 AND PUSH1 0x20 DUP5 ADD MSTORE PUSH1 0x0 SWAP4 DUP4 ADD DUP5 SWAP1 MSTORE PUSH3 0xD89B3 NOT PUSH1 0x60 DUP5 ADD MSTORE PUSH3 0xD89B4 PUSH1 0x80 DUP5 ADD MSTORE PUSH1 0xA0 DUP4 ADD SWAP2 DUP14 AND EQ PUSH2 0x75E JUMPI DUP8 PUSH2 0x760 JUMP JUMPDEST DUP10 JUMPDEST DUP2 MSTORE PUSH1 0x20 ADD DUP12 PUSH1 0x1 PUSH1 0x1 PUSH1 0xA0 SHL SUB AND DUP8 PUSH1 0x1 PUSH1 0x1 PUSH1 0xA0 SHL SUB AND EQ PUSH2 0x784 JUMPI DUP10 PUSH2 0x786 JUMP JUMPDEST DUP8 JUMPDEST DUP2 MSTORE PUSH1 0x0 PUSH1 0x20 DUP3 ADD DUP2 SWAP1 MSTORE PUSH1 0x40 DUP3 ADD MSTORE ADDRESS PUSH1 0x60 DUP3 ADD MSTORE PUSH1 0x80 ADD PUSH2 0x7AB TIMESTAMP PUSH2 0xE10 PUSH2 0xD32 JUMP JUMPDEST SWAP1 MSTORE PUSH1 0x1 SLOAD PUSH1 0x40 MLOAD PUSH4 0xFE3F3BE7 PUSH1 0xE0 SHL DUP2 MSTORE SWAP2 SWAP3 POP PUSH1 0x0 SWAP2 DUP3 SWAP2 DUP3 SWAP2 DUP3 SWAP2 PUSH1 0x1 PUSH1 0x1 PUSH1 0xA0 SHL SUB AND SWAP1 PUSH4 0xFE3F3BE7 SWAP1 PUSH2 0x7E7 SWAP1 DUP9 SWAP1 PUSH1 0x4 ADD PUSH2 0xD53 JUMP JUMPDEST PUSH1 0x80 PUSH1 0x40 MLOAD DUP1 DUP4 SUB DUP2 PUSH1 0x0 DUP8 GAS CALL ISZERO DUP1 ISZERO PUSH2 0x806 JUMPI RETURNDATASIZE PUSH1 0x0 DUP1 RETURNDATACOPY RETURNDATASIZE PUSH1 0x0 REVERT JUMPDEST POP POP POP POP PUSH1 0x40 MLOAD RETURNDATASIZE PUSH1 0x1F NOT PUSH1 0x1F DUP3 ADD AND DUP3 ADD DUP1 PUSH1 0x40 MSTORE POP DUP2 ADD SWAP1 PUSH2 0x82A SWAP2 SWAP1 PUSH2 0xE1B JUMP JUMPDEST SWAP4 POP SWAP4 POP SWAP4 POP SWAP4 POP PUSH1 0x0 DUP4 PUSH1 0x1 PUSH1 0x1 PUSH1 0x80 SHL SUB AND GT PUSH2 0x88B JUMPI PUSH1 0x40 MLOAD PUSH3 0x461BCD PUSH1 0xE5 SHL DUP2 MSTORE PUSH1 0x20 PUSH1 0x4 DUP3 ADD MSTORE PUSH1 0x18 PUSH1 0x24 DUP3 ADD MSTORE PUSH32 0x4661696C656420746F206D696E74206C69717569646974790000000000000000 PUSH1 0x44 DUP3 ADD MSTORE PUSH1 0x64 ADD PUSH2 0x252 JUMP JUMPDEST PUSH1 0x40 DUP1 MLOAD DUP6 DUP2 MSTORE PUSH1 0x1 PUSH1 0x1 PUSH1 0x80 SHL SUB DUP6 AND PUSH1 0x20 DUP3 ADD MSTORE SWAP1 DUP2 ADD DUP4 SWAP1 MSTORE PUSH1 0x60 DUP2 ADD DUP3 SWAP1 MSTORE PUSH1 0x1 PUSH1 0x1 PUSH1 0xA0 SHL SUB DUP8 AND SWAP1 PUSH32 0x936F1605239D50A44520651CB0698A8F77EEA34A13F43A4EAC22872B1BAF48CC SWAP1 PUSH1 0x80 ADD PUSH1 0x40 MLOAD DUP1 SWAP2 SUB SWAP1 LOG2 POP POP POP POP POP POP POP POP POP POP POP POP POP POP JUMP JUMPDEST PUSH1 0x0 DUP1 PUSH10 0xD3C21BCECCEDA1000000 DUP5 GT PUSH2 0x910 JUMPI DUP4 PUSH2 0x91C JUMP JUMPDEST PUSH10 0xD3C21BCECCEDA1000000 JUMPDEST SWAP1 POP PUSH1 0x0 PUSH8 0x8AC7230489E80000 DUP5 GT PUSH2 0x935 JUMPI DUP4 PUSH2 0x93F JUMP JUMPDEST PUSH8 0x8AC7230489E80000 JUMPDEST SWAP1 POP PUSH1 0x0 PUSH2 0x951 DUP4 PUSH1 0x60 DUP5 SWAP1 SHL PUSH2 0xE66 JUMP JUMPDEST SWAP1 POP PUSH1 0x30 PUSH2 0x95E DUP3 PUSH2 0xBEB JUMP JUMPDEST SWAP1 SHL SWAP4 POP POP POP POP JUMPDEST SWAP3 SWAP2 POP POP JUMP JUMPDEST PUSH1 0x0 SLOAD PUSH1 0x1 PUSH1 0x1 PUSH1 0xA0 SHL SUB AND CALLER EQ PUSH2 0x996 JUMPI PUSH1 0x40 MLOAD PUSH3 0x461BCD PUSH1 0xE5 SHL DUP2 MSTORE PUSH1 0x4 ADD PUSH2 0x252 SWAP1 PUSH2 0xCC5 JUMP JUMPDEST PUSH1 0x1 PUSH1 0x1 PUSH1 0xA0 SHL SUB DUP2 AND PUSH2 0x9DE JUMPI PUSH1 0x40 MLOAD PUSH3 0x461BCD PUSH1 0xE5 SHL DUP2 MSTORE PUSH1 0x20 PUSH1 0x4 DUP3 ADD MSTORE PUSH1 0xF PUSH1 0x24 DUP3 ADD MSTORE PUSH15 0x496E76616C69642061646472657373 PUSH1 0x88 SHL PUSH1 0x44 DUP3 ADD MSTORE PUSH1 0x64 ADD PUSH2 0x252 JUMP JUMPDEST PUSH1 0x2 DUP1 SLOAD PUSH1 0x1 PUSH1 0x1 PUSH1 0xA0 SHL SUB NOT AND PUSH1 0x1 PUSH1 0x1 PUSH1 0xA0 SHL SUB SWAP3 SWAP1 SWAP3 AND SWAP2 SWAP1 SWAP2 OR SWAP1 SSTORE JUMP JUMPDEST PUSH1 0x40 DUP1 MLOAD PUSH1 0x1 PUSH1 0x1 PUSH1 0xA0 SHL SUB DUP6 DUP2 AND PUSH1 0x24 DUP4 ADD MSTORE DUP5 DUP2 AND PUSH1 0x44 DUP4 ADD MSTORE PUSH1 0x64 DUP1 DUP4 ADD DUP6 SWAP1 MSTORE DUP4 MLOAD DUP1 DUP5 SUB SWAP1 SWAP2 ADD DUP2 MSTORE PUSH1 0x84 SWAP1 SWAP3 ADD DUP4 MSTORE PUSH1 0x20 DUP3 ADD DUP1 MLOAD PUSH1 0x1 PUSH1 0x1 PUSH1 0xE0 SHL SUB AND PUSH4 0x23B872DD PUSH1 0xE0 SHL OR SWAP1 MSTORE SWAP2 MLOAD PUSH1 0x0 SWAP3 DUP4 SWAP3 SWAP1 DUP9 AND SWAP2 PUSH2 0xA64 SWAP2 SWAP1 PUSH2 0xE88 JUMP JUMPDEST PUSH1 0x0 PUSH1 0x40 MLOAD DUP1 DUP4 SUB DUP2 PUSH1 0x0 DUP7 GAS CALL SWAP2 POP POP RETURNDATASIZE DUP1 PUSH1 0x0 DUP2 EQ PUSH2 0xAA1 JUMPI PUSH1 0x40 MLOAD SWAP2 POP PUSH1 0x1F NOT PUSH1 0x3F RETURNDATASIZE ADD AND DUP3 ADD PUSH1 0x40 MSTORE RETURNDATASIZE DUP3 MSTORE RETURNDATASIZE PUSH1 0x0 PUSH1 0x20 DUP5 ADD RETURNDATACOPY PUSH2 0xAA6 JUMP JUMPDEST PUSH1 0x60 SWAP2 POP JUMPDEST POP SWAP2 POP SWAP2 POP DUP2 ISZERO DUP1 PUSH2 0xAD4 JUMPI POP DUP1 MLOAD ISZERO DUP1 ISZERO SWAP1 PUSH2 0xAD4 JUMPI POP DUP1 DUP1 PUSH1 0x20 ADD SWAP1 MLOAD DUP2 ADD SWAP1 PUSH2 0xAD2 SWAP2 SWAP1 PUSH2 0xEB7 JUMP JUMPDEST ISZERO JUMPDEST ISZERO PUSH2 0xAF2 JUMPI PUSH1 0x40 MLOAD PUSH4 0x817275AB PUSH1 0xE0 SHL DUP2 MSTORE PUSH1 0x4 ADD PUSH1 0x40 MLOAD DUP1 SWAP2 SUB SWAP1 REVERT JUMPDEST POP POP POP POP POP POP JUMP JUMPDEST PUSH1 0x40 DUP1 MLOAD PUSH1 0x1 PUSH1 0x1 PUSH1 0xA0 SHL SUB DUP5 DUP2 AND PUSH1 0x24 DUP4 ADD MSTORE PUSH1 0x44 DUP1 DUP4 ADD DUP6 SWAP1 MSTORE DUP4 MLOAD DUP1 DUP5 SUB SWAP1 SWAP2 ADD DUP2 MSTORE PUSH1 0x64 SWAP1 SWAP3 ADD DUP4 MSTORE PUSH1 0x20 DUP3 ADD DUP1 MLOAD PUSH1 0x1 PUSH1 0x1 PUSH1 0xE0 SHL SUB AND PUSH4 0x95EA7B3 PUSH1 0xE0 SHL OR SWAP1 MSTORE SWAP2 MLOAD PUSH1 0x0 SWAP3 DUP4 SWAP3 SWAP1 DUP8 AND SWAP2 PUSH2 0xB56 SWAP2 SWAP1 PUSH2 0xE88 JUMP JUMPDEST PUSH1 0x0 PUSH1 0x40 MLOAD DUP1 DUP4 SUB DUP2 PUSH1 0x0 DUP7 GAS CALL SWAP2 POP POP RETURNDATASIZE DUP1 PUSH1 0x0 DUP2 EQ PUSH2 0xB93 JUMPI PUSH1 0x40 MLOAD SWAP2 POP PUSH1 0x1F NOT PUSH1 0x3F RETURNDATASIZE ADD AND DUP3 ADD PUSH1 0x40 MSTORE RETURNDATASIZE DUP3 MSTORE RETURNDATASIZE PUSH1 0x0 PUSH1 0x20 DUP5 ADD RETURNDATACOPY PUSH2 0xB98 JUMP JUMPDEST PUSH1 0x60 SWAP2 POP JUMPDEST POP SWAP2 POP SWAP2 POP DUP2 ISZERO DUP1 PUSH2 0xBC6 JUMPI POP DUP1 MLOAD ISZERO DUP1 ISZERO SWAP1 PUSH2 0xBC6 JUMPI POP DUP1 DUP1 PUSH1 0x20 ADD SWAP1 MLOAD DUP2 ADD SWAP1 PUSH2 0xBC4 SWAP2 SWAP1 PUSH2 0xEB7 JUMP JUMPDEST ISZERO JUMPDEST ISZERO PUSH2 0xBE4 JUMPI PUSH1 0x40 MLOAD PUSH4 0x7CD36C65 PUSH1 0xE1 SHL DUP2 MSTORE PUSH1 0x4 ADD PUSH1 0x40 MLOAD DUP1 SWAP2 SUB SWAP1 REVERT JUMPDEST POP POP POP POP POP JUMP JUMPDEST PUSH1 0x0 DUP1 PUSH1 0x2 PUSH2 0xBFB DUP5 PUSH1 0x1 PUSH2 0xD32 JUMP JUMPDEST PUSH2 0xC05 SWAP2 SWAP1 PUSH2 0xE66 JUMP JUMPDEST SWAP1 POP DUP3 JUMPDEST DUP1 DUP3 LT ISZERO PUSH2 0xC3B JUMPI POP DUP1 PUSH1 0x2 DUP2 PUSH2 0xC20 DUP2 DUP8 PUSH2 0xE66 JUMP JUMPDEST PUSH2 0xC2A SWAP2 SWAP1 PUSH2 0xD32 JUMP JUMPDEST PUSH2 0xC34 SWAP2 SWAP1 PUSH2 0xE66 JUMP JUMPDEST SWAP2 POP PUSH2 0xC09 JUMP JUMPDEST SWAP4 SWAP3 POP POP POP JUMP JUMPDEST PUSH1 0x1 PUSH1 0x1 PUSH1 0xA0 SHL SUB DUP2 AND DUP2 EQ PUSH2 0xC57 JUMPI PUSH1 0x0 DUP1 REVERT JUMPDEST POP JUMP JUMPDEST PUSH1 0x0 PUSH1 0x20 DUP3 DUP5 SUB SLT ISZERO PUSH2 0xC6C JUMPI PUSH1 0x0 DUP1 REVERT JUMPDEST DUP2 CALLDATALOAD PUSH2 0xC3B DUP2 PUSH2 0xC42 JUMP JUMPDEST PUSH1 0x0 DUP1 PUSH1 0x40 DUP4 DUP6 SUB SLT ISZERO PUSH2 0xC8A JUMPI PUSH1 0x0 DUP1 REVERT JUMPDEST DUP3 CALLDATALOAD PUSH2 0xC95 DUP2 PUSH2 0xC42 JUMP JUMPDEST SWAP5 PUSH1 0x20 SWAP4 SWAP1 SWAP4 ADD CALLDATALOAD SWAP4 POP POP POP JUMP JUMPDEST PUSH1 0x0 DUP1 PUSH1 0x40 DUP4 DUP6 SUB SLT ISZERO PUSH2 0xCB6 JUMPI PUSH1 0x0 DUP1 REVERT JUMPDEST POP POP DUP1 CALLDATALOAD SWAP3 PUSH1 0x20 SWAP1 SWAP2 ADD CALLDATALOAD SWAP2 POP JUMP JUMPDEST PUSH1 0x20 DUP1 DUP3 MSTORE PUSH1 0x18 SWAP1 DUP3 ADD MSTORE PUSH32 0x4F6E6C79206F776E65722063616E2063616C6C20746869730000000000000000 PUSH1 0x40 DUP3 ADD MSTORE PUSH1 0x60 ADD SWAP1 JUMP JUMPDEST PUSH1 0x0 PUSH1 0x20 DUP3 DUP5 SUB SLT ISZERO PUSH2 0xD0E JUMPI PUSH1 0x0 DUP1 REVERT JUMPDEST POP MLOAD SWAP2 SWAP1 POP JUMP JUMPDEST PUSH1 0x0 PUSH1 0x20 DUP3 DUP5 SUB SLT ISZERO PUSH2 0xD27 JUMPI PUSH1 0x0 DUP1 REVERT JUMPDEST DUP2 MLOAD PUSH2 0xC3B DUP2 PUSH2 0xC42 JUMP JUMPDEST DUP1 DUP3 ADD DUP1 DUP3 GT ISZERO PUSH2 0x966 JUMPI PUSH4 0x4E487B71 PUSH1 0xE0 SHL PUSH1 0x0 MSTORE PUSH1 0x11 PUSH1 0x4 MSTORE PUSH1 0x24 PUSH1 0x0 REVERT JUMPDEST DUP2 MLOAD PUSH1 0x1 PUSH1 0x1 PUSH1 0xA0 SHL SUB AND DUP2 MSTORE PUSH2 0x160 DUP2 ADD PUSH1 0x20 DUP4 ADD MLOAD PUSH2 0xD7F PUSH1 0x20 DUP5 ADD DUP3 PUSH1 0x1 PUSH1 0x1 PUSH1 0xA0 SHL SUB AND SWAP1 MSTORE JUMP JUMPDEST POP PUSH1 0x40 DUP4 ADD MLOAD PUSH2 0xD9A PUSH1 0x40 DUP5 ADD DUP3 PUSH1 0x1 PUSH1 0x1 PUSH1 0xA0 SHL SUB AND SWAP1 MSTORE JUMP JUMPDEST POP PUSH1 0x60 DUP4 ADD MLOAD PUSH2 0xDAF PUSH1 0x60 DUP5 ADD DUP3 PUSH1 0x2 SIGNEXTEND SWAP1 MSTORE JUMP JUMPDEST POP PUSH1 0x80 DUP4 ADD MLOAD PUSH2 0xDC4 PUSH1 0x80 DUP5 ADD DUP3 PUSH1 0x2 SIGNEXTEND SWAP1 MSTORE JUMP JUMPDEST POP PUSH1 0xA0 DUP4 ADD MLOAD PUSH1 0xA0 DUP4 ADD MSTORE PUSH1 0xC0 DUP4 ADD MLOAD PUSH1 0xC0 DUP4 ADD MSTORE PUSH1 0xE0 DUP4 ADD MLOAD PUSH1 0xE0 DUP4 ADD MSTORE PUSH2 0x100 DUP4 ADD MLOAD PUSH2 0x100 DUP4 ADD MSTORE PUSH2 0x120 DUP4 ADD MLOAD PUSH2 0xE0B PUSH2 0x120 DUP5 ADD DUP3 PUSH1 0x1 PUSH1 0x1 PUSH1 0xA0 SHL SUB AND SWAP1 MSTORE JUMP JUMPDEST POP PUSH2 0x140 SWAP3 DUP4 ADD MLOAD SWAP2 SWAP1 SWAP3 ADD MSTORE SWAP1 JUMP JUMPDEST PUSH1 0x0 DUP1 PUSH1 0x0 DUP1 PUSH1 0x80 DUP6 DUP8 SUB SLT ISZERO PUSH2 0xE31 JUMPI PUSH1 0x0 DUP1 REVERT JUMPDEST DUP5 MLOAD PUSH1 0x20 DUP7 ADD MLOAD SWAP1 SWAP5 POP PUSH1 0x1 PUSH1 0x1 PUSH1 0x80 SHL SUB DUP2 AND DUP2 EQ PUSH2 0xE50 JUMPI PUSH1 0x0 DUP1 REVERT JUMPDEST PUSH1 0x40 DUP7 ADD MLOAD PUSH1 0x60 SWAP1 SWAP7 ADD MLOAD SWAP5 SWAP8 SWAP1 SWAP7 POP SWAP3 POP POP POP JUMP JUMPDEST PUSH1 0x0 DUP3 PUSH2 0xE83 JUMPI PUSH4 0x4E487B71 PUSH1 0xE0 SHL PUSH1 0x0 MSTORE PUSH1 0x12 PUSH1 0x4 MSTORE PUSH1 0x24 PUSH1 0x0 REVERT JUMPDEST POP DIV SWAP1 JUMP JUMPDEST PUSH1 0x0 DUP3 MLOAD PUSH1 0x0 JUMPDEST DUP2 DUP2 LT ISZERO PUSH2 0xEA9 JUMPI PUSH1 0x20 DUP2 DUP7 ADD DUP2 ADD MLOAD DUP6 DUP4 ADD MSTORE ADD PUSH2 0xE8F JUMP JUMPDEST POP PUSH1 0x0 SWAP3 ADD SWAP2 DUP3 MSTORE POP SWAP2 SWAP1 POP JUMP JUMPDEST PUSH1 0x0 PUSH1 0x20 DUP3 DUP5 SUB SLT ISZERO PUSH2 0xEC9 JUMPI PUSH1 0x0 DUP1 REVERT JUMPDEST DUP2 MLOAD DUP1 ISZERO ISZERO DUP2 EQ PUSH2 0xC3B JUMPI PUSH1 0x0 DUP1 REVERT INVALID LOG2 PUSH5 0x6970667358 0x22 SLT KECCAK256 0xAB 0xD2 CREATE2 OR PUSH2 0xDBB7 TIMESTAMP CALLER CODESIZE PUSH29 0x2665C20711E70B0F13E08235F83275D9EE19345AF764736F6C63430008 BYTE STOP CALLER "
				},
				"gasEstimates": {
					"creation": {
						"codeDepositCost": "771000",
						"executionCost": "infinite",
						"totalCost": "infinite"
					},
					"external": {
						"MAX_ETH_LIMIT()": "284",
						"MAX_TICK()": "209",
						"MAX_TOKEN_LIMIT()": "262",
						"MIN_TICK()": "278",
						"WETH()": "2414",
						"algebraUnified()": "2371",
						"calculateSqrtPriceX96(uint256,uint256)": "infinite",
						"initiateMigration(address,uint256)": "infinite",
						"owner()": "2348",
						"updateAlgebraUnified(address)": "26741",
						"updateWETH(address)": "26850"
					},
					"internal": {
						"sqrt(uint256)": "infinite"
					}
				},
				"methodIdentifiers": {
					"MAX_ETH_LIMIT()": "5a2f0ae7",
					"MAX_TICK()": "6882a888",
					"MAX_TOKEN_LIMIT()": "3b7ab5b3",
					"MIN_TICK()": "a1634b14",
					"WETH()": "ad5c4648",
					"algebraUnified()": "24f8eca7",
					"calculateSqrtPriceX96(uint256,uint256)": "a000bf4f",
					"initiateMigration(address,uint256)": "18fd7858",
					"owner()": "8da5cb5b",
					"updateAlgebraUnified(address)": "09fe2d34",
					"updateWETH(address)": "fe9440d7"
				}
			},
			"storageLayout": {
				"storage": [
					{
						"astId": 292,
						"contract": "contracts/token factory/Migrator.sol:Migrator",
						"label": "owner",
						"offset": 0,
						"slot": "0",
						"type": "t_address"
					},
					{
						"astId": 294,
						"contract": "contracts/token factory/Migrator.sol:Migrator",
						"label": "algebraUnified",
						"offset": 0,
						"slot": "1",
						"type": "t_address"
					},
					{
						"astId": 296,
						"contract": "contracts/token factory/Migrator.sol:Migrator",
						"label": "WETH",
						"offset": 0,
						"slot": "2",
						"type": "t_address"
					}
				],
				"types": {
					"t_address": {
						"encoding": "inplace",
						"label": "address",
						"numberOfBytes": "20"
					}
				}
			},
			"userdoc": {
				"kind": "user",
				"methods": {},
				"version": 1
			}
		}
	}
}