{
	"contracts/token factory/testAlgebra.sol": {
		"AlgebraPoolTester": {
			"abi": [
				{
					"inputs": [
						{
							"internalType": "address",
							"name": "_algebraFactory",
							"type": "address"
						},
						{
							"internalType": "uint256",
							"name": "mintAmount",
							"type": "uint256"
						}
					],
					"stateMutability": "nonpayable",
					"type": "constructor"
				},
				{
					"inputs": [
						{
							"internalType": "address",
							"name": "owner",
							"type": "address"
						}
					],
					"name": "OwnableInvalidOwner",
					"type": "error"
				},
				{
					"inputs": [
						{
							"internalType": "address",
							"name": "account",
							"type": "address"
						}
					],
					"name": "OwnableUnauthorizedAccount",
					"type": "error"
				},
				{
					"anonymous": false,
					"inputs": [
						{
							"indexed": false,
							"internalType": "string",
							"name": "step",
							"type": "string"
						}
					],
					"name": "DebugStep",
					"type": "event"
				},
				{
					"anonymous": false,
					"inputs": [
						{
							"indexed": true,
							"internalType": "address",
							"name": "pool",
							"type": "address"
						},
						{
							"indexed": false,
							"internalType": "uint256",
							"name": "tokenAAmount",
							"type": "uint256"
						},
						{
							"indexed": false,
							"internalType": "uint256",
							"name": "tokenBAmount",
							"type": "uint256"
						}
					],
					"name": "LiquidityAdded",
					"type": "event"
				},
				{
					"anonymous": false,
					"inputs": [
						{
							"indexed": true,
							"internalType": "address",
							"name": "previousOwner",
							"type": "address"
						},
						{
							"indexed": true,
							"internalType": "address",
							"name": "newOwner",
							"type": "address"
						}
					],
					"name": "OwnershipTransferred",
					"type": "event"
				},
				{
					"anonymous": false,
					"inputs": [
						{
							"indexed": true,
							"internalType": "address",
							"name": "tokenA",
							"type": "address"
						},
						{
							"indexed": true,
							"internalType": "address",
							"name": "tokenB",
							"type": "address"
						},
						{
							"indexed": false,
							"internalType": "address",
							"name": "poolAddress",
							"type": "address"
						}
					],
					"name": "PoolCreated",
					"type": "event"
				},
				{
					"anonymous": false,
					"inputs": [
						{
							"indexed": true,
							"internalType": "address",
							"name": "token",
							"type": "address"
						},
						{
							"indexed": true,
							"internalType": "address",
							"name": "to",
							"type": "address"
						},
						{
							"indexed": false,
							"internalType": "uint256",
							"name": "amount",
							"type": "uint256"
						}
					],
					"name": "TokensMinted",
					"type": "event"
				},
				{
					"anonymous": false,
					"inputs": [
						{
							"indexed": true,
							"internalType": "address",
							"name": "token",
							"type": "address"
						},
						{
							"indexed": true,
							"internalType": "address",
							"name": "pool",
							"type": "address"
						},
						{
							"indexed": false,
							"internalType": "uint256",
							"name": "amount",
							"type": "uint256"
						}
					],
					"name": "TokensTransferredToPool",
					"type": "event"
				},
				{
					"inputs": [
						{
							"internalType": "uint256",
							"name": "tokenAAmount",
							"type": "uint256"
						},
						{
							"internalType": "uint256",
							"name": "tokenBAmount",
							"type": "uint256"
						}
					],
					"name": "addLiquidity",
					"outputs": [],
					"stateMutability": "nonpayable",
					"type": "function"
				},
				{
					"inputs": [],
					"name": "algebraFactory",
					"outputs": [
						{
							"internalType": "address",
							"name": "",
							"type": "address"
						}
					],
					"stateMutability": "view",
					"type": "function"
				},
				{
					"inputs": [
						{
							"internalType": "address",
							"name": "tokenA",
							"type": "address"
						},
						{
							"internalType": "address",
							"name": "tokenB",
							"type": "address"
						}
					],
					"name": "computePoolAddress",
					"outputs": [
						{
							"internalType": "address",
							"name": "poolAddress",
							"type": "address"
						}
					],
					"stateMutability": "view",
					"type": "function"
				},
				{
					"inputs": [],
					"name": "createPool",
					"outputs": [],
					"stateMutability": "nonpayable",
					"type": "function"
				},
				{
					"inputs": [],
					"name": "lastCreatedPool",
					"outputs": [
						{
							"internalType": "address",
							"name": "",
							"type": "address"
						}
					],
					"stateMutability": "view",
					"type": "function"
				},
				{
					"inputs": [
						{
							"internalType": "address",
							"name": "token",
							"type": "address"
						},
						{
							"internalType": "address",
							"name": "to",
							"type": "address"
						},
						{
							"internalType": "uint256",
							"name": "amount",
							"type": "uint256"
						}
					],
					"name": "mintTokens",
					"outputs": [],
					"stateMutability": "nonpayable",
					"type": "function"
				},
				{
					"inputs": [],
					"name": "owner",
					"outputs": [
						{
							"internalType": "address",
							"name": "",
							"type": "address"
						}
					],
					"stateMutability": "view",
					"type": "function"
				},
				{
					"inputs": [],
					"name": "renounceOwnership",
					"outputs": [],
					"stateMutability": "nonpayable",
					"type": "function"
				},
				{
					"inputs": [],
					"name": "tokenA",
					"outputs": [
						{
							"internalType": "address",
							"name": "",
							"type": "address"
						}
					],
					"stateMutability": "view",
					"type": "function"
				},
				{
					"inputs": [],
					"name": "tokenB",
					"outputs": [
						{
							"internalType": "address",
							"name": "",
							"type": "address"
						}
					],
					"stateMutability": "view",
					"type": "function"
				},
				{
					"inputs": [
						{
							"internalType": "address",
							"name": "newOwner",
							"type": "address"
						}
					],
					"name": "transferOwnership",
					"outputs": [],
					"stateMutability": "nonpayable",
					"type": "function"
				},
				{
					"inputs": [
						{
							"internalType": "address",
							"name": "token",
							"type": "address"
						},
						{
							"internalType": "address",
							"name": "pool",
							"type": "address"
						},
						{
							"internalType": "uint256",
							"name": "amount",
							"type": "uint256"
						}
					],
					"name": "transferTokensToPool",
					"outputs": [],
					"stateMutability": "nonpayable",
					"type": "function"
				},
				{
					"inputs": [
						{
							"internalType": "address",
							"name": "newAlgebraFactory",
							"type": "address"
						}
					],
					"name": "updateAlgebraFactory",
					"outputs": [],
					"stateMutability": "nonpayable",
					"type": "function"
				}
			],
			"devdoc": {
				"errors": {
					"OwnableInvalidOwner(address)": [
						{
							"details": "The owner is not a valid owner account. (eg. `address(0)`)"
						}
					],
					"OwnableUnauthorizedAccount(address)": [
						{
							"details": "The caller account is not authorized to perform an operation."
						}
					]
				},
				"kind": "dev",
				"methods": {
					"addLiquidity(uint256,uint256)": {
						"params": {
							"tokenAAmount": "The amount of Token A to add.",
							"tokenBAmount": "The amount of Token B to add."
						}
					},
					"computePoolAddress(address,address)": {
						"params": {
							"tokenA": "The address of the first token.",
							"tokenB": "The address of the second token."
						},
						"returns": {
							"poolAddress": "The address of the computed pool."
						}
					},
					"mintTokens(address,address,uint256)": {
						"params": {
							"amount": "The amount of tokens to mint.",
							"to": "The address to receive the minted tokens.",
							"token": "The address of the token to mint."
						}
					},
					"owner()": {
						"details": "Returns the address of the current owner."
					},
					"renounceOwnership()": {
						"details": "Leaves the contract without owner. It will not be possible to call `onlyOwner` functions. Can only be called by the current owner. NOTE: Renouncing ownership will leave the contract without an owner, thereby disabling any functionality that is only available to the owner."
					},
					"transferOwnership(address)": {
						"details": "Transfers ownership of the contract to a new account (`newOwner`). Can only be called by the current owner."
					},
					"transferTokensToPool(address,address,uint256)": {
						"params": {
							"amount": "The amount of tokens to transfer.",
							"pool": "The address of the pool to receive the tokens.",
							"token": "The address of the token to transfer."
						}
					},
					"updateAlgebraFactory(address)": {
						"params": {
							"newAlgebraFactory": "The new Algebra Factory address."
						}
					}
				},
				"version": 1
			},
			"evm": {
				"assembly": "    /* \"contracts/token factory/testAlgebra.sol\":223:5496  contract AlgebraPoolTester is Ownable (msg.sender) {... */\n  mstore(0x40, 0x80)\n    /* \"contracts/token factory/testAlgebra.sol\":804:1588  constructor(address _algebraFactory, uint256 mintAmount) {... */\n  callvalue\n  dup1\n  iszero\n  tag_1\n  jumpi\n  0x00\n  dup1\n  revert\ntag_1:\n  pop\n  mload(0x40)\n  sub(codesize, bytecodeSize)\n  dup1\n  bytecodeSize\n  dup4\n  codecopy\n  dup2\n  add\n  0x40\n  dup2\n  swap1\n  mstore\n  tag_2\n  swap2\n  tag_3\n  jump\t// in\ntag_2:\n    /* \"contracts/token factory/testAlgebra.sol\":262:272  msg.sender */\n  caller\n  dup1\n    /* \"@openzeppelin/contracts/access/Ownable.sol\":1269:1364  if (initialOwner == address(0)) {... */\n  tag_7\n  jumpi\n    /* \"@openzeppelin/contracts/access/Ownable.sol\":1322:1353  OwnableInvalidOwner(address(0)) */\n  mload(0x40)\n  shl(0xe0, 0x1e4fbdf7)\n  dup2\n  mstore\n    /* \"@openzeppelin/contracts/access/Ownable.sol\":1350:1351  0 */\n  0x00\n    /* \"@openzeppelin/contracts/access/Ownable.sol\":1322:1353  OwnableInvalidOwner(address(0)) */\n  0x04\n  dup3\n  add\n    /* \"#utility.yul\":516:567   */\n  mstore\n    /* \"#utility.yul\":489:507   */\n  0x24\n  add\n    /* \"@openzeppelin/contracts/access/Ownable.sol\":1322:1353  OwnableInvalidOwner(address(0)) */\ntag_8:\n  mload(0x40)\n  dup1\n  swap2\n  sub\n  swap1\n  revert\n    /* \"@openzeppelin/contracts/access/Ownable.sol\":1269:1364  if (initialOwner == address(0)) {... */\ntag_7:\n    /* \"@openzeppelin/contracts/access/Ownable.sol\":1373:1405  _transferOwnership(initialOwner) */\n  tag_10\n    /* \"@openzeppelin/contracts/access/Ownable.sol\":1392:1404  initialOwner */\n  dup2\n    /* \"@openzeppelin/contracts/access/Ownable.sol\":1373:1391  _transferOwnership */\n  tag_11\n    /* \"@openzeppelin/contracts/access/Ownable.sol\":1373:1405  _transferOwnership(initialOwner) */\n  jump\t// in\ntag_10:\n  pop\n  sub(shl(0xa0, 0x01), 0x01)\n    /* \"contracts/token factory/testAlgebra.sol\":879:908  _algebraFactory != address(0) */\n  dup3\n  and\n    /* \"contracts/token factory/testAlgebra.sol\":871:944  require(_algebraFactory != address(0), \"Invalid Algebra Factory address\") */\n  tag_13\n  jumpi\n  mload(0x40)\n  shl(0xe5, 0x461bcd)\n  dup2\n  mstore\n    /* \"#utility.yul\":780:782   */\n  0x20\n    /* \"contracts/token factory/testAlgebra.sol\":871:944  require(_algebraFactory != address(0), \"Invalid Algebra Factory address\") */\n  0x04\n  dup3\n  add\n    /* \"#utility.yul\":762:783   */\n  mstore\n    /* \"#utility.yul\":819:821   */\n  0x1f\n    /* \"#utility.yul\":799:817   */\n  0x24\n  dup3\n  add\n    /* \"#utility.yul\":792:822   */\n  mstore\n    /* \"#utility.yul\":858:891   */\n  0x496e76616c696420416c676562726120466163746f7279206164647265737300\n    /* \"#utility.yul\":838:856   */\n  0x44\n  dup3\n  add\n    /* \"#utility.yul\":831:892   */\n  mstore\n    /* \"#utility.yul\":909:927   */\n  0x64\n  add\n    /* \"contracts/token factory/testAlgebra.sol\":871:944  require(_algebraFactory != address(0), \"Invalid Algebra Factory address\") */\n  tag_8\n    /* \"#utility.yul\":578:933   */\n  jump\n    /* \"contracts/token factory/testAlgebra.sol\":871:944  require(_algebraFactory != address(0), \"Invalid Algebra Factory address\") */\ntag_13:\n    /* \"contracts/token factory/testAlgebra.sol\":975:976  0 */\n  0x00\n    /* \"contracts/token factory/testAlgebra.sol\":962:972  mintAmount */\n  dup2\n    /* \"contracts/token factory/testAlgebra.sol\":962:976  mintAmount > 0 */\n  gt\n    /* \"contracts/token factory/testAlgebra.sol\":954:1018  require(mintAmount > 0, \"Mint amount must be greater than zero\") */\n  tag_16\n  jumpi\n  mload(0x40)\n  shl(0xe5, 0x461bcd)\n  dup2\n  mstore\n    /* \"#utility.yul\":1140:1142   */\n  0x20\n    /* \"contracts/token factory/testAlgebra.sol\":954:1018  require(mintAmount > 0, \"Mint amount must be greater than zero\") */\n  0x04\n  dup3\n  add\n    /* \"#utility.yul\":1122:1143   */\n  mstore\n    /* \"#utility.yul\":1179:1181   */\n  0x25\n    /* \"#utility.yul\":1159:1177   */\n  0x24\n  dup3\n  add\n    /* \"#utility.yul\":1152:1182   */\n  mstore\n    /* \"#utility.yul\":1218:1252   */\n  0x4d696e7420616d6f756e74206d7573742062652067726561746572207468616e\n    /* \"#utility.yul\":1198:1216   */\n  0x44\n  dup3\n  add\n    /* \"#utility.yul\":1191:1253   */\n  mstore\n  shl(0xd8, 0x207a65726f)\n    /* \"#utility.yul\":1269:1287   */\n  0x64\n  dup3\n  add\n    /* \"#utility.yul\":1262:1297   */\n  mstore\n    /* \"#utility.yul\":1314:1333   */\n  0x84\n  add\n    /* \"contracts/token factory/testAlgebra.sol\":954:1018  require(mintAmount > 0, \"Mint amount must be greater than zero\") */\n  tag_8\n    /* \"#utility.yul\":938:1339   */\n  jump\n    /* \"contracts/token factory/testAlgebra.sol\":954:1018  require(mintAmount > 0, \"Mint amount must be greater than zero\") */\ntag_16:\n    /* \"contracts/token factory/testAlgebra.sol\":1029:1043  algebraFactory */\n  0x01\n    /* \"contracts/token factory/testAlgebra.sol\":1029:1061  algebraFactory = _algebraFactory */\n  dup1\n  sload\n  not(sub(shl(0xa0, 0x01), 0x01))\n  and\n  sub(shl(0xa0, 0x01), 0x01)\n  dup5\n  and\n  or\n  swap1\n  sstore\n    /* \"contracts/token factory/testAlgebra.sol\":1120:1137  new CustomToken() */\n  mload(0x40)\n  0x00\n  swap1\n  tag_19\n  swap1\n  tag_20\n  jump\t// in\ntag_19:\n  mload(0x40)\n  dup1\n  swap2\n  sub\n  swap1\n  0x00\n  create\n  dup1\n  iszero\n  dup1\n  iszero\n  tag_21\n  jumpi\n  returndatasize\n  0x00\n  dup1\n  returndatacopy\n  revert(0x00, returndatasize)\ntag_21:\n  pop\n    /* \"contracts/token factory/testAlgebra.sol\":1147:1181  _tokenA.initialize(\"TokenA\", \"TA\") */\n  0x40\n  dup1\n  mload\n  shl(0xe1, 0x266c45bb)\n  dup2\n  mstore\n  0x04\n  dup2\n  add\n    /* \"#utility.yul\":1629:1650   */\n  swap2\n  swap1\n  swap2\n  mstore\n    /* \"#utility.yul\":1686:1687   */\n  0x06\n    /* \"#utility.yul\":1666:1684   */\n  0x44\n  dup3\n  add\n    /* \"#utility.yul\":1659:1688   */\n  mstore\n  shl(0xd0, 0x546f6b656e41)\n    /* \"#utility.yul\":1704:1722   */\n  0x64\n  dup3\n  add\n    /* \"#utility.yul\":1697:1733   */\n  mstore\n    /* \"#utility.yul\":1771:1774   */\n  0x80\n    /* \"#utility.yul\":1749:1769   */\n  0x24\n  dup3\n  add\n    /* \"#utility.yul\":1742:1775   */\n  mstore\n    /* \"#utility.yul\":1812:1813   */\n  0x02\n    /* \"#utility.yul\":1791:1810   */\n  0x84\n  dup3\n  add\n    /* \"#utility.yul\":1784:1814   */\n  mstore\n  shl(0xf0, 0x5441)\n    /* \"#utility.yul\":1830:1849   */\n  0xa4\n  dup3\n  add\n    /* \"#utility.yul\":1823:1856   */\n  mstore\n    /* \"contracts/token factory/testAlgebra.sol\":1098:1137  CustomToken _tokenA = new CustomToken() */\n  swap1\n  swap2\n  pop\n  sub(shl(0xa0, 0x01), 0x01)\n    /* \"contracts/token factory/testAlgebra.sol\":1147:1165  _tokenA.initialize */\n  dup3\n  and\n  swap1\n  0x4cd88b76\n  swap1\n    /* \"#utility.yul\":1873:1892   */\n  0xc4\n  add\n    /* \"contracts/token factory/testAlgebra.sol\":1147:1181  _tokenA.initialize(\"TokenA\", \"TA\") */\n  0x00\n  mload(0x40)\n  dup1\n  dup4\n  sub\n  dup2\n  0x00\n  dup8\n  dup1\n  extcodesize\n  iszero\n  dup1\n  iszero\n  tag_24\n  jumpi\n  0x00\n  dup1\n  revert\ntag_24:\n  pop\n  gas\n  call\n  iszero\n  dup1\n  iszero\n  tag_26\n  jumpi\n  returndatasize\n  0x00\n  dup1\n  returndatacopy\n  revert(0x00, returndatasize)\ntag_26:\n  pop\n  pop\n    /* \"contracts/token factory/testAlgebra.sol\":1191:1227  _tokenA.mint(msg.sender, mintAmount) */\n  mload(0x40)\n  shl(0xe0, 0x40c10f19)\n  dup2\n  mstore\n    /* \"contracts/token factory/testAlgebra.sol\":1204:1214  msg.sender */\n  caller\n    /* \"contracts/token factory/testAlgebra.sol\":1191:1227  _tokenA.mint(msg.sender, mintAmount) */\n  0x04\n  dup3\n  add\n    /* \"#utility.yul\":2077:2128   */\n  mstore\n    /* \"#utility.yul\":2144:2162   */\n  0x24\n  dup2\n  add\n    /* \"#utility.yul\":2137:2171   */\n  dup6\n  swap1\n  mstore\n  sub(shl(0xa0, 0x01), 0x01)\n    /* \"contracts/token factory/testAlgebra.sol\":1191:1203  _tokenA.mint */\n  dup5\n  and\n  swap3\n  pop\n  0x40c10f19\n  swap2\n  pop\n    /* \"#utility.yul\":2050:2068   */\n  0x44\n  add\n    /* \"contracts/token factory/testAlgebra.sol\":1191:1227  _tokenA.mint(msg.sender, mintAmount) */\n  0x00\n  mload(0x40)\n  dup1\n  dup4\n  sub\n  dup2\n  0x00\n  dup8\n  dup1\n  extcodesize\n  iszero\n  dup1\n  iszero\n  tag_29\n  jumpi\n  0x00\n  dup1\n  revert\ntag_29:\n  pop\n  gas\n  call\n  iszero\n  dup1\n  iszero\n  tag_31\n  jumpi\n  returndatasize\n  0x00\n  dup1\n  returndatacopy\n  revert(0x00, returndatasize)\ntag_31:\n  pop\n  pop\n    /* \"contracts/token factory/testAlgebra.sol\":1237:1243  tokenA */\n  0x03\n    /* \"contracts/token factory/testAlgebra.sol\":1237:1262  tokenA = address(_tokenA) */\n  dup1\n  sload\n  not(sub(shl(0xa0, 0x01), 0x01))\n  and\n  sub(shl(0xa0, 0x01), 0x01)\n  dup6\n  and\n  swap1\n  dup2\n  or\n  swap1\n  swap2\n  sstore\n    /* \"contracts/token factory/testAlgebra.sol\":1277:1321  TokensMinted(tokenA, msg.sender, mintAmount) */\n  mload(0x40)\n    /* \"#utility.yul\":2328:2353   */\n  dup6\n  dup2\n  mstore\n    /* \"contracts/token factory/testAlgebra.sol\":1298:1308  msg.sender */\n  caller\n  swap4\n  pop\n    /* \"contracts/token factory/testAlgebra.sol\":1237:1262  tokenA = address(_tokenA) */\n  swap1\n  swap2\n  pop\n  0x00\n  dup1\n  mload\n  0x20\n  data_1f8af5d09536cfff9c726b5b64e3468e91184f0e2f8d91057f8023dacfc32600\n  dup4\n  codecopy\n  dup2\n  mload\n  swap2\n  mstore\n    /* \"contracts/token factory/testAlgebra.sol\":1277:1321  TokensMinted(tokenA, msg.sender, mintAmount) */\n  swap1\n    /* \"#utility.yul\":2316:2318   */\n  0x20\n    /* \"#utility.yul\":2301:2319   */\n  add\n    /* \"contracts/token factory/testAlgebra.sol\":1277:1321  TokensMinted(tokenA, msg.sender, mintAmount) */\n  mload(0x40)\n  dup1\n  swap2\n  sub\n  swap1\n  log3\n    /* \"contracts/token factory/testAlgebra.sol\":1358:1377  CustomToken _tokenB */\n  0x00\n    /* \"contracts/token factory/testAlgebra.sol\":1380:1397  new CustomToken() */\n  mload(0x40)\n  tag_34\n  swap1\n  tag_20\n  jump\t// in\ntag_34:\n  mload(0x40)\n  dup1\n  swap2\n  sub\n  swap1\n  0x00\n  create\n  dup1\n  iszero\n  dup1\n  iszero\n  tag_35\n  jumpi\n  returndatasize\n  0x00\n  dup1\n  returndatacopy\n  revert(0x00, returndatasize)\ntag_35:\n  pop\n    /* \"contracts/token factory/testAlgebra.sol\":1407:1441  _tokenB.initialize(\"TokenB\", \"TB\") */\n  0x40\n  dup1\n  mload\n  shl(0xe1, 0x266c45bb)\n  dup2\n  mstore\n  0x04\n  dup2\n  add\n    /* \"#utility.yul\":2649:2670   */\n  swap2\n  swap1\n  swap2\n  mstore\n    /* \"#utility.yul\":2706:2707   */\n  0x06\n    /* \"#utility.yul\":2686:2704   */\n  0x44\n  dup3\n  add\n    /* \"#utility.yul\":2679:2708   */\n  mstore\n  shl(0xd1, 0x2a37b5b2b721)\n    /* \"#utility.yul\":2724:2742   */\n  0x64\n  dup3\n  add\n    /* \"#utility.yul\":2717:2753   */\n  mstore\n    /* \"#utility.yul\":2791:2794   */\n  0x80\n    /* \"#utility.yul\":2769:2789   */\n  0x24\n  dup3\n  add\n    /* \"#utility.yul\":2762:2795   */\n  mstore\n    /* \"#utility.yul\":2832:2833   */\n  0x02\n    /* \"#utility.yul\":2811:2830   */\n  0x84\n  dup3\n  add\n    /* \"#utility.yul\":2804:2834   */\n  mstore\n  shl(0xf1, 0x2a21)\n    /* \"#utility.yul\":2850:2869   */\n  0xa4\n  dup3\n  add\n    /* \"#utility.yul\":2843:2876   */\n  mstore\n    /* \"contracts/token factory/testAlgebra.sol\":1358:1397  CustomToken _tokenB = new CustomToken() */\n  swap1\n  swap2\n  pop\n  sub(shl(0xa0, 0x01), 0x01)\n    /* \"contracts/token factory/testAlgebra.sol\":1407:1425  _tokenB.initialize */\n  dup3\n  and\n  swap1\n  0x4cd88b76\n  swap1\n    /* \"#utility.yul\":2893:2912   */\n  0xc4\n  add\n    /* \"contracts/token factory/testAlgebra.sol\":1407:1441  _tokenB.initialize(\"TokenB\", \"TB\") */\n  0x00\n  mload(0x40)\n  dup1\n  dup4\n  sub\n  dup2\n  0x00\n  dup8\n  dup1\n  extcodesize\n  iszero\n  dup1\n  iszero\n  tag_38\n  jumpi\n  0x00\n  dup1\n  revert\ntag_38:\n  pop\n  gas\n  call\n  iszero\n  dup1\n  iszero\n  tag_40\n  jumpi\n  returndatasize\n  0x00\n  dup1\n  returndatacopy\n  revert(0x00, returndatasize)\ntag_40:\n  pop\n  pop\n    /* \"contracts/token factory/testAlgebra.sol\":1451:1487  _tokenB.mint(msg.sender, mintAmount) */\n  mload(0x40)\n  shl(0xe0, 0x40c10f19)\n  dup2\n  mstore\n    /* \"contracts/token factory/testAlgebra.sol\":1464:1474  msg.sender */\n  caller\n    /* \"contracts/token factory/testAlgebra.sol\":1451:1487  _tokenB.mint(msg.sender, mintAmount) */\n  0x04\n  dup3\n  add\n    /* \"#utility.yul\":2077:2128   */\n  mstore\n    /* \"#utility.yul\":2144:2162   */\n  0x24\n  dup2\n  add\n    /* \"#utility.yul\":2137:2171   */\n  dup7\n  swap1\n  mstore\n  sub(shl(0xa0, 0x01), 0x01)\n    /* \"contracts/token factory/testAlgebra.sol\":1451:1463  _tokenB.mint */\n  dup5\n  and\n  swap3\n  pop\n  0x40c10f19\n  swap2\n  pop\n    /* \"#utility.yul\":2050:2068   */\n  0x44\n  add\n    /* \"contracts/token factory/testAlgebra.sol\":1451:1487  _tokenB.mint(msg.sender, mintAmount) */\n  0x00\n  mload(0x40)\n  dup1\n  dup4\n  sub\n  dup2\n  0x00\n  dup8\n  dup1\n  extcodesize\n  iszero\n  dup1\n  iszero\n  tag_42\n  jumpi\n  0x00\n  dup1\n  revert\ntag_42:\n  pop\n  gas\n  call\n  iszero\n  dup1\n  iszero\n  tag_44\n  jumpi\n  returndatasize\n  0x00\n  dup1\n  returndatacopy\n  revert(0x00, returndatasize)\ntag_44:\n  pop\n  pop\n    /* \"contracts/token factory/testAlgebra.sol\":1497:1503  tokenB */\n  0x04\n    /* \"contracts/token factory/testAlgebra.sol\":1497:1522  tokenB = address(_tokenB) */\n  dup1\n  sload\n  not(sub(shl(0xa0, 0x01), 0x01))\n  and\n  sub(shl(0xa0, 0x01), 0x01)\n  dup6\n  and\n  swap1\n  dup2\n  or\n  swap1\n  swap2\n  sstore\n    /* \"contracts/token factory/testAlgebra.sol\":1537:1581  TokensMinted(tokenB, msg.sender, mintAmount) */\n  mload(0x40)\n    /* \"#utility.yul\":2328:2353   */\n  dup7\n  dup2\n  mstore\n    /* \"contracts/token factory/testAlgebra.sol\":1558:1568  msg.sender */\n  caller\n  swap4\n  pop\n    /* \"contracts/token factory/testAlgebra.sol\":1497:1522  tokenB = address(_tokenB) */\n  swap1\n  swap2\n  pop\n  0x00\n  dup1\n  mload\n  0x20\n  data_1f8af5d09536cfff9c726b5b64e3468e91184f0e2f8d91057f8023dacfc32600\n  dup4\n  codecopy\n  dup2\n  mload\n  swap2\n  mstore\n    /* \"contracts/token factory/testAlgebra.sol\":1537:1581  TokensMinted(tokenB, msg.sender, mintAmount) */\n  swap1\n    /* \"#utility.yul\":2316:2318   */\n  0x20\n    /* \"#utility.yul\":2301:2319   */\n  add\n    /* \"contracts/token factory/testAlgebra.sol\":1537:1581  TokensMinted(tokenB, msg.sender, mintAmount) */\n  mload(0x40)\n  dup1\n  swap2\n  sub\n  swap1\n  log3\n    /* \"contracts/token factory/testAlgebra.sol\":861:1588  {... */\n  pop\n  pop\n    /* \"contracts/token factory/testAlgebra.sol\":804:1588  constructor(address _algebraFactory, uint256 mintAmount) {... */\n  pop\n  pop\n    /* \"contracts/token factory/testAlgebra.sol\":223:5496  contract AlgebraPoolTester is Ownable (msg.sender) {... */\n  jump(tag_48)\n    /* \"@openzeppelin/contracts/access/Ownable.sol\":2912:3099  function _transferOwnership(address newOwner) internal virtual {... */\ntag_11:\n    /* \"@openzeppelin/contracts/access/Ownable.sol\":2985:3001  address oldOwner */\n  0x00\n    /* \"@openzeppelin/contracts/access/Ownable.sol\":3004:3010  _owner */\n  dup1\n  sload\n  sub(shl(0xa0, 0x01), 0x01)\n    /* \"@openzeppelin/contracts/access/Ownable.sol\":3020:3037  _owner = newOwner */\n  dup4\n  dup2\n  and\n  not(sub(shl(0xa0, 0x01), 0x01))\n  dup4\n  and\n  dup2\n  or\n  dup5\n  sstore\n    /* \"@openzeppelin/contracts/access/Ownable.sol\":3052:3092  OwnershipTransferred(oldOwner, newOwner) */\n  mload(0x40)\n    /* \"@openzeppelin/contracts/access/Ownable.sol\":3004:3010  _owner */\n  swap2\n  swap1\n  swap3\n  and\n  swap3\n  dup4\n  swap2\n    /* \"@openzeppelin/contracts/access/Ownable.sol\":3052:3092  OwnershipTransferred(oldOwner, newOwner) */\n  0x8be0079c531659141344cd1fd0a4f28419497f9722a3daafe3b4186f6b6457e0\n  swap2\n    /* \"@openzeppelin/contracts/access/Ownable.sol\":2985:3001  address oldOwner */\n  swap1\n    /* \"@openzeppelin/contracts/access/Ownable.sol\":3052:3092  OwnershipTransferred(oldOwner, newOwner) */\n  log3\n    /* \"@openzeppelin/contracts/access/Ownable.sol\":2975:3099  {... */\n  pop\n    /* \"@openzeppelin/contracts/access/Ownable.sol\":2912:3099  function _transferOwnership(address newOwner) internal virtual {... */\n  pop\n  jump\t// out\n    /* \"contracts/token factory/testAlgebra.sol\":223:5496  contract AlgebraPoolTester is Ownable (msg.sender) {... */\ntag_20:\n  dataSize(sub_1)\n  dup1\n  dataOffset(sub_1)\n  dup4\n  codecopy\n  add\n  swap1\n  jump\t// out\n    /* \"#utility.yul\":14:365   */\ntag_3:\n    /* \"#utility.yul\":93:99   */\n  0x00\n    /* \"#utility.yul\":101:107   */\n  dup1\n    /* \"#utility.yul\":154:156   */\n  0x40\n    /* \"#utility.yul\":142:151   */\n  dup4\n    /* \"#utility.yul\":133:140   */\n  dup6\n    /* \"#utility.yul\":129:152   */\n  sub\n    /* \"#utility.yul\":125:157   */\n  slt\n    /* \"#utility.yul\":122:174   */\n  iszero\n  tag_50\n  jumpi\n    /* \"#utility.yul\":170:171   */\n  0x00\n    /* \"#utility.yul\":167:168   */\n  dup1\n    /* \"#utility.yul\":160:172   */\n  revert\n    /* \"#utility.yul\":122:174   */\ntag_50:\n    /* \"#utility.yul\":196:212   */\n  dup3\n  mload\n  sub(shl(0xa0, 0x01), 0x01)\n    /* \"#utility.yul\":241:272   */\n  dup2\n  and\n    /* \"#utility.yul\":231:273   */\n  dup2\n  eq\n    /* \"#utility.yul\":221:291   */\n  tag_51\n  jumpi\n    /* \"#utility.yul\":287:288   */\n  0x00\n    /* \"#utility.yul\":284:285   */\n  dup1\n    /* \"#utility.yul\":277:289   */\n  revert\n    /* \"#utility.yul\":221:291   */\ntag_51:\n    /* \"#utility.yul\":355:357   */\n  0x20\n    /* \"#utility.yul\":340:358   */\n  swap4\n  swap1\n  swap4\n  add\n    /* \"#utility.yul\":334:359   */\n  mload\n    /* \"#utility.yul\":310:315   */\n  swap3\n  swap5\n    /* \"#utility.yul\":334:359   */\n  swap3\n  swap4\n  pop\n  pop\n  pop\n    /* \"#utility.yul\":14:365   */\n  jump\t// out\n    /* \"#utility.yul\":2364:2918   */\ntag_48:\n    /* \"contracts/token factory/testAlgebra.sol\":223:5496  contract AlgebraPoolTester is Ownable (msg.sender) {... */\n  dataSize(sub_0)\n  dup1\n  dataOffset(sub_0)\n  0x00\n  codecopy\n  0x00\n  return\nstop\ndata_1f8af5d09536cfff9c726b5b64e3468e91184f0e2f8d91057f8023dacfc32600 bf67ec129007be07f346d9d2933215293a6612ce7ff17d6b479a5a5cae72890c\n\nsub_0: assembly {\n        /* \"contracts/token factory/testAlgebra.sol\":223:5496  contract AlgebraPoolTester is Ownable (msg.sender) {... */\n      mstore(0x40, 0x80)\n      callvalue\n      dup1\n      iszero\n      tag_1\n      jumpi\n      0x00\n      dup1\n      revert\n    tag_1:\n      pop\n      jumpi(tag_2, lt(calldatasize, 0x04))\n      shr(0xe0, calldataload(0x00))\n      dup1\n      0x8da5cb5b\n      gt\n      tag_16\n      jumpi\n      dup1\n      0xa7b64b04\n      gt\n      tag_17\n      jumpi\n      dup1\n      0xa7b64b04\n      eq\n      tag_12\n      jumpi\n      dup1\n      0xb62d2af9\n      eq\n      tag_13\n      jumpi\n      dup1\n      0xd8ed2241\n      eq\n      tag_14\n      jumpi\n      dup1\n      0xf2fde38b\n      eq\n      tag_15\n      jumpi\n      0x00\n      dup1\n      revert\n    tag_17:\n      dup1\n      0x8da5cb5b\n      eq\n      tag_9\n      jumpi\n      dup1\n      0x9a06b113\n      eq\n      tag_10\n      jumpi\n      dup1\n      0x9cd441da\n      eq\n      tag_11\n      jumpi\n      0x00\n      dup1\n      revert\n    tag_16:\n      dup1\n      0x0fc63d10\n      eq\n      tag_3\n      jumpi\n      dup1\n      0x1a7c2131\n      eq\n      tag_4\n      jumpi\n      dup1\n      0x4f16fa53\n      eq\n      tag_5\n      jumpi\n      dup1\n      0x5f64b55b\n      eq\n      tag_6\n      jumpi\n      dup1\n      0x6fc98ee1\n      eq\n      tag_7\n      jumpi\n      dup1\n      0x715018a6\n      eq\n      tag_8\n      jumpi\n    tag_2:\n      0x00\n      dup1\n      revert\n        /* \"contracts/token factory/testAlgebra.sol\":351:372  address public tokenA */\n    tag_3:\n      sload(0x03)\n      tag_18\n      swap1\n      sub(shl(0xa0, 0x01), 0x01)\n      and\n      dup2\n      jump\n    tag_18:\n      mload(0x40)\n      sub(shl(0xa0, 0x01), 0x01)\n        /* \"#utility.yul\":178:210   */\n      swap1\n      swap2\n      and\n        /* \"#utility.yul\":160:211   */\n      dup2\n      mstore\n        /* \"#utility.yul\":148:150   */\n      0x20\n        /* \"#utility.yul\":133:151   */\n      add\n        /* \"contracts/token factory/testAlgebra.sol\":351:372  address public tokenA */\n      mload(0x40)\n      dup1\n      swap2\n      sub\n      swap1\n      return\n        /* \"contracts/token factory/testAlgebra.sol\":315:345  address public lastCreatedPool */\n    tag_4:\n      sload(0x02)\n      tag_18\n      swap1\n      sub(shl(0xa0, 0x01), 0x01)\n      and\n      dup2\n      jump\n        /* \"contracts/token factory/testAlgebra.sol\":3092:3508  function transferTokensToPool(address token, address pool, uint256 amount) external onlyOwner {... */\n    tag_5:\n      tag_25\n      tag_26\n      calldatasize\n      0x04\n      tag_27\n      jump\t// in\n    tag_26:\n      tag_28\n      jump\t// in\n    tag_25:\n      stop\n        /* \"contracts/token factory/testAlgebra.sol\":378:399  address public tokenB */\n    tag_6:\n      sload(0x04)\n      tag_18\n      swap1\n      sub(shl(0xa0, 0x01), 0x01)\n      and\n      dup2\n      jump\n        /* \"contracts/token factory/testAlgebra.sol\":2460:2848  function mintTokens(address token, address to, uint256 amount) external onlyOwner {... */\n    tag_7:\n      tag_25\n      tag_33\n      calldatasize\n      0x04\n      tag_27\n      jump\t// in\n    tag_33:\n      tag_34\n      jump\t// in\n        /* \"@openzeppelin/contracts/access/Ownable.sol\":2293:2394  function renounceOwnership() public virtual onlyOwner {... */\n    tag_8:\n      tag_25\n      tag_36\n      jump\t// in\n        /* \"@openzeppelin/contracts/access/Ownable.sol\":1638:1723  function owner() public view virtual returns (address) {... */\n    tag_9:\n        /* \"@openzeppelin/contracts/access/Ownable.sol\":1684:1691  address */\n      0x00\n        /* \"@openzeppelin/contracts/access/Ownable.sol\":1710:1716  _owner */\n      sload\n      sub(shl(0xa0, 0x01), 0x01)\n      and\n        /* \"@openzeppelin/contracts/access/Ownable.sol\":1638:1723  function owner() public view virtual returns (address) {... */\n      jump(tag_18)\n        /* \"contracts/token factory/testAlgebra.sol\":1687:2204  function createPool() external onlyOwner {... */\n    tag_10:\n      tag_25\n      tag_41\n      jump\t// in\n        /* \"contracts/token factory/testAlgebra.sol\":3687:4483  function addLiquidity(uint256 tokenAAmount, uint256 tokenBAmount) external onlyOwner {... */\n    tag_11:\n      tag_25\n      tag_43\n      calldatasize\n      0x04\n      tag_44\n      jump\t// in\n    tag_43:\n      tag_45\n      jump\t// in\n        /* \"contracts/token factory/testAlgebra.sol\":280:309  address public algebraFactory */\n    tag_12:\n      sload(0x01)\n      tag_18\n      swap1\n      sub(shl(0xa0, 0x01), 0x01)\n      and\n      dup2\n      jump\n        /* \"contracts/token factory/testAlgebra.sol\":5282:5494  function updateAlgebraFactory(address newAlgebraFactory) external onlyOwner {... */\n    tag_13:\n      tag_25\n      tag_50\n      calldatasize\n      0x04\n      tag_51\n      jump\t// in\n    tag_50:\n      tag_52\n      jump\t// in\n        /* \"contracts/token factory/testAlgebra.sol\":4740:5136  function computePoolAddress(address tokenA, address tokenB) external view returns (address poolAddress) {... */\n    tag_14:\n      tag_18\n      tag_54\n      calldatasize\n      0x04\n      tag_55\n      jump\t// in\n    tag_54:\n      tag_56\n      jump\t// in\n        /* \"@openzeppelin/contracts/access/Ownable.sol\":2543:2758  function transferOwnership(address newOwner) public virtual onlyOwner {... */\n    tag_15:\n      tag_25\n      tag_59\n      calldatasize\n      0x04\n      tag_51\n      jump\t// in\n    tag_59:\n      tag_60\n      jump\t// in\n        /* \"contracts/token factory/testAlgebra.sol\":3092:3508  function transferTokensToPool(address token, address pool, uint256 amount) external onlyOwner {... */\n    tag_28:\n        /* \"@openzeppelin/contracts/access/Ownable.sol\":1531:1544  _checkOwner() */\n      tag_62\n        /* \"@openzeppelin/contracts/access/Ownable.sol\":1531:1542  _checkOwner */\n      tag_63\n        /* \"@openzeppelin/contracts/access/Ownable.sol\":1531:1544  _checkOwner() */\n      jump\t// in\n    tag_62:\n        /* \"contracts/token factory/testAlgebra.sol\":3213:3219  tokenA */\n      sload(0x03)\n      sub(shl(0xa0, 0x01), 0x01)\n        /* \"contracts/token factory/testAlgebra.sol\":3204:3219  token == tokenA */\n      dup5\n      dup2\n      and\n        /* \"contracts/token factory/testAlgebra.sol\":3213:3219  tokenA */\n      swap2\n      and\n        /* \"contracts/token factory/testAlgebra.sol\":3204:3219  token == tokenA */\n      eq\n      dup1\n        /* \"contracts/token factory/testAlgebra.sol\":3204:3238  token == tokenA || token == tokenB */\n      tag_65\n      jumpi\n      pop\n        /* \"contracts/token factory/testAlgebra.sol\":3232:3238  tokenB */\n      sload(0x04)\n      sub(shl(0xa0, 0x01), 0x01)\n        /* \"contracts/token factory/testAlgebra.sol\":3223:3238  token == tokenB */\n      dup5\n      dup2\n      and\n        /* \"contracts/token factory/testAlgebra.sol\":3232:3238  tokenB */\n      swap2\n      and\n        /* \"contracts/token factory/testAlgebra.sol\":3223:3238  token == tokenB */\n      eq\n        /* \"contracts/token factory/testAlgebra.sol\":3204:3238  token == tokenA || token == tokenB */\n    tag_65:\n        /* \"contracts/token factory/testAlgebra.sol\":3196:3264  require(token == tokenA || token == tokenB, \"Invalid token address\") */\n      tag_66\n      jumpi\n      mload(0x40)\n      shl(0xe5, 0x461bcd)\n      dup2\n      mstore\n      0x04\n      add\n      tag_67\n      swap1\n      tag_68\n      jump\t// in\n    tag_67:\n      mload(0x40)\n      dup1\n      swap2\n      sub\n      swap1\n      revert\n    tag_66:\n      sub(shl(0xa0, 0x01), 0x01)\n        /* \"contracts/token factory/testAlgebra.sol\":3282:3300  pool != address(0) */\n      dup3\n      and\n        /* \"contracts/token factory/testAlgebra.sol\":3274:3325  require(pool != address(0), \"Invalid pool address\") */\n      tag_69\n      jumpi\n      mload(0x40)\n      shl(0xe5, 0x461bcd)\n      dup2\n      mstore\n        /* \"#utility.yul\":2419:2421   */\n      0x20\n        /* \"contracts/token factory/testAlgebra.sol\":3274:3325  require(pool != address(0), \"Invalid pool address\") */\n      0x04\n      dup3\n      add\n        /* \"#utility.yul\":2401:2422   */\n      mstore\n        /* \"#utility.yul\":2458:2460   */\n      0x14\n        /* \"#utility.yul\":2438:2456   */\n      0x24\n      dup3\n      add\n        /* \"#utility.yul\":2431:2461   */\n      mstore\n      shl(0x60, 0x496e76616c696420706f6f6c2061646472657373)\n        /* \"#utility.yul\":2477:2495   */\n      0x44\n      dup3\n      add\n        /* \"#utility.yul\":2470:2520   */\n      mstore\n        /* \"#utility.yul\":2537:2555   */\n      0x64\n      add\n        /* \"contracts/token factory/testAlgebra.sol\":3274:3325  require(pool != address(0), \"Invalid pool address\") */\n      tag_67\n        /* \"#utility.yul\":2217:2561   */\n      jump\n        /* \"contracts/token factory/testAlgebra.sol\":3274:3325  require(pool != address(0), \"Invalid pool address\") */\n    tag_69:\n        /* \"contracts/token factory/testAlgebra.sol\":3352:3353  0 */\n      0x00\n        /* \"contracts/token factory/testAlgebra.sol\":3343:3349  amount */\n      dup2\n        /* \"contracts/token factory/testAlgebra.sol\":3343:3353  amount > 0 */\n      gt\n        /* \"contracts/token factory/testAlgebra.sol\":3335:3390  require(amount > 0, \"Amount must be greater than zero\") */\n      tag_72\n      jumpi\n      mload(0x40)\n      shl(0xe5, 0x461bcd)\n      dup2\n      mstore\n        /* \"#utility.yul\":2768:2770   */\n      0x20\n        /* \"contracts/token factory/testAlgebra.sol\":3335:3390  require(amount > 0, \"Amount must be greater than zero\") */\n      0x04\n      dup3\n      add\n        /* \"#utility.yul\":2750:2771   */\n      dup2\n      swap1\n      mstore\n        /* \"#utility.yul\":2787:2805   */\n      0x24\n      dup3\n      add\n        /* \"#utility.yul\":2780:2810   */\n      mstore\n        /* \"#utility.yul\":2846:2880   */\n      0x416d6f756e74206d7573742062652067726561746572207468616e207a65726f\n        /* \"#utility.yul\":2826:2844   */\n      0x44\n      dup3\n      add\n        /* \"#utility.yul\":2819:2881   */\n      mstore\n        /* \"#utility.yul\":2898:2916   */\n      0x64\n      add\n        /* \"contracts/token factory/testAlgebra.sol\":3335:3390  require(amount > 0, \"Amount must be greater than zero\") */\n      tag_67\n        /* \"#utility.yul\":2566:2922   */\n      jump\n        /* \"contracts/token factory/testAlgebra.sol\":3335:3390  require(amount > 0, \"Amount must be greater than zero\") */\n    tag_72:\n        /* \"contracts/token factory/testAlgebra.sol\":3401:3442  CustomToken(token).transfer(pool, amount) */\n      mload(0x40)\n      shl(0xe0, 0xa9059cbb)\n      dup2\n      mstore\n      sub(shl(0xa0, 0x01), 0x01)\n        /* \"#utility.yul\":3119:3151   */\n      dup4\n      dup2\n      and\n        /* \"contracts/token factory/testAlgebra.sol\":3401:3442  CustomToken(token).transfer(pool, amount) */\n      0x04\n      dup4\n      add\n        /* \"#utility.yul\":3101:3152   */\n      mstore\n        /* \"#utility.yul\":3168:3186   */\n      0x24\n      dup3\n      add\n        /* \"#utility.yul\":3161:3195   */\n      dup4\n      swap1\n      mstore\n        /* \"contracts/token factory/testAlgebra.sol\":3401:3428  CustomToken(token).transfer */\n      dup5\n      and\n      swap1\n      0xa9059cbb\n      swap1\n        /* \"#utility.yul\":3074:3092   */\n      0x44\n      add\n        /* \"contracts/token factory/testAlgebra.sol\":3401:3442  CustomToken(token).transfer(pool, amount) */\n      0x20\n      mload(0x40)\n      dup1\n      dup4\n      sub\n      dup2\n      0x00\n      dup8\n      gas\n      call\n      iszero\n      dup1\n      iszero\n      tag_78\n      jumpi\n      returndatasize\n      0x00\n      dup1\n      returndatacopy\n      revert(0x00, returndatasize)\n    tag_78:\n      pop\n      pop\n      pop\n      pop\n      mload(0x40)\n      returndatasize\n      not(0x1f)\n      0x1f\n      dup3\n      add\n      and\n      dup3\n      add\n      dup1\n      0x40\n      mstore\n      pop\n      dup2\n      add\n      swap1\n      tag_79\n      swap2\n      swap1\n      tag_80\n      jump\t// in\n    tag_79:\n      pop\n        /* \"contracts/token factory/testAlgebra.sol\":3488:3492  pool */\n      dup2\n      sub(shl(0xa0, 0x01), 0x01)\n        /* \"contracts/token factory/testAlgebra.sol\":3457:3501  TokensTransferredToPool(token, pool, amount) */\n      and\n        /* \"contracts/token factory/testAlgebra.sol\":3481:3486  token */\n      dup4\n      sub(shl(0xa0, 0x01), 0x01)\n        /* \"contracts/token factory/testAlgebra.sol\":3457:3501  TokensTransferredToPool(token, pool, amount) */\n      and\n      0x32d8ccb17edf05070e5a75f56f66402f1e3071f6104787c3ec400afbb1a0d6d1\n        /* \"contracts/token factory/testAlgebra.sol\":3494:3500  amount */\n      dup4\n        /* \"contracts/token factory/testAlgebra.sol\":3457:3501  TokensTransferredToPool(token, pool, amount) */\n      mload(0x40)\n      tag_81\n      swap2\n        /* \"#utility.yul\":3634:3659   */\n      dup2\n      mstore\n        /* \"#utility.yul\":3622:3624   */\n      0x20\n        /* \"#utility.yul\":3607:3625   */\n      add\n      swap1\n        /* \"#utility.yul\":3488:3665   */\n      jump\n        /* \"contracts/token factory/testAlgebra.sol\":3457:3501  TokensTransferredToPool(token, pool, amount) */\n    tag_81:\n      mload(0x40)\n      dup1\n      swap2\n      sub\n      swap1\n      log3\n        /* \"contracts/token factory/testAlgebra.sol\":3092:3508  function transferTokensToPool(address token, address pool, uint256 amount) external onlyOwner {... */\n      pop\n      pop\n      pop\n      jump\t// out\n        /* \"contracts/token factory/testAlgebra.sol\":2460:2848  function mintTokens(address token, address to, uint256 amount) external onlyOwner {... */\n    tag_34:\n        /* \"@openzeppelin/contracts/access/Ownable.sol\":1531:1544  _checkOwner() */\n      tag_84\n        /* \"@openzeppelin/contracts/access/Ownable.sol\":1531:1542  _checkOwner */\n      tag_63\n        /* \"@openzeppelin/contracts/access/Ownable.sol\":1531:1544  _checkOwner() */\n      jump\t// in\n    tag_84:\n        /* \"contracts/token factory/testAlgebra.sol\":2569:2575  tokenA */\n      sload(0x03)\n      sub(shl(0xa0, 0x01), 0x01)\n        /* \"contracts/token factory/testAlgebra.sol\":2560:2575  token == tokenA */\n      dup5\n      dup2\n      and\n        /* \"contracts/token factory/testAlgebra.sol\":2569:2575  tokenA */\n      swap2\n      and\n        /* \"contracts/token factory/testAlgebra.sol\":2560:2575  token == tokenA */\n      eq\n      dup1\n        /* \"contracts/token factory/testAlgebra.sol\":2560:2594  token == tokenA || token == tokenB */\n      tag_86\n      jumpi\n      pop\n        /* \"contracts/token factory/testAlgebra.sol\":2588:2594  tokenB */\n      sload(0x04)\n      sub(shl(0xa0, 0x01), 0x01)\n        /* \"contracts/token factory/testAlgebra.sol\":2579:2594  token == tokenB */\n      dup5\n      dup2\n      and\n        /* \"contracts/token factory/testAlgebra.sol\":2588:2594  tokenB */\n      swap2\n      and\n        /* \"contracts/token factory/testAlgebra.sol\":2579:2594  token == tokenB */\n      eq\n        /* \"contracts/token factory/testAlgebra.sol\":2560:2594  token == tokenA || token == tokenB */\n    tag_86:\n        /* \"contracts/token factory/testAlgebra.sol\":2552:2620  require(token == tokenA || token == tokenB, \"Invalid token address\") */\n      tag_87\n      jumpi\n      mload(0x40)\n      shl(0xe5, 0x461bcd)\n      dup2\n      mstore\n      0x04\n      add\n      tag_67\n      swap1\n      tag_68\n      jump\t// in\n    tag_87:\n      sub(shl(0xa0, 0x01), 0x01)\n        /* \"contracts/token factory/testAlgebra.sol\":2638:2654  to != address(0) */\n      dup3\n      and\n        /* \"contracts/token factory/testAlgebra.sol\":2630:2684  require(to != address(0), \"Invalid recipient address\") */\n      tag_89\n      jumpi\n      mload(0x40)\n      shl(0xe5, 0x461bcd)\n      dup2\n      mstore\n        /* \"#utility.yul\":3872:3874   */\n      0x20\n        /* \"contracts/token factory/testAlgebra.sol\":2630:2684  require(to != address(0), \"Invalid recipient address\") */\n      0x04\n      dup3\n      add\n        /* \"#utility.yul\":3854:3875   */\n      mstore\n        /* \"#utility.yul\":3911:3913   */\n      0x19\n        /* \"#utility.yul\":3891:3909   */\n      0x24\n      dup3\n      add\n        /* \"#utility.yul\":3884:3914   */\n      mstore\n        /* \"#utility.yul\":3950:3977   */\n      0x496e76616c696420726563697069656e74206164647265737300000000000000\n        /* \"#utility.yul\":3930:3948   */\n      0x44\n      dup3\n      add\n        /* \"#utility.yul\":3923:3978   */\n      mstore\n        /* \"#utility.yul\":3995:4013   */\n      0x64\n      add\n        /* \"contracts/token factory/testAlgebra.sol\":2630:2684  require(to != address(0), \"Invalid recipient address\") */\n      tag_67\n        /* \"#utility.yul\":3670:4019   */\n      jump\n        /* \"contracts/token factory/testAlgebra.sol\":2630:2684  require(to != address(0), \"Invalid recipient address\") */\n    tag_89:\n        /* \"contracts/token factory/testAlgebra.sol\":2711:2712  0 */\n      0x00\n        /* \"contracts/token factory/testAlgebra.sol\":2702:2708  amount */\n      dup2\n        /* \"contracts/token factory/testAlgebra.sol\":2702:2712  amount > 0 */\n      gt\n        /* \"contracts/token factory/testAlgebra.sol\":2694:2749  require(amount > 0, \"Amount must be greater than zero\") */\n      tag_92\n      jumpi\n      mload(0x40)\n      shl(0xe5, 0x461bcd)\n      dup2\n      mstore\n        /* \"#utility.yul\":2768:2770   */\n      0x20\n        /* \"contracts/token factory/testAlgebra.sol\":2694:2749  require(amount > 0, \"Amount must be greater than zero\") */\n      0x04\n      dup3\n      add\n        /* \"#utility.yul\":2750:2771   */\n      dup2\n      swap1\n      mstore\n        /* \"#utility.yul\":2787:2805   */\n      0x24\n      dup3\n      add\n        /* \"#utility.yul\":2780:2810   */\n      mstore\n        /* \"#utility.yul\":2846:2880   */\n      0x416d6f756e74206d7573742062652067726561746572207468616e207a65726f\n        /* \"#utility.yul\":2826:2844   */\n      0x44\n      dup3\n      add\n        /* \"#utility.yul\":2819:2881   */\n      mstore\n        /* \"#utility.yul\":2898:2916   */\n      0x64\n      add\n        /* \"contracts/token factory/testAlgebra.sol\":2694:2749  require(amount > 0, \"Amount must be greater than zero\") */\n      tag_67\n        /* \"#utility.yul\":2566:2922   */\n      jump\n        /* \"contracts/token factory/testAlgebra.sol\":2694:2749  require(amount > 0, \"Amount must be greater than zero\") */\n    tag_92:\n        /* \"contracts/token factory/testAlgebra.sol\":2760:2795  CustomToken(token).mint(to, amount) */\n      mload(0x40)\n      shl(0xe0, 0x40c10f19)\n      dup2\n      mstore\n      sub(shl(0xa0, 0x01), 0x01)\n        /* \"#utility.yul\":3119:3151   */\n      dup4\n      dup2\n      and\n        /* \"contracts/token factory/testAlgebra.sol\":2760:2795  CustomToken(token).mint(to, amount) */\n      0x04\n      dup4\n      add\n        /* \"#utility.yul\":3101:3152   */\n      mstore\n        /* \"#utility.yul\":3168:3186   */\n      0x24\n      dup3\n      add\n        /* \"#utility.yul\":3161:3195   */\n      dup4\n      swap1\n      mstore\n        /* \"contracts/token factory/testAlgebra.sol\":2760:2783  CustomToken(token).mint */\n      dup5\n      and\n      swap1\n      0x40c10f19\n      swap1\n        /* \"#utility.yul\":3074:3092   */\n      0x44\n      add\n        /* \"contracts/token factory/testAlgebra.sol\":2760:2795  CustomToken(token).mint(to, amount) */\n      0x00\n      mload(0x40)\n      dup1\n      dup4\n      sub\n      dup2\n      0x00\n      dup8\n      dup1\n      extcodesize\n      iszero\n      dup1\n      iszero\n      tag_95\n      jumpi\n      0x00\n      dup1\n      revert\n    tag_95:\n      pop\n      gas\n      call\n      iszero\n      dup1\n      iszero\n      tag_97\n      jumpi\n      returndatasize\n      0x00\n      dup1\n      returndatacopy\n      revert(0x00, returndatasize)\n    tag_97:\n      pop\n      pop\n      pop\n      pop\n        /* \"contracts/token factory/testAlgebra.sol\":2830:2832  to */\n      dup2\n      sub(shl(0xa0, 0x01), 0x01)\n        /* \"contracts/token factory/testAlgebra.sol\":2810:2841  TokensMinted(token, to, amount) */\n      and\n        /* \"contracts/token factory/testAlgebra.sol\":2823:2828  token */\n      dup4\n      sub(shl(0xa0, 0x01), 0x01)\n        /* \"contracts/token factory/testAlgebra.sol\":2810:2841  TokensMinted(token, to, amount) */\n      and\n      0xbf67ec129007be07f346d9d2933215293a6612ce7ff17d6b479a5a5cae72890c\n        /* \"contracts/token factory/testAlgebra.sol\":2834:2840  amount */\n      dup4\n        /* \"contracts/token factory/testAlgebra.sol\":2810:2841  TokensMinted(token, to, amount) */\n      mload(0x40)\n      tag_81\n      swap2\n        /* \"#utility.yul\":3634:3659   */\n      dup2\n      mstore\n        /* \"#utility.yul\":3622:3624   */\n      0x20\n        /* \"#utility.yul\":3607:3625   */\n      add\n      swap1\n        /* \"#utility.yul\":3488:3665   */\n      jump\n        /* \"@openzeppelin/contracts/access/Ownable.sol\":2293:2394  function renounceOwnership() public virtual onlyOwner {... */\n    tag_36:\n        /* \"@openzeppelin/contracts/access/Ownable.sol\":1531:1544  _checkOwner() */\n      tag_100\n        /* \"@openzeppelin/contracts/access/Ownable.sol\":1531:1542  _checkOwner */\n      tag_63\n        /* \"@openzeppelin/contracts/access/Ownable.sol\":1531:1544  _checkOwner() */\n      jump\t// in\n    tag_100:\n        /* \"@openzeppelin/contracts/access/Ownable.sol\":2357:2387  _transferOwnership(address(0)) */\n      tag_102\n        /* \"@openzeppelin/contracts/access/Ownable.sol\":2384:2385  0 */\n      0x00\n        /* \"@openzeppelin/contracts/access/Ownable.sol\":2357:2375  _transferOwnership */\n      tag_103\n        /* \"@openzeppelin/contracts/access/Ownable.sol\":2357:2387  _transferOwnership(address(0)) */\n      jump\t// in\n    tag_102:\n        /* \"@openzeppelin/contracts/access/Ownable.sol\":2293:2394  function renounceOwnership() public virtual onlyOwner {... */\n      jump\t// out\n        /* \"contracts/token factory/testAlgebra.sol\":1687:2204  function createPool() external onlyOwner {... */\n    tag_41:\n        /* \"@openzeppelin/contracts/access/Ownable.sol\":1531:1544  _checkOwner() */\n      tag_106\n        /* \"@openzeppelin/contracts/access/Ownable.sol\":1531:1542  _checkOwner */\n      tag_63\n        /* \"@openzeppelin/contracts/access/Ownable.sol\":1531:1544  _checkOwner() */\n      jump\t// in\n    tag_106:\n      0x00\n      dup1\n      mload\n      0x20\n      data_cd3c33721f956e41cd7226e4ec1d7a9afed0f88a83c3caea27c8ce3f8c1bdbbc\n      dup4\n      codecopy\n      dup2\n      mload\n      swap2\n      mstore\n        /* \"contracts/token factory/testAlgebra.sol\":1743:1778  DebugStep(\"Starting pool creation\") */\n      mload(0x40)\n      tag_108\n      swap1\n        /* \"#utility.yul\":4226:4228   */\n      0x20\n        /* \"#utility.yul\":4208:4229   */\n      dup1\n      dup3\n      mstore\n        /* \"#utility.yul\":4265:4267   */\n      0x16\n        /* \"#utility.yul\":4245:4263   */\n      swap1\n      dup3\n      add\n        /* \"#utility.yul\":4238:4268   */\n      mstore\n      shl(0x51, 0x29ba30b93a34b733903837b7b61031b932b0ba34b7b7)\n        /* \"#utility.yul\":4299:4301   */\n      0x40\n        /* \"#utility.yul\":4284:4302   */\n      dup3\n      add\n        /* \"#utility.yul\":4277:4329   */\n      mstore\n        /* \"#utility.yul\":4361:4363   */\n      0x60\n        /* \"#utility.yul\":4346:4364   */\n      add\n      swap1\n        /* \"#utility.yul\":4024:4370   */\n      jump\n        /* \"contracts/token factory/testAlgebra.sol\":1743:1778  DebugStep(\"Starting pool creation\") */\n    tag_108:\n      mload(0x40)\n      dup1\n      swap2\n      sub\n      swap1\n      log1\n        /* \"contracts/token factory/testAlgebra.sol\":1796:1802  tokenA */\n      and(sub(shl(0xa0, 0x01), 0x01), sload(0x03))\n        /* \"contracts/token factory/testAlgebra.sol\":1796:1816  tokenA != address(0) */\n      iszero\n      dup1\n      iszero\n      swap1\n        /* \"contracts/token factory/testAlgebra.sol\":1796:1840  tokenA != address(0) && tokenB != address(0) */\n      tag_110\n      jumpi\n      pop\n        /* \"contracts/token factory/testAlgebra.sol\":1820:1826  tokenB */\n      and(sub(shl(0xa0, 0x01), 0x01), sload(0x04))\n        /* \"contracts/token factory/testAlgebra.sol\":1820:1840  tokenB != address(0) */\n      iszero\n      iszero\n        /* \"contracts/token factory/testAlgebra.sol\":1796:1840  tokenA != address(0) && tokenB != address(0) */\n    tag_110:\n        /* \"contracts/token factory/testAlgebra.sol\":1788:1871  require(tokenA != address(0) && tokenB != address(0), \"Tokens must be initialized\") */\n      tag_111\n      jumpi\n      mload(0x40)\n      shl(0xe5, 0x461bcd)\n      dup2\n      mstore\n        /* \"#utility.yul\":4577:4579   */\n      0x20\n        /* \"contracts/token factory/testAlgebra.sol\":1788:1871  require(tokenA != address(0) && tokenB != address(0), \"Tokens must be initialized\") */\n      0x04\n      dup3\n      add\n        /* \"#utility.yul\":4559:4580   */\n      mstore\n        /* \"#utility.yul\":4616:4618   */\n      0x1a\n        /* \"#utility.yul\":4596:4614   */\n      0x24\n      dup3\n      add\n        /* \"#utility.yul\":4589:4619   */\n      mstore\n        /* \"#utility.yul\":4655:4683   */\n      0x546f6b656e73206d75737420626520696e697469616c697a6564000000000000\n        /* \"#utility.yul\":4635:4653   */\n      0x44\n      dup3\n      add\n        /* \"#utility.yul\":4628:4684   */\n      mstore\n        /* \"#utility.yul\":4701:4719   */\n      0x64\n      add\n        /* \"contracts/token factory/testAlgebra.sol\":1788:1871  require(tokenA != address(0) && tokenB != address(0), \"Tokens must be initialized\") */\n      tag_67\n        /* \"#utility.yul\":4375:4725   */\n      jump\n        /* \"contracts/token factory/testAlgebra.sol\":1788:1871  require(tokenA != address(0) && tokenB != address(0), \"Tokens must be initialized\") */\n    tag_111:\n        /* \"contracts/token factory/testAlgebra.sol\":1899:1905  tokenB */\n      sload(0x04)\n        /* \"contracts/token factory/testAlgebra.sol\":1889:1895  tokenA */\n      sload(0x03)\n      sub(shl(0xa0, 0x01), 0x01)\n        /* \"contracts/token factory/testAlgebra.sol\":1899:1905  tokenB */\n      swap2\n      dup3\n      and\n        /* \"contracts/token factory/testAlgebra.sol\":1889:1895  tokenA */\n      swap2\n      and\n        /* \"contracts/token factory/testAlgebra.sol\":1889:1905  tokenA != tokenB */\n      sub\n        /* \"contracts/token factory/testAlgebra.sol\":1881:1934  require(tokenA != tokenB, \"Tokens must be different\") */\n      tag_114\n      jumpi\n      mload(0x40)\n      shl(0xe5, 0x461bcd)\n      dup2\n      mstore\n        /* \"#utility.yul\":4932:4934   */\n      0x20\n        /* \"contracts/token factory/testAlgebra.sol\":1881:1934  require(tokenA != tokenB, \"Tokens must be different\") */\n      0x04\n      dup3\n      add\n        /* \"#utility.yul\":4914:4935   */\n      mstore\n        /* \"#utility.yul\":4971:4973   */\n      0x18\n        /* \"#utility.yul\":4951:4969   */\n      0x24\n      dup3\n      add\n        /* \"#utility.yul\":4944:4974   */\n      mstore\n      shl(0x42, 0x151bdad95b9cc81b5d5cdd08189948191a5999995c995b9d)\n        /* \"#utility.yul\":4990:5008   */\n      0x44\n      dup3\n      add\n        /* \"#utility.yul\":4983:5037   */\n      mstore\n        /* \"#utility.yul\":5054:5072   */\n      0x64\n      add\n        /* \"contracts/token factory/testAlgebra.sol\":1881:1934  require(tokenA != tokenB, \"Tokens must be different\") */\n      tag_67\n        /* \"#utility.yul\":4730:5078   */\n      jump\n        /* \"contracts/token factory/testAlgebra.sol\":1881:1934  require(tokenA != tokenB, \"Tokens must be different\") */\n    tag_114:\n        /* \"contracts/token factory/testAlgebra.sol\":1987:2001  algebraFactory */\n      sload(0x01)\n        /* \"contracts/token factory/testAlgebra.sol\":2049:2055  tokenA */\n      sload(0x03)\n        /* \"contracts/token factory/testAlgebra.sol\":2057:2063  tokenB */\n      0x04\n      dup1\n      sload\n        /* \"contracts/token factory/testAlgebra.sol\":2030:2064  factory.createPool(tokenA, tokenB) */\n      mload(0x40)\n      shl(0xe0, 0xe3433615)\n      dup2\n      mstore\n      sub(shl(0xa0, 0x01), 0x01)\n        /* \"contracts/token factory/testAlgebra.sol\":2049:2055  tokenA */\n      swap4\n      dup5\n      and\n        /* \"contracts/token factory/testAlgebra.sol\":2030:2064  factory.createPool(tokenA, tokenB) */\n      swap3\n      dup2\n      add\n        /* \"#utility.yul\":5257:5308   */\n      swap3\n      swap1\n      swap3\n      mstore\n        /* \"contracts/token factory/testAlgebra.sol\":2057:2063  tokenB */\n      dup3\n      and\n        /* \"#utility.yul\":5324:5342   */\n      0x24\n      dup3\n      add\n        /* \"#utility.yul\":5317:5377   */\n      mstore\n        /* \"contracts/token factory/testAlgebra.sol\":1987:2001  algebraFactory */\n      swap2\n      and\n      swap1\n      dup2\n      swap1\n        /* \"contracts/token factory/testAlgebra.sol\":2030:2048  factory.createPool */\n      0xe3433615\n      swap1\n        /* \"#utility.yul\":5230:5248   */\n      0x44\n      add\n        /* \"contracts/token factory/testAlgebra.sol\":2030:2064  factory.createPool(tokenA, tokenB) */\n      0x20\n      mload(0x40)\n      dup1\n      dup4\n      sub\n      dup2\n      0x00\n      dup8\n      gas\n      call\n      iszero\n      dup1\n      iszero\n      tag_120\n      jumpi\n      returndatasize\n      0x00\n      dup1\n      returndatacopy\n      revert(0x00, returndatasize)\n    tag_120:\n      pop\n      pop\n      pop\n      pop\n      mload(0x40)\n      returndatasize\n      not(0x1f)\n      0x1f\n      dup3\n      add\n      and\n      dup3\n      add\n      dup1\n      0x40\n      mstore\n      pop\n      dup2\n      add\n      swap1\n      tag_121\n      swap2\n      swap1\n      tag_122\n      jump\t// in\n    tag_121:\n        /* \"contracts/token factory/testAlgebra.sol\":2012:2027  lastCreatedPool */\n      0x02\n        /* \"contracts/token factory/testAlgebra.sol\":2012:2064  lastCreatedPool = factory.createPool(tokenA, tokenB) */\n      dup1\n      sload\n      not(sub(shl(0xa0, 0x01), 0x01))\n      and\n      sub(shl(0xa0, 0x01), 0x01)\n      swap3\n      swap1\n      swap3\n      and\n      swap2\n      dup3\n      or\n      swap1\n      sstore\n        /* \"contracts/token factory/testAlgebra.sol\":2075:2138  require(lastCreatedPool != address(0), \"Failed to create pool\") */\n      tag_123\n      jumpi\n      mload(0x40)\n      shl(0xe5, 0x461bcd)\n      dup2\n      mstore\n        /* \"#utility.yul\":5846:5848   */\n      0x20\n        /* \"contracts/token factory/testAlgebra.sol\":2075:2138  require(lastCreatedPool != address(0), \"Failed to create pool\") */\n      0x04\n      dup3\n      add\n        /* \"#utility.yul\":5828:5849   */\n      mstore\n        /* \"#utility.yul\":5885:5887   */\n      0x15\n        /* \"#utility.yul\":5865:5883   */\n      0x24\n      dup3\n      add\n        /* \"#utility.yul\":5858:5888   */\n      mstore\n      shl(0x5a, 0x11985a5b1959081d1bc818dc99585d19481c1bdbdb)\n        /* \"#utility.yul\":5904:5922   */\n      0x44\n      dup3\n      add\n        /* \"#utility.yul\":5897:5948   */\n      mstore\n        /* \"#utility.yul\":5965:5983   */\n      0x64\n      add\n        /* \"contracts/token factory/testAlgebra.sol\":2075:2138  require(lastCreatedPool != address(0), \"Failed to create pool\") */\n      tag_67\n        /* \"#utility.yul\":5644:5989   */\n      jump\n        /* \"contracts/token factory/testAlgebra.sol\":2075:2138  require(lastCreatedPool != address(0), \"Failed to create pool\") */\n    tag_123:\n        /* \"contracts/token factory/testAlgebra.sol\":2173:2179  tokenB */\n      sload(0x04)\n        /* \"contracts/token factory/testAlgebra.sol\":2165:2171  tokenA */\n      sload(0x03)\n        /* \"contracts/token factory/testAlgebra.sol\":2181:2196  lastCreatedPool */\n      sload(0x02)\n        /* \"contracts/token factory/testAlgebra.sol\":2153:2197  PoolCreated(tokenA, tokenB, lastCreatedPool) */\n      mload(0x40)\n      sub(shl(0xa0, 0x01), 0x01)\n        /* \"contracts/token factory/testAlgebra.sol\":2181:2196  lastCreatedPool */\n      swap2\n      dup3\n      and\n        /* \"#utility.yul\":160:211   */\n      dup2\n      mstore\n        /* \"contracts/token factory/testAlgebra.sol\":2173:2179  tokenB */\n      swap3\n      dup2\n      and\n      swap3\n        /* \"contracts/token factory/testAlgebra.sol\":2165:2171  tokenA */\n      swap2\n      and\n      swap1\n        /* \"contracts/token factory/testAlgebra.sol\":2153:2197  PoolCreated(tokenA, tokenB, lastCreatedPool) */\n      0x9c5d829b9b23efc461f9aeef91979ec04bb903feb3bee4f26d22114abfc7335b\n      swap1\n        /* \"#utility.yul\":148:150   */\n      0x20\n        /* \"#utility.yul\":133:151   */\n      add\n        /* \"contracts/token factory/testAlgebra.sol\":2153:2197  PoolCreated(tokenA, tokenB, lastCreatedPool) */\n      mload(0x40)\n      dup1\n      swap2\n      sub\n      swap1\n      log3\n        /* \"contracts/token factory/testAlgebra.sol\":1728:2204  {... */\n      pop\n        /* \"contracts/token factory/testAlgebra.sol\":1687:2204  function createPool() external onlyOwner {... */\n      jump\t// out\n        /* \"contracts/token factory/testAlgebra.sol\":3687:4483  function addLiquidity(uint256 tokenAAmount, uint256 tokenBAmount) external onlyOwner {... */\n    tag_45:\n        /* \"@openzeppelin/contracts/access/Ownable.sol\":1531:1544  _checkOwner() */\n      tag_128\n        /* \"@openzeppelin/contracts/access/Ownable.sol\":1531:1542  _checkOwner */\n      tag_63\n        /* \"@openzeppelin/contracts/access/Ownable.sol\":1531:1544  _checkOwner() */\n      jump\t// in\n    tag_128:\n      0x00\n      dup1\n      mload\n      0x20\n      data_cd3c33721f956e41cd7226e4ec1d7a9afed0f88a83c3caea27c8ce3f8c1bdbbc\n      dup4\n      codecopy\n      dup2\n      mload\n      swap2\n      mstore\n        /* \"contracts/token factory/testAlgebra.sol\":3787:3827  DebugStep(\"Starting liquidity addition\") */\n      mload(0x40)\n      tag_130\n      swap1\n        /* \"#utility.yul\":6196:6198   */\n      0x20\n        /* \"#utility.yul\":6178:6199   */\n      dup1\n      dup3\n      mstore\n        /* \"#utility.yul\":6235:6237   */\n      0x1b\n        /* \"#utility.yul\":6215:6233   */\n      swap1\n      dup3\n      add\n        /* \"#utility.yul\":6208:6238   */\n      mstore\n        /* \"#utility.yul\":6274:6303   */\n      0x5374617274696e67206c6971756964697479206164646974696f6e0000000000\n        /* \"#utility.yul\":6269:6271   */\n      0x40\n        /* \"#utility.yul\":6254:6272   */\n      dup3\n      add\n        /* \"#utility.yul\":6247:6304   */\n      mstore\n        /* \"#utility.yul\":6336:6338   */\n      0x60\n        /* \"#utility.yul\":6321:6339   */\n      add\n      swap1\n        /* \"#utility.yul\":5994:6345   */\n      jump\n        /* \"contracts/token factory/testAlgebra.sol\":3787:3827  DebugStep(\"Starting liquidity addition\") */\n    tag_130:\n      mload(0x40)\n      dup1\n      swap2\n      sub\n      swap1\n      log1\n        /* \"contracts/token factory/testAlgebra.sol\":3845:3860  lastCreatedPool */\n      and(sub(shl(0xa0, 0x01), 0x01), sload(0x02))\n        /* \"contracts/token factory/testAlgebra.sol\":3837:3894  require(lastCreatedPool != address(0), \"No pool created\") */\n      tag_132\n      jumpi\n      mload(0x40)\n      shl(0xe5, 0x461bcd)\n      dup2\n      mstore\n        /* \"#utility.yul\":6552:6554   */\n      0x20\n        /* \"contracts/token factory/testAlgebra.sol\":3837:3894  require(lastCreatedPool != address(0), \"No pool created\") */\n      0x04\n      dup3\n      add\n        /* \"#utility.yul\":6534:6555   */\n      mstore\n        /* \"#utility.yul\":6591:6593   */\n      0x0f\n        /* \"#utility.yul\":6571:6589   */\n      0x24\n      dup3\n      add\n        /* \"#utility.yul\":6564:6594   */\n      mstore\n      shl(0x8a, 0x139bc81c1bdbdb0818dc99585d1959)\n        /* \"#utility.yul\":6610:6628   */\n      0x44\n      dup3\n      add\n        /* \"#utility.yul\":6603:6648   */\n      mstore\n        /* \"#utility.yul\":6665:6683   */\n      0x64\n      add\n        /* \"contracts/token factory/testAlgebra.sol\":3837:3894  require(lastCreatedPool != address(0), \"No pool created\") */\n      tag_67\n        /* \"#utility.yul\":6350:6689   */\n      jump\n        /* \"contracts/token factory/testAlgebra.sol\":3837:3894  require(lastCreatedPool != address(0), \"No pool created\") */\n    tag_132:\n        /* \"contracts/token factory/testAlgebra.sol\":3927:3928  0 */\n      0x00\n        /* \"contracts/token factory/testAlgebra.sol\":3912:3924  tokenAAmount */\n      dup3\n        /* \"contracts/token factory/testAlgebra.sol\":3912:3928  tokenAAmount > 0 */\n      gt\n        /* \"contracts/token factory/testAlgebra.sol\":3912:3948  tokenAAmount > 0 && tokenBAmount > 0 */\n      dup1\n      iszero\n      tag_135\n      jumpi\n      pop\n        /* \"contracts/token factory/testAlgebra.sol\":3947:3948  0 */\n      0x00\n        /* \"contracts/token factory/testAlgebra.sol\":3932:3944  tokenBAmount */\n      dup2\n        /* \"contracts/token factory/testAlgebra.sol\":3932:3948  tokenBAmount > 0 */\n      gt\n        /* \"contracts/token factory/testAlgebra.sol\":3912:3948  tokenAAmount > 0 && tokenBAmount > 0 */\n    tag_135:\n        /* \"contracts/token factory/testAlgebra.sol\":3904:3992  require(tokenAAmount > 0 && tokenBAmount > 0, \"Token amounts must be greater than zero\") */\n      tag_136\n      jumpi\n      mload(0x40)\n      shl(0xe5, 0x461bcd)\n      dup2\n      mstore\n        /* \"#utility.yul\":6896:6898   */\n      0x20\n        /* \"contracts/token factory/testAlgebra.sol\":3904:3992  require(tokenAAmount > 0 && tokenBAmount > 0, \"Token amounts must be greater than zero\") */\n      0x04\n      dup3\n      add\n        /* \"#utility.yul\":6878:6899   */\n      mstore\n        /* \"#utility.yul\":6935:6937   */\n      0x27\n        /* \"#utility.yul\":6915:6933   */\n      0x24\n      dup3\n      add\n        /* \"#utility.yul\":6908:6938   */\n      mstore\n        /* \"#utility.yul\":6974:7008   */\n      0x546f6b656e20616d6f756e7473206d7573742062652067726561746572207468\n        /* \"#utility.yul\":6954:6972   */\n      0x44\n      dup3\n      add\n        /* \"#utility.yul\":6947:7009   */\n      mstore\n      shl(0xc8, 0x616e207a65726f)\n        /* \"#utility.yul\":7025:7043   */\n      0x64\n      dup3\n      add\n        /* \"#utility.yul\":7018:7055   */\n      mstore\n        /* \"#utility.yul\":7072:7091   */\n      0x84\n      add\n        /* \"contracts/token factory/testAlgebra.sol\":3904:3992  require(tokenAAmount > 0 && tokenBAmount > 0, \"Token amounts must be greater than zero\") */\n      tag_67\n        /* \"#utility.yul\":6694:7097   */\n      jump\n        /* \"contracts/token factory/testAlgebra.sol\":3904:3992  require(tokenAAmount > 0 && tokenBAmount > 0, \"Token amounts must be greater than zero\") */\n    tag_136:\n        /* \"contracts/token factory/testAlgebra.sol\":4070:4076  tokenA */\n      sload(0x03)\n        /* \"contracts/token factory/testAlgebra.sol\":4087:4102  lastCreatedPool */\n      sload(0x02)\n        /* \"contracts/token factory/testAlgebra.sol\":4058:4117  CustomToken(tokenA).transfer(lastCreatedPool, tokenAAmount) */\n      mload(0x40)\n      shl(0xe0, 0xa9059cbb)\n      dup2\n      mstore\n      sub(shl(0xa0, 0x01), 0x01)\n        /* \"contracts/token factory/testAlgebra.sol\":4087:4102  lastCreatedPool */\n      swap2\n      dup3\n      and\n        /* \"contracts/token factory/testAlgebra.sol\":4058:4117  CustomToken(tokenA).transfer(lastCreatedPool, tokenAAmount) */\n      0x04\n      dup3\n      add\n        /* \"#utility.yul\":3101:3152   */\n      mstore\n        /* \"#utility.yul\":3168:3186   */\n      0x24\n      dup2\n      add\n        /* \"#utility.yul\":3161:3195   */\n      dup6\n      swap1\n      mstore\n        /* \"contracts/token factory/testAlgebra.sol\":4042:4055  bool successA */\n      0x00\n      swap3\n        /* \"contracts/token factory/testAlgebra.sol\":4070:4076  tokenA */\n      swap2\n      swap1\n      swap2\n      and\n      swap1\n        /* \"contracts/token factory/testAlgebra.sol\":4058:4086  CustomToken(tokenA).transfer */\n      0xa9059cbb\n      swap1\n        /* \"#utility.yul\":3074:3092   */\n      0x44\n      add\n        /* \"contracts/token factory/testAlgebra.sol\":4058:4117  CustomToken(tokenA).transfer(lastCreatedPool, tokenAAmount) */\n      0x20\n      mload(0x40)\n      dup1\n      dup4\n      sub\n      dup2\n      0x00\n      dup8\n      gas\n      call\n      iszero\n      dup1\n      iszero\n      tag_141\n      jumpi\n      returndatasize\n      0x00\n      dup1\n      returndatacopy\n      revert(0x00, returndatasize)\n    tag_141:\n      pop\n      pop\n      pop\n      pop\n      mload(0x40)\n      returndatasize\n      not(0x1f)\n      0x1f\n      dup3\n      add\n      and\n      dup3\n      add\n      dup1\n      0x40\n      mstore\n      pop\n      dup2\n      add\n      swap1\n      tag_142\n      swap2\n      swap1\n      tag_80\n      jump\t// in\n    tag_142:\n        /* \"contracts/token factory/testAlgebra.sol\":4042:4117  bool successA = CustomToken(tokenA).transfer(lastCreatedPool, tokenAAmount) */\n      swap1\n      pop\n        /* \"contracts/token factory/testAlgebra.sol\":4135:4143  successA */\n      dup1\n        /* \"contracts/token factory/testAlgebra.sol\":4127:4170  require(successA, \"TokenA transfer failed\") */\n      tag_143\n      jumpi\n      mload(0x40)\n      shl(0xe5, 0x461bcd)\n      dup2\n      mstore\n        /* \"#utility.yul\":7304:7306   */\n      0x20\n        /* \"contracts/token factory/testAlgebra.sol\":4127:4170  require(successA, \"TokenA transfer failed\") */\n      0x04\n      dup3\n      add\n        /* \"#utility.yul\":7286:7307   */\n      mstore\n        /* \"#utility.yul\":7343:7345   */\n      0x16\n        /* \"#utility.yul\":7323:7341   */\n      0x24\n      dup3\n      add\n        /* \"#utility.yul\":7316:7346   */\n      mstore\n      shl(0x52, 0x151bdad95b90481d1c985b9cd9995c8819985a5b1959)\n        /* \"#utility.yul\":7362:7380   */\n      0x44\n      dup3\n      add\n        /* \"#utility.yul\":7355:7407   */\n      mstore\n        /* \"#utility.yul\":7424:7442   */\n      0x64\n      add\n        /* \"contracts/token factory/testAlgebra.sol\":4127:4170  require(successA, \"TokenA transfer failed\") */\n      tag_67\n        /* \"#utility.yul\":7102:7448   */\n      jump\n        /* \"contracts/token factory/testAlgebra.sol\":4127:4170  require(successA, \"TokenA transfer failed\") */\n    tag_143:\n      0x00\n      dup1\n      mload\n      0x20\n      data_cd3c33721f956e41cd7226e4ec1d7a9afed0f88a83c3caea27c8ce3f8c1bdbbc\n      dup4\n      codecopy\n      dup2\n      mload\n      swap2\n      mstore\n        /* \"contracts/token factory/testAlgebra.sol\":4185:4216  DebugStep(\"TokenA transferred\") */\n      mload(0x40)\n      tag_146\n      swap1\n        /* \"#utility.yul\":7655:7657   */\n      0x20\n        /* \"#utility.yul\":7637:7658   */\n      dup1\n      dup3\n      mstore\n        /* \"#utility.yul\":7694:7696   */\n      0x12\n        /* \"#utility.yul\":7674:7692   */\n      swap1\n      dup3\n      add\n        /* \"#utility.yul\":7667:7697   */\n      mstore\n      shl(0x72, 0x151bdad95b90481d1c985b9cd9995c9c9959)\n        /* \"#utility.yul\":7728:7730   */\n      0x40\n        /* \"#utility.yul\":7713:7731   */\n      dup3\n      add\n        /* \"#utility.yul\":7706:7754   */\n      mstore\n        /* \"#utility.yul\":7786:7788   */\n      0x60\n        /* \"#utility.yul\":7771:7789   */\n      add\n      swap1\n        /* \"#utility.yul\":7453:7795   */\n      jump\n        /* \"contracts/token factory/testAlgebra.sol\":4185:4216  DebugStep(\"TokenA transferred\") */\n    tag_146:\n      mload(0x40)\n      dup1\n      swap2\n      sub\n      swap1\n      log1\n        /* \"contracts/token factory/testAlgebra.sol\":4255:4261  tokenB */\n      0x04\n      dup1\n      sload\n        /* \"contracts/token factory/testAlgebra.sol\":4272:4287  lastCreatedPool */\n      sload(0x02)\n        /* \"contracts/token factory/testAlgebra.sol\":4243:4302  CustomToken(tokenB).transfer(lastCreatedPool, tokenBAmount) */\n      mload(0x40)\n      shl(0xe0, 0xa9059cbb)\n      dup2\n      mstore\n      sub(shl(0xa0, 0x01), 0x01)\n        /* \"contracts/token factory/testAlgebra.sol\":4272:4287  lastCreatedPool */\n      swap2\n      dup3\n      and\n        /* \"contracts/token factory/testAlgebra.sol\":4243:4302  CustomToken(tokenB).transfer(lastCreatedPool, tokenBAmount) */\n      swap4\n      dup2\n      add\n        /* \"#utility.yul\":3101:3152   */\n      swap4\n      swap1\n      swap4\n      mstore\n        /* \"#utility.yul\":3168:3186   */\n      0x24\n      dup4\n      add\n        /* \"#utility.yul\":3161:3195   */\n      dup6\n      swap1\n      mstore\n        /* \"contracts/token factory/testAlgebra.sol\":4227:4240  bool successB */\n      0x00\n      swap3\n        /* \"contracts/token factory/testAlgebra.sol\":4255:4261  tokenB */\n      swap2\n      and\n      swap1\n        /* \"contracts/token factory/testAlgebra.sol\":4243:4271  CustomToken(tokenB).transfer */\n      0xa9059cbb\n      swap1\n        /* \"#utility.yul\":3074:3092   */\n      0x44\n      add\n        /* \"contracts/token factory/testAlgebra.sol\":4243:4302  CustomToken(tokenB).transfer(lastCreatedPool, tokenBAmount) */\n      0x20\n      mload(0x40)\n      dup1\n      dup4\n      sub\n      dup2\n      0x00\n      dup8\n      gas\n      call\n      iszero\n      dup1\n      iszero\n      tag_150\n      jumpi\n      returndatasize\n      0x00\n      dup1\n      returndatacopy\n      revert(0x00, returndatasize)\n    tag_150:\n      pop\n      pop\n      pop\n      pop\n      mload(0x40)\n      returndatasize\n      not(0x1f)\n      0x1f\n      dup3\n      add\n      and\n      dup3\n      add\n      dup1\n      0x40\n      mstore\n      pop\n      dup2\n      add\n      swap1\n      tag_151\n      swap2\n      swap1\n      tag_80\n      jump\t// in\n    tag_151:\n        /* \"contracts/token factory/testAlgebra.sol\":4227:4302  bool successB = CustomToken(tokenB).transfer(lastCreatedPool, tokenBAmount) */\n      swap1\n      pop\n        /* \"contracts/token factory/testAlgebra.sol\":4320:4328  successB */\n      dup1\n        /* \"contracts/token factory/testAlgebra.sol\":4312:4355  require(successB, \"TokenB transfer failed\") */\n      tag_152\n      jumpi\n      mload(0x40)\n      shl(0xe5, 0x461bcd)\n      dup2\n      mstore\n        /* \"#utility.yul\":8002:8004   */\n      0x20\n        /* \"contracts/token factory/testAlgebra.sol\":4312:4355  require(successB, \"TokenB transfer failed\") */\n      0x04\n      dup3\n      add\n        /* \"#utility.yul\":7984:8005   */\n      mstore\n        /* \"#utility.yul\":8041:8043   */\n      0x16\n        /* \"#utility.yul\":8021:8039   */\n      0x24\n      dup3\n      add\n        /* \"#utility.yul\":8014:8044   */\n      mstore\n      shl(0x52, 0x151bdad95b90881d1c985b9cd9995c8819985a5b1959)\n        /* \"#utility.yul\":8060:8078   */\n      0x44\n      dup3\n      add\n        /* \"#utility.yul\":8053:8105   */\n      mstore\n        /* \"#utility.yul\":8122:8140   */\n      0x64\n      add\n        /* \"contracts/token factory/testAlgebra.sol\":4312:4355  require(successB, \"TokenB transfer failed\") */\n      tag_67\n        /* \"#utility.yul\":7800:8146   */\n      jump\n        /* \"contracts/token factory/testAlgebra.sol\":4312:4355  require(successB, \"TokenB transfer failed\") */\n    tag_152:\n      0x00\n      dup1\n      mload\n      0x20\n      data_cd3c33721f956e41cd7226e4ec1d7a9afed0f88a83c3caea27c8ce3f8c1bdbbc\n      dup4\n      codecopy\n      dup2\n      mload\n      swap2\n      mstore\n        /* \"contracts/token factory/testAlgebra.sol\":4370:4401  DebugStep(\"TokenB transferred\") */\n      mload(0x40)\n      tag_155\n      swap1\n        /* \"#utility.yul\":8353:8355   */\n      0x20\n        /* \"#utility.yul\":8335:8356   */\n      dup1\n      dup3\n      mstore\n        /* \"#utility.yul\":8392:8394   */\n      0x12\n        /* \"#utility.yul\":8372:8390   */\n      swap1\n      dup3\n      add\n        /* \"#utility.yul\":8365:8395   */\n      mstore\n      shl(0x72, 0x151bdad95b90881d1c985b9cd9995c9c9959)\n        /* \"#utility.yul\":8426:8428   */\n      0x40\n        /* \"#utility.yul\":8411:8429   */\n      dup3\n      add\n        /* \"#utility.yul\":8404:8452   */\n      mstore\n        /* \"#utility.yul\":8484:8486   */\n      0x60\n        /* \"#utility.yul\":8469:8487   */\n      add\n      swap1\n        /* \"#utility.yul\":8151:8493   */\n      jump\n        /* \"contracts/token factory/testAlgebra.sol\":4370:4401  DebugStep(\"TokenB transferred\") */\n    tag_155:\n      mload(0x40)\n      dup1\n      swap2\n      sub\n      swap1\n      log1\n        /* \"contracts/token factory/testAlgebra.sol\":4432:4447  lastCreatedPool */\n      sload(0x02)\n        /* \"contracts/token factory/testAlgebra.sol\":4417:4476  LiquidityAdded(lastCreatedPool, tokenAAmount, tokenBAmount) */\n      0x40\n      dup1\n      mload\n        /* \"#utility.yul\":8672:8697   */\n      dup7\n      dup2\n      mstore\n        /* \"#utility.yul\":8728:8730   */\n      0x20\n        /* \"#utility.yul\":8713:8731   */\n      dup2\n      add\n        /* \"#utility.yul\":8706:8740   */\n      dup7\n      swap1\n      mstore\n      sub(shl(0xa0, 0x01), 0x01)\n        /* \"contracts/token factory/testAlgebra.sol\":4432:4447  lastCreatedPool */\n      swap1\n      swap3\n      and\n      swap2\n        /* \"contracts/token factory/testAlgebra.sol\":4417:4476  LiquidityAdded(lastCreatedPool, tokenAAmount, tokenBAmount) */\n      0xac1d76749e5447b7b16f5ab61447e1bd502f3bb4807af3b28e620d1700a6ee45\n      swap2\n        /* \"#utility.yul\":8645:8663   */\n      add\n        /* \"contracts/token factory/testAlgebra.sol\":4417:4476  LiquidityAdded(lastCreatedPool, tokenAAmount, tokenBAmount) */\n      mload(0x40)\n      dup1\n      swap2\n      sub\n      swap1\n      log2\n        /* \"contracts/token factory/testAlgebra.sol\":3772:4483  {... */\n      pop\n      pop\n        /* \"contracts/token factory/testAlgebra.sol\":3687:4483  function addLiquidity(uint256 tokenAAmount, uint256 tokenBAmount) external onlyOwner {... */\n      pop\n      pop\n      jump\t// out\n        /* \"contracts/token factory/testAlgebra.sol\":5282:5494  function updateAlgebraFactory(address newAlgebraFactory) external onlyOwner {... */\n    tag_52:\n        /* \"@openzeppelin/contracts/access/Ownable.sol\":1531:1544  _checkOwner() */\n      tag_160\n        /* \"@openzeppelin/contracts/access/Ownable.sol\":1531:1542  _checkOwner */\n      tag_63\n        /* \"@openzeppelin/contracts/access/Ownable.sol\":1531:1544  _checkOwner() */\n      jump\t// in\n    tag_160:\n      sub(shl(0xa0, 0x01), 0x01)\n        /* \"contracts/token factory/testAlgebra.sol\":5376:5407  newAlgebraFactory != address(0) */\n      dup2\n      and\n        /* \"contracts/token factory/testAlgebra.sol\":5368:5443  require(newAlgebraFactory != address(0), \"Invalid Algebra Factory address\") */\n      tag_162\n      jumpi\n      mload(0x40)\n      shl(0xe5, 0x461bcd)\n      dup2\n      mstore\n        /* \"#utility.yul\":8953:8955   */\n      0x20\n        /* \"contracts/token factory/testAlgebra.sol\":5368:5443  require(newAlgebraFactory != address(0), \"Invalid Algebra Factory address\") */\n      0x04\n      dup3\n      add\n        /* \"#utility.yul\":8935:8956   */\n      mstore\n        /* \"#utility.yul\":8992:8994   */\n      0x1f\n        /* \"#utility.yul\":8972:8990   */\n      0x24\n      dup3\n      add\n        /* \"#utility.yul\":8965:8995   */\n      mstore\n        /* \"#utility.yul\":9031:9064   */\n      0x496e76616c696420416c676562726120466163746f7279206164647265737300\n        /* \"#utility.yul\":9011:9029   */\n      0x44\n      dup3\n      add\n        /* \"#utility.yul\":9004:9065   */\n      mstore\n        /* \"#utility.yul\":9082:9100   */\n      0x64\n      add\n        /* \"contracts/token factory/testAlgebra.sol\":5368:5443  require(newAlgebraFactory != address(0), \"Invalid Algebra Factory address\") */\n      tag_67\n        /* \"#utility.yul\":8751:9106   */\n      jump\n        /* \"contracts/token factory/testAlgebra.sol\":5368:5443  require(newAlgebraFactory != address(0), \"Invalid Algebra Factory address\") */\n    tag_162:\n        /* \"contracts/token factory/testAlgebra.sol\":5453:5467  algebraFactory */\n      0x01\n        /* \"contracts/token factory/testAlgebra.sol\":5453:5487  algebraFactory = newAlgebraFactory */\n      dup1\n      sload\n      not(sub(shl(0xa0, 0x01), 0x01))\n      and\n      sub(shl(0xa0, 0x01), 0x01)\n      swap3\n      swap1\n      swap3\n      and\n      swap2\n      swap1\n      swap2\n      or\n      swap1\n      sstore\n        /* \"contracts/token factory/testAlgebra.sol\":5282:5494  function updateAlgebraFactory(address newAlgebraFactory) external onlyOwner {... */\n      jump\t// out\n        /* \"contracts/token factory/testAlgebra.sol\":4740:5136  function computePoolAddress(address tokenA, address tokenB) external view returns (address poolAddress) {... */\n    tag_56:\n        /* \"contracts/token factory/testAlgebra.sol\":4823:4842  address poolAddress */\n      0x00\n      sub(shl(0xa0, 0x01), 0x01)\n        /* \"contracts/token factory/testAlgebra.sol\":4862:4882  tokenA != address(0) */\n      dup4\n      and\n      iszero\n      dup1\n      iszero\n      swap1\n        /* \"contracts/token factory/testAlgebra.sol\":4862:4906  tokenA != address(0) && tokenB != address(0) */\n      tag_166\n      jumpi\n      pop\n      sub(shl(0xa0, 0x01), 0x01)\n        /* \"contracts/token factory/testAlgebra.sol\":4886:4906  tokenB != address(0) */\n      dup3\n      and\n      iszero\n      iszero\n        /* \"contracts/token factory/testAlgebra.sol\":4862:4906  tokenA != address(0) && tokenB != address(0) */\n    tag_166:\n        /* \"contracts/token factory/testAlgebra.sol\":4854:4932  require(tokenA != address(0) && tokenB != address(0), \"Invalid token address\") */\n      tag_167\n      jumpi\n      mload(0x40)\n      shl(0xe5, 0x461bcd)\n      dup2\n      mstore\n      0x04\n      add\n      tag_67\n      swap1\n      tag_68\n      jump\t// in\n    tag_167:\n        /* \"contracts/token factory/testAlgebra.sol\":4960:4966  tokenB */\n      dup2\n      sub(shl(0xa0, 0x01), 0x01)\n        /* \"contracts/token factory/testAlgebra.sol\":4950:4966  tokenA != tokenB */\n      and\n        /* \"contracts/token factory/testAlgebra.sol\":4950:4956  tokenA */\n      dup4\n      sub(shl(0xa0, 0x01), 0x01)\n        /* \"contracts/token factory/testAlgebra.sol\":4950:4966  tokenA != tokenB */\n      and\n      sub\n        /* \"contracts/token factory/testAlgebra.sol\":4942:4995  require(tokenA != tokenB, \"Tokens must be different\") */\n      tag_169\n      jumpi\n      mload(0x40)\n      shl(0xe5, 0x461bcd)\n      dup2\n      mstore\n        /* \"#utility.yul\":4932:4934   */\n      0x20\n        /* \"contracts/token factory/testAlgebra.sol\":4942:4995  require(tokenA != tokenB, \"Tokens must be different\") */\n      0x04\n      dup3\n      add\n        /* \"#utility.yul\":4914:4935   */\n      mstore\n        /* \"#utility.yul\":4971:4973   */\n      0x18\n        /* \"#utility.yul\":4951:4969   */\n      0x24\n      dup3\n      add\n        /* \"#utility.yul\":4944:4974   */\n      mstore\n      shl(0x42, 0x151bdad95b9cc81b5d5cdd08189948191a5999995c995b9d)\n        /* \"#utility.yul\":4990:5008   */\n      0x44\n      dup3\n      add\n        /* \"#utility.yul\":4983:5037   */\n      mstore\n        /* \"#utility.yul\":5054:5072   */\n      0x64\n      add\n        /* \"contracts/token factory/testAlgebra.sol\":4942:4995  require(tokenA != tokenB, \"Tokens must be different\") */\n      tag_67\n        /* \"#utility.yul\":4730:5078   */\n      jump\n        /* \"contracts/token factory/testAlgebra.sol\":4942:4995  require(tokenA != tokenB, \"Tokens must be different\") */\n    tag_169:\n        /* \"contracts/token factory/testAlgebra.sol\":5048:5062  algebraFactory */\n      sload(0x01)\n        /* \"contracts/token factory/testAlgebra.sol\":5087:5129  factory.computePoolAddress(tokenA, tokenB) */\n      mload(0x40)\n      shl(0xe0, 0xd8ed2241)\n      dup2\n      mstore\n      sub(shl(0xa0, 0x01), 0x01)\n        /* \"#utility.yul\":5275:5307   */\n      dup6\n      dup2\n      and\n        /* \"contracts/token factory/testAlgebra.sol\":5087:5129  factory.computePoolAddress(tokenA, tokenB) */\n      0x04\n      dup4\n      add\n        /* \"#utility.yul\":5257:5308   */\n      mstore\n        /* \"#utility.yul\":5344:5376   */\n      dup5\n      dup2\n      and\n        /* \"#utility.yul\":5324:5342   */\n      0x24\n      dup4\n      add\n        /* \"#utility.yul\":5317:5377   */\n      mstore\n        /* \"contracts/token factory/testAlgebra.sol\":5048:5062  algebraFactory */\n      swap1\n      swap2\n      and\n      swap1\n      dup2\n      swap1\n        /* \"contracts/token factory/testAlgebra.sol\":5087:5113  factory.computePoolAddress */\n      0xd8ed2241\n      swap1\n        /* \"#utility.yul\":5230:5248   */\n      0x44\n      add\n        /* \"contracts/token factory/testAlgebra.sol\":5087:5129  factory.computePoolAddress(tokenA, tokenB) */\n      0x20\n      mload(0x40)\n      dup1\n      dup4\n      sub\n      dup2\n      dup7\n      gas\n      staticcall\n      iszero\n      dup1\n      iszero\n      tag_173\n      jumpi\n      returndatasize\n      0x00\n      dup1\n      returndatacopy\n      revert(0x00, returndatasize)\n    tag_173:\n      pop\n      pop\n      pop\n      pop\n      mload(0x40)\n      returndatasize\n      not(0x1f)\n      0x1f\n      dup3\n      add\n      and\n      dup3\n      add\n      dup1\n      0x40\n      mstore\n      pop\n      dup2\n      add\n      swap1\n      tag_174\n      swap2\n      swap1\n      tag_122\n      jump\t// in\n    tag_174:\n        /* \"contracts/token factory/testAlgebra.sol\":5073:5129  poolAddress = factory.computePoolAddress(tokenA, tokenB) */\n      swap5\n        /* \"contracts/token factory/testAlgebra.sol\":4740:5136  function computePoolAddress(address tokenA, address tokenB) external view returns (address poolAddress) {... */\n      swap4\n      pop\n      pop\n      pop\n      pop\n      jump\t// out\n        /* \"@openzeppelin/contracts/access/Ownable.sol\":2543:2758  function transferOwnership(address newOwner) public virtual onlyOwner {... */\n    tag_60:\n        /* \"@openzeppelin/contracts/access/Ownable.sol\":1531:1544  _checkOwner() */\n      tag_176\n        /* \"@openzeppelin/contracts/access/Ownable.sol\":1531:1542  _checkOwner */\n      tag_63\n        /* \"@openzeppelin/contracts/access/Ownable.sol\":1531:1544  _checkOwner() */\n      jump\t// in\n    tag_176:\n      sub(shl(0xa0, 0x01), 0x01)\n        /* \"@openzeppelin/contracts/access/Ownable.sol\":2627:2649  newOwner == address(0) */\n      dup2\n      and\n        /* \"@openzeppelin/contracts/access/Ownable.sol\":2623:2714  if (newOwner == address(0)) {... */\n      tag_178\n      jumpi\n        /* \"@openzeppelin/contracts/access/Ownable.sol\":2672:2703  OwnableInvalidOwner(address(0)) */\n      mload(0x40)\n      shl(0xe0, 0x1e4fbdf7)\n      dup2\n      mstore\n        /* \"@openzeppelin/contracts/access/Ownable.sol\":2700:2701  0 */\n      0x00\n        /* \"@openzeppelin/contracts/access/Ownable.sol\":2672:2703  OwnableInvalidOwner(address(0)) */\n      0x04\n      dup3\n      add\n        /* \"#utility.yul\":160:211   */\n      mstore\n        /* \"#utility.yul\":133:151   */\n      0x24\n      add\n        /* \"@openzeppelin/contracts/access/Ownable.sol\":2672:2703  OwnableInvalidOwner(address(0)) */\n      tag_67\n        /* \"#utility.yul\":14:217   */\n      jump\n        /* \"@openzeppelin/contracts/access/Ownable.sol\":2623:2714  if (newOwner == address(0)) {... */\n    tag_178:\n        /* \"@openzeppelin/contracts/access/Ownable.sol\":2723:2751  _transferOwnership(newOwner) */\n      tag_180\n        /* \"@openzeppelin/contracts/access/Ownable.sol\":2742:2750  newOwner */\n      dup2\n        /* \"@openzeppelin/contracts/access/Ownable.sol\":2723:2741  _transferOwnership */\n      tag_103\n        /* \"@openzeppelin/contracts/access/Ownable.sol\":2723:2751  _transferOwnership(newOwner) */\n      jump\t// in\n    tag_180:\n        /* \"@openzeppelin/contracts/access/Ownable.sol\":2543:2758  function transferOwnership(address newOwner) public virtual onlyOwner {... */\n      pop\n      jump\t// out\n        /* \"@openzeppelin/contracts/access/Ownable.sol\":1796:1958  function _checkOwner() internal view virtual {... */\n    tag_63:\n        /* \"@openzeppelin/contracts/access/Ownable.sol\":1684:1691  address */\n      0x00\n        /* \"@openzeppelin/contracts/access/Ownable.sol\":1710:1716  _owner */\n      sload\n      sub(shl(0xa0, 0x01), 0x01)\n      and\n        /* \"@openzeppelin/contracts/utils/Context.sol\":735:745  msg.sender */\n      caller\n        /* \"@openzeppelin/contracts/access/Ownable.sol\":1855:1878  owner() != _msgSender() */\n      eq\n        /* \"@openzeppelin/contracts/access/Ownable.sol\":1851:1952  if (owner() != _msgSender()) {... */\n      tag_102\n      jumpi\n        /* \"@openzeppelin/contracts/access/Ownable.sol\":1901:1941  OwnableUnauthorizedAccount(_msgSender()) */\n      mload(0x40)\n      shl(0xe0, 0x118cdaa7)\n      dup2\n      mstore\n        /* \"@openzeppelin/contracts/utils/Context.sol\":735:745  msg.sender */\n      caller\n        /* \"@openzeppelin/contracts/access/Ownable.sol\":1901:1941  OwnableUnauthorizedAccount(_msgSender()) */\n      0x04\n      dup3\n      add\n        /* \"#utility.yul\":160:211   */\n      mstore\n        /* \"#utility.yul\":133:151   */\n      0x24\n      add\n        /* \"@openzeppelin/contracts/access/Ownable.sol\":1901:1941  OwnableUnauthorizedAccount(_msgSender()) */\n      tag_67\n        /* \"#utility.yul\":14:217   */\n      jump\n        /* \"@openzeppelin/contracts/access/Ownable.sol\":2912:3099  function _transferOwnership(address newOwner) internal virtual {... */\n    tag_103:\n        /* \"@openzeppelin/contracts/access/Ownable.sol\":2985:3001  address oldOwner */\n      0x00\n        /* \"@openzeppelin/contracts/access/Ownable.sol\":3004:3010  _owner */\n      dup1\n      sload\n      sub(shl(0xa0, 0x01), 0x01)\n        /* \"@openzeppelin/contracts/access/Ownable.sol\":3020:3037  _owner = newOwner */\n      dup4\n      dup2\n      and\n      not(sub(shl(0xa0, 0x01), 0x01))\n      dup4\n      and\n      dup2\n      or\n      dup5\n      sstore\n        /* \"@openzeppelin/contracts/access/Ownable.sol\":3052:3092  OwnershipTransferred(oldOwner, newOwner) */\n      mload(0x40)\n        /* \"@openzeppelin/contracts/access/Ownable.sol\":3004:3010  _owner */\n      swap2\n      swap1\n      swap3\n      and\n      swap3\n      dup4\n      swap2\n        /* \"@openzeppelin/contracts/access/Ownable.sol\":3052:3092  OwnershipTransferred(oldOwner, newOwner) */\n      0x8be0079c531659141344cd1fd0a4f28419497f9722a3daafe3b4186f6b6457e0\n      swap2\n        /* \"@openzeppelin/contracts/access/Ownable.sol\":2985:3001  address oldOwner */\n      swap1\n        /* \"@openzeppelin/contracts/access/Ownable.sol\":3052:3092  OwnershipTransferred(oldOwner, newOwner) */\n      log3\n        /* \"@openzeppelin/contracts/access/Ownable.sol\":2975:3099  {... */\n      pop\n        /* \"@openzeppelin/contracts/access/Ownable.sol\":2912:3099  function _transferOwnership(address newOwner) internal virtual {... */\n      pop\n      jump\t// out\n        /* \"#utility.yul\":222:353   */\n    tag_190:\n      sub(shl(0xa0, 0x01), 0x01)\n        /* \"#utility.yul\":297:328   */\n      dup2\n      and\n        /* \"#utility.yul\":287:329   */\n      dup2\n      eq\n        /* \"#utility.yul\":277:347   */\n      tag_180\n      jumpi\n        /* \"#utility.yul\":343:344   */\n      0x00\n        /* \"#utility.yul\":340:341   */\n      dup1\n        /* \"#utility.yul\":333:345   */\n      revert\n        /* \"#utility.yul\":358:866   */\n    tag_27:\n        /* \"#utility.yul\":435:441   */\n      0x00\n        /* \"#utility.yul\":443:449   */\n      dup1\n        /* \"#utility.yul\":451:457   */\n      0x00\n        /* \"#utility.yul\":504:506   */\n      0x60\n        /* \"#utility.yul\":492:501   */\n      dup5\n        /* \"#utility.yul\":483:490   */\n      dup7\n        /* \"#utility.yul\":479:502   */\n      sub\n        /* \"#utility.yul\":475:507   */\n      slt\n        /* \"#utility.yul\":472:524   */\n      iszero\n      tag_196\n      jumpi\n        /* \"#utility.yul\":520:521   */\n      0x00\n        /* \"#utility.yul\":517:518   */\n      dup1\n        /* \"#utility.yul\":510:522   */\n      revert\n        /* \"#utility.yul\":472:524   */\n    tag_196:\n        /* \"#utility.yul\":559:568   */\n      dup4\n        /* \"#utility.yul\":546:569   */\n      calldataload\n        /* \"#utility.yul\":578:609   */\n      tag_197\n        /* \"#utility.yul\":603:608   */\n      dup2\n        /* \"#utility.yul\":578:609   */\n      tag_190\n      jump\t// in\n    tag_197:\n        /* \"#utility.yul\":628:633   */\n      swap3\n      pop\n        /* \"#utility.yul\":685:687   */\n      0x20\n        /* \"#utility.yul\":670:688   */\n      dup5\n      add\n        /* \"#utility.yul\":657:689   */\n      calldataload\n        /* \"#utility.yul\":698:731   */\n      tag_198\n        /* \"#utility.yul\":657:689   */\n      dup2\n        /* \"#utility.yul\":698:731   */\n      tag_190\n      jump\t// in\n    tag_198:\n        /* \"#utility.yul\":358:866   */\n      swap3\n      swap6\n        /* \"#utility.yul\":750:757   */\n      swap3\n      swap5\n      pop\n      pop\n      pop\n        /* \"#utility.yul\":830:832   */\n      0x40\n        /* \"#utility.yul\":815:833   */\n      swap2\n      swap1\n      swap2\n      add\n        /* \"#utility.yul\":802:834   */\n      calldataload\n      swap1\n        /* \"#utility.yul\":358:866   */\n      jump\t// out\n        /* \"#utility.yul\":871:1217   */\n    tag_44:\n        /* \"#utility.yul\":939:945   */\n      0x00\n        /* \"#utility.yul\":947:953   */\n      dup1\n        /* \"#utility.yul\":1000:1002   */\n      0x40\n        /* \"#utility.yul\":988:997   */\n      dup4\n        /* \"#utility.yul\":979:986   */\n      dup6\n        /* \"#utility.yul\":975:998   */\n      sub\n        /* \"#utility.yul\":971:1003   */\n      slt\n        /* \"#utility.yul\":968:1020   */\n      iszero\n      tag_200\n      jumpi\n        /* \"#utility.yul\":1016:1017   */\n      0x00\n        /* \"#utility.yul\":1013:1014   */\n      dup1\n        /* \"#utility.yul\":1006:1018   */\n      revert\n        /* \"#utility.yul\":968:1020   */\n    tag_200:\n      pop\n      pop\n        /* \"#utility.yul\":1061:1084   */\n      dup1\n      calldataload\n      swap3\n        /* \"#utility.yul\":1181:1183   */\n      0x20\n        /* \"#utility.yul\":1166:1184   */\n      swap1\n      swap2\n      add\n        /* \"#utility.yul\":1153:1185   */\n      calldataload\n      swap2\n      pop\n        /* \"#utility.yul\":871:1217   */\n      jump\t// out\n        /* \"#utility.yul\":1222:1469   */\n    tag_51:\n        /* \"#utility.yul\":1281:1287   */\n      0x00\n        /* \"#utility.yul\":1334:1336   */\n      0x20\n        /* \"#utility.yul\":1322:1331   */\n      dup3\n        /* \"#utility.yul\":1313:1320   */\n      dup5\n        /* \"#utility.yul\":1309:1332   */\n      sub\n        /* \"#utility.yul\":1305:1337   */\n      slt\n        /* \"#utility.yul\":1302:1354   */\n      iszero\n      tag_202\n      jumpi\n        /* \"#utility.yul\":1350:1351   */\n      0x00\n        /* \"#utility.yul\":1347:1348   */\n      dup1\n        /* \"#utility.yul\":1340:1352   */\n      revert\n        /* \"#utility.yul\":1302:1354   */\n    tag_202:\n        /* \"#utility.yul\":1389:1398   */\n      dup2\n        /* \"#utility.yul\":1376:1399   */\n      calldataload\n        /* \"#utility.yul\":1408:1439   */\n      tag_203\n        /* \"#utility.yul\":1433:1438   */\n      dup2\n        /* \"#utility.yul\":1408:1439   */\n      tag_190\n      jump\t// in\n    tag_203:\n        /* \"#utility.yul\":1458:1463   */\n      swap4\n        /* \"#utility.yul\":1222:1469   */\n      swap3\n      pop\n      pop\n      pop\n      jump\t// out\n        /* \"#utility.yul\":1474:1862   */\n    tag_55:\n        /* \"#utility.yul\":1542:1548   */\n      0x00\n        /* \"#utility.yul\":1550:1556   */\n      dup1\n        /* \"#utility.yul\":1603:1605   */\n      0x40\n        /* \"#utility.yul\":1591:1600   */\n      dup4\n        /* \"#utility.yul\":1582:1589   */\n      dup6\n        /* \"#utility.yul\":1578:1601   */\n      sub\n        /* \"#utility.yul\":1574:1606   */\n      slt\n        /* \"#utility.yul\":1571:1623   */\n      iszero\n      tag_205\n      jumpi\n        /* \"#utility.yul\":1619:1620   */\n      0x00\n        /* \"#utility.yul\":1616:1617   */\n      dup1\n        /* \"#utility.yul\":1609:1621   */\n      revert\n        /* \"#utility.yul\":1571:1623   */\n    tag_205:\n        /* \"#utility.yul\":1658:1667   */\n      dup3\n        /* \"#utility.yul\":1645:1668   */\n      calldataload\n        /* \"#utility.yul\":1677:1708   */\n      tag_206\n        /* \"#utility.yul\":1702:1707   */\n      dup2\n        /* \"#utility.yul\":1677:1708   */\n      tag_190\n      jump\t// in\n    tag_206:\n        /* \"#utility.yul\":1727:1732   */\n      swap2\n      pop\n        /* \"#utility.yul\":1784:1786   */\n      0x20\n        /* \"#utility.yul\":1769:1787   */\n      dup4\n      add\n        /* \"#utility.yul\":1756:1788   */\n      calldataload\n        /* \"#utility.yul\":1797:1830   */\n      tag_207\n        /* \"#utility.yul\":1756:1788   */\n      dup2\n        /* \"#utility.yul\":1797:1830   */\n      tag_190\n      jump\t// in\n    tag_207:\n        /* \"#utility.yul\":1849:1856   */\n      dup1\n        /* \"#utility.yul\":1839:1856   */\n      swap2\n      pop\n      pop\n        /* \"#utility.yul\":1474:1862   */\n      swap3\n      pop\n      swap3\n      swap1\n      pop\n      jump\t// out\n        /* \"#utility.yul\":1867:2212   */\n    tag_68:\n        /* \"#utility.yul\":2069:2071   */\n      0x20\n        /* \"#utility.yul\":2051:2072   */\n      dup1\n      dup3\n      mstore\n        /* \"#utility.yul\":2108:2110   */\n      0x15\n        /* \"#utility.yul\":2088:2106   */\n      swap1\n      dup3\n      add\n        /* \"#utility.yul\":2081:2111   */\n      mstore\n      shl(0x58, 0x496e76616c696420746f6b656e2061646472657373)\n        /* \"#utility.yul\":2142:2144   */\n      0x40\n        /* \"#utility.yul\":2127:2145   */\n      dup3\n      add\n        /* \"#utility.yul\":2120:2171   */\n      mstore\n        /* \"#utility.yul\":2203:2205   */\n      0x60\n        /* \"#utility.yul\":2188:2206   */\n      add\n      swap1\n        /* \"#utility.yul\":1867:2212   */\n      jump\t// out\n        /* \"#utility.yul\":3206:3483   */\n    tag_80:\n        /* \"#utility.yul\":3273:3279   */\n      0x00\n        /* \"#utility.yul\":3326:3328   */\n      0x20\n        /* \"#utility.yul\":3314:3323   */\n      dup3\n        /* \"#utility.yul\":3305:3312   */\n      dup5\n        /* \"#utility.yul\":3301:3324   */\n      sub\n        /* \"#utility.yul\":3297:3329   */\n      slt\n        /* \"#utility.yul\":3294:3346   */\n      iszero\n      tag_213\n      jumpi\n        /* \"#utility.yul\":3342:3343   */\n      0x00\n        /* \"#utility.yul\":3339:3340   */\n      dup1\n        /* \"#utility.yul\":3332:3344   */\n      revert\n        /* \"#utility.yul\":3294:3346   */\n    tag_213:\n        /* \"#utility.yul\":3374:3383   */\n      dup2\n        /* \"#utility.yul\":3368:3384   */\n      mload\n        /* \"#utility.yul\":3427:3432   */\n      dup1\n        /* \"#utility.yul\":3420:3433   */\n      iszero\n        /* \"#utility.yul\":3413:3434   */\n      iszero\n        /* \"#utility.yul\":3406:3411   */\n      dup2\n        /* \"#utility.yul\":3403:3435   */\n      eq\n        /* \"#utility.yul\":3393:3453   */\n      tag_203\n      jumpi\n        /* \"#utility.yul\":3449:3450   */\n      0x00\n        /* \"#utility.yul\":3446:3447   */\n      dup1\n        /* \"#utility.yul\":3439:3451   */\n      revert\n        /* \"#utility.yul\":5388:5639   */\n    tag_122:\n        /* \"#utility.yul\":5458:5464   */\n      0x00\n        /* \"#utility.yul\":5511:5513   */\n      0x20\n        /* \"#utility.yul\":5499:5508   */\n      dup3\n        /* \"#utility.yul\":5490:5497   */\n      dup5\n        /* \"#utility.yul\":5486:5509   */\n      sub\n        /* \"#utility.yul\":5482:5514   */\n      slt\n        /* \"#utility.yul\":5479:5531   */\n      iszero\n      tag_222\n      jumpi\n        /* \"#utility.yul\":5527:5528   */\n      0x00\n        /* \"#utility.yul\":5524:5525   */\n      dup1\n        /* \"#utility.yul\":5517:5529   */\n      revert\n        /* \"#utility.yul\":5479:5531   */\n    tag_222:\n        /* \"#utility.yul\":5559:5568   */\n      dup2\n        /* \"#utility.yul\":5553:5569   */\n      mload\n        /* \"#utility.yul\":5578:5609   */\n      tag_203\n        /* \"#utility.yul\":5603:5608   */\n      dup2\n        /* \"#utility.yul\":5578:5609   */\n      tag_190\n      jump\t// in\n    stop\n    data_cd3c33721f956e41cd7226e4ec1d7a9afed0f88a83c3caea27c8ce3f8c1bdbbc 94ebca8d29d278a0288a52a710c11e928307b6f2e15fbaf4508cc4ceb3d21f8b\n\n    auxdata: 0xa2646970667358221220f9f08f065c5bcc82d73f5b75cc4a17017f151a20087aa5e56ef2dd20ff13a73d64736f6c634300081a0033\n}\n\nsub_1: assembly {\n        /* \"contracts/token factory/CustomToken.sol\":168:1369  contract CustomToken is ERC20, Ownable {... */\n      mstore(0x40, 0x80)\n        /* \"contracts/token factory/CustomToken.sol\":378:428  constructor() ERC20(\"\", \"\") Ownable(msg.sender) {} */\n      callvalue\n      dup1\n      iszero\n      tag_1\n      jumpi\n      0x00\n      dup1\n      revert\n    tag_1:\n      pop\n        /* \"@openzeppelin/contracts/token/ERC20/ERC20.sol\":1896:2009  constructor(string memory name_, string memory symbol_) {... */\n      0x40\n      dup1\n      mload\n      0x20\n      dup1\n      dup3\n      add\n      dup4\n      mstore\n      0x00\n      dup1\n      dup4\n      mstore\n      dup4\n      mload\n      swap2\n      dup3\n      add\n      swap1\n      swap4\n      mstore\n      swap2\n      dup3\n      mstore\n        /* \"contracts/token factory/CustomToken.sol\":414:424  msg.sender */\n      caller\n      swap2\n        /* \"@openzeppelin/contracts/token/ERC20/ERC20.sol\":1962:1967  _name */\n      0x03\n        /* \"@openzeppelin/contracts/token/ERC20/ERC20.sol\":1962:1975  _name = name_ */\n      tag_6\n        /* \"@openzeppelin/contracts/token/ERC20/ERC20.sol\":1896:2009  constructor(string memory name_, string memory symbol_) {... */\n      dup4\n        /* \"@openzeppelin/contracts/token/ERC20/ERC20.sol\":1962:1967  _name */\n      dup3\n        /* \"@openzeppelin/contracts/token/ERC20/ERC20.sol\":1962:1975  _name = name_ */\n      tag_7\n      jump\t// in\n    tag_6:\n      pop\n        /* \"@openzeppelin/contracts/token/ERC20/ERC20.sol\":1985:1992  _symbol */\n      0x04\n        /* \"@openzeppelin/contracts/token/ERC20/ERC20.sol\":1985:2002  _symbol = symbol_ */\n      tag_8\n        /* \"@openzeppelin/contracts/token/ERC20/ERC20.sol\":1995:2002  symbol_ */\n      dup3\n        /* \"@openzeppelin/contracts/token/ERC20/ERC20.sol\":1985:1992  _symbol */\n      dup3\n        /* \"@openzeppelin/contracts/token/ERC20/ERC20.sol\":1985:2002  _symbol = symbol_ */\n      tag_7\n      jump\t// in\n    tag_8:\n      pop\n      pop\n      pop\n      sub(shl(0xa0, 0x01), 0x01)\n        /* \"@openzeppelin/contracts/access/Ownable.sol\":1273:1299  initialOwner == address(0) */\n      dup2\n      and\n        /* \"@openzeppelin/contracts/access/Ownable.sol\":1269:1364  if (initialOwner == address(0)) {... */\n      tag_10\n      jumpi\n        /* \"@openzeppelin/contracts/access/Ownable.sol\":1322:1353  OwnableInvalidOwner(address(0)) */\n      mload(0x40)\n      shl(0xe0, 0x1e4fbdf7)\n      dup2\n      mstore\n        /* \"@openzeppelin/contracts/access/Ownable.sol\":1350:1351  0 */\n      0x00\n        /* \"@openzeppelin/contracts/access/Ownable.sol\":1322:1353  OwnableInvalidOwner(address(0)) */\n      0x04\n      dup3\n      add\n        /* \"#utility.yul\":2801:2852   */\n      mstore\n        /* \"#utility.yul\":2774:2792   */\n      0x24\n      add\n        /* \"@openzeppelin/contracts/access/Ownable.sol\":1322:1353  OwnableInvalidOwner(address(0)) */\n      mload(0x40)\n      dup1\n      swap2\n      sub\n      swap1\n      revert\n        /* \"@openzeppelin/contracts/access/Ownable.sol\":1269:1364  if (initialOwner == address(0)) {... */\n    tag_10:\n        /* \"@openzeppelin/contracts/access/Ownable.sol\":1373:1405  _transferOwnership(initialOwner) */\n      tag_13\n        /* \"@openzeppelin/contracts/access/Ownable.sol\":1392:1404  initialOwner */\n      dup2\n        /* \"@openzeppelin/contracts/access/Ownable.sol\":1373:1391  _transferOwnership */\n      tag_14\n        /* \"@openzeppelin/contracts/access/Ownable.sol\":1373:1405  _transferOwnership(initialOwner) */\n      jump\t// in\n    tag_13:\n        /* \"@openzeppelin/contracts/access/Ownable.sol\":1225:1412  constructor(address initialOwner) {... */\n      pop\n        /* \"contracts/token factory/CustomToken.sol\":168:1369  contract CustomToken is ERC20, Ownable {... */\n      jump(tag_23)\n        /* \"@openzeppelin/contracts/access/Ownable.sol\":2912:3099  function _transferOwnership(address newOwner) internal virtual {... */\n    tag_14:\n        /* \"@openzeppelin/contracts/access/Ownable.sol\":3004:3010  _owner */\n      0x05\n      dup1\n      sload\n      sub(shl(0xa0, 0x01), 0x01)\n        /* \"@openzeppelin/contracts/access/Ownable.sol\":3020:3037  _owner = newOwner */\n      dup4\n      dup2\n      and\n      not(sub(shl(0xa0, 0x01), 0x01))\n      dup4\n      and\n      dup2\n      or\n      swap1\n      swap4\n      sstore\n        /* \"@openzeppelin/contracts/access/Ownable.sol\":3052:3092  OwnershipTransferred(oldOwner, newOwner) */\n      mload(0x40)\n        /* \"@openzeppelin/contracts/access/Ownable.sol\":3004:3010  _owner */\n      swap2\n      and\n      swap2\n        /* \"@openzeppelin/contracts/access/Ownable.sol\":3020:3037  _owner = newOwner */\n      swap1\n        /* \"@openzeppelin/contracts/access/Ownable.sol\":3004:3010  _owner */\n      dup3\n      swap1\n        /* \"@openzeppelin/contracts/access/Ownable.sol\":3052:3092  OwnershipTransferred(oldOwner, newOwner) */\n      0x8be0079c531659141344cd1fd0a4f28419497f9722a3daafe3b4186f6b6457e0\n      swap1\n        /* \"@openzeppelin/contracts/access/Ownable.sol\":2985:3001  address oldOwner */\n      0x00\n      swap1\n        /* \"@openzeppelin/contracts/access/Ownable.sol\":3052:3092  OwnershipTransferred(oldOwner, newOwner) */\n      log3\n        /* \"@openzeppelin/contracts/access/Ownable.sol\":2975:3099  {... */\n      pop\n        /* \"@openzeppelin/contracts/access/Ownable.sol\":2912:3099  function _transferOwnership(address newOwner) internal virtual {... */\n      pop\n      jump\t// out\n        /* \"#utility.yul\":14:141   */\n    tag_18:\n        /* \"#utility.yul\":75:85   */\n      0x4e487b71\n        /* \"#utility.yul\":70:73   */\n      0xe0\n        /* \"#utility.yul\":66:86   */\n      shl\n        /* \"#utility.yul\":63:64   */\n      0x00\n        /* \"#utility.yul\":56:87   */\n      mstore\n        /* \"#utility.yul\":106:110   */\n      0x41\n        /* \"#utility.yul\":103:104   */\n      0x04\n        /* \"#utility.yul\":96:111   */\n      mstore\n        /* \"#utility.yul\":130:134   */\n      0x24\n        /* \"#utility.yul\":127:128   */\n      0x00\n        /* \"#utility.yul\":120:135   */\n      revert\n        /* \"#utility.yul\":146:526   */\n    tag_19:\n        /* \"#utility.yul\":225:226   */\n      0x01\n        /* \"#utility.yul\":221:233   */\n      dup2\n      dup2\n      shr\n      swap1\n        /* \"#utility.yul\":268:280   */\n      dup3\n      and\n      dup1\n        /* \"#utility.yul\":289:350   */\n      tag_26\n      jumpi\n        /* \"#utility.yul\":343:347   */\n      0x7f\n        /* \"#utility.yul\":335:341   */\n      dup3\n        /* \"#utility.yul\":331:348   */\n      and\n        /* \"#utility.yul\":321:348   */\n      swap2\n      pop\n        /* \"#utility.yul\":289:350   */\n    tag_26:\n        /* \"#utility.yul\":396:398   */\n      0x20\n        /* \"#utility.yul\":388:394   */\n      dup3\n        /* \"#utility.yul\":385:399   */\n      lt\n        /* \"#utility.yul\":365:383   */\n      dup2\n        /* \"#utility.yul\":362:400   */\n      sub\n        /* \"#utility.yul\":359:520   */\n      tag_27\n      jumpi\n        /* \"#utility.yul\":442:452   */\n      0x4e487b71\n        /* \"#utility.yul\":437:440   */\n      0xe0\n        /* \"#utility.yul\":433:453   */\n      shl\n        /* \"#utility.yul\":430:431   */\n      0x00\n        /* \"#utility.yul\":423:454   */\n      mstore\n        /* \"#utility.yul\":477:481   */\n      0x22\n        /* \"#utility.yul\":474:475   */\n      0x04\n        /* \"#utility.yul\":467:482   */\n      mstore\n        /* \"#utility.yul\":505:509   */\n      0x24\n        /* \"#utility.yul\":502:503   */\n      0x00\n        /* \"#utility.yul\":495:510   */\n      revert\n        /* \"#utility.yul\":359:520   */\n    tag_27:\n      pop\n        /* \"#utility.yul\":146:526   */\n      swap2\n      swap1\n      pop\n      jump\t// out\n        /* \"#utility.yul\":657:1175   */\n    tag_21:\n        /* \"#utility.yul\":759:761   */\n      0x1f\n        /* \"#utility.yul\":754:757   */\n      dup3\n        /* \"#utility.yul\":751:762   */\n      gt\n        /* \"#utility.yul\":748:1169   */\n      iszero\n      tag_30\n      jumpi\n        /* \"#utility.yul\":795:800   */\n      dup1\n        /* \"#utility.yul\":792:793   */\n      0x00\n        /* \"#utility.yul\":785:801   */\n      mstore\n        /* \"#utility.yul\":839:843   */\n      0x20\n        /* \"#utility.yul\":836:837   */\n      0x00\n        /* \"#utility.yul\":826:844   */\n      keccak256\n        /* \"#utility.yul\":909:911   */\n      0x1f\n        /* \"#utility.yul\":897:907   */\n      dup5\n        /* \"#utility.yul\":893:912   */\n      add\n        /* \"#utility.yul\":890:891   */\n      0x05\n        /* \"#utility.yul\":886:913   */\n      shr\n        /* \"#utility.yul\":880:884   */\n      dup2\n        /* \"#utility.yul\":876:914   */\n      add\n        /* \"#utility.yul\":945:949   */\n      0x20\n        /* \"#utility.yul\":933:943   */\n      dup6\n        /* \"#utility.yul\":930:950   */\n      lt\n        /* \"#utility.yul\":927:974   */\n      iszero\n      tag_31\n      jumpi\n      pop\n        /* \"#utility.yul\":968:972   */\n      dup1\n        /* \"#utility.yul\":927:974   */\n    tag_31:\n        /* \"#utility.yul\":1023:1025   */\n      0x1f\n        /* \"#utility.yul\":1018:1021   */\n      dup5\n        /* \"#utility.yul\":1014:1026   */\n      add\n        /* \"#utility.yul\":1011:1012   */\n      0x05\n        /* \"#utility.yul\":1007:1027   */\n      shr\n        /* \"#utility.yul\":1001:1005   */\n      dup3\n        /* \"#utility.yul\":997:1028   */\n      add\n        /* \"#utility.yul\":987:1028   */\n      swap2\n      pop\n        /* \"#utility.yul\":1078:1159   */\n    tag_32:\n        /* \"#utility.yul\":1096:1098   */\n      dup2\n        /* \"#utility.yul\":1089:1094   */\n      dup2\n        /* \"#utility.yul\":1086:1099   */\n      lt\n        /* \"#utility.yul\":1078:1159   */\n      iszero\n      tag_34\n      jumpi\n        /* \"#utility.yul\":1155:1156   */\n      0x00\n        /* \"#utility.yul\":1141:1157   */\n      dup2\n      sstore\n        /* \"#utility.yul\":1122:1123   */\n      0x01\n        /* \"#utility.yul\":1111:1124   */\n      add\n        /* \"#utility.yul\":1078:1159   */\n      jump(tag_32)\n    tag_34:\n        /* \"#utility.yul\":1082:1085   */\n      pop\n      pop\n        /* \"#utility.yul\":748:1169   */\n    tag_30:\n        /* \"#utility.yul\":657:1175   */\n      pop\n      pop\n      pop\n      jump\t// out\n        /* \"#utility.yul\":1351:2650   */\n    tag_7:\n        /* \"#utility.yul\":1471:1481   */\n      dup2\n      mload\n      sub(shl(0x40, 0x01), 0x01)\n        /* \"#utility.yul\":1493:1523   */\n      dup2\n      gt\n        /* \"#utility.yul\":1490:1546   */\n      iszero\n      tag_38\n      jumpi\n        /* \"#utility.yul\":1526:1544   */\n      tag_38\n      tag_18\n      jump\t// in\n    tag_38:\n        /* \"#utility.yul\":1555:1652   */\n      tag_39\n        /* \"#utility.yul\":1645:1651   */\n      dup2\n        /* \"#utility.yul\":1605:1643   */\n      tag_40\n        /* \"#utility.yul\":1637:1641   */\n      dup5\n        /* \"#utility.yul\":1631:1642   */\n      sload\n        /* \"#utility.yul\":1605:1643   */\n      tag_19\n      jump\t// in\n    tag_40:\n        /* \"#utility.yul\":1599:1603   */\n      dup5\n        /* \"#utility.yul\":1555:1652   */\n      tag_21\n      jump\t// in\n    tag_39:\n        /* \"#utility.yul\":1701:1705   */\n      0x20\n        /* \"#utility.yul\":1732:1734   */\n      0x1f\n        /* \"#utility.yul\":1721:1735   */\n      dup3\n      gt\n        /* \"#utility.yul\":1749:1750   */\n      0x01\n        /* \"#utility.yul\":1744:2393   */\n      dup2\n      eq\n      tag_42\n      jumpi\n        /* \"#utility.yul\":2437:2438   */\n      0x00\n        /* \"#utility.yul\":2454:2460   */\n      dup4\n        /* \"#utility.yul\":2451:2540   */\n      iszero\n      tag_43\n      jumpi\n      pop\n        /* \"#utility.yul\":2506:2525   */\n      dup5\n      dup3\n      add\n        /* \"#utility.yul\":2500:2526   */\n      mload\n        /* \"#utility.yul\":2451:2540   */\n    tag_43:\n      not(0x00)\n        /* \"#utility.yul\":1308:1309   */\n      0x03\n        /* \"#utility.yul\":1304:1315   */\n      dup6\n      swap1\n      shl\n        /* \"#utility.yul\":1300:1324   */\n      shr\n        /* \"#utility.yul\":1296:1325   */\n      not\n        /* \"#utility.yul\":1286:1326   */\n      and\n        /* \"#utility.yul\":1332:1333   */\n      0x01\n        /* \"#utility.yul\":1328:1339   */\n      dup5\n      swap1\n      shl\n        /* \"#utility.yul\":1283:1340   */\n      or\n        /* \"#utility.yul\":2553:2634   */\n      dup5\n      sstore\n        /* \"#utility.yul\":1714:2644   */\n      jump(tag_34)\n        /* \"#utility.yul\":1744:2393   */\n    tag_42:\n        /* \"#utility.yul\":604:605   */\n      0x00\n        /* \"#utility.yul\":597:611   */\n      dup5\n      dup2\n      mstore\n        /* \"#utility.yul\":641:645   */\n      0x20\n        /* \"#utility.yul\":628:646   */\n      dup2\n      keccak256\n      not(0x1f)\n        /* \"#utility.yul\":1780:1800   */\n      dup6\n      and\n      swap2\n        /* \"#utility.yul\":1898:2120   */\n    tag_46:\n        /* \"#utility.yul\":1912:1919   */\n      dup3\n        /* \"#utility.yul\":1909:1910   */\n      dup2\n        /* \"#utility.yul\":1906:1920   */\n      lt\n        /* \"#utility.yul\":1898:2120   */\n      iszero\n      tag_48\n      jumpi\n        /* \"#utility.yul\":1994:2013   */\n      dup8\n      dup6\n      add\n        /* \"#utility.yul\":1988:2014   */\n      mload\n        /* \"#utility.yul\":1973:2015   */\n      dup3\n      sstore\n        /* \"#utility.yul\":2101:2105   */\n      0x20\n        /* \"#utility.yul\":2086:2106   */\n      swap5\n      dup6\n      add\n      swap5\n        /* \"#utility.yul\":2054:2055   */\n      0x01\n        /* \"#utility.yul\":2042:2056   */\n      swap1\n      swap3\n      add\n      swap2\n        /* \"#utility.yul\":1928:1940   */\n      add\n        /* \"#utility.yul\":1898:2120   */\n      jump(tag_46)\n    tag_48:\n        /* \"#utility.yul\":1902:1905   */\n      pop\n        /* \"#utility.yul\":2148:2154   */\n      dup5\n        /* \"#utility.yul\":2139:2146   */\n      dup3\n        /* \"#utility.yul\":2136:2155   */\n      lt\n        /* \"#utility.yul\":2133:2334   */\n      iszero\n      tag_49\n      jumpi\n        /* \"#utility.yul\":2209:2228   */\n      dup7\n      dup5\n      add\n        /* \"#utility.yul\":2203:2229   */\n      mload\n      not(0x00)\n        /* \"#utility.yul\":2292:2293   */\n      0x03\n        /* \"#utility.yul\":2288:2302   */\n      dup8\n      swap1\n      shl\n        /* \"#utility.yul\":2304:2307   */\n      0xf8\n        /* \"#utility.yul\":2284:2308   */\n      and\n        /* \"#utility.yul\":2280:2317   */\n      shr\n        /* \"#utility.yul\":2276:2318   */\n      not\n        /* \"#utility.yul\":2261:2319   */\n      and\n        /* \"#utility.yul\":2246:2320   */\n      dup2\n      sstore\n        /* \"#utility.yul\":2133:2334   */\n    tag_49:\n      pop\n      pop\n      pop\n      pop\n        /* \"#utility.yul\":2380:2381   */\n      0x01\n        /* \"#utility.yul\":2364:2378   */\n      swap1\n      dup2\n      shl\n        /* \"#utility.yul\":2360:2382   */\n      add\n        /* \"#utility.yul\":2347:2383   */\n      swap1\n      sstore\n      pop\n        /* \"#utility.yul\":1351:2650   */\n      jump\t// out\n        /* \"#utility.yul\":2655:2858   */\n    tag_23:\n        /* \"contracts/token factory/CustomToken.sol\":168:1369  contract CustomToken is ERC20, Ownable {... */\n      dataSize(sub_0)\n      dup1\n      dataOffset(sub_0)\n      0x00\n      codecopy\n      0x00\n      return\n    stop\n\n    sub_0: assembly {\n            /* \"contracts/token factory/CustomToken.sol\":168:1369  contract CustomToken is ERC20, Ownable {... */\n          mstore(0x40, 0x80)\n          callvalue\n          dup1\n          iszero\n          tag_1\n          jumpi\n          0x00\n          dup1\n          revert\n        tag_1:\n          pop\n          jumpi(tag_2, lt(calldatasize, 0x04))\n          shr(0xe0, calldataload(0x00))\n          dup1\n          0x70a08231\n          gt\n          tag_19\n          jumpi\n          dup1\n          0xa9059cbb\n          gt\n          tag_20\n          jumpi\n          dup1\n          0xa9059cbb\n          eq\n          tag_15\n          jumpi\n          dup1\n          0xb90497e0\n          eq\n          tag_16\n          jumpi\n          dup1\n          0xdd62ed3e\n          eq\n          tag_17\n          jumpi\n          dup1\n          0xf2fde38b\n          eq\n          tag_18\n          jumpi\n          0x00\n          dup1\n          revert\n        tag_20:\n          dup1\n          0x70a08231\n          eq\n          tag_11\n          jumpi\n          dup1\n          0x715018a6\n          eq\n          tag_12\n          jumpi\n          dup1\n          0x8da5cb5b\n          eq\n          tag_13\n          jumpi\n          dup1\n          0x95d89b41\n          eq\n          tag_14\n          jumpi\n          0x00\n          dup1\n          revert\n        tag_19:\n          dup1\n          0x313ce567\n          gt\n          tag_21\n          jumpi\n          dup1\n          0x313ce567\n          eq\n          tag_7\n          jumpi\n          dup1\n          0x40c10f19\n          eq\n          tag_8\n          jumpi\n          dup1\n          0x4cd88b76\n          eq\n          tag_9\n          jumpi\n          dup1\n          0x58e792ee\n          eq\n          tag_10\n          jumpi\n          0x00\n          dup1\n          revert\n        tag_21:\n          dup1\n          0x06fdde03\n          eq\n          tag_3\n          jumpi\n          dup1\n          0x095ea7b3\n          eq\n          tag_4\n          jumpi\n          dup1\n          0x18160ddd\n          eq\n          tag_5\n          jumpi\n          dup1\n          0x23b872dd\n          eq\n          tag_6\n          jumpi\n        tag_2:\n          0x00\n          dup1\n          revert\n            /* \"contracts/token factory/CustomToken.sol\":827:923  function name() public view override returns (string memory) {... */\n        tag_3:\n          tag_22\n          tag_23\n          jump\t// in\n        tag_22:\n          mload(0x40)\n          tag_24\n          swap2\n          swap1\n          tag_25\n          jump\t// in\n        tag_24:\n          mload(0x40)\n          dup1\n          swap2\n          sub\n          swap1\n          return\n            /* \"@openzeppelin/contracts/token/ERC20/ERC20.sol\":4293:4479  function approve(address spender, uint256 value) public virtual returns (bool) {... */\n        tag_4:\n          tag_26\n          tag_27\n          calldatasize\n          0x04\n          tag_28\n          jump\t// in\n        tag_27:\n          tag_29\n          jump\t// in\n        tag_26:\n          mload(0x40)\n            /* \"#utility.yul\":1194:1208   */\n          swap1\n          iszero\n            /* \"#utility.yul\":1187:1209   */\n          iszero\n            /* \"#utility.yul\":1169:1210   */\n          dup2\n          mstore\n            /* \"#utility.yul\":1157:1159   */\n          0x20\n            /* \"#utility.yul\":1142:1160   */\n          add\n            /* \"@openzeppelin/contracts/token/ERC20/ERC20.sol\":4293:4479  function approve(address spender, uint256 value) public virtual returns (bool) {... */\n          tag_24\n            /* \"#utility.yul\":1029:1216   */\n          jump\n            /* \"@openzeppelin/contracts/token/ERC20/ERC20.sol\":3144:3241  function totalSupply() public view virtual returns (uint256) {... */\n        tag_5:\n            /* \"@openzeppelin/contracts/token/ERC20/ERC20.sol\":3222:3234  _totalSupply */\n          sload(0x02)\n            /* \"@openzeppelin/contracts/token/ERC20/ERC20.sol\":3144:3241  function totalSupply() public view virtual returns (uint256) {... */\n        tag_32:\n          mload(0x40)\n            /* \"#utility.yul\":1367:1392   */\n          swap1\n          dup2\n          mstore\n            /* \"#utility.yul\":1355:1357   */\n          0x20\n            /* \"#utility.yul\":1340:1358   */\n          add\n            /* \"@openzeppelin/contracts/token/ERC20/ERC20.sol\":3144:3241  function totalSupply() public view virtual returns (uint256) {... */\n          tag_24\n            /* \"#utility.yul\":1221:1398   */\n          jump\n            /* \"@openzeppelin/contracts/token/ERC20/ERC20.sol\":5039:5283  function transferFrom(address from, address to, uint256 value) public virtual returns (bool) {... */\n        tag_6:\n          tag_26\n          tag_37\n          calldatasize\n          0x04\n          tag_38\n          jump\t// in\n        tag_37:\n          tag_39\n          jump\t// in\n            /* \"@openzeppelin/contracts/token/ERC20/ERC20.sol\":3002:3084  function decimals() public view virtual returns (uint8) {... */\n        tag_7:\n          mload(0x40)\n            /* \"@openzeppelin/contracts/token/ERC20/ERC20.sol\":3075:3077  18 */\n          0x12\n            /* \"#utility.yul\":1924:1960   */\n          dup2\n          mstore\n            /* \"#utility.yul\":1912:1914   */\n          0x20\n            /* \"#utility.yul\":1897:1915   */\n          add\n            /* \"@openzeppelin/contracts/token/ERC20/ERC20.sol\":3002:3084  function decimals() public view virtual returns (uint8) {... */\n          tag_24\n            /* \"#utility.yul\":1782:1966   */\n          jump\n            /* \"contracts/token factory/CustomToken.sol\":1098:1193  function mint(address to, uint256 amount) external onlyOwner {... */\n        tag_8:\n          tag_45\n          tag_46\n          calldatasize\n          0x04\n          tag_28\n          jump\t// in\n        tag_46:\n          tag_47\n          jump\t// in\n        tag_45:\n          stop\n            /* \"contracts/token factory/CustomToken.sol\":525:751  function initialize(string memory name, string memory symbol) external {... */\n        tag_9:\n          tag_45\n          tag_49\n          calldatasize\n          0x04\n          tag_50\n          jump\t// in\n        tag_49:\n          tag_51\n          jump\t// in\n            /* \"contracts/token factory/CustomToken.sol\":1265:1367  function setImageURL(string memory _imageURL) external onlyOwner {... */\n        tag_10:\n          tag_45\n          tag_53\n          calldatasize\n          0x04\n          tag_54\n          jump\t// in\n        tag_53:\n          tag_55\n          jump\t// in\n            /* \"@openzeppelin/contracts/token/ERC20/ERC20.sol\":3299:3415  function balanceOf(address account) public view virtual returns (uint256) {... */\n        tag_11:\n          tag_32\n          tag_57\n          calldatasize\n          0x04\n          tag_58\n          jump\t// in\n        tag_57:\n          sub(shl(0xa0, 0x01), 0x01)\n            /* \"@openzeppelin/contracts/token/ERC20/ERC20.sol\":3390:3408  _balances[account] */\n          and\n            /* \"@openzeppelin/contracts/token/ERC20/ERC20.sol\":3364:3371  uint256 */\n          0x00\n            /* \"@openzeppelin/contracts/token/ERC20/ERC20.sol\":3390:3408  _balances[account] */\n          swap1\n          dup2\n          mstore\n          0x20\n          dup2\n          swap1\n          mstore\n          0x40\n          swap1\n          keccak256\n          sload\n          swap1\n            /* \"@openzeppelin/contracts/token/ERC20/ERC20.sol\":3299:3415  function balanceOf(address account) public view virtual returns (uint256) {... */\n          jump\n            /* \"@openzeppelin/contracts/access/Ownable.sol\":2293:2394  function renounceOwnership() public virtual onlyOwner {... */\n        tag_12:\n          tag_45\n          tag_62\n          jump\t// in\n            /* \"@openzeppelin/contracts/access/Ownable.sol\":1638:1723  function owner() public view virtual returns (address) {... */\n        tag_13:\n            /* \"@openzeppelin/contracts/access/Ownable.sol\":1710:1716  _owner */\n          sload(0x05)\n            /* \"@openzeppelin/contracts/access/Ownable.sol\":1638:1723  function owner() public view virtual returns (address) {... */\n          mload(0x40)\n          sub(shl(0xa0, 0x01), 0x01)\n            /* \"@openzeppelin/contracts/access/Ownable.sol\":1710:1716  _owner */\n          swap1\n          swap2\n          and\n            /* \"#utility.yul\":4041:4092   */\n          dup2\n          mstore\n            /* \"#utility.yul\":4029:4031   */\n          0x20\n            /* \"#utility.yul\":4014:4032   */\n          add\n            /* \"@openzeppelin/contracts/access/Ownable.sol\":1638:1723  function owner() public view virtual returns (address) {... */\n          tag_24\n            /* \"#utility.yul\":3895:4098   */\n          jump\n            /* \"contracts/token factory/CustomToken.sol\":929:1029  function symbol() public view override returns (string memory) {... */\n        tag_14:\n          tag_22\n          tag_68\n          jump\t// in\n            /* \"@openzeppelin/contracts/token/ERC20/ERC20.sol\":3610:3788  function transfer(address to, uint256 value) public virtual returns (bool) {... */\n        tag_15:\n          tag_26\n          tag_71\n          calldatasize\n          0x04\n          tag_28\n          jump\t// in\n        tag_71:\n          tag_72\n          jump\t// in\n            /* \"contracts/token factory/CustomToken.sol\":309:331  string public imageURL */\n        tag_16:\n          tag_22\n          tag_75\n          jump\t// in\n            /* \"@openzeppelin/contracts/token/ERC20/ERC20.sol\":3846:3986  function allowance(address owner, address spender) public view virtual returns (uint256) {... */\n        tag_17:\n          tag_32\n          tag_78\n          calldatasize\n          0x04\n          tag_79\n          jump\t// in\n        tag_78:\n          sub(shl(0xa0, 0x01), 0x01)\n            /* \"@openzeppelin/contracts/token/ERC20/ERC20.sol\":3952:3970  _allowances[owner] */\n          swap2\n          dup3\n          and\n            /* \"@openzeppelin/contracts/token/ERC20/ERC20.sol\":3926:3933  uint256 */\n          0x00\n            /* \"@openzeppelin/contracts/token/ERC20/ERC20.sol\":3952:3970  _allowances[owner] */\n          swap1\n          dup2\n          mstore\n            /* \"@openzeppelin/contracts/token/ERC20/ERC20.sol\":3952:3963  _allowances */\n          0x01\n            /* \"@openzeppelin/contracts/token/ERC20/ERC20.sol\":3952:3970  _allowances[owner] */\n          0x20\n          swap1\n          dup2\n          mstore\n          0x40\n          dup1\n          dup4\n          keccak256\n            /* \"@openzeppelin/contracts/token/ERC20/ERC20.sol\":3952:3979  _allowances[owner][spender] */\n          swap4\n          swap1\n          swap5\n          and\n          dup3\n          mstore\n          swap2\n          swap1\n          swap2\n          mstore\n          keccak256\n          sload\n          swap1\n            /* \"@openzeppelin/contracts/token/ERC20/ERC20.sol\":3846:3986  function allowance(address owner, address spender) public view virtual returns (uint256) {... */\n          jump\n            /* \"@openzeppelin/contracts/access/Ownable.sol\":2543:2758  function transferOwnership(address newOwner) public virtual onlyOwner {... */\n        tag_18:\n          tag_45\n          tag_83\n          calldatasize\n          0x04\n          tag_58\n          jump\t// in\n        tag_83:\n          tag_84\n          jump\t// in\n            /* \"contracts/token factory/CustomToken.sol\":827:923  function name() public view override returns (string memory) {... */\n        tag_23:\n            /* \"contracts/token factory/CustomToken.sol\":873:886  string memory */\n          0x60\n            /* \"contracts/token factory/CustomToken.sol\":905:916  _customName */\n          0x06\n            /* \"contracts/token factory/CustomToken.sol\":898:916  return _customName */\n          dup1\n          sload\n          tag_86\n          swap1\n          tag_87\n          jump\t// in\n        tag_86:\n          dup1\n          0x1f\n          add\n          0x20\n          dup1\n          swap2\n          div\n          mul\n          0x20\n          add\n          mload(0x40)\n          swap1\n          dup2\n          add\n          0x40\n          mstore\n          dup1\n          swap3\n          swap2\n          swap1\n          dup2\n          dup2\n          mstore\n          0x20\n          add\n          dup3\n          dup1\n          sload\n          tag_88\n          swap1\n          tag_87\n          jump\t// in\n        tag_88:\n          dup1\n          iszero\n          tag_89\n          jumpi\n          dup1\n          0x1f\n          lt\n          tag_90\n          jumpi\n          0x0100\n          dup1\n          dup4\n          sload\n          div\n          mul\n          dup4\n          mstore\n          swap2\n          0x20\n          add\n          swap2\n          jump(tag_89)\n        tag_90:\n          dup3\n          add\n          swap2\n          swap1\n          0x00\n          mstore\n          keccak256(0x00, 0x20)\n          swap1\n        tag_91:\n          dup2\n          sload\n          dup2\n          mstore\n          swap1\n          0x01\n          add\n          swap1\n          0x20\n          add\n          dup1\n          dup4\n          gt\n          tag_91\n          jumpi\n          dup3\n          swap1\n          sub\n          0x1f\n          and\n          dup3\n          add\n          swap2\n        tag_89:\n          pop\n          pop\n          pop\n          pop\n          pop\n          swap1\n          pop\n            /* \"contracts/token factory/CustomToken.sol\":827:923  function name() public view override returns (string memory) {... */\n          swap1\n          jump\t// out\n            /* \"@openzeppelin/contracts/token/ERC20/ERC20.sol\":4293:4479  function approve(address spender, uint256 value) public virtual returns (bool) {... */\n        tag_29:\n            /* \"@openzeppelin/contracts/token/ERC20/ERC20.sol\":4366:4370  bool */\n          0x00\n            /* \"@openzeppelin/contracts/utils/Context.sol\":735:745  msg.sender */\n          caller\n            /* \"@openzeppelin/contracts/token/ERC20/ERC20.sol\":4420:4451  _approve(owner, spender, value) */\n          tag_95\n            /* \"@openzeppelin/contracts/utils/Context.sol\":735:745  msg.sender */\n          dup2\n            /* \"@openzeppelin/contracts/token/ERC20/ERC20.sol\":4436:4443  spender */\n          dup6\n            /* \"@openzeppelin/contracts/token/ERC20/ERC20.sol\":4445:4450  value */\n          dup6\n            /* \"@openzeppelin/contracts/token/ERC20/ERC20.sol\":4420:4428  _approve */\n          tag_96\n            /* \"@openzeppelin/contracts/token/ERC20/ERC20.sol\":4420:4451  _approve(owner, spender, value) */\n          jump\t// in\n        tag_95:\n            /* \"@openzeppelin/contracts/token/ERC20/ERC20.sol\":4468:4472  true */\n          0x01\n            /* \"@openzeppelin/contracts/token/ERC20/ERC20.sol\":4461:4472  return true */\n          swap2\n          pop\n          pop\n            /* \"@openzeppelin/contracts/token/ERC20/ERC20.sol\":4293:4479  function approve(address spender, uint256 value) public virtual returns (bool) {... */\n        tag_92:\n          swap3\n          swap2\n          pop\n          pop\n          jump\t// out\n            /* \"@openzeppelin/contracts/token/ERC20/ERC20.sol\":5039:5283  function transferFrom(address from, address to, uint256 value) public virtual returns (bool) {... */\n        tag_39:\n            /* \"@openzeppelin/contracts/token/ERC20/ERC20.sol\":5126:5130  bool */\n          0x00\n            /* \"@openzeppelin/contracts/utils/Context.sol\":735:745  msg.sender */\n          caller\n            /* \"@openzeppelin/contracts/token/ERC20/ERC20.sol\":5182:5219  _spendAllowance(from, spender, value) */\n          tag_100\n            /* \"@openzeppelin/contracts/token/ERC20/ERC20.sol\":5198:5202  from */\n          dup6\n            /* \"@openzeppelin/contracts/utils/Context.sol\":735:745  msg.sender */\n          dup3\n            /* \"@openzeppelin/contracts/token/ERC20/ERC20.sol\":5213:5218  value */\n          dup6\n            /* \"@openzeppelin/contracts/token/ERC20/ERC20.sol\":5182:5197  _spendAllowance */\n          tag_101\n            /* \"@openzeppelin/contracts/token/ERC20/ERC20.sol\":5182:5219  _spendAllowance(from, spender, value) */\n          jump\t// in\n        tag_100:\n            /* \"@openzeppelin/contracts/token/ERC20/ERC20.sol\":5229:5255  _transfer(from, to, value) */\n          tag_102\n            /* \"@openzeppelin/contracts/token/ERC20/ERC20.sol\":5239:5243  from */\n          dup6\n            /* \"@openzeppelin/contracts/token/ERC20/ERC20.sol\":5245:5247  to */\n          dup6\n            /* \"@openzeppelin/contracts/token/ERC20/ERC20.sol\":5249:5254  value */\n          dup6\n            /* \"@openzeppelin/contracts/token/ERC20/ERC20.sol\":5229:5238  _transfer */\n          tag_103\n            /* \"@openzeppelin/contracts/token/ERC20/ERC20.sol\":5229:5255  _transfer(from, to, value) */\n          jump\t// in\n        tag_102:\n          pop\n            /* \"@openzeppelin/contracts/token/ERC20/ERC20.sol\":5272:5276  true */\n          0x01\n          swap5\n            /* \"@openzeppelin/contracts/token/ERC20/ERC20.sol\":5039:5283  function transferFrom(address from, address to, uint256 value) public virtual returns (bool) {... */\n          swap4\n          pop\n          pop\n          pop\n          pop\n          jump\t// out\n            /* \"contracts/token factory/CustomToken.sol\":1098:1193  function mint(address to, uint256 amount) external onlyOwner {... */\n        tag_47:\n            /* \"@openzeppelin/contracts/access/Ownable.sol\":1531:1544  _checkOwner() */\n          tag_106\n            /* \"@openzeppelin/contracts/access/Ownable.sol\":1531:1542  _checkOwner */\n          tag_107\n            /* \"@openzeppelin/contracts/access/Ownable.sol\":1531:1544  _checkOwner() */\n          jump\t// in\n        tag_106:\n            /* \"contracts/token factory/CustomToken.sol\":1169:1186  _mint(to, amount) */\n          tag_109\n            /* \"contracts/token factory/CustomToken.sol\":1175:1177  to */\n          dup3\n            /* \"contracts/token factory/CustomToken.sol\":1179:1185  amount */\n          dup3\n            /* \"contracts/token factory/CustomToken.sol\":1169:1174  _mint */\n          tag_110\n            /* \"contracts/token factory/CustomToken.sol\":1169:1186  _mint(to, amount) */\n          jump\t// in\n        tag_109:\n            /* \"contracts/token factory/CustomToken.sol\":1098:1193  function mint(address to, uint256 amount) external onlyOwner {... */\n          pop\n          pop\n          jump\t// out\n            /* \"contracts/token factory/CustomToken.sol\":525:751  function initialize(string memory name, string memory symbol) external {... */\n        tag_51:\n            /* \"contracts/token factory/CustomToken.sol\":615:626  initialized */\n          and(0xff, sload(0x08))\n            /* \"contracts/token factory/CustomToken.sol\":614:626  !initialized */\n          iszero\n            /* \"contracts/token factory/CustomToken.sol\":606:656  require(!initialized, \"Token already initialized\") */\n          tag_112\n          jumpi\n          mload(0x40)\n          shl(0xe5, 0x461bcd)\n          dup2\n          mstore\n            /* \"#utility.yul\":4955:4957   */\n          0x20\n            /* \"contracts/token factory/CustomToken.sol\":606:656  require(!initialized, \"Token already initialized\") */\n          0x04\n          dup3\n          add\n            /* \"#utility.yul\":4937:4958   */\n          mstore\n            /* \"#utility.yul\":4994:4996   */\n          0x19\n            /* \"#utility.yul\":4974:4992   */\n          0x24\n          dup3\n          add\n            /* \"#utility.yul\":4967:4997   */\n          mstore\n            /* \"#utility.yul\":5033:5060   */\n          0x546f6b656e20616c726561647920696e697469616c697a656400000000000000\n            /* \"#utility.yul\":5013:5031   */\n          0x44\n          dup3\n          add\n            /* \"#utility.yul\":5006:5061   */\n          mstore\n            /* \"#utility.yul\":5078:5096   */\n          0x64\n          add\n            /* \"contracts/token factory/CustomToken.sol\":606:656  require(!initialized, \"Token already initialized\") */\n        tag_113:\n          mload(0x40)\n          dup1\n          swap2\n          sub\n          swap1\n          revert\n        tag_112:\n            /* \"contracts/token factory/CustomToken.sol\":666:677  _customName */\n          0x06\n            /* \"contracts/token factory/CustomToken.sol\":666:684  _customName = name */\n          tag_115\n            /* \"contracts/token factory/CustomToken.sol\":680:684  name */\n          dup4\n            /* \"contracts/token factory/CustomToken.sol\":666:677  _customName */\n          dup3\n            /* \"contracts/token factory/CustomToken.sol\":666:684  _customName = name */\n          tag_116\n          jump\t// in\n        tag_115:\n          pop\n            /* \"contracts/token factory/CustomToken.sol\":694:707  _customSymbol */\n          0x07\n            /* \"contracts/token factory/CustomToken.sol\":694:716  _customSymbol = symbol */\n          tag_117\n            /* \"contracts/token factory/CustomToken.sol\":710:716  symbol */\n          dup3\n            /* \"contracts/token factory/CustomToken.sol\":694:707  _customSymbol */\n          dup3\n            /* \"contracts/token factory/CustomToken.sol\":694:716  _customSymbol = symbol */\n          tag_116\n          jump\t// in\n        tag_117:\n          pop\n          pop\n            /* \"contracts/token factory/CustomToken.sol\":726:737  initialized */\n          0x08\n            /* \"contracts/token factory/CustomToken.sol\":726:744  initialized = true */\n          dup1\n          sload\n          not(0xff)\n          and\n            /* \"contracts/token factory/CustomToken.sol\":740:744  true */\n          0x01\n            /* \"contracts/token factory/CustomToken.sol\":726:744  initialized = true */\n          or\n          swap1\n          sstore\n          pop\n            /* \"contracts/token factory/CustomToken.sol\":525:751  function initialize(string memory name, string memory symbol) external {... */\n          jump\t// out\n            /* \"contracts/token factory/CustomToken.sol\":1265:1367  function setImageURL(string memory _imageURL) external onlyOwner {... */\n        tag_55:\n            /* \"@openzeppelin/contracts/access/Ownable.sol\":1531:1544  _checkOwner() */\n          tag_119\n            /* \"@openzeppelin/contracts/access/Ownable.sol\":1531:1542  _checkOwner */\n          tag_107\n            /* \"@openzeppelin/contracts/access/Ownable.sol\":1531:1544  _checkOwner() */\n          jump\t// in\n        tag_119:\n            /* \"contracts/token factory/CustomToken.sol\":1340:1348  imageURL */\n          0x09\n            /* \"contracts/token factory/CustomToken.sol\":1340:1360  imageURL = _imageURL */\n          tag_109\n            /* \"contracts/token factory/CustomToken.sol\":1351:1360  _imageURL */\n          dup3\n            /* \"contracts/token factory/CustomToken.sol\":1340:1348  imageURL */\n          dup3\n            /* \"contracts/token factory/CustomToken.sol\":1340:1360  imageURL = _imageURL */\n          tag_116\n          jump\t// in\n            /* \"@openzeppelin/contracts/access/Ownable.sol\":2293:2394  function renounceOwnership() public virtual onlyOwner {... */\n        tag_62:\n            /* \"@openzeppelin/contracts/access/Ownable.sol\":1531:1544  _checkOwner() */\n          tag_124\n            /* \"@openzeppelin/contracts/access/Ownable.sol\":1531:1542  _checkOwner */\n          tag_107\n            /* \"@openzeppelin/contracts/access/Ownable.sol\":1531:1544  _checkOwner() */\n          jump\t// in\n        tag_124:\n            /* \"@openzeppelin/contracts/access/Ownable.sol\":2357:2387  _transferOwnership(address(0)) */\n          tag_126\n            /* \"@openzeppelin/contracts/access/Ownable.sol\":2384:2385  0 */\n          0x00\n            /* \"@openzeppelin/contracts/access/Ownable.sol\":2357:2375  _transferOwnership */\n          tag_127\n            /* \"@openzeppelin/contracts/access/Ownable.sol\":2357:2387  _transferOwnership(address(0)) */\n          jump\t// in\n        tag_126:\n            /* \"@openzeppelin/contracts/access/Ownable.sol\":2293:2394  function renounceOwnership() public virtual onlyOwner {... */\n          jump\t// out\n            /* \"contracts/token factory/CustomToken.sol\":929:1029  function symbol() public view override returns (string memory) {... */\n        tag_68:\n            /* \"contracts/token factory/CustomToken.sol\":977:990  string memory */\n          0x60\n            /* \"contracts/token factory/CustomToken.sol\":1009:1022  _customSymbol */\n          0x07\n            /* \"contracts/token factory/CustomToken.sol\":1002:1022  return _customSymbol */\n          dup1\n          sload\n          tag_86\n          swap1\n          tag_87\n          jump\t// in\n            /* \"@openzeppelin/contracts/token/ERC20/ERC20.sol\":3610:3788  function transfer(address to, uint256 value) public virtual returns (bool) {... */\n        tag_72:\n            /* \"@openzeppelin/contracts/token/ERC20/ERC20.sol\":3679:3683  bool */\n          0x00\n            /* \"@openzeppelin/contracts/utils/Context.sol\":735:745  msg.sender */\n          caller\n            /* \"@openzeppelin/contracts/token/ERC20/ERC20.sol\":3733:3760  _transfer(owner, to, value) */\n          tag_95\n            /* \"@openzeppelin/contracts/utils/Context.sol\":735:745  msg.sender */\n          dup2\n            /* \"@openzeppelin/contracts/token/ERC20/ERC20.sol\":3750:3752  to */\n          dup6\n            /* \"@openzeppelin/contracts/token/ERC20/ERC20.sol\":3754:3759  value */\n          dup6\n            /* \"@openzeppelin/contracts/token/ERC20/ERC20.sol\":3733:3742  _transfer */\n          tag_103\n            /* \"@openzeppelin/contracts/token/ERC20/ERC20.sol\":3733:3760  _transfer(owner, to, value) */\n          jump\t// in\n            /* \"contracts/token factory/CustomToken.sol\":309:331  string public imageURL */\n        tag_75:\n          0x09\n          dup1\n          sload\n          tag_138\n          swap1\n          tag_87\n          jump\t// in\n        tag_138:\n          dup1\n          0x1f\n          add\n          0x20\n          dup1\n          swap2\n          div\n          mul\n          0x20\n          add\n          mload(0x40)\n          swap1\n          dup2\n          add\n          0x40\n          mstore\n          dup1\n          swap3\n          swap2\n          swap1\n          dup2\n          dup2\n          mstore\n          0x20\n          add\n          dup3\n          dup1\n          sload\n          tag_139\n          swap1\n          tag_87\n          jump\t// in\n        tag_139:\n          dup1\n          iszero\n          tag_140\n          jumpi\n          dup1\n          0x1f\n          lt\n          tag_141\n          jumpi\n          0x0100\n          dup1\n          dup4\n          sload\n          div\n          mul\n          dup4\n          mstore\n          swap2\n          0x20\n          add\n          swap2\n          jump(tag_140)\n        tag_141:\n          dup3\n          add\n          swap2\n          swap1\n          0x00\n          mstore\n          keccak256(0x00, 0x20)\n          swap1\n        tag_142:\n          dup2\n          sload\n          dup2\n          mstore\n          swap1\n          0x01\n          add\n          swap1\n          0x20\n          add\n          dup1\n          dup4\n          gt\n          tag_142\n          jumpi\n          dup3\n          swap1\n          sub\n          0x1f\n          and\n          dup3\n          add\n          swap2\n        tag_140:\n          pop\n          pop\n          pop\n          pop\n          pop\n          dup2\n          jump\t// out\n            /* \"@openzeppelin/contracts/access/Ownable.sol\":2543:2758  function transferOwnership(address newOwner) public virtual onlyOwner {... */\n        tag_84:\n            /* \"@openzeppelin/contracts/access/Ownable.sol\":1531:1544  _checkOwner() */\n          tag_145\n            /* \"@openzeppelin/contracts/access/Ownable.sol\":1531:1542  _checkOwner */\n          tag_107\n            /* \"@openzeppelin/contracts/access/Ownable.sol\":1531:1544  _checkOwner() */\n          jump\t// in\n        tag_145:\n          sub(shl(0xa0, 0x01), 0x01)\n            /* \"@openzeppelin/contracts/access/Ownable.sol\":2627:2649  newOwner == address(0) */\n          dup2\n          and\n            /* \"@openzeppelin/contracts/access/Ownable.sol\":2623:2714  if (newOwner == address(0)) {... */\n          tag_147\n          jumpi\n            /* \"@openzeppelin/contracts/access/Ownable.sol\":2672:2703  OwnableInvalidOwner(address(0)) */\n          mload(0x40)\n          shl(0xe0, 0x1e4fbdf7)\n          dup2\n          mstore\n            /* \"@openzeppelin/contracts/access/Ownable.sol\":2700:2701  0 */\n          0x00\n            /* \"@openzeppelin/contracts/access/Ownable.sol\":2672:2703  OwnableInvalidOwner(address(0)) */\n          0x04\n          dup3\n          add\n            /* \"#utility.yul\":4041:4092   */\n          mstore\n            /* \"#utility.yul\":4014:4032   */\n          0x24\n          add\n            /* \"@openzeppelin/contracts/access/Ownable.sol\":2672:2703  OwnableInvalidOwner(address(0)) */\n          tag_113\n            /* \"#utility.yul\":3895:4098   */\n          jump\n            /* \"@openzeppelin/contracts/access/Ownable.sol\":2623:2714  if (newOwner == address(0)) {... */\n        tag_147:\n            /* \"@openzeppelin/contracts/access/Ownable.sol\":2723:2751  _transferOwnership(newOwner) */\n          tag_149\n            /* \"@openzeppelin/contracts/access/Ownable.sol\":2742:2750  newOwner */\n          dup2\n            /* \"@openzeppelin/contracts/access/Ownable.sol\":2723:2741  _transferOwnership */\n          tag_127\n            /* \"@openzeppelin/contracts/access/Ownable.sol\":2723:2751  _transferOwnership(newOwner) */\n          jump\t// in\n        tag_149:\n            /* \"@openzeppelin/contracts/access/Ownable.sol\":2543:2758  function transferOwnership(address newOwner) public virtual onlyOwner {... */\n          pop\n          jump\t// out\n            /* \"@openzeppelin/contracts/token/ERC20/ERC20.sol\":8989:9117  function _approve(address owner, address spender, uint256 value) internal {... */\n        tag_96:\n            /* \"@openzeppelin/contracts/token/ERC20/ERC20.sol\":9073:9110  _approve(owner, spender, value, true) */\n          tag_152\n            /* \"@openzeppelin/contracts/token/ERC20/ERC20.sol\":9082:9087  owner */\n          dup4\n            /* \"@openzeppelin/contracts/token/ERC20/ERC20.sol\":9089:9096  spender */\n          dup4\n            /* \"@openzeppelin/contracts/token/ERC20/ERC20.sol\":9098:9103  value */\n          dup4\n            /* \"@openzeppelin/contracts/token/ERC20/ERC20.sol\":9105:9109  true */\n          0x01\n            /* \"@openzeppelin/contracts/token/ERC20/ERC20.sol\":9073:9081  _approve */\n          tag_153\n            /* \"@openzeppelin/contracts/token/ERC20/ERC20.sol\":9073:9110  _approve(owner, spender, value, true) */\n          jump\t// in\n        tag_152:\n            /* \"@openzeppelin/contracts/token/ERC20/ERC20.sol\":8989:9117  function _approve(address owner, address spender, uint256 value) internal {... */\n          pop\n          pop\n          pop\n          jump\t// out\n            /* \"@openzeppelin/contracts/token/ERC20/ERC20.sol\":10663:11140  function _spendAllowance(address owner, address spender, uint256 value) internal virtual {... */\n        tag_101:\n          sub(shl(0xa0, 0x01), 0x01)\n            /* \"@openzeppelin/contracts/token/ERC20/ERC20.sol\":3952:3970  _allowances[owner] */\n          dup4\n          dup2\n          and\n            /* \"@openzeppelin/contracts/token/ERC20/ERC20.sol\":10762:10786  uint256 currentAllowance */\n          0x00\n            /* \"@openzeppelin/contracts/token/ERC20/ERC20.sol\":3952:3970  _allowances[owner] */\n          swap1\n          dup2\n          mstore\n            /* \"@openzeppelin/contracts/token/ERC20/ERC20.sol\":3952:3963  _allowances */\n          0x01\n            /* \"@openzeppelin/contracts/token/ERC20/ERC20.sol\":3952:3970  _allowances[owner] */\n          0x20\n          swap1\n          dup2\n          mstore\n          0x40\n          dup1\n          dup4\n          keccak256\n            /* \"@openzeppelin/contracts/token/ERC20/ERC20.sol\":3952:3979  _allowances[owner][spender] */\n          swap4\n          dup7\n          and\n          dup4\n          mstore\n          swap3\n          swap1\n          mstore\n          keccak256\n          sload\n          not(0x00)\n            /* \"@openzeppelin/contracts/token/ERC20/ERC20.sol\":10828:10865  currentAllowance != type(uint256).max */\n          dup2\n          eq\n            /* \"@openzeppelin/contracts/token/ERC20/ERC20.sol\":10824:11134  if (currentAllowance != type(uint256).max) {... */\n          tag_160\n          jumpi\n            /* \"@openzeppelin/contracts/token/ERC20/ERC20.sol\":10904:10909  value */\n          dup2\n            /* \"@openzeppelin/contracts/token/ERC20/ERC20.sol\":10885:10901  currentAllowance */\n          dup2\n            /* \"@openzeppelin/contracts/token/ERC20/ERC20.sol\":10885:10909  currentAllowance < value */\n          lt\n            /* \"@openzeppelin/contracts/token/ERC20/ERC20.sol\":10881:11011  if (currentAllowance < value) {... */\n          iszero\n          tag_157\n          jumpi\n            /* \"@openzeppelin/contracts/token/ERC20/ERC20.sol\":10936:10996  ERC20InsufficientAllowance(spender, currentAllowance, value) */\n          mload(0x40)\n          shl(0xe1, 0x7dc7a0d9)\n          dup2\n          mstore\n          sub(shl(0xa0, 0x01), 0x01)\n            /* \"#utility.yul\":7451:7483   */\n          dup5\n          and\n            /* \"@openzeppelin/contracts/token/ERC20/ERC20.sol\":10936:10996  ERC20InsufficientAllowance(spender, currentAllowance, value) */\n          0x04\n          dup3\n          add\n            /* \"#utility.yul\":7433:7484   */\n          mstore\n            /* \"#utility.yul\":7500:7518   */\n          0x24\n          dup2\n          add\n            /* \"#utility.yul\":7493:7527   */\n          dup3\n          swap1\n          mstore\n            /* \"#utility.yul\":7543:7561   */\n          0x44\n          dup2\n          add\n            /* \"#utility.yul\":7536:7570   */\n          dup4\n          swap1\n          mstore\n            /* \"#utility.yul\":7406:7424   */\n          0x64\n          add\n            /* \"@openzeppelin/contracts/token/ERC20/ERC20.sol\":10936:10996  ERC20InsufficientAllowance(spender, currentAllowance, value) */\n          tag_113\n            /* \"#utility.yul\":7231:7576   */\n          jump\n            /* \"@openzeppelin/contracts/token/ERC20/ERC20.sol\":10881:11011  if (currentAllowance < value) {... */\n        tag_157:\n            /* \"@openzeppelin/contracts/token/ERC20/ERC20.sol\":11052:11109  _approve(owner, spender, currentAllowance - value, false) */\n          tag_160\n            /* \"@openzeppelin/contracts/token/ERC20/ERC20.sol\":11061:11066  owner */\n          dup5\n            /* \"@openzeppelin/contracts/token/ERC20/ERC20.sol\":11068:11075  spender */\n          dup5\n            /* \"@openzeppelin/contracts/token/ERC20/ERC20.sol\":11096:11101  value */\n          dup5\n            /* \"@openzeppelin/contracts/token/ERC20/ERC20.sol\":11077:11093  currentAllowance */\n          dup5\n            /* \"@openzeppelin/contracts/token/ERC20/ERC20.sol\":11077:11101  currentAllowance - value */\n          sub\n            /* \"@openzeppelin/contracts/token/ERC20/ERC20.sol\":11103:11108  false */\n          0x00\n            /* \"@openzeppelin/contracts/token/ERC20/ERC20.sol\":11052:11060  _approve */\n          tag_153\n            /* \"@openzeppelin/contracts/token/ERC20/ERC20.sol\":11052:11109  _approve(owner, spender, currentAllowance - value, false) */\n          jump\t// in\n        tag_160:\n            /* \"@openzeppelin/contracts/token/ERC20/ERC20.sol\":10752:11140  {... */\n          pop\n            /* \"@openzeppelin/contracts/token/ERC20/ERC20.sol\":10663:11140  function _spendAllowance(address owner, address spender, uint256 value) internal virtual {... */\n          pop\n          pop\n          pop\n          jump\t// out\n            /* \"@openzeppelin/contracts/token/ERC20/ERC20.sol\":5656:5956  function _transfer(address from, address to, uint256 value) internal {... */\n        tag_103:\n          sub(shl(0xa0, 0x01), 0x01)\n            /* \"@openzeppelin/contracts/token/ERC20/ERC20.sol\":5739:5757  from == address(0) */\n          dup4\n          and\n            /* \"@openzeppelin/contracts/token/ERC20/ERC20.sol\":5735:5821  if (from == address(0)) {... */\n          tag_162\n          jumpi\n            /* \"@openzeppelin/contracts/token/ERC20/ERC20.sol\":5780:5810  ERC20InvalidSender(address(0)) */\n          mload(0x40)\n          shl(0xe1, 0x4b637e8f)\n          dup2\n          mstore\n            /* \"@openzeppelin/contracts/token/ERC20/ERC20.sol\":5807:5808  0 */\n          0x00\n            /* \"@openzeppelin/contracts/token/ERC20/ERC20.sol\":5780:5810  ERC20InvalidSender(address(0)) */\n          0x04\n          dup3\n          add\n            /* \"#utility.yul\":4041:4092   */\n          mstore\n            /* \"#utility.yul\":4014:4032   */\n          0x24\n          add\n            /* \"@openzeppelin/contracts/token/ERC20/ERC20.sol\":5780:5810  ERC20InvalidSender(address(0)) */\n          tag_113\n            /* \"#utility.yul\":3895:4098   */\n          jump\n            /* \"@openzeppelin/contracts/token/ERC20/ERC20.sol\":5735:5821  if (from == address(0)) {... */\n        tag_162:\n          sub(shl(0xa0, 0x01), 0x01)\n            /* \"@openzeppelin/contracts/token/ERC20/ERC20.sol\":5834:5850  to == address(0) */\n          dup3\n          and\n            /* \"@openzeppelin/contracts/token/ERC20/ERC20.sol\":5830:5916  if (to == address(0)) {... */\n          tag_164\n          jumpi\n            /* \"@openzeppelin/contracts/token/ERC20/ERC20.sol\":5873:5905  ERC20InvalidReceiver(address(0)) */\n          mload(0x40)\n          shl(0xe0, 0xec442f05)\n          dup2\n          mstore\n            /* \"@openzeppelin/contracts/token/ERC20/ERC20.sol\":5902:5903  0 */\n          0x00\n            /* \"@openzeppelin/contracts/token/ERC20/ERC20.sol\":5873:5905  ERC20InvalidReceiver(address(0)) */\n          0x04\n          dup3\n          add\n            /* \"#utility.yul\":4041:4092   */\n          mstore\n            /* \"#utility.yul\":4014:4032   */\n          0x24\n          add\n            /* \"@openzeppelin/contracts/token/ERC20/ERC20.sol\":5873:5905  ERC20InvalidReceiver(address(0)) */\n          tag_113\n            /* \"#utility.yul\":3895:4098   */\n          jump\n            /* \"@openzeppelin/contracts/token/ERC20/ERC20.sol\":5830:5916  if (to == address(0)) {... */\n        tag_164:\n            /* \"@openzeppelin/contracts/token/ERC20/ERC20.sol\":5925:5949  _update(from, to, value) */\n          tag_152\n            /* \"@openzeppelin/contracts/token/ERC20/ERC20.sol\":5933:5937  from */\n          dup4\n            /* \"@openzeppelin/contracts/token/ERC20/ERC20.sol\":5939:5941  to */\n          dup4\n            /* \"@openzeppelin/contracts/token/ERC20/ERC20.sol\":5943:5948  value */\n          dup4\n            /* \"@openzeppelin/contracts/token/ERC20/ERC20.sol\":5925:5932  _update */\n          tag_167\n            /* \"@openzeppelin/contracts/token/ERC20/ERC20.sol\":5925:5949  _update(from, to, value) */\n          jump\t// in\n            /* \"@openzeppelin/contracts/access/Ownable.sol\":1796:1958  function _checkOwner() internal view virtual {... */\n        tag_107:\n            /* \"@openzeppelin/contracts/access/Ownable.sol\":1710:1716  _owner */\n          and(sub(shl(0xa0, 0x01), 0x01), sload(0x05))\n            /* \"@openzeppelin/contracts/utils/Context.sol\":735:745  msg.sender */\n          caller\n            /* \"@openzeppelin/contracts/access/Ownable.sol\":1855:1878  owner() != _msgSender() */\n          eq\n            /* \"@openzeppelin/contracts/access/Ownable.sol\":1851:1952  if (owner() != _msgSender()) {... */\n          tag_126\n          jumpi\n            /* \"@openzeppelin/contracts/access/Ownable.sol\":1901:1941  OwnableUnauthorizedAccount(_msgSender()) */\n          mload(0x40)\n          shl(0xe0, 0x118cdaa7)\n          dup2\n          mstore\n            /* \"@openzeppelin/contracts/utils/Context.sol\":735:745  msg.sender */\n          caller\n            /* \"@openzeppelin/contracts/access/Ownable.sol\":1901:1941  OwnableUnauthorizedAccount(_msgSender()) */\n          0x04\n          dup3\n          add\n            /* \"#utility.yul\":4041:4092   */\n          mstore\n            /* \"#utility.yul\":4014:4032   */\n          0x24\n          add\n            /* \"@openzeppelin/contracts/access/Ownable.sol\":1901:1941  OwnableUnauthorizedAccount(_msgSender()) */\n          tag_113\n            /* \"#utility.yul\":3895:4098   */\n          jump\n            /* \"@openzeppelin/contracts/token/ERC20/ERC20.sol\":7721:7929  function _mint(address account, uint256 value) internal {... */\n        tag_110:\n          sub(shl(0xa0, 0x01), 0x01)\n            /* \"@openzeppelin/contracts/token/ERC20/ERC20.sol\":7791:7812  account == address(0) */\n          dup3\n          and\n            /* \"@openzeppelin/contracts/token/ERC20/ERC20.sol\":7787:7878  if (account == address(0)) {... */\n          tag_175\n          jumpi\n            /* \"@openzeppelin/contracts/token/ERC20/ERC20.sol\":7835:7867  ERC20InvalidReceiver(address(0)) */\n          mload(0x40)\n          shl(0xe0, 0xec442f05)\n          dup2\n          mstore\n            /* \"@openzeppelin/contracts/token/ERC20/ERC20.sol\":7864:7865  0 */\n          0x00\n            /* \"@openzeppelin/contracts/token/ERC20/ERC20.sol\":7835:7867  ERC20InvalidReceiver(address(0)) */\n          0x04\n          dup3\n          add\n            /* \"#utility.yul\":4041:4092   */\n          mstore\n            /* \"#utility.yul\":4014:4032   */\n          0x24\n          add\n            /* \"@openzeppelin/contracts/token/ERC20/ERC20.sol\":7835:7867  ERC20InvalidReceiver(address(0)) */\n          tag_113\n            /* \"#utility.yul\":3895:4098   */\n          jump\n            /* \"@openzeppelin/contracts/token/ERC20/ERC20.sol\":7787:7878  if (account == address(0)) {... */\n        tag_175:\n            /* \"@openzeppelin/contracts/token/ERC20/ERC20.sol\":7887:7922  _update(address(0), account, value) */\n          tag_109\n            /* \"@openzeppelin/contracts/token/ERC20/ERC20.sol\":7903:7904  0 */\n          0x00\n            /* \"@openzeppelin/contracts/token/ERC20/ERC20.sol\":7907:7914  account */\n          dup4\n            /* \"@openzeppelin/contracts/token/ERC20/ERC20.sol\":7916:7921  value */\n          dup4\n            /* \"@openzeppelin/contracts/token/ERC20/ERC20.sol\":7887:7894  _update */\n          tag_167\n            /* \"@openzeppelin/contracts/token/ERC20/ERC20.sol\":7887:7922  _update(address(0), account, value) */\n          jump\t// in\n            /* \"@openzeppelin/contracts/access/Ownable.sol\":2912:3099  function _transferOwnership(address newOwner) internal virtual {... */\n        tag_127:\n            /* \"@openzeppelin/contracts/access/Ownable.sol\":3004:3010  _owner */\n          0x05\n          dup1\n          sload\n          sub(shl(0xa0, 0x01), 0x01)\n            /* \"@openzeppelin/contracts/access/Ownable.sol\":3020:3037  _owner = newOwner */\n          dup4\n          dup2\n          and\n          not(sub(shl(0xa0, 0x01), 0x01))\n          dup4\n          and\n          dup2\n          or\n          swap1\n          swap4\n          sstore\n            /* \"@openzeppelin/contracts/access/Ownable.sol\":3052:3092  OwnershipTransferred(oldOwner, newOwner) */\n          mload(0x40)\n            /* \"@openzeppelin/contracts/access/Ownable.sol\":3004:3010  _owner */\n          swap2\n          and\n          swap2\n            /* \"@openzeppelin/contracts/access/Ownable.sol\":3020:3037  _owner = newOwner */\n          swap1\n            /* \"@openzeppelin/contracts/access/Ownable.sol\":3004:3010  _owner */\n          dup3\n          swap1\n            /* \"@openzeppelin/contracts/access/Ownable.sol\":3052:3092  OwnershipTransferred(oldOwner, newOwner) */\n          0x8be0079c531659141344cd1fd0a4f28419497f9722a3daafe3b4186f6b6457e0\n          swap1\n            /* \"@openzeppelin/contracts/access/Ownable.sol\":2985:3001  address oldOwner */\n          0x00\n          swap1\n            /* \"@openzeppelin/contracts/access/Ownable.sol\":3052:3092  OwnershipTransferred(oldOwner, newOwner) */\n          log3\n            /* \"@openzeppelin/contracts/access/Ownable.sol\":2975:3099  {... */\n          pop\n            /* \"@openzeppelin/contracts/access/Ownable.sol\":2912:3099  function _transferOwnership(address newOwner) internal virtual {... */\n          pop\n          jump\t// out\n            /* \"@openzeppelin/contracts/token/ERC20/ERC20.sol\":9949:10381  function _approve(address owner, address spender, uint256 value, bool emitEvent) internal virtual {... */\n        tag_153:\n          sub(shl(0xa0, 0x01), 0x01)\n            /* \"@openzeppelin/contracts/token/ERC20/ERC20.sol\":10061:10080  owner == address(0) */\n          dup5\n          and\n            /* \"@openzeppelin/contracts/token/ERC20/ERC20.sol\":10057:10146  if (owner == address(0)) {... */\n          tag_180\n          jumpi\n            /* \"@openzeppelin/contracts/token/ERC20/ERC20.sol\":10103:10135  ERC20InvalidApprover(address(0)) */\n          mload(0x40)\n          shl(0xe0, 0xe602df05)\n          dup2\n          mstore\n            /* \"@openzeppelin/contracts/token/ERC20/ERC20.sol\":10132:10133  0 */\n          0x00\n            /* \"@openzeppelin/contracts/token/ERC20/ERC20.sol\":10103:10135  ERC20InvalidApprover(address(0)) */\n          0x04\n          dup3\n          add\n            /* \"#utility.yul\":4041:4092   */\n          mstore\n            /* \"#utility.yul\":4014:4032   */\n          0x24\n          add\n            /* \"@openzeppelin/contracts/token/ERC20/ERC20.sol\":10103:10135  ERC20InvalidApprover(address(0)) */\n          tag_113\n            /* \"#utility.yul\":3895:4098   */\n          jump\n            /* \"@openzeppelin/contracts/token/ERC20/ERC20.sol\":10057:10146  if (owner == address(0)) {... */\n        tag_180:\n          sub(shl(0xa0, 0x01), 0x01)\n            /* \"@openzeppelin/contracts/token/ERC20/ERC20.sol\":10159:10180  spender == address(0) */\n          dup4\n          and\n            /* \"@openzeppelin/contracts/token/ERC20/ERC20.sol\":10155:10245  if (spender == address(0)) {... */\n          tag_182\n          jumpi\n            /* \"@openzeppelin/contracts/token/ERC20/ERC20.sol\":10203:10234  ERC20InvalidSpender(address(0)) */\n          mload(0x40)\n          shl(0xe1, 0x4a1406b1)\n          dup2\n          mstore\n            /* \"@openzeppelin/contracts/token/ERC20/ERC20.sol\":10231:10232  0 */\n          0x00\n            /* \"@openzeppelin/contracts/token/ERC20/ERC20.sol\":10203:10234  ERC20InvalidSpender(address(0)) */\n          0x04\n          dup3\n          add\n            /* \"#utility.yul\":4041:4092   */\n          mstore\n            /* \"#utility.yul\":4014:4032   */\n          0x24\n          add\n            /* \"@openzeppelin/contracts/token/ERC20/ERC20.sol\":10203:10234  ERC20InvalidSpender(address(0)) */\n          tag_113\n            /* \"#utility.yul\":3895:4098   */\n          jump\n            /* \"@openzeppelin/contracts/token/ERC20/ERC20.sol\":10155:10245  if (spender == address(0)) {... */\n        tag_182:\n          sub(shl(0xa0, 0x01), 0x01)\n            /* \"@openzeppelin/contracts/token/ERC20/ERC20.sol\":10254:10272  _allowances[owner] */\n          dup1\n          dup6\n          and\n          0x00\n          swap1\n          dup2\n          mstore\n            /* \"@openzeppelin/contracts/token/ERC20/ERC20.sol\":10254:10265  _allowances */\n          0x01\n            /* \"@openzeppelin/contracts/token/ERC20/ERC20.sol\":10254:10272  _allowances[owner] */\n          0x20\n          swap1\n          dup2\n          mstore\n          0x40\n          dup1\n          dup4\n          keccak256\n            /* \"@openzeppelin/contracts/token/ERC20/ERC20.sol\":10254:10281  _allowances[owner][spender] */\n          swap4\n          dup8\n          and\n          dup4\n          mstore\n          swap3\n          swap1\n          mstore\n          keccak256\n            /* \"@openzeppelin/contracts/token/ERC20/ERC20.sol\":10254:10289  _allowances[owner][spender] = value */\n          dup3\n          swap1\n          sstore\n            /* \"@openzeppelin/contracts/token/ERC20/ERC20.sol\":10299:10375  if (emitEvent) {... */\n          dup1\n          iszero\n          tag_160\n          jumpi\n            /* \"@openzeppelin/contracts/token/ERC20/ERC20.sol\":10349:10356  spender */\n          dup3\n          sub(shl(0xa0, 0x01), 0x01)\n            /* \"@openzeppelin/contracts/token/ERC20/ERC20.sol\":10333:10364  Approval(owner, spender, value) */\n          and\n            /* \"@openzeppelin/contracts/token/ERC20/ERC20.sol\":10342:10347  owner */\n          dup5\n          sub(shl(0xa0, 0x01), 0x01)\n            /* \"@openzeppelin/contracts/token/ERC20/ERC20.sol\":10333:10364  Approval(owner, spender, value) */\n          and\n          0x8c5be1e5ebec7d5bd14f71427d1e84f3dd0314c0f7b2291e5b200ac8c7c3b925\n            /* \"@openzeppelin/contracts/token/ERC20/ERC20.sol\":10358:10363  value */\n          dup5\n            /* \"@openzeppelin/contracts/token/ERC20/ERC20.sol\":10333:10364  Approval(owner, spender, value) */\n          mload(0x40)\n          tag_185\n          swap2\n            /* \"#utility.yul\":1367:1392   */\n          dup2\n          mstore\n            /* \"#utility.yul\":1355:1357   */\n          0x20\n            /* \"#utility.yul\":1340:1358   */\n          add\n          swap1\n            /* \"#utility.yul\":1221:1398   */\n          jump\n            /* \"@openzeppelin/contracts/token/ERC20/ERC20.sol\":10333:10364  Approval(owner, spender, value) */\n        tag_185:\n          mload(0x40)\n          dup1\n          swap2\n          sub\n          swap1\n          log3\n            /* \"@openzeppelin/contracts/token/ERC20/ERC20.sol\":9949:10381  function _approve(address owner, address spender, uint256 value, bool emitEvent) internal virtual {... */\n          pop\n          pop\n          pop\n          pop\n          jump\t// out\n            /* \"@openzeppelin/contracts/token/ERC20/ERC20.sol\":6271:7378  function _update(address from, address to, uint256 value) internal virtual {... */\n        tag_167:\n          sub(shl(0xa0, 0x01), 0x01)\n            /* \"@openzeppelin/contracts/token/ERC20/ERC20.sol\":6360:6378  from == address(0) */\n          dup4\n          and\n            /* \"@openzeppelin/contracts/token/ERC20/ERC20.sol\":6356:6896  if (from == address(0)) {... */\n          tag_187\n          jumpi\n            /* \"@openzeppelin/contracts/token/ERC20/ERC20.sol\":6512:6517  value */\n          dup1\n            /* \"@openzeppelin/contracts/token/ERC20/ERC20.sol\":6496:6508  _totalSupply */\n          0x02\n          0x00\n            /* \"@openzeppelin/contracts/token/ERC20/ERC20.sol\":6496:6517  _totalSupply += value */\n          dup3\n          dup3\n          sload\n          tag_188\n          swap2\n          swap1\n          tag_189\n          jump\t// in\n        tag_188:\n          swap1\n          swap2\n          sstore\n          pop\n            /* \"@openzeppelin/contracts/token/ERC20/ERC20.sol\":6356:6896  if (from == address(0)) {... */\n          tag_190\n          swap1\n          pop\n          jump\n        tag_187:\n          sub(shl(0xa0, 0x01), 0x01)\n            /* \"@openzeppelin/contracts/token/ERC20/ERC20.sol\":6570:6585  _balances[from] */\n          dup4\n          and\n            /* \"@openzeppelin/contracts/token/ERC20/ERC20.sol\":6548:6567  uint256 fromBalance */\n          0x00\n            /* \"@openzeppelin/contracts/token/ERC20/ERC20.sol\":6570:6585  _balances[from] */\n          swap1\n          dup2\n          mstore\n          0x20\n          dup2\n          swap1\n          mstore\n          0x40\n          swap1\n          keccak256\n          sload\n            /* \"@openzeppelin/contracts/token/ERC20/ERC20.sol\":6603:6622  fromBalance < value */\n          dup2\n          dup2\n          lt\n            /* \"@openzeppelin/contracts/token/ERC20/ERC20.sol\":6599:6714  if (fromBalance < value) {... */\n          iszero\n          tag_191\n          jumpi\n            /* \"@openzeppelin/contracts/token/ERC20/ERC20.sol\":6649:6699  ERC20InsufficientBalance(from, fromBalance, value) */\n          mload(0x40)\n          shl(0xe2, 0x391434e3)\n          dup2\n          mstore\n          sub(shl(0xa0, 0x01), 0x01)\n            /* \"#utility.yul\":7451:7483   */\n          dup6\n          and\n            /* \"@openzeppelin/contracts/token/ERC20/ERC20.sol\":6649:6699  ERC20InsufficientBalance(from, fromBalance, value) */\n          0x04\n          dup3\n          add\n            /* \"#utility.yul\":7433:7484   */\n          mstore\n            /* \"#utility.yul\":7500:7518   */\n          0x24\n          dup2\n          add\n            /* \"#utility.yul\":7493:7527   */\n          dup3\n          swap1\n          mstore\n            /* \"#utility.yul\":7543:7561   */\n          0x44\n          dup2\n          add\n            /* \"#utility.yul\":7536:7570   */\n          dup4\n          swap1\n          mstore\n            /* \"#utility.yul\":7406:7424   */\n          0x64\n          add\n            /* \"@openzeppelin/contracts/token/ERC20/ERC20.sol\":6649:6699  ERC20InsufficientBalance(from, fromBalance, value) */\n          tag_113\n            /* \"#utility.yul\":7231:7576   */\n          jump\n            /* \"@openzeppelin/contracts/token/ERC20/ERC20.sol\":6599:6714  if (fromBalance < value) {... */\n        tag_191:\n          sub(shl(0xa0, 0x01), 0x01)\n            /* \"@openzeppelin/contracts/token/ERC20/ERC20.sol\":6834:6849  _balances[from] */\n          dup5\n          and\n            /* \"@openzeppelin/contracts/token/ERC20/ERC20.sol\":6834:6843  _balances */\n          0x00\n            /* \"@openzeppelin/contracts/token/ERC20/ERC20.sol\":6834:6849  _balances[from] */\n          swap1\n          dup2\n          mstore\n          0x20\n          dup2\n          swap1\n          mstore\n          0x40\n          swap1\n          keccak256\n            /* \"@openzeppelin/contracts/token/ERC20/ERC20.sol\":6852:6871  fromBalance - value */\n          swap1\n          dup3\n          swap1\n          sub\n            /* \"@openzeppelin/contracts/token/ERC20/ERC20.sol\":6834:6871  _balances[from] = fromBalance - value */\n          swap1\n          sstore\n            /* \"@openzeppelin/contracts/token/ERC20/ERC20.sol\":6356:6896  if (from == address(0)) {... */\n        tag_190:\n          sub(shl(0xa0, 0x01), 0x01)\n            /* \"@openzeppelin/contracts/token/ERC20/ERC20.sol\":6910:6926  to == address(0) */\n          dup3\n          and\n            /* \"@openzeppelin/contracts/token/ERC20/ERC20.sol\":6906:7331  if (to == address(0)) {... */\n          tag_193\n          jumpi\n            /* \"@openzeppelin/contracts/token/ERC20/ERC20.sol\":7073:7085  _totalSupply */\n          0x02\n            /* \"@openzeppelin/contracts/token/ERC20/ERC20.sol\":7073:7094  _totalSupply -= value */\n          dup1\n          sload\n          dup3\n          swap1\n          sub\n          swap1\n          sstore\n            /* \"@openzeppelin/contracts/token/ERC20/ERC20.sol\":6906:7331  if (to == address(0)) {... */\n          jump(tag_194)\n        tag_193:\n          sub(shl(0xa0, 0x01), 0x01)\n            /* \"@openzeppelin/contracts/token/ERC20/ERC20.sol\":7284:7297  _balances[to] */\n          dup3\n          and\n            /* \"@openzeppelin/contracts/token/ERC20/ERC20.sol\":7284:7293  _balances */\n          0x00\n            /* \"@openzeppelin/contracts/token/ERC20/ERC20.sol\":7284:7297  _balances[to] */\n          swap1\n          dup2\n          mstore\n          0x20\n          dup2\n          swap1\n          mstore\n          0x40\n          swap1\n          keccak256\n            /* \"@openzeppelin/contracts/token/ERC20/ERC20.sol\":7284:7306  _balances[to] += value */\n          dup1\n          sload\n          dup3\n          add\n          swap1\n          sstore\n            /* \"@openzeppelin/contracts/token/ERC20/ERC20.sol\":6906:7331  if (to == address(0)) {... */\n        tag_194:\n            /* \"@openzeppelin/contracts/token/ERC20/ERC20.sol\":7361:7363  to */\n          dup2\n          sub(shl(0xa0, 0x01), 0x01)\n            /* \"@openzeppelin/contracts/token/ERC20/ERC20.sol\":7346:7371  Transfer(from, to, value) */\n          and\n            /* \"@openzeppelin/contracts/token/ERC20/ERC20.sol\":7355:7359  from */\n          dup4\n          sub(shl(0xa0, 0x01), 0x01)\n            /* \"@openzeppelin/contracts/token/ERC20/ERC20.sol\":7346:7371  Transfer(from, to, value) */\n          and\n          0xddf252ad1be2c89b69c2b068fc378daa952ba7f163c4a11628f55a4df523b3ef\n            /* \"@openzeppelin/contracts/token/ERC20/ERC20.sol\":7365:7370  value */\n          dup4\n            /* \"@openzeppelin/contracts/token/ERC20/ERC20.sol\":7346:7371  Transfer(from, to, value) */\n          mload(0x40)\n          tag_195\n          swap2\n            /* \"#utility.yul\":1367:1392   */\n          dup2\n          mstore\n            /* \"#utility.yul\":1355:1357   */\n          0x20\n            /* \"#utility.yul\":1340:1358   */\n          add\n          swap1\n            /* \"#utility.yul\":1221:1398   */\n          jump\n            /* \"@openzeppelin/contracts/token/ERC20/ERC20.sol\":7346:7371  Transfer(from, to, value) */\n        tag_195:\n          mload(0x40)\n          dup1\n          swap2\n          sub\n          swap1\n          log3\n            /* \"@openzeppelin/contracts/token/ERC20/ERC20.sol\":6271:7378  function _update(address from, address to, uint256 value) internal virtual {... */\n          pop\n          pop\n          pop\n          jump\t// out\n            /* \"#utility.yul\":14:541   */\n        tag_25:\n            /* \"#utility.yul\":163:165   */\n          0x20\n            /* \"#utility.yul\":152:161   */\n          dup2\n            /* \"#utility.yul\":145:166   */\n          mstore\n            /* \"#utility.yul\":126:130   */\n          0x00\n            /* \"#utility.yul\":195:201   */\n          dup3\n            /* \"#utility.yul\":189:202   */\n          mload\n            /* \"#utility.yul\":238:244   */\n          dup1\n            /* \"#utility.yul\":233:235   */\n          0x20\n            /* \"#utility.yul\":222:231   */\n          dup5\n            /* \"#utility.yul\":218:236   */\n          add\n            /* \"#utility.yul\":211:245   */\n          mstore\n            /* \"#utility.yul\":263:264   */\n          0x00\n            /* \"#utility.yul\":273:413   */\n        tag_204:\n            /* \"#utility.yul\":287:293   */\n          dup2\n            /* \"#utility.yul\":284:285   */\n          dup2\n            /* \"#utility.yul\":281:294   */\n          lt\n            /* \"#utility.yul\":273:413   */\n          iszero\n          tag_206\n          jumpi\n            /* \"#utility.yul\":398:400   */\n          0x20\n            /* \"#utility.yul\":382:396   */\n          dup2\n          dup7\n          add\n            /* \"#utility.yul\":378:401   */\n          dup2\n          add\n            /* \"#utility.yul\":372:402   */\n          mload\n            /* \"#utility.yul\":367:369   */\n          0x40\n            /* \"#utility.yul\":348:365   */\n          dup7\n          dup5\n          add\n            /* \"#utility.yul\":344:370   */\n          add\n            /* \"#utility.yul\":337:403   */\n          mstore\n            /* \"#utility.yul\":302:312   */\n          add\n            /* \"#utility.yul\":273:413   */\n          jump(tag_204)\n        tag_206:\n            /* \"#utility.yul\":277:280   */\n          pop\n            /* \"#utility.yul\":462:463   */\n          0x00\n            /* \"#utility.yul\":457:459   */\n          0x40\n            /* \"#utility.yul\":448:454   */\n          dup3\n            /* \"#utility.yul\":437:446   */\n          dup6\n            /* \"#utility.yul\":433:455   */\n          add\n            /* \"#utility.yul\":429:460   */\n          add\n            /* \"#utility.yul\":422:464   */\n          mstore\n            /* \"#utility.yul\":532:534   */\n          0x40\n            /* \"#utility.yul\":525:527   */\n          0x1f\n            /* \"#utility.yul\":521:528   */\n          not\n            /* \"#utility.yul\":516:518   */\n          0x1f\n            /* \"#utility.yul\":508:514   */\n          dup4\n            /* \"#utility.yul\":504:519   */\n          add\n            /* \"#utility.yul\":500:529   */\n          and\n            /* \"#utility.yul\":489:498   */\n          dup5\n            /* \"#utility.yul\":485:530   */\n          add\n            /* \"#utility.yul\":481:535   */\n          add\n            /* \"#utility.yul\":473:535   */\n          swap2\n          pop\n          pop\n            /* \"#utility.yul\":14:541   */\n          swap3\n          swap2\n          pop\n          pop\n          jump\t// out\n            /* \"#utility.yul\":546:719   */\n        tag_196:\n            /* \"#utility.yul\":614:634   */\n          dup1\n          calldataload\n          sub(shl(0xa0, 0x01), 0x01)\n            /* \"#utility.yul\":663:694   */\n          dup2\n          and\n            /* \"#utility.yul\":653:695   */\n          dup2\n          eq\n            /* \"#utility.yul\":643:713   */\n          tag_208\n          jumpi\n            /* \"#utility.yul\":709:710   */\n          0x00\n            /* \"#utility.yul\":706:707   */\n          dup1\n            /* \"#utility.yul\":699:711   */\n          revert\n            /* \"#utility.yul\":643:713   */\n        tag_208:\n            /* \"#utility.yul\":546:719   */\n          swap2\n          swap1\n          pop\n          jump\t// out\n            /* \"#utility.yul\":724:1024   */\n        tag_28:\n            /* \"#utility.yul\":792:798   */\n          0x00\n            /* \"#utility.yul\":800:806   */\n          dup1\n            /* \"#utility.yul\":853:855   */\n          0x40\n            /* \"#utility.yul\":841:850   */\n          dup4\n            /* \"#utility.yul\":832:839   */\n          dup6\n            /* \"#utility.yul\":828:851   */\n          sub\n            /* \"#utility.yul\":824:856   */\n          slt\n            /* \"#utility.yul\":821:873   */\n          iszero\n          tag_210\n          jumpi\n            /* \"#utility.yul\":869:870   */\n          0x00\n            /* \"#utility.yul\":866:867   */\n          dup1\n            /* \"#utility.yul\":859:871   */\n          revert\n            /* \"#utility.yul\":821:873   */\n        tag_210:\n            /* \"#utility.yul\":892:921   */\n          tag_211\n            /* \"#utility.yul\":911:920   */\n          dup4\n            /* \"#utility.yul\":892:921   */\n          tag_196\n          jump\t// in\n        tag_211:\n            /* \"#utility.yul\":882:921   */\n          swap5\n            /* \"#utility.yul\":990:992   */\n          0x20\n            /* \"#utility.yul\":975:993   */\n          swap4\n          swap1\n          swap4\n          add\n            /* \"#utility.yul\":962:994   */\n          calldataload\n          swap4\n          pop\n          pop\n          pop\n            /* \"#utility.yul\":724:1024   */\n          jump\t// out\n            /* \"#utility.yul\":1403:1777   */\n        tag_38:\n            /* \"#utility.yul\":1480:1486   */\n          0x00\n            /* \"#utility.yul\":1488:1494   */\n          dup1\n            /* \"#utility.yul\":1496:1502   */\n          0x00\n            /* \"#utility.yul\":1549:1551   */\n          0x60\n            /* \"#utility.yul\":1537:1546   */\n          dup5\n            /* \"#utility.yul\":1528:1535   */\n          dup7\n            /* \"#utility.yul\":1524:1547   */\n          sub\n            /* \"#utility.yul\":1520:1552   */\n          slt\n            /* \"#utility.yul\":1517:1569   */\n          iszero\n          tag_215\n          jumpi\n            /* \"#utility.yul\":1565:1566   */\n          0x00\n            /* \"#utility.yul\":1562:1563   */\n          dup1\n            /* \"#utility.yul\":1555:1567   */\n          revert\n            /* \"#utility.yul\":1517:1569   */\n        tag_215:\n            /* \"#utility.yul\":1588:1617   */\n          tag_216\n            /* \"#utility.yul\":1607:1616   */\n          dup5\n            /* \"#utility.yul\":1588:1617   */\n          tag_196\n          jump\t// in\n        tag_216:\n            /* \"#utility.yul\":1578:1617   */\n          swap3\n          pop\n            /* \"#utility.yul\":1636:1674   */\n          tag_217\n            /* \"#utility.yul\":1670:1672   */\n          0x20\n            /* \"#utility.yul\":1659:1668   */\n          dup6\n            /* \"#utility.yul\":1655:1673   */\n          add\n            /* \"#utility.yul\":1636:1674   */\n          tag_196\n          jump\t// in\n        tag_217:\n            /* \"#utility.yul\":1403:1777   */\n          swap3\n          swap6\n            /* \"#utility.yul\":1626:1674   */\n          swap3\n          swap5\n          pop\n          pop\n          pop\n            /* \"#utility.yul\":1743:1745   */\n          0x40\n            /* \"#utility.yul\":1728:1746   */\n          swap2\n          swap1\n          swap2\n          add\n            /* \"#utility.yul\":1715:1747   */\n          calldataload\n          swap1\n            /* \"#utility.yul\":1403:1777   */\n          jump\t// out\n            /* \"#utility.yul\":1971:2098   */\n        tag_197:\n            /* \"#utility.yul\":2032:2042   */\n          0x4e487b71\n            /* \"#utility.yul\":2027:2030   */\n          0xe0\n            /* \"#utility.yul\":2023:2043   */\n          shl\n            /* \"#utility.yul\":2020:2021   */\n          0x00\n            /* \"#utility.yul\":2013:2044   */\n          mstore\n            /* \"#utility.yul\":2063:2067   */\n          0x41\n            /* \"#utility.yul\":2060:2061   */\n          0x04\n            /* \"#utility.yul\":2053:2068   */\n          mstore\n            /* \"#utility.yul\":2087:2091   */\n          0x24\n            /* \"#utility.yul\":2084:2085   */\n          0x00\n            /* \"#utility.yul\":2077:2092   */\n          revert\n            /* \"#utility.yul\":2103:2829   */\n        tag_198:\n            /* \"#utility.yul\":2146:2151   */\n          0x00\n            /* \"#utility.yul\":2199:2202   */\n          dup3\n            /* \"#utility.yul\":2192:2196   */\n          0x1f\n            /* \"#utility.yul\":2184:2190   */\n          dup4\n            /* \"#utility.yul\":2180:2197   */\n          add\n            /* \"#utility.yul\":2176:2203   */\n          slt\n            /* \"#utility.yul\":2166:2221   */\n          tag_221\n          jumpi\n            /* \"#utility.yul\":2217:2218   */\n          0x00\n            /* \"#utility.yul\":2214:2215   */\n          dup1\n            /* \"#utility.yul\":2207:2219   */\n          revert\n            /* \"#utility.yul\":2166:2221   */\n        tag_221:\n            /* \"#utility.yul\":2257:2263   */\n          dup2\n            /* \"#utility.yul\":2244:2264   */\n          calldataload\n            /* \"#utility.yul\":2287:2305   */\n          0xffffffffffffffff\n            /* \"#utility.yul\":2279:2285   */\n          dup2\n            /* \"#utility.yul\":2276:2306   */\n          gt\n            /* \"#utility.yul\":2273:2329   */\n          iszero\n          tag_223\n          jumpi\n            /* \"#utility.yul\":2309:2327   */\n          tag_223\n          tag_197\n          jump\t// in\n        tag_223:\n            /* \"#utility.yul\":2358:2360   */\n          0x40\n            /* \"#utility.yul\":2352:2361   */\n          mload\n            /* \"#utility.yul\":2450:2452   */\n          0x1f\n            /* \"#utility.yul\":2412:2429   */\n          dup3\n          add\n          not(0x1f)\n            /* \"#utility.yul\":2408:2439   */\n          swap1\n          dup2\n          and\n            /* \"#utility.yul\":2441:2443   */\n          0x3f\n            /* \"#utility.yul\":2404:2444   */\n          add\n            /* \"#utility.yul\":2400:2454   */\n          and\n            /* \"#utility.yul\":2388:2455   */\n          dup2\n          add\n            /* \"#utility.yul\":2485:2503   */\n          0xffffffffffffffff\n            /* \"#utility.yul\":2470:2504   */\n          dup2\n          gt\n            /* \"#utility.yul\":2506:2528   */\n          dup3\n          dup3\n          lt\n            /* \"#utility.yul\":2467:2529   */\n          or\n            /* \"#utility.yul\":2464:2552   */\n          iszero\n          tag_225\n          jumpi\n            /* \"#utility.yul\":2532:2550   */\n          tag_225\n          tag_197\n          jump\t// in\n        tag_225:\n            /* \"#utility.yul\":2568:2570   */\n          0x40\n            /* \"#utility.yul\":2561:2583   */\n          mstore\n            /* \"#utility.yul\":2592:2614   */\n          dup2\n          dup2\n          mstore\n            /* \"#utility.yul\":2633:2652   */\n          dup4\n          dup3\n          add\n            /* \"#utility.yul\":2654:2658   */\n          0x20\n            /* \"#utility.yul\":2629:2659   */\n          add\n            /* \"#utility.yul\":2626:2665   */\n          dup6\n          lt\n            /* \"#utility.yul\":2623:2682   */\n          iszero\n          tag_226\n          jumpi\n            /* \"#utility.yul\":2678:2679   */\n          0x00\n            /* \"#utility.yul\":2675:2676   */\n          dup1\n            /* \"#utility.yul\":2668:2680   */\n          revert\n            /* \"#utility.yul\":2623:2682   */\n        tag_226:\n            /* \"#utility.yul\":2742:2748   */\n          dup2\n            /* \"#utility.yul\":2735:2739   */\n          0x20\n            /* \"#utility.yul\":2727:2733   */\n          dup6\n            /* \"#utility.yul\":2723:2740   */\n          add\n            /* \"#utility.yul\":2716:2720   */\n          0x20\n            /* \"#utility.yul\":2708:2714   */\n          dup4\n            /* \"#utility.yul\":2704:2721   */\n          add\n            /* \"#utility.yul\":2691:2749   */\n          calldatacopy\n            /* \"#utility.yul\":2797:2798   */\n          0x00\n            /* \"#utility.yul\":2769:2788   */\n          swap2\n          dup2\n          add\n            /* \"#utility.yul\":2790:2794   */\n          0x20\n            /* \"#utility.yul\":2765:2795   */\n          add\n            /* \"#utility.yul\":2758:2799   */\n          swap2\n          swap1\n          swap2\n          mstore\n            /* \"#utility.yul\":2773:2779   */\n          swap4\n            /* \"#utility.yul\":2103:2829   */\n          swap3\n          pop\n          pop\n          pop\n          jump\t// out\n            /* \"#utility.yul\":2834:3372   */\n        tag_50:\n            /* \"#utility.yul\":2922:2928   */\n          0x00\n            /* \"#utility.yul\":2930:2936   */\n          dup1\n            /* \"#utility.yul\":2983:2985   */\n          0x40\n            /* \"#utility.yul\":2971:2980   */\n          dup4\n            /* \"#utility.yul\":2962:2969   */\n          dup6\n            /* \"#utility.yul\":2958:2981   */\n          sub\n            /* \"#utility.yul\":2954:2986   */\n          slt\n            /* \"#utility.yul\":2951:3003   */\n          iszero\n          tag_228\n          jumpi\n            /* \"#utility.yul\":2999:3000   */\n          0x00\n            /* \"#utility.yul\":2996:2997   */\n          dup1\n            /* \"#utility.yul\":2989:3001   */\n          revert\n            /* \"#utility.yul\":2951:3003   */\n        tag_228:\n            /* \"#utility.yul\":3039:3048   */\n          dup3\n            /* \"#utility.yul\":3026:3049   */\n          calldataload\n            /* \"#utility.yul\":3072:3090   */\n          0xffffffffffffffff\n            /* \"#utility.yul\":3064:3070   */\n          dup2\n            /* \"#utility.yul\":3061:3091   */\n          gt\n            /* \"#utility.yul\":3058:3108   */\n          iszero\n          tag_229\n          jumpi\n            /* \"#utility.yul\":3104:3105   */\n          0x00\n            /* \"#utility.yul\":3101:3102   */\n          dup1\n            /* \"#utility.yul\":3094:3106   */\n          revert\n            /* \"#utility.yul\":3058:3108   */\n        tag_229:\n            /* \"#utility.yul\":3127:3177   */\n          tag_230\n            /* \"#utility.yul\":3169:3176   */\n          dup6\n            /* \"#utility.yul\":3160:3166   */\n          dup3\n            /* \"#utility.yul\":3149:3158   */\n          dup7\n            /* \"#utility.yul\":3145:3167   */\n          add\n            /* \"#utility.yul\":3127:3177   */\n          tag_198\n          jump\t// in\n        tag_230:\n            /* \"#utility.yul\":3117:3177   */\n          swap3\n          pop\n          pop\n            /* \"#utility.yul\":3230:3232   */\n          0x20\n            /* \"#utility.yul\":3219:3228   */\n          dup4\n            /* \"#utility.yul\":3215:3233   */\n          add\n            /* \"#utility.yul\":3202:3234   */\n          calldataload\n            /* \"#utility.yul\":3259:3277   */\n          0xffffffffffffffff\n            /* \"#utility.yul\":3249:3257   */\n          dup2\n            /* \"#utility.yul\":3246:3278   */\n          gt\n            /* \"#utility.yul\":3243:3295   */\n          iszero\n          tag_231\n          jumpi\n            /* \"#utility.yul\":3291:3292   */\n          0x00\n            /* \"#utility.yul\":3288:3289   */\n          dup1\n            /* \"#utility.yul\":3281:3293   */\n          revert\n            /* \"#utility.yul\":3243:3295   */\n        tag_231:\n            /* \"#utility.yul\":3314:3366   */\n          tag_232\n            /* \"#utility.yul\":3358:3365   */\n          dup6\n            /* \"#utility.yul\":3347:3355   */\n          dup3\n            /* \"#utility.yul\":3336:3345   */\n          dup7\n            /* \"#utility.yul\":3332:3356   */\n          add\n            /* \"#utility.yul\":3314:3366   */\n          tag_198\n          jump\t// in\n        tag_232:\n            /* \"#utility.yul\":3304:3366   */\n          swap2\n          pop\n          pop\n            /* \"#utility.yul\":2834:3372   */\n          swap3\n          pop\n          swap3\n          swap1\n          pop\n          jump\t// out\n            /* \"#utility.yul\":3377:3699   */\n        tag_54:\n            /* \"#utility.yul\":3446:3452   */\n          0x00\n            /* \"#utility.yul\":3499:3501   */\n          0x20\n            /* \"#utility.yul\":3487:3496   */\n          dup3\n            /* \"#utility.yul\":3478:3485   */\n          dup5\n            /* \"#utility.yul\":3474:3497   */\n          sub\n            /* \"#utility.yul\":3470:3502   */\n          slt\n            /* \"#utility.yul\":3467:3519   */\n          iszero\n          tag_234\n          jumpi\n            /* \"#utility.yul\":3515:3516   */\n          0x00\n            /* \"#utility.yul\":3512:3513   */\n          dup1\n            /* \"#utility.yul\":3505:3517   */\n          revert\n            /* \"#utility.yul\":3467:3519   */\n        tag_234:\n            /* \"#utility.yul\":3555:3564   */\n          dup2\n            /* \"#utility.yul\":3542:3565   */\n          calldataload\n            /* \"#utility.yul\":3588:3606   */\n          0xffffffffffffffff\n            /* \"#utility.yul\":3580:3586   */\n          dup2\n            /* \"#utility.yul\":3577:3607   */\n          gt\n            /* \"#utility.yul\":3574:3624   */\n          iszero\n          tag_235\n          jumpi\n            /* \"#utility.yul\":3620:3621   */\n          0x00\n            /* \"#utility.yul\":3617:3618   */\n          dup1\n            /* \"#utility.yul\":3610:3622   */\n          revert\n            /* \"#utility.yul\":3574:3624   */\n        tag_235:\n            /* \"#utility.yul\":3643:3693   */\n          tag_236\n            /* \"#utility.yul\":3685:3692   */\n          dup5\n            /* \"#utility.yul\":3676:3682   */\n          dup3\n            /* \"#utility.yul\":3665:3674   */\n          dup6\n            /* \"#utility.yul\":3661:3683   */\n          add\n            /* \"#utility.yul\":3643:3693   */\n          tag_198\n          jump\t// in\n        tag_236:\n            /* \"#utility.yul\":3633:3693   */\n          swap5\n            /* \"#utility.yul\":3377:3699   */\n          swap4\n          pop\n          pop\n          pop\n          pop\n          jump\t// out\n            /* \"#utility.yul\":3704:3890   */\n        tag_58:\n            /* \"#utility.yul\":3763:3769   */\n          0x00\n            /* \"#utility.yul\":3816:3818   */\n          0x20\n            /* \"#utility.yul\":3804:3813   */\n          dup3\n            /* \"#utility.yul\":3795:3802   */\n          dup5\n            /* \"#utility.yul\":3791:3814   */\n          sub\n            /* \"#utility.yul\":3787:3819   */\n          slt\n            /* \"#utility.yul\":3784:3836   */\n          iszero\n          tag_238\n          jumpi\n            /* \"#utility.yul\":3832:3833   */\n          0x00\n            /* \"#utility.yul\":3829:3830   */\n          dup1\n            /* \"#utility.yul\":3822:3834   */\n          revert\n            /* \"#utility.yul\":3784:3836   */\n        tag_238:\n            /* \"#utility.yul\":3855:3884   */\n          tag_239\n            /* \"#utility.yul\":3874:3883   */\n          dup3\n            /* \"#utility.yul\":3855:3884   */\n          tag_196\n          jump\t// in\n        tag_239:\n            /* \"#utility.yul\":3845:3884   */\n          swap4\n            /* \"#utility.yul\":3704:3890   */\n          swap3\n          pop\n          pop\n          pop\n          jump\t// out\n            /* \"#utility.yul\":4103:4363   */\n        tag_79:\n            /* \"#utility.yul\":4171:4177   */\n          0x00\n            /* \"#utility.yul\":4179:4185   */\n          dup1\n            /* \"#utility.yul\":4232:4234   */\n          0x40\n            /* \"#utility.yul\":4220:4229   */\n          dup4\n            /* \"#utility.yul\":4211:4218   */\n          dup6\n            /* \"#utility.yul\":4207:4230   */\n          sub\n            /* \"#utility.yul\":4203:4235   */\n          slt\n            /* \"#utility.yul\":4200:4252   */\n          iszero\n          tag_242\n          jumpi\n            /* \"#utility.yul\":4248:4249   */\n          0x00\n            /* \"#utility.yul\":4245:4246   */\n          dup1\n            /* \"#utility.yul\":4238:4250   */\n          revert\n            /* \"#utility.yul\":4200:4252   */\n        tag_242:\n            /* \"#utility.yul\":4271:4300   */\n          tag_243\n            /* \"#utility.yul\":4290:4299   */\n          dup4\n            /* \"#utility.yul\":4271:4300   */\n          tag_196\n          jump\t// in\n        tag_243:\n            /* \"#utility.yul\":4261:4300   */\n          swap2\n          pop\n            /* \"#utility.yul\":4319:4357   */\n          tag_244\n            /* \"#utility.yul\":4353:4355   */\n          0x20\n            /* \"#utility.yul\":4342:4351   */\n          dup5\n            /* \"#utility.yul\":4338:4356   */\n          add\n            /* \"#utility.yul\":4319:4357   */\n          tag_196\n          jump\t// in\n        tag_244:\n            /* \"#utility.yul\":4309:4357   */\n          swap1\n          pop\n            /* \"#utility.yul\":4103:4363   */\n          swap3\n          pop\n          swap3\n          swap1\n          pop\n          jump\t// out\n            /* \"#utility.yul\":4368:4748   */\n        tag_87:\n            /* \"#utility.yul\":4447:4448   */\n          0x01\n            /* \"#utility.yul\":4443:4455   */\n          dup2\n          dup2\n          shr\n          swap1\n            /* \"#utility.yul\":4490:4502   */\n          dup3\n          and\n          dup1\n            /* \"#utility.yul\":4511:4572   */\n          tag_246\n          jumpi\n            /* \"#utility.yul\":4565:4569   */\n          0x7f\n            /* \"#utility.yul\":4557:4563   */\n          dup3\n            /* \"#utility.yul\":4553:4570   */\n          and\n            /* \"#utility.yul\":4543:4570   */\n          swap2\n          pop\n            /* \"#utility.yul\":4511:4572   */\n        tag_246:\n            /* \"#utility.yul\":4618:4620   */\n          0x20\n            /* \"#utility.yul\":4610:4616   */\n          dup3\n            /* \"#utility.yul\":4607:4621   */\n          lt\n            /* \"#utility.yul\":4587:4605   */\n          dup2\n            /* \"#utility.yul\":4584:4622   */\n          sub\n            /* \"#utility.yul\":4581:4742   */\n          tag_247\n          jumpi\n            /* \"#utility.yul\":4664:4674   */\n          0x4e487b71\n            /* \"#utility.yul\":4659:4662   */\n          0xe0\n            /* \"#utility.yul\":4655:4675   */\n          shl\n            /* \"#utility.yul\":4652:4653   */\n          0x00\n            /* \"#utility.yul\":4645:4676   */\n          mstore\n            /* \"#utility.yul\":4699:4703   */\n          0x22\n            /* \"#utility.yul\":4696:4697   */\n          0x04\n            /* \"#utility.yul\":4689:4704   */\n          mstore\n            /* \"#utility.yul\":4727:4731   */\n          0x24\n            /* \"#utility.yul\":4724:4725   */\n          0x00\n            /* \"#utility.yul\":4717:4732   */\n          revert\n            /* \"#utility.yul\":4581:4742   */\n        tag_247:\n          pop\n            /* \"#utility.yul\":4368:4748   */\n          swap2\n          swap1\n          pop\n          jump\t// out\n            /* \"#utility.yul\":5233:5751   */\n        tag_200:\n            /* \"#utility.yul\":5335:5337   */\n          0x1f\n            /* \"#utility.yul\":5330:5333   */\n          dup3\n            /* \"#utility.yul\":5327:5338   */\n          gt\n            /* \"#utility.yul\":5324:5745   */\n          iszero\n          tag_152\n          jumpi\n            /* \"#utility.yul\":5371:5376   */\n          dup1\n            /* \"#utility.yul\":5368:5369   */\n          0x00\n            /* \"#utility.yul\":5361:5377   */\n          mstore\n            /* \"#utility.yul\":5415:5419   */\n          0x20\n            /* \"#utility.yul\":5412:5413   */\n          0x00\n            /* \"#utility.yul\":5402:5420   */\n          keccak256\n            /* \"#utility.yul\":5485:5487   */\n          0x1f\n            /* \"#utility.yul\":5473:5483   */\n          dup5\n            /* \"#utility.yul\":5469:5488   */\n          add\n            /* \"#utility.yul\":5466:5467   */\n          0x05\n            /* \"#utility.yul\":5462:5489   */\n          shr\n            /* \"#utility.yul\":5456:5460   */\n          dup2\n            /* \"#utility.yul\":5452:5490   */\n          add\n            /* \"#utility.yul\":5521:5525   */\n          0x20\n            /* \"#utility.yul\":5509:5519   */\n          dup6\n            /* \"#utility.yul\":5506:5526   */\n          lt\n            /* \"#utility.yul\":5503:5550   */\n          iszero\n          tag_252\n          jumpi\n          pop\n            /* \"#utility.yul\":5544:5548   */\n          dup1\n            /* \"#utility.yul\":5503:5550   */\n        tag_252:\n            /* \"#utility.yul\":5599:5601   */\n          0x1f\n            /* \"#utility.yul\":5594:5597   */\n          dup5\n            /* \"#utility.yul\":5590:5602   */\n          add\n            /* \"#utility.yul\":5587:5588   */\n          0x05\n            /* \"#utility.yul\":5583:5603   */\n          shr\n            /* \"#utility.yul\":5577:5581   */\n          dup3\n            /* \"#utility.yul\":5573:5604   */\n          add\n            /* \"#utility.yul\":5563:5604   */\n          swap2\n          pop\n            /* \"#utility.yul\":5654:5735   */\n        tag_253:\n            /* \"#utility.yul\":5672:5674   */\n          dup2\n            /* \"#utility.yul\":5665:5670   */\n          dup2\n            /* \"#utility.yul\":5662:5675   */\n          lt\n            /* \"#utility.yul\":5654:5735   */\n          iszero\n          tag_255\n          jumpi\n            /* \"#utility.yul\":5731:5732   */\n          0x00\n            /* \"#utility.yul\":5717:5733   */\n          dup2\n          sstore\n            /* \"#utility.yul\":5698:5699   */\n          0x01\n            /* \"#utility.yul\":5687:5700   */\n          add\n            /* \"#utility.yul\":5654:5735   */\n          jump(tag_253)\n        tag_255:\n            /* \"#utility.yul\":5658:5661   */\n          pop\n          pop\n            /* \"#utility.yul\":5233:5751   */\n          pop\n          pop\n          pop\n          jump\t// out\n            /* \"#utility.yul\":5927:7226   */\n        tag_116:\n            /* \"#utility.yul\":6053:6056   */\n          dup2\n            /* \"#utility.yul\":6047:6057   */\n          mload\n            /* \"#utility.yul\":6080:6098   */\n          0xffffffffffffffff\n            /* \"#utility.yul\":6072:6078   */\n          dup2\n            /* \"#utility.yul\":6069:6099   */\n          gt\n            /* \"#utility.yul\":6066:6122   */\n          iszero\n          tag_259\n          jumpi\n            /* \"#utility.yul\":6102:6120   */\n          tag_259\n          tag_197\n          jump\t// in\n        tag_259:\n            /* \"#utility.yul\":6131:6228   */\n          tag_260\n            /* \"#utility.yul\":6221:6227   */\n          dup2\n            /* \"#utility.yul\":6181:6219   */\n          tag_261\n            /* \"#utility.yul\":6213:6217   */\n          dup5\n            /* \"#utility.yul\":6207:6218   */\n          sload\n            /* \"#utility.yul\":6181:6219   */\n          tag_87\n          jump\t// in\n        tag_261:\n            /* \"#utility.yul\":6175:6179   */\n          dup5\n            /* \"#utility.yul\":6131:6228   */\n          tag_200\n          jump\t// in\n        tag_260:\n            /* \"#utility.yul\":6277:6281   */\n          0x20\n            /* \"#utility.yul\":6308:6310   */\n          0x1f\n            /* \"#utility.yul\":6297:6311   */\n          dup3\n          gt\n            /* \"#utility.yul\":6325:6326   */\n          0x01\n            /* \"#utility.yul\":6320:6969   */\n          dup2\n          eq\n          tag_263\n          jumpi\n            /* \"#utility.yul\":7013:7014   */\n          0x00\n            /* \"#utility.yul\":7030:7036   */\n          dup4\n            /* \"#utility.yul\":7027:7116   */\n          iszero\n          tag_264\n          jumpi\n          pop\n            /* \"#utility.yul\":7082:7101   */\n          dup5\n          dup3\n          add\n            /* \"#utility.yul\":7076:7102   */\n          mload\n            /* \"#utility.yul\":7027:7116   */\n        tag_264:\n          not(0x00)\n            /* \"#utility.yul\":5884:5885   */\n          0x03\n            /* \"#utility.yul\":5880:5891   */\n          dup6\n          swap1\n          shl\n            /* \"#utility.yul\":5876:5900   */\n          shr\n            /* \"#utility.yul\":5872:5901   */\n          not\n            /* \"#utility.yul\":5862:5902   */\n          and\n            /* \"#utility.yul\":5908:5909   */\n          0x01\n            /* \"#utility.yul\":5904:5915   */\n          dup5\n          swap1\n          shl\n            /* \"#utility.yul\":5859:5916   */\n          or\n            /* \"#utility.yul\":7129:7210   */\n          dup5\n          sstore\n            /* \"#utility.yul\":6290:7220   */\n          jump(tag_255)\n            /* \"#utility.yul\":6320:6969   */\n        tag_263:\n            /* \"#utility.yul\":5180:5181   */\n          0x00\n            /* \"#utility.yul\":5173:5187   */\n          dup5\n          dup2\n          mstore\n            /* \"#utility.yul\":5217:5221   */\n          0x20\n            /* \"#utility.yul\":5204:5222   */\n          dup2\n          keccak256\n          not(0x1f)\n            /* \"#utility.yul\":6356:6376   */\n          dup6\n          and\n          swap2\n            /* \"#utility.yul\":6474:6696   */\n        tag_267:\n            /* \"#utility.yul\":6488:6495   */\n          dup3\n            /* \"#utility.yul\":6485:6486   */\n          dup2\n            /* \"#utility.yul\":6482:6496   */\n          lt\n            /* \"#utility.yul\":6474:6696   */\n          iszero\n          tag_269\n          jumpi\n            /* \"#utility.yul\":6570:6589   */\n          dup8\n          dup6\n          add\n            /* \"#utility.yul\":6564:6590   */\n          mload\n            /* \"#utility.yul\":6549:6591   */\n          dup3\n          sstore\n            /* \"#utility.yul\":6677:6681   */\n          0x20\n            /* \"#utility.yul\":6662:6682   */\n          swap5\n          dup6\n          add\n          swap5\n            /* \"#utility.yul\":6630:6631   */\n          0x01\n            /* \"#utility.yul\":6618:6632   */\n          swap1\n          swap3\n          add\n          swap2\n            /* \"#utility.yul\":6504:6516   */\n          add\n            /* \"#utility.yul\":6474:6696   */\n          jump(tag_267)\n        tag_269:\n            /* \"#utility.yul\":6478:6481   */\n          pop\n            /* \"#utility.yul\":6724:6730   */\n          dup5\n            /* \"#utility.yul\":6715:6722   */\n          dup3\n            /* \"#utility.yul\":6712:6731   */\n          lt\n            /* \"#utility.yul\":6709:6910   */\n          iszero\n          tag_270\n          jumpi\n            /* \"#utility.yul\":6785:6804   */\n          dup7\n          dup5\n          add\n            /* \"#utility.yul\":6779:6805   */\n          mload\n          not(0x00)\n            /* \"#utility.yul\":6868:6869   */\n          0x03\n            /* \"#utility.yul\":6864:6878   */\n          dup8\n          swap1\n          shl\n            /* \"#utility.yul\":6880:6883   */\n          0xf8\n            /* \"#utility.yul\":6860:6884   */\n          and\n            /* \"#utility.yul\":6856:6893   */\n          shr\n            /* \"#utility.yul\":6852:6894   */\n          not\n            /* \"#utility.yul\":6837:6895   */\n          and\n            /* \"#utility.yul\":6822:6896   */\n          dup2\n          sstore\n            /* \"#utility.yul\":6709:6910   */\n        tag_270:\n          pop\n          pop\n          pop\n          pop\n            /* \"#utility.yul\":6956:6957   */\n          0x01\n            /* \"#utility.yul\":6940:6954   */\n          swap1\n          dup2\n          shl\n            /* \"#utility.yul\":6936:6958   */\n          add\n            /* \"#utility.yul\":6923:6959   */\n          swap1\n          sstore\n          pop\n            /* \"#utility.yul\":5927:7226   */\n          jump\t// out\n            /* \"#utility.yul\":7581:7803   */\n        tag_189:\n            /* \"#utility.yul\":7646:7655   */\n          dup1\n          dup3\n          add\n            /* \"#utility.yul\":7667:7677   */\n          dup1\n          dup3\n          gt\n            /* \"#utility.yul\":7664:7797   */\n          iszero\n          tag_92\n          jumpi\n            /* \"#utility.yul\":7719:7729   */\n          0x4e487b71\n            /* \"#utility.yul\":7714:7717   */\n          0xe0\n            /* \"#utility.yul\":7710:7730   */\n          shl\n            /* \"#utility.yul\":7707:7708   */\n          0x00\n            /* \"#utility.yul\":7700:7731   */\n          mstore\n            /* \"#utility.yul\":7754:7758   */\n          0x11\n            /* \"#utility.yul\":7751:7752   */\n          0x04\n            /* \"#utility.yul\":7744:7759   */\n          mstore\n            /* \"#utility.yul\":7782:7786   */\n          0x24\n            /* \"#utility.yul\":7779:7780   */\n          0x00\n            /* \"#utility.yul\":7772:7787   */\n          revert\n\n        auxdata: 0xa2646970667358221220c8852fb7b8bc5bc2e0bb47db09997f4a4be9d29054e1c4beec35e07625033d5f64736f6c634300081a0033\n    }\n}\n",
				"bytecode": {
					"linkReferences": {},
					"object": "608060405234801561001057600080fd5b5060405161229538038061229583398101604081905261002f9161044e565b338061005657604051631e4fbdf760e01b8152600060048201526024015b60405180910390fd5b61005f816103f1565b506001600160a01b0382166100b65760405162461bcd60e51b815260206004820152601f60248201527f496e76616c696420416c676562726120466163746f7279206164647265737300604482015260640161004d565b600081116101145760405162461bcd60e51b815260206004820152602560248201527f4d696e7420616d6f756e74206d7573742062652067726561746572207468616e604482015264207a65726f60d81b606482015260840161004d565b600180546001600160a01b0319166001600160a01b03841617905560405160009061013e90610441565b604051809103906000f08015801561015a573d6000803e3d6000fd5b506040805163266c45bb60e11b815260048101919091526006604482015265546f6b656e4160d01b6064820152608060248201526002608482015261544160f01b60a48201529091506001600160a01b03821690634cd88b769060c401600060405180830381600087803b1580156101d157600080fd5b505af11580156101e5573d6000803e3d6000fd5b50506040516340c10f1960e01b8152336004820152602481018590526001600160a01b03841692506340c10f199150604401600060405180830381600087803b15801561023157600080fd5b505af1158015610245573d6000803e3d6000fd5b5050600380546001600160a01b0319166001600160a01b0385169081179091556040518581523393509091506000805160206122758339815191529060200160405180910390a3600060405161029a90610441565b604051809103906000f0801580156102b6573d6000803e3d6000fd5b506040805163266c45bb60e11b8152600481019190915260066044820152652a37b5b2b72160d11b60648201526080602482015260026084820152612a2160f11b60a48201529091506001600160a01b03821690634cd88b769060c401600060405180830381600087803b15801561032d57600080fd5b505af1158015610341573d6000803e3d6000fd5b50506040516340c10f1960e01b8152336004820152602481018690526001600160a01b03841692506340c10f199150604401600060405180830381600087803b15801561038d57600080fd5b505af11580156103a1573d6000803e3d6000fd5b5050600480546001600160a01b0319166001600160a01b0385169081179091556040518681523393509091506000805160206122758339815191529060200160405180910390a350505050610488565b600080546001600160a01b038381166001600160a01b0319831681178455604051919092169283917f8be0079c531659141344cd1fd0a4f28419497f9722a3daafe3b4186f6b6457e09190a35050565b610ee18061139483390190565b6000806040838503121561046157600080fd5b82516001600160a01b038116811461047857600080fd5b6020939093015192949293505050565b610efd806104976000396000f3fe608060405234801561001057600080fd5b50600436106100cf5760003560e01c80638da5cb5b1161008c578063a7b64b0411610066578063a7b64b0414610185578063b62d2af914610198578063d8ed2241146101ab578063f2fde38b146101be57600080fd5b80638da5cb5b146101595780639a06b1131461016a5780639cd441da1461017257600080fd5b80630fc63d10146100d45780631a7c2131146101035780634f16fa53146101165780635f64b55b1461012b5780636fc98ee11461013e578063715018a614610151575b600080fd5b6003546100e7906001600160a01b031681565b6040516001600160a01b03909116815260200160405180910390f35b6002546100e7906001600160a01b031681565b610129610124366004610d79565b6101d1565b005b6004546100e7906001600160a01b031681565b61012961014c366004610d79565b61038a565b610129610524565b6000546001600160a01b03166100e7565b610129610538565b610129610180366004610dba565b61078d565b6001546100e7906001600160a01b031681565b6101296101a6366004610ddc565b610b0f565b6100e76101b9366004610e00565b610b8f565b6101296101cc366004610ddc565b610ca9565b6101d9610ce7565b6003546001600160a01b038481169116148061020257506004546001600160a01b038481169116145b6102275760405162461bcd60e51b815260040161021e90610e39565b60405180910390fd5b6001600160a01b0382166102745760405162461bcd60e51b8152602060048201526014602482015273496e76616c696420706f6f6c206164647265737360601b604482015260640161021e565b600081116102c45760405162461bcd60e51b815260206004820181905260248201527f416d6f756e74206d7573742062652067726561746572207468616e207a65726f604482015260640161021e565b60405163a9059cbb60e01b81526001600160a01b0383811660048301526024820183905284169063a9059cbb906044016020604051808303816000875af1158015610313573d6000803e3d6000fd5b505050506040513d601f19601f820116820180604052508101906103379190610e68565b50816001600160a01b0316836001600160a01b03167f32d8ccb17edf05070e5a75f56f66402f1e3071f6104787c3ec400afbb1a0d6d18360405161037d91815260200190565b60405180910390a3505050565b610392610ce7565b6003546001600160a01b03848116911614806103bb57506004546001600160a01b038481169116145b6103d75760405162461bcd60e51b815260040161021e90610e39565b6001600160a01b03821661042d5760405162461bcd60e51b815260206004820152601960248201527f496e76616c696420726563697069656e74206164647265737300000000000000604482015260640161021e565b6000811161047d5760405162461bcd60e51b815260206004820181905260248201527f416d6f756e74206d7573742062652067726561746572207468616e207a65726f604482015260640161021e565b6040516340c10f1960e01b81526001600160a01b038381166004830152602482018390528416906340c10f1990604401600060405180830381600087803b1580156104c757600080fd5b505af11580156104db573d6000803e3d6000fd5b50505050816001600160a01b0316836001600160a01b03167fbf67ec129007be07f346d9d2933215293a6612ce7ff17d6b479a5a5cae72890c8360405161037d91815260200190565b61052c610ce7565b6105366000610d14565b565b610540610ce7565b600080516020610ea88339815191526040516105869060208082526016908201527529ba30b93a34b733903837b7b61031b932b0ba34b7b760511b604082015260600190565b60405180910390a16003546001600160a01b0316158015906105b257506004546001600160a01b031615155b6105fe5760405162461bcd60e51b815260206004820152601a60248201527f546f6b656e73206d75737420626520696e697469616c697a6564000000000000604482015260640161021e565b6004546003546001600160a01b039182169116036106595760405162461bcd60e51b8152602060048201526018602482015277151bdad95b9cc81b5d5cdd08189948191a5999995c995b9d60421b604482015260640161021e565b6001546003546004805460405163e343361560e01b81526001600160a01b039384169281019290925282166024820152911690819063e3433615906044016020604051808303816000875af11580156106b6573d6000803e3d6000fd5b505050506040513d601f19601f820116820180604052508101906106da9190610e8a565b600280546001600160a01b0319166001600160a01b0392909216918217905561073d5760405162461bcd60e51b815260206004820152601560248201527411985a5b1959081d1bc818dc99585d19481c1bdbdb605a1b604482015260640161021e565b6004546003546002546040516001600160a01b039182168152928116929116907f9c5d829b9b23efc461f9aeef91979ec04bb903feb3bee4f26d22114abfc7335b9060200160405180910390a350565b610795610ce7565b600080516020610ea88339815191526040516107e2906020808252601b908201527f5374617274696e67206c6971756964697479206164646974696f6e0000000000604082015260600190565b60405180910390a16002546001600160a01b03166108345760405162461bcd60e51b815260206004820152600f60248201526e139bc81c1bdbdb0818dc99585d1959608a1b604482015260640161021e565b6000821180156108445750600081115b6108a05760405162461bcd60e51b815260206004820152602760248201527f546f6b656e20616d6f756e7473206d7573742062652067726561746572207468604482015266616e207a65726f60c81b606482015260840161021e565b60035460025460405163a9059cbb60e01b81526001600160a01b03918216600482015260248101859052600092919091169063a9059cbb906044016020604051808303816000875af11580156108fa573d6000803e3d6000fd5b505050506040513d601f19601f8201168201806040525081019061091e9190610e68565b9050806109665760405162461bcd60e51b8152602060048201526016602482015275151bdad95b90481d1c985b9cd9995c8819985a5b195960521b604482015260640161021e565b600080516020610ea88339815191526040516109a890602080825260129082015271151bdad95b90481d1c985b9cd9995c9c995960721b604082015260600190565b60405180910390a16004805460025460405163a9059cbb60e01b81526001600160a01b03918216938101939093526024830185905260009291169063a9059cbb906044016020604051808303816000875af1158015610a0b573d6000803e3d6000fd5b505050506040513d601f19601f82011682018060405250810190610a2f9190610e68565b905080610a775760405162461bcd60e51b8152602060048201526016602482015275151bdad95b90881d1c985b9cd9995c8819985a5b195960521b604482015260640161021e565b600080516020610ea8833981519152604051610ab990602080825260129082015271151bdad95b90881d1c985b9cd9995c9c995960721b604082015260600190565b60405180910390a160025460408051868152602081018690526001600160a01b03909216917fac1d76749e5447b7b16f5ab61447e1bd502f3bb4807af3b28e620d1700a6ee45910160405180910390a250505050565b610b17610ce7565b6001600160a01b038116610b6d5760405162461bcd60e51b815260206004820152601f60248201527f496e76616c696420416c676562726120466163746f7279206164647265737300604482015260640161021e565b600180546001600160a01b0319166001600160a01b0392909216919091179055565b60006001600160a01b03831615801590610bb157506001600160a01b03821615155b610bcd5760405162461bcd60e51b815260040161021e90610e39565b816001600160a01b0316836001600160a01b031603610c295760405162461bcd60e51b8152602060048201526018602482015277151bdad95b9cc81b5d5cdd08189948191a5999995c995b9d60421b604482015260640161021e565b60015460405163d8ed224160e01b81526001600160a01b038581166004830152848116602483015290911690819063d8ed224190604401602060405180830381865afa158015610c7d573d6000803e3d6000fd5b505050506040513d601f19601f82011682018060405250810190610ca19190610e8a565b949350505050565b610cb1610ce7565b6001600160a01b038116610cdb57604051631e4fbdf760e01b81526000600482015260240161021e565b610ce481610d14565b50565b6000546001600160a01b031633146105365760405163118cdaa760e01b815233600482015260240161021e565b600080546001600160a01b038381166001600160a01b0319831681178455604051919092169283917f8be0079c531659141344cd1fd0a4f28419497f9722a3daafe3b4186f6b6457e09190a35050565b6001600160a01b0381168114610ce457600080fd5b600080600060608486031215610d8e57600080fd5b8335610d9981610d64565b92506020840135610da981610d64565b929592945050506040919091013590565b60008060408385031215610dcd57600080fd5b50508035926020909101359150565b600060208284031215610dee57600080fd5b8135610df981610d64565b9392505050565b60008060408385031215610e1357600080fd5b8235610e1e81610d64565b91506020830135610e2e81610d64565b809150509250929050565b602080825260159082015274496e76616c696420746f6b656e206164647265737360581b604082015260600190565b600060208284031215610e7a57600080fd5b81518015158114610df957600080fd5b600060208284031215610e9c57600080fd5b8151610df981610d6456fe94ebca8d29d278a0288a52a710c11e928307b6f2e15fbaf4508cc4ceb3d21f8ba2646970667358221220f9f08f065c5bcc82d73f5b75cc4a17017f151a20087aa5e56ef2dd20ff13a73d64736f6c634300081a0033608060405234801561001057600080fd5b506040805160208082018352600080835283519182019093529182523391600361003a8382610178565b5060046100478282610178565b5050506001600160a01b03811661007857604051631e4fbdf760e01b81526000600482015260240160405180910390fd5b61008181610087565b50610236565b600580546001600160a01b038381166001600160a01b0319831681179093556040519116919082907f8be0079c531659141344cd1fd0a4f28419497f9722a3daafe3b4186f6b6457e090600090a35050565b634e487b7160e01b600052604160045260246000fd5b600181811c9082168061010357607f821691505b60208210810361012357634e487b7160e01b600052602260045260246000fd5b50919050565b601f82111561017357806000526020600020601f840160051c810160208510156101505750805b601f840160051c820191505b81811015610170576000815560010161015c565b50505b505050565b81516001600160401b03811115610191576101916100d9565b6101a58161019f84546100ef565b84610129565b6020601f8211600181146101d957600083156101c15750848201515b600019600385901b1c1916600184901b178455610170565b600084815260208120601f198516915b8281101561020957878501518255602094850194600190920191016101e9565b50848210156102275786840151600019600387901b60f8161c191681555b50505050600190811b01905550565b610c9c806102456000396000f3fe608060405234801561001057600080fd5b50600436106101005760003560e01c806370a0823111610097578063a9059cbb11610066578063a9059cbb14610209578063b90497e01461021c578063dd62ed3e14610224578063f2fde38b1461025d57600080fd5b806370a08231146101b5578063715018a6146101de5780638da5cb5b146101e657806395d89b411461020157600080fd5b8063313ce567116100d3578063313ce5671461016b57806340c10f191461017a5780634cd88b761461018f57806358e792ee146101a257600080fd5b806306fdde0314610105578063095ea7b31461012357806318160ddd1461014657806323b872dd14610158575b600080fd5b61010d610270565b60405161011a919061088d565b60405180910390f35b6101366101313660046108f7565b610302565b604051901515815260200161011a565b6002545b60405190815260200161011a565b610136610166366004610921565b61031c565b6040516012815260200161011a565b61018d6101883660046108f7565b610340565b005b61018d61019d366004610a03565b610356565b61018d6101b0366004610a6c565b6103d9565b61014a6101c3366004610aa9565b6001600160a01b031660009081526020819052604090205490565b61018d6103ed565b6005546040516001600160a01b03909116815260200161011a565b61010d610401565b6101366102173660046108f7565b610410565b61010d61041e565b61014a610232366004610acb565b6001600160a01b03918216600090815260016020908152604080832093909416825291909152205490565b61018d61026b366004610aa9565b6104ac565b60606006805461027f90610afe565b80601f01602080910402602001604051908101604052809291908181526020018280546102ab90610afe565b80156102f85780601f106102cd576101008083540402835291602001916102f8565b820191906000526020600020905b8154815290600101906020018083116102db57829003601f168201915b5050505050905090565b6000336103108185856104ea565b60019150505b92915050565b60003361032a8582856104fc565b61033585858561057a565b506001949350505050565b6103486105d9565b6103528282610606565b5050565b60085460ff16156103ae5760405162461bcd60e51b815260206004820152601960248201527f546f6b656e20616c726561647920696e697469616c697a65640000000000000060448201526064015b60405180910390fd5b60066103ba8382610b86565b5060076103c78282610b86565b50506008805460ff1916600117905550565b6103e16105d9565b60096103528282610b86565b6103f56105d9565b6103ff600061063c565b565b60606007805461027f90610afe565b60003361031081858561057a565b6009805461042b90610afe565b80601f016020809104026020016040519081016040528092919081815260200182805461045790610afe565b80156104a45780601f10610479576101008083540402835291602001916104a4565b820191906000526020600020905b81548152906001019060200180831161048757829003601f168201915b505050505081565b6104b46105d9565b6001600160a01b0381166104de57604051631e4fbdf760e01b8152600060048201526024016103a5565b6104e78161063c565b50565b6104f7838383600161068e565b505050565b6001600160a01b038381166000908152600160209081526040808320938616835292905220546000198114610574578181101561056557604051637dc7a0d960e11b81526001600160a01b038416600482015260248101829052604481018390526064016103a5565b6105748484848403600061068e565b50505050565b6001600160a01b0383166105a457604051634b637e8f60e11b8152600060048201526024016103a5565b6001600160a01b0382166105ce5760405163ec442f0560e01b8152600060048201526024016103a5565b6104f7838383610763565b6005546001600160a01b031633146103ff5760405163118cdaa760e01b81523360048201526024016103a5565b6001600160a01b0382166106305760405163ec442f0560e01b8152600060048201526024016103a5565b61035260008383610763565b600580546001600160a01b038381166001600160a01b0319831681179093556040519116919082907f8be0079c531659141344cd1fd0a4f28419497f9722a3daafe3b4186f6b6457e090600090a35050565b6001600160a01b0384166106b85760405163e602df0560e01b8152600060048201526024016103a5565b6001600160a01b0383166106e257604051634a1406b160e11b8152600060048201526024016103a5565b6001600160a01b038085166000908152600160209081526040808320938716835292905220829055801561057457826001600160a01b0316846001600160a01b03167f8c5be1e5ebec7d5bd14f71427d1e84f3dd0314c0f7b2291e5b200ac8c7c3b9258460405161075591815260200190565b60405180910390a350505050565b6001600160a01b03831661078e5780600260008282546107839190610c45565b909155506108009050565b6001600160a01b038316600090815260208190526040902054818110156107e15760405163391434e360e21b81526001600160a01b038516600482015260248101829052604481018390526064016103a5565b6001600160a01b03841660009081526020819052604090209082900390555b6001600160a01b03821661081c5760028054829003905561083b565b6001600160a01b03821660009081526020819052604090208054820190555b816001600160a01b0316836001600160a01b03167fddf252ad1be2c89b69c2b068fc378daa952ba7f163c4a11628f55a4df523b3ef8360405161088091815260200190565b60405180910390a3505050565b602081526000825180602084015260005b818110156108bb576020818601810151604086840101520161089e565b506000604082850101526040601f19601f83011684010191505092915050565b80356001600160a01b03811681146108f257600080fd5b919050565b6000806040838503121561090a57600080fd5b610913836108db565b946020939093013593505050565b60008060006060848603121561093657600080fd5b61093f846108db565b925061094d602085016108db565b929592945050506040919091013590565b634e487b7160e01b600052604160045260246000fd5b600082601f83011261098557600080fd5b813567ffffffffffffffff81111561099f5761099f61095e565b604051601f8201601f19908116603f0116810167ffffffffffffffff811182821017156109ce576109ce61095e565b6040528181528382016020018510156109e657600080fd5b816020850160208301376000918101602001919091529392505050565b60008060408385031215610a1657600080fd5b823567ffffffffffffffff811115610a2d57600080fd5b610a3985828601610974565b925050602083013567ffffffffffffffff811115610a5657600080fd5b610a6285828601610974565b9150509250929050565b600060208284031215610a7e57600080fd5b813567ffffffffffffffff811115610a9557600080fd5b610aa184828501610974565b949350505050565b600060208284031215610abb57600080fd5b610ac4826108db565b9392505050565b60008060408385031215610ade57600080fd5b610ae7836108db565b9150610af5602084016108db565b90509250929050565b600181811c90821680610b1257607f821691505b602082108103610b3257634e487b7160e01b600052602260045260246000fd5b50919050565b601f8211156104f757806000526020600020601f840160051c81016020851015610b5f5750805b601f840160051c820191505b81811015610b7f5760008155600101610b6b565b5050505050565b815167ffffffffffffffff811115610ba057610ba061095e565b610bb481610bae8454610afe565b84610b38565b6020601f821160018114610be85760008315610bd05750848201515b600019600385901b1c1916600184901b178455610b7f565b600084815260208120601f198516915b82811015610c185787850151825560209485019460019092019101610bf8565b5084821015610c365786840151600019600387901b60f8161c191681555b50505050600190811b01905550565b8082018082111561031657634e487b7160e01b600052601160045260246000fdfea2646970667358221220c8852fb7b8bc5bc2e0bb47db09997f4a4be9d29054e1c4beec35e07625033d5f64736f6c634300081a0033bf67ec129007be07f346d9d2933215293a6612ce7ff17d6b479a5a5cae72890c",
					"opcodes": "PUSH1 0x80 PUSH1 0x40 MSTORE CALLVALUE DUP1 ISZERO PUSH2 0x10 JUMPI PUSH1 0x0 DUP1 REVERT JUMPDEST POP PUSH1 0x40 MLOAD PUSH2 0x2295 CODESIZE SUB DUP1 PUSH2 0x2295 DUP4 CODECOPY DUP2 ADD PUSH1 0x40 DUP2 SWAP1 MSTORE PUSH2 0x2F SWAP2 PUSH2 0x44E JUMP JUMPDEST CALLER DUP1 PUSH2 0x56 JUMPI PUSH1 0x40 MLOAD PUSH4 0x1E4FBDF7 PUSH1 0xE0 SHL DUP2 MSTORE PUSH1 0x0 PUSH1 0x4 DUP3 ADD MSTORE PUSH1 0x24 ADD JUMPDEST PUSH1 0x40 MLOAD DUP1 SWAP2 SUB SWAP1 REVERT JUMPDEST PUSH2 0x5F DUP2 PUSH2 0x3F1 JUMP JUMPDEST POP PUSH1 0x1 PUSH1 0x1 PUSH1 0xA0 SHL SUB DUP3 AND PUSH2 0xB6 JUMPI PUSH1 0x40 MLOAD PUSH3 0x461BCD PUSH1 0xE5 SHL DUP2 MSTORE PUSH1 0x20 PUSH1 0x4 DUP3 ADD MSTORE PUSH1 0x1F PUSH1 0x24 DUP3 ADD MSTORE PUSH32 0x496E76616C696420416C676562726120466163746F7279206164647265737300 PUSH1 0x44 DUP3 ADD MSTORE PUSH1 0x64 ADD PUSH2 0x4D JUMP JUMPDEST PUSH1 0x0 DUP2 GT PUSH2 0x114 JUMPI PUSH1 0x40 MLOAD PUSH3 0x461BCD PUSH1 0xE5 SHL DUP2 MSTORE PUSH1 0x20 PUSH1 0x4 DUP3 ADD MSTORE PUSH1 0x25 PUSH1 0x24 DUP3 ADD MSTORE PUSH32 0x4D696E7420616D6F756E74206D7573742062652067726561746572207468616E PUSH1 0x44 DUP3 ADD MSTORE PUSH5 0x207A65726F PUSH1 0xD8 SHL PUSH1 0x64 DUP3 ADD MSTORE PUSH1 0x84 ADD PUSH2 0x4D JUMP JUMPDEST PUSH1 0x1 DUP1 SLOAD PUSH1 0x1 PUSH1 0x1 PUSH1 0xA0 SHL SUB NOT AND PUSH1 0x1 PUSH1 0x1 PUSH1 0xA0 SHL SUB DUP5 AND OR SWAP1 SSTORE PUSH1 0x40 MLOAD PUSH1 0x0 SWAP1 PUSH2 0x13E SWAP1 PUSH2 0x441 JUMP JUMPDEST PUSH1 0x40 MLOAD DUP1 SWAP2 SUB SWAP1 PUSH1 0x0 CREATE DUP1 ISZERO DUP1 ISZERO PUSH2 0x15A JUMPI RETURNDATASIZE PUSH1 0x0 DUP1 RETURNDATACOPY RETURNDATASIZE PUSH1 0x0 REVERT JUMPDEST POP PUSH1 0x40 DUP1 MLOAD PUSH4 0x266C45BB PUSH1 0xE1 SHL DUP2 MSTORE PUSH1 0x4 DUP2 ADD SWAP2 SWAP1 SWAP2 MSTORE PUSH1 0x6 PUSH1 0x44 DUP3 ADD MSTORE PUSH6 0x546F6B656E41 PUSH1 0xD0 SHL PUSH1 0x64 DUP3 ADD MSTORE PUSH1 0x80 PUSH1 0x24 DUP3 ADD MSTORE PUSH1 0x2 PUSH1 0x84 DUP3 ADD MSTORE PUSH2 0x5441 PUSH1 0xF0 SHL PUSH1 0xA4 DUP3 ADD MSTORE SWAP1 SWAP2 POP PUSH1 0x1 PUSH1 0x1 PUSH1 0xA0 SHL SUB DUP3 AND SWAP1 PUSH4 0x4CD88B76 SWAP1 PUSH1 0xC4 ADD PUSH1 0x0 PUSH1 0x40 MLOAD DUP1 DUP4 SUB DUP2 PUSH1 0x0 DUP8 DUP1 EXTCODESIZE ISZERO DUP1 ISZERO PUSH2 0x1D1 JUMPI PUSH1 0x0 DUP1 REVERT JUMPDEST POP GAS CALL ISZERO DUP1 ISZERO PUSH2 0x1E5 JUMPI RETURNDATASIZE PUSH1 0x0 DUP1 RETURNDATACOPY RETURNDATASIZE PUSH1 0x0 REVERT JUMPDEST POP POP PUSH1 0x40 MLOAD PUSH4 0x40C10F19 PUSH1 0xE0 SHL DUP2 MSTORE CALLER PUSH1 0x4 DUP3 ADD MSTORE PUSH1 0x24 DUP2 ADD DUP6 SWAP1 MSTORE PUSH1 0x1 PUSH1 0x1 PUSH1 0xA0 SHL SUB DUP5 AND SWAP3 POP PUSH4 0x40C10F19 SWAP2 POP PUSH1 0x44 ADD PUSH1 0x0 PUSH1 0x40 MLOAD DUP1 DUP4 SUB DUP2 PUSH1 0x0 DUP8 DUP1 EXTCODESIZE ISZERO DUP1 ISZERO PUSH2 0x231 JUMPI PUSH1 0x0 DUP1 REVERT JUMPDEST POP GAS CALL ISZERO DUP1 ISZERO PUSH2 0x245 JUMPI RETURNDATASIZE PUSH1 0x0 DUP1 RETURNDATACOPY RETURNDATASIZE PUSH1 0x0 REVERT JUMPDEST POP POP PUSH1 0x3 DUP1 SLOAD PUSH1 0x1 PUSH1 0x1 PUSH1 0xA0 SHL SUB NOT AND PUSH1 0x1 PUSH1 0x1 PUSH1 0xA0 SHL SUB DUP6 AND SWAP1 DUP2 OR SWAP1 SWAP2 SSTORE PUSH1 0x40 MLOAD DUP6 DUP2 MSTORE CALLER SWAP4 POP SWAP1 SWAP2 POP PUSH1 0x0 DUP1 MLOAD PUSH1 0x20 PUSH2 0x2275 DUP4 CODECOPY DUP2 MLOAD SWAP2 MSTORE SWAP1 PUSH1 0x20 ADD PUSH1 0x40 MLOAD DUP1 SWAP2 SUB SWAP1 LOG3 PUSH1 0x0 PUSH1 0x40 MLOAD PUSH2 0x29A SWAP1 PUSH2 0x441 JUMP JUMPDEST PUSH1 0x40 MLOAD DUP1 SWAP2 SUB SWAP1 PUSH1 0x0 CREATE DUP1 ISZERO DUP1 ISZERO PUSH2 0x2B6 JUMPI RETURNDATASIZE PUSH1 0x0 DUP1 RETURNDATACOPY RETURNDATASIZE PUSH1 0x0 REVERT JUMPDEST POP PUSH1 0x40 DUP1 MLOAD PUSH4 0x266C45BB PUSH1 0xE1 SHL DUP2 MSTORE PUSH1 0x4 DUP2 ADD SWAP2 SWAP1 SWAP2 MSTORE PUSH1 0x6 PUSH1 0x44 DUP3 ADD MSTORE PUSH6 0x2A37B5B2B721 PUSH1 0xD1 SHL PUSH1 0x64 DUP3 ADD MSTORE PUSH1 0x80 PUSH1 0x24 DUP3 ADD MSTORE PUSH1 0x2 PUSH1 0x84 DUP3 ADD MSTORE PUSH2 0x2A21 PUSH1 0xF1 SHL PUSH1 0xA4 DUP3 ADD MSTORE SWAP1 SWAP2 POP PUSH1 0x1 PUSH1 0x1 PUSH1 0xA0 SHL SUB DUP3 AND SWAP1 PUSH4 0x4CD88B76 SWAP1 PUSH1 0xC4 ADD PUSH1 0x0 PUSH1 0x40 MLOAD DUP1 DUP4 SUB DUP2 PUSH1 0x0 DUP8 DUP1 EXTCODESIZE ISZERO DUP1 ISZERO PUSH2 0x32D JUMPI PUSH1 0x0 DUP1 REVERT JUMPDEST POP GAS CALL ISZERO DUP1 ISZERO PUSH2 0x341 JUMPI RETURNDATASIZE PUSH1 0x0 DUP1 RETURNDATACOPY RETURNDATASIZE PUSH1 0x0 REVERT JUMPDEST POP POP PUSH1 0x40 MLOAD PUSH4 0x40C10F19 PUSH1 0xE0 SHL DUP2 MSTORE CALLER PUSH1 0x4 DUP3 ADD MSTORE PUSH1 0x24 DUP2 ADD DUP7 SWAP1 MSTORE PUSH1 0x1 PUSH1 0x1 PUSH1 0xA0 SHL SUB DUP5 AND SWAP3 POP PUSH4 0x40C10F19 SWAP2 POP PUSH1 0x44 ADD PUSH1 0x0 PUSH1 0x40 MLOAD DUP1 DUP4 SUB DUP2 PUSH1 0x0 DUP8 DUP1 EXTCODESIZE ISZERO DUP1 ISZERO PUSH2 0x38D JUMPI PUSH1 0x0 DUP1 REVERT JUMPDEST POP GAS CALL ISZERO DUP1 ISZERO PUSH2 0x3A1 JUMPI RETURNDATASIZE PUSH1 0x0 DUP1 RETURNDATACOPY RETURNDATASIZE PUSH1 0x0 REVERT JUMPDEST POP POP PUSH1 0x4 DUP1 SLOAD PUSH1 0x1 PUSH1 0x1 PUSH1 0xA0 SHL SUB NOT AND PUSH1 0x1 PUSH1 0x1 PUSH1 0xA0 SHL SUB DUP6 AND SWAP1 DUP2 OR SWAP1 SWAP2 SSTORE PUSH1 0x40 MLOAD DUP7 DUP2 MSTORE CALLER SWAP4 POP SWAP1 SWAP2 POP PUSH1 0x0 DUP1 MLOAD PUSH1 0x20 PUSH2 0x2275 DUP4 CODECOPY DUP2 MLOAD SWAP2 MSTORE SWAP1 PUSH1 0x20 ADD PUSH1 0x40 MLOAD DUP1 SWAP2 SUB SWAP1 LOG3 POP POP POP POP PUSH2 0x488 JUMP JUMPDEST PUSH1 0x0 DUP1 SLOAD PUSH1 0x1 PUSH1 0x1 PUSH1 0xA0 SHL SUB DUP4 DUP2 AND PUSH1 0x1 PUSH1 0x1 PUSH1 0xA0 SHL SUB NOT DUP4 AND DUP2 OR DUP5 SSTORE PUSH1 0x40 MLOAD SWAP2 SWAP1 SWAP3 AND SWAP3 DUP4 SWAP2 PUSH32 0x8BE0079C531659141344CD1FD0A4F28419497F9722A3DAAFE3B4186F6B6457E0 SWAP2 SWAP1 LOG3 POP POP JUMP JUMPDEST PUSH2 0xEE1 DUP1 PUSH2 0x1394 DUP4 CODECOPY ADD SWAP1 JUMP JUMPDEST PUSH1 0x0 DUP1 PUSH1 0x40 DUP4 DUP6 SUB SLT ISZERO PUSH2 0x461 JUMPI PUSH1 0x0 DUP1 REVERT JUMPDEST DUP3 MLOAD PUSH1 0x1 PUSH1 0x1 PUSH1 0xA0 SHL SUB DUP2 AND DUP2 EQ PUSH2 0x478 JUMPI PUSH1 0x0 DUP1 REVERT JUMPDEST PUSH1 0x20 SWAP4 SWAP1 SWAP4 ADD MLOAD SWAP3 SWAP5 SWAP3 SWAP4 POP POP POP JUMP JUMPDEST PUSH2 0xEFD DUP1 PUSH2 0x497 PUSH1 0x0 CODECOPY PUSH1 0x0 RETURN INVALID PUSH1 0x80 PUSH1 0x40 MSTORE CALLVALUE DUP1 ISZERO PUSH2 0x10 JUMPI PUSH1 0x0 DUP1 REVERT JUMPDEST POP PUSH1 0x4 CALLDATASIZE LT PUSH2 0xCF JUMPI PUSH1 0x0 CALLDATALOAD PUSH1 0xE0 SHR DUP1 PUSH4 0x8DA5CB5B GT PUSH2 0x8C JUMPI DUP1 PUSH4 0xA7B64B04 GT PUSH2 0x66 JUMPI DUP1 PUSH4 0xA7B64B04 EQ PUSH2 0x185 JUMPI DUP1 PUSH4 0xB62D2AF9 EQ PUSH2 0x198 JUMPI DUP1 PUSH4 0xD8ED2241 EQ PUSH2 0x1AB JUMPI DUP1 PUSH4 0xF2FDE38B EQ PUSH2 0x1BE JUMPI PUSH1 0x0 DUP1 REVERT JUMPDEST DUP1 PUSH4 0x8DA5CB5B EQ PUSH2 0x159 JUMPI DUP1 PUSH4 0x9A06B113 EQ PUSH2 0x16A JUMPI DUP1 PUSH4 0x9CD441DA EQ PUSH2 0x172 JUMPI PUSH1 0x0 DUP1 REVERT JUMPDEST DUP1 PUSH4 0xFC63D10 EQ PUSH2 0xD4 JUMPI DUP1 PUSH4 0x1A7C2131 EQ PUSH2 0x103 JUMPI DUP1 PUSH4 0x4F16FA53 EQ PUSH2 0x116 JUMPI DUP1 PUSH4 0x5F64B55B EQ PUSH2 0x12B JUMPI DUP1 PUSH4 0x6FC98EE1 EQ PUSH2 0x13E JUMPI DUP1 PUSH4 0x715018A6 EQ PUSH2 0x151 JUMPI JUMPDEST PUSH1 0x0 DUP1 REVERT JUMPDEST PUSH1 0x3 SLOAD PUSH2 0xE7 SWAP1 PUSH1 0x1 PUSH1 0x1 PUSH1 0xA0 SHL SUB AND DUP2 JUMP JUMPDEST PUSH1 0x40 MLOAD PUSH1 0x1 PUSH1 0x1 PUSH1 0xA0 SHL SUB SWAP1 SWAP2 AND DUP2 MSTORE PUSH1 0x20 ADD PUSH1 0x40 MLOAD DUP1 SWAP2 SUB SWAP1 RETURN JUMPDEST PUSH1 0x2 SLOAD PUSH2 0xE7 SWAP1 PUSH1 0x1 PUSH1 0x1 PUSH1 0xA0 SHL SUB AND DUP2 JUMP JUMPDEST PUSH2 0x129 PUSH2 0x124 CALLDATASIZE PUSH1 0x4 PUSH2 0xD79 JUMP JUMPDEST PUSH2 0x1D1 JUMP JUMPDEST STOP JUMPDEST PUSH1 0x4 SLOAD PUSH2 0xE7 SWAP1 PUSH1 0x1 PUSH1 0x1 PUSH1 0xA0 SHL SUB AND DUP2 JUMP JUMPDEST PUSH2 0x129 PUSH2 0x14C CALLDATASIZE PUSH1 0x4 PUSH2 0xD79 JUMP JUMPDEST PUSH2 0x38A JUMP JUMPDEST PUSH2 0x129 PUSH2 0x524 JUMP JUMPDEST PUSH1 0x0 SLOAD PUSH1 0x1 PUSH1 0x1 PUSH1 0xA0 SHL SUB AND PUSH2 0xE7 JUMP JUMPDEST PUSH2 0x129 PUSH2 0x538 JUMP JUMPDEST PUSH2 0x129 PUSH2 0x180 CALLDATASIZE PUSH1 0x4 PUSH2 0xDBA JUMP JUMPDEST PUSH2 0x78D JUMP JUMPDEST PUSH1 0x1 SLOAD PUSH2 0xE7 SWAP1 PUSH1 0x1 PUSH1 0x1 PUSH1 0xA0 SHL SUB AND DUP2 JUMP JUMPDEST PUSH2 0x129 PUSH2 0x1A6 CALLDATASIZE PUSH1 0x4 PUSH2 0xDDC JUMP JUMPDEST PUSH2 0xB0F JUMP JUMPDEST PUSH2 0xE7 PUSH2 0x1B9 CALLDATASIZE PUSH1 0x4 PUSH2 0xE00 JUMP JUMPDEST PUSH2 0xB8F JUMP JUMPDEST PUSH2 0x129 PUSH2 0x1CC CALLDATASIZE PUSH1 0x4 PUSH2 0xDDC JUMP JUMPDEST PUSH2 0xCA9 JUMP JUMPDEST PUSH2 0x1D9 PUSH2 0xCE7 JUMP JUMPDEST PUSH1 0x3 SLOAD PUSH1 0x1 PUSH1 0x1 PUSH1 0xA0 SHL SUB DUP5 DUP2 AND SWAP2 AND EQ DUP1 PUSH2 0x202 JUMPI POP PUSH1 0x4 SLOAD PUSH1 0x1 PUSH1 0x1 PUSH1 0xA0 SHL SUB DUP5 DUP2 AND SWAP2 AND EQ JUMPDEST PUSH2 0x227 JUMPI PUSH1 0x40 MLOAD PUSH3 0x461BCD PUSH1 0xE5 SHL DUP2 MSTORE PUSH1 0x4 ADD PUSH2 0x21E SWAP1 PUSH2 0xE39 JUMP JUMPDEST PUSH1 0x40 MLOAD DUP1 SWAP2 SUB SWAP1 REVERT JUMPDEST PUSH1 0x1 PUSH1 0x1 PUSH1 0xA0 SHL SUB DUP3 AND PUSH2 0x274 JUMPI PUSH1 0x40 MLOAD PUSH3 0x461BCD PUSH1 0xE5 SHL DUP2 MSTORE PUSH1 0x20 PUSH1 0x4 DUP3 ADD MSTORE PUSH1 0x14 PUSH1 0x24 DUP3 ADD MSTORE PUSH20 0x496E76616C696420706F6F6C2061646472657373 PUSH1 0x60 SHL PUSH1 0x44 DUP3 ADD MSTORE PUSH1 0x64 ADD PUSH2 0x21E JUMP JUMPDEST PUSH1 0x0 DUP2 GT PUSH2 0x2C4 JUMPI PUSH1 0x40 MLOAD PUSH3 0x461BCD PUSH1 0xE5 SHL DUP2 MSTORE PUSH1 0x20 PUSH1 0x4 DUP3 ADD DUP2 SWAP1 MSTORE PUSH1 0x24 DUP3 ADD MSTORE PUSH32 0x416D6F756E74206D7573742062652067726561746572207468616E207A65726F PUSH1 0x44 DUP3 ADD MSTORE PUSH1 0x64 ADD PUSH2 0x21E JUMP JUMPDEST PUSH1 0x40 MLOAD PUSH4 0xA9059CBB PUSH1 0xE0 SHL DUP2 MSTORE PUSH1 0x1 PUSH1 0x1 PUSH1 0xA0 SHL SUB DUP4 DUP2 AND PUSH1 0x4 DUP4 ADD MSTORE PUSH1 0x24 DUP3 ADD DUP4 SWAP1 MSTORE DUP5 AND SWAP1 PUSH4 0xA9059CBB SWAP1 PUSH1 0x44 ADD PUSH1 0x20 PUSH1 0x40 MLOAD DUP1 DUP4 SUB DUP2 PUSH1 0x0 DUP8 GAS CALL ISZERO DUP1 ISZERO PUSH2 0x313 JUMPI RETURNDATASIZE PUSH1 0x0 DUP1 RETURNDATACOPY RETURNDATASIZE PUSH1 0x0 REVERT JUMPDEST POP POP POP POP PUSH1 0x40 MLOAD RETURNDATASIZE PUSH1 0x1F NOT PUSH1 0x1F DUP3 ADD AND DUP3 ADD DUP1 PUSH1 0x40 MSTORE POP DUP2 ADD SWAP1 PUSH2 0x337 SWAP2 SWAP1 PUSH2 0xE68 JUMP JUMPDEST POP DUP2 PUSH1 0x1 PUSH1 0x1 PUSH1 0xA0 SHL SUB AND DUP4 PUSH1 0x1 PUSH1 0x1 PUSH1 0xA0 SHL SUB AND PUSH32 0x32D8CCB17EDF05070E5A75F56F66402F1E3071F6104787C3EC400AFBB1A0D6D1 DUP4 PUSH1 0x40 MLOAD PUSH2 0x37D SWAP2 DUP2 MSTORE PUSH1 0x20 ADD SWAP1 JUMP JUMPDEST PUSH1 0x40 MLOAD DUP1 SWAP2 SUB SWAP1 LOG3 POP POP POP JUMP JUMPDEST PUSH2 0x392 PUSH2 0xCE7 JUMP JUMPDEST PUSH1 0x3 SLOAD PUSH1 0x1 PUSH1 0x1 PUSH1 0xA0 SHL SUB DUP5 DUP2 AND SWAP2 AND EQ DUP1 PUSH2 0x3BB JUMPI POP PUSH1 0x4 SLOAD PUSH1 0x1 PUSH1 0x1 PUSH1 0xA0 SHL SUB DUP5 DUP2 AND SWAP2 AND EQ JUMPDEST PUSH2 0x3D7 JUMPI PUSH1 0x40 MLOAD PUSH3 0x461BCD PUSH1 0xE5 SHL DUP2 MSTORE PUSH1 0x4 ADD PUSH2 0x21E SWAP1 PUSH2 0xE39 JUMP JUMPDEST PUSH1 0x1 PUSH1 0x1 PUSH1 0xA0 SHL SUB DUP3 AND PUSH2 0x42D JUMPI PUSH1 0x40 MLOAD PUSH3 0x461BCD PUSH1 0xE5 SHL DUP2 MSTORE PUSH1 0x20 PUSH1 0x4 DUP3 ADD MSTORE PUSH1 0x19 PUSH1 0x24 DUP3 ADD MSTORE PUSH32 0x496E76616C696420726563697069656E74206164647265737300000000000000 PUSH1 0x44 DUP3 ADD MSTORE PUSH1 0x64 ADD PUSH2 0x21E JUMP JUMPDEST PUSH1 0x0 DUP2 GT PUSH2 0x47D JUMPI PUSH1 0x40 MLOAD PUSH3 0x461BCD PUSH1 0xE5 SHL DUP2 MSTORE PUSH1 0x20 PUSH1 0x4 DUP3 ADD DUP2 SWAP1 MSTORE PUSH1 0x24 DUP3 ADD MSTORE PUSH32 0x416D6F756E74206D7573742062652067726561746572207468616E207A65726F PUSH1 0x44 DUP3 ADD MSTORE PUSH1 0x64 ADD PUSH2 0x21E JUMP JUMPDEST PUSH1 0x40 MLOAD PUSH4 0x40C10F19 PUSH1 0xE0 SHL DUP2 MSTORE PUSH1 0x1 PUSH1 0x1 PUSH1 0xA0 SHL SUB DUP4 DUP2 AND PUSH1 0x4 DUP4 ADD MSTORE PUSH1 0x24 DUP3 ADD DUP4 SWAP1 MSTORE DUP5 AND SWAP1 PUSH4 0x40C10F19 SWAP1 PUSH1 0x44 ADD PUSH1 0x0 PUSH1 0x40 MLOAD DUP1 DUP4 SUB DUP2 PUSH1 0x0 DUP8 DUP1 EXTCODESIZE ISZERO DUP1 ISZERO PUSH2 0x4C7 JUMPI PUSH1 0x0 DUP1 REVERT JUMPDEST POP GAS CALL ISZERO DUP1 ISZERO PUSH2 0x4DB JUMPI RETURNDATASIZE PUSH1 0x0 DUP1 RETURNDATACOPY RETURNDATASIZE PUSH1 0x0 REVERT JUMPDEST POP POP POP POP DUP2 PUSH1 0x1 PUSH1 0x1 PUSH1 0xA0 SHL SUB AND DUP4 PUSH1 0x1 PUSH1 0x1 PUSH1 0xA0 SHL SUB AND PUSH32 0xBF67EC129007BE07F346D9D2933215293A6612CE7FF17D6B479A5A5CAE72890C DUP4 PUSH1 0x40 MLOAD PUSH2 0x37D SWAP2 DUP2 MSTORE PUSH1 0x20 ADD SWAP1 JUMP JUMPDEST PUSH2 0x52C PUSH2 0xCE7 JUMP JUMPDEST PUSH2 0x536 PUSH1 0x0 PUSH2 0xD14 JUMP JUMPDEST JUMP JUMPDEST PUSH2 0x540 PUSH2 0xCE7 JUMP JUMPDEST PUSH1 0x0 DUP1 MLOAD PUSH1 0x20 PUSH2 0xEA8 DUP4 CODECOPY DUP2 MLOAD SWAP2 MSTORE PUSH1 0x40 MLOAD PUSH2 0x586 SWAP1 PUSH1 0x20 DUP1 DUP3 MSTORE PUSH1 0x16 SWAP1 DUP3 ADD MSTORE PUSH22 0x29BA30B93A34B733903837B7B61031B932B0BA34B7B7 PUSH1 0x51 SHL PUSH1 0x40 DUP3 ADD MSTORE PUSH1 0x60 ADD SWAP1 JUMP JUMPDEST PUSH1 0x40 MLOAD DUP1 SWAP2 SUB SWAP1 LOG1 PUSH1 0x3 SLOAD PUSH1 0x1 PUSH1 0x1 PUSH1 0xA0 SHL SUB AND ISZERO DUP1 ISZERO SWAP1 PUSH2 0x5B2 JUMPI POP PUSH1 0x4 SLOAD PUSH1 0x1 PUSH1 0x1 PUSH1 0xA0 SHL SUB AND ISZERO ISZERO JUMPDEST PUSH2 0x5FE JUMPI PUSH1 0x40 MLOAD PUSH3 0x461BCD PUSH1 0xE5 SHL DUP2 MSTORE PUSH1 0x20 PUSH1 0x4 DUP3 ADD MSTORE PUSH1 0x1A PUSH1 0x24 DUP3 ADD MSTORE PUSH32 0x546F6B656E73206D75737420626520696E697469616C697A6564000000000000 PUSH1 0x44 DUP3 ADD MSTORE PUSH1 0x64 ADD PUSH2 0x21E JUMP JUMPDEST PUSH1 0x4 SLOAD PUSH1 0x3 SLOAD PUSH1 0x1 PUSH1 0x1 PUSH1 0xA0 SHL SUB SWAP2 DUP3 AND SWAP2 AND SUB PUSH2 0x659 JUMPI PUSH1 0x40 MLOAD PUSH3 0x461BCD PUSH1 0xE5 SHL DUP2 MSTORE PUSH1 0x20 PUSH1 0x4 DUP3 ADD MSTORE PUSH1 0x18 PUSH1 0x24 DUP3 ADD MSTORE PUSH24 0x151BDAD95B9CC81B5D5CDD08189948191A5999995C995B9D PUSH1 0x42 SHL PUSH1 0x44 DUP3 ADD MSTORE PUSH1 0x64 ADD PUSH2 0x21E JUMP JUMPDEST PUSH1 0x1 SLOAD PUSH1 0x3 SLOAD PUSH1 0x4 DUP1 SLOAD PUSH1 0x40 MLOAD PUSH4 0xE3433615 PUSH1 0xE0 SHL DUP2 MSTORE PUSH1 0x1 PUSH1 0x1 PUSH1 0xA0 SHL SUB SWAP4 DUP5 AND SWAP3 DUP2 ADD SWAP3 SWAP1 SWAP3 MSTORE DUP3 AND PUSH1 0x24 DUP3 ADD MSTORE SWAP2 AND SWAP1 DUP2 SWAP1 PUSH4 0xE3433615 SWAP1 PUSH1 0x44 ADD PUSH1 0x20 PUSH1 0x40 MLOAD DUP1 DUP4 SUB DUP2 PUSH1 0x0 DUP8 GAS CALL ISZERO DUP1 ISZERO PUSH2 0x6B6 JUMPI RETURNDATASIZE PUSH1 0x0 DUP1 RETURNDATACOPY RETURNDATASIZE PUSH1 0x0 REVERT JUMPDEST POP POP POP POP PUSH1 0x40 MLOAD RETURNDATASIZE PUSH1 0x1F NOT PUSH1 0x1F DUP3 ADD AND DUP3 ADD DUP1 PUSH1 0x40 MSTORE POP DUP2 ADD SWAP1 PUSH2 0x6DA SWAP2 SWAP1 PUSH2 0xE8A JUMP JUMPDEST PUSH1 0x2 DUP1 SLOAD PUSH1 0x1 PUSH1 0x1 PUSH1 0xA0 SHL SUB NOT AND PUSH1 0x1 PUSH1 0x1 PUSH1 0xA0 SHL SUB SWAP3 SWAP1 SWAP3 AND SWAP2 DUP3 OR SWAP1 SSTORE PUSH2 0x73D JUMPI PUSH1 0x40 MLOAD PUSH3 0x461BCD PUSH1 0xE5 SHL DUP2 MSTORE PUSH1 0x20 PUSH1 0x4 DUP3 ADD MSTORE PUSH1 0x15 PUSH1 0x24 DUP3 ADD MSTORE PUSH21 0x11985A5B1959081D1BC818DC99585D19481C1BDBDB PUSH1 0x5A SHL PUSH1 0x44 DUP3 ADD MSTORE PUSH1 0x64 ADD PUSH2 0x21E JUMP JUMPDEST PUSH1 0x4 SLOAD PUSH1 0x3 SLOAD PUSH1 0x2 SLOAD PUSH1 0x40 MLOAD PUSH1 0x1 PUSH1 0x1 PUSH1 0xA0 SHL SUB SWAP2 DUP3 AND DUP2 MSTORE SWAP3 DUP2 AND SWAP3 SWAP2 AND SWAP1 PUSH32 0x9C5D829B9B23EFC461F9AEEF91979EC04BB903FEB3BEE4F26D22114ABFC7335B SWAP1 PUSH1 0x20 ADD PUSH1 0x40 MLOAD DUP1 SWAP2 SUB SWAP1 LOG3 POP JUMP JUMPDEST PUSH2 0x795 PUSH2 0xCE7 JUMP JUMPDEST PUSH1 0x0 DUP1 MLOAD PUSH1 0x20 PUSH2 0xEA8 DUP4 CODECOPY DUP2 MLOAD SWAP2 MSTORE PUSH1 0x40 MLOAD PUSH2 0x7E2 SWAP1 PUSH1 0x20 DUP1 DUP3 MSTORE PUSH1 0x1B SWAP1 DUP3 ADD MSTORE PUSH32 0x5374617274696E67206C6971756964697479206164646974696F6E0000000000 PUSH1 0x40 DUP3 ADD MSTORE PUSH1 0x60 ADD SWAP1 JUMP JUMPDEST PUSH1 0x40 MLOAD DUP1 SWAP2 SUB SWAP1 LOG1 PUSH1 0x2 SLOAD PUSH1 0x1 PUSH1 0x1 PUSH1 0xA0 SHL SUB AND PUSH2 0x834 JUMPI PUSH1 0x40 MLOAD PUSH3 0x461BCD PUSH1 0xE5 SHL DUP2 MSTORE PUSH1 0x20 PUSH1 0x4 DUP3 ADD MSTORE PUSH1 0xF PUSH1 0x24 DUP3 ADD MSTORE PUSH15 0x139BC81C1BDBDB0818DC99585D1959 PUSH1 0x8A SHL PUSH1 0x44 DUP3 ADD MSTORE PUSH1 0x64 ADD PUSH2 0x21E JUMP JUMPDEST PUSH1 0x0 DUP3 GT DUP1 ISZERO PUSH2 0x844 JUMPI POP PUSH1 0x0 DUP2 GT JUMPDEST PUSH2 0x8A0 JUMPI PUSH1 0x40 MLOAD PUSH3 0x461BCD PUSH1 0xE5 SHL DUP2 MSTORE PUSH1 0x20 PUSH1 0x4 DUP3 ADD MSTORE PUSH1 0x27 PUSH1 0x24 DUP3 ADD MSTORE PUSH32 0x546F6B656E20616D6F756E7473206D7573742062652067726561746572207468 PUSH1 0x44 DUP3 ADD MSTORE PUSH7 0x616E207A65726F PUSH1 0xC8 SHL PUSH1 0x64 DUP3 ADD MSTORE PUSH1 0x84 ADD PUSH2 0x21E JUMP JUMPDEST PUSH1 0x3 SLOAD PUSH1 0x2 SLOAD PUSH1 0x40 MLOAD PUSH4 0xA9059CBB PUSH1 0xE0 SHL DUP2 MSTORE PUSH1 0x1 PUSH1 0x1 PUSH1 0xA0 SHL SUB SWAP2 DUP3 AND PUSH1 0x4 DUP3 ADD MSTORE PUSH1 0x24 DUP2 ADD DUP6 SWAP1 MSTORE PUSH1 0x0 SWAP3 SWAP2 SWAP1 SWAP2 AND SWAP1 PUSH4 0xA9059CBB SWAP1 PUSH1 0x44 ADD PUSH1 0x20 PUSH1 0x40 MLOAD DUP1 DUP4 SUB DUP2 PUSH1 0x0 DUP8 GAS CALL ISZERO DUP1 ISZERO PUSH2 0x8FA JUMPI RETURNDATASIZE PUSH1 0x0 DUP1 RETURNDATACOPY RETURNDATASIZE PUSH1 0x0 REVERT JUMPDEST POP POP POP POP PUSH1 0x40 MLOAD RETURNDATASIZE PUSH1 0x1F NOT PUSH1 0x1F DUP3 ADD AND DUP3 ADD DUP1 PUSH1 0x40 MSTORE POP DUP2 ADD SWAP1 PUSH2 0x91E SWAP2 SWAP1 PUSH2 0xE68 JUMP JUMPDEST SWAP1 POP DUP1 PUSH2 0x966 JUMPI PUSH1 0x40 MLOAD PUSH3 0x461BCD PUSH1 0xE5 SHL DUP2 MSTORE PUSH1 0x20 PUSH1 0x4 DUP3 ADD MSTORE PUSH1 0x16 PUSH1 0x24 DUP3 ADD MSTORE PUSH22 0x151BDAD95B90481D1C985B9CD9995C8819985A5B1959 PUSH1 0x52 SHL PUSH1 0x44 DUP3 ADD MSTORE PUSH1 0x64 ADD PUSH2 0x21E JUMP JUMPDEST PUSH1 0x0 DUP1 MLOAD PUSH1 0x20 PUSH2 0xEA8 DUP4 CODECOPY DUP2 MLOAD SWAP2 MSTORE PUSH1 0x40 MLOAD PUSH2 0x9A8 SWAP1 PUSH1 0x20 DUP1 DUP3 MSTORE PUSH1 0x12 SWAP1 DUP3 ADD MSTORE PUSH18 0x151BDAD95B90481D1C985B9CD9995C9C9959 PUSH1 0x72 SHL PUSH1 0x40 DUP3 ADD MSTORE PUSH1 0x60 ADD SWAP1 JUMP JUMPDEST PUSH1 0x40 MLOAD DUP1 SWAP2 SUB SWAP1 LOG1 PUSH1 0x4 DUP1 SLOAD PUSH1 0x2 SLOAD PUSH1 0x40 MLOAD PUSH4 0xA9059CBB PUSH1 0xE0 SHL DUP2 MSTORE PUSH1 0x1 PUSH1 0x1 PUSH1 0xA0 SHL SUB SWAP2 DUP3 AND SWAP4 DUP2 ADD SWAP4 SWAP1 SWAP4 MSTORE PUSH1 0x24 DUP4 ADD DUP6 SWAP1 MSTORE PUSH1 0x0 SWAP3 SWAP2 AND SWAP1 PUSH4 0xA9059CBB SWAP1 PUSH1 0x44 ADD PUSH1 0x20 PUSH1 0x40 MLOAD DUP1 DUP4 SUB DUP2 PUSH1 0x0 DUP8 GAS CALL ISZERO DUP1 ISZERO PUSH2 0xA0B JUMPI RETURNDATASIZE PUSH1 0x0 DUP1 RETURNDATACOPY RETURNDATASIZE PUSH1 0x0 REVERT JUMPDEST POP POP POP POP PUSH1 0x40 MLOAD RETURNDATASIZE PUSH1 0x1F NOT PUSH1 0x1F DUP3 ADD AND DUP3 ADD DUP1 PUSH1 0x40 MSTORE POP DUP2 ADD SWAP1 PUSH2 0xA2F SWAP2 SWAP1 PUSH2 0xE68 JUMP JUMPDEST SWAP1 POP DUP1 PUSH2 0xA77 JUMPI PUSH1 0x40 MLOAD PUSH3 0x461BCD PUSH1 0xE5 SHL DUP2 MSTORE PUSH1 0x20 PUSH1 0x4 DUP3 ADD MSTORE PUSH1 0x16 PUSH1 0x24 DUP3 ADD MSTORE PUSH22 0x151BDAD95B90881D1C985B9CD9995C8819985A5B1959 PUSH1 0x52 SHL PUSH1 0x44 DUP3 ADD MSTORE PUSH1 0x64 ADD PUSH2 0x21E JUMP JUMPDEST PUSH1 0x0 DUP1 MLOAD PUSH1 0x20 PUSH2 0xEA8 DUP4 CODECOPY DUP2 MLOAD SWAP2 MSTORE PUSH1 0x40 MLOAD PUSH2 0xAB9 SWAP1 PUSH1 0x20 DUP1 DUP3 MSTORE PUSH1 0x12 SWAP1 DUP3 ADD MSTORE PUSH18 0x151BDAD95B90881D1C985B9CD9995C9C9959 PUSH1 0x72 SHL PUSH1 0x40 DUP3 ADD MSTORE PUSH1 0x60 ADD SWAP1 JUMP JUMPDEST PUSH1 0x40 MLOAD DUP1 SWAP2 SUB SWAP1 LOG1 PUSH1 0x2 SLOAD PUSH1 0x40 DUP1 MLOAD DUP7 DUP2 MSTORE PUSH1 0x20 DUP2 ADD DUP7 SWAP1 MSTORE PUSH1 0x1 PUSH1 0x1 PUSH1 0xA0 SHL SUB SWAP1 SWAP3 AND SWAP2 PUSH32 0xAC1D76749E5447B7B16F5AB61447E1BD502F3BB4807AF3B28E620D1700A6EE45 SWAP2 ADD PUSH1 0x40 MLOAD DUP1 SWAP2 SUB SWAP1 LOG2 POP POP POP POP JUMP JUMPDEST PUSH2 0xB17 PUSH2 0xCE7 JUMP JUMPDEST PUSH1 0x1 PUSH1 0x1 PUSH1 0xA0 SHL SUB DUP2 AND PUSH2 0xB6D JUMPI PUSH1 0x40 MLOAD PUSH3 0x461BCD PUSH1 0xE5 SHL DUP2 MSTORE PUSH1 0x20 PUSH1 0x4 DUP3 ADD MSTORE PUSH1 0x1F PUSH1 0x24 DUP3 ADD MSTORE PUSH32 0x496E76616C696420416C676562726120466163746F7279206164647265737300 PUSH1 0x44 DUP3 ADD MSTORE PUSH1 0x64 ADD PUSH2 0x21E JUMP JUMPDEST PUSH1 0x1 DUP1 SLOAD PUSH1 0x1 PUSH1 0x1 PUSH1 0xA0 SHL SUB NOT AND PUSH1 0x1 PUSH1 0x1 PUSH1 0xA0 SHL SUB SWAP3 SWAP1 SWAP3 AND SWAP2 SWAP1 SWAP2 OR SWAP1 SSTORE JUMP JUMPDEST PUSH1 0x0 PUSH1 0x1 PUSH1 0x1 PUSH1 0xA0 SHL SUB DUP4 AND ISZERO DUP1 ISZERO SWAP1 PUSH2 0xBB1 JUMPI POP PUSH1 0x1 PUSH1 0x1 PUSH1 0xA0 SHL SUB DUP3 AND ISZERO ISZERO JUMPDEST PUSH2 0xBCD JUMPI PUSH1 0x40 MLOAD PUSH3 0x461BCD PUSH1 0xE5 SHL DUP2 MSTORE PUSH1 0x4 ADD PUSH2 0x21E SWAP1 PUSH2 0xE39 JUMP JUMPDEST DUP2 PUSH1 0x1 PUSH1 0x1 PUSH1 0xA0 SHL SUB AND DUP4 PUSH1 0x1 PUSH1 0x1 PUSH1 0xA0 SHL SUB AND SUB PUSH2 0xC29 JUMPI PUSH1 0x40 MLOAD PUSH3 0x461BCD PUSH1 0xE5 SHL DUP2 MSTORE PUSH1 0x20 PUSH1 0x4 DUP3 ADD MSTORE PUSH1 0x18 PUSH1 0x24 DUP3 ADD MSTORE PUSH24 0x151BDAD95B9CC81B5D5CDD08189948191A5999995C995B9D PUSH1 0x42 SHL PUSH1 0x44 DUP3 ADD MSTORE PUSH1 0x64 ADD PUSH2 0x21E JUMP JUMPDEST PUSH1 0x1 SLOAD PUSH1 0x40 MLOAD PUSH4 0xD8ED2241 PUSH1 0xE0 SHL DUP2 MSTORE PUSH1 0x1 PUSH1 0x1 PUSH1 0xA0 SHL SUB DUP6 DUP2 AND PUSH1 0x4 DUP4 ADD MSTORE DUP5 DUP2 AND PUSH1 0x24 DUP4 ADD MSTORE SWAP1 SWAP2 AND SWAP1 DUP2 SWAP1 PUSH4 0xD8ED2241 SWAP1 PUSH1 0x44 ADD PUSH1 0x20 PUSH1 0x40 MLOAD DUP1 DUP4 SUB DUP2 DUP7 GAS STATICCALL ISZERO DUP1 ISZERO PUSH2 0xC7D JUMPI RETURNDATASIZE PUSH1 0x0 DUP1 RETURNDATACOPY RETURNDATASIZE PUSH1 0x0 REVERT JUMPDEST POP POP POP POP PUSH1 0x40 MLOAD RETURNDATASIZE PUSH1 0x1F NOT PUSH1 0x1F DUP3 ADD AND DUP3 ADD DUP1 PUSH1 0x40 MSTORE POP DUP2 ADD SWAP1 PUSH2 0xCA1 SWAP2 SWAP1 PUSH2 0xE8A JUMP JUMPDEST SWAP5 SWAP4 POP POP POP POP JUMP JUMPDEST PUSH2 0xCB1 PUSH2 0xCE7 JUMP JUMPDEST PUSH1 0x1 PUSH1 0x1 PUSH1 0xA0 SHL SUB DUP2 AND PUSH2 0xCDB JUMPI PUSH1 0x40 MLOAD PUSH4 0x1E4FBDF7 PUSH1 0xE0 SHL DUP2 MSTORE PUSH1 0x0 PUSH1 0x4 DUP3 ADD MSTORE PUSH1 0x24 ADD PUSH2 0x21E JUMP JUMPDEST PUSH2 0xCE4 DUP2 PUSH2 0xD14 JUMP JUMPDEST POP JUMP JUMPDEST PUSH1 0x0 SLOAD PUSH1 0x1 PUSH1 0x1 PUSH1 0xA0 SHL SUB AND CALLER EQ PUSH2 0x536 JUMPI PUSH1 0x40 MLOAD PUSH4 0x118CDAA7 PUSH1 0xE0 SHL DUP2 MSTORE CALLER PUSH1 0x4 DUP3 ADD MSTORE PUSH1 0x24 ADD PUSH2 0x21E JUMP JUMPDEST PUSH1 0x0 DUP1 SLOAD PUSH1 0x1 PUSH1 0x1 PUSH1 0xA0 SHL SUB DUP4 DUP2 AND PUSH1 0x1 PUSH1 0x1 PUSH1 0xA0 SHL SUB NOT DUP4 AND DUP2 OR DUP5 SSTORE PUSH1 0x40 MLOAD SWAP2 SWAP1 SWAP3 AND SWAP3 DUP4 SWAP2 PUSH32 0x8BE0079C531659141344CD1FD0A4F28419497F9722A3DAAFE3B4186F6B6457E0 SWAP2 SWAP1 LOG3 POP POP JUMP JUMPDEST PUSH1 0x1 PUSH1 0x1 PUSH1 0xA0 SHL SUB DUP2 AND DUP2 EQ PUSH2 0xCE4 JUMPI PUSH1 0x0 DUP1 REVERT JUMPDEST PUSH1 0x0 DUP1 PUSH1 0x0 PUSH1 0x60 DUP5 DUP7 SUB SLT ISZERO PUSH2 0xD8E JUMPI PUSH1 0x0 DUP1 REVERT JUMPDEST DUP4 CALLDATALOAD PUSH2 0xD99 DUP2 PUSH2 0xD64 JUMP JUMPDEST SWAP3 POP PUSH1 0x20 DUP5 ADD CALLDATALOAD PUSH2 0xDA9 DUP2 PUSH2 0xD64 JUMP JUMPDEST SWAP3 SWAP6 SWAP3 SWAP5 POP POP POP PUSH1 0x40 SWAP2 SWAP1 SWAP2 ADD CALLDATALOAD SWAP1 JUMP JUMPDEST PUSH1 0x0 DUP1 PUSH1 0x40 DUP4 DUP6 SUB SLT ISZERO PUSH2 0xDCD JUMPI PUSH1 0x0 DUP1 REVERT JUMPDEST POP POP DUP1 CALLDATALOAD SWAP3 PUSH1 0x20 SWAP1 SWAP2 ADD CALLDATALOAD SWAP2 POP JUMP JUMPDEST PUSH1 0x0 PUSH1 0x20 DUP3 DUP5 SUB SLT ISZERO PUSH2 0xDEE JUMPI PUSH1 0x0 DUP1 REVERT JUMPDEST DUP2 CALLDATALOAD PUSH2 0xDF9 DUP2 PUSH2 0xD64 JUMP JUMPDEST SWAP4 SWAP3 POP POP POP JUMP JUMPDEST PUSH1 0x0 DUP1 PUSH1 0x40 DUP4 DUP6 SUB SLT ISZERO PUSH2 0xE13 JUMPI PUSH1 0x0 DUP1 REVERT JUMPDEST DUP3 CALLDATALOAD PUSH2 0xE1E DUP2 PUSH2 0xD64 JUMP JUMPDEST SWAP2 POP PUSH1 0x20 DUP4 ADD CALLDATALOAD PUSH2 0xE2E DUP2 PUSH2 0xD64 JUMP JUMPDEST DUP1 SWAP2 POP POP SWAP3 POP SWAP3 SWAP1 POP JUMP JUMPDEST PUSH1 0x20 DUP1 DUP3 MSTORE PUSH1 0x15 SWAP1 DUP3 ADD MSTORE PUSH21 0x496E76616C696420746F6B656E2061646472657373 PUSH1 0x58 SHL PUSH1 0x40 DUP3 ADD MSTORE PUSH1 0x60 ADD SWAP1 JUMP JUMPDEST PUSH1 0x0 PUSH1 0x20 DUP3 DUP5 SUB SLT ISZERO PUSH2 0xE7A JUMPI PUSH1 0x0 DUP1 REVERT JUMPDEST DUP2 MLOAD DUP1 ISZERO ISZERO DUP2 EQ PUSH2 0xDF9 JUMPI PUSH1 0x0 DUP1 REVERT JUMPDEST PUSH1 0x0 PUSH1 0x20 DUP3 DUP5 SUB SLT ISZERO PUSH2 0xE9C JUMPI PUSH1 0x0 DUP1 REVERT JUMPDEST DUP2 MLOAD PUSH2 0xDF9 DUP2 PUSH2 0xD64 JUMP INVALID SWAP5 0xEB 0xCA DUP14 0x29 0xD2 PUSH25 0xA0288A52A710C11E928307B6F2E15FBAF4508CC4CEB3D21F8B LOG2 PUSH5 0x6970667358 0x22 SLT KECCAK256 0xF9 CREATE DUP16 MOD TLOAD JUMPDEST 0xCC DUP3 0xD7 EXTCODEHASH JUMPDEST PUSH22 0xCC4A17017F151A20087AA5E56EF2DD20FF13A73D6473 PUSH16 0x6C634300081A00336080604052348015 PUSH2 0x10 JUMPI PUSH1 0x0 DUP1 REVERT JUMPDEST POP PUSH1 0x40 DUP1 MLOAD PUSH1 0x20 DUP1 DUP3 ADD DUP4 MSTORE PUSH1 0x0 DUP1 DUP4 MSTORE DUP4 MLOAD SWAP2 DUP3 ADD SWAP1 SWAP4 MSTORE SWAP2 DUP3 MSTORE CALLER SWAP2 PUSH1 0x3 PUSH2 0x3A DUP4 DUP3 PUSH2 0x178 JUMP JUMPDEST POP PUSH1 0x4 PUSH2 0x47 DUP3 DUP3 PUSH2 0x178 JUMP JUMPDEST POP POP POP PUSH1 0x1 PUSH1 0x1 PUSH1 0xA0 SHL SUB DUP2 AND PUSH2 0x78 JUMPI PUSH1 0x40 MLOAD PUSH4 0x1E4FBDF7 PUSH1 0xE0 SHL DUP2 MSTORE PUSH1 0x0 PUSH1 0x4 DUP3 ADD MSTORE PUSH1 0x24 ADD PUSH1 0x40 MLOAD DUP1 SWAP2 SUB SWAP1 REVERT JUMPDEST PUSH2 0x81 DUP2 PUSH2 0x87 JUMP JUMPDEST POP PUSH2 0x236 JUMP JUMPDEST PUSH1 0x5 DUP1 SLOAD PUSH1 0x1 PUSH1 0x1 PUSH1 0xA0 SHL SUB DUP4 DUP2 AND PUSH1 0x1 PUSH1 0x1 PUSH1 0xA0 SHL SUB NOT DUP4 AND DUP2 OR SWAP1 SWAP4 SSTORE PUSH1 0x40 MLOAD SWAP2 AND SWAP2 SWAP1 DUP3 SWAP1 PUSH32 0x8BE0079C531659141344CD1FD0A4F28419497F9722A3DAAFE3B4186F6B6457E0 SWAP1 PUSH1 0x0 SWAP1 LOG3 POP POP JUMP JUMPDEST PUSH4 0x4E487B71 PUSH1 0xE0 SHL PUSH1 0x0 MSTORE PUSH1 0x41 PUSH1 0x4 MSTORE PUSH1 0x24 PUSH1 0x0 REVERT JUMPDEST PUSH1 0x1 DUP2 DUP2 SHR SWAP1 DUP3 AND DUP1 PUSH2 0x103 JUMPI PUSH1 0x7F DUP3 AND SWAP2 POP JUMPDEST PUSH1 0x20 DUP3 LT DUP2 SUB PUSH2 0x123 JUMPI PUSH4 0x4E487B71 PUSH1 0xE0 SHL PUSH1 0x0 MSTORE PUSH1 0x22 PUSH1 0x4 MSTORE PUSH1 0x24 PUSH1 0x0 REVERT JUMPDEST POP SWAP2 SWAP1 POP JUMP JUMPDEST PUSH1 0x1F DUP3 GT ISZERO PUSH2 0x173 JUMPI DUP1 PUSH1 0x0 MSTORE PUSH1 0x20 PUSH1 0x0 KECCAK256 PUSH1 0x1F DUP5 ADD PUSH1 0x5 SHR DUP2 ADD PUSH1 0x20 DUP6 LT ISZERO PUSH2 0x150 JUMPI POP DUP1 JUMPDEST PUSH1 0x1F DUP5 ADD PUSH1 0x5 SHR DUP3 ADD SWAP2 POP JUMPDEST DUP2 DUP2 LT ISZERO PUSH2 0x170 JUMPI PUSH1 0x0 DUP2 SSTORE PUSH1 0x1 ADD PUSH2 0x15C JUMP JUMPDEST POP POP JUMPDEST POP POP POP JUMP JUMPDEST DUP2 MLOAD PUSH1 0x1 PUSH1 0x1 PUSH1 0x40 SHL SUB DUP2 GT ISZERO PUSH2 0x191 JUMPI PUSH2 0x191 PUSH2 0xD9 JUMP JUMPDEST PUSH2 0x1A5 DUP2 PUSH2 0x19F DUP5 SLOAD PUSH2 0xEF JUMP JUMPDEST DUP5 PUSH2 0x129 JUMP JUMPDEST PUSH1 0x20 PUSH1 0x1F DUP3 GT PUSH1 0x1 DUP2 EQ PUSH2 0x1D9 JUMPI PUSH1 0x0 DUP4 ISZERO PUSH2 0x1C1 JUMPI POP DUP5 DUP3 ADD MLOAD JUMPDEST PUSH1 0x0 NOT PUSH1 0x3 DUP6 SWAP1 SHL SHR NOT AND PUSH1 0x1 DUP5 SWAP1 SHL OR DUP5 SSTORE PUSH2 0x170 JUMP JUMPDEST PUSH1 0x0 DUP5 DUP2 MSTORE PUSH1 0x20 DUP2 KECCAK256 PUSH1 0x1F NOT DUP6 AND SWAP2 JUMPDEST DUP3 DUP2 LT ISZERO PUSH2 0x209 JUMPI DUP8 DUP6 ADD MLOAD DUP3 SSTORE PUSH1 0x20 SWAP5 DUP6 ADD SWAP5 PUSH1 0x1 SWAP1 SWAP3 ADD SWAP2 ADD PUSH2 0x1E9 JUMP JUMPDEST POP DUP5 DUP3 LT ISZERO PUSH2 0x227 JUMPI DUP7 DUP5 ADD MLOAD PUSH1 0x0 NOT PUSH1 0x3 DUP8 SWAP1 SHL PUSH1 0xF8 AND SHR NOT AND DUP2 SSTORE JUMPDEST POP POP POP POP PUSH1 0x1 SWAP1 DUP2 SHL ADD SWAP1 SSTORE POP JUMP JUMPDEST PUSH2 0xC9C DUP1 PUSH2 0x245 PUSH1 0x0 CODECOPY PUSH1 0x0 RETURN INVALID PUSH1 0x80 PUSH1 0x40 MSTORE CALLVALUE DUP1 ISZERO PUSH2 0x10 JUMPI PUSH1 0x0 DUP1 REVERT JUMPDEST POP PUSH1 0x4 CALLDATASIZE LT PUSH2 0x100 JUMPI PUSH1 0x0 CALLDATALOAD PUSH1 0xE0 SHR DUP1 PUSH4 0x70A08231 GT PUSH2 0x97 JUMPI DUP1 PUSH4 0xA9059CBB GT PUSH2 0x66 JUMPI DUP1 PUSH4 0xA9059CBB EQ PUSH2 0x209 JUMPI DUP1 PUSH4 0xB90497E0 EQ PUSH2 0x21C JUMPI DUP1 PUSH4 0xDD62ED3E EQ PUSH2 0x224 JUMPI DUP1 PUSH4 0xF2FDE38B EQ PUSH2 0x25D JUMPI PUSH1 0x0 DUP1 REVERT JUMPDEST DUP1 PUSH4 0x70A08231 EQ PUSH2 0x1B5 JUMPI DUP1 PUSH4 0x715018A6 EQ PUSH2 0x1DE JUMPI DUP1 PUSH4 0x8DA5CB5B EQ PUSH2 0x1E6 JUMPI DUP1 PUSH4 0x95D89B41 EQ PUSH2 0x201 JUMPI PUSH1 0x0 DUP1 REVERT JUMPDEST DUP1 PUSH4 0x313CE567 GT PUSH2 0xD3 JUMPI DUP1 PUSH4 0x313CE567 EQ PUSH2 0x16B JUMPI DUP1 PUSH4 0x40C10F19 EQ PUSH2 0x17A JUMPI DUP1 PUSH4 0x4CD88B76 EQ PUSH2 0x18F JUMPI DUP1 PUSH4 0x58E792EE EQ PUSH2 0x1A2 JUMPI PUSH1 0x0 DUP1 REVERT JUMPDEST DUP1 PUSH4 0x6FDDE03 EQ PUSH2 0x105 JUMPI DUP1 PUSH4 0x95EA7B3 EQ PUSH2 0x123 JUMPI DUP1 PUSH4 0x18160DDD EQ PUSH2 0x146 JUMPI DUP1 PUSH4 0x23B872DD EQ PUSH2 0x158 JUMPI JUMPDEST PUSH1 0x0 DUP1 REVERT JUMPDEST PUSH2 0x10D PUSH2 0x270 JUMP JUMPDEST PUSH1 0x40 MLOAD PUSH2 0x11A SWAP2 SWAP1 PUSH2 0x88D JUMP JUMPDEST PUSH1 0x40 MLOAD DUP1 SWAP2 SUB SWAP1 RETURN JUMPDEST PUSH2 0x136 PUSH2 0x131 CALLDATASIZE PUSH1 0x4 PUSH2 0x8F7 JUMP JUMPDEST PUSH2 0x302 JUMP JUMPDEST PUSH1 0x40 MLOAD SWAP1 ISZERO ISZERO DUP2 MSTORE PUSH1 0x20 ADD PUSH2 0x11A JUMP JUMPDEST PUSH1 0x2 SLOAD JUMPDEST PUSH1 0x40 MLOAD SWAP1 DUP2 MSTORE PUSH1 0x20 ADD PUSH2 0x11A JUMP JUMPDEST PUSH2 0x136 PUSH2 0x166 CALLDATASIZE PUSH1 0x4 PUSH2 0x921 JUMP JUMPDEST PUSH2 0x31C JUMP JUMPDEST PUSH1 0x40 MLOAD PUSH1 0x12 DUP2 MSTORE PUSH1 0x20 ADD PUSH2 0x11A JUMP JUMPDEST PUSH2 0x18D PUSH2 0x188 CALLDATASIZE PUSH1 0x4 PUSH2 0x8F7 JUMP JUMPDEST PUSH2 0x340 JUMP JUMPDEST STOP JUMPDEST PUSH2 0x18D PUSH2 0x19D CALLDATASIZE PUSH1 0x4 PUSH2 0xA03 JUMP JUMPDEST PUSH2 0x356 JUMP JUMPDEST PUSH2 0x18D PUSH2 0x1B0 CALLDATASIZE PUSH1 0x4 PUSH2 0xA6C JUMP JUMPDEST PUSH2 0x3D9 JUMP JUMPDEST PUSH2 0x14A PUSH2 0x1C3 CALLDATASIZE PUSH1 0x4 PUSH2 0xAA9 JUMP JUMPDEST PUSH1 0x1 PUSH1 0x1 PUSH1 0xA0 SHL SUB AND PUSH1 0x0 SWAP1 DUP2 MSTORE PUSH1 0x20 DUP2 SWAP1 MSTORE PUSH1 0x40 SWAP1 KECCAK256 SLOAD SWAP1 JUMP JUMPDEST PUSH2 0x18D PUSH2 0x3ED JUMP JUMPDEST PUSH1 0x5 SLOAD PUSH1 0x40 MLOAD PUSH1 0x1 PUSH1 0x1 PUSH1 0xA0 SHL SUB SWAP1 SWAP2 AND DUP2 MSTORE PUSH1 0x20 ADD PUSH2 0x11A JUMP JUMPDEST PUSH2 0x10D PUSH2 0x401 JUMP JUMPDEST PUSH2 0x136 PUSH2 0x217 CALLDATASIZE PUSH1 0x4 PUSH2 0x8F7 JUMP JUMPDEST PUSH2 0x410 JUMP JUMPDEST PUSH2 0x10D PUSH2 0x41E JUMP JUMPDEST PUSH2 0x14A PUSH2 0x232 CALLDATASIZE PUSH1 0x4 PUSH2 0xACB JUMP JUMPDEST PUSH1 0x1 PUSH1 0x1 PUSH1 0xA0 SHL SUB SWAP2 DUP3 AND PUSH1 0x0 SWAP1 DUP2 MSTORE PUSH1 0x1 PUSH1 0x20 SWAP1 DUP2 MSTORE PUSH1 0x40 DUP1 DUP4 KECCAK256 SWAP4 SWAP1 SWAP5 AND DUP3 MSTORE SWAP2 SWAP1 SWAP2 MSTORE KECCAK256 SLOAD SWAP1 JUMP JUMPDEST PUSH2 0x18D PUSH2 0x26B CALLDATASIZE PUSH1 0x4 PUSH2 0xAA9 JUMP JUMPDEST PUSH2 0x4AC JUMP JUMPDEST PUSH1 0x60 PUSH1 0x6 DUP1 SLOAD PUSH2 0x27F SWAP1 PUSH2 0xAFE JUMP JUMPDEST DUP1 PUSH1 0x1F ADD PUSH1 0x20 DUP1 SWAP2 DIV MUL PUSH1 0x20 ADD PUSH1 0x40 MLOAD SWAP1 DUP2 ADD PUSH1 0x40 MSTORE DUP1 SWAP3 SWAP2 SWAP1 DUP2 DUP2 MSTORE PUSH1 0x20 ADD DUP3 DUP1 SLOAD PUSH2 0x2AB SWAP1 PUSH2 0xAFE JUMP JUMPDEST DUP1 ISZERO PUSH2 0x2F8 JUMPI DUP1 PUSH1 0x1F LT PUSH2 0x2CD JUMPI PUSH2 0x100 DUP1 DUP4 SLOAD DIV MUL DUP4 MSTORE SWAP2 PUSH1 0x20 ADD SWAP2 PUSH2 0x2F8 JUMP JUMPDEST DUP3 ADD SWAP2 SWAP1 PUSH1 0x0 MSTORE PUSH1 0x20 PUSH1 0x0 KECCAK256 SWAP1 JUMPDEST DUP2 SLOAD DUP2 MSTORE SWAP1 PUSH1 0x1 ADD SWAP1 PUSH1 0x20 ADD DUP1 DUP4 GT PUSH2 0x2DB JUMPI DUP3 SWAP1 SUB PUSH1 0x1F AND DUP3 ADD SWAP2 JUMPDEST POP POP POP POP POP SWAP1 POP SWAP1 JUMP JUMPDEST PUSH1 0x0 CALLER PUSH2 0x310 DUP2 DUP6 DUP6 PUSH2 0x4EA JUMP JUMPDEST PUSH1 0x1 SWAP2 POP POP JUMPDEST SWAP3 SWAP2 POP POP JUMP JUMPDEST PUSH1 0x0 CALLER PUSH2 0x32A DUP6 DUP3 DUP6 PUSH2 0x4FC JUMP JUMPDEST PUSH2 0x335 DUP6 DUP6 DUP6 PUSH2 0x57A JUMP JUMPDEST POP PUSH1 0x1 SWAP5 SWAP4 POP POP POP POP JUMP JUMPDEST PUSH2 0x348 PUSH2 0x5D9 JUMP JUMPDEST PUSH2 0x352 DUP3 DUP3 PUSH2 0x606 JUMP JUMPDEST POP POP JUMP JUMPDEST PUSH1 0x8 SLOAD PUSH1 0xFF AND ISZERO PUSH2 0x3AE JUMPI PUSH1 0x40 MLOAD PUSH3 0x461BCD PUSH1 0xE5 SHL DUP2 MSTORE PUSH1 0x20 PUSH1 0x4 DUP3 ADD MSTORE PUSH1 0x19 PUSH1 0x24 DUP3 ADD MSTORE PUSH32 0x546F6B656E20616C726561647920696E697469616C697A656400000000000000 PUSH1 0x44 DUP3 ADD MSTORE PUSH1 0x64 ADD JUMPDEST PUSH1 0x40 MLOAD DUP1 SWAP2 SUB SWAP1 REVERT JUMPDEST PUSH1 0x6 PUSH2 0x3BA DUP4 DUP3 PUSH2 0xB86 JUMP JUMPDEST POP PUSH1 0x7 PUSH2 0x3C7 DUP3 DUP3 PUSH2 0xB86 JUMP JUMPDEST POP POP PUSH1 0x8 DUP1 SLOAD PUSH1 0xFF NOT AND PUSH1 0x1 OR SWAP1 SSTORE POP JUMP JUMPDEST PUSH2 0x3E1 PUSH2 0x5D9 JUMP JUMPDEST PUSH1 0x9 PUSH2 0x352 DUP3 DUP3 PUSH2 0xB86 JUMP JUMPDEST PUSH2 0x3F5 PUSH2 0x5D9 JUMP JUMPDEST PUSH2 0x3FF PUSH1 0x0 PUSH2 0x63C JUMP JUMPDEST JUMP JUMPDEST PUSH1 0x60 PUSH1 0x7 DUP1 SLOAD PUSH2 0x27F SWAP1 PUSH2 0xAFE JUMP JUMPDEST PUSH1 0x0 CALLER PUSH2 0x310 DUP2 DUP6 DUP6 PUSH2 0x57A JUMP JUMPDEST PUSH1 0x9 DUP1 SLOAD PUSH2 0x42B SWAP1 PUSH2 0xAFE JUMP JUMPDEST DUP1 PUSH1 0x1F ADD PUSH1 0x20 DUP1 SWAP2 DIV MUL PUSH1 0x20 ADD PUSH1 0x40 MLOAD SWAP1 DUP2 ADD PUSH1 0x40 MSTORE DUP1 SWAP3 SWAP2 SWAP1 DUP2 DUP2 MSTORE PUSH1 0x20 ADD DUP3 DUP1 SLOAD PUSH2 0x457 SWAP1 PUSH2 0xAFE JUMP JUMPDEST DUP1 ISZERO PUSH2 0x4A4 JUMPI DUP1 PUSH1 0x1F LT PUSH2 0x479 JUMPI PUSH2 0x100 DUP1 DUP4 SLOAD DIV MUL DUP4 MSTORE SWAP2 PUSH1 0x20 ADD SWAP2 PUSH2 0x4A4 JUMP JUMPDEST DUP3 ADD SWAP2 SWAP1 PUSH1 0x0 MSTORE PUSH1 0x20 PUSH1 0x0 KECCAK256 SWAP1 JUMPDEST DUP2 SLOAD DUP2 MSTORE SWAP1 PUSH1 0x1 ADD SWAP1 PUSH1 0x20 ADD DUP1 DUP4 GT PUSH2 0x487 JUMPI DUP3 SWAP1 SUB PUSH1 0x1F AND DUP3 ADD SWAP2 JUMPDEST POP POP POP POP POP DUP2 JUMP JUMPDEST PUSH2 0x4B4 PUSH2 0x5D9 JUMP JUMPDEST PUSH1 0x1 PUSH1 0x1 PUSH1 0xA0 SHL SUB DUP2 AND PUSH2 0x4DE JUMPI PUSH1 0x40 MLOAD PUSH4 0x1E4FBDF7 PUSH1 0xE0 SHL DUP2 MSTORE PUSH1 0x0 PUSH1 0x4 DUP3 ADD MSTORE PUSH1 0x24 ADD PUSH2 0x3A5 JUMP JUMPDEST PUSH2 0x4E7 DUP2 PUSH2 0x63C JUMP JUMPDEST POP JUMP JUMPDEST PUSH2 0x4F7 DUP4 DUP4 DUP4 PUSH1 0x1 PUSH2 0x68E JUMP JUMPDEST POP POP POP JUMP JUMPDEST PUSH1 0x1 PUSH1 0x1 PUSH1 0xA0 SHL SUB DUP4 DUP2 AND PUSH1 0x0 SWAP1 DUP2 MSTORE PUSH1 0x1 PUSH1 0x20 SWAP1 DUP2 MSTORE PUSH1 0x40 DUP1 DUP4 KECCAK256 SWAP4 DUP7 AND DUP4 MSTORE SWAP3 SWAP1 MSTORE KECCAK256 SLOAD PUSH1 0x0 NOT DUP2 EQ PUSH2 0x574 JUMPI DUP2 DUP2 LT ISZERO PUSH2 0x565 JUMPI PUSH1 0x40 MLOAD PUSH4 0x7DC7A0D9 PUSH1 0xE1 SHL DUP2 MSTORE PUSH1 0x1 PUSH1 0x1 PUSH1 0xA0 SHL SUB DUP5 AND PUSH1 0x4 DUP3 ADD MSTORE PUSH1 0x24 DUP2 ADD DUP3 SWAP1 MSTORE PUSH1 0x44 DUP2 ADD DUP4 SWAP1 MSTORE PUSH1 0x64 ADD PUSH2 0x3A5 JUMP JUMPDEST PUSH2 0x574 DUP5 DUP5 DUP5 DUP5 SUB PUSH1 0x0 PUSH2 0x68E JUMP JUMPDEST POP POP POP POP JUMP JUMPDEST PUSH1 0x1 PUSH1 0x1 PUSH1 0xA0 SHL SUB DUP4 AND PUSH2 0x5A4 JUMPI PUSH1 0x40 MLOAD PUSH4 0x4B637E8F PUSH1 0xE1 SHL DUP2 MSTORE PUSH1 0x0 PUSH1 0x4 DUP3 ADD MSTORE PUSH1 0x24 ADD PUSH2 0x3A5 JUMP JUMPDEST PUSH1 0x1 PUSH1 0x1 PUSH1 0xA0 SHL SUB DUP3 AND PUSH2 0x5CE JUMPI PUSH1 0x40 MLOAD PUSH4 0xEC442F05 PUSH1 0xE0 SHL DUP2 MSTORE PUSH1 0x0 PUSH1 0x4 DUP3 ADD MSTORE PUSH1 0x24 ADD PUSH2 0x3A5 JUMP JUMPDEST PUSH2 0x4F7 DUP4 DUP4 DUP4 PUSH2 0x763 JUMP JUMPDEST PUSH1 0x5 SLOAD PUSH1 0x1 PUSH1 0x1 PUSH1 0xA0 SHL SUB AND CALLER EQ PUSH2 0x3FF JUMPI PUSH1 0x40 MLOAD PUSH4 0x118CDAA7 PUSH1 0xE0 SHL DUP2 MSTORE CALLER PUSH1 0x4 DUP3 ADD MSTORE PUSH1 0x24 ADD PUSH2 0x3A5 JUMP JUMPDEST PUSH1 0x1 PUSH1 0x1 PUSH1 0xA0 SHL SUB DUP3 AND PUSH2 0x630 JUMPI PUSH1 0x40 MLOAD PUSH4 0xEC442F05 PUSH1 0xE0 SHL DUP2 MSTORE PUSH1 0x0 PUSH1 0x4 DUP3 ADD MSTORE PUSH1 0x24 ADD PUSH2 0x3A5 JUMP JUMPDEST PUSH2 0x352 PUSH1 0x0 DUP4 DUP4 PUSH2 0x763 JUMP JUMPDEST PUSH1 0x5 DUP1 SLOAD PUSH1 0x1 PUSH1 0x1 PUSH1 0xA0 SHL SUB DUP4 DUP2 AND PUSH1 0x1 PUSH1 0x1 PUSH1 0xA0 SHL SUB NOT DUP4 AND DUP2 OR SWAP1 SWAP4 SSTORE PUSH1 0x40 MLOAD SWAP2 AND SWAP2 SWAP1 DUP3 SWAP1 PUSH32 0x8BE0079C531659141344CD1FD0A4F28419497F9722A3DAAFE3B4186F6B6457E0 SWAP1 PUSH1 0x0 SWAP1 LOG3 POP POP JUMP JUMPDEST PUSH1 0x1 PUSH1 0x1 PUSH1 0xA0 SHL SUB DUP5 AND PUSH2 0x6B8 JUMPI PUSH1 0x40 MLOAD PUSH4 0xE602DF05 PUSH1 0xE0 SHL DUP2 MSTORE PUSH1 0x0 PUSH1 0x4 DUP3 ADD MSTORE PUSH1 0x24 ADD PUSH2 0x3A5 JUMP JUMPDEST PUSH1 0x1 PUSH1 0x1 PUSH1 0xA0 SHL SUB DUP4 AND PUSH2 0x6E2 JUMPI PUSH1 0x40 MLOAD PUSH4 0x4A1406B1 PUSH1 0xE1 SHL DUP2 MSTORE PUSH1 0x0 PUSH1 0x4 DUP3 ADD MSTORE PUSH1 0x24 ADD PUSH2 0x3A5 JUMP JUMPDEST PUSH1 0x1 PUSH1 0x1 PUSH1 0xA0 SHL SUB DUP1 DUP6 AND PUSH1 0x0 SWAP1 DUP2 MSTORE PUSH1 0x1 PUSH1 0x20 SWAP1 DUP2 MSTORE PUSH1 0x40 DUP1 DUP4 KECCAK256 SWAP4 DUP8 AND DUP4 MSTORE SWAP3 SWAP1 MSTORE KECCAK256 DUP3 SWAP1 SSTORE DUP1 ISZERO PUSH2 0x574 JUMPI DUP3 PUSH1 0x1 PUSH1 0x1 PUSH1 0xA0 SHL SUB AND DUP5 PUSH1 0x1 PUSH1 0x1 PUSH1 0xA0 SHL SUB AND PUSH32 0x8C5BE1E5EBEC7D5BD14F71427D1E84F3DD0314C0F7B2291E5B200AC8C7C3B925 DUP5 PUSH1 0x40 MLOAD PUSH2 0x755 SWAP2 DUP2 MSTORE PUSH1 0x20 ADD SWAP1 JUMP JUMPDEST PUSH1 0x40 MLOAD DUP1 SWAP2 SUB SWAP1 LOG3 POP POP POP POP JUMP JUMPDEST PUSH1 0x1 PUSH1 0x1 PUSH1 0xA0 SHL SUB DUP4 AND PUSH2 0x78E JUMPI DUP1 PUSH1 0x2 PUSH1 0x0 DUP3 DUP3 SLOAD PUSH2 0x783 SWAP2 SWAP1 PUSH2 0xC45 JUMP JUMPDEST SWAP1 SWAP2 SSTORE POP PUSH2 0x800 SWAP1 POP JUMP JUMPDEST PUSH1 0x1 PUSH1 0x1 PUSH1 0xA0 SHL SUB DUP4 AND PUSH1 0x0 SWAP1 DUP2 MSTORE PUSH1 0x20 DUP2 SWAP1 MSTORE PUSH1 0x40 SWAP1 KECCAK256 SLOAD DUP2 DUP2 LT ISZERO PUSH2 0x7E1 JUMPI PUSH1 0x40 MLOAD PUSH4 0x391434E3 PUSH1 0xE2 SHL DUP2 MSTORE PUSH1 0x1 PUSH1 0x1 PUSH1 0xA0 SHL SUB DUP6 AND PUSH1 0x4 DUP3 ADD MSTORE PUSH1 0x24 DUP2 ADD DUP3 SWAP1 MSTORE PUSH1 0x44 DUP2 ADD DUP4 SWAP1 MSTORE PUSH1 0x64 ADD PUSH2 0x3A5 JUMP JUMPDEST PUSH1 0x1 PUSH1 0x1 PUSH1 0xA0 SHL SUB DUP5 AND PUSH1 0x0 SWAP1 DUP2 MSTORE PUSH1 0x20 DUP2 SWAP1 MSTORE PUSH1 0x40 SWAP1 KECCAK256 SWAP1 DUP3 SWAP1 SUB SWAP1 SSTORE JUMPDEST PUSH1 0x1 PUSH1 0x1 PUSH1 0xA0 SHL SUB DUP3 AND PUSH2 0x81C JUMPI PUSH1 0x2 DUP1 SLOAD DUP3 SWAP1 SUB SWAP1 SSTORE PUSH2 0x83B JUMP JUMPDEST PUSH1 0x1 PUSH1 0x1 PUSH1 0xA0 SHL SUB DUP3 AND PUSH1 0x0 SWAP1 DUP2 MSTORE PUSH1 0x20 DUP2 SWAP1 MSTORE PUSH1 0x40 SWAP1 KECCAK256 DUP1 SLOAD DUP3 ADD SWAP1 SSTORE JUMPDEST DUP2 PUSH1 0x1 PUSH1 0x1 PUSH1 0xA0 SHL SUB AND DUP4 PUSH1 0x1 PUSH1 0x1 PUSH1 0xA0 SHL SUB AND PUSH32 0xDDF252AD1BE2C89B69C2B068FC378DAA952BA7F163C4A11628F55A4DF523B3EF DUP4 PUSH1 0x40 MLOAD PUSH2 0x880 SWAP2 DUP2 MSTORE PUSH1 0x20 ADD SWAP1 JUMP JUMPDEST PUSH1 0x40 MLOAD DUP1 SWAP2 SUB SWAP1 LOG3 POP POP POP JUMP JUMPDEST PUSH1 0x20 DUP2 MSTORE PUSH1 0x0 DUP3 MLOAD DUP1 PUSH1 0x20 DUP5 ADD MSTORE PUSH1 0x0 JUMPDEST DUP2 DUP2 LT ISZERO PUSH2 0x8BB JUMPI PUSH1 0x20 DUP2 DUP7 ADD DUP2 ADD MLOAD PUSH1 0x40 DUP7 DUP5 ADD ADD MSTORE ADD PUSH2 0x89E JUMP JUMPDEST POP PUSH1 0x0 PUSH1 0x40 DUP3 DUP6 ADD ADD MSTORE PUSH1 0x40 PUSH1 0x1F NOT PUSH1 0x1F DUP4 ADD AND DUP5 ADD ADD SWAP2 POP POP SWAP3 SWAP2 POP POP JUMP JUMPDEST DUP1 CALLDATALOAD PUSH1 0x1 PUSH1 0x1 PUSH1 0xA0 SHL SUB DUP2 AND DUP2 EQ PUSH2 0x8F2 JUMPI PUSH1 0x0 DUP1 REVERT JUMPDEST SWAP2 SWAP1 POP JUMP JUMPDEST PUSH1 0x0 DUP1 PUSH1 0x40 DUP4 DUP6 SUB SLT ISZERO PUSH2 0x90A JUMPI PUSH1 0x0 DUP1 REVERT JUMPDEST PUSH2 0x913 DUP4 PUSH2 0x8DB JUMP JUMPDEST SWAP5 PUSH1 0x20 SWAP4 SWAP1 SWAP4 ADD CALLDATALOAD SWAP4 POP POP POP JUMP JUMPDEST PUSH1 0x0 DUP1 PUSH1 0x0 PUSH1 0x60 DUP5 DUP7 SUB SLT ISZERO PUSH2 0x936 JUMPI PUSH1 0x0 DUP1 REVERT JUMPDEST PUSH2 0x93F DUP5 PUSH2 0x8DB JUMP JUMPDEST SWAP3 POP PUSH2 0x94D PUSH1 0x20 DUP6 ADD PUSH2 0x8DB JUMP JUMPDEST SWAP3 SWAP6 SWAP3 SWAP5 POP POP POP PUSH1 0x40 SWAP2 SWAP1 SWAP2 ADD CALLDATALOAD SWAP1 JUMP JUMPDEST PUSH4 0x4E487B71 PUSH1 0xE0 SHL PUSH1 0x0 MSTORE PUSH1 0x41 PUSH1 0x4 MSTORE PUSH1 0x24 PUSH1 0x0 REVERT JUMPDEST PUSH1 0x0 DUP3 PUSH1 0x1F DUP4 ADD SLT PUSH2 0x985 JUMPI PUSH1 0x0 DUP1 REVERT JUMPDEST DUP2 CALLDATALOAD PUSH8 0xFFFFFFFFFFFFFFFF DUP2 GT ISZERO PUSH2 0x99F JUMPI PUSH2 0x99F PUSH2 0x95E JUMP JUMPDEST PUSH1 0x40 MLOAD PUSH1 0x1F DUP3 ADD PUSH1 0x1F NOT SWAP1 DUP2 AND PUSH1 0x3F ADD AND DUP2 ADD PUSH8 0xFFFFFFFFFFFFFFFF DUP2 GT DUP3 DUP3 LT OR ISZERO PUSH2 0x9CE JUMPI PUSH2 0x9CE PUSH2 0x95E JUMP JUMPDEST PUSH1 0x40 MSTORE DUP2 DUP2 MSTORE DUP4 DUP3 ADD PUSH1 0x20 ADD DUP6 LT ISZERO PUSH2 0x9E6 JUMPI PUSH1 0x0 DUP1 REVERT JUMPDEST DUP2 PUSH1 0x20 DUP6 ADD PUSH1 0x20 DUP4 ADD CALLDATACOPY PUSH1 0x0 SWAP2 DUP2 ADD PUSH1 0x20 ADD SWAP2 SWAP1 SWAP2 MSTORE SWAP4 SWAP3 POP POP POP JUMP JUMPDEST PUSH1 0x0 DUP1 PUSH1 0x40 DUP4 DUP6 SUB SLT ISZERO PUSH2 0xA16 JUMPI PUSH1 0x0 DUP1 REVERT JUMPDEST DUP3 CALLDATALOAD PUSH8 0xFFFFFFFFFFFFFFFF DUP2 GT ISZERO PUSH2 0xA2D JUMPI PUSH1 0x0 DUP1 REVERT JUMPDEST PUSH2 0xA39 DUP6 DUP3 DUP7 ADD PUSH2 0x974 JUMP JUMPDEST SWAP3 POP POP PUSH1 0x20 DUP4 ADD CALLDATALOAD PUSH8 0xFFFFFFFFFFFFFFFF DUP2 GT ISZERO PUSH2 0xA56 JUMPI PUSH1 0x0 DUP1 REVERT JUMPDEST PUSH2 0xA62 DUP6 DUP3 DUP7 ADD PUSH2 0x974 JUMP JUMPDEST SWAP2 POP POP SWAP3 POP SWAP3 SWAP1 POP JUMP JUMPDEST PUSH1 0x0 PUSH1 0x20 DUP3 DUP5 SUB SLT ISZERO PUSH2 0xA7E JUMPI PUSH1 0x0 DUP1 REVERT JUMPDEST DUP2 CALLDATALOAD PUSH8 0xFFFFFFFFFFFFFFFF DUP2 GT ISZERO PUSH2 0xA95 JUMPI PUSH1 0x0 DUP1 REVERT JUMPDEST PUSH2 0xAA1 DUP5 DUP3 DUP6 ADD PUSH2 0x974 JUMP JUMPDEST SWAP5 SWAP4 POP POP POP POP JUMP JUMPDEST PUSH1 0x0 PUSH1 0x20 DUP3 DUP5 SUB SLT ISZERO PUSH2 0xABB JUMPI PUSH1 0x0 DUP1 REVERT JUMPDEST PUSH2 0xAC4 DUP3 PUSH2 0x8DB JUMP JUMPDEST SWAP4 SWAP3 POP POP POP JUMP JUMPDEST PUSH1 0x0 DUP1 PUSH1 0x40 DUP4 DUP6 SUB SLT ISZERO PUSH2 0xADE JUMPI PUSH1 0x0 DUP1 REVERT JUMPDEST PUSH2 0xAE7 DUP4 PUSH2 0x8DB JUMP JUMPDEST SWAP2 POP PUSH2 0xAF5 PUSH1 0x20 DUP5 ADD PUSH2 0x8DB JUMP JUMPDEST SWAP1 POP SWAP3 POP SWAP3 SWAP1 POP JUMP JUMPDEST PUSH1 0x1 DUP2 DUP2 SHR SWAP1 DUP3 AND DUP1 PUSH2 0xB12 JUMPI PUSH1 0x7F DUP3 AND SWAP2 POP JUMPDEST PUSH1 0x20 DUP3 LT DUP2 SUB PUSH2 0xB32 JUMPI PUSH4 0x4E487B71 PUSH1 0xE0 SHL PUSH1 0x0 MSTORE PUSH1 0x22 PUSH1 0x4 MSTORE PUSH1 0x24 PUSH1 0x0 REVERT JUMPDEST POP SWAP2 SWAP1 POP JUMP JUMPDEST PUSH1 0x1F DUP3 GT ISZERO PUSH2 0x4F7 JUMPI DUP1 PUSH1 0x0 MSTORE PUSH1 0x20 PUSH1 0x0 KECCAK256 PUSH1 0x1F DUP5 ADD PUSH1 0x5 SHR DUP2 ADD PUSH1 0x20 DUP6 LT ISZERO PUSH2 0xB5F JUMPI POP DUP1 JUMPDEST PUSH1 0x1F DUP5 ADD PUSH1 0x5 SHR DUP3 ADD SWAP2 POP JUMPDEST DUP2 DUP2 LT ISZERO PUSH2 0xB7F JUMPI PUSH1 0x0 DUP2 SSTORE PUSH1 0x1 ADD PUSH2 0xB6B JUMP JUMPDEST POP POP POP POP POP JUMP JUMPDEST DUP2 MLOAD PUSH8 0xFFFFFFFFFFFFFFFF DUP2 GT ISZERO PUSH2 0xBA0 JUMPI PUSH2 0xBA0 PUSH2 0x95E JUMP JUMPDEST PUSH2 0xBB4 DUP2 PUSH2 0xBAE DUP5 SLOAD PUSH2 0xAFE JUMP JUMPDEST DUP5 PUSH2 0xB38 JUMP JUMPDEST PUSH1 0x20 PUSH1 0x1F DUP3 GT PUSH1 0x1 DUP2 EQ PUSH2 0xBE8 JUMPI PUSH1 0x0 DUP4 ISZERO PUSH2 0xBD0 JUMPI POP DUP5 DUP3 ADD MLOAD JUMPDEST PUSH1 0x0 NOT PUSH1 0x3 DUP6 SWAP1 SHL SHR NOT AND PUSH1 0x1 DUP5 SWAP1 SHL OR DUP5 SSTORE PUSH2 0xB7F JUMP JUMPDEST PUSH1 0x0 DUP5 DUP2 MSTORE PUSH1 0x20 DUP2 KECCAK256 PUSH1 0x1F NOT DUP6 AND SWAP2 JUMPDEST DUP3 DUP2 LT ISZERO PUSH2 0xC18 JUMPI DUP8 DUP6 ADD MLOAD DUP3 SSTORE PUSH1 0x20 SWAP5 DUP6 ADD SWAP5 PUSH1 0x1 SWAP1 SWAP3 ADD SWAP2 ADD PUSH2 0xBF8 JUMP JUMPDEST POP DUP5 DUP3 LT ISZERO PUSH2 0xC36 JUMPI DUP7 DUP5 ADD MLOAD PUSH1 0x0 NOT PUSH1 0x3 DUP8 SWAP1 SHL PUSH1 0xF8 AND SHR NOT AND DUP2 SSTORE JUMPDEST POP POP POP POP PUSH1 0x1 SWAP1 DUP2 SHL ADD SWAP1 SSTORE POP JUMP JUMPDEST DUP1 DUP3 ADD DUP1 DUP3 GT ISZERO PUSH2 0x316 JUMPI PUSH4 0x4E487B71 PUSH1 0xE0 SHL PUSH1 0x0 MSTORE PUSH1 0x11 PUSH1 0x4 MSTORE PUSH1 0x24 PUSH1 0x0 REVERT INVALID LOG2 PUSH5 0x6970667358 0x22 SLT KECCAK256 0xC8 DUP6 0x2F 0xB7 0xB8 0xBC JUMPDEST 0xC2 0xE0 0xBB SELFBALANCE 0xDB MULMOD SWAP10 PUSH32 0x4A4BE9D29054E1C4BEEC35E07625033D5F64736F6C634300081A0033BF67EC12 SWAP1 SMOD 0xBE SMOD RETURN CHAINID 0xD9 0xD2 SWAP4 ORIGIN ISZERO 0x29 GASPRICE PUSH7 0x12CE7FF17D6B47 SWAP11 GAS TLOAD 0xAE PUSH19 0x890C0000000000000000000000000000000000 "
				},
				"gasEstimates": {
					"creation": {
						"codeDepositCost": "767400",
						"executionCost": "infinite",
						"totalCost": "infinite"
					},
					"external": {
						"addLiquidity(uint256,uint256)": "infinite",
						"algebraFactory()": "2347",
						"computePoolAddress(address,address)": "infinite",
						"createPool()": "infinite",
						"lastCreatedPool()": "2348",
						"mintTokens(address,address,uint256)": "infinite",
						"owner()": "2342",
						"renounceOwnership()": "infinite",
						"tokenA()": "2326",
						"tokenB()": "2392",
						"transferOwnership(address)": "infinite",
						"transferTokensToPool(address,address,uint256)": "infinite",
						"updateAlgebraFactory(address)": "26808"
					}
				},
				"methodIdentifiers": {
					"addLiquidity(uint256,uint256)": "9cd441da",
					"algebraFactory()": "a7b64b04",
					"computePoolAddress(address,address)": "d8ed2241",
					"createPool()": "9a06b113",
					"lastCreatedPool()": "1a7c2131",
					"mintTokens(address,address,uint256)": "6fc98ee1",
					"owner()": "8da5cb5b",
					"renounceOwnership()": "715018a6",
					"tokenA()": "0fc63d10",
					"tokenB()": "5f64b55b",
					"transferOwnership(address)": "f2fde38b",
					"transferTokensToPool(address,address,uint256)": "4f16fa53",
					"updateAlgebraFactory(address)": "b62d2af9"
				}
			},
			"storageLayout": {
				"storage": [
					{
						"astId": 8,
						"contract": "contracts/token factory/testAlgebra.sol:AlgebraPoolTester",
						"label": "_owner",
						"offset": 0,
						"slot": "0",
						"type": "t_address"
					},
					{
						"astId": 1111,
						"contract": "contracts/token factory/testAlgebra.sol:AlgebraPoolTester",
						"label": "algebraFactory",
						"offset": 0,
						"slot": "1",
						"type": "t_address"
					},
					{
						"astId": 1113,
						"contract": "contracts/token factory/testAlgebra.sol:AlgebraPoolTester",
						"label": "lastCreatedPool",
						"offset": 0,
						"slot": "2",
						"type": "t_address"
					},
					{
						"astId": 1115,
						"contract": "contracts/token factory/testAlgebra.sol:AlgebraPoolTester",
						"label": "tokenA",
						"offset": 0,
						"slot": "3",
						"type": "t_address"
					},
					{
						"astId": 1117,
						"contract": "contracts/token factory/testAlgebra.sol:AlgebraPoolTester",
						"label": "tokenB",
						"offset": 0,
						"slot": "4",
						"type": "t_address"
					}
				],
				"types": {
					"t_address": {
						"encoding": "inplace",
						"label": "address",
						"numberOfBytes": "20"
					}
				}
			},
			"userdoc": {
				"kind": "user",
				"methods": {
					"addLiquidity(uint256,uint256)": {
						"notice": "Adds liquidity to the pool."
					},
					"computePoolAddress(address,address)": {
						"notice": "Computes the address of a pool without creating it."
					},
					"createPool()": {
						"notice": "Creates a pool for the two tokens created in the constructor."
					},
					"mintTokens(address,address,uint256)": {
						"notice": "Mints tokens of the specified type to a given address."
					},
					"transferTokensToPool(address,address,uint256)": {
						"notice": "Transfers tokens to a pool."
					},
					"updateAlgebraFactory(address)": {
						"notice": "Updates the address of the Algebra Factory."
					}
				},
				"version": 1
			}
		}
	}
}